{"abi":[{"type":"constructor","inputs":[],"stateMutability":"nonpayable"},{"type":"function","name":"DEFAULT_ADMIN_ROLE","inputs":[],"outputs":[{"name":"","type":"bytes32","internalType":"bytes32"}],"stateMutability":"view"},{"type":"function","name":"FACTOR_PRECISION","inputs":[],"outputs":[{"name":"","type":"uint256","internalType":"uint256"}],"stateMutability":"view"},{"type":"function","name":"UPGRADER_ROLE","inputs":[],"outputs":[{"name":"","type":"bytes32","internalType":"bytes32"}],"stateMutability":"view"},{"type":"function","name":"UPGRADE_INTERFACE_VERSION","inputs":[],"outputs":[{"name":"","type":"string","internalType":"string"}],"stateMutability":"view"},{"type":"function","name":"boostYield","inputs":[{"name":"nftId","type":"uint256","internalType":"uint256"},{"name":"priceQuery","type":"tuple","internalType":"struct IPriceOracle.PriceAttestationQuery","components":[{"name":"price","type":"uint256","internalType":"uint256"},{"name":"decimals","type":"uint8","internalType":"uint8"},{"name":"dataTimestamp","type":"uint256","internalType":"uint256"},{"name":"assetPair","type":"bytes32","internalType":"bytes32"},{"name":"signature","type":"bytes","internalType":"bytes"}]}],"outputs":[],"stateMutability":"payable"},{"type":"function","name":"cuspdToken","inputs":[],"outputs":[{"name":"","type":"address","internalType":"contract IcUSPDToken"}],"stateMutability":"view"},{"type":"function","name":"getRoleAdmin","inputs":[{"name":"role","type":"bytes32","internalType":"bytes32"}],"outputs":[{"name":"","type":"bytes32","internalType":"bytes32"}],"stateMutability":"view"},{"type":"function","name":"getSurplusYield","inputs":[],"outputs":[{"name":"","type":"uint256","internalType":"uint256"}],"stateMutability":"view"},{"type":"function","name":"grantRole","inputs":[{"name":"role","type":"bytes32","internalType":"bytes32"},{"name":"account","type":"address","internalType":"address"}],"outputs":[],"stateMutability":"nonpayable"},{"type":"function","name":"hasRole","inputs":[{"name":"role","type":"bytes32","internalType":"bytes32"},{"name":"account","type":"address","internalType":"address"}],"outputs":[{"name":"","type":"bool","internalType":"bool"}],"stateMutability":"view"},{"type":"function","name":"initialize","inputs":[{"name":"_admin","type":"address","internalType":"address"},{"name":"_cuspdToken","type":"address","internalType":"address"},{"name":"_rateContract","type":"address","internalType":"address"},{"name":"_stabilizerNFT","type":"address","internalType":"address"},{"name":"_oracle","type":"address","internalType":"address"}],"outputs":[],"stateMutability":"nonpayable"},{"type":"function","name":"oracle","inputs":[],"outputs":[{"name":"","type":"address","internalType":"contract IPriceOracle"}],"stateMutability":"view"},{"type":"function","name":"proxiableUUID","inputs":[],"outputs":[{"name":"","type":"bytes32","internalType":"bytes32"}],"stateMutability":"view"},{"type":"function","name":"rateContract","inputs":[],"outputs":[{"name":"","type":"address","internalType":"contract IPoolSharesConversionRate"}],"stateMutability":"view"},{"type":"function","name":"renounceRole","inputs":[{"name":"role","type":"bytes32","internalType":"bytes32"},{"name":"callerConfirmation","type":"address","internalType":"address"}],"outputs":[],"stateMutability":"nonpayable"},{"type":"function","name":"revokeRole","inputs":[{"name":"role","type":"bytes32","internalType":"bytes32"},{"name":"account","type":"address","internalType":"address"}],"outputs":[],"stateMutability":"nonpayable"},{"type":"function","name":"stabilizerNFT","inputs":[],"outputs":[{"name":"","type":"address","internalType":"contract IERC721Minimal"}],"stateMutability":"view"},{"type":"function","name":"supportsInterface","inputs":[{"name":"interfaceId","type":"bytes4","internalType":"bytes4"}],"outputs":[{"name":"","type":"bool","internalType":"bool"}],"stateMutability":"view"},{"type":"function","name":"surplusYieldFactor","inputs":[],"outputs":[{"name":"","type":"uint256","internalType":"uint256"}],"stateMutability":"view"},{"type":"function","name":"updateDependencies","inputs":[{"name":"_cuspdToken","type":"address","internalType":"address"},{"name":"_rateContract","type":"address","internalType":"address"},{"name":"_stabilizerNFT","type":"address","internalType":"address"},{"name":"_oracle","type":"address","internalType":"address"}],"outputs":[],"stateMutability":"nonpayable"},{"type":"function","name":"upgradeToAndCall","inputs":[{"name":"newImplementation","type":"address","internalType":"address"},{"name":"data","type":"bytes","internalType":"bytes"}],"outputs":[],"stateMutability":"payable"},{"type":"event","name":"DependenciesUpdated","inputs":[{"name":"newCuspdToken","type":"address","indexed":false,"internalType":"address"},{"name":"newRateContract","type":"address","indexed":false,"internalType":"address"},{"name":"newStabilizerNFT","type":"address","indexed":false,"internalType":"address"},{"name":"newOracle","type":"address","indexed":false,"internalType":"address"}],"anonymous":false},{"type":"event","name":"Initialized","inputs":[{"name":"version","type":"uint64","indexed":false,"internalType":"uint64"}],"anonymous":false},{"type":"event","name":"RoleAdminChanged","inputs":[{"name":"role","type":"bytes32","indexed":true,"internalType":"bytes32"},{"name":"previousAdminRole","type":"bytes32","indexed":true,"internalType":"bytes32"},{"name":"newAdminRole","type":"bytes32","indexed":true,"internalType":"bytes32"}],"anonymous":false},{"type":"event","name":"RoleGranted","inputs":[{"name":"role","type":"bytes32","indexed":true,"internalType":"bytes32"},{"name":"account","type":"address","indexed":true,"internalType":"address"},{"name":"sender","type":"address","indexed":true,"internalType":"address"}],"anonymous":false},{"type":"event","name":"RoleRevoked","inputs":[{"name":"role","type":"bytes32","indexed":true,"internalType":"bytes32"},{"name":"account","type":"address","indexed":true,"internalType":"address"},{"name":"sender","type":"address","indexed":true,"internalType":"address"}],"anonymous":false},{"type":"event","name":"Upgraded","inputs":[{"name":"implementation","type":"address","indexed":true,"internalType":"address"}],"anonymous":false},{"type":"event","name":"YieldBoosted","inputs":[{"name":"contributor","type":"address","indexed":true,"internalType":"address"},{"name":"ethAmount","type":"uint256","indexed":false,"internalType":"uint256"},{"name":"usdValue","type":"uint256","indexed":false,"internalType":"uint256"},{"name":"newTotalSurplusYield","type":"uint256","indexed":false,"internalType":"uint256"}],"anonymous":false},{"type":"error","name":"AccessControlBadConfirmation","inputs":[]},{"type":"error","name":"AccessControlUnauthorizedAccount","inputs":[{"name":"account","type":"address","internalType":"address"},{"name":"neededRole","type":"bytes32","internalType":"bytes32"}]},{"type":"error","name":"AddressEmptyCode","inputs":[{"name":"target","type":"address","internalType":"address"}]},{"type":"error","name":"ERC1967InvalidImplementation","inputs":[{"name":"implementation","type":"address","internalType":"address"}]},{"type":"error","name":"ERC1967NonPayable","inputs":[]},{"type":"error","name":"FailedCall","inputs":[]},{"type":"error","name":"InvalidInitialization","inputs":[]},{"type":"error","name":"InvalidNftId","inputs":[]},{"type":"error","name":"InvalidOraclePrice","inputs":[]},{"type":"error","name":"NoSharesToBoost","inputs":[]},{"type":"error","name":"NotInitializing","inputs":[]},{"type":"error","name":"NotNFTOwner","inputs":[]},{"type":"error","name":"PositionEscrowNotFound","inputs":[]},{"type":"error","name":"UUPSUnauthorizedCallContext","inputs":[]},{"type":"error","name":"UUPSUnsupportedProxiableUUID","inputs":[{"name":"slot","type":"bytes32","internalType":"bytes32"}]},{"type":"error","name":"ZeroAddress","inputs":[]},{"type":"error","name":"ZeroAmount","inputs":[]}],"bytecode":{"object":"0x60a060405230608052348015610013575f5ffd5b5061001c610021565b6100d3565b7ff0c57e16840df040f15088dc2f81fe391c3923bec73e23a9662efc9c229c6a00805468010000000000000000900460ff16156100715760405163f92ee8a960e01b815260040160405180910390fd5b80546001600160401b03908116146100d05780546001600160401b0319166001600160401b0390811782556040519081527fc7f505b2f371ae2175ee4913f4499e1f2633a7b5936321eed1cdaeb6115181d29060200160405180910390a15b50565b6080516118086100f95f395f8181610e5601528181610e7f0152610fe001526118085ff3fe608060405260043610610126575f3560e01c80637dc0d1d0116100a8578063a42c69a91161006d578063a42c69a9146102ff578063ad3cb1cc1461031a578063bdace23214610357578063d547741f1461036a578063eee2421914610389578063f72c0d8b146103a8575f5ffd5b80637dc0d1d01461027b57806383113ec31461029a5780638d001863146102ae57806391d14854146102cd578063a217fddf146102ec575f5ffd5b80632f2ff15d116100ee5780632f2ff15d146101f857806336568abe146102175780634f1ef2861461023657806352d1902d146102495780636bc05b7e1461025d575f5ffd5b806301ffc9a71461012a5780630e623f331461015e5780631459457a146101815780631c48b36d146101a2578063248a9ca3146101d9575b5f5ffd5b348015610135575f5ffd5b50610149610144366004611266565b6103db565b60405190151581526020015b60405180910390f35b348015610169575f5ffd5b5061017360045481565b604051908152602001610155565b34801561018c575f5ffd5b506101a061019b3660046112a1565b610405565b005b3480156101ad575f5ffd5b506002546101c1906001600160a01b031681565b6040516001600160a01b039091168152602001610155565b3480156101e4575f5ffd5b506101736101f336600461130e565b610722565b348015610203575f5ffd5b506101a0610212366004611325565b610742565b348015610222575f5ffd5b506101a0610231366004611325565b610764565b6101a0610244366004611398565b61079c565b348015610254575f5ffd5b506101736107bb565b348015610268575f5ffd5b505f546101c1906001600160a01b031681565b348015610286575f5ffd5b506003546101c1906001600160a01b031681565b3480156102a5575f5ffd5b50600454610173565b3480156102b9575f5ffd5b506101a06102c836600461143f565b6107d6565b3480156102d8575f5ffd5b506101496102e7366004611325565b6108da565b3480156102f7575f5ffd5b506101735f81565b34801561030a575f5ffd5b50610173670de0b6b3a764000081565b348015610325575f5ffd5b5061034a604051806040016040528060058152602001640352e302e360dc1b81525081565b6040516101559190611498565b6101a06103653660046114cd565b610910565b348015610375575f5ffd5b506101a0610384366004611325565b610ca2565b348015610394575f5ffd5b506001546101c1906001600160a01b031681565b3480156103b3575f5ffd5b506101737f189ab7a9244df0848122154315af71fe140f3db0fe014031783b0946b8c9d2e381565b5f6001600160e01b031982166383113ec360e01b14806103ff57506103ff82610cbe565b92915050565b5f61040e610cf2565b805490915060ff600160401b820416159067ffffffffffffffff165f811580156104355750825b90505f8267ffffffffffffffff1660011480156104515750303b155b90508115801561045f575080155b1561047d5760405163f92ee8a960e01b815260040160405180910390fd5b845467ffffffffffffffff1916600117855583156104a757845460ff60401b1916600160401b1785555b6104af610d1a565b6104b7610d1a565b6001600160a01b038a166105075760405162461bcd60e51b81526020600482015260126024820152715a65726f2061646d696e206164647265737360701b60448201526064015b60405180910390fd5b6001600160a01b03891661055d5760405162461bcd60e51b815260206004820152601760248201527f5a65726f206375737064546f6b656e206164647265737300000000000000000060448201526064016104fe565b6001600160a01b0388166105b35760405162461bcd60e51b815260206004820152601960248201527f5a65726f2072617465436f6e747261637420616464726573730000000000000060448201526064016104fe565b6001600160a01b0387166106095760405162461bcd60e51b815260206004820152601a60248201527f5a65726f2073746162696c697a65724e4654206164647265737300000000000060448201526064016104fe565b6001600160a01b0386166106555760405162461bcd60e51b81526020600482015260136024820152725a65726f206f7261636c65206164647265737360681b60448201526064016104fe565b5f80546001600160a01b03808c166001600160a01b0319928316178355600180548c8316908416179055600280548b831690841617905560038054918a16919092161790556106a4908b610d24565b506106cf7f189ab7a9244df0848122154315af71fe140f3db0fe014031783b0946b8c9d2e38b610d24565b50831561071657845460ff60401b19168555604051600181527fc7f505b2f371ae2175ee4913f4499e1f2633a7b5936321eed1cdaeb6115181d29060200160405180910390a15b50505050505050505050565b5f9081525f5160206117e85f395f51905f52602052604090206001015490565b61074b82610722565b61075481610dc5565b61075e8383610d24565b50505050565b6001600160a01b038116331461078d5760405163334bd91960e11b815260040160405180910390fd5b6107978282610dd2565b505050565b6107a4610e4b565b6107ad82610eef565b6107b78282610f19565b5050565b5f6107c4610fd5565b505f5160206117c85f395f51905f5290565b5f6107e081610dc5565b6001600160a01b03851615806107fd57506001600160a01b038416155b8061080f57506001600160a01b038316155b8061082157506001600160a01b038216155b1561083f5760405163d92e233d60e01b815260040160405180910390fd5b5f80546001600160a01b038781166001600160a01b031992831681179093556001805488831690841681179091556002805488841690851681179091556003805493881693909416831790935560408051948552602085019190915283019190915260608201527f0245500e985ac8b5fdacdd768a0b50ee1b878ceba4dd71d8c8bfad0adba36c699060800160405180910390a15050505050565b5f9182525f5160206117e85f395f51905f52602090815260408084206001600160a01b0393909316845291905290205460ff1690565b345f0361093057604051631f2a200560e01b815260040160405180910390fd5b6002546040516331a9108f60e11b81526004810184905233916001600160a01b031690636352211e90602401602060405180830381865afa158015610977573d5f5f3e3d5ffd5b505050506040513d601f19601f8201168201806040525081019061099b919061150c565b6001600160a01b0316146109c257604051631022318760e21b815260040160405180910390fd5b816001146109e35760405163ccebdcad60e01b815260040160405180910390fd5b5f5f5f9054906101000a90046001600160a01b03166001600160a01b03166318160ddd6040518163ffffffff1660e01b8152600401602060405180830381865afa158015610a33573d5f5f3e3d5ffd5b505050506040513d601f19601f82011682018060405250810190610a579190611527565b9050805f03610a7957604051630978d1bf60e11b815260040160405180910390fd5b6003546040516365ab8c7160e01b81525f916001600160a01b0316906365ab8c7190610aa9908690600401611574565b6060604051808303815f875af1158015610ac5573d5f5f3e3d5ffd5b505050506040513d601f19601f82011682018060405250810190610ae99190611604565b80519091505f03610b0c5760405162fc7cad60e51b815260040160405180910390fd5b5f816020015160ff16600a610b21919061175d565b8251610b2d9034611768565b610b37919061177f565b90505f83610b4d670de0b6b3a764000084611768565b610b57919061177f565b90508060045f828254610b6a919061179e565b90915550506002546040516350256a8960e11b8152600481018890525f916001600160a01b03169063a04ad51290602401602060405180830381865afa158015610bb6573d5f5f3e3d5ffd5b505050506040513d601f19601f82011682018060405250810190610bda919061150c565b90506001600160a01b038116610c0357604051637d9a30f160e11b815260040160405180910390fd5b806001600160a01b031663769ef03d346040518263ffffffff1660e01b81526004015f604051808303818588803b158015610c3c575f5ffd5b505af1158015610c4e573d5f5f3e3d5ffd5b5050600454604080513481526020810189905280820192909252513394507f692d9b08124cea3156788765152f1c848e7a1db4a49ddf410c222e1ea3fd5c439350908190036060019150a250505050505050565b610cab82610722565b610cb481610dc5565b61075e8383610dd2565b5f6001600160e01b03198216637965db0b60e01b14806103ff57506301ffc9a760e01b6001600160e01b03198316146103ff565b5f807ff0c57e16840df040f15088dc2f81fe391c3923bec73e23a9662efc9c229c6a006103ff565b610d2261101e565b565b5f5f5160206117e85f395f51905f52610d3d84846108da565b610dbc575f848152602082815260408083206001600160a01b03871684529091529020805460ff19166001179055610d723390565b6001600160a01b0316836001600160a01b0316857f2f8788117e7eff1d82e926ec794901d17c78024a50270940304540a733656f0d60405160405180910390a460019150506103ff565b5f9150506103ff565b610dcf8133611043565b50565b5f5f5160206117e85f395f51905f52610deb84846108da565b15610dbc575f848152602082815260408083206001600160a01b0387168085529252808320805460ff1916905551339287917ff6391f5c32d9c69d2a47ea670b442974b53935d1edc7fd64eb21e047a839171b9190a460019150506103ff565b306001600160a01b037f0000000000000000000000000000000000000000000000000000000000000000161480610ed157507f00000000000000000000000000000000000000000000000000000000000000006001600160a01b0316610ec55f5160206117c85f395f51905f52546001600160a01b031690565b6001600160a01b031614155b15610d225760405163703e46dd60e11b815260040160405180910390fd5b7f189ab7a9244df0848122154315af71fe140f3db0fe014031783b0946b8c9d2e36107b781610dc5565b816001600160a01b03166352d1902d6040518163ffffffff1660e01b8152600401602060405180830381865afa925050508015610f73575060408051601f3d908101601f19168201909252610f7091810190611527565b60015b610f9b57604051634c9c8ce360e01b81526001600160a01b03831660048201526024016104fe565b5f5160206117c85f395f51905f528114610fcb57604051632a87526960e21b8152600481018290526024016104fe565b610797838361107c565b306001600160a01b037f00000000000000000000000000000000000000000000000000000000000000001614610d225760405163703e46dd60e11b815260040160405180910390fd5b6110266110d1565b610d2257604051631afcd79f60e31b815260040160405180910390fd5b61104d82826108da565b6107b75760405163e2517d3f60e01b81526001600160a01b0382166004820152602481018390526044016104fe565b611085826110ea565b6040516001600160a01b038316907fbc7cd75a20ee27fd9adebab32041f755214dbc6bffa90cc0225b39da2e5c2d3b905f90a28051156110c957610797828261114d565b6107b76111bf565b5f6110da610cf2565b54600160401b900460ff16919050565b806001600160a01b03163b5f0361111f57604051634c9c8ce360e01b81526001600160a01b03821660048201526024016104fe565b5f5160206117c85f395f51905f5280546001600160a01b0319166001600160a01b0392909216919091179055565b60605f5f846001600160a01b03168460405161116991906117b1565b5f60405180830381855af49150503d805f81146111a1576040519150601f19603f3d011682016040523d82523d5f602084013e6111a6565b606091505b50915091506111b68583836111de565b95945050505050565b3415610d225760405163b398979f60e01b815260040160405180910390fd5b6060826111f3576111ee8261123d565b611236565b815115801561120a57506001600160a01b0384163b155b1561123357604051639996b31560e01b81526001600160a01b03851660048201526024016104fe565b50805b9392505050565b80511561124d5780518082602001fd5b60405163d6bda27560e01b815260040160405180910390fd5b5f60208284031215611276575f5ffd5b81356001600160e01b031981168114611236575f5ffd5b6001600160a01b0381168114610dcf575f5ffd5b5f5f5f5f5f60a086880312156112b5575f5ffd5b85356112c08161128d565b945060208601356112d08161128d565b935060408601356112e08161128d565b925060608601356112f08161128d565b915060808601356113008161128d565b809150509295509295909350565b5f6020828403121561131e575f5ffd5b5035919050565b5f5f60408385031215611336575f5ffd5b8235915060208301356113488161128d565b809150509250929050565b634e487b7160e01b5f52604160045260245ffd5b604051601f8201601f1916810167ffffffffffffffff8111828210171561139057611390611353565b604052919050565b5f5f604083850312156113a9575f5ffd5b82356113b48161128d565b9150602083013567ffffffffffffffff8111156113cf575f5ffd5b8301601f810185136113df575f5ffd5b803567ffffffffffffffff8111156113f9576113f9611353565b61140c601f8201601f1916602001611367565b818152866020838501011115611420575f5ffd5b816020840160208301375f602083830101528093505050509250929050565b5f5f5f5f60808587031215611452575f5ffd5b843561145d8161128d565b9350602085013561146d8161128d565b9250604085013561147d8161128d565b9150606085013561148d8161128d565b939692955090935050565b602081525f82518060208401528060208501604085015e5f604082850101526040601f19601f83011684010191505092915050565b5f5f604083850312156114de575f5ffd5b82359150602083013567ffffffffffffffff8111156114fb575f5ffd5b830160a08186031215611348575f5ffd5b5f6020828403121561151c575f5ffd5b81516112368161128d565b5f60208284031215611537575f5ffd5b5051919050565b60ff81168114610dcf575f5ffd5b81835281816020850137505f828201602090810191909152601f909101601f19169091010190565b60208082528235828201525f9083013561158d8161153e565b60ff1660408381019190915283013560608084019190915283013560808084019190915283013536849003601e190181126115c6575f5ffd5b830160208101903567ffffffffffffffff8111156115e2575f5ffd5b8036038213156115f0575f5ffd5b60a0808501526111b660c08501828461154c565b5f6060828403128015611615575f5ffd5b506040516060810167ffffffffffffffff8111828210171561163957611639611353565b60405282518152602083015161164e8161153e565b60208201526040928301519281019290925250919050565b634e487b7160e01b5f52601160045260245ffd5b6001815b60018411156116b55780850481111561169957611699611666565b60018416156116a757908102905b60019390931c92800261167e565b935093915050565b5f826116cb575060016103ff565b816116d757505f6103ff565b81600181146116ed57600281146116f757611713565b60019150506103ff565b60ff84111561170857611708611666565b50506001821b6103ff565b5060208310610133831016604e8410600b8410161715611736575081810a6103ff565b6117425f19848461167a565b805f190482111561175557611755611666565b029392505050565b5f61123683836116bd565b80820281158282048414176103ff576103ff611666565b5f8261179957634e487b7160e01b5f52601260045260245ffd5b500490565b808201808211156103ff576103ff611666565b5f82518060208501845e5f92019182525091905056fe360894a13ba1a3210667c828492db98dca3e2076cc3735a920a3ca505d382bbc02dd7bc7dec4dceedda775e58dd541e08a116c6c53815c0bd028192f7b626800","linkReferences":{}},"methodIdentifiers":{"DEFAULT_ADMIN_ROLE()":"a217fddf","FACTOR_PRECISION()":"a42c69a9","UPGRADER_ROLE()":"f72c0d8b","UPGRADE_INTERFACE_VERSION()":"ad3cb1cc","boostYield(uint256,(uint256,uint8,uint256,bytes32,bytes))":"bdace232","cuspdToken()":"6bc05b7e","getRoleAdmin(bytes32)":"248a9ca3","getSurplusYield()":"83113ec3","grantRole(bytes32,address)":"2f2ff15d","hasRole(bytes32,address)":"91d14854","initialize(address,address,address,address,address)":"1459457a","oracle()":"7dc0d1d0","proxiableUUID()":"52d1902d","rateContract()":"eee24219","renounceRole(bytes32,address)":"36568abe","revokeRole(bytes32,address)":"d547741f","stabilizerNFT()":"1c48b36d","supportsInterface(bytes4)":"01ffc9a7","surplusYieldFactor()":"0e623f33","updateDependencies(address,address,address,address)":"8d001863","upgradeToAndCall(address,bytes)":"4f1ef286"},"storageLayout":{"storage":[{"astId":42195,"contract":"src/RewardsYieldBooster.sol:RewardsYieldBooster","label":"cuspdToken","offset":0,"slot":"0","type":"t_contract(IcUSPDToken)43008"},{"astId":42198,"contract":"src/RewardsYieldBooster.sol:RewardsYieldBooster","label":"rateContract","offset":0,"slot":"1","type":"t_contract(IPoolSharesConversionRate)42658"},{"astId":42201,"contract":"src/RewardsYieldBooster.sol:RewardsYieldBooster","label":"stabilizerNFT","offset":0,"slot":"2","type":"t_contract(IERC721Minimal)42183"},{"astId":42204,"contract":"src/RewardsYieldBooster.sol:RewardsYieldBooster","label":"oracle","offset":0,"slot":"3","type":"t_contract(IPriceOracle)42830"},{"astId":42206,"contract":"src/RewardsYieldBooster.sol:RewardsYieldBooster","label":"surplusYieldFactor","offset":0,"slot":"4","type":"t_uint256"}],"types":{"t_contract(IERC721Minimal)42183":{"encoding":"inplace","label":"contract IERC721Minimal","numberOfBytes":"20"},"t_contract(IPoolSharesConversionRate)42658":{"encoding":"inplace","label":"contract IPoolSharesConversionRate","numberOfBytes":"20"},"t_contract(IPriceOracle)42830":{"encoding":"inplace","label":"contract IPriceOracle","numberOfBytes":"20"},"t_contract(IcUSPDToken)43008":{"encoding":"inplace","label":"contract IcUSPDToken","numberOfBytes":"20"},"t_uint256":{"encoding":"inplace","label":"uint256","numberOfBytes":"32"}}},"id":51}