{"abi":[{"type":"constructor","inputs":[],"stateMutability":"nonpayable"},{"type":"receive","stateMutability":"payable"},{"type":"function","name":"DEFAULT_ADMIN_ROLE","inputs":[],"outputs":[{"name":"","type":"bytes32","internalType":"bytes32"}],"stateMutability":"view"},{"type":"function","name":"MINTER_ROLE","inputs":[],"outputs":[{"name":"","type":"bytes32","internalType":"bytes32"}],"stateMutability":"view"},{"type":"function","name":"MODIFYALLOCATION_ROLE","inputs":[],"outputs":[{"name":"","type":"bytes32","internalType":"bytes32"}],"stateMutability":"view"},{"type":"function","name":"STABILIZER_NFT_ROLE","inputs":[],"outputs":[{"name":"","type":"bytes32","internalType":"bytes32"}],"stateMutability":"view"},{"type":"function","name":"TRANSFERCOLLATERAL_ROLE","inputs":[],"outputs":[{"name":"","type":"bytes32","internalType":"bytes32"}],"stateMutability":"view"},{"type":"function","name":"addCollateral","inputs":[{"name":"tokenId","type":"uint256","internalType":"uint256"}],"outputs":[],"stateMutability":"payable"},{"type":"function","name":"approve","inputs":[{"name":"to","type":"address","internalType":"address"},{"name":"tokenId","type":"uint256","internalType":"uint256"}],"outputs":[],"stateMutability":"nonpayable"},{"type":"function","name":"balanceOf","inputs":[{"name":"owner","type":"address","internalType":"address"}],"outputs":[{"name":"","type":"uint256","internalType":"uint256"}],"stateMutability":"view"},{"type":"function","name":"burn","inputs":[{"name":"tokenId","type":"uint256","internalType":"uint256"}],"outputs":[],"stateMutability":"nonpayable"},{"type":"function","name":"getApproved","inputs":[{"name":"tokenId","type":"uint256","internalType":"uint256"}],"outputs":[{"name":"","type":"address","internalType":"address"}],"stateMutability":"view"},{"type":"function","name":"getCollateralizationRatio","inputs":[{"name":"tokenId","type":"uint256","internalType":"uint256"},{"name":"ethUsdPrice","type":"uint256","internalType":"uint256"},{"name":"priceDecimals","type":"uint8","internalType":"uint8"}],"outputs":[{"name":"","type":"uint256","internalType":"uint256"}],"stateMutability":"view"},{"type":"function","name":"getPosition","inputs":[{"name":"tokenId","type":"uint256","internalType":"uint256"}],"outputs":[{"name":"","type":"tuple","internalType":"struct IUspdCollateralizedPositionNFT.Position","components":[{"name":"allocatedEth","type":"uint256","internalType":"uint256"},{"name":"backedUspd","type":"uint256","internalType":"uint256"}]}],"stateMutability":"view"},{"type":"function","name":"getRoleAdmin","inputs":[{"name":"role","type":"bytes32","internalType":"bytes32"}],"outputs":[{"name":"","type":"bytes32","internalType":"bytes32"}],"stateMutability":"view"},{"type":"function","name":"getTokenByOwner","inputs":[{"name":"owner","type":"address","internalType":"address"}],"outputs":[{"name":"","type":"uint256","internalType":"uint256"}],"stateMutability":"view"},{"type":"function","name":"grantRole","inputs":[{"name":"role","type":"bytes32","internalType":"bytes32"},{"name":"account","type":"address","internalType":"address"}],"outputs":[],"stateMutability":"nonpayable"},{"type":"function","name":"hasRole","inputs":[{"name":"role","type":"bytes32","internalType":"bytes32"},{"name":"account","type":"address","internalType":"address"}],"outputs":[{"name":"","type":"bool","internalType":"bool"}],"stateMutability":"view"},{"type":"function","name":"initialize","inputs":[{"name":"_oracleAddress","type":"address","internalType":"address"},{"name":"_stETHAddress","type":"address","internalType":"address"},{"name":"_lidoAddress","type":"address","internalType":"address"},{"name":"_rateContractAddress","type":"address","internalType":"address"},{"name":"_stabilizerNFTAddress","type":"address","internalType":"address"},{"name":"_admin","type":"address","internalType":"address"}],"outputs":[],"stateMutability":"nonpayable"},{"type":"function","name":"isApprovedForAll","inputs":[{"name":"owner","type":"address","internalType":"address"},{"name":"operator","type":"address","internalType":"address"}],"outputs":[{"name":"","type":"bool","internalType":"bool"}],"stateMutability":"view"},{"type":"function","name":"lido","inputs":[],"outputs":[{"name":"","type":"address","internalType":"contract ILido"}],"stateMutability":"view"},{"type":"function","name":"mint","inputs":[{"name":"to","type":"address","internalType":"address"}],"outputs":[{"name":"","type":"uint256","internalType":"uint256"}],"stateMutability":"nonpayable"},{"type":"function","name":"modifyAllocation","inputs":[{"name":"tokenId","type":"uint256","internalType":"uint256"},{"name":"newBackedUspd","type":"uint256","internalType":"uint256"}],"outputs":[],"stateMutability":"nonpayable"},{"type":"function","name":"name","inputs":[],"outputs":[{"name":"","type":"string","internalType":"string"}],"stateMutability":"view"},{"type":"function","name":"oracle","inputs":[],"outputs":[{"name":"","type":"address","internalType":"contract PriceOracle"}],"stateMutability":"view"},{"type":"function","name":"ownerOf","inputs":[{"name":"tokenId","type":"uint256","internalType":"uint256"}],"outputs":[{"name":"","type":"address","internalType":"address"}],"stateMutability":"view"},{"type":"function","name":"rateContract","inputs":[],"outputs":[{"name":"","type":"address","internalType":"contract IPoolSharesConversionRate"}],"stateMutability":"view"},{"type":"function","name":"removeCollateral","inputs":[{"name":"tokenId","type":"uint256","internalType":"uint256"},{"name":"to","type":"address","internalType":"address payable"},{"name":"amount","type":"uint256","internalType":"uint256"},{"name":"priceResponse","type":"tuple","internalType":"struct IPriceOracle.PriceResponse","components":[{"name":"price","type":"uint256","internalType":"uint256"},{"name":"decimals","type":"uint8","internalType":"uint8"},{"name":"timestamp","type":"uint256","internalType":"uint256"}]}],"outputs":[],"stateMutability":"nonpayable"},{"type":"function","name":"renounceRole","inputs":[{"name":"role","type":"bytes32","internalType":"bytes32"},{"name":"callerConfirmation","type":"address","internalType":"address"}],"outputs":[],"stateMutability":"nonpayable"},{"type":"function","name":"revokeRole","inputs":[{"name":"role","type":"bytes32","internalType":"bytes32"},{"name":"account","type":"address","internalType":"address"}],"outputs":[],"stateMutability":"nonpayable"},{"type":"function","name":"safeTransferFrom","inputs":[{"name":"from","type":"address","internalType":"address"},{"name":"to","type":"address","internalType":"address"},{"name":"tokenId","type":"uint256","internalType":"uint256"}],"outputs":[],"stateMutability":"nonpayable"},{"type":"function","name":"safeTransferFrom","inputs":[{"name":"from","type":"address","internalType":"address"},{"name":"to","type":"address","internalType":"address"},{"name":"tokenId","type":"uint256","internalType":"uint256"},{"name":"data","type":"bytes","internalType":"bytes"}],"outputs":[],"stateMutability":"nonpayable"},{"type":"function","name":"setApprovalForAll","inputs":[{"name":"operator","type":"address","internalType":"address"},{"name":"approved","type":"bool","internalType":"bool"}],"outputs":[],"stateMutability":"nonpayable"},{"type":"function","name":"stETH","inputs":[],"outputs":[{"name":"","type":"address","internalType":"contract IERC20"}],"stateMutability":"view"},{"type":"function","name":"stabilizerNFTContract","inputs":[],"outputs":[{"name":"","type":"address","internalType":"address"}],"stateMutability":"view"},{"type":"function","name":"supportsInterface","inputs":[{"name":"interfaceId","type":"bytes4","internalType":"bytes4"}],"outputs":[{"name":"","type":"bool","internalType":"bool"}],"stateMutability":"view"},{"type":"function","name":"symbol","inputs":[],"outputs":[{"name":"","type":"string","internalType":"string"}],"stateMutability":"view"},{"type":"function","name":"tokenURI","inputs":[{"name":"tokenId","type":"uint256","internalType":"uint256"}],"outputs":[{"name":"","type":"string","internalType":"string"}],"stateMutability":"view"},{"type":"function","name":"transferCollateral","inputs":[{"name":"tokenId","type":"uint256","internalType":"uint256"},{"name":"to","type":"address","internalType":"address payable"},{"name":"amount","type":"uint256","internalType":"uint256"},{"name":"priceQuery","type":"tuple","internalType":"struct IPriceOracle.PriceAttestationQuery","components":[{"name":"price","type":"uint256","internalType":"uint256"},{"name":"decimals","type":"uint8","internalType":"uint8"},{"name":"dataTimestamp","type":"uint256","internalType":"uint256"},{"name":"assetPair","type":"bytes32","internalType":"bytes32"},{"name":"signature","type":"bytes","internalType":"bytes"}]}],"outputs":[],"stateMutability":"nonpayable"},{"type":"function","name":"transferFrom","inputs":[{"name":"from","type":"address","internalType":"address"},{"name":"to","type":"address","internalType":"address"},{"name":"tokenId","type":"uint256","internalType":"uint256"}],"outputs":[],"stateMutability":"nonpayable"},{"type":"event","name":"Approval","inputs":[{"name":"owner","type":"address","indexed":true,"internalType":"address"},{"name":"approved","type":"address","indexed":true,"internalType":"address"},{"name":"tokenId","type":"uint256","indexed":true,"internalType":"uint256"}],"anonymous":false},{"type":"event","name":"ApprovalForAll","inputs":[{"name":"owner","type":"address","indexed":true,"internalType":"address"},{"name":"operator","type":"address","indexed":true,"internalType":"address"},{"name":"approved","type":"bool","indexed":false,"internalType":"bool"}],"anonymous":false},{"type":"event","name":"Initialized","inputs":[{"name":"version","type":"uint64","indexed":false,"internalType":"uint64"}],"anonymous":false},{"type":"event","name":"PositionBurned","inputs":[{"name":"tokenId","type":"uint256","indexed":true,"internalType":"uint256"},{"name":"owner","type":"address","indexed":true,"internalType":"address"},{"name":"allocatedEth","type":"uint256","indexed":false,"internalType":"uint256"},{"name":"backedUspd","type":"uint256","indexed":false,"internalType":"uint256"}],"anonymous":false},{"type":"event","name":"PositionCreated","inputs":[{"name":"tokenId","type":"uint256","indexed":true,"internalType":"uint256"},{"name":"owner","type":"address","indexed":true,"internalType":"address"},{"name":"allocatedEth","type":"uint256","indexed":false,"internalType":"uint256"},{"name":"backedUspd","type":"uint256","indexed":false,"internalType":"uint256"}],"anonymous":false},{"type":"event","name":"RoleAdminChanged","inputs":[{"name":"role","type":"bytes32","indexed":true,"internalType":"bytes32"},{"name":"previousAdminRole","type":"bytes32","indexed":true,"internalType":"bytes32"},{"name":"newAdminRole","type":"bytes32","indexed":true,"internalType":"bytes32"}],"anonymous":false},{"type":"event","name":"RoleGranted","inputs":[{"name":"role","type":"bytes32","indexed":true,"internalType":"bytes32"},{"name":"account","type":"address","indexed":true,"internalType":"address"},{"name":"sender","type":"address","indexed":true,"internalType":"address"}],"anonymous":false},{"type":"event","name":"RoleRevoked","inputs":[{"name":"role","type":"bytes32","indexed":true,"internalType":"bytes32"},{"name":"account","type":"address","indexed":true,"internalType":"address"},{"name":"sender","type":"address","indexed":true,"internalType":"address"}],"anonymous":false},{"type":"event","name":"Transfer","inputs":[{"name":"from","type":"address","indexed":true,"internalType":"address"},{"name":"to","type":"address","indexed":true,"internalType":"address"},{"name":"tokenId","type":"uint256","indexed":true,"internalType":"uint256"}],"anonymous":false},{"type":"error","name":"AccessControlBadConfirmation","inputs":[]},{"type":"error","name":"AccessControlUnauthorizedAccount","inputs":[{"name":"account","type":"address","internalType":"address"},{"name":"neededRole","type":"bytes32","internalType":"bytes32"}]},{"type":"error","name":"ERC721IncorrectOwner","inputs":[{"name":"sender","type":"address","internalType":"address"},{"name":"tokenId","type":"uint256","internalType":"uint256"},{"name":"owner","type":"address","internalType":"address"}]},{"type":"error","name":"ERC721InsufficientApproval","inputs":[{"name":"operator","type":"address","internalType":"address"},{"name":"tokenId","type":"uint256","internalType":"uint256"}]},{"type":"error","name":"ERC721InvalidApprover","inputs":[{"name":"approver","type":"address","internalType":"address"}]},{"type":"error","name":"ERC721InvalidOperator","inputs":[{"name":"operator","type":"address","internalType":"address"}]},{"type":"error","name":"ERC721InvalidOwner","inputs":[{"name":"owner","type":"address","internalType":"address"}]},{"type":"error","name":"ERC721InvalidReceiver","inputs":[{"name":"receiver","type":"address","internalType":"address"}]},{"type":"error","name":"ERC721InvalidSender","inputs":[{"name":"sender","type":"address","internalType":"address"}]},{"type":"error","name":"ERC721NonexistentToken","inputs":[{"name":"tokenId","type":"uint256","internalType":"uint256"}]},{"type":"error","name":"InvalidInitialization","inputs":[]},{"type":"error","name":"NotInitializing","inputs":[]},{"type":"error","name":"NotOwner","inputs":[]}],"bytecode":{"object":"0x6080604052348015600e575f80fd5b5060156019565b60c9565b7ff0c57e16840df040f15088dc2f81fe391c3923bec73e23a9662efc9c229c6a00805468010000000000000000900460ff161560685760405163f92ee8a960e01b815260040160405180910390fd5b80546001600160401b039081161460c65780546001600160401b0319166001600160401b0390811782556040519081527fc7f505b2f371ae2175ee4913f4499e1f2633a7b5936321eed1cdaeb6115181d29060200160405180910390a15b50565b6139a2806100d65f395ff3fe60806040526004361061027a575f3560e01c806395d89b411161014b578063c1fe3e48116100c6578063d547741f1161007c578063e985e9c511610062578063e985e9c514610937578063eb02c301146109aa578063eee2421914610a1b575f80fd5b8063d547741f146108e5578063e7830b4a14610904575f80fd5b8063c87b56dd116100ac578063c87b56dd14610874578063cc2a9a5b14610893578063d5391393146108b2575f80fd5b8063c1fe3e4814610815578063c28f9a4c14610841575f80fd5b8063b88d4fde1161011b578063bcc46e8311610101578063bcc46e83146107b7578063bec070d6146107ca578063c0579f2b146107f6575f80fd5b8063b88d4fde14610779578063bbc1080914610798575f80fd5b806395d89b4114610714578063a217fddf14610728578063a22cb4651461073b578063ab50355e1461075a575f80fd5b8063341c49af116101f557806365dae4ae116101ab57806370a082311161019157806370a082311461065a5780637dc0d1d01461067957806391d14854146106a4575f80fd5b806365dae4ae146106085780636a6278421461063b575f80fd5b806342842e0e116101db57806342842e0e146105ab57806342966c68146105ca5780636352211e146105e9575f80fd5b8063341c49af1461056d57806336568abe1461058c575f80fd5b806323509a2d1161024a578063248a9ca311610230578063248a9ca3146104b25780632bf79c941461050d5780632f2ff15d1461054e575f80fd5b806323509a2d1461046757806323b872dd14610493575f80fd5b806301ffc9a7146103ad57806306fdde03146103e1578063081812fc14610402578063095ea7b314610446575f80fd5b366103a957335f90815260066020526040812054908190036102fd576040517f08c379a000000000000000000000000000000000000000000000000000000000815260206004820152601c60248201527f4e6f20706f736974696f6e20666f756e6420666f722073656e6465720000000060448201526064015b60405180910390fd5b3361030782610a47565b73ffffffffffffffffffffffffffffffffffffffff1614610384576040517f08c379a000000000000000000000000000000000000000000000000000000000815260206004820152601260248201527f4e6f7420706f736974696f6e206f776e6572000000000000000000000000000060448201526064016102f4565b5f81815260056020526040812080543492906103a1908490612ee2565b925050819055005b5f80fd5b3480156103b8575f80fd5b506103cc6103c7366004612f22565b610a57565b60405190151581526020015b60405180910390f35b3480156103ec575f80fd5b506103f5610a61565b6040516103d89190612f89565b34801561040d575f80fd5b5061042161041c366004612f9b565b610b15565b60405173ffffffffffffffffffffffffffffffffffffffff90911681526020016103d8565b348015610451575f80fd5b50610465610460366004612fd3565b610b68565b005b348015610472575f80fd5b506002546104219073ffffffffffffffffffffffffffffffffffffffff1681565b34801561049e575f80fd5b506104656104ad366004612ffd565b610b77565b3480156104bd575f80fd5b506104ff6104cc366004612f9b565b5f9081527f02dd7bc7dec4dceedda775e58dd541e08a116c6c53815c0bd028192f7b626800602052604090206001015490565b6040519081526020016103d8565b348015610518575f80fd5b506104ff61052736600461303b565b73ffffffffffffffffffffffffffffffffffffffff165f9081526006602052604090205490565b348015610559575f80fd5b50610465610568366004613056565b610c66565b348015610578575f80fd5b50610465610587366004613084565b610ca9565b348015610597575f80fd5b506104656105a6366004613056565b610d6f565b3480156105b6575f80fd5b506104656105c5366004612ffd565b610dcd565b3480156105d5575f80fd5b506104656105e4366004612f9b565b610de7565b3480156105f4575f80fd5b50610421610603366004612f9b565b610a47565b348015610613575f80fd5b506104ff7fe707f4d4c809f6be55cbd1f4314ecce5b1519ad67d498180c0824316256175cf81565b348015610646575f80fd5b506104ff61065536600461303b565b610f6d565b348015610665575f80fd5b506104ff61067436600461303b565b6110ee565b348015610684575f80fd5b505f546104219073ffffffffffffffffffffffffffffffffffffffff1681565b3480156106af575f80fd5b506103cc6106be366004613056565b5f9182527f02dd7bc7dec4dceedda775e58dd541e08a116c6c53815c0bd028192f7b6268006020908152604080842073ffffffffffffffffffffffffffffffffffffffff93909316845291905290205460ff1690565b34801561071f575f80fd5b506103f561118c565b348015610733575f80fd5b506104ff5f81565b348015610746575f80fd5b506104656107553660046130a4565b6111dd565b348015610765575f80fd5b506104656107743660046130d4565b6111e8565b348015610784575f80fd5b506104656107933660046131bc565b611522565b3480156107a3575f80fd5b506104ff6107b23660046132aa565b61153a565b6104656107c5366004612f9b565b6115ab565b3480156107d5575f80fd5b506004546104219073ffffffffffffffffffffffffffffffffffffffff1681565b348015610801575f80fd5b506104656108103660046132e0565b6116c0565b348015610820575f80fd5b506001546104219073ffffffffffffffffffffffffffffffffffffffff1681565b34801561084c575f80fd5b506104ff7f421e211e392de4e4ba4dae91b58f819a3568f08b7d7c871b2d07f27efda44fbb81565b34801561087f575f80fd5b506103f561088e366004612f9b565b611ae8565b34801561089e575f80fd5b506104656108ad366004613343565b611b59565b3480156108bd575f80fd5b506104ff7f9f2df0fed2c77648de5860a4cc508cd0818c85b8b8a1ab4ceeef8d981c8956a681565b3480156108f0575f80fd5b506104656108ff366004613056565b611dc2565b34801561090f575f80fd5b506104ff7f2fdb5f48630a6f9eb0d7702da69151aaac47ccfd65cf560e0ee50d90efcf3d9781565b348015610942575f80fd5b506103cc6109513660046133c1565b73ffffffffffffffffffffffffffffffffffffffff9182165f9081527f80bb2b638cc20bc4d0a60d66940f3ab4a00c1d7b313497ca82fb0b4ab00793056020908152604080832093909416825291909152205460ff1690565b3480156109b5575f80fd5b50610a006109c4366004612f9b565b604080518082019091525f8082526020820152505f90815260056020908152604091829020825180840190935280548352600101549082015290565b604080518251815260209283015192810192909252016103d8565b348015610a26575f80fd5b506003546104219073ffffffffffffffffffffffffffffffffffffffff1681565b5f610a5182611e05565b92915050565b5f610a5182611e82565b7f80bb2b638cc20bc4d0a60d66940f3ab4a00c1d7b313497ca82fb0b4ab00793008054606091908190610a93906133ed565b80601f0160208091040260200160405190810160405280929190818152602001828054610abf906133ed565b8015610b0a5780601f10610ae157610100808354040283529160200191610b0a565b820191905f5260205f20905b815481529060010190602001808311610aed57829003601f168201915b505050505091505090565b5f610b1f82611e05565b505f8281527f80bb2b638cc20bc4d0a60d66940f3ab4a00c1d7b313497ca82fb0b4ab0079304602052604090205473ffffffffffffffffffffffffffffffffffffffff16610a51565b610b73828233611ed7565b5050565b73ffffffffffffffffffffffffffffffffffffffff8216610bc6576040517f64a0ae920000000000000000000000000000000000000000000000000000000081525f60048201526024016102f4565b5f610bd2838333611ee4565b90508373ffffffffffffffffffffffffffffffffffffffff168173ffffffffffffffffffffffffffffffffffffffff1614610c60576040517f64283d7b00000000000000000000000000000000000000000000000000000000815273ffffffffffffffffffffffffffffffffffffffff808616600483015260248201849052821660448201526064016102f4565b50505050565b5f8281527f02dd7bc7dec4dceedda775e58dd541e08a116c6c53815c0bd028192f7b6268006020526040902060010154610c9f816120a3565b610c6083836120b0565b7f2fdb5f48630a6f9eb0d7702da69151aaac47ccfd65cf560e0ee50d90efcf3d97610cd3816120a3565b5f610cdd84610a47565b73ffffffffffffffffffffffffffffffffffffffff1603610d5a576040517f08c379a000000000000000000000000000000000000000000000000000000000815260206004820152601760248201527f506f736974696f6e20646f6573206e6f7420657869737400000000000000000060448201526064016102f4565b505f9182526005602052604090912060010155565b73ffffffffffffffffffffffffffffffffffffffff81163314610dbe576040517f6697b23200000000000000000000000000000000000000000000000000000000815260040160405180910390fd5b610dc882826121ce565b505050565b610dc883838360405180602001604052805f815250611522565b33610df182610a47565b73ffffffffffffffffffffffffffffffffffffffff1614610e6e576040517f08c379a000000000000000000000000000000000000000000000000000000000815260206004820152601260248201527f4e6f7420706f736974696f6e206f776e6572000000000000000000000000000060448201526064016102f4565b5f8181526005602052604090205415610ee3576040517f08c379a000000000000000000000000000000000000000000000000000000000815260206004820152601d60248201527f506f736974696f6e207374696c6c2068617320636f6c6c61746572616c00000060448201526064016102f4565b5f81815260056020908152604080832081518083018352815481526001820180548286015291859055908490553384526006909252822091909155610f27826122aa565b80516020808301516040805193845291830152339184917ffb233a30394c607c1ae6377e8d607fba7cc732b658f41a2c9e48f0a46b8a38fb910160405180910390a35050565b5f7f9f2df0fed2c77648de5860a4cc508cd0818c85b8b8a1ab4ceeef8d981c8956a6610f98816120a3565b73ffffffffffffffffffffffffffffffffffffffff83165f9081526006602052604090205415611024576040517f08c379a000000000000000000000000000000000000000000000000000000000815260206004820152601c60248201527f4f776e657220616c726561647920686173206120706f736974696f6e0000000060448201526064016102f4565b600780545f918261103483613438565b909155506040805180820182525f808252602080830182815285835260058252848320935184555160019093019290925573ffffffffffffffffffffffffffffffffffffffff8816815260069091522081905590506110938482612308565b604080515f808252602082015273ffffffffffffffffffffffffffffffffffffffff86169183917ffb617c13a5b4b052ee893903dca019ab1611dfef1b20f7acb7a5bfe008c10260910160405180910390a391505b50919050565b5f7f80bb2b638cc20bc4d0a60d66940f3ab4a00c1d7b313497ca82fb0b4ab007930073ffffffffffffffffffffffffffffffffffffffff831661115f576040517f89c62b640000000000000000000000000000000000000000000000000000000081525f60048201526024016102f4565b73ffffffffffffffffffffffffffffffffffffffff9092165f908152600390920160205250604090205490565b7f80bb2b638cc20bc4d0a60d66940f3ab4a00c1d7b313497ca82fb0b4ab007930180546060917f80bb2b638cc20bc4d0a60d66940f3ab4a00c1d7b313497ca82fb0b4ab007930091610a93906133ed565b610b73338383612321565b7fe707f4d4c809f6be55cbd1f4314ecce5b1519ad67d498180c0824316256175cf611212816120a3565b5f61121c86610a47565b73ffffffffffffffffffffffffffffffffffffffff1603611299576040517f08c379a000000000000000000000000000000000000000000000000000000000815260206004820152601760248201527f506f736974696f6e20646f6573206e6f7420657869737400000000000000000060448201526064016102f4565b5f85815260056020526040902054831115611310576040517f08c379a000000000000000000000000000000000000000000000000000000000815260206004820152601760248201527f496e73756666696369656e7420636f6c6c61746572616c00000000000000000060448201526064016102f4565b5f8581526005602052604090206001015415611433575f8581526005602052604081205461133f90859061346f565b90505f6113526040850160208601613482565b61135d90600a6135be565b6113688535846135cc565b61137291906135e3565b5f88815260056020526040812060010154919250906113928360646135cc565b61139c91906135e3565b9050606e81101561142f576040517f08c379a000000000000000000000000000000000000000000000000000000000815260206004820152602660248201527f436f6c6c61746572616c20726174696f20776f756c642066616c6c2062656c6f60448201527f772031313025000000000000000000000000000000000000000000000000000060648201526084016102f4565b5050505b5f858152600560205260408120805485929061145090849061346f565b90915550506040515f9073ffffffffffffffffffffffffffffffffffffffff86169085908381818185875af1925050503d805f81146114aa576040519150601f19603f3d011682016040523d82523d5f602084013e6114af565b606091505b505090508061151a576040517f08c379a000000000000000000000000000000000000000000000000000000000815260206004820152601360248201527f455448207472616e73666572206661696c65640000000000000000000000000060448201526064016102f4565b505050505050565b61152d848484610b77565b610c603385858585612441565b5f83815260056020908152604080832081518083019092528054825260010154918101919091528161156d84600a6135be565b825161157a9087906135cc565b61158491906135e3565b60208301519091506115978260646135cc565b6115a191906135e3565b9695505050505050565b5f6115b582610a47565b73ffffffffffffffffffffffffffffffffffffffff1603611632576040517f08c379a000000000000000000000000000000000000000000000000000000000815260206004820152601760248201527f506f736974696f6e20646f6573206e6f7420657869737400000000000000000060448201526064016102f4565b5f341161169b576040517f08c379a000000000000000000000000000000000000000000000000000000000815260206004820152600b60248201527f4e6f204554482073656e7400000000000000000000000000000000000000000060448201526064016102f4565b5f81815260056020526040812080543492906116b8908490612ee2565b909155505050565b5f6116ca85610a47565b73ffffffffffffffffffffffffffffffffffffffff1603611747576040517f08c379a000000000000000000000000000000000000000000000000000000000815260206004820152601760248201527f506f736974696f6e20646f6573206e6f7420657869737400000000000000000060448201526064016102f4565b3361175185610a47565b73ffffffffffffffffffffffffffffffffffffffff16146117ce576040517f08c379a000000000000000000000000000000000000000000000000000000000815260206004820152601260248201527f4e6f7420706f736974696f6e206f776e6572000000000000000000000000000060448201526064016102f4565b5f84815260056020526040902054821115611845576040517f08c379a000000000000000000000000000000000000000000000000000000000815260206004820152601760248201527f496e73756666696369656e7420636f6c6c61746572616c00000000000000000060448201526064016102f4565b5f84815260056020526040902060010154156119fa575f80546040517f65ab8c7100000000000000000000000000000000000000000000000000000000815273ffffffffffffffffffffffffffffffffffffffff909116906365ab8c71906118b1908590600401613662565b6060604051808303815f875af11580156118cd573d5f803e3d5ffd5b505050506040513d601f19601f820116820180604052508101906118f19190613719565b5f868152600560205260408120549192509061190e90859061346f565b90505f8260200151600a61192291906135be565b835161192e90846135cc565b61193891906135e3565b5f88815260056020526040812060010154919250906119588360646135cc565b61196291906135e3565b9050606e8110156119f5576040517f08c379a000000000000000000000000000000000000000000000000000000000815260206004820152602660248201527f436f6c6c61746572616c20726174696f20776f756c642066616c6c2062656c6f60448201527f772031313025000000000000000000000000000000000000000000000000000060648201526084016102f4565b505050505b5f8481526005602052604081208054849290611a1790849061346f565b90915550506040515f9073ffffffffffffffffffffffffffffffffffffffff85169084908381818185875af1925050503d805f8114611a71576040519150601f19603f3d011682016040523d82523d5f602084013e611a76565b606091505b5050905080611ae1576040517f08c379a000000000000000000000000000000000000000000000000000000000815260206004820152601360248201527f455448207472616e73666572206661696c65640000000000000000000000000060448201526064016102f4565b5050505050565b6060611af382611e05565b505f611b0960408051602081019091525f815290565b90505f815111611b275760405180602001604052805f815250611b52565b80611b318461262e565b604051602001611b42929190613792565b6040516020818303038152906040525b9392505050565b5f611b626126ea565b805490915060ff68010000000000000000820416159067ffffffffffffffff165f81158015611b8e5750825b90505f8267ffffffffffffffff166001148015611baa5750303b155b905081158015611bb8575080155b15611bef576040517ff92ee8a900000000000000000000000000000000000000000000000000000000815260040160405180910390fd5b84547fffffffffffffffffffffffffffffffffffffffffffffffff00000000000000001660011785558315611c505784547fffffffffffffffffffffffffffffffffffffffffffffff00ffffffffffffffff16680100000000000000001785555b611cc46040518060400160405280601c81526020017f5553504420436f6c6c61746572616c697a656420506f736974696f6e000000008152506040518060400160405280600781526020017f55535044504f5300000000000000000000000000000000000000000000000000815250612712565b611ccc612724565b611cd65f876120b0565b505f80547fffffffffffffffffffffffff000000000000000000000000000000000000000090811673ffffffffffffffffffffffffffffffffffffffff8e8116919091179092556001805482168d84161781556002805483168d85161790556003805483168c851617905560048054909216928a169290921790556007558315611db55784547fffffffffffffffffffffffffffffffffffffffffffffff00ffffffffffffffff168555604051600181527fc7f505b2f371ae2175ee4913f4499e1f2633a7b5936321eed1cdaeb6115181d29060200160405180910390a15b5050505050505050505050565b5f8281527f02dd7bc7dec4dceedda775e58dd541e08a116c6c53815c0bd028192f7b6268006020526040902060010154611dfb816120a3565b610c6083836121ce565b5f8181527f80bb2b638cc20bc4d0a60d66940f3ab4a00c1d7b313497ca82fb0b4ab0079302602052604081205473ffffffffffffffffffffffffffffffffffffffff1680610a51576040517f7e273289000000000000000000000000000000000000000000000000000000008152600481018490526024016102f4565b5f7fffffffff0000000000000000000000000000000000000000000000000000000082167f7965db0b000000000000000000000000000000000000000000000000000000001480610a515750610a518261272e565b610dc88383836001612810565b5f8281527f80bb2b638cc20bc4d0a60d66940f3ab4a00c1d7b313497ca82fb0b4ab007930260205260408120547f80bb2b638cc20bc4d0a60d66940f3ab4a00c1d7b313497ca82fb0b4ab00793009073ffffffffffffffffffffffffffffffffffffffff90811690841615611f5e57611f5e818587612a19565b73ffffffffffffffffffffffffffffffffffffffff811615611fd357611f865f865f80612810565b73ffffffffffffffffffffffffffffffffffffffff81165f908152600383016020526040902080547fffffffffffffffffffffffffffffffffffffffffffffffffffffffffffffffff0190555b73ffffffffffffffffffffffffffffffffffffffff86161561201d5773ffffffffffffffffffffffffffffffffffffffff86165f9081526003830160205260409020805460010190555b5f85815260028301602052604080822080547fffffffffffffffffffffffff00000000000000000000000000000000000000001673ffffffffffffffffffffffffffffffffffffffff8a811691821790925591518893918516917fddf252ad1be2c89b69c2b068fc378daa952ba7f163c4a11628f55a4df523b3ef91a495945050505050565b6120ad8133612ac9565b50565b5f8281527f02dd7bc7dec4dceedda775e58dd541e08a116c6c53815c0bd028192f7b6268006020818152604080842073ffffffffffffffffffffffffffffffffffffffff8616855290915282205460ff166121c5575f8481526020828152604080832073ffffffffffffffffffffffffffffffffffffffff87168452909152902080547fffffffffffffffffffffffffffffffffffffffffffffffffffffffffffffff001660011790556121613390565b73ffffffffffffffffffffffffffffffffffffffff168373ffffffffffffffffffffffffffffffffffffffff16857f2f8788117e7eff1d82e926ec794901d17c78024a50270940304540a733656f0d60405160405180910390a46001915050610a51565b5f915050610a51565b5f8281527f02dd7bc7dec4dceedda775e58dd541e08a116c6c53815c0bd028192f7b6268006020818152604080842073ffffffffffffffffffffffffffffffffffffffff8616855290915282205460ff16156121c5575f8481526020828152604080832073ffffffffffffffffffffffffffffffffffffffff8716808552925280832080547fffffffffffffffffffffffffffffffffffffffffffffffffffffffffffffff0016905551339287917ff6391f5c32d9c69d2a47ea670b442974b53935d1edc7fd64eb21e047a839171b9190a46001915050610a51565b5f6122b65f835f611ee4565b905073ffffffffffffffffffffffffffffffffffffffff8116610b73576040517f7e273289000000000000000000000000000000000000000000000000000000008152600481018390526024016102f4565b610b73828260405180602001604052805f815250612b6f565b7f80bb2b638cc20bc4d0a60d66940f3ab4a00c1d7b313497ca82fb0b4ab007930073ffffffffffffffffffffffffffffffffffffffff83166123a7576040517f5b08ba1800000000000000000000000000000000000000000000000000000000815273ffffffffffffffffffffffffffffffffffffffff841660048201526024016102f4565b73ffffffffffffffffffffffffffffffffffffffff8481165f81815260058401602090815260408083209488168084529482529182902080547fffffffffffffffffffffffffffffffffffffffffffffffffffffffffffffff001687151590811790915591519182527f17307eab39ab6107e8899845ad3d59bd9653f200f220920489ca2b5937696c31910160405180910390a350505050565b73ffffffffffffffffffffffffffffffffffffffff83163b15611ae1576040517f150b7a0200000000000000000000000000000000000000000000000000000000815273ffffffffffffffffffffffffffffffffffffffff84169063150b7a02906124b69088908890879087906004016137a6565b6020604051808303815f875af192505050801561250e575060408051601f3d9081017fffffffffffffffffffffffffffffffffffffffffffffffffffffffffffffffe016820190925261250b918101906137f6565b60015b61259b573d80801561253b576040519150601f19603f3d011682016040523d82523d5f602084013e612540565b606091505b5080515f03612593576040517f64a0ae9200000000000000000000000000000000000000000000000000000000815273ffffffffffffffffffffffffffffffffffffffff851660048201526024016102f4565b805181602001fd5b7fffffffff0000000000000000000000000000000000000000000000000000000081167f150b7a02000000000000000000000000000000000000000000000000000000001461151a576040517f64a0ae9200000000000000000000000000000000000000000000000000000000815273ffffffffffffffffffffffffffffffffffffffff851660048201526024016102f4565b60605f61263a83612b86565b60010190505f8167ffffffffffffffff81111561265957612659613140565b6040519080825280601f01601f191660200182016040528015612683576020820181803683370190505b5090508181016020015b7fffffffffffffffffffffffffffffffffffffffffffffffffffffffffffffffff017f3031323334353637383961626364656600000000000000000000000000000000600a86061a8153600a850494508461268d57509392505050565b5f807ff0c57e16840df040f15088dc2f81fe391c3923bec73e23a9662efc9c229c6a00610a51565b61271a612c67565b610b738282612ca5565b61272c612c67565b565b5f7fffffffff0000000000000000000000000000000000000000000000000000000082167f80ac58cd0000000000000000000000000000000000000000000000000000000014806127c057507fffffffff0000000000000000000000000000000000000000000000000000000082167f5b5e139f00000000000000000000000000000000000000000000000000000000145b80610a5157507f01ffc9a7000000000000000000000000000000000000000000000000000000007fffffffff00000000000000000000000000000000000000000000000000000000831614610a51565b7f80bb2b638cc20bc4d0a60d66940f3ab4a00c1d7b313497ca82fb0b4ab00793008180612852575073ffffffffffffffffffffffffffffffffffffffff831615155b156129c4575f61286185611e05565b905073ffffffffffffffffffffffffffffffffffffffff8416158015906128b457508373ffffffffffffffffffffffffffffffffffffffff168173ffffffffffffffffffffffffffffffffffffffff1614155b8015612911575073ffffffffffffffffffffffffffffffffffffffff8082165f9081527f80bb2b638cc20bc4d0a60d66940f3ab4a00c1d7b313497ca82fb0b4ab0079305602090815260408083209388168352929052205460ff16155b15612960576040517fa9fbf51f00000000000000000000000000000000000000000000000000000000815273ffffffffffffffffffffffffffffffffffffffff851660048201526024016102f4565b82156129c257848673ffffffffffffffffffffffffffffffffffffffff168273ffffffffffffffffffffffffffffffffffffffff167f8c5be1e5ebec7d5bd14f71427d1e84f3dd0314c0f7b2291e5b200ac8c7c3b92560405160405180910390a45b505b5f93845260040160205250506040902080547fffffffffffffffffffffffff00000000000000000000000000000000000000001673ffffffffffffffffffffffffffffffffffffffff92909216919091179055565b612a24838383612ce8565b610dc85773ffffffffffffffffffffffffffffffffffffffff8316612a78576040517f7e273289000000000000000000000000000000000000000000000000000000008152600481018290526024016102f4565b6040517f177e802f00000000000000000000000000000000000000000000000000000000815273ffffffffffffffffffffffffffffffffffffffff83166004820152602481018290526044016102f4565b5f8281527f02dd7bc7dec4dceedda775e58dd541e08a116c6c53815c0bd028192f7b6268006020908152604080832073ffffffffffffffffffffffffffffffffffffffff8516845290915290205460ff16610b73576040517fe2517d3f00000000000000000000000000000000000000000000000000000000815273ffffffffffffffffffffffffffffffffffffffff82166004820152602481018390526044016102f4565b612b798383612dea565b610dc8335f858585612441565b5f807a184f03e93ff9f4daa797ed6e38ed64bf6a1f0100000000000000008310612bce577a184f03e93ff9f4daa797ed6e38ed64bf6a1f010000000000000000830492506040015b6d04ee2d6d415b85acef81000000008310612bfa576d04ee2d6d415b85acef8100000000830492506020015b662386f26fc100008310612c1857662386f26fc10000830492506010015b6305f5e1008310612c30576305f5e100830492506008015b6127108310612c4457612710830492506004015b60648310612c56576064830492506002015b600a8310610a515760010192915050565b612c6f612e97565b61272c576040517fd7e6bcf800000000000000000000000000000000000000000000000000000000815260040160405180910390fd5b612cad612c67565b7f80bb2b638cc20bc4d0a60d66940f3ab4a00c1d7b313497ca82fb0b4ab007930080612cd98482613855565b5060018101610c608382613855565b5f73ffffffffffffffffffffffffffffffffffffffff831615801590612de257508273ffffffffffffffffffffffffffffffffffffffff168473ffffffffffffffffffffffffffffffffffffffff161480612d93575073ffffffffffffffffffffffffffffffffffffffff8085165f9081527f80bb2b638cc20bc4d0a60d66940f3ab4a00c1d7b313497ca82fb0b4ab0079305602090815260408083209387168352929052205460ff165b80612de257505f8281527f80bb2b638cc20bc4d0a60d66940f3ab4a00c1d7b313497ca82fb0b4ab0079304602052604090205473ffffffffffffffffffffffffffffffffffffffff8481169116145b949350505050565b73ffffffffffffffffffffffffffffffffffffffff8216612e39576040517f64a0ae920000000000000000000000000000000000000000000000000000000081525f60048201526024016102f4565b5f612e4583835f611ee4565b905073ffffffffffffffffffffffffffffffffffffffff811615610dc8576040517f73c6ac6e0000000000000000000000000000000000000000000000000000000081525f60048201526024016102f4565b5f612ea06126ea565b5468010000000000000000900460ff16919050565b7f4e487b71000000000000000000000000000000000000000000000000000000005f52601160045260245ffd5b80820180821115610a5157610a51612eb5565b7fffffffff00000000000000000000000000000000000000000000000000000000811681146120ad575f80fd5b5f60208284031215612f32575f80fd5b8135611b5281612ef5565b5f81518084528060208401602086015e5f6020828601015260207fffffffffffffffffffffffffffffffffffffffffffffffffffffffffffffffe0601f83011685010191505092915050565b602081525f611b526020830184612f3d565b5f60208284031215612fab575f80fd5b5035919050565b73ffffffffffffffffffffffffffffffffffffffff811681146120ad575f80fd5b5f8060408385031215612fe4575f80fd5b8235612fef81612fb2565b946020939093013593505050565b5f805f6060848603121561300f575f80fd5b833561301a81612fb2565b9250602084013561302a81612fb2565b929592945050506040919091013590565b5f6020828403121561304b575f80fd5b8135611b5281612fb2565b5f8060408385031215613067575f80fd5b82359150602083013561307981612fb2565b809150509250929050565b5f8060408385031215613095575f80fd5b50508035926020909101359150565b5f80604083850312156130b5575f80fd5b82356130c081612fb2565b915060208301358015158114613079575f80fd5b5f805f8084860360c08112156130e8575f80fd5b8535945060208601356130fa81612fb2565b93506040860135925060607fffffffffffffffffffffffffffffffffffffffffffffffffffffffffffffffa082011215613132575f80fd5b509295919450926060019150565b7f4e487b71000000000000000000000000000000000000000000000000000000005f52604160045260245ffd5b604051601f82017fffffffffffffffffffffffffffffffffffffffffffffffffffffffffffffffe016810167ffffffffffffffff811182821017156131b4576131b4613140565b604052919050565b5f805f80608085870312156131cf575f80fd5b84356131da81612fb2565b935060208501356131ea81612fb2565b925060408501359150606085013567ffffffffffffffff81111561320c575f80fd5b8501601f8101871361321c575f80fd5b803567ffffffffffffffff81111561323657613236613140565b61326760207fffffffffffffffffffffffffffffffffffffffffffffffffffffffffffffffe0601f8401160161316d565b81815288602083850101111561327b575f80fd5b816020840160208301375f6020838301015280935050505092959194509250565b60ff811681146120ad575f80fd5b5f805f606084860312156132bc575f80fd5b833592506020840135915060408401356132d58161329c565b809150509250925092565b5f805f80608085870312156132f3575f80fd5b84359350602085013561330581612fb2565b925060408501359150606085013567ffffffffffffffff811115613327575f80fd5b850160a08188031215613338575f80fd5b939692955090935050565b5f805f805f8060c08789031215613358575f80fd5b863561336381612fb2565b9550602087013561337381612fb2565b9450604087013561338381612fb2565b9350606087013561339381612fb2565b925060808701356133a381612fb2565b915060a08701356133b381612fb2565b809150509295509295509295565b5f80604083850312156133d2575f80fd5b82356133dd81612fb2565b9150602083013561307981612fb2565b600181811c9082168061340157607f821691505b6020821081036110e8577f4e487b71000000000000000000000000000000000000000000000000000000005f52602260045260245ffd5b5f7fffffffffffffffffffffffffffffffffffffffffffffffffffffffffffffffff820361346857613468612eb5565b5060010190565b81810381811115610a5157610a51612eb5565b5f60208284031215613492575f80fd5b8135611b528161329c565b6001815b60018411156134d8578085048111156134bc576134bc612eb5565b60018416156134ca57908102905b60019390931c9280026134a1565b935093915050565b5f826134ee57506001610a51565b816134fa57505f610a51565b8160018114613510576002811461351a57613536565b6001915050610a51565b60ff84111561352b5761352b612eb5565b50506001821b610a51565b5060208310610133831016604e8410600b8410161715613559575081810a610a51565b6135847fffffffffffffffffffffffffffffffffffffffffffffffffffffffffffffffff848461349d565b807fffffffffffffffffffffffffffffffffffffffffffffffffffffffffffffffff048211156135b6576135b6612eb5565b029392505050565b5f611b5260ff8416836134e0565b8082028115828204841417610a5157610a51612eb5565b5f82613616577f4e487b71000000000000000000000000000000000000000000000000000000005f52601260045260245ffd5b500490565b81835281816020850137505f602082840101525f60207fffffffffffffffffffffffffffffffffffffffffffffffffffffffffffffffe0601f840116840101905092915050565b60208082528235828201525f9083013561367b8161329c565b60ff16604083810191909152830135606080840191909152830135608080840191909152830135368490037fffffffffffffffffffffffffffffffffffffffffffffffffffffffffffffffe10181126136d2575f80fd5b830160208101903567ffffffffffffffff8111156136ee575f80fd5b8036038213156136fc575f80fd5b60a08085015261371060c08501828461361b565b95945050505050565b5f606082840312801561372a575f80fd5b506040516060810167ffffffffffffffff8111828210171561374e5761374e613140565b6040528251815260208301516137638161329c565b60208201526040928301519281019290925250919050565b5f81518060208401855e5f93019283525090919050565b5f612de26137a0838661377b565b8461377b565b73ffffffffffffffffffffffffffffffffffffffff8516815273ffffffffffffffffffffffffffffffffffffffff84166020820152826040820152608060608201525f6115a16080830184612f3d565b5f60208284031215613806575f80fd5b8151611b5281612ef5565b601f821115610dc857805f5260205f20601f840160051c810160208510156138365750805b601f840160051c820191505b81811015611ae1575f8155600101613842565b815167ffffffffffffffff81111561386f5761386f613140565b6138838161387d84546133ed565b84613811565b6020601f8211600181146138d4575f831561389e5750848201515b7fffffffffffffffffffffffffffffffffffffffffffffffffffffffffffffffff600385901b1c1916600184901b178455611ae1565b5f848152602081207fffffffffffffffffffffffffffffffffffffffffffffffffffffffffffffffe08516915b828110156139215787850151825560209485019460019092019101613901565b508482101561395d57868401517fffffffffffffffffffffffffffffffffffffffffffffffffffffffffffffffff600387901b60f8161c191681555b50505050600190811b0190555056fea26469706673582212208a666002756aa0e6ce182276f899bd031b8c329fdb9201c8990796815bfae5ab64736f6c634300081a0033","linkReferences":{}},"methodIdentifiers":{"DEFAULT_ADMIN_ROLE()":"a217fddf","MINTER_ROLE()":"d5391393","MODIFYALLOCATION_ROLE()":"e7830b4a","STABILIZER_NFT_ROLE()":"c28f9a4c","TRANSFERCOLLATERAL_ROLE()":"65dae4ae","addCollateral(uint256)":"bcc46e83","approve(address,uint256)":"095ea7b3","balanceOf(address)":"70a08231","burn(uint256)":"42966c68","getApproved(uint256)":"081812fc","getCollateralizationRatio(uint256,uint256,uint8)":"bbc10809","getPosition(uint256)":"eb02c301","getRoleAdmin(bytes32)":"248a9ca3","getTokenByOwner(address)":"2bf79c94","grantRole(bytes32,address)":"2f2ff15d","hasRole(bytes32,address)":"91d14854","initialize(address,address,address,address,address,address)":"cc2a9a5b","isApprovedForAll(address,address)":"e985e9c5","lido()":"23509a2d","mint(address)":"6a627842","modifyAllocation(uint256,uint256)":"341c49af","name()":"06fdde03","oracle()":"7dc0d1d0","ownerOf(uint256)":"6352211e","rateContract()":"eee24219","removeCollateral(uint256,address,uint256,(uint256,uint8,uint256))":"ab50355e","renounceRole(bytes32,address)":"36568abe","revokeRole(bytes32,address)":"d547741f","safeTransferFrom(address,address,uint256)":"42842e0e","safeTransferFrom(address,address,uint256,bytes)":"b88d4fde","setApprovalForAll(address,bool)":"a22cb465","stETH()":"c1fe3e48","stabilizerNFTContract()":"bec070d6","supportsInterface(bytes4)":"01ffc9a7","symbol()":"95d89b41","tokenURI(uint256)":"c87b56dd","transferCollateral(uint256,address,uint256,(uint256,uint8,uint256,bytes32,bytes))":"c0579f2b","transferFrom(address,address,uint256)":"23b872dd"},"storageLayout":{"storage":[{"astId":49569,"contract":"src/UspdCollateralizedPositionNFT.sol:UspdCollateralizedPositionNFT","label":"oracle","offset":0,"slot":"0","type":"t_contract(PriceOracle)49528"},{"astId":49572,"contract":"src/UspdCollateralizedPositionNFT.sol:UspdCollateralizedPositionNFT","label":"stETH","offset":0,"slot":"1","type":"t_contract(IERC20)42409"},{"astId":49575,"contract":"src/UspdCollateralizedPositionNFT.sol:UspdCollateralizedPositionNFT","label":"lido","offset":0,"slot":"2","type":"t_contract(ILido)50225"},{"astId":49578,"contract":"src/UspdCollateralizedPositionNFT.sol:UspdCollateralizedPositionNFT","label":"rateContract","offset":0,"slot":"3","type":"t_contract(IPoolSharesConversionRate)50254"},{"astId":49580,"contract":"src/UspdCollateralizedPositionNFT.sol:UspdCollateralizedPositionNFT","label":"stabilizerNFTContract","offset":0,"slot":"4","type":"t_address"},{"astId":49585,"contract":"src/UspdCollateralizedPositionNFT.sol:UspdCollateralizedPositionNFT","label":"_positions","offset":0,"slot":"5","type":"t_mapping(t_uint256,t_struct(Position)50292_storage)"},{"astId":49589,"contract":"src/UspdCollateralizedPositionNFT.sol:UspdCollateralizedPositionNFT","label":"_ownerToken","offset":0,"slot":"6","type":"t_mapping(t_address,t_uint256)"},{"astId":49618,"contract":"src/UspdCollateralizedPositionNFT.sol:UspdCollateralizedPositionNFT","label":"_nextPositionId","offset":0,"slot":"7","type":"t_uint256"}],"types":{"t_address":{"encoding":"inplace","label":"address","numberOfBytes":"20"},"t_contract(IERC20)42409":{"encoding":"inplace","label":"contract IERC20","numberOfBytes":"20"},"t_contract(ILido)50225":{"encoding":"inplace","label":"contract ILido","numberOfBytes":"20"},"t_contract(IPoolSharesConversionRate)50254":{"encoding":"inplace","label":"contract IPoolSharesConversionRate","numberOfBytes":"20"},"t_contract(PriceOracle)49528":{"encoding":"inplace","label":"contract PriceOracle","numberOfBytes":"20"},"t_mapping(t_address,t_uint256)":{"encoding":"mapping","key":"t_address","label":"mapping(address => uint256)","numberOfBytes":"32","value":"t_uint256"},"t_mapping(t_uint256,t_struct(Position)50292_storage)":{"encoding":"mapping","key":"t_uint256","label":"mapping(uint256 => struct IUspdCollateralizedPositionNFT.Position)","numberOfBytes":"32","value":"t_struct(Position)50292_storage"},"t_struct(Position)50292_storage":{"encoding":"inplace","label":"struct IUspdCollateralizedPositionNFT.Position","numberOfBytes":"64","members":[{"astId":50289,"contract":"src/UspdCollateralizedPositionNFT.sol:UspdCollateralizedPositionNFT","label":"allocatedEth","offset":0,"slot":"0","type":"t_uint256"},{"astId":50291,"contract":"src/UspdCollateralizedPositionNFT.sol:UspdCollateralizedPositionNFT","label":"backedUspd","offset":0,"slot":"1","type":"t_uint256"}]},"t_uint256":{"encoding":"inplace","label":"uint256","numberOfBytes":"32"}}},"id":57}