{"abi":[{"type":"constructor","inputs":[],"stateMutability":"nonpayable"},{"type":"receive","stateMutability":"payable"},{"type":"function","name":"DEFAULT_ADMIN_ROLE","inputs":[],"outputs":[{"name":"","type":"bytes32","internalType":"bytes32"}],"stateMutability":"view"},{"type":"function","name":"MINTER_ROLE","inputs":[],"outputs":[{"name":"","type":"bytes32","internalType":"bytes32"}],"stateMutability":"view"},{"type":"function","name":"MODIFYALLOCATION_ROLE","inputs":[],"outputs":[{"name":"","type":"bytes32","internalType":"bytes32"}],"stateMutability":"view"},{"type":"function","name":"TRANSFERCOLLATERAL_ROLE","inputs":[],"outputs":[{"name":"","type":"bytes32","internalType":"bytes32"}],"stateMutability":"view"},{"type":"function","name":"addCollateral","inputs":[{"name":"tokenId","type":"uint256","internalType":"uint256"}],"outputs":[],"stateMutability":"payable"},{"type":"function","name":"approve","inputs":[{"name":"to","type":"address","internalType":"address"},{"name":"tokenId","type":"uint256","internalType":"uint256"}],"outputs":[],"stateMutability":"nonpayable"},{"type":"function","name":"balanceOf","inputs":[{"name":"owner","type":"address","internalType":"address"}],"outputs":[{"name":"","type":"uint256","internalType":"uint256"}],"stateMutability":"view"},{"type":"function","name":"burn","inputs":[{"name":"tokenId","type":"uint256","internalType":"uint256"}],"outputs":[],"stateMutability":"nonpayable"},{"type":"function","name":"getApproved","inputs":[{"name":"tokenId","type":"uint256","internalType":"uint256"}],"outputs":[{"name":"","type":"address","internalType":"address"}],"stateMutability":"view"},{"type":"function","name":"getCollateralizationRatio","inputs":[{"name":"tokenId","type":"uint256","internalType":"uint256"},{"name":"ethUsdPrice","type":"uint256","internalType":"uint256"},{"name":"priceDecimals","type":"uint8","internalType":"uint8"}],"outputs":[{"name":"","type":"uint256","internalType":"uint256"}],"stateMutability":"view"},{"type":"function","name":"getPosition","inputs":[{"name":"tokenId","type":"uint256","internalType":"uint256"}],"outputs":[{"name":"","type":"tuple","internalType":"struct IUspdCollateralizedPositionNFT.Position","components":[{"name":"allocatedEth","type":"uint256","internalType":"uint256"},{"name":"backedUspd","type":"uint256","internalType":"uint256"}]}],"stateMutability":"view"},{"type":"function","name":"getRoleAdmin","inputs":[{"name":"role","type":"bytes32","internalType":"bytes32"}],"outputs":[{"name":"","type":"bytes32","internalType":"bytes32"}],"stateMutability":"view"},{"type":"function","name":"getTokenByOwner","inputs":[{"name":"owner","type":"address","internalType":"address"}],"outputs":[{"name":"","type":"uint256","internalType":"uint256"}],"stateMutability":"view"},{"type":"function","name":"grantRole","inputs":[{"name":"role","type":"bytes32","internalType":"bytes32"},{"name":"account","type":"address","internalType":"address"}],"outputs":[],"stateMutability":"nonpayable"},{"type":"function","name":"hasRole","inputs":[{"name":"role","type":"bytes32","internalType":"bytes32"},{"name":"account","type":"address","internalType":"address"}],"outputs":[{"name":"","type":"bool","internalType":"bool"}],"stateMutability":"view"},{"type":"function","name":"initialize","inputs":[{"name":"_oracle","type":"address","internalType":"address"},{"name":"_admin","type":"address","internalType":"address"}],"outputs":[],"stateMutability":"nonpayable"},{"type":"function","name":"isApprovedForAll","inputs":[{"name":"owner","type":"address","internalType":"address"},{"name":"operator","type":"address","internalType":"address"}],"outputs":[{"name":"","type":"bool","internalType":"bool"}],"stateMutability":"view"},{"type":"function","name":"mint","inputs":[{"name":"to","type":"address","internalType":"address"}],"outputs":[{"name":"","type":"uint256","internalType":"uint256"}],"stateMutability":"nonpayable"},{"type":"function","name":"modifyAllocation","inputs":[{"name":"tokenId","type":"uint256","internalType":"uint256"},{"name":"newBackedUspd","type":"uint256","internalType":"uint256"}],"outputs":[],"stateMutability":"nonpayable"},{"type":"function","name":"name","inputs":[],"outputs":[{"name":"","type":"string","internalType":"string"}],"stateMutability":"view"},{"type":"function","name":"oracle","inputs":[],"outputs":[{"name":"","type":"address","internalType":"contract PriceOracle"}],"stateMutability":"view"},{"type":"function","name":"ownerOf","inputs":[{"name":"tokenId","type":"uint256","internalType":"uint256"}],"outputs":[{"name":"","type":"address","internalType":"address"}],"stateMutability":"view"},{"type":"function","name":"removeCollateral","inputs":[{"name":"tokenId","type":"uint256","internalType":"uint256"},{"name":"to","type":"address","internalType":"address payable"},{"name":"amount","type":"uint256","internalType":"uint256"},{"name":"priceResponse","type":"tuple","internalType":"struct IPriceOracle.PriceResponse","components":[{"name":"price","type":"uint256","internalType":"uint256"},{"name":"decimals","type":"uint8","internalType":"uint8"},{"name":"timestamp","type":"uint256","internalType":"uint256"}]}],"outputs":[],"stateMutability":"nonpayable"},{"type":"function","name":"renounceRole","inputs":[{"name":"role","type":"bytes32","internalType":"bytes32"},{"name":"callerConfirmation","type":"address","internalType":"address"}],"outputs":[],"stateMutability":"nonpayable"},{"type":"function","name":"revokeRole","inputs":[{"name":"role","type":"bytes32","internalType":"bytes32"},{"name":"account","type":"address","internalType":"address"}],"outputs":[],"stateMutability":"nonpayable"},{"type":"function","name":"safeTransferFrom","inputs":[{"name":"from","type":"address","internalType":"address"},{"name":"to","type":"address","internalType":"address"},{"name":"tokenId","type":"uint256","internalType":"uint256"}],"outputs":[],"stateMutability":"nonpayable"},{"type":"function","name":"safeTransferFrom","inputs":[{"name":"from","type":"address","internalType":"address"},{"name":"to","type":"address","internalType":"address"},{"name":"tokenId","type":"uint256","internalType":"uint256"},{"name":"data","type":"bytes","internalType":"bytes"}],"outputs":[],"stateMutability":"nonpayable"},{"type":"function","name":"setApprovalForAll","inputs":[{"name":"operator","type":"address","internalType":"address"},{"name":"approved","type":"bool","internalType":"bool"}],"outputs":[],"stateMutability":"nonpayable"},{"type":"function","name":"supportsInterface","inputs":[{"name":"interfaceId","type":"bytes4","internalType":"bytes4"}],"outputs":[{"name":"","type":"bool","internalType":"bool"}],"stateMutability":"view"},{"type":"function","name":"symbol","inputs":[],"outputs":[{"name":"","type":"string","internalType":"string"}],"stateMutability":"view"},{"type":"function","name":"tokenURI","inputs":[{"name":"tokenId","type":"uint256","internalType":"uint256"}],"outputs":[{"name":"","type":"string","internalType":"string"}],"stateMutability":"view"},{"type":"function","name":"transferCollateral","inputs":[{"name":"tokenId","type":"uint256","internalType":"uint256"},{"name":"to","type":"address","internalType":"address payable"},{"name":"amount","type":"uint256","internalType":"uint256"},{"name":"priceQuery","type":"tuple","internalType":"struct IPriceOracle.PriceAttestationQuery","components":[{"name":"price","type":"uint256","internalType":"uint256"},{"name":"decimals","type":"uint8","internalType":"uint8"},{"name":"dataTimestamp","type":"uint256","internalType":"uint256"},{"name":"assetPair","type":"bytes32","internalType":"bytes32"},{"name":"signature","type":"bytes","internalType":"bytes"}]}],"outputs":[],"stateMutability":"nonpayable"},{"type":"function","name":"transferFrom","inputs":[{"name":"from","type":"address","internalType":"address"},{"name":"to","type":"address","internalType":"address"},{"name":"tokenId","type":"uint256","internalType":"uint256"}],"outputs":[],"stateMutability":"nonpayable"},{"type":"event","name":"Approval","inputs":[{"name":"owner","type":"address","indexed":true,"internalType":"address"},{"name":"approved","type":"address","indexed":true,"internalType":"address"},{"name":"tokenId","type":"uint256","indexed":true,"internalType":"uint256"}],"anonymous":false},{"type":"event","name":"ApprovalForAll","inputs":[{"name":"owner","type":"address","indexed":true,"internalType":"address"},{"name":"operator","type":"address","indexed":true,"internalType":"address"},{"name":"approved","type":"bool","indexed":false,"internalType":"bool"}],"anonymous":false},{"type":"event","name":"Initialized","inputs":[{"name":"version","type":"uint64","indexed":false,"internalType":"uint64"}],"anonymous":false},{"type":"event","name":"PositionBurned","inputs":[{"name":"tokenId","type":"uint256","indexed":true,"internalType":"uint256"},{"name":"owner","type":"address","indexed":true,"internalType":"address"},{"name":"allocatedEth","type":"uint256","indexed":false,"internalType":"uint256"},{"name":"backedUspd","type":"uint256","indexed":false,"internalType":"uint256"}],"anonymous":false},{"type":"event","name":"PositionCreated","inputs":[{"name":"tokenId","type":"uint256","indexed":true,"internalType":"uint256"},{"name":"owner","type":"address","indexed":true,"internalType":"address"},{"name":"allocatedEth","type":"uint256","indexed":false,"internalType":"uint256"},{"name":"backedUspd","type":"uint256","indexed":false,"internalType":"uint256"}],"anonymous":false},{"type":"event","name":"RoleAdminChanged","inputs":[{"name":"role","type":"bytes32","indexed":true,"internalType":"bytes32"},{"name":"previousAdminRole","type":"bytes32","indexed":true,"internalType":"bytes32"},{"name":"newAdminRole","type":"bytes32","indexed":true,"internalType":"bytes32"}],"anonymous":false},{"type":"event","name":"RoleGranted","inputs":[{"name":"role","type":"bytes32","indexed":true,"internalType":"bytes32"},{"name":"account","type":"address","indexed":true,"internalType":"address"},{"name":"sender","type":"address","indexed":true,"internalType":"address"}],"anonymous":false},{"type":"event","name":"RoleRevoked","inputs":[{"name":"role","type":"bytes32","indexed":true,"internalType":"bytes32"},{"name":"account","type":"address","indexed":true,"internalType":"address"},{"name":"sender","type":"address","indexed":true,"internalType":"address"}],"anonymous":false},{"type":"event","name":"Transfer","inputs":[{"name":"from","type":"address","indexed":true,"internalType":"address"},{"name":"to","type":"address","indexed":true,"internalType":"address"},{"name":"tokenId","type":"uint256","indexed":true,"internalType":"uint256"}],"anonymous":false},{"type":"error","name":"AccessControlBadConfirmation","inputs":[]},{"type":"error","name":"AccessControlUnauthorizedAccount","inputs":[{"name":"account","type":"address","internalType":"address"},{"name":"neededRole","type":"bytes32","internalType":"bytes32"}]},{"type":"error","name":"ERC721IncorrectOwner","inputs":[{"name":"sender","type":"address","internalType":"address"},{"name":"tokenId","type":"uint256","internalType":"uint256"},{"name":"owner","type":"address","internalType":"address"}]},{"type":"error","name":"ERC721InsufficientApproval","inputs":[{"name":"operator","type":"address","internalType":"address"},{"name":"tokenId","type":"uint256","internalType":"uint256"}]},{"type":"error","name":"ERC721InvalidApprover","inputs":[{"name":"approver","type":"address","internalType":"address"}]},{"type":"error","name":"ERC721InvalidOperator","inputs":[{"name":"operator","type":"address","internalType":"address"}]},{"type":"error","name":"ERC721InvalidOwner","inputs":[{"name":"owner","type":"address","internalType":"address"}]},{"type":"error","name":"ERC721InvalidReceiver","inputs":[{"name":"receiver","type":"address","internalType":"address"}]},{"type":"error","name":"ERC721InvalidSender","inputs":[{"name":"sender","type":"address","internalType":"address"}]},{"type":"error","name":"ERC721NonexistentToken","inputs":[{"name":"tokenId","type":"uint256","internalType":"uint256"}]},{"type":"error","name":"InvalidInitialization","inputs":[]},{"type":"error","name":"NotInitializing","inputs":[]}],"bytecode":{"object":"0x6080604052348015600e575f80fd5b5060156019565b60c9565b7ff0c57e16840df040f15088dc2f81fe391c3923bec73e23a9662efc9c229c6a00805468010000000000000000900460ff161560685760405163f92ee8a960e01b815260040160405180910390fd5b80546001600160401b039081161460c65780546001600160401b0319166001600160401b0390811782556040519081527fc7f505b2f371ae2175ee4913f4499e1f2633a7b5936321eed1cdaeb6115181d29060200160405180910390a15b50565b613780806100d65f395ff3fe6080604052600436106101f8575f3560e01c806370a0823111610117578063bbc10809116100ac578063d53913931161007c578063e7830b4a11610062578063e7830b4a146107cb578063e985e9c5146107fe578063eb02c30114610871575f80fd5b8063d539139314610779578063d547741f146107ac575f80fd5b8063bbc1080914610709578063bcc46e8314610728578063c0579f2b1461073b578063c87b56dd1461075a575f80fd5b8063a217fddf116100e7578063a217fddf14610699578063a22cb465146106ac578063ab50355e146106cb578063b88d4fde146106ea575f80fd5b806370a08231146105cb5780637dc0d1d0146105ea57806391d148541461061557806395d89b4114610685575f80fd5b8063341c49af1161018d578063485cc9551161015d578063485cc9551461053b5780636352211e1461055a57806365dae4ae146105795780636a627842146105ac575f80fd5b8063341c49af146104bf57806336568abe146104de57806342842e0e146104fd57806342966c681461051c575f80fd5b806323b872dd116101c857806323b872dd146103e5578063248a9ca3146104045780632bf79c941461045f5780632f2ff15d146104a0575f80fd5b806301ffc9a71461032b57806306fdde031461035f578063081812fc14610380578063095ea7b3146103c4575f80fd5b3661032757335f908152600260205260408120549081900361027b576040517f08c379a000000000000000000000000000000000000000000000000000000000815260206004820152601c60248201527f4e6f20706f736974696f6e20666f756e6420666f722073656e6465720000000060448201526064015b60405180910390fd5b33610285826108e2565b73ffffffffffffffffffffffffffffffffffffffff1614610302576040517f08c379a000000000000000000000000000000000000000000000000000000000815260206004820152601260248201527f4e6f7420706f736974696f6e206f776e657200000000000000000000000000006044820152606401610272565b5f818152600160205260408120805434929061031f908490612d3e565b925050819055005b5f80fd5b348015610336575f80fd5b5061034a610345366004612d7e565b6108f2565b60405190151581526020015b60405180910390f35b34801561036a575f80fd5b506103736108fc565b6040516103569190612de5565b34801561038b575f80fd5b5061039f61039a366004612df7565b6109b0565b60405173ffffffffffffffffffffffffffffffffffffffff9091168152602001610356565b3480156103cf575f80fd5b506103e36103de366004612e2f565b610a03565b005b3480156103f0575f80fd5b506103e36103ff366004612e59565b610a12565b34801561040f575f80fd5b5061045161041e366004612df7565b5f9081527f02dd7bc7dec4dceedda775e58dd541e08a116c6c53815c0bd028192f7b626800602052604090206001015490565b604051908152602001610356565b34801561046a575f80fd5b50610451610479366004612e97565b73ffffffffffffffffffffffffffffffffffffffff165f9081526002602052604090205490565b3480156104ab575f80fd5b506103e36104ba366004612eb2565b610b01565b3480156104ca575f80fd5b506103e36104d9366004612ee0565b610b44565b3480156104e9575f80fd5b506103e36104f8366004612eb2565b610c0c565b348015610508575f80fd5b506103e3610517366004612e59565b610c6a565b348015610527575f80fd5b506103e3610536366004612df7565b610c84565b348015610546575f80fd5b506103e3610555366004612f00565b610e08565b348015610565575f80fd5b5061039f610574366004612df7565b6108e2565b348015610584575f80fd5b506104517fe707f4d4c809f6be55cbd1f4314ecce5b1519ad67d498180c0824316256175cf81565b3480156105b7575f80fd5b506104516105c6366004612e97565b611034565b3480156105d6575f80fd5b506104516105e5366004612e97565b6111b4565b3480156105f5575f80fd5b505f5461039f9073ffffffffffffffffffffffffffffffffffffffff1681565b348015610620575f80fd5b5061034a61062f366004612eb2565b5f9182527f02dd7bc7dec4dceedda775e58dd541e08a116c6c53815c0bd028192f7b6268006020908152604080842073ffffffffffffffffffffffffffffffffffffffff93909316845291905290205460ff1690565b348015610690575f80fd5b50610373611252565b3480156106a4575f80fd5b506104515f81565b3480156106b7575f80fd5b506103e36106c6366004612f2c565b6112a3565b3480156106d6575f80fd5b506103e36106e5366004612f5c565b6112ae565b3480156106f5575f80fd5b506103e3610704366004613044565b6115e9565b348015610714575f80fd5b50610451610723366004613132565b611601565b6103e3610736366004612df7565b61166f565b348015610746575f80fd5b506103e3610755366004613168565b611784565b348015610765575f80fd5b50610373610774366004612df7565b611bad565b348015610784575f80fd5b506104517f9f2df0fed2c77648de5860a4cc508cd0818c85b8b8a1ab4ceeef8d981c8956a681565b3480156107b7575f80fd5b506103e36107c6366004612eb2565b611c1e565b3480156107d6575f80fd5b506104517f2fdb5f48630a6f9eb0d7702da69151aaac47ccfd65cf560e0ee50d90efcf3d9781565b348015610809575f80fd5b5061034a610818366004612f00565b73ffffffffffffffffffffffffffffffffffffffff9182165f9081527f80bb2b638cc20bc4d0a60d66940f3ab4a00c1d7b313497ca82fb0b4ab00793056020908152604080832093909416825291909152205460ff1690565b34801561087c575f80fd5b506108c761088b366004612df7565b604080518082019091525f8082526020820152505f90815260016020818152604092839020835180850190945280548452909101549082015290565b60408051825181526020928301519281019290925201610356565b5f6108ec82611c61565b92915050565b5f6108ec82611cde565b7f80bb2b638cc20bc4d0a60d66940f3ab4a00c1d7b313497ca82fb0b4ab0079300805460609190819061092e906131cb565b80601f016020809104026020016040519081016040528092919081815260200182805461095a906131cb565b80156109a55780601f1061097c576101008083540402835291602001916109a5565b820191905f5260205f20905b81548152906001019060200180831161098857829003601f168201915b505050505091505090565b5f6109ba82611c61565b505f8281527f80bb2b638cc20bc4d0a60d66940f3ab4a00c1d7b313497ca82fb0b4ab0079304602052604090205473ffffffffffffffffffffffffffffffffffffffff166108ec565b610a0e828233611d33565b5050565b73ffffffffffffffffffffffffffffffffffffffff8216610a61576040517f64a0ae920000000000000000000000000000000000000000000000000000000081525f6004820152602401610272565b5f610a6d838333611d40565b90508373ffffffffffffffffffffffffffffffffffffffff168173ffffffffffffffffffffffffffffffffffffffff1614610afb576040517f64283d7b00000000000000000000000000000000000000000000000000000000815273ffffffffffffffffffffffffffffffffffffffff80861660048301526024820184905282166044820152606401610272565b50505050565b5f8281527f02dd7bc7dec4dceedda775e58dd541e08a116c6c53815c0bd028192f7b6268006020526040902060010154610b3a81611eff565b610afb8383611f0c565b7f2fdb5f48630a6f9eb0d7702da69151aaac47ccfd65cf560e0ee50d90efcf3d97610b6e81611eff565b5f610b78846108e2565b73ffffffffffffffffffffffffffffffffffffffff1603610bf5576040517f08c379a000000000000000000000000000000000000000000000000000000000815260206004820152601760248201527f506f736974696f6e20646f6573206e6f742065786973740000000000000000006044820152606401610272565b505f91825260016020819052604090922090910155565b73ffffffffffffffffffffffffffffffffffffffff81163314610c5b576040517f6697b23200000000000000000000000000000000000000000000000000000000815260040160405180910390fd5b610c65828261202a565b505050565b610c6583838360405180602001604052805f8152506115e9565b33610c8e826108e2565b73ffffffffffffffffffffffffffffffffffffffff1614610d0b576040517f08c379a000000000000000000000000000000000000000000000000000000000815260206004820152601260248201527f4e6f7420706f736974696f6e206f776e657200000000000000000000000000006044820152606401610272565b5f8181526001602052604090205415610d80576040517f08c379a000000000000000000000000000000000000000000000000000000000815260206004820152601d60248201527f506f736974696f6e207374696c6c2068617320636f6c6c61746572616c0000006044820152606401610272565b5f8181526001602081815260408084208151808301835281548152938101805485850152908590558490553384526002909152822091909155610dc282612106565b80516020808301516040805193845291830152339184917ffb233a30394c607c1ae6377e8d607fba7cc732b658f41a2c9e48f0a46b8a38fb910160405180910390a35050565b5f610e11612164565b805490915060ff68010000000000000000820416159067ffffffffffffffff165f81158015610e3d5750825b90505f8267ffffffffffffffff166001148015610e595750303b155b905081158015610e67575080155b15610e9e576040517ff92ee8a900000000000000000000000000000000000000000000000000000000815260040160405180910390fd5b84547fffffffffffffffffffffffffffffffffffffffffffffffff00000000000000001660011785558315610eff5784547fffffffffffffffffffffffffffffffffffffffffffffff00ffffffffffffffff16680100000000000000001785555b610f736040518060400160405280601c81526020017f5553504420436f6c6c61746572616c697a656420506f736974696f6e000000008152506040518060400160405280600781526020017f55535044504f530000000000000000000000000000000000000000000000000081525061218c565b610f7b61219e565b610f855f87611f0c565b505f80547fffffffffffffffffffffffff00000000000000000000000000000000000000001673ffffffffffffffffffffffffffffffffffffffff89161790556001600355831561102b5784547fffffffffffffffffffffffffffffffffffffffffffffff00ffffffffffffffff168555604051600181527fc7f505b2f371ae2175ee4913f4499e1f2633a7b5936321eed1cdaeb6115181d29060200160405180910390a15b50505050505050565b5f7f9f2df0fed2c77648de5860a4cc508cd0818c85b8b8a1ab4ceeef8d981c8956a661105f81611eff565b73ffffffffffffffffffffffffffffffffffffffff83165f90815260026020526040902054156110eb576040517f08c379a000000000000000000000000000000000000000000000000000000000815260206004820152601c60248201527f4f776e657220616c726561647920686173206120706f736974696f6e000000006044820152606401610272565b600380545f91826110fb83613216565b909155506040805180820182525f8082526020808301828152858352600180835285842094518555905193019290925573ffffffffffffffffffffffffffffffffffffffff88168152600290915220819055905061115984826121a8565b604080515f808252602082015273ffffffffffffffffffffffffffffffffffffffff86169183917ffb617c13a5b4b052ee893903dca019ab1611dfef1b20f7acb7a5bfe008c10260910160405180910390a391505b50919050565b5f7f80bb2b638cc20bc4d0a60d66940f3ab4a00c1d7b313497ca82fb0b4ab007930073ffffffffffffffffffffffffffffffffffffffff8316611225576040517f89c62b640000000000000000000000000000000000000000000000000000000081525f6004820152602401610272565b73ffffffffffffffffffffffffffffffffffffffff9092165f908152600390920160205250604090205490565b7f80bb2b638cc20bc4d0a60d66940f3ab4a00c1d7b313497ca82fb0b4ab007930180546060917f80bb2b638cc20bc4d0a60d66940f3ab4a00c1d7b313497ca82fb0b4ab00793009161092e906131cb565b610a0e3383836121c1565b7fe707f4d4c809f6be55cbd1f4314ecce5b1519ad67d498180c0824316256175cf6112d881611eff565b5f6112e2866108e2565b73ffffffffffffffffffffffffffffffffffffffff160361135f576040517f08c379a000000000000000000000000000000000000000000000000000000000815260206004820152601760248201527f506f736974696f6e20646f6573206e6f742065786973740000000000000000006044820152606401610272565b5f858152600160205260409020548311156113d6576040517f08c379a000000000000000000000000000000000000000000000000000000000815260206004820152601760248201527f496e73756666696369656e7420636f6c6c61746572616c0000000000000000006044820152606401610272565b5f8581526001602081905260409091200154156114fa575f8581526001602052604081205461140690859061324d565b90505f6114196040850160208601613260565b61142490600a61339c565b61142f8535846133aa565b61143991906133c1565b5f88815260016020819052604082200154919250906114598360646133aa565b61146391906133c1565b9050606e8110156114f6576040517f08c379a000000000000000000000000000000000000000000000000000000000815260206004820152602660248201527f436f6c6c61746572616c20726174696f20776f756c642066616c6c2062656c6f60448201527f77203131302500000000000000000000000000000000000000000000000000006064820152608401610272565b5050505b5f858152600160205260408120805485929061151790849061324d565b90915550506040515f9073ffffffffffffffffffffffffffffffffffffffff86169085908381818185875af1925050503d805f8114611571576040519150601f19603f3d011682016040523d82523d5f602084013e611576565b606091505b50509050806115e1576040517f08c379a000000000000000000000000000000000000000000000000000000000815260206004820152601360248201527f455448207472616e73666572206661696c6564000000000000000000000000006044820152606401610272565b505050505050565b6115f4848484610a12565b610afb33858585856122e1565b5f83815260016020818152604080842081518083019092528054825290920154908201528161163184600a61339c565b825161163e9087906133aa565b61164891906133c1565b602083015190915061165b8260646133aa565b61166591906133c1565b9695505050505050565b5f611679826108e2565b73ffffffffffffffffffffffffffffffffffffffff16036116f6576040517f08c379a000000000000000000000000000000000000000000000000000000000815260206004820152601760248201527f506f736974696f6e20646f6573206e6f742065786973740000000000000000006044820152606401610272565b5f341161175f576040517f08c379a000000000000000000000000000000000000000000000000000000000815260206004820152600b60248201527f4e6f204554482073656e740000000000000000000000000000000000000000006044820152606401610272565b5f818152600160205260408120805434929061177c908490612d3e565b909155505050565b5f61178e856108e2565b73ffffffffffffffffffffffffffffffffffffffff160361180b576040517f08c379a000000000000000000000000000000000000000000000000000000000815260206004820152601760248201527f506f736974696f6e20646f6573206e6f742065786973740000000000000000006044820152606401610272565b33611815856108e2565b73ffffffffffffffffffffffffffffffffffffffff1614611892576040517f08c379a000000000000000000000000000000000000000000000000000000000815260206004820152601260248201527f4e6f7420706f736974696f6e206f776e657200000000000000000000000000006044820152606401610272565b5f84815260016020526040902054821115611909576040517f08c379a000000000000000000000000000000000000000000000000000000000815260206004820152601760248201527f496e73756666696369656e7420636f6c6c61746572616c0000000000000000006044820152606401610272565b5f848152600160208190526040909120015415611abf575f80546040517f65ab8c7100000000000000000000000000000000000000000000000000000000815273ffffffffffffffffffffffffffffffffffffffff909116906365ab8c7190611976908590600401613440565b6060604051808303815f875af1158015611992573d5f803e3d5ffd5b505050506040513d601f19601f820116820180604052508101906119b691906134f7565b5f86815260016020526040812054919250906119d390859061324d565b90505f8260200151600a6119e7919061339c565b83516119f390846133aa565b6119fd91906133c1565b5f8881526001602081905260408220015491925090611a1d8360646133aa565b611a2791906133c1565b9050606e811015611aba576040517f08c379a000000000000000000000000000000000000000000000000000000000815260206004820152602660248201527f436f6c6c61746572616c20726174696f20776f756c642066616c6c2062656c6f60448201527f77203131302500000000000000000000000000000000000000000000000000006064820152608401610272565b505050505b5f8481526001602052604081208054849290611adc90849061324d565b90915550506040515f9073ffffffffffffffffffffffffffffffffffffffff85169084908381818185875af1925050503d805f8114611b36576040519150601f19603f3d011682016040523d82523d5f602084013e611b3b565b606091505b5050905080611ba6576040517f08c379a000000000000000000000000000000000000000000000000000000000815260206004820152601360248201527f455448207472616e73666572206661696c6564000000000000000000000000006044820152606401610272565b5050505050565b6060611bb882611c61565b505f611bce60408051602081019091525f815290565b90505f815111611bec5760405180602001604052805f815250611c17565b80611bf6846124ce565b604051602001611c07929190613570565b6040516020818303038152906040525b9392505050565b5f8281527f02dd7bc7dec4dceedda775e58dd541e08a116c6c53815c0bd028192f7b6268006020526040902060010154611c5781611eff565b610afb838361202a565b5f8181527f80bb2b638cc20bc4d0a60d66940f3ab4a00c1d7b313497ca82fb0b4ab0079302602052604081205473ffffffffffffffffffffffffffffffffffffffff16806108ec576040517f7e27328900000000000000000000000000000000000000000000000000000000815260048101849052602401610272565b5f7fffffffff0000000000000000000000000000000000000000000000000000000082167f7965db0b0000000000000000000000000000000000000000000000000000000014806108ec57506108ec8261258a565b610c65838383600161266c565b5f8281527f80bb2b638cc20bc4d0a60d66940f3ab4a00c1d7b313497ca82fb0b4ab007930260205260408120547f80bb2b638cc20bc4d0a60d66940f3ab4a00c1d7b313497ca82fb0b4ab00793009073ffffffffffffffffffffffffffffffffffffffff90811690841615611dba57611dba818587612875565b73ffffffffffffffffffffffffffffffffffffffff811615611e2f57611de25f865f8061266c565b73ffffffffffffffffffffffffffffffffffffffff81165f908152600383016020526040902080547fffffffffffffffffffffffffffffffffffffffffffffffffffffffffffffffff0190555b73ffffffffffffffffffffffffffffffffffffffff861615611e795773ffffffffffffffffffffffffffffffffffffffff86165f9081526003830160205260409020805460010190555b5f85815260028301602052604080822080547fffffffffffffffffffffffff00000000000000000000000000000000000000001673ffffffffffffffffffffffffffffffffffffffff8a811691821790925591518893918516917fddf252ad1be2c89b69c2b068fc378daa952ba7f163c4a11628f55a4df523b3ef91a495945050505050565b611f098133612925565b50565b5f8281527f02dd7bc7dec4dceedda775e58dd541e08a116c6c53815c0bd028192f7b6268006020818152604080842073ffffffffffffffffffffffffffffffffffffffff8616855290915282205460ff16612021575f8481526020828152604080832073ffffffffffffffffffffffffffffffffffffffff87168452909152902080547fffffffffffffffffffffffffffffffffffffffffffffffffffffffffffffff00166001179055611fbd3390565b73ffffffffffffffffffffffffffffffffffffffff168373ffffffffffffffffffffffffffffffffffffffff16857f2f8788117e7eff1d82e926ec794901d17c78024a50270940304540a733656f0d60405160405180910390a460019150506108ec565b5f9150506108ec565b5f8281527f02dd7bc7dec4dceedda775e58dd541e08a116c6c53815c0bd028192f7b6268006020818152604080842073ffffffffffffffffffffffffffffffffffffffff8616855290915282205460ff1615612021575f8481526020828152604080832073ffffffffffffffffffffffffffffffffffffffff8716808552925280832080547fffffffffffffffffffffffffffffffffffffffffffffffffffffffffffffff0016905551339287917ff6391f5c32d9c69d2a47ea670b442974b53935d1edc7fd64eb21e047a839171b9190a460019150506108ec565b5f6121125f835f611d40565b905073ffffffffffffffffffffffffffffffffffffffff8116610a0e576040517f7e27328900000000000000000000000000000000000000000000000000000000815260048101839052602401610272565b5f807ff0c57e16840df040f15088dc2f81fe391c3923bec73e23a9662efc9c229c6a006108ec565b6121946129cb565b610a0e8282612a09565b6121a66129cb565b565b610a0e828260405180602001604052805f815250612a4c565b7f80bb2b638cc20bc4d0a60d66940f3ab4a00c1d7b313497ca82fb0b4ab007930073ffffffffffffffffffffffffffffffffffffffff8316612247576040517f5b08ba1800000000000000000000000000000000000000000000000000000000815273ffffffffffffffffffffffffffffffffffffffff84166004820152602401610272565b73ffffffffffffffffffffffffffffffffffffffff8481165f81815260058401602090815260408083209488168084529482529182902080547fffffffffffffffffffffffffffffffffffffffffffffffffffffffffffffff001687151590811790915591519182527f17307eab39ab6107e8899845ad3d59bd9653f200f220920489ca2b5937696c31910160405180910390a350505050565b73ffffffffffffffffffffffffffffffffffffffff83163b15611ba6576040517f150b7a0200000000000000000000000000000000000000000000000000000000815273ffffffffffffffffffffffffffffffffffffffff84169063150b7a0290612356908890889087908790600401613584565b6020604051808303815f875af19250505080156123ae575060408051601f3d9081017fffffffffffffffffffffffffffffffffffffffffffffffffffffffffffffffe01682019092526123ab918101906135d4565b60015b61243b573d8080156123db576040519150601f19603f3d011682016040523d82523d5f602084013e6123e0565b606091505b5080515f03612433576040517f64a0ae9200000000000000000000000000000000000000000000000000000000815273ffffffffffffffffffffffffffffffffffffffff85166004820152602401610272565b805181602001fd5b7fffffffff0000000000000000000000000000000000000000000000000000000081167f150b7a0200000000000000000000000000000000000000000000000000000000146115e1576040517f64a0ae9200000000000000000000000000000000000000000000000000000000815273ffffffffffffffffffffffffffffffffffffffff85166004820152602401610272565b60605f6124da83612a63565b60010190505f8167ffffffffffffffff8111156124f9576124f9612fc8565b6040519080825280601f01601f191660200182016040528015612523576020820181803683370190505b5090508181016020015b7fffffffffffffffffffffffffffffffffffffffffffffffffffffffffffffffff017f3031323334353637383961626364656600000000000000000000000000000000600a86061a8153600a850494508461252d57509392505050565b5f7fffffffff0000000000000000000000000000000000000000000000000000000082167f80ac58cd00000000000000000000000000000000000000000000000000000000148061261c57507fffffffff0000000000000000000000000000000000000000000000000000000082167f5b5e139f00000000000000000000000000000000000000000000000000000000145b806108ec57507f01ffc9a7000000000000000000000000000000000000000000000000000000007fffffffff000000000000000000000000000000000000000000000000000000008316146108ec565b7f80bb2b638cc20bc4d0a60d66940f3ab4a00c1d7b313497ca82fb0b4ab007930081806126ae575073ffffffffffffffffffffffffffffffffffffffff831615155b15612820575f6126bd85611c61565b905073ffffffffffffffffffffffffffffffffffffffff84161580159061271057508373ffffffffffffffffffffffffffffffffffffffff168173ffffffffffffffffffffffffffffffffffffffff1614155b801561276d575073ffffffffffffffffffffffffffffffffffffffff8082165f9081527f80bb2b638cc20bc4d0a60d66940f3ab4a00c1d7b313497ca82fb0b4ab0079305602090815260408083209388168352929052205460ff16155b156127bc576040517fa9fbf51f00000000000000000000000000000000000000000000000000000000815273ffffffffffffffffffffffffffffffffffffffff85166004820152602401610272565b821561281e57848673ffffffffffffffffffffffffffffffffffffffff168273ffffffffffffffffffffffffffffffffffffffff167f8c5be1e5ebec7d5bd14f71427d1e84f3dd0314c0f7b2291e5b200ac8c7c3b92560405160405180910390a45b505b5f93845260040160205250506040902080547fffffffffffffffffffffffff00000000000000000000000000000000000000001673ffffffffffffffffffffffffffffffffffffffff92909216919091179055565b612880838383612b44565b610c655773ffffffffffffffffffffffffffffffffffffffff83166128d4576040517f7e27328900000000000000000000000000000000000000000000000000000000815260048101829052602401610272565b6040517f177e802f00000000000000000000000000000000000000000000000000000000815273ffffffffffffffffffffffffffffffffffffffff8316600482015260248101829052604401610272565b5f8281527f02dd7bc7dec4dceedda775e58dd541e08a116c6c53815c0bd028192f7b6268006020908152604080832073ffffffffffffffffffffffffffffffffffffffff8516845290915290205460ff16610a0e576040517fe2517d3f00000000000000000000000000000000000000000000000000000000815273ffffffffffffffffffffffffffffffffffffffff8216600482015260248101839052604401610272565b6129d3612c46565b6121a6576040517fd7e6bcf800000000000000000000000000000000000000000000000000000000815260040160405180910390fd5b612a116129cb565b7f80bb2b638cc20bc4d0a60d66940f3ab4a00c1d7b313497ca82fb0b4ab007930080612a3d8482613633565b5060018101610afb8382613633565b612a568383612c64565b610c65335f8585856122e1565b5f807a184f03e93ff9f4daa797ed6e38ed64bf6a1f0100000000000000008310612aab577a184f03e93ff9f4daa797ed6e38ed64bf6a1f010000000000000000830492506040015b6d04ee2d6d415b85acef81000000008310612ad7576d04ee2d6d415b85acef8100000000830492506020015b662386f26fc100008310612af557662386f26fc10000830492506010015b6305f5e1008310612b0d576305f5e100830492506008015b6127108310612b2157612710830492506004015b60648310612b33576064830492506002015b600a83106108ec5760010192915050565b5f73ffffffffffffffffffffffffffffffffffffffff831615801590612c3e57508273ffffffffffffffffffffffffffffffffffffffff168473ffffffffffffffffffffffffffffffffffffffff161480612bef575073ffffffffffffffffffffffffffffffffffffffff8085165f9081527f80bb2b638cc20bc4d0a60d66940f3ab4a00c1d7b313497ca82fb0b4ab0079305602090815260408083209387168352929052205460ff165b80612c3e57505f8281527f80bb2b638cc20bc4d0a60d66940f3ab4a00c1d7b313497ca82fb0b4ab0079304602052604090205473ffffffffffffffffffffffffffffffffffffffff8481169116145b949350505050565b5f612c4f612164565b5468010000000000000000900460ff16919050565b73ffffffffffffffffffffffffffffffffffffffff8216612cb3576040517f64a0ae920000000000000000000000000000000000000000000000000000000081525f6004820152602401610272565b5f612cbf83835f611d40565b905073ffffffffffffffffffffffffffffffffffffffff811615610c65576040517f73c6ac6e0000000000000000000000000000000000000000000000000000000081525f6004820152602401610272565b7f4e487b71000000000000000000000000000000000000000000000000000000005f52601160045260245ffd5b808201808211156108ec576108ec612d11565b7fffffffff0000000000000000000000000000000000000000000000000000000081168114611f09575f80fd5b5f60208284031215612d8e575f80fd5b8135611c1781612d51565b5f81518084528060208401602086015e5f6020828601015260207fffffffffffffffffffffffffffffffffffffffffffffffffffffffffffffffe0601f83011685010191505092915050565b602081525f611c176020830184612d99565b5f60208284031215612e07575f80fd5b5035919050565b73ffffffffffffffffffffffffffffffffffffffff81168114611f09575f80fd5b5f8060408385031215612e40575f80fd5b8235612e4b81612e0e565b946020939093013593505050565b5f805f60608486031215612e6b575f80fd5b8335612e7681612e0e565b92506020840135612e8681612e0e565b929592945050506040919091013590565b5f60208284031215612ea7575f80fd5b8135611c1781612e0e565b5f8060408385031215612ec3575f80fd5b823591506020830135612ed581612e0e565b809150509250929050565b5f8060408385031215612ef1575f80fd5b50508035926020909101359150565b5f8060408385031215612f11575f80fd5b8235612f1c81612e0e565b91506020830135612ed581612e0e565b5f8060408385031215612f3d575f80fd5b8235612f4881612e0e565b915060208301358015158114612ed5575f80fd5b5f805f8084860360c0811215612f70575f80fd5b853594506020860135612f8281612e0e565b93506040860135925060607fffffffffffffffffffffffffffffffffffffffffffffffffffffffffffffffa082011215612fba575f80fd5b509295919450926060019150565b7f4e487b71000000000000000000000000000000000000000000000000000000005f52604160045260245ffd5b604051601f82017fffffffffffffffffffffffffffffffffffffffffffffffffffffffffffffffe016810167ffffffffffffffff8111828210171561303c5761303c612fc8565b604052919050565b5f805f8060808587031215613057575f80fd5b843561306281612e0e565b9350602085013561307281612e0e565b925060408501359150606085013567ffffffffffffffff811115613094575f80fd5b8501601f810187136130a4575f80fd5b803567ffffffffffffffff8111156130be576130be612fc8565b6130ef60207fffffffffffffffffffffffffffffffffffffffffffffffffffffffffffffffe0601f84011601612ff5565b818152886020838501011115613103575f80fd5b816020840160208301375f6020838301015280935050505092959194509250565b60ff81168114611f09575f80fd5b5f805f60608486031215613144575f80fd5b8335925060208401359150604084013561315d81613124565b809150509250925092565b5f805f806080858703121561317b575f80fd5b84359350602085013561318d81612e0e565b925060408501359150606085013567ffffffffffffffff8111156131af575f80fd5b850160a081880312156131c0575f80fd5b939692955090935050565b600181811c908216806131df57607f821691505b6020821081036111ae577f4e487b71000000000000000000000000000000000000000000000000000000005f52602260045260245ffd5b5f7fffffffffffffffffffffffffffffffffffffffffffffffffffffffffffffffff820361324657613246612d11565b5060010190565b818103818111156108ec576108ec612d11565b5f60208284031215613270575f80fd5b8135611c1781613124565b6001815b60018411156132b65780850481111561329a5761329a612d11565b60018416156132a857908102905b60019390931c92800261327f565b935093915050565b5f826132cc575060016108ec565b816132d857505f6108ec565b81600181146132ee57600281146132f857613314565b60019150506108ec565b60ff84111561330957613309612d11565b50506001821b6108ec565b5060208310610133831016604e8410600b8410161715613337575081810a6108ec565b6133627fffffffffffffffffffffffffffffffffffffffffffffffffffffffffffffffff848461327b565b807fffffffffffffffffffffffffffffffffffffffffffffffffffffffffffffffff0482111561339457613394612d11565b029392505050565b5f611c1760ff8416836132be565b80820281158282048414176108ec576108ec612d11565b5f826133f4577f4e487b71000000000000000000000000000000000000000000000000000000005f52601260045260245ffd5b500490565b81835281816020850137505f602082840101525f60207fffffffffffffffffffffffffffffffffffffffffffffffffffffffffffffffe0601f840116840101905092915050565b60208082528235828201525f9083013561345981613124565b60ff16604083810191909152830135606080840191909152830135608080840191909152830135368490037fffffffffffffffffffffffffffffffffffffffffffffffffffffffffffffffe10181126134b0575f80fd5b830160208101903567ffffffffffffffff8111156134cc575f80fd5b8036038213156134da575f80fd5b60a0808501526134ee60c0850182846133f9565b95945050505050565b5f6060828403128015613508575f80fd5b506040516060810167ffffffffffffffff8111828210171561352c5761352c612fc8565b60405282518152602083015161354181613124565b60208201526040928301519281019290925250919050565b5f81518060208401855e5f93019283525090919050565b5f612c3e61357e8386613559565b84613559565b73ffffffffffffffffffffffffffffffffffffffff8516815273ffffffffffffffffffffffffffffffffffffffff84166020820152826040820152608060608201525f6116656080830184612d99565b5f602082840312156135e4575f80fd5b8151611c1781612d51565b601f821115610c6557805f5260205f20601f840160051c810160208510156136145750805b601f840160051c820191505b81811015611ba6575f8155600101613620565b815167ffffffffffffffff81111561364d5761364d612fc8565b6136618161365b84546131cb565b846135ef565b6020601f8211600181146136b2575f831561367c5750848201515b7fffffffffffffffffffffffffffffffffffffffffffffffffffffffffffffffff600385901b1c1916600184901b178455611ba6565b5f848152602081207fffffffffffffffffffffffffffffffffffffffffffffffffffffffffffffffe08516915b828110156136ff57878501518255602094850194600190920191016136df565b508482101561373b57868401517fffffffffffffffffffffffffffffffffffffffffffffffffffffffffffffffff600387901b60f8161c191681555b50505050600190811b0190555056fea26469706673582212206ad170fc7df17c48dad492a393aff3506d949034c65d07878b339070fa38767864736f6c634300081a0033","linkReferences":{}},"methodIdentifiers":{"DEFAULT_ADMIN_ROLE()":"a217fddf","MINTER_ROLE()":"d5391393","MODIFYALLOCATION_ROLE()":"e7830b4a","TRANSFERCOLLATERAL_ROLE()":"65dae4ae","addCollateral(uint256)":"bcc46e83","approve(address,uint256)":"095ea7b3","balanceOf(address)":"70a08231","burn(uint256)":"42966c68","getApproved(uint256)":"081812fc","getCollateralizationRatio(uint256,uint256,uint8)":"bbc10809","getPosition(uint256)":"eb02c301","getRoleAdmin(bytes32)":"248a9ca3","getTokenByOwner(address)":"2bf79c94","grantRole(bytes32,address)":"2f2ff15d","hasRole(bytes32,address)":"91d14854","initialize(address,address)":"485cc955","isApprovedForAll(address,address)":"e985e9c5","mint(address)":"6a627842","modifyAllocation(uint256,uint256)":"341c49af","name()":"06fdde03","oracle()":"7dc0d1d0","ownerOf(uint256)":"6352211e","removeCollateral(uint256,address,uint256,(uint256,uint8,uint256))":"ab50355e","renounceRole(bytes32,address)":"36568abe","revokeRole(bytes32,address)":"d547741f","safeTransferFrom(address,address,uint256)":"42842e0e","safeTransferFrom(address,address,uint256,bytes)":"b88d4fde","setApprovalForAll(address,bool)":"a22cb465","supportsInterface(bytes4)":"01ffc9a7","symbol()":"95d89b41","tokenURI(uint256)":"c87b56dd","transferCollateral(uint256,address,uint256,(uint256,uint8,uint256,bytes32,bytes))":"c0579f2b","transferFrom(address,address,uint256)":"23b872dd"},"storageLayout":{"storage":[{"astId":54738,"contract":"src/UspdCollateralizedPositionNFT.sol:UspdCollateralizedPositionNFT","label":"oracle","offset":0,"slot":"0","type":"t_contract(PriceOracle)53063"},{"astId":54743,"contract":"src/UspdCollateralizedPositionNFT.sol:UspdCollateralizedPositionNFT","label":"_positions","offset":0,"slot":"1","type":"t_mapping(t_uint256,t_struct(Position)55872_storage)"},{"astId":54747,"contract":"src/UspdCollateralizedPositionNFT.sol:UspdCollateralizedPositionNFT","label":"_ownerToken","offset":0,"slot":"2","type":"t_mapping(t_address,t_uint256)"},{"astId":54774,"contract":"src/UspdCollateralizedPositionNFT.sol:UspdCollateralizedPositionNFT","label":"_nextPositionId","offset":0,"slot":"3","type":"t_uint256"}],"types":{"t_address":{"encoding":"inplace","label":"address","numberOfBytes":"20"},"t_contract(PriceOracle)53063":{"encoding":"inplace","label":"contract PriceOracle","numberOfBytes":"20"},"t_mapping(t_address,t_uint256)":{"encoding":"mapping","key":"t_address","label":"mapping(address => uint256)","numberOfBytes":"32","value":"t_uint256"},"t_mapping(t_uint256,t_struct(Position)55872_storage)":{"encoding":"mapping","key":"t_uint256","label":"mapping(uint256 => struct IUspdCollateralizedPositionNFT.Position)","numberOfBytes":"32","value":"t_struct(Position)55872_storage"},"t_struct(Position)55872_storage":{"encoding":"inplace","label":"struct IUspdCollateralizedPositionNFT.Position","numberOfBytes":"64","members":[{"astId":55869,"contract":"src/UspdCollateralizedPositionNFT.sol:UspdCollateralizedPositionNFT","label":"allocatedEth","offset":0,"slot":"0","type":"t_uint256"},{"astId":55871,"contract":"src/UspdCollateralizedPositionNFT.sol:UspdCollateralizedPositionNFT","label":"backedUspd","offset":0,"slot":"1","type":"t_uint256"}]},"t_uint256":{"encoding":"inplace","label":"uint256","numberOfBytes":"32"}}},"id":75}