{"abi":[{"type":"constructor","inputs":[],"stateMutability":"nonpayable"},{"type":"function","name":"DEFAULT_ADMIN_ROLE","inputs":[],"outputs":[{"name":"","type":"bytes32","internalType":"bytes32"}],"stateMutability":"view"},{"type":"function","name":"MINTER_ROLE","inputs":[],"outputs":[{"name":"","type":"bytes32","internalType":"bytes32"}],"stateMutability":"view"},{"type":"function","name":"MODIFYALLOCATION_ROLE","inputs":[],"outputs":[{"name":"","type":"bytes32","internalType":"bytes32"}],"stateMutability":"view"},{"type":"function","name":"STABILIZER_NFT_ROLE","inputs":[],"outputs":[{"name":"","type":"bytes32","internalType":"bytes32"}],"stateMutability":"view"},{"type":"function","name":"addCollateral","inputs":[{"name":"tokenId","type":"uint256","internalType":"uint256"}],"outputs":[],"stateMutability":"payable"},{"type":"function","name":"addCollateralFromStabilizer","inputs":[{"name":"tokenId","type":"uint256","internalType":"uint256"},{"name":"escrowAddress","type":"address","internalType":"address"},{"name":"stabilizerStEthAmount","type":"uint256","internalType":"uint256"}],"outputs":[],"stateMutability":"payable"},{"type":"function","name":"addStabilizerCollateral","inputs":[{"name":"tokenId","type":"uint256","internalType":"uint256"}],"outputs":[],"stateMutability":"payable"},{"type":"function","name":"approve","inputs":[{"name":"to","type":"address","internalType":"address"},{"name":"tokenId","type":"uint256","internalType":"uint256"}],"outputs":[],"stateMutability":"nonpayable"},{"type":"function","name":"balanceOf","inputs":[{"name":"owner","type":"address","internalType":"address"}],"outputs":[{"name":"","type":"uint256","internalType":"uint256"}],"stateMutability":"view"},{"type":"function","name":"burn","inputs":[{"name":"tokenId","type":"uint256","internalType":"uint256"}],"outputs":[],"stateMutability":"nonpayable"},{"type":"function","name":"getApproved","inputs":[{"name":"tokenId","type":"uint256","internalType":"uint256"}],"outputs":[{"name":"","type":"address","internalType":"address"}],"stateMutability":"view"},{"type":"function","name":"getCollateralizationRatio","inputs":[{"name":"tokenId","type":"uint256","internalType":"uint256"},{"name":"ethUsdPrice","type":"uint256","internalType":"uint256"},{"name":"priceDecimals","type":"uint8","internalType":"uint8"}],"outputs":[{"name":"","type":"uint256","internalType":"uint256"}],"stateMutability":"view"},{"type":"function","name":"getPosition","inputs":[{"name":"tokenId","type":"uint256","internalType":"uint256"}],"outputs":[{"name":"","type":"tuple","internalType":"struct IUspdCollateralizedPositionNFT.Position","components":[{"name":"allocatedEth","type":"uint256","internalType":"uint256"},{"name":"backedPoolShares","type":"uint256","internalType":"uint256"}]}],"stateMutability":"view"},{"type":"function","name":"getRoleAdmin","inputs":[{"name":"role","type":"bytes32","internalType":"bytes32"}],"outputs":[{"name":"","type":"bytes32","internalType":"bytes32"}],"stateMutability":"view"},{"type":"function","name":"getTokenByOwner","inputs":[{"name":"owner","type":"address","internalType":"address"}],"outputs":[{"name":"","type":"uint256","internalType":"uint256"}],"stateMutability":"view"},{"type":"function","name":"grantRole","inputs":[{"name":"role","type":"bytes32","internalType":"bytes32"},{"name":"account","type":"address","internalType":"address"}],"outputs":[],"stateMutability":"nonpayable"},{"type":"function","name":"hasRole","inputs":[{"name":"role","type":"bytes32","internalType":"bytes32"},{"name":"account","type":"address","internalType":"address"}],"outputs":[{"name":"","type":"bool","internalType":"bool"}],"stateMutability":"view"},{"type":"function","name":"initialize","inputs":[{"name":"_oracleAddress","type":"address","internalType":"address"},{"name":"_stETHAddress","type":"address","internalType":"address"},{"name":"_lidoAddress","type":"address","internalType":"address"},{"name":"_rateContractAddress","type":"address","internalType":"address"},{"name":"_stabilizerNFTAddress","type":"address","internalType":"address"},{"name":"_admin","type":"address","internalType":"address"}],"outputs":[],"stateMutability":"nonpayable"},{"type":"function","name":"isApprovedForAll","inputs":[{"name":"owner","type":"address","internalType":"address"},{"name":"operator","type":"address","internalType":"address"}],"outputs":[{"name":"","type":"bool","internalType":"bool"}],"stateMutability":"view"},{"type":"function","name":"lido","inputs":[],"outputs":[{"name":"","type":"address","internalType":"contract ILido"}],"stateMutability":"view"},{"type":"function","name":"mint","inputs":[{"name":"to","type":"address","internalType":"address"}],"outputs":[{"name":"","type":"uint256","internalType":"uint256"}],"stateMutability":"nonpayable"},{"type":"function","name":"modifyAllocation","inputs":[{"name":"tokenId","type":"uint256","internalType":"uint256"},{"name":"newBackedPoolShares","type":"uint256","internalType":"uint256"}],"outputs":[],"stateMutability":"nonpayable"},{"type":"function","name":"name","inputs":[],"outputs":[{"name":"","type":"string","internalType":"string"}],"stateMutability":"view"},{"type":"function","name":"oracle","inputs":[],"outputs":[{"name":"","type":"address","internalType":"contract PriceOracle"}],"stateMutability":"view"},{"type":"function","name":"ownerOf","inputs":[{"name":"tokenId","type":"uint256","internalType":"uint256"}],"outputs":[{"name":"","type":"address","internalType":"address"}],"stateMutability":"view"},{"type":"function","name":"rateContract","inputs":[],"outputs":[{"name":"","type":"address","internalType":"contract IPoolSharesConversionRate"}],"stateMutability":"view"},{"type":"function","name":"removeCollateral","inputs":[{"name":"tokenId","type":"uint256","internalType":"uint256"},{"name":"to","type":"address","internalType":"address payable"},{"name":"amount","type":"uint256","internalType":"uint256"},{"name":"priceResponse","type":"tuple","internalType":"struct IPriceOracle.PriceResponse","components":[{"name":"price","type":"uint256","internalType":"uint256"},{"name":"decimals","type":"uint8","internalType":"uint8"},{"name":"timestamp","type":"uint256","internalType":"uint256"}]}],"outputs":[],"stateMutability":"nonpayable"},{"type":"function","name":"removeExcessCollateral","inputs":[{"name":"tokenId","type":"uint256","internalType":"uint256"},{"name":"stEthAmountToRemove","type":"uint256","internalType":"uint256"},{"name":"priceResponse","type":"tuple","internalType":"struct IPriceOracle.PriceResponse","components":[{"name":"price","type":"uint256","internalType":"uint256"},{"name":"decimals","type":"uint8","internalType":"uint8"},{"name":"timestamp","type":"uint256","internalType":"uint256"}]}],"outputs":[],"stateMutability":"nonpayable"},{"type":"function","name":"removeExcessStabilizerCollateral","inputs":[{"name":"tokenId","type":"uint256","internalType":"uint256"},{"name":"stEthAmountToRemove","type":"uint256","internalType":"uint256"},{"name":"priceResponse","type":"tuple","internalType":"struct IPriceOracle.PriceResponse","components":[{"name":"price","type":"uint256","internalType":"uint256"},{"name":"decimals","type":"uint8","internalType":"uint8"},{"name":"timestamp","type":"uint256","internalType":"uint256"}]}],"outputs":[],"stateMutability":"nonpayable"},{"type":"function","name":"renounceRole","inputs":[{"name":"role","type":"bytes32","internalType":"bytes32"},{"name":"callerConfirmation","type":"address","internalType":"address"}],"outputs":[],"stateMutability":"nonpayable"},{"type":"function","name":"revokeRole","inputs":[{"name":"role","type":"bytes32","internalType":"bytes32"},{"name":"account","type":"address","internalType":"address"}],"outputs":[],"stateMutability":"nonpayable"},{"type":"function","name":"safeTransferFrom","inputs":[{"name":"from","type":"address","internalType":"address"},{"name":"to","type":"address","internalType":"address"},{"name":"tokenId","type":"uint256","internalType":"uint256"}],"outputs":[],"stateMutability":"nonpayable"},{"type":"function","name":"safeTransferFrom","inputs":[{"name":"from","type":"address","internalType":"address"},{"name":"to","type":"address","internalType":"address"},{"name":"tokenId","type":"uint256","internalType":"uint256"},{"name":"data","type":"bytes","internalType":"bytes"}],"outputs":[],"stateMutability":"nonpayable"},{"type":"function","name":"setApprovalForAll","inputs":[{"name":"operator","type":"address","internalType":"address"},{"name":"approved","type":"bool","internalType":"bool"}],"outputs":[],"stateMutability":"nonpayable"},{"type":"function","name":"stETH","inputs":[],"outputs":[{"name":"","type":"address","internalType":"contract IERC20"}],"stateMutability":"view"},{"type":"function","name":"stabilizerNFTContract","inputs":[],"outputs":[{"name":"","type":"address","internalType":"address"}],"stateMutability":"view"},{"type":"function","name":"supportsInterface","inputs":[{"name":"interfaceId","type":"bytes4","internalType":"bytes4"}],"outputs":[{"name":"","type":"bool","internalType":"bool"}],"stateMutability":"view"},{"type":"function","name":"symbol","inputs":[],"outputs":[{"name":"","type":"string","internalType":"string"}],"stateMutability":"view"},{"type":"function","name":"tokenURI","inputs":[{"name":"tokenId","type":"uint256","internalType":"uint256"}],"outputs":[{"name":"","type":"string","internalType":"string"}],"stateMutability":"view"},{"type":"function","name":"transferCollateral","inputs":[{"name":"tokenId","type":"uint256","internalType":"uint256"},{"name":"to","type":"address","internalType":"address payable"},{"name":"amount","type":"uint256","internalType":"uint256"},{"name":"priceQuery","type":"tuple","internalType":"struct IPriceOracle.PriceAttestationQuery","components":[{"name":"price","type":"uint256","internalType":"uint256"},{"name":"decimals","type":"uint8","internalType":"uint8"},{"name":"dataTimestamp","type":"uint256","internalType":"uint256"},{"name":"assetPair","type":"bytes32","internalType":"bytes32"},{"name":"signature","type":"bytes","internalType":"bytes"}]}],"outputs":[],"stateMutability":"nonpayable"},{"type":"function","name":"transferFrom","inputs":[{"name":"from","type":"address","internalType":"address"},{"name":"to","type":"address","internalType":"address"},{"name":"tokenId","type":"uint256","internalType":"uint256"}],"outputs":[],"stateMutability":"nonpayable"},{"type":"event","name":"Approval","inputs":[{"name":"owner","type":"address","indexed":true,"internalType":"address"},{"name":"approved","type":"address","indexed":true,"internalType":"address"},{"name":"tokenId","type":"uint256","indexed":true,"internalType":"uint256"}],"anonymous":false},{"type":"event","name":"ApprovalForAll","inputs":[{"name":"owner","type":"address","indexed":true,"internalType":"address"},{"name":"operator","type":"address","indexed":true,"internalType":"address"},{"name":"approved","type":"bool","indexed":false,"internalType":"bool"}],"anonymous":false},{"type":"event","name":"CollateralAdded","inputs":[{"name":"tokenId","type":"uint256","indexed":true,"internalType":"uint256"},{"name":"userStEthAmount","type":"uint256","indexed":false,"internalType":"uint256"},{"name":"stabilizerStEthAmount","type":"uint256","indexed":false,"internalType":"uint256"}],"anonymous":false},{"type":"event","name":"Initialized","inputs":[{"name":"version","type":"uint64","indexed":false,"internalType":"uint64"}],"anonymous":false},{"type":"event","name":"PositionBurned","inputs":[{"name":"tokenId","type":"uint256","indexed":true,"internalType":"uint256"},{"name":"owner","type":"address","indexed":true,"internalType":"address"},{"name":"allocatedEth","type":"uint256","indexed":false,"internalType":"uint256"},{"name":"backedPoolShares","type":"uint256","indexed":false,"internalType":"uint256"}],"anonymous":false},{"type":"event","name":"PositionCreated","inputs":[{"name":"tokenId","type":"uint256","indexed":true,"internalType":"uint256"},{"name":"owner","type":"address","indexed":true,"internalType":"address"},{"name":"allocatedEth","type":"uint256","indexed":false,"internalType":"uint256"},{"name":"backedPoolShares","type":"uint256","indexed":false,"internalType":"uint256"}],"anonymous":false},{"type":"event","name":"RoleAdminChanged","inputs":[{"name":"role","type":"bytes32","indexed":true,"internalType":"bytes32"},{"name":"previousAdminRole","type":"bytes32","indexed":true,"internalType":"bytes32"},{"name":"newAdminRole","type":"bytes32","indexed":true,"internalType":"bytes32"}],"anonymous":false},{"type":"event","name":"RoleGranted","inputs":[{"name":"role","type":"bytes32","indexed":true,"internalType":"bytes32"},{"name":"account","type":"address","indexed":true,"internalType":"address"},{"name":"sender","type":"address","indexed":true,"internalType":"address"}],"anonymous":false},{"type":"event","name":"RoleRevoked","inputs":[{"name":"role","type":"bytes32","indexed":true,"internalType":"bytes32"},{"name":"account","type":"address","indexed":true,"internalType":"address"},{"name":"sender","type":"address","indexed":true,"internalType":"address"}],"anonymous":false},{"type":"event","name":"Transfer","inputs":[{"name":"from","type":"address","indexed":true,"internalType":"address"},{"name":"to","type":"address","indexed":true,"internalType":"address"},{"name":"tokenId","type":"uint256","indexed":true,"internalType":"uint256"}],"anonymous":false},{"type":"error","name":"AccessControlBadConfirmation","inputs":[]},{"type":"error","name":"AccessControlUnauthorizedAccount","inputs":[{"name":"account","type":"address","internalType":"address"},{"name":"neededRole","type":"bytes32","internalType":"bytes32"}]},{"type":"error","name":"BelowMinimumRatio","inputs":[]},{"type":"error","name":"ERC721IncorrectOwner","inputs":[{"name":"sender","type":"address","internalType":"address"},{"name":"tokenId","type":"uint256","internalType":"uint256"},{"name":"owner","type":"address","internalType":"address"}]},{"type":"error","name":"ERC721InsufficientApproval","inputs":[{"name":"operator","type":"address","internalType":"address"},{"name":"tokenId","type":"uint256","internalType":"uint256"}]},{"type":"error","name":"ERC721InvalidApprover","inputs":[{"name":"approver","type":"address","internalType":"address"}]},{"type":"error","name":"ERC721InvalidOperator","inputs":[{"name":"operator","type":"address","internalType":"address"}]},{"type":"error","name":"ERC721InvalidOwner","inputs":[{"name":"owner","type":"address","internalType":"address"}]},{"type":"error","name":"ERC721InvalidReceiver","inputs":[{"name":"receiver","type":"address","internalType":"address"}]},{"type":"error","name":"ERC721InvalidSender","inputs":[{"name":"sender","type":"address","internalType":"address"}]},{"type":"error","name":"ERC721NonexistentToken","inputs":[{"name":"tokenId","type":"uint256","internalType":"uint256"}]},{"type":"error","name":"InsufficientCollateral","inputs":[]},{"type":"error","name":"InvalidAmount","inputs":[]},{"type":"error","name":"InvalidInitialization","inputs":[]},{"type":"error","name":"NotImplemented","inputs":[]},{"type":"error","name":"NotInitializing","inputs":[]},{"type":"error","name":"NotOwner","inputs":[]},{"type":"error","name":"TransferFailed","inputs":[]},{"type":"error","name":"ZeroAddress","inputs":[]},{"type":"error","name":"ZeroLiability","inputs":[]}],"bytecode":{"object":"0x6080604052348015600e575f80fd5b5060156019565b60c9565b7ff0c57e16840df040f15088dc2f81fe391c3923bec73e23a9662efc9c229c6a00805468010000000000000000900460ff161560685760405163f92ee8a960e01b815260040160405180910390fd5b80546001600160401b039081161460c65780546001600160401b0319166001600160401b0390811782556040519081527fc7f505b2f371ae2175ee4913f4499e1f2633a7b5936321eed1cdaeb6115181d29060200160405180910390a15b50565b614075806100d65f395ff3fe6080604052600436106102b6575f3560e01c806391d1485411610170578063c0579f2b116100d1578063d539139311610087578063e985e9c511610062578063e985e9c514610870578063eb02c301146108e3578063eee2421914610954575f80fd5b8063d5391393146107eb578063d547741f1461081e578063e7830b4a1461083d575f80fd5b8063c28f9a4c116100b7578063c28f9a4c1461077a578063c87b56dd146107ad578063cc2a9a5b146107cc575f80fd5b8063c0579f2b1461072f578063c1fe3e481461074e575f80fd5b8063ab50355e11610126578063bbc108091161010c578063bbc10809146106d1578063bcc46e83146106f0578063bec070d614610703575f80fd5b8063ab50355e14610693578063b88d4fde146106b2575f80fd5b8063979904ed11610156578063979904ed1461064e578063a217fddf14610661578063a22cb46514610674575f80fd5b806391d14854146105ca57806395d89b411461063a575f80fd5b8063341c49af1161021a5780636520ace5116101d057806370a08231116101b657806370a08231146105725780637dc0d1d01461059157806391ad2d82146105bc575f80fd5b80636520ace5146105345780636a62784214610553575f80fd5b806342842e0e1161020057806342842e0e146104d757806342966c68146104f65780636352211e14610515575f80fd5b8063341c49af1461049957806336568abe146104b8575f80fd5b806323b872dd1161026f57806325de1be81161025557806325de1be81461041a5780632bf79c94146104395780632f2ff15d1461047a575f80fd5b806323b872dd146103a0578063248a9ca3146103bf575f80fd5b8063081812fc1161029f578063081812fc1461030f578063095ea7b31461035357806323509a2d14610374575f80fd5b806301ffc9a7146102ba57806306fdde03146102ee575b5f80fd5b3480156102c5575f80fd5b506102d96102d436600461360e565b610980565b60405190151581526020015b60405180910390f35b3480156102f9575f80fd5b50610302610990565b6040516102e59190613675565b34801561031a575f80fd5b5061032e610329366004613687565b610a44565b60405173ffffffffffffffffffffffffffffffffffffffff90911681526020016102e5565b34801561035e575f80fd5b5061037261036d3660046136bf565b610a97565b005b34801561037f575f80fd5b5060025461032e9073ffffffffffffffffffffffffffffffffffffffff1681565b3480156103ab575f80fd5b506103726103ba3660046136e9565b610aa6565b3480156103ca575f80fd5b5061040c6103d9366004613687565b5f9081527f02dd7bc7dec4dceedda775e58dd541e08a116c6c53815c0bd028192f7b626800602052604090206001015490565b6040519081526020016102e5565b348015610425575f80fd5b506103726104343660046137b8565b610b9a565b348015610444575f80fd5b5061040c610453366004613858565b73ffffffffffffffffffffffffffffffffffffffff165f9081526006602052604090205490565b348015610485575f80fd5b50610372610494366004613873565b610bfc565b3480156104a4575f80fd5b506103726104b33660046138a1565b610c3f565b3480156104c3575f80fd5b506103726104d2366004613873565b610d05565b3480156104e2575f80fd5b506103726104f13660046136e9565b610d63565b348015610501575f80fd5b50610372610510366004613687565b610d7d565b348015610520575f80fd5b5061032e61052f366004613687565b610f02565b34801561053f575f80fd5b5061037261054e3660046137b8565b610f0c565b34801561055e575f80fd5b5061040c61056d366004613858565b611301565b34801561057d575f80fd5b5061040c61058c366004613858565b611482565b34801561059c575f80fd5b505f5461032e9073ffffffffffffffffffffffffffffffffffffffff1681565b610372610434366004613687565b3480156105d5575f80fd5b506102d96105e4366004613873565b5f9182527f02dd7bc7dec4dceedda775e58dd541e08a116c6c53815c0bd028192f7b6268006020908152604080842073ffffffffffffffffffffffffffffffffffffffff93909316845291905290205460ff1690565b348015610645575f80fd5b50610302611520565b61037261065c3660046138c1565b611571565b34801561066c575f80fd5b5061040c5f81565b34801561067f575f80fd5b5061037261068e3660046138f2565b6119a2565b34801561069e575f80fd5b506103726106ad36600461391e565b6119ad565b3480156106bd575f80fd5b506103726106cc36600461398a565b611ed8565b3480156106dc575f80fd5b5061040c6106eb366004613a6a565b611ef0565b6103726106fe366004613687565b6120f7565b34801561070e575f80fd5b5060045461032e9073ffffffffffffffffffffffffffffffffffffffff1681565b34801561073a575f80fd5b50610372610749366004613a9c565b6121dc565b348015610759575f80fd5b5060015461032e9073ffffffffffffffffffffffffffffffffffffffff1681565b348015610785575f80fd5b5061040c7f421e211e392de4e4ba4dae91b58f819a3568f08b7d7c871b2d07f27efda44fbb81565b3480156107b8575f80fd5b506103026107c7366004613687565b61220e565b3480156107d7575f80fd5b506103726107e6366004613aff565b61227e565b3480156107f6575f80fd5b5061040c7f9f2df0fed2c77648de5860a4cc508cd0818c85b8b8a1ab4ceeef8d981c8956a681565b348015610829575f80fd5b50610372610838366004613873565b6124e6565b348015610848575f80fd5b5061040c7f2fdb5f48630a6f9eb0d7702da69151aaac47ccfd65cf560e0ee50d90efcf3d9781565b34801561087b575f80fd5b506102d961088a366004613b7d565b73ffffffffffffffffffffffffffffffffffffffff9182165f9081527f80bb2b638cc20bc4d0a60d66940f3ab4a00c1d7b313497ca82fb0b4ab00793056020908152604080832093909416825291909152205460ff1690565b3480156108ee575f80fd5b506109396108fd366004613687565b604080518082019091525f8082526020820152505f90815260056020908152604091829020825180840190935280548352600101549082015290565b604080518251815260209283015192810192909252016102e5565b34801561095f575f80fd5b5060035461032e9073ffffffffffffffffffffffffffffffffffffffff1681565b5f61098a82612529565b92915050565b7f80bb2b638cc20bc4d0a60d66940f3ab4a00c1d7b313497ca82fb0b4ab007930080546060919081906109c290613ba9565b80601f01602080910402602001604051908101604052809291908181526020018280546109ee90613ba9565b8015610a395780601f10610a1057610100808354040283529160200191610a39565b820191905f5260205f20905b815481529060010190602001808311610a1c57829003601f168201915b505050505091505090565b5f610a4e8261257e565b505f8281527f80bb2b638cc20bc4d0a60d66940f3ab4a00c1d7b313497ca82fb0b4ab0079304602052604090205473ffffffffffffffffffffffffffffffffffffffff1661098a565b610aa28282336125fb565b5050565b73ffffffffffffffffffffffffffffffffffffffff8216610afa576040517f64a0ae920000000000000000000000000000000000000000000000000000000081525f60048201526024015b60405180910390fd5b5f610b06838333612608565b90508373ffffffffffffffffffffffffffffffffffffffff168173ffffffffffffffffffffffffffffffffffffffff1614610b94576040517f64283d7b00000000000000000000000000000000000000000000000000000000815273ffffffffffffffffffffffffffffffffffffffff80861660048301526024820184905282166044820152606401610af1565b50505050565b6040517f08c379a000000000000000000000000000000000000000000000000000000000815260206004820152600f60248201527f4e6f7420696d706c656d656e74656400000000000000000000000000000000006044820152606401610af1565b5f8281527f02dd7bc7dec4dceedda775e58dd541e08a116c6c53815c0bd028192f7b6268006020526040902060010154610c35816127c7565b610b9483836127d4565b7f2fdb5f48630a6f9eb0d7702da69151aaac47ccfd65cf560e0ee50d90efcf3d97610c69816127c7565b5f610c7384610f02565b73ffffffffffffffffffffffffffffffffffffffff1603610cf0576040517f08c379a000000000000000000000000000000000000000000000000000000000815260206004820152601760248201527f506f736974696f6e20646f6573206e6f742065786973740000000000000000006044820152606401610af1565b505f9182526005602052604090912060010155565b73ffffffffffffffffffffffffffffffffffffffff81163314610d54576040517f6697b23200000000000000000000000000000000000000000000000000000000815260040160405180910390fd5b610d5e82826128f2565b505050565b610d5e83838360405180602001604052805f815250611ed8565b5f610d8782610f02565b905073ffffffffffffffffffffffffffffffffffffffff81163314610dd8576040517f30cd747100000000000000000000000000000000000000000000000000000000815260040160405180910390fd5b5f828152600560205260409020805415610e1e576040517f3a23d82500000000000000000000000000000000000000000000000000000000815260040160405180910390fd5b600181015415610e5a576040517fa0226f9d00000000000000000000000000000000000000000000000000000000815260040160405180910390fd5b80546001808301545f86815260056020908152604080832083815590940182905573ffffffffffffffffffffffffffffffffffffffff871682526006905291822091909155610ea8856129ce565b604080518381526020810183905273ffffffffffffffffffffffffffffffffffffffff86169187917ffb233a30394c607c1ae6377e8d607fba7cc732b658f41a2c9e48f0a46b8a38fb910160405180910390a35050505050565b5f61098a8261257e565b33610f1684610f02565b73ffffffffffffffffffffffffffffffffffffffff1614610f63576040517f30cd747100000000000000000000000000000000000000000000000000000000815260040160405180910390fd5b5f83815260056020526040812090839003610faa576040517f2c5211c600000000000000000000000000000000000000000000000000000000815260040160405180910390fd5b8054831115610fe5576040517f3a23d82500000000000000000000000000000000000000000000000000000000815260040160405180910390fd5b6001810154156112125780545f90610ffe908590613c21565b90505f60035f9054906101000a900473ffffffffffffffffffffffffffffffffffffffff1673ffffffffffffffffffffffffffffffffffffffff1663efa7fa5d6040518163ffffffff1660e01b8152600401602060405180830381865afa15801561106b573d5f803e3d5ffd5b505050506040513d601f19601f8201168201806040525081019061108f9190613c34565b90505f60035f9054906101000a900473ffffffffffffffffffffffffffffffffffffffff1673ffffffffffffffffffffffffffffffffffffffff1663a42c69a96040518163ffffffff1660e01b8152600401602060405180830381865afa1580156110fc573d5f803e3d5ffd5b505050506040513d601f19601f820116820180604052508101906111209190613c34565b8285600101546111309190613c4b565b61113a9190613c62565b9050805f03611175576040517fa0226f9d00000000000000000000000000000000000000000000000000000000815260040160405180910390fd5b5f856020015160ff16600a61118a9190613dbb565b86516111969086613c4b565b6111a09190613c62565b90505f6111b582670de0b6b3a7640000613c4b565b90505f836111c4836064613c4b565b6111ce9190613c62565b9050606e81101561120b576040517f133804c300000000000000000000000000000000000000000000000000000000815260040160405180910390fd5b5050505050505b82815f015f8282546112249190613c21565b90915550506001546040517fa9059cbb000000000000000000000000000000000000000000000000000000008152336004820152602481018590525f9173ffffffffffffffffffffffffffffffffffffffff169063a9059cbb906044016020604051808303815f875af115801561129d573d5f803e3d5ffd5b505050506040513d601f19601f820116820180604052508101906112c19190613dc6565b9050806112fa576040517f90b8ec1800000000000000000000000000000000000000000000000000000000815260040160405180910390fd5b5050505050565b5f7f9f2df0fed2c77648de5860a4cc508cd0818c85b8b8a1ab4ceeef8d981c8956a661132c816127c7565b73ffffffffffffffffffffffffffffffffffffffff83165f90815260066020526040902054156113b8576040517f08c379a000000000000000000000000000000000000000000000000000000000815260206004820152601c60248201527f4f776e657220616c726561647920686173206120706f736974696f6e000000006044820152606401610af1565b600780545f91826113c883613de1565b909155506040805180820182525f808252602080830182815285835260058252848320935184555160019093019290925573ffffffffffffffffffffffffffffffffffffffff8816815260069091522081905590506114278482612a2c565b604080515f808252602082015273ffffffffffffffffffffffffffffffffffffffff86169183917ffb617c13a5b4b052ee893903dca019ab1611dfef1b20f7acb7a5bfe008c10260910160405180910390a391505b50919050565b5f7f80bb2b638cc20bc4d0a60d66940f3ab4a00c1d7b313497ca82fb0b4ab007930073ffffffffffffffffffffffffffffffffffffffff83166114f3576040517f89c62b640000000000000000000000000000000000000000000000000000000081525f6004820152602401610af1565b73ffffffffffffffffffffffffffffffffffffffff9092165f908152600390920160205250604090205490565b7f80bb2b638cc20bc4d0a60d66940f3ab4a00c1d7b313497ca82fb0b4ab007930180546060917f80bb2b638cc20bc4d0a60d66940f3ab4a00c1d7b313497ca82fb0b4ab0079300916109c290613ba9565b60045473ffffffffffffffffffffffffffffffffffffffff1633146115f2576040517f08c379a000000000000000000000000000000000000000000000000000000000815260206004820152601b60248201527f43616c6c6572206973206e6f742053746162696c697a65724e465400000000006044820152606401610af1565b5f6115fc84610f02565b73ffffffffffffffffffffffffffffffffffffffff1603611679576040517f08c379a000000000000000000000000000000000000000000000000000000000815260206004820152601760248201527f506f736974696f6e20646f6573206e6f742065786973740000000000000000006044820152606401610af1565b345f036116b2576040517f2c5211c600000000000000000000000000000000000000000000000000000000815260040160405180910390fd5b805f036116eb576040517f2c5211c600000000000000000000000000000000000000000000000000000000815260040160405180910390fd5b73ffffffffffffffffffffffffffffffffffffffff8216611738576040517fd92e233d00000000000000000000000000000000000000000000000000000000815260040160405180910390fd5b5f8381526005602052604080822060025491517fa1903eab0000000000000000000000000000000000000000000000000000000081526004810184905290929173ffffffffffffffffffffffffffffffffffffffff169063a1903eab90349060240160206040518083038185885af1935050505080156117f3575060408051601f3d9081017fffffffffffffffffffffffffffffffffffffffffffffffffffffffffffffffe01682019092526117f091810190613c34565b60015b611829576040517f90b8ec1800000000000000000000000000000000000000000000000000000000815260040160405180910390fd5b809150815f03611865576040517f90b8ec1800000000000000000000000000000000000000000000000000000000815260040160405180910390fd5b506001546040517f23b872dd00000000000000000000000000000000000000000000000000000000815273ffffffffffffffffffffffffffffffffffffffff8681166004830152306024830152604482018690525f9216906323b872dd906064016020604051808303815f875af11580156118e2573d5f803e3d5ffd5b505050506040513d601f19601f820116820180604052508101906119069190613dc6565b90508061193f576040517f90b8ec1800000000000000000000000000000000000000000000000000000000815260040160405180910390fd5b6119498483613e18565b835f015f82825461195a9190613e18565b9091555050604080518381526020810186905287917fb9d5a5f4ec489515b8d5b5b9a744b60dad1159407c4d9be679dd89ac29355152910160405180910390a2505050505050565b610aa2338383612a45565b7f421e211e392de4e4ba4dae91b58f819a3568f08b7d7c871b2d07f27efda44fbb6119d7816127c7565b5f6119e186610f02565b73ffffffffffffffffffffffffffffffffffffffff1603611a5e576040517f08c379a000000000000000000000000000000000000000000000000000000000815260206004820152601760248201527f506f736974696f6e20646f6573206e6f742065786973740000000000000000006044820152606401610af1565b5f85815260056020526040812090849003611aa5576040517f2c5211c600000000000000000000000000000000000000000000000000000000815260040160405180910390fd5b600354604080517fa42c69a900000000000000000000000000000000000000000000000000000000815290515f9273ffffffffffffffffffffffffffffffffffffffff169163a42c69a99160048083019260209291908290030181865afa158015611b12573d5f803e3d5ffd5b505050506040513d601f19601f82011682018060405250810190611b369190613c34565b60035f9054906101000a900473ffffffffffffffffffffffffffffffffffffffff1673ffffffffffffffffffffffffffffffffffffffff1663efa7fa5d6040518163ffffffff1660e01b8152600401602060405180830381865afa158015611ba0573d5f803e3d5ffd5b505050506040513d601f19601f82011682018060405250810190611bc49190613c34565b8360010154611bd39190613c4b565b611bdd9190613c62565b90505f611bf06040860160208701613e2b565b611bfe9060ff16600a613dbb565b8354611c0c90873590613c4b565b611c169190613c62565b90505f82611c2c83670de0b6b3a7640000613c4b565b611c37906064613c4b565b611c419190613c62565b90505f6064611c50838a613c4b565b611c5a9190613c62565b8554909150811115611c98576040517f3a23d82500000000000000000000000000000000000000000000000000000000815260040160405180910390fd5b5f88821115611cae57611cab8983613c21565b90505b81865f015f828254611cc09190613c21565b90915550506001546040517fa9059cbb00000000000000000000000000000000000000000000000000000000815273ffffffffffffffffffffffffffffffffffffffff8c81166004830152602482018c90529091169063a9059cbb906044016020604051808303815f875af1158015611d3b573d5f803e3d5ffd5b505050506040513d601f19601f82011682018060405250810190611d5f9190613dc6565b611dc5576040517f08c379a000000000000000000000000000000000000000000000000000000000815260206004820152601a60248201527f55736572207374455448207472616e73666572206661696c65640000000000006044820152606401610af1565b8015611ecb576001546040517fa9059cbb00000000000000000000000000000000000000000000000000000000815273ffffffffffffffffffffffffffffffffffffffff8c81166004830152602482018490529091169063a9059cbb906044016020604051808303815f875af1158015611e41573d5f803e3d5ffd5b505050506040513d601f19601f82011682018060405250810190611e659190613dc6565b611ecb576040517f08c379a000000000000000000000000000000000000000000000000000000000815260206004820181905260248201527f53746162696c697a6572207374455448207472616e73666572206661696c65646044820152606401610af1565b5050505050505050505050565b611ee3848484610aa6565b610b943385858585612b65565b5f83815260056020908152604080832081518083019092528054825260010154918101829052908203611f46577fffffffffffffffffffffffffffffffffffffffffffffffffffffffffffffffff9150506120f0565b80515f03611f57575f9150506120f0565b5f611f6660ff8516600a613dbb565b8251611f73908790613c4b565b611f7d9190613c62565b90505f60035f9054906101000a900473ffffffffffffffffffffffffffffffffffffffff1673ffffffffffffffffffffffffffffffffffffffff1663efa7fa5d6040518163ffffffff1660e01b8152600401602060405180830381865afa158015611fea573d5f803e3d5ffd5b505050506040513d601f19601f8201168201806040525081019061200e9190613c34565b90505f60035f9054906101000a900473ffffffffffffffffffffffffffffffffffffffff1673ffffffffffffffffffffffffffffffffffffffff1663a42c69a96040518163ffffffff1660e01b8152600401602060405180830381865afa15801561207b573d5f803e3d5ffd5b505050506040513d601f19601f8201168201806040525081019061209f9190613c34565b8285602001516120af9190613c4b565b6120b99190613c62565b90505f6120ce84670de0b6b3a7640000613c4b565b90505f826120dd836064613c4b565b6120e79190613c62565b96505050505050505b9392505050565b5f61210182610f02565b73ffffffffffffffffffffffffffffffffffffffff160361217e576040517f08c379a000000000000000000000000000000000000000000000000000000000815260206004820152601760248201527f506f736974696f6e20646f6573206e6f742065786973740000000000000000006044820152606401610af1565b345f036121b7576040517f2c5211c600000000000000000000000000000000000000000000000000000000815260040160405180910390fd5b5f81815260056020526040812080543492906121d4908490613e18565b909155505050565b6040517fd623472500000000000000000000000000000000000000000000000000000000815260040160405180910390fd5b60606122198261257e565b505f61222f60408051602081019091525f815290565b90505f81511161224d5760405180602001604052805f8152506120f0565b8061225784612d5a565b604051602001612268929190613e5b565b6040516020818303038152906040529392505050565b5f612287612e16565b805490915060ff68010000000000000000820416159067ffffffffffffffff165f811580156122b35750825b90505f8267ffffffffffffffff1660011480156122cf5750303b155b9050811580156122dd575080155b15612314576040517ff92ee8a900000000000000000000000000000000000000000000000000000000815260040160405180910390fd5b84547fffffffffffffffffffffffffffffffffffffffffffffffff000000000000000016600117855583156123755784547fffffffffffffffffffffffffffffffffffffffffffffff00ffffffffffffffff16680100000000000000001785555b6123e96040518060400160405280601c81526020017f5553504420436f6c6c61746572616c697a656420506f736974696f6e000000008152506040518060400160405280600781526020017f55535044504f5300000000000000000000000000000000000000000000000000815250612e3e565b6123f1612e50565b6123fb5f876127d4565b505f80547fffffffffffffffffffffffff000000000000000000000000000000000000000090811673ffffffffffffffffffffffffffffffffffffffff8e8116919091179092556001805482168d84161781556002805483168d85161790556003805483168c851617905560048054909216928a169290921790556007558315611ecb5784547fffffffffffffffffffffffffffffffffffffffffffffff00ffffffffffffffff168555604051600181527fc7f505b2f371ae2175ee4913f4499e1f2633a7b5936321eed1cdaeb6115181d29060200160405180910390a15050505050505050505050565b5f8281527f02dd7bc7dec4dceedda775e58dd541e08a116c6c53815c0bd028192f7b626800602052604090206001015461251f816127c7565b610b9483836128f2565b5f7fffffffff0000000000000000000000000000000000000000000000000000000082167f7965db0b00000000000000000000000000000000000000000000000000000000148061098a575061098a82612e5a565b5f8181527f80bb2b638cc20bc4d0a60d66940f3ab4a00c1d7b313497ca82fb0b4ab0079302602052604081205473ffffffffffffffffffffffffffffffffffffffff168061098a576040517f7e27328900000000000000000000000000000000000000000000000000000000815260048101849052602401610af1565b610d5e8383836001612f3c565b5f8281527f80bb2b638cc20bc4d0a60d66940f3ab4a00c1d7b313497ca82fb0b4ab007930260205260408120547f80bb2b638cc20bc4d0a60d66940f3ab4a00c1d7b313497ca82fb0b4ab00793009073ffffffffffffffffffffffffffffffffffffffff9081169084161561268257612682818587613145565b73ffffffffffffffffffffffffffffffffffffffff8116156126f7576126aa5f865f80612f3c565b73ffffffffffffffffffffffffffffffffffffffff81165f908152600383016020526040902080547fffffffffffffffffffffffffffffffffffffffffffffffffffffffffffffffff0190555b73ffffffffffffffffffffffffffffffffffffffff8616156127415773ffffffffffffffffffffffffffffffffffffffff86165f9081526003830160205260409020805460010190555b5f85815260028301602052604080822080547fffffffffffffffffffffffff00000000000000000000000000000000000000001673ffffffffffffffffffffffffffffffffffffffff8a811691821790925591518893918516917fddf252ad1be2c89b69c2b068fc378daa952ba7f163c4a11628f55a4df523b3ef91a495945050505050565b6127d181336131f5565b50565b5f8281527f02dd7bc7dec4dceedda775e58dd541e08a116c6c53815c0bd028192f7b6268006020818152604080842073ffffffffffffffffffffffffffffffffffffffff8616855290915282205460ff166128e9575f8481526020828152604080832073ffffffffffffffffffffffffffffffffffffffff87168452909152902080547fffffffffffffffffffffffffffffffffffffffffffffffffffffffffffffff001660011790556128853390565b73ffffffffffffffffffffffffffffffffffffffff168373ffffffffffffffffffffffffffffffffffffffff16857f2f8788117e7eff1d82e926ec794901d17c78024a50270940304540a733656f0d60405160405180910390a4600191505061098a565b5f91505061098a565b5f8281527f02dd7bc7dec4dceedda775e58dd541e08a116c6c53815c0bd028192f7b6268006020818152604080842073ffffffffffffffffffffffffffffffffffffffff8616855290915282205460ff16156128e9575f8481526020828152604080832073ffffffffffffffffffffffffffffffffffffffff8716808552925280832080547fffffffffffffffffffffffffffffffffffffffffffffffffffffffffffffff0016905551339287917ff6391f5c32d9c69d2a47ea670b442974b53935d1edc7fd64eb21e047a839171b9190a4600191505061098a565b5f6129da5f835f612608565b905073ffffffffffffffffffffffffffffffffffffffff8116610aa2576040517f7e27328900000000000000000000000000000000000000000000000000000000815260048101839052602401610af1565b610aa2828260405180602001604052805f81525061329b565b7f80bb2b638cc20bc4d0a60d66940f3ab4a00c1d7b313497ca82fb0b4ab007930073ffffffffffffffffffffffffffffffffffffffff8316612acb576040517f5b08ba1800000000000000000000000000000000000000000000000000000000815273ffffffffffffffffffffffffffffffffffffffff84166004820152602401610af1565b73ffffffffffffffffffffffffffffffffffffffff8481165f81815260058401602090815260408083209488168084529482529182902080547fffffffffffffffffffffffffffffffffffffffffffffffffffffffffffffff001687151590811790915591519182527f17307eab39ab6107e8899845ad3d59bd9653f200f220920489ca2b5937696c31910160405180910390a350505050565b73ffffffffffffffffffffffffffffffffffffffff83163b156112fa576040517f150b7a0200000000000000000000000000000000000000000000000000000000815273ffffffffffffffffffffffffffffffffffffffff84169063150b7a0290612bda908890889087908790600401613e6f565b6020604051808303815f875af1925050508015612c32575060408051601f3d9081017fffffffffffffffffffffffffffffffffffffffffffffffffffffffffffffffe0168201909252612c2f91810190613ec9565b60015b612cbf573d808015612c5f576040519150601f19603f3d011682016040523d82523d5f602084013e612c64565b606091505b5080515f03612cb7576040517f64a0ae9200000000000000000000000000000000000000000000000000000000815273ffffffffffffffffffffffffffffffffffffffff85166004820152602401610af1565b805181602001fd5b7fffffffff0000000000000000000000000000000000000000000000000000000081167f150b7a020000000000000000000000000000000000000000000000000000000014612d52576040517f64a0ae9200000000000000000000000000000000000000000000000000000000815273ffffffffffffffffffffffffffffffffffffffff85166004820152602401610af1565b505050505050565b60605f612d66836132b2565b60010190505f8167ffffffffffffffff811115612d8557612d85613727565b6040519080825280601f01601f191660200182016040528015612daf576020820181803683370190505b5090508181016020015b7fffffffffffffffffffffffffffffffffffffffffffffffffffffffffffffffff017f3031323334353637383961626364656600000000000000000000000000000000600a86061a8153600a8504945084612db957509392505050565b5f807ff0c57e16840df040f15088dc2f81fe391c3923bec73e23a9662efc9c229c6a0061098a565b612e46613393565b610aa282826133d1565b612e58613393565b565b5f7fffffffff0000000000000000000000000000000000000000000000000000000082167f80ac58cd000000000000000000000000000000000000000000000000000000001480612eec57507fffffffff0000000000000000000000000000000000000000000000000000000082167f5b5e139f00000000000000000000000000000000000000000000000000000000145b8061098a57507f01ffc9a7000000000000000000000000000000000000000000000000000000007fffffffff0000000000000000000000000000000000000000000000000000000083161461098a565b7f80bb2b638cc20bc4d0a60d66940f3ab4a00c1d7b313497ca82fb0b4ab00793008180612f7e575073ffffffffffffffffffffffffffffffffffffffff831615155b156130f0575f612f8d8561257e565b905073ffffffffffffffffffffffffffffffffffffffff841615801590612fe057508373ffffffffffffffffffffffffffffffffffffffff168173ffffffffffffffffffffffffffffffffffffffff1614155b801561303d575073ffffffffffffffffffffffffffffffffffffffff8082165f9081527f80bb2b638cc20bc4d0a60d66940f3ab4a00c1d7b313497ca82fb0b4ab0079305602090815260408083209388168352929052205460ff16155b1561308c576040517fa9fbf51f00000000000000000000000000000000000000000000000000000000815273ffffffffffffffffffffffffffffffffffffffff85166004820152602401610af1565b82156130ee57848673ffffffffffffffffffffffffffffffffffffffff168273ffffffffffffffffffffffffffffffffffffffff167f8c5be1e5ebec7d5bd14f71427d1e84f3dd0314c0f7b2291e5b200ac8c7c3b92560405160405180910390a45b505b5f93845260040160205250506040902080547fffffffffffffffffffffffff00000000000000000000000000000000000000001673ffffffffffffffffffffffffffffffffffffffff92909216919091179055565b613150838383613414565b610d5e5773ffffffffffffffffffffffffffffffffffffffff83166131a4576040517f7e27328900000000000000000000000000000000000000000000000000000000815260048101829052602401610af1565b6040517f177e802f00000000000000000000000000000000000000000000000000000000815273ffffffffffffffffffffffffffffffffffffffff8316600482015260248101829052604401610af1565b5f8281527f02dd7bc7dec4dceedda775e58dd541e08a116c6c53815c0bd028192f7b6268006020908152604080832073ffffffffffffffffffffffffffffffffffffffff8516845290915290205460ff16610aa2576040517fe2517d3f00000000000000000000000000000000000000000000000000000000815273ffffffffffffffffffffffffffffffffffffffff8216600482015260248101839052604401610af1565b6132a58383613516565b610d5e335f858585612b65565b5f807a184f03e93ff9f4daa797ed6e38ed64bf6a1f01000000000000000083106132fa577a184f03e93ff9f4daa797ed6e38ed64bf6a1f010000000000000000830492506040015b6d04ee2d6d415b85acef81000000008310613326576d04ee2d6d415b85acef8100000000830492506020015b662386f26fc10000831061334457662386f26fc10000830492506010015b6305f5e100831061335c576305f5e100830492506008015b612710831061337057612710830492506004015b60648310613382576064830492506002015b600a831061098a5760010192915050565b61339b6135c3565b612e58576040517fd7e6bcf800000000000000000000000000000000000000000000000000000000815260040160405180910390fd5b6133d9613393565b7f80bb2b638cc20bc4d0a60d66940f3ab4a00c1d7b313497ca82fb0b4ab0079300806134058482613f28565b5060018101610b948382613f28565b5f73ffffffffffffffffffffffffffffffffffffffff83161580159061350e57508273ffffffffffffffffffffffffffffffffffffffff168473ffffffffffffffffffffffffffffffffffffffff1614806134bf575073ffffffffffffffffffffffffffffffffffffffff8085165f9081527f80bb2b638cc20bc4d0a60d66940f3ab4a00c1d7b313497ca82fb0b4ab0079305602090815260408083209387168352929052205460ff165b8061350e57505f8281527f80bb2b638cc20bc4d0a60d66940f3ab4a00c1d7b313497ca82fb0b4ab0079304602052604090205473ffffffffffffffffffffffffffffffffffffffff8481169116145b949350505050565b73ffffffffffffffffffffffffffffffffffffffff8216613565576040517f64a0ae920000000000000000000000000000000000000000000000000000000081525f6004820152602401610af1565b5f61357183835f612608565b905073ffffffffffffffffffffffffffffffffffffffff811615610d5e576040517f73c6ac6e0000000000000000000000000000000000000000000000000000000081525f6004820152602401610af1565b5f6135cc612e16565b5468010000000000000000900460ff16919050565b7fffffffff00000000000000000000000000000000000000000000000000000000811681146127d1575f80fd5b5f6020828403121561361e575f80fd5b81356120f0816135e1565b5f81518084528060208401602086015e5f6020828601015260207fffffffffffffffffffffffffffffffffffffffffffffffffffffffffffffffe0601f83011685010191505092915050565b602081525f6120f06020830184613629565b5f60208284031215613697575f80fd5b5035919050565b73ffffffffffffffffffffffffffffffffffffffff811681146127d1575f80fd5b5f80604083850312156136d0575f80fd5b82356136db8161369e565b946020939093013593505050565b5f805f606084860312156136fb575f80fd5b83356137068161369e565b925060208401356137168161369e565b929592945050506040919091013590565b7f4e487b71000000000000000000000000000000000000000000000000000000005f52604160045260245ffd5b604051601f82017fffffffffffffffffffffffffffffffffffffffffffffffffffffffffffffffe016810167ffffffffffffffff8111828210171561379b5761379b613727565b604052919050565b803560ff811681146137b3575f80fd5b919050565b5f805f83850360a08112156137cb575f80fd5b843593506020850135925060607fffffffffffffffffffffffffffffffffffffffffffffffffffffffffffffffc082011215613805575f80fd5b506040516060810167ffffffffffffffff8111828210171561382957613829613727565b6040908152850135815261383f606086016137a3565b6020820152608094909401356040850152509093909250565b5f60208284031215613868575f80fd5b81356120f08161369e565b5f8060408385031215613884575f80fd5b8235915060208301356138968161369e565b809150509250929050565b5f80604083850312156138b2575f80fd5b50508035926020909101359150565b5f805f606084860312156138d3575f80fd5b8335925060208401356137168161369e565b80151581146127d1575f80fd5b5f8060408385031215613903575f80fd5b823561390e8161369e565b91506020830135613896816138e5565b5f805f8084860360c0811215613932575f80fd5b8535945060208601356139448161369e565b93506040860135925060607fffffffffffffffffffffffffffffffffffffffffffffffffffffffffffffffa08201121561397c575f80fd5b509295919450926060019150565b5f805f806080858703121561399d575f80fd5b84356139a88161369e565b935060208501356139b88161369e565b925060408501359150606085013567ffffffffffffffff8111156139da575f80fd5b8501601f810187136139ea575f80fd5b803567ffffffffffffffff811115613a0457613a04613727565b613a3560207fffffffffffffffffffffffffffffffffffffffffffffffffffffffffffffffe0601f84011601613754565b818152886020838501011115613a49575f80fd5b816020840160208301375f6020838301015280935050505092959194509250565b5f805f60608486031215613a7c575f80fd5b8335925060208401359150613a93604085016137a3565b90509250925092565b5f805f8060808587031215613aaf575f80fd5b843593506020850135613ac18161369e565b925060408501359150606085013567ffffffffffffffff811115613ae3575f80fd5b850160a08188031215613af4575f80fd5b939692955090935050565b5f805f805f8060c08789031215613b14575f80fd5b8635613b1f8161369e565b95506020870135613b2f8161369e565b94506040870135613b3f8161369e565b93506060870135613b4f8161369e565b92506080870135613b5f8161369e565b915060a0870135613b6f8161369e565b809150509295509295509295565b5f8060408385031215613b8e575f80fd5b8235613b998161369e565b915060208301356138968161369e565b600181811c90821680613bbd57607f821691505b60208210810361147c577f4e487b71000000000000000000000000000000000000000000000000000000005f52602260045260245ffd5b7f4e487b71000000000000000000000000000000000000000000000000000000005f52601160045260245ffd5b8181038181111561098a5761098a613bf4565b5f60208284031215613c44575f80fd5b5051919050565b808202811582820484141761098a5761098a613bf4565b5f82613c95577f4e487b71000000000000000000000000000000000000000000000000000000005f52601260045260245ffd5b500490565b6001815b6001841115613cd557808504811115613cb957613cb9613bf4565b6001841615613cc757908102905b60019390931c928002613c9e565b935093915050565b5f82613ceb5750600161098a565b81613cf757505f61098a565b8160018114613d0d5760028114613d1757613d33565b600191505061098a565b60ff841115613d2857613d28613bf4565b50506001821b61098a565b5060208310610133831016604e8410600b8410161715613d56575081810a61098a565b613d817fffffffffffffffffffffffffffffffffffffffffffffffffffffffffffffffff8484613c9a565b807fffffffffffffffffffffffffffffffffffffffffffffffffffffffffffffffff04821115613db357613db3613bf4565b029392505050565b5f6120f08383613cdd565b5f60208284031215613dd6575f80fd5b81516120f0816138e5565b5f7fffffffffffffffffffffffffffffffffffffffffffffffffffffffffffffffff8203613e1157613e11613bf4565b5060010190565b8082018082111561098a5761098a613bf4565b5f60208284031215613e3b575f80fd5b6120f0826137a3565b5f81518060208401855e5f93019283525090919050565b5f61350e613e698386613e44565b84613e44565b73ffffffffffffffffffffffffffffffffffffffff8516815273ffffffffffffffffffffffffffffffffffffffff84166020820152826040820152608060608201525f613ebf6080830184613629565b9695505050505050565b5f60208284031215613ed9575f80fd5b81516120f0816135e1565b601f821115610d5e57805f5260205f20601f840160051c81016020851015613f095750805b601f840160051c820191505b818110156112fa575f8155600101613f15565b815167ffffffffffffffff811115613f4257613f42613727565b613f5681613f508454613ba9565b84613ee4565b6020601f821160018114613fa7575f8315613f715750848201515b7fffffffffffffffffffffffffffffffffffffffffffffffffffffffffffffffff600385901b1c1916600184901b1784556112fa565b5f848152602081207fffffffffffffffffffffffffffffffffffffffffffffffffffffffffffffffe08516915b82811015613ff45787850151825560209485019460019092019101613fd4565b508482101561403057868401517fffffffffffffffffffffffffffffffffffffffffffffffffffffffffffffffff600387901b60f8161c191681555b50505050600190811b0190555056fea26469706673582212201e17db821347a79377e2560f02f29c0dcb763b6f6d9be1a8b3ff72faebae23c664736f6c634300081a0033","linkReferences":{}},"methodIdentifiers":{"DEFAULT_ADMIN_ROLE()":"a217fddf","MINTER_ROLE()":"d5391393","MODIFYALLOCATION_ROLE()":"e7830b4a","STABILIZER_NFT_ROLE()":"c28f9a4c","addCollateral(uint256)":"bcc46e83","addCollateralFromStabilizer(uint256,address,uint256)":"979904ed","addStabilizerCollateral(uint256)":"91ad2d82","approve(address,uint256)":"095ea7b3","balanceOf(address)":"70a08231","burn(uint256)":"42966c68","getApproved(uint256)":"081812fc","getCollateralizationRatio(uint256,uint256,uint8)":"bbc10809","getPosition(uint256)":"eb02c301","getRoleAdmin(bytes32)":"248a9ca3","getTokenByOwner(address)":"2bf79c94","grantRole(bytes32,address)":"2f2ff15d","hasRole(bytes32,address)":"91d14854","initialize(address,address,address,address,address,address)":"cc2a9a5b","isApprovedForAll(address,address)":"e985e9c5","lido()":"23509a2d","mint(address)":"6a627842","modifyAllocation(uint256,uint256)":"341c49af","name()":"06fdde03","oracle()":"7dc0d1d0","ownerOf(uint256)":"6352211e","rateContract()":"eee24219","removeCollateral(uint256,address,uint256,(uint256,uint8,uint256))":"ab50355e","removeExcessCollateral(uint256,uint256,(uint256,uint8,uint256))":"6520ace5","removeExcessStabilizerCollateral(uint256,uint256,(uint256,uint8,uint256))":"25de1be8","renounceRole(bytes32,address)":"36568abe","revokeRole(bytes32,address)":"d547741f","safeTransferFrom(address,address,uint256)":"42842e0e","safeTransferFrom(address,address,uint256,bytes)":"b88d4fde","setApprovalForAll(address,bool)":"a22cb465","stETH()":"c1fe3e48","stabilizerNFTContract()":"bec070d6","supportsInterface(bytes4)":"01ffc9a7","symbol()":"95d89b41","tokenURI(uint256)":"c87b56dd","transferCollateral(uint256,address,uint256,(uint256,uint8,uint256,bytes32,bytes))":"c0579f2b","transferFrom(address,address,uint256)":"23b872dd"},"storageLayout":{"storage":[{"astId":53469,"contract":"src/UspdCollateralizedPositionNFT.sol:UspdCollateralizedPositionNFT","label":"oracle","offset":0,"slot":"0","type":"t_contract(PriceOracle)51260"},{"astId":53472,"contract":"src/UspdCollateralizedPositionNFT.sol:UspdCollateralizedPositionNFT","label":"stETH","offset":0,"slot":"1","type":"t_contract(IERC20)43214"},{"astId":53475,"contract":"src/UspdCollateralizedPositionNFT.sol:UspdCollateralizedPositionNFT","label":"lido","offset":0,"slot":"2","type":"t_contract(ILido)55320"},{"astId":53478,"contract":"src/UspdCollateralizedPositionNFT.sol:UspdCollateralizedPositionNFT","label":"rateContract","offset":0,"slot":"3","type":"t_contract(IPoolSharesConversionRate)55349"},{"astId":53480,"contract":"src/UspdCollateralizedPositionNFT.sol:UspdCollateralizedPositionNFT","label":"stabilizerNFTContract","offset":0,"slot":"4","type":"t_address"},{"astId":53485,"contract":"src/UspdCollateralizedPositionNFT.sol:UspdCollateralizedPositionNFT","label":"_positions","offset":0,"slot":"5","type":"t_mapping(t_uint256,t_struct(Position)55501_storage)"},{"astId":53489,"contract":"src/UspdCollateralizedPositionNFT.sol:UspdCollateralizedPositionNFT","label":"_ownerToken","offset":0,"slot":"6","type":"t_mapping(t_address,t_uint256)"},{"astId":53516,"contract":"src/UspdCollateralizedPositionNFT.sol:UspdCollateralizedPositionNFT","label":"_nextPositionId","offset":0,"slot":"7","type":"t_uint256"}],"types":{"t_address":{"encoding":"inplace","label":"address","numberOfBytes":"20"},"t_contract(IERC20)43214":{"encoding":"inplace","label":"contract IERC20","numberOfBytes":"20"},"t_contract(ILido)55320":{"encoding":"inplace","label":"contract ILido","numberOfBytes":"20"},"t_contract(IPoolSharesConversionRate)55349":{"encoding":"inplace","label":"contract IPoolSharesConversionRate","numberOfBytes":"20"},"t_contract(PriceOracle)51260":{"encoding":"inplace","label":"contract PriceOracle","numberOfBytes":"20"},"t_mapping(t_address,t_uint256)":{"encoding":"mapping","key":"t_address","label":"mapping(address => uint256)","numberOfBytes":"32","value":"t_uint256"},"t_mapping(t_uint256,t_struct(Position)55501_storage)":{"encoding":"mapping","key":"t_uint256","label":"mapping(uint256 => struct IUspdCollateralizedPositionNFT.Position)","numberOfBytes":"32","value":"t_struct(Position)55501_storage"},"t_struct(Position)55501_storage":{"encoding":"inplace","label":"struct IUspdCollateralizedPositionNFT.Position","numberOfBytes":"64","members":[{"astId":55498,"contract":"src/UspdCollateralizedPositionNFT.sol:UspdCollateralizedPositionNFT","label":"allocatedEth","offset":0,"slot":"0","type":"t_uint256"},{"astId":55500,"contract":"src/UspdCollateralizedPositionNFT.sol:UspdCollateralizedPositionNFT","label":"backedPoolShares","offset":0,"slot":"1","type":"t_uint256"}]},"t_uint256":{"encoding":"inplace","label":"uint256","numberOfBytes":"32"}}},"id":71}