{"abi":[{"type":"constructor","inputs":[],"stateMutability":"nonpayable"},{"type":"function","name":"DEFAULT_ADMIN_ROLE","inputs":[],"outputs":[{"name":"","type":"bytes32","internalType":"bytes32"}],"stateMutability":"view"},{"type":"function","name":"MINTER_ROLE","inputs":[],"outputs":[{"name":"","type":"bytes32","internalType":"bytes32"}],"stateMutability":"view"},{"type":"function","name":"MODIFYALLOCATION_ROLE","inputs":[],"outputs":[{"name":"","type":"bytes32","internalType":"bytes32"}],"stateMutability":"view"},{"type":"function","name":"STABILIZER_NFT_ROLE","inputs":[],"outputs":[{"name":"","type":"bytes32","internalType":"bytes32"}],"stateMutability":"view"},{"type":"function","name":"addCollateral","inputs":[{"name":"tokenId","type":"uint256","internalType":"uint256"}],"outputs":[],"stateMutability":"payable"},{"type":"function","name":"addStabilizerCollateral","inputs":[{"name":"tokenId","type":"uint256","internalType":"uint256"}],"outputs":[],"stateMutability":"payable"},{"type":"function","name":"approve","inputs":[{"name":"to","type":"address","internalType":"address"},{"name":"tokenId","type":"uint256","internalType":"uint256"}],"outputs":[],"stateMutability":"nonpayable"},{"type":"function","name":"balanceOf","inputs":[{"name":"owner","type":"address","internalType":"address"}],"outputs":[{"name":"","type":"uint256","internalType":"uint256"}],"stateMutability":"view"},{"type":"function","name":"burn","inputs":[{"name":"tokenId","type":"uint256","internalType":"uint256"}],"outputs":[],"stateMutability":"nonpayable"},{"type":"function","name":"getApproved","inputs":[{"name":"tokenId","type":"uint256","internalType":"uint256"}],"outputs":[{"name":"","type":"address","internalType":"address"}],"stateMutability":"view"},{"type":"function","name":"getCollateralizationRatio","inputs":[{"name":"tokenId","type":"uint256","internalType":"uint256"},{"name":"ethUsdPrice","type":"uint256","internalType":"uint256"},{"name":"priceDecimals","type":"uint8","internalType":"uint8"}],"outputs":[{"name":"","type":"uint256","internalType":"uint256"}],"stateMutability":"view"},{"type":"function","name":"getPosition","inputs":[{"name":"tokenId","type":"uint256","internalType":"uint256"}],"outputs":[{"name":"","type":"tuple","internalType":"struct IUspdCollateralizedPositionNFT.Position","components":[{"name":"allocatedEth","type":"uint256","internalType":"uint256"},{"name":"backedUspd","type":"uint256","internalType":"uint256"}]}],"stateMutability":"view"},{"type":"function","name":"getRoleAdmin","inputs":[{"name":"role","type":"bytes32","internalType":"bytes32"}],"outputs":[{"name":"","type":"bytes32","internalType":"bytes32"}],"stateMutability":"view"},{"type":"function","name":"getTokenByOwner","inputs":[{"name":"owner","type":"address","internalType":"address"}],"outputs":[{"name":"","type":"uint256","internalType":"uint256"}],"stateMutability":"view"},{"type":"function","name":"grantRole","inputs":[{"name":"role","type":"bytes32","internalType":"bytes32"},{"name":"account","type":"address","internalType":"address"}],"outputs":[],"stateMutability":"nonpayable"},{"type":"function","name":"hasRole","inputs":[{"name":"role","type":"bytes32","internalType":"bytes32"},{"name":"account","type":"address","internalType":"address"}],"outputs":[{"name":"","type":"bool","internalType":"bool"}],"stateMutability":"view"},{"type":"function","name":"initialize","inputs":[{"name":"_oracleAddress","type":"address","internalType":"address"},{"name":"_stETHAddress","type":"address","internalType":"address"},{"name":"_lidoAddress","type":"address","internalType":"address"},{"name":"_rateContractAddress","type":"address","internalType":"address"},{"name":"_stabilizerNFTAddress","type":"address","internalType":"address"},{"name":"_admin","type":"address","internalType":"address"}],"outputs":[],"stateMutability":"nonpayable"},{"type":"function","name":"isApprovedForAll","inputs":[{"name":"owner","type":"address","internalType":"address"},{"name":"operator","type":"address","internalType":"address"}],"outputs":[{"name":"","type":"bool","internalType":"bool"}],"stateMutability":"view"},{"type":"function","name":"lido","inputs":[],"outputs":[{"name":"","type":"address","internalType":"contract ILido"}],"stateMutability":"view"},{"type":"function","name":"mint","inputs":[{"name":"to","type":"address","internalType":"address"}],"outputs":[{"name":"","type":"uint256","internalType":"uint256"}],"stateMutability":"nonpayable"},{"type":"function","name":"modifyAllocation","inputs":[{"name":"tokenId","type":"uint256","internalType":"uint256"},{"name":"newBackedUspd","type":"uint256","internalType":"uint256"}],"outputs":[],"stateMutability":"nonpayable"},{"type":"function","name":"name","inputs":[],"outputs":[{"name":"","type":"string","internalType":"string"}],"stateMutability":"view"},{"type":"function","name":"oracle","inputs":[],"outputs":[{"name":"","type":"address","internalType":"contract PriceOracle"}],"stateMutability":"view"},{"type":"function","name":"ownerOf","inputs":[{"name":"tokenId","type":"uint256","internalType":"uint256"}],"outputs":[{"name":"","type":"address","internalType":"address"}],"stateMutability":"view"},{"type":"function","name":"rateContract","inputs":[],"outputs":[{"name":"","type":"address","internalType":"contract IPoolSharesConversionRate"}],"stateMutability":"view"},{"type":"function","name":"removeCollateral","inputs":[{"name":"tokenId","type":"uint256","internalType":"uint256"},{"name":"to","type":"address","internalType":"address payable"},{"name":"amount","type":"uint256","internalType":"uint256"},{"name":"priceResponse","type":"tuple","internalType":"struct IPriceOracle.PriceResponse","components":[{"name":"price","type":"uint256","internalType":"uint256"},{"name":"decimals","type":"uint8","internalType":"uint8"},{"name":"timestamp","type":"uint256","internalType":"uint256"}]}],"outputs":[],"stateMutability":"nonpayable"},{"type":"function","name":"removeExcessCollateral","inputs":[{"name":"tokenId","type":"uint256","internalType":"uint256"},{"name":"stEthAmountToRemove","type":"uint256","internalType":"uint256"},{"name":"priceResponse","type":"tuple","internalType":"struct IPriceOracle.PriceResponse","components":[{"name":"price","type":"uint256","internalType":"uint256"},{"name":"decimals","type":"uint8","internalType":"uint8"},{"name":"timestamp","type":"uint256","internalType":"uint256"}]}],"outputs":[],"stateMutability":"nonpayable"},{"type":"function","name":"removeExcessStabilizerCollateral","inputs":[{"name":"tokenId","type":"uint256","internalType":"uint256"},{"name":"stEthAmountToRemove","type":"uint256","internalType":"uint256"},{"name":"priceResponse","type":"tuple","internalType":"struct IPriceOracle.PriceResponse","components":[{"name":"price","type":"uint256","internalType":"uint256"},{"name":"decimals","type":"uint8","internalType":"uint8"},{"name":"timestamp","type":"uint256","internalType":"uint256"}]}],"outputs":[],"stateMutability":"nonpayable"},{"type":"function","name":"renounceRole","inputs":[{"name":"role","type":"bytes32","internalType":"bytes32"},{"name":"callerConfirmation","type":"address","internalType":"address"}],"outputs":[],"stateMutability":"nonpayable"},{"type":"function","name":"revokeRole","inputs":[{"name":"role","type":"bytes32","internalType":"bytes32"},{"name":"account","type":"address","internalType":"address"}],"outputs":[],"stateMutability":"nonpayable"},{"type":"function","name":"safeTransferFrom","inputs":[{"name":"from","type":"address","internalType":"address"},{"name":"to","type":"address","internalType":"address"},{"name":"tokenId","type":"uint256","internalType":"uint256"}],"outputs":[],"stateMutability":"nonpayable"},{"type":"function","name":"safeTransferFrom","inputs":[{"name":"from","type":"address","internalType":"address"},{"name":"to","type":"address","internalType":"address"},{"name":"tokenId","type":"uint256","internalType":"uint256"},{"name":"data","type":"bytes","internalType":"bytes"}],"outputs":[],"stateMutability":"nonpayable"},{"type":"function","name":"setApprovalForAll","inputs":[{"name":"operator","type":"address","internalType":"address"},{"name":"approved","type":"bool","internalType":"bool"}],"outputs":[],"stateMutability":"nonpayable"},{"type":"function","name":"stETH","inputs":[],"outputs":[{"name":"","type":"address","internalType":"contract IERC20"}],"stateMutability":"view"},{"type":"function","name":"stabilizerNFTContract","inputs":[],"outputs":[{"name":"","type":"address","internalType":"address"}],"stateMutability":"view"},{"type":"function","name":"supportsInterface","inputs":[{"name":"interfaceId","type":"bytes4","internalType":"bytes4"}],"outputs":[{"name":"","type":"bool","internalType":"bool"}],"stateMutability":"view"},{"type":"function","name":"symbol","inputs":[],"outputs":[{"name":"","type":"string","internalType":"string"}],"stateMutability":"view"},{"type":"function","name":"tokenURI","inputs":[{"name":"tokenId","type":"uint256","internalType":"uint256"}],"outputs":[{"name":"","type":"string","internalType":"string"}],"stateMutability":"view"},{"type":"function","name":"transferCollateral","inputs":[{"name":"tokenId","type":"uint256","internalType":"uint256"},{"name":"to","type":"address","internalType":"address payable"},{"name":"amount","type":"uint256","internalType":"uint256"},{"name":"priceQuery","type":"tuple","internalType":"struct IPriceOracle.PriceAttestationQuery","components":[{"name":"price","type":"uint256","internalType":"uint256"},{"name":"decimals","type":"uint8","internalType":"uint8"},{"name":"dataTimestamp","type":"uint256","internalType":"uint256"},{"name":"assetPair","type":"bytes32","internalType":"bytes32"},{"name":"signature","type":"bytes","internalType":"bytes"}]}],"outputs":[],"stateMutability":"nonpayable"},{"type":"function","name":"transferFrom","inputs":[{"name":"from","type":"address","internalType":"address"},{"name":"to","type":"address","internalType":"address"},{"name":"tokenId","type":"uint256","internalType":"uint256"}],"outputs":[],"stateMutability":"nonpayable"},{"type":"event","name":"Approval","inputs":[{"name":"owner","type":"address","indexed":true,"internalType":"address"},{"name":"approved","type":"address","indexed":true,"internalType":"address"},{"name":"tokenId","type":"uint256","indexed":true,"internalType":"uint256"}],"anonymous":false},{"type":"event","name":"ApprovalForAll","inputs":[{"name":"owner","type":"address","indexed":true,"internalType":"address"},{"name":"operator","type":"address","indexed":true,"internalType":"address"},{"name":"approved","type":"bool","indexed":false,"internalType":"bool"}],"anonymous":false},{"type":"event","name":"Initialized","inputs":[{"name":"version","type":"uint64","indexed":false,"internalType":"uint64"}],"anonymous":false},{"type":"event","name":"PositionBurned","inputs":[{"name":"tokenId","type":"uint256","indexed":true,"internalType":"uint256"},{"name":"owner","type":"address","indexed":true,"internalType":"address"},{"name":"allocatedEth","type":"uint256","indexed":false,"internalType":"uint256"},{"name":"backedUspd","type":"uint256","indexed":false,"internalType":"uint256"}],"anonymous":false},{"type":"event","name":"PositionCreated","inputs":[{"name":"tokenId","type":"uint256","indexed":true,"internalType":"uint256"},{"name":"owner","type":"address","indexed":true,"internalType":"address"},{"name":"allocatedEth","type":"uint256","indexed":false,"internalType":"uint256"},{"name":"backedUspd","type":"uint256","indexed":false,"internalType":"uint256"}],"anonymous":false},{"type":"event","name":"RoleAdminChanged","inputs":[{"name":"role","type":"bytes32","indexed":true,"internalType":"bytes32"},{"name":"previousAdminRole","type":"bytes32","indexed":true,"internalType":"bytes32"},{"name":"newAdminRole","type":"bytes32","indexed":true,"internalType":"bytes32"}],"anonymous":false},{"type":"event","name":"RoleGranted","inputs":[{"name":"role","type":"bytes32","indexed":true,"internalType":"bytes32"},{"name":"account","type":"address","indexed":true,"internalType":"address"},{"name":"sender","type":"address","indexed":true,"internalType":"address"}],"anonymous":false},{"type":"event","name":"RoleRevoked","inputs":[{"name":"role","type":"bytes32","indexed":true,"internalType":"bytes32"},{"name":"account","type":"address","indexed":true,"internalType":"address"},{"name":"sender","type":"address","indexed":true,"internalType":"address"}],"anonymous":false},{"type":"event","name":"Transfer","inputs":[{"name":"from","type":"address","indexed":true,"internalType":"address"},{"name":"to","type":"address","indexed":true,"internalType":"address"},{"name":"tokenId","type":"uint256","indexed":true,"internalType":"uint256"}],"anonymous":false},{"type":"error","name":"AccessControlBadConfirmation","inputs":[]},{"type":"error","name":"AccessControlUnauthorizedAccount","inputs":[{"name":"account","type":"address","internalType":"address"},{"name":"neededRole","type":"bytes32","internalType":"bytes32"}]},{"type":"error","name":"BelowMinimumRatio","inputs":[]},{"type":"error","name":"ERC721IncorrectOwner","inputs":[{"name":"sender","type":"address","internalType":"address"},{"name":"tokenId","type":"uint256","internalType":"uint256"},{"name":"owner","type":"address","internalType":"address"}]},{"type":"error","name":"ERC721InsufficientApproval","inputs":[{"name":"operator","type":"address","internalType":"address"},{"name":"tokenId","type":"uint256","internalType":"uint256"}]},{"type":"error","name":"ERC721InvalidApprover","inputs":[{"name":"approver","type":"address","internalType":"address"}]},{"type":"error","name":"ERC721InvalidOperator","inputs":[{"name":"operator","type":"address","internalType":"address"}]},{"type":"error","name":"ERC721InvalidOwner","inputs":[{"name":"owner","type":"address","internalType":"address"}]},{"type":"error","name":"ERC721InvalidReceiver","inputs":[{"name":"receiver","type":"address","internalType":"address"}]},{"type":"error","name":"ERC721InvalidSender","inputs":[{"name":"sender","type":"address","internalType":"address"}]},{"type":"error","name":"ERC721NonexistentToken","inputs":[{"name":"tokenId","type":"uint256","internalType":"uint256"}]},{"type":"error","name":"InsufficientCollateral","inputs":[]},{"type":"error","name":"InvalidAmount","inputs":[]},{"type":"error","name":"InvalidInitialization","inputs":[]},{"type":"error","name":"NotImplemented","inputs":[]},{"type":"error","name":"NotInitializing","inputs":[]},{"type":"error","name":"NotOwner","inputs":[]},{"type":"error","name":"TransferFailed","inputs":[]},{"type":"error","name":"ZeroLiability","inputs":[]}],"bytecode":{"object":"0x6080604052348015600e575f80fd5b5060156019565b60c9565b7ff0c57e16840df040f15088dc2f81fe391c3923bec73e23a9662efc9c229c6a00805468010000000000000000900460ff161560685760405163f92ee8a960e01b815260040160405180910390fd5b80546001600160401b039081161460c65780546001600160401b0319166001600160401b0390811782556040519081527fc7f505b2f371ae2175ee4913f4499e1f2633a7b5936321eed1cdaeb6115181d29060200160405180910390a15b50565b61383e806100d65f395ff3fe6080604052600436106102ab575f3560e01c806391d1485411610165578063c1fe3e48116100c6578063d547741f1161007c578063e985e9c511610062578063e985e9c514610852578063eb02c301146108c5578063eee2421914610936575f80fd5b8063d547741f14610800578063e7830b4a1461081f575f80fd5b8063c87b56dd116100ac578063c87b56dd1461078f578063cc2a9a5b146107ae578063d5391393146107cd575f80fd5b8063c1fe3e4814610730578063c28f9a4c1461075c575f80fd5b8063b88d4fde1161011b578063bcc46e8311610101578063bcc46e83146106d2578063bec070d6146106e5578063c0579f2b14610711575f80fd5b8063b88d4fde14610694578063bbc10809146106b3575f80fd5b8063a217fddf1161014b578063a217fddf14610643578063a22cb46514610656578063ab50355e14610675575f80fd5b806391d14854146105bf57806395d89b411461062f575f80fd5b8063341c49af1161020f5780636520ace5116101c557806370a08231116101ab57806370a08231146105675780637dc0d1d01461058657806391ad2d82146105b1575f80fd5b80636520ace5146105295780636a62784214610548575f80fd5b806342842e0e116101f557806342842e0e146104cc57806342966c68146104eb5780636352211e1461050a575f80fd5b8063341c49af1461048e57806336568abe146104ad575f80fd5b806323b872dd1161026457806325de1be81161024a57806325de1be81461040f5780632bf79c941461042e5780632f2ff15d1461046f575f80fd5b806323b872dd14610395578063248a9ca3146103b4575f80fd5b8063081812fc11610294578063081812fc14610304578063095ea7b31461034857806323509a2d14610369575f80fd5b806301ffc9a7146102af57806306fdde03146102e3575b5f80fd5b3480156102ba575f80fd5b506102ce6102c9366004612e04565b610962565b60405190151581526020015b60405180910390f35b3480156102ee575f80fd5b506102f7610972565b6040516102da9190612e6b565b34801561030f575f80fd5b5061032361031e366004612e7d565b610a26565b60405173ffffffffffffffffffffffffffffffffffffffff90911681526020016102da565b348015610353575f80fd5b50610367610362366004612eb5565b610a79565b005b348015610374575f80fd5b506002546103239073ffffffffffffffffffffffffffffffffffffffff1681565b3480156103a0575f80fd5b506103676103af366004612edf565b610a88565b3480156103bf575f80fd5b506104016103ce366004612e7d565b5f9081527f02dd7bc7dec4dceedda775e58dd541e08a116c6c53815c0bd028192f7b626800602052604090206001015490565b6040519081526020016102da565b34801561041a575f80fd5b50610367610429366004612fae565b610b7c565b348015610439575f80fd5b5061040161044836600461304e565b73ffffffffffffffffffffffffffffffffffffffff165f9081526006602052604090205490565b34801561047a575f80fd5b50610367610489366004613069565b610bde565b348015610499575f80fd5b506103676104a8366004613097565b610c21565b3480156104b8575f80fd5b506103676104c7366004613069565b610ce7565b3480156104d7575f80fd5b506103676104e6366004612edf565b610d45565b3480156104f6575f80fd5b50610367610505366004612e7d565b610d5f565b348015610515575f80fd5b50610323610524366004612e7d565b610ee4565b348015610534575f80fd5b50610367610543366004612fae565b610eee565b348015610553575f80fd5b5061040161056236600461304e565b6111ad565b348015610572575f80fd5b5061040161058136600461304e565b61132e565b348015610591575f80fd5b505f546103239073ffffffffffffffffffffffffffffffffffffffff1681565b610367610429366004612e7d565b3480156105ca575f80fd5b506102ce6105d9366004613069565b5f9182527f02dd7bc7dec4dceedda775e58dd541e08a116c6c53815c0bd028192f7b6268006020908152604080842073ffffffffffffffffffffffffffffffffffffffff93909316845291905290205460ff1690565b34801561063a575f80fd5b506102f76113cc565b34801561064e575f80fd5b506104015f81565b348015610661575f80fd5b506103676106703660046130c4565b61141d565b348015610680575f80fd5b5061036761068f3660046130f0565b611428565b34801561069f575f80fd5b506103676106ae36600461315c565b611807565b3480156106be575f80fd5b506104016106cd36600461323c565b61181f565b6103676106e0366004612e7d565b6118ec565b3480156106f0575f80fd5b506004546103239073ffffffffffffffffffffffffffffffffffffffff1681565b34801561071c575f80fd5b5061036761072b36600461326e565b6119d1565b34801561073b575f80fd5b506001546103239073ffffffffffffffffffffffffffffffffffffffff1681565b348015610767575f80fd5b506104017f421e211e392de4e4ba4dae91b58f819a3568f08b7d7c871b2d07f27efda44fbb81565b34801561079a575f80fd5b506102f76107a9366004612e7d565b611a03565b3480156107b9575f80fd5b506103676107c83660046132d1565b611a73565b3480156107d8575f80fd5b506104017f9f2df0fed2c77648de5860a4cc508cd0818c85b8b8a1ab4ceeef8d981c8956a681565b34801561080b575f80fd5b5061036761081a366004613069565b611cdc565b34801561082a575f80fd5b506104017f2fdb5f48630a6f9eb0d7702da69151aaac47ccfd65cf560e0ee50d90efcf3d9781565b34801561085d575f80fd5b506102ce61086c36600461334f565b73ffffffffffffffffffffffffffffffffffffffff9182165f9081527f80bb2b638cc20bc4d0a60d66940f3ab4a00c1d7b313497ca82fb0b4ab00793056020908152604080832093909416825291909152205460ff1690565b3480156108d0575f80fd5b5061091b6108df366004612e7d565b604080518082019091525f8082526020820152505f90815260056020908152604091829020825180840190935280548352600101549082015290565b604080518251815260209283015192810192909252016102da565b348015610941575f80fd5b506003546103239073ffffffffffffffffffffffffffffffffffffffff1681565b5f61096c82611d1f565b92915050565b7f80bb2b638cc20bc4d0a60d66940f3ab4a00c1d7b313497ca82fb0b4ab007930080546060919081906109a49061337b565b80601f01602080910402602001604051908101604052809291908181526020018280546109d09061337b565b8015610a1b5780601f106109f257610100808354040283529160200191610a1b565b820191905f5260205f20905b8154815290600101906020018083116109fe57829003601f168201915b505050505091505090565b5f610a3082611d74565b505f8281527f80bb2b638cc20bc4d0a60d66940f3ab4a00c1d7b313497ca82fb0b4ab0079304602052604090205473ffffffffffffffffffffffffffffffffffffffff1661096c565b610a84828233611df1565b5050565b73ffffffffffffffffffffffffffffffffffffffff8216610adc576040517f64a0ae920000000000000000000000000000000000000000000000000000000081525f60048201526024015b60405180910390fd5b5f610ae8838333611dfe565b90508373ffffffffffffffffffffffffffffffffffffffff168173ffffffffffffffffffffffffffffffffffffffff1614610b76576040517f64283d7b00000000000000000000000000000000000000000000000000000000815273ffffffffffffffffffffffffffffffffffffffff80861660048301526024820184905282166044820152606401610ad3565b50505050565b6040517f08c379a000000000000000000000000000000000000000000000000000000000815260206004820152600f60248201527f4e6f7420696d706c656d656e74656400000000000000000000000000000000006044820152606401610ad3565b5f8281527f02dd7bc7dec4dceedda775e58dd541e08a116c6c53815c0bd028192f7b6268006020526040902060010154610c1781611fbd565b610b768383611fca565b7f2fdb5f48630a6f9eb0d7702da69151aaac47ccfd65cf560e0ee50d90efcf3d97610c4b81611fbd565b5f610c5584610ee4565b73ffffffffffffffffffffffffffffffffffffffff1603610cd2576040517f08c379a000000000000000000000000000000000000000000000000000000000815260206004820152601760248201527f506f736974696f6e20646f6573206e6f742065786973740000000000000000006044820152606401610ad3565b505f9182526005602052604090912060010155565b73ffffffffffffffffffffffffffffffffffffffff81163314610d36576040517f6697b23200000000000000000000000000000000000000000000000000000000815260040160405180910390fd5b610d4082826120e8565b505050565b610d4083838360405180602001604052805f815250611807565b5f610d6982610ee4565b905073ffffffffffffffffffffffffffffffffffffffff81163314610dba576040517f30cd747100000000000000000000000000000000000000000000000000000000815260040160405180910390fd5b5f828152600560205260409020805415610e00576040517f3a23d82500000000000000000000000000000000000000000000000000000000815260040160405180910390fd5b600181015415610e3c576040517fa0226f9d00000000000000000000000000000000000000000000000000000000815260040160405180910390fd5b80546001808301545f86815260056020908152604080832083815590940182905573ffffffffffffffffffffffffffffffffffffffff871682526006905291822091909155610e8a856121c4565b604080518381526020810183905273ffffffffffffffffffffffffffffffffffffffff86169187917ffb233a30394c607c1ae6377e8d607fba7cc732b658f41a2c9e48f0a46b8a38fb910160405180910390a35050505050565b5f61096c82611d74565b33610ef884610ee4565b73ffffffffffffffffffffffffffffffffffffffff1614610f45576040517f30cd747100000000000000000000000000000000000000000000000000000000815260040160405180910390fd5b5f83815260056020526040812090839003610f8c576040517f2c5211c600000000000000000000000000000000000000000000000000000000815260040160405180910390fd5b8054831115610fc7576040517f3a23d82500000000000000000000000000000000000000000000000000000000815260040160405180910390fd5b6001810154156110be5780545f90610fe09085906133f3565b60018301549091505f819003611022576040517fa0226f9d00000000000000000000000000000000000000000000000000000000815260040160405180910390fd5b5f846020015160ff16600a6110379190613527565b85516110439085613532565b61104d9190613549565b90505f61106282670de0b6b3a7640000613532565b90505f83611071836064613532565b61107b9190613549565b9050606e8110156110b8576040517f133804c300000000000000000000000000000000000000000000000000000000815260040160405180910390fd5b50505050505b82815f015f8282546110d091906133f3565b90915550506001546040517fa9059cbb000000000000000000000000000000000000000000000000000000008152336004820152602481018590525f9173ffffffffffffffffffffffffffffffffffffffff169063a9059cbb906044016020604051808303815f875af1158015611149573d5f803e3d5ffd5b505050506040513d601f19601f8201168201806040525081019061116d9190613581565b9050806111a6576040517f90b8ec1800000000000000000000000000000000000000000000000000000000815260040160405180910390fd5b5050505050565b5f7f9f2df0fed2c77648de5860a4cc508cd0818c85b8b8a1ab4ceeef8d981c8956a66111d881611fbd565b73ffffffffffffffffffffffffffffffffffffffff83165f9081526006602052604090205415611264576040517f08c379a000000000000000000000000000000000000000000000000000000000815260206004820152601c60248201527f4f776e657220616c726561647920686173206120706f736974696f6e000000006044820152606401610ad3565b600780545f91826112748361359c565b909155506040805180820182525f808252602080830182815285835260058252848320935184555160019093019290925573ffffffffffffffffffffffffffffffffffffffff8816815260069091522081905590506112d38482612222565b604080515f808252602082015273ffffffffffffffffffffffffffffffffffffffff86169183917ffb617c13a5b4b052ee893903dca019ab1611dfef1b20f7acb7a5bfe008c10260910160405180910390a391505b50919050565b5f7f80bb2b638cc20bc4d0a60d66940f3ab4a00c1d7b313497ca82fb0b4ab007930073ffffffffffffffffffffffffffffffffffffffff831661139f576040517f89c62b640000000000000000000000000000000000000000000000000000000081525f6004820152602401610ad3565b73ffffffffffffffffffffffffffffffffffffffff9092165f908152600390920160205250604090205490565b7f80bb2b638cc20bc4d0a60d66940f3ab4a00c1d7b313497ca82fb0b4ab007930180546060917f80bb2b638cc20bc4d0a60d66940f3ab4a00c1d7b313497ca82fb0b4ab0079300916109a49061337b565b610a8433838361223b565b7f421e211e392de4e4ba4dae91b58f819a3568f08b7d7c871b2d07f27efda44fbb61145281611fbd565b5f61145c86610ee4565b73ffffffffffffffffffffffffffffffffffffffff16036114d9576040517f08c379a000000000000000000000000000000000000000000000000000000000815260206004820152601760248201527f506f736974696f6e20646f6573206e6f742065786973740000000000000000006044820152606401610ad3565b5f858152600560205260408120908490819003611522576040517f2c5211c600000000000000000000000000000000000000000000000000000000815260040160405180910390fd5b60018201545f819003611561576040517fa0226f9d00000000000000000000000000000000000000000000000000000000815260040160405180910390fd5b5f61157260408701602088016135d3565b6115809060ff16600a613527565b845461158e90883590613532565b6115989190613549565b90505f6115ad82670de0b6b3a7640000613532565b90505f836115bc836064613532565b6115c69190613549565b90505f60646115d58388613532565b6115df9190613549565b90505f868211156115f7576115f487836133f3565b90505b8754821115611632576040517f3a23d82500000000000000000000000000000000000000000000000000000000815260040160405180910390fd5b81885f015f82825461164491906133f3565b90915550506001546040517fa9059cbb00000000000000000000000000000000000000000000000000000000815273ffffffffffffffffffffffffffffffffffffffff8e81166004830152602482018a90525f92169063a9059cbb906044016020604051808303815f875af11580156116bf573d5f803e3d5ffd5b505050506040513d601f19601f820116820180604052508101906116e39190613581565b90508061171c576040517f90b8ec1800000000000000000000000000000000000000000000000000000000815260040160405180910390fd5b81156117f7576001546040517fa9059cbb00000000000000000000000000000000000000000000000000000000815273ffffffffffffffffffffffffffffffffffffffff8f81166004830152602482018590525f92169063a9059cbb906044016020604051808303815f875af1158015611798573d5f803e3d5ffd5b505050506040513d601f19601f820116820180604052508101906117bc9190613581565b9050806117f5576040517f90b8ec1800000000000000000000000000000000000000000000000000000000815260040160405180910390fd5b505b5050505050505050505050505050565b611812848484610a88565b610b76338585858561235b565b5f83815260056020908152604080832081518083019092528054825260010154918101829052908203611875577fffffffffffffffffffffffffffffffffffffffffffffffffffffffffffffffff9150506118e5565b80515f03611886575f9150506118e5565b5f61189284600a6135ec565b825161189f908790613532565b6118a99190613549565b60208301519091505f6118c483670de0b6b3a7640000613532565b90505f826118d3836064613532565b6118dd9190613549565b955050505050505b9392505050565b5f6118f682610ee4565b73ffffffffffffffffffffffffffffffffffffffff1603611973576040517f08c379a000000000000000000000000000000000000000000000000000000000815260206004820152601760248201527f506f736974696f6e20646f6573206e6f742065786973740000000000000000006044820152606401610ad3565b345f036119ac576040517f2c5211c600000000000000000000000000000000000000000000000000000000815260040160405180910390fd5b5f81815260056020526040812080543492906119c99084906135fa565b909155505050565b6040517fd623472500000000000000000000000000000000000000000000000000000000815260040160405180910390fd5b6060611a0e82611d74565b505f611a2460408051602081019091525f815290565b90505f815111611a425760405180602001604052805f8152506118e5565b80611a4c84612550565b604051602001611a5d929190613624565b6040516020818303038152906040529392505050565b5f611a7c61260c565b805490915060ff68010000000000000000820416159067ffffffffffffffff165f81158015611aa85750825b90505f8267ffffffffffffffff166001148015611ac45750303b155b905081158015611ad2575080155b15611b09576040517ff92ee8a900000000000000000000000000000000000000000000000000000000815260040160405180910390fd5b84547fffffffffffffffffffffffffffffffffffffffffffffffff00000000000000001660011785558315611b6a5784547fffffffffffffffffffffffffffffffffffffffffffffff00ffffffffffffffff16680100000000000000001785555b611bde6040518060400160405280601c81526020017f5553504420436f6c6c61746572616c697a656420506f736974696f6e000000008152506040518060400160405280600781526020017f55535044504f5300000000000000000000000000000000000000000000000000815250612634565b611be6612646565b611bf05f87611fca565b505f80547fffffffffffffffffffffffff000000000000000000000000000000000000000090811673ffffffffffffffffffffffffffffffffffffffff8e8116919091179092556001805482168d84161781556002805483168d85161790556003805483168c851617905560048054909216928a169290921790556007558315611ccf5784547fffffffffffffffffffffffffffffffffffffffffffffff00ffffffffffffffff168555604051600181527fc7f505b2f371ae2175ee4913f4499e1f2633a7b5936321eed1cdaeb6115181d29060200160405180910390a15b5050505050505050505050565b5f8281527f02dd7bc7dec4dceedda775e58dd541e08a116c6c53815c0bd028192f7b6268006020526040902060010154611d1581611fbd565b610b7683836120e8565b5f7fffffffff0000000000000000000000000000000000000000000000000000000082167f7965db0b00000000000000000000000000000000000000000000000000000000148061096c575061096c82612650565b5f8181527f80bb2b638cc20bc4d0a60d66940f3ab4a00c1d7b313497ca82fb0b4ab0079302602052604081205473ffffffffffffffffffffffffffffffffffffffff168061096c576040517f7e27328900000000000000000000000000000000000000000000000000000000815260048101849052602401610ad3565b610d408383836001612732565b5f8281527f80bb2b638cc20bc4d0a60d66940f3ab4a00c1d7b313497ca82fb0b4ab007930260205260408120547f80bb2b638cc20bc4d0a60d66940f3ab4a00c1d7b313497ca82fb0b4ab00793009073ffffffffffffffffffffffffffffffffffffffff90811690841615611e7857611e7881858761293b565b73ffffffffffffffffffffffffffffffffffffffff811615611eed57611ea05f865f80612732565b73ffffffffffffffffffffffffffffffffffffffff81165f908152600383016020526040902080547fffffffffffffffffffffffffffffffffffffffffffffffffffffffffffffffff0190555b73ffffffffffffffffffffffffffffffffffffffff861615611f375773ffffffffffffffffffffffffffffffffffffffff86165f9081526003830160205260409020805460010190555b5f85815260028301602052604080822080547fffffffffffffffffffffffff00000000000000000000000000000000000000001673ffffffffffffffffffffffffffffffffffffffff8a811691821790925591518893918516917fddf252ad1be2c89b69c2b068fc378daa952ba7f163c4a11628f55a4df523b3ef91a495945050505050565b611fc781336129eb565b50565b5f8281527f02dd7bc7dec4dceedda775e58dd541e08a116c6c53815c0bd028192f7b6268006020818152604080842073ffffffffffffffffffffffffffffffffffffffff8616855290915282205460ff166120df575f8481526020828152604080832073ffffffffffffffffffffffffffffffffffffffff87168452909152902080547fffffffffffffffffffffffffffffffffffffffffffffffffffffffffffffff0016600117905561207b3390565b73ffffffffffffffffffffffffffffffffffffffff168373ffffffffffffffffffffffffffffffffffffffff16857f2f8788117e7eff1d82e926ec794901d17c78024a50270940304540a733656f0d60405160405180910390a4600191505061096c565b5f91505061096c565b5f8281527f02dd7bc7dec4dceedda775e58dd541e08a116c6c53815c0bd028192f7b6268006020818152604080842073ffffffffffffffffffffffffffffffffffffffff8616855290915282205460ff16156120df575f8481526020828152604080832073ffffffffffffffffffffffffffffffffffffffff8716808552925280832080547fffffffffffffffffffffffffffffffffffffffffffffffffffffffffffffff0016905551339287917ff6391f5c32d9c69d2a47ea670b442974b53935d1edc7fd64eb21e047a839171b9190a4600191505061096c565b5f6121d05f835f611dfe565b905073ffffffffffffffffffffffffffffffffffffffff8116610a84576040517f7e27328900000000000000000000000000000000000000000000000000000000815260048101839052602401610ad3565b610a84828260405180602001604052805f815250612a91565b7f80bb2b638cc20bc4d0a60d66940f3ab4a00c1d7b313497ca82fb0b4ab007930073ffffffffffffffffffffffffffffffffffffffff83166122c1576040517f5b08ba1800000000000000000000000000000000000000000000000000000000815273ffffffffffffffffffffffffffffffffffffffff84166004820152602401610ad3565b73ffffffffffffffffffffffffffffffffffffffff8481165f81815260058401602090815260408083209488168084529482529182902080547fffffffffffffffffffffffffffffffffffffffffffffffffffffffffffffff001687151590811790915591519182527f17307eab39ab6107e8899845ad3d59bd9653f200f220920489ca2b5937696c31910160405180910390a350505050565b73ffffffffffffffffffffffffffffffffffffffff83163b156111a6576040517f150b7a0200000000000000000000000000000000000000000000000000000000815273ffffffffffffffffffffffffffffffffffffffff84169063150b7a02906123d0908890889087908790600401613638565b6020604051808303815f875af1925050508015612428575060408051601f3d9081017fffffffffffffffffffffffffffffffffffffffffffffffffffffffffffffffe016820190925261242591810190613692565b60015b6124b5573d808015612455576040519150601f19603f3d011682016040523d82523d5f602084013e61245a565b606091505b5080515f036124ad576040517f64a0ae9200000000000000000000000000000000000000000000000000000000815273ffffffffffffffffffffffffffffffffffffffff85166004820152602401610ad3565b805181602001fd5b7fffffffff0000000000000000000000000000000000000000000000000000000081167f150b7a020000000000000000000000000000000000000000000000000000000014612548576040517f64a0ae9200000000000000000000000000000000000000000000000000000000815273ffffffffffffffffffffffffffffffffffffffff85166004820152602401610ad3565b505050505050565b60605f61255c83612aa8565b60010190505f8167ffffffffffffffff81111561257b5761257b612f1d565b6040519080825280601f01601f1916602001820160405280156125a5576020820181803683370190505b5090508181016020015b7fffffffffffffffffffffffffffffffffffffffffffffffffffffffffffffffff017f3031323334353637383961626364656600000000000000000000000000000000600a86061a8153600a85049450846125af57509392505050565b5f807ff0c57e16840df040f15088dc2f81fe391c3923bec73e23a9662efc9c229c6a0061096c565b61263c612b89565b610a848282612bc7565b61264e612b89565b565b5f7fffffffff0000000000000000000000000000000000000000000000000000000082167f80ac58cd0000000000000000000000000000000000000000000000000000000014806126e257507fffffffff0000000000000000000000000000000000000000000000000000000082167f5b5e139f00000000000000000000000000000000000000000000000000000000145b8061096c57507f01ffc9a7000000000000000000000000000000000000000000000000000000007fffffffff0000000000000000000000000000000000000000000000000000000083161461096c565b7f80bb2b638cc20bc4d0a60d66940f3ab4a00c1d7b313497ca82fb0b4ab00793008180612774575073ffffffffffffffffffffffffffffffffffffffff831615155b156128e6575f61278385611d74565b905073ffffffffffffffffffffffffffffffffffffffff8416158015906127d657508373ffffffffffffffffffffffffffffffffffffffff168173ffffffffffffffffffffffffffffffffffffffff1614155b8015612833575073ffffffffffffffffffffffffffffffffffffffff8082165f9081527f80bb2b638cc20bc4d0a60d66940f3ab4a00c1d7b313497ca82fb0b4ab0079305602090815260408083209388168352929052205460ff16155b15612882576040517fa9fbf51f00000000000000000000000000000000000000000000000000000000815273ffffffffffffffffffffffffffffffffffffffff85166004820152602401610ad3565b82156128e457848673ffffffffffffffffffffffffffffffffffffffff168273ffffffffffffffffffffffffffffffffffffffff167f8c5be1e5ebec7d5bd14f71427d1e84f3dd0314c0f7b2291e5b200ac8c7c3b92560405160405180910390a45b505b5f93845260040160205250506040902080547fffffffffffffffffffffffff00000000000000000000000000000000000000001673ffffffffffffffffffffffffffffffffffffffff92909216919091179055565b612946838383612c0a565b610d405773ffffffffffffffffffffffffffffffffffffffff831661299a576040517f7e27328900000000000000000000000000000000000000000000000000000000815260048101829052602401610ad3565b6040517f177e802f00000000000000000000000000000000000000000000000000000000815273ffffffffffffffffffffffffffffffffffffffff8316600482015260248101829052604401610ad3565b5f8281527f02dd7bc7dec4dceedda775e58dd541e08a116c6c53815c0bd028192f7b6268006020908152604080832073ffffffffffffffffffffffffffffffffffffffff8516845290915290205460ff16610a84576040517fe2517d3f00000000000000000000000000000000000000000000000000000000815273ffffffffffffffffffffffffffffffffffffffff8216600482015260248101839052604401610ad3565b612a9b8383612d0c565b610d40335f85858561235b565b5f807a184f03e93ff9f4daa797ed6e38ed64bf6a1f0100000000000000008310612af0577a184f03e93ff9f4daa797ed6e38ed64bf6a1f010000000000000000830492506040015b6d04ee2d6d415b85acef81000000008310612b1c576d04ee2d6d415b85acef8100000000830492506020015b662386f26fc100008310612b3a57662386f26fc10000830492506010015b6305f5e1008310612b52576305f5e100830492506008015b6127108310612b6657612710830492506004015b60648310612b78576064830492506002015b600a831061096c5760010192915050565b612b91612db9565b61264e576040517fd7e6bcf800000000000000000000000000000000000000000000000000000000815260040160405180910390fd5b612bcf612b89565b7f80bb2b638cc20bc4d0a60d66940f3ab4a00c1d7b313497ca82fb0b4ab007930080612bfb84826136f1565b5060018101610b7683826136f1565b5f73ffffffffffffffffffffffffffffffffffffffff831615801590612d0457508273ffffffffffffffffffffffffffffffffffffffff168473ffffffffffffffffffffffffffffffffffffffff161480612cb5575073ffffffffffffffffffffffffffffffffffffffff8085165f9081527f80bb2b638cc20bc4d0a60d66940f3ab4a00c1d7b313497ca82fb0b4ab0079305602090815260408083209387168352929052205460ff165b80612d0457505f8281527f80bb2b638cc20bc4d0a60d66940f3ab4a00c1d7b313497ca82fb0b4ab0079304602052604090205473ffffffffffffffffffffffffffffffffffffffff8481169116145b949350505050565b73ffffffffffffffffffffffffffffffffffffffff8216612d5b576040517f64a0ae920000000000000000000000000000000000000000000000000000000081525f6004820152602401610ad3565b5f612d6783835f611dfe565b905073ffffffffffffffffffffffffffffffffffffffff811615610d40576040517f73c6ac6e0000000000000000000000000000000000000000000000000000000081525f6004820152602401610ad3565b5f612dc261260c565b5468010000000000000000900460ff16919050565b7fffffffff0000000000000000000000000000000000000000000000000000000081168114611fc7575f80fd5b5f60208284031215612e14575f80fd5b81356118e581612dd7565b5f81518084528060208401602086015e5f6020828601015260207fffffffffffffffffffffffffffffffffffffffffffffffffffffffffffffffe0601f83011685010191505092915050565b602081525f6118e56020830184612e1f565b5f60208284031215612e8d575f80fd5b5035919050565b73ffffffffffffffffffffffffffffffffffffffff81168114611fc7575f80fd5b5f8060408385031215612ec6575f80fd5b8235612ed181612e94565b946020939093013593505050565b5f805f60608486031215612ef1575f80fd5b8335612efc81612e94565b92506020840135612f0c81612e94565b929592945050506040919091013590565b7f4e487b71000000000000000000000000000000000000000000000000000000005f52604160045260245ffd5b604051601f82017fffffffffffffffffffffffffffffffffffffffffffffffffffffffffffffffe016810167ffffffffffffffff81118282101715612f9157612f91612f1d565b604052919050565b803560ff81168114612fa9575f80fd5b919050565b5f805f83850360a0811215612fc1575f80fd5b843593506020850135925060607fffffffffffffffffffffffffffffffffffffffffffffffffffffffffffffffc082011215612ffb575f80fd5b506040516060810167ffffffffffffffff8111828210171561301f5761301f612f1d565b6040908152850135815261303560608601612f99565b6020820152608094909401356040850152509093909250565b5f6020828403121561305e575f80fd5b81356118e581612e94565b5f806040838503121561307a575f80fd5b82359150602083013561308c81612e94565b809150509250929050565b5f80604083850312156130a8575f80fd5b50508035926020909101359150565b8015158114611fc7575f80fd5b5f80604083850312156130d5575f80fd5b82356130e081612e94565b9150602083013561308c816130b7565b5f805f8084860360c0811215613104575f80fd5b85359450602086013561311681612e94565b93506040860135925060607fffffffffffffffffffffffffffffffffffffffffffffffffffffffffffffffa08201121561314e575f80fd5b509295919450926060019150565b5f805f806080858703121561316f575f80fd5b843561317a81612e94565b9350602085013561318a81612e94565b925060408501359150606085013567ffffffffffffffff8111156131ac575f80fd5b8501601f810187136131bc575f80fd5b803567ffffffffffffffff8111156131d6576131d6612f1d565b61320760207fffffffffffffffffffffffffffffffffffffffffffffffffffffffffffffffe0601f84011601612f4a565b81815288602083850101111561321b575f80fd5b816020840160208301375f6020838301015280935050505092959194509250565b5f805f6060848603121561324e575f80fd5b833592506020840135915061326560408501612f99565b90509250925092565b5f805f8060808587031215613281575f80fd5b84359350602085013561329381612e94565b925060408501359150606085013567ffffffffffffffff8111156132b5575f80fd5b850160a081880312156132c6575f80fd5b939692955090935050565b5f805f805f8060c087890312156132e6575f80fd5b86356132f181612e94565b9550602087013561330181612e94565b9450604087013561331181612e94565b9350606087013561332181612e94565b9250608087013561333181612e94565b915060a087013561334181612e94565b809150509295509295509295565b5f8060408385031215613360575f80fd5b823561336b81612e94565b9150602083013561308c81612e94565b600181811c9082168061338f57607f821691505b602082108103611328577f4e487b71000000000000000000000000000000000000000000000000000000005f52602260045260245ffd5b7f4e487b71000000000000000000000000000000000000000000000000000000005f52601160045260245ffd5b8181038181111561096c5761096c6133c6565b6001815b600184111561344157808504811115613425576134256133c6565b600184161561343357908102905b60019390931c92800261340a565b935093915050565b5f826134575750600161096c565b8161346357505f61096c565b816001811461347957600281146134835761349f565b600191505061096c565b60ff841115613494576134946133c6565b50506001821b61096c565b5060208310610133831016604e8410600b84101617156134c2575081810a61096c565b6134ed7fffffffffffffffffffffffffffffffffffffffffffffffffffffffffffffffff8484613406565b807fffffffffffffffffffffffffffffffffffffffffffffffffffffffffffffffff0482111561351f5761351f6133c6565b029392505050565b5f6118e58383613449565b808202811582820484141761096c5761096c6133c6565b5f8261357c577f4e487b71000000000000000000000000000000000000000000000000000000005f52601260045260245ffd5b500490565b5f60208284031215613591575f80fd5b81516118e5816130b7565b5f7fffffffffffffffffffffffffffffffffffffffffffffffffffffffffffffffff82036135cc576135cc6133c6565b5060010190565b5f602082840312156135e3575f80fd5b6118e582612f99565b5f6118e560ff841683613449565b8082018082111561096c5761096c6133c6565b5f81518060208401855e5f93019283525090919050565b5f612d04613632838661360d565b8461360d565b73ffffffffffffffffffffffffffffffffffffffff8516815273ffffffffffffffffffffffffffffffffffffffff84166020820152826040820152608060608201525f6136886080830184612e1f565b9695505050505050565b5f602082840312156136a2575f80fd5b81516118e581612dd7565b601f821115610d4057805f5260205f20601f840160051c810160208510156136d25750805b601f840160051c820191505b818110156111a6575f81556001016136de565b815167ffffffffffffffff81111561370b5761370b612f1d565b61371f81613719845461337b565b846136ad565b6020601f821160018114613770575f831561373a5750848201515b7fffffffffffffffffffffffffffffffffffffffffffffffffffffffffffffffff600385901b1c1916600184901b1784556111a6565b5f848152602081207fffffffffffffffffffffffffffffffffffffffffffffffffffffffffffffffe08516915b828110156137bd578785015182556020948501946001909201910161379d565b50848210156137f957868401517fffffffffffffffffffffffffffffffffffffffffffffffffffffffffffffffff600387901b60f8161c191681555b50505050600190811b0190555056fea2646970667358221220020493548325c2bdf13742bb80c0dc9e945ec735594fee152f74e921c48bfb1c64736f6c634300081a0033","linkReferences":{}},"methodIdentifiers":{"DEFAULT_ADMIN_ROLE()":"a217fddf","MINTER_ROLE()":"d5391393","MODIFYALLOCATION_ROLE()":"e7830b4a","STABILIZER_NFT_ROLE()":"c28f9a4c","addCollateral(uint256)":"bcc46e83","addStabilizerCollateral(uint256)":"91ad2d82","approve(address,uint256)":"095ea7b3","balanceOf(address)":"70a08231","burn(uint256)":"42966c68","getApproved(uint256)":"081812fc","getCollateralizationRatio(uint256,uint256,uint8)":"bbc10809","getPosition(uint256)":"eb02c301","getRoleAdmin(bytes32)":"248a9ca3","getTokenByOwner(address)":"2bf79c94","grantRole(bytes32,address)":"2f2ff15d","hasRole(bytes32,address)":"91d14854","initialize(address,address,address,address,address,address)":"cc2a9a5b","isApprovedForAll(address,address)":"e985e9c5","lido()":"23509a2d","mint(address)":"6a627842","modifyAllocation(uint256,uint256)":"341c49af","name()":"06fdde03","oracle()":"7dc0d1d0","ownerOf(uint256)":"6352211e","rateContract()":"eee24219","removeCollateral(uint256,address,uint256,(uint256,uint8,uint256))":"ab50355e","removeExcessCollateral(uint256,uint256,(uint256,uint8,uint256))":"6520ace5","removeExcessStabilizerCollateral(uint256,uint256,(uint256,uint8,uint256))":"25de1be8","renounceRole(bytes32,address)":"36568abe","revokeRole(bytes32,address)":"d547741f","safeTransferFrom(address,address,uint256)":"42842e0e","safeTransferFrom(address,address,uint256,bytes)":"b88d4fde","setApprovalForAll(address,bool)":"a22cb465","stETH()":"c1fe3e48","stabilizerNFTContract()":"bec070d6","supportsInterface(bytes4)":"01ffc9a7","symbol()":"95d89b41","tokenURI(uint256)":"c87b56dd","transferCollateral(uint256,address,uint256,(uint256,uint8,uint256,bytes32,bytes))":"c0579f2b","transferFrom(address,address,uint256)":"23b872dd"},"storageLayout":{"storage":[{"astId":56263,"contract":"src/UspdCollateralizedPositionNFT.sol:UspdCollateralizedPositionNFT","label":"oracle","offset":0,"slot":"0","type":"t_contract(PriceOracle)54135"},{"astId":56266,"contract":"src/UspdCollateralizedPositionNFT.sol:UspdCollateralizedPositionNFT","label":"stETH","offset":0,"slot":"1","type":"t_contract(IERC20)43744"},{"astId":56269,"contract":"src/UspdCollateralizedPositionNFT.sol:UspdCollateralizedPositionNFT","label":"lido","offset":0,"slot":"2","type":"t_contract(ILido)57458"},{"astId":56272,"contract":"src/UspdCollateralizedPositionNFT.sol:UspdCollateralizedPositionNFT","label":"rateContract","offset":0,"slot":"3","type":"t_contract(IPoolSharesConversionRate)57487"},{"astId":56274,"contract":"src/UspdCollateralizedPositionNFT.sol:UspdCollateralizedPositionNFT","label":"stabilizerNFTContract","offset":0,"slot":"4","type":"t_address"},{"astId":56279,"contract":"src/UspdCollateralizedPositionNFT.sol:UspdCollateralizedPositionNFT","label":"_positions","offset":0,"slot":"5","type":"t_mapping(t_uint256,t_struct(Position)57628_storage)"},{"astId":56283,"contract":"src/UspdCollateralizedPositionNFT.sol:UspdCollateralizedPositionNFT","label":"_ownerToken","offset":0,"slot":"6","type":"t_mapping(t_address,t_uint256)"},{"astId":56324,"contract":"src/UspdCollateralizedPositionNFT.sol:UspdCollateralizedPositionNFT","label":"_nextPositionId","offset":0,"slot":"7","type":"t_uint256"}],"types":{"t_address":{"encoding":"inplace","label":"address","numberOfBytes":"20"},"t_contract(IERC20)43744":{"encoding":"inplace","label":"contract IERC20","numberOfBytes":"20"},"t_contract(ILido)57458":{"encoding":"inplace","label":"contract ILido","numberOfBytes":"20"},"t_contract(IPoolSharesConversionRate)57487":{"encoding":"inplace","label":"contract IPoolSharesConversionRate","numberOfBytes":"20"},"t_contract(PriceOracle)54135":{"encoding":"inplace","label":"contract PriceOracle","numberOfBytes":"20"},"t_mapping(t_address,t_uint256)":{"encoding":"mapping","key":"t_address","label":"mapping(address => uint256)","numberOfBytes":"32","value":"t_uint256"},"t_mapping(t_uint256,t_struct(Position)57628_storage)":{"encoding":"mapping","key":"t_uint256","label":"mapping(uint256 => struct IUspdCollateralizedPositionNFT.Position)","numberOfBytes":"32","value":"t_struct(Position)57628_storage"},"t_struct(Position)57628_storage":{"encoding":"inplace","label":"struct IUspdCollateralizedPositionNFT.Position","numberOfBytes":"64","members":[{"astId":57625,"contract":"src/UspdCollateralizedPositionNFT.sol:UspdCollateralizedPositionNFT","label":"allocatedEth","offset":0,"slot":"0","type":"t_uint256"},{"astId":57627,"contract":"src/UspdCollateralizedPositionNFT.sol:UspdCollateralizedPositionNFT","label":"backedUspd","offset":0,"slot":"1","type":"t_uint256"}]},"t_uint256":{"encoding":"inplace","label":"uint256","numberOfBytes":"32"}}},"id":78}