{"abi":[{"type":"constructor","inputs":[],"stateMutability":"nonpayable"},{"type":"function","name":"MINIMUM_ESCROW_AMOUNT","inputs":[],"outputs":[{"name":"","type":"uint256","internalType":"uint256"}],"stateMutability":"view"},{"type":"function","name":"approveAllocation","inputs":[{"name":"amount","type":"uint256","internalType":"uint256"},{"name":"positionNFTAddress","type":"address","internalType":"address"}],"outputs":[],"stateMutability":"nonpayable"},{"type":"function","name":"deposit","inputs":[],"outputs":[],"stateMutability":"payable"},{"type":"function","name":"initialize","inputs":[{"name":"_stabilizerNFT","type":"address","internalType":"address"},{"name":"_tokenId","type":"uint256","internalType":"uint256"},{"name":"_stETH","type":"address","internalType":"address"},{"name":"_lido","type":"address","internalType":"address"}],"outputs":[],"stateMutability":"nonpayable"},{"type":"function","name":"lido","inputs":[],"outputs":[{"name":"","type":"address","internalType":"address"}],"stateMutability":"view"},{"type":"function","name":"stETH","inputs":[],"outputs":[{"name":"","type":"address","internalType":"address"}],"stateMutability":"view"},{"type":"function","name":"stabilizerNFTContract","inputs":[],"outputs":[{"name":"","type":"address","internalType":"address"}],"stateMutability":"view"},{"type":"function","name":"stabilizerOwner","inputs":[],"outputs":[{"name":"","type":"address","internalType":"address"}],"stateMutability":"view"},{"type":"function","name":"tokenId","inputs":[],"outputs":[{"name":"","type":"uint256","internalType":"uint256"}],"stateMutability":"view"},{"type":"function","name":"unallocatedStETH","inputs":[],"outputs":[{"name":"","type":"uint256","internalType":"uint256"}],"stateMutability":"view"},{"type":"function","name":"unallocatedStETHBalance","inputs":[],"outputs":[{"name":"","type":"uint256","internalType":"uint256"}],"stateMutability":"view"},{"type":"function","name":"updateBalance","inputs":[{"name":"delta","type":"int256","internalType":"int256"}],"outputs":[],"stateMutability":"nonpayable"},{"type":"function","name":"withdrawExcessStEthBalance","inputs":[],"outputs":[],"stateMutability":"nonpayable"},{"type":"function","name":"withdrawForAllocation","inputs":[{"name":"amount","type":"uint256","internalType":"uint256"},{"name":"recipient","type":"address","internalType":"address"}],"outputs":[],"stateMutability":"nonpayable"},{"type":"function","name":"withdrawUnallocated","inputs":[{"name":"amount","type":"uint256","internalType":"uint256"}],"outputs":[],"stateMutability":"nonpayable"},{"type":"event","name":"AllocationApproved","inputs":[{"name":"spender","type":"address","indexed":true,"internalType":"address"},{"name":"amount","type":"uint256","indexed":false,"internalType":"uint256"}],"anonymous":false},{"type":"event","name":"BalanceUpdated","inputs":[{"name":"delta","type":"int256","indexed":false,"internalType":"int256"},{"name":"newBalance","type":"uint256","indexed":false,"internalType":"uint256"}],"anonymous":false},{"type":"event","name":"DepositReceived","inputs":[{"name":"amount","type":"uint256","indexed":false,"internalType":"uint256"}],"anonymous":false},{"type":"event","name":"ExcessWithdrawn","inputs":[{"name":"recipient","type":"address","indexed":true,"internalType":"address"},{"name":"amount","type":"uint256","indexed":false,"internalType":"uint256"}],"anonymous":false},{"type":"event","name":"Initialized","inputs":[{"name":"version","type":"uint64","indexed":false,"internalType":"uint64"}],"anonymous":false},{"type":"event","name":"WithdrawalCompleted","inputs":[{"name":"recipient","type":"address","indexed":true,"internalType":"address"},{"name":"amount","type":"uint256","indexed":false,"internalType":"uint256"}],"anonymous":false},{"type":"error","name":"BalanceUpdateFailed","inputs":[]},{"type":"error","name":"DepositFailed","inputs":[]},{"type":"error","name":"ERC20InsufficientAllowance","inputs":[{"name":"spender","type":"address","internalType":"address"},{"name":"allowance","type":"uint256","internalType":"uint256"},{"name":"needed","type":"uint256","internalType":"uint256"}]},{"type":"error","name":"ERC20InsufficientBalance","inputs":[{"name":"sender","type":"address","internalType":"address"},{"name":"balance","type":"uint256","internalType":"uint256"},{"name":"needed","type":"uint256","internalType":"uint256"}]},{"type":"error","name":"ERC20InvalidApprover","inputs":[{"name":"approver","type":"address","internalType":"address"}]},{"type":"error","name":"ERC20InvalidReceiver","inputs":[{"name":"receiver","type":"address","internalType":"address"}]},{"type":"error","name":"ERC20InvalidSender","inputs":[{"name":"sender","type":"address","internalType":"address"}]},{"type":"error","name":"ERC20InvalidSpender","inputs":[{"name":"spender","type":"address","internalType":"address"}]},{"type":"error","name":"InitialDepositFailed","inputs":[]},{"type":"error","name":"InsufficientEscrowAmount","inputs":[{"name":"currentBalance","type":"uint256","internalType":"uint256"},{"name":"depositAmount","type":"uint256","internalType":"uint256"},{"name":"minimumAmount","type":"uint256","internalType":"uint256"}]},{"type":"error","name":"InvalidInitialization","inputs":[]},{"type":"error","name":"NotInitializing","inputs":[]},{"type":"error","name":"NotNFTOwner","inputs":[]},{"type":"error","name":"TransferFailed","inputs":[]},{"type":"error","name":"WithdrawalWouldLeaveDust","inputs":[]},{"type":"error","name":"ZeroAddress","inputs":[]},{"type":"error","name":"ZeroAmount","inputs":[]}],"bytecode":{"object":"0x6080604052348015600e575f5ffd5b5060156019565b60c9565b7ff0c57e16840df040f15088dc2f81fe391c3923bec73e23a9662efc9c229c6a00805468010000000000000000900460ff161560685760405163f92ee8a960e01b815260040160405180910390fd5b80546001600160401b039081161460c65780546001600160401b0319166001600160401b0390811782556040519081527fc7f505b2f371ae2175ee4913f4499e1f2633a7b5936321eed1cdaeb6115181d29060200160405180910390a15b50565b61105a806100d65f395ff3fe6080604052600436106100e4575f3560e01c80637d810c2a11610087578063c1fe3e4811610057578063c1fe3e481461023f578063d0e30db01461025e578063ec60b9ab14610266578063fbae0ade1461027a575f5ffd5b80637d810c2a146101cf578063878a672c146101ee578063a901540014610202578063bec070d614610221575f5ffd5b806323509a2d116100c257806323509a2d14610146578063358394d81461017d5780634f68ae751461019c5780637d0e9bba146101bb575f5ffd5b806316f637ff146100e8578063171b01881461011057806317d70f7c14610131575b5f5ffd5b3480156100f3575f5ffd5b506100fd60045481565b6040519081526020015b60405180910390f35b34801561011b575f5ffd5b5061012f61012a366004610e75565b610295565b005b34801561013c575f5ffd5b506100fd60015481565b348015610151575f5ffd5b50600354610165906001600160a01b031681565b6040516001600160a01b039091168152602001610107565b348015610188575f5ffd5b5061012f610197366004610ea3565b61034f565b3480156101a7575f5ffd5b5061012f6101b6366004610ef3565b6104d0565b3480156101c6575f5ffd5b50610165610631565b3480156101da575f5ffd5b5061012f6101e9366004610ef3565b6106aa565b3480156101f9575f5ffd5b5061012f610831565b34801561020d575f5ffd5b5061012f61021c366004610e75565b610a2b565b34801561022c575f5ffd5b505f54610165906001600160a01b031681565b34801561024a575f5ffd5b50600254610165906001600160a01b031681565b61012f610c96565b348015610271575f5ffd5b506004546100fd565b348015610285575f5ffd5b506100fd67016345785d8a000081565b5f546001600160a01b031633146102c75760405162461bcd60e51b81526004016102be90610f21565b60405180910390fd5b6004545f808313156102e4576102dd8383610f6c565b905061031f565b5f6102ee84610f7f565b9050828111156103115760405163619c7f5b60e11b815260040160405180910390fd5b61031b8184610f99565b9150505b600481905560408051848152602081018390525f5160206110055f395f51905f52910160405180910390a1505050565b5f610358610e4b565b805490915060ff600160401b820416159067ffffffffffffffff165f8115801561037f5750825b90505f8267ffffffffffffffff16600114801561039b5750303b155b9050811580156103a9575080155b156103c75760405163f92ee8a960e01b815260040160405180910390fd5b845467ffffffffffffffff1916600117855583156103f157845460ff60401b1916600160401b1785555b6001600160a01b038916158061040e57506001600160a01b038716155b8061042057506001600160a01b038616155b1561043e5760405163d92e233d60e01b815260040160405180910390fd5b5f80546001600160a01b03808c166001600160a01b03199283161790925560018a9055600280548a8416908316179055600380549289169290911691909117905583156104c557845460ff60401b19168555604051600181527fc7f505b2f371ae2175ee4913f4499e1f2633a7b5936321eed1cdaeb6115181d29060200160405180910390a15b505050505050505050565b5f546001600160a01b031633146104f95760405162461bcd60e51b81526004016102be90610f21565b815f0361051957604051631f2a200560e01b815260040160405180910390fd5b6001600160a01b0381166105405760405163d92e233d60e01b815260040160405180910390fd5b600454808311156105745760405163391434e360e21b815230600482015260248101829052604481018490526064016102be565b60025460405163095ea7b360e01b81526001600160a01b038481166004830152602482018690529091169063095ea7b3906044016020604051808303815f875af11580156105c4573d5f5f3e3d5ffd5b505050506040513d601f19601f820116820180604052508101906105e89190610fac565b50816001600160a01b03167fd4ff9b9c0e7f96a5697a4d12df976cbce4f79f135c350cc8014ce7ecfe4ed25e8460405161062491815260200190565b60405180910390a2505050565b5f80546001546040516331a9108f60e11b81526001600160a01b0390921691636352211e916106669160040190815260200190565b602060405180830381865afa158015610681573d5f5f3e3d5ffd5b505050506040513d601f19601f820116820180604052508101906106a59190610fd2565b905090565b5f546001600160a01b031633146106d35760405162461bcd60e51b81526004016102be90610f21565b815f036106f357604051631f2a200560e01b815260040160405180910390fd5b6001600160a01b03811661071a5760405163d92e233d60e01b815260040160405180910390fd5b6004548083111561074e5760405163391434e360e21b815230600482015260248101829052604481018490526064016102be565b60025460405163a9059cbb60e01b81526001600160a01b038481166004830152602482018690525f92169063a9059cbb906044016020604051808303815f875af115801561079e573d5f5f3e3d5ffd5b505050506040513d601f19601f820116820180604052508101906107c29190610fac565b9050806107e2576040516312171d8360e31b815260040160405180910390fd5b8360045f8282546107f39190610f99565b909155505f5160206110055f395f51905f52905061081085610f7f565b6004546040805192835260208301919091520160405180910390a150505050565b5f546001546040516331a9108f60e11b81526001600160a01b0390921691636352211e916108659160040190815260200190565b602060405180830381865afa158015610880573d5f5f3e3d5ffd5b505050506040513d601f19601f820116820180604052508101906108a49190610fd2565b6001600160a01b0316336001600160a01b0316146108d557604051631022318760e21b815260040160405180910390fd5b6002546040516370a0823160e01b81523060048201525f916001600160a01b0316906370a0823190602401602060405180830381865afa15801561091b573d5f5f3e3d5ffd5b505050506040513d601f19601f8201168201806040525081019061093f9190610fed565b60045490915080821115610a27575f6109588284610f99565b60025460405163a9059cbb60e01b8152336004820152602481018390529192505f916001600160a01b039091169063a9059cbb906044016020604051808303815f875af11580156109ab573d5f5f3e3d5ffd5b505050506040513d601f19601f820116820180604052508101906109cf9190610fac565b9050806109ef576040516312171d8360e31b815260040160405180910390fd5b60405182815233907f9bdedcc968f2c0682145c20289dfbb3081a39684571116ab45eabfef512e94739060200160405180910390a250505b5050565b5f546001600160a01b03163314610a545760405162461bcd60e51b81526004016102be90610f21565b805f03610a7457604051631f2a200560e01b815260040160405180910390fd5b60045480821115610aa85760405163391434e360e21b815230600482015260248101829052604481018390526064016102be565b5f610ab38383610f99565b90505f81118015610acb575067016345785d8a000081105b15610ae957604051637614d15160e11b815260040160405180910390fd5b5f80546001546040516331a9108f60e11b81526001600160a01b0390921691636352211e91610b1e9160040190815260200190565b602060405180830381865afa158015610b39573d5f5f3e3d5ffd5b505050506040513d601f19601f82011682018060405250810190610b5d9190610fd2565b90506001600160a01b038116610b865760405163d92e233d60e01b815260040160405180910390fd5b60025460405163a9059cbb60e01b81526001600160a01b038381166004830152602482018790525f92169063a9059cbb906044016020604051808303815f875af1158015610bd6573d5f5f3e3d5ffd5b505050506040513d601f19601f82011682018060405250810190610bfa9190610fac565b905080610c1a576040516312171d8360e31b815260040160405180910390fd5b60048390556040518581526001600160a01b038316907f1a39b9c5044b9f0ff56c5951e30c1ebe24911353aafcceb9250e83a24fe158c49060200160405180910390a25f5160206110055f395f51905f52610c7486610f7f565b6004546040805192835260208301919091520160405180910390a15050505050565b5f546001600160a01b03163314610cbf5760405162461bcd60e51b81526004016102be90610f21565b345f03610cdf57604051631f2a200560e01b815260040160405180910390fd5b67016345785d8a000034600454610cf69190610f6c565b1015610d2d576004805460405163015643f760e01b81529182015234602482015267016345785d8a000060448201526064016102be565b60035460405163a1903eab60e01b81525f60048201819052916001600160a01b03169063a1903eab90349060240160206040518083038185885af193505050508015610d96575060408051601f3d908101601f19168201909252610d9391810190610fed565b60015b610db3576040516379cacff160e01b815260040160405180910390fd5b9050805f03610dd5576040516379cacff160e01b815260040160405180910390fd5b8060045f828254610de69190610f6c565b90915550506040513481527fa1ab46d0e38f33a7b1f03853088a305927deb55c906370ff5d6d2bc732f150959060200160405180910390a16004546040805183815260208101929092525f5160206110055f395f51905f52910160405180910390a150565b5f807ff0c57e16840df040f15088dc2f81fe391c3923bec73e23a9662efc9c229c6a005b92915050565b5f60208284031215610e85575f5ffd5b5035919050565b6001600160a01b0381168114610ea0575f5ffd5b50565b5f5f5f5f60808587031215610eb6575f5ffd5b8435610ec181610e8c565b9350602085013592506040850135610ed881610e8c565b91506060850135610ee881610e8c565b939692955090935050565b5f5f60408385031215610f04575f5ffd5b823591506020830135610f1681610e8c565b809150509250929050565b6020808252601b908201527f43616c6c6572206973206e6f742053746162696c697a65724e46540000000000604082015260600190565b634e487b7160e01b5f52601160045260245ffd5b80820180821115610e6f57610e6f610f58565b5f600160ff1b8201610f9357610f93610f58565b505f0390565b81810381811115610e6f57610e6f610f58565b5f60208284031215610fbc575f5ffd5b81518015158114610fcb575f5ffd5b9392505050565b5f60208284031215610fe2575f5ffd5b8151610fcb81610e8c565b5f60208284031215610ffd575f5ffd5b505191905056fe149e2ad4c3719ec0acdfb19acc4b31eaa110fd8e4c4f78512870123d9839fb0da26469706673582212206353a8f02c42774bcc50de7555ecb118001e69e6d0c4f864dc2d2f162c0d81d364736f6c634300081d0033","linkReferences":{}},"methodIdentifiers":{"MINIMUM_ESCROW_AMOUNT()":"fbae0ade","approveAllocation(uint256,address)":"4f68ae75","deposit()":"d0e30db0","initialize(address,uint256,address,address)":"358394d8","lido()":"23509a2d","stETH()":"c1fe3e48","stabilizerNFTContract()":"bec070d6","stabilizerOwner()":"7d0e9bba","tokenId()":"17d70f7c","unallocatedStETH()":"ec60b9ab","unallocatedStETHBalance()":"16f637ff","updateBalance(int256)":"171b0188","withdrawExcessStEthBalance()":"878a672c","withdrawForAllocation(uint256,address)":"7d810c2a","withdrawUnallocated(uint256)":"a9015400"},"storageLayout":{"storage":[{"astId":54852,"contract":"src/StabilizerEscrow.sol:StabilizerEscrow","label":"stabilizerNFTContract","offset":0,"slot":"0","type":"t_address"},{"astId":54854,"contract":"src/StabilizerEscrow.sol:StabilizerEscrow","label":"tokenId","offset":0,"slot":"1","type":"t_uint256"},{"astId":54856,"contract":"src/StabilizerEscrow.sol:StabilizerEscrow","label":"stETH","offset":0,"slot":"2","type":"t_address"},{"astId":54858,"contract":"src/StabilizerEscrow.sol:StabilizerEscrow","label":"lido","offset":0,"slot":"3","type":"t_address"},{"astId":54860,"contract":"src/StabilizerEscrow.sol:StabilizerEscrow","label":"unallocatedStETHBalance","offset":0,"slot":"4","type":"t_uint256"}],"types":{"t_address":{"encoding":"inplace","label":"address","numberOfBytes":"20"},"t_uint256":{"encoding":"inplace","label":"uint256","numberOfBytes":"32"}}},"id":78}