{"abi":[{"type":"constructor","inputs":[],"stateMutability":"nonpayable"},{"type":"function","name":"MINIMUM_ESCROW_AMOUNT","inputs":[],"outputs":[{"name":"","type":"uint256","internalType":"uint256"}],"stateMutability":"view"},{"type":"function","name":"approveAllocation","inputs":[{"name":"amount","type":"uint256","internalType":"uint256"},{"name":"positionNFTAddress","type":"address","internalType":"address"}],"outputs":[],"stateMutability":"nonpayable"},{"type":"function","name":"checkMinimumAndUpdateBalance","inputs":[{"name":"stETHAmount","type":"uint256","internalType":"uint256"}],"outputs":[],"stateMutability":"nonpayable"},{"type":"function","name":"deposit","inputs":[],"outputs":[],"stateMutability":"payable"},{"type":"function","name":"initialize","inputs":[{"name":"_stabilizerNFT","type":"address","internalType":"address"},{"name":"_tokenId","type":"uint256","internalType":"uint256"},{"name":"_stETH","type":"address","internalType":"address"},{"name":"_lido","type":"address","internalType":"address"}],"outputs":[],"stateMutability":"nonpayable"},{"type":"function","name":"lido","inputs":[],"outputs":[{"name":"","type":"address","internalType":"address"}],"stateMutability":"view"},{"type":"function","name":"stETH","inputs":[],"outputs":[{"name":"","type":"address","internalType":"address"}],"stateMutability":"view"},{"type":"function","name":"stabilizerNFTContract","inputs":[],"outputs":[{"name":"","type":"address","internalType":"address"}],"stateMutability":"view"},{"type":"function","name":"stabilizerOwner","inputs":[],"outputs":[{"name":"","type":"address","internalType":"address"}],"stateMutability":"view"},{"type":"function","name":"tokenId","inputs":[],"outputs":[{"name":"","type":"uint256","internalType":"uint256"}],"stateMutability":"view"},{"type":"function","name":"unallocatedStETH","inputs":[],"outputs":[{"name":"","type":"uint256","internalType":"uint256"}],"stateMutability":"view"},{"type":"function","name":"unallocatedStETHBalance","inputs":[],"outputs":[{"name":"","type":"uint256","internalType":"uint256"}],"stateMutability":"view"},{"type":"function","name":"updateBalance","inputs":[{"name":"delta","type":"int256","internalType":"int256"}],"outputs":[],"stateMutability":"nonpayable"},{"type":"function","name":"withdrawExcessStEthBalance","inputs":[],"outputs":[],"stateMutability":"nonpayable"},{"type":"function","name":"withdrawForAllocation","inputs":[{"name":"amount","type":"uint256","internalType":"uint256"},{"name":"recipient","type":"address","internalType":"address"}],"outputs":[],"stateMutability":"nonpayable"},{"type":"function","name":"withdrawUnallocated","inputs":[{"name":"amount","type":"uint256","internalType":"uint256"}],"outputs":[],"stateMutability":"nonpayable"},{"type":"event","name":"AllocationApproved","inputs":[{"name":"spender","type":"address","indexed":true,"internalType":"address"},{"name":"amount","type":"uint256","indexed":false,"internalType":"uint256"}],"anonymous":false},{"type":"event","name":"BalanceUpdated","inputs":[{"name":"delta","type":"int256","indexed":false,"internalType":"int256"},{"name":"newBalance","type":"uint256","indexed":false,"internalType":"uint256"}],"anonymous":false},{"type":"event","name":"DepositReceived","inputs":[{"name":"amount","type":"uint256","indexed":false,"internalType":"uint256"}],"anonymous":false},{"type":"event","name":"ExcessWithdrawn","inputs":[{"name":"recipient","type":"address","indexed":true,"internalType":"address"},{"name":"amount","type":"uint256","indexed":false,"internalType":"uint256"}],"anonymous":false},{"type":"event","name":"Initialized","inputs":[{"name":"version","type":"uint64","indexed":false,"internalType":"uint64"}],"anonymous":false},{"type":"event","name":"WithdrawalCompleted","inputs":[{"name":"recipient","type":"address","indexed":true,"internalType":"address"},{"name":"amount","type":"uint256","indexed":false,"internalType":"uint256"}],"anonymous":false},{"type":"error","name":"BalanceUpdateFailed","inputs":[]},{"type":"error","name":"DepositFailed","inputs":[]},{"type":"error","name":"ERC20InsufficientAllowance","inputs":[{"name":"spender","type":"address","internalType":"address"},{"name":"allowance","type":"uint256","internalType":"uint256"},{"name":"needed","type":"uint256","internalType":"uint256"}]},{"type":"error","name":"ERC20InsufficientBalance","inputs":[{"name":"sender","type":"address","internalType":"address"},{"name":"balance","type":"uint256","internalType":"uint256"},{"name":"needed","type":"uint256","internalType":"uint256"}]},{"type":"error","name":"ERC20InvalidApprover","inputs":[{"name":"approver","type":"address","internalType":"address"}]},{"type":"error","name":"ERC20InvalidReceiver","inputs":[{"name":"receiver","type":"address","internalType":"address"}]},{"type":"error","name":"ERC20InvalidSender","inputs":[{"name":"sender","type":"address","internalType":"address"}]},{"type":"error","name":"ERC20InvalidSpender","inputs":[{"name":"spender","type":"address","internalType":"address"}]},{"type":"error","name":"InitialDepositFailed","inputs":[]},{"type":"error","name":"InsufficientEscrowAmount","inputs":[{"name":"currentBalance","type":"uint256","internalType":"uint256"},{"name":"depositAmount","type":"uint256","internalType":"uint256"},{"name":"minimumAmount","type":"uint256","internalType":"uint256"}]},{"type":"error","name":"InvalidInitialization","inputs":[]},{"type":"error","name":"NotInitializing","inputs":[]},{"type":"error","name":"NotNFTOwner","inputs":[]},{"type":"error","name":"TransferFailed","inputs":[]},{"type":"error","name":"WithdrawalWouldLeaveDust","inputs":[]},{"type":"error","name":"ZeroAddress","inputs":[]},{"type":"error","name":"ZeroAmount","inputs":[]}],"bytecode":{"object":"0x6080604052348015600e575f5ffd5b5060156019565b60c9565b7ff0c57e16840df040f15088dc2f81fe391c3923bec73e23a9662efc9c229c6a00805468010000000000000000900460ff161560685760405163f92ee8a960e01b815260040160405180910390fd5b80546001600160401b039081161460c65780546001600160401b0319166001600160401b0390811782556040519081527fc7f505b2f371ae2175ee4913f4499e1f2633a7b5936321eed1cdaeb6115181d29060200160405180910390a15b50565b611226806100d65f395ff3fe6080604052600436106100ef575f3560e01c8063878a672c11610087578063d0e30db011610057578063d0e30db014610269578063ec60b9ab14610271578063ecb772e014610285578063fbae0ade146102a4575f5ffd5b8063878a672c146101f9578063a90154001461020d578063bec070d61461022c578063c1fe3e481461024a575f5ffd5b8063358394d8116100c2578063358394d8146101885780634f68ae75146101a75780637d0e9bba146101c65780637d810c2a146101da575f5ffd5b806316f637ff146100f3578063171b01881461011b57806317d70f7c1461013c57806323509a2d14610151575b5f5ffd5b3480156100fe575f5ffd5b5061010860045481565b6040519081526020015b60405180910390f35b348015610126575f5ffd5b5061013a610135366004611041565b6102bf565b005b348015610147575f5ffd5b5061010860015481565b34801561015c575f5ffd5b50600354610170906001600160a01b031681565b6040516001600160a01b039091168152602001610112565b348015610193575f5ffd5b5061013a6101a236600461106f565b610379565b3480156101b2575f5ffd5b5061013a6101c13660046110bf565b6104fa565b3480156101d1575f5ffd5b5061017061065b565b3480156101e5575f5ffd5b5061013a6101f43660046110bf565b6106d4565b348015610204575f5ffd5b5061013a61085b565b348015610218575f5ffd5b5061013a610227366004611041565b610a55565b348015610237575f5ffd5b505f54610170906001600160a01b031681565b348015610255575f5ffd5b50600254610170906001600160a01b031681565b61013a610cc0565b34801561027c575f5ffd5b50600454610108565b348015610290575f5ffd5b5061013a61029f366004611041565b610f5c565b3480156102af575f5ffd5b5061010867016345785d8a000081565b5f546001600160a01b031633146102f15760405162461bcd60e51b81526004016102e8906110ed565b60405180910390fd5b6004545f8083131561030e576103078383611138565b9050610349565b5f6103188461114b565b90508281111561033b5760405163619c7f5b60e11b815260040160405180910390fd5b6103458184611165565b9150505b600481905560408051848152602081018390525f5160206111d15f395f51905f52910160405180910390a1505050565b5f610382611017565b805490915060ff600160401b820416159067ffffffffffffffff165f811580156103a95750825b90505f8267ffffffffffffffff1660011480156103c55750303b155b9050811580156103d3575080155b156103f15760405163f92ee8a960e01b815260040160405180910390fd5b845467ffffffffffffffff19166001178555831561041b57845460ff60401b1916600160401b1785555b6001600160a01b038916158061043857506001600160a01b038716155b8061044a57506001600160a01b038616155b156104685760405163d92e233d60e01b815260040160405180910390fd5b5f80546001600160a01b03808c166001600160a01b03199283161790925560018a9055600280548a8416908316179055600380549289169290911691909117905583156104ef57845460ff60401b19168555604051600181527fc7f505b2f371ae2175ee4913f4499e1f2633a7b5936321eed1cdaeb6115181d29060200160405180910390a15b505050505050505050565b5f546001600160a01b031633146105235760405162461bcd60e51b81526004016102e8906110ed565b815f0361054357604051631f2a200560e01b815260040160405180910390fd5b6001600160a01b03811661056a5760405163d92e233d60e01b815260040160405180910390fd5b6004548083111561059e5760405163391434e360e21b815230600482015260248101829052604481018490526064016102e8565b60025460405163095ea7b360e01b81526001600160a01b038481166004830152602482018690529091169063095ea7b3906044016020604051808303815f875af11580156105ee573d5f5f3e3d5ffd5b505050506040513d601f19601f820116820180604052508101906106129190611178565b50816001600160a01b03167fd4ff9b9c0e7f96a5697a4d12df976cbce4f79f135c350cc8014ce7ecfe4ed25e8460405161064e91815260200190565b60405180910390a2505050565b5f80546001546040516331a9108f60e11b81526001600160a01b0390921691636352211e916106909160040190815260200190565b602060405180830381865afa1580156106ab573d5f5f3e3d5ffd5b505050506040513d601f19601f820116820180604052508101906106cf919061119e565b905090565b5f546001600160a01b031633146106fd5760405162461bcd60e51b81526004016102e8906110ed565b815f0361071d57604051631f2a200560e01b815260040160405180910390fd5b6001600160a01b0381166107445760405163d92e233d60e01b815260040160405180910390fd5b600454808311156107785760405163391434e360e21b815230600482015260248101829052604481018490526064016102e8565b60025460405163a9059cbb60e01b81526001600160a01b038481166004830152602482018690525f92169063a9059cbb906044016020604051808303815f875af11580156107c8573d5f5f3e3d5ffd5b505050506040513d601f19601f820116820180604052508101906107ec9190611178565b90508061080c576040516312171d8360e31b815260040160405180910390fd5b8360045f82825461081d9190611165565b909155505f5160206111d15f395f51905f52905061083a8561114b565b6004546040805192835260208301919091520160405180910390a150505050565b5f546001546040516331a9108f60e11b81526001600160a01b0390921691636352211e9161088f9160040190815260200190565b602060405180830381865afa1580156108aa573d5f5f3e3d5ffd5b505050506040513d601f19601f820116820180604052508101906108ce919061119e565b6001600160a01b0316336001600160a01b0316146108ff57604051631022318760e21b815260040160405180910390fd5b6002546040516370a0823160e01b81523060048201525f916001600160a01b0316906370a0823190602401602060405180830381865afa158015610945573d5f5f3e3d5ffd5b505050506040513d601f19601f8201168201806040525081019061096991906111b9565b60045490915080821115610a51575f6109828284611165565b60025460405163a9059cbb60e01b8152336004820152602481018390529192505f916001600160a01b039091169063a9059cbb906044016020604051808303815f875af11580156109d5573d5f5f3e3d5ffd5b505050506040513d601f19601f820116820180604052508101906109f99190611178565b905080610a19576040516312171d8360e31b815260040160405180910390fd5b60405182815233907f9bdedcc968f2c0682145c20289dfbb3081a39684571116ab45eabfef512e94739060200160405180910390a250505b5050565b5f546001600160a01b03163314610a7e5760405162461bcd60e51b81526004016102e8906110ed565b805f03610a9e57604051631f2a200560e01b815260040160405180910390fd5b60045480821115610ad25760405163391434e360e21b815230600482015260248101829052604481018390526064016102e8565b5f610add8383611165565b90505f81118015610af5575067016345785d8a000081105b15610b1357604051637614d15160e11b815260040160405180910390fd5b5f80546001546040516331a9108f60e11b81526001600160a01b0390921691636352211e91610b489160040190815260200190565b602060405180830381865afa158015610b63573d5f5f3e3d5ffd5b505050506040513d601f19601f82011682018060405250810190610b87919061119e565b90506001600160a01b038116610bb05760405163d92e233d60e01b815260040160405180910390fd5b60025460405163a9059cbb60e01b81526001600160a01b038381166004830152602482018790525f92169063a9059cbb906044016020604051808303815f875af1158015610c00573d5f5f3e3d5ffd5b505050506040513d601f19601f82011682018060405250810190610c249190611178565b905080610c44576040516312171d8360e31b815260040160405180910390fd5b60048390556040518581526001600160a01b038316907f1a39b9c5044b9f0ff56c5951e30c1ebe24911353aafcceb9250e83a24fe158c49060200160405180910390a25f5160206111d15f395f51905f52610c9e8661114b565b6004546040805192835260208301919091520160405180910390a15050505050565b5f546001600160a01b03163314610ce95760405162461bcd60e51b81526004016102e8906110ed565b345f03610d0957604051631f2a200560e01b815260040160405180910390fd5b67016345785d8a000034600454610d209190611138565b1015610d57576004805460405163015643f760e01b81529182015234602482015267016345785d8a000060448201526064016102e8565b6002546040516370a0823160e01b81523060048201525f916001600160a01b0316906370a0823190602401602060405180830381865afa158015610d9d573d5f5f3e3d5ffd5b505050506040513d601f19601f82011682018060405250810190610dc191906111b9565b60035460405163a1903eab60e01b81525f600482018190529293506001600160a01b039091169063a1903eab90349060240160206040518083038185885af193505050508015610e2e575060408051601f3d908101601f19168201909252610e2b918101906111b9565b60015b610e4b576040516379cacff160e01b815260040160405180910390fd5b506002546040516370a0823160e01b81523060048201525f916001600160a01b0316906370a0823190602401602060405180830381865afa158015610e92573d5f5f3e3d5ffd5b505050506040513d601f19601f82011682018060405250810190610eb691906111b9565b9050610ec28382611165565b915050805f03610ee5576040516379cacff160e01b815260040160405180910390fd5b8060045f828254610ef69190611138565b90915550506040513481527fa1ab46d0e38f33a7b1f03853088a305927deb55c906370ff5d6d2bc732f150959060200160405180910390a16004546040805183815260208101929092525f5160206111d15f395f51905f52910160405180910390a15050565b5f546001600160a01b03163314610f855760405162461bcd60e51b81526004016102e8906110ed565b67016345785d8a000081600454610f9c9190611138565b1015610fd4576004805460405163015643f760e01b8152918201526024810182905267016345785d8a000060448201526064016102e8565b8060045f828254610fe59190611138565b90915550506004546040805183815260208101929092525f5160206111d15f395f51905f52910160405180910390a150565b5f807ff0c57e16840df040f15088dc2f81fe391c3923bec73e23a9662efc9c229c6a005b92915050565b5f60208284031215611051575f5ffd5b5035919050565b6001600160a01b038116811461106c575f5ffd5b50565b5f5f5f5f60808587031215611082575f5ffd5b843561108d81611058565b93506020850135925060408501356110a481611058565b915060608501356110b481611058565b939692955090935050565b5f5f604083850312156110d0575f5ffd5b8235915060208301356110e281611058565b809150509250929050565b6020808252601b908201527f43616c6c6572206973206e6f742053746162696c697a65724e46540000000000604082015260600190565b634e487b7160e01b5f52601160045260245ffd5b8082018082111561103b5761103b611124565b5f600160ff1b820161115f5761115f611124565b505f0390565b8181038181111561103b5761103b611124565b5f60208284031215611188575f5ffd5b81518015158114611197575f5ffd5b9392505050565b5f602082840312156111ae575f5ffd5b815161119781611058565b5f602082840312156111c9575f5ffd5b505191905056fe149e2ad4c3719ec0acdfb19acc4b31eaa110fd8e4c4f78512870123d9839fb0da26469706673582212203dbd1ba9a1c79ea8638827f5723d3ba1e1dd36890eb90b73169d45c329cd1aa364736f6c634300081d0033","linkReferences":{}},"methodIdentifiers":{"MINIMUM_ESCROW_AMOUNT()":"fbae0ade","approveAllocation(uint256,address)":"4f68ae75","checkMinimumAndUpdateBalance(uint256)":"ecb772e0","deposit()":"d0e30db0","initialize(address,uint256,address,address)":"358394d8","lido()":"23509a2d","stETH()":"c1fe3e48","stabilizerNFTContract()":"bec070d6","stabilizerOwner()":"7d0e9bba","tokenId()":"17d70f7c","unallocatedStETH()":"ec60b9ab","unallocatedStETHBalance()":"16f637ff","updateBalance(int256)":"171b0188","withdrawExcessStEthBalance()":"878a672c","withdrawForAllocation(uint256,address)":"7d810c2a","withdrawUnallocated(uint256)":"a9015400"},"storageLayout":{"storage":[{"astId":55100,"contract":"src/StabilizerEscrow.sol:StabilizerEscrow","label":"stabilizerNFTContract","offset":0,"slot":"0","type":"t_address"},{"astId":55102,"contract":"src/StabilizerEscrow.sol:StabilizerEscrow","label":"tokenId","offset":0,"slot":"1","type":"t_uint256"},{"astId":55104,"contract":"src/StabilizerEscrow.sol:StabilizerEscrow","label":"stETH","offset":0,"slot":"2","type":"t_address"},{"astId":55106,"contract":"src/StabilizerEscrow.sol:StabilizerEscrow","label":"lido","offset":0,"slot":"3","type":"t_address"},{"astId":55109,"contract":"src/StabilizerEscrow.sol:StabilizerEscrow","label":"unallocatedStETHBalance","offset":0,"slot":"4","type":"t_uint256"}],"types":{"t_address":{"encoding":"inplace","label":"address","numberOfBytes":"20"},"t_uint256":{"encoding":"inplace","label":"uint256","numberOfBytes":"32"}}},"id":78}