{"abi":[{"type":"constructor","inputs":[],"stateMutability":"nonpayable"},{"type":"function","name":"MINIMUM_ESCROW_AMOUNT","inputs":[],"outputs":[{"name":"","type":"uint256","internalType":"uint256"}],"stateMutability":"view"},{"type":"function","name":"approveAllocation","inputs":[{"name":"amount","type":"uint256","internalType":"uint256"},{"name":"positionNFTAddress","type":"address","internalType":"address"}],"outputs":[],"stateMutability":"nonpayable"},{"type":"function","name":"deposit","inputs":[],"outputs":[],"stateMutability":"payable"},{"type":"function","name":"initialize","inputs":[{"name":"_stabilizerNFT","type":"address","internalType":"address"},{"name":"_tokenId","type":"uint256","internalType":"uint256"},{"name":"_stETH","type":"address","internalType":"address"},{"name":"_lido","type":"address","internalType":"address"}],"outputs":[],"stateMutability":"nonpayable"},{"type":"function","name":"lido","inputs":[],"outputs":[{"name":"","type":"address","internalType":"address"}],"stateMutability":"view"},{"type":"function","name":"stETH","inputs":[],"outputs":[{"name":"","type":"address","internalType":"address"}],"stateMutability":"view"},{"type":"function","name":"stabilizerNFTContract","inputs":[],"outputs":[{"name":"","type":"address","internalType":"address"}],"stateMutability":"view"},{"type":"function","name":"stabilizerOwner","inputs":[],"outputs":[{"name":"","type":"address","internalType":"address"}],"stateMutability":"view"},{"type":"function","name":"tokenId","inputs":[],"outputs":[{"name":"","type":"uint256","internalType":"uint256"}],"stateMutability":"view"},{"type":"function","name":"unallocatedStETH","inputs":[],"outputs":[{"name":"","type":"uint256","internalType":"uint256"}],"stateMutability":"view"},{"type":"function","name":"withdrawUnallocated","inputs":[{"name":"amount","type":"uint256","internalType":"uint256"}],"outputs":[],"stateMutability":"nonpayable"},{"type":"event","name":"AllocationApproved","inputs":[{"name":"spender","type":"address","indexed":true,"internalType":"address"},{"name":"amount","type":"uint256","indexed":false,"internalType":"uint256"}],"anonymous":false},{"type":"event","name":"DepositReceived","inputs":[{"name":"amount","type":"uint256","indexed":false,"internalType":"uint256"}],"anonymous":false},{"type":"event","name":"Initialized","inputs":[{"name":"version","type":"uint64","indexed":false,"internalType":"uint64"}],"anonymous":false},{"type":"event","name":"WithdrawalCompleted","inputs":[{"name":"recipient","type":"address","indexed":true,"internalType":"address"},{"name":"amount","type":"uint256","indexed":false,"internalType":"uint256"}],"anonymous":false},{"type":"error","name":"DepositFailed","inputs":[]},{"type":"error","name":"ERC20InsufficientAllowance","inputs":[{"name":"spender","type":"address","internalType":"address"},{"name":"allowance","type":"uint256","internalType":"uint256"},{"name":"needed","type":"uint256","internalType":"uint256"}]},{"type":"error","name":"ERC20InsufficientBalance","inputs":[{"name":"sender","type":"address","internalType":"address"},{"name":"balance","type":"uint256","internalType":"uint256"},{"name":"needed","type":"uint256","internalType":"uint256"}]},{"type":"error","name":"ERC20InvalidApprover","inputs":[{"name":"approver","type":"address","internalType":"address"}]},{"type":"error","name":"ERC20InvalidReceiver","inputs":[{"name":"receiver","type":"address","internalType":"address"}]},{"type":"error","name":"ERC20InvalidSender","inputs":[{"name":"sender","type":"address","internalType":"address"}]},{"type":"error","name":"ERC20InvalidSpender","inputs":[{"name":"spender","type":"address","internalType":"address"}]},{"type":"error","name":"InitialDepositFailed","inputs":[]},{"type":"error","name":"InsufficientEscrowAmount","inputs":[{"name":"currentBalance","type":"uint256","internalType":"uint256"},{"name":"depositAmount","type":"uint256","internalType":"uint256"},{"name":"minimumAmount","type":"uint256","internalType":"uint256"}]},{"type":"error","name":"InvalidInitialization","inputs":[]},{"type":"error","name":"NotInitializing","inputs":[]},{"type":"error","name":"TransferFailed","inputs":[]},{"type":"error","name":"ZeroAddress","inputs":[]},{"type":"error","name":"ZeroAmount","inputs":[]}],"bytecode":{"object":"0x6080604052348015600e575f5ffd5b5060156019565b60c9565b7ff0c57e16840df040f15088dc2f81fe391c3923bec73e23a9662efc9c229c6a00805468010000000000000000900460ff161560685760405163f92ee8a960e01b815260040160405180910390fd5b80546001600160401b039081161460c65780546001600160401b0319166001600160401b0390811782556040519081527fc7f505b2f371ae2175ee4913f4499e1f2633a7b5936321eed1cdaeb6115181d29060200160405180910390a15b50565b610bef806100d65f395ff3fe60806040526004361061009a575f3560e01c8063a901540011610062578063a901540014610151578063bec070d614610170578063c1fe3e481461018e578063d0e30db0146101ad578063ec60b9ab146101b5578063fbae0ade146101c9575f5ffd5b806317d70f7c1461009e57806323509a2d146100c6578063358394d8146100fd5780634f68ae751461011e5780637d0e9bba1461013d575b5f5ffd5b3480156100a9575f5ffd5b506100b360015481565b6040519081526020015b60405180910390f35b3480156100d1575f5ffd5b506003546100e5906001600160a01b031681565b6040516001600160a01b0390911681526020016100bd565b348015610108575f5ffd5b5061011c610117366004610a76565b6101e4565b005b348015610129575f5ffd5b5061011c610138366004610ac6565b610365565b348015610148575f5ffd5b506100e5610538565b34801561015c575f5ffd5b5061011c61016b366004610af4565b6105b1565b34801561017b575f5ffd5b505f546100e5906001600160a01b031681565b348015610199575f5ffd5b506002546100e5906001600160a01b031681565b61011c610811565b3480156101c0575f5ffd5b506100b36109cb565b3480156101d4575f5ffd5b506100b367016345785d8a000081565b5f6101ed610a35565b805490915060ff600160401b820416159067ffffffffffffffff165f811580156102145750825b90505f8267ffffffffffffffff1660011480156102305750303b155b90508115801561023e575080155b1561025c5760405163f92ee8a960e01b815260040160405180910390fd5b845467ffffffffffffffff19166001178555831561028657845460ff60401b1916600160401b1785555b6001600160a01b03891615806102a357506001600160a01b038716155b806102b557506001600160a01b038616155b156102d35760405163d92e233d60e01b815260040160405180910390fd5b5f80546001600160a01b03808c166001600160a01b03199283161790925560018a9055600280548a84169083161790556003805492891692909116919091179055831561035a57845460ff60401b19168555604051600181527fc7f505b2f371ae2175ee4913f4499e1f2633a7b5936321eed1cdaeb6115181d29060200160405180910390a15b505050505050505050565b5f546001600160a01b031633146103975760405162461bcd60e51b815260040161038e90610b0b565b60405180910390fd5b815f036103b757604051631f2a200560e01b815260040160405180910390fd5b6001600160a01b0381166103de5760405163d92e233d60e01b815260040160405180910390fd5b6002546040516370a0823160e01b81523060048201525f916001600160a01b0316906370a0823190602401602060405180830381865afa158015610424573d5f5f3e3d5ffd5b505050506040513d601f19601f820116820180604052508101906104489190610b42565b90508083111561047b5760405163391434e360e21b8152306004820152602481018290526044810184905260640161038e565b60025460405163095ea7b360e01b81526001600160a01b038481166004830152602482018690529091169063095ea7b3906044016020604051808303815f875af11580156104cb573d5f5f3e3d5ffd5b505050506040513d601f19601f820116820180604052508101906104ef9190610b59565b50816001600160a01b03167fd4ff9b9c0e7f96a5697a4d12df976cbce4f79f135c350cc8014ce7ecfe4ed25e8460405161052b91815260200190565b60405180910390a2505050565b5f80546001546040516331a9108f60e11b81526001600160a01b0390921691636352211e9161056d9160040190815260200190565b602060405180830381865afa158015610588573d5f5f3e3d5ffd5b505050506040513d601f19601f820116820180604052508101906105ac9190610b7f565b905090565b5f546001600160a01b031633146105da5760405162461bcd60e51b815260040161038e90610b0b565b805f036105fa57604051631f2a200560e01b815260040160405180910390fd5b6002546040516370a0823160e01b81523060048201525f916001600160a01b0316906370a0823190602401602060405180830381865afa158015610640573d5f5f3e3d5ffd5b505050506040513d601f19601f820116820180604052508101906106649190610b42565b9050808211156106975760405163391434e360e21b8152306004820152602481018290526044810183905260640161038e565b5f80546001546040516331a9108f60e11b81526001600160a01b0390921691636352211e916106cc9160040190815260200190565b602060405180830381865afa1580156106e7573d5f5f3e3d5ffd5b505050506040513d601f19601f8201168201806040525081019061070b9190610b7f565b90506001600160a01b0381166107345760405163d92e233d60e01b815260040160405180910390fd5b60025460405163a9059cbb60e01b81526001600160a01b038381166004830152602482018690525f92169063a9059cbb906044016020604051808303815f875af1158015610784573d5f5f3e3d5ffd5b505050506040513d601f19601f820116820180604052508101906107a89190610b59565b9050806107c8576040516312171d8360e31b815260040160405180910390fd5b816001600160a01b03167f1a39b9c5044b9f0ff56c5951e30c1ebe24911353aafcceb9250e83a24fe158c48560405161080391815260200190565b60405180910390a250505050565b5f546001600160a01b0316331461083a5760405162461bcd60e51b815260040161038e90610b0b565b345f0361085a57604051631f2a200560e01b815260040160405180910390fd5b6002546040516370a0823160e01b81523060048201525f916001600160a01b0316906370a0823190602401602060405180830381865afa1580156108a0573d5f5f3e3d5ffd5b505050506040513d601f19601f820116820180604052508101906108c49190610b42565b905067016345785d8a00006108d93483610b9a565b101561090f5760405163015643f760e01b81526004810182905234602482015267016345785d8a0000604482015260640161038e565b60035460405163a1903eab60e01b81525f60048201526001600160a01b039091169063a1903eab90349060240160206040518083038185885af193505050508015610977575060408051601f3d908101601f1916820190925261097491810190610b42565b60015b610994576040516379cacff160e01b815260040160405180910390fd5b506040513481527fa1ab46d0e38f33a7b1f03853088a305927deb55c906370ff5d6d2bc732f150959060200160405180910390a150565b6002546040516370a0823160e01b81523060048201525f916001600160a01b0316906370a0823190602401602060405180830381865afa158015610a11573d5f5f3e3d5ffd5b505050506040513d601f19601f820116820180604052508101906105ac9190610b42565b5f807ff0c57e16840df040f15088dc2f81fe391c3923bec73e23a9662efc9c229c6a005b92915050565b6001600160a01b0381168114610a73575f5ffd5b50565b5f5f5f5f60808587031215610a89575f5ffd5b8435610a9481610a5f565b9350602085013592506040850135610aab81610a5f565b91506060850135610abb81610a5f565b939692955090935050565b5f5f60408385031215610ad7575f5ffd5b823591506020830135610ae981610a5f565b809150509250929050565b5f60208284031215610b04575f5ffd5b5035919050565b6020808252601b908201527f43616c6c6572206973206e6f742053746162696c697a65724e46540000000000604082015260600190565b5f60208284031215610b52575f5ffd5b5051919050565b5f60208284031215610b69575f5ffd5b81518015158114610b78575f5ffd5b9392505050565b5f60208284031215610b8f575f5ffd5b8151610b7881610a5f565b80820180821115610a5957634e487b7160e01b5f52601160045260245ffdfea26469706673582212200705f80ee47e03ab3dbbcd601d0f50ecd90afdb96ac1bf8db796a0c3b42857ba64736f6c634300081d0033","linkReferences":{}},"methodIdentifiers":{"MINIMUM_ESCROW_AMOUNT()":"fbae0ade","approveAllocation(uint256,address)":"4f68ae75","deposit()":"d0e30db0","initialize(address,uint256,address,address)":"358394d8","lido()":"23509a2d","stETH()":"c1fe3e48","stabilizerNFTContract()":"bec070d6","stabilizerOwner()":"7d0e9bba","tokenId()":"17d70f7c","unallocatedStETH()":"ec60b9ab","withdrawUnallocated(uint256)":"a9015400"},"storageLayout":{"storage":[{"astId":54787,"contract":"src/StabilizerEscrow.sol:StabilizerEscrow","label":"stabilizerNFTContract","offset":0,"slot":"0","type":"t_address"},{"astId":54789,"contract":"src/StabilizerEscrow.sol:StabilizerEscrow","label":"tokenId","offset":0,"slot":"1","type":"t_uint256"},{"astId":54791,"contract":"src/StabilizerEscrow.sol:StabilizerEscrow","label":"stETH","offset":0,"slot":"2","type":"t_address"},{"astId":54793,"contract":"src/StabilizerEscrow.sol:StabilizerEscrow","label":"lido","offset":0,"slot":"3","type":"t_address"}],"types":{"t_address":{"encoding":"inplace","label":"address","numberOfBytes":"20"},"t_uint256":{"encoding":"inplace","label":"uint256","numberOfBytes":"32"}}},"id":78}