{"abi":[{"type":"constructor","inputs":[],"stateMutability":"nonpayable"},{"type":"function","name":"approveAllocation","inputs":[{"name":"amount","type":"uint256","internalType":"uint256"},{"name":"positionNFTAddress","type":"address","internalType":"address"}],"outputs":[],"stateMutability":"nonpayable"},{"type":"function","name":"deposit","inputs":[],"outputs":[],"stateMutability":"payable"},{"type":"function","name":"initialize","inputs":[{"name":"_stabilizerNFT","type":"address","internalType":"address"},{"name":"_tokenId","type":"uint256","internalType":"uint256"},{"name":"_stETH","type":"address","internalType":"address"},{"name":"_lido","type":"address","internalType":"address"}],"outputs":[],"stateMutability":"nonpayable"},{"type":"function","name":"lido","inputs":[],"outputs":[{"name":"","type":"address","internalType":"address"}],"stateMutability":"view"},{"type":"function","name":"stETH","inputs":[],"outputs":[{"name":"","type":"address","internalType":"address"}],"stateMutability":"view"},{"type":"function","name":"stabilizerNFTContract","inputs":[],"outputs":[{"name":"","type":"address","internalType":"address"}],"stateMutability":"view"},{"type":"function","name":"stabilizerOwner","inputs":[],"outputs":[{"name":"","type":"address","internalType":"address"}],"stateMutability":"view"},{"type":"function","name":"tokenId","inputs":[],"outputs":[{"name":"","type":"uint256","internalType":"uint256"}],"stateMutability":"view"},{"type":"function","name":"unallocatedStETH","inputs":[],"outputs":[{"name":"","type":"uint256","internalType":"uint256"}],"stateMutability":"view"},{"type":"function","name":"withdrawUnallocated","inputs":[{"name":"amount","type":"uint256","internalType":"uint256"}],"outputs":[],"stateMutability":"nonpayable"},{"type":"event","name":"AllocationApproved","inputs":[{"name":"spender","type":"address","indexed":true,"internalType":"address"},{"name":"amount","type":"uint256","indexed":false,"internalType":"uint256"}],"anonymous":false},{"type":"event","name":"DepositReceived","inputs":[{"name":"amount","type":"uint256","indexed":false,"internalType":"uint256"}],"anonymous":false},{"type":"event","name":"Initialized","inputs":[{"name":"version","type":"uint64","indexed":false,"internalType":"uint64"}],"anonymous":false},{"type":"event","name":"WithdrawalCompleted","inputs":[{"name":"recipient","type":"address","indexed":true,"internalType":"address"},{"name":"amount","type":"uint256","indexed":false,"internalType":"uint256"}],"anonymous":false},{"type":"error","name":"DepositFailed","inputs":[]},{"type":"error","name":"ERC20InsufficientAllowance","inputs":[{"name":"spender","type":"address","internalType":"address"},{"name":"allowance","type":"uint256","internalType":"uint256"},{"name":"needed","type":"uint256","internalType":"uint256"}]},{"type":"error","name":"ERC20InsufficientBalance","inputs":[{"name":"sender","type":"address","internalType":"address"},{"name":"balance","type":"uint256","internalType":"uint256"},{"name":"needed","type":"uint256","internalType":"uint256"}]},{"type":"error","name":"ERC20InvalidApprover","inputs":[{"name":"approver","type":"address","internalType":"address"}]},{"type":"error","name":"ERC20InvalidReceiver","inputs":[{"name":"receiver","type":"address","internalType":"address"}]},{"type":"error","name":"ERC20InvalidSender","inputs":[{"name":"sender","type":"address","internalType":"address"}]},{"type":"error","name":"ERC20InvalidSpender","inputs":[{"name":"spender","type":"address","internalType":"address"}]},{"type":"error","name":"InitialDepositFailed","inputs":[]},{"type":"error","name":"InvalidInitialization","inputs":[]},{"type":"error","name":"NotInitializing","inputs":[]},{"type":"error","name":"TransferFailed","inputs":[]},{"type":"error","name":"ZeroAddress","inputs":[]},{"type":"error","name":"ZeroAmount","inputs":[]}],"bytecode":{"object":"0x6080604052348015600e575f5ffd5b5060156019565b60c9565b7ff0c57e16840df040f15088dc2f81fe391c3923bec73e23a9662efc9c229c6a00805468010000000000000000900460ff161560685760405163f92ee8a960e01b815260040160405180910390fd5b80546001600160401b039081161460c65780546001600160401b0319166001600160401b0390811782556040519081527fc7f505b2f371ae2175ee4913f4499e1f2633a7b5936321eed1cdaeb6115181d29060200160405180910390a15b50565b610adf806100d65f395ff3fe60806040526004361061008f575f3560e01c8063a901540011610057578063a901540014610146578063bec070d614610165578063c1fe3e4814610183578063d0e30db0146101a2578063ec60b9ab146101aa575f5ffd5b806317d70f7c1461009357806323509a2d146100bb578063358394d8146100f25780634f68ae75146101135780637d0e9bba14610132575b5f5ffd5b34801561009e575f5ffd5b506100a860015481565b6040519081526020015b60405180910390f35b3480156100c6575f5ffd5b506003546100da906001600160a01b031681565b6040516001600160a01b0390911681526020016100b2565b3480156100fd575f5ffd5b5061011161010c366004610985565b6101be565b005b34801561011e575f5ffd5b5061011161012d3660046109d5565b610354565b34801561013d575f5ffd5b506100da610527565b348015610151575f5ffd5b50610111610160366004610a03565b6105a0565b348015610170575f5ffd5b505f546100da906001600160a01b031681565b34801561018e575f5ffd5b506002546100da906001600160a01b031681565b610111610800565b3480156101b5575f5ffd5b506100a8610904565b7ff0c57e16840df040f15088dc2f81fe391c3923bec73e23a9662efc9c229c6a008054600160401b810460ff16159067ffffffffffffffff165f811580156102035750825b90505f8267ffffffffffffffff16600114801561021f5750303b155b90508115801561022d575080155b1561024b5760405163f92ee8a960e01b815260040160405180910390fd5b845467ffffffffffffffff19166001178555831561027557845460ff60401b1916600160401b1785555b6001600160a01b038916158061029257506001600160a01b038716155b806102a457506001600160a01b038616155b156102c25760405163d92e233d60e01b815260040160405180910390fd5b5f80546001600160a01b03808c166001600160a01b03199283161790925560018a9055600280548a84169083161790556003805492891692909116919091179055831561034957845460ff60401b19168555604051600181527fc7f505b2f371ae2175ee4913f4499e1f2633a7b5936321eed1cdaeb6115181d29060200160405180910390a15b505050505050505050565b5f546001600160a01b031633146103865760405162461bcd60e51b815260040161037d90610a1a565b60405180910390fd5b815f036103a657604051631f2a200560e01b815260040160405180910390fd5b6001600160a01b0381166103cd5760405163d92e233d60e01b815260040160405180910390fd5b6002546040516370a0823160e01b81523060048201525f916001600160a01b0316906370a0823190602401602060405180830381865afa158015610413573d5f5f3e3d5ffd5b505050506040513d601f19601f820116820180604052508101906104379190610a51565b90508083111561046a5760405163391434e360e21b8152306004820152602481018290526044810184905260640161037d565b60025460405163095ea7b360e01b81526001600160a01b038481166004830152602482018690529091169063095ea7b3906044016020604051808303815f875af11580156104ba573d5f5f3e3d5ffd5b505050506040513d601f19601f820116820180604052508101906104de9190610a68565b50816001600160a01b03167fd4ff9b9c0e7f96a5697a4d12df976cbce4f79f135c350cc8014ce7ecfe4ed25e8460405161051a91815260200190565b60405180910390a2505050565b5f80546001546040516331a9108f60e11b81526001600160a01b0390921691636352211e9161055c9160040190815260200190565b602060405180830381865afa158015610577573d5f5f3e3d5ffd5b505050506040513d601f19601f8201168201806040525081019061059b9190610a8e565b905090565b5f546001600160a01b031633146105c95760405162461bcd60e51b815260040161037d90610a1a565b805f036105e957604051631f2a200560e01b815260040160405180910390fd5b6002546040516370a0823160e01b81523060048201525f916001600160a01b0316906370a0823190602401602060405180830381865afa15801561062f573d5f5f3e3d5ffd5b505050506040513d601f19601f820116820180604052508101906106539190610a51565b9050808211156106865760405163391434e360e21b8152306004820152602481018290526044810183905260640161037d565b5f80546001546040516331a9108f60e11b81526001600160a01b0390921691636352211e916106bb9160040190815260200190565b602060405180830381865afa1580156106d6573d5f5f3e3d5ffd5b505050506040513d601f19601f820116820180604052508101906106fa9190610a8e565b90506001600160a01b0381166107235760405163d92e233d60e01b815260040160405180910390fd5b60025460405163a9059cbb60e01b81526001600160a01b038381166004830152602482018690525f92169063a9059cbb906044016020604051808303815f875af1158015610773573d5f5f3e3d5ffd5b505050506040513d601f19601f820116820180604052508101906107979190610a68565b9050806107b7576040516312171d8360e31b815260040160405180910390fd5b816001600160a01b03167f1a39b9c5044b9f0ff56c5951e30c1ebe24911353aafcceb9250e83a24fe158c4856040516107f291815260200190565b60405180910390a250505050565b5f546001600160a01b031633146108295760405162461bcd60e51b815260040161037d90610a1a565b345f0361084957604051631f2a200560e01b815260040160405180910390fd5b60035460405163a1903eab60e01b81525f60048201526001600160a01b039091169063a1903eab90349060240160206040518083038185885af1935050505080156108b1575060408051601f3d908101601f191682019092526108ae91810190610a51565b60015b6108ce576040516379cacff160e01b815260040160405180910390fd5b506040513481527fa1ab46d0e38f33a7b1f03853088a305927deb55c906370ff5d6d2bc732f150959060200160405180910390a1565b6002546040516370a0823160e01b81523060048201525f916001600160a01b0316906370a0823190602401602060405180830381865afa15801561094a573d5f5f3e3d5ffd5b505050506040513d601f19601f8201168201806040525081019061059b9190610a51565b6001600160a01b0381168114610982575f5ffd5b50565b5f5f5f5f60808587031215610998575f5ffd5b84356109a38161096e565b93506020850135925060408501356109ba8161096e565b915060608501356109ca8161096e565b939692955090935050565b5f5f604083850312156109e6575f5ffd5b8235915060208301356109f88161096e565b809150509250929050565b5f60208284031215610a13575f5ffd5b5035919050565b6020808252601b908201527f43616c6c6572206973206e6f742053746162696c697a65724e46540000000000604082015260600190565b5f60208284031215610a61575f5ffd5b5051919050565b5f60208284031215610a78575f5ffd5b81518015158114610a87575f5ffd5b9392505050565b5f60208284031215610a9e575f5ffd5b8151610a878161096e56fea26469706673582212203b28822c9cb9ec0c46b14dcb84a2faf6c2ea59d9617513a6307812517edbc04364736f6c634300081d0033","linkReferences":{}},"methodIdentifiers":{"approveAllocation(uint256,address)":"4f68ae75","deposit()":"d0e30db0","initialize(address,uint256,address,address)":"358394d8","lido()":"23509a2d","stETH()":"c1fe3e48","stabilizerNFTContract()":"bec070d6","stabilizerOwner()":"7d0e9bba","tokenId()":"17d70f7c","unallocatedStETH()":"ec60b9ab","withdrawUnallocated(uint256)":"a9015400"},"storageLayout":{"storage":[{"astId":54023,"contract":"src/StabilizerEscrow.sol:StabilizerEscrow","label":"stabilizerNFTContract","offset":0,"slot":"0","type":"t_address"},{"astId":54025,"contract":"src/StabilizerEscrow.sol:StabilizerEscrow","label":"tokenId","offset":0,"slot":"1","type":"t_uint256"},{"astId":54027,"contract":"src/StabilizerEscrow.sol:StabilizerEscrow","label":"stETH","offset":0,"slot":"2","type":"t_address"},{"astId":54029,"contract":"src/StabilizerEscrow.sol:StabilizerEscrow","label":"lido","offset":0,"slot":"3","type":"t_address"}],"types":{"t_address":{"encoding":"inplace","label":"address","numberOfBytes":"20"},"t_uint256":{"encoding":"inplace","label":"uint256","numberOfBytes":"32"}}},"id":77}