{"abi":[{"type":"constructor","inputs":[],"stateMutability":"nonpayable"},{"type":"receive","stateMutability":"payable"},{"type":"function","name":"approveAllocation","inputs":[{"name":"amount","type":"uint256","internalType":"uint256"},{"name":"positionNFTAddress","type":"address","internalType":"address"}],"outputs":[],"stateMutability":"nonpayable"},{"type":"function","name":"deposit","inputs":[],"outputs":[],"stateMutability":"payable"},{"type":"function","name":"initialize","inputs":[{"name":"_stabilizerNFT","type":"address","internalType":"address"},{"name":"_tokenId","type":"uint256","internalType":"uint256"},{"name":"_stETH","type":"address","internalType":"address"},{"name":"_lido","type":"address","internalType":"address"}],"outputs":[],"stateMutability":"nonpayable"},{"type":"function","name":"lido","inputs":[],"outputs":[{"name":"","type":"address","internalType":"address"}],"stateMutability":"view"},{"type":"function","name":"stETH","inputs":[],"outputs":[{"name":"","type":"address","internalType":"address"}],"stateMutability":"view"},{"type":"function","name":"stabilizerNFTContract","inputs":[],"outputs":[{"name":"","type":"address","internalType":"address"}],"stateMutability":"view"},{"type":"function","name":"stabilizerOwner","inputs":[],"outputs":[{"name":"","type":"address","internalType":"address"}],"stateMutability":"view"},{"type":"function","name":"tokenId","inputs":[],"outputs":[{"name":"","type":"uint256","internalType":"uint256"}],"stateMutability":"view"},{"type":"function","name":"unallocatedStETH","inputs":[],"outputs":[{"name":"","type":"uint256","internalType":"uint256"}],"stateMutability":"view"},{"type":"function","name":"withdrawUnallocated","inputs":[{"name":"amount","type":"uint256","internalType":"uint256"}],"outputs":[],"stateMutability":"nonpayable"},{"type":"event","name":"AllocationApproved","inputs":[{"name":"spender","type":"address","indexed":true,"internalType":"address"},{"name":"amount","type":"uint256","indexed":false,"internalType":"uint256"}],"anonymous":false},{"type":"event","name":"DepositReceived","inputs":[{"name":"amount","type":"uint256","indexed":false,"internalType":"uint256"}],"anonymous":false},{"type":"event","name":"Initialized","inputs":[{"name":"version","type":"uint64","indexed":false,"internalType":"uint64"}],"anonymous":false},{"type":"event","name":"WithdrawalCompleted","inputs":[{"name":"recipient","type":"address","indexed":true,"internalType":"address"},{"name":"amount","type":"uint256","indexed":false,"internalType":"uint256"}],"anonymous":false},{"type":"error","name":"DepositFailed","inputs":[]},{"type":"error","name":"ERC20InsufficientAllowance","inputs":[{"name":"spender","type":"address","internalType":"address"},{"name":"allowance","type":"uint256","internalType":"uint256"},{"name":"needed","type":"uint256","internalType":"uint256"}]},{"type":"error","name":"ERC20InsufficientBalance","inputs":[{"name":"sender","type":"address","internalType":"address"},{"name":"balance","type":"uint256","internalType":"uint256"},{"name":"needed","type":"uint256","internalType":"uint256"}]},{"type":"error","name":"ERC20InvalidApprover","inputs":[{"name":"approver","type":"address","internalType":"address"}]},{"type":"error","name":"ERC20InvalidReceiver","inputs":[{"name":"receiver","type":"address","internalType":"address"}]},{"type":"error","name":"ERC20InvalidSender","inputs":[{"name":"sender","type":"address","internalType":"address"}]},{"type":"error","name":"ERC20InvalidSpender","inputs":[{"name":"spender","type":"address","internalType":"address"}]},{"type":"error","name":"InitialDepositFailed","inputs":[]},{"type":"error","name":"InvalidInitialization","inputs":[]},{"type":"error","name":"NotInitializing","inputs":[]},{"type":"error","name":"TransferFailed","inputs":[]},{"type":"error","name":"ZeroAddress","inputs":[]},{"type":"error","name":"ZeroAmount","inputs":[]}],"bytecode":{"object":"0x6080604052348015600e575f5ffd5b5060156019565b60c9565b7ff0c57e16840df040f15088dc2f81fe391c3923bec73e23a9662efc9c229c6a00805468010000000000000000900460ff161560685760405163f92ee8a960e01b815260040160405180910390fd5b80546001600160401b039081161460c65780546001600160401b0319166001600160401b0390811782556040519081527fc7f505b2f371ae2175ee4913f4499e1f2633a7b5936321eed1cdaeb6115181d29060200160405180910390a15b50565b610ae9806100d65f395ff3fe608060405260043610610092575f3560e01c8063a901540011610057578063a901540014610150578063bec070d61461016f578063c1fe3e481461018d578063d0e30db0146101ac578063ec60b9ab146101b4575f5ffd5b806317d70f7c1461009d57806323509a2d146100c5578063358394d8146100fc5780634f68ae751461011d5780637d0e9bba1461013c575f5ffd5b3661009957005b5f5ffd5b3480156100a8575f5ffd5b506100b260015481565b6040519081526020015b60405180910390f35b3480156100d0575f5ffd5b506003546100e4906001600160a01b031681565b6040516001600160a01b0390911681526020016100bc565b348015610107575f5ffd5b5061011b61011636600461098f565b6101c8565b005b348015610128575f5ffd5b5061011b6101373660046109df565b61035e565b348015610147575f5ffd5b506100e4610531565b34801561015b575f5ffd5b5061011b61016a366004610a0d565b6105aa565b34801561017a575f5ffd5b505f546100e4906001600160a01b031681565b348015610198575f5ffd5b506002546100e4906001600160a01b031681565b61011b61080a565b3480156101bf575f5ffd5b506100b261090e565b7ff0c57e16840df040f15088dc2f81fe391c3923bec73e23a9662efc9c229c6a008054600160401b810460ff16159067ffffffffffffffff165f8115801561020d5750825b90505f8267ffffffffffffffff1660011480156102295750303b155b905081158015610237575080155b156102555760405163f92ee8a960e01b815260040160405180910390fd5b845467ffffffffffffffff19166001178555831561027f57845460ff60401b1916600160401b1785555b6001600160a01b038916158061029c57506001600160a01b038716155b806102ae57506001600160a01b038616155b156102cc5760405163d92e233d60e01b815260040160405180910390fd5b5f80546001600160a01b03808c166001600160a01b03199283161790925560018a9055600280548a84169083161790556003805492891692909116919091179055831561035357845460ff60401b19168555604051600181527fc7f505b2f371ae2175ee4913f4499e1f2633a7b5936321eed1cdaeb6115181d29060200160405180910390a15b505050505050505050565b5f546001600160a01b031633146103905760405162461bcd60e51b815260040161038790610a24565b60405180910390fd5b815f036103b057604051631f2a200560e01b815260040160405180910390fd5b6001600160a01b0381166103d75760405163d92e233d60e01b815260040160405180910390fd5b6002546040516370a0823160e01b81523060048201525f916001600160a01b0316906370a0823190602401602060405180830381865afa15801561041d573d5f5f3e3d5ffd5b505050506040513d601f19601f820116820180604052508101906104419190610a5b565b9050808311156104745760405163391434e360e21b81523060048201526024810182905260448101849052606401610387565b60025460405163095ea7b360e01b81526001600160a01b038481166004830152602482018690529091169063095ea7b3906044016020604051808303815f875af11580156104c4573d5f5f3e3d5ffd5b505050506040513d601f19601f820116820180604052508101906104e89190610a72565b50816001600160a01b03167fd4ff9b9c0e7f96a5697a4d12df976cbce4f79f135c350cc8014ce7ecfe4ed25e8460405161052491815260200190565b60405180910390a2505050565b5f80546001546040516331a9108f60e11b81526001600160a01b0390921691636352211e916105669160040190815260200190565b602060405180830381865afa158015610581573d5f5f3e3d5ffd5b505050506040513d601f19601f820116820180604052508101906105a59190610a98565b905090565b5f546001600160a01b031633146105d35760405162461bcd60e51b815260040161038790610a24565b805f036105f357604051631f2a200560e01b815260040160405180910390fd5b6002546040516370a0823160e01b81523060048201525f916001600160a01b0316906370a0823190602401602060405180830381865afa158015610639573d5f5f3e3d5ffd5b505050506040513d601f19601f8201168201806040525081019061065d9190610a5b565b9050808211156106905760405163391434e360e21b81523060048201526024810182905260448101839052606401610387565b5f80546001546040516331a9108f60e11b81526001600160a01b0390921691636352211e916106c59160040190815260200190565b602060405180830381865afa1580156106e0573d5f5f3e3d5ffd5b505050506040513d601f19601f820116820180604052508101906107049190610a98565b90506001600160a01b03811661072d5760405163d92e233d60e01b815260040160405180910390fd5b60025460405163a9059cbb60e01b81526001600160a01b038381166004830152602482018690525f92169063a9059cbb906044016020604051808303815f875af115801561077d573d5f5f3e3d5ffd5b505050506040513d601f19601f820116820180604052508101906107a19190610a72565b9050806107c1576040516312171d8360e31b815260040160405180910390fd5b816001600160a01b03167f1a39b9c5044b9f0ff56c5951e30c1ebe24911353aafcceb9250e83a24fe158c4856040516107fc91815260200190565b60405180910390a250505050565b5f546001600160a01b031633146108335760405162461bcd60e51b815260040161038790610a24565b345f0361085357604051631f2a200560e01b815260040160405180910390fd5b60035460405163a1903eab60e01b81525f60048201526001600160a01b039091169063a1903eab90349060240160206040518083038185885af1935050505080156108bb575060408051601f3d908101601f191682019092526108b891810190610a5b565b60015b6108d8576040516379cacff160e01b815260040160405180910390fd5b506040513481527fa1ab46d0e38f33a7b1f03853088a305927deb55c906370ff5d6d2bc732f150959060200160405180910390a1565b6002546040516370a0823160e01b81523060048201525f916001600160a01b0316906370a0823190602401602060405180830381865afa158015610954573d5f5f3e3d5ffd5b505050506040513d601f19601f820116820180604052508101906105a59190610a5b565b6001600160a01b038116811461098c575f5ffd5b50565b5f5f5f5f608085870312156109a2575f5ffd5b84356109ad81610978565b93506020850135925060408501356109c481610978565b915060608501356109d481610978565b939692955090935050565b5f5f604083850312156109f0575f5ffd5b823591506020830135610a0281610978565b809150509250929050565b5f60208284031215610a1d575f5ffd5b5035919050565b6020808252601b908201527f43616c6c6572206973206e6f742053746162696c697a65724e46540000000000604082015260600190565b5f60208284031215610a6b575f5ffd5b5051919050565b5f60208284031215610a82575f5ffd5b81518015158114610a91575f5ffd5b9392505050565b5f60208284031215610aa8575f5ffd5b8151610a918161097856fea2646970667358221220f07d1e11dead2374af6ac28bdcf7b6ca768dfe2f29ed563e8ae0efcf87ca08f164736f6c634300081d0033","linkReferences":{}},"methodIdentifiers":{"approveAllocation(uint256,address)":"4f68ae75","deposit()":"d0e30db0","initialize(address,uint256,address,address)":"358394d8","lido()":"23509a2d","stETH()":"c1fe3e48","stabilizerNFTContract()":"bec070d6","stabilizerOwner()":"7d0e9bba","tokenId()":"17d70f7c","unallocatedStETH()":"ec60b9ab","withdrawUnallocated(uint256)":"a9015400"},"storageLayout":{"storage":[{"astId":58309,"contract":"src/StabilizerEscrow.sol:StabilizerEscrow","label":"stabilizerNFTContract","offset":0,"slot":"0","type":"t_address"},{"astId":58311,"contract":"src/StabilizerEscrow.sol:StabilizerEscrow","label":"tokenId","offset":0,"slot":"1","type":"t_uint256"},{"astId":58313,"contract":"src/StabilizerEscrow.sol:StabilizerEscrow","label":"stETH","offset":0,"slot":"2","type":"t_address"},{"astId":58315,"contract":"src/StabilizerEscrow.sol:StabilizerEscrow","label":"lido","offset":0,"slot":"3","type":"t_address"}],"types":{"t_address":{"encoding":"inplace","label":"address","numberOfBytes":"20"},"t_uint256":{"encoding":"inplace","label":"uint256","numberOfBytes":"32"}}},"id":95}