{"abi":[{"type":"function","name":"_checkProviderSignature","inputs":[{"name":"_provider","type":"address","internalType":"address"},{"name":"_requester","type":"address","internalType":"address"},{"name":"_nonce","type":"uint256","internalType":"uint256"},{"name":"_dataKey","type":"bytes32","internalType":"bytes32"},{"name":"_dataValue","type":"bytes32","internalType":"bytes32"},{"name":"_v","type":"uint8","internalType":"uint8"},{"name":"_r","type":"bytes32","internalType":"bytes32"},{"name":"_s","type":"bytes32","internalType":"bytes32"}],"outputs":[{"name":"","type":"bool","internalType":"bool"}],"stateMutability":"pure"},{"type":"function","name":"consumeData","inputs":[{"name":"_provider","type":"address","internalType":"address"},{"name":"_dataKey","type":"bytes32","internalType":"bytes32"}],"outputs":[{"name":"","type":"bytes32","internalType":"bytes32"}],"stateMutability":"payable"},{"type":"function","name":"deposit","inputs":[{"name":"_target","type":"address","internalType":"address"}],"outputs":[],"stateMutability":"payable"},{"type":"function","name":"deposits","inputs":[{"name":"","type":"address","internalType":"address"}],"outputs":[{"name":"","type":"uint256","internalType":"uint256"}],"stateMutability":"view"},{"type":"function","name":"nonces","inputs":[{"name":"","type":"address","internalType":"address"}],"outputs":[{"name":"","type":"uint256","internalType":"uint256"}],"stateMutability":"view"},{"type":"function","name":"prices","inputs":[{"name":"","type":"address","internalType":"address"},{"name":"","type":"bytes32","internalType":"bytes32"}],"outputs":[{"name":"","type":"uint256","internalType":"uint256"}],"stateMutability":"view"},{"type":"function","name":"setPrice","inputs":[{"name":"_provider","type":"address","internalType":"address"},{"name":"_nonce","type":"uint256","internalType":"uint256"},{"name":"_dataKey","type":"bytes32","internalType":"bytes32"},{"name":"_price","type":"uint256","internalType":"uint256"},{"name":"_r","type":"bytes32","internalType":"bytes32"},{"name":"_s","type":"bytes32","internalType":"bytes32"},{"name":"_v","type":"uint8","internalType":"uint8"}],"outputs":[],"stateMutability":"nonpayable"},{"type":"function","name":"storeData","inputs":[{"name":"_provider","type":"address","internalType":"address"},{"name":"_requester","type":"address","internalType":"address"},{"name":"_nonce","type":"uint256","internalType":"uint256"},{"name":"_dataKey","type":"bytes32","internalType":"bytes32"},{"name":"_dataValue","type":"bytes32","internalType":"bytes32"},{"name":"_r","type":"bytes32","internalType":"bytes32"},{"name":"_s","type":"bytes32","internalType":"bytes32"},{"name":"_v","type":"uint8","internalType":"uint8"}],"outputs":[],"stateMutability":"nonpayable"},{"type":"event","name":"DataConsumed","inputs":[{"name":"provider","type":"address","indexed":false,"internalType":"address"},{"name":"requester","type":"address","indexed":false,"internalType":"address"},{"name":"dataKey","type":"bytes32","indexed":false,"internalType":"bytes32"}],"anonymous":false}],"bytecode":{"object":"0x6080604052348015600f57600080fd5b50610a488061001f6000396000f3fe60806040526004361061007b5760003560e01c8063c7ef01a41161004e578063c7ef01a41461013a578063e1c823831461014d578063f340fa011461017d578063fc7e286d1461019057600080fd5b806375fd37a6146100805780637ecebe00146100cb5780638b117083146100f857806391dd3d251461011a575b600080fd5b34801561008c57600080fd5b506100b861009b3660046107c8565b600360209081526000928352604080842090915290825290205481565b6040519081526020015b60405180910390f35b3480156100d757600080fd5b506100b86100e63660046107f2565b60016020526000908152604090205481565b34801561010457600080fd5b50610118610113366004610825565b6101bd565b005b34801561012657600080fd5b50610118610135366004610888565b6103e7565b6100b86101483660046107c8565b610513565b34801561015957600080fd5b5061016d6101683660046108fc565b6106a4565b60405190151581526020016100c2565b61011861018b3660046107f2565b61077c565b34801561019c57600080fd5b506100b86101ab3660046107f2565b60006020819052908152604090205481565b6001600160a01b03871660009081526001602052604090205486146102295760405162461bcd60e51b815260206004820152601b60248201527f496e76616c6964206e6f6e636520666f722070726f766964657221000000000060448201526064015b60405180910390fd5b6001600160a01b038716600090815260016020526040812080549161024d83610986565b909155505060408051808201825260208082527f194f7261636c65205369676e6564205072696365204368616e67653a0a3131368183015291516bffffffffffffffffffffffff1960608b901b169281019290925260348201889052605482018790526074820186905290600090829060940160408051601f19818403018152908290526102de92916020016109cf565b60408051601f198184030181528282528051602091820120600080855291840180845281905260ff87169284019290925260608301889052608083018790529092509060019060a0016020604051602081039080840390855afa158015610349573d6000803e3d6000fd5b505050602060405103519050806001600160a01b03168a6001600160a01b0316146103b65760405162461bcd60e51b815260206004820152601e60248201527f496e76616c6964207072696365206368616e6765207369676e617475726500006044820152606401610220565b505050506001600160a01b039590951660009081526003602090815260408083209583529490529290922055505050565b6001600160a01b038816600090815260016020526040902054861461044e5760405162461bcd60e51b815260206004820152601b60248201527f496e76616c6964206e6f6e636520666f722070726f76696465722100000000006044820152606401610220565b6001600160a01b038816600090815260016020526040812080549161047283610986565b919050555060006104898989898989878a8a6106a4565b9050806104d85760405162461bcd60e51b815260206004820152601b60248201527f496e76616c69642070726f7669646572207369676e61747572652100000000006044820152606401610220565b505050506001600160a01b03948516600090815260026020908152604080832096909716825294855285812092815291909352929092205550565b336000908152602081905260408120805434919083906105349084906109ec565b90915550506001600160a01b038316600090815260036020908152604080832085845282528083205433845291839052909120548111156105c15760405162461bcd60e51b815260206004820152602160248201527f4e6f7420656e6f756768206d6f6e657920746f2070617920666f7220646174616044820152602160f81b6064820152608401610220565b6040516001600160a01b0385169082156108fc029083906000818181858888f193505050501580156105f7573d6000803e3d6000fd5b50336000908152602081905260409020546106139082906109ff565b33600081815260208181526040918290209390935580516001600160a01b03881681529283019190915281018490527f216b24d624a209e8bce76b60375a89ccbac6e0445cbf195c578fce07f3d2e1f09060600160405180910390a150506001600160a01b038216600090815260026020908152604080832033845282528083208484529091529020545b92915050565b6040516bffffffffffffffffffffffff1960608a811b8216602084015289901b166034820152604881018790526068810186905260888101859052600090819060a80160408051601f198184030181528282528051602091820120600080855291840180845281905260ff89169284019290925260608301879052608083018690529092509060019060a0016020604051602081039080840390855afa158015610752573d6000803e3d6000fd5b5050604051601f1901516001600160a01b03908116908d1614935050505098975050505050505050565b6001600160a01b038116600090815260208190526040812080543492906107a49084906109ec565b909155505050565b80356001600160a01b03811681146107c357600080fd5b919050565b600080604083850312156107db57600080fd5b6107e4836107ac565b946020939093013593505050565b60006020828403121561080457600080fd5b61080d826107ac565b9392505050565b803560ff811681146107c357600080fd5b600080600080600080600060e0888a03121561084057600080fd5b610849886107ac565b96506020880135955060408801359450606088013593506080880135925060a0880135915061087a60c08901610814565b905092959891949750929550565b600080600080600080600080610100898b0312156108a557600080fd5b6108ae896107ac565b97506108bc60208a016107ac565b965060408901359550606089013594506080890135935060a0890135925060c089013591506108ed60e08a01610814565b90509295985092959890939650565b600080600080600080600080610100898b03121561091957600080fd5b610922896107ac565b975061093060208a016107ac565b965060408901359550606089013594506080890135935061095360a08a01610814565b925060c0890135915060e089013590509295985092959890939650565b634e487b7160e01b600052601160045260246000fd5b60006001820161099857610998610970565b5060010190565b6000815160005b818110156109c057602081850181015186830152016109a6565b50600093019283525090919050565b60006109e46109de838661099f565b8461099f565b949350505050565b8082018082111561069e5761069e610970565b8181038181111561069e5761069e61097056fea2646970667358221220e94e65eb1ffebb0dc6c700950e08e99a2678dff2075ebe57f13357ec75ec14c064736f6c63430008190033","linkReferences":{}},"methodIdentifiers":{"_checkProviderSignature(address,address,uint256,bytes32,bytes32,uint8,bytes32,bytes32)":"e1c82383","consumeData(address,bytes32)":"c7ef01a4","deposit(address)":"f340fa01","deposits(address)":"fc7e286d","nonces(address)":"7ecebe00","prices(address,bytes32)":"75fd37a6","setPrice(address,uint256,bytes32,uint256,bytes32,bytes32,uint8)":"8b117083","storeData(address,address,uint256,bytes32,bytes32,bytes32,bytes32,uint8)":"91dd3d25"},"id":2}