{"abi":[{"type":"constructor","inputs":[],"stateMutability":"nonpayable"},{"type":"receive","stateMutability":"payable"},{"type":"function","name":"DEFAULT_ADMIN_ROLE","inputs":[],"outputs":[{"name":"","type":"bytes32","internalType":"bytes32"}],"stateMutability":"view"},{"type":"function","name":"FACTOR_PRECISION","inputs":[],"outputs":[{"name":"","type":"uint256","internalType":"uint256"}],"stateMutability":"view"},{"type":"function","name":"MINTER_ROLE","inputs":[],"outputs":[{"name":"","type":"bytes32","internalType":"bytes32"}],"stateMutability":"view"},{"type":"function","name":"MIN_GAS","inputs":[],"outputs":[{"name":"","type":"uint256","internalType":"uint256"}],"stateMutability":"view"},{"type":"function","name":"POSITION_ESCROW_ROLE","inputs":[],"outputs":[{"name":"","type":"bytes32","internalType":"bytes32"}],"stateMutability":"view"},{"type":"function","name":"addUnallocatedFundsEth","inputs":[{"name":"tokenId","type":"uint256","internalType":"uint256"}],"outputs":[],"stateMutability":"payable"},{"type":"function","name":"addUnallocatedFundsStETH","inputs":[{"name":"tokenId","type":"uint256","internalType":"uint256"},{"name":"stETHAmount","type":"uint256","internalType":"uint256"}],"outputs":[],"stateMutability":"nonpayable"},{"type":"function","name":"allocateStabilizerFunds","inputs":[{"name":"ethUsdPrice","type":"uint256","internalType":"uint256"},{"name":"priceDecimals","type":"uint256","internalType":"uint256"}],"outputs":[{"name":"result","type":"tuple","internalType":"struct IStabilizerNFT.AllocationResult","components":[{"name":"allocatedEth","type":"uint256","internalType":"uint256"},{"name":"totalEthEquivalentAdded","type":"uint256","internalType":"uint256"}]}],"stateMutability":"payable"},{"type":"function","name":"approve","inputs":[{"name":"to","type":"address","internalType":"address"},{"name":"tokenId","type":"uint256","internalType":"uint256"}],"outputs":[],"stateMutability":"nonpayable"},{"type":"function","name":"balanceOf","inputs":[{"name":"owner","type":"address","internalType":"address"}],"outputs":[{"name":"","type":"uint256","internalType":"uint256"}],"stateMutability":"view"},{"type":"function","name":"baseURI","inputs":[],"outputs":[{"name":"","type":"string","internalType":"string"}],"stateMutability":"view"},{"type":"function","name":"cuspdToken","inputs":[],"outputs":[{"name":"","type":"address","internalType":"contract IcUSPDToken"}],"stateMutability":"view"},{"type":"function","name":"getApproved","inputs":[{"name":"tokenId","type":"uint256","internalType":"uint256"}],"outputs":[{"name":"","type":"address","internalType":"address"}],"stateMutability":"view"},{"type":"function","name":"getMinCollateralRatio","inputs":[{"name":"tokenId","type":"uint256","internalType":"uint256"}],"outputs":[{"name":"","type":"uint256","internalType":"uint256"}],"stateMutability":"view"},{"type":"function","name":"getRoleAdmin","inputs":[{"name":"role","type":"bytes32","internalType":"bytes32"}],"outputs":[{"name":"","type":"bytes32","internalType":"bytes32"}],"stateMutability":"view"},{"type":"function","name":"grantRole","inputs":[{"name":"role","type":"bytes32","internalType":"bytes32"},{"name":"account","type":"address","internalType":"address"}],"outputs":[],"stateMutability":"nonpayable"},{"type":"function","name":"hasRole","inputs":[{"name":"role","type":"bytes32","internalType":"bytes32"},{"name":"account","type":"address","internalType":"address"}],"outputs":[{"name":"","type":"bool","internalType":"bool"}],"stateMutability":"view"},{"type":"function","name":"highestAllocatedId","inputs":[],"outputs":[{"name":"","type":"uint256","internalType":"uint256"}],"stateMutability":"view"},{"type":"function","name":"highestUnallocatedId","inputs":[],"outputs":[{"name":"","type":"uint256","internalType":"uint256"}],"stateMutability":"view"},{"type":"function","name":"initialize","inputs":[{"name":"_cuspdToken","type":"address","internalType":"address"},{"name":"_stETH","type":"address","internalType":"address"},{"name":"_lido","type":"address","internalType":"address"},{"name":"_rateContract","type":"address","internalType":"address"},{"name":"_reporterAddress","type":"address","internalType":"address"},{"name":"_insuranceEscrowAddress","type":"address","internalType":"address"},{"name":"_baseURI","type":"string","internalType":"string"},{"name":"_stabilizerEscrowImpl","type":"address","internalType":"address"},{"name":"_positionEscrowImpl","type":"address","internalType":"address"},{"name":"_admin","type":"address","internalType":"address"}],"outputs":[],"stateMutability":"nonpayable"},{"type":"function","name":"insuranceEscrow","inputs":[],"outputs":[{"name":"","type":"address","internalType":"contract IInsuranceEscrow"}],"stateMutability":"view"},{"type":"function","name":"isApprovedForAll","inputs":[{"name":"owner","type":"address","internalType":"address"},{"name":"operator","type":"address","internalType":"address"}],"outputs":[{"name":"","type":"bool","internalType":"bool"}],"stateMutability":"view"},{"type":"function","name":"lido","inputs":[],"outputs":[{"name":"","type":"address","internalType":"address"}],"stateMutability":"view"},{"type":"function","name":"liquidatePosition","inputs":[{"name":"tokenId","type":"uint256","internalType":"uint256"},{"name":"cuspdSharesToLiquidate","type":"uint256","internalType":"uint256"},{"name":"priceQuery","type":"tuple","internalType":"struct IPriceOracle.PriceAttestationQuery","components":[{"name":"price","type":"uint256","internalType":"uint256"},{"name":"decimals","type":"uint8","internalType":"uint8"},{"name":"dataTimestamp","type":"uint256","internalType":"uint256"},{"name":"assetPair","type":"bytes32","internalType":"bytes32"},{"name":"signature","type":"bytes","internalType":"bytes"}]}],"outputs":[],"stateMutability":"nonpayable"},{"type":"function","name":"liquidationLiquidatorPayoutPercent","inputs":[],"outputs":[{"name":"","type":"uint256","internalType":"uint256"}],"stateMutability":"view"},{"type":"function","name":"liquidationThresholdPercent","inputs":[],"outputs":[{"name":"","type":"uint256","internalType":"uint256"}],"stateMutability":"view"},{"type":"function","name":"lowestAllocatedId","inputs":[],"outputs":[{"name":"","type":"uint256","internalType":"uint256"}],"stateMutability":"view"},{"type":"function","name":"lowestUnallocatedId","inputs":[],"outputs":[{"name":"","type":"uint256","internalType":"uint256"}],"stateMutability":"view"},{"type":"function","name":"mint","inputs":[{"name":"to","type":"address","internalType":"address"},{"name":"tokenId","type":"uint256","internalType":"uint256"}],"outputs":[],"stateMutability":"nonpayable"},{"type":"function","name":"name","inputs":[],"outputs":[{"name":"","type":"string","internalType":"string"}],"stateMutability":"view"},{"type":"function","name":"ownerOf","inputs":[{"name":"tokenId","type":"uint256","internalType":"uint256"}],"outputs":[{"name":"","type":"address","internalType":"address"}],"stateMutability":"view"},{"type":"function","name":"positionEscrowImplementation","inputs":[],"outputs":[{"name":"","type":"address","internalType":"address"}],"stateMutability":"view"},{"type":"function","name":"positionEscrows","inputs":[{"name":"","type":"uint256","internalType":"uint256"}],"outputs":[{"name":"","type":"address","internalType":"address"}],"stateMutability":"view"},{"type":"function","name":"positions","inputs":[{"name":"","type":"uint256","internalType":"uint256"}],"outputs":[{"name":"minCollateralRatio","type":"uint256","internalType":"uint256"},{"name":"prevUnallocated","type":"uint256","internalType":"uint256"},{"name":"nextUnallocated","type":"uint256","internalType":"uint256"},{"name":"prevAllocated","type":"uint256","internalType":"uint256"},{"name":"nextAllocated","type":"uint256","internalType":"uint256"}],"stateMutability":"view"},{"type":"function","name":"rateContract","inputs":[],"outputs":[{"name":"","type":"address","internalType":"contract IPoolSharesConversionRate"}],"stateMutability":"view"},{"type":"function","name":"removeUnallocatedFunds","inputs":[{"name":"tokenId","type":"uint256","internalType":"uint256"},{"name":"stETHAmount","type":"uint256","internalType":"uint256"}],"outputs":[],"stateMutability":"nonpayable"},{"type":"function","name":"renounceRole","inputs":[{"name":"role","type":"bytes32","internalType":"bytes32"},{"name":"callerConfirmation","type":"address","internalType":"address"}],"outputs":[],"stateMutability":"nonpayable"},{"type":"function","name":"reportCollateralAddition","inputs":[{"name":"stEthAmount","type":"uint256","internalType":"uint256"}],"outputs":[],"stateMutability":"nonpayable"},{"type":"function","name":"reportCollateralRemoval","inputs":[{"name":"stEthAmount","type":"uint256","internalType":"uint256"}],"outputs":[],"stateMutability":"nonpayable"},{"type":"function","name":"reporter","inputs":[],"outputs":[{"name":"","type":"address","internalType":"contract IOvercollateralizationReporter"}],"stateMutability":"view"},{"type":"function","name":"revokeRole","inputs":[{"name":"role","type":"bytes32","internalType":"bytes32"},{"name":"account","type":"address","internalType":"address"}],"outputs":[],"stateMutability":"nonpayable"},{"type":"function","name":"safeTransferFrom","inputs":[{"name":"from","type":"address","internalType":"address"},{"name":"to","type":"address","internalType":"address"},{"name":"tokenId","type":"uint256","internalType":"uint256"}],"outputs":[],"stateMutability":"nonpayable"},{"type":"function","name":"safeTransferFrom","inputs":[{"name":"from","type":"address","internalType":"address"},{"name":"to","type":"address","internalType":"address"},{"name":"tokenId","type":"uint256","internalType":"uint256"},{"name":"data","type":"bytes","internalType":"bytes"}],"outputs":[],"stateMutability":"nonpayable"},{"type":"function","name":"setApprovalForAll","inputs":[{"name":"operator","type":"address","internalType":"address"},{"name":"approved","type":"bool","internalType":"bool"}],"outputs":[],"stateMutability":"nonpayable"},{"type":"function","name":"setBaseURI","inputs":[{"name":"newBaseURI","type":"string","internalType":"string"}],"outputs":[],"stateMutability":"nonpayable"},{"type":"function","name":"setInsuranceEscrow","inputs":[{"name":"_insuranceEscrowAddress","type":"address","internalType":"address"}],"outputs":[],"stateMutability":"nonpayable"},{"type":"function","name":"setLiquidationParameters","inputs":[{"name":"_payoutPercent","type":"uint256","internalType":"uint256"},{"name":"_thresholdPercent","type":"uint256","internalType":"uint256"}],"outputs":[],"stateMutability":"nonpayable"},{"type":"function","name":"setMinCollateralizationRatio","inputs":[{"name":"tokenId","type":"uint256","internalType":"uint256"},{"name":"newRatio","type":"uint256","internalType":"uint256"}],"outputs":[],"stateMutability":"nonpayable"},{"type":"function","name":"stETH","inputs":[],"outputs":[{"name":"","type":"address","internalType":"address"}],"stateMutability":"view"},{"type":"function","name":"stabilizerEscrowImplementation","inputs":[],"outputs":[{"name":"","type":"address","internalType":"address"}],"stateMutability":"view"},{"type":"function","name":"stabilizerEscrows","inputs":[{"name":"","type":"uint256","internalType":"uint256"}],"outputs":[{"name":"","type":"address","internalType":"address"}],"stateMutability":"view"},{"type":"function","name":"supportsInterface","inputs":[{"name":"interfaceId","type":"bytes4","internalType":"bytes4"}],"outputs":[{"name":"","type":"bool","internalType":"bool"}],"stateMutability":"view"},{"type":"function","name":"symbol","inputs":[],"outputs":[{"name":"","type":"string","internalType":"string"}],"stateMutability":"view"},{"type":"function","name":"tokenByIndex","inputs":[{"name":"index","type":"uint256","internalType":"uint256"}],"outputs":[{"name":"","type":"uint256","internalType":"uint256"}],"stateMutability":"view"},{"type":"function","name":"tokenOfOwnerByIndex","inputs":[{"name":"owner","type":"address","internalType":"address"},{"name":"index","type":"uint256","internalType":"uint256"}],"outputs":[{"name":"","type":"uint256","internalType":"uint256"}],"stateMutability":"view"},{"type":"function","name":"tokenURI","inputs":[{"name":"tokenId","type":"uint256","internalType":"uint256"}],"outputs":[{"name":"","type":"string","internalType":"string"}],"stateMutability":"view"},{"type":"function","name":"totalSupply","inputs":[],"outputs":[{"name":"","type":"uint256","internalType":"uint256"}],"stateMutability":"view"},{"type":"function","name":"transferFrom","inputs":[{"name":"from","type":"address","internalType":"address"},{"name":"to","type":"address","internalType":"address"},{"name":"tokenId","type":"uint256","internalType":"uint256"}],"outputs":[],"stateMutability":"nonpayable"},{"type":"function","name":"unallocateStabilizerFunds","inputs":[{"name":"poolSharesToUnallocate","type":"uint256","internalType":"uint256"},{"name":"priceResponse","type":"tuple","internalType":"struct IPriceOracle.PriceResponse","components":[{"name":"price","type":"uint256","internalType":"uint256"},{"name":"decimals","type":"uint8","internalType":"uint8"},{"name":"timestamp","type":"uint256","internalType":"uint256"}]}],"outputs":[{"name":"unallocatedEth","type":"uint256","internalType":"uint256"}],"stateMutability":"nonpayable"},{"type":"event","name":"Approval","inputs":[{"name":"owner","type":"address","indexed":true,"internalType":"address"},{"name":"approved","type":"address","indexed":true,"internalType":"address"},{"name":"tokenId","type":"uint256","indexed":true,"internalType":"uint256"}],"anonymous":false},{"type":"event","name":"ApprovalForAll","inputs":[{"name":"owner","type":"address","indexed":true,"internalType":"address"},{"name":"operator","type":"address","indexed":true,"internalType":"address"},{"name":"approved","type":"bool","indexed":false,"internalType":"bool"}],"anonymous":false},{"type":"event","name":"FundsAllocated","inputs":[{"name":"tokenId","type":"uint256","indexed":true,"internalType":"uint256"},{"name":"stabilizersAmount","type":"uint256","indexed":false,"internalType":"uint256"},{"name":"usersAmount","type":"uint256","indexed":false,"internalType":"uint256"}],"anonymous":false},{"type":"event","name":"FundsUnallocated","inputs":[{"name":"tokenId","type":"uint256","indexed":true,"internalType":"uint256"},{"name":"userStEthAmount","type":"uint256","indexed":false,"internalType":"uint256"},{"name":"stabilizerStEthAmount","type":"uint256","indexed":false,"internalType":"uint256"}],"anonymous":false},{"type":"event","name":"Initialized","inputs":[{"name":"version","type":"uint64","indexed":false,"internalType":"uint64"}],"anonymous":false},{"type":"event","name":"InsuranceEscrowUpdated","inputs":[{"name":"newInsuranceEscrow","type":"address","indexed":true,"internalType":"address"}],"anonymous":false},{"type":"event","name":"LiquidationParametersUpdated","inputs":[{"name":"newPayoutPercent","type":"uint256","indexed":false,"internalType":"uint256"},{"name":"newThresholdPercent","type":"uint256","indexed":false,"internalType":"uint256"}],"anonymous":false},{"type":"event","name":"MinCollateralRatioUpdated","inputs":[{"name":"tokenId","type":"uint256","indexed":true,"internalType":"uint256"},{"name":"oldRatio","type":"uint256","indexed":false,"internalType":"uint256"},{"name":"newRatio","type":"uint256","indexed":false,"internalType":"uint256"}],"anonymous":false},{"type":"event","name":"PositionLiquidated","inputs":[{"name":"tokenId","type":"uint256","indexed":true,"internalType":"uint256"},{"name":"liquidator","type":"address","indexed":true,"internalType":"address"},{"name":"cuspdSharesLiquidated","type":"uint256","indexed":false,"internalType":"uint256"},{"name":"stEthPaidToLiquidator","type":"uint256","indexed":false,"internalType":"uint256"},{"name":"priceUsed","type":"uint256","indexed":false,"internalType":"uint256"}],"anonymous":false},{"type":"event","name":"RoleAdminChanged","inputs":[{"name":"role","type":"bytes32","indexed":true,"internalType":"bytes32"},{"name":"previousAdminRole","type":"bytes32","indexed":true,"internalType":"bytes32"},{"name":"newAdminRole","type":"bytes32","indexed":true,"internalType":"bytes32"}],"anonymous":false},{"type":"event","name":"RoleGranted","inputs":[{"name":"role","type":"bytes32","indexed":true,"internalType":"bytes32"},{"name":"account","type":"address","indexed":true,"internalType":"address"},{"name":"sender","type":"address","indexed":true,"internalType":"address"}],"anonymous":false},{"type":"event","name":"RoleRevoked","inputs":[{"name":"role","type":"bytes32","indexed":true,"internalType":"bytes32"},{"name":"account","type":"address","indexed":true,"internalType":"address"},{"name":"sender","type":"address","indexed":true,"internalType":"address"}],"anonymous":false},{"type":"event","name":"StabilizerPositionCreated","inputs":[{"name":"tokenId","type":"uint256","indexed":true,"internalType":"uint256"},{"name":"owner","type":"address","indexed":true,"internalType":"address"}],"anonymous":false},{"type":"event","name":"Transfer","inputs":[{"name":"from","type":"address","indexed":true,"internalType":"address"},{"name":"to","type":"address","indexed":true,"internalType":"address"},{"name":"tokenId","type":"uint256","indexed":true,"internalType":"uint256"}],"anonymous":false},{"type":"event","name":"UnallocatedFundsAdded","inputs":[{"name":"tokenId","type":"uint256","indexed":true,"internalType":"uint256"},{"name":"asset","type":"address","indexed":false,"internalType":"address"},{"name":"amount","type":"uint256","indexed":false,"internalType":"uint256"}],"anonymous":false},{"type":"event","name":"UnallocatedFundsRemoved","inputs":[{"name":"tokenId","type":"uint256","indexed":true,"internalType":"uint256"},{"name":"amount","type":"uint256","indexed":false,"internalType":"uint256"},{"name":"recipient","type":"address","indexed":true,"internalType":"address"}],"anonymous":false},{"type":"error","name":"AccessControlBadConfirmation","inputs":[]},{"type":"error","name":"AccessControlUnauthorizedAccount","inputs":[{"name":"account","type":"address","internalType":"address"},{"name":"neededRole","type":"bytes32","internalType":"bytes32"}]},{"type":"error","name":"ERC721EnumerableForbiddenBatchMint","inputs":[]},{"type":"error","name":"ERC721IncorrectOwner","inputs":[{"name":"sender","type":"address","internalType":"address"},{"name":"tokenId","type":"uint256","internalType":"uint256"},{"name":"owner","type":"address","internalType":"address"}]},{"type":"error","name":"ERC721InsufficientApproval","inputs":[{"name":"operator","type":"address","internalType":"address"},{"name":"tokenId","type":"uint256","internalType":"uint256"}]},{"type":"error","name":"ERC721InvalidApprover","inputs":[{"name":"approver","type":"address","internalType":"address"}]},{"type":"error","name":"ERC721InvalidOperator","inputs":[{"name":"operator","type":"address","internalType":"address"}]},{"type":"error","name":"ERC721InvalidOwner","inputs":[{"name":"owner","type":"address","internalType":"address"}]},{"type":"error","name":"ERC721InvalidReceiver","inputs":[{"name":"receiver","type":"address","internalType":"address"}]},{"type":"error","name":"ERC721InvalidSender","inputs":[{"name":"sender","type":"address","internalType":"address"}]},{"type":"error","name":"ERC721NonexistentToken","inputs":[{"name":"tokenId","type":"uint256","internalType":"uint256"}]},{"type":"error","name":"ERC721OutOfBoundsIndex","inputs":[{"name":"owner","type":"address","internalType":"address"},{"name":"index","type":"uint256","internalType":"uint256"}]},{"type":"error","name":"FailedDeployment","inputs":[]},{"type":"error","name":"InsufficientBalance","inputs":[{"name":"balance","type":"uint256","internalType":"uint256"},{"name":"needed","type":"uint256","internalType":"uint256"}]},{"type":"error","name":"InvalidInitialization","inputs":[]},{"type":"error","name":"NotInitializing","inputs":[]}],"bytecode":{"object":"0x6080604052348015600e575f80fd5b5060156019565b60c9565b7ff0c57e16840df040f15088dc2f81fe391c3923bec73e23a9662efc9c229c6a00805468010000000000000000900460ff161560685760405163f92ee8a960e01b815260040160405180910390fd5b80546001600160401b039081161460c65780546001600160401b0319166001600160401b0390811782556040519081527fc7f505b2f371ae2175ee4913f4499e1f2633a7b5936321eed1cdaeb6115181d29060200160405180910390a15b50565b615c2d806100d65f395ff3fe60806040526004361061037f575f3560e01c80637122bcc3116101d3578063bb566297116100fd578063d547741f1161009d578063e985e9c51161006d578063e985e9c514610aa3578063eee2421914610ac2578063f399beb714610ae1578063ff70fa6414610af4575f80fd5b8063d547741f14610a31578063d743fd1e14610a50578063d923038914610a65578063e96d578714610a84575f80fd5b8063c87b56dd116100d8578063c87b56dd146109a1578063cf4fa51c146109c0578063d16bc7de146109df578063d5391393146109fe575f80fd5b8063bb5662971461092f578063bba6fd6f1461094e578063c1fe3e4814610982575f80fd5b806399fbab8811610173578063a42c69a911610143578063a42c69a9146108b7578063ae88a779146108d2578063b88d4fde146108f1578063bb310a8014610910575f80fd5b806399fbab88146107e1578063a04ad51214610851578063a217fddf14610885578063a22cb46514610898575f80fd5b80638d7cac7b116101ae5780638d7cac7b1461077957806391d148541461079957806392133362146107b857806395d89b41146107cd575f80fd5b80637122bcc3146107265780637da31f6114610745578063853cad0614610764575f80fd5b8063320d2fa0116102b45780634e027fe91161025457806367bff4a81161022457806367bff4a8146106b55780636bc05b7e146106d45780636c0360eb146106f357806370a0823114610707575f80fd5b80634e027fe9146106435780634f6ccce71461065857806355f804b3146106775780636352211e14610696575f80fd5b806340c10f191161028f57806340c10f19146105b857806342842e0e146105d7578063451fda68146105f65780634d87a1f214610624575f80fd5b8063320d2fa01461056557806336568abe1461057a5780633911205814610599575f80fd5b806320d2c9511161031f578063248a9ca3116102fa578063248a9ca3146104f35780632995bc50146105125780632f2ff15d146105275780632f745c5914610546575f80fd5b806320d2c9511461049f57806323509a2d146104b557806323b872dd146104d4575f80fd5b806306fdde031161035a57806306fdde0314610416578063081812fc14610437578063095ea7b31461045657806318160ddd14610475575f80fd5b8063010ec4411461038a57806301aa0b1a146103c657806301ffc9a7146103e7575f80fd5b3661038657005b5f80fd5b348015610395575f80fd5b506006546103a9906001600160a01b031681565b6040516001600160a01b0390911681526020015b60405180910390f35b3480156103d1575f80fd5b506103e56103e0366004615122565b610b13565b005b3480156103f2575f80fd5b50610406610401366004615157565b610c45565b60405190151581526020016103bd565b348015610421575f80fd5b5061042a610c55565b6040516103bd91906151a0565b348015610442575f80fd5b506103a96104513660046151b2565b610cf6565b348015610461575f80fd5b506103e56104703660046151ed565b610d0a565b348015610480575f80fd5b505f80516020615bb8833981519152545b6040519081526020016103bd565b3480156104aa575f80fd5b50610491620186a081565b3480156104c0575f80fd5b50600b546103a9906001600160a01b031681565b3480156104df575f80fd5b506103e56104ee366004615217565b610d19565b3480156104fe575f80fd5b5061049161050d3660046151b2565b610da2565b34801561051d575f80fd5b5061049160035481565b348015610532575f80fd5b506103e5610541366004615255565b610dc2565b348015610551575f80fd5b506104916105603660046151ed565b610dde565b348015610570575f80fd5b5061049160095481565b348015610585575f80fd5b506103e5610594366004615255565b610e41565b3480156105a4575f80fd5b506103e56105b33660046151b2565b610e79565b3480156105c3575f80fd5b506103e56105d23660046151ed565b610fcb565b3480156105e2575f80fd5b506103e56105f1366004615217565b6113fc565b610609610604366004615122565b611416565b604080518251815260209283015192810192909252016103bd565b34801561062f575f80fd5b506007546103a9906001600160a01b031681565b34801561064e575f80fd5b5061049160085481565b348015610663575f80fd5b506104916106723660046151b2565b611b8d565b348015610682575f80fd5b506103e5610691366004615355565b611bfa565b3480156106a1575f80fd5b506103a96106b03660046151b2565b611c10565b3480156106c0575f80fd5b506103e56106cf3660046151b2565b611c1a565b3480156106df575f80fd5b506005546103a9906001600160a01b031681565b3480156106fe575f80fd5b5061042a611d30565b348015610712575f80fd5b50610491610721366004615387565b611dbc565b348015610731575f80fd5b506103e5610740366004615387565b611e14565b348015610750575f80fd5b50600d546103a9906001600160a01b031681565b34801561076f575f80fd5b5061049160015481565b348015610784575f80fd5b506104915f80516020615b9883398151915281565b3480156107a4575f80fd5b506104066107b3366004615255565b611ebe565b3480156107c3575f80fd5b5061049160025481565b3480156107d8575f80fd5b5061042a611ef4565b3480156107ec575f80fd5b506108296107fb3660046151b2565b5f60208190529081526040902080546001820154600283015460038401546004909401549293919290919085565b604080519586526020860194909452928401919091526060830152608082015260a0016103bd565b34801561085c575f80fd5b506103a961086b3660046151b2565b60106020525f90815260409020546001600160a01b031681565b348015610890575f80fd5b506104915f81565b3480156108a3575f80fd5b506103e56108b23660046153af565b611f32565b3480156108c2575f80fd5b50610491670de0b6b3a764000081565b3480156108dd575f80fd5b506103e56108ec366004615122565b611f3d565b3480156108fc575f80fd5b506103e561090b3660046153db565b6120e9565b34801561091b575f80fd5b5061049161092a3660046151b2565b612101565b34801561093a575f80fd5b506103e5610949366004615122565b61216b565b348015610959575f80fd5b506103a96109683660046151b2565b600f6020525f90815260409020546001600160a01b031681565b34801561098d575f80fd5b50600a546103a9906001600160a01b031681565b3480156109ac575f80fd5b5061042a6109bb3660046151b2565b6122e8565b3480156109cb575f80fd5b506103e56109da366004615122565b612424565b3480156109ea575f80fd5b506103e56109f9366004615456565b61259c565b348015610a09575f80fd5b506104917f9f2df0fed2c77648de5860a4cc508cd0818c85b8b8a1ab4ceeef8d981c8956a681565b348015610a3c575f80fd5b506103e5610a4b366004615255565b613261565b348015610a5b575f80fd5b5061049160045481565b348015610a70575f80fd5b506103e5610a7f3660046154a8565b61327d565b348015610a8f575f80fd5b50600e546103a9906001600160a01b031681565b348015610aae575f80fd5b50610406610abd36600461557e565b61359a565b348015610acd575f80fd5b50600c546103a9906001600160a01b031681565b6103e5610aef3660046151b2565b6135e6565b348015610aff575f80fd5b50610491610b0e3660046155b8565b61371e565b33610b1d83611c10565b6001600160a01b031614610b4c5760405162461bcd60e51b8152600401610b4390615615565b60405180910390fd5b606e811015610b9d5760405162461bcd60e51b815260206004820152601b60248201527f526174696f206d757374206265206174206c65617374203131302500000000006044820152606401610b43565b6103e8811115610bef5760405162461bcd60e51b815260206004820152601960248201527f526174696f2063616e6e6f7420657863656564203130303025000000000000006044820152606401610b43565b5f8281526020818152604091829020805484825583518181529283018590529092909185917f3e82d134b4a0328de7223eb1ae194d98009405cb6b8dc9c3d6bd70eb3aeb5c94910160405180910390a250505050565b5f610c4f82613d9e565b92915050565b5f80516020615b788339815191528054606091908190610c749061563e565b80601f0160208091040260200160405190810160405280929190818152602001828054610ca09061563e565b8015610ceb5780601f10610cc257610100808354040283529160200191610ceb565b820191905f5260205f20905b815481529060010190602001808311610cce57829003601f168201915b505050505091505090565b5f610d0082613dc2565b50610c4f82613df9565b610d15828233613e32565b5050565b6001600160a01b038216610d4257604051633250574960e11b81525f6004820152602401610b43565b5f610d4e838333613e3f565b9050836001600160a01b0316816001600160a01b031614610d9c576040516364283d7b60e01b81526001600160a01b0380861660048301526024820184905282166044820152606401610b43565b50505050565b5f9081525f80516020615bd8833981519152602052604090206001015490565b610dcb82610da2565b610dd481613e53565b610d9c8383613e60565b5f5f80516020615b58833981519152610df684611dbc565b8310610e1957838360405163295f44f760e21b8152600401610b43929190615676565b6001600160a01b0384165f908152602091825260408082208583529092522054905092915050565b6001600160a01b0381163314610e6a5760405163334bd91960e11b815260040160405180910390fd5b610e748282613f01565b505050565b5f80516020615b98833981519152610e9081613e53565b8115610d1557600c546040805163efa7fa5d60e01b815290515f926001600160a01b03169163efa7fa5d9160048083019260209291908290030181865afa158015610edd573d5f803e3d5ffd5b505050506040513d601f19601f82011682018060405250810190610f01919061568f565b90505f8111610f615760405162461bcd60e51b815260206004820152602660248201527f5969656c6420666163746f72207a65726f20647572696e67207265706f72742060448201526572656d6f766560d01b6064820152608401610b43565b6006546001600160a01b031663f6ff3ee8610f7b856156ba565b6040518263ffffffff1660e01b8152600401610f9991815260200190565b5f604051808303815f87803b158015610fb0575f80fd5b505af1158015610fc2573d5f803e3d5ffd5b50505050505050565b7f9f2df0fed2c77648de5860a4cc508cd0818c85b8b8a1ab4ceeef8d981c8956a6610ff581613e53565b6040805160a081018252606e81525f60208083018281528385018381526060850184815260808601858152898652938590529590932093518455516001840155905160028301559151600382015590516004909101556110558383613f7a565b6040516001600160a01b0384169083907f6474509949d7dca0e17a8cf02aeb66814967a3c7adbfefc212edb6e6693b6865905f90a3600d546001600160a01b03166110e25760405162461bcd60e51b815260206004820152601d60248201527f53746162696c697a6572457363726f7720696d706c206e6f74207365740000006044820152606401610b43565b600e546001600160a01b031661113a5760405162461bcd60e51b815260206004820152601b60248201527f506f736974696f6e457363726f7720696d706c206e6f742073657400000000006044820152606401610b43565b600d545f90611151906001600160a01b0316613f93565b90506001600160a01b0381166111a95760405162461bcd60e51b815260206004820152601d60248201527f53746162696c697a6572457363726f7720636c6f6e65206661696c65640000006044820152606401610b43565b600a54600b546040516306b0729b60e31b8152306004820152602481018690526001600160a01b03928316604482015290821660648201529082169063358394d8906084015f604051808303815f87803b158015611205575f80fd5b505af1158015611217573d5f803e3d5ffd5b5050505f848152600f6020526040812080546001600160a01b0319166001600160a01b0385811691909117909155600e549192506112559116613f93565b90506001600160a01b0381166112ad5760405162461bcd60e51b815260206004820152601b60248201527f506f736974696f6e457363726f7720636c6f6e65206661696c656400000000006044820152606401610b43565b600a54600b54600c54600554604080516307dc0d1d60e41b815290516001600160a01b038781169663cc2a9a5b9630968e9692841695918416949084169390921691637dc0d1d0916004808201926020929091908290030181865afa158015611318573d5f803e3d5ffd5b505050506040513d601f19601f8201168201806040525081019061133c91906156d4565b60405160e088901b6001600160e01b03191681526001600160a01b0396871660048201529486166024860152928516604485015290841660648401528316608483015290911660a482015260c4015f604051808303815f87803b1580156113a1575f80fd5b505af11580156113b3573d5f803e3d5ffd5b5050505f85815260106020526040902080546001600160a01b0319166001600160a01b038416179055506113f45f80516020615b9883398151915282613e60565b505050505050565b610e7483838360405180602001604052805f8152506120e9565b604080518082019091525f80825260208201526005546001600160a01b031633146114795760405162461bcd60e51b815260206004820152601360248201527213db9b1e4818d554d4110818dbdb9d1c9858dd606a1b6044820152606401610b43565b6001545f036114c15760405162461bcd60e51b81526020600482015260146024820152734e6f20756e616c6c6f63617465642066756e647360601b6044820152606401610b43565b5f34116114fe5760405162461bcd60e51b815260206004820152600b60248201526a139bc8115512081cd95b9d60aa1b6044820152606401610b43565b6001545f8083526020830152345b811580159061151a57505f81115b15611ad357620186a05a10611ad3575f82815260208181526040808320600f909252909120546001600160a01b0316806115965760405162461bcd60e51b815260206004820152601f60248201527f457363726f77206e6f7420666f756e6420666f722073746162696c697a6572006044820152606401610b43565b5f816001600160a01b031663ec60b9ab6040518163ffffffff1660e01b8152600401602060405180830381865afa1580156115d3573d5f803e3d5ffd5b505050506040513d601f19601f820116820180604052508101906115f7919061568f565b9050801580611604575083155b1561161657505060020154915061150c565b5f846064855f01548761162991906156ef565b611633919061571a565b61163d919061572d565b90505f82821161164d578161164f565b825b9050858282101561168a5785546116689060649061572d565b6116738360646156ef565b61167d919061571a565b90508681111561168a5750855b5f888152601060205260409020546001600160a01b0316806116e95760405162461bcd60e51b8152602060048201526018602482015277141bdcda5d1a5bdb915cd8dc9bddc81b9bdd08199bdd5b9960421b6044820152606401610b43565b604051634f68ae7560e01b8152600481018490523060248201526001600160a01b03871690634f68ae75906044015f604051808303815f87803b15801561172e575f80fd5b505af1158015611740573d5f803e3d5ffd5b5050600a546040516323b872dd60e01b81526001600160a01b038a811660048301528581166024830152604482018890525f945090911691506323b872dd906064016020604051808303815f875af115801561179e573d5f803e3d5ffd5b505050506040513d601f19601f820116820180604052508101906117c29190615740565b90508061182c5760405162461bcd60e51b815260206004820152603260248201527f53746162696c697a6572207374455448207472616e7366657220746f20506f736044820152711a5d1a5bdb915cd8dc9bddc819985a5b195960721b6064820152608401610b43565b60405163bf3fdde760e01b8152600481018590526001600160a01b0383169063bf3fdde79085906024015f604051808303818588803b15801561186d575f80fd5b505af115801561187f573d5f803e3d5ffd5b50505050505f8c600a6118929190615836565b61189c8f866156ef565b6118a6919061571a565b90505f600c5f9054906101000a90046001600160a01b03166001600160a01b031663efa7fa5d6040518163ffffffff1660e01b8152600401602060405180830381865afa1580156118f9573d5f803e3d5ffd5b505050506040513d601f19601f8201168201806040525081019061191d919061568f565b90505f81600c5f9054906101000a90046001600160a01b03166001600160a01b031663a42c69a96040518163ffffffff1660e01b8152600401602060405180830381865afa158015611971573d5f803e3d5ffd5b505050506040513d601f19601f82011682018060405250810190611995919061568f565b61199f90856156ef565b6119a9919061571a565b6040516302ff41ff60e21b8152600481018290529091506001600160a01b03861690630bfd07fc906024015f604051808303815f87803b1580156119eb575f80fd5b505af11580156119fd573d5f803e3d5ffd5b50505050858e5f01818151611a129190615841565b905250611a1f868d61572d565b6040805189815260208101899052919d508e917fc0a79f21f196b4ee5a242474a85cb9aa5fc2ce59ecc884d7271f1c2bd19b9a13910160405180910390a260038b0154158015611a71575060048b0154155b8015611a7f57508c60035414155b15611a8d57611a8d8d613f9e565b611a978787615841565b8e602001818151611aa89190615841565b90525060028b0154898803611ac057611ac08e61407d565b9c5061150c9a5050505050505050505050565b8251611b165760405162461bcd60e51b8152602060048201526012602482015271139bc8199d5b991cc8185b1b1bd8d85d195960721b6044820152606401610b43565b602083015115611b85576006546020840151604051631edfe7dd60e31b81526001600160a01b039092169163f6ff3ee891611b579160040190815260200190565b5f604051808303815f87803b158015611b6e575f80fd5b505af1158015611b80573d5f803e3d5ffd5b505050505b505092915050565b5f5f80516020615b58833981519152611bb15f80516020615bb88339815191525490565b8310611bd4575f8360405163295f44f760e21b8152600401610b43929190615676565b806002018381548110611be957611be9615854565b905f5260205f200154915050919050565b5f611c0481613e53565b6011610e7483826158ac565b5f610c4f82613dc2565b5f80516020615b98833981519152611c3181613e53565b8115610d1557600c546040805163efa7fa5d60e01b815290515f926001600160a01b03169163efa7fa5d9160048083019260209291908290030181865afa158015611c7e573d5f803e3d5ffd5b505050506040513d601f19601f82011682018060405250810190611ca2919061568f565b90505f8111611cff5760405162461bcd60e51b815260206004820152602360248201527f5969656c6420666163746f72207a65726f20647572696e67207265706f72742060448201526218591960ea1b6064820152608401610b43565b600654604051631edfe7dd60e31b8152600481018590526001600160a01b039091169063f6ff3ee890602401610f99565b60118054611d3d9061563e565b80601f0160208091040260200160405190810160405280929190818152602001828054611d699061563e565b8015611db45780601f10611d8b57610100808354040283529160200191611db4565b820191905f5260205f20905b815481529060010190602001808311611d9757829003601f168201915b505050505081565b5f5f80516020615b788339815191526001600160a01b038316611df4576040516322718ad960e21b81525f6004820152602401610b43565b6001600160a01b039092165f908152600390920160205250604090205490565b5f611e1e81613e53565b6001600160a01b038216611e745760405162461bcd60e51b815260206004820181905260248201527f5a65726f206164647265737320666f7220496e737572616e6365457363726f776044820152606401610b43565b600780546001600160a01b0319166001600160a01b0384169081179091556040517fc742eb858a96cf01aa10a0d4654fbd16ec649171aa4f54b3efedcc59b4ec6eb7905f90a25050565b5f9182525f80516020615bd8833981519152602090815260408084206001600160a01b0393909316845291905290205460ff1690565b7f80bb2b638cc20bc4d0a60d66940f3ab4a00c1d7b313497ca82fb0b4ab007930180546060915f80516020615b7883398151915291610c749061563e565b610d1533838361413d565b33611f4783611c10565b6001600160a01b031614611f6d5760405162461bcd60e51b8152600401610b4390615615565b5f8111611fb65760405162461bcd60e51b8152602060048201526017602482015276416d6f756e74206d75737420626520706f73697469766560481b6044820152606401610b43565b5f828152600f60205260409020546001600160a01b031680611fea5760405162461bcd60e51b8152600401610b4390615967565b604051622a405560ea1b8152600481018390526001600160a01b0382169063a9015400906024015f604051808303815f87803b158015612028575f80fd5b505af115801561203a573d5f803e3d5ffd5b50505050806001600160a01b031663ec60b9ab6040518163ffffffff1660e01b8152600401602060405180830381865afa15801561207a573d5f803e3d5ffd5b505050506040513d601f19601f8201168201806040525081019061209e919061568f565b5f036120ad576120ad8361407d565b604051828152339084907f19c1c869dd7473a5f044067f579bac3244509e5680cb0c044bc60f0a8165f5699060200160405180910390a3505050565b6120f4848484610d19565b610d9c33858585856141ec565b5f8061210c83611c10565b6001600160a01b0316036121595760405162461bcd60e51b8152602060048201526014602482015273151bdad95b88191bd95cc81b9bdd08195e1a5cdd60621b6044820152606401610b43565b505f9081526020819052604090205490565b3361217583611c10565b6001600160a01b03161461219b5760405162461bcd60e51b8152600401610b4390615615565b5f81116121e45760405162461bcd60e51b8152602060048201526017602482015276416d6f756e74206d75737420626520706f73697469766560481b6044820152606401610b43565b5f828152600f60205260409020546001600160a01b0316806122185760405162461bcd60e51b8152600401610b4390615967565b600a546040516323b872dd60e01b81523360048201526001600160a01b03838116602483015260448201859052909116906323b872dd906064016020604051808303815f875af115801561226e573d5f803e3d5ffd5b505050506040513d601f19601f820116820180604052508101906122929190615740565b5061229c83614312565b600a5460405184917f055b14c7efbc07d692265b907b52ec309741a29408ffad1d871aa6b371ac7729916122db916001600160a01b0316908690615676565b60405180910390a2505050565b60605f6122f483611c10565b6001600160a01b03160361234a5760405162461bcd60e51b815260206004820152601860248201527f4552433732313a20696e76616c696420746f6b656e20494400000000000000006044820152606401610b43565b5f601180546123589061563e565b80601f01602080910402602001604051908101604052809291908181526020018280546123849061563e565b80156123cf5780601f106123a6576101008083540402835291602001916123cf565b820191905f5260205f20905b8154815290600101906020018083116123b257829003601f168201915b505050505090505f8151116123f25760405180602001604052805f81525061241d565b806123fc8461444b565b60405160200161240d9291906159a8565b6040516020818303038152906040525b9392505050565b5f61242e81613e53565b606483101561247f5760405162461bcd60e51b815260206004820152601d60248201527f5061796f75742070657263656e74206d757374206265203e3d203130300000006044820152606401610b43565b60648211801561248f575060c882105b6124ed5760405162461bcd60e51b815260206004820152602960248201527f5468726573686f6c642070657263656e74206d757374206265203e20313030206044820152680616e64203c203230360bc1b6064820152608401610b43565b818311156125545760405162461bcd60e51b815260206004820152602e60248201527f5061796f75742070657263656e742063616e6e6f74206578636565642074687260448201526d195cda1bdb19081c195c98d95b9d60921b6064820152608401610b43565b6008839055600982905560408051848152602081018490527fa77b8395e46a8c29538416a1e6724672bc0fd11ce31270e10c9423e58752393b910160405180910390a1505050565b6007546001600160a01b03166125f45760405162461bcd60e51b815260206004820152601760248201527f496e737572616e6365457363726f77206e6f74207365740000000000000000006044820152606401610b43565b5f82116126435760405162461bcd60e51b815260206004820152601c60248201527f4e6f2063555350442073686172657320746f206c6971756964617465000000006044820152606401610b43565b5f61264d84611c10565b6001600160a01b03160361269a5760405162461bcd60e51b8152602060048201526014602482015273151bdad95b88191bd95cc81b9bdd08195e1a5cdd60621b6044820152606401610b43565b5f838152601060205260409020546001600160a01b0316806127095760405162461bcd60e51b815260206004820152602260248201527f506f736974696f6e457363726f77206e6f7420666f756e6420666f7220746f6b60448201526132b760f11b6064820152608401610b43565b600554604080516307dc0d1d60e41b815290515f926001600160a01b031691637dc0d1d09160048083019260209291908290030181865afa158015612750573d5f803e3d5ffd5b505050506040513d601f19601f8201168201806040525081019061277491906156d4565b90506001600160a01b0381166127cc5760405162461bcd60e51b815260206004820152601c60248201527f4f7261636c65206e6f742073657420696e206355535044546f6b656e000000006044820152606401610b43565b6040516365ab8c7160e01b81525f906001600160a01b038316906365ab8c71906127fa9087906004016159e4565b6060604051808303815f875af1158015612816573d5f803e3d5ffd5b505050506040513d601f19601f8201168201806040525081019061283a9190615a7d565b80519091506128825760405162461bcd60e51b8152602060048201526014602482015273496e76616c6964206f7261636c6520707269636560601b6044820152606401610b43565b5f839050806001600160a01b031663d39aa95a6040518163ffffffff1660e01b8152600401602060405180830381865afa1580156128c2573d5f803e3d5ffd5b505050506040513d601f19601f820116820180604052508101906128e6919061568f565b8611156129355760405162461bcd60e51b815260206004820152601d60248201527f4e6f7420656e6f7567682073686172657320696e20706f736974696f6e0000006044820152606401610b43565b6009546040805163dc607d6f60e01b815284516004820152602085015160ff1660248201529084015160448201526001600160a01b0383169063dc607d6f90606401602060405180830381865afa158015612992573d5f803e3d5ffd5b505050506040513d601f19601f820116820180604052508101906129b6919061568f565b10612a145760405162461bcd60e51b815260206004820152602860248201527f506f736974696f6e206e6f742062656c6f77206c69717569646174696f6e20746044820152671a1c995cda1bdb1960c21b6064820152608401610b43565b6005546040516323b872dd60e01b8152336004820152306024820152604481018890526001600160a01b03909116906323b872dd906064016020604051808303815f875af1158015612a68573d5f803e3d5ffd5b505050506040513d601f19601f82011682018060405250810190612a8c9190615740565b506001600160a01b038116630bfd07fc612aa5886156ba565b6040518263ffffffff1660e01b8152600401612ac391815260200190565b5f604051808303815f87803b158015612ada575f80fd5b505af1158015612aec573d5f803e3d5ffd5b505050505f816001600160a01b031663ee5f44076040518163ffffffff1660e01b8152600401602060405180830381865afa158015612b2d573d5f803e3d5ffd5b505050506040513d601f19601f82011682018060405250810190612b51919061568f565b90508015612bb557604051636a0eee4b60e11b8152600481018290523060248201526001600160a01b0383169063d41ddc96906044015f604051808303815f87803b158015612b9e575f80fd5b505af1158015612bb0573d5f803e3d5ffd5b505050505b600c546040805163efa7fa5d60e01b815290515f926001600160a01b03169163efa7fa5d9160048083019260209291908290030181865afa158015612bfc573d5f803e3d5ffd5b505050506040513d601f19601f82011682018060405250810190612c20919061568f565b11612c645760405162461bcd60e51b815260206004820152601460248201527324b73b30b634b2103cb4b2b632103330b1ba37b960611b6044820152606401610b43565b825160208401515f9190612c7c9060ff16600a615836565b600c546040805163efa7fa5d60e01b81529051670de0b6b3a7640000926001600160a01b03169163efa7fa5d9160048083019260209291908290030181865afa158015612ccb573d5f803e3d5ffd5b505050506040513d601f19601f82011682018060405250810190612cef919061568f565b612cf9908c6156ef565b612d03919061571a565b612d0d91906156ef565b612d17919061571a565b90505f606460085483612d2a91906156ef565b612d34919061571a565b90505f818410612ea957600a5460405163a9059cbb60e01b81526001600160a01b039091169063a9059cbb90612d709033908690600401615676565b6020604051808303815f875af1158015612d8c573d5f803e3d5ffd5b505050506040513d601f19601f82011682018060405250810190612db09190615740565b5081905081841115612ea457600a546007546001600160a01b039182169163095ea7b39116612ddf858861572d565b6040518363ffffffff1660e01b8152600401612dfc929190615676565b6020604051808303815f875af1158015612e18573d5f803e3d5ffd5b505050506040513d601f19601f82011682018060405250810190612e3c9190615740565b506007546001600160a01b031663de5d64f1612e58848761572d565b6040518263ffffffff1660e01b8152600401612e7691815260200190565b5f604051808303815f87803b158015612e8d575f80fd5b505af1158015612e9f573d5f803e3d5ffd5b505050505b613097565b600a5460405163a9059cbb60e01b81526001600160a01b039091169063a9059cbb90612edb9033908890600401615676565b6020604051808303815f875af1158015612ef7573d5f803e3d5ffd5b505050506040513d601f19601f82011682018060405250810190612f1b9190615740565b508390505f612f2a828461572d565b905080156130955760075460408051635b73e7c160e01b815290515f926001600160a01b031691635b73e7c19160048083019260209291908290030181865afa158015612f79573d5f803e3d5ffd5b505050506040513d601f19601f82011682018060405250810190612f9d919061568f565b8211612fa9578161301d565b60075f9054906101000a90046001600160a01b03166001600160a01b0316635b73e7c16040518163ffffffff1660e01b8152600401602060405180830381865afa158015612ff9573d5f803e3d5ffd5b505050506040513d601f19601f8201168201806040525081019061301d919061568f565b905080156130935760075460405163df6e697360e01b81526001600160a01b039091169063df6e6973906130579033908590600401615676565b5f604051808303815f87803b15801561306e575f80fd5b505af1158015613080573d5f803e3d5ffd5b5050505080836130909190615841565b92505b505b505b6006546001600160a01b031663f6ff3ee86130b1866156ba565b6040518263ffffffff1660e01b81526004016130cf91815260200190565b5f604051808303815f87803b1580156130e6575f80fd5b505af11580156130f8573d5f803e3d5ffd5b50505050846001600160a01b031663d39aa95a6040518163ffffffff1660e01b8152600401602060405180830381865afa158015613138573d5f803e3d5ffd5b505050506040513d601f19601f8201168201806040525081019061315c919061568f565b5f0361320e5761316b8b614548565b5f8b8152600f60205260409020546001600160a01b03161580159061320057505f8b8152600f6020908152604080832054815163ec60b9ab60e01b815291516001600160a01b039091169263ec60b9ab92600480820193918290030181865afa1580156131da573d5f803e3d5ffd5b505050506040513d601f19601f820116820180604052508101906131fe919061568f565b115b1561320e5761320e8b614312565b8551604080518c815260208101849052808201929092525133918d917f5564304997c5a4b15399de434a73fbc4339eae8f1b5b2875d0feac2826ce33d29181900360600190a35050505050505050505050565b61326a82610da2565b61327381613e53565b610d9c8383613f01565b5f613286614608565b805490915060ff600160401b820416159067ffffffffffffffff165f811580156132ad5750825b90505f8267ffffffffffffffff1660011480156132c95750303b155b9050811580156132d7575080155b156132f55760405163f92ee8a960e01b815260040160405180910390fd5b845467ffffffffffffffff19166001178555831561331f57845460ff60401b1916600160401b1785555b61336d6040518060400160405280600f81526020016e2aa9a8221029ba30b134b634bd32b960891b81525060405180604001604052806005815260200164555350445360d81b815250614630565b613375614642565b61337d614642565b6133875f87613e60565b508e60055f6101000a8154816001600160a01b0302191690836001600160a01b031602179055508d600a5f6101000a8154816001600160a01b0302191690836001600160a01b031602179055508c600b5f6101000a8154816001600160a01b0302191690836001600160a01b031602179055508b600c5f6101000a8154816001600160a01b0302191690836001600160a01b031602179055508a60065f6101000a8154816001600160a01b0302191690836001600160a01b031602179055505f6001600160a01b03168a6001600160a01b0316036134b65760405162461bcd60e51b815260206004820152602660248201527f496e737572616e6365457363726f7720616464726573732063616e6e6f74206260448201526565207a65726f60d01b6064820152608401610b43565b600780546001600160a01b0319166001600160a01b038c169081179091556040517fc742eb858a96cf01aa10a0d4654fbd16ec649171aa4f54b3efedcc59b4ec6eb7905f90a260116135088a826158ac565b50600d80546001600160a01b03808b166001600160a01b031992831617909255600e8054928a16929091169190911790556069600855606e600955831561358957845460ff60401b19168555604051600181527fc7f505b2f371ae2175ee4913f4499e1f2633a7b5936321eed1cdaeb6115181d29060200160405180910390a15b505050505050505050505050505050565b6001600160a01b039182165f9081527f80bb2b638cc20bc4d0a60d66940f3ab4a00c1d7b313497ca82fb0b4ab00793056020908152604080832093909416825291909152205460ff1690565b336135f082611c10565b6001600160a01b0316146136165760405162461bcd60e51b8152600401610b4390615615565b5f34116136535760405162461bcd60e51b815260206004820152600b60248201526a139bc8115512081cd95b9d60aa1b6044820152606401610b43565b5f818152600f60205260409020546001600160a01b0316806136875760405162461bcd60e51b8152600401610b4390615967565b806001600160a01b031663d0e30db0346040518263ffffffff1660e01b81526004015f604051808303818588803b1580156136c0575f80fd5b505af11580156136d2573d5f803e3d5ffd5b50505050506136e082614312565b817f055b14c7efbc07d692265b907b52ec309741a29408ffad1d871aa6b371ac77295f34604051613712929190615676565b60405180910390a25050565b6005545f906001600160a01b031633146137705760405162461bcd60e51b815260206004820152601360248201527213db9b1e4818d554d4110818dbdb9d1c9858dd606a1b6044820152606401610b43565b6004545f036137b65760405162461bcd60e51b81526020600482015260126024820152714e6f20616c6c6f63617465642066756e647360701b6044820152606401610b43565b600454835f805b83158015906137cb57505f83115b15613ce257620186a05a10613ce2575f848152602081815260408083206010909252909120546001600160a01b0316806138425760405162461bcd60e51b8152602060048201526018602482015277141bdcda5d1a5bdb915cd8dc9bddc81b9bdd08199bdd5b9960421b6044820152606401610b43565b5f8190505f816001600160a01b031663d39aa95a6040518163ffffffff1660e01b8152600401602060405180830381865afa158015613883573d5f803e3d5ffd5b505050506040513d601f19601f820116820180604052508101906138a7919061568f565b90508015613cd4575f8188116138bd57876138bf565b815b90508015613cd2575f806138d485848f61464c565b91509150846001600160a01b0316630bfd07fc846138f1906156ba565b6040518263ffffffff1660e01b815260040161390f91815260200190565b5f604051808303815f87803b158015613926575f80fd5b505af1158015613938573d5f803e3d5ffd5b505050505f8211156139a057604051636a0eee4b60e11b8152600481018390523060248201526001600160a01b0386169063d41ddc96906044015f604051808303815f87803b158015613989575f80fd5b505af115801561399b573d5f803e3d5ffd5b505050505b5f6139ab828461572d565b90508115613a9a57600a5460055460405163a9059cbb60e01b81525f926001600160a01b039081169263a9059cbb926139ec92909116908790600401615676565b6020604051808303815f875af1158015613a08573d5f803e3d5ffd5b505050506040513d601f19601f82011682018060405250810190613a2c9190615740565b905080613a8c5760405162461bcd60e51b815260206004820152602860248201527f55736572207374455448207472616e7366657220746f206355535044546f6b656044820152671b8819985a5b195960c21b6064820152608401610b43565b613a96838c615841565b9a50505b8015613be5575f8c8152600f60205260409020546001600160a01b031680613b045760405162461bcd60e51b815260206004820152601a60248201527f53746162696c697a6572457363726f77206e6f7420666f756e640000000000006044820152606401610b43565b600a5460405163a9059cbb60e01b81525f916001600160a01b03169063a9059cbb90613b369085908790600401615676565b6020604051808303815f875af1158015613b52573d5f803e3d5ffd5b505050506040513d601f19601f82011682018060405250810190613b769190615740565b905080613be25760405162461bcd60e51b815260206004820152603460248201527f53746162696c697a6572207374455448207472616e7366657220746f20537461604482015273189a5b1a5e995c915cd8dc9bddc819985a5b195960621b6064820152608401610b43565b50505b613bef838a615841565b98508484148015613c8557613c038d614548565b5f8d8152600f6020908152604080832054815163ec60b9ab60e01b815291516001600160a01b039091169263ec60b9ab92600480820193918290030181865afa158015613c52573d5f803e3d5ffd5b505050506040513d601f19601f82011682018060405250810190613c76919061568f565b1115613c8557613c858d614312565b613c8f858d61572d565b6040805185815260208101859052919d508e917f7bd51af63c72ca163b2d37a37219fbdda7a4c3803f69ed76e3948078619a32f9910160405180910390a2505050505b505b5050506003015493506137bd565b5f8211613d285760405162461bcd60e51b8152602060048201526014602482015273139bc8199d5b991cc81d5b985b1b1bd8d85d195960621b6044820152606401610b43565b8015613d94576006546001600160a01b031663f6ff3ee8613d48836156ba565b6040518263ffffffff1660e01b8152600401613d6691815260200190565b5f604051808303815f87803b158015613d7d575f80fd5b505af1158015613d8f573d5f803e3d5ffd5b505050505b5095945050505050565b5f6001600160e01b03198216637965db0b60e01b1480610c4f5750610c4f82614950565b5f80613dcd83614974565b90506001600160a01b038116610c4f57604051637e27328960e01b815260048101849052602401610b43565b5f9081527f80bb2b638cc20bc4d0a60d66940f3ab4a00c1d7b313497ca82fb0b4ab007930460205260409020546001600160a01b031690565b610e7483838360016149ad565b5f613e4b848484614ac0565b949350505050565b613e5d8133614bb6565b50565b5f5f80516020615bd8833981519152613e798484611ebe565b613ef8575f848152602082815260408083206001600160a01b03871684529091529020805460ff19166001179055613eae3390565b6001600160a01b0316836001600160a01b0316857f2f8788117e7eff1d82e926ec794901d17c78024a50270940304540a733656f0d60405160405180910390a46001915050610c4f565b5f915050610c4f565b5f5f80516020615bd8833981519152613f1a8484611ebe565b15613ef8575f848152602082815260408083206001600160a01b0387168085529252808320805460ff1916905551339287917ff6391f5c32d9c69d2a47ea670b442974b53935d1edc7fd64eb21e047a839171b9190a46001915050610c4f565b610d15828260405180602001604052805f815250614be1565b5f610c4f825f614bf8565b6003541580613fad5750600454155b15613fbc576003819055600455565b600454811115613fea57600480545f8381526020819052604080822060030183905591815220810182905555565b60035481101561401857600380545f8381526020819052604080822060040183905591815220810182905555565b6003545b801580159061402a57508181105b15614045575f9081526020819052604090206004015461401c565b5f8181526020819052604080822060039081018054868552838520928301819055600492830186905584529183200184905591905255565b5f8181526020819052604090206001548214801561409c575060025482145b156140af575f600181905560025561412c565b60015482036140d657600281015460018181555f918252602082905260408220015561412c565b60025482036140fd57600181015460028181555f918252602082905260408220015561412c565b600180820154600280840180545f90815260208190526040808220909501849055905492815292909220909101555b5f6002820181905560019091015550565b5f80516020615b788339815191526001600160a01b03831661417d57604051630b61174360e31b81526001600160a01b0384166004820152602401610b43565b6001600160a01b038481165f818152600584016020908152604080832094881680845294825291829020805460ff191687151590811790915591519182527f17307eab39ab6107e8899845ad3d59bd9653f200f220920489ca2b5937696c31910160405180910390a350505050565b6001600160a01b0383163b1561430b57604051630a85bd0160e11b81526001600160a01b0384169063150b7a029061422e908890889087908790600401615ac1565b6020604051808303815f875af1925050508015614268575060408051601f3d908101601f1916820190925261426591810190615afd565b60015b6142cf573d808015614295576040519150601f19603f3d011682016040523d82523d5f602084013e61429a565b606091505b5080515f036142c757604051633250574960e11b81526001600160a01b0385166004820152602401610b43565b805181602001fd5b6001600160e01b03198116630a85bd0160e11b146113f457604051633250574960e11b81526001600160a01b0385166004820152602401610b43565b5050505050565b5f818152602081905260409020600181015415801561433357506002810154155b801561434157508160015414155b15610d15576001545f0361435a57506001819055600255565b60025482111561438757600280546001929092018290555f91825260208290526040909120810182905555565b6001548210156143b457600180546002929092018290555f91825260208290526040909120810182905555565b6001545b5f81815260208190526040902060020154158015906143e657505f8181526020819052604090206002015483115b15614401575f908152602081905260409020600201546143b8565b5f81815260208190526040902060029081018054600185018490559184018290558490558015614443575f818152602081905260409020600101849055610d9c565b505050600255565b6060815f036144715750506040805180820190915260018152600360fc1b602082015290565b815f5b811561449a578061448481615b18565b91506144939050600a8361571a565b9150614474565b5f8167ffffffffffffffff8111156144b4576144b4615283565b6040519080825280601f01601f1916602001820160405280156144de576020820181803683370190505b5090505b8415613e4b576144f360018361572d565b9150614500600a86615b30565b61450b906030615841565b60f81b81838151811061452057614520615854565b60200101906001600160f81b03191690815f1a905350614541600a8661571a565b94506144e2565b5f81815260208190526040902060035482148015614567575060045482145b1561457a575f60038190556004556145f7565b60035482036145a157600481015460038181555f91825260208290526040822001556145f7565b60045482036145c857600381015460048181555f91825260208290526040822001556145f7565b600380820154600480840180545f90815260208190526040808220909501849055905492815292909220909101555b5f6004820181905560039091015550565b5f807ff0c57e16840df040f15088dc2f81fe391c3923bec73e23a9662efc9c229c6a00610c4f565b614638614c8c565b610d158282614cb1565b61464a614c8c565b565b5f80846001600160a01b031663d39aa95a6040518163ffffffff1660e01b8152600401602060405180830381865afa15801561468a573d5f803e3d5ffd5b505050506040513d601f19601f820116820180604052508101906146ae919061568f565b5f036146be57505f905080614948565b600c546040805163efa7fa5d60e01b815290515f926001600160a01b03169163efa7fa5d9160048083019260209291908290030181865afa158015614705573d5f803e3d5ffd5b505050506040513d601f19601f82011682018060405250810190614729919061568f565b90505f600c5f9054906101000a90046001600160a01b03166001600160a01b031663a42c69a96040518163ffffffff1660e01b8152600401602060405180830381865afa15801561477c573d5f803e3d5ffd5b505050506040513d601f19601f820116820180604052508101906147a0919061568f565b6147aa83886156ef565b6147b4919061571a565b85519091506148055760405162461bcd60e51b815260206004820152601b60248201527f4f7261636c652070726963652063616e6e6f74206265207a65726f00000000006044820152606401610b43565b8451602086015161481a9060ff16600a615836565b61482490836156ef565b61482e919061571a565b6040805163dc607d6f60e01b815287516004820152602088015160ff1660248201529087015160448201529093505f906001600160a01b0389169063dc607d6f90606401602060405180830381865afa15801561488d573d5f803e3d5ffd5b505050506040513d601f19601f820116820180604052508101906148b1919061568f565b905060648110156149205760405162461bcd60e51b815260206004820152603360248201527f43616e6e6f7420756e616c6c6f636174652066726f6d20756e646572636f6c6c60448201527230ba32b930b634bd32b2103837b9b4ba34b7b760691b6064820152608401610b43565b606461492c82866156ef565b614936919061571a565b945084841115614944578493505b5050505b935093915050565b5f6001600160e01b0319821663780e9d6360e01b1480610c4f5750610c4f82614ce1565b5f9081527f80bb2b638cc20bc4d0a60d66940f3ab4a00c1d7b313497ca82fb0b4ab007930260205260409020546001600160a01b031690565b5f80516020615b7883398151915281806149cf57506001600160a01b03831615155b15614a90575f6149de85613dc2565b90506001600160a01b03841615801590614a0a5750836001600160a01b0316816001600160a01b031614155b8015614a1d5750614a1b818561359a565b155b15614a465760405163a9fbf51f60e01b81526001600160a01b0385166004820152602401610b43565b8215614a8e5784866001600160a01b0316826001600160a01b03167f8c5be1e5ebec7d5bd14f71427d1e84f3dd0314c0f7b2291e5b200ac8c7c3b92560405160405180910390a45b505b5f93845260040160205250506040902080546001600160a01b0319166001600160a01b0392909216919091179055565b5f80614acd858585614d30565b90506001600160a01b038116614b5457614b4f845f80516020615bb883398151915280545f8381527f645e039705490088daad89bae25049a34f4a9072d398537b1ab2425f24cbed0360205260408120829055600182018355919091527fa42f15e5d656f8155fd7419d740a6073999f19cd6e061449ce4a257150545bf20155565b614b77565b846001600160a01b0316816001600160a01b031614614b7757614b778185614e32565b6001600160a01b038516614b9357614b8e84614ec9565b613e4b565b846001600160a01b0316816001600160a01b031614613e4b57613e4b8585614f96565b614bc08282611ebe565b610d1557808260405163e2517d3f60e01b8152600401610b43929190615676565b614beb8383614fee565b610e74335f8585856141ec565b5f81471015614c235760405163cf47918160e01b815247600482015260248101839052604401610b43565b763d602d80600a3d3981f3363d3d373d3d3d363d730000008360601b60e81c175f526e5af43d82803e903d91602b57fd5bf38360781b176020526037600983f090506001600160a01b038116610c4f5760405163b06ebf3d60e01b815260040160405180910390fd5b614c9461504f565b61464a57604051631afcd79f60e31b815260040160405180910390fd5b614cb9614c8c565b5f80516020615b7883398151915280614cd284826158ac565b5060018101610d9c83826158ac565b5f6001600160e01b031982166380ac58cd60e01b1480614d1157506001600160e01b03198216635b5e139f60e01b145b80610c4f57506301ffc9a760e01b6001600160e01b0319831614610c4f565b5f5f80516020615b7883398151915281614d4985614974565b90506001600160a01b03841615614d6557614d65818587615068565b6001600160a01b03811615614da157614d805f865f806149ad565b6001600160a01b0381165f908152600383016020526040902080545f190190555b6001600160a01b03861615614dd1576001600160a01b0386165f9081526003830160205260409020805460010190555b5f85815260028301602052604080822080546001600160a01b0319166001600160a01b038a811691821790925591518893918516917fddf252ad1be2c89b69c2b068fc378daa952ba7f163c4a11628f55a4df523b3ef91a495945050505050565b5f80516020615b588339815191525f614e4a84611dbc565b5f8481526001840160209081526040808320546001600160a01b03891684529186905290912091925090818314614ea2575f838152602082815260408083205485845281842081905583526001870190915290208290555b5f948552600190930160209081526040808620869055928552929092528220919091555050565b5f80516020615bb8833981519152545f80516020615b58833981519152905f90614ef59060019061572d565b5f848152600384016020526040812054600285018054939450909284908110614f2057614f20615854565b905f5260205f200154905080846002018381548110614f4157614f41615854565b5f91825260208083209091019290925582815260038601909152604080822084905586825281205560028401805480614f7c57614f7c615b43565b600190038181905f5260205f20015f905590555050505050565b5f80516020615b588339815191525f6001614fb085611dbc565b614fba919061572d565b6001600160a01b039094165f9081526020838152604080832087845282528083208690559482526001909301909252502055565b6001600160a01b03821661501757604051633250574960e11b81525f6004820152602401610b43565b5f61502383835f613e3f565b90506001600160a01b03811615610e74576040516339e3563760e11b81525f6004820152602401610b43565b5f615058614608565b54600160401b900460ff16919050565b6150738383836150be565b610e74576001600160a01b0383166150a157604051637e27328960e01b815260048101829052602401610b43565b818160405163177e802f60e01b8152600401610b43929190615676565b5f6001600160a01b03831615801590613e4b5750826001600160a01b0316846001600160a01b031614806150f757506150f7848461359a565b80613e4b5750826001600160a01b031661511083613df9565b6001600160a01b031614949350505050565b5f8060408385031215615133575f80fd5b50508035926020909101359150565b6001600160e01b031981168114613e5d575f80fd5b5f60208284031215615167575f80fd5b813561241d81615142565b5f81518084528060208401602086015e5f602082860101526020601f19601f83011685010191505092915050565b602081525f61241d6020830184615172565b5f602082840312156151c2575f80fd5b5035919050565b6001600160a01b0381168114613e5d575f80fd5b80356151e8816151c9565b919050565b5f80604083850312156151fe575f80fd5b8235615209816151c9565b946020939093013593505050565b5f805f60608486031215615229575f80fd5b8335615234816151c9565b92506020840135615244816151c9565b929592945050506040919091013590565b5f8060408385031215615266575f80fd5b823591506020830135615278816151c9565b809150509250929050565b634e487b7160e01b5f52604160045260245ffd5b6040516060810167ffffffffffffffff811182821017156152ba576152ba615283565b60405290565b5f8067ffffffffffffffff8411156152da576152da615283565b50604051601f19601f85018116603f0116810181811067ffffffffffffffff8211171561530957615309615283565b604052838152905080828401851015615320575f80fd5b838360208301375f60208583010152509392505050565b5f82601f830112615346575f80fd5b61241d838335602085016152c0565b5f60208284031215615365575f80fd5b813567ffffffffffffffff81111561537b575f80fd5b613e4b84828501615337565b5f60208284031215615397575f80fd5b813561241d816151c9565b8015158114613e5d575f80fd5b5f80604083850312156153c0575f80fd5b82356153cb816151c9565b91506020830135615278816153a2565b5f805f80608085870312156153ee575f80fd5b84356153f9816151c9565b93506020850135615409816151c9565b925060408501359150606085013567ffffffffffffffff81111561542b575f80fd5b8501601f8101871361543b575f80fd5b61544a878235602084016152c0565b91505092959194509250565b5f805f60608486031215615468575f80fd5b8335925060208401359150604084013567ffffffffffffffff81111561548c575f80fd5b840160a0818703121561549d575f80fd5b809150509250925092565b5f805f805f805f805f806101408b8d0312156154c2575f80fd5b8a356154cd816151c9565b995060208b01356154dd816151c9565b985060408b01356154ed816151c9565b975060608b01356154fd816151c9565b965061550b60808c016151dd565b955061551960a08c016151dd565b945060c08b013567ffffffffffffffff811115615534575f80fd5b6155408d828e01615337565b94505061554f60e08c016151dd565b925061555e6101008c016151dd565b915061556d6101208c016151dd565b90509295989b9194979a5092959850565b5f806040838503121561558f575f80fd5b823561559a816151c9565b91506020830135615278816151c9565b60ff81168114613e5d575f80fd5b5f8082840360808112156155ca575f80fd5b833592506060601f19820112156155df575f80fd5b506155e8615297565b6020840135815260408401356155fd816155aa565b60208201526060939093013560408401525092909150565b6020808252600f908201526e2737ba103a37b5b2b71037bbb732b960891b604082015260600190565b600181811c9082168061565257607f821691505b60208210810361567057634e487b7160e01b5f52602260045260245ffd5b50919050565b6001600160a01b03929092168252602082015260400190565b5f6020828403121561569f575f80fd5b5051919050565b634e487b7160e01b5f52601160045260245ffd5b5f600160ff1b82016156ce576156ce6156a6565b505f0390565b5f602082840312156156e4575f80fd5b815161241d816151c9565b8082028115828204841417610c4f57610c4f6156a6565b634e487b7160e01b5f52601260045260245ffd5b5f8261572857615728615706565b500490565b81810381811115610c4f57610c4f6156a6565b5f60208284031215615750575f80fd5b815161241d816153a2565b6001815b60018411156149485780850481111561577a5761577a6156a6565b600184161561578857908102905b60019390931c92800261575f565b5f826157a457506001610c4f565b816157b057505f610c4f565b81600181146157c657600281146157d0576157ec565b6001915050610c4f565b60ff8411156157e1576157e16156a6565b50506001821b610c4f565b5060208310610133831016604e8410600b841016171561580f575081810a610c4f565b61581b5f19848461575b565b805f190482111561582e5761582e6156a6565b029392505050565b5f61241d8383615796565b80820180821115610c4f57610c4f6156a6565b634e487b7160e01b5f52603260045260245ffd5b601f821115610e7457805f5260205f20601f840160051c8101602085101561588d5750805b601f840160051c820191505b8181101561430b575f8155600101615899565b815167ffffffffffffffff8111156158c6576158c6615283565b6158da816158d4845461563e565b84615868565b6020601f82116001811461590c575f83156158f55750848201515b5f19600385901b1c1916600184901b17845561430b565b5f84815260208120601f198516915b8281101561593b578785015182556020948501946001909201910161591b565b508482101561595857868401515f19600387901b60f8161c191681555b50505050600190811b01905550565b60208082526010908201526f115cd8dc9bddc81b9bdd08199bdd5b9960821b604082015260600190565b5f81518060208401855e5f93019283525090919050565b5f613e4b6159b68386615991565b84615991565b81835281816020850137505f828201602090810191909152601f909101601f19169091010190565b60208082528235828201525f908301356159fd816155aa565b60ff1660408381019190915283013560608084019190915283013560808084019190915283013536849003601e19018112615a36575f80fd5b830160208101903567ffffffffffffffff811115615a52575f80fd5b803603821315615a60575f80fd5b60a080850152615a7460c0850182846159bc565b95945050505050565b5f6060828403128015615a8e575f80fd5b50615a97615297565b825181526020830151615aa9816155aa565b60208201526040928301519281019290925250919050565b6001600160a01b03858116825284166020820152604081018390526080606082018190525f90615af390830184615172565b9695505050505050565b5f60208284031215615b0d575f80fd5b815161241d81615142565b5f60018201615b2957615b296156a6565b5060010190565b5f82615b3e57615b3e615706565b500690565b634e487b7160e01b5f52603160045260245ffdfe645e039705490088daad89bae25049a34f4a9072d398537b1ab2425f24cbed0080bb2b638cc20bc4d0a60d66940f3ab4a00c1d7b313497ca82fb0b4ab00793008c21e8ab0c92c4c41f2714adb63619371ca8ed5eb69a6fed79b7d52cdd9703ae645e039705490088daad89bae25049a34f4a9072d398537b1ab2425f24cbed0202dd7bc7dec4dceedda775e58dd541e08a116c6c53815c0bd028192f7b626800a2646970667358221220d29ca71efd24204c9b800fbed773fda7e2b3d9aa679e489f7f05e6eb415e236f64736f6c634300081a0033","linkReferences":{}},"methodIdentifiers":{"DEFAULT_ADMIN_ROLE()":"a217fddf","FACTOR_PRECISION()":"a42c69a9","MINTER_ROLE()":"d5391393","MIN_GAS()":"20d2c951","POSITION_ESCROW_ROLE()":"8d7cac7b","addUnallocatedFundsEth(uint256)":"f399beb7","addUnallocatedFundsStETH(uint256,uint256)":"bb566297","allocateStabilizerFunds(uint256,uint256)":"451fda68","approve(address,uint256)":"095ea7b3","balanceOf(address)":"70a08231","baseURI()":"6c0360eb","cuspdToken()":"6bc05b7e","getApproved(uint256)":"081812fc","getMinCollateralRatio(uint256)":"bb310a80","getRoleAdmin(bytes32)":"248a9ca3","grantRole(bytes32,address)":"2f2ff15d","hasRole(bytes32,address)":"91d14854","highestAllocatedId()":"d743fd1e","highestUnallocatedId()":"92133362","initialize(address,address,address,address,address,address,string,address,address,address)":"d9230389","insuranceEscrow()":"4d87a1f2","isApprovedForAll(address,address)":"e985e9c5","lido()":"23509a2d","liquidatePosition(uint256,uint256,(uint256,uint8,uint256,bytes32,bytes))":"d16bc7de","liquidationLiquidatorPayoutPercent()":"4e027fe9","liquidationThresholdPercent()":"320d2fa0","lowestAllocatedId()":"2995bc50","lowestUnallocatedId()":"853cad06","mint(address,uint256)":"40c10f19","name()":"06fdde03","ownerOf(uint256)":"6352211e","positionEscrowImplementation()":"e96d5787","positionEscrows(uint256)":"a04ad512","positions(uint256)":"99fbab88","rateContract()":"eee24219","removeUnallocatedFunds(uint256,uint256)":"ae88a779","renounceRole(bytes32,address)":"36568abe","reportCollateralAddition(uint256)":"67bff4a8","reportCollateralRemoval(uint256)":"39112058","reporter()":"010ec441","revokeRole(bytes32,address)":"d547741f","safeTransferFrom(address,address,uint256)":"42842e0e","safeTransferFrom(address,address,uint256,bytes)":"b88d4fde","setApprovalForAll(address,bool)":"a22cb465","setBaseURI(string)":"55f804b3","setInsuranceEscrow(address)":"7122bcc3","setLiquidationParameters(uint256,uint256)":"cf4fa51c","setMinCollateralizationRatio(uint256,uint256)":"01aa0b1a","stETH()":"c1fe3e48","stabilizerEscrowImplementation()":"7da31f61","stabilizerEscrows(uint256)":"bba6fd6f","supportsInterface(bytes4)":"01ffc9a7","symbol()":"95d89b41","tokenByIndex(uint256)":"4f6ccce7","tokenOfOwnerByIndex(address,uint256)":"2f745c59","tokenURI(uint256)":"c87b56dd","totalSupply()":"18160ddd","transferFrom(address,address,uint256)":"23b872dd","unallocateStabilizerFunds(uint256,(uint256,uint8,uint256))":"ff70fa64"},"storageLayout":{"storage":[{"astId":57034,"contract":"src/StabilizerNFT.sol:StabilizerNFT","label":"positions","offset":0,"slot":"0","type":"t_mapping(t_uint256,t_struct(StabilizerPosition)57029_storage)"},{"astId":57036,"contract":"src/StabilizerNFT.sol:StabilizerNFT","label":"lowestUnallocatedId","offset":0,"slot":"1","type":"t_uint256"},{"astId":57038,"contract":"src/StabilizerNFT.sol:StabilizerNFT","label":"highestUnallocatedId","offset":0,"slot":"2","type":"t_uint256"},{"astId":57040,"contract":"src/StabilizerNFT.sol:StabilizerNFT","label":"lowestAllocatedId","offset":0,"slot":"3","type":"t_uint256"},{"astId":57042,"contract":"src/StabilizerNFT.sol:StabilizerNFT","label":"highestAllocatedId","offset":0,"slot":"4","type":"t_uint256"},{"astId":57045,"contract":"src/StabilizerNFT.sol:StabilizerNFT","label":"cuspdToken","offset":0,"slot":"5","type":"t_contract(IcUSPDToken)61330"},{"astId":57048,"contract":"src/StabilizerNFT.sol:StabilizerNFT","label":"reporter","offset":0,"slot":"6","type":"t_contract(IOvercollateralizationReporter)60955"},{"astId":57051,"contract":"src/StabilizerNFT.sol:StabilizerNFT","label":"insuranceEscrow","offset":0,"slot":"7","type":"t_contract(IInsuranceEscrow)60835"},{"astId":57053,"contract":"src/StabilizerNFT.sol:StabilizerNFT","label":"liquidationLiquidatorPayoutPercent","offset":0,"slot":"8","type":"t_uint256"},{"astId":57055,"contract":"src/StabilizerNFT.sol:StabilizerNFT","label":"liquidationThresholdPercent","offset":0,"slot":"9","type":"t_uint256"},{"astId":57057,"contract":"src/StabilizerNFT.sol:StabilizerNFT","label":"stETH","offset":0,"slot":"10","type":"t_address"},{"astId":57059,"contract":"src/StabilizerNFT.sol:StabilizerNFT","label":"lido","offset":0,"slot":"11","type":"t_address"},{"astId":57062,"contract":"src/StabilizerNFT.sol:StabilizerNFT","label":"rateContract","offset":0,"slot":"12","type":"t_contract(IPoolSharesConversionRate)60984"},{"astId":57064,"contract":"src/StabilizerNFT.sol:StabilizerNFT","label":"stabilizerEscrowImplementation","offset":0,"slot":"13","type":"t_address"},{"astId":57066,"contract":"src/StabilizerNFT.sol:StabilizerNFT","label":"positionEscrowImplementation","offset":0,"slot":"14","type":"t_address"},{"astId":57070,"contract":"src/StabilizerNFT.sol:StabilizerNFT","label":"stabilizerEscrows","offset":0,"slot":"15","type":"t_mapping(t_uint256,t_address)"},{"astId":57074,"contract":"src/StabilizerNFT.sol:StabilizerNFT","label":"positionEscrows","offset":0,"slot":"16","type":"t_mapping(t_uint256,t_address)"},{"astId":57076,"contract":"src/StabilizerNFT.sol:StabilizerNFT","label":"baseURI","offset":0,"slot":"17","type":"t_string_storage"}],"types":{"t_address":{"encoding":"inplace","label":"address","numberOfBytes":"20"},"t_contract(IInsuranceEscrow)60835":{"encoding":"inplace","label":"contract IInsuranceEscrow","numberOfBytes":"20"},"t_contract(IOvercollateralizationReporter)60955":{"encoding":"inplace","label":"contract IOvercollateralizationReporter","numberOfBytes":"20"},"t_contract(IPoolSharesConversionRate)60984":{"encoding":"inplace","label":"contract IPoolSharesConversionRate","numberOfBytes":"20"},"t_contract(IcUSPDToken)61330":{"encoding":"inplace","label":"contract IcUSPDToken","numberOfBytes":"20"},"t_mapping(t_uint256,t_address)":{"encoding":"mapping","key":"t_uint256","label":"mapping(uint256 => address)","numberOfBytes":"32","value":"t_address"},"t_mapping(t_uint256,t_struct(StabilizerPosition)57029_storage)":{"encoding":"mapping","key":"t_uint256","label":"mapping(uint256 => struct StabilizerNFT.StabilizerPosition)","numberOfBytes":"32","value":"t_struct(StabilizerPosition)57029_storage"},"t_string_storage":{"encoding":"bytes","label":"string","numberOfBytes":"32"},"t_struct(StabilizerPosition)57029_storage":{"encoding":"inplace","label":"struct StabilizerNFT.StabilizerPosition","numberOfBytes":"160","members":[{"astId":57020,"contract":"src/StabilizerNFT.sol:StabilizerNFT","label":"minCollateralRatio","offset":0,"slot":"0","type":"t_uint256"},{"astId":57022,"contract":"src/StabilizerNFT.sol:StabilizerNFT","label":"prevUnallocated","offset":0,"slot":"1","type":"t_uint256"},{"astId":57024,"contract":"src/StabilizerNFT.sol:StabilizerNFT","label":"nextUnallocated","offset":0,"slot":"2","type":"t_uint256"},{"astId":57026,"contract":"src/StabilizerNFT.sol:StabilizerNFT","label":"prevAllocated","offset":0,"slot":"3","type":"t_uint256"},{"astId":57028,"contract":"src/StabilizerNFT.sol:StabilizerNFT","label":"nextAllocated","offset":0,"slot":"4","type":"t_uint256"}]},"t_uint256":{"encoding":"inplace","label":"uint256","numberOfBytes":"32"}}},"id":83}