{"abi":[{"type":"constructor","inputs":[],"stateMutability":"nonpayable"},{"type":"receive","stateMutability":"payable"},{"type":"function","name":"DEFAULT_ADMIN_ROLE","inputs":[],"outputs":[{"name":"","type":"bytes32","internalType":"bytes32"}],"stateMutability":"view"},{"type":"function","name":"MINTER_ROLE","inputs":[],"outputs":[{"name":"","type":"bytes32","internalType":"bytes32"}],"stateMutability":"view"},{"type":"function","name":"MIN_GAS","inputs":[],"outputs":[{"name":"","type":"uint256","internalType":"uint256"}],"stateMutability":"view"},{"type":"function","name":"addUnallocatedFundsEth","inputs":[{"name":"tokenId","type":"uint256","internalType":"uint256"}],"outputs":[],"stateMutability":"payable"},{"type":"function","name":"addUnallocatedFundsStETH","inputs":[{"name":"tokenId","type":"uint256","internalType":"uint256"},{"name":"stETHAmount","type":"uint256","internalType":"uint256"}],"outputs":[],"stateMutability":"nonpayable"},{"type":"function","name":"allocateStabilizerFunds","inputs":[{"name":"poolSharesToMint","type":"uint256","internalType":"uint256"},{"name":"ethUsdPrice","type":"uint256","internalType":"uint256"},{"name":"priceDecimals","type":"uint256","internalType":"uint256"}],"outputs":[{"name":"result","type":"tuple","internalType":"struct IStabilizerNFT.AllocationResult","components":[{"name":"allocatedEth","type":"uint256","internalType":"uint256"}]}],"stateMutability":"payable"},{"type":"function","name":"approve","inputs":[{"name":"to","type":"address","internalType":"address"},{"name":"tokenId","type":"uint256","internalType":"uint256"}],"outputs":[],"stateMutability":"nonpayable"},{"type":"function","name":"balanceOf","inputs":[{"name":"owner","type":"address","internalType":"address"}],"outputs":[{"name":"","type":"uint256","internalType":"uint256"}],"stateMutability":"view"},{"type":"function","name":"getApproved","inputs":[{"name":"tokenId","type":"uint256","internalType":"uint256"}],"outputs":[{"name":"","type":"address","internalType":"address"}],"stateMutability":"view"},{"type":"function","name":"getMinCollateralRatio","inputs":[{"name":"tokenId","type":"uint256","internalType":"uint256"}],"outputs":[{"name":"","type":"uint256","internalType":"uint256"}],"stateMutability":"view"},{"type":"function","name":"getRoleAdmin","inputs":[{"name":"role","type":"bytes32","internalType":"bytes32"}],"outputs":[{"name":"","type":"bytes32","internalType":"bytes32"}],"stateMutability":"view"},{"type":"function","name":"grantRole","inputs":[{"name":"role","type":"bytes32","internalType":"bytes32"},{"name":"account","type":"address","internalType":"address"}],"outputs":[],"stateMutability":"nonpayable"},{"type":"function","name":"hasRole","inputs":[{"name":"role","type":"bytes32","internalType":"bytes32"},{"name":"account","type":"address","internalType":"address"}],"outputs":[{"name":"","type":"bool","internalType":"bool"}],"stateMutability":"view"},{"type":"function","name":"highestAllocatedId","inputs":[],"outputs":[{"name":"","type":"uint256","internalType":"uint256"}],"stateMutability":"view"},{"type":"function","name":"highestUnallocatedId","inputs":[],"outputs":[{"name":"","type":"uint256","internalType":"uint256"}],"stateMutability":"view"},{"type":"function","name":"initialize","inputs":[{"name":"_uspdToken","type":"address","internalType":"address"},{"name":"_stETH","type":"address","internalType":"address"},{"name":"_lido","type":"address","internalType":"address"},{"name":"_rateContract","type":"address","internalType":"address"},{"name":"_admin","type":"address","internalType":"address"}],"outputs":[],"stateMutability":"nonpayable"},{"type":"function","name":"isApprovedForAll","inputs":[{"name":"owner","type":"address","internalType":"address"},{"name":"operator","type":"address","internalType":"address"}],"outputs":[{"name":"","type":"bool","internalType":"bool"}],"stateMutability":"view"},{"type":"function","name":"lido","inputs":[],"outputs":[{"name":"","type":"address","internalType":"address"}],"stateMutability":"view"},{"type":"function","name":"lowestAllocatedId","inputs":[],"outputs":[{"name":"","type":"uint256","internalType":"uint256"}],"stateMutability":"view"},{"type":"function","name":"lowestUnallocatedId","inputs":[],"outputs":[{"name":"","type":"uint256","internalType":"uint256"}],"stateMutability":"view"},{"type":"function","name":"mint","inputs":[{"name":"to","type":"address","internalType":"address"},{"name":"tokenId","type":"uint256","internalType":"uint256"}],"outputs":[],"stateMutability":"nonpayable"},{"type":"function","name":"name","inputs":[],"outputs":[{"name":"","type":"string","internalType":"string"}],"stateMutability":"view"},{"type":"function","name":"ownerOf","inputs":[{"name":"tokenId","type":"uint256","internalType":"uint256"}],"outputs":[{"name":"","type":"address","internalType":"address"}],"stateMutability":"view"},{"type":"function","name":"positionEscrows","inputs":[{"name":"","type":"uint256","internalType":"uint256"}],"outputs":[{"name":"","type":"address","internalType":"address"}],"stateMutability":"view"},{"type":"function","name":"positions","inputs":[{"name":"","type":"uint256","internalType":"uint256"}],"outputs":[{"name":"totalEth","type":"uint256","internalType":"uint256"},{"name":"minCollateralRatio","type":"uint256","internalType":"uint256"},{"name":"prevUnallocated","type":"uint256","internalType":"uint256"},{"name":"nextUnallocated","type":"uint256","internalType":"uint256"},{"name":"prevAllocated","type":"uint256","internalType":"uint256"},{"name":"nextAllocated","type":"uint256","internalType":"uint256"}],"stateMutability":"view"},{"type":"function","name":"rateContract","inputs":[],"outputs":[{"name":"","type":"address","internalType":"contract IPoolSharesConversionRate"}],"stateMutability":"view"},{"type":"function","name":"removeUnallocatedFunds","inputs":[{"name":"tokenId","type":"uint256","internalType":"uint256"},{"name":"amount","type":"uint256","internalType":"uint256"},{"name":"to","type":"address","internalType":"address payable"}],"outputs":[],"stateMutability":"nonpayable"},{"type":"function","name":"renounceRole","inputs":[{"name":"role","type":"bytes32","internalType":"bytes32"},{"name":"callerConfirmation","type":"address","internalType":"address"}],"outputs":[],"stateMutability":"nonpayable"},{"type":"function","name":"revokeRole","inputs":[{"name":"role","type":"bytes32","internalType":"bytes32"},{"name":"account","type":"address","internalType":"address"}],"outputs":[],"stateMutability":"nonpayable"},{"type":"function","name":"safeTransferFrom","inputs":[{"name":"from","type":"address","internalType":"address"},{"name":"to","type":"address","internalType":"address"},{"name":"tokenId","type":"uint256","internalType":"uint256"}],"outputs":[],"stateMutability":"nonpayable"},{"type":"function","name":"safeTransferFrom","inputs":[{"name":"from","type":"address","internalType":"address"},{"name":"to","type":"address","internalType":"address"},{"name":"tokenId","type":"uint256","internalType":"uint256"},{"name":"data","type":"bytes","internalType":"bytes"}],"outputs":[],"stateMutability":"nonpayable"},{"type":"function","name":"setApprovalForAll","inputs":[{"name":"operator","type":"address","internalType":"address"},{"name":"approved","type":"bool","internalType":"bool"}],"outputs":[],"stateMutability":"nonpayable"},{"type":"function","name":"setMinCollateralizationRatio","inputs":[{"name":"tokenId","type":"uint256","internalType":"uint256"},{"name":"newRatio","type":"uint256","internalType":"uint256"}],"outputs":[],"stateMutability":"nonpayable"},{"type":"function","name":"stETH","inputs":[],"outputs":[{"name":"","type":"address","internalType":"address"}],"stateMutability":"view"},{"type":"function","name":"stabilizerEscrows","inputs":[{"name":"","type":"uint256","internalType":"uint256"}],"outputs":[{"name":"","type":"address","internalType":"address"}],"stateMutability":"view"},{"type":"function","name":"supportsInterface","inputs":[{"name":"interfaceId","type":"bytes4","internalType":"bytes4"}],"outputs":[{"name":"","type":"bool","internalType":"bool"}],"stateMutability":"view"},{"type":"function","name":"symbol","inputs":[],"outputs":[{"name":"","type":"string","internalType":"string"}],"stateMutability":"view"},{"type":"function","name":"tokenByIndex","inputs":[{"name":"index","type":"uint256","internalType":"uint256"}],"outputs":[{"name":"","type":"uint256","internalType":"uint256"}],"stateMutability":"view"},{"type":"function","name":"tokenOfOwnerByIndex","inputs":[{"name":"owner","type":"address","internalType":"address"},{"name":"index","type":"uint256","internalType":"uint256"}],"outputs":[{"name":"","type":"uint256","internalType":"uint256"}],"stateMutability":"view"},{"type":"function","name":"tokenURI","inputs":[{"name":"tokenId","type":"uint256","internalType":"uint256"}],"outputs":[{"name":"","type":"string","internalType":"string"}],"stateMutability":"view"},{"type":"function","name":"totalSupply","inputs":[],"outputs":[{"name":"","type":"uint256","internalType":"uint256"}],"stateMutability":"view"},{"type":"function","name":"transferFrom","inputs":[{"name":"from","type":"address","internalType":"address"},{"name":"to","type":"address","internalType":"address"},{"name":"tokenId","type":"uint256","internalType":"uint256"}],"outputs":[],"stateMutability":"nonpayable"},{"type":"function","name":"unallocateStabilizerFunds","inputs":[{"name":"poolSharesToUnallocate","type":"uint256","internalType":"uint256"},{"name":"priceResponse","type":"tuple","internalType":"struct IPriceOracle.PriceResponse","components":[{"name":"price","type":"uint256","internalType":"uint256"},{"name":"decimals","type":"uint8","internalType":"uint8"},{"name":"timestamp","type":"uint256","internalType":"uint256"}]}],"outputs":[{"name":"unallocatedEth","type":"uint256","internalType":"uint256"}],"stateMutability":"nonpayable"},{"type":"function","name":"uspdToken","inputs":[],"outputs":[{"name":"","type":"address","internalType":"contract USPDToken"}],"stateMutability":"view"},{"type":"event","name":"Approval","inputs":[{"name":"owner","type":"address","indexed":true,"internalType":"address"},{"name":"approved","type":"address","indexed":true,"internalType":"address"},{"name":"tokenId","type":"uint256","indexed":true,"internalType":"uint256"}],"anonymous":false},{"type":"event","name":"ApprovalForAll","inputs":[{"name":"owner","type":"address","indexed":true,"internalType":"address"},{"name":"operator","type":"address","indexed":true,"internalType":"address"},{"name":"approved","type":"bool","indexed":false,"internalType":"bool"}],"anonymous":false},{"type":"event","name":"FundsAllocated","inputs":[{"name":"tokenId","type":"uint256","indexed":true,"internalType":"uint256"},{"name":"stabilizersAmount","type":"uint256","indexed":false,"internalType":"uint256"},{"name":"usersAmount","type":"uint256","indexed":false,"internalType":"uint256"}],"anonymous":false},{"type":"event","name":"FundsUnallocated","inputs":[{"name":"tokenId","type":"uint256","indexed":true,"internalType":"uint256"},{"name":"userStEthAmount","type":"uint256","indexed":false,"internalType":"uint256"},{"name":"stabilizerStEthAmount","type":"uint256","indexed":false,"internalType":"uint256"}],"anonymous":false},{"type":"event","name":"Initialized","inputs":[{"name":"version","type":"uint64","indexed":false,"internalType":"uint64"}],"anonymous":false},{"type":"event","name":"MinCollateralRatioUpdated","inputs":[{"name":"tokenId","type":"uint256","indexed":true,"internalType":"uint256"},{"name":"oldRatio","type":"uint256","indexed":false,"internalType":"uint256"},{"name":"newRatio","type":"uint256","indexed":false,"internalType":"uint256"}],"anonymous":false},{"type":"event","name":"RoleAdminChanged","inputs":[{"name":"role","type":"bytes32","indexed":true,"internalType":"bytes32"},{"name":"previousAdminRole","type":"bytes32","indexed":true,"internalType":"bytes32"},{"name":"newAdminRole","type":"bytes32","indexed":true,"internalType":"bytes32"}],"anonymous":false},{"type":"event","name":"RoleGranted","inputs":[{"name":"role","type":"bytes32","indexed":true,"internalType":"bytes32"},{"name":"account","type":"address","indexed":true,"internalType":"address"},{"name":"sender","type":"address","indexed":true,"internalType":"address"}],"anonymous":false},{"type":"event","name":"RoleRevoked","inputs":[{"name":"role","type":"bytes32","indexed":true,"internalType":"bytes32"},{"name":"account","type":"address","indexed":true,"internalType":"address"},{"name":"sender","type":"address","indexed":true,"internalType":"address"}],"anonymous":false},{"type":"event","name":"StabilizerPositionCreated","inputs":[{"name":"tokenId","type":"uint256","indexed":true,"internalType":"uint256"},{"name":"owner","type":"address","indexed":true,"internalType":"address"},{"name":"totalEth","type":"uint256","indexed":false,"internalType":"uint256"}],"anonymous":false},{"type":"event","name":"Transfer","inputs":[{"name":"from","type":"address","indexed":true,"internalType":"address"},{"name":"to","type":"address","indexed":true,"internalType":"address"},{"name":"tokenId","type":"uint256","indexed":true,"internalType":"uint256"}],"anonymous":false},{"type":"event","name":"UnallocatedFundsAdded","inputs":[{"name":"tokenId","type":"uint256","indexed":true,"internalType":"uint256"},{"name":"asset","type":"address","indexed":false,"internalType":"address"},{"name":"amount","type":"uint256","indexed":false,"internalType":"uint256"}],"anonymous":false},{"type":"error","name":"AccessControlBadConfirmation","inputs":[]},{"type":"error","name":"AccessControlUnauthorizedAccount","inputs":[{"name":"account","type":"address","internalType":"address"},{"name":"neededRole","type":"bytes32","internalType":"bytes32"}]},{"type":"error","name":"ERC721EnumerableForbiddenBatchMint","inputs":[]},{"type":"error","name":"ERC721IncorrectOwner","inputs":[{"name":"sender","type":"address","internalType":"address"},{"name":"tokenId","type":"uint256","internalType":"uint256"},{"name":"owner","type":"address","internalType":"address"}]},{"type":"error","name":"ERC721InsufficientApproval","inputs":[{"name":"operator","type":"address","internalType":"address"},{"name":"tokenId","type":"uint256","internalType":"uint256"}]},{"type":"error","name":"ERC721InvalidApprover","inputs":[{"name":"approver","type":"address","internalType":"address"}]},{"type":"error","name":"ERC721InvalidOperator","inputs":[{"name":"operator","type":"address","internalType":"address"}]},{"type":"error","name":"ERC721InvalidOwner","inputs":[{"name":"owner","type":"address","internalType":"address"}]},{"type":"error","name":"ERC721InvalidReceiver","inputs":[{"name":"receiver","type":"address","internalType":"address"}]},{"type":"error","name":"ERC721InvalidSender","inputs":[{"name":"sender","type":"address","internalType":"address"}]},{"type":"error","name":"ERC721NonexistentToken","inputs":[{"name":"tokenId","type":"uint256","internalType":"uint256"}]},{"type":"error","name":"ERC721OutOfBoundsIndex","inputs":[{"name":"owner","type":"address","internalType":"address"},{"name":"index","type":"uint256","internalType":"uint256"}]},{"type":"error","name":"InvalidInitialization","inputs":[]},{"type":"error","name":"NotInitializing","inputs":[]}],"bytecode":{"object":"0x6080604052348015600e575f80fd5b5060156019565b60c9565b7ff0c57e16840df040f15088dc2f81fe391c3923bec73e23a9662efc9c229c6a00805468010000000000000000900460ff161560685760405163f92ee8a960e01b815260040160405180910390fd5b80546001600160401b039081161460c65780546001600160401b0319166001600160401b0390811782556040519081527fc7f505b2f371ae2175ee4913f4499e1f2633a7b5936321eed1cdaeb6115181d29060200160405180910390a15b50565b61897e806100d65f395ff3fe6080604052600436106102da575f3560e01c806370a082311161017b578063bb566297116100d1578063d547741f11610087578063eee2421911610062578063eee2421914610939578063f399beb714610958578063ff70fa641461096b575f80fd5b8063d547741f1461089f578063d743fd1e146108be578063e985e9c5146108d3575f80fd5b8063c1fe3e48116100b7578063c1fe3e481461082e578063c87b56dd1461084d578063d53913931461086c575f80fd5b8063bb566297146107db578063bba6fd6f146107fa575f80fd5b806399fbab8811610131578063a22cb4651161010c578063a22cb4651461077e578063b88d4fde1461079d578063bb310a80146107bc575f80fd5b806399fbab88146106bc578063a04ad51214610737578063a217fddf1461076b575f80fd5b806391d148541161016157806391d1485414610630578063921333621461069357806395d89b41146106a8575f80fd5b806370a08231146105fc578063853cad061461061b575f80fd5b806323b872dd1161023057806336568abe116101e65780634d0c810b116101c15780634d0c810b1461059f5780634f6ccce7146105be5780636352211e146105dd575f80fd5b806336568abe1461054257806340c10f191461056157806342842e0e14610580575f80fd5b80632995bc50116102165780632995bc50146104ef5780632f2ff15d146105045780632f745c5914610523575f80fd5b806323b872dd14610483578063248a9ca3146104a2575f80fd5b8063095ea7b31161029057806320d2c9511161026b57806320d2c9511461042f57806321aebacb1461044557806323509a2d14610464575f80fd5b8063095ea7b3146103b45780631459457a146103d357806318160ddd146103f2575f80fd5b806306fdde03116102c057806306fdde031461033a578063080a89611461035b578063081812fc1461037d575f80fd5b806301aa0b1a146102e557806301ffc9a714610306575f80fd5b366102e157005b5f80fd5b3480156102f0575f80fd5b506103046102ff3660046145c0565b61098a565b005b348015610311575f80fd5b5061032561032036600461460d565b610aed565b60405190151581526020015b60405180910390f35b348015610345575f80fd5b5061034e610afd565b6040516103319190614674565b61036e610369366004614686565b610bb1565b60405190518152602001610331565b348015610388575f80fd5b5061039c6103973660046146af565b6113a2565b6040516001600160a01b039091168152602001610331565b3480156103bf575f80fd5b506103046103ce3660046146da565b6113e8565b3480156103de575f80fd5b506103046103ed366004614704565b6113f7565b3480156103fd575f80fd5b507f645e039705490088daad89bae25049a34f4a9072d398537b1ab2425f24cbed02545b604051908152602001610331565b34801561043a575f80fd5b50610421620186a081565b348015610450575f80fd5b5061030461045f366004614771565b61164c565b34801561046f575f80fd5b5060075461039c906001600160a01b031681565b34801561048e575f80fd5b5061030461049d3660046147a7565b611822565b3480156104ad575f80fd5b506104216104bc3660046146af565b5f9081527f02dd7bc7dec4dceedda775e58dd541e08a116c6c53815c0bd028192f7b626800602052604090206001015490565b3480156104fa575f80fd5b5061042160035481565b34801561050f575f80fd5b5061030461051e3660046147e5565b6118dd565b34801561052e575f80fd5b5061042161053d3660046146da565b611920565b34801561054d575f80fd5b5061030461055c3660046147e5565b6119bd565b34801561056c575f80fd5b5061030461057b3660046146da565b611a0e565b34801561058b575f80fd5b5061030461059a3660046147a7565b611da9565b3480156105aa575f80fd5b5060055461039c906001600160a01b031681565b3480156105c9575f80fd5b506104216105d83660046146af565b611dc3565b3480156105e8575f80fd5b5061039c6105f73660046146af565b611e74565b348015610607575f80fd5b50610421610616366004614813565b611e7e565b348015610626575f80fd5b5061042160015481565b34801561063b575f80fd5b5061032561064a3660046147e5565b5f9182527f02dd7bc7dec4dceedda775e58dd541e08a116c6c53815c0bd028192f7b626800602090815260408084206001600160a01b0393909316845291905290205460ff1690565b34801561069e575f80fd5b5061042160025481565b3480156106b3575f80fd5b5061034e611f02565b3480156106c7575f80fd5b5061070a6106d63660046146af565b5f60208190529081526040902080546001820154600283015460038401546004850154600590950154939492939192909186565b604080519687526020870195909552938501929092526060840152608083015260a082015260c001610331565b348015610742575f80fd5b5061039c6107513660046146af565b600a6020525f90815260409020546001600160a01b031681565b348015610776575f80fd5b506104215f81565b348015610789575f80fd5b5061030461079836600461483b565b611f53565b3480156107a8575f80fd5b506103046107b73660046148e3565b611f5e565b3480156107c7575f80fd5b506104216107d63660046146af565b611f76565b3480156107e6575f80fd5b506103046107f53660046145c0565b611fec565b348015610805575f80fd5b5061039c6108143660046146af565b60096020525f90815260409020546001600160a01b031681565b348015610839575f80fd5b5060065461039c906001600160a01b031681565b348015610858575f80fd5b5061034e6108673660046146af565b6121e9565b348015610877575f80fd5b506104217f9f2df0fed2c77648de5860a4cc508cd0818c85b8b8a1ab4ceeef8d981c8956a681565b3480156108aa575f80fd5b506103046108b93660046147e5565b6122e0565b3480156108c9575f80fd5b5061042160045481565b3480156108de575f80fd5b506103256108ed3660046149c3565b6001600160a01b039182165f9081527f80bb2b638cc20bc4d0a60d66940f3ab4a00c1d7b313497ca82fb0b4ab00793056020908152604080832093909416825291909152205460ff1690565b348015610944575f80fd5b5060085461039c906001600160a01b031681565b6103046109663660046146af565b612323565b348015610976575f80fd5b506104216109853660046149ef565b6124cd565b3361099483611e74565b6001600160a01b0316146109ef5760405162461bcd60e51b815260206004820152600f60248201527f4e6f7420746f6b656e206f776e6572000000000000000000000000000000000060448201526064015b60405180910390fd5b606e811015610a405760405162461bcd60e51b815260206004820152601b60248201527f526174696f206d757374206265206174206c656173742031313025000000000060448201526064016109e6565b6103e8811115610a925760405162461bcd60e51b815260206004820152601960248201527f526174696f2063616e6e6f74206578636565642031303030250000000000000060448201526064016109e6565b5f82815260208181526040918290206001810180549085905583518181529283018590529092909185917f3e82d134b4a0328de7223eb1ae194d98009405cb6b8dc9c3d6bd70eb3aeb5c94910160405180910390a250505050565b5f610af782612b7b565b92915050565b7f80bb2b638cc20bc4d0a60d66940f3ab4a00c1d7b313497ca82fb0b4ab00793008054606091908190610b2f90614a8d565b80601f0160208091040260200160405190810160405280929190818152602001828054610b5b90614a8d565b8015610ba65780601f10610b7d57610100808354040283529160200191610ba6565b820191905f5260205f20905b815481529060010190602001808311610b8957829003601f168201915b505050505091505090565b60408051602081019091525f81526005546001600160a01b03163314610c195760405162461bcd60e51b815260206004820152601260248201527f4f6e6c79205553504420636f6e7472616374000000000000000000000000000060448201526064016109e6565b6001545f03610c6a5760405162461bcd60e51b815260206004820152601460248201527f4e6f20756e616c6c6f63617465642066756e647300000000000000000000000060448201526064016109e6565b5f3411610cb95760405162461bcd60e51b815260206004820152600b60248201527f4e6f204554482073656e7400000000000000000000000000000000000000000060448201526064016109e6565b600154345b8115801590610ccc57505f81115b156112df57620186a05a106112df575f828152602081815260408083206009909252909120546001600160a01b031680610d485760405162461bcd60e51b815260206004820152601f60248201527f457363726f77206e6f7420666f756e6420666f722073746162696c697a65720060448201526064016109e6565b5f816001600160a01b031663ec60b9ab6040518163ffffffff1660e01b8152600401602060405180830381865afa158015610d85573d5f803e3d5ffd5b505050506040513d601f19601f82011682018060405250810190610da99190614ade565b9050801580610db6575083155b15610dc8575050600301549150610cbe565b5f846064856001015487610ddc9190614b22565b610de69190614b66565b610df09190614b79565b90505f828211610e005781610e02565b825b90508582821015610e405760648660010154610e1e9190614b79565b610e29836064614b22565b610e339190614b66565b905086811115610e405750855b5f888152600a60205260409020546001600160a01b031680610ea45760405162461bcd60e51b815260206004820152601860248201527f506f736974696f6e457363726f77206e6f7420666f756e64000000000000000060448201526064016109e6565b6040517f4f68ae75000000000000000000000000000000000000000000000000000000008152600481018490523060248201526001600160a01b03871690634f68ae75906044015f604051808303815f87803b158015610f02575f80fd5b505af1158015610f14573d5f803e3d5ffd5b50506006546040517f23b872dd0000000000000000000000000000000000000000000000000000000081526001600160a01b038a811660048301528581166024830152604482018890525f945090911691506323b872dd906064016020604051808303815f875af1158015610f8b573d5f803e3d5ffd5b505050506040513d601f19601f82011682018060405250810190610faf9190614b8c565b9050806110245760405162461bcd60e51b815260206004820152603260248201527f53746162696c697a6572207374455448207472616e7366657220746f20506f7360448201527f6974696f6e457363726f77206661696c6564000000000000000000000000000060648201526084016109e6565b6040517fbf3fdde7000000000000000000000000000000000000000000000000000000008152600481018590526001600160a01b0383169063bf3fdde79085906024015f604051808303818588803b15801561107e575f80fd5b505af1158015611090573d5f803e3d5ffd5b50505050505f8c600a6110a39190614cc0565b6110ad8f86614b22565b6110b79190614b66565b90505f60085f9054906101000a90046001600160a01b03166001600160a01b031663efa7fa5d6040518163ffffffff1660e01b8152600401602060405180830381865afa15801561110a573d5f803e3d5ffd5b505050506040513d601f19601f8201168201806040525081019061112e9190614ade565b90505f8160085f9054906101000a90046001600160a01b03166001600160a01b031663a42c69a96040518163ffffffff1660e01b8152600401602060405180830381865afa158015611182573d5f803e3d5ffd5b505050506040513d601f19601f820116820180604052508101906111a69190614ade565b6111b09085614b22565b6111ba9190614b66565b6040517f0bfd07fc000000000000000000000000000000000000000000000000000000008152600481018290529091506001600160a01b03861690630bfd07fc906024015f604051808303815f87803b158015611215575f80fd5b505af1158015611227573d5f803e3d5ffd5b50505050858e5f0181815161123c9190614ccb565b905250611249868d614b79565b6040805189815260208101899052919d508e917fc0a79f21f196b4ee5a242474a85cb9aa5fc2ce59ecc884d7271f1c2bd19b9a13910160405180910390a260048b015415801561129b575060058b0154155b80156112a957508c60035414155b156112b7576112b78d612bd0565b60038b01548988036112cc576112cc8e612cb4565b9c50610cbe9a5050505050505050505050565b825161132d5760405162461bcd60e51b815260206004820152601260248201527f4e6f2066756e647320616c6c6f6361746564000000000000000000000000000060448201526064016109e6565b80156113985760055f9054906101000a90046001600160a01b03166001600160a01b031663b09f409d826040518263ffffffff1660e01b81526004015f604051808303818588803b158015611380575f80fd5b505af1158015611392573d5f803e3d5ffd5b50505050505b50505b9392505050565b5f6113ac82612d78565b505f8281527f80bb2b638cc20bc4d0a60d66940f3ab4a00c1d7b313497ca82fb0b4ab007930460205260409020546001600160a01b0316610af7565b6113f3828233612de8565b5050565b5f611400612df5565b805490915060ff68010000000000000000820416159067ffffffffffffffff165f8115801561142c5750825b90505f8267ffffffffffffffff1660011480156114485750303b155b905081158015611456575080155b1561148d576040517ff92ee8a900000000000000000000000000000000000000000000000000000000815260040160405180910390fd5b84547fffffffffffffffffffffffffffffffffffffffffffffffff000000000000000016600117855583156114ee5784547fffffffffffffffffffffffffffffffffffffffffffffff00ffffffffffffffff16680100000000000000001785555b6115626040518060400160405280600f81526020017f555350442053746162696c697a657200000000000000000000000000000000008152506040518060400160405280600581526020017f5553504453000000000000000000000000000000000000000000000000000000815250612e1d565b61156a612e2f565b611572612e2f565b61157c5f87612e39565b50600580546001600160a01b03808d167fffffffffffffffffffffffff000000000000000000000000000000000000000092831617909255600680548c8416908316179055600780548b841690831617905560088054928a169290911691909117905583156116405784547fffffffffffffffffffffffffffffffffffffffffffffff00ffffffffffffffff168555604051600181527fc7f505b2f371ae2175ee4913f4499e1f2633a7b5936321eed1cdaeb6115181d29060200160405180910390a15b50505050505050505050565b5f61165684611e74565b6001600160a01b0316036116ac5760405162461bcd60e51b815260206004820152601460248201527f546f6b656e20646f6573206e6f7420657869737400000000000000000000000060448201526064016109e6565b336116b684611e74565b6001600160a01b03161461170c5760405162461bcd60e51b815260206004820152600f60248201527f4e6f7420746f6b656e206f776e6572000000000000000000000000000000000060448201526064016109e6565b6001600160a01b0381166117625760405162461bcd60e51b815260206004820152601160248201527f496e76616c696420726563697069656e7400000000000000000000000000000060448201526064016109e6565b5f83815260208190526040902080548311156117c05760405162461bcd60e51b815260206004820152601e60248201527f496e73756666696369656e7420756e616c6c6f63617465642066756e6473000060448201526064016109e6565b82815f015f8282546117d29190614b79565b909155505080545f036117e8576117e884612cb4565b6040516001600160a01b0383169084156108fc029085905f818181858888f1935050505015801561181b573d5f803e3d5ffd5b5050505050565b6001600160a01b038216611864576040517f64a0ae920000000000000000000000000000000000000000000000000000000081525f60048201526024016109e6565b5f611870838333612f23565b9050836001600160a01b0316816001600160a01b0316146118d7576040517f64283d7b0000000000000000000000000000000000000000000000000000000081526001600160a01b03808616600483015260248201849052821660448201526064016109e6565b50505050565b5f8281527f02dd7bc7dec4dceedda775e58dd541e08a116c6c53815c0bd028192f7b626800602052604090206001015461191681612f37565b6118d78383612e39565b5f7f645e039705490088daad89bae25049a34f4a9072d398537b1ab2425f24cbed0061194b84611e7e565b8310611995576040517fa57d13dc0000000000000000000000000000000000000000000000000000000081526001600160a01b0385166004820152602481018490526044016109e6565b6001600160a01b0384165f908152602091825260408082208583529092522054905092915050565b6001600160a01b03811633146119ff576040517f6697b23200000000000000000000000000000000000000000000000000000000815260040160405180910390fd5b611a098282612f41565b505050565b7f9f2df0fed2c77648de5860a4cc508cd0818c85b8b8a1ab4ceeef8d981c8956a6611a3881612f37565b6040805160c0810182525f808252606e6020808401918252838501838152606085018481526080860185815260a087018681528a8752938690529690942094518555915160018501559051600284015590516003830155915160048201559051600590910155611aa88383613003565b826001600160a01b0316827f235cef5017c62c20fa68006be2f6bf69f305c7d72d5a07a625e5693e7a6b1ff85f604051611ae491815260200190565b60405180910390a36006546007546040515f92309287926001600160a01b039283169290911690611b14906145a6565b6001600160a01b039485168152928416602084015290831660408301529091166060820152608001604051809103905ff080158015611b55573d5f803e3d5ffd5b5090506001600160a01b038116611bd45760405162461bcd60e51b815260206004820152602260248201527f53746162696c697a6572457363726f77206465706c6f796d656e74206661696c60448201527f656400000000000000000000000000000000000000000000000000000000000060648201526084016109e6565b5f83815260096020908152604080832080547fffffffffffffffffffffffff0000000000000000000000000000000000000000166001600160a01b038681169190911790915560065460075460085460055485517f7dc0d1d0000000000000000000000000000000000000000000000000000000008152955130978d979587169694851695938516949290921692637dc0d1d09260048083019391928290030181865afa158015611c87573d5f803e3d5ffd5b505050506040513d601f19601f82011682018060405250810190611cab9190614cde565b604051611cb7906145b3565b6001600160a01b0396871681529486166020860152928516604085015290841660608401528316608083015290911660a082015260c001604051809103905ff080158015611d07573d5f803e3d5ffd5b5090506001600160a01b038116611d605760405162461bcd60e51b815260206004820181905260248201527f506f736974696f6e457363726f77206465706c6f796d656e74206661696c656460448201526064016109e6565b5f938452600a602052604090932080547fffffffffffffffffffffffff0000000000000000000000000000000000000000166001600160a01b0390941693909317909255505050565b611a0983838360405180602001604052805f815250611f5e565b5f7f645e039705490088daad89bae25049a34f4a9072d398537b1ab2425f24cbed00611e0d7f645e039705490088daad89bae25049a34f4a9072d398537b1ab2425f24cbed025490565b8310611e4e576040517fa57d13dc0000000000000000000000000000000000000000000000000000000081525f6004820152602481018490526044016109e6565b806002018381548110611e6357611e63614cf9565b905f5260205f200154915050919050565b5f610af782612d78565b5f7f80bb2b638cc20bc4d0a60d66940f3ab4a00c1d7b313497ca82fb0b4ab00793006001600160a01b038316611ee2576040517f89c62b640000000000000000000000000000000000000000000000000000000081525f60048201526024016109e6565b6001600160a01b039092165f908152600390920160205250604090205490565b7f80bb2b638cc20bc4d0a60d66940f3ab4a00c1d7b313497ca82fb0b4ab007930180546060917f80bb2b638cc20bc4d0a60d66940f3ab4a00c1d7b313497ca82fb0b4ab007930091610b2f90614a8d565b6113f333838361301c565b611f69848484611822565b6118d73385858585613115565b5f80611f8183611e74565b6001600160a01b031603611fd75760405162461bcd60e51b815260206004820152601460248201527f546f6b656e20646f6573206e6f7420657869737400000000000000000000000060448201526064016109e6565b505f9081526020819052604090206001015490565b33611ff683611e74565b6001600160a01b03161461204c5760405162461bcd60e51b815260206004820152600f60248201527f4e6f7420746f6b656e206f776e6572000000000000000000000000000000000060448201526064016109e6565b5f811161209b5760405162461bcd60e51b815260206004820152601760248201527f416d6f756e74206d75737420626520706f73697469766500000000000000000060448201526064016109e6565b5f828152600960205260409020546001600160a01b0316806120ff5760405162461bcd60e51b815260206004820152601060248201527f457363726f77206e6f7420666f756e640000000000000000000000000000000060448201526064016109e6565b6006546040517f23b872dd0000000000000000000000000000000000000000000000000000000081523360048201526001600160a01b03838116602483015260448201859052909116906323b872dd906064016020604051808303815f875af115801561216e573d5f803e3d5ffd5b505050506040513d601f19601f820116820180604052508101906121929190614b8c565b5061219c836132d6565b600654604080516001600160a01b0390921682526020820184905284917f055b14c7efbc07d692265b907b52ec309741a29408ffad1d871aa6b371ac7729910160405180910390a2505050565b60605f6121f583611e74565b6001600160a01b03160361224b5760405162461bcd60e51b815260206004820152601460248201527f546f6b656e20646f6573206e6f7420657869737400000000000000000000000060448201526064016109e6565b5f828152602081905260408120906122b56122658561340e565b6122766122718761353f565b61358b565b84546122819061340e565b61228e866001015461340e565b6040516020016122a19493929190614d3d565b60405160208183030381529060405261358b565b9050806040516020016122c89190614f72565b60405160208183030381529060405292505050919050565b5f8281527f02dd7bc7dec4dceedda775e58dd541e08a116c6c53815c0bd028192f7b626800602052604090206001015461231981612f37565b6118d78383612f41565b3361232d82611e74565b6001600160a01b0316146123835760405162461bcd60e51b815260206004820152600f60248201527f4e6f7420746f6b656e206f776e6572000000000000000000000000000000000060448201526064016109e6565b5f34116123d25760405162461bcd60e51b815260206004820152600b60248201527f4e6f204554482073656e7400000000000000000000000000000000000000000060448201526064016109e6565b5f818152600960205260409020546001600160a01b0316806124365760405162461bcd60e51b815260206004820152601060248201527f457363726f77206e6f7420666f756e640000000000000000000000000000000060448201526064016109e6565b806001600160a01b031663d0e30db0346040518263ffffffff1660e01b81526004015f604051808303818588803b15801561246f575f80fd5b505af1158015612481573d5f803e3d5ffd5b505050505061248f826132d6565b604080515f815234602082015283917f055b14c7efbc07d692265b907b52ec309741a29408ffad1d871aa6b371ac7729910160405180910390a25050565b6005545f906001600160a01b031633146125295760405162461bcd60e51b815260206004820152601260248201527f4f6e6c79205553504420636f6e7472616374000000000000000000000000000060448201526064016109e6565b6004545f0361257a5760405162461bcd60e51b815260206004820152601260248201527f4e6f20616c6c6f63617465642066756e6473000000000000000000000000000060448201526064016109e6565b600454835f5b821580159061258e57505f82115b15612b2357620186a05a10612b23575f83815260208181526040808320600a909252909120546001600160a01b03168061260a5760405162461bcd60e51b815260206004820152601860248201527f506f736974696f6e457363726f77206e6f7420666f756e64000000000000000060448201526064016109e6565b5f8190505f816001600160a01b031663d39aa95a6040518163ffffffff1660e01b8152600401602060405180830381865afa15801561264b573d5f803e3d5ffd5b505050506040513d601f19601f8201168201806040525081019061266f9190614ade565b90508015612b15575f8187116126855786612687565b815b90508015612b13575f8061269c85848e6135b1565b91509150846001600160a01b0316630bfd07fc846126b990614fa3565b6040518263ffffffff1660e01b81526004016126d791815260200190565b5f604051808303815f87803b1580156126ee575f80fd5b505af1158015612700573d5f803e3d5ffd5b50506040517f9d45109a00000000000000000000000000000000000000000000000000000000815260048101859052602481018490523060448201526001600160a01b0388169250639d45109a91506064015f604051808303815f87803b158015612769575f80fd5b505af115801561277b573d5f803e3d5ffd5b505050505f818361278c9190614b79565b905081156128aa576006546005546040517fa9059cbb0000000000000000000000000000000000000000000000000000000081526001600160a01b039182166004820152602481018590525f92919091169063a9059cbb906044016020604051808303815f875af1158015612803573d5f803e3d5ffd5b505050506040513d601f19601f820116820180604052508101906128279190614b8c565b90508061289c5760405162461bcd60e51b815260206004820152602760248201527f55736572207374455448207472616e7366657220746f2055535044546f6b656e60448201527f206661696c65640000000000000000000000000000000000000000000000000060648201526084016109e6565b6128a6838b614ccb565b9950505b8015612a19575f8b8152600960205260409020546001600160a01b0316806129145760405162461bcd60e51b815260206004820152601a60248201527f53746162696c697a6572457363726f77206e6f7420666f756e6400000000000060448201526064016109e6565b6006546040517fa9059cbb0000000000000000000000000000000000000000000000000000000081526001600160a01b038381166004830152602482018590525f92169063a9059cbb906044016020604051808303815f875af115801561297d573d5f803e3d5ffd5b505050506040513d601f19601f820116820180604052508101906129a19190614b8c565b905080612a165760405162461bcd60e51b815260206004820152603460248201527f53746162696c697a6572207374455448207472616e7366657220746f2053746160448201527f62696c697a6572457363726f77206661696c656400000000000000000000000060648201526084016109e6565b50505b8484148015612ac657612a2b8c6138f1565b5f8c81526009602090815260408083205481517fec60b9ab00000000000000000000000000000000000000000000000000000000815291516001600160a01b039091169263ec60b9ab92600480820193918290030181865afa158015612a93573d5f803e3d5ffd5b505050506040513d601f19601f82011682018060405250810190612ab79190614ade565b1115612ac657612ac68c6132d6565b612ad0858c614b79565b6040805185815260208101859052919c508d917f7bd51af63c72ca163b2d37a37219fbdda7a4c3803f69ed76e3948078619a32f9910160405180910390a2505050505b505b505050600401549250612580565b5f8111612b725760405162461bcd60e51b815260206004820152601460248201527f4e6f2066756e647320756e616c6c6f636174656400000000000000000000000060448201526064016109e6565b95945050505050565b5f7fffffffff0000000000000000000000000000000000000000000000000000000082167f7965db0b000000000000000000000000000000000000000000000000000000001480610af75750610af7826139b5565b6003541580612bdf5750600454155b15612bee576003819055600455565b600454811115612c1c57600480545f8381526020819052604080822084018390559181522060050182905555565b600354811015612c4b57600380545f838152602081905260408082206005018390559181522060040182905555565b6003545b8015801590612c5d57508181105b15612c78575f90815260208190526040902060050154612c4f565b5f818152602081905260408082206004908101805486855283852092830181905560059283018690558452918320018490559190528190555b50565b5f81815260208190526040902060015482148015612cd3575060025482145b15612ce6575f6001819055600255612d67565b6001548203612d0f57600381015460018190555f90815260208190526040812060020155612d67565b6002548203612d3857600280820154908190555f90815260208190526040812060030155612d67565b600280820154600380840180545f90815260208190526040808220909501849055905492815292909220909101555b5f6003820181905560029091015550565b5f8181527f80bb2b638cc20bc4d0a60d66940f3ab4a00c1d7b313497ca82fb0b4ab007930260205260408120546001600160a01b031680610af7576040517f7e273289000000000000000000000000000000000000000000000000000000008152600481018490526024016109e6565b611a098383836001613a0a565b5f807ff0c57e16840df040f15088dc2f81fe391c3923bec73e23a9662efc9c229c6a00610af7565b612e25613b9e565b6113f38282613bdc565b612e37613b9e565b565b5f8281527f02dd7bc7dec4dceedda775e58dd541e08a116c6c53815c0bd028192f7b626800602081815260408084206001600160a01b038616855290915282205460ff16612f1a575f848152602082815260408083206001600160a01b0387168452909152902080547fffffffffffffffffffffffffffffffffffffffffffffffffffffffffffffff00166001179055612ed03390565b6001600160a01b0316836001600160a01b0316857f2f8788117e7eff1d82e926ec794901d17c78024a50270940304540a733656f0d60405160405180910390a46001915050610af7565b5f915050610af7565b5f612f2f848484613c1f565b949350505050565b612cb18133613d28565b5f8281527f02dd7bc7dec4dceedda775e58dd541e08a116c6c53815c0bd028192f7b626800602081815260408084206001600160a01b038616855290915282205460ff1615612f1a575f848152602082815260408083206001600160a01b038716808552925280832080547fffffffffffffffffffffffffffffffffffffffffffffffffffffffffffffff0016905551339287917ff6391f5c32d9c69d2a47ea670b442974b53935d1edc7fd64eb21e047a839171b9190a46001915050610af7565b6113f3828260405180602001604052805f815250613db4565b7f80bb2b638cc20bc4d0a60d66940f3ab4a00c1d7b313497ca82fb0b4ab00793006001600160a01b038316613088576040517f5b08ba180000000000000000000000000000000000000000000000000000000081526001600160a01b03841660048201526024016109e6565b6001600160a01b038481165f81815260058401602090815260408083209488168084529482529182902080547fffffffffffffffffffffffffffffffffffffffffffffffffffffffffffffff001687151590811790915591519182527f17307eab39ab6107e8899845ad3d59bd9653f200f220920489ca2b5937696c31910160405180910390a350505050565b6001600160a01b0383163b1561181b576040517f150b7a020000000000000000000000000000000000000000000000000000000081526001600160a01b0384169063150b7a0290613170908890889087908790600401614fd9565b6020604051808303815f875af19250505080156131c8575060408051601f3d9081017fffffffffffffffffffffffffffffffffffffffffffffffffffffffffffffffe01682019092526131c591810190615019565b60015b613248573d8080156131f5576040519150601f19603f3d011682016040523d82523d5f602084013e6131fa565b606091505b5080515f03613240576040517f64a0ae920000000000000000000000000000000000000000000000000000000081526001600160a01b03851660048201526024016109e6565b805181602001fd5b7fffffffff0000000000000000000000000000000000000000000000000000000081167f150b7a0200000000000000000000000000000000000000000000000000000000146132ce576040517f64a0ae920000000000000000000000000000000000000000000000000000000081526001600160a01b03851660048201526024016109e6565b505050505050565b5f81815260208190526040902060028101541580156132f757506003810154155b801561330557508160015414155b156113f3576001545f0361331e57506001819055600255565b60025482111561334957600280549181018290555f9182526020829052604090912060030182905555565b60015482101561337757600180546003929092018290555f9182526020829052604090912060020182905555565b6001545b5f81815260208190526040902060030154158015906133a957505f8181526020819052604090206003015483115b156133c4575f9081526020819052604090206003015461337b565b5f81815260208190526040902060039081018054600285018490559184018290558490558015613406575f8181526020819052604090206002018490556118d7565b505050600255565b6060815f0361345057505060408051808201909152600181527f3000000000000000000000000000000000000000000000000000000000000000602082015290565b815f5b8115613479578061346381615034565b91506134729050600a83614b66565b9150613453565b5f8167ffffffffffffffff81111561349357613493614867565b6040519080825280601f01601f1916602001820160405280156134bd576020820181803683370190505b5090505b8415612f2f576134d2600183614b79565b91506134df600a8661506b565b6134ea906030614ccb565b60f81b8183815181106134ff576134ff614cf9565b60200101907effffffffffffffffffffffffffffffffffffffffffffffffffffffffffffff191690815f1a905350613538600a86614b66565b94506134c1565b5f8181526020819052604090206060906135588361340e565b81546135639061340e565b60405160200161357492919061507e565b604051602081830303815290604052915050919050565b6060610af782604051806060016040528060408152602001618909604091396001613dcb565b5f80846001600160a01b031663d39aa95a6040518163ffffffff1660e01b8152600401602060405180830381865afa1580156135ef573d5f803e3d5ffd5b505050506040513d601f19601f820116820180604052508101906136139190614ade565b5f0361362357505f9050806138e9565b600854604080517fefa7fa5d00000000000000000000000000000000000000000000000000000000815290515f926001600160a01b03169163efa7fa5d9160048083019260209291908290030181865afa158015613683573d5f803e3d5ffd5b505050506040513d601f19601f820116820180604052508101906136a79190614ade565b90505f60085f9054906101000a90046001600160a01b03166001600160a01b031663a42c69a96040518163ffffffff1660e01b8152600401602060405180830381865afa1580156136fa573d5f803e3d5ffd5b505050506040513d601f19601f8201168201806040525081019061371e9190614ade565b6137288388614b22565b6137329190614b66565b85519091506137835760405162461bcd60e51b815260206004820152601b60248201527f4f7261636c652070726963652063616e6e6f74206265207a65726f000000000060448201526064016109e6565b845160208601516137989060ff16600a614cc0565b6137a29083614b22565b6137ac9190614b66565b604080517fdc607d6f00000000000000000000000000000000000000000000000000000000815287516004820152602088015160ff1660248201529087015160448201529093505f906001600160a01b0389169063dc607d6f90606401602060405180830381865afa158015613824573d5f803e3d5ffd5b505050506040513d601f19601f820116820180604052508101906138489190614ade565b905060648110156138c15760405162461bcd60e51b815260206004820152603360248201527f43616e6e6f7420756e616c6c6f636174652066726f6d20756e646572636f6c6c60448201527f61746572616c697a656420706f736974696f6e0000000000000000000000000060648201526084016109e6565b60646138cd8286614b22565b6138d79190614b66565b9450848411156138e5578493505b5050505b935093915050565b5f81815260208190526040902060035482148015613910575060045482145b15613923575f60038190556004556139a4565b600354820361394c57600581015460038190555f908152602081905260408120600401556139a4565b600454820361397557600480820154908190555f908152602081905260408120600501556139a4565b600480820154600580840180545f90815260208190526040808220909501849055905492815292909220909101555b5f6005820181905560049091015550565b5f7fffffffff0000000000000000000000000000000000000000000000000000000082167f780e9d63000000000000000000000000000000000000000000000000000000001480610af75750610af782613f46565b7f80bb2b638cc20bc4d0a60d66940f3ab4a00c1d7b313497ca82fb0b4ab00793008180613a3f57506001600160a01b03831615155b15613b56575f613a4e85612d78565b90506001600160a01b03841615801590613a7a5750836001600160a01b0316816001600160a01b031614155b8015613aca57506001600160a01b038082165f9081527f80bb2b638cc20bc4d0a60d66940f3ab4a00c1d7b313497ca82fb0b4ab0079305602090815260408083209388168352929052205460ff16155b15613b0c576040517fa9fbf51f0000000000000000000000000000000000000000000000000000000081526001600160a01b03851660048201526024016109e6565b8215613b545784866001600160a01b0316826001600160a01b03167f8c5be1e5ebec7d5bd14f71427d1e84f3dd0314c0f7b2291e5b200ac8c7c3b92560405160405180910390a45b505b5f93845260040160205250506040902080547fffffffffffffffffffffffff0000000000000000000000000000000000000000166001600160a01b0392909216919091179055565b613ba6614028565b612e37576040517fd7e6bcf800000000000000000000000000000000000000000000000000000000815260040160405180910390fd5b613be4613b9e565b7f80bb2b638cc20bc4d0a60d66940f3ab4a00c1d7b313497ca82fb0b4ab007930080613c10848261539d565b50600181016118d7838261539d565b5f80613c2c858585614046565b90506001600160a01b038116613cc657613cc1847f645e039705490088daad89bae25049a34f4a9072d398537b1ab2425f24cbed0280545f8381527f645e039705490088daad89bae25049a34f4a9072d398537b1ab2425f24cbed0360205260408120829055600182018355919091527fa42f15e5d656f8155fd7419d740a6073999f19cd6e061449ce4a257150545bf20155565b613ce9565b846001600160a01b0316816001600160a01b031614613ce957613ce981856141b7565b6001600160a01b038516613d0557613d0084614261565b612f2f565b846001600160a01b0316816001600160a01b031614612f2f57612f2f8585614354565b5f8281527f02dd7bc7dec4dceedda775e58dd541e08a116c6c53815c0bd028192f7b626800602090815260408083206001600160a01b038516845290915290205460ff166113f3576040517fe2517d3f0000000000000000000000000000000000000000000000000000000081526001600160a01b0382166004820152602481018390526044016109e6565b613dbe83836143bf565b611a09335f858585613115565b606083515f03613de9575060408051602081019091525f815261139b565b5f82613e1957600385516004613dff9190614b22565b613e0a906002614ccb565b613e149190614b66565b613e3e565b600385516002613e299190614ccb565b613e339190614b66565b613e3e906004614b22565b90505f8167ffffffffffffffff811115613e5a57613e5a614867565b6040519080825280601f01601f191660200182016040528015613e84576020820181803683370190505b509050600185016020820187885189016020810180515f82525b82841015613ef9576003840193508351603f8160121c168701518653600186019550603f81600c1c168701518653600186019550603f8160061c168701518653600186019550603f8116870151865350600185019450613e9e565b905250508515613f3a57600388510660018114613f1d5760028114613f3057613f38565b603d6001830353603d6002830353613f38565b603d60018303535b505b50909695505050505050565b5f7fffffffff0000000000000000000000000000000000000000000000000000000082167f80ac58cd000000000000000000000000000000000000000000000000000000001480613fd857507fffffffff0000000000000000000000000000000000000000000000000000000082167f5b5e139f00000000000000000000000000000000000000000000000000000000145b80610af757507f01ffc9a7000000000000000000000000000000000000000000000000000000007fffffffff00000000000000000000000000000000000000000000000000000000831614610af7565b5f614031612df5565b5468010000000000000000900460ff16919050565b5f8281527f80bb2b638cc20bc4d0a60d66940f3ab4a00c1d7b313497ca82fb0b4ab007930260205260408120547f80bb2b638cc20bc4d0a60d66940f3ab4a00c1d7b313497ca82fb0b4ab0079300906001600160a01b03908116908416156140b3576140b3818587614452565b6001600160a01b0381161561410e576140ce5f865f80613a0a565b6001600160a01b0381165f908152600383016020526040902080547fffffffffffffffffffffffffffffffffffffffffffffffffffffffffffffffff0190555b6001600160a01b0386161561413e576001600160a01b0386165f9081526003830160205260409020805460010190555b5f85815260028301602052604080822080547fffffffffffffffffffffffff0000000000000000000000000000000000000000166001600160a01b038a811691821790925591518893918516917fddf252ad1be2c89b69c2b068fc378daa952ba7f163c4a11628f55a4df523b3ef91a495945050505050565b7f645e039705490088daad89bae25049a34f4a9072d398537b1ab2425f24cbed005f6141e284611e7e565b5f8481526001840160209081526040808320546001600160a01b0389168452918690529091209192509081831461423a575f838152602082815260408083205485845281842081905583526001870190915290208290555b5f948552600190930160209081526040808620869055928552929092528220919091555050565b7f645e039705490088daad89bae25049a34f4a9072d398537b1ab2425f24cbed02547f645e039705490088daad89bae25049a34f4a9072d398537b1ab2425f24cbed00905f906142b390600190614b79565b5f8481526003840160205260408120546002850180549394509092849081106142de576142de614cf9565b905f5260205f2001549050808460020183815481106142ff576142ff614cf9565b5f9182526020808320909101929092558281526003860190915260408082208490558682528120556002840180548061433a5761433a6154b4565b600190038181905f5260205f20015f905590555050505050565b7f645e039705490088daad89bae25049a34f4a9072d398537b1ab2425f24cbed005f600161438185611e7e565b61438b9190614b79565b6001600160a01b039094165f9081526020838152604080832087845282528083208690559482526001909301909252502055565b6001600160a01b038216614401576040517f64a0ae920000000000000000000000000000000000000000000000000000000081525f60048201526024016109e6565b5f61440d83835f612f23565b90506001600160a01b03811615611a09576040517f73c6ac6e0000000000000000000000000000000000000000000000000000000081525f60048201526024016109e6565b61445d8383836144e8565b611a09576001600160a01b0383166144a4576040517f7e273289000000000000000000000000000000000000000000000000000000008152600481018290526024016109e6565b6040517f177e802f0000000000000000000000000000000000000000000000000000000081526001600160a01b0383166004820152602481018290526044016109e6565b5f6001600160a01b03831615801590612f2f5750826001600160a01b0316846001600160a01b0316148061455f57506001600160a01b038085165f9081527f80bb2b638cc20bc4d0a60d66940f3ab4a00c1d7b313497ca82fb0b4ab0079305602090815260408083209387168352929052205460ff165b80612f2f5750505f9081527f80bb2b638cc20bc4d0a60d66940f3ab4a00c1d7b313497ca82fb0b4ab007930460205260409020546001600160a01b03908116911614919050565b610d24806154e283390190565b6127038061620683390190565b5f80604083850312156145d1575f80fd5b50508035926020909101359150565b7fffffffff0000000000000000000000000000000000000000000000000000000081168114612cb1575f80fd5b5f6020828403121561461d575f80fd5b813561139b816145e0565b5f81518084528060208401602086015e5f6020828601015260207fffffffffffffffffffffffffffffffffffffffffffffffffffffffffffffffe0601f83011685010191505092915050565b602081525f61139b6020830184614628565b5f805f60608486031215614698575f80fd5b505081359360208301359350604090920135919050565b5f602082840312156146bf575f80fd5b5035919050565b6001600160a01b0381168114612cb1575f80fd5b5f80604083850312156146eb575f80fd5b82356146f6816146c6565b946020939093013593505050565b5f805f805f60a08688031215614718575f80fd5b8535614723816146c6565b94506020860135614733816146c6565b93506040860135614743816146c6565b92506060860135614753816146c6565b91506080860135614763816146c6565b809150509295509295909350565b5f805f60608486031215614783575f80fd5b8335925060208401359150604084013561479c816146c6565b809150509250925092565b5f805f606084860312156147b9575f80fd5b83356147c4816146c6565b925060208401356147d4816146c6565b929592945050506040919091013590565b5f80604083850312156147f6575f80fd5b823591506020830135614808816146c6565b809150509250929050565b5f60208284031215614823575f80fd5b813561139b816146c6565b8015158114612cb1575f80fd5b5f806040838503121561484c575f80fd5b8235614857816146c6565b915060208301356148088161482e565b7f4e487b71000000000000000000000000000000000000000000000000000000005f52604160045260245ffd5b604051601f82017fffffffffffffffffffffffffffffffffffffffffffffffffffffffffffffffe016810167ffffffffffffffff811182821017156148db576148db614867565b604052919050565b5f805f80608085870312156148f6575f80fd5b8435614901816146c6565b93506020850135614911816146c6565b925060408501359150606085013567ffffffffffffffff811115614933575f80fd5b8501601f81018713614943575f80fd5b803567ffffffffffffffff81111561495d5761495d614867565b61498e60207fffffffffffffffffffffffffffffffffffffffffffffffffffffffffffffffe0601f84011601614894565b8181528860208385010111156149a2575f80fd5b816020840160208301375f6020838301015280935050505092959194509250565b5f80604083850312156149d4575f80fd5b82356149df816146c6565b91506020830135614808816146c6565b5f808284036080811215614a01575f80fd5b8335925060607fffffffffffffffffffffffffffffffffffffffffffffffffffffffffffffffe082011215614a34575f80fd5b506040516060810167ffffffffffffffff81118282101715614a5857614a58614867565b60409081526020850135825284013560ff81168114614a75575f80fd5b60208201526060939093013560408401525092909150565b600181811c90821680614aa157607f821691505b602082108103614ad8577f4e487b71000000000000000000000000000000000000000000000000000000005f52602260045260245ffd5b50919050565b5f60208284031215614aee575f80fd5b5051919050565b7f4e487b71000000000000000000000000000000000000000000000000000000005f52601160045260245ffd5b8082028115828204841417610af757610af7614af5565b7f4e487b71000000000000000000000000000000000000000000000000000000005f52601260045260245ffd5b5f82614b7457614b74614b39565b500490565b81810381811115610af757610af7614af5565b5f60208284031215614b9c575f80fd5b815161139b8161482e565b6001815b60018411156138e957808504811115614bc657614bc6614af5565b6001841615614bd457908102905b60019390931c928002614bab565b5f82614bf057506001610af7565b81614bfc57505f610af7565b8160018114614c125760028114614c1c57614c38565b6001915050610af7565b60ff841115614c2d57614c2d614af5565b50506001821b610af7565b5060208310610133831016604e8410600b8410161715614c5b575081810a610af7565b614c867fffffffffffffffffffffffffffffffffffffffffffffffffffffffffffffffff8484614ba7565b807fffffffffffffffffffffffffffffffffffffffffffffffffffffffffffffffff04821115614cb857614cb8614af5565b029392505050565b5f61139b8383614be2565b80820180821115610af757610af7614af5565b5f60208284031215614cee575f80fd5b815161139b816146c6565b7f4e487b71000000000000000000000000000000000000000000000000000000005f52603260045260245ffd5b5f81518060208401855e5f93019283525090919050565b7f7b226e616d65223a2022555350442053746162696c697a65722023000000000081525f614d6e601b830187614d26565b7f222c20226465736372697074696f6e223a2022555350442053746162696c697a81527f657220506f736974696f6e204e4654222c20000000000000000000000000000060208201527f22696d616765223a2022646174613a696d6167652f7376672b786d6c3b62617360328201527f6536342c000000000000000000000000000000000000000000000000000000006052820152614e106056820187614d26565b90507f222c202261747472696275746573223a205b000000000000000000000000000081527f7b2274726169745f74797065223a2022556e616c6c6f6361746564204554482260128201527f2c202276616c7565223a202200000000000000000000000000000000000000006032820152614e8e603e820186614d26565b7f227d2c000000000000000000000000000000000000000000000000000000000081527f7b2274726169745f74797065223a20224d696e20436f6c6c61746572616c2052600382019081527f6174696f222c202276616c7565223a202200000000000000000000000000000060238301529150603401614f66614f3d614f148388614d26565b7f25227d0000000000000000000000000000000000000000000000000000000000815260030190565b7f5d7d000000000000000000000000000000000000000000000000000000000000815260020190565b98975050505050505050565b7f646174613a6170706c69636174696f6e2f6a736f6e3b6261736536342c00000081525f61139b601d830184614d26565b5f7f80000000000000000000000000000000000000000000000000000000000000008203614fd357614fd3614af5565b505f0390565b6001600160a01b03851681526001600160a01b0384166020820152826040820152608060608201525f61500f6080830184614628565b9695505050505050565b5f60208284031215615029575f80fd5b815161139b816145e0565b5f7fffffffffffffffffffffffffffffffffffffffffffffffffffffffffffffffff820361506457615064614af5565b5060010190565b5f8261507957615079614b39565b500690565b7f3c73766720786d6c6e733d22687474703a2f2f7777772e77332e6f72672f323081527f30302f737667222077696474683d2234303022206865696768743d223430302260208201527f3e0000000000000000000000000000000000000000000000000000000000000060408201527f3c7374796c653e2e62617365207b2066696c6c3a2077686974653b20666f6e7460418201527f2d66616d696c793a2073657269663b20666f6e742d73697a653a20313470783b60618201527f207d3c2f7374796c653e0000000000000000000000000000000000000000000060818201527f3c726563742077696474683d223130302522206865696768743d223130302522608b8201527f2066696c6c3d22626c61636b222f3e000000000000000000000000000000000060ab8201527f3c7465787420783d223530252220793d223430252220636c6173733d2262617360ba8201527f652220646f6d696e616e742d626173656c696e653d226d6964646c652220746560da8201527f78742d616e63686f723d226d6964646c65223e0000000000000000000000000060fa8201527f53746162696c697a65722023000000000000000000000000000000000000000061010d8201525f612f2f61533061526361530761530161528c8361011989018b614d26565b7f3c2f746578743e00000000000000000000000000000000000000000000000000815260070190565b7f3c7465787420783d223530252220793d223630252220636c6173733d2262617381527f652220646f6d696e616e742d626173656c696e653d226d6964646c652220746560208201527f78742d616e63686f723d226d6964646c65223e00000000000000000000000000604082015260530190565b87614d26565b7f2045544820556e616c6c6f636174656400000000000000000000000000000000815260100190565b7f3c2f7376673e0000000000000000000000000000000000000000000000000000815260060190565b601f821115611a0957805f5260205f20601f840160051c8101602085101561537e5750805b601f840160051c820191505b8181101561181b575f815560010161538a565b815167ffffffffffffffff8111156153b7576153b7614867565b6153cb816153c58454614a8d565b84615359565b6020601f82116001811461541c575f83156153e65750848201515b7fffffffffffffffffffffffffffffffffffffffffffffffffffffffffffffffff600385901b1c1916600184901b17845561181b565b5f848152602081207fffffffffffffffffffffffffffffffffffffffffffffffffffffffffffffffe08516915b828110156154695787850151825560209485019460019092019101615449565b50848210156154a557868401517fffffffffffffffffffffffffffffffffffffffffffffffffffffffffffffffff600387901b60f8161c191681555b50505050600190811b01905550565b7f4e487b71000000000000000000000000000000000000000000000000000000005f52603160045260245ffdfe610100604052348015610010575f80fd5b50604051610d24380380610d2483398101604081905261002f916100cb565b6001600160a01b038416158061004c57506001600160a01b038316155b8061005e57506001600160a01b038216155b8061007057506001600160a01b038116155b1561008e5760405163d92e233d60e01b815260040160405180910390fd5b6001600160a01b0393841660805291831660a052821660c0521660e05261011c565b80516001600160a01b03811681146100c6575f80fd5b919050565b5f805f80608085870312156100de575f80fd5b6100e7856100b0565b93506100f5602086016100b0565b9250610103604086016100b0565b9150610111606086016100b0565b905092959194509250565b60805160a05160c05160e051610b906101945f395f81816098015261090701525f818161019b01528181610341015281816104570152818161061f015281816107570152610a3d01525f8181610116015261072601525f8181610168015281816101ff0152818161052f01526108190152610b905ff3fe60806040526004361061007c575f3560e01c8063bec070d61161004c578063bec070d614610157578063c1fe3e481461018a578063d0e30db0146101bd578063ec60b9ab146101c5575f80fd5b806323509a2d146100875780634f68ae75146100e45780637d0e9bba14610105578063a901540014610138575f80fd5b3661008357005b5f80fd5b348015610092575f80fd5b506100ba7f000000000000000000000000000000000000000000000000000000000000000081565b60405173ffffffffffffffffffffffffffffffffffffffff90911681526020015b60405180910390f35b3480156100ef575f80fd5b506101036100fe366004610ac0565b6101e7565b005b348015610110575f80fd5b506100ba7f000000000000000000000000000000000000000000000000000000000000000081565b348015610143575f80fd5b50610103610152366004610b06565b610517565b348015610162575f80fd5b506100ba7f000000000000000000000000000000000000000000000000000000000000000081565b348015610195575f80fd5b506100ba7f000000000000000000000000000000000000000000000000000000000000000081565b610103610801565b3480156101d0575f80fd5b506101d9610a0d565b6040519081526020016100db565b3373ffffffffffffffffffffffffffffffffffffffff7f0000000000000000000000000000000000000000000000000000000000000000161461028b576040517f08c379a000000000000000000000000000000000000000000000000000000000815260206004820152601b60248201527f43616c6c6572206973206e6f742053746162696c697a65724e4654000000000060448201526064015b60405180910390fd5b815f036102c4576040517f1f2a200500000000000000000000000000000000000000000000000000000000815260040160405180910390fd5b73ffffffffffffffffffffffffffffffffffffffff8116610311576040517fd92e233d00000000000000000000000000000000000000000000000000000000815260040160405180910390fd5b6040517f70a082310000000000000000000000000000000000000000000000000000000081523060048201525f907f000000000000000000000000000000000000000000000000000000000000000073ffffffffffffffffffffffffffffffffffffffff16906370a0823190602401602060405180830381865afa15801561039b573d5f803e3d5ffd5b505050506040513d601f19601f820116820180604052508101906103bf9190610b1d565b90508083111561040b576040517fe450d38c0000000000000000000000000000000000000000000000000000000081523060048201526024810182905260448101849052606401610282565b6040517f095ea7b300000000000000000000000000000000000000000000000000000000815273ffffffffffffffffffffffffffffffffffffffff8381166004830152602482018590527f0000000000000000000000000000000000000000000000000000000000000000169063095ea7b3906044016020604051808303815f875af115801561049d573d5f803e3d5ffd5b505050506040513d601f19601f820116820180604052508101906104c19190610b34565b508173ffffffffffffffffffffffffffffffffffffffff167fd4ff9b9c0e7f96a5697a4d12df976cbce4f79f135c350cc8014ce7ecfe4ed25e8460405161050a91815260200190565b60405180910390a2505050565b3373ffffffffffffffffffffffffffffffffffffffff7f000000000000000000000000000000000000000000000000000000000000000016146105b6576040517f08c379a000000000000000000000000000000000000000000000000000000000815260206004820152601b60248201527f43616c6c6572206973206e6f742053746162696c697a65724e465400000000006044820152606401610282565b805f036105ef576040517f1f2a200500000000000000000000000000000000000000000000000000000000815260040160405180910390fd5b6040517f70a082310000000000000000000000000000000000000000000000000000000081523060048201525f907f000000000000000000000000000000000000000000000000000000000000000073ffffffffffffffffffffffffffffffffffffffff16906370a0823190602401602060405180830381865afa158015610679573d5f803e3d5ffd5b505050506040513d601f19601f8201168201806040525081019061069d9190610b1d565b9050808211156106e9576040517fe450d38c0000000000000000000000000000000000000000000000000000000081523060048201526024810182905260448101839052606401610282565b6040517fa9059cbb00000000000000000000000000000000000000000000000000000000815273ffffffffffffffffffffffffffffffffffffffff7f000000000000000000000000000000000000000000000000000000000000000081166004830152602482018490525f917f00000000000000000000000000000000000000000000000000000000000000009091169063a9059cbb906044016020604051808303815f875af115801561079f573d5f803e3d5ffd5b505050506040513d601f19601f820116820180604052508101906107c39190610b34565b9050806107fc576040517f90b8ec1800000000000000000000000000000000000000000000000000000000815260040160405180910390fd5b505050565b3373ffffffffffffffffffffffffffffffffffffffff7f000000000000000000000000000000000000000000000000000000000000000016146108a0576040517f08c379a000000000000000000000000000000000000000000000000000000000815260206004820152601b60248201527f43616c6c6572206973206e6f742053746162696c697a65724e465400000000006044820152606401610282565b345f036108d9576040517f1f2a200500000000000000000000000000000000000000000000000000000000815260040160405180910390fd5b6040517fa1903eab0000000000000000000000000000000000000000000000000000000081525f60048201527f000000000000000000000000000000000000000000000000000000000000000073ffffffffffffffffffffffffffffffffffffffff169063a1903eab90349060240160206040518083038185885af1935050505080156109a1575060408051601f3d9081017fffffffffffffffffffffffffffffffffffffffffffffffffffffffffffffffe016820190925261099e91810190610b1d565b60015b6109d7576040517f79cacff100000000000000000000000000000000000000000000000000000000815260040160405180910390fd5b506040513481527fa1ab46d0e38f33a7b1f03853088a305927deb55c906370ff5d6d2bc732f150959060200160405180910390a1565b6040517f70a082310000000000000000000000000000000000000000000000000000000081523060048201525f907f000000000000000000000000000000000000000000000000000000000000000073ffffffffffffffffffffffffffffffffffffffff16906370a0823190602401602060405180830381865afa158015610a97573d5f803e3d5ffd5b505050506040513d601f19601f82011682018060405250810190610abb9190610b1d565b905090565b5f8060408385031215610ad1575f80fd5b82359150602083013573ffffffffffffffffffffffffffffffffffffffff81168114610afb575f80fd5b809150509250929050565b5f60208284031215610b16575f80fd5b5035919050565b5f60208284031215610b2d575f80fd5b5051919050565b5f60208284031215610b44575f80fd5b81518015158114610b53575f80fd5b939250505056fea264697066735822122001e2d025c5f0d8097af9263c28953b66fce8ea1f1c40fd9a14aa44c69bbb25c964736f6c634300081a0033610120604052348015610010575f80fd5b5060405161270338038061270383398101604081905261002f9161020e565b6001600160a01b038616158061004c57506001600160a01b038516155b8061005e57506001600160a01b038416155b8061007057506001600160a01b038316155b8061008257506001600160a01b038216155b8061009457506001600160a01b038116155b156100b25760405163d92e233d60e01b815260040160405180910390fd5b6001600160a01b0380871660805284811660a05283811660c05282811660e0528116610100525f60018190556100e8908761014a565b506101137f079847024f21c1f5f8d88daf6764f03ddd70ce4acc6aa7104a85233fe5a769958761014a565b5061013e7f7f61e2b6df76d800cd249804cfbce4bce022e89227550287211f04d6f3b464e78661014a565b5050505050505061027e565b5f828152602081815260408083206001600160a01b038516845290915281205460ff166101ea575f838152602081815260408083206001600160a01b03861684529091529020805460ff191660011790556101a23390565b6001600160a01b0316826001600160a01b0316847f2f8788117e7eff1d82e926ec794901d17c78024a50270940304540a733656f0d60405160405180910390a45060016101ed565b505f5b92915050565b80516001600160a01b0381168114610209575f80fd5b919050565b5f805f805f8060c08789031215610223575f80fd5b61022c876101f3565b955061023a602088016101f3565b9450610248604088016101f3565b9350610256606088016101f3565b9250610264608088016101f3565b915061027260a088016101f3565b90509295509295509295565b60805160a05160c05160e051610100516123d861032b5f395f81816104fc0152610b4501525f81816106c301528181610cd601528181610d66015281816119d80152611a6801525f81816101e70152818161037e015281816110cf015261173501525f81816106290152818161096601528181610c0201528181610f4e01528181611311015281816114370152818161152e015281816119180152611b8d01525f6105e301526123d85ff3fe608060405260043610610191575f3560e01c806382882f8a116100dc578063bf3fdde711610087578063d547741f11610062578063d547741f14610660578063dc607d6f1461067f578063ee5f44071461069e578063eee24219146106b2575f80fd5b8063bf3fdde714610605578063c1fe3e4814610618578063d39aa95a1461064b575f80fd5b8063a217fddf116100b7578063a217fddf146105a0578063bcc46e83146105b3578063bec070d6146105d2575f80fd5b806382882f8a1461051e57806391d14854146105325780639d45109a14610581575f80fd5b80634699643b1161013c57806368b2f94a1161011757806368b2f94a146104b0578063769ef03d146104e35780637dc0d1d0146104eb575f80fd5b80634699643b1461043f578063571a1e2814610472578063618f802714610491575f80fd5b8063248a9ca31161016c578063248a9ca3146103c55780632f2ff15d1461040157806336568abe14610420575f80fd5b806301ffc9a7146103185780630bfd07fc1461034c57806323509a2d1461036d575f80fd5b3661031457345f8190036101a157005b6040517fa1903eab0000000000000000000000000000000000000000000000000000000081525f600482018190529073ffffffffffffffffffffffffffffffffffffffff7f0000000000000000000000000000000000000000000000000000000000000000169063a1903eab90849060240160206040518083038185885af19350505050801561026c575060408051601f3d9081017fffffffffffffffffffffffffffffffffffffffffffffffffffffffffffffffe016820190925261026991810190611e54565b60015b6102a2576040517f90b8ec1800000000000000000000000000000000000000000000000000000000815260040160405180910390fd5b809150815f036102de576040517f90b8ec1800000000000000000000000000000000000000000000000000000000815260040160405180910390fd5b506040518181527f206d5f22994381488f76c20f193ebf898daf960461a61d40e68e1641f62d8c5d9060200160405180910390a1005b5f80fd5b348015610323575f80fd5b50610337610332366004611e6b565b6106e5565b60405190151581526020015b60405180910390f35b348015610357575f80fd5b5061036b610366366004611eb1565b61077d565b005b348015610378575f80fd5b506103a07f000000000000000000000000000000000000000000000000000000000000000081565b60405173ffffffffffffffffffffffffffffffffffffffff9091168152602001610343565b3480156103d0575f80fd5b506103f36103df366004611eb1565b5f9081526020819052604090206001015490565b604051908152602001610343565b34801561040c575f80fd5b5061036b61041b366004611ee9565b61086d565b34801561042b575f80fd5b5061036b61043a366004611ee9565b610897565b34801561044a575f80fd5b506103f37f079847024f21c1f5f8d88daf6764f03ddd70ce4acc6aa7104a85233fe5a7699581565b34801561047d575f80fd5b5061036b61048c366004611eb1565b6108f0565b34801561049c575f80fd5b5061036b6104ab366004611f17565b610a56565b3480156104bb575f80fd5b506103f37f7f61e2b6df76d800cd249804cfbce4bce022e89227550287211f04d6f3b464e781565b61036b61104e565b3480156104f6575f80fd5b506103a07f000000000000000000000000000000000000000000000000000000000000000081565b348015610529575f80fd5b506103f3606e81565b34801561053d575f80fd5b5061033761054c366004611ee9565b5f9182526020828152604080842073ffffffffffffffffffffffffffffffffffffffff93909316845291905290205460ff1690565b34801561058c575f80fd5b5061036b61059b366004611f72565b6111f7565b3480156105ab575f80fd5b506103f35f81565b3480156105be575f80fd5b5061036b6105cd366004611eb1565b61162f565b3480156105dd575f80fd5b506103a07f000000000000000000000000000000000000000000000000000000000000000081565b61036b610613366004611eb1565b611692565b348015610623575f80fd5b506103a07f000000000000000000000000000000000000000000000000000000000000000081565b348015610656575f80fd5b506103f360015481565b34801561066b575f80fd5b5061036b61067a366004611ee9565b611890565b34801561068a575f80fd5b506103f3610699366004611ff9565b6118b4565b3480156106a9575f80fd5b506103f3611b5d565b3480156106bd575f80fd5b506103a07f000000000000000000000000000000000000000000000000000000000000000081565b5f7fffffffff0000000000000000000000000000000000000000000000000000000082167f7965db0b00000000000000000000000000000000000000000000000000000000148061077757507f01ffc9a7000000000000000000000000000000000000000000000000000000007fffffffff000000000000000000000000000000000000000000000000000000008316145b92915050565b7f079847024f21c1f5f8d88daf6764f03ddd70ce4acc6aa7104a85233fe5a769956107a781611c10565b6001545f8313156107c4576107bc838261206a565b60015561082a565b5f831215610825575f6107d68461207d565b905081811115610812576040517f1f825c6a00000000000000000000000000000000000000000000000000000000815260040160405180910390fd5b61081c81836120b3565b6001555061082a565b505050565b6001546040805185815260208101929092527fabc1e0200cea3daa5c1d23d3df8212b5b114ee4bb8800bc01d8c2a7f93641d02910160405180910390a1505b5050565b5f8281526020819052604090206001015461088781611c10565b6108918383611c1d565b50505050565b73ffffffffffffffffffffffffffffffffffffffff811633146108e6576040517f6697b23200000000000000000000000000000000000000000000000000000000815260040160405180910390fd5b6108258282611d16565b805f03610929576040517f1f2a200500000000000000000000000000000000000000000000000000000000815260040160405180910390fd5b6040517f23b872dd000000000000000000000000000000000000000000000000000000008152336004820152306024820152604481018290525f907f000000000000000000000000000000000000000000000000000000000000000073ffffffffffffffffffffffffffffffffffffffff16906323b872dd906064016020604051808303815f875af11580156109c1573d5f803e3d5ffd5b505050506040513d601f19601f820116820180604052508101906109e591906120c6565b905080610a1e576040517f90b8ec1800000000000000000000000000000000000000000000000000000000815260040160405180910390fd5b6040518281527f206d5f22994381488f76c20f193ebf898daf960461a61d40e68e1641f62d8c5d906020015b60405180910390a15050565b7f7f61e2b6df76d800cd249804cfbce4bce022e89227550287211f04d6f3b464e7610a8081611c10565b73ffffffffffffffffffffffffffffffffffffffff8416610acd576040517fd92e233d00000000000000000000000000000000000000000000000000000000815260040160405180910390fd5b825f03610b06576040517f1f2a200500000000000000000000000000000000000000000000000000000000815260040160405180910390fd5b6040517f65ab8c710000000000000000000000000000000000000000000000000000000081525f9073ffffffffffffffffffffffffffffffffffffffff7f000000000000000000000000000000000000000000000000000000000000000016906365ab8c7190610b7a90869060040161212c565b6060604051808303815f875af1158015610b96573d5f803e3d5ffd5b505050506040513d601f19601f82011682018060405250810190610bba91906121e3565b6040517f70a082310000000000000000000000000000000000000000000000000000000081523060048201529091505f9073ffffffffffffffffffffffffffffffffffffffff7f000000000000000000000000000000000000000000000000000000000000000016906370a0823190602401602060405180830381865afa158015610c47573d5f803e3d5ffd5b505050506040513d601f19601f82011682018060405250810190610c6b9190611e54565b60015490915081861115610cc0576040517fe450d38c00000000000000000000000000000000000000000000000000000000815230600482015260248101839052604481018790526064015b60405180910390fd5b5f610ccb87846120b3565b90508115610f00575f7f000000000000000000000000000000000000000000000000000000000000000073ffffffffffffffffffffffffffffffffffffffff1663efa7fa5d6040518163ffffffff1660e01b8152600401602060405180830381865afa158015610d3d573d5f803e3d5ffd5b505050506040513d601f19601f82011682018060405250810190610d619190611e54565b90505f7f000000000000000000000000000000000000000000000000000000000000000073ffffffffffffffffffffffffffffffffffffffff1663a42c69a96040518163ffffffff1660e01b8152600401602060405180830381865afa158015610dcd573d5f803e3d5ffd5b505050506040513d601f19601f82011682018060405250810190610df19190611e54565b610dfb8386612227565b610e05919061223e565b9050805f03610e40576040517f1f825c6a00000000000000000000000000000000000000000000000000000000815260040160405180910390fd5b85515f03610e7a576040517f1f2a200500000000000000000000000000000000000000000000000000000000815260040160405180910390fd5b5f866020015160ff16600a610e8f9190612397565b8751610e9b9086612227565b610ea5919061223e565b90505f82610eb4836064612227565b610ebe919061223e565b9050606e811015610efb576040517f133804c300000000000000000000000000000000000000000000000000000000815260040160405180910390fd5b505050505b6040517fa9059cbb00000000000000000000000000000000000000000000000000000000815273ffffffffffffffffffffffffffffffffffffffff8981166004830152602482018990525f917f00000000000000000000000000000000000000000000000000000000000000009091169063a9059cbb906044016020604051808303815f875af1158015610f96573d5f803e3d5ffd5b505050506040513d601f19601f82011682018060405250810190610fba91906120c6565b905080610ff3576040517f90b8ec1800000000000000000000000000000000000000000000000000000000815260040160405180910390fd5b8873ffffffffffffffffffffffffffffffffffffffff167f370ef93e54c934af17869115596b96ef88d1454cd91736e1d7ae0efdaa62686f8960405161103b91815260200190565b60405180910390a2505050505050505050565b345f819003611089576040517f1f2a200500000000000000000000000000000000000000000000000000000000815260040160405180910390fd5b6040517fa1903eab0000000000000000000000000000000000000000000000000000000081525f600482018190529073ffffffffffffffffffffffffffffffffffffffff7f0000000000000000000000000000000000000000000000000000000000000000169063a1903eab90849060240160206040518083038185885af193505050508015611154575060408051601f3d9081017fffffffffffffffffffffffffffffffffffffffffffffffffffffffffffffffe016820190925261115191810190611e54565b60015b61118a576040517f90b8ec1800000000000000000000000000000000000000000000000000000000815260040160405180910390fd5b809150815f036111c6576040517f90b8ec1800000000000000000000000000000000000000000000000000000000815260040160405180910390fd5b506040518181527f206d5f22994381488f76c20f193ebf898daf960461a61d40e68e1641f62d8c5d90602001610a4a565b7f079847024f21c1f5f8d88daf6764f03ddd70ce4acc6aa7104a85233fe5a7699561122181611c10565b835f0361125a576040517f1f2a200500000000000000000000000000000000000000000000000000000000815260040160405180910390fd5b73ffffffffffffffffffffffffffffffffffffffff82166112a7576040517fd92e233d00000000000000000000000000000000000000000000000000000000815260040160405180910390fd5b838311156112e1576040517f1f825c6a00000000000000000000000000000000000000000000000000000000815260040160405180910390fd5b6040517f70a082310000000000000000000000000000000000000000000000000000000081523060048201525f907f000000000000000000000000000000000000000000000000000000000000000073ffffffffffffffffffffffffffffffffffffffff16906370a0823190602401602060405180830381865afa15801561136b573d5f803e3d5ffd5b505050506040513d601f19601f8201168201806040525081019061138f9190611e54565b9050808511156113db576040517fe450d38c0000000000000000000000000000000000000000000000000000000081523060048201526024810182905260448101869052606401610cb7565b5f6113e685876120b3565b6040517fa9059cbb00000000000000000000000000000000000000000000000000000000815273ffffffffffffffffffffffffffffffffffffffff8681166004830152602482018890529192505f917f0000000000000000000000000000000000000000000000000000000000000000169063a9059cbb906044016020604051808303815f875af115801561147d573d5f803e3d5ffd5b505050506040513d601f19601f820116820180604052508101906114a191906120c6565b9050806114da576040517f90b8ec1800000000000000000000000000000000000000000000000000000000815260040160405180910390fd5b81156115d5576040517fa9059cbb00000000000000000000000000000000000000000000000000000000815273ffffffffffffffffffffffffffffffffffffffff8681166004830152602482018490525f917f00000000000000000000000000000000000000000000000000000000000000009091169063a9059cbb906044016020604051808303815f875af1158015611576573d5f803e3d5ffd5b505050506040513d601f19601f8201168201806040525081019061159a91906120c6565b9050806115d3576040517f90b8ec1800000000000000000000000000000000000000000000000000000000815260040160405180910390fd5b505b604080518781526020810184905273ffffffffffffffffffffffffffffffffffffffff8716917f47e1336b6fdb5f42c3a1d28b558fa98786d820c3705d726358dcc8e63a401eef910160405180910390a250505050505050565b7f079847024f21c1f5f8d88daf6764f03ddd70ce4acc6aa7104a85233fe5a7699561165981611c10565b815f03610a1e576040517f1f2a200500000000000000000000000000000000000000000000000000000000815260040160405180910390fd5b7f079847024f21c1f5f8d88daf6764f03ddd70ce4acc6aa7104a85233fe5a769956116bc81611c10565b34801580156116c9575082155b15611700576040517f1f2a200500000000000000000000000000000000000000000000000000000000815260040160405180910390fd5b5f8115611843576040517fa1903eab0000000000000000000000000000000000000000000000000000000081525f60048201527f000000000000000000000000000000000000000000000000000000000000000073ffffffffffffffffffffffffffffffffffffffff169063a1903eab90849060240160206040518083038185885af1935050505080156117cf575060408051601f3d9081017fffffffffffffffffffffffffffffffffffffffffffffffffffffffffffffffe01682019092526117cc91810190611e54565b60015b611805576040517f90b8ec1800000000000000000000000000000000000000000000000000000000815260040160405180910390fd5b809150815f03611841576040517f90b8ec1800000000000000000000000000000000000000000000000000000000815260040160405180910390fd5b505b5f61184e858361206a565b90507f206d5f22994381488f76c20f193ebf898daf960461a61d40e68e1641f62d8c5d8160405161188191815260200190565b60405180910390a15050505050565b5f828152602081905260409020600101546118aa81611c10565b6108918383611d16565b6001545f908082036118e857507fffffffffffffffffffffffffffffffffffffffffffffffffffffffffffffffff92915050565b6040517f70a082310000000000000000000000000000000000000000000000000000000081523060048201525f907f000000000000000000000000000000000000000000000000000000000000000073ffffffffffffffffffffffffffffffffffffffff16906370a0823190602401602060405180830381865afa158015611972573d5f803e3d5ffd5b505050506040513d601f19601f820116820180604052508101906119969190611e54565b9050805f036119a857505f9392505050565b5f846020015160ff16600a6119bd9190612397565b85516119c99084612227565b6119d3919061223e565b90505f7f000000000000000000000000000000000000000000000000000000000000000073ffffffffffffffffffffffffffffffffffffffff1663efa7fa5d6040518163ffffffff1660e01b8152600401602060405180830381865afa158015611a3f573d5f803e3d5ffd5b505050506040513d601f19601f82011682018060405250810190611a639190611e54565b90505f7f000000000000000000000000000000000000000000000000000000000000000073ffffffffffffffffffffffffffffffffffffffff1663a42c69a96040518163ffffffff1660e01b8152600401602060405180830381865afa158015611acf573d5f803e3d5ffd5b505050506040513d601f19601f82011682018060405250810190611af39190611e54565b611afd8387612227565b611b07919061223e565b9050805f03611b3c57507fffffffffffffffffffffffffffffffffffffffffffffffffffffffffffffffff9695505050505050565b80611b48846064612227565b611b52919061223e565b979650505050505050565b6040517f70a082310000000000000000000000000000000000000000000000000000000081523060048201525f907f000000000000000000000000000000000000000000000000000000000000000073ffffffffffffffffffffffffffffffffffffffff16906370a0823190602401602060405180830381865afa158015611be7573d5f803e3d5ffd5b505050506040513d601f19601f82011682018060405250810190611c0b9190611e54565b905090565b611c1a8133611dcf565b50565b5f8281526020818152604080832073ffffffffffffffffffffffffffffffffffffffff8516845290915281205460ff16611d0f575f8381526020818152604080832073ffffffffffffffffffffffffffffffffffffffff86168452909152902080547fffffffffffffffffffffffffffffffffffffffffffffffffffffffffffffff00166001179055611cad3390565b73ffffffffffffffffffffffffffffffffffffffff168273ffffffffffffffffffffffffffffffffffffffff16847f2f8788117e7eff1d82e926ec794901d17c78024a50270940304540a733656f0d60405160405180910390a4506001610777565b505f610777565b5f8281526020818152604080832073ffffffffffffffffffffffffffffffffffffffff8516845290915281205460ff1615611d0f575f8381526020818152604080832073ffffffffffffffffffffffffffffffffffffffff8616808552925280832080547fffffffffffffffffffffffffffffffffffffffffffffffffffffffffffffff0016905551339286917ff6391f5c32d9c69d2a47ea670b442974b53935d1edc7fd64eb21e047a839171b9190a4506001610777565b5f8281526020818152604080832073ffffffffffffffffffffffffffffffffffffffff8516845290915290205460ff16610869576040517fe2517d3f00000000000000000000000000000000000000000000000000000000815273ffffffffffffffffffffffffffffffffffffffff8216600482015260248101839052604401610cb7565b5f60208284031215611e64575f80fd5b5051919050565b5f60208284031215611e7b575f80fd5b81357fffffffff0000000000000000000000000000000000000000000000000000000081168114611eaa575f80fd5b9392505050565b5f60208284031215611ec1575f80fd5b5035919050565b73ffffffffffffffffffffffffffffffffffffffff81168114611c1a575f80fd5b5f8060408385031215611efa575f80fd5b823591506020830135611f0c81611ec8565b809150509250929050565b5f805f60608486031215611f29575f80fd5b8335611f3481611ec8565b925060208401359150604084013567ffffffffffffffff811115611f56575f80fd5b840160a08187031215611f67575f80fd5b809150509250925092565b5f805f60608486031215611f84575f80fd5b83359250602084013591506040840135611f6781611ec8565b6040516060810167ffffffffffffffff81118282101715611fe5577f4e487b71000000000000000000000000000000000000000000000000000000005f52604160045260245ffd5b60405290565b60ff81168114611c1a575f80fd5b5f606082840312801561200a575f80fd5b50612013611f9d565b82358152602083013561202581611feb565b60208201526040928301359281019290925250919050565b7f4e487b71000000000000000000000000000000000000000000000000000000005f52601160045260245ffd5b808201808211156107775761077761203d565b5f7f800000000000000000000000000000000000000000000000000000000000000082036120ad576120ad61203d565b505f0390565b818103818111156107775761077761203d565b5f602082840312156120d6575f80fd5b81518015158114611eaa575f80fd5b81835281816020850137505f602082840101525f60207fffffffffffffffffffffffffffffffffffffffffffffffffffffffffffffffe0601f840116840101905092915050565b60208082528235828201525f9083013561214581611feb565b60ff16604083810191909152830135606080840191909152830135608080840191909152830135368490037fffffffffffffffffffffffffffffffffffffffffffffffffffffffffffffffe101811261219c575f80fd5b830160208101903567ffffffffffffffff8111156121b8575f80fd5b8036038213156121c6575f80fd5b60a0808501526121da60c0850182846120e5565b95945050505050565b5f60608284031280156121f4575f80fd5b506121fd611f9d565b82518152602083015161220f81611feb565b60208201526040928301519281019290925250919050565b80820281158282048414176107775761077761203d565b5f82612271577f4e487b71000000000000000000000000000000000000000000000000000000005f52601260045260245ffd5b500490565b6001815b60018411156122b1578085048111156122955761229561203d565b60018416156122a357908102905b60019390931c92800261227a565b935093915050565b5f826122c757506001610777565b816122d357505f610777565b81600181146122e957600281146122f35761230f565b6001915050610777565b60ff8411156123045761230461203d565b50506001821b610777565b5060208310610133831016604e8410600b8410161715612332575081810a610777565b61235d7fffffffffffffffffffffffffffffffffffffffffffffffffffffffffffffffff8484612276565b807fffffffffffffffffffffffffffffffffffffffffffffffffffffffffffffffff0482111561238f5761238f61203d565b029392505050565b5f611eaa83836122b956fea2646970667358221220e28630c0db7fc368cff871e220cab878fdb779c361a51c52ca9d3208ea89cdaa64736f6c634300081a00334142434445464748494a4b4c4d4e4f505152535455565758595a6162636465666768696a6b6c6d6e6f707172737475767778797a303132333435363738392b2fa26469706673582212203ac0acd07fec3242f3d760c5db3b22327b92bf0f82fd82a1aeb4bb2e194bdee264736f6c634300081a0033","linkReferences":{}},"methodIdentifiers":{"DEFAULT_ADMIN_ROLE()":"a217fddf","MINTER_ROLE()":"d5391393","MIN_GAS()":"20d2c951","addUnallocatedFundsEth(uint256)":"f399beb7","addUnallocatedFundsStETH(uint256,uint256)":"bb566297","allocateStabilizerFunds(uint256,uint256,uint256)":"080a8961","approve(address,uint256)":"095ea7b3","balanceOf(address)":"70a08231","getApproved(uint256)":"081812fc","getMinCollateralRatio(uint256)":"bb310a80","getRoleAdmin(bytes32)":"248a9ca3","grantRole(bytes32,address)":"2f2ff15d","hasRole(bytes32,address)":"91d14854","highestAllocatedId()":"d743fd1e","highestUnallocatedId()":"92133362","initialize(address,address,address,address,address)":"1459457a","isApprovedForAll(address,address)":"e985e9c5","lido()":"23509a2d","lowestAllocatedId()":"2995bc50","lowestUnallocatedId()":"853cad06","mint(address,uint256)":"40c10f19","name()":"06fdde03","ownerOf(uint256)":"6352211e","positionEscrows(uint256)":"a04ad512","positions(uint256)":"99fbab88","rateContract()":"eee24219","removeUnallocatedFunds(uint256,uint256,address)":"21aebacb","renounceRole(bytes32,address)":"36568abe","revokeRole(bytes32,address)":"d547741f","safeTransferFrom(address,address,uint256)":"42842e0e","safeTransferFrom(address,address,uint256,bytes)":"b88d4fde","setApprovalForAll(address,bool)":"a22cb465","setMinCollateralizationRatio(uint256,uint256)":"01aa0b1a","stETH()":"c1fe3e48","stabilizerEscrows(uint256)":"bba6fd6f","supportsInterface(bytes4)":"01ffc9a7","symbol()":"95d89b41","tokenByIndex(uint256)":"4f6ccce7","tokenOfOwnerByIndex(address,uint256)":"2f745c59","tokenURI(uint256)":"c87b56dd","totalSupply()":"18160ddd","transferFrom(address,address,uint256)":"23b872dd","unallocateStabilizerFunds(uint256,(uint256,uint8,uint256))":"ff70fa64","uspdToken()":"4d0c810b"},"storageLayout":{"storage":[{"astId":52474,"contract":"src/StabilizerNFT.sol:StabilizerNFT","label":"positions","offset":0,"slot":"0","type":"t_mapping(t_uint256,t_struct(StabilizerPosition)52469_storage)"},{"astId":52476,"contract":"src/StabilizerNFT.sol:StabilizerNFT","label":"lowestUnallocatedId","offset":0,"slot":"1","type":"t_uint256"},{"astId":52478,"contract":"src/StabilizerNFT.sol:StabilizerNFT","label":"highestUnallocatedId","offset":0,"slot":"2","type":"t_uint256"},{"astId":52480,"contract":"src/StabilizerNFT.sol:StabilizerNFT","label":"lowestAllocatedId","offset":0,"slot":"3","type":"t_uint256"},{"astId":52482,"contract":"src/StabilizerNFT.sol:StabilizerNFT","label":"highestAllocatedId","offset":0,"slot":"4","type":"t_uint256"},{"astId":52485,"contract":"src/StabilizerNFT.sol:StabilizerNFT","label":"uspdToken","offset":0,"slot":"5","type":"t_contract(USPDToken)55347"},{"astId":52487,"contract":"src/StabilizerNFT.sol:StabilizerNFT","label":"stETH","offset":0,"slot":"6","type":"t_address"},{"astId":52489,"contract":"src/StabilizerNFT.sol:StabilizerNFT","label":"lido","offset":0,"slot":"7","type":"t_address"},{"astId":52492,"contract":"src/StabilizerNFT.sol:StabilizerNFT","label":"rateContract","offset":0,"slot":"8","type":"t_contract(IPoolSharesConversionRate)55388"},{"astId":52496,"contract":"src/StabilizerNFT.sol:StabilizerNFT","label":"stabilizerEscrows","offset":0,"slot":"9","type":"t_mapping(t_uint256,t_address)"},{"astId":52500,"contract":"src/StabilizerNFT.sol:StabilizerNFT","label":"positionEscrows","offset":0,"slot":"10","type":"t_mapping(t_uint256,t_address)"}],"types":{"t_address":{"encoding":"inplace","label":"address","numberOfBytes":"20"},"t_contract(IPoolSharesConversionRate)55388":{"encoding":"inplace","label":"contract IPoolSharesConversionRate","numberOfBytes":"20"},"t_contract(USPDToken)55347":{"encoding":"inplace","label":"contract USPDToken","numberOfBytes":"20"},"t_mapping(t_uint256,t_address)":{"encoding":"mapping","key":"t_uint256","label":"mapping(uint256 => address)","numberOfBytes":"32","value":"t_address"},"t_mapping(t_uint256,t_struct(StabilizerPosition)52469_storage)":{"encoding":"mapping","key":"t_uint256","label":"mapping(uint256 => struct StabilizerNFT.StabilizerPosition)","numberOfBytes":"32","value":"t_struct(StabilizerPosition)52469_storage"},"t_struct(StabilizerPosition)52469_storage":{"encoding":"inplace","label":"struct StabilizerNFT.StabilizerPosition","numberOfBytes":"192","members":[{"astId":52458,"contract":"src/StabilizerNFT.sol:StabilizerNFT","label":"totalEth","offset":0,"slot":"0","type":"t_uint256"},{"astId":52460,"contract":"src/StabilizerNFT.sol:StabilizerNFT","label":"minCollateralRatio","offset":0,"slot":"1","type":"t_uint256"},{"astId":52462,"contract":"src/StabilizerNFT.sol:StabilizerNFT","label":"prevUnallocated","offset":0,"slot":"2","type":"t_uint256"},{"astId":52464,"contract":"src/StabilizerNFT.sol:StabilizerNFT","label":"nextUnallocated","offset":0,"slot":"3","type":"t_uint256"},{"astId":52466,"contract":"src/StabilizerNFT.sol:StabilizerNFT","label":"prevAllocated","offset":0,"slot":"4","type":"t_uint256"},{"astId":52468,"contract":"src/StabilizerNFT.sol:StabilizerNFT","label":"nextAllocated","offset":0,"slot":"5","type":"t_uint256"}]},"t_uint256":{"encoding":"inplace","label":"uint256","numberOfBytes":"32"}}},"id":71}