{"abi":[{"type":"constructor","inputs":[],"stateMutability":"nonpayable"},{"type":"receive","stateMutability":"payable"},{"type":"function","name":"DEFAULT_ADMIN_ROLE","inputs":[],"outputs":[{"name":"","type":"bytes32","internalType":"bytes32"}],"stateMutability":"view"},{"type":"function","name":"FACTOR_PRECISION","inputs":[],"outputs":[{"name":"","type":"uint256","internalType":"uint256"}],"stateMutability":"view"},{"type":"function","name":"MINTER_ROLE","inputs":[],"outputs":[{"name":"","type":"bytes32","internalType":"bytes32"}],"stateMutability":"view"},{"type":"function","name":"MIN_GAS","inputs":[],"outputs":[{"name":"","type":"uint256","internalType":"uint256"}],"stateMutability":"view"},{"type":"function","name":"POSITION_ESCROW_ROLE","inputs":[],"outputs":[{"name":"","type":"bytes32","internalType":"bytes32"}],"stateMutability":"view"},{"type":"function","name":"addUnallocatedFundsEth","inputs":[{"name":"tokenId","type":"uint256","internalType":"uint256"}],"outputs":[],"stateMutability":"payable"},{"type":"function","name":"addUnallocatedFundsStETH","inputs":[{"name":"tokenId","type":"uint256","internalType":"uint256"},{"name":"stETHAmount","type":"uint256","internalType":"uint256"}],"outputs":[],"stateMutability":"nonpayable"},{"type":"function","name":"allocateStabilizerFunds","inputs":[{"name":"ethUsdPrice","type":"uint256","internalType":"uint256"},{"name":"priceDecimals","type":"uint256","internalType":"uint256"}],"outputs":[{"name":"result","type":"tuple","internalType":"struct IStabilizerNFT.AllocationResult","components":[{"name":"allocatedEth","type":"uint256","internalType":"uint256"},{"name":"totalEthEquivalentAdded","type":"uint256","internalType":"uint256"}]}],"stateMutability":"payable"},{"type":"function","name":"approve","inputs":[{"name":"to","type":"address","internalType":"address"},{"name":"tokenId","type":"uint256","internalType":"uint256"}],"outputs":[],"stateMutability":"nonpayable"},{"type":"function","name":"balanceOf","inputs":[{"name":"owner","type":"address","internalType":"address"}],"outputs":[{"name":"","type":"uint256","internalType":"uint256"}],"stateMutability":"view"},{"type":"function","name":"cuspdToken","inputs":[],"outputs":[{"name":"","type":"address","internalType":"contract IcUSPDToken"}],"stateMutability":"view"},{"type":"function","name":"getApproved","inputs":[{"name":"tokenId","type":"uint256","internalType":"uint256"}],"outputs":[{"name":"","type":"address","internalType":"address"}],"stateMutability":"view"},{"type":"function","name":"getMinCollateralRatio","inputs":[{"name":"tokenId","type":"uint256","internalType":"uint256"}],"outputs":[{"name":"","type":"uint256","internalType":"uint256"}],"stateMutability":"view"},{"type":"function","name":"getRoleAdmin","inputs":[{"name":"role","type":"bytes32","internalType":"bytes32"}],"outputs":[{"name":"","type":"bytes32","internalType":"bytes32"}],"stateMutability":"view"},{"type":"function","name":"getSystemCollateralizationRatio","inputs":[{"name":"priceResponse","type":"tuple","internalType":"struct IPriceOracle.PriceResponse","components":[{"name":"price","type":"uint256","internalType":"uint256"},{"name":"decimals","type":"uint8","internalType":"uint8"},{"name":"timestamp","type":"uint256","internalType":"uint256"}]}],"outputs":[{"name":"ratio","type":"uint256","internalType":"uint256"}],"stateMutability":"view"},{"type":"function","name":"grantRole","inputs":[{"name":"role","type":"bytes32","internalType":"bytes32"},{"name":"account","type":"address","internalType":"address"}],"outputs":[],"stateMutability":"nonpayable"},{"type":"function","name":"hasRole","inputs":[{"name":"role","type":"bytes32","internalType":"bytes32"},{"name":"account","type":"address","internalType":"address"}],"outputs":[{"name":"","type":"bool","internalType":"bool"}],"stateMutability":"view"},{"type":"function","name":"highestAllocatedId","inputs":[],"outputs":[{"name":"","type":"uint256","internalType":"uint256"}],"stateMutability":"view"},{"type":"function","name":"highestUnallocatedId","inputs":[],"outputs":[{"name":"","type":"uint256","internalType":"uint256"}],"stateMutability":"view"},{"type":"function","name":"initialize","inputs":[{"name":"_cuspdToken","type":"address","internalType":"address"},{"name":"_stETH","type":"address","internalType":"address"},{"name":"_lido","type":"address","internalType":"address"},{"name":"_rateContract","type":"address","internalType":"address"},{"name":"_admin","type":"address","internalType":"address"}],"outputs":[],"stateMutability":"nonpayable"},{"type":"function","name":"isApprovedForAll","inputs":[{"name":"owner","type":"address","internalType":"address"},{"name":"operator","type":"address","internalType":"address"}],"outputs":[{"name":"","type":"bool","internalType":"bool"}],"stateMutability":"view"},{"type":"function","name":"lido","inputs":[],"outputs":[{"name":"","type":"address","internalType":"address"}],"stateMutability":"view"},{"type":"function","name":"lowestAllocatedId","inputs":[],"outputs":[{"name":"","type":"uint256","internalType":"uint256"}],"stateMutability":"view"},{"type":"function","name":"lowestUnallocatedId","inputs":[],"outputs":[{"name":"","type":"uint256","internalType":"uint256"}],"stateMutability":"view"},{"type":"function","name":"mint","inputs":[{"name":"to","type":"address","internalType":"address"},{"name":"tokenId","type":"uint256","internalType":"uint256"}],"outputs":[],"stateMutability":"nonpayable"},{"type":"function","name":"name","inputs":[],"outputs":[{"name":"","type":"string","internalType":"string"}],"stateMutability":"view"},{"type":"function","name":"ownerOf","inputs":[{"name":"tokenId","type":"uint256","internalType":"uint256"}],"outputs":[{"name":"","type":"address","internalType":"address"}],"stateMutability":"view"},{"type":"function","name":"positionEscrows","inputs":[{"name":"","type":"uint256","internalType":"uint256"}],"outputs":[{"name":"","type":"address","internalType":"address"}],"stateMutability":"view"},{"type":"function","name":"positions","inputs":[{"name":"","type":"uint256","internalType":"uint256"}],"outputs":[{"name":"minCollateralRatio","type":"uint256","internalType":"uint256"},{"name":"prevUnallocated","type":"uint256","internalType":"uint256"},{"name":"nextUnallocated","type":"uint256","internalType":"uint256"},{"name":"prevAllocated","type":"uint256","internalType":"uint256"},{"name":"nextAllocated","type":"uint256","internalType":"uint256"}],"stateMutability":"view"},{"type":"function","name":"rateContract","inputs":[],"outputs":[{"name":"","type":"address","internalType":"contract IPoolSharesConversionRate"}],"stateMutability":"view"},{"type":"function","name":"renounceRole","inputs":[{"name":"role","type":"bytes32","internalType":"bytes32"},{"name":"callerConfirmation","type":"address","internalType":"address"}],"outputs":[],"stateMutability":"nonpayable"},{"type":"function","name":"reportCollateralAddition","inputs":[{"name":"stEthAmount","type":"uint256","internalType":"uint256"}],"outputs":[],"stateMutability":"nonpayable"},{"type":"function","name":"reportCollateralRemoval","inputs":[{"name":"stEthAmount","type":"uint256","internalType":"uint256"}],"outputs":[],"stateMutability":"nonpayable"},{"type":"function","name":"resetCollateralSnapshot","inputs":[{"name":"actualTotalEthEquivalent","type":"uint256","internalType":"uint256"}],"outputs":[],"stateMutability":"nonpayable"},{"type":"function","name":"revokeRole","inputs":[{"name":"role","type":"bytes32","internalType":"bytes32"},{"name":"account","type":"address","internalType":"address"}],"outputs":[],"stateMutability":"nonpayable"},{"type":"function","name":"safeTransferFrom","inputs":[{"name":"from","type":"address","internalType":"address"},{"name":"to","type":"address","internalType":"address"},{"name":"tokenId","type":"uint256","internalType":"uint256"}],"outputs":[],"stateMutability":"nonpayable"},{"type":"function","name":"safeTransferFrom","inputs":[{"name":"from","type":"address","internalType":"address"},{"name":"to","type":"address","internalType":"address"},{"name":"tokenId","type":"uint256","internalType":"uint256"},{"name":"data","type":"bytes","internalType":"bytes"}],"outputs":[],"stateMutability":"nonpayable"},{"type":"function","name":"setApprovalForAll","inputs":[{"name":"operator","type":"address","internalType":"address"},{"name":"approved","type":"bool","internalType":"bool"}],"outputs":[],"stateMutability":"nonpayable"},{"type":"function","name":"setMinCollateralizationRatio","inputs":[{"name":"tokenId","type":"uint256","internalType":"uint256"},{"name":"newRatio","type":"uint256","internalType":"uint256"}],"outputs":[],"stateMutability":"nonpayable"},{"type":"function","name":"stETH","inputs":[],"outputs":[{"name":"","type":"address","internalType":"address"}],"stateMutability":"view"},{"type":"function","name":"stabilizerEscrows","inputs":[{"name":"","type":"uint256","internalType":"uint256"}],"outputs":[{"name":"","type":"address","internalType":"address"}],"stateMutability":"view"},{"type":"function","name":"supportsInterface","inputs":[{"name":"interfaceId","type":"bytes4","internalType":"bytes4"}],"outputs":[{"name":"","type":"bool","internalType":"bool"}],"stateMutability":"view"},{"type":"function","name":"symbol","inputs":[],"outputs":[{"name":"","type":"string","internalType":"string"}],"stateMutability":"view"},{"type":"function","name":"tokenByIndex","inputs":[{"name":"index","type":"uint256","internalType":"uint256"}],"outputs":[{"name":"","type":"uint256","internalType":"uint256"}],"stateMutability":"view"},{"type":"function","name":"tokenOfOwnerByIndex","inputs":[{"name":"owner","type":"address","internalType":"address"},{"name":"index","type":"uint256","internalType":"uint256"}],"outputs":[{"name":"","type":"uint256","internalType":"uint256"}],"stateMutability":"view"},{"type":"function","name":"tokenURI","inputs":[{"name":"tokenId","type":"uint256","internalType":"uint256"}],"outputs":[{"name":"","type":"string","internalType":"string"}],"stateMutability":"view"},{"type":"function","name":"totalEthEquivalentAtLastSnapshot","inputs":[],"outputs":[{"name":"","type":"uint256","internalType":"uint256"}],"stateMutability":"view"},{"type":"function","name":"totalSupply","inputs":[],"outputs":[{"name":"","type":"uint256","internalType":"uint256"}],"stateMutability":"view"},{"type":"function","name":"transferFrom","inputs":[{"name":"from","type":"address","internalType":"address"},{"name":"to","type":"address","internalType":"address"},{"name":"tokenId","type":"uint256","internalType":"uint256"}],"outputs":[],"stateMutability":"nonpayable"},{"type":"function","name":"unallocateStabilizerFunds","inputs":[{"name":"poolSharesToUnallocate","type":"uint256","internalType":"uint256"},{"name":"priceResponse","type":"tuple","internalType":"struct IPriceOracle.PriceResponse","components":[{"name":"price","type":"uint256","internalType":"uint256"},{"name":"decimals","type":"uint8","internalType":"uint8"},{"name":"timestamp","type":"uint256","internalType":"uint256"}]}],"outputs":[{"name":"unallocatedEth","type":"uint256","internalType":"uint256"}],"stateMutability":"nonpayable"},{"type":"function","name":"yieldFactorAtLastSnapshot","inputs":[],"outputs":[{"name":"","type":"uint256","internalType":"uint256"}],"stateMutability":"view"},{"type":"event","name":"Approval","inputs":[{"name":"owner","type":"address","indexed":true,"internalType":"address"},{"name":"approved","type":"address","indexed":true,"internalType":"address"},{"name":"tokenId","type":"uint256","indexed":true,"internalType":"uint256"}],"anonymous":false},{"type":"event","name":"ApprovalForAll","inputs":[{"name":"owner","type":"address","indexed":true,"internalType":"address"},{"name":"operator","type":"address","indexed":true,"internalType":"address"},{"name":"approved","type":"bool","indexed":false,"internalType":"bool"}],"anonymous":false},{"type":"event","name":"FundsAllocated","inputs":[{"name":"tokenId","type":"uint256","indexed":true,"internalType":"uint256"},{"name":"stabilizersAmount","type":"uint256","indexed":false,"internalType":"uint256"},{"name":"usersAmount","type":"uint256","indexed":false,"internalType":"uint256"}],"anonymous":false},{"type":"event","name":"FundsUnallocated","inputs":[{"name":"tokenId","type":"uint256","indexed":true,"internalType":"uint256"},{"name":"userStEthAmount","type":"uint256","indexed":false,"internalType":"uint256"},{"name":"stabilizerStEthAmount","type":"uint256","indexed":false,"internalType":"uint256"}],"anonymous":false},{"type":"event","name":"Initialized","inputs":[{"name":"version","type":"uint64","indexed":false,"internalType":"uint64"}],"anonymous":false},{"type":"event","name":"MinCollateralRatioUpdated","inputs":[{"name":"tokenId","type":"uint256","indexed":true,"internalType":"uint256"},{"name":"oldRatio","type":"uint256","indexed":false,"internalType":"uint256"},{"name":"newRatio","type":"uint256","indexed":false,"internalType":"uint256"}],"anonymous":false},{"type":"event","name":"RoleAdminChanged","inputs":[{"name":"role","type":"bytes32","indexed":true,"internalType":"bytes32"},{"name":"previousAdminRole","type":"bytes32","indexed":true,"internalType":"bytes32"},{"name":"newAdminRole","type":"bytes32","indexed":true,"internalType":"bytes32"}],"anonymous":false},{"type":"event","name":"RoleGranted","inputs":[{"name":"role","type":"bytes32","indexed":true,"internalType":"bytes32"},{"name":"account","type":"address","indexed":true,"internalType":"address"},{"name":"sender","type":"address","indexed":true,"internalType":"address"}],"anonymous":false},{"type":"event","name":"RoleRevoked","inputs":[{"name":"role","type":"bytes32","indexed":true,"internalType":"bytes32"},{"name":"account","type":"address","indexed":true,"internalType":"address"},{"name":"sender","type":"address","indexed":true,"internalType":"address"}],"anonymous":false},{"type":"event","name":"StabilizerPositionCreated","inputs":[{"name":"tokenId","type":"uint256","indexed":true,"internalType":"uint256"},{"name":"owner","type":"address","indexed":true,"internalType":"address"}],"anonymous":false},{"type":"event","name":"Transfer","inputs":[{"name":"from","type":"address","indexed":true,"internalType":"address"},{"name":"to","type":"address","indexed":true,"internalType":"address"},{"name":"tokenId","type":"uint256","indexed":true,"internalType":"uint256"}],"anonymous":false},{"type":"event","name":"UnallocatedFundsAdded","inputs":[{"name":"tokenId","type":"uint256","indexed":true,"internalType":"uint256"},{"name":"asset","type":"address","indexed":false,"internalType":"address"},{"name":"amount","type":"uint256","indexed":false,"internalType":"uint256"}],"anonymous":false},{"type":"error","name":"AccessControlBadConfirmation","inputs":[]},{"type":"error","name":"AccessControlUnauthorizedAccount","inputs":[{"name":"account","type":"address","internalType":"address"},{"name":"neededRole","type":"bytes32","internalType":"bytes32"}]},{"type":"error","name":"ERC721EnumerableForbiddenBatchMint","inputs":[]},{"type":"error","name":"ERC721IncorrectOwner","inputs":[{"name":"sender","type":"address","internalType":"address"},{"name":"tokenId","type":"uint256","internalType":"uint256"},{"name":"owner","type":"address","internalType":"address"}]},{"type":"error","name":"ERC721InsufficientApproval","inputs":[{"name":"operator","type":"address","internalType":"address"},{"name":"tokenId","type":"uint256","internalType":"uint256"}]},{"type":"error","name":"ERC721InvalidApprover","inputs":[{"name":"approver","type":"address","internalType":"address"}]},{"type":"error","name":"ERC721InvalidOperator","inputs":[{"name":"operator","type":"address","internalType":"address"}]},{"type":"error","name":"ERC721InvalidOwner","inputs":[{"name":"owner","type":"address","internalType":"address"}]},{"type":"error","name":"ERC721InvalidReceiver","inputs":[{"name":"receiver","type":"address","internalType":"address"}]},{"type":"error","name":"ERC721InvalidSender","inputs":[{"name":"sender","type":"address","internalType":"address"}]},{"type":"error","name":"ERC721NonexistentToken","inputs":[{"name":"tokenId","type":"uint256","internalType":"uint256"}]},{"type":"error","name":"ERC721OutOfBoundsIndex","inputs":[{"name":"owner","type":"address","internalType":"address"},{"name":"index","type":"uint256","internalType":"uint256"}]},{"type":"error","name":"InvalidInitialization","inputs":[]},{"type":"error","name":"NotInitializing","inputs":[]}],"bytecode":{"object":"0x6080604052348015600e575f80fd5b5060156019565b60c9565b7ff0c57e16840df040f15088dc2f81fe391c3923bec73e23a9662efc9c229c6a00805468010000000000000000900460ff161560685760405163f92ee8a960e01b815260040160405180910390fd5b80546001600160401b039081161460c65780546001600160401b0319166001600160401b0390811782556040519081527fc7f505b2f371ae2175ee4913f4499e1f2633a7b5936321eed1cdaeb6115181d29060200160405180910390a15b50565b619241806100d65f395ff3fe608060405260043610610327575f3560e01c8063853cad06116101a7578063bb566297116100e7578063d743fd1e11610092578063eee242191161006d578063eee2421914610a4b578063f399beb714610a6a578063ff70fa6414610a7d578063ffb618d414610a9c575f80fd5b8063d743fd1e146109b1578063e0bb8809146109c6578063e985e9c5146109e5575f80fd5b8063c87b56dd116100c2578063c87b56dd14610940578063d53913931461095f578063d547741f14610992575f80fd5b8063bb566297146108ce578063bba6fd6f146108ed578063c1fe3e4814610921575f80fd5b8063a04ad51211610152578063a42c69a91161012d578063a42c69a914610856578063b367380714610871578063b88d4fde14610890578063bb310a80146108af575f80fd5b8063a04ad512146107f0578063a217fddf14610824578063a22cb46514610837575f80fd5b80639213336211610182578063921333621461075757806395d89b411461076c57806399fbab8814610780575f80fd5b8063853cad06146106ac5780638d7cac7b146106c157806391d14854146106f4575f80fd5b80632995bc501161027257806342842e0e1161021d5780636352211e116101f85780636352211e1461063057806367bff4a81461064f5780636bc05b7e1461066e57806370a082311461068d575f80fd5b806342842e0e146105c4578063451fda68146105e35780634f6ccce714610611575f80fd5b806336568abe1161024d57806336568abe14610567578063391120581461058657806340c10f19146105a5575f80fd5b80632995bc50146105145780632f2ff15d146105295780632f745c5914610548575f80fd5b80631459457a116102d257806323509a2d116102ad57806323509a2d1461048957806323b872dd146104a8578063248a9ca3146104c7575f80fd5b80631459457a1461042157806318160ddd1461044057806320d2c95114610473575f80fd5b806307c548de1161030257806307c548de146103a8578063081812fc146103cb578063095ea7b314610402575f80fd5b806301aa0b1a1461033257806301ffc9a71461035357806306fdde0314610387575f80fd5b3661032e57005b5f80fd5b34801561033d575f80fd5b5061035161034c366004614d7d565b610ab1565b005b34801561035e575f80fd5b5061037261036d366004614dca565b610c0f565b60405190151581526020015b60405180910390f35b348015610392575f80fd5b5061039b610c1f565b60405161037e9190614e31565b3480156103b3575f80fd5b506103bd600c5481565b60405190815260200161037e565b3480156103d6575f80fd5b506103ea6103e5366004614e43565b610cd3565b6040516001600160a01b03909116815260200161037e565b34801561040d575f80fd5b5061035161041c366004614e6e565b610d19565b34801561042c575f80fd5b5061035161043b366004614e98565b610d28565b34801561044b575f80fd5b507f645e039705490088daad89bae25049a34f4a9072d398537b1ab2425f24cbed02546103bd565b34801561047e575f80fd5b506103bd620186a081565b348015610494575f80fd5b506007546103ea906001600160a01b031681565b3480156104b3575f80fd5b506103516104c2366004614f05565b610f8d565b3480156104d2575f80fd5b506103bd6104e1366004614e43565b5f9081527f02dd7bc7dec4dceedda775e58dd541e08a116c6c53815c0bd028192f7b626800602052604090206001015490565b34801561051f575f80fd5b506103bd60035481565b348015610534575f80fd5b50610351610543366004614f43565b611048565b348015610553575f80fd5b506103bd610562366004614e6e565b61108b565b348015610572575f80fd5b50610351610581366004614f43565b611128565b348015610591575f80fd5b506103516105a0366004614e43565b611179565b3480156105b0575f80fd5b506103516105bf366004614e6e565b6112b5565b3480156105cf575f80fd5b506103516105de366004614f05565b611658565b6105f66105f1366004614d7d565b611672565b6040805182518152602092830151928101929092520161037e565b34801561061c575f80fd5b506103bd61062b366004614e43565b611e35565b34801561063b575f80fd5b506103ea61064a366004614e43565b611ee6565b34801561065a575f80fd5b50610351610669366004614e43565b611ef0565b348015610679575f80fd5b506005546103ea906001600160a01b031681565b348015610698575f80fd5b506103bd6106a7366004614f71565b612024565b3480156106b7575f80fd5b506103bd60015481565b3480156106cc575f80fd5b506103bd7f8c21e8ab0c92c4c41f2714adb63619371ca8ed5eb69a6fed79b7d52cdd9703ae81565b3480156106ff575f80fd5b5061037261070e366004614f43565b5f9182527f02dd7bc7dec4dceedda775e58dd541e08a116c6c53815c0bd028192f7b626800602090815260408084206001600160a01b0393909316845291905290205460ff1690565b348015610762575f80fd5b506103bd60025481565b348015610777575f80fd5b5061039b6120a8565b34801561078b575f80fd5b506107c861079a366004614e43565b5f60208190529081526040902080546001820154600283015460038401546004909401549293919290919085565b604080519586526020860194909452928401919091526060830152608082015260a00161037e565b3480156107fb575f80fd5b506103ea61080a366004614e43565b600a6020525f90815260409020546001600160a01b031681565b34801561082f575f80fd5b506103bd5f81565b348015610842575f80fd5b50610351610851366004614f99565b6120f9565b348015610861575f80fd5b506103bd670de0b6b3a764000081565b34801561087c575f80fd5b506103bd61088b3660046150a7565b612104565b34801561089b575f80fd5b506103516108aa3660046150c1565b612403565b3480156108ba575f80fd5b506103bd6108c9366004614e43565b61241b565b3480156108d9575f80fd5b506103516108e8366004614d7d565b61248e565b3480156108f8575f80fd5b506103ea610907366004614e43565b60096020525f90815260409020546001600160a01b031681565b34801561092c575f80fd5b506006546103ea906001600160a01b031681565b34801561094b575f80fd5b5061039b61095a366004614e43565b61268b565b34801561096a575f80fd5b506103bd7f9f2df0fed2c77648de5860a4cc508cd0818c85b8b8a1ab4ceeef8d981c8956a681565b34801561099d575f80fd5b506103516109ac366004614f43565b612774565b3480156109bc575f80fd5b506103bd60045481565b3480156109d1575f80fd5b506103516109e0366004614e43565b6127b7565b3480156109f0575f80fd5b506103726109ff3660046151a1565b6001600160a01b039182165f9081527f80bb2b638cc20bc4d0a60d66940f3ab4a00c1d7b313497ca82fb0b4ab00793056020908152604080832093909416825291909152205460ff1690565b348015610a56575f80fd5b506008546103ea906001600160a01b031681565b610351610a78366004614e43565b6128c8565b348015610a88575f80fd5b506103bd610a973660046151cd565b612a72565b348015610aa7575f80fd5b506103bd600b5481565b33610abb83611ee6565b6001600160a01b031614610b165760405162461bcd60e51b815260206004820152600f60248201527f4e6f7420746f6b656e206f776e6572000000000000000000000000000000000060448201526064015b60405180910390fd5b606e811015610b675760405162461bcd60e51b815260206004820152601b60248201527f526174696f206d757374206265206174206c65617374203131302500000000006044820152606401610b0d565b6103e8811115610bb95760405162461bcd60e51b815260206004820152601960248201527f526174696f2063616e6e6f7420657863656564203130303025000000000000006044820152606401610b0d565b5f8281526020818152604091829020805484825583518181529283018590529092909185917f3e82d134b4a0328de7223eb1ae194d98009405cb6b8dc9c3d6bd70eb3aeb5c94910160405180910390a250505050565b5f610c1982613140565b92915050565b7f80bb2b638cc20bc4d0a60d66940f3ab4a00c1d7b313497ca82fb0b4ab00793008054606091908190610c51906151f8565b80601f0160208091040260200160405190810160405280929190818152602001828054610c7d906151f8565b8015610cc85780601f10610c9f57610100808354040283529160200191610cc8565b820191905f5260205f20905b815481529060010190602001808311610cab57829003601f168201915b505050505091505090565b5f610cdd82613195565b505f8281527f80bb2b638cc20bc4d0a60d66940f3ab4a00c1d7b313497ca82fb0b4ab007930460205260409020546001600160a01b0316610c19565b610d24828233613205565b5050565b5f610d31613212565b805490915060ff68010000000000000000820416159067ffffffffffffffff165f81158015610d5d5750825b90505f8267ffffffffffffffff166001148015610d795750303b155b905081158015610d87575080155b15610dbe576040517ff92ee8a900000000000000000000000000000000000000000000000000000000815260040160405180910390fd5b84547fffffffffffffffffffffffffffffffffffffffffffffffff00000000000000001660011785558315610e1f5784547fffffffffffffffffffffffffffffffffffffffffffffff00ffffffffffffffff16680100000000000000001785555b610e936040518060400160405280600f81526020017f555350442053746162696c697a657200000000000000000000000000000000008152506040518060400160405280600581526020017f555350445300000000000000000000000000000000000000000000000000000081525061323a565b610e9b61324c565b610ea361324c565b610ead5f87613256565b50600580546001600160a01b03808d167fffffffffffffffffffffffff000000000000000000000000000000000000000092831617909255600680548c8416908316179055600780548b841690831617905560088054928a16929091169190911790555f600b55670de0b6b3a7640000600c558315610f815784547fffffffffffffffffffffffffffffffffffffffffffffff00ffffffffffffffff168555604051600181527fc7f505b2f371ae2175ee4913f4499e1f2633a7b5936321eed1cdaeb6115181d29060200160405180910390a15b50505050505050505050565b6001600160a01b038216610fcf576040517f64a0ae920000000000000000000000000000000000000000000000000000000081525f6004820152602401610b0d565b5f610fdb838333613340565b9050836001600160a01b0316816001600160a01b031614611042576040517f64283d7b0000000000000000000000000000000000000000000000000000000081526001600160a01b0380861660048301526024820184905282166044820152606401610b0d565b50505050565b5f8281527f02dd7bc7dec4dceedda775e58dd541e08a116c6c53815c0bd028192f7b626800602052604090206001015461108181613356565b6110428383613256565b5f7f645e039705490088daad89bae25049a34f4a9072d398537b1ab2425f24cbed006110b684612024565b8310611100576040517fa57d13dc0000000000000000000000000000000000000000000000000000000081526001600160a01b038516600482015260248101849052604401610b0d565b6001600160a01b0384165f908152602091825260408082208583529092522054905092915050565b6001600160a01b038116331461116a576040517f6697b23200000000000000000000000000000000000000000000000000000000815260040160405180910390fd5b6111748282613363565b505050565b7f8c21e8ab0c92c4c41f2714adb63619371ca8ed5eb69a6fed79b7d52cdd9703ae6111a381613356565b8115610d2457600854604080517fefa7fa5d00000000000000000000000000000000000000000000000000000000815290515f926001600160a01b03169163efa7fa5d9160048083019260209291908290030181865afa158015611209573d5f803e3d5ffd5b505050506040513d601f19601f8201168201806040525081019061122d9190615249565b90505f81116112a45760405162461bcd60e51b815260206004820152602660248201527f5969656c6420666163746f72207a65726f20647572696e67207265706f72742060448201527f72656d6f766500000000000000000000000000000000000000000000000000006064820152608401610b0d565b6111746112b08461528d565b613425565b7f9f2df0fed2c77648de5860a4cc508cd0818c85b8b8a1ab4ceeef8d981c8956a66112df81613356565b6040805160a081018252606e81525f602080830182815283850183815260608501848152608086018581528986529385905295909320935184555160018401559051600283015591516003820155905160049091015561133f8383613638565b6040516001600160a01b0384169083907f6474509949d7dca0e17a8cf02aeb66814967a3c7adbfefc212edb6e6693b6865905f90a36006546007546040515f92309287926001600160a01b03928316929091169061139c90614d63565b6001600160a01b039485168152928416602084015290831660408301529091166060820152608001604051809103905ff0801580156113dd573d5f803e3d5ffd5b5090506001600160a01b03811661145c5760405162461bcd60e51b815260206004820152602260248201527f53746162696c697a6572457363726f77206465706c6f796d656e74206661696c60448201527f65640000000000000000000000000000000000000000000000000000000000006064820152608401610b0d565b5f83815260096020908152604080832080547fffffffffffffffffffffffff0000000000000000000000000000000000000000166001600160a01b038681169190911790915560065460075460085460055485517f7dc0d1d0000000000000000000000000000000000000000000000000000000008152955130978d979587169694851695938516949290921692637dc0d1d09260048083019391928290030181865afa15801561150f573d5f803e3d5ffd5b505050506040513d601f19601f8201168201806040525081019061153391906152c3565b60405161153f90614d70565b6001600160a01b0396871681529486166020860152928516604085015290841660608401528316608083015290911660a082015260c001604051809103905ff08015801561158f573d5f803e3d5ffd5b5090506001600160a01b0381166115e85760405162461bcd60e51b815260206004820181905260248201527f506f736974696f6e457363726f77206465706c6f796d656e74206661696c65646044820152606401610b0d565b5f848152600a6020526040902080547fffffffffffffffffffffffff0000000000000000000000000000000000000000166001600160a01b0383161790556116507f8c21e8ab0c92c4c41f2714adb63619371ca8ed5eb69a6fed79b7d52cdd9703ae82613256565b505050505050565b61117483838360405180602001604052805f815250612403565b604080518082019091525f80825260208201526005546001600160a01b031633146116df5760405162461bcd60e51b815260206004820152601360248201527f4f6e6c7920635553504420636f6e7472616374000000000000000000000000006044820152606401610b0d565b6001545f036117305760405162461bcd60e51b815260206004820152601460248201527f4e6f20756e616c6c6f63617465642066756e64730000000000000000000000006044820152606401610b0d565b5f341161177f5760405162461bcd60e51b815260206004820152600b60248201527f4e6f204554482073656e740000000000000000000000000000000000000000006044820152606401610b0d565b6001545f8083526020830152345b811580159061179b57505f81115b15611dc857620186a05a10611dc8575f828152602081815260408083206009909252909120546001600160a01b0316806118175760405162461bcd60e51b815260206004820152601f60248201527f457363726f77206e6f7420666f756e6420666f722073746162696c697a6572006044820152606401610b0d565b5f816001600160a01b031663ec60b9ab6040518163ffffffff1660e01b8152600401602060405180830381865afa158015611854573d5f803e3d5ffd5b505050506040513d601f19601f820116820180604052508101906118789190615249565b9050801580611885575083155b1561189757505060020154915061178d565b5f846064855f0154876118aa91906152de565b6118b49190615322565b6118be9190615335565b90505f8282116118ce57816118d0565b825b9050858282101561190b5785546118e990606490615335565b6118f48360646152de565b6118fe9190615322565b90508681111561190b5750855b5f888152600a60205260409020546001600160a01b03168061196f5760405162461bcd60e51b815260206004820152601860248201527f506f736974696f6e457363726f77206e6f7420666f756e6400000000000000006044820152606401610b0d565b6040517f4f68ae75000000000000000000000000000000000000000000000000000000008152600481018490523060248201526001600160a01b03871690634f68ae75906044015f604051808303815f87803b1580156119cd575f80fd5b505af11580156119df573d5f803e3d5ffd5b50506006546040517f23b872dd0000000000000000000000000000000000000000000000000000000081526001600160a01b038a811660048301528581166024830152604482018890525f945090911691506323b872dd906064016020604051808303815f875af1158015611a56573d5f803e3d5ffd5b505050506040513d601f19601f82011682018060405250810190611a7a9190615348565b905080611aef5760405162461bcd60e51b815260206004820152603260248201527f53746162696c697a6572207374455448207472616e7366657220746f20506f7360448201527f6974696f6e457363726f77206661696c656400000000000000000000000000006064820152608401610b0d565b6040517fbf3fdde7000000000000000000000000000000000000000000000000000000008152600481018590526001600160a01b0383169063bf3fdde79085906024015f604051808303818588803b158015611b49575f80fd5b505af1158015611b5b573d5f803e3d5ffd5b50505050505f8c600a611b6e919061547c565b611b788f866152de565b611b829190615322565b90505f60085f9054906101000a90046001600160a01b03166001600160a01b031663efa7fa5d6040518163ffffffff1660e01b8152600401602060405180830381865afa158015611bd5573d5f803e3d5ffd5b505050506040513d601f19601f82011682018060405250810190611bf99190615249565b90505f8160085f9054906101000a90046001600160a01b03166001600160a01b031663a42c69a96040518163ffffffff1660e01b8152600401602060405180830381865afa158015611c4d573d5f803e3d5ffd5b505050506040513d601f19601f82011682018060405250810190611c719190615249565b611c7b90856152de565b611c859190615322565b6040517f0bfd07fc000000000000000000000000000000000000000000000000000000008152600481018290529091506001600160a01b03861690630bfd07fc906024015f604051808303815f87803b158015611ce0575f80fd5b505af1158015611cf2573d5f803e3d5ffd5b50505050858e5f01818151611d079190615487565b905250611d14868d615335565b6040805189815260208101899052919d508e917fc0a79f21f196b4ee5a242474a85cb9aa5fc2ce59ecc884d7271f1c2bd19b9a13910160405180910390a260038b0154158015611d66575060048b0154155b8015611d7457508c60035414155b15611d8257611d828d613651565b611d8c8787615487565b8e602001818151611d9d9190615487565b90525060028b0154898803611db557611db58e613730565b9c5061178d9a5050505050505050505050565b8251611e165760405162461bcd60e51b815260206004820152601260248201527f4e6f2066756e647320616c6c6f636174656400000000000000000000000000006044820152606401610b0d565b602083015115611e2d57611e2d8360200151613425565b505092915050565b5f7f645e039705490088daad89bae25049a34f4a9072d398537b1ab2425f24cbed00611e7f7f645e039705490088daad89bae25049a34f4a9072d398537b1ab2425f24cbed025490565b8310611ec0576040517fa57d13dc0000000000000000000000000000000000000000000000000000000081525f600482015260248101849052604401610b0d565b806002018381548110611ed557611ed561549a565b905f5260205f200154915050919050565b5f610c1982613195565b7f8c21e8ab0c92c4c41f2714adb63619371ca8ed5eb69a6fed79b7d52cdd9703ae611f1a81613356565b8115610d2457600854604080517fefa7fa5d00000000000000000000000000000000000000000000000000000000815290515f926001600160a01b03169163efa7fa5d9160048083019260209291908290030181865afa158015611f80573d5f803e3d5ffd5b505050506040513d601f19601f82011682018060405250810190611fa49190615249565b90505f811161201b5760405162461bcd60e51b815260206004820152602360248201527f5969656c6420666163746f72207a65726f20647572696e67207265706f72742060448201527f61646400000000000000000000000000000000000000000000000000000000006064820152608401610b0d565b61117483613425565b5f7f80bb2b638cc20bc4d0a60d66940f3ab4a00c1d7b313497ca82fb0b4ab00793006001600160a01b038316612088576040517f89c62b640000000000000000000000000000000000000000000000000000000081525f6004820152602401610b0d565b6001600160a01b039092165f908152600390920160205250604090205490565b7f80bb2b638cc20bc4d0a60d66940f3ab4a00c1d7b313497ca82fb0b4ab007930180546060917f80bb2b638cc20bc4d0a60d66940f3ab4a00c1d7b313497ca82fb0b4ab007930091610c51906151f8565b610d243383836137f0565b5f8060055f9054906101000a90046001600160a01b03166001600160a01b03166318160ddd6040518163ffffffff1660e01b8152600401602060405180830381865afa158015612156573d5f803e3d5ffd5b505050506040513d601f19601f8201168201806040525081019061217a9190615249565b9050805f036121ab57507fffffffffffffffffffffffffffffffffffffffffffffffffffffffffffffffff92915050565b600854604080517fefa7fa5d00000000000000000000000000000000000000000000000000000000815290515f926001600160a01b03169163efa7fa5d9160048083019260209291908290030181865afa15801561220b573d5f803e3d5ffd5b505050506040513d601f19601f8201168201806040525081019061222f9190615249565b90505f81116122805760405162461bcd60e51b815260206004820152601c60248201527f43757272656e74207969656c6420666163746f72206973207a65726f000000006044820152606401610b0d565b5f670de0b6b3a764000061229483856152de565b61229e9190615322565b9050805f036122d157507fffffffffffffffffffffffffffffffffffffffffffffffffffffffffffffffff949350505050565b600b54600c545f8190036122eb57505f9695505050505050565b5f816122f786856152de565b6123019190615322565b9050805f0361231757505f979650505050505050565b876020015160ff1660121461236e5760405162461bcd60e51b815260206004820152601b60248201527f5072696365206d757374206861766520313820646563696d616c7300000000006044820152606401610b0d565b87516123bc5760405162461bcd60e51b815260206004820152601b60248201527f4f7261636c652070726963652063616e6e6f74206265207a65726f00000000006044820152606401610b0d565b87515f90670de0b6b3a7640000906123d490846152de565b6123de9190615322565b9050846123ec8260646152de565b6123f69190615322565b9998505050505050505050565b61240e848484610f8d565b61104233858585856138e9565b5f8061242683611ee6565b6001600160a01b03160361247c5760405162461bcd60e51b815260206004820152601460248201527f546f6b656e20646f6573206e6f742065786973740000000000000000000000006044820152606401610b0d565b505f9081526020819052604090205490565b3361249883611ee6565b6001600160a01b0316146124ee5760405162461bcd60e51b815260206004820152600f60248201527f4e6f7420746f6b656e206f776e657200000000000000000000000000000000006044820152606401610b0d565b5f811161253d5760405162461bcd60e51b815260206004820152601760248201527f416d6f756e74206d75737420626520706f7369746976650000000000000000006044820152606401610b0d565b5f828152600960205260409020546001600160a01b0316806125a15760405162461bcd60e51b815260206004820152601060248201527f457363726f77206e6f7420666f756e64000000000000000000000000000000006044820152606401610b0d565b6006546040517f23b872dd0000000000000000000000000000000000000000000000000000000081523360048201526001600160a01b03838116602483015260448201859052909116906323b872dd906064016020604051808303815f875af1158015612610573d5f803e3d5ffd5b505050506040513d601f19601f820116820180604052508101906126349190615348565b5061263e83613aa9565b600654604080516001600160a01b0390921682526020820184905284917f055b14c7efbc07d692265b907b52ec309741a29408ffad1d871aa6b371ac7729910160405180910390a2505050565b60605f61269783611ee6565b6001600160a01b0316036126ed5760405162461bcd60e51b815260206004820152601460248201527f546f6b656e20646f6573206e6f742065786973740000000000000000000000006044820152606401610b0d565b5f8281526020819052604081209061274961270785613be2565b61271861271387613d1b565b613d4c565b845461272390613be2565b604051602001612735939291906154de565b604051602081830303815290604052613d4c565b90508060405160200161275c9190615685565b60405160208183030381529060405292505050919050565b5f8281527f02dd7bc7dec4dceedda775e58dd541e08a116c6c53815c0bd028192f7b62680060205260409020600101546127ad81613356565b6110428383613363565b5f6127c181613356565b600854604080517fefa7fa5d00000000000000000000000000000000000000000000000000000000815290515f926001600160a01b03169163efa7fa5d9160048083019260209291908290030181865afa158015612821573d5f803e3d5ffd5b505050506040513d601f19601f820116820180604052508101906128459190615249565b90505f81116128bc5760405162461bcd60e51b815260206004820152602360248201527f43616e6e6f742072657365742077697468207a65726f207969656c642066616360448201527f746f7200000000000000000000000000000000000000000000000000000000006064820152608401610b0d565b600b9290925550600c55565b336128d282611ee6565b6001600160a01b0316146129285760405162461bcd60e51b815260206004820152600f60248201527f4e6f7420746f6b656e206f776e657200000000000000000000000000000000006044820152606401610b0d565b5f34116129775760405162461bcd60e51b815260206004820152600b60248201527f4e6f204554482073656e740000000000000000000000000000000000000000006044820152606401610b0d565b5f818152600960205260409020546001600160a01b0316806129db5760405162461bcd60e51b815260206004820152601060248201527f457363726f77206e6f7420666f756e64000000000000000000000000000000006044820152606401610b0d565b806001600160a01b031663d0e30db0346040518263ffffffff1660e01b81526004015f604051808303818588803b158015612a14575f80fd5b505af1158015612a26573d5f803e3d5ffd5b5050505050612a3482613aa9565b604080515f815234602082015283917f055b14c7efbc07d692265b907b52ec309741a29408ffad1d871aa6b371ac7729910160405180910390a25050565b6005545f906001600160a01b03163314612ace5760405162461bcd60e51b815260206004820152601360248201527f4f6e6c7920635553504420636f6e7472616374000000000000000000000000006044820152606401610b0d565b6004545f03612b1f5760405162461bcd60e51b815260206004820152601260248201527f4e6f20616c6c6f63617465642066756e647300000000000000000000000000006044820152606401610b0d565b600454835f805b8315801590612b3457505f83115b156130d557620186a05a106130d5575f84815260208181526040808320600a909252909120546001600160a01b031680612bb05760405162461bcd60e51b815260206004820152601860248201527f506f736974696f6e457363726f77206e6f7420666f756e6400000000000000006044820152606401610b0d565b5f8190505f816001600160a01b031663d39aa95a6040518163ffffffff1660e01b8152600401602060405180830381865afa158015612bf1573d5f803e3d5ffd5b505050506040513d601f19601f82011682018060405250810190612c159190615249565b905080156130c7575f818811612c2b5787612c2d565b815b905080156130c5575f80612c4285848f613d72565b91509150846001600160a01b0316630bfd07fc84612c5f9061528d565b6040518263ffffffff1660e01b8152600401612c7d91815260200190565b5f604051808303815f87803b158015612c94575f80fd5b505af1158015612ca6573d5f803e3d5ffd5b50506040517f9d45109a00000000000000000000000000000000000000000000000000000000815260048101859052602481018490523060448201526001600160a01b0388169250639d45109a91506064015f604051808303815f87803b158015612d0f575f80fd5b505af1158015612d21573d5f803e3d5ffd5b505050505f8183612d329190615335565b90508115612e50576006546005546040517fa9059cbb0000000000000000000000000000000000000000000000000000000081526001600160a01b039182166004820152602481018590525f92919091169063a9059cbb906044016020604051808303815f875af1158015612da9573d5f803e3d5ffd5b505050506040513d601f19601f82011682018060405250810190612dcd9190615348565b905080612e425760405162461bcd60e51b815260206004820152602860248201527f55736572207374455448207472616e7366657220746f206355535044546f6b6560448201527f6e206661696c65640000000000000000000000000000000000000000000000006064820152608401610b0d565b612e4c838c615487565b9a50505b8015612fbf575f8c8152600960205260409020546001600160a01b031680612eba5760405162461bcd60e51b815260206004820152601a60248201527f53746162696c697a6572457363726f77206e6f7420666f756e640000000000006044820152606401610b0d565b6006546040517fa9059cbb0000000000000000000000000000000000000000000000000000000081526001600160a01b038381166004830152602482018590525f92169063a9059cbb906044016020604051808303815f875af1158015612f23573d5f803e3d5ffd5b505050506040513d601f19601f82011682018060405250810190612f479190615348565b905080612fbc5760405162461bcd60e51b815260206004820152603460248201527f53746162696c697a6572207374455448207472616e7366657220746f2053746160448201527f62696c697a6572457363726f77206661696c65640000000000000000000000006064820152608401610b0d565b50505b612fc9838a615487565b9850848414801561307857612fdd8d6140b2565b5f8d81526009602090815260408083205481517fec60b9ab00000000000000000000000000000000000000000000000000000000815291516001600160a01b039091169263ec60b9ab92600480820193918290030181865afa158015613045573d5f803e3d5ffd5b505050506040513d601f19601f820116820180604052508101906130699190615249565b1115613078576130788d613aa9565b613082858d615335565b6040805185815260208101859052919d508e917f7bd51af63c72ca163b2d37a37219fbdda7a4c3803f69ed76e3948078619a32f9910160405180910390a2505050505b505b505050600301549350612b26565b5f82116131245760405162461bcd60e51b815260206004820152601460248201527f4e6f2066756e647320756e616c6c6f63617465640000000000000000000000006044820152606401610b0d565b8015613136576131366112b08261528d565b5095945050505050565b5f7fffffffff0000000000000000000000000000000000000000000000000000000082167f7965db0b000000000000000000000000000000000000000000000000000000001480610c195750610c1982614172565b5f8181527f80bb2b638cc20bc4d0a60d66940f3ab4a00c1d7b313497ca82fb0b4ab007930260205260408120546001600160a01b031680610c19576040517f7e27328900000000000000000000000000000000000000000000000000000000815260048101849052602401610b0d565b61117483838360016141c7565b5f807ff0c57e16840df040f15088dc2f81fe391c3923bec73e23a9662efc9c229c6a00610c19565b61324261435b565b610d248282614399565b61325461435b565b565b5f8281527f02dd7bc7dec4dceedda775e58dd541e08a116c6c53815c0bd028192f7b626800602081815260408084206001600160a01b038616855290915282205460ff16613337575f848152602082815260408083206001600160a01b0387168452909152902080547fffffffffffffffffffffffffffffffffffffffffffffffffffffffffffffff001660011790556132ed3390565b6001600160a01b0316836001600160a01b0316857f2f8788117e7eff1d82e926ec794901d17c78024a50270940304540a733656f0d60405160405180910390a46001915050610c19565b5f915050610c19565b5f61334c8484846143dc565b90505b9392505050565b61336081336144e5565b50565b5f8281527f02dd7bc7dec4dceedda775e58dd541e08a116c6c53815c0bd028192f7b626800602081815260408084206001600160a01b038616855290915282205460ff1615613337575f848152602082815260408083206001600160a01b038716808552925280832080547fffffffffffffffffffffffffffffffffffffffffffffffffffffffffffffff0016905551339287917ff6391f5c32d9c69d2a47ea670b442974b53935d1edc7fd64eb21e047a839171b9190a46001915050610c19565b600b54600c54600854604080517fefa7fa5d00000000000000000000000000000000000000000000000000000000815290515f926001600160a01b03169163efa7fa5d9160048083019260209291908290030181865afa15801561348b573d5f803e3d5ffd5b505050506040513d601f19601f820116820180604052508101906134af9190615249565b90505f81116135005760405162461bcd60e51b815260206004820152601c60248201527f43757272656e74207969656c6420666163746f72206973207a65726f000000006044820152606401610b0d565b5f80835f0361355e5784156135575760405162461bcd60e51b815260206004820152601a60248201527f496e636f6e73697374656e7420696e697469616c2073746174650000000000006044820152606401610b0d565b505f613584565b83830361356c575083613584565b8361357784876152de565b6135819190615322565b90505b5f861261359c576135958682615487565b915061362c565b5f6135a68761528d565b90508082101561361e5760405162461bcd60e51b815260206004820152602360248201527f536e617073686f7420756e646572666c6f772061667465722070726f6a65637460448201527f696f6e00000000000000000000000000000000000000000000000000000000006064820152608401610b0d565b6136288183615335565b9250505b50600b55600c55505050565b610d24828260405180602001604052805f815250614571565b60035415806136605750600454155b1561366f576003819055600455565b60045481111561369d57600480545f8381526020819052604080822060030183905591815220810182905555565b6003548110156136cb57600380545f8381526020819052604080822060040183905591815220810182905555565b6003545b80158015906136dd57508181105b156136f8575f908152602081905260409020600401546136cf565b5f8181526020819052604080822060039081018054868552838520928301819055600492830186905584529183200184905591905255565b5f8181526020819052604090206001548214801561374f575060025482145b15613762575f60018190556002556137df565b600154820361378957600281015460018181555f91825260208290526040822001556137df565b60025482036137b057600181015460028181555f91825260208290526040822001556137df565b600180820154600280840180545f90815260208190526040808220909501849055905492815292909220909101555b5f6002820181905560019091015550565b7f80bb2b638cc20bc4d0a60d66940f3ab4a00c1d7b313497ca82fb0b4ab00793006001600160a01b03831661385c576040517f5b08ba180000000000000000000000000000000000000000000000000000000081526001600160a01b0384166004820152602401610b0d565b6001600160a01b038481165f81815260058401602090815260408083209488168084529482529182902080547fffffffffffffffffffffffffffffffffffffffffffffffffffffffffffffff001687151590811790915591519182527f17307eab39ab6107e8899845ad3d59bd9653f200f220920489ca2b5937696c31910160405180910390a350505050565b6001600160a01b0383163b15613aa2576040517f150b7a020000000000000000000000000000000000000000000000000000000081526001600160a01b0384169063150b7a02906139449088908890879087906004016156b6565b6020604051808303815f875af192505050801561399c575060408051601f3d9081017fffffffffffffffffffffffffffffffffffffffffffffffffffffffffffffffe0168201909252613999918101906156f6565b60015b613a1c573d8080156139c9576040519150601f19603f3d011682016040523d82523d5f602084013e6139ce565b606091505b5080515f03613a14576040517f64a0ae920000000000000000000000000000000000000000000000000000000081526001600160a01b0385166004820152602401610b0d565b805181602001fd5b7fffffffff0000000000000000000000000000000000000000000000000000000081167f150b7a020000000000000000000000000000000000000000000000000000000014611650576040517f64a0ae920000000000000000000000000000000000000000000000000000000081526001600160a01b0385166004820152602401610b0d565b5050505050565b5f8181526020819052604090206001810154158015613aca57506002810154155b8015613ad857508160015414155b15610d24576001545f03613af157506001819055600255565b600254821115613b1e57600280546001929092018290555f91825260208290526040909120810182905555565b600154821015613b4b57600180546002929092018290555f91825260208290526040909120810182905555565b6001545b5f8181526020819052604090206002015415801590613b7d57505f8181526020819052604090206002015483115b15613b98575f90815260208190526040902060020154613b4f565b5f81815260208190526040902060029081018054600185018490559184018290558490558015613bda575f818152602081905260409020600101849055611042565b505050600255565b6060815f03613c2457505060408051808201909152600181527f3000000000000000000000000000000000000000000000000000000000000000602082015290565b815f5b8115613c4d5780613c3781615711565b9150613c469050600a83615322565b9150613c27565b5f8167ffffffffffffffff811115613c6757613c67614fc5565b6040519080825280601f01601f191660200182016040528015613c91576020820181803683370190505b5090505b8415613d1357613ca6600183615335565b9150613cb3600a86615748565b613cbe906030615487565b60f81b818381518110613cd357613cd361549a565b60200101907effffffffffffffffffffffffffffffffffffffffffffffffffffffffffffff191690815f1a905350613d0c600a86615322565b9450613c95565b949350505050565b6060613d2682613be2565b604051602001613d36919061575b565b6040516020818303038152906040529050919050565b6060610c19826040518060600160405280604081526020016191cc604091396001614588565b5f80846001600160a01b031663d39aa95a6040518163ffffffff1660e01b8152600401602060405180830381865afa158015613db0573d5f803e3d5ffd5b505050506040513d601f19601f82011682018060405250810190613dd49190615249565b5f03613de457505f9050806140aa565b600854604080517fefa7fa5d00000000000000000000000000000000000000000000000000000000815290515f926001600160a01b03169163efa7fa5d9160048083019260209291908290030181865afa158015613e44573d5f803e3d5ffd5b505050506040513d601f19601f82011682018060405250810190613e689190615249565b90505f60085f9054906101000a90046001600160a01b03166001600160a01b031663a42c69a96040518163ffffffff1660e01b8152600401602060405180830381865afa158015613ebb573d5f803e3d5ffd5b505050506040513d601f19601f82011682018060405250810190613edf9190615249565b613ee983886152de565b613ef39190615322565b8551909150613f445760405162461bcd60e51b815260206004820152601b60248201527f4f7261636c652070726963652063616e6e6f74206265207a65726f00000000006044820152606401610b0d565b84516020860151613f599060ff16600a61547c565b613f6390836152de565b613f6d9190615322565b604080517fdc607d6f00000000000000000000000000000000000000000000000000000000815287516004820152602088015160ff1660248201529087015160448201529093505f906001600160a01b0389169063dc607d6f90606401602060405180830381865afa158015613fe5573d5f803e3d5ffd5b505050506040513d601f19601f820116820180604052508101906140099190615249565b905060648110156140825760405162461bcd60e51b815260206004820152603360248201527f43616e6e6f7420756e616c6c6f636174652066726f6d20756e646572636f6c6c60448201527f61746572616c697a656420706f736974696f6e000000000000000000000000006064820152608401610b0d565b606461408e82866152de565b6140989190615322565b9450848411156140a6578493505b5050505b935093915050565b5f818152602081905260409020600354821480156140d1575060045482145b156140e4575f6003819055600455614161565b600354820361410b57600481015460038181555f9182526020829052604082200155614161565b600454820361413257600381015460048181555f9182526020829052604082200155614161565b600380820154600480840180545f90815260208190526040808220909501849055905492815292909220909101555b5f6004820181905560039091015550565b5f7fffffffff0000000000000000000000000000000000000000000000000000000082167f780e9d63000000000000000000000000000000000000000000000000000000001480610c195750610c1982614703565b7f80bb2b638cc20bc4d0a60d66940f3ab4a00c1d7b313497ca82fb0b4ab007930081806141fc57506001600160a01b03831615155b15614313575f61420b85613195565b90506001600160a01b038416158015906142375750836001600160a01b0316816001600160a01b031614155b801561428757506001600160a01b038082165f9081527f80bb2b638cc20bc4d0a60d66940f3ab4a00c1d7b313497ca82fb0b4ab0079305602090815260408083209388168352929052205460ff16155b156142c9576040517fa9fbf51f0000000000000000000000000000000000000000000000000000000081526001600160a01b0385166004820152602401610b0d565b82156143115784866001600160a01b0316826001600160a01b03167f8c5be1e5ebec7d5bd14f71427d1e84f3dd0314c0f7b2291e5b200ac8c7c3b92560405160405180910390a45b505b5f93845260040160205250506040902080547fffffffffffffffffffffffff0000000000000000000000000000000000000000166001600160a01b0392909216919091179055565b6143636147e5565b613254576040517fd7e6bcf800000000000000000000000000000000000000000000000000000000815260040160405180910390fd5b6143a161435b565b7f80bb2b638cc20bc4d0a60d66940f3ab4a00c1d7b313497ca82fb0b4ab0079300806143cd84826159cc565b506001810161104283826159cc565b5f806143e9858585614803565b90506001600160a01b0381166144835761447e847f645e039705490088daad89bae25049a34f4a9072d398537b1ab2425f24cbed0280545f8381527f645e039705490088daad89bae25049a34f4a9072d398537b1ab2425f24cbed0360205260408120829055600182018355919091527fa42f15e5d656f8155fd7419d740a6073999f19cd6e061449ce4a257150545bf20155565b6144a6565b846001600160a01b0316816001600160a01b0316146144a6576144a68185614974565b6001600160a01b0385166144c2576144bd84614a1e565b61334c565b846001600160a01b0316816001600160a01b03161461334c5761334c8585614b11565b5f8281527f02dd7bc7dec4dceedda775e58dd541e08a116c6c53815c0bd028192f7b626800602090815260408083206001600160a01b038516845290915290205460ff16610d24576040517fe2517d3f0000000000000000000000000000000000000000000000000000000081526001600160a01b038216600482015260248101839052604401610b0d565b61457b8383614b7c565b611174335f8585856138e9565b606083515f036145a6575060408051602081019091525f815261334f565b5f826145d6576003855160046145bc91906152de565b6145c7906002615487565b6145d19190615322565b6145fb565b6003855160026145e69190615487565b6145f09190615322565b6145fb9060046152de565b90505f8167ffffffffffffffff81111561461757614617614fc5565b6040519080825280601f01601f191660200182016040528015614641576020820181803683370190505b509050600185016020820187885189016020810180515f82525b828410156146b6576003840193508351603f8160121c168701518653600186019550603f81600c1c168701518653600186019550603f8160061c168701518653600186019550603f811687015186535060018501945061465b565b9052505085156146f7576003885106600181146146da57600281146146ed576146f5565b603d6001830353603d60028303536146f5565b603d60018303535b505b50909695505050505050565b5f7fffffffff0000000000000000000000000000000000000000000000000000000082167f80ac58cd00000000000000000000000000000000000000000000000000000000148061479557507fffffffff0000000000000000000000000000000000000000000000000000000082167f5b5e139f00000000000000000000000000000000000000000000000000000000145b80610c1957507f01ffc9a7000000000000000000000000000000000000000000000000000000007fffffffff00000000000000000000000000000000000000000000000000000000831614610c19565b5f6147ee613212565b5468010000000000000000900460ff16919050565b5f8281527f80bb2b638cc20bc4d0a60d66940f3ab4a00c1d7b313497ca82fb0b4ab007930260205260408120547f80bb2b638cc20bc4d0a60d66940f3ab4a00c1d7b313497ca82fb0b4ab0079300906001600160a01b039081169084161561487057614870818587614c0f565b6001600160a01b038116156148cb5761488b5f865f806141c7565b6001600160a01b0381165f908152600383016020526040902080547fffffffffffffffffffffffffffffffffffffffffffffffffffffffffffffffff0190555b6001600160a01b038616156148fb576001600160a01b0386165f9081526003830160205260409020805460010190555b5f85815260028301602052604080822080547fffffffffffffffffffffffff0000000000000000000000000000000000000000166001600160a01b038a811691821790925591518893918516917fddf252ad1be2c89b69c2b068fc378daa952ba7f163c4a11628f55a4df523b3ef91a495945050505050565b7f645e039705490088daad89bae25049a34f4a9072d398537b1ab2425f24cbed005f61499f84612024565b5f8481526001840160209081526040808320546001600160a01b038916845291869052909120919250908183146149f7575f838152602082815260408083205485845281842081905583526001870190915290208290555b5f948552600190930160209081526040808620869055928552929092528220919091555050565b7f645e039705490088daad89bae25049a34f4a9072d398537b1ab2425f24cbed02547f645e039705490088daad89bae25049a34f4a9072d398537b1ab2425f24cbed00905f90614a7090600190615335565b5f848152600384016020526040812054600285018054939450909284908110614a9b57614a9b61549a565b905f5260205f200154905080846002018381548110614abc57614abc61549a565b5f91825260208083209091019290925582815260038601909152604080822084905586825281205560028401805480614af757614af7615ae3565b600190038181905f5260205f20015f905590555050505050565b7f645e039705490088daad89bae25049a34f4a9072d398537b1ab2425f24cbed005f6001614b3e85612024565b614b489190615335565b6001600160a01b039094165f9081526020838152604080832087845282528083208690559482526001909301909252502055565b6001600160a01b038216614bbe576040517f64a0ae920000000000000000000000000000000000000000000000000000000081525f6004820152602401610b0d565b5f614bca83835f613340565b90506001600160a01b03811615611174576040517f73c6ac6e0000000000000000000000000000000000000000000000000000000081525f6004820152602401610b0d565b614c1a838383614ca5565b611174576001600160a01b038316614c61576040517f7e27328900000000000000000000000000000000000000000000000000000000815260048101829052602401610b0d565b6040517f177e802f0000000000000000000000000000000000000000000000000000000081526001600160a01b038316600482015260248101829052604401610b0d565b5f6001600160a01b0383161580159061334c5750826001600160a01b0316846001600160a01b03161480614d1c57506001600160a01b038085165f9081527f80bb2b638cc20bc4d0a60d66940f3ab4a00c1d7b313497ca82fb0b4ab0079305602090815260408083209387168352929052205460ff165b8061334c5750505f9081527f80bb2b638cc20bc4d0a60d66940f3ab4a00c1d7b313497ca82fb0b4ab007930460205260409020546001600160a01b03908116911614919050565b610d2480615b1183390190565b6129978061683583390190565b5f8060408385031215614d8e575f80fd5b50508035926020909101359150565b7fffffffff0000000000000000000000000000000000000000000000000000000081168114613360575f80fd5b5f60208284031215614dda575f80fd5b813561334f81614d9d565b5f81518084528060208401602086015e5f6020828601015260207fffffffffffffffffffffffffffffffffffffffffffffffffffffffffffffffe0601f83011685010191505092915050565b602081525f61334f6020830184614de5565b5f60208284031215614e53575f80fd5b5035919050565b6001600160a01b0381168114613360575f80fd5b5f8060408385031215614e7f575f80fd5b8235614e8a81614e5a565b946020939093013593505050565b5f805f805f60a08688031215614eac575f80fd5b8535614eb781614e5a565b94506020860135614ec781614e5a565b93506040860135614ed781614e5a565b92506060860135614ee781614e5a565b91506080860135614ef781614e5a565b809150509295509295909350565b5f805f60608486031215614f17575f80fd5b8335614f2281614e5a565b92506020840135614f3281614e5a565b929592945050506040919091013590565b5f8060408385031215614f54575f80fd5b823591506020830135614f6681614e5a565b809150509250929050565b5f60208284031215614f81575f80fd5b813561334f81614e5a565b8015158114613360575f80fd5b5f8060408385031215614faa575f80fd5b8235614fb581614e5a565b91506020830135614f6681614f8c565b7f4e487b71000000000000000000000000000000000000000000000000000000005f52604160045260245ffd5b604051601f82017fffffffffffffffffffffffffffffffffffffffffffffffffffffffffffffffe016810167ffffffffffffffff8111828210171561503957615039614fc5565b604052919050565b5f60608284031215615051575f80fd5b6040516060810167ffffffffffffffff8111828210171561507457615074614fc5565b60405282358152905080602083013560ff81168114615091575f80fd5b6020820152604092830135920191909152919050565b5f606082840312156150b7575f80fd5b61334f8383615041565b5f805f80608085870312156150d4575f80fd5b84356150df81614e5a565b935060208501356150ef81614e5a565b925060408501359150606085013567ffffffffffffffff811115615111575f80fd5b8501601f81018713615121575f80fd5b803567ffffffffffffffff81111561513b5761513b614fc5565b61516c60207fffffffffffffffffffffffffffffffffffffffffffffffffffffffffffffffe0601f84011601614ff2565b818152886020838501011115615180575f80fd5b816020840160208301375f6020838301015280935050505092959194509250565b5f80604083850312156151b2575f80fd5b82356151bd81614e5a565b91506020830135614f6681614e5a565b5f80608083850312156151de575f80fd5b823591506151ef8460208501615041565b90509250929050565b600181811c9082168061520c57607f821691505b602082108103615243577f4e487b71000000000000000000000000000000000000000000000000000000005f52602260045260245ffd5b50919050565b5f60208284031215615259575f80fd5b5051919050565b7f4e487b71000000000000000000000000000000000000000000000000000000005f52601160045260245ffd5b5f7f800000000000000000000000000000000000000000000000000000000000000082036152bd576152bd615260565b505f0390565b5f602082840312156152d3575f80fd5b815161334f81614e5a565b8082028115828204841417610c1957610c19615260565b7f4e487b71000000000000000000000000000000000000000000000000000000005f52601260045260245ffd5b5f82615330576153306152f5565b500490565b81810381811115610c1957610c19615260565b5f60208284031215615358575f80fd5b815161334f81614f8c565b6001815b60018411156140aa5780850481111561538257615382615260565b600184161561539057908102905b60019390931c928002615367565b5f826153ac57506001610c19565b816153b857505f610c19565b81600181146153ce57600281146153d8576153f4565b6001915050610c19565b60ff8411156153e9576153e9615260565b50506001821b610c19565b5060208310610133831016604e8410600b8410161715615417575081810a610c19565b6154427fffffffffffffffffffffffffffffffffffffffffffffffffffffffffffffffff8484615363565b807fffffffffffffffffffffffffffffffffffffffffffffffffffffffffffffffff0482111561547457615474615260565b029392505050565b5f61334f838361539e565b80820180821115610c1957610c19615260565b7f4e487b71000000000000000000000000000000000000000000000000000000005f52603260045260245ffd5b5f81518060208401855e5f93019283525090919050565b7f7b226e616d65223a2022555350442053746162696c697a65722023000000000081525f61550f601b8301866154c7565b7f222c20226465736372697074696f6e223a2022555350442053746162696c697a81527f657220506f736974696f6e204e4654222c20000000000000000000000000000060208201527f22696d616765223a2022646174613a696d6167652f7376672b786d6c3b62617360328201527f6536342c0000000000000000000000000000000000000000000000000000000060528201526155b160568201866154c7565b90507f222c202261747472696275746573223a205b000000000000000000000000000081527f7b2274726169745f74797065223a20224d696e20436f6c6c61746572616c205260128201527f6174696f222c202276616c7565223a2022000000000000000000000000000000603282015261562f60438201856154c7565b7f25227d000000000000000000000000000000000000000000000000000000000081527f5d7d00000000000000000000000000000000000000000000000000000000000060038201526005019695505050505050565b7f646174613a6170706c69636174696f6e2f6a736f6e3b6261736536342c00000081525f61334f601d8301846154c7565b6001600160a01b03851681526001600160a01b0384166020820152826040820152608060608201525f6156ec6080830184614de5565b9695505050505050565b5f60208284031215615706575f80fd5b815161334f81614d9d565b5f7fffffffffffffffffffffffffffffffffffffffffffffffffffffffffffffffff820361574157615741615260565b5060010190565b5f82615756576157566152f5565b500690565b7f3c73766720786d6c6e733d22687474703a2f2f7777772e77332e6f72672f323081527f30302f737667222077696474683d2234303022206865696768743d223430302260208201527f3e0000000000000000000000000000000000000000000000000000000000000060408201527f3c7374796c653e2e62617365207b2066696c6c3a2077686974653b20666f6e7460418201527f2d66616d696c793a2073657269663b20666f6e742d73697a653a20313470783b60618201527f207d3c2f7374796c653e0000000000000000000000000000000000000000000060818201527f3c726563742077696474683d223130302522206865696768743d223130302522608b8201527f2066696c6c3d22626c61636b222f3e000000000000000000000000000000000060ab8201527f3c7465787420783d223530252220793d223430252220636c6173733d2262617360ba8201527f652220646f6d696e616e742d626173656c696e653d226d6964646c652220746560da8201527f78742d616e63686f723d226d6964646c65223e0000000000000000000000000060fa8201527f53746162696c697a65722023000000000000000000000000000000000000000061010d8201525f61334f61595f6159366101198501866154c7565b7f3c2f746578743e00000000000000000000000000000000000000000000000000815260070190565b7f3c2f7376673e0000000000000000000000000000000000000000000000000000815260060190565b601f82111561117457805f5260205f20601f840160051c810160208510156159ad5750805b601f840160051c820191505b81811015613aa2575f81556001016159b9565b815167ffffffffffffffff8111156159e6576159e6614fc5565b6159fa816159f484546151f8565b84615988565b6020601f821160018114615a4b575f8315615a155750848201515b7fffffffffffffffffffffffffffffffffffffffffffffffffffffffffffffffff600385901b1c1916600184901b178455613aa2565b5f848152602081207fffffffffffffffffffffffffffffffffffffffffffffffffffffffffffffffe08516915b82811015615a985787850151825560209485019460019092019101615a78565b5084821015615ad457868401517fffffffffffffffffffffffffffffffffffffffffffffffffffffffffffffffff600387901b60f8161c191681555b50505050600190811b01905550565b7f4e487b71000000000000000000000000000000000000000000000000000000005f52603160045260245ffdfe610100604052348015610010575f80fd5b50604051610d24380380610d2483398101604081905261002f916100cb565b6001600160a01b038416158061004c57506001600160a01b038316155b8061005e57506001600160a01b038216155b8061007057506001600160a01b038116155b1561008e5760405163d92e233d60e01b815260040160405180910390fd5b6001600160a01b0393841660805291831660a052821660c0521660e05261011c565b80516001600160a01b03811681146100c6575f80fd5b919050565b5f805f80608085870312156100de575f80fd5b6100e7856100b0565b93506100f5602086016100b0565b9250610103604086016100b0565b9150610111606086016100b0565b905092959194509250565b60805160a05160c05160e051610b906101945f395f81816098015261090701525f818161019b01528181610341015281816104570152818161061f015281816107570152610a3d01525f8181610116015261072601525f8181610168015281816101ff0152818161052f01526108190152610b905ff3fe60806040526004361061007c575f3560e01c8063bec070d61161004c578063bec070d614610157578063c1fe3e481461018a578063d0e30db0146101bd578063ec60b9ab146101c5575f80fd5b806323509a2d146100875780634f68ae75146100e45780637d0e9bba14610105578063a901540014610138575f80fd5b3661008357005b5f80fd5b348015610092575f80fd5b506100ba7f000000000000000000000000000000000000000000000000000000000000000081565b60405173ffffffffffffffffffffffffffffffffffffffff90911681526020015b60405180910390f35b3480156100ef575f80fd5b506101036100fe366004610ac0565b6101e7565b005b348015610110575f80fd5b506100ba7f000000000000000000000000000000000000000000000000000000000000000081565b348015610143575f80fd5b50610103610152366004610b06565b610517565b348015610162575f80fd5b506100ba7f000000000000000000000000000000000000000000000000000000000000000081565b348015610195575f80fd5b506100ba7f000000000000000000000000000000000000000000000000000000000000000081565b610103610801565b3480156101d0575f80fd5b506101d9610a0d565b6040519081526020016100db565b3373ffffffffffffffffffffffffffffffffffffffff7f0000000000000000000000000000000000000000000000000000000000000000161461028b576040517f08c379a000000000000000000000000000000000000000000000000000000000815260206004820152601b60248201527f43616c6c6572206973206e6f742053746162696c697a65724e4654000000000060448201526064015b60405180910390fd5b815f036102c4576040517f1f2a200500000000000000000000000000000000000000000000000000000000815260040160405180910390fd5b73ffffffffffffffffffffffffffffffffffffffff8116610311576040517fd92e233d00000000000000000000000000000000000000000000000000000000815260040160405180910390fd5b6040517f70a082310000000000000000000000000000000000000000000000000000000081523060048201525f907f000000000000000000000000000000000000000000000000000000000000000073ffffffffffffffffffffffffffffffffffffffff16906370a0823190602401602060405180830381865afa15801561039b573d5f803e3d5ffd5b505050506040513d601f19601f820116820180604052508101906103bf9190610b1d565b90508083111561040b576040517fe450d38c0000000000000000000000000000000000000000000000000000000081523060048201526024810182905260448101849052606401610282565b6040517f095ea7b300000000000000000000000000000000000000000000000000000000815273ffffffffffffffffffffffffffffffffffffffff8381166004830152602482018590527f0000000000000000000000000000000000000000000000000000000000000000169063095ea7b3906044016020604051808303815f875af115801561049d573d5f803e3d5ffd5b505050506040513d601f19601f820116820180604052508101906104c19190610b34565b508173ffffffffffffffffffffffffffffffffffffffff167fd4ff9b9c0e7f96a5697a4d12df976cbce4f79f135c350cc8014ce7ecfe4ed25e8460405161050a91815260200190565b60405180910390a2505050565b3373ffffffffffffffffffffffffffffffffffffffff7f000000000000000000000000000000000000000000000000000000000000000016146105b6576040517f08c379a000000000000000000000000000000000000000000000000000000000815260206004820152601b60248201527f43616c6c6572206973206e6f742053746162696c697a65724e465400000000006044820152606401610282565b805f036105ef576040517f1f2a200500000000000000000000000000000000000000000000000000000000815260040160405180910390fd5b6040517f70a082310000000000000000000000000000000000000000000000000000000081523060048201525f907f000000000000000000000000000000000000000000000000000000000000000073ffffffffffffffffffffffffffffffffffffffff16906370a0823190602401602060405180830381865afa158015610679573d5f803e3d5ffd5b505050506040513d601f19601f8201168201806040525081019061069d9190610b1d565b9050808211156106e9576040517fe450d38c0000000000000000000000000000000000000000000000000000000081523060048201526024810182905260448101839052606401610282565b6040517fa9059cbb00000000000000000000000000000000000000000000000000000000815273ffffffffffffffffffffffffffffffffffffffff7f000000000000000000000000000000000000000000000000000000000000000081166004830152602482018490525f917f00000000000000000000000000000000000000000000000000000000000000009091169063a9059cbb906044016020604051808303815f875af115801561079f573d5f803e3d5ffd5b505050506040513d601f19601f820116820180604052508101906107c39190610b34565b9050806107fc576040517f90b8ec1800000000000000000000000000000000000000000000000000000000815260040160405180910390fd5b505050565b3373ffffffffffffffffffffffffffffffffffffffff7f000000000000000000000000000000000000000000000000000000000000000016146108a0576040517f08c379a000000000000000000000000000000000000000000000000000000000815260206004820152601b60248201527f43616c6c6572206973206e6f742053746162696c697a65724e465400000000006044820152606401610282565b345f036108d9576040517f1f2a200500000000000000000000000000000000000000000000000000000000815260040160405180910390fd5b6040517fa1903eab0000000000000000000000000000000000000000000000000000000081525f60048201527f000000000000000000000000000000000000000000000000000000000000000073ffffffffffffffffffffffffffffffffffffffff169063a1903eab90349060240160206040518083038185885af1935050505080156109a1575060408051601f3d9081017fffffffffffffffffffffffffffffffffffffffffffffffffffffffffffffffe016820190925261099e91810190610b1d565b60015b6109d7576040517f79cacff100000000000000000000000000000000000000000000000000000000815260040160405180910390fd5b506040513481527fa1ab46d0e38f33a7b1f03853088a305927deb55c906370ff5d6d2bc732f150959060200160405180910390a1565b6040517f70a082310000000000000000000000000000000000000000000000000000000081523060048201525f907f000000000000000000000000000000000000000000000000000000000000000073ffffffffffffffffffffffffffffffffffffffff16906370a0823190602401602060405180830381865afa158015610a97573d5f803e3d5ffd5b505050506040513d601f19601f82011682018060405250810190610abb9190610b1d565b905090565b5f8060408385031215610ad1575f80fd5b82359150602083013573ffffffffffffffffffffffffffffffffffffffff81168114610afb575f80fd5b809150509250929050565b5f60208284031215610b16575f80fd5b5035919050565b5f60208284031215610b2d575f80fd5b5051919050565b5f60208284031215610b44575f80fd5b81518015158114610b53575f80fd5b939250505056fea264697066735822122015ec281b314ef2b0eccc09c63fe6bc8db608f7a2c3f579d1735b5c5ad1c2e16d64736f6c634300081a0033610120604052348015610010575f80fd5b5060405161299738038061299783398101604081905261002f9161020e565b6001600160a01b038616158061004c57506001600160a01b038516155b8061005e57506001600160a01b038416155b8061007057506001600160a01b038316155b8061008257506001600160a01b038216155b8061009457506001600160a01b038116155b156100b25760405163d92e233d60e01b815260040160405180910390fd5b6001600160a01b0380871660805284811660a05283811660c05282811660e0528116610100525f60018190556100e8908761014a565b506101137f079847024f21c1f5f8d88daf6764f03ddd70ce4acc6aa7104a85233fe5a769958761014a565b5061013e7f7f61e2b6df76d800cd249804cfbce4bce022e89227550287211f04d6f3b464e78661014a565b5050505050505061027e565b5f828152602081815260408083206001600160a01b038516845290915281205460ff166101ea575f838152602081815260408083206001600160a01b03861684529091529020805460ff191660011790556101a23390565b6001600160a01b0316826001600160a01b0316847f2f8788117e7eff1d82e926ec794901d17c78024a50270940304540a733656f0d60405160405180910390a45060016101ed565b505f5b92915050565b80516001600160a01b0381168114610209575f80fd5b919050565b5f805f805f8060c08789031215610223575f80fd5b61022c876101f3565b955061023a602088016101f3565b9450610248604088016101f3565b9350610256606088016101f3565b9250610264608088016101f3565b915061027260a088016101f3565b90509295509295509295565b60805160a05160c05160e051610100516126506103475f395f81816105910152610c7501525f818161075801528181610e0601528181610e9601528181611c500152611ce001525f81816101e7015281816104130152818161129a01526119ad01525f81816106be015281816109fb01528181610d320152818161107e01528181611552015281816116780152818161176f01528181611b900152611e0501525f81816103410152818161067801528181610b15015281816111a201526113f401526126505ff3fe608060405260043610610191575f3560e01c806382882f8a116100dc578063bf3fdde711610087578063d547741f11610062578063d547741f146106f5578063dc607d6f14610714578063ee5f440714610733578063eee2421914610747575f80fd5b8063bf3fdde71461069a578063c1fe3e48146106ad578063d39aa95a146106e0575f80fd5b8063a217fddf116100b7578063a217fddf14610635578063bcc46e8314610648578063bec070d614610667575f80fd5b806382882f8a146105b357806391d14854146105c75780639d45109a14610616575f80fd5b80634699643b1161013c57806368b2f94a1161011757806368b2f94a14610545578063769ef03d146105785780637dc0d1d014610580575f80fd5b80634699643b146104d4578063571a1e2814610507578063618f802714610526575f80fd5b8063248a9ca31161016c578063248a9ca31461045a5780632f2ff15d1461049657806336568abe146104b5575f80fd5b806301ffc9a7146103af5780630bfd07fc146103e357806323509a2d14610402575f80fd5b366103ab57345f8190036101a157005b6040517fa1903eab0000000000000000000000000000000000000000000000000000000081525f600482018190529073ffffffffffffffffffffffffffffffffffffffff7f0000000000000000000000000000000000000000000000000000000000000000169063a1903eab90849060240160206040518083038185885af19350505050801561026c575060408051601f3d9081017fffffffffffffffffffffffffffffffffffffffffffffffffffffffffffffffe0168201909252610269918101906120cc565b60015b6102a2576040517f90b8ec1800000000000000000000000000000000000000000000000000000000815260040160405180910390fd5b809150815f036102de576040517f90b8ec1800000000000000000000000000000000000000000000000000000000815260040160405180910390fd5b506040518181527f206d5f22994381488f76c20f193ebf898daf960461a61d40e68e1641f62d8c5d9060200160405180910390a16040517f67bff4a8000000000000000000000000000000000000000000000000000000008152600481018290527f000000000000000000000000000000000000000000000000000000000000000073ffffffffffffffffffffffffffffffffffffffff16906367bff4a8906024015f604051808303815f87803b158015610397575f80fd5b505af11580156103a9573d5f803e3d5ffd5b005b5f80fd5b3480156103ba575f80fd5b506103ce6103c93660046120e3565b61077a565b60405190151581526020015b60405180910390f35b3480156103ee575f80fd5b506103a96103fd366004612129565b610812565b34801561040d575f80fd5b506104357f000000000000000000000000000000000000000000000000000000000000000081565b60405173ffffffffffffffffffffffffffffffffffffffff90911681526020016103da565b348015610465575f80fd5b50610488610474366004612129565b5f9081526020819052604090206001015490565b6040519081526020016103da565b3480156104a1575f80fd5b506103a96104b0366004612161565b610902565b3480156104c0575f80fd5b506103a96104cf366004612161565b61092c565b3480156104df575f80fd5b506104887f079847024f21c1f5f8d88daf6764f03ddd70ce4acc6aa7104a85233fe5a7699581565b348015610512575f80fd5b506103a9610521366004612129565b610985565b348015610531575f80fd5b506103a961054036600461218f565b610b86565b348015610550575f80fd5b506104887f7f61e2b6df76d800cd249804cfbce4bce022e89227550287211f04d6f3b464e781565b6103a9611219565b34801561058b575f80fd5b506104357f000000000000000000000000000000000000000000000000000000000000000081565b3480156105be575f80fd5b50610488606e81565b3480156105d2575f80fd5b506103ce6105e1366004612161565b5f9182526020828152604080842073ffffffffffffffffffffffffffffffffffffffff93909316845291905290205460ff1690565b348015610621575f80fd5b506103a96106303660046121ea565b611438565b348015610640575f80fd5b506104885f81565b348015610653575f80fd5b506103a9610662366004612129565b611870565b348015610672575f80fd5b506104357f000000000000000000000000000000000000000000000000000000000000000081565b6103a96106a8366004612129565b61190a565b3480156106b8575f80fd5b506104357f000000000000000000000000000000000000000000000000000000000000000081565b3480156106eb575f80fd5b5061048860015481565b348015610700575f80fd5b506103a961070f366004612161565b611b08565b34801561071f575f80fd5b5061048861072e366004612271565b611b2c565b34801561073e575f80fd5b50610488611dd5565b348015610752575f80fd5b506104357f000000000000000000000000000000000000000000000000000000000000000081565b5f7fffffffff0000000000000000000000000000000000000000000000000000000082167f7965db0b00000000000000000000000000000000000000000000000000000000148061080c57507f01ffc9a7000000000000000000000000000000000000000000000000000000007fffffffff000000000000000000000000000000000000000000000000000000008316145b92915050565b7f079847024f21c1f5f8d88daf6764f03ddd70ce4acc6aa7104a85233fe5a7699561083c81611e88565b6001545f8313156108595761085183826122e2565b6001556108bf565b5f8312156108ba575f61086b846122f5565b9050818111156108a7576040517f1f825c6a00000000000000000000000000000000000000000000000000000000815260040160405180910390fd5b6108b1818361232b565b600155506108bf565b505050565b6001546040805185815260208101929092527fabc1e0200cea3daa5c1d23d3df8212b5b114ee4bb8800bc01d8c2a7f93641d02910160405180910390a1505b5050565b5f8281526020819052604090206001015461091c81611e88565b6109268383611e95565b50505050565b73ffffffffffffffffffffffffffffffffffffffff8116331461097b576040517f6697b23200000000000000000000000000000000000000000000000000000000815260040160405180910390fd5b6108ba8282611f8e565b805f036109be576040517f1f2a200500000000000000000000000000000000000000000000000000000000815260040160405180910390fd5b6040517f23b872dd000000000000000000000000000000000000000000000000000000008152336004820152306024820152604481018290525f907f000000000000000000000000000000000000000000000000000000000000000073ffffffffffffffffffffffffffffffffffffffff16906323b872dd906064016020604051808303815f875af1158015610a56573d5f803e3d5ffd5b505050506040513d601f19601f82011682018060405250810190610a7a919061233e565b905080610ab3576040517f90b8ec1800000000000000000000000000000000000000000000000000000000815260040160405180910390fd5b6040518281527f206d5f22994381488f76c20f193ebf898daf960461a61d40e68e1641f62d8c5d9060200160405180910390a16040517f67bff4a8000000000000000000000000000000000000000000000000000000008152600481018390527f000000000000000000000000000000000000000000000000000000000000000073ffffffffffffffffffffffffffffffffffffffff16906367bff4a8906024015b5f604051808303815f87803b158015610b6c575f80fd5b505af1158015610b7e573d5f803e3d5ffd5b505050505050565b7f7f61e2b6df76d800cd249804cfbce4bce022e89227550287211f04d6f3b464e7610bb081611e88565b73ffffffffffffffffffffffffffffffffffffffff8416610bfd576040517fd92e233d00000000000000000000000000000000000000000000000000000000815260040160405180910390fd5b825f03610c36576040517f1f2a200500000000000000000000000000000000000000000000000000000000815260040160405180910390fd5b6040517f65ab8c710000000000000000000000000000000000000000000000000000000081525f9073ffffffffffffffffffffffffffffffffffffffff7f000000000000000000000000000000000000000000000000000000000000000016906365ab8c7190610caa9086906004016123a4565b6060604051808303815f875af1158015610cc6573d5f803e3d5ffd5b505050506040513d601f19601f82011682018060405250810190610cea919061245b565b6040517f70a082310000000000000000000000000000000000000000000000000000000081523060048201529091505f9073ffffffffffffffffffffffffffffffffffffffff7f000000000000000000000000000000000000000000000000000000000000000016906370a0823190602401602060405180830381865afa158015610d77573d5f803e3d5ffd5b505050506040513d601f19601f82011682018060405250810190610d9b91906120cc565b60015490915081861115610df0576040517fe450d38c00000000000000000000000000000000000000000000000000000000815230600482015260248101839052604481018790526064015b60405180910390fd5b5f610dfb878461232b565b90508115611030575f7f000000000000000000000000000000000000000000000000000000000000000073ffffffffffffffffffffffffffffffffffffffff1663efa7fa5d6040518163ffffffff1660e01b8152600401602060405180830381865afa158015610e6d573d5f803e3d5ffd5b505050506040513d601f19601f82011682018060405250810190610e9191906120cc565b90505f7f000000000000000000000000000000000000000000000000000000000000000073ffffffffffffffffffffffffffffffffffffffff1663a42c69a96040518163ffffffff1660e01b8152600401602060405180830381865afa158015610efd573d5f803e3d5ffd5b505050506040513d601f19601f82011682018060405250810190610f2191906120cc565b610f2b838661249f565b610f3591906124b6565b9050805f03610f70576040517f1f825c6a00000000000000000000000000000000000000000000000000000000815260040160405180910390fd5b85515f03610faa576040517f1f2a200500000000000000000000000000000000000000000000000000000000815260040160405180910390fd5b5f866020015160ff16600a610fbf919061260f565b8751610fcb908661249f565b610fd591906124b6565b90505f82610fe483606461249f565b610fee91906124b6565b9050606e81101561102b576040517f133804c300000000000000000000000000000000000000000000000000000000815260040160405180910390fd5b505050505b6040517fa9059cbb00000000000000000000000000000000000000000000000000000000815273ffffffffffffffffffffffffffffffffffffffff8981166004830152602482018990525f917f00000000000000000000000000000000000000000000000000000000000000009091169063a9059cbb906044016020604051808303815f875af11580156110c6573d5f803e3d5ffd5b505050506040513d601f19601f820116820180604052508101906110ea919061233e565b905080611123576040517f90b8ec1800000000000000000000000000000000000000000000000000000000815260040160405180910390fd5b8873ffffffffffffffffffffffffffffffffffffffff167f370ef93e54c934af17869115596b96ef88d1454cd91736e1d7ae0efdaa62686f8960405161116b91815260200190565b60405180910390a26040517f39112058000000000000000000000000000000000000000000000000000000008152600481018990527f000000000000000000000000000000000000000000000000000000000000000073ffffffffffffffffffffffffffffffffffffffff16906339112058906024015f604051808303815f87803b1580156111f8575f80fd5b505af115801561120a573d5f803e3d5ffd5b50505050505050505050505050565b345f819003611254576040517f1f2a200500000000000000000000000000000000000000000000000000000000815260040160405180910390fd5b6040517fa1903eab0000000000000000000000000000000000000000000000000000000081525f600482018190529073ffffffffffffffffffffffffffffffffffffffff7f0000000000000000000000000000000000000000000000000000000000000000169063a1903eab90849060240160206040518083038185885af19350505050801561131f575060408051601f3d9081017fffffffffffffffffffffffffffffffffffffffffffffffffffffffffffffffe016820190925261131c918101906120cc565b60015b611355576040517f90b8ec1800000000000000000000000000000000000000000000000000000000815260040160405180910390fd5b809150815f03611391576040517f90b8ec1800000000000000000000000000000000000000000000000000000000815260040160405180910390fd5b506040518181527f206d5f22994381488f76c20f193ebf898daf960461a61d40e68e1641f62d8c5d9060200160405180910390a16040517f67bff4a8000000000000000000000000000000000000000000000000000000008152600481018290527f000000000000000000000000000000000000000000000000000000000000000073ffffffffffffffffffffffffffffffffffffffff16906367bff4a890602401610b55565b7f079847024f21c1f5f8d88daf6764f03ddd70ce4acc6aa7104a85233fe5a7699561146281611e88565b835f0361149b576040517f1f2a200500000000000000000000000000000000000000000000000000000000815260040160405180910390fd5b73ffffffffffffffffffffffffffffffffffffffff82166114e8576040517fd92e233d00000000000000000000000000000000000000000000000000000000815260040160405180910390fd5b83831115611522576040517f1f825c6a00000000000000000000000000000000000000000000000000000000815260040160405180910390fd5b6040517f70a082310000000000000000000000000000000000000000000000000000000081523060048201525f907f000000000000000000000000000000000000000000000000000000000000000073ffffffffffffffffffffffffffffffffffffffff16906370a0823190602401602060405180830381865afa1580156115ac573d5f803e3d5ffd5b505050506040513d601f19601f820116820180604052508101906115d091906120cc565b90508085111561161c576040517fe450d38c0000000000000000000000000000000000000000000000000000000081523060048201526024810182905260448101869052606401610de7565b5f611627858761232b565b6040517fa9059cbb00000000000000000000000000000000000000000000000000000000815273ffffffffffffffffffffffffffffffffffffffff8681166004830152602482018890529192505f917f0000000000000000000000000000000000000000000000000000000000000000169063a9059cbb906044016020604051808303815f875af11580156116be573d5f803e3d5ffd5b505050506040513d601f19601f820116820180604052508101906116e2919061233e565b90508061171b576040517f90b8ec1800000000000000000000000000000000000000000000000000000000815260040160405180910390fd5b8115611816576040517fa9059cbb00000000000000000000000000000000000000000000000000000000815273ffffffffffffffffffffffffffffffffffffffff8681166004830152602482018490525f917f00000000000000000000000000000000000000000000000000000000000000009091169063a9059cbb906044016020604051808303815f875af11580156117b7573d5f803e3d5ffd5b505050506040513d601f19601f820116820180604052508101906117db919061233e565b905080611814576040517f90b8ec1800000000000000000000000000000000000000000000000000000000815260040160405180910390fd5b505b604080518781526020810184905273ffffffffffffffffffffffffffffffffffffffff8716917f47e1336b6fdb5f42c3a1d28b558fa98786d820c3705d726358dcc8e63a401eef910160405180910390a250505050505050565b7f079847024f21c1f5f8d88daf6764f03ddd70ce4acc6aa7104a85233fe5a7699561189a81611e88565b815f036118d3576040517f1f2a200500000000000000000000000000000000000000000000000000000000815260040160405180910390fd5b6040518281527f206d5f22994381488f76c20f193ebf898daf960461a61d40e68e1641f62d8c5d9060200160405180910390a15050565b7f079847024f21c1f5f8d88daf6764f03ddd70ce4acc6aa7104a85233fe5a7699561193481611e88565b3480158015611941575082155b15611978576040517f1f2a200500000000000000000000000000000000000000000000000000000000815260040160405180910390fd5b5f8115611abb576040517fa1903eab0000000000000000000000000000000000000000000000000000000081525f60048201527f000000000000000000000000000000000000000000000000000000000000000073ffffffffffffffffffffffffffffffffffffffff169063a1903eab90849060240160206040518083038185885af193505050508015611a47575060408051601f3d9081017fffffffffffffffffffffffffffffffffffffffffffffffffffffffffffffffe0168201909252611a44918101906120cc565b60015b611a7d576040517f90b8ec1800000000000000000000000000000000000000000000000000000000815260040160405180910390fd5b809150815f03611ab9576040517f90b8ec1800000000000000000000000000000000000000000000000000000000815260040160405180910390fd5b505b5f611ac685836122e2565b90507f206d5f22994381488f76c20f193ebf898daf960461a61d40e68e1641f62d8c5d81604051611af991815260200190565b60405180910390a15050505050565b5f82815260208190526040902060010154611b2281611e88565b6109268383611f8e565b6001545f90808203611b6057507fffffffffffffffffffffffffffffffffffffffffffffffffffffffffffffffff92915050565b6040517f70a082310000000000000000000000000000000000000000000000000000000081523060048201525f907f000000000000000000000000000000000000000000000000000000000000000073ffffffffffffffffffffffffffffffffffffffff16906370a0823190602401602060405180830381865afa158015611bea573d5f803e3d5ffd5b505050506040513d601f19601f82011682018060405250810190611c0e91906120cc565b9050805f03611c2057505f9392505050565b5f846020015160ff16600a611c35919061260f565b8551611c41908461249f565b611c4b91906124b6565b90505f7f000000000000000000000000000000000000000000000000000000000000000073ffffffffffffffffffffffffffffffffffffffff1663efa7fa5d6040518163ffffffff1660e01b8152600401602060405180830381865afa158015611cb7573d5f803e3d5ffd5b505050506040513d601f19601f82011682018060405250810190611cdb91906120cc565b90505f7f000000000000000000000000000000000000000000000000000000000000000073ffffffffffffffffffffffffffffffffffffffff1663a42c69a96040518163ffffffff1660e01b8152600401602060405180830381865afa158015611d47573d5f803e3d5ffd5b505050506040513d601f19601f82011682018060405250810190611d6b91906120cc565b611d75838761249f565b611d7f91906124b6565b9050805f03611db457507fffffffffffffffffffffffffffffffffffffffffffffffffffffffffffffffff9695505050505050565b80611dc084606461249f565b611dca91906124b6565b979650505050505050565b6040517f70a082310000000000000000000000000000000000000000000000000000000081523060048201525f907f000000000000000000000000000000000000000000000000000000000000000073ffffffffffffffffffffffffffffffffffffffff16906370a0823190602401602060405180830381865afa158015611e5f573d5f803e3d5ffd5b505050506040513d601f19601f82011682018060405250810190611e8391906120cc565b905090565b611e928133612047565b50565b5f8281526020818152604080832073ffffffffffffffffffffffffffffffffffffffff8516845290915281205460ff16611f87575f8381526020818152604080832073ffffffffffffffffffffffffffffffffffffffff86168452909152902080547fffffffffffffffffffffffffffffffffffffffffffffffffffffffffffffff00166001179055611f253390565b73ffffffffffffffffffffffffffffffffffffffff168273ffffffffffffffffffffffffffffffffffffffff16847f2f8788117e7eff1d82e926ec794901d17c78024a50270940304540a733656f0d60405160405180910390a450600161080c565b505f61080c565b5f8281526020818152604080832073ffffffffffffffffffffffffffffffffffffffff8516845290915281205460ff1615611f87575f8381526020818152604080832073ffffffffffffffffffffffffffffffffffffffff8616808552925280832080547fffffffffffffffffffffffffffffffffffffffffffffffffffffffffffffff0016905551339286917ff6391f5c32d9c69d2a47ea670b442974b53935d1edc7fd64eb21e047a839171b9190a450600161080c565b5f8281526020818152604080832073ffffffffffffffffffffffffffffffffffffffff8516845290915290205460ff166108fe576040517fe2517d3f00000000000000000000000000000000000000000000000000000000815273ffffffffffffffffffffffffffffffffffffffff8216600482015260248101839052604401610de7565b5f602082840312156120dc575f80fd5b5051919050565b5f602082840312156120f3575f80fd5b81357fffffffff0000000000000000000000000000000000000000000000000000000081168114612122575f80fd5b9392505050565b5f60208284031215612139575f80fd5b5035919050565b73ffffffffffffffffffffffffffffffffffffffff81168114611e92575f80fd5b5f8060408385031215612172575f80fd5b82359150602083013561218481612140565b809150509250929050565b5f805f606084860312156121a1575f80fd5b83356121ac81612140565b925060208401359150604084013567ffffffffffffffff8111156121ce575f80fd5b840160a081870312156121df575f80fd5b809150509250925092565b5f805f606084860312156121fc575f80fd5b833592506020840135915060408401356121df81612140565b6040516060810167ffffffffffffffff8111828210171561225d577f4e487b71000000000000000000000000000000000000000000000000000000005f52604160045260245ffd5b60405290565b60ff81168114611e92575f80fd5b5f6060828403128015612282575f80fd5b5061228b612215565b82358152602083013561229d81612263565b60208201526040928301359281019290925250919050565b7f4e487b71000000000000000000000000000000000000000000000000000000005f52601160045260245ffd5b8082018082111561080c5761080c6122b5565b5f7f80000000000000000000000000000000000000000000000000000000000000008203612325576123256122b5565b505f0390565b8181038181111561080c5761080c6122b5565b5f6020828403121561234e575f80fd5b81518015158114612122575f80fd5b81835281816020850137505f602082840101525f60207fffffffffffffffffffffffffffffffffffffffffffffffffffffffffffffffe0601f840116840101905092915050565b60208082528235828201525f908301356123bd81612263565b60ff16604083810191909152830135606080840191909152830135608080840191909152830135368490037fffffffffffffffffffffffffffffffffffffffffffffffffffffffffffffffe1018112612414575f80fd5b830160208101903567ffffffffffffffff811115612430575f80fd5b80360382131561243e575f80fd5b60a08085015261245260c08501828461235d565b95945050505050565b5f606082840312801561246c575f80fd5b50612475612215565b82518152602083015161248781612263565b60208201526040928301519281019290925250919050565b808202811582820484141761080c5761080c6122b5565b5f826124e9577f4e487b71000000000000000000000000000000000000000000000000000000005f52601260045260245ffd5b500490565b6001815b60018411156125295780850481111561250d5761250d6122b5565b600184161561251b57908102905b60019390931c9280026124f2565b935093915050565b5f8261253f5750600161080c565b8161254b57505f61080c565b8160018114612561576002811461256b57612587565b600191505061080c565b60ff84111561257c5761257c6122b5565b50506001821b61080c565b5060208310610133831016604e8410600b84101617156125aa575081810a61080c565b6125d57fffffffffffffffffffffffffffffffffffffffffffffffffffffffffffffffff84846124ee565b807fffffffffffffffffffffffffffffffffffffffffffffffffffffffffffffffff04821115612607576126076122b5565b029392505050565b5f612122838361253156fea2646970667358221220f6e32f85a0611538e67c3185e7e7c6856a8d5f2a1f5f68eacd70c91d259511b364736f6c634300081a00334142434445464748494a4b4c4d4e4f505152535455565758595a6162636465666768696a6b6c6d6e6f707172737475767778797a303132333435363738392b2fa2646970667358221220e499a197b260f3fe5d731813be80e04311330fc9b59f9f7910eeff7c260baa5b64736f6c634300081a0033","linkReferences":{}},"methodIdentifiers":{"DEFAULT_ADMIN_ROLE()":"a217fddf","FACTOR_PRECISION()":"a42c69a9","MINTER_ROLE()":"d5391393","MIN_GAS()":"20d2c951","POSITION_ESCROW_ROLE()":"8d7cac7b","addUnallocatedFundsEth(uint256)":"f399beb7","addUnallocatedFundsStETH(uint256,uint256)":"bb566297","allocateStabilizerFunds(uint256,uint256)":"451fda68","approve(address,uint256)":"095ea7b3","balanceOf(address)":"70a08231","cuspdToken()":"6bc05b7e","getApproved(uint256)":"081812fc","getMinCollateralRatio(uint256)":"bb310a80","getRoleAdmin(bytes32)":"248a9ca3","getSystemCollateralizationRatio((uint256,uint8,uint256))":"b3673807","grantRole(bytes32,address)":"2f2ff15d","hasRole(bytes32,address)":"91d14854","highestAllocatedId()":"d743fd1e","highestUnallocatedId()":"92133362","initialize(address,address,address,address,address)":"1459457a","isApprovedForAll(address,address)":"e985e9c5","lido()":"23509a2d","lowestAllocatedId()":"2995bc50","lowestUnallocatedId()":"853cad06","mint(address,uint256)":"40c10f19","name()":"06fdde03","ownerOf(uint256)":"6352211e","positionEscrows(uint256)":"a04ad512","positions(uint256)":"99fbab88","rateContract()":"eee24219","renounceRole(bytes32,address)":"36568abe","reportCollateralAddition(uint256)":"67bff4a8","reportCollateralRemoval(uint256)":"39112058","resetCollateralSnapshot(uint256)":"e0bb8809","revokeRole(bytes32,address)":"d547741f","safeTransferFrom(address,address,uint256)":"42842e0e","safeTransferFrom(address,address,uint256,bytes)":"b88d4fde","setApprovalForAll(address,bool)":"a22cb465","setMinCollateralizationRatio(uint256,uint256)":"01aa0b1a","stETH()":"c1fe3e48","stabilizerEscrows(uint256)":"bba6fd6f","supportsInterface(bytes4)":"01ffc9a7","symbol()":"95d89b41","tokenByIndex(uint256)":"4f6ccce7","tokenOfOwnerByIndex(address,uint256)":"2f745c59","tokenURI(uint256)":"c87b56dd","totalEthEquivalentAtLastSnapshot()":"ffb618d4","totalSupply()":"18160ddd","transferFrom(address,address,uint256)":"23b872dd","unallocateStabilizerFunds(uint256,(uint256,uint8,uint256))":"ff70fa64","yieldFactorAtLastSnapshot()":"07c548de"},"storageLayout":{"storage":[{"astId":52508,"contract":"src/StabilizerNFT.sol:StabilizerNFT","label":"positions","offset":0,"slot":"0","type":"t_mapping(t_uint256,t_struct(StabilizerPosition)52503_storage)"},{"astId":52510,"contract":"src/StabilizerNFT.sol:StabilizerNFT","label":"lowestUnallocatedId","offset":0,"slot":"1","type":"t_uint256"},{"astId":52512,"contract":"src/StabilizerNFT.sol:StabilizerNFT","label":"highestUnallocatedId","offset":0,"slot":"2","type":"t_uint256"},{"astId":52514,"contract":"src/StabilizerNFT.sol:StabilizerNFT","label":"lowestAllocatedId","offset":0,"slot":"3","type":"t_uint256"},{"astId":52516,"contract":"src/StabilizerNFT.sol:StabilizerNFT","label":"highestAllocatedId","offset":0,"slot":"4","type":"t_uint256"},{"astId":52519,"contract":"src/StabilizerNFT.sol:StabilizerNFT","label":"cuspdToken","offset":0,"slot":"5","type":"t_contract(IcUSPDToken)56229"},{"astId":52521,"contract":"src/StabilizerNFT.sol:StabilizerNFT","label":"stETH","offset":0,"slot":"6","type":"t_address"},{"astId":52523,"contract":"src/StabilizerNFT.sol:StabilizerNFT","label":"lido","offset":0,"slot":"7","type":"t_address"},{"astId":52526,"contract":"src/StabilizerNFT.sol:StabilizerNFT","label":"rateContract","offset":0,"slot":"8","type":"t_contract(IPoolSharesConversionRate)55918"},{"astId":52530,"contract":"src/StabilizerNFT.sol:StabilizerNFT","label":"stabilizerEscrows","offset":0,"slot":"9","type":"t_mapping(t_uint256,t_address)"},{"astId":52534,"contract":"src/StabilizerNFT.sol:StabilizerNFT","label":"positionEscrows","offset":0,"slot":"10","type":"t_mapping(t_uint256,t_address)"},{"astId":52536,"contract":"src/StabilizerNFT.sol:StabilizerNFT","label":"totalEthEquivalentAtLastSnapshot","offset":0,"slot":"11","type":"t_uint256"},{"astId":52538,"contract":"src/StabilizerNFT.sol:StabilizerNFT","label":"yieldFactorAtLastSnapshot","offset":0,"slot":"12","type":"t_uint256"}],"types":{"t_address":{"encoding":"inplace","label":"address","numberOfBytes":"20"},"t_contract(IPoolSharesConversionRate)55918":{"encoding":"inplace","label":"contract IPoolSharesConversionRate","numberOfBytes":"20"},"t_contract(IcUSPDToken)56229":{"encoding":"inplace","label":"contract IcUSPDToken","numberOfBytes":"20"},"t_mapping(t_uint256,t_address)":{"encoding":"mapping","key":"t_uint256","label":"mapping(uint256 => address)","numberOfBytes":"32","value":"t_address"},"t_mapping(t_uint256,t_struct(StabilizerPosition)52503_storage)":{"encoding":"mapping","key":"t_uint256","label":"mapping(uint256 => struct StabilizerNFT.StabilizerPosition)","numberOfBytes":"32","value":"t_struct(StabilizerPosition)52503_storage"},"t_struct(StabilizerPosition)52503_storage":{"encoding":"inplace","label":"struct StabilizerNFT.StabilizerPosition","numberOfBytes":"160","members":[{"astId":52494,"contract":"src/StabilizerNFT.sol:StabilizerNFT","label":"minCollateralRatio","offset":0,"slot":"0","type":"t_uint256"},{"astId":52496,"contract":"src/StabilizerNFT.sol:StabilizerNFT","label":"prevUnallocated","offset":0,"slot":"1","type":"t_uint256"},{"astId":52498,"contract":"src/StabilizerNFT.sol:StabilizerNFT","label":"nextUnallocated","offset":0,"slot":"2","type":"t_uint256"},{"astId":52500,"contract":"src/StabilizerNFT.sol:StabilizerNFT","label":"prevAllocated","offset":0,"slot":"3","type":"t_uint256"},{"astId":52502,"contract":"src/StabilizerNFT.sol:StabilizerNFT","label":"nextAllocated","offset":0,"slot":"4","type":"t_uint256"}]},"t_uint256":{"encoding":"inplace","label":"uint256","numberOfBytes":"32"}}},"id":71}