{"abi":[{"type":"constructor","inputs":[],"stateMutability":"nonpayable"},{"type":"receive","stateMutability":"payable"},{"type":"function","name":"DEFAULT_ADMIN_ROLE","inputs":[],"outputs":[{"name":"","type":"bytes32","internalType":"bytes32"}],"stateMutability":"view"},{"type":"function","name":"FACTOR_PRECISION","inputs":[],"outputs":[{"name":"","type":"uint256","internalType":"uint256"}],"stateMutability":"view"},{"type":"function","name":"MINTER_ROLE","inputs":[],"outputs":[{"name":"","type":"bytes32","internalType":"bytes32"}],"stateMutability":"view"},{"type":"function","name":"MIN_GAS","inputs":[],"outputs":[{"name":"","type":"uint256","internalType":"uint256"}],"stateMutability":"view"},{"type":"function","name":"POSITION_ESCROW_ROLE","inputs":[],"outputs":[{"name":"","type":"bytes32","internalType":"bytes32"}],"stateMutability":"view"},{"type":"function","name":"addUnallocatedFundsEth","inputs":[{"name":"tokenId","type":"uint256","internalType":"uint256"}],"outputs":[],"stateMutability":"payable"},{"type":"function","name":"addUnallocatedFundsStETH","inputs":[{"name":"tokenId","type":"uint256","internalType":"uint256"},{"name":"stETHAmount","type":"uint256","internalType":"uint256"}],"outputs":[],"stateMutability":"nonpayable"},{"type":"function","name":"allocateStabilizerFunds","inputs":[{"name":"ethUsdPrice","type":"uint256","internalType":"uint256"},{"name":"priceDecimals","type":"uint256","internalType":"uint256"}],"outputs":[{"name":"result","type":"tuple","internalType":"struct IStabilizerNFT.AllocationResult","components":[{"name":"allocatedEth","type":"uint256","internalType":"uint256"},{"name":"totalEthEquivalentAdded","type":"uint256","internalType":"uint256"}]}],"stateMutability":"payable"},{"type":"function","name":"approve","inputs":[{"name":"to","type":"address","internalType":"address"},{"name":"tokenId","type":"uint256","internalType":"uint256"}],"outputs":[],"stateMutability":"nonpayable"},{"type":"function","name":"balanceOf","inputs":[{"name":"owner","type":"address","internalType":"address"}],"outputs":[{"name":"","type":"uint256","internalType":"uint256"}],"stateMutability":"view"},{"type":"function","name":"baseURI","inputs":[],"outputs":[{"name":"","type":"string","internalType":"string"}],"stateMutability":"view"},{"type":"function","name":"cuspdToken","inputs":[],"outputs":[{"name":"","type":"address","internalType":"contract IcUSPDToken"}],"stateMutability":"view"},{"type":"function","name":"getApproved","inputs":[{"name":"tokenId","type":"uint256","internalType":"uint256"}],"outputs":[{"name":"","type":"address","internalType":"address"}],"stateMutability":"view"},{"type":"function","name":"getMinCollateralRatio","inputs":[{"name":"tokenId","type":"uint256","internalType":"uint256"}],"outputs":[{"name":"","type":"uint256","internalType":"uint256"}],"stateMutability":"view"},{"type":"function","name":"getRoleAdmin","inputs":[{"name":"role","type":"bytes32","internalType":"bytes32"}],"outputs":[{"name":"","type":"bytes32","internalType":"bytes32"}],"stateMutability":"view"},{"type":"function","name":"grantRole","inputs":[{"name":"role","type":"bytes32","internalType":"bytes32"},{"name":"account","type":"address","internalType":"address"}],"outputs":[],"stateMutability":"nonpayable"},{"type":"function","name":"hasRole","inputs":[{"name":"role","type":"bytes32","internalType":"bytes32"},{"name":"account","type":"address","internalType":"address"}],"outputs":[{"name":"","type":"bool","internalType":"bool"}],"stateMutability":"view"},{"type":"function","name":"highestAllocatedId","inputs":[],"outputs":[{"name":"","type":"uint256","internalType":"uint256"}],"stateMutability":"view"},{"type":"function","name":"highestUnallocatedId","inputs":[],"outputs":[{"name":"","type":"uint256","internalType":"uint256"}],"stateMutability":"view"},{"type":"function","name":"initialize","inputs":[{"name":"_cuspdToken","type":"address","internalType":"address"},{"name":"_stETH","type":"address","internalType":"address"},{"name":"_lido","type":"address","internalType":"address"},{"name":"_rateContract","type":"address","internalType":"address"},{"name":"_reporterAddress","type":"address","internalType":"address"},{"name":"_insuranceEscrowAddress","type":"address","internalType":"address"},{"name":"_baseURI","type":"string","internalType":"string"},{"name":"_stabilizerEscrowImpl","type":"address","internalType":"address"},{"name":"_positionEscrowImpl","type":"address","internalType":"address"},{"name":"_admin","type":"address","internalType":"address"}],"outputs":[],"stateMutability":"nonpayable"},{"type":"function","name":"insuranceEscrow","inputs":[],"outputs":[{"name":"","type":"address","internalType":"contract IInsuranceEscrow"}],"stateMutability":"view"},{"type":"function","name":"isApprovedForAll","inputs":[{"name":"owner","type":"address","internalType":"address"},{"name":"operator","type":"address","internalType":"address"}],"outputs":[{"name":"","type":"bool","internalType":"bool"}],"stateMutability":"view"},{"type":"function","name":"lido","inputs":[],"outputs":[{"name":"","type":"address","internalType":"address"}],"stateMutability":"view"},{"type":"function","name":"liquidatePosition","inputs":[{"name":"liquidatorTokenId","type":"uint256","internalType":"uint256"},{"name":"positionTokenId","type":"uint256","internalType":"uint256"},{"name":"cuspdSharesToLiquidate","type":"uint256","internalType":"uint256"},{"name":"priceQuery","type":"tuple","internalType":"struct IPriceOracle.PriceAttestationQuery","components":[{"name":"price","type":"uint256","internalType":"uint256"},{"name":"decimals","type":"uint8","internalType":"uint8"},{"name":"dataTimestamp","type":"uint256","internalType":"uint256"},{"name":"assetPair","type":"bytes32","internalType":"bytes32"},{"name":"signature","type":"bytes","internalType":"bytes"}]}],"outputs":[],"stateMutability":"nonpayable"},{"type":"function","name":"liquidationLiquidatorPayoutPercent","inputs":[],"outputs":[{"name":"","type":"uint256","internalType":"uint256"}],"stateMutability":"view"},{"type":"function","name":"lowestAllocatedId","inputs":[],"outputs":[{"name":"","type":"uint256","internalType":"uint256"}],"stateMutability":"view"},{"type":"function","name":"lowestUnallocatedId","inputs":[],"outputs":[{"name":"","type":"uint256","internalType":"uint256"}],"stateMutability":"view"},{"type":"function","name":"mint","inputs":[{"name":"to","type":"address","internalType":"address"},{"name":"tokenId","type":"uint256","internalType":"uint256"}],"outputs":[],"stateMutability":"nonpayable"},{"type":"function","name":"name","inputs":[],"outputs":[{"name":"","type":"string","internalType":"string"}],"stateMutability":"view"},{"type":"function","name":"ownerOf","inputs":[{"name":"tokenId","type":"uint256","internalType":"uint256"}],"outputs":[{"name":"","type":"address","internalType":"address"}],"stateMutability":"view"},{"type":"function","name":"positionEscrowImplementation","inputs":[],"outputs":[{"name":"","type":"address","internalType":"address"}],"stateMutability":"view"},{"type":"function","name":"positionEscrows","inputs":[{"name":"","type":"uint256","internalType":"uint256"}],"outputs":[{"name":"","type":"address","internalType":"address"}],"stateMutability":"view"},{"type":"function","name":"positions","inputs":[{"name":"","type":"uint256","internalType":"uint256"}],"outputs":[{"name":"minCollateralRatio","type":"uint256","internalType":"uint256"},{"name":"prevUnallocated","type":"uint256","internalType":"uint256"},{"name":"nextUnallocated","type":"uint256","internalType":"uint256"},{"name":"prevAllocated","type":"uint256","internalType":"uint256"},{"name":"nextAllocated","type":"uint256","internalType":"uint256"}],"stateMutability":"view"},{"type":"function","name":"rateContract","inputs":[],"outputs":[{"name":"","type":"address","internalType":"contract IPoolSharesConversionRate"}],"stateMutability":"view"},{"type":"function","name":"removeUnallocatedFunds","inputs":[{"name":"tokenId","type":"uint256","internalType":"uint256"},{"name":"stETHAmount","type":"uint256","internalType":"uint256"}],"outputs":[],"stateMutability":"nonpayable"},{"type":"function","name":"renounceRole","inputs":[{"name":"role","type":"bytes32","internalType":"bytes32"},{"name":"callerConfirmation","type":"address","internalType":"address"}],"outputs":[],"stateMutability":"nonpayable"},{"type":"function","name":"reportCollateralAddition","inputs":[{"name":"stEthAmount","type":"uint256","internalType":"uint256"}],"outputs":[],"stateMutability":"nonpayable"},{"type":"function","name":"reportCollateralRemoval","inputs":[{"name":"stEthAmount","type":"uint256","internalType":"uint256"}],"outputs":[],"stateMutability":"nonpayable"},{"type":"function","name":"reporter","inputs":[],"outputs":[{"name":"","type":"address","internalType":"contract IOvercollateralizationReporter"}],"stateMutability":"view"},{"type":"function","name":"revokeRole","inputs":[{"name":"role","type":"bytes32","internalType":"bytes32"},{"name":"account","type":"address","internalType":"address"}],"outputs":[],"stateMutability":"nonpayable"},{"type":"function","name":"safeTransferFrom","inputs":[{"name":"from","type":"address","internalType":"address"},{"name":"to","type":"address","internalType":"address"},{"name":"tokenId","type":"uint256","internalType":"uint256"}],"outputs":[],"stateMutability":"nonpayable"},{"type":"function","name":"safeTransferFrom","inputs":[{"name":"from","type":"address","internalType":"address"},{"name":"to","type":"address","internalType":"address"},{"name":"tokenId","type":"uint256","internalType":"uint256"},{"name":"data","type":"bytes","internalType":"bytes"}],"outputs":[],"stateMutability":"nonpayable"},{"type":"function","name":"setApprovalForAll","inputs":[{"name":"operator","type":"address","internalType":"address"},{"name":"approved","type":"bool","internalType":"bool"}],"outputs":[],"stateMutability":"nonpayable"},{"type":"function","name":"setBaseURI","inputs":[{"name":"newBaseURI","type":"string","internalType":"string"}],"outputs":[],"stateMutability":"nonpayable"},{"type":"function","name":"setInsuranceEscrow","inputs":[{"name":"_insuranceEscrowAddress","type":"address","internalType":"address"}],"outputs":[],"stateMutability":"nonpayable"},{"type":"function","name":"setLiquidationParameters","inputs":[{"name":"_payoutPercent","type":"uint256","internalType":"uint256"}],"outputs":[],"stateMutability":"nonpayable"},{"type":"function","name":"setMinCollateralizationRatio","inputs":[{"name":"tokenId","type":"uint256","internalType":"uint256"},{"name":"newRatio","type":"uint256","internalType":"uint256"}],"outputs":[],"stateMutability":"nonpayable"},{"type":"function","name":"stETH","inputs":[],"outputs":[{"name":"","type":"address","internalType":"address"}],"stateMutability":"view"},{"type":"function","name":"stabilizerEscrowImplementation","inputs":[],"outputs":[{"name":"","type":"address","internalType":"address"}],"stateMutability":"view"},{"type":"function","name":"stabilizerEscrows","inputs":[{"name":"","type":"uint256","internalType":"uint256"}],"outputs":[{"name":"","type":"address","internalType":"address"}],"stateMutability":"view"},{"type":"function","name":"supportsInterface","inputs":[{"name":"interfaceId","type":"bytes4","internalType":"bytes4"}],"outputs":[{"name":"","type":"bool","internalType":"bool"}],"stateMutability":"view"},{"type":"function","name":"symbol","inputs":[],"outputs":[{"name":"","type":"string","internalType":"string"}],"stateMutability":"view"},{"type":"function","name":"tokenByIndex","inputs":[{"name":"index","type":"uint256","internalType":"uint256"}],"outputs":[{"name":"","type":"uint256","internalType":"uint256"}],"stateMutability":"view"},{"type":"function","name":"tokenOfOwnerByIndex","inputs":[{"name":"owner","type":"address","internalType":"address"},{"name":"index","type":"uint256","internalType":"uint256"}],"outputs":[{"name":"","type":"uint256","internalType":"uint256"}],"stateMutability":"view"},{"type":"function","name":"tokenURI","inputs":[{"name":"tokenId","type":"uint256","internalType":"uint256"}],"outputs":[{"name":"","type":"string","internalType":"string"}],"stateMutability":"view"},{"type":"function","name":"totalSupply","inputs":[],"outputs":[{"name":"","type":"uint256","internalType":"uint256"}],"stateMutability":"view"},{"type":"function","name":"transferFrom","inputs":[{"name":"from","type":"address","internalType":"address"},{"name":"to","type":"address","internalType":"address"},{"name":"tokenId","type":"uint256","internalType":"uint256"}],"outputs":[],"stateMutability":"nonpayable"},{"type":"function","name":"unallocateStabilizerFunds","inputs":[{"name":"poolSharesToUnallocate","type":"uint256","internalType":"uint256"},{"name":"priceResponse","type":"tuple","internalType":"struct IPriceOracle.PriceResponse","components":[{"name":"price","type":"uint256","internalType":"uint256"},{"name":"decimals","type":"uint8","internalType":"uint8"},{"name":"timestamp","type":"uint256","internalType":"uint256"}]}],"outputs":[{"name":"unallocatedEth","type":"uint256","internalType":"uint256"}],"stateMutability":"nonpayable"},{"type":"event","name":"Approval","inputs":[{"name":"owner","type":"address","indexed":true,"internalType":"address"},{"name":"approved","type":"address","indexed":true,"internalType":"address"},{"name":"tokenId","type":"uint256","indexed":true,"internalType":"uint256"}],"anonymous":false},{"type":"event","name":"ApprovalForAll","inputs":[{"name":"owner","type":"address","indexed":true,"internalType":"address"},{"name":"operator","type":"address","indexed":true,"internalType":"address"},{"name":"approved","type":"bool","indexed":false,"internalType":"bool"}],"anonymous":false},{"type":"event","name":"FundsAllocated","inputs":[{"name":"tokenId","type":"uint256","indexed":true,"internalType":"uint256"},{"name":"stabilizersAmount","type":"uint256","indexed":false,"internalType":"uint256"},{"name":"usersAmount","type":"uint256","indexed":false,"internalType":"uint256"}],"anonymous":false},{"type":"event","name":"FundsUnallocated","inputs":[{"name":"tokenId","type":"uint256","indexed":true,"internalType":"uint256"},{"name":"userStEthAmount","type":"uint256","indexed":false,"internalType":"uint256"},{"name":"stabilizerStEthAmount","type":"uint256","indexed":false,"internalType":"uint256"}],"anonymous":false},{"type":"event","name":"Initialized","inputs":[{"name":"version","type":"uint64","indexed":false,"internalType":"uint64"}],"anonymous":false},{"type":"event","name":"InsuranceEscrowUpdated","inputs":[{"name":"newInsuranceEscrow","type":"address","indexed":true,"internalType":"address"}],"anonymous":false},{"type":"event","name":"LiquidationParametersUpdated","inputs":[{"name":"newPayoutPercent","type":"uint256","indexed":false,"internalType":"uint256"}],"anonymous":false},{"type":"event","name":"MinCollateralRatioUpdated","inputs":[{"name":"tokenId","type":"uint256","indexed":true,"internalType":"uint256"},{"name":"oldRatio","type":"uint256","indexed":false,"internalType":"uint256"},{"name":"newRatio","type":"uint256","indexed":false,"internalType":"uint256"}],"anonymous":false},{"type":"event","name":"PositionLiquidated","inputs":[{"name":"positionTokenId","type":"uint256","indexed":true,"internalType":"uint256"},{"name":"liquidator","type":"address","indexed":true,"internalType":"address"},{"name":"liquidatorTokenId","type":"uint256","indexed":false,"internalType":"uint256"},{"name":"cuspdSharesLiquidated","type":"uint256","indexed":false,"internalType":"uint256"},{"name":"stEthPaidToLiquidator","type":"uint256","indexed":false,"internalType":"uint256"},{"name":"priceUsed","type":"uint256","indexed":false,"internalType":"uint256"},{"name":"thresholdUsed","type":"uint256","indexed":false,"internalType":"uint256"}],"anonymous":false},{"type":"event","name":"RoleAdminChanged","inputs":[{"name":"role","type":"bytes32","indexed":true,"internalType":"bytes32"},{"name":"previousAdminRole","type":"bytes32","indexed":true,"internalType":"bytes32"},{"name":"newAdminRole","type":"bytes32","indexed":true,"internalType":"bytes32"}],"anonymous":false},{"type":"event","name":"RoleGranted","inputs":[{"name":"role","type":"bytes32","indexed":true,"internalType":"bytes32"},{"name":"account","type":"address","indexed":true,"internalType":"address"},{"name":"sender","type":"address","indexed":true,"internalType":"address"}],"anonymous":false},{"type":"event","name":"RoleRevoked","inputs":[{"name":"role","type":"bytes32","indexed":true,"internalType":"bytes32"},{"name":"account","type":"address","indexed":true,"internalType":"address"},{"name":"sender","type":"address","indexed":true,"internalType":"address"}],"anonymous":false},{"type":"event","name":"StabilizerPositionCreated","inputs":[{"name":"tokenId","type":"uint256","indexed":true,"internalType":"uint256"},{"name":"owner","type":"address","indexed":true,"internalType":"address"}],"anonymous":false},{"type":"event","name":"Transfer","inputs":[{"name":"from","type":"address","indexed":true,"internalType":"address"},{"name":"to","type":"address","indexed":true,"internalType":"address"},{"name":"tokenId","type":"uint256","indexed":true,"internalType":"uint256"}],"anonymous":false},{"type":"event","name":"UnallocatedFundsAdded","inputs":[{"name":"tokenId","type":"uint256","indexed":true,"internalType":"uint256"},{"name":"asset","type":"address","indexed":false,"internalType":"address"},{"name":"amount","type":"uint256","indexed":false,"internalType":"uint256"}],"anonymous":false},{"type":"event","name":"UnallocatedFundsRemoved","inputs":[{"name":"tokenId","type":"uint256","indexed":true,"internalType":"uint256"},{"name":"amount","type":"uint256","indexed":false,"internalType":"uint256"},{"name":"recipient","type":"address","indexed":true,"internalType":"address"}],"anonymous":false},{"type":"error","name":"AccessControlBadConfirmation","inputs":[]},{"type":"error","name":"AccessControlUnauthorizedAccount","inputs":[{"name":"account","type":"address","internalType":"address"},{"name":"neededRole","type":"bytes32","internalType":"bytes32"}]},{"type":"error","name":"ERC721EnumerableForbiddenBatchMint","inputs":[]},{"type":"error","name":"ERC721IncorrectOwner","inputs":[{"name":"sender","type":"address","internalType":"address"},{"name":"tokenId","type":"uint256","internalType":"uint256"},{"name":"owner","type":"address","internalType":"address"}]},{"type":"error","name":"ERC721InsufficientApproval","inputs":[{"name":"operator","type":"address","internalType":"address"},{"name":"tokenId","type":"uint256","internalType":"uint256"}]},{"type":"error","name":"ERC721InvalidApprover","inputs":[{"name":"approver","type":"address","internalType":"address"}]},{"type":"error","name":"ERC721InvalidOperator","inputs":[{"name":"operator","type":"address","internalType":"address"}]},{"type":"error","name":"ERC721InvalidOwner","inputs":[{"name":"owner","type":"address","internalType":"address"}]},{"type":"error","name":"ERC721InvalidReceiver","inputs":[{"name":"receiver","type":"address","internalType":"address"}]},{"type":"error","name":"ERC721InvalidSender","inputs":[{"name":"sender","type":"address","internalType":"address"}]},{"type":"error","name":"ERC721NonexistentToken","inputs":[{"name":"tokenId","type":"uint256","internalType":"uint256"}]},{"type":"error","name":"ERC721OutOfBoundsIndex","inputs":[{"name":"owner","type":"address","internalType":"address"},{"name":"index","type":"uint256","internalType":"uint256"}]},{"type":"error","name":"FailedDeployment","inputs":[]},{"type":"error","name":"InsufficientBalance","inputs":[{"name":"balance","type":"uint256","internalType":"uint256"},{"name":"needed","type":"uint256","internalType":"uint256"}]},{"type":"error","name":"InvalidInitialization","inputs":[]},{"type":"error","name":"NotInitializing","inputs":[]}],"bytecode":{"object":"0x6080604052348015600e575f5ffd5b5060156019565b60c9565b7ff0c57e16840df040f15088dc2f81fe391c3923bec73e23a9662efc9c229c6a00805468010000000000000000900460ff161560685760405163f92ee8a960e01b815260040160405180910390fd5b80546001600160401b039081161460c65780546001600160401b0319166001600160401b0390811782556040519081527fc7f505b2f371ae2175ee4913f4499e1f2633a7b5936321eed1cdaeb6115181d29060200160405180910390a15b50565b615caf806100d65f395ff3fe608060405260043610610374575f3560e01c80637da31f61116101c8578063bb310a80116100fd578063d547741f1161009d578063e985e9c51161006d578063e985e9c514610a83578063eee2421914610aa2578063f399beb714610ac1578063ff70fa6414610ad4575f5ffd5b8063d547741f14610a11578063d743fd1e14610a30578063d923038914610a45578063e96d578714610a64575f5ffd5b8063bdb35bf2116100d8578063bdb35bf214610981578063c1fe3e48146109a0578063c87b56dd146109bf578063d5391393146109de575f5ffd5b8063bb310a801461090f578063bb5662971461092e578063bba6fd6f1461094d575f5ffd5b8063a04ad51211610168578063a42c69a911610143578063a42c69a914610897578063ae88a779146108b2578063b10114d3146108d1578063b88d4fde146108f0575f5ffd5b8063a04ad51214610831578063a217fddf14610865578063a22cb46514610878575f5ffd5b806391d14854116101a357806391d1485414610779578063921333621461079857806395d89b41146107ad57806399fbab88146107c1575f5ffd5b80637da31f6114610725578063853cad06146107445780638d7cac7b14610759575f5ffd5b806336568abe116102a95780634f6ccce7116102495780636bc05b7e116102195780636bc05b7e146106b45780636c0360eb146106d357806370a08231146106e75780637122bcc314610706575f5ffd5b80634f6ccce71461063857806355f804b3146106575780636352211e1461067657806367bff4a814610695575f5ffd5b806342842e0e1161028457806342842e0e146105b7578063451fda68146105d65780634d87a1f2146106045780634e027fe914610623575f5ffd5b806336568abe1461055a578063391120581461057957806340c10f1914610598575f5ffd5b806320d2c95111610314578063248a9ca3116102ef578063248a9ca3146104e85780632995bc50146105075780632f2ff15d1461051c5780632f745c591461053b575f5ffd5b806320d2c9511461049457806323509a2d146104aa57806323b872dd146104c9575f5ffd5b806306fdde031161034f57806306fdde031461040b578063081812fc1461042c578063095ea7b31461044b57806318160ddd1461046a575f5ffd5b8063010ec4411461037f57806301aa0b1a146103bb57806301ffc9a7146103dc575f5ffd5b3661037b57005b5f5ffd5b34801561038a575f5ffd5b5060065461039e906001600160a01b031681565b6040516001600160a01b0390911681526020015b60405180910390f35b3480156103c6575f5ffd5b506103da6103d536600461519c565b610af3565b005b3480156103e7575f5ffd5b506103fb6103f63660046151d1565b610c27565b60405190151581526020016103b2565b348015610416575f5ffd5b5061041f610c37565b6040516103b2919061521a565b348015610437575f5ffd5b5061039e61044636600461522c565b610cd8565b348015610456575f5ffd5b506103da610465366004615267565b610cec565b348015610475575f5ffd5b505f516020615c3a5f395f51905f52545b6040519081526020016103b2565b34801561049f575f5ffd5b50610486620186a081565b3480156104b5575f5ffd5b50600a5461039e906001600160a01b031681565b3480156104d4575f5ffd5b506103da6104e3366004615291565b610cfb565b3480156104f3575f5ffd5b5061048661050236600461522c565b610d84565b348015610512575f5ffd5b5061048660035481565b348015610527575f5ffd5b506103da6105363660046152cf565b610da4565b348015610546575f5ffd5b50610486610555366004615267565b610dc0565b348015610565575f5ffd5b506103da6105743660046152cf565b610e23565b348015610584575f5ffd5b506103da61059336600461522c565b610e5b565b3480156105a3575f5ffd5b506103da6105b2366004615267565b610fad565b3480156105c2575f5ffd5b506103da6105d1366004615291565b6113df565b6105e96105e436600461519c565b6113f9565b604080518251815260209283015192810192909252016103b2565b34801561060f575f5ffd5b5060075461039e906001600160a01b031681565b34801561062e575f5ffd5b5061048660085481565b348015610643575f5ffd5b5061048661065236600461522c565b611b72565b348015610662575f5ffd5b506103da6106713660046153cf565b611bdf565b348015610681575f5ffd5b5061039e61069036600461522c565b611bf5565b3480156106a0575f5ffd5b506103da6106af36600461522c565b611bff565b3480156106bf575f5ffd5b5060055461039e906001600160a01b031681565b3480156106de575f5ffd5b5061041f611d15565b3480156106f2575f5ffd5b50610486610701366004615401565b611da1565b348015610711575f5ffd5b506103da610720366004615401565b611df9565b348015610730575f5ffd5b50600c5461039e906001600160a01b031681565b34801561074f575f5ffd5b5061048660015481565b348015610764575f5ffd5b506104865f516020615c1a5f395f51905f5281565b348015610784575f5ffd5b506103fb6107933660046152cf565b611ea3565b3480156107a3575f5ffd5b5061048660025481565b3480156107b8575f5ffd5b5061041f611ed9565b3480156107cc575f5ffd5b506108096107db36600461522c565b5f60208190529081526040902080546001820154600283015460038401546004909401549293919290919085565b604080519586526020860194909452928401919091526060830152608082015260a0016103b2565b34801561083c575f5ffd5b5061039e61084b36600461522c565b600f6020525f90815260409020546001600160a01b031681565b348015610870575f5ffd5b506104865f81565b348015610883575f5ffd5b506103da610892366004615429565b611f17565b3480156108a2575f5ffd5b50610486670de0b6b3a764000081565b3480156108bd575f5ffd5b506103da6108cc36600461519c565b611f22565b3480156108dc575f5ffd5b506103da6108eb36600461522c565b6120ce565b3480156108fb575f5ffd5b506103da61090a366004615455565b612165565b34801561091a575f5ffd5b5061048661092936600461522c565b61217d565b348015610939575f5ffd5b506103da61094836600461519c565b6121e7565b348015610958575f5ffd5b5061039e61096736600461522c565b600e6020525f90815260409020546001600160a01b031681565b34801561098c575f5ffd5b506103da61099b3660046154d0565b612364565b3480156109ab575f5ffd5b5060095461039e906001600160a01b031681565b3480156109ca575f5ffd5b5061041f6109d936600461522c565b6131a2565b3480156109e9575f5ffd5b506104867f9f2df0fed2c77648de5860a4cc508cd0818c85b8b8a1ab4ceeef8d981c8956a681565b348015610a1c575f5ffd5b506103da610a2b3660046152cf565b6132de565b348015610a3b575f5ffd5b5061048660045481565b348015610a50575f5ffd5b506103da610a5f36600461552a565b6132fa565b348015610a6f575f5ffd5b50600d5461039e906001600160a01b031681565b348015610a8e575f5ffd5b506103fb610a9d366004615600565b613612565b348015610aad575f5ffd5b50600b5461039e906001600160a01b031681565b6103da610acf36600461522c565b61365e565b348015610adf575f5ffd5b50610486610aee36600461563a565b613796565b33610afd83611bf5565b6001600160a01b031614610b2c5760405162461bcd60e51b8152600401610b2390615697565b60405180910390fd5b612af8811015610b7e5760405162461bcd60e51b815260206004820152601e60248201527f526174696f206d757374206265206174206c65617374203131302e30302500006044820152606401610b23565b620186a0811115610bd15760405162461bcd60e51b815260206004820152601c60248201527f526174696f2063616e6e6f742065786365656420313030302e303025000000006044820152606401610b23565b5f8281526020818152604091829020805484825583518181529283018590529092909185917f3e82d134b4a0328de7223eb1ae194d98009405cb6b8dc9c3d6bd70eb3aeb5c94910160405180910390a250505050565b5f610c3182613e16565b92915050565b5f516020615bfa5f395f51905f528054606091908190610c56906156c0565b80601f0160208091040260200160405190810160405280929190818152602001828054610c82906156c0565b8015610ccd5780601f10610ca457610100808354040283529160200191610ccd565b820191905f5260205f20905b815481529060010190602001808311610cb057829003601f168201915b505050505091505090565b5f610ce282613e3a565b50610c3182613e71565b610cf7828233613eaa565b5050565b6001600160a01b038216610d2457604051633250574960e11b81525f6004820152602401610b23565b5f610d30838333613eb7565b9050836001600160a01b0316816001600160a01b031614610d7e576040516364283d7b60e01b81526001600160a01b0380861660048301526024820184905282166044820152606401610b23565b50505050565b5f9081525f516020615c5a5f395f51905f52602052604090206001015490565b610dad82610d84565b610db681613ecb565b610d7e8383613ed8565b5f5f516020615bda5f395f51905f52610dd884611da1565b8310610dfb57838360405163295f44f760e21b8152600401610b239291906156f8565b6001600160a01b0384165f908152602091825260408082208583529092522054905092915050565b6001600160a01b0381163314610e4c5760405163334bd91960e11b815260040160405180910390fd5b610e568282613f79565b505050565b5f516020615c1a5f395f51905f52610e7281613ecb565b8115610cf757600b546040805163efa7fa5d60e01b815290515f926001600160a01b03169163efa7fa5d9160048083019260209291908290030181865afa158015610ebf573d5f5f3e3d5ffd5b505050506040513d601f19601f82011682018060405250810190610ee39190615711565b90505f8111610f435760405162461bcd60e51b815260206004820152602660248201527f5969656c6420666163746f72207a65726f20647572696e67207265706f72742060448201526572656d6f766560d01b6064820152608401610b23565b6006546001600160a01b031663f6ff3ee8610f5d8561573c565b6040518263ffffffff1660e01b8152600401610f7b91815260200190565b5f604051808303815f87803b158015610f92575f5ffd5b505af1158015610fa4573d5f5f3e3d5ffd5b50505050505050565b7f9f2df0fed2c77648de5860a4cc508cd0818c85b8b8a1ab4ceeef8d981c8956a6610fd781613ecb565b6040805160a081018252612af881525f60208083018281528385018381526060850184815260808601858152898652938590529590932093518455516001840155905160028301559151600382015590516004909101556110388383613ff2565b6040516001600160a01b0384169083907f6474509949d7dca0e17a8cf02aeb66814967a3c7adbfefc212edb6e6693b6865905f90a3600c546001600160a01b03166110c55760405162461bcd60e51b815260206004820152601d60248201527f53746162696c697a6572457363726f7720696d706c206e6f74207365740000006044820152606401610b23565b600d546001600160a01b031661111d5760405162461bcd60e51b815260206004820152601b60248201527f506f736974696f6e457363726f7720696d706c206e6f742073657400000000006044820152606401610b23565b600c545f90611134906001600160a01b031661400b565b90506001600160a01b03811661118c5760405162461bcd60e51b815260206004820152601d60248201527f53746162696c697a6572457363726f7720636c6f6e65206661696c65640000006044820152606401610b23565b600954600a546040516306b0729b60e31b8152306004820152602481018690526001600160a01b03928316604482015290821660648201529082169063358394d8906084015f604051808303815f87803b1580156111e8575f5ffd5b505af11580156111fa573d5f5f3e3d5ffd5b5050505f848152600e6020526040812080546001600160a01b0319166001600160a01b0385811691909117909155600d54919250611238911661400b565b90506001600160a01b0381166112905760405162461bcd60e51b815260206004820152601b60248201527f506f736974696f6e457363726f7720636c6f6e65206661696c656400000000006044820152606401610b23565b600954600a54600b54600554604080516307dc0d1d60e41b815290516001600160a01b038781169663cc2a9a5b9630968e9692841695918416949084169390921691637dc0d1d0916004808201926020929091908290030181865afa1580156112fb573d5f5f3e3d5ffd5b505050506040513d601f19601f8201168201806040525081019061131f9190615756565b60405160e088901b6001600160e01b03191681526001600160a01b0396871660048201529486166024860152928516604485015290841660648401528316608483015290911660a482015260c4015f604051808303815f87803b158015611384575f5ffd5b505af1158015611396573d5f5f3e3d5ffd5b5050505f858152600f6020526040902080546001600160a01b0319166001600160a01b038416179055506113d75f516020615c1a5f395f51905f5282613ed8565b505050505050565b610e5683838360405180602001604052805f815250612165565b604080518082019091525f80825260208201526005546001600160a01b0316331461145c5760405162461bcd60e51b815260206004820152601360248201527213db9b1e4818d554d4110818dbdb9d1c9858dd606a1b6044820152606401610b23565b6001545f036114a45760405162461bcd60e51b81526020600482015260146024820152734e6f20756e616c6c6f63617465642066756e647360601b6044820152606401610b23565b5f34116114e15760405162461bcd60e51b815260206004820152600b60248201526a139bc8115512081cd95b9d60aa1b6044820152606401610b23565b6001545f8083526020830152345b81158015906114fd57505f81115b15611ab857620186a05a10611ab8575f82815260208181526040808320600e909252909120546001600160a01b0316806115795760405162461bcd60e51b815260206004820152601f60248201527f457363726f77206e6f7420666f756e6420666f722073746162696c697a6572006044820152606401610b23565b5f816001600160a01b031663ec60b9ab6040518163ffffffff1660e01b8152600401602060405180830381865afa1580156115b6573d5f5f3e3d5ffd5b505050506040513d601f19601f820116820180604052508101906115da9190615711565b90508015806115e7575083155b156115f95750506002015491506114ef565b5f61271080855f015461160c9190615771565b6116169087615784565b61162091906157af565b90505f8282116116305781611632565b825b9050858282101561166f57855461164c9061271090615771565b61165883612710615784565b61166291906157af565b90508681111561166f5750855b5f888152600f60205260409020546001600160a01b0316806116ce5760405162461bcd60e51b8152602060048201526018602482015277141bdcda5d1a5bdb915cd8dc9bddc81b9bdd08199bdd5b9960421b6044820152606401610b23565b604051634f68ae7560e01b8152600481018490523060248201526001600160a01b03871690634f68ae75906044015f604051808303815f87803b158015611713575f5ffd5b505af1158015611725573d5f5f3e3d5ffd5b50506009546040516323b872dd60e01b81526001600160a01b038a811660048301528581166024830152604482018890525f945090911691506323b872dd906064016020604051808303815f875af1158015611783573d5f5f3e3d5ffd5b505050506040513d601f19601f820116820180604052508101906117a791906157c2565b9050806118115760405162461bcd60e51b815260206004820152603260248201527f53746162696c697a6572207374455448207472616e7366657220746f20506f736044820152711a5d1a5bdb915cd8dc9bddc819985a5b195960721b6064820152608401610b23565b60405163bf3fdde760e01b8152600481018590526001600160a01b0383169063bf3fdde79085906024015f604051808303818588803b158015611852575f5ffd5b505af1158015611864573d5f5f3e3d5ffd5b50505050505f8c600a61187791906158b8565b6118818f86615784565b61188b91906157af565b90505f600b5f9054906101000a90046001600160a01b03166001600160a01b031663efa7fa5d6040518163ffffffff1660e01b8152600401602060405180830381865afa1580156118de573d5f5f3e3d5ffd5b505050506040513d601f19601f820116820180604052508101906119029190615711565b90505f81600b5f9054906101000a90046001600160a01b03166001600160a01b031663a42c69a96040518163ffffffff1660e01b8152600401602060405180830381865afa158015611956573d5f5f3e3d5ffd5b505050506040513d601f19601f8201168201806040525081019061197a9190615711565b6119849085615784565b61198e91906157af565b6040516302ff41ff60e21b8152600481018290529091506001600160a01b03861690630bfd07fc906024015f604051808303815f87803b1580156119d0575f5ffd5b505af11580156119e2573d5f5f3e3d5ffd5b50505050858e5f018181516119f791906158c3565b905250611a04868d615771565b6040805189815260208101899052919d508e917fc0a79f21f196b4ee5a242474a85cb9aa5fc2ce59ecc884d7271f1c2bd19b9a13910160405180910390a260038b0154158015611a56575060048b0154155b8015611a6457508c60035414155b15611a7257611a728d614016565b611a7c87876158c3565b8e602001818151611a8d91906158c3565b90525060028b0154898803611aa557611aa58e6140f5565b9c506114ef9a5050505050505050505050565b8251611afb5760405162461bcd60e51b8152602060048201526012602482015271139bc8199d5b991cc8185b1b1bd8d85d195960721b6044820152606401610b23565b602083015115611b6a576006546020840151604051631edfe7dd60e31b81526001600160a01b039092169163f6ff3ee891611b3c9160040190815260200190565b5f604051808303815f87803b158015611b53575f5ffd5b505af1158015611b65573d5f5f3e3d5ffd5b505050505b505092915050565b5f5f516020615bda5f395f51905f52611b965f516020615c3a5f395f51905f525490565b8310611bb9575f8360405163295f44f760e21b8152600401610b239291906156f8565b806002018381548110611bce57611bce6158d6565b905f5260205f200154915050919050565b5f611be981613ecb565b6010610e56838261592e565b5f610c3182613e3a565b5f516020615c1a5f395f51905f52611c1681613ecb565b8115610cf757600b546040805163efa7fa5d60e01b815290515f926001600160a01b03169163efa7fa5d9160048083019260209291908290030181865afa158015611c63573d5f5f3e3d5ffd5b505050506040513d601f19601f82011682018060405250810190611c879190615711565b90505f8111611ce45760405162461bcd60e51b815260206004820152602360248201527f5969656c6420666163746f72207a65726f20647572696e67207265706f72742060448201526218591960ea1b6064820152608401610b23565b600654604051631edfe7dd60e31b8152600481018590526001600160a01b039091169063f6ff3ee890602401610f7b565b60108054611d22906156c0565b80601f0160208091040260200160405190810160405280929190818152602001828054611d4e906156c0565b8015611d995780601f10611d7057610100808354040283529160200191611d99565b820191905f5260205f20905b815481529060010190602001808311611d7c57829003601f168201915b505050505081565b5f5f516020615bfa5f395f51905f526001600160a01b038316611dd9576040516322718ad960e21b81525f6004820152602401610b23565b6001600160a01b039092165f908152600390920160205250604090205490565b5f611e0381613ecb565b6001600160a01b038216611e595760405162461bcd60e51b815260206004820181905260248201527f5a65726f206164647265737320666f7220496e737572616e6365457363726f776044820152606401610b23565b600780546001600160a01b0319166001600160a01b0384169081179091556040517fc742eb858a96cf01aa10a0d4654fbd16ec649171aa4f54b3efedcc59b4ec6eb7905f90a25050565b5f9182525f516020615c5a5f395f51905f52602090815260408084206001600160a01b0393909316845291905290205460ff1690565b7f80bb2b638cc20bc4d0a60d66940f3ab4a00c1d7b313497ca82fb0b4ab007930180546060915f516020615bfa5f395f51905f5291610c56906156c0565b610cf73383836141b5565b33611f2c83611bf5565b6001600160a01b031614611f525760405162461bcd60e51b8152600401610b2390615697565b5f8111611f9b5760405162461bcd60e51b8152602060048201526017602482015276416d6f756e74206d75737420626520706f73697469766560481b6044820152606401610b23565b5f828152600e60205260409020546001600160a01b031680611fcf5760405162461bcd60e51b8152600401610b23906159e9565b604051622a405560ea1b8152600481018390526001600160a01b0382169063a9015400906024015f604051808303815f87803b15801561200d575f5ffd5b505af115801561201f573d5f5f3e3d5ffd5b50505050806001600160a01b031663ec60b9ab6040518163ffffffff1660e01b8152600401602060405180830381865afa15801561205f573d5f5f3e3d5ffd5b505050506040513d601f19601f820116820180604052508101906120839190615711565b5f0361209257612092836140f5565b604051828152339084907f19c1c869dd7473a5f044067f579bac3244509e5680cb0c044bc60f0a8165f5699060200160405180910390a3505050565b5f6120d881613ecb565b60648210156121295760405162461bcd60e51b815260206004820152601d60248201527f5061796f75742070657263656e74206d757374206265203e3d203130300000006044820152606401610b23565b60088290556040518281527f6d699ae420033df20638cead3d3195a3de7db60c2f1ee78e9307d46979123a599060200160405180910390a15050565b612170848484610cfb565b610d7e3385858585614264565b5f8061218883611bf5565b6001600160a01b0316036121d55760405162461bcd60e51b8152602060048201526014602482015273151bdad95b88191bd95cc81b9bdd08195e1a5cdd60621b6044820152606401610b23565b505f9081526020819052604090205490565b336121f183611bf5565b6001600160a01b0316146122175760405162461bcd60e51b8152600401610b2390615697565b5f81116122605760405162461bcd60e51b8152602060048201526017602482015276416d6f756e74206d75737420626520706f73697469766560481b6044820152606401610b23565b5f828152600e60205260409020546001600160a01b0316806122945760405162461bcd60e51b8152600401610b23906159e9565b6009546040516323b872dd60e01b81523360048201526001600160a01b03838116602483015260448201859052909116906323b872dd906064016020604051808303815f875af11580156122ea573d5f5f3e3d5ffd5b505050506040513d601f19601f8201168201806040525081019061230e91906157c2565b506123188361438a565b60095460405184917f055b14c7efbc07d692265b907b52ec309741a29408ffad1d871aa6b371ac772991612357916001600160a01b03169086906156f8565b60405180910390a2505050565b6007546001600160a01b03166123bc5760405162461bcd60e51b815260206004820152601760248201527f496e737572616e6365457363726f77206e6f74207365740000000000000000006044820152606401610b23565b5f821161240b5760405162461bcd60e51b815260206004820152601c60248201527f4e6f2063555350442073686172657320746f206c6971756964617465000000006044820152606401610b23565b5f61241584611bf5565b6001600160a01b03160361246b5760405162461bcd60e51b815260206004820152601d60248201527f506f736974696f6e20746f6b656e20646f6573206e6f742065786973740000006044820152606401610b23565b83156124dd573361247b85611bf5565b6001600160a01b0316146124dd5760405162461bcd60e51b8152602060048201526024808201527f43616c6c657220646f6573206e6f74206f776e206c697175696461746f72207460448201526337b5b2b760e11b6064820152608401610b23565b5f838152600f60205260409020546001600160a01b03168061254c5760405162461bcd60e51b815260206004820152602260248201527f506f736974696f6e457363726f77206e6f7420666f756e6420666f7220746f6b60448201526132b760f11b6064820152608401610b23565b600554604080516307dc0d1d60e41b815290515f926001600160a01b031691637dc0d1d09160048083019260209291908290030181865afa158015612593573d5f5f3e3d5ffd5b505050506040513d601f19601f820116820180604052508101906125b79190615756565b6001600160a01b03166365ab8c71846040518263ffffffff1660e01b81526004016125e29190615a3b565b6060604051808303815f875af11580156125fe573d5f5f3e3d5ffd5b505050506040513d601f19601f820116820180604052508101906126229190615ad4565b90505f6001600160a01b031660055f9054906101000a90046001600160a01b03166001600160a01b0316637dc0d1d06040518163ffffffff1660e01b8152600401602060405180830381865afa15801561267e573d5f5f3e3d5ffd5b505050506040513d601f19601f820116820180604052508101906126a29190615756565b6001600160a01b0316036126f85760405162461bcd60e51b815260206004820152601c60248201527f4f7261636c65206e6f742073657420696e206355535044546f6b656e000000006044820152606401610b23565b805161273d5760405162461bcd60e51b8152602060048201526014602482015273496e76616c6964206f7261636c6520707269636560601b6044820152606401610b23565b816001600160a01b031663d39aa95a6040518163ffffffff1660e01b8152600401602060405180830381865afa158015612779573d5f5f3e3d5ffd5b505050506040513d601f19601f8201168201806040525081019061279d9190615711565b8411156127ec5760405162461bcd60e51b815260206004820152601d60248201527f4e6f7420656e6f7567682073686172657320696e20706f736974696f6e0000006044820152606401610b23565b5f865f036127fd5750612af8612849565b6105dc61280b600189615771565b612816906032615784565b106128245750612af8612849565b61282f600188615771565b61283a906032615784565b612846906130d4615771565b90505b6040805163dc607d6f60e01b815283516004820152602084015160ff16602482015290830151604482015281906001600160a01b0385169063dc607d6f90606401602060405180830381865afa1580156128a5573d5f5f3e3d5ffd5b505050506040513d601f19601f820116820180604052508101906128c99190615711565b106129275760405162461bcd60e51b815260206004820152602860248201527f506f736974696f6e206e6f742062656c6f77206c69717569646174696f6e20746044820152671a1c995cda1bdb1960c21b6064820152608401610b23565b6005546040516323b872dd60e01b8152336004820152306024820152604481018790526001600160a01b03909116906323b872dd906064016020604051808303815f875af115801561297b573d5f5f3e3d5ffd5b505050506040513d601f19601f8201168201806040525081019061299f91906157c2565b50600554604051630852cd8d60e31b8152600481018790526001600160a01b03909116906342966c68906024015f604051808303815f87803b1580156129e3575f5ffd5b505af11580156129f5573d5f5f3e3d5ffd5b50506040805163dc607d6f60e01b815285516004820152602086015160ff1660248201529085015160448201525f92506001600160a01b038616915063dc607d6f90606401602060405180830381865afa158015612a55573d5f5f3e3d5ffd5b505050506040513d601f19601f82011682018060405250810190612a799190615711565b90506001600160a01b038416630bfd07fc612a938861573c565b6040518263ffffffff1660e01b8152600401612ab191815260200190565b5f604051808303815f87803b158015612ac8575f5ffd5b505af1158015612ada573d5f5f3e3d5ffd5b505050505f600b5f9054906101000a90046001600160a01b03166001600160a01b031663efa7fa5d6040518163ffffffff1660e01b8152600401602060405180830381865afa158015612b2f573d5f5f3e3d5ffd5b505050506040513d601f19601f82011682018060405250810190612b539190615711565b11612b975760405162461bcd60e51b815260206004820152601460248201527324b73b30b634b2103cb4b2b632103330b1ba37b960611b6044820152606401610b23565b825160208401515f9190612baf9060ff16600a6158b8565b600b546040805163efa7fa5d60e01b81529051670de0b6b3a7640000926001600160a01b03169163efa7fa5d9160048083019260209291908290030181865afa158015612bfe573d5f5f3e3d5ffd5b505050506040513d601f19601f82011682018060405250810190612c229190615711565b612c2c908b615784565b612c3691906157af565b612c409190615784565b612c4a91906157af565b90505f612710612c5a8484615784565b612c6491906157af565b90505f606460085484612c779190615784565b612c8191906157af565b90505f80828410612e4357604051636a0eee4b60e11b8152600481018490523360248201526001600160a01b038a169063d41ddc96906044015f604051808303815f87803b158015612cd1575f5ffd5b505af1158015612ce3573d5f5f3e3d5ffd5b505050508291508290505f8385612cfa9190615771565b90508015612e3d57604051636a0eee4b60e11b8152600481018290523060248201526001600160a01b038b169063d41ddc96906044015f604051808303815f87803b158015612d47575f5ffd5b505af1158015612d59573d5f5f3e3d5ffd5b505060095460075460405163095ea7b360e01b81526001600160a01b03928316945063095ea7b39350612d94929091169085906004016156f8565b6020604051808303815f875af1158015612db0573d5f5f3e3d5ffd5b505050506040513d601f19601f82011682018060405250810190612dd491906157c2565b5060075460405163de5d64f160e01b8152600481018390526001600160a01b039091169063de5d64f1906024015f604051808303815f87803b158015612e18575f5ffd5b505af1158015612e2a573d5f5f3e3d5ffd5b505050508082612e3a91906158c3565b91505b50612fc1565b8315612eab57604051636a0eee4b60e11b8152600481018590523360248201526001600160a01b038a169063d41ddc96906044015f604051808303815f87803b158015612e8e575f5ffd5b505af1158015612ea0573d5f5f3e3d5ffd5b505050508391508390505b83831115612fc1575f612ebe8585615771565b90505f60075f9054906101000a90046001600160a01b03166001600160a01b0316635b73e7c16040518163ffffffff1660e01b8152600401602060405180830381865afa158015612f11573d5f5f3e3d5ffd5b505050506040513d601f19601f82011682018060405250810190612f359190615711565b90505f818311612f455782612f47565b815b90508015612fbd5760075460405163df6e697360e01b81526001600160a01b039091169063df6e697390612f8190339085906004016156f8565b5f604051808303815f87803b158015612f98575f5ffd5b505af1158015612faa573d5f5f3e3d5ffd5b505050508085612fba91906158c3565b94505b5050505b801561302d576006546001600160a01b031663f6ff3ee8612fe18361573c565b6040518263ffffffff1660e01b8152600401612fff91815260200190565b5f604051808303815f87803b158015613016575f5ffd5b505af1158015613028573d5f5f3e3d5ffd5b505050505b886001600160a01b031663d39aa95a6040518163ffffffff1660e01b8152600401602060405180830381865afa158015613069573d5f5f3e3d5ffd5b505050506040513d601f19601f8201168201806040525081019061308d9190615711565b5f0361313f5761309c8c6144c3565b5f8c8152600e60205260409020546001600160a01b03161580159061313157505f8c8152600e6020908152604080832054815163ec60b9ab60e01b815291516001600160a01b039091169263ec60b9ab92600480820193918290030181865afa15801561310b573d5f5f3e3d5ffd5b505050506040513d601f19601f8201168201806040525081019061312f9190615711565b115b1561313f5761313f8c61438a565b8751604080518f8152602081018e90528082018590526060810192909252608082018990525133918e917f24aaf4a2f68438b7af08d0aaef7dc8a282760bb7f08650b31217587b15cd61589181900360a00190a350505050505050505050505050565b60605f6131ae83611bf5565b6001600160a01b0316036132045760405162461bcd60e51b815260206004820152601860248201527f4552433732313a20696e76616c696420746f6b656e20494400000000000000006044820152606401610b23565b5f60108054613212906156c0565b80601f016020809104026020016040519081016040528092919081815260200182805461323e906156c0565b80156132895780601f1061326057610100808354040283529160200191613289565b820191905f5260205f20905b81548152906001019060200180831161326c57829003601f168201915b505050505090505f8151116132ac5760405180602001604052805f8152506132d7565b806132b684614583565b6040516020016132c7929190615b2f565b6040516020818303038152906040525b9392505050565b6132e782610d84565b6132f081613ecb565b610d7e8383613f79565b5f613303614680565b805490915060ff600160401b820416159067ffffffffffffffff165f8115801561332a5750825b90505f8267ffffffffffffffff1660011480156133465750303b155b905081158015613354575080155b156133725760405163f92ee8a960e01b815260040160405180910390fd5b845467ffffffffffffffff19166001178555831561339c57845460ff60401b1916600160401b1785555b6133ea6040518060400160405280600f81526020016e2aa9a8221029ba30b134b634bd32b960891b81525060405180604001604052806005815260200164555350445360d81b8152506146a8565b6133f26146ba565b6133fa6146ba565b6134045f87613ed8565b508e60055f6101000a8154816001600160a01b0302191690836001600160a01b031602179055508d60095f6101000a8154816001600160a01b0302191690836001600160a01b031602179055508c600a5f6101000a8154816001600160a01b0302191690836001600160a01b031602179055508b600b5f6101000a8154816001600160a01b0302191690836001600160a01b031602179055508a60065f6101000a8154816001600160a01b0302191690836001600160a01b031602179055505f6001600160a01b03168a6001600160a01b0316036135335760405162461bcd60e51b815260206004820152602660248201527f496e737572616e6365457363726f7720616464726573732063616e6e6f74206260448201526565207a65726f60d01b6064820152608401610b23565b600780546001600160a01b0319166001600160a01b038c169081179091556040517fc742eb858a96cf01aa10a0d4654fbd16ec649171aa4f54b3efedcc59b4ec6eb7905f90a260106135858a8261592e565b50600c80546001600160a01b03808b166001600160a01b031992831617909255600d8054928a16929091169190911790556069600855831561360157845460ff60401b19168555604051600181527fc7f505b2f371ae2175ee4913f4499e1f2633a7b5936321eed1cdaeb6115181d29060200160405180910390a15b505050505050505050505050505050565b6001600160a01b039182165f9081527f80bb2b638cc20bc4d0a60d66940f3ab4a00c1d7b313497ca82fb0b4ab00793056020908152604080832093909416825291909152205460ff1690565b3361366882611bf5565b6001600160a01b03161461368e5760405162461bcd60e51b8152600401610b2390615697565b5f34116136cb5760405162461bcd60e51b815260206004820152600b60248201526a139bc8115512081cd95b9d60aa1b6044820152606401610b23565b5f818152600e60205260409020546001600160a01b0316806136ff5760405162461bcd60e51b8152600401610b23906159e9565b806001600160a01b031663d0e30db0346040518263ffffffff1660e01b81526004015f604051808303818588803b158015613738575f5ffd5b505af115801561374a573d5f5f3e3d5ffd5b50505050506137588261438a565b817f055b14c7efbc07d692265b907b52ec309741a29408ffad1d871aa6b371ac77295f3460405161378a9291906156f8565b60405180910390a25050565b6005545f906001600160a01b031633146137e85760405162461bcd60e51b815260206004820152601360248201527213db9b1e4818d554d4110818dbdb9d1c9858dd606a1b6044820152606401610b23565b6004545f0361382e5760405162461bcd60e51b81526020600482015260126024820152714e6f20616c6c6f63617465642066756e647360701b6044820152606401610b23565b600454835f805b831580159061384357505f83115b15613d5a57620186a05a10613d5a575f84815260208181526040808320600f909252909120546001600160a01b0316806138ba5760405162461bcd60e51b8152602060048201526018602482015277141bdcda5d1a5bdb915cd8dc9bddc81b9bdd08199bdd5b9960421b6044820152606401610b23565b5f8190505f816001600160a01b031663d39aa95a6040518163ffffffff1660e01b8152600401602060405180830381865afa1580156138fb573d5f5f3e3d5ffd5b505050506040513d601f19601f8201168201806040525081019061391f9190615711565b90508015613d4c575f8188116139355787613937565b815b90508015613d4a575f5f61394c85848f6146c4565b91509150846001600160a01b0316630bfd07fc846139699061573c565b6040518263ffffffff1660e01b815260040161398791815260200190565b5f604051808303815f87803b15801561399e575f5ffd5b505af11580156139b0573d5f5f3e3d5ffd5b505050505f821115613a1857604051636a0eee4b60e11b8152600481018390523060248201526001600160a01b0386169063d41ddc96906044015f604051808303815f87803b158015613a01575f5ffd5b505af1158015613a13573d5f5f3e3d5ffd5b505050505b5f613a238284615771565b90508115613b125760095460055460405163a9059cbb60e01b81525f926001600160a01b039081169263a9059cbb92613a64929091169087906004016156f8565b6020604051808303815f875af1158015613a80573d5f5f3e3d5ffd5b505050506040513d601f19601f82011682018060405250810190613aa491906157c2565b905080613b045760405162461bcd60e51b815260206004820152602860248201527f55736572207374455448207472616e7366657220746f206355535044546f6b656044820152671b8819985a5b195960c21b6064820152608401610b23565b613b0e838c6158c3565b9a50505b8015613c5d575f8c8152600e60205260409020546001600160a01b031680613b7c5760405162461bcd60e51b815260206004820152601a60248201527f53746162696c697a6572457363726f77206e6f7420666f756e640000000000006044820152606401610b23565b60095460405163a9059cbb60e01b81525f916001600160a01b03169063a9059cbb90613bae90859087906004016156f8565b6020604051808303815f875af1158015613bca573d5f5f3e3d5ffd5b505050506040513d601f19601f82011682018060405250810190613bee91906157c2565b905080613c5a5760405162461bcd60e51b815260206004820152603460248201527f53746162696c697a6572207374455448207472616e7366657220746f20537461604482015273189a5b1a5e995c915cd8dc9bddc819985a5b195960621b6064820152608401610b23565b50505b613c67838a6158c3565b98508484148015613cfd57613c7b8d6144c3565b5f8d8152600e6020908152604080832054815163ec60b9ab60e01b815291516001600160a01b039091169263ec60b9ab92600480820193918290030181865afa158015613cca573d5f5f3e3d5ffd5b505050506040513d601f19601f82011682018060405250810190613cee9190615711565b1115613cfd57613cfd8d61438a565b613d07858d615771565b6040805185815260208101859052919d508e917f7bd51af63c72ca163b2d37a37219fbdda7a4c3803f69ed76e3948078619a32f9910160405180910390a2505050505b505b505050600301549350613835565b5f8211613da05760405162461bcd60e51b8152602060048201526014602482015273139bc8199d5b991cc81d5b985b1b1bd8d85d195960621b6044820152606401610b23565b8015613e0c576006546001600160a01b031663f6ff3ee8613dc08361573c565b6040518263ffffffff1660e01b8152600401613dde91815260200190565b5f604051808303815f87803b158015613df5575f5ffd5b505af1158015613e07573d5f5f3e3d5ffd5b505050505b5095945050505050565b5f6001600160e01b03198216637965db0b60e01b1480610c315750610c31826149ca565b5f5f613e45836149ee565b90506001600160a01b038116610c3157604051637e27328960e01b815260048101849052602401610b23565b5f9081527f80bb2b638cc20bc4d0a60d66940f3ab4a00c1d7b313497ca82fb0b4ab007930460205260409020546001600160a01b031690565b610e568383836001614a27565b5f613ec3848484614b3a565b949350505050565b613ed58133614c30565b50565b5f5f516020615c5a5f395f51905f52613ef18484611ea3565b613f70575f848152602082815260408083206001600160a01b03871684529091529020805460ff19166001179055613f263390565b6001600160a01b0316836001600160a01b0316857f2f8788117e7eff1d82e926ec794901d17c78024a50270940304540a733656f0d60405160405180910390a46001915050610c31565b5f915050610c31565b5f5f516020615c5a5f395f51905f52613f928484611ea3565b15613f70575f848152602082815260408083206001600160a01b0387168085529252808320805460ff1916905551339287917ff6391f5c32d9c69d2a47ea670b442974b53935d1edc7fd64eb21e047a839171b9190a46001915050610c31565b610cf7828260405180602001604052805f815250614c5b565b5f610c31825f614c72565b60035415806140255750600454155b15614034576003819055600455565b60045481111561406257600480545f8381526020819052604080822060030183905591815220810182905555565b60035481101561409057600380545f8381526020819052604080822060040183905591815220810182905555565b6003545b80158015906140a257508181105b156140bd575f90815260208190526040902060040154614094565b5f8181526020819052604080822060039081018054868552838520928301819055600492830186905584529183200184905591905255565b5f81815260208190526040902060015482148015614114575060025482145b15614127575f60018190556002556141a4565b600154820361414e57600281015460018181555f91825260208290526040822001556141a4565b600254820361417557600181015460028181555f91825260208290526040822001556141a4565b600180820154600280840180545f90815260208190526040808220909501849055905492815292909220909101555b5f6002820181905560019091015550565b5f516020615bfa5f395f51905f526001600160a01b0383166141f557604051630b61174360e31b81526001600160a01b0384166004820152602401610b23565b6001600160a01b038481165f818152600584016020908152604080832094881680845294825291829020805460ff191687151590811790915591519182527f17307eab39ab6107e8899845ad3d59bd9653f200f220920489ca2b5937696c31910160405180910390a350505050565b6001600160a01b0383163b1561438357604051630a85bd0160e11b81526001600160a01b0384169063150b7a02906142a6908890889087908790600401615b43565b6020604051808303815f875af19250505080156142e0575060408051601f3d908101601f191682019092526142dd91810190615b7f565b60015b614347573d80801561430d576040519150601f19603f3d011682016040523d82523d5f602084013e614312565b606091505b5080515f0361433f57604051633250574960e11b81526001600160a01b0385166004820152602401610b23565b805181602001fd5b6001600160e01b03198116630a85bd0160e11b146113d757604051633250574960e11b81526001600160a01b0385166004820152602401610b23565b5050505050565b5f81815260208190526040902060018101541580156143ab57506002810154155b80156143b957508160015414155b15610cf7576001545f036143d257506001819055600255565b6002548211156143ff57600280546001929092018290555f91825260208290526040909120810182905555565b60015482101561442c57600180546002929092018290555f91825260208290526040909120810182905555565b6001545b5f818152602081905260409020600201541580159061445e57505f8181526020819052604090206002015483115b15614479575f90815260208190526040902060020154614430565b5f818152602081905260409020600290810180546001850184905591840182905584905580156144bb575f818152602081905260409020600101849055610d7e565b505050600255565b5f818152602081905260409020600354821480156144e2575060045482145b156144f5575f6003819055600455614572565b600354820361451c57600481015460038181555f9182526020829052604082200155614572565b600454820361454357600381015460048181555f9182526020829052604082200155614572565b600380820154600480840180545f90815260208190526040808220909501849055905492815292909220909101555b5f6004820181905560039091015550565b6060815f036145a95750506040805180820190915260018152600360fc1b602082015290565b815f5b81156145d257806145bc81615b9a565b91506145cb9050600a836157af565b91506145ac565b5f8167ffffffffffffffff8111156145ec576145ec6152fd565b6040519080825280601f01601f191660200182016040528015614616576020820181803683370190505b5090505b8415613ec35761462b600183615771565b9150614638600a86615bb2565b6146439060306158c3565b60f81b818381518110614658576146586158d6565b60200101906001600160f81b03191690815f1a905350614679600a866157af565b945061461a565b5f807ff0c57e16840df040f15088dc2f81fe391c3923bec73e23a9662efc9c229c6a00610c31565b6146b0614d06565b610cf78282614d2b565b6146c2614d06565b565b5f5f846001600160a01b031663d39aa95a6040518163ffffffff1660e01b8152600401602060405180830381865afa158015614702573d5f5f3e3d5ffd5b505050506040513d601f19601f820116820180604052508101906147269190615711565b5f0361473657505f9050806149c2565b600b546040805163efa7fa5d60e01b815290515f926001600160a01b03169163efa7fa5d9160048083019260209291908290030181865afa15801561477d573d5f5f3e3d5ffd5b505050506040513d601f19601f820116820180604052508101906147a19190615711565b90505f600b5f9054906101000a90046001600160a01b03166001600160a01b031663a42c69a96040518163ffffffff1660e01b8152600401602060405180830381865afa1580156147f4573d5f5f3e3d5ffd5b505050506040513d601f19601f820116820180604052508101906148189190615711565b6148228388615784565b61482c91906157af565b855190915061487d5760405162461bcd60e51b815260206004820152601b60248201527f4f7261636c652070726963652063616e6e6f74206265207a65726f00000000006044820152606401610b23565b845160208601516148929060ff16600a6158b8565b61489c9083615784565b6148a691906157af565b6040805163dc607d6f60e01b815287516004820152602088015160ff1660248201529087015160448201529093505f906001600160a01b0389169063dc607d6f90606401602060405180830381865afa158015614905573d5f5f3e3d5ffd5b505050506040513d601f19601f820116820180604052508101906149299190615711565b90506127108110156149995760405162461bcd60e51b815260206004820152603360248201527f43616e6e6f7420756e616c6c6f636174652066726f6d20756e646572636f6c6c60448201527230ba32b930b634bd32b2103837b9b4ba34b7b760691b6064820152608401610b23565b6127106149a68286615784565b6149b091906157af565b9450848411156149be578493505b5050505b935093915050565b5f6001600160e01b0319821663780e9d6360e01b1480610c315750610c3182614d5b565b5f9081527f80bb2b638cc20bc4d0a60d66940f3ab4a00c1d7b313497ca82fb0b4ab007930260205260409020546001600160a01b031690565b5f516020615bfa5f395f51905f528180614a4957506001600160a01b03831615155b15614b0a575f614a5885613e3a565b90506001600160a01b03841615801590614a845750836001600160a01b0316816001600160a01b031614155b8015614a975750614a958185613612565b155b15614ac05760405163a9fbf51f60e01b81526001600160a01b0385166004820152602401610b23565b8215614b085784866001600160a01b0316826001600160a01b03167f8c5be1e5ebec7d5bd14f71427d1e84f3dd0314c0f7b2291e5b200ac8c7c3b92560405160405180910390a45b505b5f93845260040160205250506040902080546001600160a01b0319166001600160a01b0392909216919091179055565b5f5f614b47858585614daa565b90506001600160a01b038116614bce57614bc9845f516020615c3a5f395f51905f5280545f8381527f645e039705490088daad89bae25049a34f4a9072d398537b1ab2425f24cbed0360205260408120829055600182018355919091527fa42f15e5d656f8155fd7419d740a6073999f19cd6e061449ce4a257150545bf20155565b614bf1565b846001600160a01b0316816001600160a01b031614614bf157614bf18185614eac565b6001600160a01b038516614c0d57614c0884614f43565b613ec3565b846001600160a01b0316816001600160a01b031614613ec357613ec38585615010565b614c3a8282611ea3565b610cf757808260405163e2517d3f60e01b8152600401610b239291906156f8565b614c658383615068565b610e56335f858585614264565b5f81471015614c9d5760405163cf47918160e01b815247600482015260248101839052604401610b23565b763d602d80600a3d3981f3363d3d373d3d3d363d730000008360601b60e81c175f526e5af43d82803e903d91602b57fd5bf38360781b176020526037600983f090506001600160a01b038116610c315760405163b06ebf3d60e01b815260040160405180910390fd5b614d0e6150c9565b6146c257604051631afcd79f60e31b815260040160405180910390fd5b614d33614d06565b5f516020615bfa5f395f51905f5280614d4c848261592e565b5060018101610d7e838261592e565b5f6001600160e01b031982166380ac58cd60e01b1480614d8b57506001600160e01b03198216635b5e139f60e01b145b80610c3157506301ffc9a760e01b6001600160e01b0319831614610c31565b5f5f516020615bfa5f395f51905f5281614dc3856149ee565b90506001600160a01b03841615614ddf57614ddf8185876150e2565b6001600160a01b03811615614e1b57614dfa5f865f5f614a27565b6001600160a01b0381165f908152600383016020526040902080545f190190555b6001600160a01b03861615614e4b576001600160a01b0386165f9081526003830160205260409020805460010190555b5f85815260028301602052604080822080546001600160a01b0319166001600160a01b038a811691821790925591518893918516917fddf252ad1be2c89b69c2b068fc378daa952ba7f163c4a11628f55a4df523b3ef91a495945050505050565b5f516020615bda5f395f51905f525f614ec484611da1565b5f8481526001840160209081526040808320546001600160a01b03891684529186905290912091925090818314614f1c575f838152602082815260408083205485845281842081905583526001870190915290208290555b5f948552600190930160209081526040808620869055928552929092528220919091555050565b5f516020615c3a5f395f51905f52545f516020615bda5f395f51905f52905f90614f6f90600190615771565b5f848152600384016020526040812054600285018054939450909284908110614f9a57614f9a6158d6565b905f5260205f200154905080846002018381548110614fbb57614fbb6158d6565b5f91825260208083209091019290925582815260038601909152604080822084905586825281205560028401805480614ff657614ff6615bc5565b600190038181905f5260205f20015f905590555050505050565b5f516020615bda5f395f51905f525f600161502a85611da1565b6150349190615771565b6001600160a01b039094165f9081526020838152604080832087845282528083208690559482526001909301909252502055565b6001600160a01b03821661509157604051633250574960e11b81525f6004820152602401610b23565b5f61509d83835f613eb7565b90506001600160a01b03811615610e56576040516339e3563760e11b81525f6004820152602401610b23565b5f6150d2614680565b54600160401b900460ff16919050565b6150ed838383615138565b610e56576001600160a01b03831661511b57604051637e27328960e01b815260048101829052602401610b23565b818160405163177e802f60e01b8152600401610b239291906156f8565b5f6001600160a01b03831615801590613ec35750826001600160a01b0316846001600160a01b0316148061517157506151718484613612565b80613ec35750826001600160a01b031661518a83613e71565b6001600160a01b031614949350505050565b5f5f604083850312156151ad575f5ffd5b50508035926020909101359150565b6001600160e01b031981168114613ed5575f5ffd5b5f602082840312156151e1575f5ffd5b81356132d7816151bc565b5f81518084528060208401602086015e5f602082860101526020601f19601f83011685010191505092915050565b602081525f6132d760208301846151ec565b5f6020828403121561523c575f5ffd5b5035919050565b6001600160a01b0381168114613ed5575f5ffd5b803561526281615243565b919050565b5f5f60408385031215615278575f5ffd5b823561528381615243565b946020939093013593505050565b5f5f5f606084860312156152a3575f5ffd5b83356152ae81615243565b925060208401356152be81615243565b929592945050506040919091013590565b5f5f604083850312156152e0575f5ffd5b8235915060208301356152f281615243565b809150509250929050565b634e487b7160e01b5f52604160045260245ffd5b6040516060810167ffffffffffffffff81118282101715615334576153346152fd565b60405290565b5f5f67ffffffffffffffff841115615354576153546152fd565b50604051601f19601f85018116603f0116810181811067ffffffffffffffff82111715615383576153836152fd565b60405283815290508082840185101561539a575f5ffd5b838360208301375f60208583010152509392505050565b5f82601f8301126153c0575f5ffd5b6132d78383356020850161533a565b5f602082840312156153df575f5ffd5b813567ffffffffffffffff8111156153f5575f5ffd5b613ec3848285016153b1565b5f60208284031215615411575f5ffd5b81356132d781615243565b8015158114613ed5575f5ffd5b5f5f6040838503121561543a575f5ffd5b823561544581615243565b915060208301356152f28161541c565b5f5f5f5f60808587031215615468575f5ffd5b843561547381615243565b9350602085013561548381615243565b925060408501359150606085013567ffffffffffffffff8111156154a5575f5ffd5b8501601f810187136154b5575f5ffd5b6154c48782356020840161533a565b91505092959194509250565b5f5f5f5f608085870312156154e3575f5ffd5b843593506020850135925060408501359150606085013567ffffffffffffffff81111561550e575f5ffd5b850160a0818803121561551f575f5ffd5b939692955090935050565b5f5f5f5f5f5f5f5f5f5f6101408b8d031215615544575f5ffd5b8a3561554f81615243565b995060208b013561555f81615243565b985060408b013561556f81615243565b975060608b013561557f81615243565b965061558d60808c01615257565b955061559b60a08c01615257565b945060c08b013567ffffffffffffffff8111156155b6575f5ffd5b6155c28d828e016153b1565b9450506155d160e08c01615257565b92506155e06101008c01615257565b91506155ef6101208c01615257565b90509295989b9194979a5092959850565b5f5f60408385031215615611575f5ffd5b823561561c81615243565b915060208301356152f281615243565b60ff81168114613ed5575f5ffd5b5f5f828403608081121561564c575f5ffd5b833592506060601f1982011215615661575f5ffd5b5061566a615311565b60208401358152604084013561567f8161562c565b60208201526060939093013560408401525092909150565b6020808252600f908201526e2737ba103a37b5b2b71037bbb732b960891b604082015260600190565b600181811c908216806156d457607f821691505b6020821081036156f257634e487b7160e01b5f52602260045260245ffd5b50919050565b6001600160a01b03929092168252602082015260400190565b5f60208284031215615721575f5ffd5b5051919050565b634e487b7160e01b5f52601160045260245ffd5b5f600160ff1b820161575057615750615728565b505f0390565b5f60208284031215615766575f5ffd5b81516132d781615243565b81810381811115610c3157610c31615728565b8082028115828204841417610c3157610c31615728565b634e487b7160e01b5f52601260045260245ffd5b5f826157bd576157bd61579b565b500490565b5f602082840312156157d2575f5ffd5b81516132d78161541c565b6001815b60018411156149c2578085048111156157fc576157fc615728565b600184161561580a57908102905b60019390931c9280026157e1565b5f8261582657506001610c31565b8161583257505f610c31565b816001811461584857600281146158525761586e565b6001915050610c31565b60ff84111561586357615863615728565b50506001821b610c31565b5060208310610133831016604e8410600b8410161715615891575081810a610c31565b61589d5f1984846157dd565b805f19048211156158b0576158b0615728565b029392505050565b5f6132d78383615818565b80820180821115610c3157610c31615728565b634e487b7160e01b5f52603260045260245ffd5b601f821115610e5657805f5260205f20601f840160051c8101602085101561590f5750805b601f840160051c820191505b81811015614383575f815560010161591b565b815167ffffffffffffffff811115615948576159486152fd565b61595c8161595684546156c0565b846158ea565b6020601f82116001811461598e575f83156159775750848201515b5f19600385901b1c1916600184901b178455614383565b5f84815260208120601f198516915b828110156159bd578785015182556020948501946001909201910161599d565b50848210156159da57868401515f19600387901b60f8161c191681555b50505050600190811b01905550565b60208082526010908201526f115cd8dc9bddc81b9bdd08199bdd5b9960821b604082015260600190565b81835281816020850137505f828201602090810191909152601f909101601f19169091010190565b60208082528235828201525f90830135615a548161562c565b60ff1660408381019190915283013560608084019190915283013560808084019190915283013536849003601e19018112615a8d575f5ffd5b830160208101903567ffffffffffffffff811115615aa9575f5ffd5b803603821315615ab7575f5ffd5b60a080850152615acb60c085018284615a13565b95945050505050565b5f6060828403128015615ae5575f5ffd5b50615aee615311565b825181526020830151615b008161562c565b60208201526040928301519281019290925250919050565b5f81518060208401855e5f93019283525090919050565b5f613ec3615b3d8386615b18565b84615b18565b6001600160a01b03858116825284166020820152604081018390526080606082018190525f90615b75908301846151ec565b9695505050505050565b5f60208284031215615b8f575f5ffd5b81516132d7816151bc565b5f60018201615bab57615bab615728565b5060010190565b5f82615bc057615bc061579b565b500690565b634e487b7160e01b5f52603160045260245ffdfe645e039705490088daad89bae25049a34f4a9072d398537b1ab2425f24cbed0080bb2b638cc20bc4d0a60d66940f3ab4a00c1d7b313497ca82fb0b4ab00793008c21e8ab0c92c4c41f2714adb63619371ca8ed5eb69a6fed79b7d52cdd9703ae645e039705490088daad89bae25049a34f4a9072d398537b1ab2425f24cbed0202dd7bc7dec4dceedda775e58dd541e08a116c6c53815c0bd028192f7b626800a26469706673582212209a42a8898c6c66e9ed5087a3f934b0883a4773f96b1e692f3f7dc9f48ce172b964736f6c634300081d0033","linkReferences":{}},"methodIdentifiers":{"DEFAULT_ADMIN_ROLE()":"a217fddf","FACTOR_PRECISION()":"a42c69a9","MINTER_ROLE()":"d5391393","MIN_GAS()":"20d2c951","POSITION_ESCROW_ROLE()":"8d7cac7b","addUnallocatedFundsEth(uint256)":"f399beb7","addUnallocatedFundsStETH(uint256,uint256)":"bb566297","allocateStabilizerFunds(uint256,uint256)":"451fda68","approve(address,uint256)":"095ea7b3","balanceOf(address)":"70a08231","baseURI()":"6c0360eb","cuspdToken()":"6bc05b7e","getApproved(uint256)":"081812fc","getMinCollateralRatio(uint256)":"bb310a80","getRoleAdmin(bytes32)":"248a9ca3","grantRole(bytes32,address)":"2f2ff15d","hasRole(bytes32,address)":"91d14854","highestAllocatedId()":"d743fd1e","highestUnallocatedId()":"92133362","initialize(address,address,address,address,address,address,string,address,address,address)":"d9230389","insuranceEscrow()":"4d87a1f2","isApprovedForAll(address,address)":"e985e9c5","lido()":"23509a2d","liquidatePosition(uint256,uint256,uint256,(uint256,uint8,uint256,bytes32,bytes))":"bdb35bf2","liquidationLiquidatorPayoutPercent()":"4e027fe9","lowestAllocatedId()":"2995bc50","lowestUnallocatedId()":"853cad06","mint(address,uint256)":"40c10f19","name()":"06fdde03","ownerOf(uint256)":"6352211e","positionEscrowImplementation()":"e96d5787","positionEscrows(uint256)":"a04ad512","positions(uint256)":"99fbab88","rateContract()":"eee24219","removeUnallocatedFunds(uint256,uint256)":"ae88a779","renounceRole(bytes32,address)":"36568abe","reportCollateralAddition(uint256)":"67bff4a8","reportCollateralRemoval(uint256)":"39112058","reporter()":"010ec441","revokeRole(bytes32,address)":"d547741f","safeTransferFrom(address,address,uint256)":"42842e0e","safeTransferFrom(address,address,uint256,bytes)":"b88d4fde","setApprovalForAll(address,bool)":"a22cb465","setBaseURI(string)":"55f804b3","setInsuranceEscrow(address)":"7122bcc3","setLiquidationParameters(uint256)":"b10114d3","setMinCollateralizationRatio(uint256,uint256)":"01aa0b1a","stETH()":"c1fe3e48","stabilizerEscrowImplementation()":"7da31f61","stabilizerEscrows(uint256)":"bba6fd6f","supportsInterface(bytes4)":"01ffc9a7","symbol()":"95d89b41","tokenByIndex(uint256)":"4f6ccce7","tokenOfOwnerByIndex(address,uint256)":"2f745c59","tokenURI(uint256)":"c87b56dd","totalSupply()":"18160ddd","transferFrom(address,address,uint256)":"23b872dd","unallocateStabilizerFunds(uint256,(uint256,uint8,uint256))":"ff70fa64"},"storageLayout":{"storage":[{"astId":53860,"contract":"src/StabilizerNFT.sol:StabilizerNFT","label":"positions","offset":0,"slot":"0","type":"t_mapping(t_uint256,t_struct(StabilizerPosition)53855_storage)"},{"astId":53862,"contract":"src/StabilizerNFT.sol:StabilizerNFT","label":"lowestUnallocatedId","offset":0,"slot":"1","type":"t_uint256"},{"astId":53864,"contract":"src/StabilizerNFT.sol:StabilizerNFT","label":"highestUnallocatedId","offset":0,"slot":"2","type":"t_uint256"},{"astId":53866,"contract":"src/StabilizerNFT.sol:StabilizerNFT","label":"lowestAllocatedId","offset":0,"slot":"3","type":"t_uint256"},{"astId":53868,"contract":"src/StabilizerNFT.sol:StabilizerNFT","label":"highestAllocatedId","offset":0,"slot":"4","type":"t_uint256"},{"astId":53871,"contract":"src/StabilizerNFT.sol:StabilizerNFT","label":"cuspdToken","offset":0,"slot":"5","type":"t_contract(IcUSPDToken)58294"},{"astId":53874,"contract":"src/StabilizerNFT.sol:StabilizerNFT","label":"reporter","offset":0,"slot":"6","type":"t_contract(IOvercollateralizationReporter)57905"},{"astId":53877,"contract":"src/StabilizerNFT.sol:StabilizerNFT","label":"insuranceEscrow","offset":0,"slot":"7","type":"t_contract(IInsuranceEscrow)57785"},{"astId":53879,"contract":"src/StabilizerNFT.sol:StabilizerNFT","label":"liquidationLiquidatorPayoutPercent","offset":0,"slot":"8","type":"t_uint256"},{"astId":53881,"contract":"src/StabilizerNFT.sol:StabilizerNFT","label":"stETH","offset":0,"slot":"9","type":"t_address"},{"astId":53883,"contract":"src/StabilizerNFT.sol:StabilizerNFT","label":"lido","offset":0,"slot":"10","type":"t_address"},{"astId":53886,"contract":"src/StabilizerNFT.sol:StabilizerNFT","label":"rateContract","offset":0,"slot":"11","type":"t_contract(IPoolSharesConversionRate)57934"},{"astId":53888,"contract":"src/StabilizerNFT.sol:StabilizerNFT","label":"stabilizerEscrowImplementation","offset":0,"slot":"12","type":"t_address"},{"astId":53890,"contract":"src/StabilizerNFT.sol:StabilizerNFT","label":"positionEscrowImplementation","offset":0,"slot":"13","type":"t_address"},{"astId":53894,"contract":"src/StabilizerNFT.sol:StabilizerNFT","label":"stabilizerEscrows","offset":0,"slot":"14","type":"t_mapping(t_uint256,t_address)"},{"astId":53898,"contract":"src/StabilizerNFT.sol:StabilizerNFT","label":"positionEscrows","offset":0,"slot":"15","type":"t_mapping(t_uint256,t_address)"},{"astId":53900,"contract":"src/StabilizerNFT.sol:StabilizerNFT","label":"baseURI","offset":0,"slot":"16","type":"t_string_storage"}],"types":{"t_address":{"encoding":"inplace","label":"address","numberOfBytes":"20"},"t_contract(IInsuranceEscrow)57785":{"encoding":"inplace","label":"contract IInsuranceEscrow","numberOfBytes":"20"},"t_contract(IOvercollateralizationReporter)57905":{"encoding":"inplace","label":"contract IOvercollateralizationReporter","numberOfBytes":"20"},"t_contract(IPoolSharesConversionRate)57934":{"encoding":"inplace","label":"contract IPoolSharesConversionRate","numberOfBytes":"20"},"t_contract(IcUSPDToken)58294":{"encoding":"inplace","label":"contract IcUSPDToken","numberOfBytes":"20"},"t_mapping(t_uint256,t_address)":{"encoding":"mapping","key":"t_uint256","label":"mapping(uint256 => address)","numberOfBytes":"32","value":"t_address"},"t_mapping(t_uint256,t_struct(StabilizerPosition)53855_storage)":{"encoding":"mapping","key":"t_uint256","label":"mapping(uint256 => struct StabilizerNFT.StabilizerPosition)","numberOfBytes":"32","value":"t_struct(StabilizerPosition)53855_storage"},"t_string_storage":{"encoding":"bytes","label":"string","numberOfBytes":"32"},"t_struct(StabilizerPosition)53855_storage":{"encoding":"inplace","label":"struct StabilizerNFT.StabilizerPosition","numberOfBytes":"160","members":[{"astId":53846,"contract":"src/StabilizerNFT.sol:StabilizerNFT","label":"minCollateralRatio","offset":0,"slot":"0","type":"t_uint256"},{"astId":53848,"contract":"src/StabilizerNFT.sol:StabilizerNFT","label":"prevUnallocated","offset":0,"slot":"1","type":"t_uint256"},{"astId":53850,"contract":"src/StabilizerNFT.sol:StabilizerNFT","label":"nextUnallocated","offset":0,"slot":"2","type":"t_uint256"},{"astId":53852,"contract":"src/StabilizerNFT.sol:StabilizerNFT","label":"prevAllocated","offset":0,"slot":"3","type":"t_uint256"},{"astId":53854,"contract":"src/StabilizerNFT.sol:StabilizerNFT","label":"nextAllocated","offset":0,"slot":"4","type":"t_uint256"}]},"t_uint256":{"encoding":"inplace","label":"uint256","numberOfBytes":"32"}}},"id":76}