{"abi":[{"type":"constructor","inputs":[],"stateMutability":"nonpayable"},{"type":"receive","stateMutability":"payable"},{"type":"function","name":"DEFAULT_ADMIN_ROLE","inputs":[],"outputs":[{"name":"","type":"bytes32","internalType":"bytes32"}],"stateMutability":"view"},{"type":"function","name":"FACTOR_PRECISION","inputs":[],"outputs":[{"name":"","type":"uint256","internalType":"uint256"}],"stateMutability":"view"},{"type":"function","name":"MINTER_ROLE","inputs":[],"outputs":[{"name":"","type":"bytes32","internalType":"bytes32"}],"stateMutability":"view"},{"type":"function","name":"MIN_GAS","inputs":[],"outputs":[{"name":"","type":"uint256","internalType":"uint256"}],"stateMutability":"view"},{"type":"function","name":"POSITION_ESCROW_ROLE","inputs":[],"outputs":[{"name":"","type":"bytes32","internalType":"bytes32"}],"stateMutability":"view"},{"type":"function","name":"addUnallocatedFundsEth","inputs":[{"name":"tokenId","type":"uint256","internalType":"uint256"}],"outputs":[],"stateMutability":"payable"},{"type":"function","name":"addUnallocatedFundsStETH","inputs":[{"name":"tokenId","type":"uint256","internalType":"uint256"},{"name":"stETHAmount","type":"uint256","internalType":"uint256"}],"outputs":[],"stateMutability":"nonpayable"},{"type":"function","name":"allocateStabilizerFunds","inputs":[{"name":"ethUsdPrice","type":"uint256","internalType":"uint256"},{"name":"priceDecimals","type":"uint256","internalType":"uint256"}],"outputs":[{"name":"result","type":"tuple","internalType":"struct IStabilizerNFT.AllocationResult","components":[{"name":"allocatedEth","type":"uint256","internalType":"uint256"},{"name":"totalEthEquivalentAdded","type":"uint256","internalType":"uint256"}]}],"stateMutability":"payable"},{"type":"function","name":"approve","inputs":[{"name":"to","type":"address","internalType":"address"},{"name":"tokenId","type":"uint256","internalType":"uint256"}],"outputs":[],"stateMutability":"nonpayable"},{"type":"function","name":"balanceOf","inputs":[{"name":"owner","type":"address","internalType":"address"}],"outputs":[{"name":"","type":"uint256","internalType":"uint256"}],"stateMutability":"view"},{"type":"function","name":"baseURI","inputs":[],"outputs":[{"name":"","type":"string","internalType":"string"}],"stateMutability":"view"},{"type":"function","name":"cuspdToken","inputs":[],"outputs":[{"name":"","type":"address","internalType":"contract IcUSPDToken"}],"stateMutability":"view"},{"type":"function","name":"getApproved","inputs":[{"name":"tokenId","type":"uint256","internalType":"uint256"}],"outputs":[{"name":"","type":"address","internalType":"address"}],"stateMutability":"view"},{"type":"function","name":"getMinCollateralRatio","inputs":[{"name":"tokenId","type":"uint256","internalType":"uint256"}],"outputs":[{"name":"","type":"uint256","internalType":"uint256"}],"stateMutability":"view"},{"type":"function","name":"getRoleAdmin","inputs":[{"name":"role","type":"bytes32","internalType":"bytes32"}],"outputs":[{"name":"","type":"bytes32","internalType":"bytes32"}],"stateMutability":"view"},{"type":"function","name":"grantRole","inputs":[{"name":"role","type":"bytes32","internalType":"bytes32"},{"name":"account","type":"address","internalType":"address"}],"outputs":[],"stateMutability":"nonpayable"},{"type":"function","name":"hasRole","inputs":[{"name":"role","type":"bytes32","internalType":"bytes32"},{"name":"account","type":"address","internalType":"address"}],"outputs":[{"name":"","type":"bool","internalType":"bool"}],"stateMutability":"view"},{"type":"function","name":"highestAllocatedId","inputs":[],"outputs":[{"name":"","type":"uint256","internalType":"uint256"}],"stateMutability":"view"},{"type":"function","name":"highestUnallocatedId","inputs":[],"outputs":[{"name":"","type":"uint256","internalType":"uint256"}],"stateMutability":"view"},{"type":"function","name":"initialize","inputs":[{"name":"_cuspdToken","type":"address","internalType":"address"},{"name":"_stETH","type":"address","internalType":"address"},{"name":"_lido","type":"address","internalType":"address"},{"name":"_rateContract","type":"address","internalType":"address"},{"name":"_reporterAddress","type":"address","internalType":"address"},{"name":"_baseURI","type":"string","internalType":"string"},{"name":"_stabilizerEscrowImpl","type":"address","internalType":"address"},{"name":"_positionEscrowImpl","type":"address","internalType":"address"},{"name":"_admin","type":"address","internalType":"address"}],"outputs":[],"stateMutability":"nonpayable"},{"type":"function","name":"isApprovedForAll","inputs":[{"name":"owner","type":"address","internalType":"address"},{"name":"operator","type":"address","internalType":"address"}],"outputs":[{"name":"","type":"bool","internalType":"bool"}],"stateMutability":"view"},{"type":"function","name":"lido","inputs":[],"outputs":[{"name":"","type":"address","internalType":"address"}],"stateMutability":"view"},{"type":"function","name":"lowestAllocatedId","inputs":[],"outputs":[{"name":"","type":"uint256","internalType":"uint256"}],"stateMutability":"view"},{"type":"function","name":"lowestUnallocatedId","inputs":[],"outputs":[{"name":"","type":"uint256","internalType":"uint256"}],"stateMutability":"view"},{"type":"function","name":"mint","inputs":[{"name":"to","type":"address","internalType":"address"},{"name":"tokenId","type":"uint256","internalType":"uint256"}],"outputs":[],"stateMutability":"nonpayable"},{"type":"function","name":"name","inputs":[],"outputs":[{"name":"","type":"string","internalType":"string"}],"stateMutability":"view"},{"type":"function","name":"ownerOf","inputs":[{"name":"tokenId","type":"uint256","internalType":"uint256"}],"outputs":[{"name":"","type":"address","internalType":"address"}],"stateMutability":"view"},{"type":"function","name":"positionEscrowImplementation","inputs":[],"outputs":[{"name":"","type":"address","internalType":"address"}],"stateMutability":"view"},{"type":"function","name":"positionEscrows","inputs":[{"name":"","type":"uint256","internalType":"uint256"}],"outputs":[{"name":"","type":"address","internalType":"address"}],"stateMutability":"view"},{"type":"function","name":"positions","inputs":[{"name":"","type":"uint256","internalType":"uint256"}],"outputs":[{"name":"minCollateralRatio","type":"uint256","internalType":"uint256"},{"name":"prevUnallocated","type":"uint256","internalType":"uint256"},{"name":"nextUnallocated","type":"uint256","internalType":"uint256"},{"name":"prevAllocated","type":"uint256","internalType":"uint256"},{"name":"nextAllocated","type":"uint256","internalType":"uint256"}],"stateMutability":"view"},{"type":"function","name":"rateContract","inputs":[],"outputs":[{"name":"","type":"address","internalType":"contract IPoolSharesConversionRate"}],"stateMutability":"view"},{"type":"function","name":"removeUnallocatedFunds","inputs":[{"name":"tokenId","type":"uint256","internalType":"uint256"},{"name":"stETHAmount","type":"uint256","internalType":"uint256"}],"outputs":[],"stateMutability":"nonpayable"},{"type":"function","name":"renounceRole","inputs":[{"name":"role","type":"bytes32","internalType":"bytes32"},{"name":"callerConfirmation","type":"address","internalType":"address"}],"outputs":[],"stateMutability":"nonpayable"},{"type":"function","name":"reportCollateralAddition","inputs":[{"name":"stEthAmount","type":"uint256","internalType":"uint256"}],"outputs":[],"stateMutability":"nonpayable"},{"type":"function","name":"reportCollateralRemoval","inputs":[{"name":"stEthAmount","type":"uint256","internalType":"uint256"}],"outputs":[],"stateMutability":"nonpayable"},{"type":"function","name":"reporter","inputs":[],"outputs":[{"name":"","type":"address","internalType":"contract IOvercollateralizationReporter"}],"stateMutability":"view"},{"type":"function","name":"revokeRole","inputs":[{"name":"role","type":"bytes32","internalType":"bytes32"},{"name":"account","type":"address","internalType":"address"}],"outputs":[],"stateMutability":"nonpayable"},{"type":"function","name":"safeTransferFrom","inputs":[{"name":"from","type":"address","internalType":"address"},{"name":"to","type":"address","internalType":"address"},{"name":"tokenId","type":"uint256","internalType":"uint256"}],"outputs":[],"stateMutability":"nonpayable"},{"type":"function","name":"safeTransferFrom","inputs":[{"name":"from","type":"address","internalType":"address"},{"name":"to","type":"address","internalType":"address"},{"name":"tokenId","type":"uint256","internalType":"uint256"},{"name":"data","type":"bytes","internalType":"bytes"}],"outputs":[],"stateMutability":"nonpayable"},{"type":"function","name":"setApprovalForAll","inputs":[{"name":"operator","type":"address","internalType":"address"},{"name":"approved","type":"bool","internalType":"bool"}],"outputs":[],"stateMutability":"nonpayable"},{"type":"function","name":"setBaseURI","inputs":[{"name":"newBaseURI","type":"string","internalType":"string"}],"outputs":[],"stateMutability":"nonpayable"},{"type":"function","name":"setMinCollateralizationRatio","inputs":[{"name":"tokenId","type":"uint256","internalType":"uint256"},{"name":"newRatio","type":"uint256","internalType":"uint256"}],"outputs":[],"stateMutability":"nonpayable"},{"type":"function","name":"stETH","inputs":[],"outputs":[{"name":"","type":"address","internalType":"address"}],"stateMutability":"view"},{"type":"function","name":"stabilizerEscrowImplementation","inputs":[],"outputs":[{"name":"","type":"address","internalType":"address"}],"stateMutability":"view"},{"type":"function","name":"stabilizerEscrows","inputs":[{"name":"","type":"uint256","internalType":"uint256"}],"outputs":[{"name":"","type":"address","internalType":"address"}],"stateMutability":"view"},{"type":"function","name":"supportsInterface","inputs":[{"name":"interfaceId","type":"bytes4","internalType":"bytes4"}],"outputs":[{"name":"","type":"bool","internalType":"bool"}],"stateMutability":"view"},{"type":"function","name":"symbol","inputs":[],"outputs":[{"name":"","type":"string","internalType":"string"}],"stateMutability":"view"},{"type":"function","name":"tokenByIndex","inputs":[{"name":"index","type":"uint256","internalType":"uint256"}],"outputs":[{"name":"","type":"uint256","internalType":"uint256"}],"stateMutability":"view"},{"type":"function","name":"tokenOfOwnerByIndex","inputs":[{"name":"owner","type":"address","internalType":"address"},{"name":"index","type":"uint256","internalType":"uint256"}],"outputs":[{"name":"","type":"uint256","internalType":"uint256"}],"stateMutability":"view"},{"type":"function","name":"tokenURI","inputs":[{"name":"tokenId","type":"uint256","internalType":"uint256"}],"outputs":[{"name":"","type":"string","internalType":"string"}],"stateMutability":"view"},{"type":"function","name":"totalSupply","inputs":[],"outputs":[{"name":"","type":"uint256","internalType":"uint256"}],"stateMutability":"view"},{"type":"function","name":"transferFrom","inputs":[{"name":"from","type":"address","internalType":"address"},{"name":"to","type":"address","internalType":"address"},{"name":"tokenId","type":"uint256","internalType":"uint256"}],"outputs":[],"stateMutability":"nonpayable"},{"type":"function","name":"unallocateStabilizerFunds","inputs":[{"name":"poolSharesToUnallocate","type":"uint256","internalType":"uint256"},{"name":"priceResponse","type":"tuple","internalType":"struct IPriceOracle.PriceResponse","components":[{"name":"price","type":"uint256","internalType":"uint256"},{"name":"decimals","type":"uint8","internalType":"uint8"},{"name":"timestamp","type":"uint256","internalType":"uint256"}]}],"outputs":[{"name":"unallocatedEth","type":"uint256","internalType":"uint256"}],"stateMutability":"nonpayable"},{"type":"event","name":"Approval","inputs":[{"name":"owner","type":"address","indexed":true,"internalType":"address"},{"name":"approved","type":"address","indexed":true,"internalType":"address"},{"name":"tokenId","type":"uint256","indexed":true,"internalType":"uint256"}],"anonymous":false},{"type":"event","name":"ApprovalForAll","inputs":[{"name":"owner","type":"address","indexed":true,"internalType":"address"},{"name":"operator","type":"address","indexed":true,"internalType":"address"},{"name":"approved","type":"bool","indexed":false,"internalType":"bool"}],"anonymous":false},{"type":"event","name":"FundsAllocated","inputs":[{"name":"tokenId","type":"uint256","indexed":true,"internalType":"uint256"},{"name":"stabilizersAmount","type":"uint256","indexed":false,"internalType":"uint256"},{"name":"usersAmount","type":"uint256","indexed":false,"internalType":"uint256"}],"anonymous":false},{"type":"event","name":"FundsUnallocated","inputs":[{"name":"tokenId","type":"uint256","indexed":true,"internalType":"uint256"},{"name":"userStEthAmount","type":"uint256","indexed":false,"internalType":"uint256"},{"name":"stabilizerStEthAmount","type":"uint256","indexed":false,"internalType":"uint256"}],"anonymous":false},{"type":"event","name":"Initialized","inputs":[{"name":"version","type":"uint64","indexed":false,"internalType":"uint64"}],"anonymous":false},{"type":"event","name":"MinCollateralRatioUpdated","inputs":[{"name":"tokenId","type":"uint256","indexed":true,"internalType":"uint256"},{"name":"oldRatio","type":"uint256","indexed":false,"internalType":"uint256"},{"name":"newRatio","type":"uint256","indexed":false,"internalType":"uint256"}],"anonymous":false},{"type":"event","name":"RoleAdminChanged","inputs":[{"name":"role","type":"bytes32","indexed":true,"internalType":"bytes32"},{"name":"previousAdminRole","type":"bytes32","indexed":true,"internalType":"bytes32"},{"name":"newAdminRole","type":"bytes32","indexed":true,"internalType":"bytes32"}],"anonymous":false},{"type":"event","name":"RoleGranted","inputs":[{"name":"role","type":"bytes32","indexed":true,"internalType":"bytes32"},{"name":"account","type":"address","indexed":true,"internalType":"address"},{"name":"sender","type":"address","indexed":true,"internalType":"address"}],"anonymous":false},{"type":"event","name":"RoleRevoked","inputs":[{"name":"role","type":"bytes32","indexed":true,"internalType":"bytes32"},{"name":"account","type":"address","indexed":true,"internalType":"address"},{"name":"sender","type":"address","indexed":true,"internalType":"address"}],"anonymous":false},{"type":"event","name":"StabilizerPositionCreated","inputs":[{"name":"tokenId","type":"uint256","indexed":true,"internalType":"uint256"},{"name":"owner","type":"address","indexed":true,"internalType":"address"}],"anonymous":false},{"type":"event","name":"Transfer","inputs":[{"name":"from","type":"address","indexed":true,"internalType":"address"},{"name":"to","type":"address","indexed":true,"internalType":"address"},{"name":"tokenId","type":"uint256","indexed":true,"internalType":"uint256"}],"anonymous":false},{"type":"event","name":"UnallocatedFundsAdded","inputs":[{"name":"tokenId","type":"uint256","indexed":true,"internalType":"uint256"},{"name":"asset","type":"address","indexed":false,"internalType":"address"},{"name":"amount","type":"uint256","indexed":false,"internalType":"uint256"}],"anonymous":false},{"type":"event","name":"UnallocatedFundsRemoved","inputs":[{"name":"tokenId","type":"uint256","indexed":true,"internalType":"uint256"},{"name":"amount","type":"uint256","indexed":false,"internalType":"uint256"},{"name":"recipient","type":"address","indexed":true,"internalType":"address"}],"anonymous":false},{"type":"error","name":"AccessControlBadConfirmation","inputs":[]},{"type":"error","name":"AccessControlUnauthorizedAccount","inputs":[{"name":"account","type":"address","internalType":"address"},{"name":"neededRole","type":"bytes32","internalType":"bytes32"}]},{"type":"error","name":"ERC721EnumerableForbiddenBatchMint","inputs":[]},{"type":"error","name":"ERC721IncorrectOwner","inputs":[{"name":"sender","type":"address","internalType":"address"},{"name":"tokenId","type":"uint256","internalType":"uint256"},{"name":"owner","type":"address","internalType":"address"}]},{"type":"error","name":"ERC721InsufficientApproval","inputs":[{"name":"operator","type":"address","internalType":"address"},{"name":"tokenId","type":"uint256","internalType":"uint256"}]},{"type":"error","name":"ERC721InvalidApprover","inputs":[{"name":"approver","type":"address","internalType":"address"}]},{"type":"error","name":"ERC721InvalidOperator","inputs":[{"name":"operator","type":"address","internalType":"address"}]},{"type":"error","name":"ERC721InvalidOwner","inputs":[{"name":"owner","type":"address","internalType":"address"}]},{"type":"error","name":"ERC721InvalidReceiver","inputs":[{"name":"receiver","type":"address","internalType":"address"}]},{"type":"error","name":"ERC721InvalidSender","inputs":[{"name":"sender","type":"address","internalType":"address"}]},{"type":"error","name":"ERC721NonexistentToken","inputs":[{"name":"tokenId","type":"uint256","internalType":"uint256"}]},{"type":"error","name":"ERC721OutOfBoundsIndex","inputs":[{"name":"owner","type":"address","internalType":"address"},{"name":"index","type":"uint256","internalType":"uint256"}]},{"type":"error","name":"FailedDeployment","inputs":[]},{"type":"error","name":"InsufficientBalance","inputs":[{"name":"balance","type":"uint256","internalType":"uint256"},{"name":"needed","type":"uint256","internalType":"uint256"}]},{"type":"error","name":"InvalidInitialization","inputs":[]},{"type":"error","name":"NotInitializing","inputs":[]}],"bytecode":{"object":"0x6080604052348015600e575f80fd5b5060156019565b60c9565b7ff0c57e16840df040f15088dc2f81fe391c3923bec73e23a9662efc9c229c6a00805468010000000000000000900460ff161560685760405163f92ee8a960e01b815260040160405180910390fd5b80546001600160401b039081161460c65780546001600160401b0319166001600160401b0390811782556040519081527fc7f505b2f371ae2175ee4913f4499e1f2633a7b5936321eed1cdaeb6115181d29060200160405180910390a15b50565b614a14806100d65f395ff3fe608060405260043610610310575f3560e01c80637da31f61116101a3578063bb310a80116100f2578063d743fd1e11610092578063e985e9c51161006d578063e985e9c51461098e578063eee24219146109ad578063f399beb7146109cc578063ff70fa64146109df575f80fd5b8063d743fd1e1461093b578063e6dec42114610950578063e96d57871461096f575f80fd5b8063c1fe3e48116100cd578063c1fe3e48146108ab578063c87b56dd146108ca578063d5391393146108e9578063d547741f1461091c575f80fd5b8063bb310a8014610839578063bb56629714610858578063bba6fd6f14610877575f80fd5b806399fbab881161015d578063a22cb46511610138578063a22cb465146107c1578063a42c69a9146107e0578063ae88a779146107fb578063b88d4fde1461081a575f80fd5b806399fbab881461070a578063a04ad5121461077a578063a217fddf146107ae575f80fd5b80637da31f611461066e578063853cad061461068d5780638d7cac7b146106a257806391d14854146106c257806392133362146106e157806395d89b41146106f6575f80fd5b80632f745c591161025f5780634f6ccce71161021957806367bff4a8116101f457806367bff4a8146105fd5780636bc05b7e1461061c5780636c0360eb1461063b57806370a082311461064f575f80fd5b80634f6ccce7146105a057806355f804b3146105bf5780636352211e146105de575f80fd5b80632f745c59146104d757806336568abe146104f6578063391120581461051557806340c10f191461053457806342842e0e14610553578063451fda6814610572575f80fd5b806318160ddd116102ca57806323b872dd116102a557806323b872dd14610465578063248a9ca3146104845780632995bc50146104a35780632f2ff15d146104b8575f80fd5b806318160ddd1461040657806320d2c9511461043057806323509a2d14610446575f80fd5b8063010ec4411461031b57806301aa0b1a1461035757806301ffc9a71461037857806306fdde03146103a7578063081812fc146103c8578063095ea7b3146103e7575f80fd5b3661031757005b5f80fd5b348015610326575f80fd5b5060065461033a906001600160a01b031681565b6040516001600160a01b0390911681526020015b60405180910390f35b348015610362575f80fd5b5061037661037136600461409b565b6109fe565b005b348015610383575f80fd5b506103976103923660046140d0565b610b30565b604051901515815260200161034e565b3480156103b2575f80fd5b506103bb610b40565b60405161034e9190614119565b3480156103d3575f80fd5b5061033a6103e236600461412b565b610be1565b3480156103f2575f80fd5b50610376610401366004614166565b610bf5565b348015610411575f80fd5b505f8051602061499f833981519152545b60405190815260200161034e565b34801561043b575f80fd5b50610422620186a081565b348015610451575f80fd5b5060085461033a906001600160a01b031681565b348015610470575f80fd5b5061037661047f366004614190565b610c04565b34801561048f575f80fd5b5061042261049e36600461412b565b610c8d565b3480156104ae575f80fd5b5061042260035481565b3480156104c3575f80fd5b506103766104d23660046141ce565b610cad565b3480156104e2575f80fd5b506104226104f1366004614166565b610cc9565b348015610501575f80fd5b506103766105103660046141ce565b610d3a565b348015610520575f80fd5b5061037661052f36600461412b565b610d72565b34801561053f575f80fd5b5061037661054e366004614166565b610ec4565b34801561055e575f80fd5b5061037661056d366004614190565b6112f5565b61058561058036600461409b565b61130f565b6040805182518152602092830151928101929092520161034e565b3480156105ab575f80fd5b506104226105ba36600461412b565b611a86565b3480156105ca575f80fd5b506103766105d93660046142a5565b611af8565b3480156105e9575f80fd5b5061033a6105f836600461412b565b611b0e565b348015610608575f80fd5b5061037661061736600461412b565b611b18565b348015610627575f80fd5b5060055461033a906001600160a01b031681565b348015610646575f80fd5b506103bb611c2e565b34801561065a575f80fd5b506104226106693660046142d7565b611cba565b348015610679575f80fd5b50600a5461033a906001600160a01b031681565b348015610698575f80fd5b5061042260015481565b3480156106ad575f80fd5b506104225f8051602061497f83398151915281565b3480156106cd575f80fd5b506103976106dc3660046141ce565b611d12565b3480156106ec575f80fd5b5061042260025481565b348015610701575f80fd5b506103bb611d48565b348015610715575f80fd5b5061075261072436600461412b565b5f60208190529081526040902080546001820154600283015460038401546004909401549293919290919085565b604080519586526020860194909452928401919091526060830152608082015260a00161034e565b348015610785575f80fd5b5061033a61079436600461412b565b600d6020525f90815260409020546001600160a01b031681565b3480156107b9575f80fd5b506104225f81565b3480156107cc575f80fd5b506103766107db3660046142ff565b611d86565b3480156107eb575f80fd5b50610422670de0b6b3a764000081565b348015610806575f80fd5b5061037661081536600461409b565b611d91565b348015610825575f80fd5b5061037661083436600461432b565b611f3d565b348015610844575f80fd5b5061042261085336600461412b565b611f55565b348015610863575f80fd5b5061037661087236600461409b565b611fbf565b348015610882575f80fd5b5061033a61089136600461412b565b600c6020525f90815260409020546001600160a01b031681565b3480156108b6575f80fd5b5060075461033a906001600160a01b031681565b3480156108d5575f80fd5b506103bb6108e436600461412b565b61213d565b3480156108f4575f80fd5b506104227f9f2df0fed2c77648de5860a4cc508cd0818c85b8b8a1ab4ceeef8d981c8956a681565b348015610927575f80fd5b506103766109363660046141ce565b612279565b348015610946575f80fd5b5061042260045481565b34801561095b575f80fd5b5061037661096a3660046143a6565b612295565b34801561097a575f80fd5b50600b5461033a906001600160a01b031681565b348015610999575f80fd5b506103976109a836600461446e565b6124f4565b3480156109b8575f80fd5b5060095461033a906001600160a01b031681565b6103766109da36600461412b565b612540565b3480156109ea575f80fd5b506104226109f936600461449a565b612678565b33610a0883611b0e565b6001600160a01b031614610a375760405162461bcd60e51b8152600401610a2e9061451a565b60405180910390fd5b606e811015610a885760405162461bcd60e51b815260206004820152601b60248201527f526174696f206d757374206265206174206c65617374203131302500000000006044820152606401610a2e565b6103e8811115610ada5760405162461bcd60e51b815260206004820152601960248201527f526174696f2063616e6e6f7420657863656564203130303025000000000000006044820152606401610a2e565b5f8281526020818152604091829020805484825583518181529283018590529092909185917f3e82d134b4a0328de7223eb1ae194d98009405cb6b8dc9c3d6bd70eb3aeb5c94910160405180910390a250505050565b5f610b3a82612cfb565b92915050565b5f8051602061495f8339815191528054606091908190610b5f90614543565b80601f0160208091040260200160405190810160405280929190818152602001828054610b8b90614543565b8015610bd65780601f10610bad57610100808354040283529160200191610bd6565b820191905f5260205f20905b815481529060010190602001808311610bb957829003601f168201915b505050505091505090565b5f610beb82612d1f565b50610b3a82612d56565b610c00828233612d8f565b5050565b6001600160a01b038216610c2d57604051633250574960e11b81525f6004820152602401610a2e565b5f610c39838333612d9c565b9050836001600160a01b0316816001600160a01b031614610c87576040516364283d7b60e01b81526001600160a01b0380861660048301526024820184905282166044820152606401610a2e565b50505050565b5f9081525f805160206149bf833981519152602052604090206001015490565b610cb682610c8d565b610cbf81612db0565b610c878383612dbd565b5f5f8051602061493f833981519152610ce184611cba565b8310610d125760405163295f44f760e21b81526001600160a01b038516600482015260248101849052604401610a2e565b6001600160a01b0384165f908152602091825260408082208583529092522054905092915050565b6001600160a01b0381163314610d635760405163334bd91960e11b815260040160405180910390fd5b610d6d8282612e5e565b505050565b5f8051602061497f833981519152610d8981612db0565b8115610c00576009546040805163efa7fa5d60e01b815290515f926001600160a01b03169163efa7fa5d9160048083019260209291908290030181865afa158015610dd6573d5f803e3d5ffd5b505050506040513d601f19601f82011682018060405250810190610dfa919061457b565b90505f8111610e5a5760405162461bcd60e51b815260206004820152602660248201527f5969656c6420666163746f72207a65726f20647572696e67207265706f72742060448201526572656d6f766560d01b6064820152608401610a2e565b6006546001600160a01b031663f6ff3ee8610e74856145a6565b6040518263ffffffff1660e01b8152600401610e9291815260200190565b5f604051808303815f87803b158015610ea9575f80fd5b505af1158015610ebb573d5f803e3d5ffd5b50505050505050565b7f9f2df0fed2c77648de5860a4cc508cd0818c85b8b8a1ab4ceeef8d981c8956a6610eee81612db0565b6040805160a081018252606e81525f6020808301828152838501838152606085018481526080860185815289865293859052959093209351845551600184015590516002830155915160038201559051600490910155610f4e8383612ed7565b6040516001600160a01b0384169083907f6474509949d7dca0e17a8cf02aeb66814967a3c7adbfefc212edb6e6693b6865905f90a3600a546001600160a01b0316610fdb5760405162461bcd60e51b815260206004820152601d60248201527f53746162696c697a6572457363726f7720696d706c206e6f74207365740000006044820152606401610a2e565b600b546001600160a01b03166110335760405162461bcd60e51b815260206004820152601b60248201527f506f736974696f6e457363726f7720696d706c206e6f742073657400000000006044820152606401610a2e565b600a545f9061104a906001600160a01b0316612ef0565b90506001600160a01b0381166110a25760405162461bcd60e51b815260206004820152601d60248201527f53746162696c697a6572457363726f7720636c6f6e65206661696c65640000006044820152606401610a2e565b6007546008546040516306b0729b60e31b8152306004820152602481018690526001600160a01b03928316604482015290821660648201529082169063358394d8906084015f604051808303815f87803b1580156110fe575f80fd5b505af1158015611110573d5f803e3d5ffd5b5050505f848152600c6020526040812080546001600160a01b0319166001600160a01b0385811691909117909155600b5491925061114e9116612ef0565b90506001600160a01b0381166111a65760405162461bcd60e51b815260206004820152601b60248201527f506f736974696f6e457363726f7720636c6f6e65206661696c656400000000006044820152606401610a2e565b600754600854600954600554604080516307dc0d1d60e41b815290516001600160a01b038781169663cc2a9a5b9630968e9692841695918416949084169390921691637dc0d1d0916004808201926020929091908290030181865afa158015611211573d5f803e3d5ffd5b505050506040513d601f19601f8201168201806040525081019061123591906145c0565b60405160e088901b6001600160e01b03191681526001600160a01b0396871660048201529486166024860152928516604485015290841660648401528316608483015290911660a482015260c4015f604051808303815f87803b15801561129a575f80fd5b505af11580156112ac573d5f803e3d5ffd5b5050505f858152600d6020526040902080546001600160a01b0319166001600160a01b038416179055506112ed5f8051602061497f83398151915282612dbd565b505050505050565b610d6d83838360405180602001604052805f815250611f3d565b604080518082019091525f80825260208201526005546001600160a01b031633146113725760405162461bcd60e51b815260206004820152601360248201527213db9b1e4818d554d4110818dbdb9d1c9858dd606a1b6044820152606401610a2e565b6001545f036113ba5760405162461bcd60e51b81526020600482015260146024820152734e6f20756e616c6c6f63617465642066756e647360601b6044820152606401610a2e565b5f34116113f75760405162461bcd60e51b815260206004820152600b60248201526a139bc8115512081cd95b9d60aa1b6044820152606401610a2e565b6001545f8083526020830152345b811580159061141357505f81115b156119cc57620186a05a106119cc575f82815260208181526040808320600c909252909120546001600160a01b03168061148f5760405162461bcd60e51b815260206004820152601f60248201527f457363726f77206e6f7420666f756e6420666f722073746162696c697a6572006044820152606401610a2e565b5f816001600160a01b031663ec60b9ab6040518163ffffffff1660e01b8152600401602060405180830381865afa1580156114cc573d5f803e3d5ffd5b505050506040513d601f19601f820116820180604052508101906114f0919061457b565b90508015806114fd575083155b1561150f575050600201549150611405565b5f846064855f01548761152291906145db565b61152c9190614606565b6115369190614619565b90505f8282116115465781611548565b825b9050858282101561158357855461156190606490614619565b61156c8360646145db565b6115769190614606565b9050868111156115835750855b5f888152600d60205260409020546001600160a01b0316806115e25760405162461bcd60e51b8152602060048201526018602482015277141bdcda5d1a5bdb915cd8dc9bddc81b9bdd08199bdd5b9960421b6044820152606401610a2e565b604051634f68ae7560e01b8152600481018490523060248201526001600160a01b03871690634f68ae75906044015f604051808303815f87803b158015611627575f80fd5b505af1158015611639573d5f803e3d5ffd5b50506007546040516323b872dd60e01b81526001600160a01b038a811660048301528581166024830152604482018890525f945090911691506323b872dd906064016020604051808303815f875af1158015611697573d5f803e3d5ffd5b505050506040513d601f19601f820116820180604052508101906116bb919061462c565b9050806117255760405162461bcd60e51b815260206004820152603260248201527f53746162696c697a6572207374455448207472616e7366657220746f20506f736044820152711a5d1a5bdb915cd8dc9bddc819985a5b195960721b6064820152608401610a2e565b60405163bf3fdde760e01b8152600481018590526001600160a01b0383169063bf3fdde79085906024015f604051808303818588803b158015611766575f80fd5b505af1158015611778573d5f803e3d5ffd5b50505050505f8c600a61178b9190614722565b6117958f866145db565b61179f9190614606565b90505f60095f9054906101000a90046001600160a01b03166001600160a01b031663efa7fa5d6040518163ffffffff1660e01b8152600401602060405180830381865afa1580156117f2573d5f803e3d5ffd5b505050506040513d601f19601f82011682018060405250810190611816919061457b565b90505f8160095f9054906101000a90046001600160a01b03166001600160a01b031663a42c69a96040518163ffffffff1660e01b8152600401602060405180830381865afa15801561186a573d5f803e3d5ffd5b505050506040513d601f19601f8201168201806040525081019061188e919061457b565b61189890856145db565b6118a29190614606565b6040516302ff41ff60e21b8152600481018290529091506001600160a01b03861690630bfd07fc906024015f604051808303815f87803b1580156118e4575f80fd5b505af11580156118f6573d5f803e3d5ffd5b50505050858e5f0181815161190b919061472d565b905250611918868d614619565b6040805189815260208101899052919d508e917fc0a79f21f196b4ee5a242474a85cb9aa5fc2ce59ecc884d7271f1c2bd19b9a13910160405180910390a260038b015415801561196a575060048b0154155b801561197857508c60035414155b15611986576119868d612efb565b611990878761472d565b8e6020018181516119a1919061472d565b90525060028b01548988036119b9576119b98e612fda565b9c506114059a5050505050505050505050565b8251611a0f5760405162461bcd60e51b8152602060048201526012602482015271139bc8199d5b991cc8185b1b1bd8d85d195960721b6044820152606401610a2e565b602083015115611a7e576006546020840151604051631edfe7dd60e31b81526001600160a01b039092169163f6ff3ee891611a509160040190815260200190565b5f604051808303815f87803b158015611a67575f80fd5b505af1158015611a79573d5f803e3d5ffd5b505050505b505092915050565b5f5f8051602061493f833981519152611aaa5f8051602061499f8339815191525490565b8310611ad25760405163295f44f760e21b81525f600482015260248101849052604401610a2e565b806002018381548110611ae757611ae7614740565b905f5260205f200154915050919050565b5f611b0281612db0565b600e610d6d8382614798565b5f610b3a82612d1f565b5f8051602061497f833981519152611b2f81612db0565b8115610c00576009546040805163efa7fa5d60e01b815290515f926001600160a01b03169163efa7fa5d9160048083019260209291908290030181865afa158015611b7c573d5f803e3d5ffd5b505050506040513d601f19601f82011682018060405250810190611ba0919061457b565b90505f8111611bfd5760405162461bcd60e51b815260206004820152602360248201527f5969656c6420666163746f72207a65726f20647572696e67207265706f72742060448201526218591960ea1b6064820152608401610a2e565b600654604051631edfe7dd60e31b8152600481018590526001600160a01b039091169063f6ff3ee890602401610e92565b600e8054611c3b90614543565b80601f0160208091040260200160405190810160405280929190818152602001828054611c6790614543565b8015611cb25780601f10611c8957610100808354040283529160200191611cb2565b820191905f5260205f20905b815481529060010190602001808311611c9557829003601f168201915b505050505081565b5f5f8051602061495f8339815191526001600160a01b038316611cf2576040516322718ad960e21b81525f6004820152602401610a2e565b6001600160a01b039092165f908152600390920160205250604090205490565b5f9182525f805160206149bf833981519152602090815260408084206001600160a01b0393909316845291905290205460ff1690565b7f80bb2b638cc20bc4d0a60d66940f3ab4a00c1d7b313497ca82fb0b4ab007930180546060915f8051602061495f83398151915291610b5f90614543565b610c0033838361309a565b33611d9b83611b0e565b6001600160a01b031614611dc15760405162461bcd60e51b8152600401610a2e9061451a565b5f8111611e0a5760405162461bcd60e51b8152602060048201526017602482015276416d6f756e74206d75737420626520706f73697469766560481b6044820152606401610a2e565b5f828152600c60205260409020546001600160a01b031680611e3e5760405162461bcd60e51b8152600401610a2e90614853565b604051622a405560ea1b8152600481018390526001600160a01b0382169063a9015400906024015f604051808303815f87803b158015611e7c575f80fd5b505af1158015611e8e573d5f803e3d5ffd5b50505050806001600160a01b031663ec60b9ab6040518163ffffffff1660e01b8152600401602060405180830381865afa158015611ece573d5f803e3d5ffd5b505050506040513d601f19601f82011682018060405250810190611ef2919061457b565b5f03611f0157611f0183612fda565b604051828152339084907f19c1c869dd7473a5f044067f579bac3244509e5680cb0c044bc60f0a8165f5699060200160405180910390a3505050565b611f48848484610c04565b610c873385858585613149565b5f80611f6083611b0e565b6001600160a01b031603611fad5760405162461bcd60e51b8152602060048201526014602482015273151bdad95b88191bd95cc81b9bdd08195e1a5cdd60621b6044820152606401610a2e565b505f9081526020819052604090205490565b33611fc983611b0e565b6001600160a01b031614611fef5760405162461bcd60e51b8152600401610a2e9061451a565b5f81116120385760405162461bcd60e51b8152602060048201526017602482015276416d6f756e74206d75737420626520706f73697469766560481b6044820152606401610a2e565b5f828152600c60205260409020546001600160a01b03168061206c5760405162461bcd60e51b8152600401610a2e90614853565b6007546040516323b872dd60e01b81523360048201526001600160a01b03838116602483015260448201859052909116906323b872dd906064016020604051808303815f875af11580156120c2573d5f803e3d5ffd5b505050506040513d601f19601f820116820180604052508101906120e6919061462c565b506120f08361326f565b600754604080516001600160a01b0390921682526020820184905284917f055b14c7efbc07d692265b907b52ec309741a29408ffad1d871aa6b371ac7729910160405180910390a2505050565b60605f61214983611b0e565b6001600160a01b03160361219f5760405162461bcd60e51b815260206004820152601860248201527f4552433732313a20696e76616c696420746f6b656e20494400000000000000006044820152606401610a2e565b5f600e80546121ad90614543565b80601f01602080910402602001604051908101604052809291908181526020018280546121d990614543565b80156122245780601f106121fb57610100808354040283529160200191612224565b820191905f5260205f20905b81548152906001019060200180831161220757829003601f168201915b505050505090505f8151116122475760405180602001604052805f815250612272565b80612251846133a8565b604051602001612262929190614894565b6040516020818303038152906040525b9392505050565b61228282610c8d565b61228b81612db0565b610c878383612e5e565b5f61229e6134a5565b805490915060ff600160401b820416159067ffffffffffffffff165f811580156122c55750825b90505f8267ffffffffffffffff1660011480156122e15750303b155b9050811580156122ef575080155b1561230d5760405163f92ee8a960e01b815260040160405180910390fd5b845467ffffffffffffffff19166001178555831561233757845460ff60401b1916600160401b1785555b6123856040518060400160405280600f81526020016e2aa9a8221029ba30b134b634bd32b960891b81525060405180604001604052806005815260200164555350445360d81b8152506134cd565b61238d6134df565b6123956134df565b61239f5f87612dbd565b508d60055f6101000a8154816001600160a01b0302191690836001600160a01b031602179055508c60075f6101000a8154816001600160a01b0302191690836001600160a01b031602179055508b60085f6101000a8154816001600160a01b0302191690836001600160a01b031602179055508a60095f6101000a8154816001600160a01b0302191690836001600160a01b031602179055508960065f6101000a8154816001600160a01b0302191690836001600160a01b0316021790555088600e908161246d9190614798565b50600a80546001600160a01b03808b166001600160a01b031992831617909255600b8054928a169290911691909117905583156124e457845460ff60401b19168555604051600181527fc7f505b2f371ae2175ee4913f4499e1f2633a7b5936321eed1cdaeb6115181d29060200160405180910390a15b5050505050505050505050505050565b6001600160a01b039182165f9081527f80bb2b638cc20bc4d0a60d66940f3ab4a00c1d7b313497ca82fb0b4ab00793056020908152604080832093909416825291909152205460ff1690565b3361254a82611b0e565b6001600160a01b0316146125705760405162461bcd60e51b8152600401610a2e9061451a565b5f34116125ad5760405162461bcd60e51b815260206004820152600b60248201526a139bc8115512081cd95b9d60aa1b6044820152606401610a2e565b5f818152600c60205260409020546001600160a01b0316806125e15760405162461bcd60e51b8152600401610a2e90614853565b806001600160a01b031663d0e30db0346040518263ffffffff1660e01b81526004015f604051808303818588803b15801561261a575f80fd5b505af115801561262c573d5f803e3d5ffd5b505050505061263a8261326f565b604080515f815234602082015283917f055b14c7efbc07d692265b907b52ec309741a29408ffad1d871aa6b371ac7729910160405180910390a25050565b6005545f906001600160a01b031633146126ca5760405162461bcd60e51b815260206004820152601360248201527213db9b1e4818d554d4110818dbdb9d1c9858dd606a1b6044820152606401610a2e565b6004545f036127105760405162461bcd60e51b81526020600482015260126024820152714e6f20616c6c6f63617465642066756e647360701b6044820152606401610a2e565b600454835f805b831580159061272557505f83115b15612c3f57620186a05a10612c3f575f84815260208181526040808320600d909252909120546001600160a01b03168061279c5760405162461bcd60e51b8152602060048201526018602482015277141bdcda5d1a5bdb915cd8dc9bddc81b9bdd08199bdd5b9960421b6044820152606401610a2e565b5f8190505f816001600160a01b031663d39aa95a6040518163ffffffff1660e01b8152600401602060405180830381865afa1580156127dd573d5f803e3d5ffd5b505050506040513d601f19601f82011682018060405250810190612801919061457b565b90508015612c31575f8188116128175787612819565b815b90508015612c2f575f8061282e85848f6134e9565b91509150846001600160a01b0316630bfd07fc8461284b906145a6565b6040518263ffffffff1660e01b815260040161286991815260200190565b5f604051808303815f87803b158015612880575f80fd5b505af1158015612892573d5f803e3d5ffd5b5050604051634ea2884d60e11b815260048101859052602481018490523060448201526001600160a01b0388169250639d45109a91506064015f604051808303815f87803b1580156128e2575f80fd5b505af11580156128f4573d5f803e3d5ffd5b505050505f81836129059190614619565b905081156129f55760075460055460405163a9059cbb60e01b81526001600160a01b039182166004820152602481018590525f92919091169063a9059cbb906044016020604051808303815f875af1158015612963573d5f803e3d5ffd5b505050506040513d601f19601f82011682018060405250810190612987919061462c565b9050806129e75760405162461bcd60e51b815260206004820152602860248201527f55736572207374455448207472616e7366657220746f206355535044546f6b656044820152671b8819985a5b195960c21b6064820152608401610a2e565b6129f1838c61472d565b9a50505b8015612b42575f8c8152600c60205260409020546001600160a01b031680612a5f5760405162461bcd60e51b815260206004820152601a60248201527f53746162696c697a6572457363726f77206e6f7420666f756e640000000000006044820152606401610a2e565b60075460405163a9059cbb60e01b81526001600160a01b038381166004830152602482018590525f92169063a9059cbb906044016020604051808303815f875af1158015612aaf573d5f803e3d5ffd5b505050506040513d601f19601f82011682018060405250810190612ad3919061462c565b905080612b3f5760405162461bcd60e51b815260206004820152603460248201527f53746162696c697a6572207374455448207472616e7366657220746f20537461604482015273189a5b1a5e995c915cd8dc9bddc819985a5b195960621b6064820152608401610a2e565b50505b612b4c838a61472d565b98508484148015612be257612b608d6137ed565b5f8d8152600c6020908152604080832054815163ec60b9ab60e01b815291516001600160a01b039091169263ec60b9ab92600480820193918290030181865afa158015612baf573d5f803e3d5ffd5b505050506040513d601f19601f82011682018060405250810190612bd3919061457b565b1115612be257612be28d61326f565b612bec858d614619565b6040805185815260208101859052919d508e917f7bd51af63c72ca163b2d37a37219fbdda7a4c3803f69ed76e3948078619a32f9910160405180910390a2505050505b505b505050600301549350612717565b5f8211612c855760405162461bcd60e51b8152602060048201526014602482015273139bc8199d5b991cc81d5b985b1b1bd8d85d195960621b6044820152606401610a2e565b8015612cf1576006546001600160a01b031663f6ff3ee8612ca5836145a6565b6040518263ffffffff1660e01b8152600401612cc391815260200190565b5f604051808303815f87803b158015612cda575f80fd5b505af1158015612cec573d5f803e3d5ffd5b505050505b5095945050505050565b5f6001600160e01b03198216637965db0b60e01b1480610b3a5750610b3a826138ad565b5f80612d2a836138d1565b90506001600160a01b038116610b3a57604051637e27328960e01b815260048101849052602401610a2e565b5f9081527f80bb2b638cc20bc4d0a60d66940f3ab4a00c1d7b313497ca82fb0b4ab007930460205260409020546001600160a01b031690565b610d6d838383600161390a565b5f612da8848484613a1d565b949350505050565b612dba8133613b13565b50565b5f5f805160206149bf833981519152612dd68484611d12565b612e55575f848152602082815260408083206001600160a01b03871684529091529020805460ff19166001179055612e0b3390565b6001600160a01b0316836001600160a01b0316857f2f8788117e7eff1d82e926ec794901d17c78024a50270940304540a733656f0d60405160405180910390a46001915050610b3a565b5f915050610b3a565b5f5f805160206149bf833981519152612e778484611d12565b15612e55575f848152602082815260408083206001600160a01b0387168085529252808320805460ff1916905551339287917ff6391f5c32d9c69d2a47ea670b442974b53935d1edc7fd64eb21e047a839171b9190a46001915050610b3a565b610c00828260405180602001604052805f815250613b4c565b5f610b3a825f613b63565b6003541580612f0a5750600454155b15612f19576003819055600455565b600454811115612f4757600480545f8381526020819052604080822060030183905591815220810182905555565b600354811015612f7557600380545f8381526020819052604080822060040183905591815220810182905555565b6003545b8015801590612f8757508181105b15612fa2575f90815260208190526040902060040154612f79565b5f8181526020819052604080822060039081018054868552838520928301819055600492830186905584529183200184905591905255565b5f81815260208190526040902060015482148015612ff9575060025482145b1561300c575f6001819055600255613089565b600154820361303357600281015460018181555f9182526020829052604082200155613089565b600254820361305a57600181015460028181555f9182526020829052604082200155613089565b600180820154600280840180545f90815260208190526040808220909501849055905492815292909220909101555b5f6002820181905560019091015550565b5f8051602061495f8339815191526001600160a01b0383166130da57604051630b61174360e31b81526001600160a01b0384166004820152602401610a2e565b6001600160a01b038481165f818152600584016020908152604080832094881680845294825291829020805460ff191687151590811790915591519182527f17307eab39ab6107e8899845ad3d59bd9653f200f220920489ca2b5937696c31910160405180910390a350505050565b6001600160a01b0383163b1561326857604051630a85bd0160e11b81526001600160a01b0384169063150b7a029061318b9088908890879087906004016148a8565b6020604051808303815f875af19250505080156131c5575060408051601f3d908101601f191682019092526131c2918101906148e4565b60015b61322c573d8080156131f2576040519150601f19603f3d011682016040523d82523d5f602084013e6131f7565b606091505b5080515f0361322457604051633250574960e11b81526001600160a01b0385166004820152602401610a2e565b805181602001fd5b6001600160e01b03198116630a85bd0160e11b146112ed57604051633250574960e11b81526001600160a01b0385166004820152602401610a2e565b5050505050565b5f818152602081905260409020600181015415801561329057506002810154155b801561329e57508160015414155b15610c00576001545f036132b757506001819055600255565b6002548211156132e457600280546001929092018290555f91825260208290526040909120810182905555565b60015482101561331157600180546002929092018290555f91825260208290526040909120810182905555565b6001545b5f818152602081905260409020600201541580159061334357505f8181526020819052604090206002015483115b1561335e575f90815260208190526040902060020154613315565b5f818152602081905260409020600290810180546001850184905591840182905584905580156133a0575f818152602081905260409020600101849055610c87565b505050600255565b6060815f036133ce5750506040805180820190915260018152600360fc1b602082015290565b815f5b81156133f757806133e1816148ff565b91506133f09050600a83614606565b91506133d1565b5f8167ffffffffffffffff811115613411576134116141fc565b6040519080825280601f01601f19166020018201604052801561343b576020820181803683370190505b5090505b8415612da857613450600183614619565b915061345d600a86614917565b61346890603061472d565b60f81b81838151811061347d5761347d614740565b60200101906001600160f81b03191690815f1a90535061349e600a86614606565b945061343f565b5f807ff0c57e16840df040f15088dc2f81fe391c3923bec73e23a9662efc9c229c6a00610b3a565b6134d5613bf7565b610c008282613c1c565b6134e7613bf7565b565b5f80846001600160a01b031663d39aa95a6040518163ffffffff1660e01b8152600401602060405180830381865afa158015613527573d5f803e3d5ffd5b505050506040513d601f19601f8201168201806040525081019061354b919061457b565b5f0361355b57505f9050806137e5565b6009546040805163efa7fa5d60e01b815290515f926001600160a01b03169163efa7fa5d9160048083019260209291908290030181865afa1580156135a2573d5f803e3d5ffd5b505050506040513d601f19601f820116820180604052508101906135c6919061457b565b90505f60095f9054906101000a90046001600160a01b03166001600160a01b031663a42c69a96040518163ffffffff1660e01b8152600401602060405180830381865afa158015613619573d5f803e3d5ffd5b505050506040513d601f19601f8201168201806040525081019061363d919061457b565b61364783886145db565b6136519190614606565b85519091506136a25760405162461bcd60e51b815260206004820152601b60248201527f4f7261636c652070726963652063616e6e6f74206265207a65726f00000000006044820152606401610a2e565b845160208601516136b79060ff16600a614722565b6136c190836145db565b6136cb9190614606565b6040805163dc607d6f60e01b815287516004820152602088015160ff1660248201529087015160448201529093505f906001600160a01b0389169063dc607d6f90606401602060405180830381865afa15801561372a573d5f803e3d5ffd5b505050506040513d601f19601f8201168201806040525081019061374e919061457b565b905060648110156137bd5760405162461bcd60e51b815260206004820152603360248201527f43616e6e6f7420756e616c6c6f636174652066726f6d20756e646572636f6c6c60448201527230ba32b930b634bd32b2103837b9b4ba34b7b760691b6064820152608401610a2e565b60646137c982866145db565b6137d39190614606565b9450848411156137e1578493505b5050505b935093915050565b5f8181526020819052604090206003548214801561380c575060045482145b1561381f575f600381905560045561389c565b600354820361384657600481015460038181555f918252602082905260408220015561389c565b600454820361386d57600381015460048181555f918252602082905260408220015561389c565b600380820154600480840180545f90815260208190526040808220909501849055905492815292909220909101555b5f6004820181905560039091015550565b5f6001600160e01b0319821663780e9d6360e01b1480610b3a5750610b3a82613c4c565b5f9081527f80bb2b638cc20bc4d0a60d66940f3ab4a00c1d7b313497ca82fb0b4ab007930260205260409020546001600160a01b031690565b5f8051602061495f833981519152818061392c57506001600160a01b03831615155b156139ed575f61393b85612d1f565b90506001600160a01b038416158015906139675750836001600160a01b0316816001600160a01b031614155b801561397a575061397881856124f4565b155b156139a35760405163a9fbf51f60e01b81526001600160a01b0385166004820152602401610a2e565b82156139eb5784866001600160a01b0316826001600160a01b03167f8c5be1e5ebec7d5bd14f71427d1e84f3dd0314c0f7b2291e5b200ac8c7c3b92560405160405180910390a45b505b5f93845260040160205250506040902080546001600160a01b0319166001600160a01b0392909216919091179055565b5f80613a2a858585613c9b565b90506001600160a01b038116613ab157613aac845f8051602061499f83398151915280545f8381527f645e039705490088daad89bae25049a34f4a9072d398537b1ab2425f24cbed0360205260408120829055600182018355919091527fa42f15e5d656f8155fd7419d740a6073999f19cd6e061449ce4a257150545bf20155565b613ad4565b846001600160a01b0316816001600160a01b031614613ad457613ad48185613d9d565b6001600160a01b038516613af057613aeb84613e34565b612da8565b846001600160a01b0316816001600160a01b031614612da857612da88585613f01565b613b1d8282611d12565b610c005760405163e2517d3f60e01b81526001600160a01b038216600482015260248101839052604401610a2e565b613b568383613f59565b610d6d335f858585613149565b5f81471015613b8e5760405163cf47918160e01b815247600482015260248101839052604401610a2e565b763d602d80600a3d3981f3363d3d373d3d3d363d730000008360601b60e81c175f526e5af43d82803e903d91602b57fd5bf38360781b176020526037600983f090506001600160a01b038116610b3a5760405163b06ebf3d60e01b815260040160405180910390fd5b613bff613fba565b6134e757604051631afcd79f60e31b815260040160405180910390fd5b613c24613bf7565b5f8051602061495f83398151915280613c3d8482614798565b5060018101610c878382614798565b5f6001600160e01b031982166380ac58cd60e01b1480613c7c57506001600160e01b03198216635b5e139f60e01b145b80610b3a57506301ffc9a760e01b6001600160e01b0319831614610b3a565b5f5f8051602061495f83398151915281613cb4856138d1565b90506001600160a01b03841615613cd057613cd0818587613fd3565b6001600160a01b03811615613d0c57613ceb5f865f8061390a565b6001600160a01b0381165f908152600383016020526040902080545f190190555b6001600160a01b03861615613d3c576001600160a01b0386165f9081526003830160205260409020805460010190555b5f85815260028301602052604080822080546001600160a01b0319166001600160a01b038a811691821790925591518893918516917fddf252ad1be2c89b69c2b068fc378daa952ba7f163c4a11628f55a4df523b3ef91a495945050505050565b5f8051602061493f8339815191525f613db584611cba565b5f8481526001840160209081526040808320546001600160a01b03891684529186905290912091925090818314613e0d575f838152602082815260408083205485845281842081905583526001870190915290208290555b5f948552600190930160209081526040808620869055928552929092528220919091555050565b5f8051602061499f833981519152545f8051602061493f833981519152905f90613e6090600190614619565b5f848152600384016020526040812054600285018054939450909284908110613e8b57613e8b614740565b905f5260205f200154905080846002018381548110613eac57613eac614740565b5f91825260208083209091019290925582815260038601909152604080822084905586825281205560028401805480613ee757613ee761492a565b600190038181905f5260205f20015f905590555050505050565b5f8051602061493f8339815191525f6001613f1b85611cba565b613f259190614619565b6001600160a01b039094165f9081526020838152604080832087845282528083208690559482526001909301909252502055565b6001600160a01b038216613f8257604051633250574960e11b81525f6004820152602401610a2e565b5f613f8e83835f612d9c565b90506001600160a01b03811615610d6d576040516339e3563760e11b81525f6004820152602401610a2e565b5f613fc36134a5565b54600160401b900460ff16919050565b613fde838383614037565b610d6d576001600160a01b03831661400c57604051637e27328960e01b815260048101829052602401610a2e565b60405163177e802f60e01b81526001600160a01b038316600482015260248101829052604401610a2e565b5f6001600160a01b03831615801590612da85750826001600160a01b0316846001600160a01b03161480614070575061407084846124f4565b80612da85750826001600160a01b031661408983612d56565b6001600160a01b031614949350505050565b5f80604083850312156140ac575f80fd5b50508035926020909101359150565b6001600160e01b031981168114612dba575f80fd5b5f602082840312156140e0575f80fd5b8135612272816140bb565b5f81518084528060208401602086015e5f602082860101526020601f19601f83011685010191505092915050565b602081525f61227260208301846140eb565b5f6020828403121561413b575f80fd5b5035919050565b6001600160a01b0381168114612dba575f80fd5b803561416181614142565b919050565b5f8060408385031215614177575f80fd5b823561418281614142565b946020939093013593505050565b5f805f606084860312156141a2575f80fd5b83356141ad81614142565b925060208401356141bd81614142565b929592945050506040919091013590565b5f80604083850312156141df575f80fd5b8235915060208301356141f181614142565b809150509250929050565b634e487b7160e01b5f52604160045260245ffd5b5f8067ffffffffffffffff84111561422a5761422a6141fc565b50604051601f19601f85018116603f0116810181811067ffffffffffffffff82111715614259576142596141fc565b604052838152905080828401851015614270575f80fd5b838360208301375f60208583010152509392505050565b5f82601f830112614296575f80fd5b61227283833560208501614210565b5f602082840312156142b5575f80fd5b813567ffffffffffffffff8111156142cb575f80fd5b612da884828501614287565b5f602082840312156142e7575f80fd5b813561227281614142565b8015158114612dba575f80fd5b5f8060408385031215614310575f80fd5b823561431b81614142565b915060208301356141f1816142f2565b5f805f806080858703121561433e575f80fd5b843561434981614142565b9350602085013561435981614142565b925060408501359150606085013567ffffffffffffffff81111561437b575f80fd5b8501601f8101871361438b575f80fd5b61439a87823560208401614210565b91505092959194509250565b5f805f805f805f805f6101208a8c0312156143bf575f80fd5b89356143ca81614142565b985060208a01356143da81614142565b975060408a01356143ea81614142565b965060608a01356143fa81614142565b955060808a013561440a81614142565b945060a08a013567ffffffffffffffff811115614425575f80fd5b6144318c828d01614287565b94505060c08a013561444281614142565b925061445060e08b01614156565b915061445f6101008b01614156565b90509295985092959850929598565b5f806040838503121561447f575f80fd5b823561448a81614142565b915060208301356141f181614142565b5f8082840360808112156144ac575f80fd5b833592506060601f19820112156144c1575f80fd5b506040516060810167ffffffffffffffff811182821017156144e5576144e56141fc565b60409081526020850135825284013560ff81168114614502575f80fd5b60208201526060939093013560408401525092909150565b6020808252600f908201526e2737ba103a37b5b2b71037bbb732b960891b604082015260600190565b600181811c9082168061455757607f821691505b60208210810361457557634e487b7160e01b5f52602260045260245ffd5b50919050565b5f6020828403121561458b575f80fd5b5051919050565b634e487b7160e01b5f52601160045260245ffd5b5f600160ff1b82016145ba576145ba614592565b505f0390565b5f602082840312156145d0575f80fd5b815161227281614142565b8082028115828204841417610b3a57610b3a614592565b634e487b7160e01b5f52601260045260245ffd5b5f82614614576146146145f2565b500490565b81810381811115610b3a57610b3a614592565b5f6020828403121561463c575f80fd5b8151612272816142f2565b6001815b60018411156137e55780850481111561466657614666614592565b600184161561467457908102905b60019390931c92800261464b565b5f8261469057506001610b3a565b8161469c57505f610b3a565b81600181146146b257600281146146bc576146d8565b6001915050610b3a565b60ff8411156146cd576146cd614592565b50506001821b610b3a565b5060208310610133831016604e8410600b84101617156146fb575081810a610b3a565b6147075f198484614647565b805f190482111561471a5761471a614592565b029392505050565b5f6122728383614682565b80820180821115610b3a57610b3a614592565b634e487b7160e01b5f52603260045260245ffd5b601f821115610d6d57805f5260205f20601f840160051c810160208510156147795750805b601f840160051c820191505b81811015613268575f8155600101614785565b815167ffffffffffffffff8111156147b2576147b26141fc565b6147c6816147c08454614543565b84614754565b6020601f8211600181146147f8575f83156147e15750848201515b5f19600385901b1c1916600184901b178455613268565b5f84815260208120601f198516915b828110156148275787850151825560209485019460019092019101614807565b508482101561484457868401515f19600387901b60f8161c191681555b50505050600190811b01905550565b60208082526010908201526f115cd8dc9bddc81b9bdd08199bdd5b9960821b604082015260600190565b5f81518060208401855e5f93019283525090919050565b5f612da86148a2838661487d565b8461487d565b6001600160a01b03858116825284166020820152604081018390526080606082018190525f906148da908301846140eb565b9695505050505050565b5f602082840312156148f4575f80fd5b8151612272816140bb565b5f6001820161491057614910614592565b5060010190565b5f82614925576149256145f2565b500690565b634e487b7160e01b5f52603160045260245ffdfe645e039705490088daad89bae25049a34f4a9072d398537b1ab2425f24cbed0080bb2b638cc20bc4d0a60d66940f3ab4a00c1d7b313497ca82fb0b4ab00793008c21e8ab0c92c4c41f2714adb63619371ca8ed5eb69a6fed79b7d52cdd9703ae645e039705490088daad89bae25049a34f4a9072d398537b1ab2425f24cbed0202dd7bc7dec4dceedda775e58dd541e08a116c6c53815c0bd028192f7b626800a2646970667358221220a573189b44b941edb6d6c20e91f6a59f4b7b52bf12788ee579832fbd887527a164736f6c634300081a0033","linkReferences":{}},"methodIdentifiers":{"DEFAULT_ADMIN_ROLE()":"a217fddf","FACTOR_PRECISION()":"a42c69a9","MINTER_ROLE()":"d5391393","MIN_GAS()":"20d2c951","POSITION_ESCROW_ROLE()":"8d7cac7b","addUnallocatedFundsEth(uint256)":"f399beb7","addUnallocatedFundsStETH(uint256,uint256)":"bb566297","allocateStabilizerFunds(uint256,uint256)":"451fda68","approve(address,uint256)":"095ea7b3","balanceOf(address)":"70a08231","baseURI()":"6c0360eb","cuspdToken()":"6bc05b7e","getApproved(uint256)":"081812fc","getMinCollateralRatio(uint256)":"bb310a80","getRoleAdmin(bytes32)":"248a9ca3","grantRole(bytes32,address)":"2f2ff15d","hasRole(bytes32,address)":"91d14854","highestAllocatedId()":"d743fd1e","highestUnallocatedId()":"92133362","initialize(address,address,address,address,address,string,address,address,address)":"e6dec421","isApprovedForAll(address,address)":"e985e9c5","lido()":"23509a2d","lowestAllocatedId()":"2995bc50","lowestUnallocatedId()":"853cad06","mint(address,uint256)":"40c10f19","name()":"06fdde03","ownerOf(uint256)":"6352211e","positionEscrowImplementation()":"e96d5787","positionEscrows(uint256)":"a04ad512","positions(uint256)":"99fbab88","rateContract()":"eee24219","removeUnallocatedFunds(uint256,uint256)":"ae88a779","renounceRole(bytes32,address)":"36568abe","reportCollateralAddition(uint256)":"67bff4a8","reportCollateralRemoval(uint256)":"39112058","reporter()":"010ec441","revokeRole(bytes32,address)":"d547741f","safeTransferFrom(address,address,uint256)":"42842e0e","safeTransferFrom(address,address,uint256,bytes)":"b88d4fde","setApprovalForAll(address,bool)":"a22cb465","setBaseURI(string)":"55f804b3","setMinCollateralizationRatio(uint256,uint256)":"01aa0b1a","stETH()":"c1fe3e48","stabilizerEscrowImplementation()":"7da31f61","stabilizerEscrows(uint256)":"bba6fd6f","supportsInterface(bytes4)":"01ffc9a7","symbol()":"95d89b41","tokenByIndex(uint256)":"4f6ccce7","tokenOfOwnerByIndex(address,uint256)":"2f745c59","tokenURI(uint256)":"c87b56dd","totalSupply()":"18160ddd","transferFrom(address,address,uint256)":"23b872dd","unallocateStabilizerFunds(uint256,(uint256,uint8,uint256))":"ff70fa64"},"storageLayout":{"storage":[{"astId":53720,"contract":"src/StabilizerNFT.sol:StabilizerNFT","label":"positions","offset":0,"slot":"0","type":"t_mapping(t_uint256,t_struct(StabilizerPosition)53715_storage)"},{"astId":53722,"contract":"src/StabilizerNFT.sol:StabilizerNFT","label":"lowestUnallocatedId","offset":0,"slot":"1","type":"t_uint256"},{"astId":53724,"contract":"src/StabilizerNFT.sol:StabilizerNFT","label":"highestUnallocatedId","offset":0,"slot":"2","type":"t_uint256"},{"astId":53726,"contract":"src/StabilizerNFT.sol:StabilizerNFT","label":"lowestAllocatedId","offset":0,"slot":"3","type":"t_uint256"},{"astId":53728,"contract":"src/StabilizerNFT.sol:StabilizerNFT","label":"highestAllocatedId","offset":0,"slot":"4","type":"t_uint256"},{"astId":53731,"contract":"src/StabilizerNFT.sol:StabilizerNFT","label":"cuspdToken","offset":0,"slot":"5","type":"t_contract(IcUSPDToken)57452"},{"astId":53734,"contract":"src/StabilizerNFT.sol:StabilizerNFT","label":"reporter","offset":0,"slot":"6","type":"t_contract(IOvercollateralizationReporter)57073"},{"astId":53736,"contract":"src/StabilizerNFT.sol:StabilizerNFT","label":"stETH","offset":0,"slot":"7","type":"t_address"},{"astId":53738,"contract":"src/StabilizerNFT.sol:StabilizerNFT","label":"lido","offset":0,"slot":"8","type":"t_address"},{"astId":53741,"contract":"src/StabilizerNFT.sol:StabilizerNFT","label":"rateContract","offset":0,"slot":"9","type":"t_contract(IPoolSharesConversionRate)57102"},{"astId":53743,"contract":"src/StabilizerNFT.sol:StabilizerNFT","label":"stabilizerEscrowImplementation","offset":0,"slot":"10","type":"t_address"},{"astId":53745,"contract":"src/StabilizerNFT.sol:StabilizerNFT","label":"positionEscrowImplementation","offset":0,"slot":"11","type":"t_address"},{"astId":53749,"contract":"src/StabilizerNFT.sol:StabilizerNFT","label":"stabilizerEscrows","offset":0,"slot":"12","type":"t_mapping(t_uint256,t_address)"},{"astId":53753,"contract":"src/StabilizerNFT.sol:StabilizerNFT","label":"positionEscrows","offset":0,"slot":"13","type":"t_mapping(t_uint256,t_address)"},{"astId":53755,"contract":"src/StabilizerNFT.sol:StabilizerNFT","label":"baseURI","offset":0,"slot":"14","type":"t_string_storage"}],"types":{"t_address":{"encoding":"inplace","label":"address","numberOfBytes":"20"},"t_contract(IOvercollateralizationReporter)57073":{"encoding":"inplace","label":"contract IOvercollateralizationReporter","numberOfBytes":"20"},"t_contract(IPoolSharesConversionRate)57102":{"encoding":"inplace","label":"contract IPoolSharesConversionRate","numberOfBytes":"20"},"t_contract(IcUSPDToken)57452":{"encoding":"inplace","label":"contract IcUSPDToken","numberOfBytes":"20"},"t_mapping(t_uint256,t_address)":{"encoding":"mapping","key":"t_uint256","label":"mapping(uint256 => address)","numberOfBytes":"32","value":"t_address"},"t_mapping(t_uint256,t_struct(StabilizerPosition)53715_storage)":{"encoding":"mapping","key":"t_uint256","label":"mapping(uint256 => struct StabilizerNFT.StabilizerPosition)","numberOfBytes":"32","value":"t_struct(StabilizerPosition)53715_storage"},"t_string_storage":{"encoding":"bytes","label":"string","numberOfBytes":"32"},"t_struct(StabilizerPosition)53715_storage":{"encoding":"inplace","label":"struct StabilizerNFT.StabilizerPosition","numberOfBytes":"160","members":[{"astId":53706,"contract":"src/StabilizerNFT.sol:StabilizerNFT","label":"minCollateralRatio","offset":0,"slot":"0","type":"t_uint256"},{"astId":53708,"contract":"src/StabilizerNFT.sol:StabilizerNFT","label":"prevUnallocated","offset":0,"slot":"1","type":"t_uint256"},{"astId":53710,"contract":"src/StabilizerNFT.sol:StabilizerNFT","label":"nextUnallocated","offset":0,"slot":"2","type":"t_uint256"},{"astId":53712,"contract":"src/StabilizerNFT.sol:StabilizerNFT","label":"prevAllocated","offset":0,"slot":"3","type":"t_uint256"},{"astId":53714,"contract":"src/StabilizerNFT.sol:StabilizerNFT","label":"nextAllocated","offset":0,"slot":"4","type":"t_uint256"}]},"t_uint256":{"encoding":"inplace","label":"uint256","numberOfBytes":"32"}}},"id":75}