{"abi":[{"type":"constructor","inputs":[],"stateMutability":"nonpayable"},{"type":"receive","stateMutability":"payable"},{"type":"function","name":"DEFAULT_ADMIN_ROLE","inputs":[],"outputs":[{"name":"","type":"bytes32","internalType":"bytes32"}],"stateMutability":"view"},{"type":"function","name":"FACTOR_PRECISION","inputs":[],"outputs":[{"name":"","type":"uint256","internalType":"uint256"}],"stateMutability":"view"},{"type":"function","name":"MINIMUM_UNALLOCATE_COLLATERALIZATION_RATIO","inputs":[],"outputs":[{"name":"","type":"uint256","internalType":"uint256"}],"stateMutability":"view"},{"type":"function","name":"MINTER_ROLE","inputs":[],"outputs":[{"name":"","type":"bytes32","internalType":"bytes32"}],"stateMutability":"view"},{"type":"function","name":"MIN_GAS","inputs":[],"outputs":[{"name":"","type":"uint256","internalType":"uint256"}],"stateMutability":"view"},{"type":"function","name":"POSITION_ESCROW_ROLE","inputs":[],"outputs":[{"name":"","type":"bytes32","internalType":"bytes32"}],"stateMutability":"view"},{"type":"function","name":"UPGRADER_ROLE","inputs":[],"outputs":[{"name":"","type":"bytes32","internalType":"bytes32"}],"stateMutability":"view"},{"type":"function","name":"UPGRADE_INTERFACE_VERSION","inputs":[],"outputs":[{"name":"","type":"string","internalType":"string"}],"stateMutability":"view"},{"type":"function","name":"addUnallocatedFundsEth","inputs":[{"name":"tokenId","type":"uint256","internalType":"uint256"}],"outputs":[],"stateMutability":"payable"},{"type":"function","name":"addUnallocatedFundsStETH","inputs":[{"name":"tokenId","type":"uint256","internalType":"uint256"},{"name":"stETHAmount","type":"uint256","internalType":"uint256"}],"outputs":[],"stateMutability":"nonpayable"},{"type":"function","name":"allocateStabilizerFunds","inputs":[{"name":"ethUsdPrice","type":"uint256","internalType":"uint256"},{"name":"priceDecimals","type":"uint256","internalType":"uint256"}],"outputs":[{"name":"result","type":"tuple","internalType":"struct IStabilizerNFT.AllocationResult","components":[{"name":"allocatedEth","type":"uint256","internalType":"uint256"},{"name":"totalEthEquivalentAdded","type":"uint256","internalType":"uint256"}]}],"stateMutability":"payable"},{"type":"function","name":"approve","inputs":[{"name":"to","type":"address","internalType":"address"},{"name":"tokenId","type":"uint256","internalType":"uint256"}],"outputs":[],"stateMutability":"nonpayable"},{"type":"function","name":"balanceOf","inputs":[{"name":"owner","type":"address","internalType":"address"}],"outputs":[{"name":"","type":"uint256","internalType":"uint256"}],"stateMutability":"view"},{"type":"function","name":"baseURI","inputs":[],"outputs":[{"name":"","type":"string","internalType":"string"}],"stateMutability":"view"},{"type":"function","name":"cuspdToken","inputs":[],"outputs":[{"name":"","type":"address","internalType":"contract IcUSPDToken"}],"stateMutability":"view"},{"type":"function","name":"getApproved","inputs":[{"name":"tokenId","type":"uint256","internalType":"uint256"}],"outputs":[{"name":"","type":"address","internalType":"address"}],"stateMutability":"view"},{"type":"function","name":"getMinCollateralRatio","inputs":[{"name":"tokenId","type":"uint256","internalType":"uint256"}],"outputs":[{"name":"","type":"uint256","internalType":"uint256"}],"stateMutability":"view"},{"type":"function","name":"getRoleAdmin","inputs":[{"name":"role","type":"bytes32","internalType":"bytes32"}],"outputs":[{"name":"","type":"bytes32","internalType":"bytes32"}],"stateMutability":"view"},{"type":"function","name":"grantRole","inputs":[{"name":"role","type":"bytes32","internalType":"bytes32"},{"name":"account","type":"address","internalType":"address"}],"outputs":[],"stateMutability":"nonpayable"},{"type":"function","name":"hasRole","inputs":[{"name":"role","type":"bytes32","internalType":"bytes32"},{"name":"account","type":"address","internalType":"address"}],"outputs":[{"name":"","type":"bool","internalType":"bool"}],"stateMutability":"view"},{"type":"function","name":"highestAllocatedId","inputs":[],"outputs":[{"name":"","type":"uint256","internalType":"uint256"}],"stateMutability":"view"},{"type":"function","name":"highestUnallocatedId","inputs":[],"outputs":[{"name":"","type":"uint256","internalType":"uint256"}],"stateMutability":"view"},{"type":"function","name":"initialize","inputs":[{"name":"_cuspdToken","type":"address","internalType":"address"},{"name":"_stETH","type":"address","internalType":"address"},{"name":"_lido","type":"address","internalType":"address"},{"name":"_rateContract","type":"address","internalType":"address"},{"name":"_reporterAddress","type":"address","internalType":"address"},{"name":"_insuranceEscrowAddress","type":"address","internalType":"address"},{"name":"_baseURI","type":"string","internalType":"string"},{"name":"_stabilizerEscrowImpl","type":"address","internalType":"address"},{"name":"_positionEscrowImpl","type":"address","internalType":"address"},{"name":"_admin","type":"address","internalType":"address"}],"outputs":[],"stateMutability":"nonpayable"},{"type":"function","name":"insuranceEscrow","inputs":[],"outputs":[{"name":"","type":"address","internalType":"contract IInsuranceEscrow"}],"stateMutability":"view"},{"type":"function","name":"isApprovedForAll","inputs":[{"name":"owner","type":"address","internalType":"address"},{"name":"operator","type":"address","internalType":"address"}],"outputs":[{"name":"","type":"bool","internalType":"bool"}],"stateMutability":"view"},{"type":"function","name":"lido","inputs":[],"outputs":[{"name":"","type":"address","internalType":"address"}],"stateMutability":"view"},{"type":"function","name":"liquidatePosition","inputs":[{"name":"liquidatorTokenId","type":"uint256","internalType":"uint256"},{"name":"positionTokenId","type":"uint256","internalType":"uint256"},{"name":"cuspdSharesToLiquidate","type":"uint256","internalType":"uint256"},{"name":"priceQuery","type":"tuple","internalType":"struct IPriceOracle.PriceAttestationQuery","components":[{"name":"price","type":"uint256","internalType":"uint256"},{"name":"decimals","type":"uint8","internalType":"uint8"},{"name":"dataTimestamp","type":"uint256","internalType":"uint256"},{"name":"assetPair","type":"bytes32","internalType":"bytes32"},{"name":"signature","type":"bytes","internalType":"bytes"}]}],"outputs":[],"stateMutability":"nonpayable"},{"type":"function","name":"liquidationLiquidatorPayoutPercent","inputs":[],"outputs":[{"name":"","type":"uint256","internalType":"uint256"}],"stateMutability":"view"},{"type":"function","name":"lowestAllocatedId","inputs":[],"outputs":[{"name":"","type":"uint256","internalType":"uint256"}],"stateMutability":"view"},{"type":"function","name":"lowestUnallocatedId","inputs":[],"outputs":[{"name":"","type":"uint256","internalType":"uint256"}],"stateMutability":"view"},{"type":"function","name":"mint","inputs":[{"name":"to","type":"address","internalType":"address"}],"outputs":[{"name":"","type":"uint256","internalType":"uint256"}],"stateMutability":"nonpayable"},{"type":"function","name":"name","inputs":[],"outputs":[{"name":"","type":"string","internalType":"string"}],"stateMutability":"view"},{"type":"function","name":"ownerOf","inputs":[{"name":"tokenId","type":"uint256","internalType":"uint256"}],"outputs":[{"name":"","type":"address","internalType":"address"}],"stateMutability":"view"},{"type":"function","name":"positionEscrowImplementation","inputs":[],"outputs":[{"name":"","type":"address","internalType":"address"}],"stateMutability":"view"},{"type":"function","name":"positionEscrows","inputs":[{"name":"","type":"uint256","internalType":"uint256"}],"outputs":[{"name":"","type":"address","internalType":"address"}],"stateMutability":"view"},{"type":"function","name":"positions","inputs":[{"name":"","type":"uint256","internalType":"uint256"}],"outputs":[{"name":"minCollateralRatio","type":"uint256","internalType":"uint256"},{"name":"prevUnallocated","type":"uint256","internalType":"uint256"},{"name":"nextUnallocated","type":"uint256","internalType":"uint256"},{"name":"prevAllocated","type":"uint256","internalType":"uint256"},{"name":"nextAllocated","type":"uint256","internalType":"uint256"}],"stateMutability":"view"},{"type":"function","name":"proxiableUUID","inputs":[],"outputs":[{"name":"","type":"bytes32","internalType":"bytes32"}],"stateMutability":"view"},{"type":"function","name":"rateContract","inputs":[],"outputs":[{"name":"","type":"address","internalType":"contract IPoolSharesConversionRate"}],"stateMutability":"view"},{"type":"function","name":"removeUnallocatedFunds","inputs":[{"name":"tokenId","type":"uint256","internalType":"uint256"},{"name":"stETHAmount","type":"uint256","internalType":"uint256"}],"outputs":[],"stateMutability":"nonpayable"},{"type":"function","name":"renounceRole","inputs":[{"name":"role","type":"bytes32","internalType":"bytes32"},{"name":"callerConfirmation","type":"address","internalType":"address"}],"outputs":[],"stateMutability":"nonpayable"},{"type":"function","name":"reportCollateralAddition","inputs":[{"name":"stEthAmount","type":"uint256","internalType":"uint256"}],"outputs":[],"stateMutability":"nonpayable"},{"type":"function","name":"reportCollateralRemoval","inputs":[{"name":"stEthAmount","type":"uint256","internalType":"uint256"}],"outputs":[],"stateMutability":"nonpayable"},{"type":"function","name":"reporter","inputs":[],"outputs":[{"name":"","type":"address","internalType":"contract IOvercollateralizationReporter"}],"stateMutability":"view"},{"type":"function","name":"revokeRole","inputs":[{"name":"role","type":"bytes32","internalType":"bytes32"},{"name":"account","type":"address","internalType":"address"}],"outputs":[],"stateMutability":"nonpayable"},{"type":"function","name":"safeTransferFrom","inputs":[{"name":"from","type":"address","internalType":"address"},{"name":"to","type":"address","internalType":"address"},{"name":"tokenId","type":"uint256","internalType":"uint256"}],"outputs":[],"stateMutability":"nonpayable"},{"type":"function","name":"safeTransferFrom","inputs":[{"name":"from","type":"address","internalType":"address"},{"name":"to","type":"address","internalType":"address"},{"name":"tokenId","type":"uint256","internalType":"uint256"},{"name":"data","type":"bytes","internalType":"bytes"}],"outputs":[],"stateMutability":"nonpayable"},{"type":"function","name":"setApprovalForAll","inputs":[{"name":"operator","type":"address","internalType":"address"},{"name":"approved","type":"bool","internalType":"bool"}],"outputs":[],"stateMutability":"nonpayable"},{"type":"function","name":"setBaseURI","inputs":[{"name":"newBaseURI","type":"string","internalType":"string"}],"outputs":[],"stateMutability":"nonpayable"},{"type":"function","name":"setInsuranceEscrow","inputs":[{"name":"_insuranceEscrowAddress","type":"address","internalType":"address"}],"outputs":[],"stateMutability":"nonpayable"},{"type":"function","name":"setLiquidationParameters","inputs":[{"name":"_payoutPercent","type":"uint256","internalType":"uint256"}],"outputs":[],"stateMutability":"nonpayable"},{"type":"function","name":"setMinCollateralizationRatio","inputs":[{"name":"tokenId","type":"uint256","internalType":"uint256"},{"name":"newRatio","type":"uint256","internalType":"uint256"}],"outputs":[],"stateMutability":"nonpayable"},{"type":"function","name":"stETH","inputs":[],"outputs":[{"name":"","type":"address","internalType":"address"}],"stateMutability":"view"},{"type":"function","name":"stabilizerEscrowImplementation","inputs":[],"outputs":[{"name":"","type":"address","internalType":"address"}],"stateMutability":"view"},{"type":"function","name":"stabilizerEscrows","inputs":[{"name":"","type":"uint256","internalType":"uint256"}],"outputs":[{"name":"","type":"address","internalType":"address"}],"stateMutability":"view"},{"type":"function","name":"supportsInterface","inputs":[{"name":"interfaceId","type":"bytes4","internalType":"bytes4"}],"outputs":[{"name":"","type":"bool","internalType":"bool"}],"stateMutability":"view"},{"type":"function","name":"symbol","inputs":[],"outputs":[{"name":"","type":"string","internalType":"string"}],"stateMutability":"view"},{"type":"function","name":"tokenByIndex","inputs":[{"name":"index","type":"uint256","internalType":"uint256"}],"outputs":[{"name":"","type":"uint256","internalType":"uint256"}],"stateMutability":"view"},{"type":"function","name":"tokenOfOwnerByIndex","inputs":[{"name":"owner","type":"address","internalType":"address"},{"name":"index","type":"uint256","internalType":"uint256"}],"outputs":[{"name":"","type":"uint256","internalType":"uint256"}],"stateMutability":"view"},{"type":"function","name":"tokenURI","inputs":[{"name":"tokenId","type":"uint256","internalType":"uint256"}],"outputs":[{"name":"","type":"string","internalType":"string"}],"stateMutability":"view"},{"type":"function","name":"totalSupply","inputs":[],"outputs":[{"name":"","type":"uint256","internalType":"uint256"}],"stateMutability":"view"},{"type":"function","name":"transferFrom","inputs":[{"name":"from","type":"address","internalType":"address"},{"name":"to","type":"address","internalType":"address"},{"name":"tokenId","type":"uint256","internalType":"uint256"}],"outputs":[],"stateMutability":"nonpayable"},{"type":"function","name":"unallocateStabilizerFunds","inputs":[{"name":"poolSharesToUnallocate","type":"uint256","internalType":"uint256"},{"name":"priceResponse","type":"tuple","internalType":"struct IPriceOracle.PriceResponse","components":[{"name":"price","type":"uint256","internalType":"uint256"},{"name":"decimals","type":"uint8","internalType":"uint8"},{"name":"timestamp","type":"uint256","internalType":"uint256"}]}],"outputs":[{"name":"unallocatedEth","type":"uint256","internalType":"uint256"}],"stateMutability":"nonpayable"},{"type":"function","name":"upgradeToAndCall","inputs":[{"name":"newImplementation","type":"address","internalType":"address"},{"name":"data","type":"bytes","internalType":"bytes"}],"outputs":[],"stateMutability":"payable"},{"type":"event","name":"Approval","inputs":[{"name":"owner","type":"address","indexed":true,"internalType":"address"},{"name":"approved","type":"address","indexed":true,"internalType":"address"},{"name":"tokenId","type":"uint256","indexed":true,"internalType":"uint256"}],"anonymous":false},{"type":"event","name":"ApprovalForAll","inputs":[{"name":"owner","type":"address","indexed":true,"internalType":"address"},{"name":"operator","type":"address","indexed":true,"internalType":"address"},{"name":"approved","type":"bool","indexed":false,"internalType":"bool"}],"anonymous":false},{"type":"event","name":"FundsAllocated","inputs":[{"name":"tokenId","type":"uint256","indexed":true,"internalType":"uint256"},{"name":"stabilizersAmount","type":"uint256","indexed":false,"internalType":"uint256"},{"name":"usersAmount","type":"uint256","indexed":false,"internalType":"uint256"}],"anonymous":false},{"type":"event","name":"FundsUnallocated","inputs":[{"name":"tokenId","type":"uint256","indexed":true,"internalType":"uint256"},{"name":"userStEthAmount","type":"uint256","indexed":false,"internalType":"uint256"},{"name":"stabilizerStEthAmount","type":"uint256","indexed":false,"internalType":"uint256"}],"anonymous":false},{"type":"event","name":"Initialized","inputs":[{"name":"version","type":"uint64","indexed":false,"internalType":"uint64"}],"anonymous":false},{"type":"event","name":"InsuranceEscrowUpdated","inputs":[{"name":"newInsuranceEscrow","type":"address","indexed":true,"internalType":"address"}],"anonymous":false},{"type":"event","name":"LiquidationParametersUpdated","inputs":[{"name":"newPayoutPercent","type":"uint256","indexed":false,"internalType":"uint256"}],"anonymous":false},{"type":"event","name":"MinCollateralRatioUpdated","inputs":[{"name":"tokenId","type":"uint256","indexed":true,"internalType":"uint256"},{"name":"oldRatio","type":"uint256","indexed":false,"internalType":"uint256"},{"name":"newRatio","type":"uint256","indexed":false,"internalType":"uint256"}],"anonymous":false},{"type":"event","name":"PositionLiquidated","inputs":[{"name":"positionTokenId","type":"uint256","indexed":true,"internalType":"uint256"},{"name":"liquidator","type":"address","indexed":true,"internalType":"address"},{"name":"liquidatorTokenId","type":"uint256","indexed":false,"internalType":"uint256"},{"name":"cuspdSharesLiquidated","type":"uint256","indexed":false,"internalType":"uint256"},{"name":"stEthPaidToLiquidator","type":"uint256","indexed":false,"internalType":"uint256"},{"name":"priceUsed","type":"uint256","indexed":false,"internalType":"uint256"},{"name":"thresholdUsed","type":"uint256","indexed":false,"internalType":"uint256"}],"anonymous":false},{"type":"event","name":"RoleAdminChanged","inputs":[{"name":"role","type":"bytes32","indexed":true,"internalType":"bytes32"},{"name":"previousAdminRole","type":"bytes32","indexed":true,"internalType":"bytes32"},{"name":"newAdminRole","type":"bytes32","indexed":true,"internalType":"bytes32"}],"anonymous":false},{"type":"event","name":"RoleGranted","inputs":[{"name":"role","type":"bytes32","indexed":true,"internalType":"bytes32"},{"name":"account","type":"address","indexed":true,"internalType":"address"},{"name":"sender","type":"address","indexed":true,"internalType":"address"}],"anonymous":false},{"type":"event","name":"RoleRevoked","inputs":[{"name":"role","type":"bytes32","indexed":true,"internalType":"bytes32"},{"name":"account","type":"address","indexed":true,"internalType":"address"},{"name":"sender","type":"address","indexed":true,"internalType":"address"}],"anonymous":false},{"type":"event","name":"StabilizerPositionCreated","inputs":[{"name":"tokenId","type":"uint256","indexed":true,"internalType":"uint256"},{"name":"owner","type":"address","indexed":true,"internalType":"address"}],"anonymous":false},{"type":"event","name":"Transfer","inputs":[{"name":"from","type":"address","indexed":true,"internalType":"address"},{"name":"to","type":"address","indexed":true,"internalType":"address"},{"name":"tokenId","type":"uint256","indexed":true,"internalType":"uint256"}],"anonymous":false},{"type":"event","name":"UnallocatedFundsAdded","inputs":[{"name":"tokenId","type":"uint256","indexed":true,"internalType":"uint256"},{"name":"asset","type":"address","indexed":false,"internalType":"address"},{"name":"amount","type":"uint256","indexed":false,"internalType":"uint256"}],"anonymous":false},{"type":"event","name":"UnallocatedFundsRemoved","inputs":[{"name":"tokenId","type":"uint256","indexed":true,"internalType":"uint256"},{"name":"amount","type":"uint256","indexed":false,"internalType":"uint256"},{"name":"recipient","type":"address","indexed":true,"internalType":"address"}],"anonymous":false},{"type":"event","name":"Upgraded","inputs":[{"name":"implementation","type":"address","indexed":true,"internalType":"address"}],"anonymous":false},{"type":"error","name":"AccessControlBadConfirmation","inputs":[]},{"type":"error","name":"AccessControlUnauthorizedAccount","inputs":[{"name":"account","type":"address","internalType":"address"},{"name":"neededRole","type":"bytes32","internalType":"bytes32"}]},{"type":"error","name":"AddressEmptyCode","inputs":[{"name":"target","type":"address","internalType":"address"}]},{"type":"error","name":"ERC1967InvalidImplementation","inputs":[{"name":"implementation","type":"address","internalType":"address"}]},{"type":"error","name":"ERC1967NonPayable","inputs":[]},{"type":"error","name":"ERC721EnumerableForbiddenBatchMint","inputs":[]},{"type":"error","name":"ERC721IncorrectOwner","inputs":[{"name":"sender","type":"address","internalType":"address"},{"name":"tokenId","type":"uint256","internalType":"uint256"},{"name":"owner","type":"address","internalType":"address"}]},{"type":"error","name":"ERC721InsufficientApproval","inputs":[{"name":"operator","type":"address","internalType":"address"},{"name":"tokenId","type":"uint256","internalType":"uint256"}]},{"type":"error","name":"ERC721InvalidApprover","inputs":[{"name":"approver","type":"address","internalType":"address"}]},{"type":"error","name":"ERC721InvalidOperator","inputs":[{"name":"operator","type":"address","internalType":"address"}]},{"type":"error","name":"ERC721InvalidOwner","inputs":[{"name":"owner","type":"address","internalType":"address"}]},{"type":"error","name":"ERC721InvalidReceiver","inputs":[{"name":"receiver","type":"address","internalType":"address"}]},{"type":"error","name":"ERC721InvalidSender","inputs":[{"name":"sender","type":"address","internalType":"address"}]},{"type":"error","name":"ERC721NonexistentToken","inputs":[{"name":"tokenId","type":"uint256","internalType":"uint256"}]},{"type":"error","name":"ERC721OutOfBoundsIndex","inputs":[{"name":"owner","type":"address","internalType":"address"},{"name":"index","type":"uint256","internalType":"uint256"}]},{"type":"error","name":"FailedCall","inputs":[]},{"type":"error","name":"FailedDeployment","inputs":[]},{"type":"error","name":"InsufficientBalance","inputs":[{"name":"balance","type":"uint256","internalType":"uint256"},{"name":"needed","type":"uint256","internalType":"uint256"}]},{"type":"error","name":"InvalidInitialization","inputs":[]},{"type":"error","name":"LiquidationNotBelowSystemRatio","inputs":[]},{"type":"error","name":"NotInitializing","inputs":[]},{"type":"error","name":"SystemUnstableUnallocationNotAllowed","inputs":[]},{"type":"error","name":"UUPSUnauthorizedCallContext","inputs":[]},{"type":"error","name":"UUPSUnsupportedProxiableUUID","inputs":[{"name":"slot","type":"bytes32","internalType":"bytes32"}]}],"bytecode":{"object":"0x60a060405230608052348015610013575f5ffd5b5061001c610021565b6100d3565b7ff0c57e16840df040f15088dc2f81fe391c3923bec73e23a9662efc9c229c6a00805468010000000000000000900460ff16156100715760405163f92ee8a960e01b815260040160405180910390fd5b80546001600160401b03908116146100d05780546001600160401b0319166001600160401b0390811782556040519081527fc7f505b2f371ae2175ee4913f4499e1f2633a7b5936321eed1cdaeb6115181d29060200160405180910390a15b50565b60805161631b6100f95f395f81816144180152818161444101526145a4015261631b5ff3fe6080604052600436106103ab575f3560e01c80637122bcc3116101e9578063bb310a8011610108578063d743fd1e1161009d578063eee242191161006d578063eee2421914610b44578063f399beb714610b63578063f72c0d8b14610b76578063ff70fa6414610ba9575f5ffd5b8063d743fd1e14610ad2578063d923038914610ae7578063e96d578714610b06578063e985e9c514610b25575f5ffd5b8063c1fe3e48116100d8578063c1fe3e4814610a42578063c87b56dd14610a61578063d539139314610a80578063d547741f14610ab3575f5ffd5b8063bb310a80146109b1578063bb566297146109d0578063bba6fd6f146109ef578063bdb35bf214610a23575f5ffd5b8063a04ad5121161017e578063ad3cb1cc1161014e578063ad3cb1cc14610924578063ae88a77914610954578063b10114d314610973578063b88d4fde14610992575f5ffd5b8063a04ad512146108a3578063a217fddf146108d7578063a22cb465146108ea578063a42c69a914610909575f5ffd5b806391d14854116101b957806391d14854146107eb578063921333621461080a57806395d89b411461081f57806399fbab8814610833575f5ffd5b80637122bcc3146107785780637da31f6114610797578063853cad06146107b65780638d7cac7b146107cb575f5ffd5b806339112058116102d557806355f804b31161026a5780636a6278421161023a5780636a627842146107075780636bc05b7e146107265780636c0360eb1461074557806370a0823114610759575f5ffd5b806355f804b31461069657806362382f9f146106b55780636352211e146106c957806367bff4a8146106e8575f5ffd5b80634e027fe9116102a55780634e027fe91461063b5780634f1ef286146106505780634f6ccce71461066357806352d1902d14610682575f5ffd5b806339112058146105b057806342842e0e146105cf578063451fda68146105ee5780634d87a1f21461061c575f5ffd5b806320d2c9511161034b5780632995bc501161031b5780632995bc501461053e5780632f2ff15d146105535780632f745c591461057257806336568abe14610591575f5ffd5b806320d2c951146104cb57806323509a2d146104e157806323b872dd14610500578063248a9ca31461051f575f5ffd5b806306fdde031161038657806306fdde0314610442578063081812fc14610463578063095ea7b31461048257806318160ddd146104a1575f5ffd5b8063010ec441146103b657806301aa0b1a146103f257806301ffc9a714610413575f5ffd5b366103b257005b5f5ffd5b3480156103c1575f5ffd5b506006546103d5906001600160a01b031681565b6040516001600160a01b0390911681526020015b60405180910390f35b3480156103fd575f5ffd5b5061041161040c3660046157ba565b610bc8565b005b34801561041e575f5ffd5b5061043261042d3660046157ef565b610cfc565b60405190151581526020016103e9565b34801561044d575f5ffd5b50610456610d0c565b6040516103e99190615838565b34801561046e575f5ffd5b506103d561047d36600461584a565b610dad565b34801561048d575f5ffd5b5061041161049c366004615885565b610dc1565b3480156104ac575f5ffd5b505f5160206162a65f395f51905f52545b6040519081526020016103e9565b3480156104d6575f5ffd5b506104bd620186a081565b3480156104ec575f5ffd5b50600a546103d5906001600160a01b031681565b34801561050b575f5ffd5b5061041161051a3660046158af565b610dd0565b34801561052a575f5ffd5b506104bd61053936600461584a565b610e59565b348015610549575f5ffd5b506104bd60035481565b34801561055e575f5ffd5b5061041161056d3660046158ed565b610e79565b34801561057d575f5ffd5b506104bd61058c366004615885565b610e95565b34801561059c575f5ffd5b506104116105ab3660046158ed565b610ef8565b3480156105bb575f5ffd5b506104116105ca36600461584a565b610f30565b3480156105da575f5ffd5b506104116105e93660046158af565b611082565b6106016105fc3660046157ba565b61109c565b604080518251815260209283015192810192909252016103e9565b348015610627575f5ffd5b506007546103d5906001600160a01b031681565b348015610646575f5ffd5b506104bd60085481565b61041161065e3660046159e6565b611815565b34801561066e575f5ffd5b506104bd61067d36600461584a565b611830565b34801561068d575f5ffd5b506104bd61189d565b3480156106a1575f5ffd5b506104116106b0366004615a32565b6118b8565b3480156106c0575f5ffd5b506104bd606481565b3480156106d4575f5ffd5b506103d56106e336600461584a565b6118ce565b3480156106f3575f5ffd5b5061041161070236600461584a565b6118d8565b348015610712575f5ffd5b506104bd610721366004615a63565b6119ee565b348015610731575f5ffd5b506005546103d5906001600160a01b031681565b348015610750575f5ffd5b50610456611e60565b348015610764575f5ffd5b506104bd610773366004615a63565b611eec565b348015610783575f5ffd5b50610411610792366004615a63565b611f44565b3480156107a2575f5ffd5b50600c546103d5906001600160a01b031681565b3480156107c1575f5ffd5b506104bd60015481565b3480156107d6575f5ffd5b506104bd5f5160206162665f395f51905f5281565b3480156107f6575f5ffd5b506104326108053660046158ed565b611fee565b348015610815575f5ffd5b506104bd60025481565b34801561082a575f5ffd5b50610456612024565b34801561083e575f5ffd5b5061087b61084d36600461584a565b5f60208190529081526040902080546001820154600283015460038401546004909401549293919290919085565b604080519586526020860194909452928401919091526060830152608082015260a0016103e9565b3480156108ae575f5ffd5b506103d56108bd36600461584a565b600f6020525f90815260409020546001600160a01b031681565b3480156108e2575f5ffd5b506104bd5f81565b3480156108f5575f5ffd5b50610411610904366004615a8b565b612062565b348015610914575f5ffd5b506104bd670de0b6b3a764000081565b34801561092f575f5ffd5b50610456604051806040016040528060058152602001640352e302e360dc1b81525081565b34801561095f575f5ffd5b5061041161096e3660046157ba565b61206d565b34801561097e575f5ffd5b5061041161098d36600461584a565b612219565b34801561099d575f5ffd5b506104116109ac366004615ab7565b6122b0565b3480156109bc575f5ffd5b506104bd6109cb36600461584a565b6122c8565b3480156109db575f5ffd5b506104116109ea3660046157ba565b612332565b3480156109fa575f5ffd5b506103d5610a0936600461584a565b600e6020525f90815260409020546001600160a01b031681565b348015610a2e575f5ffd5b50610411610a3d366004615b1e565b6124af565b348015610a4d575f5ffd5b506009546103d5906001600160a01b031681565b348015610a6c575f5ffd5b50610456610a7b36600461584a565b61332f565b348015610a8b575f5ffd5b506104bd7f9f2df0fed2c77648de5860a4cc508cd0818c85b8b8a1ab4ceeef8d981c8956a681565b348015610abe575f5ffd5b50610411610acd3660046158ed565b61346b565b348015610add575f5ffd5b506104bd60045481565b348015610af2575f5ffd5b50610411610b01366004615b77565b613487565b348015610b11575f5ffd5b50600d546103d5906001600160a01b031681565b348015610b30575f5ffd5b50610432610b3f366004615c4c565b6137d5565b348015610b4f575f5ffd5b50600b546103d5906001600160a01b031681565b610411610b7136600461584a565b613821565b348015610b81575f5ffd5b506104bd7f189ab7a9244df0848122154315af71fe140f3db0fe014031783b0946b8c9d2e381565b348015610bb4575f5ffd5b506104bd610bc3366004615c86565b613959565b33610bd2836118ce565b6001600160a01b031614610c015760405162461bcd60e51b8152600401610bf890615ce3565b60405180910390fd5b612af8811015610c535760405162461bcd60e51b815260206004820152601e60248201527f526174696f206d757374206265206174206c65617374203131302e30302500006044820152606401610bf8565b620186a0811115610ca65760405162461bcd60e51b815260206004820152601c60248201527f526174696f2063616e6e6f742065786365656420313030302e303025000000006044820152606401610bf8565b5f8281526020818152604091829020805484825583518181529283018590529092909185917f3e82d134b4a0328de7223eb1ae194d98009405cb6b8dc9c3d6bd70eb3aeb5c94910160405180910390a250505050565b5f610d0682614092565b92915050565b5f5160206162465f395f51905f528054606091908190610d2b90615d0c565b80601f0160208091040260200160405190810160405280929190818152602001828054610d5790615d0c565b8015610da25780601f10610d7957610100808354040283529160200191610da2565b820191905f5260205f20905b815481529060010190602001808311610d8557829003601f168201915b505050505091505090565b5f610db7826140b6565b50610d06826140ed565b610dcc828233614126565b5050565b6001600160a01b038216610df957604051633250574960e11b81525f6004820152602401610bf8565b5f610e05838333614133565b9050836001600160a01b0316816001600160a01b031614610e53576040516364283d7b60e01b81526001600160a01b0380861660048301526024820184905282166044820152606401610bf8565b50505050565b5f9081525f5160206162c65f395f51905f52602052604090206001015490565b610e8282610e59565b610e8b81614147565b610e538383614154565b5f5f5160206162265f395f51905f52610ead84611eec565b8310610ed057838360405163295f44f760e21b8152600401610bf8929190615d44565b6001600160a01b0384165f908152602091825260408082208583529092522054905092915050565b6001600160a01b0381163314610f215760405163334bd91960e11b815260040160405180910390fd5b610f2b82826141f5565b505050565b5f5160206162665f395f51905f52610f4781614147565b8115610dcc57600b546040805163efa7fa5d60e01b815290515f926001600160a01b03169163efa7fa5d9160048083019260209291908290030181865afa158015610f94573d5f5f3e3d5ffd5b505050506040513d601f19601f82011682018060405250810190610fb89190615d5d565b90505f81116110185760405162461bcd60e51b815260206004820152602660248201527f5969656c6420666163746f72207a65726f20647572696e67207265706f72742060448201526572656d6f766560d01b6064820152608401610bf8565b6006546001600160a01b031663f6ff3ee861103285615d88565b6040518263ffffffff1660e01b815260040161105091815260200190565b5f604051808303815f87803b158015611067575f5ffd5b505af1158015611079573d5f5f3e3d5ffd5b50505050505050565b610f2b83838360405180602001604052805f8152506122b0565b604080518082019091525f80825260208201526005546001600160a01b031633146110ff5760405162461bcd60e51b815260206004820152601360248201527213db9b1e4818d554d4110818dbdb9d1c9858dd606a1b6044820152606401610bf8565b6001545f036111475760405162461bcd60e51b81526020600482015260146024820152734e6f20756e616c6c6f63617465642066756e647360601b6044820152606401610bf8565b5f34116111845760405162461bcd60e51b815260206004820152600b60248201526a139bc8115512081cd95b9d60aa1b6044820152606401610bf8565b6001545f8083526020830152345b81158015906111a057505f81115b1561175b57620186a05a1061175b575f82815260208181526040808320600e909252909120546001600160a01b03168061121c5760405162461bcd60e51b815260206004820152601f60248201527f457363726f77206e6f7420666f756e6420666f722073746162696c697a6572006044820152606401610bf8565b5f816001600160a01b031663ec60b9ab6040518163ffffffff1660e01b8152600401602060405180830381865afa158015611259573d5f5f3e3d5ffd5b505050506040513d601f19601f8201168201806040525081019061127d9190615d5d565b905080158061128a575083155b1561129c575050600201549150611192565b5f61271080855f01546112af9190615da2565b6112b99087615db5565b6112c39190615de0565b90505f8282116112d357816112d5565b825b905085828210156113125785546112ef9061271090615da2565b6112fb83612710615db5565b6113059190615de0565b9050868111156113125750855b5f888152600f60205260409020546001600160a01b0316806113715760405162461bcd60e51b8152602060048201526018602482015277141bdcda5d1a5bdb915cd8dc9bddc81b9bdd08199bdd5b9960421b6044820152606401610bf8565b604051634f68ae7560e01b8152600481018490523060248201526001600160a01b03871690634f68ae75906044015f604051808303815f87803b1580156113b6575f5ffd5b505af11580156113c8573d5f5f3e3d5ffd5b50506009546040516323b872dd60e01b81526001600160a01b038a811660048301528581166024830152604482018890525f945090911691506323b872dd906064016020604051808303815f875af1158015611426573d5f5f3e3d5ffd5b505050506040513d601f19601f8201168201806040525081019061144a9190615df3565b9050806114b45760405162461bcd60e51b815260206004820152603260248201527f53746162696c697a6572207374455448207472616e7366657220746f20506f736044820152711a5d1a5bdb915cd8dc9bddc819985a5b195960721b6064820152608401610bf8565b60405163bf3fdde760e01b8152600481018590526001600160a01b0383169063bf3fdde79085906024015f604051808303818588803b1580156114f5575f5ffd5b505af1158015611507573d5f5f3e3d5ffd5b50505050505f8c600a61151a9190615ee9565b6115248f86615db5565b61152e9190615de0565b90505f600b5f9054906101000a90046001600160a01b03166001600160a01b031663efa7fa5d6040518163ffffffff1660e01b8152600401602060405180830381865afa158015611581573d5f5f3e3d5ffd5b505050506040513d601f19601f820116820180604052508101906115a59190615d5d565b90505f81600b5f9054906101000a90046001600160a01b03166001600160a01b031663a42c69a96040518163ffffffff1660e01b8152600401602060405180830381865afa1580156115f9573d5f5f3e3d5ffd5b505050506040513d601f19601f8201168201806040525081019061161d9190615d5d565b6116279085615db5565b6116319190615de0565b6040516302ff41ff60e21b8152600481018290529091506001600160a01b03861690630bfd07fc906024015f604051808303815f87803b158015611673575f5ffd5b505af1158015611685573d5f5f3e3d5ffd5b50505050858e5f0181815161169a9190615ef4565b9052506116a7868d615da2565b6040805189815260208101899052919d508e917fc0a79f21f196b4ee5a242474a85cb9aa5fc2ce59ecc884d7271f1c2bd19b9a13910160405180910390a260038b01541580156116f9575060048b0154155b801561170757508c60035414155b15611715576117158d61426e565b61171f8787615ef4565b8e6020018181516117309190615ef4565b90525060028b0154898803611748576117488e61434d565b9c506111929a5050505050505050505050565b825161179e5760405162461bcd60e51b8152602060048201526012602482015271139bc8199d5b991cc8185b1b1bd8d85d195960721b6044820152606401610bf8565b60208301511561180d576006546020840151604051631edfe7dd60e31b81526001600160a01b039092169163f6ff3ee8916117df9160040190815260200190565b5f604051808303815f87803b1580156117f6575f5ffd5b505af1158015611808573d5f5f3e3d5ffd5b505050505b505092915050565b61181d61440d565b611826826144b3565b610dcc82826144dd565b5f5f5160206162265f395f51905f526118545f5160206162a65f395f51905f525490565b8310611877575f8360405163295f44f760e21b8152600401610bf8929190615d44565b80600201838154811061188c5761188c615f07565b905f5260205f200154915050919050565b5f6118a6614599565b505f5160206162865f395f51905f5290565b5f6118c281614147565b6010610f2b8382615f5f565b5f610d06826140b6565b5f5160206162665f395f51905f526118ef81614147565b8115610dcc57600b546040805163efa7fa5d60e01b815290515f926001600160a01b03169163efa7fa5d9160048083019260209291908290030181865afa15801561193c573d5f5f3e3d5ffd5b505050506040513d601f19601f820116820180604052508101906119609190615d5d565b90505f81116119bd5760405162461bcd60e51b815260206004820152602360248201527f5969656c6420666163746f72207a65726f20647572696e67207265706f72742060448201526218591960ea1b6064820152608401610bf8565b600654604051631edfe7dd60e31b8152600481018590526001600160a01b039091169063f6ff3ee890602401611050565b601180545f9182919082611a0183616019565b919050559050805f03611a565760405162461bcd60e51b815260206004820152601760248201527f546f6b656e2049442063616e6e6f74206265207a65726f0000000000000000006044820152606401610bf8565b6040805160a081018252612af881525f6020808301828152838501838152606085018481526080860185815288865293859052959093209351845551600184015590516002830155915160038201559051600490910155611ab783826145e2565b6040516001600160a01b0384169082907f6474509949d7dca0e17a8cf02aeb66814967a3c7adbfefc212edb6e6693b6865905f90a3600c546001600160a01b0316611b445760405162461bcd60e51b815260206004820152601d60248201527f53746162696c697a6572457363726f7720696d706c206e6f74207365740000006044820152606401610bf8565b600d546001600160a01b0316611b9c5760405162461bcd60e51b815260206004820152601b60248201527f506f736974696f6e457363726f7720696d706c206e6f742073657400000000006044820152606401610bf8565b600c545f90611bb3906001600160a01b03166145fb565b90506001600160a01b038116611c0b5760405162461bcd60e51b815260206004820152601d60248201527f53746162696c697a6572457363726f7720636c6f6e65206661696c65640000006044820152606401610bf8565b600954600a546040516306b0729b60e31b8152306004820152602481018590526001600160a01b03928316604482015290821660648201529082169063358394d8906084015f604051808303815f87803b158015611c67575f5ffd5b505af1158015611c79573d5f5f3e3d5ffd5b5050505f838152600e6020526040812080546001600160a01b0319166001600160a01b0385811691909117909155600d54919250611cb791166145fb565b90506001600160a01b038116611d0f5760405162461bcd60e51b815260206004820152601b60248201527f506f736974696f6e457363726f7720636c6f6e65206661696c656400000000006044820152606401610bf8565b600954600a54600b54600554604080516307dc0d1d60e41b815290516001600160a01b038781169663cc2a9a5b9630968e9692841695918416949084169390921691637dc0d1d0916004808201926020929091908290030181865afa158015611d7a573d5f5f3e3d5ffd5b505050506040513d601f19601f82011682018060405250810190611d9e9190616031565b60405160e088901b6001600160e01b03191681526001600160a01b0396871660048201529486166024860152928516604485015290841660648401528316608483015290911660a482015260c4015f604051808303815f87803b158015611e03575f5ffd5b505af1158015611e15573d5f5f3e3d5ffd5b5050505f848152600f6020526040902080546001600160a01b0319166001600160a01b03841617905550611e565f5160206162665f395f51905f5282614154565b5091949350505050565b60108054611e6d90615d0c565b80601f0160208091040260200160405190810160405280929190818152602001828054611e9990615d0c565b8015611ee45780601f10611ebb57610100808354040283529160200191611ee4565b820191905f5260205f20905b815481529060010190602001808311611ec757829003601f168201915b505050505081565b5f5f5160206162465f395f51905f526001600160a01b038316611f24576040516322718ad960e21b81525f6004820152602401610bf8565b6001600160a01b039092165f908152600390920160205250604090205490565b5f611f4e81614147565b6001600160a01b038216611fa45760405162461bcd60e51b815260206004820181905260248201527f5a65726f206164647265737320666f7220496e737572616e6365457363726f776044820152606401610bf8565b600780546001600160a01b0319166001600160a01b0384169081179091556040517fc742eb858a96cf01aa10a0d4654fbd16ec649171aa4f54b3efedcc59b4ec6eb7905f90a25050565b5f9182525f5160206162c65f395f51905f52602090815260408084206001600160a01b0393909316845291905290205460ff1690565b7f80bb2b638cc20bc4d0a60d66940f3ab4a00c1d7b313497ca82fb0b4ab007930180546060915f5160206162465f395f51905f5291610d2b90615d0c565b610dcc338383614606565b33612077836118ce565b6001600160a01b03161461209d5760405162461bcd60e51b8152600401610bf890615ce3565b5f81116120e65760405162461bcd60e51b8152602060048201526017602482015276416d6f756e74206d75737420626520706f73697469766560481b6044820152606401610bf8565b5f828152600e60205260409020546001600160a01b03168061211a5760405162461bcd60e51b8152600401610bf89061604c565b604051622a405560ea1b8152600481018390526001600160a01b0382169063a9015400906024015f604051808303815f87803b158015612158575f5ffd5b505af115801561216a573d5f5f3e3d5ffd5b50505050806001600160a01b031663ec60b9ab6040518163ffffffff1660e01b8152600401602060405180830381865afa1580156121aa573d5f5f3e3d5ffd5b505050506040513d601f19601f820116820180604052508101906121ce9190615d5d565b5f036121dd576121dd8361434d565b604051828152339084907f19c1c869dd7473a5f044067f579bac3244509e5680cb0c044bc60f0a8165f5699060200160405180910390a3505050565b5f61222381614147565b60648210156122745760405162461bcd60e51b815260206004820152601d60248201527f5061796f75742070657263656e74206d757374206265203e3d203130300000006044820152606401610bf8565b60088290556040518281527f6d699ae420033df20638cead3d3195a3de7db60c2f1ee78e9307d46979123a599060200160405180910390a15050565b6122bb848484610dd0565b610e5333858585856146b5565b5f806122d3836118ce565b6001600160a01b0316036123205760405162461bcd60e51b8152602060048201526014602482015273151bdad95b88191bd95cc81b9bdd08195e1a5cdd60621b6044820152606401610bf8565b505f9081526020819052604090205490565b3361233c836118ce565b6001600160a01b0316146123625760405162461bcd60e51b8152600401610bf890615ce3565b5f81116123ab5760405162461bcd60e51b8152602060048201526017602482015276416d6f756e74206d75737420626520706f73697469766560481b6044820152606401610bf8565b5f828152600e60205260409020546001600160a01b0316806123df5760405162461bcd60e51b8152600401610bf89061604c565b6009546040516323b872dd60e01b81523360048201526001600160a01b03838116602483015260448201859052909116906323b872dd906064016020604051808303815f875af1158015612435573d5f5f3e3d5ffd5b505050506040513d601f19601f820116820180604052508101906124599190615df3565b50612463836147dd565b60095460405184917f055b14c7efbc07d692265b907b52ec309741a29408ffad1d871aa6b371ac7729916124a2916001600160a01b0316908690615d44565b60405180910390a2505050565b6007546001600160a01b03166125075760405162461bcd60e51b815260206004820152601760248201527f496e737572616e6365457363726f77206e6f74207365740000000000000000006044820152606401610bf8565b5f82116125565760405162461bcd60e51b815260206004820152601c60248201527f4e6f2063555350442073686172657320746f206c6971756964617465000000006044820152606401610bf8565b5f612560846118ce565b6001600160a01b0316036125b65760405162461bcd60e51b815260206004820152601d60248201527f506f736974696f6e20746f6b656e20646f6573206e6f742065786973740000006044820152606401610bf8565b831561262857336125c6856118ce565b6001600160a01b0316146126285760405162461bcd60e51b8152602060048201526024808201527f43616c6c657220646f6573206e6f74206f776e206c697175696461746f72207460448201526337b5b2b760e11b6064820152608401610bf8565b5f838152600f60205260409020546001600160a01b0316806126975760405162461bcd60e51b815260206004820152602260248201527f506f736974696f6e457363726f77206e6f7420666f756e6420666f7220746f6b60448201526132b760f11b6064820152608401610bf8565b600554604080516307dc0d1d60e41b815290515f926001600160a01b031691637dc0d1d09160048083019260209291908290030181865afa1580156126de573d5f5f3e3d5ffd5b505050506040513d601f19601f820116820180604052508101906127029190616031565b6001600160a01b03166365ab8c71846040518263ffffffff1660e01b815260040161272d919061609e565b6060604051808303815f875af1158015612749573d5f5f3e3d5ffd5b505050506040513d601f19601f8201168201806040525081019061276d919061612d565b90505f6001600160a01b031660055f9054906101000a90046001600160a01b03166001600160a01b0316637dc0d1d06040518163ffffffff1660e01b8152600401602060405180830381865afa1580156127c9573d5f5f3e3d5ffd5b505050506040513d601f19601f820116820180604052508101906127ed9190616031565b6001600160a01b0316036128435760405162461bcd60e51b815260206004820152601c60248201527f4f7261636c65206e6f742073657420696e206355535044546f6b656e000000006044820152606401610bf8565b80516128885760405162461bcd60e51b8152602060048201526014602482015273496e76616c6964206f7261636c6520707269636560601b6044820152606401610bf8565b816001600160a01b031663d39aa95a6040518163ffffffff1660e01b8152600401602060405180830381865afa1580156128c4573d5f5f3e3d5ffd5b505050506040513d601f19601f820116820180604052508101906128e89190615d5d565b8411156129375760405162461bcd60e51b815260206004820152601d60248201527f4e6f7420656e6f7567682073686172657320696e20706f736974696f6e0000006044820152606401610bf8565b5f865f036129485750612af8612994565b6105dc612956600189615da2565b612961906032615db5565b1061296f5750612af8612994565b61297a600188615da2565b612985906032615db5565b612991906130d4615da2565b90505b6040805163dc607d6f60e01b815283516004820152602084015160ff1660248201529083015160448201525f906001600160a01b0385169063dc607d6f90606401602060405180830381865afa1580156129f0573d5f5f3e3d5ffd5b505050506040513d601f19601f82011682018060405250810190612a149190615d5d565b6006549091506001600160a01b031615612adc576006546040805163b367380760e01b815285516004820152602086015160ff1660248201529085015160448201525f916001600160a01b03169063b367380790606401602060405180830381865afa158015612a86573d5f5f3e3d5ffd5b505050506040513d601f19601f82011682018060405250810190612aaa9190615d5d565b90505f198114158015612abc57508082115b15612ada57604051637774a53b60e01b815260040160405180910390fd5b505b818110612b3c5760405162461bcd60e51b815260206004820152602860248201527f506f736974696f6e206e6f742062656c6f77206c69717569646174696f6e20746044820152671a1c995cda1bdb1960c21b6064820152608401610bf8565b6005546040516323b872dd60e01b8152336004820152306024820152604481018890526001600160a01b03909116906323b872dd906064016020604051808303815f875af1158015612b90573d5f5f3e3d5ffd5b505050506040513d601f19601f82011682018060405250810190612bb49190615df3565b50600554604051630852cd8d60e31b8152600481018890526001600160a01b03909116906342966c68906024015f604051808303815f87803b158015612bf8575f5ffd5b505af1158015612c0a573d5f5f3e3d5ffd5b50505050836001600160a01b0316630bfd07fc87612c2790615d88565b6040518263ffffffff1660e01b8152600401612c4591815260200190565b5f604051808303815f87803b158015612c5c575f5ffd5b505af1158015612c6e573d5f5f3e3d5ffd5b5050600b546040805163efa7fa5d60e01b815290515f945084935083926001600160a01b03169163efa7fa5d9160048083019260209291908290030181865afa158015612cbd573d5f5f3e3d5ffd5b505050506040513d601f19601f82011682018060405250810190612ce19190615d5d565b11612d255760405162461bcd60e51b815260206004820152601460248201527324b73b30b634b2103cb4b2b632103330b1ba37b960611b6044820152606401610bf8565b845160208601515f9190612d3d9060ff16600a615ee9565b600b546040805163efa7fa5d60e01b81529051670de0b6b3a7640000926001600160a01b03169163efa7fa5d9160048083019260209291908290030181865afa158015612d8c573d5f5f3e3d5ffd5b505050506040513d601f19601f82011682018060405250810190612db09190615d5d565b612dba908d615db5565b612dc49190615de0565b612dce9190615db5565b612dd89190615de0565b90505f612710612de88684615db5565b612df29190615de0565b90505f606460085484612e059190615db5565b612e0f9190615de0565b9050808210612fcf57604051636a0eee4b60e11b8152600481018290523360248201526001600160a01b038a169063d41ddc96906044015f604051808303815f87803b158015612e5d575f5ffd5b505af1158015612e6f573d5f5f3e3d5ffd5b505050508094508093505f8183612e869190615da2565b90508015612fc957604051636a0eee4b60e11b8152600481018290523060248201526001600160a01b038b169063d41ddc96906044015f604051808303815f87803b158015612ed3575f5ffd5b505af1158015612ee5573d5f5f3e3d5ffd5b505060095460075460405163095ea7b360e01b81526001600160a01b03928316945063095ea7b39350612f2092909116908590600401615d44565b6020604051808303815f875af1158015612f3c573d5f5f3e3d5ffd5b505050506040513d601f19601f82011682018060405250810190612f609190615df3565b5060075460405163de5d64f160e01b8152600481018390526001600160a01b039091169063de5d64f1906024015f604051808303815f87803b158015612fa4575f5ffd5b505af1158015612fb6573d5f5f3e3d5ffd5b505050508085612fc69190615ef4565b94505b5061314d565b811561303757604051636a0eee4b60e11b8152600481018390523360248201526001600160a01b038a169063d41ddc96906044015f604051808303815f87803b15801561301a575f5ffd5b505af115801561302c573d5f5f3e3d5ffd5b505050508194508193505b8181111561314d575f61304a8383615da2565b90505f60075f9054906101000a90046001600160a01b03166001600160a01b0316635b73e7c16040518163ffffffff1660e01b8152600401602060405180830381865afa15801561309d573d5f5f3e3d5ffd5b505050506040513d601f19601f820116820180604052508101906130c19190615d5d565b90505f8183116130d157826130d3565b815b905080156131495760075460405163df6e697360e01b81526001600160a01b039091169063df6e69739061310d9033908590600401615d44565b5f604051808303815f87803b158015613124575f5ffd5b505af1158015613136573d5f5f3e3d5ffd5b5050505080886131469190615ef4565b97505b5050505b5050811590506131bd576006546001600160a01b031663f6ff3ee861317183615d88565b6040518263ffffffff1660e01b815260040161318f91815260200190565b5f604051808303815f87803b1580156131a6575f5ffd5b505af11580156131b8573d5f5f3e3d5ffd5b505050505b856001600160a01b031663d39aa95a6040518163ffffffff1660e01b8152600401602060405180830381865afa1580156131f9573d5f5f3e3d5ffd5b505050506040513d601f19601f8201168201806040525081019061321d9190615d5d565b5f036132cf5761322c89614916565b5f898152600e60205260409020546001600160a01b0316158015906132c157505f898152600e6020908152604080832054815163ec60b9ab60e01b815291516001600160a01b039091169263ec60b9ab92600480820193918290030181865afa15801561329b573d5f5f3e3d5ffd5b505050506040513d601f19601f820116820180604052508101906132bf9190615d5d565b115b156132cf576132cf896147dd565b8451604080518c8152602081018b90528082018590526060810192909252608082018690525133918b917f24aaf4a2f68438b7af08d0aaef7dc8a282760bb7f08650b31217587b15cd61589181900360a00190a350505050505050505050565b60605f61333b836118ce565b6001600160a01b0316036133915760405162461bcd60e51b815260206004820152601860248201527f4552433732313a20696e76616c696420746f6b656e20494400000000000000006044820152606401610bf8565b5f6010805461339f90615d0c565b80601f01602080910402602001604051908101604052809291908181526020018280546133cb90615d0c565b80156134165780601f106133ed57610100808354040283529160200191613416565b820191905f5260205f20905b8154815290600101906020018083116133f957829003601f168201915b505050505090505f8151116134395760405180602001604052805f815250613464565b80613443846149d6565b604051602001613454929190616188565b6040516020818303038152906040525b9392505050565b61347482610e59565b61347d81614147565b610e5383836141f5565b5f613490614ad2565b805490915060ff600160401b82041615906001600160401b03165f811580156134b65750825b90505f826001600160401b031660011480156134d15750303b155b9050811580156134df575080155b156134fd5760405163f92ee8a960e01b815260040160405180910390fd5b845467ffffffffffffffff19166001178555831561352757845460ff60401b1916600160401b1785555b6135756040518060400160405280600f81526020016e2aa9a8221029ba30b134b634bd32b960891b81525060405180604001604052806005815260200164555350445360d81b815250614afa565b61357d614b0c565b613585614b0c565b61358d614b0c565b6135975f87614154565b506135c27f189ab7a9244df0848122154315af71fe140f3db0fe014031783b0946b8c9d2e387614154565b508e60055f6101000a8154816001600160a01b0302191690836001600160a01b031602179055508d60095f6101000a8154816001600160a01b0302191690836001600160a01b031602179055508c600a5f6101000a8154816001600160a01b0302191690836001600160a01b031602179055508b600b5f6101000a8154816001600160a01b0302191690836001600160a01b031602179055508a60065f6101000a8154816001600160a01b0302191690836001600160a01b031602179055505f6001600160a01b03168a6001600160a01b0316036136f15760405162461bcd60e51b815260206004820152602660248201527f496e737572616e6365457363726f7720616464726573732063616e6e6f74206260448201526565207a65726f60d01b6064820152608401610bf8565b600780546001600160a01b0319166001600160a01b038c169081179091556040517fc742eb858a96cf01aa10a0d4654fbd16ec649171aa4f54b3efedcc59b4ec6eb7905f90a260106137438a82615f5f565b50600c80546001600160a01b03808b166001600160a01b031992831617909255600d8054928a16929091169190911790556069600855600160115583156137c457845460ff60401b19168555604051600181527fc7f505b2f371ae2175ee4913f4499e1f2633a7b5936321eed1cdaeb6115181d29060200160405180910390a15b505050505050505050505050505050565b6001600160a01b039182165f9081527f80bb2b638cc20bc4d0a60d66940f3ab4a00c1d7b313497ca82fb0b4ab00793056020908152604080832093909416825291909152205460ff1690565b3361382b826118ce565b6001600160a01b0316146138515760405162461bcd60e51b8152600401610bf890615ce3565b5f341161388e5760405162461bcd60e51b815260206004820152600b60248201526a139bc8115512081cd95b9d60aa1b6044820152606401610bf8565b5f818152600e60205260409020546001600160a01b0316806138c25760405162461bcd60e51b8152600401610bf89061604c565b806001600160a01b031663d0e30db0346040518263ffffffff1660e01b81526004015f604051808303818588803b1580156138fb575f5ffd5b505af115801561390d573d5f5f3e3d5ffd5b505050505061391b826147dd565b817f055b14c7efbc07d692265b907b52ec309741a29408ffad1d871aa6b371ac77295f3460405161394d929190615d44565b60405180910390a25050565b6005545f906001600160a01b031633146139ab5760405162461bcd60e51b815260206004820152601360248201527213db9b1e4818d554d4110818dbdb9d1c9858dd606a1b6044820152606401610bf8565b6004545f036139f15760405162461bcd60e51b81526020600482015260126024820152714e6f20616c6c6f63617465642066756e647360701b6044820152606401610bf8565b6006546001600160a01b031615613aaa576006546040805163b367380760e01b815284516004820152602085015160ff1660248201529084015160448201525f916001600160a01b03169063b367380790606401602060405180830381865afa158015613a60573d5f5f3e3d5ffd5b505050506040513d601f19601f82011682018060405250810190613a849190615d5d565b90506064811015613aa85760405163a3c8cf1560e01b815260040160405180910390fd5b505b600454835f805b8315801590613abf57505f83115b15613fd657620186a05a10613fd6575f84815260208181526040808320600f909252909120546001600160a01b031680613b365760405162461bcd60e51b8152602060048201526018602482015277141bdcda5d1a5bdb915cd8dc9bddc81b9bdd08199bdd5b9960421b6044820152606401610bf8565b5f8190505f816001600160a01b031663d39aa95a6040518163ffffffff1660e01b8152600401602060405180830381865afa158015613b77573d5f5f3e3d5ffd5b505050506040513d601f19601f82011682018060405250810190613b9b9190615d5d565b90508015613fc8575f818811613bb15787613bb3565b815b90508015613fc6575f5f613bc885848f614b14565b91509150846001600160a01b0316630bfd07fc84613be590615d88565b6040518263ffffffff1660e01b8152600401613c0391815260200190565b5f604051808303815f87803b158015613c1a575f5ffd5b505af1158015613c2c573d5f5f3e3d5ffd5b505050505f821115613c9457604051636a0eee4b60e11b8152600481018390523060248201526001600160a01b0386169063d41ddc96906044015f604051808303815f87803b158015613c7d575f5ffd5b505af1158015613c8f573d5f5f3e3d5ffd5b505050505b5f613c9f8284615da2565b90508115613d8e5760095460055460405163a9059cbb60e01b81525f926001600160a01b039081169263a9059cbb92613ce092909116908790600401615d44565b6020604051808303815f875af1158015613cfc573d5f5f3e3d5ffd5b505050506040513d601f19601f82011682018060405250810190613d209190615df3565b905080613d805760405162461bcd60e51b815260206004820152602860248201527f55736572207374455448207472616e7366657220746f206355535044546f6b656044820152671b8819985a5b195960c21b6064820152608401610bf8565b613d8a838c615ef4565b9a50505b8015613ed9575f8c8152600e60205260409020546001600160a01b031680613df85760405162461bcd60e51b815260206004820152601a60248201527f53746162696c697a6572457363726f77206e6f7420666f756e640000000000006044820152606401610bf8565b60095460405163a9059cbb60e01b81525f916001600160a01b03169063a9059cbb90613e2a9085908790600401615d44565b6020604051808303815f875af1158015613e46573d5f5f3e3d5ffd5b505050506040513d601f19601f82011682018060405250810190613e6a9190615df3565b905080613ed65760405162461bcd60e51b815260206004820152603460248201527f53746162696c697a6572207374455448207472616e7366657220746f20537461604482015273189a5b1a5e995c915cd8dc9bddc819985a5b195960621b6064820152608401610bf8565b50505b613ee3838a615ef4565b98508484148015613f7957613ef78d614916565b5f8d8152600e6020908152604080832054815163ec60b9ab60e01b815291516001600160a01b039091169263ec60b9ab92600480820193918290030181865afa158015613f46573d5f5f3e3d5ffd5b505050506040513d601f19601f82011682018060405250810190613f6a9190615d5d565b1115613f7957613f798d6147dd565b613f83858d615da2565b6040805185815260208101859052919d508e917f7bd51af63c72ca163b2d37a37219fbdda7a4c3803f69ed76e3948078619a32f9910160405180910390a2505050505b505b505050600301549350613ab1565b5f821161401c5760405162461bcd60e51b8152602060048201526014602482015273139bc8199d5b991cc81d5b985b1b1bd8d85d195960621b6044820152606401610bf8565b8015614088576006546001600160a01b031663f6ff3ee861403c83615d88565b6040518263ffffffff1660e01b815260040161405a91815260200190565b5f604051808303815f87803b158015614071575f5ffd5b505af1158015614083573d5f5f3e3d5ffd5b505050505b5095945050505050565b5f6001600160e01b03198216637965db0b60e01b1480610d065750610d0682614e1a565b5f5f6140c183614e3e565b90506001600160a01b038116610d0657604051637e27328960e01b815260048101849052602401610bf8565b5f9081527f80bb2b638cc20bc4d0a60d66940f3ab4a00c1d7b313497ca82fb0b4ab007930460205260409020546001600160a01b031690565b610f2b8383836001614e77565b5f61413f848484614f8a565b949350505050565b6141518133615080565b50565b5f5f5160206162c65f395f51905f5261416d8484611fee565b6141ec575f848152602082815260408083206001600160a01b03871684529091529020805460ff191660011790556141a23390565b6001600160a01b0316836001600160a01b0316857f2f8788117e7eff1d82e926ec794901d17c78024a50270940304540a733656f0d60405160405180910390a46001915050610d06565b5f915050610d06565b5f5f5160206162c65f395f51905f5261420e8484611fee565b156141ec575f848152602082815260408083206001600160a01b0387168085529252808320805460ff1916905551339287917ff6391f5c32d9c69d2a47ea670b442974b53935d1edc7fd64eb21e047a839171b9190a46001915050610d06565b600354158061427d5750600454155b1561428c576003819055600455565b6004548111156142ba57600480545f8381526020819052604080822060030183905591815220810182905555565b6003548110156142e857600380545f8381526020819052604080822060040183905591815220810182905555565b6003545b80158015906142fa57508181105b15614315575f908152602081905260409020600401546142ec565b5f8181526020819052604080822060039081018054868552838520928301819055600492830186905584529183200184905591905255565b5f8181526020819052604090206001548214801561436c575060025482145b1561437f575f60018190556002556143fc565b60015482036143a657600281015460018181555f91825260208290526040822001556143fc565b60025482036143cd57600181015460028181555f91825260208290526040822001556143fc565b600180820154600280840180545f90815260208190526040808220909501849055905492815292909220909101555b5f6002820181905560019091015550565b306001600160a01b037f000000000000000000000000000000000000000000000000000000000000000016148061449357507f00000000000000000000000000000000000000000000000000000000000000006001600160a01b03166144875f5160206162865f395f51905f52546001600160a01b031690565b6001600160a01b031614155b156144b15760405163703e46dd60e11b815260040160405180910390fd5b565b7f189ab7a9244df0848122154315af71fe140f3db0fe014031783b0946b8c9d2e3610dcc81614147565b816001600160a01b03166352d1902d6040518163ffffffff1660e01b8152600401602060405180830381865afa925050508015614537575060408051601f3d908101601f1916820190925261453491810190615d5d565b60015b61455f57604051634c9c8ce360e01b81526001600160a01b0383166004820152602401610bf8565b5f5160206162865f395f51905f52811461458f57604051632a87526960e21b815260048101829052602401610bf8565b610f2b83836150ab565b306001600160a01b037f000000000000000000000000000000000000000000000000000000000000000016146144b15760405163703e46dd60e11b815260040160405180910390fd5b610dcc828260405180602001604052805f815250615100565b5f610d06825f615117565b5f5160206162465f395f51905f526001600160a01b03831661464657604051630b61174360e31b81526001600160a01b0384166004820152602401610bf8565b6001600160a01b038481165f818152600584016020908152604080832094881680845294825291829020805460ff191687151590811790915591519182527f17307eab39ab6107e8899845ad3d59bd9653f200f220920489ca2b5937696c31910160405180910390a350505050565b6001600160a01b0383163b156147d657604051630a85bd0160e11b81526001600160a01b0384169063150b7a02906146f790889088908790879060040161619c565b6020604051808303815f875af1925050508015614731575060408051601f3d908101601f1916820190925261472e918101906161d8565b60015b614798573d80801561475e576040519150601f19603f3d011682016040523d82523d5f602084013e614763565b606091505b5080515f0361479057604051633250574960e11b81526001600160a01b0385166004820152602401610bf8565b805181602001fd5b6001600160e01b03198116630a85bd0160e11b146147d457604051633250574960e11b81526001600160a01b0385166004820152602401610bf8565b505b5050505050565b5f81815260208190526040902060018101541580156147fe57506002810154155b801561480c57508160015414155b15610dcc576001545f0361482557506001819055600255565b60025482111561485257600280546001929092018290555f91825260208290526040909120810182905555565b60015482101561487f57600180546002929092018290555f91825260208290526040909120810182905555565b6001545b5f81815260208190526040902060020154158015906148b157505f8181526020819052604090206002015483115b156148cc575f90815260208190526040902060020154614883565b5f8181526020819052604090206002908101805460018501849055918401829055849055801561490e575f818152602081905260409020600101849055610e53565b505050600255565b5f81815260208190526040902060035482148015614935575060045482145b15614948575f60038190556004556149c5565b600354820361496f57600481015460038181555f91825260208290526040822001556149c5565b600454820361499657600381015460048181555f91825260208290526040822001556149c5565b600380820154600480840180545f90815260208190526040808220909501849055905492815292909220909101555b5f6004820181905560039091015550565b6060815f036149fc5750506040805180820190915260018152600360fc1b602082015290565b815f5b8115614a255780614a0f81616019565b9150614a1e9050600a83615de0565b91506149ff565b5f816001600160401b03811115614a3e57614a3e61591b565b6040519080825280601f01601f191660200182016040528015614a68576020820181803683370190505b5090505b841561413f57614a7d600183615da2565b9150614a8a600a866161f3565b614a95906030615ef4565b60f81b818381518110614aaa57614aaa615f07565b60200101906001600160f81b03191690815f1a905350614acb600a86615de0565b9450614a6c565b5f807ff0c57e16840df040f15088dc2f81fe391c3923bec73e23a9662efc9c229c6a00610d06565b614b026151ab565b610dcc82826151d0565b6144b16151ab565b5f5f846001600160a01b031663d39aa95a6040518163ffffffff1660e01b8152600401602060405180830381865afa158015614b52573d5f5f3e3d5ffd5b505050506040513d601f19601f82011682018060405250810190614b769190615d5d565b5f03614b8657505f905080614e12565b600b546040805163efa7fa5d60e01b815290515f926001600160a01b03169163efa7fa5d9160048083019260209291908290030181865afa158015614bcd573d5f5f3e3d5ffd5b505050506040513d601f19601f82011682018060405250810190614bf19190615d5d565b90505f600b5f9054906101000a90046001600160a01b03166001600160a01b031663a42c69a96040518163ffffffff1660e01b8152600401602060405180830381865afa158015614c44573d5f5f3e3d5ffd5b505050506040513d601f19601f82011682018060405250810190614c689190615d5d565b614c728388615db5565b614c7c9190615de0565b8551909150614ccd5760405162461bcd60e51b815260206004820152601b60248201527f4f7261636c652070726963652063616e6e6f74206265207a65726f00000000006044820152606401610bf8565b84516020860151614ce29060ff16600a615ee9565b614cec9083615db5565b614cf69190615de0565b6040805163dc607d6f60e01b815287516004820152602088015160ff1660248201529087015160448201529093505f906001600160a01b0389169063dc607d6f90606401602060405180830381865afa158015614d55573d5f5f3e3d5ffd5b505050506040513d601f19601f82011682018060405250810190614d799190615d5d565b9050612710811015614de95760405162461bcd60e51b815260206004820152603360248201527f43616e6e6f7420756e616c6c6f636174652066726f6d20756e646572636f6c6c60448201527230ba32b930b634bd32b2103837b9b4ba34b7b760691b6064820152608401610bf8565b612710614df68286615db5565b614e009190615de0565b945084841115614e0e578493505b5050505b935093915050565b5f6001600160e01b0319821663780e9d6360e01b1480610d065750610d0682615200565b5f9081527f80bb2b638cc20bc4d0a60d66940f3ab4a00c1d7b313497ca82fb0b4ab007930260205260409020546001600160a01b031690565b5f5160206162465f395f51905f528180614e9957506001600160a01b03831615155b15614f5a575f614ea8856140b6565b90506001600160a01b03841615801590614ed45750836001600160a01b0316816001600160a01b031614155b8015614ee75750614ee581856137d5565b155b15614f105760405163a9fbf51f60e01b81526001600160a01b0385166004820152602401610bf8565b8215614f585784866001600160a01b0316826001600160a01b03167f8c5be1e5ebec7d5bd14f71427d1e84f3dd0314c0f7b2291e5b200ac8c7c3b92560405160405180910390a45b505b5f93845260040160205250506040902080546001600160a01b0319166001600160a01b0392909216919091179055565b5f5f614f9785858561524f565b90506001600160a01b03811661501e57615019845f5160206162a65f395f51905f5280545f8381527f645e039705490088daad89bae25049a34f4a9072d398537b1ab2425f24cbed0360205260408120829055600182018355919091527fa42f15e5d656f8155fd7419d740a6073999f19cd6e061449ce4a257150545bf20155565b615041565b846001600160a01b0316816001600160a01b031614615041576150418185615351565b6001600160a01b03851661505d57615058846153e8565b61413f565b846001600160a01b0316816001600160a01b03161461413f5761413f85856154b5565b61508a8282611fee565b610dcc57808260405163e2517d3f60e01b8152600401610bf8929190615d44565b6150b48261550d565b6040516001600160a01b038316907fbc7cd75a20ee27fd9adebab32041f755214dbc6bffa90cc0225b39da2e5c2d3b905f90a28051156150f857610f2b8282615570565b610dcc6155e2565b61510a8383615601565b610f2b335f8585856146b5565b5f814710156151425760405163cf47918160e01b815247600482015260248101839052604401610bf8565b763d602d80600a3d3981f3363d3d373d3d3d363d730000008360601b60e81c175f526e5af43d82803e903d91602b57fd5bf38360781b176020526037600983f090506001600160a01b038116610d065760405163b06ebf3d60e01b815260040160405180910390fd5b6151b3615662565b6144b157604051631afcd79f60e31b815260040160405180910390fd5b6151d86151ab565b5f5160206162465f395f51905f52806151f18482615f5f565b5060018101610e538382615f5f565b5f6001600160e01b031982166380ac58cd60e01b148061523057506001600160e01b03198216635b5e139f60e01b145b80610d0657506301ffc9a760e01b6001600160e01b0319831614610d06565b5f5f5160206162465f395f51905f528161526885614e3e565b90506001600160a01b038416156152845761528481858761567b565b6001600160a01b038116156152c05761529f5f865f5f614e77565b6001600160a01b0381165f908152600383016020526040902080545f190190555b6001600160a01b038616156152f0576001600160a01b0386165f9081526003830160205260409020805460010190555b5f85815260028301602052604080822080546001600160a01b0319166001600160a01b038a811691821790925591518893918516917fddf252ad1be2c89b69c2b068fc378daa952ba7f163c4a11628f55a4df523b3ef91a495945050505050565b5f5160206162265f395f51905f525f61536984611eec565b5f8481526001840160209081526040808320546001600160a01b038916845291869052909120919250908183146153c1575f838152602082815260408083205485845281842081905583526001870190915290208290555b5f948552600190930160209081526040808620869055928552929092528220919091555050565b5f5160206162a65f395f51905f52545f5160206162265f395f51905f52905f9061541490600190615da2565b5f84815260038401602052604081205460028501805493945090928490811061543f5761543f615f07565b905f5260205f20015490508084600201838154811061546057615460615f07565b5f9182526020808320909101929092558281526003860190915260408082208490558682528120556002840180548061549b5761549b616206565b600190038181905f5260205f20015f905590555050505050565b5f5160206162265f395f51905f525f60016154cf85611eec565b6154d99190615da2565b6001600160a01b039094165f9081526020838152604080832087845282528083208690559482526001909301909252502055565b806001600160a01b03163b5f0361554257604051634c9c8ce360e01b81526001600160a01b0382166004820152602401610bf8565b5f5160206162865f395f51905f5280546001600160a01b0319166001600160a01b0392909216919091179055565b60605f5f846001600160a01b03168460405161558c919061621a565b5f60405180830381855af49150503d805f81146155c4576040519150601f19603f3d011682016040523d82523d5f602084013e6155c9565b606091505b50915091506155d98583836156d1565b95945050505050565b34156144b15760405163b398979f60e01b815260040160405180910390fd5b6001600160a01b03821661562a57604051633250574960e11b81525f6004820152602401610bf8565b5f61563683835f614133565b90506001600160a01b03811615610f2b576040516339e3563760e11b81525f6004820152602401610bf8565b5f61566b614ad2565b54600160401b900460ff16919050565b61568683838361572d565b610f2b576001600160a01b0383166156b457604051637e27328960e01b815260048101829052602401610bf8565b818160405163177e802f60e01b8152600401610bf8929190615d44565b6060826156e6576156e182615791565b613464565b81511580156156fd57506001600160a01b0384163b155b1561572657604051639996b31560e01b81526001600160a01b0385166004820152602401610bf8565b5080613464565b5f6001600160a01b0383161580159061413f5750826001600160a01b0316846001600160a01b03161480615766575061576684846137d5565b8061413f5750826001600160a01b031661577f836140ed565b6001600160a01b031614949350505050565b8051156157a15780518082602001fd5b60405163d6bda27560e01b815260040160405180910390fd5b5f5f604083850312156157cb575f5ffd5b50508035926020909101359150565b6001600160e01b031981168114614151575f5ffd5b5f602082840312156157ff575f5ffd5b8135613464816157da565b5f81518084528060208401602086015e5f602082860101526020601f19601f83011685010191505092915050565b602081525f613464602083018461580a565b5f6020828403121561585a575f5ffd5b5035919050565b6001600160a01b0381168114614151575f5ffd5b803561588081615861565b919050565b5f5f60408385031215615896575f5ffd5b82356158a181615861565b946020939093013593505050565b5f5f5f606084860312156158c1575f5ffd5b83356158cc81615861565b925060208401356158dc81615861565b929592945050506040919091013590565b5f5f604083850312156158fe575f5ffd5b82359150602083013561591081615861565b809150509250929050565b634e487b7160e01b5f52604160045260245ffd5b604051606081016001600160401b03811182821017156159515761595161591b565b60405290565b5f82601f830112615966575f5ffd5b8135602083015f5f6001600160401b038411156159855761598561591b565b50604051601f19601f85018116603f011681018181106001600160401b03821117156159b3576159b361591b565b6040528381529050808284018710156159ca575f5ffd5b838360208301375f602085830101528094505050505092915050565b5f5f604083850312156159f7575f5ffd5b8235615a0281615861565b915060208301356001600160401b03811115615a1c575f5ffd5b615a2885828601615957565b9150509250929050565b5f60208284031215615a42575f5ffd5b81356001600160401b03811115615a57575f5ffd5b61413f84828501615957565b5f60208284031215615a73575f5ffd5b813561346481615861565b8015158114614151575f5ffd5b5f5f60408385031215615a9c575f5ffd5b8235615aa781615861565b9150602083013561591081615a7e565b5f5f5f5f60808587031215615aca575f5ffd5b8435615ad581615861565b93506020850135615ae581615861565b92506040850135915060608501356001600160401b03811115615b06575f5ffd5b615b1287828801615957565b91505092959194509250565b5f5f5f5f60808587031215615b31575f5ffd5b84359350602085013592506040850135915060608501356001600160401b03811115615b5b575f5ffd5b850160a08188031215615b6c575f5ffd5b939692955090935050565b5f5f5f5f5f5f5f5f5f5f6101408b8d031215615b91575f5ffd5b8a35615b9c81615861565b995060208b0135615bac81615861565b985060408b0135615bbc81615861565b975060608b0135615bcc81615861565b9650615bda60808c01615875565b9550615be860a08c01615875565b945060c08b01356001600160401b03811115615c02575f5ffd5b615c0e8d828e01615957565b945050615c1d60e08c01615875565b9250615c2c6101008c01615875565b9150615c3b6101208c01615875565b90509295989b9194979a5092959850565b5f5f60408385031215615c5d575f5ffd5b8235615c6881615861565b9150602083013561591081615861565b60ff81168114614151575f5ffd5b5f5f8284036080811215615c98575f5ffd5b833592506060601f1982011215615cad575f5ffd5b50615cb661592f565b602084013581526040840135615ccb81615c78565b60208201526060939093013560408401525092909150565b6020808252600f908201526e2737ba103a37b5b2b71037bbb732b960891b604082015260600190565b600181811c90821680615d2057607f821691505b602082108103615d3e57634e487b7160e01b5f52602260045260245ffd5b50919050565b6001600160a01b03929092168252602082015260400190565b5f60208284031215615d6d575f5ffd5b5051919050565b634e487b7160e01b5f52601160045260245ffd5b5f600160ff1b8201615d9c57615d9c615d74565b505f0390565b81810381811115610d0657610d06615d74565b8082028115828204841417610d0657610d06615d74565b634e487b7160e01b5f52601260045260245ffd5b5f82615dee57615dee615dcc565b500490565b5f60208284031215615e03575f5ffd5b815161346481615a7e565b6001815b6001841115614e1257808504811115615e2d57615e2d615d74565b6001841615615e3b57908102905b60019390931c928002615e12565b5f82615e5757506001610d06565b81615e6357505f610d06565b8160018114615e795760028114615e8357615e9f565b6001915050610d06565b60ff841115615e9457615e94615d74565b50506001821b610d06565b5060208310610133831016604e8410600b8410161715615ec2575081810a610d06565b615ece5f198484615e0e565b805f1904821115615ee157615ee1615d74565b029392505050565b5f6134648383615e49565b80820180821115610d0657610d06615d74565b634e487b7160e01b5f52603260045260245ffd5b601f821115610f2b57805f5260205f20601f840160051c81016020851015615f405750805b601f840160051c820191505b818110156147d6575f8155600101615f4c565b81516001600160401b03811115615f7857615f7861591b565b615f8c81615f868454615d0c565b84615f1b565b6020601f821160018114615fbe575f8315615fa75750848201515b5f19600385901b1c1916600184901b1784556147d6565b5f84815260208120601f198516915b82811015615fed5787850151825560209485019460019092019101615fcd565b508482101561600a57868401515f19600387901b60f8161c191681555b50505050600190811b01905550565b5f6001820161602a5761602a615d74565b5060010190565b5f60208284031215616041575f5ffd5b815161346481615861565b60208082526010908201526f115cd8dc9bddc81b9bdd08199bdd5b9960821b604082015260600190565b81835281816020850137505f828201602090810191909152601f909101601f19169091010190565b60208082528235828201525f908301356160b781615c78565b60ff1660408381019190915283013560608084019190915283013560808084019190915283013536849003601e190181126160f0575f5ffd5b83016020810190356001600160401b0381111561610b575f5ffd5b803603821315616119575f5ffd5b60a0808501526155d960c085018284616076565b5f606082840312801561613e575f5ffd5b5061614761592f565b82518152602083015161615981615c78565b60208201526040928301519281019290925250919050565b5f81518060208401855e5f93019283525090919050565b5f61413f6161968386616171565b84616171565b6001600160a01b03858116825284166020820152604081018390526080606082018190525f906161ce9083018461580a565b9695505050505050565b5f602082840312156161e8575f5ffd5b8151613464816157da565b5f8261620157616201615dcc565b500690565b634e487b7160e01b5f52603160045260245ffd5b5f613464828461617156fe645e039705490088daad89bae25049a34f4a9072d398537b1ab2425f24cbed0080bb2b638cc20bc4d0a60d66940f3ab4a00c1d7b313497ca82fb0b4ab00793008c21e8ab0c92c4c41f2714adb63619371ca8ed5eb69a6fed79b7d52cdd9703ae360894a13ba1a3210667c828492db98dca3e2076cc3735a920a3ca505d382bbc645e039705490088daad89bae25049a34f4a9072d398537b1ab2425f24cbed0202dd7bc7dec4dceedda775e58dd541e08a116c6c53815c0bd028192f7b626800a26469706673582212200e88207cb127fa5701011a8ae0e056acb827e18bf20a4567dd428ade9c76725564736f6c634300081d0033","linkReferences":{}},"methodIdentifiers":{"DEFAULT_ADMIN_ROLE()":"a217fddf","FACTOR_PRECISION()":"a42c69a9","MINIMUM_UNALLOCATE_COLLATERALIZATION_RATIO()":"62382f9f","MINTER_ROLE()":"d5391393","MIN_GAS()":"20d2c951","POSITION_ESCROW_ROLE()":"8d7cac7b","UPGRADER_ROLE()":"f72c0d8b","UPGRADE_INTERFACE_VERSION()":"ad3cb1cc","addUnallocatedFundsEth(uint256)":"f399beb7","addUnallocatedFundsStETH(uint256,uint256)":"bb566297","allocateStabilizerFunds(uint256,uint256)":"451fda68","approve(address,uint256)":"095ea7b3","balanceOf(address)":"70a08231","baseURI()":"6c0360eb","cuspdToken()":"6bc05b7e","getApproved(uint256)":"081812fc","getMinCollateralRatio(uint256)":"bb310a80","getRoleAdmin(bytes32)":"248a9ca3","grantRole(bytes32,address)":"2f2ff15d","hasRole(bytes32,address)":"91d14854","highestAllocatedId()":"d743fd1e","highestUnallocatedId()":"92133362","initialize(address,address,address,address,address,address,string,address,address,address)":"d9230389","insuranceEscrow()":"4d87a1f2","isApprovedForAll(address,address)":"e985e9c5","lido()":"23509a2d","liquidatePosition(uint256,uint256,uint256,(uint256,uint8,uint256,bytes32,bytes))":"bdb35bf2","liquidationLiquidatorPayoutPercent()":"4e027fe9","lowestAllocatedId()":"2995bc50","lowestUnallocatedId()":"853cad06","mint(address)":"6a627842","name()":"06fdde03","ownerOf(uint256)":"6352211e","positionEscrowImplementation()":"e96d5787","positionEscrows(uint256)":"a04ad512","positions(uint256)":"99fbab88","proxiableUUID()":"52d1902d","rateContract()":"eee24219","removeUnallocatedFunds(uint256,uint256)":"ae88a779","renounceRole(bytes32,address)":"36568abe","reportCollateralAddition(uint256)":"67bff4a8","reportCollateralRemoval(uint256)":"39112058","reporter()":"010ec441","revokeRole(bytes32,address)":"d547741f","safeTransferFrom(address,address,uint256)":"42842e0e","safeTransferFrom(address,address,uint256,bytes)":"b88d4fde","setApprovalForAll(address,bool)":"a22cb465","setBaseURI(string)":"55f804b3","setInsuranceEscrow(address)":"7122bcc3","setLiquidationParameters(uint256)":"b10114d3","setMinCollateralizationRatio(uint256,uint256)":"01aa0b1a","stETH()":"c1fe3e48","stabilizerEscrowImplementation()":"7da31f61","stabilizerEscrows(uint256)":"bba6fd6f","supportsInterface(bytes4)":"01ffc9a7","symbol()":"95d89b41","tokenByIndex(uint256)":"4f6ccce7","tokenOfOwnerByIndex(address,uint256)":"2f745c59","tokenURI(uint256)":"c87b56dd","totalSupply()":"18160ddd","transferFrom(address,address,uint256)":"23b872dd","unallocateStabilizerFunds(uint256,(uint256,uint8,uint256))":"ff70fa64","upgradeToAndCall(address,bytes)":"4f1ef286"},"storageLayout":{"storage":[{"astId":54452,"contract":"src/StabilizerNFT.sol:StabilizerNFT","label":"positions","offset":0,"slot":"0","type":"t_mapping(t_uint256,t_struct(StabilizerPosition)54447_storage)"},{"astId":54454,"contract":"src/StabilizerNFT.sol:StabilizerNFT","label":"lowestUnallocatedId","offset":0,"slot":"1","type":"t_uint256"},{"astId":54456,"contract":"src/StabilizerNFT.sol:StabilizerNFT","label":"highestUnallocatedId","offset":0,"slot":"2","type":"t_uint256"},{"astId":54458,"contract":"src/StabilizerNFT.sol:StabilizerNFT","label":"lowestAllocatedId","offset":0,"slot":"3","type":"t_uint256"},{"astId":54460,"contract":"src/StabilizerNFT.sol:StabilizerNFT","label":"highestAllocatedId","offset":0,"slot":"4","type":"t_uint256"},{"astId":54463,"contract":"src/StabilizerNFT.sol:StabilizerNFT","label":"cuspdToken","offset":0,"slot":"5","type":"t_contract(IcUSPDToken)59261"},{"astId":54466,"contract":"src/StabilizerNFT.sol:StabilizerNFT","label":"reporter","offset":0,"slot":"6","type":"t_contract(IOvercollateralizationReporter)58850"},{"astId":54469,"contract":"src/StabilizerNFT.sol:StabilizerNFT","label":"insuranceEscrow","offset":0,"slot":"7","type":"t_contract(IInsuranceEscrow)58730"},{"astId":54471,"contract":"src/StabilizerNFT.sol:StabilizerNFT","label":"liquidationLiquidatorPayoutPercent","offset":0,"slot":"8","type":"t_uint256"},{"astId":54473,"contract":"src/StabilizerNFT.sol:StabilizerNFT","label":"stETH","offset":0,"slot":"9","type":"t_address"},{"astId":54475,"contract":"src/StabilizerNFT.sol:StabilizerNFT","label":"lido","offset":0,"slot":"10","type":"t_address"},{"astId":54478,"contract":"src/StabilizerNFT.sol:StabilizerNFT","label":"rateContract","offset":0,"slot":"11","type":"t_contract(IPoolSharesConversionRate)58891"},{"astId":54480,"contract":"src/StabilizerNFT.sol:StabilizerNFT","label":"stabilizerEscrowImplementation","offset":0,"slot":"12","type":"t_address"},{"astId":54482,"contract":"src/StabilizerNFT.sol:StabilizerNFT","label":"positionEscrowImplementation","offset":0,"slot":"13","type":"t_address"},{"astId":54486,"contract":"src/StabilizerNFT.sol:StabilizerNFT","label":"stabilizerEscrows","offset":0,"slot":"14","type":"t_mapping(t_uint256,t_address)"},{"astId":54490,"contract":"src/StabilizerNFT.sol:StabilizerNFT","label":"positionEscrows","offset":0,"slot":"15","type":"t_mapping(t_uint256,t_address)"},{"astId":54492,"contract":"src/StabilizerNFT.sol:StabilizerNFT","label":"baseURI","offset":0,"slot":"16","type":"t_string_storage"},{"astId":54494,"contract":"src/StabilizerNFT.sol:StabilizerNFT","label":"_nextTokenId","offset":0,"slot":"17","type":"t_uint256"}],"types":{"t_address":{"encoding":"inplace","label":"address","numberOfBytes":"20"},"t_contract(IInsuranceEscrow)58730":{"encoding":"inplace","label":"contract IInsuranceEscrow","numberOfBytes":"20"},"t_contract(IOvercollateralizationReporter)58850":{"encoding":"inplace","label":"contract IOvercollateralizationReporter","numberOfBytes":"20"},"t_contract(IPoolSharesConversionRate)58891":{"encoding":"inplace","label":"contract IPoolSharesConversionRate","numberOfBytes":"20"},"t_contract(IcUSPDToken)59261":{"encoding":"inplace","label":"contract IcUSPDToken","numberOfBytes":"20"},"t_mapping(t_uint256,t_address)":{"encoding":"mapping","key":"t_uint256","label":"mapping(uint256 => address)","numberOfBytes":"32","value":"t_address"},"t_mapping(t_uint256,t_struct(StabilizerPosition)54447_storage)":{"encoding":"mapping","key":"t_uint256","label":"mapping(uint256 => struct StabilizerNFT.StabilizerPosition)","numberOfBytes":"32","value":"t_struct(StabilizerPosition)54447_storage"},"t_string_storage":{"encoding":"bytes","label":"string","numberOfBytes":"32"},"t_struct(StabilizerPosition)54447_storage":{"encoding":"inplace","label":"struct StabilizerNFT.StabilizerPosition","numberOfBytes":"160","members":[{"astId":54438,"contract":"src/StabilizerNFT.sol:StabilizerNFT","label":"minCollateralRatio","offset":0,"slot":"0","type":"t_uint256"},{"astId":54440,"contract":"src/StabilizerNFT.sol:StabilizerNFT","label":"prevUnallocated","offset":0,"slot":"1","type":"t_uint256"},{"astId":54442,"contract":"src/StabilizerNFT.sol:StabilizerNFT","label":"nextUnallocated","offset":0,"slot":"2","type":"t_uint256"},{"astId":54444,"contract":"src/StabilizerNFT.sol:StabilizerNFT","label":"prevAllocated","offset":0,"slot":"3","type":"t_uint256"},{"astId":54446,"contract":"src/StabilizerNFT.sol:StabilizerNFT","label":"nextAllocated","offset":0,"slot":"4","type":"t_uint256"}]},"t_uint256":{"encoding":"inplace","label":"uint256","numberOfBytes":"32"}}},"id":78}