{"abi":[{"type":"constructor","inputs":[],"stateMutability":"nonpayable"},{"type":"receive","stateMutability":"payable"},{"type":"function","name":"DEFAULT_ADMIN_ROLE","inputs":[],"outputs":[{"name":"","type":"bytes32","internalType":"bytes32"}],"stateMutability":"view"},{"type":"function","name":"FACTOR_PRECISION","inputs":[],"outputs":[{"name":"","type":"uint256","internalType":"uint256"}],"stateMutability":"view"},{"type":"function","name":"MINTER_ROLE","inputs":[],"outputs":[{"name":"","type":"bytes32","internalType":"bytes32"}],"stateMutability":"view"},{"type":"function","name":"MIN_GAS","inputs":[],"outputs":[{"name":"","type":"uint256","internalType":"uint256"}],"stateMutability":"view"},{"type":"function","name":"POSITION_ESCROW_ROLE","inputs":[],"outputs":[{"name":"","type":"bytes32","internalType":"bytes32"}],"stateMutability":"view"},{"type":"function","name":"addUnallocatedFundsEth","inputs":[{"name":"tokenId","type":"uint256","internalType":"uint256"}],"outputs":[],"stateMutability":"payable"},{"type":"function","name":"addUnallocatedFundsStETH","inputs":[{"name":"tokenId","type":"uint256","internalType":"uint256"},{"name":"stETHAmount","type":"uint256","internalType":"uint256"}],"outputs":[],"stateMutability":"nonpayable"},{"type":"function","name":"allocateStabilizerFunds","inputs":[{"name":"ethUsdPrice","type":"uint256","internalType":"uint256"},{"name":"priceDecimals","type":"uint256","internalType":"uint256"}],"outputs":[{"name":"result","type":"tuple","internalType":"struct IStabilizerNFT.AllocationResult","components":[{"name":"allocatedEth","type":"uint256","internalType":"uint256"},{"name":"totalEthEquivalentAdded","type":"uint256","internalType":"uint256"}]}],"stateMutability":"payable"},{"type":"function","name":"approve","inputs":[{"name":"to","type":"address","internalType":"address"},{"name":"tokenId","type":"uint256","internalType":"uint256"}],"outputs":[],"stateMutability":"nonpayable"},{"type":"function","name":"balanceOf","inputs":[{"name":"owner","type":"address","internalType":"address"}],"outputs":[{"name":"","type":"uint256","internalType":"uint256"}],"stateMutability":"view"},{"type":"function","name":"baseURI","inputs":[],"outputs":[{"name":"","type":"string","internalType":"string"}],"stateMutability":"view"},{"type":"function","name":"cuspdToken","inputs":[],"outputs":[{"name":"","type":"address","internalType":"contract IcUSPDToken"}],"stateMutability":"view"},{"type":"function","name":"getApproved","inputs":[{"name":"tokenId","type":"uint256","internalType":"uint256"}],"outputs":[{"name":"","type":"address","internalType":"address"}],"stateMutability":"view"},{"type":"function","name":"getMinCollateralRatio","inputs":[{"name":"tokenId","type":"uint256","internalType":"uint256"}],"outputs":[{"name":"","type":"uint256","internalType":"uint256"}],"stateMutability":"view"},{"type":"function","name":"getRoleAdmin","inputs":[{"name":"role","type":"bytes32","internalType":"bytes32"}],"outputs":[{"name":"","type":"bytes32","internalType":"bytes32"}],"stateMutability":"view"},{"type":"function","name":"grantRole","inputs":[{"name":"role","type":"bytes32","internalType":"bytes32"},{"name":"account","type":"address","internalType":"address"}],"outputs":[],"stateMutability":"nonpayable"},{"type":"function","name":"hasRole","inputs":[{"name":"role","type":"bytes32","internalType":"bytes32"},{"name":"account","type":"address","internalType":"address"}],"outputs":[{"name":"","type":"bool","internalType":"bool"}],"stateMutability":"view"},{"type":"function","name":"highestAllocatedId","inputs":[],"outputs":[{"name":"","type":"uint256","internalType":"uint256"}],"stateMutability":"view"},{"type":"function","name":"highestUnallocatedId","inputs":[],"outputs":[{"name":"","type":"uint256","internalType":"uint256"}],"stateMutability":"view"},{"type":"function","name":"initialize","inputs":[{"name":"_cuspdToken","type":"address","internalType":"address"},{"name":"_stETH","type":"address","internalType":"address"},{"name":"_lido","type":"address","internalType":"address"},{"name":"_rateContract","type":"address","internalType":"address"},{"name":"_reporterAddress","type":"address","internalType":"address"},{"name":"_insuranceEscrowAddress","type":"address","internalType":"address"},{"name":"_baseURI","type":"string","internalType":"string"},{"name":"_stabilizerEscrowImpl","type":"address","internalType":"address"},{"name":"_positionEscrowImpl","type":"address","internalType":"address"},{"name":"_admin","type":"address","internalType":"address"}],"outputs":[],"stateMutability":"nonpayable"},{"type":"function","name":"insuranceEscrow","inputs":[],"outputs":[{"name":"","type":"address","internalType":"contract IInsuranceEscrow"}],"stateMutability":"view"},{"type":"function","name":"isApprovedForAll","inputs":[{"name":"owner","type":"address","internalType":"address"},{"name":"operator","type":"address","internalType":"address"}],"outputs":[{"name":"","type":"bool","internalType":"bool"}],"stateMutability":"view"},{"type":"function","name":"lido","inputs":[],"outputs":[{"name":"","type":"address","internalType":"address"}],"stateMutability":"view"},{"type":"function","name":"liquidatePosition","inputs":[{"name":"tokenId","type":"uint256","internalType":"uint256"},{"name":"cuspdSharesToLiquidate","type":"uint256","internalType":"uint256"},{"name":"priceQuery","type":"tuple","internalType":"struct IPriceOracle.PriceAttestationQuery","components":[{"name":"price","type":"uint256","internalType":"uint256"},{"name":"decimals","type":"uint8","internalType":"uint8"},{"name":"dataTimestamp","type":"uint256","internalType":"uint256"},{"name":"assetPair","type":"bytes32","internalType":"bytes32"},{"name":"signature","type":"bytes","internalType":"bytes"}]}],"outputs":[],"stateMutability":"nonpayable"},{"type":"function","name":"liquidationLiquidatorPayoutPercent","inputs":[],"outputs":[{"name":"","type":"uint256","internalType":"uint256"}],"stateMutability":"view"},{"type":"function","name":"liquidationThresholdPercent","inputs":[],"outputs":[{"name":"","type":"uint256","internalType":"uint256"}],"stateMutability":"view"},{"type":"function","name":"lowestAllocatedId","inputs":[],"outputs":[{"name":"","type":"uint256","internalType":"uint256"}],"stateMutability":"view"},{"type":"function","name":"lowestUnallocatedId","inputs":[],"outputs":[{"name":"","type":"uint256","internalType":"uint256"}],"stateMutability":"view"},{"type":"function","name":"mint","inputs":[{"name":"to","type":"address","internalType":"address"},{"name":"tokenId","type":"uint256","internalType":"uint256"}],"outputs":[],"stateMutability":"nonpayable"},{"type":"function","name":"name","inputs":[],"outputs":[{"name":"","type":"string","internalType":"string"}],"stateMutability":"view"},{"type":"function","name":"ownerOf","inputs":[{"name":"tokenId","type":"uint256","internalType":"uint256"}],"outputs":[{"name":"","type":"address","internalType":"address"}],"stateMutability":"view"},{"type":"function","name":"positionEscrowImplementation","inputs":[],"outputs":[{"name":"","type":"address","internalType":"address"}],"stateMutability":"view"},{"type":"function","name":"positionEscrows","inputs":[{"name":"","type":"uint256","internalType":"uint256"}],"outputs":[{"name":"","type":"address","internalType":"address"}],"stateMutability":"view"},{"type":"function","name":"positions","inputs":[{"name":"","type":"uint256","internalType":"uint256"}],"outputs":[{"name":"minCollateralRatio","type":"uint256","internalType":"uint256"},{"name":"prevUnallocated","type":"uint256","internalType":"uint256"},{"name":"nextUnallocated","type":"uint256","internalType":"uint256"},{"name":"prevAllocated","type":"uint256","internalType":"uint256"},{"name":"nextAllocated","type":"uint256","internalType":"uint256"}],"stateMutability":"view"},{"type":"function","name":"rateContract","inputs":[],"outputs":[{"name":"","type":"address","internalType":"contract IPoolSharesConversionRate"}],"stateMutability":"view"},{"type":"function","name":"removeUnallocatedFunds","inputs":[{"name":"tokenId","type":"uint256","internalType":"uint256"},{"name":"stETHAmount","type":"uint256","internalType":"uint256"}],"outputs":[],"stateMutability":"nonpayable"},{"type":"function","name":"renounceRole","inputs":[{"name":"role","type":"bytes32","internalType":"bytes32"},{"name":"callerConfirmation","type":"address","internalType":"address"}],"outputs":[],"stateMutability":"nonpayable"},{"type":"function","name":"reportCollateralAddition","inputs":[{"name":"stEthAmount","type":"uint256","internalType":"uint256"}],"outputs":[],"stateMutability":"nonpayable"},{"type":"function","name":"reportCollateralRemoval","inputs":[{"name":"stEthAmount","type":"uint256","internalType":"uint256"}],"outputs":[],"stateMutability":"nonpayable"},{"type":"function","name":"reporter","inputs":[],"outputs":[{"name":"","type":"address","internalType":"contract IOvercollateralizationReporter"}],"stateMutability":"view"},{"type":"function","name":"revokeRole","inputs":[{"name":"role","type":"bytes32","internalType":"bytes32"},{"name":"account","type":"address","internalType":"address"}],"outputs":[],"stateMutability":"nonpayable"},{"type":"function","name":"safeTransferFrom","inputs":[{"name":"from","type":"address","internalType":"address"},{"name":"to","type":"address","internalType":"address"},{"name":"tokenId","type":"uint256","internalType":"uint256"}],"outputs":[],"stateMutability":"nonpayable"},{"type":"function","name":"safeTransferFrom","inputs":[{"name":"from","type":"address","internalType":"address"},{"name":"to","type":"address","internalType":"address"},{"name":"tokenId","type":"uint256","internalType":"uint256"},{"name":"data","type":"bytes","internalType":"bytes"}],"outputs":[],"stateMutability":"nonpayable"},{"type":"function","name":"setApprovalForAll","inputs":[{"name":"operator","type":"address","internalType":"address"},{"name":"approved","type":"bool","internalType":"bool"}],"outputs":[],"stateMutability":"nonpayable"},{"type":"function","name":"setBaseURI","inputs":[{"name":"newBaseURI","type":"string","internalType":"string"}],"outputs":[],"stateMutability":"nonpayable"},{"type":"function","name":"setInsuranceEscrow","inputs":[{"name":"_insuranceEscrowAddress","type":"address","internalType":"address"}],"outputs":[],"stateMutability":"nonpayable"},{"type":"function","name":"setLiquidationParameters","inputs":[{"name":"_payoutPercent","type":"uint256","internalType":"uint256"},{"name":"_thresholdPercent","type":"uint256","internalType":"uint256"}],"outputs":[],"stateMutability":"nonpayable"},{"type":"function","name":"setMinCollateralizationRatio","inputs":[{"name":"tokenId","type":"uint256","internalType":"uint256"},{"name":"newRatio","type":"uint256","internalType":"uint256"}],"outputs":[],"stateMutability":"nonpayable"},{"type":"function","name":"stETH","inputs":[],"outputs":[{"name":"","type":"address","internalType":"address"}],"stateMutability":"view"},{"type":"function","name":"stabilizerEscrowImplementation","inputs":[],"outputs":[{"name":"","type":"address","internalType":"address"}],"stateMutability":"view"},{"type":"function","name":"stabilizerEscrows","inputs":[{"name":"","type":"uint256","internalType":"uint256"}],"outputs":[{"name":"","type":"address","internalType":"address"}],"stateMutability":"view"},{"type":"function","name":"supportsInterface","inputs":[{"name":"interfaceId","type":"bytes4","internalType":"bytes4"}],"outputs":[{"name":"","type":"bool","internalType":"bool"}],"stateMutability":"view"},{"type":"function","name":"symbol","inputs":[],"outputs":[{"name":"","type":"string","internalType":"string"}],"stateMutability":"view"},{"type":"function","name":"tokenByIndex","inputs":[{"name":"index","type":"uint256","internalType":"uint256"}],"outputs":[{"name":"","type":"uint256","internalType":"uint256"}],"stateMutability":"view"},{"type":"function","name":"tokenOfOwnerByIndex","inputs":[{"name":"owner","type":"address","internalType":"address"},{"name":"index","type":"uint256","internalType":"uint256"}],"outputs":[{"name":"","type":"uint256","internalType":"uint256"}],"stateMutability":"view"},{"type":"function","name":"tokenURI","inputs":[{"name":"tokenId","type":"uint256","internalType":"uint256"}],"outputs":[{"name":"","type":"string","internalType":"string"}],"stateMutability":"view"},{"type":"function","name":"totalSupply","inputs":[],"outputs":[{"name":"","type":"uint256","internalType":"uint256"}],"stateMutability":"view"},{"type":"function","name":"transferFrom","inputs":[{"name":"from","type":"address","internalType":"address"},{"name":"to","type":"address","internalType":"address"},{"name":"tokenId","type":"uint256","internalType":"uint256"}],"outputs":[],"stateMutability":"nonpayable"},{"type":"function","name":"unallocateStabilizerFunds","inputs":[{"name":"poolSharesToUnallocate","type":"uint256","internalType":"uint256"},{"name":"priceResponse","type":"tuple","internalType":"struct IPriceOracle.PriceResponse","components":[{"name":"price","type":"uint256","internalType":"uint256"},{"name":"decimals","type":"uint8","internalType":"uint8"},{"name":"timestamp","type":"uint256","internalType":"uint256"}]}],"outputs":[{"name":"unallocatedEth","type":"uint256","internalType":"uint256"}],"stateMutability":"nonpayable"},{"type":"event","name":"Approval","inputs":[{"name":"owner","type":"address","indexed":true,"internalType":"address"},{"name":"approved","type":"address","indexed":true,"internalType":"address"},{"name":"tokenId","type":"uint256","indexed":true,"internalType":"uint256"}],"anonymous":false},{"type":"event","name":"ApprovalForAll","inputs":[{"name":"owner","type":"address","indexed":true,"internalType":"address"},{"name":"operator","type":"address","indexed":true,"internalType":"address"},{"name":"approved","type":"bool","indexed":false,"internalType":"bool"}],"anonymous":false},{"type":"event","name":"FundsAllocated","inputs":[{"name":"tokenId","type":"uint256","indexed":true,"internalType":"uint256"},{"name":"stabilizersAmount","type":"uint256","indexed":false,"internalType":"uint256"},{"name":"usersAmount","type":"uint256","indexed":false,"internalType":"uint256"}],"anonymous":false},{"type":"event","name":"FundsUnallocated","inputs":[{"name":"tokenId","type":"uint256","indexed":true,"internalType":"uint256"},{"name":"userStEthAmount","type":"uint256","indexed":false,"internalType":"uint256"},{"name":"stabilizerStEthAmount","type":"uint256","indexed":false,"internalType":"uint256"}],"anonymous":false},{"type":"event","name":"Initialized","inputs":[{"name":"version","type":"uint64","indexed":false,"internalType":"uint64"}],"anonymous":false},{"type":"event","name":"InsuranceEscrowUpdated","inputs":[{"name":"newInsuranceEscrow","type":"address","indexed":true,"internalType":"address"}],"anonymous":false},{"type":"event","name":"LiquidationParametersUpdated","inputs":[{"name":"newPayoutPercent","type":"uint256","indexed":false,"internalType":"uint256"},{"name":"newThresholdPercent","type":"uint256","indexed":false,"internalType":"uint256"}],"anonymous":false},{"type":"event","name":"MinCollateralRatioUpdated","inputs":[{"name":"tokenId","type":"uint256","indexed":true,"internalType":"uint256"},{"name":"oldRatio","type":"uint256","indexed":false,"internalType":"uint256"},{"name":"newRatio","type":"uint256","indexed":false,"internalType":"uint256"}],"anonymous":false},{"type":"event","name":"PositionLiquidated","inputs":[{"name":"tokenId","type":"uint256","indexed":true,"internalType":"uint256"},{"name":"liquidator","type":"address","indexed":true,"internalType":"address"},{"name":"cuspdSharesLiquidated","type":"uint256","indexed":false,"internalType":"uint256"},{"name":"stEthPaidToLiquidator","type":"uint256","indexed":false,"internalType":"uint256"},{"name":"priceUsed","type":"uint256","indexed":false,"internalType":"uint256"}],"anonymous":false},{"type":"event","name":"RoleAdminChanged","inputs":[{"name":"role","type":"bytes32","indexed":true,"internalType":"bytes32"},{"name":"previousAdminRole","type":"bytes32","indexed":true,"internalType":"bytes32"},{"name":"newAdminRole","type":"bytes32","indexed":true,"internalType":"bytes32"}],"anonymous":false},{"type":"event","name":"RoleGranted","inputs":[{"name":"role","type":"bytes32","indexed":true,"internalType":"bytes32"},{"name":"account","type":"address","indexed":true,"internalType":"address"},{"name":"sender","type":"address","indexed":true,"internalType":"address"}],"anonymous":false},{"type":"event","name":"RoleRevoked","inputs":[{"name":"role","type":"bytes32","indexed":true,"internalType":"bytes32"},{"name":"account","type":"address","indexed":true,"internalType":"address"},{"name":"sender","type":"address","indexed":true,"internalType":"address"}],"anonymous":false},{"type":"event","name":"StabilizerPositionCreated","inputs":[{"name":"tokenId","type":"uint256","indexed":true,"internalType":"uint256"},{"name":"owner","type":"address","indexed":true,"internalType":"address"}],"anonymous":false},{"type":"event","name":"Transfer","inputs":[{"name":"from","type":"address","indexed":true,"internalType":"address"},{"name":"to","type":"address","indexed":true,"internalType":"address"},{"name":"tokenId","type":"uint256","indexed":true,"internalType":"uint256"}],"anonymous":false},{"type":"event","name":"UnallocatedFundsAdded","inputs":[{"name":"tokenId","type":"uint256","indexed":true,"internalType":"uint256"},{"name":"asset","type":"address","indexed":false,"internalType":"address"},{"name":"amount","type":"uint256","indexed":false,"internalType":"uint256"}],"anonymous":false},{"type":"event","name":"UnallocatedFundsRemoved","inputs":[{"name":"tokenId","type":"uint256","indexed":true,"internalType":"uint256"},{"name":"amount","type":"uint256","indexed":false,"internalType":"uint256"},{"name":"recipient","type":"address","indexed":true,"internalType":"address"}],"anonymous":false},{"type":"error","name":"AccessControlBadConfirmation","inputs":[]},{"type":"error","name":"AccessControlUnauthorizedAccount","inputs":[{"name":"account","type":"address","internalType":"address"},{"name":"neededRole","type":"bytes32","internalType":"bytes32"}]},{"type":"error","name":"ERC721EnumerableForbiddenBatchMint","inputs":[]},{"type":"error","name":"ERC721IncorrectOwner","inputs":[{"name":"sender","type":"address","internalType":"address"},{"name":"tokenId","type":"uint256","internalType":"uint256"},{"name":"owner","type":"address","internalType":"address"}]},{"type":"error","name":"ERC721InsufficientApproval","inputs":[{"name":"operator","type":"address","internalType":"address"},{"name":"tokenId","type":"uint256","internalType":"uint256"}]},{"type":"error","name":"ERC721InvalidApprover","inputs":[{"name":"approver","type":"address","internalType":"address"}]},{"type":"error","name":"ERC721InvalidOperator","inputs":[{"name":"operator","type":"address","internalType":"address"}]},{"type":"error","name":"ERC721InvalidOwner","inputs":[{"name":"owner","type":"address","internalType":"address"}]},{"type":"error","name":"ERC721InvalidReceiver","inputs":[{"name":"receiver","type":"address","internalType":"address"}]},{"type":"error","name":"ERC721InvalidSender","inputs":[{"name":"sender","type":"address","internalType":"address"}]},{"type":"error","name":"ERC721NonexistentToken","inputs":[{"name":"tokenId","type":"uint256","internalType":"uint256"}]},{"type":"error","name":"ERC721OutOfBoundsIndex","inputs":[{"name":"owner","type":"address","internalType":"address"},{"name":"index","type":"uint256","internalType":"uint256"}]},{"type":"error","name":"FailedDeployment","inputs":[]},{"type":"error","name":"InsufficientBalance","inputs":[{"name":"balance","type":"uint256","internalType":"uint256"},{"name":"needed","type":"uint256","internalType":"uint256"}]},{"type":"error","name":"InvalidInitialization","inputs":[]},{"type":"error","name":"NotInitializing","inputs":[]}],"bytecode":{"object":"0x6080604052348015600e575f80fd5b5060156019565b60c9565b7ff0c57e16840df040f15088dc2f81fe391c3923bec73e23a9662efc9c229c6a00805468010000000000000000900460ff161560685760405163f92ee8a960e01b815260040160405180910390fd5b80546001600160401b039081161460c65780546001600160401b0319166001600160401b0390811782556040519081527fc7f505b2f371ae2175ee4913f4499e1f2633a7b5936321eed1cdaeb6115181d29060200160405180910390a15b50565b615c34806100d65f395ff3fe60806040526004361061037f575f3560e01c80637122bcc3116101d3578063bb566297116100fd578063d547741f1161009d578063e985e9c51161006d578063e985e9c514610aa3578063eee2421914610ac2578063f399beb714610ae1578063ff70fa6414610af4575f80fd5b8063d547741f14610a31578063d743fd1e14610a50578063d923038914610a65578063e96d578714610a84575f80fd5b8063c87b56dd116100d8578063c87b56dd146109a1578063cf4fa51c146109c0578063d16bc7de146109df578063d5391393146109fe575f80fd5b8063bb5662971461092f578063bba6fd6f1461094e578063c1fe3e4814610982575f80fd5b806399fbab8811610173578063a42c69a911610143578063a42c69a9146108b7578063ae88a779146108d2578063b88d4fde146108f1578063bb310a8014610910575f80fd5b806399fbab88146107e1578063a04ad51214610851578063a217fddf14610885578063a22cb46514610898575f80fd5b80638d7cac7b116101ae5780638d7cac7b1461077957806391d148541461079957806392133362146107b857806395d89b41146107cd575f80fd5b80637122bcc3146107265780637da31f6114610745578063853cad0614610764575f80fd5b8063320d2fa0116102b45780634e027fe91161025457806367bff4a81161022457806367bff4a8146106b55780636bc05b7e146106d45780636c0360eb146106f357806370a0823114610707575f80fd5b80634e027fe9146106435780634f6ccce71461065857806355f804b3146106775780636352211e14610696575f80fd5b806340c10f191161028f57806340c10f19146105b857806342842e0e146105d7578063451fda68146105f65780634d87a1f214610624575f80fd5b8063320d2fa01461056557806336568abe1461057a5780633911205814610599575f80fd5b806320d2c9511161031f578063248a9ca3116102fa578063248a9ca3146104f35780632995bc50146105125780632f2ff15d146105275780632f745c5914610546575f80fd5b806320d2c9511461049f57806323509a2d146104b557806323b872dd146104d4575f80fd5b806306fdde031161035a57806306fdde0314610416578063081812fc14610437578063095ea7b31461045657806318160ddd14610475575f80fd5b8063010ec4411461038a57806301aa0b1a146103c657806301ffc9a7146103e7575f80fd5b3661038657005b5f80fd5b348015610395575f80fd5b506006546103a9906001600160a01b031681565b6040516001600160a01b0390911681526020015b60405180910390f35b3480156103d1575f80fd5b506103e56103e0366004615129565b610b13565b005b3480156103f2575f80fd5b5061040661040136600461515e565b610c47565b60405190151581526020016103bd565b348015610421575f80fd5b5061042a610c57565b6040516103bd91906151a7565b348015610442575f80fd5b506103a96104513660046151b9565b610cf8565b348015610461575f80fd5b506103e56104703660046151f4565b610d0c565b348015610480575f80fd5b505f80516020615bbf833981519152545b6040519081526020016103bd565b3480156104aa575f80fd5b50610491620186a081565b3480156104c0575f80fd5b50600b546103a9906001600160a01b031681565b3480156104df575f80fd5b506103e56104ee36600461521e565b610d1b565b3480156104fe575f80fd5b5061049161050d3660046151b9565b610da4565b34801561051d575f80fd5b5061049160035481565b348015610532575f80fd5b506103e561054136600461525c565b610dc4565b348015610551575f80fd5b506104916105603660046151f4565b610de0565b348015610570575f80fd5b5061049160095481565b348015610585575f80fd5b506103e561059436600461525c565b610e43565b3480156105a4575f80fd5b506103e56105b33660046151b9565b610e7b565b3480156105c3575f80fd5b506103e56105d23660046151f4565b610fcd565b3480156105e2575f80fd5b506103e56105f136600461521e565b6113ff565b610609610604366004615129565b611419565b604080518251815260209283015192810192909252016103bd565b34801561062f575f80fd5b506007546103a9906001600160a01b031681565b34801561064e575f80fd5b5061049160085481565b348015610663575f80fd5b506104916106723660046151b9565b611b92565b348015610682575f80fd5b506103e561069136600461535c565b611bff565b3480156106a1575f80fd5b506103a96106b03660046151b9565b611c15565b3480156106c0575f80fd5b506103e56106cf3660046151b9565b611c1f565b3480156106df575f80fd5b506005546103a9906001600160a01b031681565b3480156106fe575f80fd5b5061042a611d35565b348015610712575f80fd5b5061049161072136600461538e565b611dc1565b348015610731575f80fd5b506103e561074036600461538e565b611e19565b348015610750575f80fd5b50600d546103a9906001600160a01b031681565b34801561076f575f80fd5b5061049160015481565b348015610784575f80fd5b506104915f80516020615b9f83398151915281565b3480156107a4575f80fd5b506104066107b336600461525c565b611ec3565b3480156107c3575f80fd5b5061049160025481565b3480156107d8575f80fd5b5061042a611ef9565b3480156107ec575f80fd5b506108296107fb3660046151b9565b5f60208190529081526040902080546001820154600283015460038401546004909401549293919290919085565b604080519586526020860194909452928401919091526060830152608082015260a0016103bd565b34801561085c575f80fd5b506103a961086b3660046151b9565b60106020525f90815260409020546001600160a01b031681565b348015610890575f80fd5b506104915f81565b3480156108a3575f80fd5b506103e56108b23660046153b6565b611f37565b3480156108c2575f80fd5b50610491670de0b6b3a764000081565b3480156108dd575f80fd5b506103e56108ec366004615129565b611f42565b3480156108fc575f80fd5b506103e561090b3660046153e2565b6120ee565b34801561091b575f80fd5b5061049161092a3660046151b9565b612106565b34801561093a575f80fd5b506103e5610949366004615129565b612170565b348015610959575f80fd5b506103a96109683660046151b9565b600f6020525f90815260409020546001600160a01b031681565b34801561098d575f80fd5b50600a546103a9906001600160a01b031681565b3480156109ac575f80fd5b5061042a6109bb3660046151b9565b6122ed565b3480156109cb575f80fd5b506103e56109da366004615129565b612429565b3480156109ea575f80fd5b506103e56109f936600461545d565b6125a1565b348015610a09575f80fd5b506104917f9f2df0fed2c77648de5860a4cc508cd0818c85b8b8a1ab4ceeef8d981c8956a681565b348015610a3c575f80fd5b506103e5610a4b36600461525c565b613266565b348015610a5b575f80fd5b5061049160045481565b348015610a70575f80fd5b506103e5610a7f3660046154af565b613282565b348015610a8f575f80fd5b50600e546103a9906001600160a01b031681565b348015610aae575f80fd5b50610406610abd366004615585565b61359f565b348015610acd575f80fd5b50600c546103a9906001600160a01b031681565b6103e5610aef3660046151b9565b6135eb565b348015610aff575f80fd5b50610491610b0e3660046155bf565b613723565b33610b1d83611c15565b6001600160a01b031614610b4c5760405162461bcd60e51b8152600401610b439061561c565b60405180910390fd5b612af8811015610b9e5760405162461bcd60e51b815260206004820152601e60248201527f526174696f206d757374206265206174206c65617374203131302e30302500006044820152606401610b43565b620186a0811115610bf15760405162461bcd60e51b815260206004820152601c60248201527f526174696f2063616e6e6f742065786365656420313030302e303025000000006044820152606401610b43565b5f8281526020818152604091829020805484825583518181529283018590529092909185917f3e82d134b4a0328de7223eb1ae194d98009405cb6b8dc9c3d6bd70eb3aeb5c94910160405180910390a250505050565b5f610c5182613da3565b92915050565b5f80516020615b7f8339815191528054606091908190610c7690615645565b80601f0160208091040260200160405190810160405280929190818152602001828054610ca290615645565b8015610ced5780601f10610cc457610100808354040283529160200191610ced565b820191905f5260205f20905b815481529060010190602001808311610cd057829003601f168201915b505050505091505090565b5f610d0282613dc7565b50610c5182613dfe565b610d17828233613e37565b5050565b6001600160a01b038216610d4457604051633250574960e11b81525f6004820152602401610b43565b5f610d50838333613e44565b9050836001600160a01b0316816001600160a01b031614610d9e576040516364283d7b60e01b81526001600160a01b0380861660048301526024820184905282166044820152606401610b43565b50505050565b5f9081525f80516020615bdf833981519152602052604090206001015490565b610dcd82610da4565b610dd681613e58565b610d9e8383613e65565b5f5f80516020615b5f833981519152610df884611dc1565b8310610e1b57838360405163295f44f760e21b8152600401610b4392919061567d565b6001600160a01b0384165f908152602091825260408082208583529092522054905092915050565b6001600160a01b0381163314610e6c5760405163334bd91960e11b815260040160405180910390fd5b610e768282613f06565b505050565b5f80516020615b9f833981519152610e9281613e58565b8115610d1757600c546040805163efa7fa5d60e01b815290515f926001600160a01b03169163efa7fa5d9160048083019260209291908290030181865afa158015610edf573d5f803e3d5ffd5b505050506040513d601f19601f82011682018060405250810190610f039190615696565b90505f8111610f635760405162461bcd60e51b815260206004820152602660248201527f5969656c6420666163746f72207a65726f20647572696e67207265706f72742060448201526572656d6f766560d01b6064820152608401610b43565b6006546001600160a01b031663f6ff3ee8610f7d856156c1565b6040518263ffffffff1660e01b8152600401610f9b91815260200190565b5f604051808303815f87803b158015610fb2575f80fd5b505af1158015610fc4573d5f803e3d5ffd5b50505050505050565b7f9f2df0fed2c77648de5860a4cc508cd0818c85b8b8a1ab4ceeef8d981c8956a6610ff781613e58565b6040805160a081018252612af881525f60208083018281528385018381526060850184815260808601858152898652938590529590932093518455516001840155905160028301559151600382015590516004909101556110588383613f7f565b6040516001600160a01b0384169083907f6474509949d7dca0e17a8cf02aeb66814967a3c7adbfefc212edb6e6693b6865905f90a3600d546001600160a01b03166110e55760405162461bcd60e51b815260206004820152601d60248201527f53746162696c697a6572457363726f7720696d706c206e6f74207365740000006044820152606401610b43565b600e546001600160a01b031661113d5760405162461bcd60e51b815260206004820152601b60248201527f506f736974696f6e457363726f7720696d706c206e6f742073657400000000006044820152606401610b43565b600d545f90611154906001600160a01b0316613f98565b90506001600160a01b0381166111ac5760405162461bcd60e51b815260206004820152601d60248201527f53746162696c697a6572457363726f7720636c6f6e65206661696c65640000006044820152606401610b43565b600a54600b546040516306b0729b60e31b8152306004820152602481018690526001600160a01b03928316604482015290821660648201529082169063358394d8906084015f604051808303815f87803b158015611208575f80fd5b505af115801561121a573d5f803e3d5ffd5b5050505f848152600f6020526040812080546001600160a01b0319166001600160a01b0385811691909117909155600e549192506112589116613f98565b90506001600160a01b0381166112b05760405162461bcd60e51b815260206004820152601b60248201527f506f736974696f6e457363726f7720636c6f6e65206661696c656400000000006044820152606401610b43565b600a54600b54600c54600554604080516307dc0d1d60e41b815290516001600160a01b038781169663cc2a9a5b9630968e9692841695918416949084169390921691637dc0d1d0916004808201926020929091908290030181865afa15801561131b573d5f803e3d5ffd5b505050506040513d601f19601f8201168201806040525081019061133f91906156db565b60405160e088901b6001600160e01b03191681526001600160a01b0396871660048201529486166024860152928516604485015290841660648401528316608483015290911660a482015260c4015f604051808303815f87803b1580156113a4575f80fd5b505af11580156113b6573d5f803e3d5ffd5b5050505f85815260106020526040902080546001600160a01b0319166001600160a01b038416179055506113f75f80516020615b9f83398151915282613e65565b505050505050565b610e7683838360405180602001604052805f8152506120ee565b604080518082019091525f80825260208201526005546001600160a01b0316331461147c5760405162461bcd60e51b815260206004820152601360248201527213db9b1e4818d554d4110818dbdb9d1c9858dd606a1b6044820152606401610b43565b6001545f036114c45760405162461bcd60e51b81526020600482015260146024820152734e6f20756e616c6c6f63617465642066756e647360601b6044820152606401610b43565b5f34116115015760405162461bcd60e51b815260206004820152600b60248201526a139bc8115512081cd95b9d60aa1b6044820152606401610b43565b6001545f8083526020830152345b811580159061151d57505f81115b15611ad857620186a05a10611ad8575f82815260208181526040808320600f909252909120546001600160a01b0316806115995760405162461bcd60e51b815260206004820152601f60248201527f457363726f77206e6f7420666f756e6420666f722073746162696c697a6572006044820152606401610b43565b5f816001600160a01b031663ec60b9ab6040518163ffffffff1660e01b8152600401602060405180830381865afa1580156115d6573d5f803e3d5ffd5b505050506040513d601f19601f820116820180604052508101906115fa9190615696565b9050801580611607575083155b1561161957505060020154915061150f565b5f61271080855f015461162c91906156f6565b6116369087615709565b6116409190615734565b90505f8282116116505781611652565b825b9050858282101561168f57855461166c90612710906156f6565b61167883612710615709565b6116829190615734565b90508681111561168f5750855b5f888152601060205260409020546001600160a01b0316806116ee5760405162461bcd60e51b8152602060048201526018602482015277141bdcda5d1a5bdb915cd8dc9bddc81b9bdd08199bdd5b9960421b6044820152606401610b43565b604051634f68ae7560e01b8152600481018490523060248201526001600160a01b03871690634f68ae75906044015f604051808303815f87803b158015611733575f80fd5b505af1158015611745573d5f803e3d5ffd5b5050600a546040516323b872dd60e01b81526001600160a01b038a811660048301528581166024830152604482018890525f945090911691506323b872dd906064016020604051808303815f875af11580156117a3573d5f803e3d5ffd5b505050506040513d601f19601f820116820180604052508101906117c79190615747565b9050806118315760405162461bcd60e51b815260206004820152603260248201527f53746162696c697a6572207374455448207472616e7366657220746f20506f736044820152711a5d1a5bdb915cd8dc9bddc819985a5b195960721b6064820152608401610b43565b60405163bf3fdde760e01b8152600481018590526001600160a01b0383169063bf3fdde79085906024015f604051808303818588803b158015611872575f80fd5b505af1158015611884573d5f803e3d5ffd5b50505050505f8c600a611897919061583d565b6118a18f86615709565b6118ab9190615734565b90505f600c5f9054906101000a90046001600160a01b03166001600160a01b031663efa7fa5d6040518163ffffffff1660e01b8152600401602060405180830381865afa1580156118fe573d5f803e3d5ffd5b505050506040513d601f19601f820116820180604052508101906119229190615696565b90505f81600c5f9054906101000a90046001600160a01b03166001600160a01b031663a42c69a96040518163ffffffff1660e01b8152600401602060405180830381865afa158015611976573d5f803e3d5ffd5b505050506040513d601f19601f8201168201806040525081019061199a9190615696565b6119a49085615709565b6119ae9190615734565b6040516302ff41ff60e21b8152600481018290529091506001600160a01b03861690630bfd07fc906024015f604051808303815f87803b1580156119f0575f80fd5b505af1158015611a02573d5f803e3d5ffd5b50505050858e5f01818151611a179190615848565b905250611a24868d6156f6565b6040805189815260208101899052919d508e917fc0a79f21f196b4ee5a242474a85cb9aa5fc2ce59ecc884d7271f1c2bd19b9a13910160405180910390a260038b0154158015611a76575060048b0154155b8015611a8457508c60035414155b15611a9257611a928d613fa3565b611a9c8787615848565b8e602001818151611aad9190615848565b90525060028b0154898803611ac557611ac58e614082565b9c5061150f9a5050505050505050505050565b8251611b1b5760405162461bcd60e51b8152602060048201526012602482015271139bc8199d5b991cc8185b1b1bd8d85d195960721b6044820152606401610b43565b602083015115611b8a576006546020840151604051631edfe7dd60e31b81526001600160a01b039092169163f6ff3ee891611b5c9160040190815260200190565b5f604051808303815f87803b158015611b73575f80fd5b505af1158015611b85573d5f803e3d5ffd5b505050505b505092915050565b5f5f80516020615b5f833981519152611bb65f80516020615bbf8339815191525490565b8310611bd9575f8360405163295f44f760e21b8152600401610b4392919061567d565b806002018381548110611bee57611bee61585b565b905f5260205f200154915050919050565b5f611c0981613e58565b6011610e7683826158b3565b5f610c5182613dc7565b5f80516020615b9f833981519152611c3681613e58565b8115610d1757600c546040805163efa7fa5d60e01b815290515f926001600160a01b03169163efa7fa5d9160048083019260209291908290030181865afa158015611c83573d5f803e3d5ffd5b505050506040513d601f19601f82011682018060405250810190611ca79190615696565b90505f8111611d045760405162461bcd60e51b815260206004820152602360248201527f5969656c6420666163746f72207a65726f20647572696e67207265706f72742060448201526218591960ea1b6064820152608401610b43565b600654604051631edfe7dd60e31b8152600481018590526001600160a01b039091169063f6ff3ee890602401610f9b565b60118054611d4290615645565b80601f0160208091040260200160405190810160405280929190818152602001828054611d6e90615645565b8015611db95780601f10611d9057610100808354040283529160200191611db9565b820191905f5260205f20905b815481529060010190602001808311611d9c57829003601f168201915b505050505081565b5f5f80516020615b7f8339815191526001600160a01b038316611df9576040516322718ad960e21b81525f6004820152602401610b43565b6001600160a01b039092165f908152600390920160205250604090205490565b5f611e2381613e58565b6001600160a01b038216611e795760405162461bcd60e51b815260206004820181905260248201527f5a65726f206164647265737320666f7220496e737572616e6365457363726f776044820152606401610b43565b600780546001600160a01b0319166001600160a01b0384169081179091556040517fc742eb858a96cf01aa10a0d4654fbd16ec649171aa4f54b3efedcc59b4ec6eb7905f90a25050565b5f9182525f80516020615bdf833981519152602090815260408084206001600160a01b0393909316845291905290205460ff1690565b7f80bb2b638cc20bc4d0a60d66940f3ab4a00c1d7b313497ca82fb0b4ab007930180546060915f80516020615b7f83398151915291610c7690615645565b610d17338383614142565b33611f4c83611c15565b6001600160a01b031614611f725760405162461bcd60e51b8152600401610b439061561c565b5f8111611fbb5760405162461bcd60e51b8152602060048201526017602482015276416d6f756e74206d75737420626520706f73697469766560481b6044820152606401610b43565b5f828152600f60205260409020546001600160a01b031680611fef5760405162461bcd60e51b8152600401610b439061596e565b604051622a405560ea1b8152600481018390526001600160a01b0382169063a9015400906024015f604051808303815f87803b15801561202d575f80fd5b505af115801561203f573d5f803e3d5ffd5b50505050806001600160a01b031663ec60b9ab6040518163ffffffff1660e01b8152600401602060405180830381865afa15801561207f573d5f803e3d5ffd5b505050506040513d601f19601f820116820180604052508101906120a39190615696565b5f036120b2576120b283614082565b604051828152339084907f19c1c869dd7473a5f044067f579bac3244509e5680cb0c044bc60f0a8165f5699060200160405180910390a3505050565b6120f9848484610d1b565b610d9e33858585856141f1565b5f8061211183611c15565b6001600160a01b03160361215e5760405162461bcd60e51b8152602060048201526014602482015273151bdad95b88191bd95cc81b9bdd08195e1a5cdd60621b6044820152606401610b43565b505f9081526020819052604090205490565b3361217a83611c15565b6001600160a01b0316146121a05760405162461bcd60e51b8152600401610b439061561c565b5f81116121e95760405162461bcd60e51b8152602060048201526017602482015276416d6f756e74206d75737420626520706f73697469766560481b6044820152606401610b43565b5f828152600f60205260409020546001600160a01b03168061221d5760405162461bcd60e51b8152600401610b439061596e565b600a546040516323b872dd60e01b81523360048201526001600160a01b03838116602483015260448201859052909116906323b872dd906064016020604051808303815f875af1158015612273573d5f803e3d5ffd5b505050506040513d601f19601f820116820180604052508101906122979190615747565b506122a183614317565b600a5460405184917f055b14c7efbc07d692265b907b52ec309741a29408ffad1d871aa6b371ac7729916122e0916001600160a01b031690869061567d565b60405180910390a2505050565b60605f6122f983611c15565b6001600160a01b03160361234f5760405162461bcd60e51b815260206004820152601860248201527f4552433732313a20696e76616c696420746f6b656e20494400000000000000006044820152606401610b43565b5f6011805461235d90615645565b80601f016020809104026020016040519081016040528092919081815260200182805461238990615645565b80156123d45780601f106123ab576101008083540402835291602001916123d4565b820191905f5260205f20905b8154815290600101906020018083116123b757829003601f168201915b505050505090505f8151116123f75760405180602001604052805f815250612422565b8061240184614450565b6040516020016124129291906159af565b6040516020818303038152906040525b9392505050565b5f61243381613e58565b60648310156124845760405162461bcd60e51b815260206004820152601d60248201527f5061796f75742070657263656e74206d757374206265203e3d203130300000006044820152606401610b43565b606482118015612494575060c882105b6124f25760405162461bcd60e51b815260206004820152602960248201527f5468726573686f6c642070657263656e74206d757374206265203e20313030206044820152680616e64203c203230360bc1b6064820152608401610b43565b818311156125595760405162461bcd60e51b815260206004820152602e60248201527f5061796f75742070657263656e742063616e6e6f74206578636565642074687260448201526d195cda1bdb19081c195c98d95b9d60921b6064820152608401610b43565b6008839055600982905560408051848152602081018490527fa77b8395e46a8c29538416a1e6724672bc0fd11ce31270e10c9423e58752393b910160405180910390a1505050565b6007546001600160a01b03166125f95760405162461bcd60e51b815260206004820152601760248201527f496e737572616e6365457363726f77206e6f74207365740000000000000000006044820152606401610b43565b5f82116126485760405162461bcd60e51b815260206004820152601c60248201527f4e6f2063555350442073686172657320746f206c6971756964617465000000006044820152606401610b43565b5f61265284611c15565b6001600160a01b03160361269f5760405162461bcd60e51b8152602060048201526014602482015273151bdad95b88191bd95cc81b9bdd08195e1a5cdd60621b6044820152606401610b43565b5f838152601060205260409020546001600160a01b03168061270e5760405162461bcd60e51b815260206004820152602260248201527f506f736974696f6e457363726f77206e6f7420666f756e6420666f7220746f6b60448201526132b760f11b6064820152608401610b43565b600554604080516307dc0d1d60e41b815290515f926001600160a01b031691637dc0d1d09160048083019260209291908290030181865afa158015612755573d5f803e3d5ffd5b505050506040513d601f19601f8201168201806040525081019061277991906156db565b90506001600160a01b0381166127d15760405162461bcd60e51b815260206004820152601c60248201527f4f7261636c65206e6f742073657420696e206355535044546f6b656e000000006044820152606401610b43565b6040516365ab8c7160e01b81525f906001600160a01b038316906365ab8c71906127ff9087906004016159eb565b6060604051808303815f875af115801561281b573d5f803e3d5ffd5b505050506040513d601f19601f8201168201806040525081019061283f9190615a84565b80519091506128875760405162461bcd60e51b8152602060048201526014602482015273496e76616c6964206f7261636c6520707269636560601b6044820152606401610b43565b5f839050806001600160a01b031663d39aa95a6040518163ffffffff1660e01b8152600401602060405180830381865afa1580156128c7573d5f803e3d5ffd5b505050506040513d601f19601f820116820180604052508101906128eb9190615696565b86111561293a5760405162461bcd60e51b815260206004820152601d60248201527f4e6f7420656e6f7567682073686172657320696e20706f736974696f6e0000006044820152606401610b43565b6009546040805163dc607d6f60e01b815284516004820152602085015160ff1660248201529084015160448201526001600160a01b0383169063dc607d6f90606401602060405180830381865afa158015612997573d5f803e3d5ffd5b505050506040513d601f19601f820116820180604052508101906129bb9190615696565b10612a195760405162461bcd60e51b815260206004820152602860248201527f506f736974696f6e206e6f742062656c6f77206c69717569646174696f6e20746044820152671a1c995cda1bdb1960c21b6064820152608401610b43565b6005546040516323b872dd60e01b8152336004820152306024820152604481018890526001600160a01b03909116906323b872dd906064016020604051808303815f875af1158015612a6d573d5f803e3d5ffd5b505050506040513d601f19601f82011682018060405250810190612a919190615747565b506001600160a01b038116630bfd07fc612aaa886156c1565b6040518263ffffffff1660e01b8152600401612ac891815260200190565b5f604051808303815f87803b158015612adf575f80fd5b505af1158015612af1573d5f803e3d5ffd5b505050505f816001600160a01b031663ee5f44076040518163ffffffff1660e01b8152600401602060405180830381865afa158015612b32573d5f803e3d5ffd5b505050506040513d601f19601f82011682018060405250810190612b569190615696565b90508015612bba57604051636a0eee4b60e11b8152600481018290523060248201526001600160a01b0383169063d41ddc96906044015f604051808303815f87803b158015612ba3575f80fd5b505af1158015612bb5573d5f803e3d5ffd5b505050505b600c546040805163efa7fa5d60e01b815290515f926001600160a01b03169163efa7fa5d9160048083019260209291908290030181865afa158015612c01573d5f803e3d5ffd5b505050506040513d601f19601f82011682018060405250810190612c259190615696565b11612c695760405162461bcd60e51b815260206004820152601460248201527324b73b30b634b2103cb4b2b632103330b1ba37b960611b6044820152606401610b43565b825160208401515f9190612c819060ff16600a61583d565b600c546040805163efa7fa5d60e01b81529051670de0b6b3a7640000926001600160a01b03169163efa7fa5d9160048083019260209291908290030181865afa158015612cd0573d5f803e3d5ffd5b505050506040513d601f19601f82011682018060405250810190612cf49190615696565b612cfe908c615709565b612d089190615734565b612d129190615709565b612d1c9190615734565b90505f606460085483612d2f9190615709565b612d399190615734565b90505f818410612eae57600a5460405163a9059cbb60e01b81526001600160a01b039091169063a9059cbb90612d75903390869060040161567d565b6020604051808303815f875af1158015612d91573d5f803e3d5ffd5b505050506040513d601f19601f82011682018060405250810190612db59190615747565b5081905081841115612ea957600a546007546001600160a01b039182169163095ea7b39116612de485886156f6565b6040518363ffffffff1660e01b8152600401612e0192919061567d565b6020604051808303815f875af1158015612e1d573d5f803e3d5ffd5b505050506040513d601f19601f82011682018060405250810190612e419190615747565b506007546001600160a01b031663de5d64f1612e5d84876156f6565b6040518263ffffffff1660e01b8152600401612e7b91815260200190565b5f604051808303815f87803b158015612e92575f80fd5b505af1158015612ea4573d5f803e3d5ffd5b505050505b61309c565b600a5460405163a9059cbb60e01b81526001600160a01b039091169063a9059cbb90612ee0903390889060040161567d565b6020604051808303815f875af1158015612efc573d5f803e3d5ffd5b505050506040513d601f19601f82011682018060405250810190612f209190615747565b508390505f612f2f82846156f6565b9050801561309a5760075460408051635b73e7c160e01b815290515f926001600160a01b031691635b73e7c19160048083019260209291908290030181865afa158015612f7e573d5f803e3d5ffd5b505050506040513d601f19601f82011682018060405250810190612fa29190615696565b8211612fae5781613022565b60075f9054906101000a90046001600160a01b03166001600160a01b0316635b73e7c16040518163ffffffff1660e01b8152600401602060405180830381865afa158015612ffe573d5f803e3d5ffd5b505050506040513d601f19601f820116820180604052508101906130229190615696565b905080156130985760075460405163df6e697360e01b81526001600160a01b039091169063df6e69739061305c903390859060040161567d565b5f604051808303815f87803b158015613073575f80fd5b505af1158015613085573d5f803e3d5ffd5b5050505080836130959190615848565b92505b505b505b6006546001600160a01b031663f6ff3ee86130b6866156c1565b6040518263ffffffff1660e01b81526004016130d491815260200190565b5f604051808303815f87803b1580156130eb575f80fd5b505af11580156130fd573d5f803e3d5ffd5b50505050846001600160a01b031663d39aa95a6040518163ffffffff1660e01b8152600401602060405180830381865afa15801561313d573d5f803e3d5ffd5b505050506040513d601f19601f820116820180604052508101906131619190615696565b5f03613213576131708b61454d565b5f8b8152600f60205260409020546001600160a01b03161580159061320557505f8b8152600f6020908152604080832054815163ec60b9ab60e01b815291516001600160a01b039091169263ec60b9ab92600480820193918290030181865afa1580156131df573d5f803e3d5ffd5b505050506040513d601f19601f820116820180604052508101906132039190615696565b115b15613213576132138b614317565b8551604080518c815260208101849052808201929092525133918d917f5564304997c5a4b15399de434a73fbc4339eae8f1b5b2875d0feac2826ce33d29181900360600190a35050505050505050505050565b61326f82610da4565b61327881613e58565b610d9e8383613f06565b5f61328b61460d565b805490915060ff600160401b820416159067ffffffffffffffff165f811580156132b25750825b90505f8267ffffffffffffffff1660011480156132ce5750303b155b9050811580156132dc575080155b156132fa5760405163f92ee8a960e01b815260040160405180910390fd5b845467ffffffffffffffff19166001178555831561332457845460ff60401b1916600160401b1785555b6133726040518060400160405280600f81526020016e2aa9a8221029ba30b134b634bd32b960891b81525060405180604001604052806005815260200164555350445360d81b815250614635565b61337a614647565b613382614647565b61338c5f87613e65565b508e60055f6101000a8154816001600160a01b0302191690836001600160a01b031602179055508d600a5f6101000a8154816001600160a01b0302191690836001600160a01b031602179055508c600b5f6101000a8154816001600160a01b0302191690836001600160a01b031602179055508b600c5f6101000a8154816001600160a01b0302191690836001600160a01b031602179055508a60065f6101000a8154816001600160a01b0302191690836001600160a01b031602179055505f6001600160a01b03168a6001600160a01b0316036134bb5760405162461bcd60e51b815260206004820152602660248201527f496e737572616e6365457363726f7720616464726573732063616e6e6f74206260448201526565207a65726f60d01b6064820152608401610b43565b600780546001600160a01b0319166001600160a01b038c169081179091556040517fc742eb858a96cf01aa10a0d4654fbd16ec649171aa4f54b3efedcc59b4ec6eb7905f90a2601161350d8a826158b3565b50600d80546001600160a01b03808b166001600160a01b031992831617909255600e8054928a16929091169190911790556069600855606e600955831561358e57845460ff60401b19168555604051600181527fc7f505b2f371ae2175ee4913f4499e1f2633a7b5936321eed1cdaeb6115181d29060200160405180910390a15b505050505050505050505050505050565b6001600160a01b039182165f9081527f80bb2b638cc20bc4d0a60d66940f3ab4a00c1d7b313497ca82fb0b4ab00793056020908152604080832093909416825291909152205460ff1690565b336135f582611c15565b6001600160a01b03161461361b5760405162461bcd60e51b8152600401610b439061561c565b5f34116136585760405162461bcd60e51b815260206004820152600b60248201526a139bc8115512081cd95b9d60aa1b6044820152606401610b43565b5f818152600f60205260409020546001600160a01b03168061368c5760405162461bcd60e51b8152600401610b439061596e565b806001600160a01b031663d0e30db0346040518263ffffffff1660e01b81526004015f604051808303818588803b1580156136c5575f80fd5b505af11580156136d7573d5f803e3d5ffd5b50505050506136e582614317565b817f055b14c7efbc07d692265b907b52ec309741a29408ffad1d871aa6b371ac77295f3460405161371792919061567d565b60405180910390a25050565b6005545f906001600160a01b031633146137755760405162461bcd60e51b815260206004820152601360248201527213db9b1e4818d554d4110818dbdb9d1c9858dd606a1b6044820152606401610b43565b6004545f036137bb5760405162461bcd60e51b81526020600482015260126024820152714e6f20616c6c6f63617465642066756e647360701b6044820152606401610b43565b600454835f805b83158015906137d057505f83115b15613ce757620186a05a10613ce7575f848152602081815260408083206010909252909120546001600160a01b0316806138475760405162461bcd60e51b8152602060048201526018602482015277141bdcda5d1a5bdb915cd8dc9bddc81b9bdd08199bdd5b9960421b6044820152606401610b43565b5f8190505f816001600160a01b031663d39aa95a6040518163ffffffff1660e01b8152600401602060405180830381865afa158015613888573d5f803e3d5ffd5b505050506040513d601f19601f820116820180604052508101906138ac9190615696565b90508015613cd9575f8188116138c257876138c4565b815b90508015613cd7575f806138d985848f614651565b91509150846001600160a01b0316630bfd07fc846138f6906156c1565b6040518263ffffffff1660e01b815260040161391491815260200190565b5f604051808303815f87803b15801561392b575f80fd5b505af115801561393d573d5f803e3d5ffd5b505050505f8211156139a557604051636a0eee4b60e11b8152600481018390523060248201526001600160a01b0386169063d41ddc96906044015f604051808303815f87803b15801561398e575f80fd5b505af11580156139a0573d5f803e3d5ffd5b505050505b5f6139b082846156f6565b90508115613a9f57600a5460055460405163a9059cbb60e01b81525f926001600160a01b039081169263a9059cbb926139f19290911690879060040161567d565b6020604051808303815f875af1158015613a0d573d5f803e3d5ffd5b505050506040513d601f19601f82011682018060405250810190613a319190615747565b905080613a915760405162461bcd60e51b815260206004820152602860248201527f55736572207374455448207472616e7366657220746f206355535044546f6b656044820152671b8819985a5b195960c21b6064820152608401610b43565b613a9b838c615848565b9a50505b8015613bea575f8c8152600f60205260409020546001600160a01b031680613b095760405162461bcd60e51b815260206004820152601a60248201527f53746162696c697a6572457363726f77206e6f7420666f756e640000000000006044820152606401610b43565b600a5460405163a9059cbb60e01b81525f916001600160a01b03169063a9059cbb90613b3b908590879060040161567d565b6020604051808303815f875af1158015613b57573d5f803e3d5ffd5b505050506040513d601f19601f82011682018060405250810190613b7b9190615747565b905080613be75760405162461bcd60e51b815260206004820152603460248201527f53746162696c697a6572207374455448207472616e7366657220746f20537461604482015273189a5b1a5e995c915cd8dc9bddc819985a5b195960621b6064820152608401610b43565b50505b613bf4838a615848565b98508484148015613c8a57613c088d61454d565b5f8d8152600f6020908152604080832054815163ec60b9ab60e01b815291516001600160a01b039091169263ec60b9ab92600480820193918290030181865afa158015613c57573d5f803e3d5ffd5b505050506040513d601f19601f82011682018060405250810190613c7b9190615696565b1115613c8a57613c8a8d614317565b613c94858d6156f6565b6040805185815260208101859052919d508e917f7bd51af63c72ca163b2d37a37219fbdda7a4c3803f69ed76e3948078619a32f9910160405180910390a2505050505b505b5050506003015493506137c2565b5f8211613d2d5760405162461bcd60e51b8152602060048201526014602482015273139bc8199d5b991cc81d5b985b1b1bd8d85d195960621b6044820152606401610b43565b8015613d99576006546001600160a01b031663f6ff3ee8613d4d836156c1565b6040518263ffffffff1660e01b8152600401613d6b91815260200190565b5f604051808303815f87803b158015613d82575f80fd5b505af1158015613d94573d5f803e3d5ffd5b505050505b5095945050505050565b5f6001600160e01b03198216637965db0b60e01b1480610c515750610c5182614957565b5f80613dd28361497b565b90506001600160a01b038116610c5157604051637e27328960e01b815260048101849052602401610b43565b5f9081527f80bb2b638cc20bc4d0a60d66940f3ab4a00c1d7b313497ca82fb0b4ab007930460205260409020546001600160a01b031690565b610e7683838360016149b4565b5f613e50848484614ac7565b949350505050565b613e628133614bbd565b50565b5f5f80516020615bdf833981519152613e7e8484611ec3565b613efd575f848152602082815260408083206001600160a01b03871684529091529020805460ff19166001179055613eb33390565b6001600160a01b0316836001600160a01b0316857f2f8788117e7eff1d82e926ec794901d17c78024a50270940304540a733656f0d60405160405180910390a46001915050610c51565b5f915050610c51565b5f5f80516020615bdf833981519152613f1f8484611ec3565b15613efd575f848152602082815260408083206001600160a01b0387168085529252808320805460ff1916905551339287917ff6391f5c32d9c69d2a47ea670b442974b53935d1edc7fd64eb21e047a839171b9190a46001915050610c51565b610d17828260405180602001604052805f815250614be8565b5f610c51825f614bff565b6003541580613fb25750600454155b15613fc1576003819055600455565b600454811115613fef57600480545f8381526020819052604080822060030183905591815220810182905555565b60035481101561401d57600380545f8381526020819052604080822060040183905591815220810182905555565b6003545b801580159061402f57508181105b1561404a575f90815260208190526040902060040154614021565b5f8181526020819052604080822060039081018054868552838520928301819055600492830186905584529183200184905591905255565b5f818152602081905260409020600154821480156140a1575060025482145b156140b4575f6001819055600255614131565b60015482036140db57600281015460018181555f9182526020829052604082200155614131565b600254820361410257600181015460028181555f9182526020829052604082200155614131565b600180820154600280840180545f90815260208190526040808220909501849055905492815292909220909101555b5f6002820181905560019091015550565b5f80516020615b7f8339815191526001600160a01b03831661418257604051630b61174360e31b81526001600160a01b0384166004820152602401610b43565b6001600160a01b038481165f818152600584016020908152604080832094881680845294825291829020805460ff191687151590811790915591519182527f17307eab39ab6107e8899845ad3d59bd9653f200f220920489ca2b5937696c31910160405180910390a350505050565b6001600160a01b0383163b1561431057604051630a85bd0160e11b81526001600160a01b0384169063150b7a0290614233908890889087908790600401615ac8565b6020604051808303815f875af192505050801561426d575060408051601f3d908101601f1916820190925261426a91810190615b04565b60015b6142d4573d80801561429a576040519150601f19603f3d011682016040523d82523d5f602084013e61429f565b606091505b5080515f036142cc57604051633250574960e11b81526001600160a01b0385166004820152602401610b43565b805181602001fd5b6001600160e01b03198116630a85bd0160e11b146113f757604051633250574960e11b81526001600160a01b0385166004820152602401610b43565b5050505050565b5f818152602081905260409020600181015415801561433857506002810154155b801561434657508160015414155b15610d17576001545f0361435f57506001819055600255565b60025482111561438c57600280546001929092018290555f91825260208290526040909120810182905555565b6001548210156143b957600180546002929092018290555f91825260208290526040909120810182905555565b6001545b5f81815260208190526040902060020154158015906143eb57505f8181526020819052604090206002015483115b15614406575f908152602081905260409020600201546143bd565b5f81815260208190526040902060029081018054600185018490559184018290558490558015614448575f818152602081905260409020600101849055610d9e565b505050600255565b6060815f036144765750506040805180820190915260018152600360fc1b602082015290565b815f5b811561449f578061448981615b1f565b91506144989050600a83615734565b9150614479565b5f8167ffffffffffffffff8111156144b9576144b961528a565b6040519080825280601f01601f1916602001820160405280156144e3576020820181803683370190505b5090505b8415613e50576144f86001836156f6565b9150614505600a86615b37565b614510906030615848565b60f81b8183815181106145255761452561585b565b60200101906001600160f81b03191690815f1a905350614546600a86615734565b94506144e7565b5f8181526020819052604090206003548214801561456c575060045482145b1561457f575f60038190556004556145fc565b60035482036145a657600481015460038181555f91825260208290526040822001556145fc565b60045482036145cd57600381015460048181555f91825260208290526040822001556145fc565b600380820154600480840180545f90815260208190526040808220909501849055905492815292909220909101555b5f6004820181905560039091015550565b5f807ff0c57e16840df040f15088dc2f81fe391c3923bec73e23a9662efc9c229c6a00610c51565b61463d614c93565b610d178282614cb8565b61464f614c93565b565b5f80846001600160a01b031663d39aa95a6040518163ffffffff1660e01b8152600401602060405180830381865afa15801561468f573d5f803e3d5ffd5b505050506040513d601f19601f820116820180604052508101906146b39190615696565b5f036146c357505f90508061494f565b600c546040805163efa7fa5d60e01b815290515f926001600160a01b03169163efa7fa5d9160048083019260209291908290030181865afa15801561470a573d5f803e3d5ffd5b505050506040513d601f19601f8201168201806040525081019061472e9190615696565b90505f600c5f9054906101000a90046001600160a01b03166001600160a01b031663a42c69a96040518163ffffffff1660e01b8152600401602060405180830381865afa158015614781573d5f803e3d5ffd5b505050506040513d601f19601f820116820180604052508101906147a59190615696565b6147af8388615709565b6147b99190615734565b855190915061480a5760405162461bcd60e51b815260206004820152601b60248201527f4f7261636c652070726963652063616e6e6f74206265207a65726f00000000006044820152606401610b43565b8451602086015161481f9060ff16600a61583d565b6148299083615709565b6148339190615734565b6040805163dc607d6f60e01b815287516004820152602088015160ff1660248201529087015160448201529093505f906001600160a01b0389169063dc607d6f90606401602060405180830381865afa158015614892573d5f803e3d5ffd5b505050506040513d601f19601f820116820180604052508101906148b69190615696565b90506127108110156149265760405162461bcd60e51b815260206004820152603360248201527f43616e6e6f7420756e616c6c6f636174652066726f6d20756e646572636f6c6c60448201527230ba32b930b634bd32b2103837b9b4ba34b7b760691b6064820152608401610b43565b6127106149338286615709565b61493d9190615734565b94508484111561494b578493505b5050505b935093915050565b5f6001600160e01b0319821663780e9d6360e01b1480610c515750610c5182614ce8565b5f9081527f80bb2b638cc20bc4d0a60d66940f3ab4a00c1d7b313497ca82fb0b4ab007930260205260409020546001600160a01b031690565b5f80516020615b7f83398151915281806149d657506001600160a01b03831615155b15614a97575f6149e585613dc7565b90506001600160a01b03841615801590614a115750836001600160a01b0316816001600160a01b031614155b8015614a245750614a22818561359f565b155b15614a4d5760405163a9fbf51f60e01b81526001600160a01b0385166004820152602401610b43565b8215614a955784866001600160a01b0316826001600160a01b03167f8c5be1e5ebec7d5bd14f71427d1e84f3dd0314c0f7b2291e5b200ac8c7c3b92560405160405180910390a45b505b5f93845260040160205250506040902080546001600160a01b0319166001600160a01b0392909216919091179055565b5f80614ad4858585614d37565b90506001600160a01b038116614b5b57614b56845f80516020615bbf83398151915280545f8381527f645e039705490088daad89bae25049a34f4a9072d398537b1ab2425f24cbed0360205260408120829055600182018355919091527fa42f15e5d656f8155fd7419d740a6073999f19cd6e061449ce4a257150545bf20155565b614b7e565b846001600160a01b0316816001600160a01b031614614b7e57614b7e8185614e39565b6001600160a01b038516614b9a57614b9584614ed0565b613e50565b846001600160a01b0316816001600160a01b031614613e5057613e508585614f9d565b614bc78282611ec3565b610d1757808260405163e2517d3f60e01b8152600401610b4392919061567d565b614bf28383614ff5565b610e76335f8585856141f1565b5f81471015614c2a5760405163cf47918160e01b815247600482015260248101839052604401610b43565b763d602d80600a3d3981f3363d3d373d3d3d363d730000008360601b60e81c175f526e5af43d82803e903d91602b57fd5bf38360781b176020526037600983f090506001600160a01b038116610c515760405163b06ebf3d60e01b815260040160405180910390fd5b614c9b615056565b61464f57604051631afcd79f60e31b815260040160405180910390fd5b614cc0614c93565b5f80516020615b7f83398151915280614cd984826158b3565b5060018101610d9e83826158b3565b5f6001600160e01b031982166380ac58cd60e01b1480614d1857506001600160e01b03198216635b5e139f60e01b145b80610c5157506301ffc9a760e01b6001600160e01b0319831614610c51565b5f5f80516020615b7f83398151915281614d508561497b565b90506001600160a01b03841615614d6c57614d6c81858761506f565b6001600160a01b03811615614da857614d875f865f806149b4565b6001600160a01b0381165f908152600383016020526040902080545f190190555b6001600160a01b03861615614dd8576001600160a01b0386165f9081526003830160205260409020805460010190555b5f85815260028301602052604080822080546001600160a01b0319166001600160a01b038a811691821790925591518893918516917fddf252ad1be2c89b69c2b068fc378daa952ba7f163c4a11628f55a4df523b3ef91a495945050505050565b5f80516020615b5f8339815191525f614e5184611dc1565b5f8481526001840160209081526040808320546001600160a01b03891684529186905290912091925090818314614ea9575f838152602082815260408083205485845281842081905583526001870190915290208290555b5f948552600190930160209081526040808620869055928552929092528220919091555050565b5f80516020615bbf833981519152545f80516020615b5f833981519152905f90614efc906001906156f6565b5f848152600384016020526040812054600285018054939450909284908110614f2757614f2761585b565b905f5260205f200154905080846002018381548110614f4857614f4861585b565b5f91825260208083209091019290925582815260038601909152604080822084905586825281205560028401805480614f8357614f83615b4a565b600190038181905f5260205f20015f905590555050505050565b5f80516020615b5f8339815191525f6001614fb785611dc1565b614fc191906156f6565b6001600160a01b039094165f9081526020838152604080832087845282528083208690559482526001909301909252502055565b6001600160a01b03821661501e57604051633250574960e11b81525f6004820152602401610b43565b5f61502a83835f613e44565b90506001600160a01b03811615610e76576040516339e3563760e11b81525f6004820152602401610b43565b5f61505f61460d565b54600160401b900460ff16919050565b61507a8383836150c5565b610e76576001600160a01b0383166150a857604051637e27328960e01b815260048101829052602401610b43565b818160405163177e802f60e01b8152600401610b4392919061567d565b5f6001600160a01b03831615801590613e505750826001600160a01b0316846001600160a01b031614806150fe57506150fe848461359f565b80613e505750826001600160a01b031661511783613dfe565b6001600160a01b031614949350505050565b5f806040838503121561513a575f80fd5b50508035926020909101359150565b6001600160e01b031981168114613e62575f80fd5b5f6020828403121561516e575f80fd5b813561242281615149565b5f81518084528060208401602086015e5f602082860101526020601f19601f83011685010191505092915050565b602081525f6124226020830184615179565b5f602082840312156151c9575f80fd5b5035919050565b6001600160a01b0381168114613e62575f80fd5b80356151ef816151d0565b919050565b5f8060408385031215615205575f80fd5b8235615210816151d0565b946020939093013593505050565b5f805f60608486031215615230575f80fd5b833561523b816151d0565b9250602084013561524b816151d0565b929592945050506040919091013590565b5f806040838503121561526d575f80fd5b82359150602083013561527f816151d0565b809150509250929050565b634e487b7160e01b5f52604160045260245ffd5b6040516060810167ffffffffffffffff811182821017156152c1576152c161528a565b60405290565b5f8067ffffffffffffffff8411156152e1576152e161528a565b50604051601f19601f85018116603f0116810181811067ffffffffffffffff821117156153105761531061528a565b604052838152905080828401851015615327575f80fd5b838360208301375f60208583010152509392505050565b5f82601f83011261534d575f80fd5b612422838335602085016152c7565b5f6020828403121561536c575f80fd5b813567ffffffffffffffff811115615382575f80fd5b613e508482850161533e565b5f6020828403121561539e575f80fd5b8135612422816151d0565b8015158114613e62575f80fd5b5f80604083850312156153c7575f80fd5b82356153d2816151d0565b9150602083013561527f816153a9565b5f805f80608085870312156153f5575f80fd5b8435615400816151d0565b93506020850135615410816151d0565b925060408501359150606085013567ffffffffffffffff811115615432575f80fd5b8501601f81018713615442575f80fd5b615451878235602084016152c7565b91505092959194509250565b5f805f6060848603121561546f575f80fd5b8335925060208401359150604084013567ffffffffffffffff811115615493575f80fd5b840160a081870312156154a4575f80fd5b809150509250925092565b5f805f805f805f805f806101408b8d0312156154c9575f80fd5b8a356154d4816151d0565b995060208b01356154e4816151d0565b985060408b01356154f4816151d0565b975060608b0135615504816151d0565b965061551260808c016151e4565b955061552060a08c016151e4565b945060c08b013567ffffffffffffffff81111561553b575f80fd5b6155478d828e0161533e565b94505061555660e08c016151e4565b92506155656101008c016151e4565b91506155746101208c016151e4565b90509295989b9194979a5092959850565b5f8060408385031215615596575f80fd5b82356155a1816151d0565b9150602083013561527f816151d0565b60ff81168114613e62575f80fd5b5f8082840360808112156155d1575f80fd5b833592506060601f19820112156155e6575f80fd5b506155ef61529e565b602084013581526040840135615604816155b1565b60208201526060939093013560408401525092909150565b6020808252600f908201526e2737ba103a37b5b2b71037bbb732b960891b604082015260600190565b600181811c9082168061565957607f821691505b60208210810361567757634e487b7160e01b5f52602260045260245ffd5b50919050565b6001600160a01b03929092168252602082015260400190565b5f602082840312156156a6575f80fd5b5051919050565b634e487b7160e01b5f52601160045260245ffd5b5f600160ff1b82016156d5576156d56156ad565b505f0390565b5f602082840312156156eb575f80fd5b8151612422816151d0565b81810381811115610c5157610c516156ad565b8082028115828204841417610c5157610c516156ad565b634e487b7160e01b5f52601260045260245ffd5b5f8261574257615742615720565b500490565b5f60208284031215615757575f80fd5b8151612422816153a9565b6001815b600184111561494f57808504811115615781576157816156ad565b600184161561578f57908102905b60019390931c928002615766565b5f826157ab57506001610c51565b816157b757505f610c51565b81600181146157cd57600281146157d7576157f3565b6001915050610c51565b60ff8411156157e8576157e86156ad565b50506001821b610c51565b5060208310610133831016604e8410600b8410161715615816575081810a610c51565b6158225f198484615762565b805f1904821115615835576158356156ad565b029392505050565b5f612422838361579d565b80820180821115610c5157610c516156ad565b634e487b7160e01b5f52603260045260245ffd5b601f821115610e7657805f5260205f20601f840160051c810160208510156158945750805b601f840160051c820191505b81811015614310575f81556001016158a0565b815167ffffffffffffffff8111156158cd576158cd61528a565b6158e1816158db8454615645565b8461586f565b6020601f821160018114615913575f83156158fc5750848201515b5f19600385901b1c1916600184901b178455614310565b5f84815260208120601f198516915b828110156159425787850151825560209485019460019092019101615922565b508482101561595f57868401515f19600387901b60f8161c191681555b50505050600190811b01905550565b60208082526010908201526f115cd8dc9bddc81b9bdd08199bdd5b9960821b604082015260600190565b5f81518060208401855e5f93019283525090919050565b5f613e506159bd8386615998565b84615998565b81835281816020850137505f828201602090810191909152601f909101601f19169091010190565b60208082528235828201525f90830135615a04816155b1565b60ff1660408381019190915283013560608084019190915283013560808084019190915283013536849003601e19018112615a3d575f80fd5b830160208101903567ffffffffffffffff811115615a59575f80fd5b803603821315615a67575f80fd5b60a080850152615a7b60c0850182846159c3565b95945050505050565b5f6060828403128015615a95575f80fd5b50615a9e61529e565b825181526020830151615ab0816155b1565b60208201526040928301519281019290925250919050565b6001600160a01b03858116825284166020820152604081018390526080606082018190525f90615afa90830184615179565b9695505050505050565b5f60208284031215615b14575f80fd5b815161242281615149565b5f60018201615b3057615b306156ad565b5060010190565b5f82615b4557615b45615720565b500690565b634e487b7160e01b5f52603160045260245ffdfe645e039705490088daad89bae25049a34f4a9072d398537b1ab2425f24cbed0080bb2b638cc20bc4d0a60d66940f3ab4a00c1d7b313497ca82fb0b4ab00793008c21e8ab0c92c4c41f2714adb63619371ca8ed5eb69a6fed79b7d52cdd9703ae645e039705490088daad89bae25049a34f4a9072d398537b1ab2425f24cbed0202dd7bc7dec4dceedda775e58dd541e08a116c6c53815c0bd028192f7b626800a2646970667358221220c0a8160b87eee078ed23e9708c4e3d367af821d16c94f3696f7ef00880dd062864736f6c634300081a0033","linkReferences":{}},"methodIdentifiers":{"DEFAULT_ADMIN_ROLE()":"a217fddf","FACTOR_PRECISION()":"a42c69a9","MINTER_ROLE()":"d5391393","MIN_GAS()":"20d2c951","POSITION_ESCROW_ROLE()":"8d7cac7b","addUnallocatedFundsEth(uint256)":"f399beb7","addUnallocatedFundsStETH(uint256,uint256)":"bb566297","allocateStabilizerFunds(uint256,uint256)":"451fda68","approve(address,uint256)":"095ea7b3","balanceOf(address)":"70a08231","baseURI()":"6c0360eb","cuspdToken()":"6bc05b7e","getApproved(uint256)":"081812fc","getMinCollateralRatio(uint256)":"bb310a80","getRoleAdmin(bytes32)":"248a9ca3","grantRole(bytes32,address)":"2f2ff15d","hasRole(bytes32,address)":"91d14854","highestAllocatedId()":"d743fd1e","highestUnallocatedId()":"92133362","initialize(address,address,address,address,address,address,string,address,address,address)":"d9230389","insuranceEscrow()":"4d87a1f2","isApprovedForAll(address,address)":"e985e9c5","lido()":"23509a2d","liquidatePosition(uint256,uint256,(uint256,uint8,uint256,bytes32,bytes))":"d16bc7de","liquidationLiquidatorPayoutPercent()":"4e027fe9","liquidationThresholdPercent()":"320d2fa0","lowestAllocatedId()":"2995bc50","lowestUnallocatedId()":"853cad06","mint(address,uint256)":"40c10f19","name()":"06fdde03","ownerOf(uint256)":"6352211e","positionEscrowImplementation()":"e96d5787","positionEscrows(uint256)":"a04ad512","positions(uint256)":"99fbab88","rateContract()":"eee24219","removeUnallocatedFunds(uint256,uint256)":"ae88a779","renounceRole(bytes32,address)":"36568abe","reportCollateralAddition(uint256)":"67bff4a8","reportCollateralRemoval(uint256)":"39112058","reporter()":"010ec441","revokeRole(bytes32,address)":"d547741f","safeTransferFrom(address,address,uint256)":"42842e0e","safeTransferFrom(address,address,uint256,bytes)":"b88d4fde","setApprovalForAll(address,bool)":"a22cb465","setBaseURI(string)":"55f804b3","setInsuranceEscrow(address)":"7122bcc3","setLiquidationParameters(uint256,uint256)":"cf4fa51c","setMinCollateralizationRatio(uint256,uint256)":"01aa0b1a","stETH()":"c1fe3e48","stabilizerEscrowImplementation()":"7da31f61","stabilizerEscrows(uint256)":"bba6fd6f","supportsInterface(bytes4)":"01ffc9a7","symbol()":"95d89b41","tokenByIndex(uint256)":"4f6ccce7","tokenOfOwnerByIndex(address,uint256)":"2f745c59","tokenURI(uint256)":"c87b56dd","totalSupply()":"18160ddd","transferFrom(address,address,uint256)":"23b872dd","unallocateStabilizerFunds(uint256,(uint256,uint8,uint256))":"ff70fa64"},"storageLayout":{"storage":[{"astId":53684,"contract":"src/StabilizerNFT.sol:StabilizerNFT","label":"positions","offset":0,"slot":"0","type":"t_mapping(t_uint256,t_struct(StabilizerPosition)53679_storage)"},{"astId":53686,"contract":"src/StabilizerNFT.sol:StabilizerNFT","label":"lowestUnallocatedId","offset":0,"slot":"1","type":"t_uint256"},{"astId":53688,"contract":"src/StabilizerNFT.sol:StabilizerNFT","label":"highestUnallocatedId","offset":0,"slot":"2","type":"t_uint256"},{"astId":53690,"contract":"src/StabilizerNFT.sol:StabilizerNFT","label":"lowestAllocatedId","offset":0,"slot":"3","type":"t_uint256"},{"astId":53692,"contract":"src/StabilizerNFT.sol:StabilizerNFT","label":"highestAllocatedId","offset":0,"slot":"4","type":"t_uint256"},{"astId":53695,"contract":"src/StabilizerNFT.sol:StabilizerNFT","label":"cuspdToken","offset":0,"slot":"5","type":"t_contract(IcUSPDToken)57981"},{"astId":53698,"contract":"src/StabilizerNFT.sol:StabilizerNFT","label":"reporter","offset":0,"slot":"6","type":"t_contract(IOvercollateralizationReporter)57606"},{"astId":53701,"contract":"src/StabilizerNFT.sol:StabilizerNFT","label":"insuranceEscrow","offset":0,"slot":"7","type":"t_contract(IInsuranceEscrow)57486"},{"astId":53703,"contract":"src/StabilizerNFT.sol:StabilizerNFT","label":"liquidationLiquidatorPayoutPercent","offset":0,"slot":"8","type":"t_uint256"},{"astId":53705,"contract":"src/StabilizerNFT.sol:StabilizerNFT","label":"liquidationThresholdPercent","offset":0,"slot":"9","type":"t_uint256"},{"astId":53707,"contract":"src/StabilizerNFT.sol:StabilizerNFT","label":"stETH","offset":0,"slot":"10","type":"t_address"},{"astId":53709,"contract":"src/StabilizerNFT.sol:StabilizerNFT","label":"lido","offset":0,"slot":"11","type":"t_address"},{"astId":53712,"contract":"src/StabilizerNFT.sol:StabilizerNFT","label":"rateContract","offset":0,"slot":"12","type":"t_contract(IPoolSharesConversionRate)57635"},{"astId":53714,"contract":"src/StabilizerNFT.sol:StabilizerNFT","label":"stabilizerEscrowImplementation","offset":0,"slot":"13","type":"t_address"},{"astId":53716,"contract":"src/StabilizerNFT.sol:StabilizerNFT","label":"positionEscrowImplementation","offset":0,"slot":"14","type":"t_address"},{"astId":53720,"contract":"src/StabilizerNFT.sol:StabilizerNFT","label":"stabilizerEscrows","offset":0,"slot":"15","type":"t_mapping(t_uint256,t_address)"},{"astId":53724,"contract":"src/StabilizerNFT.sol:StabilizerNFT","label":"positionEscrows","offset":0,"slot":"16","type":"t_mapping(t_uint256,t_address)"},{"astId":53726,"contract":"src/StabilizerNFT.sol:StabilizerNFT","label":"baseURI","offset":0,"slot":"17","type":"t_string_storage"}],"types":{"t_address":{"encoding":"inplace","label":"address","numberOfBytes":"20"},"t_contract(IInsuranceEscrow)57486":{"encoding":"inplace","label":"contract IInsuranceEscrow","numberOfBytes":"20"},"t_contract(IOvercollateralizationReporter)57606":{"encoding":"inplace","label":"contract IOvercollateralizationReporter","numberOfBytes":"20"},"t_contract(IPoolSharesConversionRate)57635":{"encoding":"inplace","label":"contract IPoolSharesConversionRate","numberOfBytes":"20"},"t_contract(IcUSPDToken)57981":{"encoding":"inplace","label":"contract IcUSPDToken","numberOfBytes":"20"},"t_mapping(t_uint256,t_address)":{"encoding":"mapping","key":"t_uint256","label":"mapping(uint256 => address)","numberOfBytes":"32","value":"t_address"},"t_mapping(t_uint256,t_struct(StabilizerPosition)53679_storage)":{"encoding":"mapping","key":"t_uint256","label":"mapping(uint256 => struct StabilizerNFT.StabilizerPosition)","numberOfBytes":"32","value":"t_struct(StabilizerPosition)53679_storage"},"t_string_storage":{"encoding":"bytes","label":"string","numberOfBytes":"32"},"t_struct(StabilizerPosition)53679_storage":{"encoding":"inplace","label":"struct StabilizerNFT.StabilizerPosition","numberOfBytes":"160","members":[{"astId":53670,"contract":"src/StabilizerNFT.sol:StabilizerNFT","label":"minCollateralRatio","offset":0,"slot":"0","type":"t_uint256"},{"astId":53672,"contract":"src/StabilizerNFT.sol:StabilizerNFT","label":"prevUnallocated","offset":0,"slot":"1","type":"t_uint256"},{"astId":53674,"contract":"src/StabilizerNFT.sol:StabilizerNFT","label":"nextUnallocated","offset":0,"slot":"2","type":"t_uint256"},{"astId":53676,"contract":"src/StabilizerNFT.sol:StabilizerNFT","label":"prevAllocated","offset":0,"slot":"3","type":"t_uint256"},{"astId":53678,"contract":"src/StabilizerNFT.sol:StabilizerNFT","label":"nextAllocated","offset":0,"slot":"4","type":"t_uint256"}]},"t_uint256":{"encoding":"inplace","label":"uint256","numberOfBytes":"32"}}},"id":74}