{"abi":[{"type":"constructor","inputs":[],"stateMutability":"nonpayable"},{"type":"receive","stateMutability":"payable"},{"type":"function","name":"DEFAULT_ADMIN_ROLE","inputs":[],"outputs":[{"name":"","type":"bytes32","internalType":"bytes32"}],"stateMutability":"view"},{"type":"function","name":"MINTER_ROLE","inputs":[],"outputs":[{"name":"","type":"bytes32","internalType":"bytes32"}],"stateMutability":"view"},{"type":"function","name":"MIN_GAS","inputs":[],"outputs":[{"name":"","type":"uint256","internalType":"uint256"}],"stateMutability":"view"},{"type":"function","name":"addUnallocatedFundsEth","inputs":[{"name":"tokenId","type":"uint256","internalType":"uint256"}],"outputs":[],"stateMutability":"payable"},{"type":"function","name":"addUnallocatedFundsStETH","inputs":[{"name":"tokenId","type":"uint256","internalType":"uint256"},{"name":"stETHAmount","type":"uint256","internalType":"uint256"}],"outputs":[],"stateMutability":"nonpayable"},{"type":"function","name":"allocateStabilizerFunds","inputs":[{"name":"ethAmount","type":"uint256","internalType":"uint256"},{"name":"ethUsdPrice","type":"uint256","internalType":"uint256"},{"name":"priceDecimals","type":"uint256","internalType":"uint256"}],"outputs":[{"name":"result","type":"tuple","internalType":"struct IStabilizerNFT.AllocationResult","components":[{"name":"allocatedEth","type":"uint256","internalType":"uint256"}]}],"stateMutability":"payable"},{"type":"function","name":"approve","inputs":[{"name":"to","type":"address","internalType":"address"},{"name":"tokenId","type":"uint256","internalType":"uint256"}],"outputs":[],"stateMutability":"nonpayable"},{"type":"function","name":"balanceOf","inputs":[{"name":"owner","type":"address","internalType":"address"}],"outputs":[{"name":"","type":"uint256","internalType":"uint256"}],"stateMutability":"view"},{"type":"function","name":"getApproved","inputs":[{"name":"tokenId","type":"uint256","internalType":"uint256"}],"outputs":[{"name":"","type":"address","internalType":"address"}],"stateMutability":"view"},{"type":"function","name":"getRoleAdmin","inputs":[{"name":"role","type":"bytes32","internalType":"bytes32"}],"outputs":[{"name":"","type":"bytes32","internalType":"bytes32"}],"stateMutability":"view"},{"type":"function","name":"grantRole","inputs":[{"name":"role","type":"bytes32","internalType":"bytes32"},{"name":"account","type":"address","internalType":"address"}],"outputs":[],"stateMutability":"nonpayable"},{"type":"function","name":"hasRole","inputs":[{"name":"role","type":"bytes32","internalType":"bytes32"},{"name":"account","type":"address","internalType":"address"}],"outputs":[{"name":"","type":"bool","internalType":"bool"}],"stateMutability":"view"},{"type":"function","name":"highestAllocatedId","inputs":[],"outputs":[{"name":"","type":"uint256","internalType":"uint256"}],"stateMutability":"view"},{"type":"function","name":"highestUnallocatedId","inputs":[],"outputs":[{"name":"","type":"uint256","internalType":"uint256"}],"stateMutability":"view"},{"type":"function","name":"initialize","inputs":[{"name":"_positionNFT","type":"address","internalType":"address"},{"name":"_uspdToken","type":"address","internalType":"address"},{"name":"_stETH","type":"address","internalType":"address"},{"name":"_lido","type":"address","internalType":"address"},{"name":"_admin","type":"address","internalType":"address"}],"outputs":[],"stateMutability":"nonpayable"},{"type":"function","name":"isApprovedForAll","inputs":[{"name":"owner","type":"address","internalType":"address"},{"name":"operator","type":"address","internalType":"address"}],"outputs":[{"name":"","type":"bool","internalType":"bool"}],"stateMutability":"view"},{"type":"function","name":"lido","inputs":[],"outputs":[{"name":"","type":"address","internalType":"address"}],"stateMutability":"view"},{"type":"function","name":"lowestAllocatedId","inputs":[],"outputs":[{"name":"","type":"uint256","internalType":"uint256"}],"stateMutability":"view"},{"type":"function","name":"lowestUnallocatedId","inputs":[],"outputs":[{"name":"","type":"uint256","internalType":"uint256"}],"stateMutability":"view"},{"type":"function","name":"mint","inputs":[{"name":"to","type":"address","internalType":"address"},{"name":"tokenId","type":"uint256","internalType":"uint256"}],"outputs":[],"stateMutability":"nonpayable"},{"type":"function","name":"name","inputs":[],"outputs":[{"name":"","type":"string","internalType":"string"}],"stateMutability":"view"},{"type":"function","name":"ownerOf","inputs":[{"name":"tokenId","type":"uint256","internalType":"uint256"}],"outputs":[{"name":"","type":"address","internalType":"address"}],"stateMutability":"view"},{"type":"function","name":"positionNFT","inputs":[],"outputs":[{"name":"","type":"address","internalType":"contract IUspdCollateralizedPositionNFT"}],"stateMutability":"view"},{"type":"function","name":"positions","inputs":[{"name":"","type":"uint256","internalType":"uint256"}],"outputs":[{"name":"totalEth","type":"uint256","internalType":"uint256"},{"name":"minCollateralRatio","type":"uint256","internalType":"uint256"},{"name":"prevUnallocated","type":"uint256","internalType":"uint256"},{"name":"nextUnallocated","type":"uint256","internalType":"uint256"},{"name":"prevAllocated","type":"uint256","internalType":"uint256"},{"name":"nextAllocated","type":"uint256","internalType":"uint256"}],"stateMutability":"view"},{"type":"function","name":"removeUnallocatedFunds","inputs":[{"name":"tokenId","type":"uint256","internalType":"uint256"},{"name":"amount","type":"uint256","internalType":"uint256"},{"name":"to","type":"address","internalType":"address payable"}],"outputs":[],"stateMutability":"nonpayable"},{"type":"function","name":"renounceRole","inputs":[{"name":"role","type":"bytes32","internalType":"bytes32"},{"name":"callerConfirmation","type":"address","internalType":"address"}],"outputs":[],"stateMutability":"nonpayable"},{"type":"function","name":"revokeRole","inputs":[{"name":"role","type":"bytes32","internalType":"bytes32"},{"name":"account","type":"address","internalType":"address"}],"outputs":[],"stateMutability":"nonpayable"},{"type":"function","name":"safeTransferFrom","inputs":[{"name":"from","type":"address","internalType":"address"},{"name":"to","type":"address","internalType":"address"},{"name":"tokenId","type":"uint256","internalType":"uint256"}],"outputs":[],"stateMutability":"nonpayable"},{"type":"function","name":"safeTransferFrom","inputs":[{"name":"from","type":"address","internalType":"address"},{"name":"to","type":"address","internalType":"address"},{"name":"tokenId","type":"uint256","internalType":"uint256"},{"name":"data","type":"bytes","internalType":"bytes"}],"outputs":[],"stateMutability":"nonpayable"},{"type":"function","name":"setApprovalForAll","inputs":[{"name":"operator","type":"address","internalType":"address"},{"name":"approved","type":"bool","internalType":"bool"}],"outputs":[],"stateMutability":"nonpayable"},{"type":"function","name":"setMinCollateralizationRatio","inputs":[{"name":"tokenId","type":"uint256","internalType":"uint256"},{"name":"newRatio","type":"uint256","internalType":"uint256"}],"outputs":[],"stateMutability":"nonpayable"},{"type":"function","name":"stETH","inputs":[],"outputs":[{"name":"","type":"address","internalType":"address"}],"stateMutability":"view"},{"type":"function","name":"stabilizerEscrows","inputs":[{"name":"","type":"uint256","internalType":"uint256"}],"outputs":[{"name":"","type":"address","internalType":"address"}],"stateMutability":"view"},{"type":"function","name":"supportsInterface","inputs":[{"name":"interfaceId","type":"bytes4","internalType":"bytes4"}],"outputs":[{"name":"","type":"bool","internalType":"bool"}],"stateMutability":"view"},{"type":"function","name":"symbol","inputs":[],"outputs":[{"name":"","type":"string","internalType":"string"}],"stateMutability":"view"},{"type":"function","name":"tokenByIndex","inputs":[{"name":"index","type":"uint256","internalType":"uint256"}],"outputs":[{"name":"","type":"uint256","internalType":"uint256"}],"stateMutability":"view"},{"type":"function","name":"tokenOfOwnerByIndex","inputs":[{"name":"owner","type":"address","internalType":"address"},{"name":"index","type":"uint256","internalType":"uint256"}],"outputs":[{"name":"","type":"uint256","internalType":"uint256"}],"stateMutability":"view"},{"type":"function","name":"tokenURI","inputs":[{"name":"tokenId","type":"uint256","internalType":"uint256"}],"outputs":[{"name":"","type":"string","internalType":"string"}],"stateMutability":"view"},{"type":"function","name":"totalSupply","inputs":[],"outputs":[{"name":"","type":"uint256","internalType":"uint256"}],"stateMutability":"view"},{"type":"function","name":"transferFrom","inputs":[{"name":"from","type":"address","internalType":"address"},{"name":"to","type":"address","internalType":"address"},{"name":"tokenId","type":"uint256","internalType":"uint256"}],"outputs":[],"stateMutability":"nonpayable"},{"type":"function","name":"unallocateStabilizerFunds","inputs":[{"name":"uspdAmount","type":"uint256","internalType":"uint256"},{"name":"priceResponse","type":"tuple","internalType":"struct IPriceOracle.PriceResponse","components":[{"name":"price","type":"uint256","internalType":"uint256"},{"name":"decimals","type":"uint8","internalType":"uint8"},{"name":"timestamp","type":"uint256","internalType":"uint256"}]}],"outputs":[{"name":"unallocatedEth","type":"uint256","internalType":"uint256"}],"stateMutability":"nonpayable"},{"type":"function","name":"uspdToken","inputs":[],"outputs":[{"name":"","type":"address","internalType":"contract USPDToken"}],"stateMutability":"view"},{"type":"event","name":"Approval","inputs":[{"name":"owner","type":"address","indexed":true,"internalType":"address"},{"name":"approved","type":"address","indexed":true,"internalType":"address"},{"name":"tokenId","type":"uint256","indexed":true,"internalType":"uint256"}],"anonymous":false},{"type":"event","name":"ApprovalForAll","inputs":[{"name":"owner","type":"address","indexed":true,"internalType":"address"},{"name":"operator","type":"address","indexed":true,"internalType":"address"},{"name":"approved","type":"bool","indexed":false,"internalType":"bool"}],"anonymous":false},{"type":"event","name":"FundsAllocated","inputs":[{"name":"tokenId","type":"uint256","indexed":true,"internalType":"uint256"},{"name":"stabilizersAmount","type":"uint256","indexed":false,"internalType":"uint256"},{"name":"usersAmount","type":"uint256","indexed":false,"internalType":"uint256"},{"name":"positionId","type":"uint256","indexed":false,"internalType":"uint256"}],"anonymous":false},{"type":"event","name":"FundsUnallocated","inputs":[{"name":"tokenId","type":"uint256","indexed":true,"internalType":"uint256"},{"name":"amount","type":"uint256","indexed":false,"internalType":"uint256"},{"name":"positionId","type":"uint256","indexed":false,"internalType":"uint256"}],"anonymous":false},{"type":"event","name":"Initialized","inputs":[{"name":"version","type":"uint64","indexed":false,"internalType":"uint64"}],"anonymous":false},{"type":"event","name":"MinCollateralRatioUpdated","inputs":[{"name":"tokenId","type":"uint256","indexed":true,"internalType":"uint256"},{"name":"oldRatio","type":"uint256","indexed":false,"internalType":"uint256"},{"name":"newRatio","type":"uint256","indexed":false,"internalType":"uint256"}],"anonymous":false},{"type":"event","name":"RoleAdminChanged","inputs":[{"name":"role","type":"bytes32","indexed":true,"internalType":"bytes32"},{"name":"previousAdminRole","type":"bytes32","indexed":true,"internalType":"bytes32"},{"name":"newAdminRole","type":"bytes32","indexed":true,"internalType":"bytes32"}],"anonymous":false},{"type":"event","name":"RoleGranted","inputs":[{"name":"role","type":"bytes32","indexed":true,"internalType":"bytes32"},{"name":"account","type":"address","indexed":true,"internalType":"address"},{"name":"sender","type":"address","indexed":true,"internalType":"address"}],"anonymous":false},{"type":"event","name":"RoleRevoked","inputs":[{"name":"role","type":"bytes32","indexed":true,"internalType":"bytes32"},{"name":"account","type":"address","indexed":true,"internalType":"address"},{"name":"sender","type":"address","indexed":true,"internalType":"address"}],"anonymous":false},{"type":"event","name":"StabilizerPositionCreated","inputs":[{"name":"tokenId","type":"uint256","indexed":true,"internalType":"uint256"},{"name":"owner","type":"address","indexed":true,"internalType":"address"},{"name":"totalEth","type":"uint256","indexed":false,"internalType":"uint256"}],"anonymous":false},{"type":"event","name":"Transfer","inputs":[{"name":"from","type":"address","indexed":true,"internalType":"address"},{"name":"to","type":"address","indexed":true,"internalType":"address"},{"name":"tokenId","type":"uint256","indexed":true,"internalType":"uint256"}],"anonymous":false},{"type":"event","name":"UnallocatedFundsAdded","inputs":[{"name":"tokenId","type":"uint256","indexed":true,"internalType":"uint256"},{"name":"asset","type":"address","indexed":false,"internalType":"address"},{"name":"amount","type":"uint256","indexed":false,"internalType":"uint256"}],"anonymous":false},{"type":"error","name":"AccessControlBadConfirmation","inputs":[]},{"type":"error","name":"AccessControlUnauthorizedAccount","inputs":[{"name":"account","type":"address","internalType":"address"},{"name":"neededRole","type":"bytes32","internalType":"bytes32"}]},{"type":"error","name":"ERC721EnumerableForbiddenBatchMint","inputs":[]},{"type":"error","name":"ERC721IncorrectOwner","inputs":[{"name":"sender","type":"address","internalType":"address"},{"name":"tokenId","type":"uint256","internalType":"uint256"},{"name":"owner","type":"address","internalType":"address"}]},{"type":"error","name":"ERC721InsufficientApproval","inputs":[{"name":"operator","type":"address","internalType":"address"},{"name":"tokenId","type":"uint256","internalType":"uint256"}]},{"type":"error","name":"ERC721InvalidApprover","inputs":[{"name":"approver","type":"address","internalType":"address"}]},{"type":"error","name":"ERC721InvalidOperator","inputs":[{"name":"operator","type":"address","internalType":"address"}]},{"type":"error","name":"ERC721InvalidOwner","inputs":[{"name":"owner","type":"address","internalType":"address"}]},{"type":"error","name":"ERC721InvalidReceiver","inputs":[{"name":"receiver","type":"address","internalType":"address"}]},{"type":"error","name":"ERC721InvalidSender","inputs":[{"name":"sender","type":"address","internalType":"address"}]},{"type":"error","name":"ERC721NonexistentToken","inputs":[{"name":"tokenId","type":"uint256","internalType":"uint256"}]},{"type":"error","name":"ERC721OutOfBoundsIndex","inputs":[{"name":"owner","type":"address","internalType":"address"},{"name":"index","type":"uint256","internalType":"uint256"}]},{"type":"error","name":"InvalidInitialization","inputs":[]},{"type":"error","name":"NotInitializing","inputs":[]}],"bytecode":{"object":"0x6080604052348015600e575f80fd5b5060156019565b60c9565b7ff0c57e16840df040f15088dc2f81fe391c3923bec73e23a9662efc9c229c6a00805468010000000000000000900460ff161560685760405163f92ee8a960e01b815260040160405180910390fd5b80546001600160401b039081161460c65780546001600160401b0319166001600160401b0390811782556040519081527fc7f505b2f371ae2175ee4913f4499e1f2633a7b5936321eed1cdaeb6115181d29060200160405180910390a15b50565b615cdb806100d65f395ff3fe6080604052600436106102c4575f3560e01c80634f6ccce711610170578063b88d4fde116100d1578063d539139311610087578063e985e9c511610062578063e985e9c514610889578063f399beb7146108ef578063ff70fa6414610902575f80fd5b8063d539139314610822578063d547741f14610855578063d743fd1e14610874575f80fd5b8063bba6fd6f116100b7578063bba6fd6f146107b0578063c1fe3e48146107e4578063c87b56dd14610803575f80fd5b8063b88d4fde14610772578063bb56629714610791575f80fd5b8063921333621161012657806399fbab881161010c57806399fbab88146106c5578063a217fddf14610740578063a22cb46514610753575f80fd5b8063921333621461069c57806395d89b41146106b1575f80fd5b806370a082311161015657806370a0823114610605578063853cad061461062457806391d1485414610639575f80fd5b80634f6ccce7146105c75780636352211e146105e6575f80fd5b806323228ecb116102255780632f2ff15d116101db57806340c10f19116101b657806340c10f191461056a57806342842e0e146105895780634d0c810b146105a8575f80fd5b80632f2ff15d1461050d5780632f745c591461052c57806336568abe1461054b575f80fd5b806323b872dd1161020b57806323b872dd1461048c578063248a9ca3146104ab5780632995bc50146104f8575f80fd5b806323228ecb1461044e57806323509a2d1461046d575f80fd5b8063095ea7b31161027a57806318160ddd1161026057806318160ddd146103dc57806320d2c9511461041957806321aebacb1461042f575f80fd5b8063095ea7b31461039e5780631459457a146103bd575f80fd5b806306fdde03116102aa57806306fdde0314610324578063080a896114610345578063081812fc14610367575f80fd5b806301aa0b1a146102cf57806301ffc9a7146102f0575f80fd5b366102cb57005b5f80fd5b3480156102da575f80fd5b506102ee6102e9366004613fb4565b610921565b005b3480156102fb575f80fd5b5061030f61030a366004614001565b610ad2565b60405190151581526020015b60405180910390f35b34801561032f575f80fd5b50610338610ae2565b60405161031b9190614068565b61035861035336600461407a565b610b96565b6040519051815260200161031b565b348015610372575f80fd5b506103866103813660046140a3565b61114a565b6040516001600160a01b03909116815260200161031b565b3480156103a9575f80fd5b506102ee6103b83660046140ce565b611190565b3480156103c8575f80fd5b506102ee6103d73660046140f8565b61119f565b3480156103e7575f80fd5b507f645e039705490088daad89bae25049a34f4a9072d398537b1ab2425f24cbed02545b60405190815260200161031b565b348015610424575f80fd5b5061040b620186a081565b34801561043a575f80fd5b506102ee610449366004614165565b6113f4565b348015610459575f80fd5b50600654610386906001600160a01b031681565b348015610478575f80fd5b50600854610386906001600160a01b031681565b348015610497575f80fd5b506102ee6104a636600461419b565b611632565b3480156104b6575f80fd5b5061040b6104c53660046140a3565b5f9081527f02dd7bc7dec4dceedda775e58dd541e08a116c6c53815c0bd028192f7b626800602052604090206001015490565b348015610503575f80fd5b5061040b60035481565b348015610518575f80fd5b506102ee6105273660046141d9565b6116ed565b348015610537575f80fd5b5061040b6105463660046140ce565b611730565b348015610556575f80fd5b506102ee6105653660046141d9565b6117cd565b348015610575575f80fd5b506102ee6105843660046140ce565b61181e565b348015610594575f80fd5b506102ee6105a336600461419b565b611a20565b3480156105b3575f80fd5b50600554610386906001600160a01b031681565b3480156105d2575f80fd5b5061040b6105e13660046140a3565b611a3a565b3480156105f1575f80fd5b506103866106003660046140a3565b611aeb565b348015610610575f80fd5b5061040b61061f366004614207565b611af5565b34801561062f575f80fd5b5061040b60015481565b348015610644575f80fd5b5061030f6106533660046141d9565b5f9182527f02dd7bc7dec4dceedda775e58dd541e08a116c6c53815c0bd028192f7b626800602090815260408084206001600160a01b0393909316845291905290205460ff1690565b3480156106a7575f80fd5b5061040b60025481565b3480156106bc575f80fd5b50610338611b79565b3480156106d0575f80fd5b506107136106df3660046140a3565b5f60208190529081526040902080546001820154600283015460038401546004850154600590950154939492939192909186565b604080519687526020870195909552938501929092526060840152608083015260a082015260c00161031b565b34801561074b575f80fd5b5061040b5f81565b34801561075e575f80fd5b506102ee61076d36600461422f565b611bca565b34801561077d575f80fd5b506102ee61078c3660046142d7565b611bd5565b34801561079c575f80fd5b506102ee6107ab366004613fb4565b611bed565b3480156107bb575f80fd5b506103866107ca3660046140a3565b60096020525f90815260409020546001600160a01b031681565b3480156107ef575f80fd5b50600754610386906001600160a01b031681565b34801561080e575f80fd5b5061033861081d3660046140a3565b611e38565b34801561082d575f80fd5b5061040b7f9f2df0fed2c77648de5860a4cc508cd0818c85b8b8a1ab4ceeef8d981c8956a681565b348015610860575f80fd5b506102ee61086f3660046141d9565b611f49565b34801561087f575f80fd5b5061040b60045481565b348015610894575f80fd5b5061030f6108a33660046143b7565b6001600160a01b039182165f9081527f80bb2b638cc20bc4d0a60d66940f3ab4a00c1d7b313497ca82fb0b4ab00793056020908152604080832093909416825291909152205460ff1690565b6102ee6108fd3660046140a3565b611f8c565b34801561090d575f80fd5b5061040b61091c3660046143e3565b612184565b3361092b83611aeb565b6001600160a01b0316146109a0576040517f08c379a000000000000000000000000000000000000000000000000000000000815260206004820152600f60248201527f4e6f7420746f6b656e206f776e6572000000000000000000000000000000000060448201526064015b60405180910390fd5b606e811015610a0b576040517f08c379a000000000000000000000000000000000000000000000000000000000815260206004820152601b60248201527f526174696f206d757374206265206174206c65617374203131302500000000006044820152606401610997565b6103e8811115610a77576040517f08c379a000000000000000000000000000000000000000000000000000000000815260206004820152601960248201527f526174696f2063616e6e6f7420657863656564203130303025000000000000006044820152606401610997565b5f82815260208181526040918290206001810180549085905583518181529283018590529092909185917f3e82d134b4a0328de7223eb1ae194d98009405cb6b8dc9c3d6bd70eb3aeb5c94910160405180910390a250505050565b5f610adc826126d2565b92915050565b7f80bb2b638cc20bc4d0a60d66940f3ab4a00c1d7b313497ca82fb0b4ab00793008054606091908190610b1490614481565b80601f0160208091040260200160405190810160405280929190818152602001828054610b4090614481565b8015610b8b5780601f10610b6257610100808354040283529160200191610b8b565b820191905f5260205f20905b815481529060010190602001808311610b6e57829003601f168201915b505050505091505090565b60408051602081019091525f81526005546001600160a01b03163314610c18576040517f08c379a000000000000000000000000000000000000000000000000000000000815260206004820152601260248201527f4f6e6c79205553504420636f6e747261637400000000000000000000000000006044820152606401610997565b6001545f03610c83576040517f08c379a000000000000000000000000000000000000000000000000000000000815260206004820152601460248201527f4e6f20756e616c6c6f63617465642066756e64730000000000000000000000006044820152606401610997565b833414610cec576040517f08c379a000000000000000000000000000000000000000000000000000000000815260206004820152601360248201527f45544820616d6f756e74206d69736d61746368000000000000000000000000006044820152606401610997565b600154845b8115801590610cff57505f81115b1561106d57620186a05a1061106d575f82815260208190526040812090829003610d29575061106d565b5f826064836001015485610d3d91906144ff565b610d479190614543565b610d519190614556565b90505f825f01548211610d645781610d67565b82545b90508382821015610d9b5760648460010154610d839190614556565b610d8e8360646144ff565b610d989190614543565b90505b5f610da587611aeb565b6006546040517f2bf79c940000000000000000000000000000000000000000000000000000000081526001600160a01b0380841660048301529293505f9290911690632bf79c9490602401602060405180830381865afa158015610e0b573d5f803e3d5ffd5b505050506040513d601f19601f82011682018060405250810190610e2f9190614569565b9050805f03610ec9576006546040517f6a6278420000000000000000000000000000000000000000000000000000000081526001600160a01b03848116600483015290911690636a627842906024016020604051808303815f875af1158015610e9a573d5f803e3d5ffd5b505050506040513d601f19601f82011682018060405250810190610ebe9190614569565b9050610ec988612727565b6006546001600160a01b031663bcc46e83610ee48587614580565b836040518363ffffffff1660e01b8152600401610f0391815260200190565b5f604051808303818588803b158015610f1a575f80fd5b505af1158015610f2c573d5f803e3d5ffd5b50505050505f8a600a610f3f91906146b4565b610f498d866144ff565b610f539190614543565b6006546040517f341c49af00000000000000000000000000000000000000000000000000000000815260048101859052602481018390529192506001600160a01b03169063341c49af906044015f604051808303815f87803b158015610fb7575f80fd5b505af1158015610fc9573d5f803e3d5ffd5b5050505084875f015f828254610fdf9190614556565b9091555050895184908b90610ff5908390614580565b9052506110028489614556565b604080518781526020810187905290810184905290985089907f8ec82059003c25a01be08491bfaf15e477fc90b27f3f6b6f9ea7094215f8e5ad9060600160405180910390a2600387015487545f0361105e5761105e8a61280b565b9850610cf19650505050505050565b82516110d5576040517f08c379a000000000000000000000000000000000000000000000000000000000815260206004820152601260248201527f4e6f2066756e647320616c6c6f636174656400000000000000000000000000006044820152606401610997565b80156111405760055f9054906101000a90046001600160a01b03166001600160a01b031663b09f409d826040518263ffffffff1660e01b81526004015f604051808303818588803b158015611128575f80fd5b505af115801561113a573d5f803e3d5ffd5b50505050505b50505b9392505050565b5f611154826128cf565b505f8281527f80bb2b638cc20bc4d0a60d66940f3ab4a00c1d7b313497ca82fb0b4ab007930460205260409020546001600160a01b0316610adc565b61119b82823361293f565b5050565b5f6111a861294c565b805490915060ff68010000000000000000820416159067ffffffffffffffff165f811580156111d45750825b90505f8267ffffffffffffffff1660011480156111f05750303b155b9050811580156111fe575080155b15611235576040517ff92ee8a900000000000000000000000000000000000000000000000000000000815260040160405180910390fd5b84547fffffffffffffffffffffffffffffffffffffffffffffffff000000000000000016600117855583156112965784547fffffffffffffffffffffffffffffffffffffffffffffff00ffffffffffffffff16680100000000000000001785555b61130a6040518060400160405280600f81526020017f555350442053746162696c697a657200000000000000000000000000000000008152506040518060400160405280600581526020017f5553504453000000000000000000000000000000000000000000000000000000815250612974565b611312612986565b61131a612986565b6113245f87612990565b50600680546001600160a01b03808d167fffffffffffffffffffffffff000000000000000000000000000000000000000092831617909255600580548c8416908316179055600780548b841690831617905560088054928a169290911691909117905583156113e85784547fffffffffffffffffffffffffffffffffffffffffffffff00ffffffffffffffff168555604051600181527fc7f505b2f371ae2175ee4913f4499e1f2633a7b5936321eed1cdaeb6115181d29060200160405180910390a15b50505050505050505050565b5f6113fe84611aeb565b6001600160a01b03160361146e576040517f08c379a000000000000000000000000000000000000000000000000000000000815260206004820152601460248201527f546f6b656e20646f6573206e6f742065786973740000000000000000000000006044820152606401610997565b3361147884611aeb565b6001600160a01b0316146114e8576040517f08c379a000000000000000000000000000000000000000000000000000000000815260206004820152600f60248201527f4e6f7420746f6b656e206f776e657200000000000000000000000000000000006044820152606401610997565b6001600160a01b038116611558576040517f08c379a000000000000000000000000000000000000000000000000000000000815260206004820152601160248201527f496e76616c696420726563697069656e740000000000000000000000000000006044820152606401610997565b5f83815260208190526040902080548311156115d0576040517f08c379a000000000000000000000000000000000000000000000000000000000815260206004820152601e60248201527f496e73756666696369656e7420756e616c6c6f63617465642066756e647300006044820152606401610997565b82815f015f8282546115e29190614556565b909155505080545f036115f8576115f88461280b565b6040516001600160a01b0383169084156108fc029085905f818181858888f1935050505015801561162b573d5f803e3d5ffd5b5050505050565b6001600160a01b038216611674576040517f64a0ae920000000000000000000000000000000000000000000000000000000081525f6004820152602401610997565b5f611680838333612a7a565b9050836001600160a01b0316816001600160a01b0316146116e7576040517f64283d7b0000000000000000000000000000000000000000000000000000000081526001600160a01b0380861660048301526024820184905282166044820152606401610997565b50505050565b5f8281527f02dd7bc7dec4dceedda775e58dd541e08a116c6c53815c0bd028192f7b626800602052604090206001015461172681612a8e565b6116e78383612990565b5f7f645e039705490088daad89bae25049a34f4a9072d398537b1ab2425f24cbed0061175b84611af5565b83106117a5576040517fa57d13dc0000000000000000000000000000000000000000000000000000000081526001600160a01b038516600482015260248101849052604401610997565b6001600160a01b0384165f908152602091825260408082208583529092522054905092915050565b6001600160a01b038116331461180f576040517f6697b23200000000000000000000000000000000000000000000000000000000815260040160405180910390fd5b6118198282612a98565b505050565b7f9f2df0fed2c77648de5860a4cc508cd0818c85b8b8a1ab4ceeef8d981c8956a661184881612a8e565b6040805160c0810182525f808252606e6020808401918252838501838152606085018481526080860185815260a087018681528a87529386905296909420945185559151600185015590516002840155905160038301559151600482015590516005909101556118b88383612b5a565b826001600160a01b0316827f235cef5017c62c20fa68006be2f6bf69f305c7d72d5a07a625e5693e7a6b1ff85f6040516118f491815260200190565b60405180910390a36007546008546040515f92309287926001600160a01b03928316929091169061192490613fa7565b6001600160a01b039485168152928416602084015290831660408301529091166060820152608001604051809103905ff080158015611965573d5f803e3d5ffd5b5090506001600160a01b0381166119d8576040517f08c379a000000000000000000000000000000000000000000000000000000000815260206004820152601860248201527f457363726f77206465706c6f796d656e74206661696c656400000000000000006044820152606401610997565b5f9283526009602052604090922080547fffffffffffffffffffffffff0000000000000000000000000000000000000000166001600160a01b03909316929092179091555050565b61181983838360405180602001604052805f815250611bd5565b5f7f645e039705490088daad89bae25049a34f4a9072d398537b1ab2425f24cbed00611a847f645e039705490088daad89bae25049a34f4a9072d398537b1ab2425f24cbed025490565b8310611ac5576040517fa57d13dc0000000000000000000000000000000000000000000000000000000081525f600482015260248101849052604401610997565b806002018381548110611ada57611ada6146bf565b905f5260205f200154915050919050565b5f610adc826128cf565b5f7f80bb2b638cc20bc4d0a60d66940f3ab4a00c1d7b313497ca82fb0b4ab00793006001600160a01b038316611b59576040517f89c62b640000000000000000000000000000000000000000000000000000000081525f6004820152602401610997565b6001600160a01b039092165f908152600390920160205250604090205490565b7f80bb2b638cc20bc4d0a60d66940f3ab4a00c1d7b313497ca82fb0b4ab007930180546060917f80bb2b638cc20bc4d0a60d66940f3ab4a00c1d7b313497ca82fb0b4ab007930091610b1490614481565b61119b338383612b73565b611be0848484611632565b6116e73385858585612c6c565b33611bf783611aeb565b6001600160a01b031614611c67576040517f08c379a000000000000000000000000000000000000000000000000000000000815260206004820152600f60248201527f4e6f7420746f6b656e206f776e657200000000000000000000000000000000006044820152606401610997565b5f8111611cd0576040517f08c379a000000000000000000000000000000000000000000000000000000000815260206004820152601760248201527f416d6f756e74206d75737420626520706f7369746976650000000000000000006044820152606401610997565b5f828152600960205260409020546001600160a01b031680611d4e576040517f08c379a000000000000000000000000000000000000000000000000000000000815260206004820152601060248201527f457363726f77206e6f7420666f756e64000000000000000000000000000000006044820152606401610997565b6007546040517f23b872dd0000000000000000000000000000000000000000000000000000000081523360048201526001600160a01b03838116602483015260448201859052909116906323b872dd906064016020604051808303815f875af1158015611dbd573d5f803e3d5ffd5b505050506040513d601f19601f82011682018060405250810190611de191906146ec565b50611deb83612e2d565b600754604080516001600160a01b0390921682526020820184905284917f055b14c7efbc07d692265b907b52ec309741a29408ffad1d871aa6b371ac7729910160405180910390a2505050565b60605f611e4483611aeb565b6001600160a01b031603611eb4576040517f08c379a000000000000000000000000000000000000000000000000000000000815260206004820152601460248201527f546f6b656e20646f6573206e6f742065786973740000000000000000000000006044820152606401610997565b5f82815260208190526040812090611f1e611ece85612f65565b611edf611eda87613096565b6130e2565b8454611eea90612f65565b611ef78660010154612f65565b604051602001611f0a949392919061471e565b6040516020818303038152906040526130e2565b905080604051602001611f319190614953565b60405160208183030381529060405292505050919050565b5f8281527f02dd7bc7dec4dceedda775e58dd541e08a116c6c53815c0bd028192f7b6268006020526040902060010154611f8281612a8e565b6116e78383612a98565b33611f9682611aeb565b6001600160a01b031614612006576040517f08c379a000000000000000000000000000000000000000000000000000000000815260206004820152600f60248201527f4e6f7420746f6b656e206f776e657200000000000000000000000000000000006044820152606401610997565b5f341161206f576040517f08c379a000000000000000000000000000000000000000000000000000000000815260206004820152600b60248201527f4e6f204554482073656e740000000000000000000000000000000000000000006044820152606401610997565b5f818152600960205260409020546001600160a01b0316806120ed576040517f08c379a000000000000000000000000000000000000000000000000000000000815260206004820152601060248201527f457363726f77206e6f7420666f756e64000000000000000000000000000000006044820152606401610997565b806001600160a01b031663d0e30db0346040518263ffffffff1660e01b81526004015f604051808303818588803b158015612126575f80fd5b505af1158015612138573d5f803e3d5ffd5b505050505061214682612e2d565b604080515f815234602082015283917f055b14c7efbc07d692265b907b52ec309741a29408ffad1d871aa6b371ac7729910160405180910390a25050565b6005545f906001600160a01b031633146121fa576040517f08c379a000000000000000000000000000000000000000000000000000000000815260206004820152601260248201527f4f6e6c79205553504420636f6e747261637400000000000000000000000000006044820152606401610997565b6004545f03612265576040517f08c379a000000000000000000000000000000000000000000000000000000000815260206004820152601260248201527f4e6f20616c6c6f63617465642066756e647300000000000000000000000000006044820152606401610997565b600454835f5b821580159061227957505f82115b156125fb57620186a05a106125fb575f8381526020819052604081206006549091906001600160a01b0316632bf79c946122b287611aeb565b6040517fffffffff0000000000000000000000000000000000000000000000000000000060e084901b1681526001600160a01b039091166004820152602401602060405180830381865afa15801561230c573d5f803e3d5ffd5b505050506040513d601f19601f820116820180604052508101906123309190614569565b905080156125ef576006546040517feb02c301000000000000000000000000000000000000000000000000000000008152600481018390525f916001600160a01b03169063eb02c301906024016040805180830381865afa158015612397573d5f803e3d5ffd5b505050506040513d601f19601f820116820180604052508101906123bb9190614984565b90505f816020015186116123cf57856123d5565b81602001515b90505f806123ec858585868860200151148f613108565b60065460208701519294509092506001600160a01b03169063341c49af9087908614612427578587602001516124229190614556565b612429565b5f5b6040517fffffffff0000000000000000000000000000000000000000000000000000000060e085901b168152600481019290925260248201526044015f604051808303815f87803b15801561247c575f80fd5b505af115801561248e573d5f803e3d5ffd5b5050505060065f9054906101000a90046001600160a01b03166001600160a01b031663ab50355e8630858f6040518563ffffffff1660e01b815260040161251394939291909384526001600160a01b03929092166020808501919091526040808501929092528251606085015282015160ff166080840152015160a082015260c00190565b5f604051808303815f87803b15801561252a575f80fd5b505af115801561253c573d5f803e3d5ffd5b505050508284602001510361255457612554896132f2565b61255e8188614580565b965061256a8183614556565b865f015f82825461257b9190614580565b9091555050600286015415801561259457506003860154155b156125a2576125a289612e2d565b6125ac8389614556565b60408051848152602081018890529199508a917f7bd51af63c72ca163b2d37a37219fbdda7a4c3803f69ed76e3948078619a32f9910160405180910390a2505050505b5060040154925061226b565b5f8111612664576040517f08c379a000000000000000000000000000000000000000000000000000000000815260206004820152601460248201527f4e6f2066756e647320756e616c6c6f63617465640000000000000000000000006044820152606401610997565b60055f9054906101000a90046001600160a01b03166001600160a01b031663b09f409d826040518263ffffffff1660e01b81526004015f604051808303818588803b1580156126b1575f80fd5b505af11580156126c3573d5f803e3d5ffd5b50939998505050505050505050565b5f7fffffffff0000000000000000000000000000000000000000000000000000000082167f7965db0b000000000000000000000000000000000000000000000000000000001480610adc5750610adc826133b6565b60035415806127365750600454155b15612745576003819055600455565b60045481111561277357600480545f8381526020819052604080822084018390559181522060050182905555565b6003548110156127a257600380545f838152602081905260408082206005018390559181522060040182905555565b6003545b80158015906127b457508181105b156127cf575f908152602081905260409020600501546127a6565b5f818152602081905260408082206004908101805486855283852092830181905560059283018690558452918320018490559190528190555b50565b5f8181526020819052604090206001548214801561282a575060025482145b1561283d575f60018190556002556128be565b600154820361286657600381015460018190555f908152602081905260408120600201556128be565b600254820361288f57600280820154908190555f908152602081905260408120600301556128be565b600280820154600380840180545f90815260208190526040808220909501849055905492815292909220909101555b5f6003820181905560029091015550565b5f8181527f80bb2b638cc20bc4d0a60d66940f3ab4a00c1d7b313497ca82fb0b4ab007930260205260408120546001600160a01b031680610adc576040517f7e27328900000000000000000000000000000000000000000000000000000000815260048101849052602401610997565b611819838383600161340b565b5f807ff0c57e16840df040f15088dc2f81fe391c3923bec73e23a9662efc9c229c6a00610adc565b61297c61359f565b61119b82826135dd565b61298e61359f565b565b5f8281527f02dd7bc7dec4dceedda775e58dd541e08a116c6c53815c0bd028192f7b626800602081815260408084206001600160a01b038616855290915282205460ff16612a71575f848152602082815260408083206001600160a01b0387168452909152902080547fffffffffffffffffffffffffffffffffffffffffffffffffffffffffffffff00166001179055612a273390565b6001600160a01b0316836001600160a01b0316857f2f8788117e7eff1d82e926ec794901d17c78024a50270940304540a733656f0d60405160405180910390a46001915050610adc565b5f915050610adc565b5f612a86848484613620565b949350505050565b6128088133613729565b5f8281527f02dd7bc7dec4dceedda775e58dd541e08a116c6c53815c0bd028192f7b626800602081815260408084206001600160a01b038616855290915282205460ff1615612a71575f848152602082815260408083206001600160a01b038716808552925280832080547fffffffffffffffffffffffffffffffffffffffffffffffffffffffffffffff0016905551339287917ff6391f5c32d9c69d2a47ea670b442974b53935d1edc7fd64eb21e047a839171b9190a46001915050610adc565b61119b828260405180602001604052805f8152506137b5565b7f80bb2b638cc20bc4d0a60d66940f3ab4a00c1d7b313497ca82fb0b4ab00793006001600160a01b038316612bdf576040517f5b08ba180000000000000000000000000000000000000000000000000000000081526001600160a01b0384166004820152602401610997565b6001600160a01b038481165f81815260058401602090815260408083209488168084529482529182902080547fffffffffffffffffffffffffffffffffffffffffffffffffffffffffffffff001687151590811790915591519182527f17307eab39ab6107e8899845ad3d59bd9653f200f220920489ca2b5937696c31910160405180910390a350505050565b6001600160a01b0383163b1561162b576040517f150b7a020000000000000000000000000000000000000000000000000000000081526001600160a01b0384169063150b7a0290612cc79088908890879087906004016149d3565b6020604051808303815f875af1925050508015612d1f575060408051601f3d9081017fffffffffffffffffffffffffffffffffffffffffffffffffffffffffffffffe0168201909252612d1c91810190614a13565b60015b612d9f573d808015612d4c576040519150601f19603f3d011682016040523d82523d5f602084013e612d51565b606091505b5080515f03612d97576040517f64a0ae920000000000000000000000000000000000000000000000000000000081526001600160a01b0385166004820152602401610997565b805181602001fd5b7fffffffff0000000000000000000000000000000000000000000000000000000081167f150b7a020000000000000000000000000000000000000000000000000000000014612e25576040517f64a0ae920000000000000000000000000000000000000000000000000000000081526001600160a01b0385166004820152602401610997565b505050505050565b5f8181526020819052604090206002810154158015612e4e57506003810154155b8015612e5c57508160015414155b1561119b576001545f03612e7557506001819055600255565b600254821115612ea057600280549181018290555f9182526020829052604090912060030182905555565b600154821015612ece57600180546003929092018290555f9182526020829052604090912060020182905555565b6001545b5f8181526020819052604090206003015415801590612f0057505f8181526020819052604090206003015483115b15612f1b575f90815260208190526040902060030154612ed2565b5f81815260208190526040902060039081018054600285018490559184018290558490558015612f5d575f8181526020819052604090206002018490556116e7565b505050600255565b6060815f03612fa757505060408051808201909152600181527f3000000000000000000000000000000000000000000000000000000000000000602082015290565b815f5b8115612fd05780612fba81614a2e565b9150612fc99050600a83614543565b9150612faa565b5f8167ffffffffffffffff811115612fea57612fea61425b565b6040519080825280601f01601f191660200182016040528015613014576020820181803683370190505b5090505b8415612a8657613029600183614556565b9150613036600a86614a65565b613041906030614580565b60f81b818381518110613056576130566146bf565b60200101907effffffffffffffffffffffffffffffffffffffffffffffffffffffffffffff191690815f1a90535061308f600a86614543565b9450613018565b5f8181526020819052604090206060906130af83612f65565b81546130ba90612f65565b6040516020016130cb929190614a78565b604051602081830303815290604052915050919050565b6060610adc82604051806060016040528060408152602001615c666040913960016137cc565b5f8083156131cc578551600654845160208601516040517fbbc10809000000000000000000000000000000000000000000000000000000008152600481018c9052602481019290925260ff1660448201529193506001600160a01b03169063bbc1080990606401602060405180830381865afa15801561318a573d5f803e3d5ffd5b505050506040513d601f19601f820116820180604052508101906131ae9190614569565b86516131bb9060646144ff565b6131c59190614543565b90506132e8565b600654835160208501516040517fbbc10809000000000000000000000000000000000000000000000000000000008152600481018b9052602481019290925260ff1660448201525f916001600160a01b03169063bbc1080990606401602060405180830381865afa158015613243573d5f803e3d5ffd5b505050506040513d601f19601f820116820180604052508101906132679190614569565b90505f86886020015161327a9190614556565b85519091505f9061328c9060646144ff565b602087015161329c90600a614d53565b6132a684866144ff565b6132b091906144ff565b6132ba9190614543565b89519091506132ca908290614556565b9450826132d88660646144ff565b6132e29190614543565b93505050505b9550959350505050565b5f81815260208190526040902060035482148015613311575060045482145b15613324575f60038190556004556133a5565b600354820361334d57600581015460038190555f908152602081905260408120600401556133a5565b600454820361337657600480820154908190555f908152602081905260408120600501556133a5565b600480820154600580840180545f90815260208190526040808220909501849055905492815292909220909101555b5f6005820181905560049091015550565b5f7fffffffff0000000000000000000000000000000000000000000000000000000082167f780e9d63000000000000000000000000000000000000000000000000000000001480610adc5750610adc82613947565b7f80bb2b638cc20bc4d0a60d66940f3ab4a00c1d7b313497ca82fb0b4ab0079300818061344057506001600160a01b03831615155b15613557575f61344f856128cf565b90506001600160a01b0384161580159061347b5750836001600160a01b0316816001600160a01b031614155b80156134cb57506001600160a01b038082165f9081527f80bb2b638cc20bc4d0a60d66940f3ab4a00c1d7b313497ca82fb0b4ab0079305602090815260408083209388168352929052205460ff16155b1561350d576040517fa9fbf51f0000000000000000000000000000000000000000000000000000000081526001600160a01b0385166004820152602401610997565b82156135555784866001600160a01b0316826001600160a01b03167f8c5be1e5ebec7d5bd14f71427d1e84f3dd0314c0f7b2291e5b200ac8c7c3b92560405160405180910390a45b505b5f93845260040160205250506040902080547fffffffffffffffffffffffff0000000000000000000000000000000000000000166001600160a01b0392909216919091179055565b6135a7613a29565b61298e576040517fd7e6bcf800000000000000000000000000000000000000000000000000000000815260040160405180910390fd5b6135e561359f565b7f80bb2b638cc20bc4d0a60d66940f3ab4a00c1d7b313497ca82fb0b4ab0079300806136118482614da5565b50600181016116e78382614da5565b5f8061362d858585613a47565b90506001600160a01b0381166136c7576136c2847f645e039705490088daad89bae25049a34f4a9072d398537b1ab2425f24cbed0280545f8381527f645e039705490088daad89bae25049a34f4a9072d398537b1ab2425f24cbed0360205260408120829055600182018355919091527fa42f15e5d656f8155fd7419d740a6073999f19cd6e061449ce4a257150545bf20155565b6136ea565b846001600160a01b0316816001600160a01b0316146136ea576136ea8185613bb8565b6001600160a01b0385166137065761370184613c62565b612a86565b846001600160a01b0316816001600160a01b031614612a8657612a868585613d55565b5f8281527f02dd7bc7dec4dceedda775e58dd541e08a116c6c53815c0bd028192f7b626800602090815260408083206001600160a01b038516845290915290205460ff1661119b576040517fe2517d3f0000000000000000000000000000000000000000000000000000000081526001600160a01b038216600482015260248101839052604401610997565b6137bf8383613dc0565b611819335f858585612c6c565b606083515f036137ea575060408051602081019091525f8152611143565b5f8261381a5760038551600461380091906144ff565b61380b906002614580565b6138159190614543565b61383f565b60038551600261382a9190614580565b6138349190614543565b61383f9060046144ff565b90505f8167ffffffffffffffff81111561385b5761385b61425b565b6040519080825280601f01601f191660200182016040528015613885576020820181803683370190505b509050600185016020820187885189016020810180515f82525b828410156138fa576003840193508351603f8160121c168701518653600186019550603f81600c1c168701518653600186019550603f8160061c168701518653600186019550603f811687015186535060018501945061389f565b90525050851561393b5760038851066001811461391e576002811461393157613939565b603d6001830353603d6002830353613939565b603d60018303535b505b50909695505050505050565b5f7fffffffff0000000000000000000000000000000000000000000000000000000082167f80ac58cd0000000000000000000000000000000000000000000000000000000014806139d957507fffffffff0000000000000000000000000000000000000000000000000000000082167f5b5e139f00000000000000000000000000000000000000000000000000000000145b80610adc57507f01ffc9a7000000000000000000000000000000000000000000000000000000007fffffffff00000000000000000000000000000000000000000000000000000000831614610adc565b5f613a3261294c565b5468010000000000000000900460ff16919050565b5f8281527f80bb2b638cc20bc4d0a60d66940f3ab4a00c1d7b313497ca82fb0b4ab007930260205260408120547f80bb2b638cc20bc4d0a60d66940f3ab4a00c1d7b313497ca82fb0b4ab0079300906001600160a01b0390811690841615613ab457613ab4818587613e53565b6001600160a01b03811615613b0f57613acf5f865f8061340b565b6001600160a01b0381165f908152600383016020526040902080547fffffffffffffffffffffffffffffffffffffffffffffffffffffffffffffffff0190555b6001600160a01b03861615613b3f576001600160a01b0386165f9081526003830160205260409020805460010190555b5f85815260028301602052604080822080547fffffffffffffffffffffffff0000000000000000000000000000000000000000166001600160a01b038a811691821790925591518893918516917fddf252ad1be2c89b69c2b068fc378daa952ba7f163c4a11628f55a4df523b3ef91a495945050505050565b7f645e039705490088daad89bae25049a34f4a9072d398537b1ab2425f24cbed005f613be384611af5565b5f8481526001840160209081526040808320546001600160a01b03891684529186905290912091925090818314613c3b575f838152602082815260408083205485845281842081905583526001870190915290208290555b5f948552600190930160209081526040808620869055928552929092528220919091555050565b7f645e039705490088daad89bae25049a34f4a9072d398537b1ab2425f24cbed02547f645e039705490088daad89bae25049a34f4a9072d398537b1ab2425f24cbed00905f90613cb490600190614556565b5f848152600384016020526040812054600285018054939450909284908110613cdf57613cdf6146bf565b905f5260205f200154905080846002018381548110613d0057613d006146bf565b5f91825260208083209091019290925582815260038601909152604080822084905586825281205560028401805480613d3b57613d3b614ebc565b600190038181905f5260205f20015f905590555050505050565b7f645e039705490088daad89bae25049a34f4a9072d398537b1ab2425f24cbed005f6001613d8285611af5565b613d8c9190614556565b6001600160a01b039094165f9081526020838152604080832087845282528083208690559482526001909301909252502055565b6001600160a01b038216613e02576040517f64a0ae920000000000000000000000000000000000000000000000000000000081525f6004820152602401610997565b5f613e0e83835f612a7a565b90506001600160a01b03811615611819576040517f73c6ac6e0000000000000000000000000000000000000000000000000000000081525f6004820152602401610997565b613e5e838383613ee9565b611819576001600160a01b038316613ea5576040517f7e27328900000000000000000000000000000000000000000000000000000000815260048101829052602401610997565b6040517f177e802f0000000000000000000000000000000000000000000000000000000081526001600160a01b038316600482015260248101829052604401610997565b5f6001600160a01b03831615801590612a865750826001600160a01b0316846001600160a01b03161480613f6057506001600160a01b038085165f9081527f80bb2b638cc20bc4d0a60d66940f3ab4a00c1d7b313497ca82fb0b4ab0079305602090815260408083209387168352929052205460ff165b80612a865750505f9081527f80bb2b638cc20bc4d0a60d66940f3ab4a00c1d7b313497ca82fb0b4ab007930460205260409020546001600160a01b03908116911614919050565b610d7c80614eea83390190565b5f8060408385031215613fc5575f80fd5b50508035926020909101359150565b7fffffffff0000000000000000000000000000000000000000000000000000000081168114612808575f80fd5b5f60208284031215614011575f80fd5b813561114381613fd4565b5f81518084528060208401602086015e5f6020828601015260207fffffffffffffffffffffffffffffffffffffffffffffffffffffffffffffffe0601f83011685010191505092915050565b602081525f611143602083018461401c565b5f805f6060848603121561408c575f80fd5b505081359360208301359350604090920135919050565b5f602082840312156140b3575f80fd5b5035919050565b6001600160a01b0381168114612808575f80fd5b5f80604083850312156140df575f80fd5b82356140ea816140ba565b946020939093013593505050565b5f805f805f60a0868803121561410c575f80fd5b8535614117816140ba565b94506020860135614127816140ba565b93506040860135614137816140ba565b92506060860135614147816140ba565b91506080860135614157816140ba565b809150509295509295909350565b5f805f60608486031215614177575f80fd5b83359250602084013591506040840135614190816140ba565b809150509250925092565b5f805f606084860312156141ad575f80fd5b83356141b8816140ba565b925060208401356141c8816140ba565b929592945050506040919091013590565b5f80604083850312156141ea575f80fd5b8235915060208301356141fc816140ba565b809150509250929050565b5f60208284031215614217575f80fd5b8135611143816140ba565b8015158114612808575f80fd5b5f8060408385031215614240575f80fd5b823561424b816140ba565b915060208301356141fc81614222565b7f4e487b71000000000000000000000000000000000000000000000000000000005f52604160045260245ffd5b604051601f82017fffffffffffffffffffffffffffffffffffffffffffffffffffffffffffffffe016810167ffffffffffffffff811182821017156142cf576142cf61425b565b604052919050565b5f805f80608085870312156142ea575f80fd5b84356142f5816140ba565b93506020850135614305816140ba565b925060408501359150606085013567ffffffffffffffff811115614327575f80fd5b8501601f81018713614337575f80fd5b803567ffffffffffffffff8111156143515761435161425b565b61438260207fffffffffffffffffffffffffffffffffffffffffffffffffffffffffffffffe0601f84011601614288565b818152886020838501011115614396575f80fd5b816020840160208301375f6020838301015280935050505092959194509250565b5f80604083850312156143c8575f80fd5b82356143d3816140ba565b915060208301356141fc816140ba565b5f8082840360808112156143f5575f80fd5b8335925060607fffffffffffffffffffffffffffffffffffffffffffffffffffffffffffffffe082011215614428575f80fd5b506040516060810167ffffffffffffffff8111828210171561444c5761444c61425b565b60409081526020850135825284013560ff81168114614469575f80fd5b60208201526060939093013560408401525092909150565b600181811c9082168061449557607f821691505b6020821081036144cc577f4e487b71000000000000000000000000000000000000000000000000000000005f52602260045260245ffd5b50919050565b7f4e487b71000000000000000000000000000000000000000000000000000000005f52601160045260245ffd5b8082028115828204841417610adc57610adc6144d2565b7f4e487b71000000000000000000000000000000000000000000000000000000005f52601260045260245ffd5b5f8261455157614551614516565b500490565b81810381811115610adc57610adc6144d2565b5f60208284031215614579575f80fd5b5051919050565b80820180821115610adc57610adc6144d2565b6001815b60018411156145ce578085048111156145b2576145b26144d2565b60018416156145c057908102905b60019390931c928002614597565b935093915050565b5f826145e457506001610adc565b816145f057505f610adc565b816001811461460657600281146146105761462c565b6001915050610adc565b60ff841115614621576146216144d2565b50506001821b610adc565b5060208310610133831016604e8410600b841016171561464f575081810a610adc565b61467a7fffffffffffffffffffffffffffffffffffffffffffffffffffffffffffffffff8484614593565b807fffffffffffffffffffffffffffffffffffffffffffffffffffffffffffffffff048211156146ac576146ac6144d2565b029392505050565b5f61114383836145d6565b7f4e487b71000000000000000000000000000000000000000000000000000000005f52603260045260245ffd5b5f602082840312156146fc575f80fd5b815161114381614222565b5f81518060208401855e5f93019283525090919050565b7f7b226e616d65223a2022555350442053746162696c697a65722023000000000081525f61474f601b830187614707565b7f222c20226465736372697074696f6e223a2022555350442053746162696c697a81527f657220506f736974696f6e204e4654222c20000000000000000000000000000060208201527f22696d616765223a2022646174613a696d6167652f7376672b786d6c3b62617360328201527f6536342c0000000000000000000000000000000000000000000000000000000060528201526147f16056820187614707565b90507f222c202261747472696275746573223a205b000000000000000000000000000081527f7b2274726169745f74797065223a2022556e616c6c6f6361746564204554482260128201527f2c202276616c7565223a20220000000000000000000000000000000000000000603282015261486f603e820186614707565b7f227d2c000000000000000000000000000000000000000000000000000000000081527f7b2274726169745f74797065223a20224d696e20436f6c6c61746572616c2052600382019081527f6174696f222c202276616c7565223a20220000000000000000000000000000006023830152915060340161494761491e6148f58388614707565b7f25227d0000000000000000000000000000000000000000000000000000000000815260030190565b7f5d7d000000000000000000000000000000000000000000000000000000000000815260020190565b98975050505050505050565b7f646174613a6170706c69636174696f6e2f6a736f6e3b6261736536342c00000081525f611143601d830184614707565b5f6040828403128015614995575f80fd5b506040805190810167ffffffffffffffff811182821017156149b9576149b961425b565b604052825181526020928301519281019290925250919050565b6001600160a01b03851681526001600160a01b0384166020820152826040820152608060608201525f614a09608083018461401c565b9695505050505050565b5f60208284031215614a23575f80fd5b815161114381613fd4565b5f7fffffffffffffffffffffffffffffffffffffffffffffffffffffffffffffffff8203614a5e57614a5e6144d2565b5060010190565b5f82614a7357614a73614516565b500690565b7f3c73766720786d6c6e733d22687474703a2f2f7777772e77332e6f72672f323081527f30302f737667222077696474683d2234303022206865696768743d223430302260208201527f3e0000000000000000000000000000000000000000000000000000000000000060408201527f3c7374796c653e2e62617365207b2066696c6c3a2077686974653b20666f6e7460418201527f2d66616d696c793a2073657269663b20666f6e742d73697a653a20313470783b60618201527f207d3c2f7374796c653e0000000000000000000000000000000000000000000060818201527f3c726563742077696474683d223130302522206865696768743d223130302522608b8201527f2066696c6c3d22626c61636b222f3e000000000000000000000000000000000060ab8201527f3c7465787420783d223530252220793d223430252220636c6173733d2262617360ba8201527f652220646f6d696e616e742d626173656c696e653d226d6964646c652220746560da8201527f78742d616e63686f723d226d6964646c65223e0000000000000000000000000060fa8201527f53746162696c697a65722023000000000000000000000000000000000000000061010d8201525f612a86614d2a614c5d614d01614cfb614c868361011989018b614707565b7f3c2f746578743e00000000000000000000000000000000000000000000000000815260070190565b7f3c7465787420783d223530252220793d223630252220636c6173733d2262617381527f652220646f6d696e616e742d626173656c696e653d226d6964646c652220746560208201527f78742d616e63686f723d226d6964646c65223e00000000000000000000000000604082015260530190565b87614707565b7f2045544820556e616c6c6f636174656400000000000000000000000000000000815260100190565b7f3c2f7376673e0000000000000000000000000000000000000000000000000000815260060190565b5f61114360ff8416836145d6565b601f82111561181957805f5260205f20601f840160051c81016020851015614d865750805b601f840160051c820191505b8181101561162b575f8155600101614d92565b815167ffffffffffffffff811115614dbf57614dbf61425b565b614dd381614dcd8454614481565b84614d61565b6020601f821160018114614e24575f8315614dee5750848201515b7fffffffffffffffffffffffffffffffffffffffffffffffffffffffffffffffff600385901b1c1916600184901b17845561162b565b5f848152602081207fffffffffffffffffffffffffffffffffffffffffffffffffffffffffffffffe08516915b82811015614e715787850151825560209485019460019092019101614e51565b5084821015614ead57868401517fffffffffffffffffffffffffffffffffffffffffffffffffffffffffffffffff600387901b60f8161c191681555b50505050600190811b01905550565b7f4e487b71000000000000000000000000000000000000000000000000000000005f52603160045260245ffdfe610100604052348015610010575f80fd5b50604051610d7c380380610d7c83398101604081905261002f916100ce565b6001600160a01b038416158061004c57506001600160a01b038316155b8061005e57506001600160a01b038216155b8061007057506001600160a01b038116155b1561008e5760405163d92e233d60e01b815260040160405180910390fd5b6001600160a01b0393841660805291831660a052821660c0521660e0525f805561011f565b80516001600160a01b03811681146100c9575f80fd5b919050565b5f805f80608085870312156100e1575f80fd5b6100ea856100b3565b93506100f8602086016100b3565b9250610106604086016100b3565b9150610114606086016100b3565b905092959194509250565b60805160a05160c05160e051610bec6101905f395f818160cc01526108ea01525f81816102100152818161041a0152818161073b0152610a3701525f818161014a015261070a01525f81816101dd01528181610266015281816104a1015281816105cc01526107fc0152610bec5ff3fe6080604052600436106100b0575f3560e01c8063a901540011610066578063c1fe3e481161004c578063c1fe3e48146101ff578063d0e30db014610232578063ec60b9ab1461023a575f80fd5b8063a9015400146101ad578063bec070d6146101cc575f80fd5b80637d0e9bba116100965780637d0e9bba1461013957806394d81f271461016c578063a18728ec1461018b575f80fd5b806323509a2d146100bb5780634f68ae7514610118575f80fd5b366100b757005b5f80fd5b3480156100c6575f80fd5b506100ee7f000000000000000000000000000000000000000000000000000000000000000081565b60405173ffffffffffffffffffffffffffffffffffffffff90911681526020015b60405180910390f35b348015610123575f80fd5b50610137610132366004610ac3565b61024e565b005b348015610144575f80fd5b506100ee7f000000000000000000000000000000000000000000000000000000000000000081565b348015610177575f80fd5b50610137610186366004610b09565b610489565b348015610196575f80fd5b5061019f5f5481565b60405190815260200161010f565b3480156101b8575f80fd5b506101376101c7366004610b09565b6105b4565b3480156101d7575f80fd5b506100ee7f000000000000000000000000000000000000000000000000000000000000000081565b34801561020a575f80fd5b506100ee7f000000000000000000000000000000000000000000000000000000000000000081565b6101376107e4565b348015610245575f80fd5b5061019f6109f0565b3373ffffffffffffffffffffffffffffffffffffffff7f000000000000000000000000000000000000000000000000000000000000000016146102f2576040517f08c379a000000000000000000000000000000000000000000000000000000000815260206004820152601b60248201527f43616c6c6572206973206e6f742053746162696c697a65724e4654000000000060448201526064015b60405180910390fd5b815f0361032b576040517f1f2a200500000000000000000000000000000000000000000000000000000000815260040160405180910390fd5b73ffffffffffffffffffffffffffffffffffffffff8116610378576040517fd92e233d00000000000000000000000000000000000000000000000000000000815260040160405180910390fd5b6103806109f0565b8211156103b9576040517fb9ad9b2b00000000000000000000000000000000000000000000000000000000815260040160405180910390fd5b815f808282546103c99190610b4d565b90915550506040517f095ea7b300000000000000000000000000000000000000000000000000000000815273ffffffffffffffffffffffffffffffffffffffff8281166004830152602482018490527f0000000000000000000000000000000000000000000000000000000000000000169063095ea7b3906044016020604051808303815f875af1158015610460573d5f803e3d5ffd5b505050506040513d601f19601f820116820180604052508101906104849190610b66565b505050565b3373ffffffffffffffffffffffffffffffffffffffff7f00000000000000000000000000000000000000000000000000000000000000001614610528576040517f08c379a000000000000000000000000000000000000000000000000000000000815260206004820152601b60248201527f43616c6c6572206973206e6f742053746162696c697a65724e4654000000000060448201526064016102e9565b805f03610561576040517f1f2a200500000000000000000000000000000000000000000000000000000000815260040160405180910390fd5b5f5481111561059c576040517f01c21ca900000000000000000000000000000000000000000000000000000000815260040160405180910390fd5b805f808282546105ac9190610b8c565b909155505050565b3373ffffffffffffffffffffffffffffffffffffffff7f00000000000000000000000000000000000000000000000000000000000000001614610653576040517f08c379a000000000000000000000000000000000000000000000000000000000815260206004820152601b60248201527f43616c6c6572206973206e6f742053746162696c697a65724e4654000000000060448201526064016102e9565b805f0361068c576040517f1f2a200500000000000000000000000000000000000000000000000000000000815260040160405180910390fd5b6106946109f0565b8111156106cd576040517fb9ad9b2b00000000000000000000000000000000000000000000000000000000815260040160405180910390fd5b6040517fa9059cbb00000000000000000000000000000000000000000000000000000000815273ffffffffffffffffffffffffffffffffffffffff7f000000000000000000000000000000000000000000000000000000000000000081166004830152602482018390525f917f00000000000000000000000000000000000000000000000000000000000000009091169063a9059cbb906044016020604051808303815f875af1158015610783573d5f803e3d5ffd5b505050506040513d601f19601f820116820180604052508101906107a79190610b66565b9050806107e0576040517f90b8ec1800000000000000000000000000000000000000000000000000000000815260040160405180910390fd5b5050565b3373ffffffffffffffffffffffffffffffffffffffff7f00000000000000000000000000000000000000000000000000000000000000001614610883576040517f08c379a000000000000000000000000000000000000000000000000000000000815260206004820152601b60248201527f43616c6c6572206973206e6f742053746162696c697a65724e4654000000000060448201526064016102e9565b345f036108bc576040517f1f2a200500000000000000000000000000000000000000000000000000000000815260040160405180910390fd5b6040517fa1903eab0000000000000000000000000000000000000000000000000000000081525f60048201527f000000000000000000000000000000000000000000000000000000000000000073ffffffffffffffffffffffffffffffffffffffff169063a1903eab90349060240160206040518083038185885af193505050508015610984575060408051601f3d9081017fffffffffffffffffffffffffffffffffffffffffffffffffffffffffffffffe016820190925261098191810190610b9f565b60015b6109ba576040517f79cacff100000000000000000000000000000000000000000000000000000000815260040160405180910390fd5b506040513481527fa1ab46d0e38f33a7b1f03853088a305927deb55c906370ff5d6d2bc732f150959060200160405180910390a1565b6040517f70a082310000000000000000000000000000000000000000000000000000000081523060048201525f90819073ffffffffffffffffffffffffffffffffffffffff7f000000000000000000000000000000000000000000000000000000000000000016906370a0823190602401602060405180830381865afa158015610a7c573d5f803e3d5ffd5b505050506040513d601f19601f82011682018060405250810190610aa09190610b9f565b9050805f5410610ab1575f91505090565b5f54610abd9082610b8c565b91505090565b5f8060408385031215610ad4575f80fd5b82359150602083013573ffffffffffffffffffffffffffffffffffffffff81168114610afe575f80fd5b809150509250929050565b5f60208284031215610b19575f80fd5b5035919050565b7f4e487b71000000000000000000000000000000000000000000000000000000005f52601160045260245ffd5b80820180821115610b6057610b60610b20565b92915050565b5f60208284031215610b76575f80fd5b81518015158114610b85575f80fd5b9392505050565b81810381811115610b6057610b60610b20565b5f60208284031215610baf575f80fd5b505191905056fea26469706673582212201da6aa8d1532bc385a82334a8fa6d984b9dc7feb253053e394cd5b4785fe1dd864736f6c634300081a00334142434445464748494a4b4c4d4e4f505152535455565758595a6162636465666768696a6b6c6d6e6f707172737475767778797a303132333435363738392b2fa2646970667358221220a904d29fa35d533186cb4f4bb83903dd2eb3b25b2365bb1799044109f54201f864736f6c634300081a0033","linkReferences":{}},"methodIdentifiers":{"DEFAULT_ADMIN_ROLE()":"a217fddf","MINTER_ROLE()":"d5391393","MIN_GAS()":"20d2c951","addUnallocatedFundsEth(uint256)":"f399beb7","addUnallocatedFundsStETH(uint256,uint256)":"bb566297","allocateStabilizerFunds(uint256,uint256,uint256)":"080a8961","approve(address,uint256)":"095ea7b3","balanceOf(address)":"70a08231","getApproved(uint256)":"081812fc","getRoleAdmin(bytes32)":"248a9ca3","grantRole(bytes32,address)":"2f2ff15d","hasRole(bytes32,address)":"91d14854","highestAllocatedId()":"d743fd1e","highestUnallocatedId()":"92133362","initialize(address,address,address,address,address)":"1459457a","isApprovedForAll(address,address)":"e985e9c5","lido()":"23509a2d","lowestAllocatedId()":"2995bc50","lowestUnallocatedId()":"853cad06","mint(address,uint256)":"40c10f19","name()":"06fdde03","ownerOf(uint256)":"6352211e","positionNFT()":"23228ecb","positions(uint256)":"99fbab88","removeUnallocatedFunds(uint256,uint256,address)":"21aebacb","renounceRole(bytes32,address)":"36568abe","revokeRole(bytes32,address)":"d547741f","safeTransferFrom(address,address,uint256)":"42842e0e","safeTransferFrom(address,address,uint256,bytes)":"b88d4fde","setApprovalForAll(address,bool)":"a22cb465","setMinCollateralizationRatio(uint256,uint256)":"01aa0b1a","stETH()":"c1fe3e48","stabilizerEscrows(uint256)":"bba6fd6f","supportsInterface(bytes4)":"01ffc9a7","symbol()":"95d89b41","tokenByIndex(uint256)":"4f6ccce7","tokenOfOwnerByIndex(address,uint256)":"2f745c59","tokenURI(uint256)":"c87b56dd","totalSupply()":"18160ddd","transferFrom(address,address,uint256)":"23b872dd","unallocateStabilizerFunds(uint256,(uint256,uint8,uint256))":"ff70fa64","uspdToken()":"4d0c810b"},"storageLayout":{"storage":[{"astId":51609,"contract":"src/StabilizerNFT.sol:StabilizerNFT","label":"positions","offset":0,"slot":"0","type":"t_mapping(t_uint256,t_struct(StabilizerPosition)51604_storage)"},{"astId":51611,"contract":"src/StabilizerNFT.sol:StabilizerNFT","label":"lowestUnallocatedId","offset":0,"slot":"1","type":"t_uint256"},{"astId":51613,"contract":"src/StabilizerNFT.sol:StabilizerNFT","label":"highestUnallocatedId","offset":0,"slot":"2","type":"t_uint256"},{"astId":51615,"contract":"src/StabilizerNFT.sol:StabilizerNFT","label":"lowestAllocatedId","offset":0,"slot":"3","type":"t_uint256"},{"astId":51617,"contract":"src/StabilizerNFT.sol:StabilizerNFT","label":"highestAllocatedId","offset":0,"slot":"4","type":"t_uint256"},{"astId":51620,"contract":"src/StabilizerNFT.sol:StabilizerNFT","label":"uspdToken","offset":0,"slot":"5","type":"t_contract(USPDToken)54579"},{"astId":51623,"contract":"src/StabilizerNFT.sol:StabilizerNFT","label":"positionNFT","offset":0,"slot":"6","type":"t_contract(IUspdCollateralizedPositionNFT)54836"},{"astId":51625,"contract":"src/StabilizerNFT.sol:StabilizerNFT","label":"stETH","offset":0,"slot":"7","type":"t_address"},{"astId":51627,"contract":"src/StabilizerNFT.sol:StabilizerNFT","label":"lido","offset":0,"slot":"8","type":"t_address"},{"astId":51631,"contract":"src/StabilizerNFT.sol:StabilizerNFT","label":"stabilizerEscrows","offset":0,"slot":"9","type":"t_mapping(t_uint256,t_address)"}],"types":{"t_address":{"encoding":"inplace","label":"address","numberOfBytes":"20"},"t_contract(IUspdCollateralizedPositionNFT)54836":{"encoding":"inplace","label":"contract IUspdCollateralizedPositionNFT","numberOfBytes":"20"},"t_contract(USPDToken)54579":{"encoding":"inplace","label":"contract USPDToken","numberOfBytes":"20"},"t_mapping(t_uint256,t_address)":{"encoding":"mapping","key":"t_uint256","label":"mapping(uint256 => address)","numberOfBytes":"32","value":"t_address"},"t_mapping(t_uint256,t_struct(StabilizerPosition)51604_storage)":{"encoding":"mapping","key":"t_uint256","label":"mapping(uint256 => struct StabilizerNFT.StabilizerPosition)","numberOfBytes":"32","value":"t_struct(StabilizerPosition)51604_storage"},"t_struct(StabilizerPosition)51604_storage":{"encoding":"inplace","label":"struct StabilizerNFT.StabilizerPosition","numberOfBytes":"192","members":[{"astId":51593,"contract":"src/StabilizerNFT.sol:StabilizerNFT","label":"totalEth","offset":0,"slot":"0","type":"t_uint256"},{"astId":51595,"contract":"src/StabilizerNFT.sol:StabilizerNFT","label":"minCollateralRatio","offset":0,"slot":"1","type":"t_uint256"},{"astId":51597,"contract":"src/StabilizerNFT.sol:StabilizerNFT","label":"prevUnallocated","offset":0,"slot":"2","type":"t_uint256"},{"astId":51599,"contract":"src/StabilizerNFT.sol:StabilizerNFT","label":"nextUnallocated","offset":0,"slot":"3","type":"t_uint256"},{"astId":51601,"contract":"src/StabilizerNFT.sol:StabilizerNFT","label":"prevAllocated","offset":0,"slot":"4","type":"t_uint256"},{"astId":51603,"contract":"src/StabilizerNFT.sol:StabilizerNFT","label":"nextAllocated","offset":0,"slot":"5","type":"t_uint256"}]},"t_uint256":{"encoding":"inplace","label":"uint256","numberOfBytes":"32"}}},"id":70}