{"abi":[{"type":"constructor","inputs":[],"stateMutability":"nonpayable"},{"type":"function","name":"DEFAULT_ADMIN_ROLE","inputs":[],"outputs":[{"name":"","type":"bytes32","internalType":"bytes32"}],"stateMutability":"view"},{"type":"function","name":"FACTOR_PRECISION","inputs":[],"outputs":[{"name":"","type":"uint256","internalType":"uint256"}],"stateMutability":"view"},{"type":"function","name":"MINIMUM_UNALLOCATE_COLLATERALIZATION_RATIO","inputs":[],"outputs":[{"name":"","type":"uint256","internalType":"uint256"}],"stateMutability":"view"},{"type":"function","name":"MINTER_ROLE","inputs":[],"outputs":[{"name":"","type":"bytes32","internalType":"bytes32"}],"stateMutability":"view"},{"type":"function","name":"MIN_GAS","inputs":[],"outputs":[{"name":"","type":"uint256","internalType":"uint256"}],"stateMutability":"view"},{"type":"function","name":"POSITION_ESCROW_ROLE","inputs":[],"outputs":[{"name":"","type":"bytes32","internalType":"bytes32"}],"stateMutability":"view"},{"type":"function","name":"UPGRADER_ROLE","inputs":[],"outputs":[{"name":"","type":"bytes32","internalType":"bytes32"}],"stateMutability":"view"},{"type":"function","name":"UPGRADE_INTERFACE_VERSION","inputs":[],"outputs":[{"name":"","type":"string","internalType":"string"}],"stateMutability":"view"},{"type":"function","name":"addUnallocatedFundsEth","inputs":[{"name":"tokenId","type":"uint256","internalType":"uint256"}],"outputs":[],"stateMutability":"payable"},{"type":"function","name":"addUnallocatedFundsStETH","inputs":[{"name":"tokenId","type":"uint256","internalType":"uint256"},{"name":"stETHAmount","type":"uint256","internalType":"uint256"}],"outputs":[],"stateMutability":"nonpayable"},{"type":"function","name":"allocateStabilizerFunds","inputs":[{"name":"ethUsdPrice","type":"uint256","internalType":"uint256"},{"name":"priceDecimals","type":"uint256","internalType":"uint256"}],"outputs":[{"name":"result","type":"tuple","internalType":"struct IStabilizerNFT.AllocationResult","components":[{"name":"allocatedEth","type":"uint256","internalType":"uint256"},{"name":"totalEthEquivalentAdded","type":"uint256","internalType":"uint256"}]}],"stateMutability":"payable"},{"type":"function","name":"approve","inputs":[{"name":"to","type":"address","internalType":"address"},{"name":"tokenId","type":"uint256","internalType":"uint256"}],"outputs":[],"stateMutability":"nonpayable"},{"type":"function","name":"balanceOf","inputs":[{"name":"owner","type":"address","internalType":"address"}],"outputs":[{"name":"","type":"uint256","internalType":"uint256"}],"stateMutability":"view"},{"type":"function","name":"baseURI","inputs":[],"outputs":[{"name":"","type":"string","internalType":"string"}],"stateMutability":"view"},{"type":"function","name":"cuspdToken","inputs":[],"outputs":[{"name":"","type":"address","internalType":"contract IcUSPDToken"}],"stateMutability":"view"},{"type":"function","name":"getApproved","inputs":[{"name":"tokenId","type":"uint256","internalType":"uint256"}],"outputs":[{"name":"","type":"address","internalType":"address"}],"stateMutability":"view"},{"type":"function","name":"getRoleAdmin","inputs":[{"name":"role","type":"bytes32","internalType":"bytes32"}],"outputs":[{"name":"","type":"bytes32","internalType":"bytes32"}],"stateMutability":"view"},{"type":"function","name":"grantRole","inputs":[{"name":"role","type":"bytes32","internalType":"bytes32"},{"name":"account","type":"address","internalType":"address"}],"outputs":[],"stateMutability":"nonpayable"},{"type":"function","name":"hasRole","inputs":[{"name":"role","type":"bytes32","internalType":"bytes32"},{"name":"account","type":"address","internalType":"address"}],"outputs":[{"name":"","type":"bool","internalType":"bool"}],"stateMutability":"view"},{"type":"function","name":"highestAllocatedId","inputs":[],"outputs":[{"name":"","type":"uint256","internalType":"uint256"}],"stateMutability":"view"},{"type":"function","name":"highestUnallocatedId","inputs":[],"outputs":[{"name":"","type":"uint256","internalType":"uint256"}],"stateMutability":"view"},{"type":"function","name":"initialize","inputs":[{"name":"_cuspdToken","type":"address","internalType":"address"},{"name":"_stETH","type":"address","internalType":"address"},{"name":"_lido","type":"address","internalType":"address"},{"name":"_rateContract","type":"address","internalType":"address"},{"name":"_reporterAddress","type":"address","internalType":"address"},{"name":"_insuranceEscrowAddress","type":"address","internalType":"address"},{"name":"_baseURI","type":"string","internalType":"string"},{"name":"_stabilizerEscrowImpl","type":"address","internalType":"address"},{"name":"_positionEscrowImpl","type":"address","internalType":"address"},{"name":"_admin","type":"address","internalType":"address"}],"outputs":[],"stateMutability":"nonpayable"},{"type":"function","name":"insuranceEscrow","inputs":[],"outputs":[{"name":"","type":"address","internalType":"contract IInsuranceEscrow"}],"stateMutability":"view"},{"type":"function","name":"isApprovedForAll","inputs":[{"name":"owner","type":"address","internalType":"address"},{"name":"operator","type":"address","internalType":"address"}],"outputs":[{"name":"","type":"bool","internalType":"bool"}],"stateMutability":"view"},{"type":"function","name":"lido","inputs":[],"outputs":[{"name":"","type":"address","internalType":"address"}],"stateMutability":"view"},{"type":"function","name":"liquidatePosition","inputs":[{"name":"liquidatorTokenId","type":"uint256","internalType":"uint256"},{"name":"positionTokenId","type":"uint256","internalType":"uint256"},{"name":"cuspdSharesToLiquidate","type":"uint256","internalType":"uint256"},{"name":"priceQuery","type":"tuple","internalType":"struct IPriceOracle.PriceAttestationQuery","components":[{"name":"price","type":"uint256","internalType":"uint256"},{"name":"decimals","type":"uint8","internalType":"uint8"},{"name":"dataTimestamp","type":"uint256","internalType":"uint256"},{"name":"assetPair","type":"bytes32","internalType":"bytes32"},{"name":"signature","type":"bytes","internalType":"bytes"}]}],"outputs":[],"stateMutability":"nonpayable"},{"type":"function","name":"liquidationLiquidatorPayoutPercent","inputs":[],"outputs":[{"name":"","type":"uint256","internalType":"uint256"}],"stateMutability":"view"},{"type":"function","name":"lowestAllocatedId","inputs":[],"outputs":[{"name":"","type":"uint256","internalType":"uint256"}],"stateMutability":"view"},{"type":"function","name":"lowestUnallocatedId","inputs":[],"outputs":[{"name":"","type":"uint256","internalType":"uint256"}],"stateMutability":"view"},{"type":"function","name":"mint","inputs":[{"name":"to","type":"address","internalType":"address"}],"outputs":[{"name":"","type":"uint256","internalType":"uint256"}],"stateMutability":"nonpayable"},{"type":"function","name":"name","inputs":[],"outputs":[{"name":"","type":"string","internalType":"string"}],"stateMutability":"view"},{"type":"function","name":"ownerOf","inputs":[{"name":"tokenId","type":"uint256","internalType":"uint256"}],"outputs":[{"name":"","type":"address","internalType":"address"}],"stateMutability":"view"},{"type":"function","name":"positionEscrowImplementation","inputs":[],"outputs":[{"name":"","type":"address","internalType":"address"}],"stateMutability":"view"},{"type":"function","name":"positionEscrows","inputs":[{"name":"","type":"uint256","internalType":"uint256"}],"outputs":[{"name":"","type":"address","internalType":"address"}],"stateMutability":"view"},{"type":"function","name":"positions","inputs":[{"name":"","type":"uint256","internalType":"uint256"}],"outputs":[{"name":"minCollateralRatio","type":"uint256","internalType":"uint256"},{"name":"prevUnallocated","type":"uint256","internalType":"uint256"},{"name":"nextUnallocated","type":"uint256","internalType":"uint256"},{"name":"prevAllocated","type":"uint256","internalType":"uint256"},{"name":"nextAllocated","type":"uint256","internalType":"uint256"}],"stateMutability":"view"},{"type":"function","name":"proxiableUUID","inputs":[],"outputs":[{"name":"","type":"bytes32","internalType":"bytes32"}],"stateMutability":"view"},{"type":"function","name":"rateContract","inputs":[],"outputs":[{"name":"","type":"address","internalType":"contract IPoolSharesConversionRate"}],"stateMutability":"view"},{"type":"function","name":"removeUnallocatedFunds","inputs":[{"name":"tokenId","type":"uint256","internalType":"uint256"},{"name":"stETHAmount","type":"uint256","internalType":"uint256"}],"outputs":[],"stateMutability":"nonpayable"},{"type":"function","name":"renounceRole","inputs":[{"name":"role","type":"bytes32","internalType":"bytes32"},{"name":"callerConfirmation","type":"address","internalType":"address"}],"outputs":[],"stateMutability":"nonpayable"},{"type":"function","name":"reportCollateralAddition","inputs":[{"name":"stEthAmount","type":"uint256","internalType":"uint256"}],"outputs":[],"stateMutability":"nonpayable"},{"type":"function","name":"reportCollateralRemoval","inputs":[{"name":"stEthAmount","type":"uint256","internalType":"uint256"}],"outputs":[],"stateMutability":"nonpayable"},{"type":"function","name":"reporter","inputs":[],"outputs":[{"name":"","type":"address","internalType":"contract IOvercollateralizationReporter"}],"stateMutability":"view"},{"type":"function","name":"revokeRole","inputs":[{"name":"role","type":"bytes32","internalType":"bytes32"},{"name":"account","type":"address","internalType":"address"}],"outputs":[],"stateMutability":"nonpayable"},{"type":"function","name":"safeTransferFrom","inputs":[{"name":"from","type":"address","internalType":"address"},{"name":"to","type":"address","internalType":"address"},{"name":"tokenId","type":"uint256","internalType":"uint256"}],"outputs":[],"stateMutability":"nonpayable"},{"type":"function","name":"safeTransferFrom","inputs":[{"name":"from","type":"address","internalType":"address"},{"name":"to","type":"address","internalType":"address"},{"name":"tokenId","type":"uint256","internalType":"uint256"},{"name":"data","type":"bytes","internalType":"bytes"}],"outputs":[],"stateMutability":"nonpayable"},{"type":"function","name":"setApprovalForAll","inputs":[{"name":"operator","type":"address","internalType":"address"},{"name":"approved","type":"bool","internalType":"bool"}],"outputs":[],"stateMutability":"nonpayable"},{"type":"function","name":"setBaseURI","inputs":[{"name":"newBaseURI","type":"string","internalType":"string"}],"outputs":[],"stateMutability":"nonpayable"},{"type":"function","name":"setInsuranceEscrow","inputs":[{"name":"_insuranceEscrowAddress","type":"address","internalType":"address"}],"outputs":[],"stateMutability":"nonpayable"},{"type":"function","name":"setLiquidationParameters","inputs":[{"name":"_payoutPercent","type":"uint256","internalType":"uint256"}],"outputs":[],"stateMutability":"nonpayable"},{"type":"function","name":"setMinCollateralizationRatio","inputs":[{"name":"tokenId","type":"uint256","internalType":"uint256"},{"name":"newRatio","type":"uint256","internalType":"uint256"}],"outputs":[],"stateMutability":"nonpayable"},{"type":"function","name":"stETH","inputs":[],"outputs":[{"name":"","type":"address","internalType":"address"}],"stateMutability":"view"},{"type":"function","name":"stabilizerEscrowImplementation","inputs":[],"outputs":[{"name":"","type":"address","internalType":"address"}],"stateMutability":"view"},{"type":"function","name":"stabilizerEscrows","inputs":[{"name":"","type":"uint256","internalType":"uint256"}],"outputs":[{"name":"","type":"address","internalType":"address"}],"stateMutability":"view"},{"type":"function","name":"supportsInterface","inputs":[{"name":"interfaceId","type":"bytes4","internalType":"bytes4"}],"outputs":[{"name":"","type":"bool","internalType":"bool"}],"stateMutability":"view"},{"type":"function","name":"symbol","inputs":[],"outputs":[{"name":"","type":"string","internalType":"string"}],"stateMutability":"view"},{"type":"function","name":"tokenByIndex","inputs":[{"name":"index","type":"uint256","internalType":"uint256"}],"outputs":[{"name":"","type":"uint256","internalType":"uint256"}],"stateMutability":"view"},{"type":"function","name":"tokenOfOwnerByIndex","inputs":[{"name":"owner","type":"address","internalType":"address"},{"name":"index","type":"uint256","internalType":"uint256"}],"outputs":[{"name":"","type":"uint256","internalType":"uint256"}],"stateMutability":"view"},{"type":"function","name":"tokenURI","inputs":[{"name":"tokenId","type":"uint256","internalType":"uint256"}],"outputs":[{"name":"","type":"string","internalType":"string"}],"stateMutability":"view"},{"type":"function","name":"totalSupply","inputs":[],"outputs":[{"name":"","type":"uint256","internalType":"uint256"}],"stateMutability":"view"},{"type":"function","name":"transferFrom","inputs":[{"name":"from","type":"address","internalType":"address"},{"name":"to","type":"address","internalType":"address"},{"name":"tokenId","type":"uint256","internalType":"uint256"}],"outputs":[],"stateMutability":"nonpayable"},{"type":"function","name":"unallocateStabilizerFunds","inputs":[{"name":"poolSharesToUnallocate","type":"uint256","internalType":"uint256"},{"name":"priceResponse","type":"tuple","internalType":"struct IPriceOracle.PriceResponse","components":[{"name":"price","type":"uint256","internalType":"uint256"},{"name":"decimals","type":"uint8","internalType":"uint8"},{"name":"timestamp","type":"uint256","internalType":"uint256"}]}],"outputs":[{"name":"unallocatedEth","type":"uint256","internalType":"uint256"}],"stateMutability":"nonpayable"},{"type":"function","name":"upgradeToAndCall","inputs":[{"name":"newImplementation","type":"address","internalType":"address"},{"name":"data","type":"bytes","internalType":"bytes"}],"outputs":[],"stateMutability":"payable"},{"type":"event","name":"Approval","inputs":[{"name":"owner","type":"address","indexed":true,"internalType":"address"},{"name":"approved","type":"address","indexed":true,"internalType":"address"},{"name":"tokenId","type":"uint256","indexed":true,"internalType":"uint256"}],"anonymous":false},{"type":"event","name":"ApprovalForAll","inputs":[{"name":"owner","type":"address","indexed":true,"internalType":"address"},{"name":"operator","type":"address","indexed":true,"internalType":"address"},{"name":"approved","type":"bool","indexed":false,"internalType":"bool"}],"anonymous":false},{"type":"event","name":"FundsAllocated","inputs":[{"name":"tokenId","type":"uint256","indexed":true,"internalType":"uint256"},{"name":"stabilizersAmount","type":"uint256","indexed":false,"internalType":"uint256"},{"name":"usersAmount","type":"uint256","indexed":false,"internalType":"uint256"}],"anonymous":false},{"type":"event","name":"FundsUnallocated","inputs":[{"name":"tokenId","type":"uint256","indexed":true,"internalType":"uint256"},{"name":"userStEthAmount","type":"uint256","indexed":false,"internalType":"uint256"},{"name":"stabilizerStEthAmount","type":"uint256","indexed":false,"internalType":"uint256"}],"anonymous":false},{"type":"event","name":"Initialized","inputs":[{"name":"version","type":"uint64","indexed":false,"internalType":"uint64"}],"anonymous":false},{"type":"event","name":"InsuranceEscrowUpdated","inputs":[{"name":"newInsuranceEscrow","type":"address","indexed":true,"internalType":"address"}],"anonymous":false},{"type":"event","name":"LiquidationParametersUpdated","inputs":[{"name":"newPayoutPercent","type":"uint256","indexed":false,"internalType":"uint256"}],"anonymous":false},{"type":"event","name":"MinCollateralRatioUpdated","inputs":[{"name":"tokenId","type":"uint256","indexed":true,"internalType":"uint256"},{"name":"newRatio","type":"uint256","indexed":false,"internalType":"uint256"}],"anonymous":false},{"type":"event","name":"PositionLiquidated","inputs":[{"name":"positionTokenId","type":"uint256","indexed":true,"internalType":"uint256"},{"name":"liquidator","type":"address","indexed":true,"internalType":"address"},{"name":"liquidatorTokenId","type":"uint256","indexed":false,"internalType":"uint256"},{"name":"cuspdSharesLiquidated","type":"uint256","indexed":false,"internalType":"uint256"},{"name":"stEthPaidToLiquidator","type":"uint256","indexed":false,"internalType":"uint256"},{"name":"priceUsed","type":"uint256","indexed":false,"internalType":"uint256"},{"name":"thresholdUsed","type":"uint256","indexed":false,"internalType":"uint256"}],"anonymous":false},{"type":"event","name":"RoleAdminChanged","inputs":[{"name":"role","type":"bytes32","indexed":true,"internalType":"bytes32"},{"name":"previousAdminRole","type":"bytes32","indexed":true,"internalType":"bytes32"},{"name":"newAdminRole","type":"bytes32","indexed":true,"internalType":"bytes32"}],"anonymous":false},{"type":"event","name":"RoleGranted","inputs":[{"name":"role","type":"bytes32","indexed":true,"internalType":"bytes32"},{"name":"account","type":"address","indexed":true,"internalType":"address"},{"name":"sender","type":"address","indexed":true,"internalType":"address"}],"anonymous":false},{"type":"event","name":"RoleRevoked","inputs":[{"name":"role","type":"bytes32","indexed":true,"internalType":"bytes32"},{"name":"account","type":"address","indexed":true,"internalType":"address"},{"name":"sender","type":"address","indexed":true,"internalType":"address"}],"anonymous":false},{"type":"event","name":"StabilizerPositionCreated","inputs":[{"name":"tokenId","type":"uint256","indexed":true,"internalType":"uint256"},{"name":"owner","type":"address","indexed":true,"internalType":"address"}],"anonymous":false},{"type":"event","name":"Transfer","inputs":[{"name":"from","type":"address","indexed":true,"internalType":"address"},{"name":"to","type":"address","indexed":true,"internalType":"address"},{"name":"tokenId","type":"uint256","indexed":true,"internalType":"uint256"}],"anonymous":false},{"type":"event","name":"UnallocatedFundsAdded","inputs":[{"name":"tokenId","type":"uint256","indexed":true,"internalType":"uint256"},{"name":"asset","type":"address","indexed":false,"internalType":"address"},{"name":"amount","type":"uint256","indexed":false,"internalType":"uint256"}],"anonymous":false},{"type":"event","name":"UnallocatedFundsRemoved","inputs":[{"name":"tokenId","type":"uint256","indexed":true,"internalType":"uint256"},{"name":"amount","type":"uint256","indexed":false,"internalType":"uint256"},{"name":"recipient","type":"address","indexed":true,"internalType":"address"}],"anonymous":false},{"type":"event","name":"Upgraded","inputs":[{"name":"implementation","type":"address","indexed":true,"internalType":"address"}],"anonymous":false},{"type":"error","name":"AccessControlBadConfirmation","inputs":[]},{"type":"error","name":"AccessControlUnauthorizedAccount","inputs":[{"name":"account","type":"address","internalType":"address"},{"name":"neededRole","type":"bytes32","internalType":"bytes32"}]},{"type":"error","name":"AddressEmptyCode","inputs":[{"name":"target","type":"address","internalType":"address"}]},{"type":"error","name":"ERC1967InvalidImplementation","inputs":[{"name":"implementation","type":"address","internalType":"address"}]},{"type":"error","name":"ERC1967NonPayable","inputs":[]},{"type":"error","name":"ERC721EnumerableForbiddenBatchMint","inputs":[]},{"type":"error","name":"ERC721IncorrectOwner","inputs":[{"name":"sender","type":"address","internalType":"address"},{"name":"tokenId","type":"uint256","internalType":"uint256"},{"name":"owner","type":"address","internalType":"address"}]},{"type":"error","name":"ERC721InsufficientApproval","inputs":[{"name":"operator","type":"address","internalType":"address"},{"name":"tokenId","type":"uint256","internalType":"uint256"}]},{"type":"error","name":"ERC721InvalidApprover","inputs":[{"name":"approver","type":"address","internalType":"address"}]},{"type":"error","name":"ERC721InvalidOperator","inputs":[{"name":"operator","type":"address","internalType":"address"}]},{"type":"error","name":"ERC721InvalidOwner","inputs":[{"name":"owner","type":"address","internalType":"address"}]},{"type":"error","name":"ERC721InvalidReceiver","inputs":[{"name":"receiver","type":"address","internalType":"address"}]},{"type":"error","name":"ERC721InvalidSender","inputs":[{"name":"sender","type":"address","internalType":"address"}]},{"type":"error","name":"ERC721NonexistentToken","inputs":[{"name":"tokenId","type":"uint256","internalType":"uint256"}]},{"type":"error","name":"ERC721OutOfBoundsIndex","inputs":[{"name":"owner","type":"address","internalType":"address"},{"name":"index","type":"uint256","internalType":"uint256"}]},{"type":"error","name":"FailedCall","inputs":[]},{"type":"error","name":"FailedDeployment","inputs":[]},{"type":"error","name":"InsufficientBalance","inputs":[{"name":"balance","type":"uint256","internalType":"uint256"},{"name":"needed","type":"uint256","internalType":"uint256"}]},{"type":"error","name":"InvalidInitialization","inputs":[]},{"type":"error","name":"LiquidationNotBelowSystemRatio","inputs":[]},{"type":"error","name":"NotInitializing","inputs":[]},{"type":"error","name":"OvercollateralizationReporterZero","inputs":[]},{"type":"error","name":"SystemUnstableUnallocationNotAllowed","inputs":[]},{"type":"error","name":"UUPSUnauthorizedCallContext","inputs":[]},{"type":"error","name":"UUPSUnsupportedProxiableUUID","inputs":[{"name":"slot","type":"bytes32","internalType":"bytes32"}]},{"type":"error","name":"UnsupportedChainId","inputs":[]}],"bytecode":{"object":"0x60a060405230608052348015610013575f5ffd5b5061001c610021565b6100d3565b7ff0c57e16840df040f15088dc2f81fe391c3923bec73e23a9662efc9c229c6a00805468010000000000000000900460ff16156100715760405163f92ee8a960e01b815260040160405180910390fd5b80546001600160401b03908116146100d05780546001600160401b0319166001600160401b0390811782556040519081527fc7f505b2f371ae2175ee4913f4499e1f2633a7b5936321eed1cdaeb6115181d29060200160405180910390a15b50565b608051615ff86100f95f395f8181613d6501528181613d8e0152613ef10152615ff85ff3fe60806040526004361061039d575f3560e01c80637122bcc3116101de578063b88d4fde11610108578063d743fd1e1161009d578063eee242191161006d578063eee2421914610b10578063f399beb714610b2f578063f72c0d8b14610b42578063ff70fa6414610b75575f5ffd5b8063d743fd1e14610a9e578063d923038914610ab3578063e96d578714610ad2578063e985e9c514610af1575f5ffd5b8063c1fe3e48116100d8578063c1fe3e4814610a0e578063c87b56dd14610a2d578063d539139314610a4c578063d547741f14610a7f575f5ffd5b8063b88d4fde1461097d578063bb5662971461099c578063bba6fd6f146109bb578063bdb35bf2146109ef575f5ffd5b806399fbab881161017e578063a42c69a91161014e578063a42c69a9146108f4578063ad3cb1cc1461090f578063ae88a7791461093f578063b10114d31461095e575f5ffd5b806399fbab881461081e578063a04ad5121461088e578063a217fddf146108c2578063a22cb465146108d5575f5ffd5b80638d7cac7b116101b95780638d7cac7b146107b657806391d14854146107d657806392133362146107f557806395d89b411461080a575f5ffd5b80637122bcc3146107635780637da31f6114610782578063853cad06146107a1575f5ffd5b806339112058116102ca57806355f804b31161025f5780636a6278421161022f5780636a627842146106f25780636bc05b7e146107115780636c0360eb1461073057806370a0823114610744575f5ffd5b806355f804b31461068157806362382f9f146106a05780636352211e146106b457806367bff4a8146106d3575f5ffd5b80634e027fe91161029a5780634e027fe9146106265780634f1ef2861461063b5780634f6ccce71461064e57806352d1902d1461066d575f5ffd5b8063391120581461059b57806342842e0e146105ba578063451fda68146105d95780634d87a1f214610607575f5ffd5b806320d2c951116103405780632995bc50116103105780632995bc50146105295780632f2ff15d1461053e5780632f745c591461055d57806336568abe1461057c575f5ffd5b806320d2c951146104b657806323509a2d146104cc57806323b872dd146104eb578063248a9ca31461050a575f5ffd5b806306fdde031161037b57806306fdde031461042d578063081812fc1461044e578063095ea7b31461046d57806318160ddd1461048c575f5ffd5b8063010ec441146103a157806301aa0b1a146103dd57806301ffc9a7146103fe575b5f5ffd5b3480156103ac575f5ffd5b506006546103c0906001600160a01b031681565b6040516001600160a01b0390911681526020015b60405180910390f35b3480156103e8575f5ffd5b506103fc6103f73660046154c1565b610b94565b005b348015610409575f5ffd5b5061041d6104183660046154f6565b610c8b565b60405190151581526020016103d4565b348015610438575f5ffd5b50610441610c9b565b6040516103d4919061553f565b348015610459575f5ffd5b506103c0610468366004615551565b610d3c565b348015610478575f5ffd5b506103fc61048736600461558c565b610d50565b348015610497575f5ffd5b505f516020615f835f395f51905f52545b6040519081526020016103d4565b3480156104c1575f5ffd5b506104a86203d09081565b3480156104d7575f5ffd5b50600a546103c0906001600160a01b031681565b3480156104f6575f5ffd5b506103fc6105053660046155b6565b610d5f565b348015610515575f5ffd5b506104a8610524366004615551565b610de8565b348015610534575f5ffd5b506104a860035481565b348015610549575f5ffd5b506103fc6105583660046155f4565b610e08565b348015610568575f5ffd5b506104a861057736600461558c565b610e24565b348015610587575f5ffd5b506103fc6105963660046155f4565b610e87565b3480156105a6575f5ffd5b506103fc6105b5366004615551565b610ebf565b3480156105c5575f5ffd5b506103fc6105d43660046155b6565b610f45565b6105ec6105e73660046154c1565b610f5f565b604080518251815260209283015192810192909252016103d4565b348015610612575f5ffd5b506007546103c0906001600160a01b031681565b348015610631575f5ffd5b506104a860085481565b6103fc6106493660046156ed565b611667565b348015610659575f5ffd5b506104a8610668366004615551565b611682565b348015610678575f5ffd5b506104a86116ef565b34801561068c575f5ffd5b506103fc61069b366004615739565b61170a565b3480156106ab575f5ffd5b506104a8606481565b3480156106bf575f5ffd5b506103c06106ce366004615551565b611720565b3480156106de575f5ffd5b506103fc6106ed366004615551565b61172a565b3480156106fd575f5ffd5b506104a861070c36600461576a565b611778565b34801561071c575f5ffd5b506005546103c0906001600160a01b031681565b34801561073b575f5ffd5b50610441611c1a565b34801561074f575f5ffd5b506104a861075e36600461576a565b611ca6565b34801561076e575f5ffd5b506103fc61077d36600461576a565b611cfe565b34801561078d575f5ffd5b50600c546103c0906001600160a01b031681565b3480156107ac575f5ffd5b506104a860015481565b3480156107c1575f5ffd5b506104a85f516020615f435f395f51905f5281565b3480156107e1575f5ffd5b5061041d6107f03660046155f4565b611da8565b348015610800575f5ffd5b506104a860025481565b348015610815575f5ffd5b50610441611dde565b348015610829575f5ffd5b50610866610838366004615551565b5f60208190529081526040902080546001820154600283015460038401546004909401549293919290919085565b604080519586526020860194909452928401919091526060830152608082015260a0016103d4565b348015610899575f5ffd5b506103c06108a8366004615551565b600f6020525f90815260409020546001600160a01b031681565b3480156108cd575f5ffd5b506104a85f81565b3480156108e0575f5ffd5b506103fc6108ef366004615792565b611e1c565b3480156108ff575f5ffd5b506104a8670de0b6b3a764000081565b34801561091a575f5ffd5b50610441604051806040016040528060058152602001640352e302e360dc1b81525081565b34801561094a575f5ffd5b506103fc6109593660046154c1565b611e27565b348015610969575f5ffd5b506103fc610978366004615551565b611fb1565b348015610988575f5ffd5b506103fc6109973660046157be565b612048565b3480156109a7575f5ffd5b506103fc6109b63660046154c1565b612060565b3480156109c6575f5ffd5b506103c06109d5366004615551565b600e6020525f90815260409020546001600160a01b031681565b3480156109fa575f5ffd5b506103fc610a09366004615825565b6121af565b348015610a19575f5ffd5b506009546103c0906001600160a01b031681565b348015610a38575f5ffd5b50610441610a47366004615551565b612fe1565b348015610a57575f5ffd5b506104a87f9f2df0fed2c77648de5860a4cc508cd0818c85b8b8a1ab4ceeef8d981c8956a681565b348015610a8a575f5ffd5b506103fc610a993660046155f4565b61311d565b348015610aa9575f5ffd5b506104a860045481565b348015610abe575f5ffd5b506103fc610acd36600461587e565b613139565b348015610add575f5ffd5b50600d546103c0906001600160a01b031681565b348015610afc575f5ffd5b5061041d610b0b366004615953565b613487565b348015610b1b575f5ffd5b50600b546103c0906001600160a01b031681565b6103fc610b3d366004615551565b6134d3565b348015610b4d575f5ffd5b506104a87f189ab7a9244df0848122154315af71fe140f3db0fe014031783b0946b8c9d2e381565b348015610b80575f5ffd5b506104a8610b8f36600461598d565b6135e9565b33610b9e83611720565b6001600160a01b031614610bcd5760405162461bcd60e51b8152600401610bc4906159ea565b60405180910390fd5b612af88110158015610be25750620186a08111155b610c415760405162461bcd60e51b815260206004820152602a60248201527f526174696f206d757374206265206174206265747765656e203131302e30302560448201526920616e6420313030302560b01b6064820152608401610bc4565b5f8281526020818152604091829020838155915183815284917f948ba262e91565b9caa2284557ddf9a7fb36ee3f00681b4fd1bfaae941e9188f91015b60405180910390a2505050565b5f610c95826139df565b92915050565b5f516020615f235f395f51905f528054606091908190610cba90615a13565b80601f0160208091040260200160405190810160405280929190818152602001828054610ce690615a13565b8015610d315780601f10610d0857610100808354040283529160200191610d31565b820191905f5260205f20905b815481529060010190602001808311610d1457829003601f168201915b505050505091505090565b5f610d4682613a03565b50610c9582613a3a565b610d5b828233613a73565b5050565b6001600160a01b038216610d8857604051633250574960e11b81525f6004820152602401610bc4565b5f610d94838333613a80565b9050836001600160a01b0316816001600160a01b031614610de2576040516364283d7b60e01b81526001600160a01b0380861660048301526024820184905282166044820152606401610bc4565b50505050565b5f9081525f516020615fa35f395f51905f52602052604090206001015490565b610e1182610de8565b610e1a81613a94565b610de28383613aa1565b5f5f516020615f035f395f51905f52610e3c84611ca6565b8310610e5f57838360405163295f44f760e21b8152600401610bc4929190615a4b565b6001600160a01b0384165f908152602091825260408082208583529092522054905092915050565b6001600160a01b0381163314610eb05760405163334bd91960e11b815260040160405180910390fd5b610eba8282613b42565b505050565b5f516020615f435f395f51905f52610ed681613a94565b8115610d5b576006546001600160a01b031663f6ff3ee8610ef684615a78565b6040518263ffffffff1660e01b8152600401610f1491815260200190565b5f604051808303815f87803b158015610f2b575f5ffd5b505af1158015610f3d573d5f5f3e3d5ffd5b505050505050565b610eba83838360405180602001604052805f815250612048565b604080518082019091525f80825260208201526005546001600160a01b03163314610fc25760405162461bcd60e51b815260206004820152601360248201527213db9b1e4818d554d4110818dbdb9d1c9858dd606a1b6044820152606401610bc4565b6001545f0361100a5760405162461bcd60e51b81526020600482015260146024820152734e6f20756e616c6c6f63617465642066756e647360601b6044820152606401610bc4565b5f34116110475760405162461bcd60e51b815260206004820152600b60248201526a139bc8115512081cd95b9d60aa1b6044820152606401610bc4565b600154345b811580159061105a57505f81115b1561157b576203d0905a1061157b575f82815260208181526040808320600e835281842054825163ec60b9ab60e01b8152925191946001600160a01b03909116939092849263ec60b9ab926004808401939192918290030181865afa1580156110c5573d5f5f3e3d5ffd5b505050506040513d601f19601f820116820180604052508101906110e99190615a92565b90508015806110f6575083155b1561110857505060020154915061104c565b5f61271080855f015461111b9190615aa9565b6111259087615abc565b61112f9190615ae7565b90505f82821161113f5781611141565b825b9050858282101561117e57855461115b9061271090615aa9565b61116783612710615abc565b6111719190615ae7565b90508681111561117e5750855b5f888152600f602052604090819020549051634f68ae7560e01b8152600481018490523060248201526001600160a01b0391821691871690634f68ae75906044015f604051808303815f87803b1580156111d6575f5ffd5b505af11580156111e8573d5f5f3e3d5ffd5b50506009546040516323b872dd60e01b81526001600160a01b038a811660048301528581166024830152604482018890525f945090911691506323b872dd906064016020604051808303815f875af1158015611246573d5f5f3e3d5ffd5b505050506040513d601f19601f8201168201806040525081019061126a9190615afa565b9050806112d45760405162461bcd60e51b815260206004820152603260248201527f53746162696c697a6572207374455448207472616e7366657220746f20506f736044820152711a5d1a5bdb915cd8dc9bddc819985a5b195960721b6064820152608401610bc4565b60405163bf3fdde760e01b8152600481018590526001600160a01b0383169063bf3fdde79085906024015f604051808303818588803b158015611315575f5ffd5b505af1158015611327573d5f5f3e3d5ffd5b50505050505f8c600a61133a9190615bf0565b6113448f86615abc565b61134e9190615ae7565b90505f600b5f9054906101000a90046001600160a01b03166001600160a01b031663efa7fa5d6040518163ffffffff1660e01b8152600401602060405180830381865afa1580156113a1573d5f5f3e3d5ffd5b505050506040513d601f19601f820116820180604052508101906113c59190615a92565b90505f81600b5f9054906101000a90046001600160a01b03166001600160a01b031663a42c69a96040518163ffffffff1660e01b8152600401602060405180830381865afa158015611419573d5f5f3e3d5ffd5b505050506040513d601f19601f8201168201806040525081019061143d9190615a92565b6114479085615abc565b6114519190615ae7565b6040516302ff41ff60e21b8152600481018290529091506001600160a01b03861690630bfd07fc906024015f604051808303815f87803b158015611493575f5ffd5b505af11580156114a5573d5f5f3e3d5ffd5b50505050858e5f018181516114ba9190615bfb565b9052506114c7868d615aa9565b6040805189815260208101899052919d508e917fc0a79f21f196b4ee5a242474a85cb9aa5fc2ce59ecc884d7271f1c2bd19b9a13910160405180910390a260038b0154158015611519575060048b0154155b801561152757508c60035414155b15611535576115358d613bbb565b61153f8787615bfb565b8e6020018181516115509190615bfb565b90525060028b0154898803611568576115688e613c9a565b9c5061104c9a5050505050505050505050565b82516115be5760405162461bcd60e51b8152602060048201526012602482015271139bc8199d5b991cc8185b1b1bd8d85d195960721b6044820152606401610bc4565b60208301511561162d576006546020840151604051631edfe7dd60e31b81526001600160a01b039092169163f6ff3ee8916115ff9160040190815260200190565b5f604051808303815f87803b158015611616575f5ffd5b505af1158015611628573d5f5f3e3d5ffd5b505050505b801561165f57604051339082156108fc029083905f818181858888f1935050505015801561165d573d5f5f3e3d5ffd5b505b505092915050565b61166f613d5a565b61167882613e00565b610d5b8282613e2a565b5f5f516020615f035f395f51905f526116a65f516020615f835f395f51905f525490565b83106116c9575f8360405163295f44f760e21b8152600401610bc4929190615a4b565b8060020183815481106116de576116de615c0e565b905f5260205f200154915050919050565b5f6116f8613ee6565b505f516020615f635f395f51905f5290565b5f61171481613a94565b6010610eba8382615c66565b5f610c9582613a03565b5f516020615f435f395f51905f5261174181613a94565b8115610d5b57600654604051631edfe7dd60e31b8152600481018490526001600160a01b039091169063f6ff3ee890602401610f14565b5f4660011415801561178d57504662aa36a714155b156117ab5760405163c08c729760e01b815260040160405180910390fd5b601180545f91826117bb83615d20565b919050559050805f036118105760405162461bcd60e51b815260206004820152601760248201527f546f6b656e2049442063616e6e6f74206265207a65726f0000000000000000006044820152606401610bc4565b6040805160a081018252612af881525f6020808301828152838501838152606085018481526080860185815288865293859052959093209351845551600184015590516002830155915160038201559051600490910155600c546001600160a01b03166118bf5760405162461bcd60e51b815260206004820152601d60248201527f53746162696c697a6572457363726f7720696d706c206e6f74207365740000006044820152606401610bc4565b600d546001600160a01b03166119175760405162461bcd60e51b815260206004820152601b60248201527f506f736974696f6e457363726f7720696d706c206e6f742073657400000000006044820152606401610bc4565b600c545f9061192e906001600160a01b0316613f2f565b90506001600160a01b0381166119865760405162461bcd60e51b815260206004820152601d60248201527f53746162696c697a6572457363726f7720636c6f6e65206661696c65640000006044820152606401610bc4565b600954600a546040516306b0729b60e31b8152306004820152602481018590526001600160a01b03928316604482015290821660648201529082169063358394d8906084015f604051808303815f87803b1580156119e2575f5ffd5b505af11580156119f4573d5f5f3e3d5ffd5b5050505f838152600e6020526040812080546001600160a01b0319166001600160a01b0385811691909117909155600d54919250611a329116613f2f565b90506001600160a01b038116611a8a5760405162461bcd60e51b815260206004820152601b60248201527f506f736974696f6e457363726f7720636c6f6e65206661696c656400000000006044820152606401610bc4565b600954600a54600b54600554604080516307dc0d1d60e41b815290516001600160a01b038781169663cc2a9a5b9630968e9692841695918416949084169390921691637dc0d1d0916004808201926020929091908290030181865afa158015611af5573d5f5f3e3d5ffd5b505050506040513d601f19601f82011682018060405250810190611b199190615d38565b60405160e088901b6001600160e01b03191681526001600160a01b0396871660048201529486166024860152928516604485015290841660648401528316608483015290911660a482015260c4015f604051808303815f87803b158015611b7e575f5ffd5b505af1158015611b90573d5f5f3e3d5ffd5b5050505f848152600f6020526040902080546001600160a01b0319166001600160a01b03841617905550611bd15f516020615f435f395f51905f5282613aa1565b506040516001600160a01b0386169084907f6474509949d7dca0e17a8cf02aeb66814967a3c7adbfefc212edb6e6693b6865905f90a3611c118584613f3a565b50909392505050565b60108054611c2790615a13565b80601f0160208091040260200160405190810160405280929190818152602001828054611c5390615a13565b8015611c9e5780601f10611c7557610100808354040283529160200191611c9e565b820191905f5260205f20905b815481529060010190602001808311611c8157829003601f168201915b505050505081565b5f5f516020615f235f395f51905f526001600160a01b038316611cde576040516322718ad960e21b81525f6004820152602401610bc4565b6001600160a01b039092165f908152600390920160205250604090205490565b5f611d0881613a94565b6001600160a01b038216611d5e5760405162461bcd60e51b815260206004820181905260248201527f5a65726f206164647265737320666f7220496e737572616e6365457363726f776044820152606401610bc4565b600780546001600160a01b0319166001600160a01b0384169081179091556040517fc742eb858a96cf01aa10a0d4654fbd16ec649171aa4f54b3efedcc59b4ec6eb7905f90a25050565b5f9182525f516020615fa35f395f51905f52602090815260408084206001600160a01b0393909316845291905290205460ff1690565b7f80bb2b638cc20bc4d0a60d66940f3ab4a00c1d7b313497ca82fb0b4ab007930180546060915f516020615f235f395f51905f5291610cba90615a13565b610d5b338383613f53565b33611e3183611720565b6001600160a01b031614611e575760405162461bcd60e51b8152600401610bc4906159ea565b5f8111611ea05760405162461bcd60e51b8152602060048201526017602482015276416d6f756e74206d75737420626520706f73697469766560481b6044820152606401610bc4565b5f828152600e602052604090819020549051622a405560ea1b8152600481018390526001600160a01b0390911690819063a9015400906024015f604051808303815f87803b158015611ef0575f5ffd5b505af1158015611f02573d5f5f3e3d5ffd5b50505050806001600160a01b031663ec60b9ab6040518163ffffffff1660e01b8152600401602060405180830381865afa158015611f42573d5f5f3e3d5ffd5b505050506040513d601f19601f82011682018060405250810190611f669190615a92565b5f03611f7557611f7583613c9a565b604051828152339084907f19c1c869dd7473a5f044067f579bac3244509e5680cb0c044bc60f0a8165f5699060200160405180910390a3505050565b5f611fbb81613a94565b606482101561200c5760405162461bcd60e51b815260206004820152601d60248201527f5061796f75742070657263656e74206d757374206265203e3d203130300000006044820152606401610bc4565b60088290556040518281527f6d699ae420033df20638cead3d3195a3de7db60c2f1ee78e9307d46979123a599060200160405180910390a15050565b612053848484610d5f565b610de23385858585614002565b3361206a83611720565b6001600160a01b0316146120905760405162461bcd60e51b8152600401610bc4906159ea565b5f81116120d95760405162461bcd60e51b8152602060048201526017602482015276416d6f756e74206d75737420626520706f73697469766560481b6044820152606401610bc4565b5f828152600e6020526040908190205460095491516323b872dd60e01b81523360048201526001600160a01b0391821660248201819052604482018590529291909116906323b872dd906064016020604051808303815f875af1158015612142573d5f5f3e3d5ffd5b505050506040513d601f19601f820116820180604052508101906121669190615afa565b5061217083614128565b60095460405184917f055b14c7efbc07d692265b907b52ec309741a29408ffad1d871aa6b371ac772991610c7e916001600160a01b0316908690615a4b565b6006546001600160a01b03166121d857604051632e80342960e11b815260040160405180910390fd5b6007546001600160a01b03166122305760405162461bcd60e51b815260206004820152601760248201527f496e737572616e6365457363726f77206e6f74207365740000000000000000006044820152606401610bc4565b5f821161227f5760405162461bcd60e51b815260206004820152601c60248201527f4e6f2063555350442073686172657320746f206c6971756964617465000000006044820152606401610bc4565b5f61228984611720565b6001600160a01b0316036122df5760405162461bcd60e51b815260206004820152601d60248201527f506f736974696f6e20746f6b656e20646f6573206e6f742065786973740000006044820152606401610bc4565b831561235157336122ef85611720565b6001600160a01b0316146123515760405162461bcd60e51b8152602060048201526024808201527f43616c6c657220646f6573206e6f74206f776e206c697175696461746f72207460448201526337b5b2b760e11b6064820152608401610bc4565b5f838152600f602090815260408083205460055482516307dc0d1d60e41b815292516001600160a01b0392831695949190921692637dc0d1d092600480830193928290030181865afa1580156123a9573d5f5f3e3d5ffd5b505050506040513d601f19601f820116820180604052508101906123cd9190615d38565b6001600160a01b03166365ab8c71846040518263ffffffff1660e01b81526004016123f89190615d7b565b6060604051808303815f875af1158015612414573d5f5f3e3d5ffd5b505050506040513d601f19601f820116820180604052508101906124389190615e0a565b90505f6001600160a01b031660055f9054906101000a90046001600160a01b03166001600160a01b0316637dc0d1d06040518163ffffffff1660e01b8152600401602060405180830381865afa158015612494573d5f5f3e3d5ffd5b505050506040513d601f19601f820116820180604052508101906124b89190615d38565b6001600160a01b03160361250e5760405162461bcd60e51b815260206004820152601c60248201527f4f7261636c65206e6f742073657420696e206355535044546f6b656e000000006044820152606401610bc4565b80516125535760405162461bcd60e51b8152602060048201526014602482015273496e76616c6964206f7261636c6520707269636560601b6044820152606401610bc4565b816001600160a01b031663d39aa95a6040518163ffffffff1660e01b8152600401602060405180830381865afa15801561258f573d5f5f3e3d5ffd5b505050506040513d601f19601f820116820180604052508101906125b39190615a92565b8411156126025760405162461bcd60e51b815260206004820152601d60248201527f4e6f7420656e6f7567682073686172657320696e20706f736974696f6e0000006044820152606401610bc4565b5f865f036126135750612af861265f565b6105dc612621600189615aa9565b61262c906032615abc565b1061263a5750612af861265f565b612645600188615aa9565b612650906032615abc565b61265c906130d4615aa9565b90505b6040805163dc607d6f60e01b815283516004820152602084015160ff1660248201529083015160448201525f906001600160a01b0385169063dc607d6f90606401602060405180830381865afa1580156126bb573d5f5f3e3d5ffd5b505050506040513d601f19601f820116820180604052508101906126df9190615a92565b6006549091506001600160a01b0316156127a7576006546040805163b367380760e01b815285516004820152602086015160ff1660248201529085015160448201525f916001600160a01b03169063b367380790606401602060405180830381865afa158015612751573d5f5f3e3d5ffd5b505050506040513d601f19601f820116820180604052508101906127759190615a92565b90505f19811415801561278757508082115b156127a557604051637774a53b60e01b815260040160405180910390fd5b505b8181106128075760405162461bcd60e51b815260206004820152602860248201527f506f736974696f6e206e6f742062656c6f77206c69717569646174696f6e20746044820152671a1c995cda1bdb1960c21b6064820152608401610bc4565b6005546040516323b872dd60e01b8152336004820152306024820152604481018890526001600160a01b03909116906323b872dd906064016020604051808303815f875af115801561285b573d5f5f3e3d5ffd5b505050506040513d601f19601f8201168201806040525081019061287f9190615afa565b50600554604051630852cd8d60e31b8152600481018890526001600160a01b03909116906342966c68906024015f604051808303815f87803b1580156128c3575f5ffd5b505af11580156128d5573d5f5f3e3d5ffd5b50505050836001600160a01b0316630bfd07fc876128f290615a78565b6040518263ffffffff1660e01b815260040161291091815260200190565b5f604051808303815f87803b158015612927575f5ffd5b505af1158015612939573d5f5f3e3d5ffd5b505050505f5f5f600b5f9054906101000a90046001600160a01b03166001600160a01b031663efa7fa5d6040518163ffffffff1660e01b8152600401602060405180830381865afa158015612990573d5f5f3e3d5ffd5b505050506040513d601f19601f820116820180604052508101906129b49190615a92565b116129f85760405162461bcd60e51b815260206004820152601460248201527324b73b30b634b2103cb4b2b632103330b1ba37b960611b6044820152606401610bc4565b845160208601515f9190612a109060ff16600a615bf0565b600b546040805163efa7fa5d60e01b81529051670de0b6b3a7640000926001600160a01b03169163efa7fa5d9160048083019260209291908290030181865afa158015612a5f573d5f5f3e3d5ffd5b505050506040513d601f19601f82011682018060405250810190612a839190615a92565b612a8d908d615abc565b612a979190615ae7565b612aa19190615abc565b612aab9190615ae7565b90505f612710612abb8684615abc565b612ac59190615ae7565b90505f606460085484612ad89190615abc565b612ae29190615ae7565b9050808210612ca257604051636a0eee4b60e11b8152600481018290523360248201526001600160a01b038a169063d41ddc96906044015f604051808303815f87803b158015612b30575f5ffd5b505af1158015612b42573d5f5f3e3d5ffd5b505050508094508093505f8183612b599190615aa9565b90508015612c9c57604051636a0eee4b60e11b8152600481018290523060248201526001600160a01b038b169063d41ddc96906044015f604051808303815f87803b158015612ba6575f5ffd5b505af1158015612bb8573d5f5f3e3d5ffd5b505060095460075460405163095ea7b360e01b81526001600160a01b03928316945063095ea7b39350612bf392909116908590600401615a4b565b6020604051808303815f875af1158015612c0f573d5f5f3e3d5ffd5b505050506040513d601f19601f82011682018060405250810190612c339190615afa565b5060075460405163de5d64f160e01b8152600481018390526001600160a01b039091169063de5d64f1906024015f604051808303815f87803b158015612c77575f5ffd5b505af1158015612c89573d5f5f3e3d5ffd5b505050508085612c999190615bfb565b94505b50612e20565b8115612d0a57604051636a0eee4b60e11b8152600481018390523360248201526001600160a01b038a169063d41ddc96906044015f604051808303815f87803b158015612ced575f5ffd5b505af1158015612cff573d5f5f3e3d5ffd5b505050508194508193505b81811115612e20575f612d1d8383615aa9565b90505f60075f9054906101000a90046001600160a01b03166001600160a01b0316635b73e7c16040518163ffffffff1660e01b8152600401602060405180830381865afa158015612d70573d5f5f3e3d5ffd5b505050506040513d601f19601f82011682018060405250810190612d949190615a92565b90505f818311612da45782612da6565b815b90508015612e1c5760075460405163df6e697360e01b81526001600160a01b039091169063df6e697390612de09033908590600401615a4b565b5f604051808303815f87803b158015612df7575f5ffd5b505af1158015612e09573d5f5f3e3d5ffd5b505050508088612e199190615bfb565b97505b5050505b505082159050612e90576006546001600160a01b031663f6ff3ee8612e4484615a78565b6040518263ffffffff1660e01b8152600401612e6291815260200190565b5f604051808303815f87803b158015612e79575f5ffd5b505af1158015612e8b573d5f5f3e3d5ffd5b505050505b856001600160a01b031663d39aa95a6040518163ffffffff1660e01b8152600401602060405180830381865afa158015612ecc573d5f5f3e3d5ffd5b505050506040513d601f19601f82011682018060405250810190612ef09190615a92565b5f03612f8157612eff89614261565b5f898152600e6020908152604080832054815163ec60b9ab60e01b815291516001600160a01b039091169263ec60b9ab92600480820193918290030181865afa158015612f4e573d5f5f3e3d5ffd5b505050506040513d601f19601f82011682018060405250810190612f729190615a92565b1115612f8157612f8189614128565b8451604080518c8152602081018b90528082018590526060810192909252608082018690525133918b917f24aaf4a2f68438b7af08d0aaef7dc8a282760bb7f08650b31217587b15cd61589181900360a00190a350505050505050505050565b60605f612fed83611720565b6001600160a01b0316036130435760405162461bcd60e51b815260206004820152601860248201527f4552433732313a20696e76616c696420746f6b656e20494400000000000000006044820152606401610bc4565b5f6010805461305190615a13565b80601f016020809104026020016040519081016040528092919081815260200182805461307d90615a13565b80156130c85780601f1061309f576101008083540402835291602001916130c8565b820191905f5260205f20905b8154815290600101906020018083116130ab57829003601f168201915b505050505090505f8151116130eb5760405180602001604052805f815250613116565b806130f584614321565b604051602001613106929190615e65565b6040516020818303038152906040525b9392505050565b61312682610de8565b61312f81613a94565b610de28383613b42565b5f61314261441d565b805490915060ff600160401b82041615906001600160401b03165f811580156131685750825b90505f826001600160401b031660011480156131835750303b155b905081158015613191575080155b156131af5760405163f92ee8a960e01b815260040160405180910390fd5b845467ffffffffffffffff1916600117855583156131d957845460ff60401b1916600160401b1785555b6132276040518060400160405280600f81526020016e2aa9a8221029ba30b134b634bd32b960891b81525060405180604001604052806005815260200164555350445360d81b815250614445565b61322f614457565b613237614457565b61323f614457565b6132495f87613aa1565b506132747f189ab7a9244df0848122154315af71fe140f3db0fe014031783b0946b8c9d2e387613aa1565b508e60055f6101000a8154816001600160a01b0302191690836001600160a01b031602179055508d60095f6101000a8154816001600160a01b0302191690836001600160a01b031602179055508c600a5f6101000a8154816001600160a01b0302191690836001600160a01b031602179055508b600b5f6101000a8154816001600160a01b0302191690836001600160a01b031602179055508a60065f6101000a8154816001600160a01b0302191690836001600160a01b031602179055505f6001600160a01b03168a6001600160a01b0316036133a35760405162461bcd60e51b815260206004820152602660248201527f496e737572616e6365457363726f7720616464726573732063616e6e6f74206260448201526565207a65726f60d01b6064820152608401610bc4565b600780546001600160a01b0319166001600160a01b038c169081179091556040517fc742eb858a96cf01aa10a0d4654fbd16ec649171aa4f54b3efedcc59b4ec6eb7905f90a260106133f58a82615c66565b50600c80546001600160a01b03808b166001600160a01b031992831617909255600d8054928a169290911691909117905560696008556001601155831561347657845460ff60401b19168555604051600181527fc7f505b2f371ae2175ee4913f4499e1f2633a7b5936321eed1cdaeb6115181d29060200160405180910390a15b505050505050505050505050505050565b6001600160a01b039182165f9081527f80bb2b638cc20bc4d0a60d66940f3ab4a00c1d7b313497ca82fb0b4ab00793056020908152604080832093909416825291909152205460ff1690565b336134dd82611720565b6001600160a01b0316146135035760405162461bcd60e51b8152600401610bc4906159ea565b5f34116135405760405162461bcd60e51b815260206004820152600b60248201526a139bc8115512081cd95b9d60aa1b6044820152606401610bc4565b5f818152600e6020526040808220548151630d0e30db60e41b815291516001600160a01b039091169263d0e30db09234926004808301939282900301818588803b15801561358c575f5ffd5b505af115801561359e573d5f5f3e3d5ffd5b50505050506135ac81614128565b807f055b14c7efbc07d692265b907b52ec309741a29408ffad1d871aa6b371ac77295f346040516135de929190615a4b565b60405180910390a250565b6005545f906001600160a01b0316331461363b5760405162461bcd60e51b815260206004820152601360248201527213db9b1e4818d554d4110818dbdb9d1c9858dd606a1b6044820152606401610bc4565b6004545f036136815760405162461bcd60e51b81526020600482015260126024820152714e6f20616c6c6f63617465642066756e647360701b6044820152606401610bc4565b6006546001600160a01b03161561373a576006546040805163b367380760e01b815284516004820152602085015160ff1660248201529084015160448201525f916001600160a01b03169063b367380790606401602060405180830381865afa1580156136f0573d5f5f3e3d5ffd5b505050506040513d601f19601f820116820180604052508101906137149190615a92565b905060648110156137385760405163a3c8cf1560e01b815260040160405180910390fd5b505b600454835f805b831580159061374f57505f83115b15613923576203d0905a10613923575f848152602081815260408083206003810154600f84528285205483516369cd54ad60e11b81529351929591946001600160a01b03909116939192849263d39aa95a9260048083019391928290030181865afa1580156137c0573d5f5f3e3d5ffd5b505050506040513d601f19601f820116820180604052508101906137e49190615a92565b90508015613917575f8188116137fa57876137fc565b815b90508015613915575f6138118a85848f61445f565b80519091506138209089615bfb565b97508060400151876138329190615bfb565b96508183036138c6576138448a614261565b5f8a8152600e6020908152604080832054815163ec60b9ab60e01b815291516001600160a01b039091169263ec60b9ab92600480820193918290030181865afa158015613893573d5f5f3e3d5ffd5b505050506040513d601f19601f820116820180604052508101906138b79190615a92565b11156138c6576138c68a614128565b6138d0828a615aa9565b81516020808401516040805193845291830152919a508b917f7bd51af63c72ca163b2d37a37219fbdda7a4c3803f69ed76e3948078619a32f9910160405180910390a2505b505b82975050505050613741565b5f82116139695760405162461bcd60e51b8152602060048201526014602482015273139bc8199d5b991cc81d5b985b1b1bd8d85d195960621b6044820152606401610bc4565b80156139d5576006546001600160a01b031663f6ff3ee861398983615a78565b6040518263ffffffff1660e01b81526004016139a791815260200190565b5f604051808303815f87803b1580156139be575f5ffd5b505af11580156139d0573d5f5f3e3d5ffd5b505050505b5095945050505050565b5f6001600160e01b03198216637965db0b60e01b1480610c955750610c9582614895565b5f5f613a0e836148b9565b90506001600160a01b038116610c9557604051637e27328960e01b815260048101849052602401610bc4565b5f9081527f80bb2b638cc20bc4d0a60d66940f3ab4a00c1d7b313497ca82fb0b4ab007930460205260409020546001600160a01b031690565b610eba83838360016148f2565b5f613a8c848484614a05565b949350505050565b613a9e8133614afb565b50565b5f5f516020615fa35f395f51905f52613aba8484611da8565b613b39575f848152602082815260408083206001600160a01b03871684529091529020805460ff19166001179055613aef3390565b6001600160a01b0316836001600160a01b0316857f2f8788117e7eff1d82e926ec794901d17c78024a50270940304540a733656f0d60405160405180910390a46001915050610c95565b5f915050610c95565b5f5f516020615fa35f395f51905f52613b5b8484611da8565b15613b39575f848152602082815260408083206001600160a01b0387168085529252808320805460ff1916905551339287917ff6391f5c32d9c69d2a47ea670b442974b53935d1edc7fd64eb21e047a839171b9190a46001915050610c95565b6003541580613bca5750600454155b15613bd9576003819055600455565b600454811115613c0757600480545f8381526020819052604080822060030183905591815220810182905555565b600354811015613c3557600380545f8381526020819052604080822060040183905591815220810182905555565b6003545b8015801590613c4757508181105b15613c62575f90815260208190526040902060040154613c39565b5f8181526020819052604080822060039081018054868552838520928301819055600492830186905584529183200184905591905255565b5f81815260208190526040902060015482148015613cb9575060025482145b15613ccc575f6001819055600255613d49565b6001548203613cf357600281015460018181555f9182526020829052604082200155613d49565b6002548203613d1a57600181015460028181555f9182526020829052604082200155613d49565b600180820154600280840180545f90815260208190526040808220909501849055905492815292909220909101555b5f6002820181905560019091015550565b306001600160a01b037f0000000000000000000000000000000000000000000000000000000000000000161480613de057507f00000000000000000000000000000000000000000000000000000000000000006001600160a01b0316613dd45f516020615f635f395f51905f52546001600160a01b031690565b6001600160a01b031614155b15613dfe5760405163703e46dd60e11b815260040160405180910390fd5b565b7f189ab7a9244df0848122154315af71fe140f3db0fe014031783b0946b8c9d2e3610d5b81613a94565b816001600160a01b03166352d1902d6040518163ffffffff1660e01b8152600401602060405180830381865afa925050508015613e84575060408051601f3d908101601f19168201909252613e8191810190615a92565b60015b613eac57604051634c9c8ce360e01b81526001600160a01b0383166004820152602401610bc4565b5f516020615f635f395f51905f528114613edc57604051632a87526960e21b815260048101829052602401610bc4565b610eba8383614b26565b306001600160a01b037f00000000000000000000000000000000000000000000000000000000000000001614613dfe5760405163703e46dd60e11b815260040160405180910390fd5b5f610c95825f614b7b565b610d5b828260405180602001604052805f815250614c0f565b5f516020615f235f395f51905f526001600160a01b038316613f9357604051630b61174360e31b81526001600160a01b0384166004820152602401610bc4565b6001600160a01b038481165f818152600584016020908152604080832094881680845294825291829020805460ff191687151590811790915591519182527f17307eab39ab6107e8899845ad3d59bd9653f200f220920489ca2b5937696c31910160405180910390a350505050565b6001600160a01b0383163b1561412157604051630a85bd0160e11b81526001600160a01b0384169063150b7a0290614044908890889087908790600401615e79565b6020604051808303815f875af192505050801561407e575060408051601f3d908101601f1916820190925261407b91810190615eb5565b60015b6140e5573d8080156140ab576040519150601f19603f3d011682016040523d82523d5f602084013e6140b0565b606091505b5080515f036140dd57604051633250574960e11b81526001600160a01b0385166004820152602401610bc4565b805181602001fd5b6001600160e01b03198116630a85bd0160e11b14610f3d57604051633250574960e11b81526001600160a01b0385166004820152602401610bc4565b5050505050565b5f818152602081905260409020600181015415801561414957506002810154155b801561415757508160015414155b15610d5b576001545f0361417057506001819055600255565b60025482111561419d57600280546001929092018290555f91825260208290526040909120810182905555565b6001548210156141ca57600180546002929092018290555f91825260208290526040909120810182905555565b6001545b5f81815260208190526040902060020154158015906141fc57505f8181526020819052604090206002015483115b15614217575f908152602081905260409020600201546141ce565b5f81815260208190526040902060029081018054600185018490559184018290558490558015614259575f818152602081905260409020600101849055610de2565b505050600255565b5f81815260208190526040902060035482148015614280575060045482145b15614293575f6003819055600455614310565b60035482036142ba57600481015460038181555f9182526020829052604082200155614310565b60045482036142e157600381015460048181555f9182526020829052604082200155614310565b600380820154600480840180545f90815260208190526040808220909501849055905492815292909220909101555b5f6004820181905560039091015550565b6060815f036143475750506040805180820190915260018152600360fc1b602082015290565b815f5b8115614370578061435a81615d20565b91506143699050600a83615ae7565b915061434a565b5f816001600160401b0381111561438957614389615622565b6040519080825280601f01601f1916602001820160405280156143b3576020820181803683370190505b5090505b8415613a8c576143c8600183615aa9565b91506143d5600a86615ed0565b6143e0906030615bfb565b60f81b8183815181106143f5576143f5615c0e565b60200101906001600160f81b03191690815f1a905350614416600a86615ae7565b94506143b7565b5f807ff0c57e16840df040f15088dc2f81fe391c3923bec73e23a9662efc9c229c6a00610c95565b61444d614c26565b610d5b8282614c4b565b613dfe614c26565b61448060405180606001604052805f81526020015f81526020015f81525090565b5f5f61448d868686614c7b565b91509150856001600160a01b0316630bfd07fc866144aa90615a78565b6040518263ffffffff1660e01b81526004016144c891815260200190565b5f604051808303815f87803b1580156144df575f5ffd5b505af11580156144f1573d5f5f3e3d5ffd5b505050505f81831061451b5781845261450a8284615aa9565b602085015260408401839052614654565b8284525f6145298484615aa9565b90505f8111801561454457506007546001600160a01b031615155b156146435760075460408051635b73e7c160e01b815290515f926001600160a01b031691635b73e7c19160048083019260209291908290030181865afa158015614590573d5f5f3e3d5ffd5b505050506040513d601f19601f820116820180604052508101906145b49190615a92565b90508082116145c357816145c5565b805b925082156146415760075460405163df6e697360e01b81526001600160a01b039091169063df6e6973906145ff9030908790600401615a4b565b5f604051808303815f87803b158015614616575f5ffd5b505af1158015614628573d5f5f3e3d5ffd5b5050505082865f0181815161463d9190615bfb565b9052505b505b61464d8285615bfb565b6040860152505b82156146b657604051636a0eee4b60e11b8152600481018490523060248201526001600160a01b0388169063d41ddc96906044015f604051808303815f87803b15801561469f575f5ffd5b505af11580156146b1573d5f5f3e3d5ffd5b505050505b83511561479057600954600554855160405163a9059cbb60e01b81526001600160a01b039384169363a9059cbb936146f393911691600401615a4b565b6020604051808303815f875af115801561470f573d5f5f3e3d5ffd5b505050506040513d601f19601f820116820180604052508101906147339190615afa565b6147905760405162461bcd60e51b815260206004820152602860248201527f55736572207374455448207472616e7366657220746f206355535044546f6b656044820152671b8819985a5b195960c21b6064820152608401610bc4565b60208401511561488a576009545f898152600e60209081526040918290205490870151915163a9059cbb60e01b81526001600160a01b039384169363a9059cbb936147e19390911691600401615a4b565b6020604051808303815f875af11580156147fd573d5f5f3e3d5ffd5b505050506040513d601f19601f820116820180604052508101906148219190615afa565b61488a5760405162461bcd60e51b815260206004820152603460248201527f53746162696c697a6572207374455448207472616e7366657220746f20537461604482015273189a5b1a5e995c915cd8dc9bddc819985a5b195960621b6064820152608401610bc4565b505050949350505050565b5f6001600160e01b0319821663780e9d6360e01b1480610c955750610c9582614f07565b5f9081527f80bb2b638cc20bc4d0a60d66940f3ab4a00c1d7b313497ca82fb0b4ab007930260205260409020546001600160a01b031690565b5f516020615f235f395f51905f52818061491457506001600160a01b03831615155b156149d5575f61492385613a03565b90506001600160a01b0384161580159061494f5750836001600160a01b0316816001600160a01b031614155b801561496257506149608185613487565b155b1561498b5760405163a9fbf51f60e01b81526001600160a01b0385166004820152602401610bc4565b82156149d35784866001600160a01b0316826001600160a01b03167f8c5be1e5ebec7d5bd14f71427d1e84f3dd0314c0f7b2291e5b200ac8c7c3b92560405160405180910390a45b505b5f93845260040160205250506040902080546001600160a01b0319166001600160a01b0392909216919091179055565b5f5f614a12858585614f56565b90506001600160a01b038116614a9957614a94845f516020615f835f395f51905f5280545f8381527f645e039705490088daad89bae25049a34f4a9072d398537b1ab2425f24cbed0360205260408120829055600182018355919091527fa42f15e5d656f8155fd7419d740a6073999f19cd6e061449ce4a257150545bf20155565b614abc565b846001600160a01b0316816001600160a01b031614614abc57614abc8185615058565b6001600160a01b038516614ad857614ad3846150ef565b613a8c565b846001600160a01b0316816001600160a01b031614613a8c57613a8c85856151bc565b614b058282611da8565b610d5b57808260405163e2517d3f60e01b8152600401610bc4929190615a4b565b614b2f82615214565b6040516001600160a01b038316907fbc7cd75a20ee27fd9adebab32041f755214dbc6bffa90cc0225b39da2e5c2d3b905f90a2805115614b7357610eba8282615277565b610d5b6152e9565b5f81471015614ba65760405163cf47918160e01b815247600482015260248101839052604401610bc4565b763d602d80600a3d3981f3363d3d373d3d3d363d730000008360601b60e81c175f526e5af43d82803e903d91602b57fd5bf38360781b176020526037600983f090506001600160a01b038116610c955760405163b06ebf3d60e01b815260040160405180910390fd5b614c198383615308565b610eba335f858585614002565b614c2e615369565b613dfe57604051631afcd79f60e31b815260040160405180910390fd5b614c53614c26565b5f516020615f235f395f51905f5280614c6c8482615c66565b5060018101610de28382615c66565b5f5f846001600160a01b031663d39aa95a6040518163ffffffff1660e01b8152600401602060405180830381865afa158015614cb9573d5f5f3e3d5ffd5b505050506040513d601f19601f82011682018060405250810190614cdd9190615a92565b5f03614ced57505f905080614eff565b600b546040805163efa7fa5d60e01b815290515f926001600160a01b03169163efa7fa5d9160048083019260209291908290030181865afa158015614d34573d5f5f3e3d5ffd5b505050506040513d601f19601f82011682018060405250810190614d589190615a92565b90505f600b5f9054906101000a90046001600160a01b03166001600160a01b031663a42c69a96040518163ffffffff1660e01b8152600401602060405180830381865afa158015614dab573d5f5f3e3d5ffd5b505050506040513d601f19601f82011682018060405250810190614dcf9190615a92565b614dd98388615abc565b614de39190615ae7565b8551909150614e345760405162461bcd60e51b815260206004820152601b60248201527f4f7261636c652070726963652063616e6e6f74206265207a65726f00000000006044820152606401610bc4565b84516020860151614e499060ff16600a615bf0565b614e539083615abc565b614e5d9190615ae7565b6040805163dc607d6f60e01b815287516004820152602088015160ff1660248201529087015160448201529093505f906001600160a01b0389169063dc607d6f90606401602060405180830381865afa158015614ebc573d5f5f3e3d5ffd5b505050506040513d601f19601f82011682018060405250810190614ee09190615a92565b9050612710614eef8286615abc565b614ef99190615ae7565b94505050505b935093915050565b5f6001600160e01b031982166380ac58cd60e01b1480614f3757506001600160e01b03198216635b5e139f60e01b145b80610c9557506301ffc9a760e01b6001600160e01b0319831614610c95565b5f5f516020615f235f395f51905f5281614f6f856148b9565b90506001600160a01b03841615614f8b57614f8b818587615382565b6001600160a01b03811615614fc757614fa65f865f5f6148f2565b6001600160a01b0381165f908152600383016020526040902080545f190190555b6001600160a01b03861615614ff7576001600160a01b0386165f9081526003830160205260409020805460010190555b5f85815260028301602052604080822080546001600160a01b0319166001600160a01b038a811691821790925591518893918516917fddf252ad1be2c89b69c2b068fc378daa952ba7f163c4a11628f55a4df523b3ef91a495945050505050565b5f516020615f035f395f51905f525f61507084611ca6565b5f8481526001840160209081526040808320546001600160a01b038916845291869052909120919250908183146150c8575f838152602082815260408083205485845281842081905583526001870190915290208290555b5f948552600190930160209081526040808620869055928552929092528220919091555050565b5f516020615f835f395f51905f52545f516020615f035f395f51905f52905f9061511b90600190615aa9565b5f84815260038401602052604081205460028501805493945090928490811061514657615146615c0e565b905f5260205f20015490508084600201838154811061516757615167615c0e565b5f918252602080832090910192909255828152600386019091526040808220849055868252812055600284018054806151a2576151a2615ee3565b600190038181905f5260205f20015f905590555050505050565b5f516020615f035f395f51905f525f60016151d685611ca6565b6151e09190615aa9565b6001600160a01b039094165f9081526020838152604080832087845282528083208690559482526001909301909252502055565b806001600160a01b03163b5f0361524957604051634c9c8ce360e01b81526001600160a01b0382166004820152602401610bc4565b5f516020615f635f395f51905f5280546001600160a01b0319166001600160a01b0392909216919091179055565b60605f5f846001600160a01b0316846040516152939190615ef7565b5f60405180830381855af49150503d805f81146152cb576040519150601f19603f3d011682016040523d82523d5f602084013e6152d0565b606091505b50915091506152e08583836153d8565b95945050505050565b3415613dfe5760405163b398979f60e01b815260040160405180910390fd5b6001600160a01b03821661533157604051633250574960e11b81525f6004820152602401610bc4565b5f61533d83835f613a80565b90506001600160a01b03811615610eba576040516339e3563760e11b81525f6004820152602401610bc4565b5f61537261441d565b54600160401b900460ff16919050565b61538d838383615434565b610eba576001600160a01b0383166153bb57604051637e27328960e01b815260048101829052602401610bc4565b818160405163177e802f60e01b8152600401610bc4929190615a4b565b6060826153ed576153e882615498565b613116565b815115801561540457506001600160a01b0384163b155b1561542d57604051639996b31560e01b81526001600160a01b0385166004820152602401610bc4565b5080613116565b5f6001600160a01b03831615801590613a8c5750826001600160a01b0316846001600160a01b0316148061546d575061546d8484613487565b80613a8c5750826001600160a01b031661548683613a3a565b6001600160a01b031614949350505050565b8051156154a85780518082602001fd5b60405163d6bda27560e01b815260040160405180910390fd5b5f5f604083850312156154d2575f5ffd5b50508035926020909101359150565b6001600160e01b031981168114613a9e575f5ffd5b5f60208284031215615506575f5ffd5b8135613116816154e1565b5f81518084528060208401602086015e5f602082860101526020601f19601f83011685010191505092915050565b602081525f6131166020830184615511565b5f60208284031215615561575f5ffd5b5035919050565b6001600160a01b0381168114613a9e575f5ffd5b803561558781615568565b919050565b5f5f6040838503121561559d575f5ffd5b82356155a881615568565b946020939093013593505050565b5f5f5f606084860312156155c8575f5ffd5b83356155d381615568565b925060208401356155e381615568565b929592945050506040919091013590565b5f5f60408385031215615605575f5ffd5b82359150602083013561561781615568565b809150509250929050565b634e487b7160e01b5f52604160045260245ffd5b604051606081016001600160401b038111828210171561565857615658615622565b60405290565b5f82601f83011261566d575f5ffd5b8135602083015f5f6001600160401b0384111561568c5761568c615622565b50604051601f19601f85018116603f011681018181106001600160401b03821117156156ba576156ba615622565b6040528381529050808284018710156156d1575f5ffd5b838360208301375f602085830101528094505050505092915050565b5f5f604083850312156156fe575f5ffd5b823561570981615568565b915060208301356001600160401b03811115615723575f5ffd5b61572f8582860161565e565b9150509250929050565b5f60208284031215615749575f5ffd5b81356001600160401b0381111561575e575f5ffd5b613a8c8482850161565e565b5f6020828403121561577a575f5ffd5b813561311681615568565b8015158114613a9e575f5ffd5b5f5f604083850312156157a3575f5ffd5b82356157ae81615568565b9150602083013561561781615785565b5f5f5f5f608085870312156157d1575f5ffd5b84356157dc81615568565b935060208501356157ec81615568565b92506040850135915060608501356001600160401b0381111561580d575f5ffd5b6158198782880161565e565b91505092959194509250565b5f5f5f5f60808587031215615838575f5ffd5b84359350602085013592506040850135915060608501356001600160401b03811115615862575f5ffd5b850160a08188031215615873575f5ffd5b939692955090935050565b5f5f5f5f5f5f5f5f5f5f6101408b8d031215615898575f5ffd5b8a356158a381615568565b995060208b01356158b381615568565b985060408b01356158c381615568565b975060608b01356158d381615568565b96506158e160808c0161557c565b95506158ef60a08c0161557c565b945060c08b01356001600160401b03811115615909575f5ffd5b6159158d828e0161565e565b94505061592460e08c0161557c565b92506159336101008c0161557c565b91506159426101208c0161557c565b90509295989b9194979a5092959850565b5f5f60408385031215615964575f5ffd5b823561596f81615568565b9150602083013561561781615568565b60ff81168114613a9e575f5ffd5b5f5f828403608081121561599f575f5ffd5b833592506060601f19820112156159b4575f5ffd5b506159bd615636565b6020840135815260408401356159d28161597f565b60208201526060939093013560408401525092909150565b6020808252600f908201526e2737ba103a37b5b2b71037bbb732b960891b604082015260600190565b600181811c90821680615a2757607f821691505b602082108103615a4557634e487b7160e01b5f52602260045260245ffd5b50919050565b6001600160a01b03929092168252602082015260400190565b634e487b7160e01b5f52601160045260245ffd5b5f600160ff1b8201615a8c57615a8c615a64565b505f0390565b5f60208284031215615aa2575f5ffd5b5051919050565b81810381811115610c9557610c95615a64565b8082028115828204841417610c9557610c95615a64565b634e487b7160e01b5f52601260045260245ffd5b5f82615af557615af5615ad3565b500490565b5f60208284031215615b0a575f5ffd5b815161311681615785565b6001815b6001841115614eff57808504811115615b3457615b34615a64565b6001841615615b4257908102905b60019390931c928002615b19565b5f82615b5e57506001610c95565b81615b6a57505f610c95565b8160018114615b805760028114615b8a57615ba6565b6001915050610c95565b60ff841115615b9b57615b9b615a64565b50506001821b610c95565b5060208310610133831016604e8410600b8410161715615bc9575081810a610c95565b615bd55f198484615b15565b805f1904821115615be857615be8615a64565b029392505050565b5f6131168383615b50565b80820180821115610c9557610c95615a64565b634e487b7160e01b5f52603260045260245ffd5b601f821115610eba57805f5260205f20601f840160051c81016020851015615c475750805b601f840160051c820191505b81811015614121575f8155600101615c53565b81516001600160401b03811115615c7f57615c7f615622565b615c9381615c8d8454615a13565b84615c22565b6020601f821160018114615cc5575f8315615cae5750848201515b5f19600385901b1c1916600184901b178455614121565b5f84815260208120601f198516915b82811015615cf45787850151825560209485019460019092019101615cd4565b5084821015615d1157868401515f19600387901b60f8161c191681555b50505050600190811b01905550565b5f60018201615d3157615d31615a64565b5060010190565b5f60208284031215615d48575f5ffd5b815161311681615568565b81835281816020850137505f828201602090810191909152601f909101601f19169091010190565b60208082528235828201525f90830135615d948161597f565b60ff1660408381019190915283013560608084019190915283013560808084019190915283013536849003601e19018112615dcd575f5ffd5b83016020810190356001600160401b03811115615de8575f5ffd5b803603821315615df6575f5ffd5b60a0808501526152e060c085018284615d53565b5f6060828403128015615e1b575f5ffd5b50615e24615636565b825181526020830151615e368161597f565b60208201526040928301519281019290925250919050565b5f81518060208401855e5f93019283525090919050565b5f613a8c615e738386615e4e565b84615e4e565b6001600160a01b03858116825284166020820152604081018390526080606082018190525f90615eab90830184615511565b9695505050505050565b5f60208284031215615ec5575f5ffd5b8151613116816154e1565b5f82615ede57615ede615ad3565b500690565b634e487b7160e01b5f52603160045260245ffd5b5f6131168284615e4e56fe645e039705490088daad89bae25049a34f4a9072d398537b1ab2425f24cbed0080bb2b638cc20bc4d0a60d66940f3ab4a00c1d7b313497ca82fb0b4ab00793008c21e8ab0c92c4c41f2714adb63619371ca8ed5eb69a6fed79b7d52cdd9703ae360894a13ba1a3210667c828492db98dca3e2076cc3735a920a3ca505d382bbc645e039705490088daad89bae25049a34f4a9072d398537b1ab2425f24cbed0202dd7bc7dec4dceedda775e58dd541e08a116c6c53815c0bd028192f7b626800a2646970667358221220d0c3125b63dbcd25affe1b7a01df7ebae53b82007e4ef589e151e1f639483f5e64736f6c634300081d0033","linkReferences":{}},"methodIdentifiers":{"DEFAULT_ADMIN_ROLE()":"a217fddf","FACTOR_PRECISION()":"a42c69a9","MINIMUM_UNALLOCATE_COLLATERALIZATION_RATIO()":"62382f9f","MINTER_ROLE()":"d5391393","MIN_GAS()":"20d2c951","POSITION_ESCROW_ROLE()":"8d7cac7b","UPGRADER_ROLE()":"f72c0d8b","UPGRADE_INTERFACE_VERSION()":"ad3cb1cc","addUnallocatedFundsEth(uint256)":"f399beb7","addUnallocatedFundsStETH(uint256,uint256)":"bb566297","allocateStabilizerFunds(uint256,uint256)":"451fda68","approve(address,uint256)":"095ea7b3","balanceOf(address)":"70a08231","baseURI()":"6c0360eb","cuspdToken()":"6bc05b7e","getApproved(uint256)":"081812fc","getRoleAdmin(bytes32)":"248a9ca3","grantRole(bytes32,address)":"2f2ff15d","hasRole(bytes32,address)":"91d14854","highestAllocatedId()":"d743fd1e","highestUnallocatedId()":"92133362","initialize(address,address,address,address,address,address,string,address,address,address)":"d9230389","insuranceEscrow()":"4d87a1f2","isApprovedForAll(address,address)":"e985e9c5","lido()":"23509a2d","liquidatePosition(uint256,uint256,uint256,(uint256,uint8,uint256,bytes32,bytes))":"bdb35bf2","liquidationLiquidatorPayoutPercent()":"4e027fe9","lowestAllocatedId()":"2995bc50","lowestUnallocatedId()":"853cad06","mint(address)":"6a627842","name()":"06fdde03","ownerOf(uint256)":"6352211e","positionEscrowImplementation()":"e96d5787","positionEscrows(uint256)":"a04ad512","positions(uint256)":"99fbab88","proxiableUUID()":"52d1902d","rateContract()":"eee24219","removeUnallocatedFunds(uint256,uint256)":"ae88a779","renounceRole(bytes32,address)":"36568abe","reportCollateralAddition(uint256)":"67bff4a8","reportCollateralRemoval(uint256)":"39112058","reporter()":"010ec441","revokeRole(bytes32,address)":"d547741f","safeTransferFrom(address,address,uint256)":"42842e0e","safeTransferFrom(address,address,uint256,bytes)":"b88d4fde","setApprovalForAll(address,bool)":"a22cb465","setBaseURI(string)":"55f804b3","setInsuranceEscrow(address)":"7122bcc3","setLiquidationParameters(uint256)":"b10114d3","setMinCollateralizationRatio(uint256,uint256)":"01aa0b1a","stETH()":"c1fe3e48","stabilizerEscrowImplementation()":"7da31f61","stabilizerEscrows(uint256)":"bba6fd6f","supportsInterface(bytes4)":"01ffc9a7","symbol()":"95d89b41","tokenByIndex(uint256)":"4f6ccce7","tokenOfOwnerByIndex(address,uint256)":"2f745c59","tokenURI(uint256)":"c87b56dd","totalSupply()":"18160ddd","transferFrom(address,address,uint256)":"23b872dd","unallocateStabilizerFunds(uint256,(uint256,uint8,uint256))":"ff70fa64","upgradeToAndCall(address,bytes)":"4f1ef286"},"storageLayout":{"storage":[{"astId":54575,"contract":"src/StabilizerNFT.sol:StabilizerNFT","label":"positions","offset":0,"slot":"0","type":"t_mapping(t_uint256,t_struct(StabilizerPosition)54570_storage)"},{"astId":54577,"contract":"src/StabilizerNFT.sol:StabilizerNFT","label":"lowestUnallocatedId","offset":0,"slot":"1","type":"t_uint256"},{"astId":54579,"contract":"src/StabilizerNFT.sol:StabilizerNFT","label":"highestUnallocatedId","offset":0,"slot":"2","type":"t_uint256"},{"astId":54581,"contract":"src/StabilizerNFT.sol:StabilizerNFT","label":"lowestAllocatedId","offset":0,"slot":"3","type":"t_uint256"},{"astId":54583,"contract":"src/StabilizerNFT.sol:StabilizerNFT","label":"highestAllocatedId","offset":0,"slot":"4","type":"t_uint256"},{"astId":54586,"contract":"src/StabilizerNFT.sol:StabilizerNFT","label":"cuspdToken","offset":0,"slot":"5","type":"t_contract(IcUSPDToken)59383"},{"astId":54589,"contract":"src/StabilizerNFT.sol:StabilizerNFT","label":"reporter","offset":0,"slot":"6","type":"t_contract(IOvercollateralizationReporter)58978"},{"astId":54592,"contract":"src/StabilizerNFT.sol:StabilizerNFT","label":"insuranceEscrow","offset":0,"slot":"7","type":"t_contract(IInsuranceEscrow)58858"},{"astId":54594,"contract":"src/StabilizerNFT.sol:StabilizerNFT","label":"liquidationLiquidatorPayoutPercent","offset":0,"slot":"8","type":"t_uint256"},{"astId":54596,"contract":"src/StabilizerNFT.sol:StabilizerNFT","label":"stETH","offset":0,"slot":"9","type":"t_address"},{"astId":54598,"contract":"src/StabilizerNFT.sol:StabilizerNFT","label":"lido","offset":0,"slot":"10","type":"t_address"},{"astId":54601,"contract":"src/StabilizerNFT.sol:StabilizerNFT","label":"rateContract","offset":0,"slot":"11","type":"t_contract(IPoolSharesConversionRate)59018"},{"astId":54603,"contract":"src/StabilizerNFT.sol:StabilizerNFT","label":"stabilizerEscrowImplementation","offset":0,"slot":"12","type":"t_address"},{"astId":54605,"contract":"src/StabilizerNFT.sol:StabilizerNFT","label":"positionEscrowImplementation","offset":0,"slot":"13","type":"t_address"},{"astId":54609,"contract":"src/StabilizerNFT.sol:StabilizerNFT","label":"stabilizerEscrows","offset":0,"slot":"14","type":"t_mapping(t_uint256,t_address)"},{"astId":54613,"contract":"src/StabilizerNFT.sol:StabilizerNFT","label":"positionEscrows","offset":0,"slot":"15","type":"t_mapping(t_uint256,t_address)"},{"astId":54615,"contract":"src/StabilizerNFT.sol:StabilizerNFT","label":"baseURI","offset":0,"slot":"16","type":"t_string_storage"},{"astId":54617,"contract":"src/StabilizerNFT.sol:StabilizerNFT","label":"_nextTokenId","offset":0,"slot":"17","type":"t_uint256"}],"types":{"t_address":{"encoding":"inplace","label":"address","numberOfBytes":"20"},"t_contract(IInsuranceEscrow)58858":{"encoding":"inplace","label":"contract IInsuranceEscrow","numberOfBytes":"20"},"t_contract(IOvercollateralizationReporter)58978":{"encoding":"inplace","label":"contract IOvercollateralizationReporter","numberOfBytes":"20"},"t_contract(IPoolSharesConversionRate)59018":{"encoding":"inplace","label":"contract IPoolSharesConversionRate","numberOfBytes":"20"},"t_contract(IcUSPDToken)59383":{"encoding":"inplace","label":"contract IcUSPDToken","numberOfBytes":"20"},"t_mapping(t_uint256,t_address)":{"encoding":"mapping","key":"t_uint256","label":"mapping(uint256 => address)","numberOfBytes":"32","value":"t_address"},"t_mapping(t_uint256,t_struct(StabilizerPosition)54570_storage)":{"encoding":"mapping","key":"t_uint256","label":"mapping(uint256 => struct StabilizerNFT.StabilizerPosition)","numberOfBytes":"32","value":"t_struct(StabilizerPosition)54570_storage"},"t_string_storage":{"encoding":"bytes","label":"string","numberOfBytes":"32"},"t_struct(StabilizerPosition)54570_storage":{"encoding":"inplace","label":"struct StabilizerNFT.StabilizerPosition","numberOfBytes":"160","members":[{"astId":54561,"contract":"src/StabilizerNFT.sol:StabilizerNFT","label":"minCollateralRatio","offset":0,"slot":"0","type":"t_uint256"},{"astId":54563,"contract":"src/StabilizerNFT.sol:StabilizerNFT","label":"prevUnallocated","offset":0,"slot":"1","type":"t_uint256"},{"astId":54565,"contract":"src/StabilizerNFT.sol:StabilizerNFT","label":"nextUnallocated","offset":0,"slot":"2","type":"t_uint256"},{"astId":54567,"contract":"src/StabilizerNFT.sol:StabilizerNFT","label":"prevAllocated","offset":0,"slot":"3","type":"t_uint256"},{"astId":54569,"contract":"src/StabilizerNFT.sol:StabilizerNFT","label":"nextAllocated","offset":0,"slot":"4","type":"t_uint256"}]},"t_uint256":{"encoding":"inplace","label":"uint256","numberOfBytes":"32"}}},"id":78}