{"abi":[{"type":"constructor","inputs":[],"stateMutability":"nonpayable"},{"type":"receive","stateMutability":"payable"},{"type":"function","name":"DEFAULT_ADMIN_ROLE","inputs":[],"outputs":[{"name":"","type":"bytes32","internalType":"bytes32"}],"stateMutability":"view"},{"type":"function","name":"MINTER_ROLE","inputs":[],"outputs":[{"name":"","type":"bytes32","internalType":"bytes32"}],"stateMutability":"view"},{"type":"function","name":"MIN_GAS","inputs":[],"outputs":[{"name":"","type":"uint256","internalType":"uint256"}],"stateMutability":"view"},{"type":"function","name":"addUnallocatedFunds","inputs":[{"name":"tokenId","type":"uint256","internalType":"uint256"}],"outputs":[],"stateMutability":"payable"},{"type":"function","name":"allocateStabilizerFunds","inputs":[{"name":"ethAmount","type":"uint256","internalType":"uint256"},{"name":"ethUsdPrice","type":"uint256","internalType":"uint256"},{"name":"priceDecimals","type":"uint256","internalType":"uint256"}],"outputs":[{"name":"result","type":"tuple","internalType":"struct IStabilizerNFT.AllocationResult","components":[{"name":"allocatedEth","type":"uint256","internalType":"uint256"}]}],"stateMutability":"payable"},{"type":"function","name":"approve","inputs":[{"name":"to","type":"address","internalType":"address"},{"name":"tokenId","type":"uint256","internalType":"uint256"}],"outputs":[],"stateMutability":"nonpayable"},{"type":"function","name":"balanceOf","inputs":[{"name":"owner","type":"address","internalType":"address"}],"outputs":[{"name":"","type":"uint256","internalType":"uint256"}],"stateMutability":"view"},{"type":"function","name":"getApproved","inputs":[{"name":"tokenId","type":"uint256","internalType":"uint256"}],"outputs":[{"name":"","type":"address","internalType":"address"}],"stateMutability":"view"},{"type":"function","name":"getRoleAdmin","inputs":[{"name":"role","type":"bytes32","internalType":"bytes32"}],"outputs":[{"name":"","type":"bytes32","internalType":"bytes32"}],"stateMutability":"view"},{"type":"function","name":"grantRole","inputs":[{"name":"role","type":"bytes32","internalType":"bytes32"},{"name":"account","type":"address","internalType":"address"}],"outputs":[],"stateMutability":"nonpayable"},{"type":"function","name":"hasRole","inputs":[{"name":"role","type":"bytes32","internalType":"bytes32"},{"name":"account","type":"address","internalType":"address"}],"outputs":[{"name":"","type":"bool","internalType":"bool"}],"stateMutability":"view"},{"type":"function","name":"highestAllocatedId","inputs":[],"outputs":[{"name":"","type":"uint256","internalType":"uint256"}],"stateMutability":"view"},{"type":"function","name":"highestUnallocatedId","inputs":[],"outputs":[{"name":"","type":"uint256","internalType":"uint256"}],"stateMutability":"view"},{"type":"function","name":"initialize","inputs":[{"name":"_positionNFT","type":"address","internalType":"address"},{"name":"_uspdToken","type":"address","internalType":"address"},{"name":"_admin","type":"address","internalType":"address"}],"outputs":[],"stateMutability":"nonpayable"},{"type":"function","name":"isApprovedForAll","inputs":[{"name":"owner","type":"address","internalType":"address"},{"name":"operator","type":"address","internalType":"address"}],"outputs":[{"name":"","type":"bool","internalType":"bool"}],"stateMutability":"view"},{"type":"function","name":"lowestAllocatedId","inputs":[],"outputs":[{"name":"","type":"uint256","internalType":"uint256"}],"stateMutability":"view"},{"type":"function","name":"lowestUnallocatedId","inputs":[],"outputs":[{"name":"","type":"uint256","internalType":"uint256"}],"stateMutability":"view"},{"type":"function","name":"mint","inputs":[{"name":"to","type":"address","internalType":"address"},{"name":"tokenId","type":"uint256","internalType":"uint256"}],"outputs":[],"stateMutability":"nonpayable"},{"type":"function","name":"name","inputs":[],"outputs":[{"name":"","type":"string","internalType":"string"}],"stateMutability":"view"},{"type":"function","name":"ownerOf","inputs":[{"name":"tokenId","type":"uint256","internalType":"uint256"}],"outputs":[{"name":"","type":"address","internalType":"address"}],"stateMutability":"view"},{"type":"function","name":"positionNFT","inputs":[],"outputs":[{"name":"","type":"address","internalType":"contract IUspdCollateralizedPositionNFT"}],"stateMutability":"view"},{"type":"function","name":"positions","inputs":[{"name":"","type":"uint256","internalType":"uint256"}],"outputs":[{"name":"totalEth","type":"uint256","internalType":"uint256"},{"name":"minCollateralRatio","type":"uint256","internalType":"uint256"},{"name":"prevUnallocated","type":"uint256","internalType":"uint256"},{"name":"nextUnallocated","type":"uint256","internalType":"uint256"},{"name":"prevAllocated","type":"uint256","internalType":"uint256"},{"name":"nextAllocated","type":"uint256","internalType":"uint256"}],"stateMutability":"view"},{"type":"function","name":"removeUnallocatedFunds","inputs":[{"name":"tokenId","type":"uint256","internalType":"uint256"},{"name":"amount","type":"uint256","internalType":"uint256"},{"name":"to","type":"address","internalType":"address payable"}],"outputs":[],"stateMutability":"nonpayable"},{"type":"function","name":"renounceRole","inputs":[{"name":"role","type":"bytes32","internalType":"bytes32"},{"name":"callerConfirmation","type":"address","internalType":"address"}],"outputs":[],"stateMutability":"nonpayable"},{"type":"function","name":"revokeRole","inputs":[{"name":"role","type":"bytes32","internalType":"bytes32"},{"name":"account","type":"address","internalType":"address"}],"outputs":[],"stateMutability":"nonpayable"},{"type":"function","name":"safeTransferFrom","inputs":[{"name":"from","type":"address","internalType":"address"},{"name":"to","type":"address","internalType":"address"},{"name":"tokenId","type":"uint256","internalType":"uint256"}],"outputs":[],"stateMutability":"nonpayable"},{"type":"function","name":"safeTransferFrom","inputs":[{"name":"from","type":"address","internalType":"address"},{"name":"to","type":"address","internalType":"address"},{"name":"tokenId","type":"uint256","internalType":"uint256"},{"name":"data","type":"bytes","internalType":"bytes"}],"outputs":[],"stateMutability":"nonpayable"},{"type":"function","name":"setApprovalForAll","inputs":[{"name":"operator","type":"address","internalType":"address"},{"name":"approved","type":"bool","internalType":"bool"}],"outputs":[],"stateMutability":"nonpayable"},{"type":"function","name":"setMinCollateralizationRatio","inputs":[{"name":"tokenId","type":"uint256","internalType":"uint256"},{"name":"newRatio","type":"uint256","internalType":"uint256"}],"outputs":[],"stateMutability":"nonpayable"},{"type":"function","name":"supportsInterface","inputs":[{"name":"interfaceId","type":"bytes4","internalType":"bytes4"}],"outputs":[{"name":"","type":"bool","internalType":"bool"}],"stateMutability":"view"},{"type":"function","name":"symbol","inputs":[],"outputs":[{"name":"","type":"string","internalType":"string"}],"stateMutability":"view"},{"type":"function","name":"tokenByIndex","inputs":[{"name":"index","type":"uint256","internalType":"uint256"}],"outputs":[{"name":"","type":"uint256","internalType":"uint256"}],"stateMutability":"view"},{"type":"function","name":"tokenOfOwnerByIndex","inputs":[{"name":"owner","type":"address","internalType":"address"},{"name":"index","type":"uint256","internalType":"uint256"}],"outputs":[{"name":"","type":"uint256","internalType":"uint256"}],"stateMutability":"view"},{"type":"function","name":"tokenURI","inputs":[{"name":"tokenId","type":"uint256","internalType":"uint256"}],"outputs":[{"name":"","type":"string","internalType":"string"}],"stateMutability":"view"},{"type":"function","name":"totalSupply","inputs":[],"outputs":[{"name":"","type":"uint256","internalType":"uint256"}],"stateMutability":"view"},{"type":"function","name":"transferFrom","inputs":[{"name":"from","type":"address","internalType":"address"},{"name":"to","type":"address","internalType":"address"},{"name":"tokenId","type":"uint256","internalType":"uint256"}],"outputs":[],"stateMutability":"nonpayable"},{"type":"function","name":"unallocateStabilizerFunds","inputs":[{"name":"uspdAmount","type":"uint256","internalType":"uint256"},{"name":"priceResponse","type":"tuple","internalType":"struct IPriceOracle.PriceResponse","components":[{"name":"price","type":"uint256","internalType":"uint256"},{"name":"decimals","type":"uint8","internalType":"uint8"},{"name":"timestamp","type":"uint256","internalType":"uint256"}]}],"outputs":[{"name":"unallocatedEth","type":"uint256","internalType":"uint256"}],"stateMutability":"nonpayable"},{"type":"function","name":"uspdToken","inputs":[],"outputs":[{"name":"","type":"address","internalType":"contract USPDToken"}],"stateMutability":"view"},{"type":"event","name":"Approval","inputs":[{"name":"owner","type":"address","indexed":true,"internalType":"address"},{"name":"approved","type":"address","indexed":true,"internalType":"address"},{"name":"tokenId","type":"uint256","indexed":true,"internalType":"uint256"}],"anonymous":false},{"type":"event","name":"ApprovalForAll","inputs":[{"name":"owner","type":"address","indexed":true,"internalType":"address"},{"name":"operator","type":"address","indexed":true,"internalType":"address"},{"name":"approved","type":"bool","indexed":false,"internalType":"bool"}],"anonymous":false},{"type":"event","name":"FundsAllocated","inputs":[{"name":"tokenId","type":"uint256","indexed":true,"internalType":"uint256"},{"name":"stabilizersAmount","type":"uint256","indexed":false,"internalType":"uint256"},{"name":"usersAmount","type":"uint256","indexed":false,"internalType":"uint256"},{"name":"positionId","type":"uint256","indexed":false,"internalType":"uint256"}],"anonymous":false},{"type":"event","name":"FundsUnallocated","inputs":[{"name":"tokenId","type":"uint256","indexed":true,"internalType":"uint256"},{"name":"amount","type":"uint256","indexed":false,"internalType":"uint256"},{"name":"positionId","type":"uint256","indexed":false,"internalType":"uint256"}],"anonymous":false},{"type":"event","name":"Initialized","inputs":[{"name":"version","type":"uint64","indexed":false,"internalType":"uint64"}],"anonymous":false},{"type":"event","name":"MinCollateralRatioUpdated","inputs":[{"name":"tokenId","type":"uint256","indexed":true,"internalType":"uint256"},{"name":"oldRatio","type":"uint256","indexed":false,"internalType":"uint256"},{"name":"newRatio","type":"uint256","indexed":false,"internalType":"uint256"}],"anonymous":false},{"type":"event","name":"RoleAdminChanged","inputs":[{"name":"role","type":"bytes32","indexed":true,"internalType":"bytes32"},{"name":"previousAdminRole","type":"bytes32","indexed":true,"internalType":"bytes32"},{"name":"newAdminRole","type":"bytes32","indexed":true,"internalType":"bytes32"}],"anonymous":false},{"type":"event","name":"RoleGranted","inputs":[{"name":"role","type":"bytes32","indexed":true,"internalType":"bytes32"},{"name":"account","type":"address","indexed":true,"internalType":"address"},{"name":"sender","type":"address","indexed":true,"internalType":"address"}],"anonymous":false},{"type":"event","name":"RoleRevoked","inputs":[{"name":"role","type":"bytes32","indexed":true,"internalType":"bytes32"},{"name":"account","type":"address","indexed":true,"internalType":"address"},{"name":"sender","type":"address","indexed":true,"internalType":"address"}],"anonymous":false},{"type":"event","name":"StabilizerPositionCreated","inputs":[{"name":"tokenId","type":"uint256","indexed":true,"internalType":"uint256"},{"name":"owner","type":"address","indexed":true,"internalType":"address"},{"name":"totalEth","type":"uint256","indexed":false,"internalType":"uint256"}],"anonymous":false},{"type":"event","name":"Transfer","inputs":[{"name":"from","type":"address","indexed":true,"internalType":"address"},{"name":"to","type":"address","indexed":true,"internalType":"address"},{"name":"tokenId","type":"uint256","indexed":true,"internalType":"uint256"}],"anonymous":false},{"type":"event","name":"UnallocatedFundsAdded","inputs":[{"name":"tokenId","type":"uint256","indexed":true,"internalType":"uint256"},{"name":"amount","type":"uint256","indexed":false,"internalType":"uint256"}],"anonymous":false},{"type":"error","name":"AccessControlBadConfirmation","inputs":[]},{"type":"error","name":"AccessControlUnauthorizedAccount","inputs":[{"name":"account","type":"address","internalType":"address"},{"name":"neededRole","type":"bytes32","internalType":"bytes32"}]},{"type":"error","name":"ERC721EnumerableForbiddenBatchMint","inputs":[]},{"type":"error","name":"ERC721IncorrectOwner","inputs":[{"name":"sender","type":"address","internalType":"address"},{"name":"tokenId","type":"uint256","internalType":"uint256"},{"name":"owner","type":"address","internalType":"address"}]},{"type":"error","name":"ERC721InsufficientApproval","inputs":[{"name":"operator","type":"address","internalType":"address"},{"name":"tokenId","type":"uint256","internalType":"uint256"}]},{"type":"error","name":"ERC721InvalidApprover","inputs":[{"name":"approver","type":"address","internalType":"address"}]},{"type":"error","name":"ERC721InvalidOperator","inputs":[{"name":"operator","type":"address","internalType":"address"}]},{"type":"error","name":"ERC721InvalidOwner","inputs":[{"name":"owner","type":"address","internalType":"address"}]},{"type":"error","name":"ERC721InvalidReceiver","inputs":[{"name":"receiver","type":"address","internalType":"address"}]},{"type":"error","name":"ERC721InvalidSender","inputs":[{"name":"sender","type":"address","internalType":"address"}]},{"type":"error","name":"ERC721NonexistentToken","inputs":[{"name":"tokenId","type":"uint256","internalType":"uint256"}]},{"type":"error","name":"ERC721OutOfBoundsIndex","inputs":[{"name":"owner","type":"address","internalType":"address"},{"name":"index","type":"uint256","internalType":"uint256"}]},{"type":"error","name":"InvalidInitialization","inputs":[]},{"type":"error","name":"NotInitializing","inputs":[]}],"bytecode":{"object":"0x6080604052348015600e575f80fd5b5060156019565b60c9565b7ff0c57e16840df040f15088dc2f81fe391c3923bec73e23a9662efc9c229c6a00805468010000000000000000900460ff161560685760405163f92ee8a960e01b815260040160405180910390fd5b80546001600160401b039081161460c65780546001600160401b0319166001600160401b0390811782556040519081527fc7f505b2f371ae2175ee4913f4499e1f2633a7b5936321eed1cdaeb6115181d29060200160405180910390a15b50565b6149a6806100d65f395ff3fe60806040526004361061027a575f3560e01c80634d0c810b1161014b578063a217fddf116100c6578063d53913931161007c578063d743fd1e11610062578063d743fd1e146107ac578063e985e9c5146107c1578063ff70fa6414610827575f80fd5b8063d53913931461075a578063d547741f1461078d575f80fd5b8063b88d4fde116100ac578063b88d4fde146106fd578063c0c53b8b1461071c578063c87b56dd1461073b575f80fd5b8063a217fddf146106cb578063a22cb465146106de575f80fd5b8063853cad061161011b5780639213336211610101578063921333621461062757806395d89b411461063c57806399fbab8814610650575f80fd5b8063853cad06146105af57806391d14854146105c4575f80fd5b80634d0c810b146105335780634f6ccce7146105525780636352211e1461057157806370a0823114610590575f80fd5b806322dccccd116101f55780632f2ff15d116101ab57806336568abe1161019157806336568abe146104d657806340c10f19146104f557806342842e0e14610514575f80fd5b80632f2ff15d146104985780632f745c59146104b7575f80fd5b806323b872dd116101db57806323b872dd14610417578063248a9ca3146104365780632995bc5014610483575f80fd5b806322dccccd146103e557806323228ecb146103f8575f80fd5b8063081812fc1161024a57806318160ddd1161023057806318160ddd1461037357806320d2c951146103b057806321aebacb146103c6575f80fd5b8063081812fc1461031d578063095ea7b314610354575f80fd5b806301aa0b1a1461028557806301ffc9a7146102a657806306fdde03146102da578063080a8961146102fb575f80fd5b3661028157005b5f80fd5b348015610290575f80fd5b506102a461029f366004613a4f565b610846565b005b3480156102b1575f80fd5b506102c56102c0366004613a9c565b6109f7565b60405190151581526020015b60405180910390f35b3480156102e5575f80fd5b506102ee610a07565b6040516102d19190613b03565b61030e610309366004613b15565b610abb565b604051905181526020016102d1565b348015610328575f80fd5b5061033c610337366004613b3e565b61106f565b6040516001600160a01b0390911681526020016102d1565b34801561035f575f80fd5b506102a461036e366004613b69565b6110b5565b34801561037e575f80fd5b507f645e039705490088daad89bae25049a34f4a9072d398537b1ab2425f24cbed02545b6040519081526020016102d1565b3480156103bb575f80fd5b506103a2620186a081565b3480156103d1575f80fd5b506102a46103e0366004613b93565b6110c4565b6102a46103f3366004613b3e565b611302565b348015610403575f80fd5b5060065461033c906001600160a01b031681565b348015610422575f80fd5b506102a4610431366004613bc9565b61145b565b348015610441575f80fd5b506103a2610450366004613b3e565b5f9081527f02dd7bc7dec4dceedda775e58dd541e08a116c6c53815c0bd028192f7b626800602052604090206001015490565b34801561048e575f80fd5b506103a260035481565b3480156104a3575f80fd5b506102a46104b2366004613c07565b611516565b3480156104c2575f80fd5b506103a26104d1366004613b69565b611559565b3480156104e1575f80fd5b506102a46104f0366004613c07565b6115f6565b348015610500575f80fd5b506102a461050f366004613b69565b611647565b34801561051f575f80fd5b506102a461052e366004613bc9565b61172a565b34801561053e575f80fd5b5060055461033c906001600160a01b031681565b34801561055d575f80fd5b506103a261056c366004613b3e565b611744565b34801561057c575f80fd5b5061033c61058b366004613b3e565b6117f5565b34801561059b575f80fd5b506103a26105aa366004613c35565b6117ff565b3480156105ba575f80fd5b506103a260015481565b3480156105cf575f80fd5b506102c56105de366004613c07565b5f9182527f02dd7bc7dec4dceedda775e58dd541e08a116c6c53815c0bd028192f7b626800602090815260408084206001600160a01b0393909316845291905290205460ff1690565b348015610632575f80fd5b506103a260025481565b348015610647575f80fd5b506102ee611883565b34801561065b575f80fd5b5061069e61066a366004613b3e565b5f60208190529081526040902080546001820154600283015460038401546004850154600590950154939492939192909186565b604080519687526020870195909552938501929092526060840152608083015260a082015260c0016102d1565b3480156106d6575f80fd5b506103a25f81565b3480156106e9575f80fd5b506102a46106f8366004613c50565b6118d4565b348015610708575f80fd5b506102a4610717366004613cfc565b6118df565b348015610727575f80fd5b506102a4610736366004613ddc565b6118f7565b348015610746575f80fd5b506102ee610755366004613b3e565b611b30565b348015610765575f80fd5b506103a27f9f2df0fed2c77648de5860a4cc508cd0818c85b8b8a1ab4ceeef8d981c8956a681565b348015610798575f80fd5b506102a46107a7366004613c07565b611c41565b3480156107b7575f80fd5b506103a260045481565b3480156107cc575f80fd5b506102c56107db366004613e19565b6001600160a01b039182165f9081527f80bb2b638cc20bc4d0a60d66940f3ab4a00c1d7b313497ca82fb0b4ab00793056020908152604080832093909416825291909152205460ff1690565b348015610832575f80fd5b506103a2610841366004613e45565b611c84565b33610850836117f5565b6001600160a01b0316146108c5576040517f08c379a000000000000000000000000000000000000000000000000000000000815260206004820152600f60248201527f4e6f7420746f6b656e206f776e6572000000000000000000000000000000000060448201526064015b60405180910390fd5b606e811015610930576040517f08c379a000000000000000000000000000000000000000000000000000000000815260206004820152601b60248201527f526174696f206d757374206265206174206c656173742031313025000000000060448201526064016108bc565b6103e881111561099c576040517f08c379a000000000000000000000000000000000000000000000000000000000815260206004820152601960248201527f526174696f2063616e6e6f74206578636565642031303030250000000000000060448201526064016108bc565b5f82815260208181526040918290206001810180549085905583518181529283018590529092909185917f3e82d134b4a0328de7223eb1ae194d98009405cb6b8dc9c3d6bd70eb3aeb5c94910160405180910390a250505050565b5f610a01826121d2565b92915050565b7f80bb2b638cc20bc4d0a60d66940f3ab4a00c1d7b313497ca82fb0b4ab00793008054606091908190610a3990613ee3565b80601f0160208091040260200160405190810160405280929190818152602001828054610a6590613ee3565b8015610ab05780601f10610a8757610100808354040283529160200191610ab0565b820191905f5260205f20905b815481529060010190602001808311610a9357829003601f168201915b505050505091505090565b60408051602081019091525f81526005546001600160a01b03163314610b3d576040517f08c379a000000000000000000000000000000000000000000000000000000000815260206004820152601260248201527f4f6e6c79205553504420636f6e7472616374000000000000000000000000000060448201526064016108bc565b6001545f03610ba8576040517f08c379a000000000000000000000000000000000000000000000000000000000815260206004820152601460248201527f4e6f20756e616c6c6f63617465642066756e647300000000000000000000000060448201526064016108bc565b833414610c11576040517f08c379a000000000000000000000000000000000000000000000000000000000815260206004820152601360248201527f45544820616d6f756e74206d69736d617463680000000000000000000000000060448201526064016108bc565b600154845b8115801590610c2457505f81115b15610f9257620186a05a10610f92575f82815260208190526040812090829003610c4e5750610f92565b5f826064836001015485610c629190613f61565b610c6c9190613fa5565b610c769190613fb8565b90505f825f01548211610c895781610c8c565b82545b90508382821015610cc05760648460010154610ca89190613fb8565b610cb3836064613f61565b610cbd9190613fa5565b90505b5f610cca876117f5565b6006546040517f2bf79c940000000000000000000000000000000000000000000000000000000081526001600160a01b0380841660048301529293505f9290911690632bf79c9490602401602060405180830381865afa158015610d30573d5f803e3d5ffd5b505050506040513d601f19601f82011682018060405250810190610d549190613fcb565b9050805f03610dee576006546040517f6a6278420000000000000000000000000000000000000000000000000000000081526001600160a01b03848116600483015290911690636a627842906024016020604051808303815f875af1158015610dbf573d5f803e3d5ffd5b505050506040513d601f19601f82011682018060405250810190610de39190613fcb565b9050610dee88612227565b6006546001600160a01b031663bcc46e83610e098587613fe2565b836040518363ffffffff1660e01b8152600401610e2891815260200190565b5f604051808303818588803b158015610e3f575f80fd5b505af1158015610e51573d5f803e3d5ffd5b50505050505f8a600a610e649190614116565b610e6e8d86613f61565b610e789190613fa5565b6006546040517f341c49af00000000000000000000000000000000000000000000000000000000815260048101859052602481018390529192506001600160a01b03169063341c49af906044015f604051808303815f87803b158015610edc575f80fd5b505af1158015610eee573d5f803e3d5ffd5b5050505084875f015f828254610f049190613fb8565b9091555050895184908b90610f1a908390613fe2565b905250610f278489613fb8565b604080518781526020810187905290810184905290985089907f8ec82059003c25a01be08491bfaf15e477fc90b27f3f6b6f9ea7094215f8e5ad9060600160405180910390a2600387015487545f03610f8357610f838a61230b565b9850610c169650505050505050565b8251610ffa576040517f08c379a000000000000000000000000000000000000000000000000000000000815260206004820152601260248201527f4e6f2066756e647320616c6c6f6361746564000000000000000000000000000060448201526064016108bc565b80156110655760055f9054906101000a90046001600160a01b03166001600160a01b031663b09f409d826040518263ffffffff1660e01b81526004015f604051808303818588803b15801561104d575f80fd5b505af115801561105f573d5f803e3d5ffd5b50505050505b50505b9392505050565b5f611079826123cf565b505f8281527f80bb2b638cc20bc4d0a60d66940f3ab4a00c1d7b313497ca82fb0b4ab007930460205260409020546001600160a01b0316610a01565b6110c082823361243f565b5050565b5f6110ce846117f5565b6001600160a01b03160361113e576040517f08c379a000000000000000000000000000000000000000000000000000000000815260206004820152601460248201527f546f6b656e20646f6573206e6f7420657869737400000000000000000000000060448201526064016108bc565b33611148846117f5565b6001600160a01b0316146111b8576040517f08c379a000000000000000000000000000000000000000000000000000000000815260206004820152600f60248201527f4e6f7420746f6b656e206f776e6572000000000000000000000000000000000060448201526064016108bc565b6001600160a01b038116611228576040517f08c379a000000000000000000000000000000000000000000000000000000000815260206004820152601160248201527f496e76616c696420726563697069656e7400000000000000000000000000000060448201526064016108bc565b5f83815260208190526040902080548311156112a0576040517f08c379a000000000000000000000000000000000000000000000000000000000815260206004820152601e60248201527f496e73756666696369656e7420756e616c6c6f63617465642066756e6473000060448201526064016108bc565b82815f015f8282546112b29190613fb8565b909155505080545f036112c8576112c88461230b565b6040516001600160a01b0383169084156108fc029085905f818181858888f193505050501580156112fb573d5f803e3d5ffd5b5050505050565b5f61130c826117f5565b6001600160a01b03160361137c576040517f08c379a000000000000000000000000000000000000000000000000000000000815260206004820152601460248201527f546f6b656e20646f6573206e6f7420657869737400000000000000000000000060448201526064016108bc565b5f34116113e5576040517f08c379a000000000000000000000000000000000000000000000000000000000815260206004820152600b60248201527f4e6f204554482073656e7400000000000000000000000000000000000000000060448201526064016108bc565b5f8181526020819052604081208054909181159134918491611408908490613fe2565b9091555050801561141c5761141c8361244c565b827fe9764e856eb92beb10482beb674746c1f904336e6593174ee2b62b0594fda1803460405161144e91815260200190565b60405180910390a2505050565b6001600160a01b03821661149d576040517f64a0ae920000000000000000000000000000000000000000000000000000000081525f60048201526024016108bc565b5f6114a983833361252c565b9050836001600160a01b0316816001600160a01b031614611510576040517f64283d7b0000000000000000000000000000000000000000000000000000000081526001600160a01b03808616600483015260248201849052821660448201526064016108bc565b50505050565b5f8281527f02dd7bc7dec4dceedda775e58dd541e08a116c6c53815c0bd028192f7b626800602052604090206001015461154f81612540565b611510838361254a565b5f7f645e039705490088daad89bae25049a34f4a9072d398537b1ab2425f24cbed00611584846117ff565b83106115ce576040517fa57d13dc0000000000000000000000000000000000000000000000000000000081526001600160a01b0385166004820152602481018490526044016108bc565b6001600160a01b0384165f908152602091825260408082208583529092522054905092915050565b6001600160a01b0381163314611638576040517f6697b23200000000000000000000000000000000000000000000000000000000815260040160405180910390fd5b6116428282612634565b505050565b7f9f2df0fed2c77648de5860a4cc508cd0818c85b8b8a1ab4ceeef8d981c8956a661167181612540565b6040805160c0810182525f808252606e6020808401918252838501838152606085018481526080860185815260a087018681528a87529386905296909420945185559151600185015590516002840155905160038301559151600482015590516005909101556116e183836126f6565b826001600160a01b0316827f235cef5017c62c20fa68006be2f6bf69f305c7d72d5a07a625e5693e7a6b1ff85f60405161171d91815260200190565b60405180910390a3505050565b61164283838360405180602001604052805f8152506118df565b5f7f645e039705490088daad89bae25049a34f4a9072d398537b1ab2425f24cbed0061178e7f645e039705490088daad89bae25049a34f4a9072d398537b1ab2425f24cbed025490565b83106117cf576040517fa57d13dc0000000000000000000000000000000000000000000000000000000081525f6004820152602481018490526044016108bc565b8060020183815481106117e4576117e4614121565b905f5260205f200154915050919050565b5f610a01826123cf565b5f7f80bb2b638cc20bc4d0a60d66940f3ab4a00c1d7b313497ca82fb0b4ab00793006001600160a01b038316611863576040517f89c62b640000000000000000000000000000000000000000000000000000000081525f60048201526024016108bc565b6001600160a01b039092165f908152600390920160205250604090205490565b7f80bb2b638cc20bc4d0a60d66940f3ab4a00c1d7b313497ca82fb0b4ab007930180546060917f80bb2b638cc20bc4d0a60d66940f3ab4a00c1d7b313497ca82fb0b4ab007930091610a3990613ee3565b6110c033838361270f565b6118ea84848461145b565b6115103385858585612808565b5f6119006129c9565b805490915060ff68010000000000000000820416159067ffffffffffffffff165f8115801561192c5750825b90505f8267ffffffffffffffff1660011480156119485750303b155b905081158015611956575080155b1561198d576040517ff92ee8a900000000000000000000000000000000000000000000000000000000815260040160405180910390fd5b84547fffffffffffffffffffffffffffffffffffffffffffffffff000000000000000016600117855583156119ee5784547fffffffffffffffffffffffffffffffffffffffffffffff00ffffffffffffffff16680100000000000000001785555b611a626040518060400160405280600f81526020017f555350442053746162696c697a657200000000000000000000000000000000008152506040518060400160405280600581526020017f55535044530000000000000000000000000000000000000000000000000000008152506129f1565b611a6a612a03565b611a72612a03565b611a7c5f8761254a565b50600680546001600160a01b03808b167fffffffffffffffffffffffff00000000000000000000000000000000000000009283161790925560058054928a16929091169190911790558315611b265784547fffffffffffffffffffffffffffffffffffffffffffffff00ffffffffffffffff168555604051600181527fc7f505b2f371ae2175ee4913f4499e1f2633a7b5936321eed1cdaeb6115181d29060200160405180910390a15b5050505050505050565b60605f611b3c836117f5565b6001600160a01b031603611bac576040517f08c379a000000000000000000000000000000000000000000000000000000000815260206004820152601460248201527f546f6b656e20646f6573206e6f7420657869737400000000000000000000000060448201526064016108bc565b5f82815260208190526040812090611c16611bc685612a0d565b611bd7611bd287612b3e565b612b8a565b8454611be290612a0d565b611bef8660010154612a0d565b604051602001611c029493929190614165565b604051602081830303815290604052612b8a565b905080604051602001611c29919061439a565b60405160208183030381529060405292505050919050565b5f8281527f02dd7bc7dec4dceedda775e58dd541e08a116c6c53815c0bd028192f7b6268006020526040902060010154611c7a81612540565b6115108383612634565b6005545f906001600160a01b03163314611cfa576040517f08c379a000000000000000000000000000000000000000000000000000000000815260206004820152601260248201527f4f6e6c79205553504420636f6e7472616374000000000000000000000000000060448201526064016108bc565b6004545f03611d65576040517f08c379a000000000000000000000000000000000000000000000000000000000815260206004820152601260248201527f4e6f20616c6c6f63617465642066756e6473000000000000000000000000000060448201526064016108bc565b600454835f5b8215801590611d7957505f82115b156120fb57620186a05a106120fb575f8381526020819052604081206006549091906001600160a01b0316632bf79c94611db2876117f5565b6040517fffffffff0000000000000000000000000000000000000000000000000000000060e084901b1681526001600160a01b039091166004820152602401602060405180830381865afa158015611e0c573d5f803e3d5ffd5b505050506040513d601f19601f82011682018060405250810190611e309190613fcb565b905080156120ef576006546040517feb02c301000000000000000000000000000000000000000000000000000000008152600481018390525f916001600160a01b03169063eb02c301906024016040805180830381865afa158015611e97573d5f803e3d5ffd5b505050506040513d601f19601f82011682018060405250810190611ebb91906143cb565b90505f81602001518611611ecf5785611ed5565b81602001515b90505f80611eec858585868860200151148f612bb0565b60065460208701519294509092506001600160a01b03169063341c49af9087908614611f2757858760200151611f229190613fb8565b611f29565b5f5b6040517fffffffff0000000000000000000000000000000000000000000000000000000060e085901b168152600481019290925260248201526044015f604051808303815f87803b158015611f7c575f80fd5b505af1158015611f8e573d5f803e3d5ffd5b5050505060065f9054906101000a90046001600160a01b03166001600160a01b031663ab50355e8630858f6040518563ffffffff1660e01b815260040161201394939291909384526001600160a01b03929092166020808501919091526040808501929092528251606085015282015160ff166080840152015160a082015260c00190565b5f604051808303815f87803b15801561202a575f80fd5b505af115801561203c573d5f803e3d5ffd5b50505050828460200151036120545761205489612d9a565b61205e8188613fe2565b965061206a8183613fb8565b865f015f82825461207b9190613fe2565b9091555050600286015415801561209457506003860154155b156120a2576120a28961244c565b6120ac8389613fb8565b60408051848152602081018890529199508a917f7bd51af63c72ca163b2d37a37219fbdda7a4c3803f69ed76e3948078619a32f9910160405180910390a2505050505b50600401549250611d6b565b5f8111612164576040517f08c379a000000000000000000000000000000000000000000000000000000000815260206004820152601460248201527f4e6f2066756e647320756e616c6c6f636174656400000000000000000000000060448201526064016108bc565b60055f9054906101000a90046001600160a01b03166001600160a01b031663b09f409d826040518263ffffffff1660e01b81526004015f604051808303818588803b1580156121b1575f80fd5b505af11580156121c3573d5f803e3d5ffd5b50939998505050505050505050565b5f7fffffffff0000000000000000000000000000000000000000000000000000000082167f7965db0b000000000000000000000000000000000000000000000000000000001480610a015750610a0182612e5e565b60035415806122365750600454155b15612245576003819055600455565b60045481111561227357600480545f8381526020819052604080822084018390559181522060050182905555565b6003548110156122a257600380545f838152602081905260408082206005018390559181522060040182905555565b6003545b80158015906122b457508181105b156122cf575f908152602081905260409020600501546122a6565b5f818152602081905260408082206004908101805486855283852092830181905560059283018690558452918320018490559190528190555b50565b5f8181526020819052604090206001548214801561232a575060025482145b1561233d575f60018190556002556123be565b600154820361236657600381015460018190555f908152602081905260408120600201556123be565b600254820361238f57600280820154908190555f908152602081905260408120600301556123be565b600280820154600380840180545f90815260208190526040808220909501849055905492815292909220909101555b5f6003820181905560029091015550565b5f8181527f80bb2b638cc20bc4d0a60d66940f3ab4a00c1d7b313497ca82fb0b4ab007930260205260408120546001600160a01b031680610a01576040517f7e273289000000000000000000000000000000000000000000000000000000008152600481018490526024016108bc565b6116428383836001612eb3565b600154158061245b5750600254155b1561246a576001819055600255565b60025481111561249857600280545f8381526020819052604080822084018390559181522060030182905555565b6001548110156124c757600180545f838152602081905260408082206003018390559181522060020182905555565b6001545b80158015906124d957508181105b156124f4575f908152602081905260409020600301546124cb565b5f8181526020819052604080822060029081018054868552838520928301819055600392830186905584529183200184905591905255565b5f612538848484613047565b949350505050565b6123088133613150565b5f8281527f02dd7bc7dec4dceedda775e58dd541e08a116c6c53815c0bd028192f7b626800602081815260408084206001600160a01b038616855290915282205460ff1661262b575f848152602082815260408083206001600160a01b0387168452909152902080547fffffffffffffffffffffffffffffffffffffffffffffffffffffffffffffff001660011790556125e13390565b6001600160a01b0316836001600160a01b0316857f2f8788117e7eff1d82e926ec794901d17c78024a50270940304540a733656f0d60405160405180910390a46001915050610a01565b5f915050610a01565b5f8281527f02dd7bc7dec4dceedda775e58dd541e08a116c6c53815c0bd028192f7b626800602081815260408084206001600160a01b038616855290915282205460ff161561262b575f848152602082815260408083206001600160a01b038716808552925280832080547fffffffffffffffffffffffffffffffffffffffffffffffffffffffffffffff0016905551339287917ff6391f5c32d9c69d2a47ea670b442974b53935d1edc7fd64eb21e047a839171b9190a46001915050610a01565b6110c0828260405180602001604052805f8152506131dc565b7f80bb2b638cc20bc4d0a60d66940f3ab4a00c1d7b313497ca82fb0b4ab00793006001600160a01b03831661277b576040517f5b08ba180000000000000000000000000000000000000000000000000000000081526001600160a01b03841660048201526024016108bc565b6001600160a01b038481165f81815260058401602090815260408083209488168084529482529182902080547fffffffffffffffffffffffffffffffffffffffffffffffffffffffffffffff001687151590811790915591519182527f17307eab39ab6107e8899845ad3d59bd9653f200f220920489ca2b5937696c31910160405180910390a350505050565b6001600160a01b0383163b156112fb576040517f150b7a020000000000000000000000000000000000000000000000000000000081526001600160a01b0384169063150b7a029061286390889088908790879060040161441a565b6020604051808303815f875af19250505080156128bb575060408051601f3d9081017fffffffffffffffffffffffffffffffffffffffffffffffffffffffffffffffe01682019092526128b89181019061445a565b60015b61293b573d8080156128e8576040519150601f19603f3d011682016040523d82523d5f602084013e6128ed565b606091505b5080515f03612933576040517f64a0ae920000000000000000000000000000000000000000000000000000000081526001600160a01b03851660048201526024016108bc565b805181602001fd5b7fffffffff0000000000000000000000000000000000000000000000000000000081167f150b7a0200000000000000000000000000000000000000000000000000000000146129c1576040517f64a0ae920000000000000000000000000000000000000000000000000000000081526001600160a01b03851660048201526024016108bc565b505050505050565b5f807ff0c57e16840df040f15088dc2f81fe391c3923bec73e23a9662efc9c229c6a00610a01565b6129f96131f3565b6110c08282613231565b612a0b6131f3565b565b6060815f03612a4f57505060408051808201909152600181527f3000000000000000000000000000000000000000000000000000000000000000602082015290565b815f5b8115612a785780612a6281614475565b9150612a719050600a83613fa5565b9150612a52565b5f8167ffffffffffffffff811115612a9257612a92613c80565b6040519080825280601f01601f191660200182016040528015612abc576020820181803683370190505b5090505b841561253857612ad1600183613fb8565b9150612ade600a866144ac565b612ae9906030613fe2565b60f81b818381518110612afe57612afe614121565b60200101907effffffffffffffffffffffffffffffffffffffffffffffffffffffffffffff191690815f1a905350612b37600a86613fa5565b9450612ac0565b5f818152602081905260409020606090612b5783612a0d565b8154612b6290612a0d565b604051602001612b739291906144bf565b604051602081830303815290604052915050919050565b6060610a0182604051806060016040528060408152602001614931604091396001613274565b5f808315612c74578551600654845160208601516040517fbbc10809000000000000000000000000000000000000000000000000000000008152600481018c9052602481019290925260ff1660448201529193506001600160a01b03169063bbc1080990606401602060405180830381865afa158015612c32573d5f803e3d5ffd5b505050506040513d601f19601f82011682018060405250810190612c569190613fcb565b8651612c63906064613f61565b612c6d9190613fa5565b9050612d90565b600654835160208501516040517fbbc10809000000000000000000000000000000000000000000000000000000008152600481018b9052602481019290925260ff1660448201525f916001600160a01b03169063bbc1080990606401602060405180830381865afa158015612ceb573d5f803e3d5ffd5b505050506040513d601f19601f82011682018060405250810190612d0f9190613fcb565b90505f868860200151612d229190613fb8565b85519091505f90612d34906064613f61565b6020870151612d4490600a61479a565b612d4e8486613f61565b612d589190613f61565b612d629190613fa5565b8951909150612d72908290613fb8565b945082612d80866064613f61565b612d8a9190613fa5565b93505050505b9550959350505050565b5f81815260208190526040902060035482148015612db9575060045482145b15612dcc575f6003819055600455612e4d565b6003548203612df557600581015460038190555f90815260208190526040812060040155612e4d565b6004548203612e1e57600480820154908190555f90815260208190526040812060050155612e4d565b600480820154600580840180545f90815260208190526040808220909501849055905492815292909220909101555b5f6005820181905560049091015550565b5f7fffffffff0000000000000000000000000000000000000000000000000000000082167f780e9d63000000000000000000000000000000000000000000000000000000001480610a015750610a01826133ef565b7f80bb2b638cc20bc4d0a60d66940f3ab4a00c1d7b313497ca82fb0b4ab00793008180612ee857506001600160a01b03831615155b15612fff575f612ef7856123cf565b90506001600160a01b03841615801590612f235750836001600160a01b0316816001600160a01b031614155b8015612f7357506001600160a01b038082165f9081527f80bb2b638cc20bc4d0a60d66940f3ab4a00c1d7b313497ca82fb0b4ab0079305602090815260408083209388168352929052205460ff16155b15612fb5576040517fa9fbf51f0000000000000000000000000000000000000000000000000000000081526001600160a01b03851660048201526024016108bc565b8215612ffd5784866001600160a01b0316826001600160a01b03167f8c5be1e5ebec7d5bd14f71427d1e84f3dd0314c0f7b2291e5b200ac8c7c3b92560405160405180910390a45b505b5f93845260040160205250506040902080547fffffffffffffffffffffffff0000000000000000000000000000000000000000166001600160a01b0392909216919091179055565b5f806130548585856134d1565b90506001600160a01b0381166130ee576130e9847f645e039705490088daad89bae25049a34f4a9072d398537b1ab2425f24cbed0280545f8381527f645e039705490088daad89bae25049a34f4a9072d398537b1ab2425f24cbed0360205260408120829055600182018355919091527fa42f15e5d656f8155fd7419d740a6073999f19cd6e061449ce4a257150545bf20155565b613111565b846001600160a01b0316816001600160a01b031614613111576131118185613642565b6001600160a01b03851661312d57613128846136ec565b612538565b846001600160a01b0316816001600160a01b0316146125385761253885856137df565b5f8281527f02dd7bc7dec4dceedda775e58dd541e08a116c6c53815c0bd028192f7b626800602090815260408083206001600160a01b038516845290915290205460ff166110c0576040517fe2517d3f0000000000000000000000000000000000000000000000000000000081526001600160a01b0382166004820152602481018390526044016108bc565b6131e6838361384a565b611642335f858585612808565b6131fb6138dd565b612a0b576040517fd7e6bcf800000000000000000000000000000000000000000000000000000000815260040160405180910390fd5b6132396131f3565b7f80bb2b638cc20bc4d0a60d66940f3ab4a00c1d7b313497ca82fb0b4ab00793008061326584826147ec565b506001810161151083826147ec565b606083515f03613292575060408051602081019091525f8152611068565b5f826132c2576003855160046132a89190613f61565b6132b3906002613fe2565b6132bd9190613fa5565b6132e7565b6003855160026132d29190613fe2565b6132dc9190613fa5565b6132e7906004613f61565b90505f8167ffffffffffffffff81111561330357613303613c80565b6040519080825280601f01601f19166020018201604052801561332d576020820181803683370190505b509050600185016020820187885189016020810180515f82525b828410156133a2576003840193508351603f8160121c168701518653600186019550603f81600c1c168701518653600186019550603f8160061c168701518653600186019550603f8116870151865350600185019450613347565b9052505085156133e3576003885106600181146133c657600281146133d9576133e1565b603d6001830353603d60028303536133e1565b603d60018303535b505b50909695505050505050565b5f7fffffffff0000000000000000000000000000000000000000000000000000000082167f80ac58cd00000000000000000000000000000000000000000000000000000000148061348157507fffffffff0000000000000000000000000000000000000000000000000000000082167f5b5e139f00000000000000000000000000000000000000000000000000000000145b80610a0157507f01ffc9a7000000000000000000000000000000000000000000000000000000007fffffffff00000000000000000000000000000000000000000000000000000000831614610a01565b5f8281527f80bb2b638cc20bc4d0a60d66940f3ab4a00c1d7b313497ca82fb0b4ab007930260205260408120547f80bb2b638cc20bc4d0a60d66940f3ab4a00c1d7b313497ca82fb0b4ab0079300906001600160a01b039081169084161561353e5761353e8185876138fb565b6001600160a01b03811615613599576135595f865f80612eb3565b6001600160a01b0381165f908152600383016020526040902080547fffffffffffffffffffffffffffffffffffffffffffffffffffffffffffffffff0190555b6001600160a01b038616156135c9576001600160a01b0386165f9081526003830160205260409020805460010190555b5f85815260028301602052604080822080547fffffffffffffffffffffffff0000000000000000000000000000000000000000166001600160a01b038a811691821790925591518893918516917fddf252ad1be2c89b69c2b068fc378daa952ba7f163c4a11628f55a4df523b3ef91a495945050505050565b7f645e039705490088daad89bae25049a34f4a9072d398537b1ab2425f24cbed005f61366d846117ff565b5f8481526001840160209081526040808320546001600160a01b038916845291869052909120919250908183146136c5575f838152602082815260408083205485845281842081905583526001870190915290208290555b5f948552600190930160209081526040808620869055928552929092528220919091555050565b7f645e039705490088daad89bae25049a34f4a9072d398537b1ab2425f24cbed02547f645e039705490088daad89bae25049a34f4a9072d398537b1ab2425f24cbed00905f9061373e90600190613fb8565b5f84815260038401602052604081205460028501805493945090928490811061376957613769614121565b905f5260205f20015490508084600201838154811061378a5761378a614121565b5f918252602080832090910192909255828152600386019091526040808220849055868252812055600284018054806137c5576137c5614903565b600190038181905f5260205f20015f905590555050505050565b7f645e039705490088daad89bae25049a34f4a9072d398537b1ab2425f24cbed005f600161380c856117ff565b6138169190613fb8565b6001600160a01b039094165f9081526020838152604080832087845282528083208690559482526001909301909252502055565b6001600160a01b03821661388c576040517f64a0ae920000000000000000000000000000000000000000000000000000000081525f60048201526024016108bc565b5f61389883835f61252c565b90506001600160a01b03811615611642576040517f73c6ac6e0000000000000000000000000000000000000000000000000000000081525f60048201526024016108bc565b5f6138e66129c9565b5468010000000000000000900460ff16919050565b613906838383613991565b611642576001600160a01b03831661394d576040517f7e273289000000000000000000000000000000000000000000000000000000008152600481018290526024016108bc565b6040517f177e802f0000000000000000000000000000000000000000000000000000000081526001600160a01b0383166004820152602481018290526044016108bc565b5f6001600160a01b038316158015906125385750826001600160a01b0316846001600160a01b03161480613a0857506001600160a01b038085165f9081527f80bb2b638cc20bc4d0a60d66940f3ab4a00c1d7b313497ca82fb0b4ab0079305602090815260408083209387168352929052205460ff165b806125385750505f9081527f80bb2b638cc20bc4d0a60d66940f3ab4a00c1d7b313497ca82fb0b4ab007930460205260409020546001600160a01b03908116911614919050565b5f8060408385031215613a60575f80fd5b50508035926020909101359150565b7fffffffff0000000000000000000000000000000000000000000000000000000081168114612308575f80fd5b5f60208284031215613aac575f80fd5b813561106881613a6f565b5f81518084528060208401602086015e5f6020828601015260207fffffffffffffffffffffffffffffffffffffffffffffffffffffffffffffffe0601f83011685010191505092915050565b602081525f6110686020830184613ab7565b5f805f60608486031215613b27575f80fd5b505081359360208301359350604090920135919050565b5f60208284031215613b4e575f80fd5b5035919050565b6001600160a01b0381168114612308575f80fd5b5f8060408385031215613b7a575f80fd5b8235613b8581613b55565b946020939093013593505050565b5f805f60608486031215613ba5575f80fd5b83359250602084013591506040840135613bbe81613b55565b809150509250925092565b5f805f60608486031215613bdb575f80fd5b8335613be681613b55565b92506020840135613bf681613b55565b929592945050506040919091013590565b5f8060408385031215613c18575f80fd5b823591506020830135613c2a81613b55565b809150509250929050565b5f60208284031215613c45575f80fd5b813561106881613b55565b5f8060408385031215613c61575f80fd5b8235613c6c81613b55565b915060208301358015158114613c2a575f80fd5b7f4e487b71000000000000000000000000000000000000000000000000000000005f52604160045260245ffd5b604051601f82017fffffffffffffffffffffffffffffffffffffffffffffffffffffffffffffffe016810167ffffffffffffffff81118282101715613cf457613cf4613c80565b604052919050565b5f805f8060808587031215613d0f575f80fd5b8435613d1a81613b55565b93506020850135613d2a81613b55565b925060408501359150606085013567ffffffffffffffff811115613d4c575f80fd5b8501601f81018713613d5c575f80fd5b803567ffffffffffffffff811115613d7657613d76613c80565b613da760207fffffffffffffffffffffffffffffffffffffffffffffffffffffffffffffffe0601f84011601613cad565b818152886020838501011115613dbb575f80fd5b816020840160208301375f6020838301015280935050505092959194509250565b5f805f60608486031215613dee575f80fd5b8335613df981613b55565b92506020840135613e0981613b55565b91506040840135613bbe81613b55565b5f8060408385031215613e2a575f80fd5b8235613e3581613b55565b91506020830135613c2a81613b55565b5f808284036080811215613e57575f80fd5b8335925060607fffffffffffffffffffffffffffffffffffffffffffffffffffffffffffffffe082011215613e8a575f80fd5b506040516060810167ffffffffffffffff81118282101715613eae57613eae613c80565b60409081526020850135825284013560ff81168114613ecb575f80fd5b60208201526060939093013560408401525092909150565b600181811c90821680613ef757607f821691505b602082108103613f2e577f4e487b71000000000000000000000000000000000000000000000000000000005f52602260045260245ffd5b50919050565b7f4e487b71000000000000000000000000000000000000000000000000000000005f52601160045260245ffd5b8082028115828204841417610a0157610a01613f34565b7f4e487b71000000000000000000000000000000000000000000000000000000005f52601260045260245ffd5b5f82613fb357613fb3613f78565b500490565b81810381811115610a0157610a01613f34565b5f60208284031215613fdb575f80fd5b5051919050565b80820180821115610a0157610a01613f34565b6001815b60018411156140305780850481111561401457614014613f34565b600184161561402257908102905b60019390931c928002613ff9565b935093915050565b5f8261404657506001610a01565b8161405257505f610a01565b816001811461406857600281146140725761408e565b6001915050610a01565b60ff84111561408357614083613f34565b50506001821b610a01565b5060208310610133831016604e8410600b84101617156140b1575081810a610a01565b6140dc7fffffffffffffffffffffffffffffffffffffffffffffffffffffffffffffffff8484613ff5565b807fffffffffffffffffffffffffffffffffffffffffffffffffffffffffffffffff0482111561410e5761410e613f34565b029392505050565b5f6110688383614038565b7f4e487b71000000000000000000000000000000000000000000000000000000005f52603260045260245ffd5b5f81518060208401855e5f93019283525090919050565b7f7b226e616d65223a2022555350442053746162696c697a65722023000000000081525f614196601b83018761414e565b7f222c20226465736372697074696f6e223a2022555350442053746162696c697a81527f657220506f736974696f6e204e4654222c20000000000000000000000000000060208201527f22696d616765223a2022646174613a696d6167652f7376672b786d6c3b62617360328201527f6536342c000000000000000000000000000000000000000000000000000000006052820152614238605682018761414e565b90507f222c202261747472696275746573223a205b000000000000000000000000000081527f7b2274726169745f74797065223a2022556e616c6c6f6361746564204554482260128201527f2c202276616c7565223a2022000000000000000000000000000000000000000060328201526142b6603e82018661414e565b7f227d2c000000000000000000000000000000000000000000000000000000000081527f7b2274726169745f74797065223a20224d696e20436f6c6c61746572616c2052600382019081527f6174696f222c202276616c7565223a20220000000000000000000000000000006023830152915060340161438e61436561433c838861414e565b7f25227d0000000000000000000000000000000000000000000000000000000000815260030190565b7f5d7d000000000000000000000000000000000000000000000000000000000000815260020190565b98975050505050505050565b7f646174613a6170706c69636174696f6e2f6a736f6e3b6261736536342c00000081525f611068601d83018461414e565b5f60408284031280156143dc575f80fd5b506040805190810167ffffffffffffffff8111828210171561440057614400613c80565b604052825181526020928301519281019290925250919050565b6001600160a01b03851681526001600160a01b0384166020820152826040820152608060608201525f6144506080830184613ab7565b9695505050505050565b5f6020828403121561446a575f80fd5b815161106881613a6f565b5f7fffffffffffffffffffffffffffffffffffffffffffffffffffffffffffffffff82036144a5576144a5613f34565b5060010190565b5f826144ba576144ba613f78565b500690565b7f3c73766720786d6c6e733d22687474703a2f2f7777772e77332e6f72672f323081527f30302f737667222077696474683d2234303022206865696768743d223430302260208201527f3e0000000000000000000000000000000000000000000000000000000000000060408201527f3c7374796c653e2e62617365207b2066696c6c3a2077686974653b20666f6e7460418201527f2d66616d696c793a2073657269663b20666f6e742d73697a653a20313470783b60618201527f207d3c2f7374796c653e0000000000000000000000000000000000000000000060818201527f3c726563742077696474683d223130302522206865696768743d223130302522608b8201527f2066696c6c3d22626c61636b222f3e000000000000000000000000000000000060ab8201527f3c7465787420783d223530252220793d223430252220636c6173733d2262617360ba8201527f652220646f6d696e616e742d626173656c696e653d226d6964646c652220746560da8201527f78742d616e63686f723d226d6964646c65223e0000000000000000000000000060fa8201527f53746162696c697a65722023000000000000000000000000000000000000000061010d8201525f6125386147716146a46147486147426146cd8361011989018b61414e565b7f3c2f746578743e00000000000000000000000000000000000000000000000000815260070190565b7f3c7465787420783d223530252220793d223630252220636c6173733d2262617381527f652220646f6d696e616e742d626173656c696e653d226d6964646c652220746560208201527f78742d616e63686f723d226d6964646c65223e00000000000000000000000000604082015260530190565b8761414e565b7f2045544820556e616c6c6f636174656400000000000000000000000000000000815260100190565b7f3c2f7376673e0000000000000000000000000000000000000000000000000000815260060190565b5f61106860ff841683614038565b601f82111561164257805f5260205f20601f840160051c810160208510156147cd5750805b601f840160051c820191505b818110156112fb575f81556001016147d9565b815167ffffffffffffffff81111561480657614806613c80565b61481a816148148454613ee3565b846147a8565b6020601f82116001811461486b575f83156148355750848201515b7fffffffffffffffffffffffffffffffffffffffffffffffffffffffffffffffff600385901b1c1916600184901b1784556112fb565b5f848152602081207fffffffffffffffffffffffffffffffffffffffffffffffffffffffffffffffe08516915b828110156148b85787850151825560209485019460019092019101614898565b50848210156148f457868401517fffffffffffffffffffffffffffffffffffffffffffffffffffffffffffffffff600387901b60f8161c191681555b50505050600190811b01905550565b7f4e487b71000000000000000000000000000000000000000000000000000000005f52603160045260245ffdfe4142434445464748494a4b4c4d4e4f505152535455565758595a6162636465666768696a6b6c6d6e6f707172737475767778797a303132333435363738392b2fa26469706673582212206b852a027750b08939ca04b40228cda90b2f265091afa48ceb05d864000265fb64736f6c634300081a0033","linkReferences":{}},"methodIdentifiers":{"DEFAULT_ADMIN_ROLE()":"a217fddf","MINTER_ROLE()":"d5391393","MIN_GAS()":"20d2c951","addUnallocatedFunds(uint256)":"22dccccd","allocateStabilizerFunds(uint256,uint256,uint256)":"080a8961","approve(address,uint256)":"095ea7b3","balanceOf(address)":"70a08231","getApproved(uint256)":"081812fc","getRoleAdmin(bytes32)":"248a9ca3","grantRole(bytes32,address)":"2f2ff15d","hasRole(bytes32,address)":"91d14854","highestAllocatedId()":"d743fd1e","highestUnallocatedId()":"92133362","initialize(address,address,address)":"c0c53b8b","isApprovedForAll(address,address)":"e985e9c5","lowestAllocatedId()":"2995bc50","lowestUnallocatedId()":"853cad06","mint(address,uint256)":"40c10f19","name()":"06fdde03","ownerOf(uint256)":"6352211e","positionNFT()":"23228ecb","positions(uint256)":"99fbab88","removeUnallocatedFunds(uint256,uint256,address)":"21aebacb","renounceRole(bytes32,address)":"36568abe","revokeRole(bytes32,address)":"d547741f","safeTransferFrom(address,address,uint256)":"42842e0e","safeTransferFrom(address,address,uint256,bytes)":"b88d4fde","setApprovalForAll(address,bool)":"a22cb465","setMinCollateralizationRatio(uint256,uint256)":"01aa0b1a","supportsInterface(bytes4)":"01ffc9a7","symbol()":"95d89b41","tokenByIndex(uint256)":"4f6ccce7","tokenOfOwnerByIndex(address,uint256)":"2f745c59","tokenURI(uint256)":"c87b56dd","totalSupply()":"18160ddd","transferFrom(address,address,uint256)":"23b872dd","unallocateStabilizerFunds(uint256,(uint256,uint8,uint256))":"ff70fa64","uspdToken()":"4d0c810b"},"storageLayout":{"storage":[{"astId":51004,"contract":"src/StabilizerNFT.sol:StabilizerNFT","label":"positions","offset":0,"slot":"0","type":"t_mapping(t_uint256,t_struct(StabilizerPosition)50999_storage)"},{"astId":51006,"contract":"src/StabilizerNFT.sol:StabilizerNFT","label":"lowestUnallocatedId","offset":0,"slot":"1","type":"t_uint256"},{"astId":51008,"contract":"src/StabilizerNFT.sol:StabilizerNFT","label":"highestUnallocatedId","offset":0,"slot":"2","type":"t_uint256"},{"astId":51010,"contract":"src/StabilizerNFT.sol:StabilizerNFT","label":"lowestAllocatedId","offset":0,"slot":"3","type":"t_uint256"},{"astId":51012,"contract":"src/StabilizerNFT.sol:StabilizerNFT","label":"highestAllocatedId","offset":0,"slot":"4","type":"t_uint256"},{"astId":51015,"contract":"src/StabilizerNFT.sol:StabilizerNFT","label":"uspdToken","offset":0,"slot":"5","type":"t_contract(USPDToken)53613"},{"astId":51018,"contract":"src/StabilizerNFT.sol:StabilizerNFT","label":"positionNFT","offset":0,"slot":"6","type":"t_contract(IUspdCollateralizedPositionNFT)53869"}],"types":{"t_contract(IUspdCollateralizedPositionNFT)53869":{"encoding":"inplace","label":"contract IUspdCollateralizedPositionNFT","numberOfBytes":"20"},"t_contract(USPDToken)53613":{"encoding":"inplace","label":"contract USPDToken","numberOfBytes":"20"},"t_mapping(t_uint256,t_struct(StabilizerPosition)50999_storage)":{"encoding":"mapping","key":"t_uint256","label":"mapping(uint256 => struct StabilizerNFT.StabilizerPosition)","numberOfBytes":"32","value":"t_struct(StabilizerPosition)50999_storage"},"t_struct(StabilizerPosition)50999_storage":{"encoding":"inplace","label":"struct StabilizerNFT.StabilizerPosition","numberOfBytes":"192","members":[{"astId":50988,"contract":"src/StabilizerNFT.sol:StabilizerNFT","label":"totalEth","offset":0,"slot":"0","type":"t_uint256"},{"astId":50990,"contract":"src/StabilizerNFT.sol:StabilizerNFT","label":"minCollateralRatio","offset":0,"slot":"1","type":"t_uint256"},{"astId":50992,"contract":"src/StabilizerNFT.sol:StabilizerNFT","label":"prevUnallocated","offset":0,"slot":"2","type":"t_uint256"},{"astId":50994,"contract":"src/StabilizerNFT.sol:StabilizerNFT","label":"nextUnallocated","offset":0,"slot":"3","type":"t_uint256"},{"astId":50996,"contract":"src/StabilizerNFT.sol:StabilizerNFT","label":"prevAllocated","offset":0,"slot":"4","type":"t_uint256"},{"astId":50998,"contract":"src/StabilizerNFT.sol:StabilizerNFT","label":"nextAllocated","offset":0,"slot":"5","type":"t_uint256"}]},"t_uint256":{"encoding":"inplace","label":"uint256","numberOfBytes":"32"}}},"id":68}