{"abi":[{"type":"constructor","inputs":[],"stateMutability":"nonpayable"},{"type":"receive","stateMutability":"payable"},{"type":"function","name":"DEFAULT_ADMIN_ROLE","inputs":[],"outputs":[{"name":"","type":"bytes32","internalType":"bytes32"}],"stateMutability":"view"},{"type":"function","name":"FACTOR_PRECISION","inputs":[],"outputs":[{"name":"","type":"uint256","internalType":"uint256"}],"stateMutability":"view"},{"type":"function","name":"MINTER_ROLE","inputs":[],"outputs":[{"name":"","type":"bytes32","internalType":"bytes32"}],"stateMutability":"view"},{"type":"function","name":"MIN_GAS","inputs":[],"outputs":[{"name":"","type":"uint256","internalType":"uint256"}],"stateMutability":"view"},{"type":"function","name":"POSITION_ESCROW_ROLE","inputs":[],"outputs":[{"name":"","type":"bytes32","internalType":"bytes32"}],"stateMutability":"view"},{"type":"function","name":"addUnallocatedFundsEth","inputs":[{"name":"tokenId","type":"uint256","internalType":"uint256"}],"outputs":[],"stateMutability":"payable"},{"type":"function","name":"addUnallocatedFundsStETH","inputs":[{"name":"tokenId","type":"uint256","internalType":"uint256"},{"name":"stETHAmount","type":"uint256","internalType":"uint256"}],"outputs":[],"stateMutability":"nonpayable"},{"type":"function","name":"allocateStabilizerFunds","inputs":[{"name":"ethUsdPrice","type":"uint256","internalType":"uint256"},{"name":"priceDecimals","type":"uint256","internalType":"uint256"}],"outputs":[{"name":"result","type":"tuple","internalType":"struct IStabilizerNFT.AllocationResult","components":[{"name":"allocatedEth","type":"uint256","internalType":"uint256"},{"name":"totalEthEquivalentAdded","type":"uint256","internalType":"uint256"}]}],"stateMutability":"payable"},{"type":"function","name":"approve","inputs":[{"name":"to","type":"address","internalType":"address"},{"name":"tokenId","type":"uint256","internalType":"uint256"}],"outputs":[],"stateMutability":"nonpayable"},{"type":"function","name":"balanceOf","inputs":[{"name":"owner","type":"address","internalType":"address"}],"outputs":[{"name":"","type":"uint256","internalType":"uint256"}],"stateMutability":"view"},{"type":"function","name":"baseURI","inputs":[],"outputs":[{"name":"","type":"string","internalType":"string"}],"stateMutability":"view"},{"type":"function","name":"cuspdToken","inputs":[],"outputs":[{"name":"","type":"address","internalType":"contract IcUSPDToken"}],"stateMutability":"view"},{"type":"function","name":"getApproved","inputs":[{"name":"tokenId","type":"uint256","internalType":"uint256"}],"outputs":[{"name":"","type":"address","internalType":"address"}],"stateMutability":"view"},{"type":"function","name":"getMinCollateralRatio","inputs":[{"name":"tokenId","type":"uint256","internalType":"uint256"}],"outputs":[{"name":"","type":"uint256","internalType":"uint256"}],"stateMutability":"view"},{"type":"function","name":"getRoleAdmin","inputs":[{"name":"role","type":"bytes32","internalType":"bytes32"}],"outputs":[{"name":"","type":"bytes32","internalType":"bytes32"}],"stateMutability":"view"},{"type":"function","name":"grantRole","inputs":[{"name":"role","type":"bytes32","internalType":"bytes32"},{"name":"account","type":"address","internalType":"address"}],"outputs":[],"stateMutability":"nonpayable"},{"type":"function","name":"hasRole","inputs":[{"name":"role","type":"bytes32","internalType":"bytes32"},{"name":"account","type":"address","internalType":"address"}],"outputs":[{"name":"","type":"bool","internalType":"bool"}],"stateMutability":"view"},{"type":"function","name":"highestAllocatedId","inputs":[],"outputs":[{"name":"","type":"uint256","internalType":"uint256"}],"stateMutability":"view"},{"type":"function","name":"highestUnallocatedId","inputs":[],"outputs":[{"name":"","type":"uint256","internalType":"uint256"}],"stateMutability":"view"},{"type":"function","name":"initialize","inputs":[{"name":"_cuspdToken","type":"address","internalType":"address"},{"name":"_stETH","type":"address","internalType":"address"},{"name":"_lido","type":"address","internalType":"address"},{"name":"_rateContract","type":"address","internalType":"address"},{"name":"_reporterAddress","type":"address","internalType":"address"},{"name":"_baseURI","type":"string","internalType":"string"},{"name":"_stabilizerEscrowImpl","type":"address","internalType":"address"},{"name":"_positionEscrowImpl","type":"address","internalType":"address"},{"name":"_admin","type":"address","internalType":"address"}],"outputs":[],"stateMutability":"nonpayable"},{"type":"function","name":"isApprovedForAll","inputs":[{"name":"owner","type":"address","internalType":"address"},{"name":"operator","type":"address","internalType":"address"}],"outputs":[{"name":"","type":"bool","internalType":"bool"}],"stateMutability":"view"},{"type":"function","name":"lido","inputs":[],"outputs":[{"name":"","type":"address","internalType":"address"}],"stateMutability":"view"},{"type":"function","name":"lowestAllocatedId","inputs":[],"outputs":[{"name":"","type":"uint256","internalType":"uint256"}],"stateMutability":"view"},{"type":"function","name":"lowestUnallocatedId","inputs":[],"outputs":[{"name":"","type":"uint256","internalType":"uint256"}],"stateMutability":"view"},{"type":"function","name":"mint","inputs":[{"name":"to","type":"address","internalType":"address"},{"name":"tokenId","type":"uint256","internalType":"uint256"}],"outputs":[],"stateMutability":"nonpayable"},{"type":"function","name":"name","inputs":[],"outputs":[{"name":"","type":"string","internalType":"string"}],"stateMutability":"view"},{"type":"function","name":"ownerOf","inputs":[{"name":"tokenId","type":"uint256","internalType":"uint256"}],"outputs":[{"name":"","type":"address","internalType":"address"}],"stateMutability":"view"},{"type":"function","name":"positionEscrowImplementation","inputs":[],"outputs":[{"name":"","type":"address","internalType":"address"}],"stateMutability":"view"},{"type":"function","name":"positionEscrows","inputs":[{"name":"","type":"uint256","internalType":"uint256"}],"outputs":[{"name":"","type":"address","internalType":"address"}],"stateMutability":"view"},{"type":"function","name":"positions","inputs":[{"name":"","type":"uint256","internalType":"uint256"}],"outputs":[{"name":"minCollateralRatio","type":"uint256","internalType":"uint256"},{"name":"prevUnallocated","type":"uint256","internalType":"uint256"},{"name":"nextUnallocated","type":"uint256","internalType":"uint256"},{"name":"prevAllocated","type":"uint256","internalType":"uint256"},{"name":"nextAllocated","type":"uint256","internalType":"uint256"}],"stateMutability":"view"},{"type":"function","name":"rateContract","inputs":[],"outputs":[{"name":"","type":"address","internalType":"contract IPoolSharesConversionRate"}],"stateMutability":"view"},{"type":"function","name":"renounceRole","inputs":[{"name":"role","type":"bytes32","internalType":"bytes32"},{"name":"callerConfirmation","type":"address","internalType":"address"}],"outputs":[],"stateMutability":"nonpayable"},{"type":"function","name":"reportCollateralAddition","inputs":[{"name":"stEthAmount","type":"uint256","internalType":"uint256"}],"outputs":[],"stateMutability":"nonpayable"},{"type":"function","name":"reportCollateralRemoval","inputs":[{"name":"stEthAmount","type":"uint256","internalType":"uint256"}],"outputs":[],"stateMutability":"nonpayable"},{"type":"function","name":"reporter","inputs":[],"outputs":[{"name":"","type":"address","internalType":"contract IOvercollateralizationReporter"}],"stateMutability":"view"},{"type":"function","name":"revokeRole","inputs":[{"name":"role","type":"bytes32","internalType":"bytes32"},{"name":"account","type":"address","internalType":"address"}],"outputs":[],"stateMutability":"nonpayable"},{"type":"function","name":"safeTransferFrom","inputs":[{"name":"from","type":"address","internalType":"address"},{"name":"to","type":"address","internalType":"address"},{"name":"tokenId","type":"uint256","internalType":"uint256"}],"outputs":[],"stateMutability":"nonpayable"},{"type":"function","name":"safeTransferFrom","inputs":[{"name":"from","type":"address","internalType":"address"},{"name":"to","type":"address","internalType":"address"},{"name":"tokenId","type":"uint256","internalType":"uint256"},{"name":"data","type":"bytes","internalType":"bytes"}],"outputs":[],"stateMutability":"nonpayable"},{"type":"function","name":"setApprovalForAll","inputs":[{"name":"operator","type":"address","internalType":"address"},{"name":"approved","type":"bool","internalType":"bool"}],"outputs":[],"stateMutability":"nonpayable"},{"type":"function","name":"setBaseURI","inputs":[{"name":"newBaseURI","type":"string","internalType":"string"}],"outputs":[],"stateMutability":"nonpayable"},{"type":"function","name":"setMinCollateralizationRatio","inputs":[{"name":"tokenId","type":"uint256","internalType":"uint256"},{"name":"newRatio","type":"uint256","internalType":"uint256"}],"outputs":[],"stateMutability":"nonpayable"},{"type":"function","name":"stETH","inputs":[],"outputs":[{"name":"","type":"address","internalType":"address"}],"stateMutability":"view"},{"type":"function","name":"stabilizerEscrowImplementation","inputs":[],"outputs":[{"name":"","type":"address","internalType":"address"}],"stateMutability":"view"},{"type":"function","name":"stabilizerEscrows","inputs":[{"name":"","type":"uint256","internalType":"uint256"}],"outputs":[{"name":"","type":"address","internalType":"address"}],"stateMutability":"view"},{"type":"function","name":"supportsInterface","inputs":[{"name":"interfaceId","type":"bytes4","internalType":"bytes4"}],"outputs":[{"name":"","type":"bool","internalType":"bool"}],"stateMutability":"view"},{"type":"function","name":"symbol","inputs":[],"outputs":[{"name":"","type":"string","internalType":"string"}],"stateMutability":"view"},{"type":"function","name":"tokenByIndex","inputs":[{"name":"index","type":"uint256","internalType":"uint256"}],"outputs":[{"name":"","type":"uint256","internalType":"uint256"}],"stateMutability":"view"},{"type":"function","name":"tokenOfOwnerByIndex","inputs":[{"name":"owner","type":"address","internalType":"address"},{"name":"index","type":"uint256","internalType":"uint256"}],"outputs":[{"name":"","type":"uint256","internalType":"uint256"}],"stateMutability":"view"},{"type":"function","name":"tokenURI","inputs":[{"name":"tokenId","type":"uint256","internalType":"uint256"}],"outputs":[{"name":"","type":"string","internalType":"string"}],"stateMutability":"view"},{"type":"function","name":"totalSupply","inputs":[],"outputs":[{"name":"","type":"uint256","internalType":"uint256"}],"stateMutability":"view"},{"type":"function","name":"transferFrom","inputs":[{"name":"from","type":"address","internalType":"address"},{"name":"to","type":"address","internalType":"address"},{"name":"tokenId","type":"uint256","internalType":"uint256"}],"outputs":[],"stateMutability":"nonpayable"},{"type":"function","name":"unallocateStabilizerFunds","inputs":[{"name":"poolSharesToUnallocate","type":"uint256","internalType":"uint256"},{"name":"priceResponse","type":"tuple","internalType":"struct IPriceOracle.PriceResponse","components":[{"name":"price","type":"uint256","internalType":"uint256"},{"name":"decimals","type":"uint8","internalType":"uint8"},{"name":"timestamp","type":"uint256","internalType":"uint256"}]}],"outputs":[{"name":"unallocatedEth","type":"uint256","internalType":"uint256"}],"stateMutability":"nonpayable"},{"type":"event","name":"Approval","inputs":[{"name":"owner","type":"address","indexed":true,"internalType":"address"},{"name":"approved","type":"address","indexed":true,"internalType":"address"},{"name":"tokenId","type":"uint256","indexed":true,"internalType":"uint256"}],"anonymous":false},{"type":"event","name":"ApprovalForAll","inputs":[{"name":"owner","type":"address","indexed":true,"internalType":"address"},{"name":"operator","type":"address","indexed":true,"internalType":"address"},{"name":"approved","type":"bool","indexed":false,"internalType":"bool"}],"anonymous":false},{"type":"event","name":"FundsAllocated","inputs":[{"name":"tokenId","type":"uint256","indexed":true,"internalType":"uint256"},{"name":"stabilizersAmount","type":"uint256","indexed":false,"internalType":"uint256"},{"name":"usersAmount","type":"uint256","indexed":false,"internalType":"uint256"}],"anonymous":false},{"type":"event","name":"FundsUnallocated","inputs":[{"name":"tokenId","type":"uint256","indexed":true,"internalType":"uint256"},{"name":"userStEthAmount","type":"uint256","indexed":false,"internalType":"uint256"},{"name":"stabilizerStEthAmount","type":"uint256","indexed":false,"internalType":"uint256"}],"anonymous":false},{"type":"event","name":"Initialized","inputs":[{"name":"version","type":"uint64","indexed":false,"internalType":"uint64"}],"anonymous":false},{"type":"event","name":"MinCollateralRatioUpdated","inputs":[{"name":"tokenId","type":"uint256","indexed":true,"internalType":"uint256"},{"name":"oldRatio","type":"uint256","indexed":false,"internalType":"uint256"},{"name":"newRatio","type":"uint256","indexed":false,"internalType":"uint256"}],"anonymous":false},{"type":"event","name":"RoleAdminChanged","inputs":[{"name":"role","type":"bytes32","indexed":true,"internalType":"bytes32"},{"name":"previousAdminRole","type":"bytes32","indexed":true,"internalType":"bytes32"},{"name":"newAdminRole","type":"bytes32","indexed":true,"internalType":"bytes32"}],"anonymous":false},{"type":"event","name":"RoleGranted","inputs":[{"name":"role","type":"bytes32","indexed":true,"internalType":"bytes32"},{"name":"account","type":"address","indexed":true,"internalType":"address"},{"name":"sender","type":"address","indexed":true,"internalType":"address"}],"anonymous":false},{"type":"event","name":"RoleRevoked","inputs":[{"name":"role","type":"bytes32","indexed":true,"internalType":"bytes32"},{"name":"account","type":"address","indexed":true,"internalType":"address"},{"name":"sender","type":"address","indexed":true,"internalType":"address"}],"anonymous":false},{"type":"event","name":"StabilizerPositionCreated","inputs":[{"name":"tokenId","type":"uint256","indexed":true,"internalType":"uint256"},{"name":"owner","type":"address","indexed":true,"internalType":"address"}],"anonymous":false},{"type":"event","name":"Transfer","inputs":[{"name":"from","type":"address","indexed":true,"internalType":"address"},{"name":"to","type":"address","indexed":true,"internalType":"address"},{"name":"tokenId","type":"uint256","indexed":true,"internalType":"uint256"}],"anonymous":false},{"type":"event","name":"UnallocatedFundsAdded","inputs":[{"name":"tokenId","type":"uint256","indexed":true,"internalType":"uint256"},{"name":"asset","type":"address","indexed":false,"internalType":"address"},{"name":"amount","type":"uint256","indexed":false,"internalType":"uint256"}],"anonymous":false},{"type":"error","name":"AccessControlBadConfirmation","inputs":[]},{"type":"error","name":"AccessControlUnauthorizedAccount","inputs":[{"name":"account","type":"address","internalType":"address"},{"name":"neededRole","type":"bytes32","internalType":"bytes32"}]},{"type":"error","name":"ERC721EnumerableForbiddenBatchMint","inputs":[]},{"type":"error","name":"ERC721IncorrectOwner","inputs":[{"name":"sender","type":"address","internalType":"address"},{"name":"tokenId","type":"uint256","internalType":"uint256"},{"name":"owner","type":"address","internalType":"address"}]},{"type":"error","name":"ERC721InsufficientApproval","inputs":[{"name":"operator","type":"address","internalType":"address"},{"name":"tokenId","type":"uint256","internalType":"uint256"}]},{"type":"error","name":"ERC721InvalidApprover","inputs":[{"name":"approver","type":"address","internalType":"address"}]},{"type":"error","name":"ERC721InvalidOperator","inputs":[{"name":"operator","type":"address","internalType":"address"}]},{"type":"error","name":"ERC721InvalidOwner","inputs":[{"name":"owner","type":"address","internalType":"address"}]},{"type":"error","name":"ERC721InvalidReceiver","inputs":[{"name":"receiver","type":"address","internalType":"address"}]},{"type":"error","name":"ERC721InvalidSender","inputs":[{"name":"sender","type":"address","internalType":"address"}]},{"type":"error","name":"ERC721NonexistentToken","inputs":[{"name":"tokenId","type":"uint256","internalType":"uint256"}]},{"type":"error","name":"ERC721OutOfBoundsIndex","inputs":[{"name":"owner","type":"address","internalType":"address"},{"name":"index","type":"uint256","internalType":"uint256"}]},{"type":"error","name":"FailedDeployment","inputs":[]},{"type":"error","name":"InsufficientBalance","inputs":[{"name":"balance","type":"uint256","internalType":"uint256"},{"name":"needed","type":"uint256","internalType":"uint256"}]},{"type":"error","name":"InvalidInitialization","inputs":[]},{"type":"error","name":"NotInitializing","inputs":[]}],"bytecode":{"object":"0x6080604052348015600e575f80fd5b5060156019565b60c9565b7ff0c57e16840df040f15088dc2f81fe391c3923bec73e23a9662efc9c229c6a00805468010000000000000000900460ff161560685760405163f92ee8a960e01b815260040160405180910390fd5b80546001600160401b039081161460c65780546001600160401b0319166001600160401b0390811782556040519081527fc7f505b2f371ae2175ee4913f4499e1f2633a7b5936321eed1cdaeb6115181d29060200160405180910390a15b50565b614852806100d65f395ff3fe6080604052600436106102f6575f3560e01c80637da31f6111610189578063bb566297116100d8578063d743fd1e11610092578063e985e9c51161006d578063e985e9c514610955578063eee2421914610974578063f399beb714610993578063ff70fa64146109a6575f80fd5b8063d743fd1e14610902578063e6dec42114610917578063e96d578714610936575f80fd5b8063bb5662971461081f578063bba6fd6f1461083e578063c1fe3e4814610872578063c87b56dd14610891578063d5391393146108b0578063d547741f146108e3575f80fd5b806399fbab8811610143578063a22cb4651161011e578063a22cb465146107a7578063a42c69a9146107c6578063b88d4fde146107e1578063bb310a8014610800575f80fd5b806399fbab88146106f0578063a04ad51214610760578063a217fddf14610794575f80fd5b80637da31f6114610654578063853cad06146106735780638d7cac7b1461068857806391d14854146106a857806392133362146106c757806395d89b41146106dc575f80fd5b80632f745c59116102455780634f6ccce7116101ff57806367bff4a8116101da57806367bff4a8146105e35780636bc05b7e146106025780636c0360eb1461062157806370a0823114610635575f80fd5b80634f6ccce71461058657806355f804b3146105a55780636352211e146105c4575f80fd5b80632f745c59146104bd57806336568abe146104dc57806339112058146104fb57806340c10f191461051a57806342842e0e14610539578063451fda6814610558575f80fd5b806318160ddd116102b057806323b872dd1161028b57806323b872dd1461044b578063248a9ca31461046a5780632995bc50146104895780632f2ff15d1461049e575f80fd5b806318160ddd146103ec57806320d2c9511461041657806323509a2d1461042c575f80fd5b8063010ec4411461030157806301aa0b1a1461033d57806301ffc9a71461035e57806306fdde031461038d578063081812fc146103ae578063095ea7b3146103cd575f80fd5b366102fd57005b5f80fd5b34801561030c575f80fd5b50600654610320906001600160a01b031681565b6040516001600160a01b0390911681526020015b60405180910390f35b348015610348575f80fd5b5061035c610357366004613f03565b6109c5565b005b348015610369575f80fd5b5061037d610378366004613f38565b610af7565b6040519015158152602001610334565b348015610398575f80fd5b506103a1610b07565b6040516103349190613f81565b3480156103b9575f80fd5b506103206103c8366004613f93565b610ba8565b3480156103d8575f80fd5b5061035c6103e7366004613fce565b610bbc565b3480156103f7575f80fd5b505f805160206147dd833981519152545b604051908152602001610334565b348015610421575f80fd5b50610408620186a081565b348015610437575f80fd5b50600854610320906001600160a01b031681565b348015610456575f80fd5b5061035c610465366004613ff8565b610bcb565b348015610475575f80fd5b50610408610484366004613f93565b610c54565b348015610494575f80fd5b5061040860035481565b3480156104a9575f80fd5b5061035c6104b8366004614036565b610c74565b3480156104c8575f80fd5b506104086104d7366004613fce565b610c90565b3480156104e7575f80fd5b5061035c6104f6366004614036565b610d01565b348015610506575f80fd5b5061035c610515366004613f93565b610d39565b348015610525575f80fd5b5061035c610534366004613fce565b610e8b565b348015610544575f80fd5b5061035c610553366004613ff8565b6112bd565b61056b610566366004613f03565b6112d7565b60408051825181526020928301519281019290925201610334565b348015610591575f80fd5b506104086105a0366004613f93565b611a4e565b3480156105b0575f80fd5b5061035c6105bf36600461410d565b611ac0565b3480156105cf575f80fd5b506103206105de366004613f93565b611ad6565b3480156105ee575f80fd5b5061035c6105fd366004613f93565b611ae0565b34801561060d575f80fd5b50600554610320906001600160a01b031681565b34801561062c575f80fd5b506103a1611bf6565b348015610640575f80fd5b5061040861064f36600461413f565b611c82565b34801561065f575f80fd5b50600a54610320906001600160a01b031681565b34801561067e575f80fd5b5061040860015481565b348015610693575f80fd5b506104085f805160206147bd83398151915281565b3480156106b3575f80fd5b5061037d6106c2366004614036565b611cda565b3480156106d2575f80fd5b5061040860025481565b3480156106e7575f80fd5b506103a1611d10565b3480156106fb575f80fd5b5061073861070a366004613f93565b5f60208190529081526040902080546001820154600283015460038401546004909401549293919290919085565b604080519586526020860194909452928401919091526060830152608082015260a001610334565b34801561076b575f80fd5b5061032061077a366004613f93565b600d6020525f90815260409020546001600160a01b031681565b34801561079f575f80fd5b506104085f81565b3480156107b2575f80fd5b5061035c6107c1366004614167565b611d4e565b3480156107d1575f80fd5b50610408670de0b6b3a764000081565b3480156107ec575f80fd5b5061035c6107fb366004614193565b611d59565b34801561080b575f80fd5b5061040861081a366004613f93565b611d71565b34801561082a575f80fd5b5061035c610839366004613f03565b611ddb565b348015610849575f80fd5b50610320610858366004613f93565b600c6020525f90815260409020546001600160a01b031681565b34801561087d575f80fd5b50600754610320906001600160a01b031681565b34801561089c575f80fd5b506103a16108ab366004613f93565b611f82565b3480156108bb575f80fd5b506104087f9f2df0fed2c77648de5860a4cc508cd0818c85b8b8a1ab4ceeef8d981c8956a681565b3480156108ee575f80fd5b5061035c6108fd366004614036565b6120be565b34801561090d575f80fd5b5061040860045481565b348015610922575f80fd5b5061035c61093136600461420e565b6120da565b348015610941575f80fd5b50600b54610320906001600160a01b031681565b348015610960575f80fd5b5061037d61096f3660046142d6565b612339565b34801561097f575f80fd5b50600954610320906001600160a01b031681565b61035c6109a1366004613f93565b612385565b3480156109b1575f80fd5b506104086109c0366004614302565b6124e0565b336109cf83611ad6565b6001600160a01b0316146109fe5760405162461bcd60e51b81526004016109f590614382565b60405180910390fd5b606e811015610a4f5760405162461bcd60e51b815260206004820152601b60248201527f526174696f206d757374206265206174206c656173742031313025000000000060448201526064016109f5565b6103e8811115610aa15760405162461bcd60e51b815260206004820152601960248201527f526174696f2063616e6e6f74206578636565642031303030250000000000000060448201526064016109f5565b5f8281526020818152604091829020805484825583518181529283018590529092909185917f3e82d134b4a0328de7223eb1ae194d98009405cb6b8dc9c3d6bd70eb3aeb5c94910160405180910390a250505050565b5f610b0182612b63565b92915050565b5f8051602061479d8339815191528054606091908190610b26906143ab565b80601f0160208091040260200160405190810160405280929190818152602001828054610b52906143ab565b8015610b9d5780601f10610b7457610100808354040283529160200191610b9d565b820191905f5260205f20905b815481529060010190602001808311610b8057829003601f168201915b505050505091505090565b5f610bb282612b87565b50610b0182612bbe565b610bc7828233612bf7565b5050565b6001600160a01b038216610bf457604051633250574960e11b81525f60048201526024016109f5565b5f610c00838333612c04565b9050836001600160a01b0316816001600160a01b031614610c4e576040516364283d7b60e01b81526001600160a01b03808616600483015260248201849052821660448201526064016109f5565b50505050565b5f9081525f805160206147fd833981519152602052604090206001015490565b610c7d82610c54565b610c8681612c18565b610c4e8383612c25565b5f5f8051602061477d833981519152610ca884611c82565b8310610cd95760405163295f44f760e21b81526001600160a01b0385166004820152602481018490526044016109f5565b6001600160a01b0384165f908152602091825260408082208583529092522054905092915050565b6001600160a01b0381163314610d2a5760405163334bd91960e11b815260040160405180910390fd5b610d348282612cc6565b505050565b5f805160206147bd833981519152610d5081612c18565b8115610bc7576009546040805163efa7fa5d60e01b815290515f926001600160a01b03169163efa7fa5d9160048083019260209291908290030181865afa158015610d9d573d5f803e3d5ffd5b505050506040513d601f19601f82011682018060405250810190610dc191906143e3565b90505f8111610e215760405162461bcd60e51b815260206004820152602660248201527f5969656c6420666163746f72207a65726f20647572696e67207265706f72742060448201526572656d6f766560d01b60648201526084016109f5565b6006546001600160a01b031663f6ff3ee8610e3b8561440e565b6040518263ffffffff1660e01b8152600401610e5991815260200190565b5f604051808303815f87803b158015610e70575f80fd5b505af1158015610e82573d5f803e3d5ffd5b50505050505050565b7f9f2df0fed2c77648de5860a4cc508cd0818c85b8b8a1ab4ceeef8d981c8956a6610eb581612c18565b6040805160a081018252606e81525f6020808301828152838501838152606085018481526080860185815289865293859052959093209351845551600184015590516002830155915160038201559051600490910155610f158383612d3f565b6040516001600160a01b0384169083907f6474509949d7dca0e17a8cf02aeb66814967a3c7adbfefc212edb6e6693b6865905f90a3600a546001600160a01b0316610fa25760405162461bcd60e51b815260206004820152601d60248201527f53746162696c697a6572457363726f7720696d706c206e6f742073657400000060448201526064016109f5565b600b546001600160a01b0316610ffa5760405162461bcd60e51b815260206004820152601b60248201527f506f736974696f6e457363726f7720696d706c206e6f7420736574000000000060448201526064016109f5565b600a545f90611011906001600160a01b0316612d58565b90506001600160a01b0381166110695760405162461bcd60e51b815260206004820152601d60248201527f53746162696c697a6572457363726f7720636c6f6e65206661696c656400000060448201526064016109f5565b600754600854604051637c643b2f60e11b81523060048201526001600160a01b038781166024830152928316604482015290821660648201529082169063f8c8765e906084015f604051808303815f87803b1580156110c6575f80fd5b505af11580156110d8573d5f803e3d5ffd5b5050505f848152600c6020526040812080546001600160a01b0319166001600160a01b0385811691909117909155600b549192506111169116612d58565b90506001600160a01b03811661116e5760405162461bcd60e51b815260206004820152601b60248201527f506f736974696f6e457363726f7720636c6f6e65206661696c6564000000000060448201526064016109f5565b600754600854600954600554604080516307dc0d1d60e41b815290516001600160a01b038781169663cc2a9a5b9630968e9692841695918416949084169390921691637dc0d1d0916004808201926020929091908290030181865afa1580156111d9573d5f803e3d5ffd5b505050506040513d601f19601f820116820180604052508101906111fd9190614428565b60405160e088901b6001600160e01b03191681526001600160a01b0396871660048201529486166024860152928516604485015290841660648401528316608483015290911660a482015260c4015f604051808303815f87803b158015611262575f80fd5b505af1158015611274573d5f803e3d5ffd5b5050505f858152600d6020526040902080546001600160a01b0319166001600160a01b038416179055506112b55f805160206147bd83398151915282612c25565b505050505050565b610d3483838360405180602001604052805f815250611d59565b604080518082019091525f80825260208201526005546001600160a01b0316331461133a5760405162461bcd60e51b815260206004820152601360248201527213db9b1e4818d554d4110818dbdb9d1c9858dd606a1b60448201526064016109f5565b6001545f036113825760405162461bcd60e51b81526020600482015260146024820152734e6f20756e616c6c6f63617465642066756e647360601b60448201526064016109f5565b5f34116113bf5760405162461bcd60e51b815260206004820152600b60248201526a139bc8115512081cd95b9d60aa1b60448201526064016109f5565b6001545f8083526020830152345b81158015906113db57505f81115b1561199457620186a05a10611994575f82815260208181526040808320600c909252909120546001600160a01b0316806114575760405162461bcd60e51b815260206004820152601f60248201527f457363726f77206e6f7420666f756e6420666f722073746162696c697a65720060448201526064016109f5565b5f816001600160a01b031663ec60b9ab6040518163ffffffff1660e01b8152600401602060405180830381865afa158015611494573d5f803e3d5ffd5b505050506040513d601f19601f820116820180604052508101906114b891906143e3565b90508015806114c5575083155b156114d75750506002015491506113cd565b5f846064855f0154876114ea9190614443565b6114f4919061446e565b6114fe9190614481565b90505f82821161150e5781611510565b825b9050858282101561154b57855461152990606490614481565b611534836064614443565b61153e919061446e565b90508681111561154b5750855b5f888152600d60205260409020546001600160a01b0316806115aa5760405162461bcd60e51b8152602060048201526018602482015277141bdcda5d1a5bdb915cd8dc9bddc81b9bdd08199bdd5b9960421b60448201526064016109f5565b604051634f68ae7560e01b8152600481018490523060248201526001600160a01b03871690634f68ae75906044015f604051808303815f87803b1580156115ef575f80fd5b505af1158015611601573d5f803e3d5ffd5b50506007546040516323b872dd60e01b81526001600160a01b038a811660048301528581166024830152604482018890525f945090911691506323b872dd906064016020604051808303815f875af115801561165f573d5f803e3d5ffd5b505050506040513d601f19601f820116820180604052508101906116839190614494565b9050806116ed5760405162461bcd60e51b815260206004820152603260248201527f53746162696c697a6572207374455448207472616e7366657220746f20506f736044820152711a5d1a5bdb915cd8dc9bddc819985a5b195960721b60648201526084016109f5565b60405163bf3fdde760e01b8152600481018590526001600160a01b0383169063bf3fdde79085906024015f604051808303818588803b15801561172e575f80fd5b505af1158015611740573d5f803e3d5ffd5b50505050505f8c600a611753919061458a565b61175d8f86614443565b611767919061446e565b90505f60095f9054906101000a90046001600160a01b03166001600160a01b031663efa7fa5d6040518163ffffffff1660e01b8152600401602060405180830381865afa1580156117ba573d5f803e3d5ffd5b505050506040513d601f19601f820116820180604052508101906117de91906143e3565b90505f8160095f9054906101000a90046001600160a01b03166001600160a01b031663a42c69a96040518163ffffffff1660e01b8152600401602060405180830381865afa158015611832573d5f803e3d5ffd5b505050506040513d601f19601f8201168201806040525081019061185691906143e3565b6118609085614443565b61186a919061446e565b6040516302ff41ff60e21b8152600481018290529091506001600160a01b03861690630bfd07fc906024015f604051808303815f87803b1580156118ac575f80fd5b505af11580156118be573d5f803e3d5ffd5b50505050858e5f018181516118d39190614595565b9052506118e0868d614481565b6040805189815260208101899052919d508e917fc0a79f21f196b4ee5a242474a85cb9aa5fc2ce59ecc884d7271f1c2bd19b9a13910160405180910390a260038b0154158015611932575060048b0154155b801561194057508c60035414155b1561194e5761194e8d612d63565b6119588787614595565b8e6020018181516119699190614595565b90525060028b0154898803611981576119818e612e42565b9c506113cd9a5050505050505050505050565b82516119d75760405162461bcd60e51b8152602060048201526012602482015271139bc8199d5b991cc8185b1b1bd8d85d195960721b60448201526064016109f5565b602083015115611a46576006546020840151604051631edfe7dd60e31b81526001600160a01b039092169163f6ff3ee891611a189160040190815260200190565b5f604051808303815f87803b158015611a2f575f80fd5b505af1158015611a41573d5f803e3d5ffd5b505050505b505092915050565b5f5f8051602061477d833981519152611a725f805160206147dd8339815191525490565b8310611a9a5760405163295f44f760e21b81525f6004820152602481018490526044016109f5565b806002018381548110611aaf57611aaf6145a8565b905f5260205f200154915050919050565b5f611aca81612c18565b600e610d348382614600565b5f610b0182612b87565b5f805160206147bd833981519152611af781612c18565b8115610bc7576009546040805163efa7fa5d60e01b815290515f926001600160a01b03169163efa7fa5d9160048083019260209291908290030181865afa158015611b44573d5f803e3d5ffd5b505050506040513d601f19601f82011682018060405250810190611b6891906143e3565b90505f8111611bc55760405162461bcd60e51b815260206004820152602360248201527f5969656c6420666163746f72207a65726f20647572696e67207265706f72742060448201526218591960ea1b60648201526084016109f5565b600654604051631edfe7dd60e31b8152600481018590526001600160a01b039091169063f6ff3ee890602401610e59565b600e8054611c03906143ab565b80601f0160208091040260200160405190810160405280929190818152602001828054611c2f906143ab565b8015611c7a5780601f10611c5157610100808354040283529160200191611c7a565b820191905f5260205f20905b815481529060010190602001808311611c5d57829003601f168201915b505050505081565b5f5f8051602061479d8339815191526001600160a01b038316611cba576040516322718ad960e21b81525f60048201526024016109f5565b6001600160a01b039092165f908152600390920160205250604090205490565b5f9182525f805160206147fd833981519152602090815260408084206001600160a01b0393909316845291905290205460ff1690565b7f80bb2b638cc20bc4d0a60d66940f3ab4a00c1d7b313497ca82fb0b4ab007930180546060915f8051602061479d83398151915291610b26906143ab565b610bc7338383612f02565b611d64848484610bcb565b610c4e3385858585612fb1565b5f80611d7c83611ad6565b6001600160a01b031603611dc95760405162461bcd60e51b8152602060048201526014602482015273151bdad95b88191bd95cc81b9bdd08195e1a5cdd60621b60448201526064016109f5565b505f9081526020819052604090205490565b33611de583611ad6565b6001600160a01b031614611e0b5760405162461bcd60e51b81526004016109f590614382565b5f8111611e5a5760405162461bcd60e51b815260206004820152601760248201527f416d6f756e74206d75737420626520706f73697469766500000000000000000060448201526064016109f5565b5f828152600c60205260409020546001600160a01b031680611eb15760405162461bcd60e51b815260206004820152601060248201526f115cd8dc9bddc81b9bdd08199bdd5b9960821b60448201526064016109f5565b6007546040516323b872dd60e01b81523360048201526001600160a01b03838116602483015260448201859052909116906323b872dd906064016020604051808303815f875af1158015611f07573d5f803e3d5ffd5b505050506040513d601f19601f82011682018060405250810190611f2b9190614494565b50611f35836130d7565b600754604080516001600160a01b0390921682526020820184905284917f055b14c7efbc07d692265b907b52ec309741a29408ffad1d871aa6b371ac7729910160405180910390a2505050565b60605f611f8e83611ad6565b6001600160a01b031603611fe45760405162461bcd60e51b815260206004820152601860248201527f4552433732313a20696e76616c696420746f6b656e204944000000000000000060448201526064016109f5565b5f600e8054611ff2906143ab565b80601f016020809104026020016040519081016040528092919081815260200182805461201e906143ab565b80156120695780601f1061204057610100808354040283529160200191612069565b820191905f5260205f20905b81548152906001019060200180831161204c57829003601f168201915b505050505090505f81511161208c5760405180602001604052805f8152506120b7565b8061209684613210565b6040516020016120a79291906146d2565b6040516020818303038152906040525b9392505050565b6120c782610c54565b6120d081612c18565b610c4e8383612cc6565b5f6120e361330d565b805490915060ff600160401b820416159067ffffffffffffffff165f8115801561210a5750825b90505f8267ffffffffffffffff1660011480156121265750303b155b905081158015612134575080155b156121525760405163f92ee8a960e01b815260040160405180910390fd5b845467ffffffffffffffff19166001178555831561217c57845460ff60401b1916600160401b1785555b6121ca6040518060400160405280600f81526020016e2aa9a8221029ba30b134b634bd32b960891b81525060405180604001604052806005815260200164555350445360d81b815250613335565b6121d2613347565b6121da613347565b6121e45f87612c25565b508d60055f6101000a8154816001600160a01b0302191690836001600160a01b031602179055508c60075f6101000a8154816001600160a01b0302191690836001600160a01b031602179055508b60085f6101000a8154816001600160a01b0302191690836001600160a01b031602179055508a60095f6101000a8154816001600160a01b0302191690836001600160a01b031602179055508960065f6101000a8154816001600160a01b0302191690836001600160a01b0316021790555088600e90816122b29190614600565b50600a80546001600160a01b03808b166001600160a01b031992831617909255600b8054928a1692909116919091179055831561232957845460ff60401b19168555604051600181527fc7f505b2f371ae2175ee4913f4499e1f2633a7b5936321eed1cdaeb6115181d29060200160405180910390a15b5050505050505050505050505050565b6001600160a01b039182165f9081527f80bb2b638cc20bc4d0a60d66940f3ab4a00c1d7b313497ca82fb0b4ab00793056020908152604080832093909416825291909152205460ff1690565b3361238f82611ad6565b6001600160a01b0316146123b55760405162461bcd60e51b81526004016109f590614382565b5f34116123f25760405162461bcd60e51b815260206004820152600b60248201526a139bc8115512081cd95b9d60aa1b60448201526064016109f5565b5f818152600c60205260409020546001600160a01b0316806124495760405162461bcd60e51b815260206004820152601060248201526f115cd8dc9bddc81b9bdd08199bdd5b9960821b60448201526064016109f5565b806001600160a01b031663d0e30db0346040518263ffffffff1660e01b81526004015f604051808303818588803b158015612482575f80fd5b505af1158015612494573d5f803e3d5ffd5b50505050506124a2826130d7565b604080515f815234602082015283917f055b14c7efbc07d692265b907b52ec309741a29408ffad1d871aa6b371ac7729910160405180910390a25050565b6005545f906001600160a01b031633146125325760405162461bcd60e51b815260206004820152601360248201527213db9b1e4818d554d4110818dbdb9d1c9858dd606a1b60448201526064016109f5565b6004545f036125785760405162461bcd60e51b81526020600482015260126024820152714e6f20616c6c6f63617465642066756e647360701b60448201526064016109f5565b600454835f805b831580159061258d57505f83115b15612aa757620186a05a10612aa7575f84815260208181526040808320600d909252909120546001600160a01b0316806126045760405162461bcd60e51b8152602060048201526018602482015277141bdcda5d1a5bdb915cd8dc9bddc81b9bdd08199bdd5b9960421b60448201526064016109f5565b5f8190505f816001600160a01b031663d39aa95a6040518163ffffffff1660e01b8152600401602060405180830381865afa158015612645573d5f803e3d5ffd5b505050506040513d601f19601f8201168201806040525081019061266991906143e3565b90508015612a99575f81881161267f5787612681565b815b90508015612a97575f8061269685848f613351565b91509150846001600160a01b0316630bfd07fc846126b39061440e565b6040518263ffffffff1660e01b81526004016126d191815260200190565b5f604051808303815f87803b1580156126e8575f80fd5b505af11580156126fa573d5f803e3d5ffd5b5050604051634ea2884d60e11b815260048101859052602481018490523060448201526001600160a01b0388169250639d45109a91506064015f604051808303815f87803b15801561274a575f80fd5b505af115801561275c573d5f803e3d5ffd5b505050505f818361276d9190614481565b9050811561285d5760075460055460405163a9059cbb60e01b81526001600160a01b039182166004820152602481018590525f92919091169063a9059cbb906044016020604051808303815f875af11580156127cb573d5f803e3d5ffd5b505050506040513d601f19601f820116820180604052508101906127ef9190614494565b90508061284f5760405162461bcd60e51b815260206004820152602860248201527f55736572207374455448207472616e7366657220746f206355535044546f6b656044820152671b8819985a5b195960c21b60648201526084016109f5565b612859838c614595565b9a50505b80156129aa575f8c8152600c60205260409020546001600160a01b0316806128c75760405162461bcd60e51b815260206004820152601a60248201527f53746162696c697a6572457363726f77206e6f7420666f756e6400000000000060448201526064016109f5565b60075460405163a9059cbb60e01b81526001600160a01b038381166004830152602482018590525f92169063a9059cbb906044016020604051808303815f875af1158015612917573d5f803e3d5ffd5b505050506040513d601f19601f8201168201806040525081019061293b9190614494565b9050806129a75760405162461bcd60e51b815260206004820152603460248201527f53746162696c697a6572207374455448207472616e7366657220746f20537461604482015273189a5b1a5e995c915cd8dc9bddc819985a5b195960621b60648201526084016109f5565b50505b6129b4838a614595565b98508484148015612a4a576129c88d613655565b5f8d8152600c6020908152604080832054815163ec60b9ab60e01b815291516001600160a01b039091169263ec60b9ab92600480820193918290030181865afa158015612a17573d5f803e3d5ffd5b505050506040513d601f19601f82011682018060405250810190612a3b91906143e3565b1115612a4a57612a4a8d6130d7565b612a54858d614481565b6040805185815260208101859052919d508e917f7bd51af63c72ca163b2d37a37219fbdda7a4c3803f69ed76e3948078619a32f9910160405180910390a2505050505b505b50505060030154935061257f565b5f8211612aed5760405162461bcd60e51b8152602060048201526014602482015273139bc8199d5b991cc81d5b985b1b1bd8d85d195960621b60448201526064016109f5565b8015612b59576006546001600160a01b031663f6ff3ee8612b0d8361440e565b6040518263ffffffff1660e01b8152600401612b2b91815260200190565b5f604051808303815f87803b158015612b42575f80fd5b505af1158015612b54573d5f803e3d5ffd5b505050505b5095945050505050565b5f6001600160e01b03198216637965db0b60e01b1480610b015750610b0182613715565b5f80612b9283613739565b90506001600160a01b038116610b0157604051637e27328960e01b8152600481018490526024016109f5565b5f9081527f80bb2b638cc20bc4d0a60d66940f3ab4a00c1d7b313497ca82fb0b4ab007930460205260409020546001600160a01b031690565b610d348383836001613772565b5f612c10848484613885565b949350505050565b612c22813361397b565b50565b5f5f805160206147fd833981519152612c3e8484611cda565b612cbd575f848152602082815260408083206001600160a01b03871684529091529020805460ff19166001179055612c733390565b6001600160a01b0316836001600160a01b0316857f2f8788117e7eff1d82e926ec794901d17c78024a50270940304540a733656f0d60405160405180910390a46001915050610b01565b5f915050610b01565b5f5f805160206147fd833981519152612cdf8484611cda565b15612cbd575f848152602082815260408083206001600160a01b0387168085529252808320805460ff1916905551339287917ff6391f5c32d9c69d2a47ea670b442974b53935d1edc7fd64eb21e047a839171b9190a46001915050610b01565b610bc7828260405180602001604052805f8152506139b4565b5f610b01825f6139cb565b6003541580612d725750600454155b15612d81576003819055600455565b600454811115612daf57600480545f8381526020819052604080822060030183905591815220810182905555565b600354811015612ddd57600380545f8381526020819052604080822060040183905591815220810182905555565b6003545b8015801590612def57508181105b15612e0a575f90815260208190526040902060040154612de1565b5f8181526020819052604080822060039081018054868552838520928301819055600492830186905584529183200184905591905255565b5f81815260208190526040902060015482148015612e61575060025482145b15612e74575f6001819055600255612ef1565b6001548203612e9b57600281015460018181555f9182526020829052604082200155612ef1565b6002548203612ec257600181015460028181555f9182526020829052604082200155612ef1565b600180820154600280840180545f90815260208190526040808220909501849055905492815292909220909101555b5f6002820181905560019091015550565b5f8051602061479d8339815191526001600160a01b038316612f4257604051630b61174360e31b81526001600160a01b03841660048201526024016109f5565b6001600160a01b038481165f818152600584016020908152604080832094881680845294825291829020805460ff191687151590811790915591519182527f17307eab39ab6107e8899845ad3d59bd9653f200f220920489ca2b5937696c31910160405180910390a350505050565b6001600160a01b0383163b156130d057604051630a85bd0160e11b81526001600160a01b0384169063150b7a0290612ff39088908890879087906004016146e6565b6020604051808303815f875af192505050801561302d575060408051601f3d908101601f1916820190925261302a91810190614722565b60015b613094573d80801561305a576040519150601f19603f3d011682016040523d82523d5f602084013e61305f565b606091505b5080515f0361308c57604051633250574960e11b81526001600160a01b03851660048201526024016109f5565b805181602001fd5b6001600160e01b03198116630a85bd0160e11b146112b557604051633250574960e11b81526001600160a01b03851660048201526024016109f5565b5050505050565b5f81815260208190526040902060018101541580156130f857506002810154155b801561310657508160015414155b15610bc7576001545f0361311f57506001819055600255565b60025482111561314c57600280546001929092018290555f91825260208290526040909120810182905555565b60015482101561317957600180546002929092018290555f91825260208290526040909120810182905555565b6001545b5f81815260208190526040902060020154158015906131ab57505f8181526020819052604090206002015483115b156131c6575f9081526020819052604090206002015461317d565b5f81815260208190526040902060029081018054600185018490559184018290558490558015613208575f818152602081905260409020600101849055610c4e565b505050600255565b6060815f036132365750506040805180820190915260018152600360fc1b602082015290565b815f5b811561325f57806132498161473d565b91506132589050600a8361446e565b9150613239565b5f8167ffffffffffffffff81111561327957613279614064565b6040519080825280601f01601f1916602001820160405280156132a3576020820181803683370190505b5090505b8415612c10576132b8600183614481565b91506132c5600a86614755565b6132d0906030614595565b60f81b8183815181106132e5576132e56145a8565b60200101906001600160f81b03191690815f1a905350613306600a8661446e565b94506132a7565b5f807ff0c57e16840df040f15088dc2f81fe391c3923bec73e23a9662efc9c229c6a00610b01565b61333d613a5f565b610bc78282613a84565b61334f613a5f565b565b5f80846001600160a01b031663d39aa95a6040518163ffffffff1660e01b8152600401602060405180830381865afa15801561338f573d5f803e3d5ffd5b505050506040513d601f19601f820116820180604052508101906133b391906143e3565b5f036133c357505f90508061364d565b6009546040805163efa7fa5d60e01b815290515f926001600160a01b03169163efa7fa5d9160048083019260209291908290030181865afa15801561340a573d5f803e3d5ffd5b505050506040513d601f19601f8201168201806040525081019061342e91906143e3565b90505f60095f9054906101000a90046001600160a01b03166001600160a01b031663a42c69a96040518163ffffffff1660e01b8152600401602060405180830381865afa158015613481573d5f803e3d5ffd5b505050506040513d601f19601f820116820180604052508101906134a591906143e3565b6134af8388614443565b6134b9919061446e565b855190915061350a5760405162461bcd60e51b815260206004820152601b60248201527f4f7261636c652070726963652063616e6e6f74206265207a65726f000000000060448201526064016109f5565b8451602086015161351f9060ff16600a61458a565b6135299083614443565b613533919061446e565b6040805163dc607d6f60e01b815287516004820152602088015160ff1660248201529087015160448201529093505f906001600160a01b0389169063dc607d6f90606401602060405180830381865afa158015613592573d5f803e3d5ffd5b505050506040513d601f19601f820116820180604052508101906135b691906143e3565b905060648110156136255760405162461bcd60e51b815260206004820152603360248201527f43616e6e6f7420756e616c6c6f636174652066726f6d20756e646572636f6c6c60448201527230ba32b930b634bd32b2103837b9b4ba34b7b760691b60648201526084016109f5565b60646136318286614443565b61363b919061446e565b945084841115613649578493505b5050505b935093915050565b5f81815260208190526040902060035482148015613674575060045482145b15613687575f6003819055600455613704565b60035482036136ae57600481015460038181555f9182526020829052604082200155613704565b60045482036136d557600381015460048181555f9182526020829052604082200155613704565b600380820154600480840180545f90815260208190526040808220909501849055905492815292909220909101555b5f6004820181905560039091015550565b5f6001600160e01b0319821663780e9d6360e01b1480610b015750610b0182613ab4565b5f9081527f80bb2b638cc20bc4d0a60d66940f3ab4a00c1d7b313497ca82fb0b4ab007930260205260409020546001600160a01b031690565b5f8051602061479d833981519152818061379457506001600160a01b03831615155b15613855575f6137a385612b87565b90506001600160a01b038416158015906137cf5750836001600160a01b0316816001600160a01b031614155b80156137e257506137e08185612339565b155b1561380b5760405163a9fbf51f60e01b81526001600160a01b03851660048201526024016109f5565b82156138535784866001600160a01b0316826001600160a01b03167f8c5be1e5ebec7d5bd14f71427d1e84f3dd0314c0f7b2291e5b200ac8c7c3b92560405160405180910390a45b505b5f93845260040160205250506040902080546001600160a01b0319166001600160a01b0392909216919091179055565b5f80613892858585613b03565b90506001600160a01b03811661391957613914845f805160206147dd83398151915280545f8381527f645e039705490088daad89bae25049a34f4a9072d398537b1ab2425f24cbed0360205260408120829055600182018355919091527fa42f15e5d656f8155fd7419d740a6073999f19cd6e061449ce4a257150545bf20155565b61393c565b846001600160a01b0316816001600160a01b03161461393c5761393c8185613c05565b6001600160a01b0385166139585761395384613c9c565b612c10565b846001600160a01b0316816001600160a01b031614612c1057612c108585613d69565b6139858282611cda565b610bc75760405163e2517d3f60e01b81526001600160a01b0382166004820152602481018390526044016109f5565b6139be8383613dc1565b610d34335f858585612fb1565b5f814710156139f65760405163cf47918160e01b8152476004820152602481018390526044016109f5565b763d602d80600a3d3981f3363d3d373d3d3d363d730000008360601b60e81c175f526e5af43d82803e903d91602b57fd5bf38360781b176020526037600983f090506001600160a01b038116610b015760405163b06ebf3d60e01b815260040160405180910390fd5b613a67613e22565b61334f57604051631afcd79f60e31b815260040160405180910390fd5b613a8c613a5f565b5f8051602061479d83398151915280613aa58482614600565b5060018101610c4e8382614600565b5f6001600160e01b031982166380ac58cd60e01b1480613ae457506001600160e01b03198216635b5e139f60e01b145b80610b0157506301ffc9a760e01b6001600160e01b0319831614610b01565b5f5f8051602061479d83398151915281613b1c85613739565b90506001600160a01b03841615613b3857613b38818587613e3b565b6001600160a01b03811615613b7457613b535f865f80613772565b6001600160a01b0381165f908152600383016020526040902080545f190190555b6001600160a01b03861615613ba4576001600160a01b0386165f9081526003830160205260409020805460010190555b5f85815260028301602052604080822080546001600160a01b0319166001600160a01b038a811691821790925591518893918516917fddf252ad1be2c89b69c2b068fc378daa952ba7f163c4a11628f55a4df523b3ef91a495945050505050565b5f8051602061477d8339815191525f613c1d84611c82565b5f8481526001840160209081526040808320546001600160a01b03891684529186905290912091925090818314613c75575f838152602082815260408083205485845281842081905583526001870190915290208290555b5f948552600190930160209081526040808620869055928552929092528220919091555050565b5f805160206147dd833981519152545f8051602061477d833981519152905f90613cc890600190614481565b5f848152600384016020526040812054600285018054939450909284908110613cf357613cf36145a8565b905f5260205f200154905080846002018381548110613d1457613d146145a8565b5f91825260208083209091019290925582815260038601909152604080822084905586825281205560028401805480613d4f57613d4f614768565b600190038181905f5260205f20015f905590555050505050565b5f8051602061477d8339815191525f6001613d8385611c82565b613d8d9190614481565b6001600160a01b039094165f9081526020838152604080832087845282528083208690559482526001909301909252502055565b6001600160a01b038216613dea57604051633250574960e11b81525f60048201526024016109f5565b5f613df683835f612c04565b90506001600160a01b03811615610d34576040516339e3563760e11b81525f60048201526024016109f5565b5f613e2b61330d565b54600160401b900460ff16919050565b613e46838383613e9f565b610d34576001600160a01b038316613e7457604051637e27328960e01b8152600481018290526024016109f5565b60405163177e802f60e01b81526001600160a01b0383166004820152602481018290526044016109f5565b5f6001600160a01b03831615801590612c105750826001600160a01b0316846001600160a01b03161480613ed85750613ed88484612339565b80612c105750826001600160a01b0316613ef183612bbe565b6001600160a01b031614949350505050565b5f8060408385031215613f14575f80fd5b50508035926020909101359150565b6001600160e01b031981168114612c22575f80fd5b5f60208284031215613f48575f80fd5b81356120b781613f23565b5f81518084528060208401602086015e5f602082860101526020601f19601f83011685010191505092915050565b602081525f6120b76020830184613f53565b5f60208284031215613fa3575f80fd5b5035919050565b6001600160a01b0381168114612c22575f80fd5b8035613fc981613faa565b919050565b5f8060408385031215613fdf575f80fd5b8235613fea81613faa565b946020939093013593505050565b5f805f6060848603121561400a575f80fd5b833561401581613faa565b9250602084013561402581613faa565b929592945050506040919091013590565b5f8060408385031215614047575f80fd5b82359150602083013561405981613faa565b809150509250929050565b634e487b7160e01b5f52604160045260245ffd5b5f8067ffffffffffffffff84111561409257614092614064565b50604051601f19601f85018116603f0116810181811067ffffffffffffffff821117156140c1576140c1614064565b6040528381529050808284018510156140d8575f80fd5b838360208301375f60208583010152509392505050565b5f82601f8301126140fe575f80fd5b6120b783833560208501614078565b5f6020828403121561411d575f80fd5b813567ffffffffffffffff811115614133575f80fd5b612c10848285016140ef565b5f6020828403121561414f575f80fd5b81356120b781613faa565b8015158114612c22575f80fd5b5f8060408385031215614178575f80fd5b823561418381613faa565b915060208301356140598161415a565b5f805f80608085870312156141a6575f80fd5b84356141b181613faa565b935060208501356141c181613faa565b925060408501359150606085013567ffffffffffffffff8111156141e3575f80fd5b8501601f810187136141f3575f80fd5b61420287823560208401614078565b91505092959194509250565b5f805f805f805f805f6101208a8c031215614227575f80fd5b893561423281613faa565b985060208a013561424281613faa565b975060408a013561425281613faa565b965060608a013561426281613faa565b955060808a013561427281613faa565b945060a08a013567ffffffffffffffff81111561428d575f80fd5b6142998c828d016140ef565b94505060c08a01356142aa81613faa565b92506142b860e08b01613fbe565b91506142c76101008b01613fbe565b90509295985092959850929598565b5f80604083850312156142e7575f80fd5b82356142f281613faa565b9150602083013561405981613faa565b5f808284036080811215614314575f80fd5b833592506060601f1982011215614329575f80fd5b506040516060810167ffffffffffffffff8111828210171561434d5761434d614064565b60409081526020850135825284013560ff8116811461436a575f80fd5b60208201526060939093013560408401525092909150565b6020808252600f908201526e2737ba103a37b5b2b71037bbb732b960891b604082015260600190565b600181811c908216806143bf57607f821691505b6020821081036143dd57634e487b7160e01b5f52602260045260245ffd5b50919050565b5f602082840312156143f3575f80fd5b5051919050565b634e487b7160e01b5f52601160045260245ffd5b5f600160ff1b8201614422576144226143fa565b505f0390565b5f60208284031215614438575f80fd5b81516120b781613faa565b8082028115828204841417610b0157610b016143fa565b634e487b7160e01b5f52601260045260245ffd5b5f8261447c5761447c61445a565b500490565b81810381811115610b0157610b016143fa565b5f602082840312156144a4575f80fd5b81516120b78161415a565b6001815b600184111561364d578085048111156144ce576144ce6143fa565b60018416156144dc57908102905b60019390931c9280026144b3565b5f826144f857506001610b01565b8161450457505f610b01565b816001811461451a576002811461452457614540565b6001915050610b01565b60ff841115614535576145356143fa565b50506001821b610b01565b5060208310610133831016604e8410600b8410161715614563575081810a610b01565b61456f5f1984846144af565b805f1904821115614582576145826143fa565b029392505050565b5f6120b783836144ea565b80820180821115610b0157610b016143fa565b634e487b7160e01b5f52603260045260245ffd5b601f821115610d3457805f5260205f20601f840160051c810160208510156145e15750805b601f840160051c820191505b818110156130d0575f81556001016145ed565b815167ffffffffffffffff81111561461a5761461a614064565b61462e8161462884546143ab565b846145bc565b6020601f821160018114614660575f83156146495750848201515b5f19600385901b1c1916600184901b1784556130d0565b5f84815260208120601f198516915b8281101561468f578785015182556020948501946001909201910161466f565b50848210156146ac57868401515f19600387901b60f8161c191681555b50505050600190811b01905550565b5f81518060208401855e5f93019283525090919050565b5f612c106146e083866146bb565b846146bb565b6001600160a01b03858116825284166020820152604081018390526080606082018190525f9061471890830184613f53565b9695505050505050565b5f60208284031215614732575f80fd5b81516120b781613f23565b5f6001820161474e5761474e6143fa565b5060010190565b5f826147635761476361445a565b500690565b634e487b7160e01b5f52603160045260245ffdfe645e039705490088daad89bae25049a34f4a9072d398537b1ab2425f24cbed0080bb2b638cc20bc4d0a60d66940f3ab4a00c1d7b313497ca82fb0b4ab00793008c21e8ab0c92c4c41f2714adb63619371ca8ed5eb69a6fed79b7d52cdd9703ae645e039705490088daad89bae25049a34f4a9072d398537b1ab2425f24cbed0202dd7bc7dec4dceedda775e58dd541e08a116c6c53815c0bd028192f7b626800a2646970667358221220622042664cd914ec4d330da586ad12cbaccea7dec51b6db83a4032bc8dcd5ed664736f6c634300081a0033","linkReferences":{}},"methodIdentifiers":{"DEFAULT_ADMIN_ROLE()":"a217fddf","FACTOR_PRECISION()":"a42c69a9","MINTER_ROLE()":"d5391393","MIN_GAS()":"20d2c951","POSITION_ESCROW_ROLE()":"8d7cac7b","addUnallocatedFundsEth(uint256)":"f399beb7","addUnallocatedFundsStETH(uint256,uint256)":"bb566297","allocateStabilizerFunds(uint256,uint256)":"451fda68","approve(address,uint256)":"095ea7b3","balanceOf(address)":"70a08231","baseURI()":"6c0360eb","cuspdToken()":"6bc05b7e","getApproved(uint256)":"081812fc","getMinCollateralRatio(uint256)":"bb310a80","getRoleAdmin(bytes32)":"248a9ca3","grantRole(bytes32,address)":"2f2ff15d","hasRole(bytes32,address)":"91d14854","highestAllocatedId()":"d743fd1e","highestUnallocatedId()":"92133362","initialize(address,address,address,address,address,string,address,address,address)":"e6dec421","isApprovedForAll(address,address)":"e985e9c5","lido()":"23509a2d","lowestAllocatedId()":"2995bc50","lowestUnallocatedId()":"853cad06","mint(address,uint256)":"40c10f19","name()":"06fdde03","ownerOf(uint256)":"6352211e","positionEscrowImplementation()":"e96d5787","positionEscrows(uint256)":"a04ad512","positions(uint256)":"99fbab88","rateContract()":"eee24219","renounceRole(bytes32,address)":"36568abe","reportCollateralAddition(uint256)":"67bff4a8","reportCollateralRemoval(uint256)":"39112058","reporter()":"010ec441","revokeRole(bytes32,address)":"d547741f","safeTransferFrom(address,address,uint256)":"42842e0e","safeTransferFrom(address,address,uint256,bytes)":"b88d4fde","setApprovalForAll(address,bool)":"a22cb465","setBaseURI(string)":"55f804b3","setMinCollateralizationRatio(uint256,uint256)":"01aa0b1a","stETH()":"c1fe3e48","stabilizerEscrowImplementation()":"7da31f61","stabilizerEscrows(uint256)":"bba6fd6f","supportsInterface(bytes4)":"01ffc9a7","symbol()":"95d89b41","tokenByIndex(uint256)":"4f6ccce7","tokenOfOwnerByIndex(address,uint256)":"2f745c59","tokenURI(uint256)":"c87b56dd","totalSupply()":"18160ddd","transferFrom(address,address,uint256)":"23b872dd","unallocateStabilizerFunds(uint256,(uint256,uint8,uint256))":"ff70fa64"},"storageLayout":{"storage":[{"astId":53683,"contract":"src/StabilizerNFT.sol:StabilizerNFT","label":"positions","offset":0,"slot":"0","type":"t_mapping(t_uint256,t_struct(StabilizerPosition)53678_storage)"},{"astId":53685,"contract":"src/StabilizerNFT.sol:StabilizerNFT","label":"lowestUnallocatedId","offset":0,"slot":"1","type":"t_uint256"},{"astId":53687,"contract":"src/StabilizerNFT.sol:StabilizerNFT","label":"highestUnallocatedId","offset":0,"slot":"2","type":"t_uint256"},{"astId":53689,"contract":"src/StabilizerNFT.sol:StabilizerNFT","label":"lowestAllocatedId","offset":0,"slot":"3","type":"t_uint256"},{"astId":53691,"contract":"src/StabilizerNFT.sol:StabilizerNFT","label":"highestAllocatedId","offset":0,"slot":"4","type":"t_uint256"},{"astId":53694,"contract":"src/StabilizerNFT.sol:StabilizerNFT","label":"cuspdToken","offset":0,"slot":"5","type":"t_contract(IcUSPDToken)57253"},{"astId":53697,"contract":"src/StabilizerNFT.sol:StabilizerNFT","label":"reporter","offset":0,"slot":"6","type":"t_contract(IOvercollateralizationReporter)56913"},{"astId":53699,"contract":"src/StabilizerNFT.sol:StabilizerNFT","label":"stETH","offset":0,"slot":"7","type":"t_address"},{"astId":53701,"contract":"src/StabilizerNFT.sol:StabilizerNFT","label":"lido","offset":0,"slot":"8","type":"t_address"},{"astId":53704,"contract":"src/StabilizerNFT.sol:StabilizerNFT","label":"rateContract","offset":0,"slot":"9","type":"t_contract(IPoolSharesConversionRate)56942"},{"astId":53706,"contract":"src/StabilizerNFT.sol:StabilizerNFT","label":"stabilizerEscrowImplementation","offset":0,"slot":"10","type":"t_address"},{"astId":53708,"contract":"src/StabilizerNFT.sol:StabilizerNFT","label":"positionEscrowImplementation","offset":0,"slot":"11","type":"t_address"},{"astId":53712,"contract":"src/StabilizerNFT.sol:StabilizerNFT","label":"stabilizerEscrows","offset":0,"slot":"12","type":"t_mapping(t_uint256,t_address)"},{"astId":53716,"contract":"src/StabilizerNFT.sol:StabilizerNFT","label":"positionEscrows","offset":0,"slot":"13","type":"t_mapping(t_uint256,t_address)"},{"astId":53718,"contract":"src/StabilizerNFT.sol:StabilizerNFT","label":"baseURI","offset":0,"slot":"14","type":"t_string_storage"}],"types":{"t_address":{"encoding":"inplace","label":"address","numberOfBytes":"20"},"t_contract(IOvercollateralizationReporter)56913":{"encoding":"inplace","label":"contract IOvercollateralizationReporter","numberOfBytes":"20"},"t_contract(IPoolSharesConversionRate)56942":{"encoding":"inplace","label":"contract IPoolSharesConversionRate","numberOfBytes":"20"},"t_contract(IcUSPDToken)57253":{"encoding":"inplace","label":"contract IcUSPDToken","numberOfBytes":"20"},"t_mapping(t_uint256,t_address)":{"encoding":"mapping","key":"t_uint256","label":"mapping(uint256 => address)","numberOfBytes":"32","value":"t_address"},"t_mapping(t_uint256,t_struct(StabilizerPosition)53678_storage)":{"encoding":"mapping","key":"t_uint256","label":"mapping(uint256 => struct StabilizerNFT.StabilizerPosition)","numberOfBytes":"32","value":"t_struct(StabilizerPosition)53678_storage"},"t_string_storage":{"encoding":"bytes","label":"string","numberOfBytes":"32"},"t_struct(StabilizerPosition)53678_storage":{"encoding":"inplace","label":"struct StabilizerNFT.StabilizerPosition","numberOfBytes":"160","members":[{"astId":53669,"contract":"src/StabilizerNFT.sol:StabilizerNFT","label":"minCollateralRatio","offset":0,"slot":"0","type":"t_uint256"},{"astId":53671,"contract":"src/StabilizerNFT.sol:StabilizerNFT","label":"prevUnallocated","offset":0,"slot":"1","type":"t_uint256"},{"astId":53673,"contract":"src/StabilizerNFT.sol:StabilizerNFT","label":"nextUnallocated","offset":0,"slot":"2","type":"t_uint256"},{"astId":53675,"contract":"src/StabilizerNFT.sol:StabilizerNFT","label":"prevAllocated","offset":0,"slot":"3","type":"t_uint256"},{"astId":53677,"contract":"src/StabilizerNFT.sol:StabilizerNFT","label":"nextAllocated","offset":0,"slot":"4","type":"t_uint256"}]},"t_uint256":{"encoding":"inplace","label":"uint256","numberOfBytes":"32"}}},"id":75}