{"abi":[{"type":"constructor","inputs":[],"stateMutability":"nonpayable"},{"type":"function","name":"DEFAULT_ADMIN_ROLE","inputs":[],"outputs":[{"name":"","type":"bytes32","internalType":"bytes32"}],"stateMutability":"view"},{"type":"function","name":"FACTOR_PRECISION","inputs":[],"outputs":[{"name":"","type":"uint256","internalType":"uint256"}],"stateMutability":"view"},{"type":"function","name":"MINIMUM_UNALLOCATE_COLLATERALIZATION_RATIO","inputs":[],"outputs":[{"name":"","type":"uint256","internalType":"uint256"}],"stateMutability":"view"},{"type":"function","name":"MINTER_ROLE","inputs":[],"outputs":[{"name":"","type":"bytes32","internalType":"bytes32"}],"stateMutability":"view"},{"type":"function","name":"MIN_GAS","inputs":[],"outputs":[{"name":"","type":"uint256","internalType":"uint256"}],"stateMutability":"view"},{"type":"function","name":"POSITION_ESCROW_ROLE","inputs":[],"outputs":[{"name":"","type":"bytes32","internalType":"bytes32"}],"stateMutability":"view"},{"type":"function","name":"UPGRADER_ROLE","inputs":[],"outputs":[{"name":"","type":"bytes32","internalType":"bytes32"}],"stateMutability":"view"},{"type":"function","name":"UPGRADE_INTERFACE_VERSION","inputs":[],"outputs":[{"name":"","type":"string","internalType":"string"}],"stateMutability":"view"},{"type":"function","name":"addUnallocatedFundsEth","inputs":[{"name":"tokenId","type":"uint256","internalType":"uint256"}],"outputs":[],"stateMutability":"payable"},{"type":"function","name":"addUnallocatedFundsStETH","inputs":[{"name":"tokenId","type":"uint256","internalType":"uint256"},{"name":"stETHAmount","type":"uint256","internalType":"uint256"}],"outputs":[],"stateMutability":"nonpayable"},{"type":"function","name":"allocateStabilizerFunds","inputs":[{"name":"ethUsdPrice","type":"uint256","internalType":"uint256"},{"name":"priceDecimals","type":"uint256","internalType":"uint256"}],"outputs":[{"name":"result","type":"tuple","internalType":"struct IStabilizerNFT.AllocationResult","components":[{"name":"allocatedEth","type":"uint256","internalType":"uint256"},{"name":"totalEthEquivalentAdded","type":"uint256","internalType":"uint256"}]}],"stateMutability":"payable"},{"type":"function","name":"approve","inputs":[{"name":"to","type":"address","internalType":"address"},{"name":"tokenId","type":"uint256","internalType":"uint256"}],"outputs":[],"stateMutability":"nonpayable"},{"type":"function","name":"balanceOf","inputs":[{"name":"owner","type":"address","internalType":"address"}],"outputs":[{"name":"","type":"uint256","internalType":"uint256"}],"stateMutability":"view"},{"type":"function","name":"baseURI","inputs":[],"outputs":[{"name":"","type":"string","internalType":"string"}],"stateMutability":"view"},{"type":"function","name":"cuspdToken","inputs":[],"outputs":[{"name":"","type":"address","internalType":"contract IcUSPDToken"}],"stateMutability":"view"},{"type":"function","name":"getApproved","inputs":[{"name":"tokenId","type":"uint256","internalType":"uint256"}],"outputs":[{"name":"","type":"address","internalType":"address"}],"stateMutability":"view"},{"type":"function","name":"getRoleAdmin","inputs":[{"name":"role","type":"bytes32","internalType":"bytes32"}],"outputs":[{"name":"","type":"bytes32","internalType":"bytes32"}],"stateMutability":"view"},{"type":"function","name":"grantRole","inputs":[{"name":"role","type":"bytes32","internalType":"bytes32"},{"name":"account","type":"address","internalType":"address"}],"outputs":[],"stateMutability":"nonpayable"},{"type":"function","name":"hasRole","inputs":[{"name":"role","type":"bytes32","internalType":"bytes32"},{"name":"account","type":"address","internalType":"address"}],"outputs":[{"name":"","type":"bool","internalType":"bool"}],"stateMutability":"view"},{"type":"function","name":"highestAllocatedId","inputs":[],"outputs":[{"name":"","type":"uint256","internalType":"uint256"}],"stateMutability":"view"},{"type":"function","name":"highestUnallocatedId","inputs":[],"outputs":[{"name":"","type":"uint256","internalType":"uint256"}],"stateMutability":"view"},{"type":"function","name":"initialize","inputs":[{"name":"_cuspdToken","type":"address","internalType":"address"},{"name":"_stETH","type":"address","internalType":"address"},{"name":"_lido","type":"address","internalType":"address"},{"name":"_rateContract","type":"address","internalType":"address"},{"name":"_reporterAddress","type":"address","internalType":"address"},{"name":"_insuranceEscrowAddress","type":"address","internalType":"address"},{"name":"_baseURI","type":"string","internalType":"string"},{"name":"_stabilizerEscrowImpl","type":"address","internalType":"address"},{"name":"_positionEscrowImpl","type":"address","internalType":"address"},{"name":"_admin","type":"address","internalType":"address"}],"outputs":[],"stateMutability":"nonpayable"},{"type":"function","name":"insuranceEscrow","inputs":[],"outputs":[{"name":"","type":"address","internalType":"contract IInsuranceEscrow"}],"stateMutability":"view"},{"type":"function","name":"isApprovedForAll","inputs":[{"name":"owner","type":"address","internalType":"address"},{"name":"operator","type":"address","internalType":"address"}],"outputs":[{"name":"","type":"bool","internalType":"bool"}],"stateMutability":"view"},{"type":"function","name":"lido","inputs":[],"outputs":[{"name":"","type":"address","internalType":"address"}],"stateMutability":"view"},{"type":"function","name":"liquidatePosition","inputs":[{"name":"liquidatorTokenId","type":"uint256","internalType":"uint256"},{"name":"positionTokenId","type":"uint256","internalType":"uint256"},{"name":"cuspdSharesToLiquidate","type":"uint256","internalType":"uint256"},{"name":"priceQuery","type":"tuple","internalType":"struct IPriceOracle.PriceAttestationQuery","components":[{"name":"price","type":"uint256","internalType":"uint256"},{"name":"decimals","type":"uint8","internalType":"uint8"},{"name":"dataTimestamp","type":"uint256","internalType":"uint256"},{"name":"assetPair","type":"bytes32","internalType":"bytes32"},{"name":"signature","type":"bytes","internalType":"bytes"}]}],"outputs":[],"stateMutability":"nonpayable"},{"type":"function","name":"liquidationLiquidatorPayoutPercent","inputs":[],"outputs":[{"name":"","type":"uint256","internalType":"uint256"}],"stateMutability":"view"},{"type":"function","name":"lowestAllocatedId","inputs":[],"outputs":[{"name":"","type":"uint256","internalType":"uint256"}],"stateMutability":"view"},{"type":"function","name":"lowestUnallocatedId","inputs":[],"outputs":[{"name":"","type":"uint256","internalType":"uint256"}],"stateMutability":"view"},{"type":"function","name":"mint","inputs":[{"name":"to","type":"address","internalType":"address"}],"outputs":[{"name":"","type":"uint256","internalType":"uint256"}],"stateMutability":"nonpayable"},{"type":"function","name":"name","inputs":[],"outputs":[{"name":"","type":"string","internalType":"string"}],"stateMutability":"view"},{"type":"function","name":"ownerOf","inputs":[{"name":"tokenId","type":"uint256","internalType":"uint256"}],"outputs":[{"name":"","type":"address","internalType":"address"}],"stateMutability":"view"},{"type":"function","name":"positionEscrowImplementation","inputs":[],"outputs":[{"name":"","type":"address","internalType":"address"}],"stateMutability":"view"},{"type":"function","name":"positionEscrows","inputs":[{"name":"","type":"uint256","internalType":"uint256"}],"outputs":[{"name":"","type":"address","internalType":"address"}],"stateMutability":"view"},{"type":"function","name":"positions","inputs":[{"name":"","type":"uint256","internalType":"uint256"}],"outputs":[{"name":"minCollateralRatio","type":"uint256","internalType":"uint256"},{"name":"prevUnallocated","type":"uint256","internalType":"uint256"},{"name":"nextUnallocated","type":"uint256","internalType":"uint256"},{"name":"prevAllocated","type":"uint256","internalType":"uint256"},{"name":"nextAllocated","type":"uint256","internalType":"uint256"}],"stateMutability":"view"},{"type":"function","name":"proxiableUUID","inputs":[],"outputs":[{"name":"","type":"bytes32","internalType":"bytes32"}],"stateMutability":"view"},{"type":"function","name":"rateContract","inputs":[],"outputs":[{"name":"","type":"address","internalType":"contract IPoolSharesConversionRate"}],"stateMutability":"view"},{"type":"function","name":"removeUnallocatedFunds","inputs":[{"name":"tokenId","type":"uint256","internalType":"uint256"},{"name":"stETHAmount","type":"uint256","internalType":"uint256"}],"outputs":[],"stateMutability":"nonpayable"},{"type":"function","name":"renounceRole","inputs":[{"name":"role","type":"bytes32","internalType":"bytes32"},{"name":"callerConfirmation","type":"address","internalType":"address"}],"outputs":[],"stateMutability":"nonpayable"},{"type":"function","name":"reportCollateralAddition","inputs":[{"name":"stEthAmount","type":"uint256","internalType":"uint256"}],"outputs":[],"stateMutability":"nonpayable"},{"type":"function","name":"reportCollateralRemoval","inputs":[{"name":"stEthAmount","type":"uint256","internalType":"uint256"}],"outputs":[],"stateMutability":"nonpayable"},{"type":"function","name":"reporter","inputs":[],"outputs":[{"name":"","type":"address","internalType":"contract IOvercollateralizationReporter"}],"stateMutability":"view"},{"type":"function","name":"revokeRole","inputs":[{"name":"role","type":"bytes32","internalType":"bytes32"},{"name":"account","type":"address","internalType":"address"}],"outputs":[],"stateMutability":"nonpayable"},{"type":"function","name":"safeTransferFrom","inputs":[{"name":"from","type":"address","internalType":"address"},{"name":"to","type":"address","internalType":"address"},{"name":"tokenId","type":"uint256","internalType":"uint256"}],"outputs":[],"stateMutability":"nonpayable"},{"type":"function","name":"safeTransferFrom","inputs":[{"name":"from","type":"address","internalType":"address"},{"name":"to","type":"address","internalType":"address"},{"name":"tokenId","type":"uint256","internalType":"uint256"},{"name":"data","type":"bytes","internalType":"bytes"}],"outputs":[],"stateMutability":"nonpayable"},{"type":"function","name":"setApprovalForAll","inputs":[{"name":"operator","type":"address","internalType":"address"},{"name":"approved","type":"bool","internalType":"bool"}],"outputs":[],"stateMutability":"nonpayable"},{"type":"function","name":"setBaseURI","inputs":[{"name":"newBaseURI","type":"string","internalType":"string"}],"outputs":[],"stateMutability":"nonpayable"},{"type":"function","name":"setInsuranceEscrow","inputs":[{"name":"_insuranceEscrowAddress","type":"address","internalType":"address"}],"outputs":[],"stateMutability":"nonpayable"},{"type":"function","name":"setLiquidationParameters","inputs":[{"name":"_payoutPercent","type":"uint256","internalType":"uint256"}],"outputs":[],"stateMutability":"nonpayable"},{"type":"function","name":"setMinCollateralizationRatio","inputs":[{"name":"tokenId","type":"uint256","internalType":"uint256"},{"name":"newRatio","type":"uint256","internalType":"uint256"}],"outputs":[],"stateMutability":"nonpayable"},{"type":"function","name":"stETH","inputs":[],"outputs":[{"name":"","type":"address","internalType":"address"}],"stateMutability":"view"},{"type":"function","name":"stabilizerEscrowImplementation","inputs":[],"outputs":[{"name":"","type":"address","internalType":"address"}],"stateMutability":"view"},{"type":"function","name":"stabilizerEscrows","inputs":[{"name":"","type":"uint256","internalType":"uint256"}],"outputs":[{"name":"","type":"address","internalType":"address"}],"stateMutability":"view"},{"type":"function","name":"supportsInterface","inputs":[{"name":"interfaceId","type":"bytes4","internalType":"bytes4"}],"outputs":[{"name":"","type":"bool","internalType":"bool"}],"stateMutability":"view"},{"type":"function","name":"symbol","inputs":[],"outputs":[{"name":"","type":"string","internalType":"string"}],"stateMutability":"view"},{"type":"function","name":"tokenByIndex","inputs":[{"name":"index","type":"uint256","internalType":"uint256"}],"outputs":[{"name":"","type":"uint256","internalType":"uint256"}],"stateMutability":"view"},{"type":"function","name":"tokenOfOwnerByIndex","inputs":[{"name":"owner","type":"address","internalType":"address"},{"name":"index","type":"uint256","internalType":"uint256"}],"outputs":[{"name":"","type":"uint256","internalType":"uint256"}],"stateMutability":"view"},{"type":"function","name":"tokenURI","inputs":[{"name":"tokenId","type":"uint256","internalType":"uint256"}],"outputs":[{"name":"","type":"string","internalType":"string"}],"stateMutability":"view"},{"type":"function","name":"totalSupply","inputs":[],"outputs":[{"name":"","type":"uint256","internalType":"uint256"}],"stateMutability":"view"},{"type":"function","name":"transferFrom","inputs":[{"name":"from","type":"address","internalType":"address"},{"name":"to","type":"address","internalType":"address"},{"name":"tokenId","type":"uint256","internalType":"uint256"}],"outputs":[],"stateMutability":"nonpayable"},{"type":"function","name":"unallocateStabilizerFunds","inputs":[{"name":"poolSharesToUnallocate","type":"uint256","internalType":"uint256"},{"name":"priceResponse","type":"tuple","internalType":"struct IPriceOracle.PriceResponse","components":[{"name":"price","type":"uint256","internalType":"uint256"},{"name":"decimals","type":"uint8","internalType":"uint8"},{"name":"timestamp","type":"uint256","internalType":"uint256"}]}],"outputs":[{"name":"unallocatedEth","type":"uint256","internalType":"uint256"}],"stateMutability":"nonpayable"},{"type":"function","name":"upgradeToAndCall","inputs":[{"name":"newImplementation","type":"address","internalType":"address"},{"name":"data","type":"bytes","internalType":"bytes"}],"outputs":[],"stateMutability":"payable"},{"type":"event","name":"Approval","inputs":[{"name":"owner","type":"address","indexed":true,"internalType":"address"},{"name":"approved","type":"address","indexed":true,"internalType":"address"},{"name":"tokenId","type":"uint256","indexed":true,"internalType":"uint256"}],"anonymous":false},{"type":"event","name":"ApprovalForAll","inputs":[{"name":"owner","type":"address","indexed":true,"internalType":"address"},{"name":"operator","type":"address","indexed":true,"internalType":"address"},{"name":"approved","type":"bool","indexed":false,"internalType":"bool"}],"anonymous":false},{"type":"event","name":"FundsAllocated","inputs":[{"name":"tokenId","type":"uint256","indexed":true,"internalType":"uint256"},{"name":"stabilizersAmount","type":"uint256","indexed":false,"internalType":"uint256"},{"name":"usersAmount","type":"uint256","indexed":false,"internalType":"uint256"}],"anonymous":false},{"type":"event","name":"FundsUnallocated","inputs":[{"name":"tokenId","type":"uint256","indexed":true,"internalType":"uint256"},{"name":"userStEthAmount","type":"uint256","indexed":false,"internalType":"uint256"},{"name":"stabilizerStEthAmount","type":"uint256","indexed":false,"internalType":"uint256"}],"anonymous":false},{"type":"event","name":"Initialized","inputs":[{"name":"version","type":"uint64","indexed":false,"internalType":"uint64"}],"anonymous":false},{"type":"event","name":"InsuranceEscrowUpdated","inputs":[{"name":"newInsuranceEscrow","type":"address","indexed":true,"internalType":"address"}],"anonymous":false},{"type":"event","name":"LiquidationParametersUpdated","inputs":[{"name":"newPayoutPercent","type":"uint256","indexed":false,"internalType":"uint256"}],"anonymous":false},{"type":"event","name":"MinCollateralRatioUpdated","inputs":[{"name":"tokenId","type":"uint256","indexed":true,"internalType":"uint256"},{"name":"newRatio","type":"uint256","indexed":false,"internalType":"uint256"}],"anonymous":false},{"type":"event","name":"PositionLiquidated","inputs":[{"name":"positionTokenId","type":"uint256","indexed":true,"internalType":"uint256"},{"name":"liquidator","type":"address","indexed":true,"internalType":"address"},{"name":"liquidatorTokenId","type":"uint256","indexed":false,"internalType":"uint256"},{"name":"cuspdSharesLiquidated","type":"uint256","indexed":false,"internalType":"uint256"},{"name":"stEthPaidToLiquidator","type":"uint256","indexed":false,"internalType":"uint256"},{"name":"priceUsed","type":"uint256","indexed":false,"internalType":"uint256"},{"name":"thresholdUsed","type":"uint256","indexed":false,"internalType":"uint256"}],"anonymous":false},{"type":"event","name":"RoleAdminChanged","inputs":[{"name":"role","type":"bytes32","indexed":true,"internalType":"bytes32"},{"name":"previousAdminRole","type":"bytes32","indexed":true,"internalType":"bytes32"},{"name":"newAdminRole","type":"bytes32","indexed":true,"internalType":"bytes32"}],"anonymous":false},{"type":"event","name":"RoleGranted","inputs":[{"name":"role","type":"bytes32","indexed":true,"internalType":"bytes32"},{"name":"account","type":"address","indexed":true,"internalType":"address"},{"name":"sender","type":"address","indexed":true,"internalType":"address"}],"anonymous":false},{"type":"event","name":"RoleRevoked","inputs":[{"name":"role","type":"bytes32","indexed":true,"internalType":"bytes32"},{"name":"account","type":"address","indexed":true,"internalType":"address"},{"name":"sender","type":"address","indexed":true,"internalType":"address"}],"anonymous":false},{"type":"event","name":"StabilizerPositionCreated","inputs":[{"name":"tokenId","type":"uint256","indexed":true,"internalType":"uint256"},{"name":"owner","type":"address","indexed":true,"internalType":"address"}],"anonymous":false},{"type":"event","name":"Transfer","inputs":[{"name":"from","type":"address","indexed":true,"internalType":"address"},{"name":"to","type":"address","indexed":true,"internalType":"address"},{"name":"tokenId","type":"uint256","indexed":true,"internalType":"uint256"}],"anonymous":false},{"type":"event","name":"UnallocatedFundsAdded","inputs":[{"name":"tokenId","type":"uint256","indexed":true,"internalType":"uint256"},{"name":"asset","type":"address","indexed":false,"internalType":"address"},{"name":"amount","type":"uint256","indexed":false,"internalType":"uint256"}],"anonymous":false},{"type":"event","name":"UnallocatedFundsRemoved","inputs":[{"name":"tokenId","type":"uint256","indexed":true,"internalType":"uint256"},{"name":"amount","type":"uint256","indexed":false,"internalType":"uint256"},{"name":"recipient","type":"address","indexed":true,"internalType":"address"}],"anonymous":false},{"type":"event","name":"Upgraded","inputs":[{"name":"implementation","type":"address","indexed":true,"internalType":"address"}],"anonymous":false},{"type":"error","name":"AccessControlBadConfirmation","inputs":[]},{"type":"error","name":"AccessControlUnauthorizedAccount","inputs":[{"name":"account","type":"address","internalType":"address"},{"name":"neededRole","type":"bytes32","internalType":"bytes32"}]},{"type":"error","name":"AddressEmptyCode","inputs":[{"name":"target","type":"address","internalType":"address"}]},{"type":"error","name":"ERC1967InvalidImplementation","inputs":[{"name":"implementation","type":"address","internalType":"address"}]},{"type":"error","name":"ERC1967NonPayable","inputs":[]},{"type":"error","name":"ERC721EnumerableForbiddenBatchMint","inputs":[]},{"type":"error","name":"ERC721IncorrectOwner","inputs":[{"name":"sender","type":"address","internalType":"address"},{"name":"tokenId","type":"uint256","internalType":"uint256"},{"name":"owner","type":"address","internalType":"address"}]},{"type":"error","name":"ERC721InsufficientApproval","inputs":[{"name":"operator","type":"address","internalType":"address"},{"name":"tokenId","type":"uint256","internalType":"uint256"}]},{"type":"error","name":"ERC721InvalidApprover","inputs":[{"name":"approver","type":"address","internalType":"address"}]},{"type":"error","name":"ERC721InvalidOperator","inputs":[{"name":"operator","type":"address","internalType":"address"}]},{"type":"error","name":"ERC721InvalidOwner","inputs":[{"name":"owner","type":"address","internalType":"address"}]},{"type":"error","name":"ERC721InvalidReceiver","inputs":[{"name":"receiver","type":"address","internalType":"address"}]},{"type":"error","name":"ERC721InvalidSender","inputs":[{"name":"sender","type":"address","internalType":"address"}]},{"type":"error","name":"ERC721NonexistentToken","inputs":[{"name":"tokenId","type":"uint256","internalType":"uint256"}]},{"type":"error","name":"ERC721OutOfBoundsIndex","inputs":[{"name":"owner","type":"address","internalType":"address"},{"name":"index","type":"uint256","internalType":"uint256"}]},{"type":"error","name":"FailedCall","inputs":[]},{"type":"error","name":"FailedDeployment","inputs":[]},{"type":"error","name":"InsufficientBalance","inputs":[{"name":"balance","type":"uint256","internalType":"uint256"},{"name":"needed","type":"uint256","internalType":"uint256"}]},{"type":"error","name":"InvalidInitialization","inputs":[]},{"type":"error","name":"LiquidationNotBelowSystemRatio","inputs":[]},{"type":"error","name":"NotInitializing","inputs":[]},{"type":"error","name":"OvercollateralizationReporterZero","inputs":[]},{"type":"error","name":"SystemUnstableUnallocationNotAllowed","inputs":[]},{"type":"error","name":"UUPSUnauthorizedCallContext","inputs":[]},{"type":"error","name":"UUPSUnsupportedProxiableUUID","inputs":[{"name":"slot","type":"bytes32","internalType":"bytes32"}]},{"type":"error","name":"UnsupportedChainId","inputs":[]}],"bytecode":{"object":"0x60a060405230608052348015610013575f5ffd5b5061001c610021565b6100d3565b7ff0c57e16840df040f15088dc2f81fe391c3923bec73e23a9662efc9c229c6a00805468010000000000000000900460ff16156100715760405163f92ee8a960e01b815260040160405180910390fd5b80546001600160401b03908116146100d05780546001600160401b0319166001600160401b0390811782556040519081527fc7f505b2f371ae2175ee4913f4499e1f2633a7b5936321eed1cdaeb6115181d29060200160405180910390a15b50565b608051615f846100f95f395f8181613cbb01528181613ce40152613e470152615f845ff3fe60806040526004361061039d575f3560e01c80637122bcc3116101de578063b88d4fde11610108578063d743fd1e1161009d578063eee242191161006d578063eee2421914610b11578063f399beb714610b30578063f72c0d8b14610b43578063ff70fa6414610b76575f5ffd5b8063d743fd1e14610a9f578063d923038914610ab4578063e96d578714610ad3578063e985e9c514610af2575f5ffd5b8063c1fe3e48116100d8578063c1fe3e4814610a0f578063c87b56dd14610a2e578063d539139314610a4d578063d547741f14610a80575f5ffd5b8063b88d4fde1461097e578063bb5662971461099d578063bba6fd6f146109bc578063bdb35bf2146109f0575f5ffd5b806399fbab881161017e578063a42c69a91161014e578063a42c69a9146108f5578063ad3cb1cc14610910578063ae88a77914610940578063b10114d31461095f575f5ffd5b806399fbab881461081f578063a04ad5121461088f578063a217fddf146108c3578063a22cb465146108d6575f5ffd5b80638d7cac7b116101b95780638d7cac7b146107b757806391d14854146107d757806392133362146107f657806395d89b411461080b575f5ffd5b80637122bcc3146107645780637da31f6114610783578063853cad06146107a2575f5ffd5b806339112058116102ca57806355f804b31161025f5780636a6278421161022f5780636a627842146106f35780636bc05b7e146107125780636c0360eb1461073157806370a0823114610745575f5ffd5b806355f804b31461068157806362382f9f146106a05780636352211e146106b557806367bff4a8146106d4575f5ffd5b80634e027fe91161029a5780634e027fe9146106265780634f1ef2861461063b5780634f6ccce71461064e57806352d1902d1461066d575f5ffd5b8063391120581461059b57806342842e0e146105ba578063451fda68146105d95780634d87a1f214610607575f5ffd5b806320d2c951116103405780632995bc50116103105780632995bc50146105295780632f2ff15d1461053e5780632f745c591461055d57806336568abe1461057c575f5ffd5b806320d2c951146104b657806323509a2d146104cc57806323b872dd146104eb578063248a9ca31461050a575f5ffd5b806306fdde031161037b57806306fdde031461042d578063081812fc1461044e578063095ea7b31461046d57806318160ddd1461048c575f5ffd5b8063010ec441146103a157806301aa0b1a146103dd57806301ffc9a7146103fe575b5f5ffd5b3480156103ac575f5ffd5b506006546103c0906001600160a01b031681565b6040516001600160a01b0390911681526020015b60405180910390f35b3480156103e8575f5ffd5b506103fc6103f7366004615482565b610b95565b005b348015610409575f5ffd5b5061041d6104183660046154b7565b610c8c565b60405190151581526020016103d4565b348015610438575f5ffd5b50610441610c9c565b6040516103d49190615500565b348015610459575f5ffd5b506103c0610468366004615512565b610d3d565b348015610478575f5ffd5b506103fc61048736600461554d565b610d51565b348015610497575f5ffd5b505f516020615f445f395f51905f52545b6040519081526020016103d4565b3480156104c1575f5ffd5b506104a86203d09081565b3480156104d7575f5ffd5b50600a546103c0906001600160a01b031681565b3480156104f6575f5ffd5b506103fc610505366004615577565b610d60565b348015610515575f5ffd5b506104a8610524366004615512565b610de9565b348015610534575f5ffd5b506104a860035481565b348015610549575f5ffd5b506103fc6105583660046155b5565b610e09565b348015610568575f5ffd5b506104a861057736600461554d565b610e25565b348015610587575f5ffd5b506103fc6105963660046155b5565b610e88565b3480156105a6575f5ffd5b506103fc6105b5366004615512565b610ec0565b3480156105c5575f5ffd5b506103fc6105d4366004615577565b610f46565b6105ec6105e7366004615482565b610f60565b604080518251815260209283015192810192909252016103d4565b348015610612575f5ffd5b506007546103c0906001600160a01b031681565b348015610631575f5ffd5b506104a860085481565b6103fc6106493660046156ae565b611580565b348015610659575f5ffd5b506104a8610668366004615512565b61159b565b348015610678575f5ffd5b506104a8611608565b34801561068c575f5ffd5b506103fc61069b3660046156fa565b611623565b3480156106ab575f5ffd5b506104a861271081565b3480156106c0575f5ffd5b506103c06106cf366004615512565b611639565b3480156106df575f5ffd5b506103fc6106ee366004615512565b611643565b3480156106fe575f5ffd5b506104a861070d36600461572b565b611691565b34801561071d575f5ffd5b506005546103c0906001600160a01b031681565b34801561073c575f5ffd5b50610441611b33565b348015610750575f5ffd5b506104a861075f36600461572b565b611bbf565b34801561076f575f5ffd5b506103fc61077e36600461572b565b611c17565b34801561078e575f5ffd5b50600c546103c0906001600160a01b031681565b3480156107ad575f5ffd5b506104a860015481565b3480156107c2575f5ffd5b506104a85f516020615f045f395f51905f5281565b3480156107e2575f5ffd5b5061041d6107f13660046155b5565b611cc1565b348015610801575f5ffd5b506104a860025481565b348015610816575f5ffd5b50610441611cf7565b34801561082a575f5ffd5b50610867610839366004615512565b5f60208190529081526040902080546001820154600283015460038401546004909401549293919290919085565b604080519586526020860194909452928401919091526060830152608082015260a0016103d4565b34801561089a575f5ffd5b506103c06108a9366004615512565b600f6020525f90815260409020546001600160a01b031681565b3480156108ce575f5ffd5b506104a85f81565b3480156108e1575f5ffd5b506103fc6108f0366004615753565b611d35565b348015610900575f5ffd5b506104a8670de0b6b3a764000081565b34801561091b575f5ffd5b50610441604051806040016040528060058152602001640352e302e360dc1b81525081565b34801561094b575f5ffd5b506103fc61095a366004615482565b611d40565b34801561096a575f5ffd5b506103fc610979366004615512565b611eca565b348015610989575f5ffd5b506103fc61099836600461577f565b611f61565b3480156109a8575f5ffd5b506103fc6109b7366004615482565b611f79565b3480156109c7575f5ffd5b506103c06109d6366004615512565b600e6020525f90815260409020546001600160a01b031681565b3480156109fb575f5ffd5b506103fc610a0a3660046157e6565b61211d565b348015610a1a575f5ffd5b506009546103c0906001600160a01b031681565b348015610a39575f5ffd5b50610441610a48366004615512565b612f36565b348015610a58575f5ffd5b506104a87f9f2df0fed2c77648de5860a4cc508cd0818c85b8b8a1ab4ceeef8d981c8956a681565b348015610a8b575f5ffd5b506103fc610a9a3660046155b5565b613072565b348015610aaa575f5ffd5b506104a860045481565b348015610abf575f5ffd5b506103fc610ace36600461583f565b61308e565b348015610ade575f5ffd5b50600d546103c0906001600160a01b031681565b348015610afd575f5ffd5b5061041d610b0c366004615914565b6133dc565b348015610b1c575f5ffd5b50600b546103c0906001600160a01b031681565b6103fc610b3e366004615512565b613428565b348015610b4e575f5ffd5b506104a87f189ab7a9244df0848122154315af71fe140f3db0fe014031783b0946b8c9d2e381565b348015610b81575f5ffd5b506104a8610b9036600461594e565b61353e565b33610b9f83611639565b6001600160a01b031614610bce5760405162461bcd60e51b8152600401610bc5906159ab565b60405180910390fd5b6130d48110158015610be35750620186a08111155b610c425760405162461bcd60e51b815260206004820152602a60248201527f526174696f206d757374206265206174206265747765656e203132352e30302560448201526920616e6420313030302560b01b6064820152608401610bc5565b5f8281526020818152604091829020838155915183815284917f948ba262e91565b9caa2284557ddf9a7fb36ee3f00681b4fd1bfaae941e9188f91015b60405180910390a2505050565b5f610c9682613935565b92915050565b5f516020615ee45f395f51905f528054606091908190610cbb906159d4565b80601f0160208091040260200160405190810160405280929190818152602001828054610ce7906159d4565b8015610d325780601f10610d0957610100808354040283529160200191610d32565b820191905f5260205f20905b815481529060010190602001808311610d1557829003601f168201915b505050505091505090565b5f610d4782613959565b50610c9682613990565b610d5c8282336139c9565b5050565b6001600160a01b038216610d8957604051633250574960e11b81525f6004820152602401610bc5565b5f610d958383336139d6565b9050836001600160a01b0316816001600160a01b031614610de3576040516364283d7b60e01b81526001600160a01b0380861660048301526024820184905282166044820152606401610bc5565b50505050565b5f9081525f516020615f645f395f51905f52602052604090206001015490565b610e1282610de9565b610e1b816139ea565b610de383836139f7565b5f5f516020615ec45f395f51905f52610e3d84611bbf565b8310610e6057838360405163295f44f760e21b8152600401610bc5929190615a0c565b6001600160a01b0384165f908152602091825260408082208583529092522054905092915050565b6001600160a01b0381163314610eb15760405163334bd91960e11b815260040160405180910390fd5b610ebb8282613a98565b505050565b5f516020615f045f395f51905f52610ed7816139ea565b8115610d5c576006546001600160a01b031663f6ff3ee8610ef784615a39565b6040518263ffffffff1660e01b8152600401610f1591815260200190565b5f604051808303815f87803b158015610f2c575f5ffd5b505af1158015610f3e573d5f5f3e3d5ffd5b505050505050565b610ebb83838360405180602001604052805f815250611f61565b604080518082019091525f80825260208201526005546001600160a01b03163314610fc35760405162461bcd60e51b815260206004820152601360248201527213db9b1e4818d554d4110818dbdb9d1c9858dd606a1b6044820152606401610bc5565b6001545f0361100b5760405162461bcd60e51b81526020600482015260146024820152734e6f20756e616c6c6f63617465642066756e647360601b6044820152606401610bc5565b5f34116110485760405162461bcd60e51b815260206004820152600b60248201526a139bc8115512081cd95b9d60aa1b6044820152606401610bc5565b600154345b811580159061105b57505f81115b15611494576203d0905a10611494575f82815260208181526040808320600e835281842054825163ec60b9ab60e01b8152925191946001600160a01b03909116939092849263ec60b9ab926004808401939192918290030181865afa1580156110c6573d5f5f3e3d5ffd5b505050506040513d601f19601f820116820180604052508101906110ea9190615a53565b90508015806110f7575083155b1561110957505060020154915061104d565b5f61271080855f015461111c9190615a6a565b6111269087615a7d565b6111309190615aa8565b90505f8282116111405781611142565b825b9050858282101561117f57855461115c9061271090615a6a565b61116883612710615a7d565b6111729190615aa8565b90508681111561117f5750855b5f888152600f602052604090819020549051633ec0861560e11b8152600481018490526001600160a01b039182166024820181905291871690637d810c2a906044015f604051808303815f87803b1580156111d8575f5ffd5b505af11580156111ea573d5f5f3e3d5ffd5b505060405163bf3fdde760e01b8152600481018690526001600160a01b038416925063bf3fdde7915084906024015f604051808303818588803b15801561122f575f5ffd5b505af1158015611241573d5f5f3e3d5ffd5b50505050505f8b600a6112549190615b96565b61125e8e85615a7d565b6112689190615aa8565b90505f600b5f9054906101000a90046001600160a01b03166001600160a01b031663efa7fa5d6040518163ffffffff1660e01b8152600401602060405180830381865afa1580156112bb573d5f5f3e3d5ffd5b505050506040513d601f19601f820116820180604052508101906112df9190615a53565b90505f81600b5f9054906101000a90046001600160a01b03166001600160a01b031663a42c69a96040518163ffffffff1660e01b8152600401602060405180830381865afa158015611333573d5f5f3e3d5ffd5b505050506040513d601f19601f820116820180604052508101906113579190615a53565b6113619085615a7d565b61136b9190615aa8565b6040516302ff41ff60e21b8152600481018290529091506001600160a01b03851690630bfd07fc906024015f604051808303815f87803b1580156113ad575f5ffd5b505af11580156113bf573d5f5f3e3d5ffd5b50505050848d5f018181516113d49190615ba1565b9052506113e1858c615a6a565b6040805188815260208101889052919c508d917fc0a79f21f196b4ee5a242474a85cb9aa5fc2ce59ecc884d7271f1c2bd19b9a13910160405180910390a260038a0154158015611433575060048a0154155b801561144157508b60035414155b1561144f5761144f8c613b11565b6114598686615ba1565b8d60200181815161146a9190615ba1565b90525060028a0154888703611482576114828d613bf0565b9b5061104d9950505050505050505050565b82516114d75760405162461bcd60e51b8152602060048201526012602482015271139bc8199d5b991cc8185b1b1bd8d85d195960721b6044820152606401610bc5565b602083015115611546576006546020840151604051631edfe7dd60e31b81526001600160a01b039092169163f6ff3ee8916115189160040190815260200190565b5f604051808303815f87803b15801561152f575f5ffd5b505af1158015611541573d5f5f3e3d5ffd5b505050505b801561157857604051339082156108fc029083905f818181858888f19350505050158015611576573d5f5f3e3d5ffd5b505b505092915050565b611588613cb0565b61159182613d56565b610d5c8282613d80565b5f5f516020615ec45f395f51905f526115bf5f516020615f445f395f51905f525490565b83106115e2575f8360405163295f44f760e21b8152600401610bc5929190615a0c565b8060020183815481106115f7576115f7615bb4565b905f5260205f200154915050919050565b5f611611613e3c565b505f516020615f245f395f51905f5290565b5f61162d816139ea565b6010610ebb8382615c0c565b5f610c9682613959565b5f516020615f045f395f51905f5261165a816139ea565b8115610d5c57600654604051631edfe7dd60e31b8152600481018490526001600160a01b039091169063f6ff3ee890602401610f15565b5f466001141580156116a657504662aa36a714155b156116c45760405163c08c729760e01b815260040160405180910390fd5b601180545f91826116d483615cc6565b919050559050805f036117295760405162461bcd60e51b815260206004820152601760248201527f546f6b656e2049442063616e6e6f74206265207a65726f0000000000000000006044820152606401610bc5565b6040805160a0810182526130d481525f6020808301828152838501838152606085018481526080860185815288865293859052959093209351845551600184015590516002830155915160038201559051600490910155600c546001600160a01b03166117d85760405162461bcd60e51b815260206004820152601d60248201527f53746162696c697a6572457363726f7720696d706c206e6f74207365740000006044820152606401610bc5565b600d546001600160a01b03166118305760405162461bcd60e51b815260206004820152601b60248201527f506f736974696f6e457363726f7720696d706c206e6f742073657400000000006044820152606401610bc5565b600c545f90611847906001600160a01b0316613e85565b90506001600160a01b03811661189f5760405162461bcd60e51b815260206004820152601d60248201527f53746162696c697a6572457363726f7720636c6f6e65206661696c65640000006044820152606401610bc5565b600954600a546040516306b0729b60e31b8152306004820152602481018590526001600160a01b03928316604482015290821660648201529082169063358394d8906084015f604051808303815f87803b1580156118fb575f5ffd5b505af115801561190d573d5f5f3e3d5ffd5b5050505f838152600e6020526040812080546001600160a01b0319166001600160a01b0385811691909117909155600d5491925061194b9116613e85565b90506001600160a01b0381166119a35760405162461bcd60e51b815260206004820152601b60248201527f506f736974696f6e457363726f7720636c6f6e65206661696c656400000000006044820152606401610bc5565b600954600a54600b54600554604080516307dc0d1d60e41b815290516001600160a01b038781169663a2dc2ab79630968c9692841695918416949084169390921691637dc0d1d0916004808201926020929091908290030181865afa158015611a0e573d5f5f3e3d5ffd5b505050506040513d601f19601f82011682018060405250810190611a329190615cde565b60405160e088901b6001600160e01b03191681526001600160a01b0396871660048201526024810195909552928516604485015290841660648401528316608483015290911660a482015260c4015f604051808303815f87803b158015611a97575f5ffd5b505af1158015611aa9573d5f5f3e3d5ffd5b5050505f848152600f6020526040902080546001600160a01b0319166001600160a01b03841617905550611aea5f516020615f045f395f51905f52826139f7565b506040516001600160a01b0386169084907f6474509949d7dca0e17a8cf02aeb66814967a3c7adbfefc212edb6e6693b6865905f90a3611b2a8584613e90565b50909392505050565b60108054611b40906159d4565b80601f0160208091040260200160405190810160405280929190818152602001828054611b6c906159d4565b8015611bb75780601f10611b8e57610100808354040283529160200191611bb7565b820191905f5260205f20905b815481529060010190602001808311611b9a57829003601f168201915b505050505081565b5f5f516020615ee45f395f51905f526001600160a01b038316611bf7576040516322718ad960e21b81525f6004820152602401610bc5565b6001600160a01b039092165f908152600390920160205250604090205490565b5f611c21816139ea565b6001600160a01b038216611c775760405162461bcd60e51b815260206004820181905260248201527f5a65726f206164647265737320666f7220496e737572616e6365457363726f776044820152606401610bc5565b600780546001600160a01b0319166001600160a01b0384169081179091556040517fc742eb858a96cf01aa10a0d4654fbd16ec649171aa4f54b3efedcc59b4ec6eb7905f90a25050565b5f9182525f516020615f645f395f51905f52602090815260408084206001600160a01b0393909316845291905290205460ff1690565b7f80bb2b638cc20bc4d0a60d66940f3ab4a00c1d7b313497ca82fb0b4ab007930180546060915f516020615ee45f395f51905f5291610cbb906159d4565b610d5c338383613ea9565b33611d4a83611639565b6001600160a01b031614611d705760405162461bcd60e51b8152600401610bc5906159ab565b5f8111611db95760405162461bcd60e51b8152602060048201526017602482015276416d6f756e74206d75737420626520706f73697469766560481b6044820152606401610bc5565b5f828152600e602052604090819020549051622a405560ea1b8152600481018390526001600160a01b0390911690819063a9015400906024015f604051808303815f87803b158015611e09575f5ffd5b505af1158015611e1b573d5f5f3e3d5ffd5b50505050806001600160a01b031663ec60b9ab6040518163ffffffff1660e01b8152600401602060405180830381865afa158015611e5b573d5f5f3e3d5ffd5b505050506040513d601f19601f82011682018060405250810190611e7f9190615a53565b5f03611e8e57611e8e83613bf0565b604051828152339084907f19c1c869dd7473a5f044067f579bac3244509e5680cb0c044bc60f0a8165f5699060200160405180910390a3505050565b5f611ed4816139ea565b6069821015611f255760405162461bcd60e51b815260206004820152601d60248201527f5061796f75742070657263656e74206d757374206265203e3d203130350000006044820152606401610bc5565b60088290556040518281527f6d699ae420033df20638cead3d3195a3de7db60c2f1ee78e9307d46979123a599060200160405180910390a15050565b611f6c848484610d60565b610de33385858585613f58565b33611f8383611639565b6001600160a01b031614611fa95760405162461bcd60e51b8152600401610bc5906159ab565b5f8111611ff25760405162461bcd60e51b8152602060048201526017602482015276416d6f756e74206d75737420626520706f73697469766560481b6044820152606401610bc5565b5f828152600e6020526040908190205460095491516323b872dd60e01b81523360048201526001600160a01b0391821660248201819052604482018590529291909116906323b872dd906064016020604051808303815f875af115801561205b573d5f5f3e3d5ffd5b505050506040513d601f19601f8201168201806040525081019061207f9190615cf9565b50604051630765bb9760e51b8152600481018390526001600160a01b0382169063ecb772e0906024015f604051808303815f87803b1580156120bf575f5ffd5b505af11580156120d1573d5f5f3e3d5ffd5b505050506120de8361407e565b60095460405184917f055b14c7efbc07d692265b907b52ec309741a29408ffad1d871aa6b371ac772991610c7f916001600160a01b0316908690615a0c565b6006546001600160a01b031661214657604051632e80342960e11b815260040160405180910390fd5b6007546001600160a01b031661219e5760405162461bcd60e51b815260206004820152601760248201527f496e737572616e6365457363726f77206e6f74207365740000000000000000006044820152606401610bc5565b5f82116121ed5760405162461bcd60e51b815260206004820152601c60248201527f4e6f2063555350442073686172657320746f206c6971756964617465000000006044820152606401610bc5565b5f6121f784611639565b6001600160a01b03160361224d5760405162461bcd60e51b815260206004820152601d60248201527f506f736974696f6e20746f6b656e20646f6573206e6f742065786973740000006044820152606401610bc5565b600554604080516307dc0d1d60e41b815290515f926001600160a01b031691637dc0d1d09160048083019260209291908290030181865afa158015612294573d5f5f3e3d5ffd5b505050506040513d601f19601f820116820180604052508101906122b89190615cde565b6001600160a01b03160361230e5760405162461bcd60e51b815260206004820152601c60248201527f4f7261636c65206e6f742073657420696e206355535044546f6b656e000000006044820152606401610bc5565b8315612380573361231e85611639565b6001600160a01b0316146123805760405162461bcd60e51b8152602060048201526024808201527f43616c6c657220646f6573206e6f74206f776e206c697175696461746f72207460448201526337b5b2b760e11b6064820152608401610bc5565b5f838152600f602090815260408083205460055482516307dc0d1d60e41b815292516001600160a01b0392831695949190921692637dc0d1d092600480830193928290030181865afa1580156123d8573d5f5f3e3d5ffd5b505050506040513d601f19601f820116820180604052508101906123fc9190615cde565b6001600160a01b03166365ab8c71846040518263ffffffff1660e01b81526004016124279190615d3c565b6060604051808303815f875af1158015612443573d5f5f3e3d5ffd5b505050506040513d601f19601f820116820180604052508101906124679190615dcb565b80519091506124af5760405162461bcd60e51b8152602060048201526014602482015273496e76616c6964206f7261636c6520707269636560601b6044820152606401610bc5565b816001600160a01b031663d39aa95a6040518163ffffffff1660e01b8152600401602060405180830381865afa1580156124eb573d5f5f3e3d5ffd5b505050506040513d601f19601f8201168201806040525081019061250f9190615a53565b84111561255e5760405162461bcd60e51b815260206004820152601d60248201527f4e6f7420656e6f7567682073686172657320696e20706f736974696f6e0000006044820152606401610bc5565b5f865f0361256f5750612af86125bb565b6105dc61257d600189615a6a565b612588906032615a7d565b106125965750612af86125bb565b6125a1600188615a6a565b6125ac906032615a7d565b6125b8906130d4615a6a565b90505b6040805163c6d56aa960e01b815283516004820152602084015160ff1660248201529083015160448201525f906001600160a01b0385169063c6d56aa9906064016020604051808303815f875af1158015612618573d5f5f3e3d5ffd5b505050506040513d601f19601f8201168201806040525081019061263c9190615a53565b6006549091506001600160a01b031615612704576006546040805163b367380760e01b815285516004820152602086015160ff1660248201529085015160448201525f916001600160a01b03169063b367380790606401602060405180830381865afa1580156126ae573d5f5f3e3d5ffd5b505050506040513d601f19601f820116820180604052508101906126d29190615a53565b90505f1981141580156126e457508082115b1561270257604051637774a53b60e01b815260040160405180910390fd5b505b8181106127645760405162461bcd60e51b815260206004820152602860248201527f506f736974696f6e206e6f742062656c6f77206c69717569646174696f6e20746044820152671a1c995cda1bdb1960c21b6064820152608401610bc5565b6005546040516323b872dd60e01b8152336004820152306024820152604481018890526001600160a01b03909116906323b872dd906064016020604051808303815f875af11580156127b8573d5f5f3e3d5ffd5b505050506040513d601f19601f820116820180604052508101906127dc9190615cf9565b50600554604051630852cd8d60e31b8152600481018890526001600160a01b03909116906342966c68906024015f604051808303815f87803b158015612820575f5ffd5b505af1158015612832573d5f5f3e3d5ffd5b50505050836001600160a01b0316630bfd07fc8761284f90615a39565b6040518263ffffffff1660e01b815260040161286d91815260200190565b5f604051808303815f87803b158015612884575f5ffd5b505af1158015612896573d5f5f3e3d5ffd5b505050505f5f5f600b5f9054906101000a90046001600160a01b03166001600160a01b031663efa7fa5d6040518163ffffffff1660e01b8152600401602060405180830381865afa1580156128ed573d5f5f3e3d5ffd5b505050506040513d601f19601f820116820180604052508101906129119190615a53565b116129555760405162461bcd60e51b815260206004820152601460248201527324b73b30b634b2103cb4b2b632103330b1ba37b960611b6044820152606401610bc5565b845160208601515f919061296d9060ff16600a615b96565b600b546040805163efa7fa5d60e01b81529051670de0b6b3a7640000926001600160a01b03169163efa7fa5d9160048083019260209291908290030181865afa1580156129bc573d5f5f3e3d5ffd5b505050506040513d601f19601f820116820180604052508101906129e09190615a53565b6129ea908d615a7d565b6129f49190615aa8565b6129fe9190615a7d565b612a089190615aa8565b90505f612710612a188684615a7d565b612a229190615aa8565b90505f606460085484612a359190615a7d565b612a3f9190615aa8565b9050808210612bff57604051636a0eee4b60e11b8152600481018290523360248201526001600160a01b038a169063d41ddc96906044015f604051808303815f87803b158015612a8d575f5ffd5b505af1158015612a9f573d5f5f3e3d5ffd5b505050508094508093505f8183612ab69190615a6a565b90508015612bf957604051636a0eee4b60e11b8152600481018290523060248201526001600160a01b038b169063d41ddc96906044015f604051808303815f87803b158015612b03575f5ffd5b505af1158015612b15573d5f5f3e3d5ffd5b505060095460075460405163095ea7b360e01b81526001600160a01b03928316945063095ea7b39350612b5092909116908590600401615a0c565b6020604051808303815f875af1158015612b6c573d5f5f3e3d5ffd5b505050506040513d601f19601f82011682018060405250810190612b909190615cf9565b5060075460405163de5d64f160e01b8152600481018390526001600160a01b039091169063de5d64f1906024015f604051808303815f87803b158015612bd4575f5ffd5b505af1158015612be6573d5f5f3e3d5ffd5b505050508085612bf69190615ba1565b94505b50612d75565b8115612c6757604051636a0eee4b60e11b8152600481018390523360248201526001600160a01b038a169063d41ddc96906044015f604051808303815f87803b158015612c4a575f5ffd5b505af1158015612c5c573d5f5f3e3d5ffd5b505050508194508193505b5f612c728383615a6a565b90505f60075f9054906101000a90046001600160a01b03166001600160a01b0316635b73e7c16040518163ffffffff1660e01b8152600401602060405180830381865afa158015612cc5573d5f5f3e3d5ffd5b505050506040513d601f19601f82011682018060405250810190612ce99190615a53565b90505f818311612cf95782612cfb565b815b90508015612d715760075460405163df6e697360e01b81526001600160a01b039091169063df6e697390612d359033908590600401615a0c565b5f604051808303815f87803b158015612d4c575f5ffd5b505af1158015612d5e573d5f5f3e3d5ffd5b505050508088612d6e9190615ba1565b97505b5050505b505082159050612de5576006546001600160a01b031663f6ff3ee8612d9984615a39565b6040518263ffffffff1660e01b8152600401612db791815260200190565b5f604051808303815f87803b158015612dce575f5ffd5b505af1158015612de0573d5f5f3e3d5ffd5b505050505b856001600160a01b031663d39aa95a6040518163ffffffff1660e01b8152600401602060405180830381865afa158015612e21573d5f5f3e3d5ffd5b505050506040513d601f19601f82011682018060405250810190612e459190615a53565b5f03612ed657612e54896141b7565b5f898152600e6020908152604080832054815163ec60b9ab60e01b815291516001600160a01b039091169263ec60b9ab92600480820193918290030181865afa158015612ea3573d5f5f3e3d5ffd5b505050506040513d601f19601f82011682018060405250810190612ec79190615a53565b1115612ed657612ed68961407e565b8451604080518c8152602081018b90528082018590526060810192909252608082018690525133918b917f24aaf4a2f68438b7af08d0aaef7dc8a282760bb7f08650b31217587b15cd61589181900360a00190a350505050505050505050565b60605f612f4283611639565b6001600160a01b031603612f985760405162461bcd60e51b815260206004820152601860248201527f4552433732313a20696e76616c696420746f6b656e20494400000000000000006044820152606401610bc5565b5f60108054612fa6906159d4565b80601f0160208091040260200160405190810160405280929190818152602001828054612fd2906159d4565b801561301d5780601f10612ff45761010080835404028352916020019161301d565b820191905f5260205f20905b81548152906001019060200180831161300057829003601f168201915b505050505090505f8151116130405760405180602001604052805f81525061306b565b8061304a84614277565b60405160200161305b929190615e26565b6040516020818303038152906040525b9392505050565b61307b82610de9565b613084816139ea565b610de38383613a98565b5f613097614373565b805490915060ff600160401b82041615906001600160401b03165f811580156130bd5750825b90505f826001600160401b031660011480156130d85750303b155b9050811580156130e6575080155b156131045760405163f92ee8a960e01b815260040160405180910390fd5b845467ffffffffffffffff19166001178555831561312e57845460ff60401b1916600160401b1785555b61317c6040518060400160405280600f81526020016e2aa9a8221029ba30b134b634bd32b960891b81525060405180604001604052806005815260200164555350445360d81b81525061439b565b6131846143ad565b61318c6143ad565b6131946143ad565b61319e5f876139f7565b506131c97f189ab7a9244df0848122154315af71fe140f3db0fe014031783b0946b8c9d2e3876139f7565b508e60055f6101000a8154816001600160a01b0302191690836001600160a01b031602179055508d60095f6101000a8154816001600160a01b0302191690836001600160a01b031602179055508c600a5f6101000a8154816001600160a01b0302191690836001600160a01b031602179055508b600b5f6101000a8154816001600160a01b0302191690836001600160a01b031602179055508a60065f6101000a8154816001600160a01b0302191690836001600160a01b031602179055505f6001600160a01b03168a6001600160a01b0316036132f85760405162461bcd60e51b815260206004820152602660248201527f496e737572616e6365457363726f7720616464726573732063616e6e6f74206260448201526565207a65726f60d01b6064820152608401610bc5565b600780546001600160a01b0319166001600160a01b038c169081179091556040517fc742eb858a96cf01aa10a0d4654fbd16ec649171aa4f54b3efedcc59b4ec6eb7905f90a2601061334a8a82615c0c565b50600c80546001600160a01b03808b166001600160a01b031992831617909255600d8054928a16929091169190911790556069600855600160115583156133cb57845460ff60401b19168555604051600181527fc7f505b2f371ae2175ee4913f4499e1f2633a7b5936321eed1cdaeb6115181d29060200160405180910390a15b505050505050505050505050505050565b6001600160a01b039182165f9081527f80bb2b638cc20bc4d0a60d66940f3ab4a00c1d7b313497ca82fb0b4ab00793056020908152604080832093909416825291909152205460ff1690565b3361343282611639565b6001600160a01b0316146134585760405162461bcd60e51b8152600401610bc5906159ab565b5f34116134955760405162461bcd60e51b815260206004820152600b60248201526a139bc8115512081cd95b9d60aa1b6044820152606401610bc5565b5f818152600e6020526040808220548151630d0e30db60e41b815291516001600160a01b039091169263d0e30db09234926004808301939282900301818588803b1580156134e1575f5ffd5b505af11580156134f3573d5f5f3e3d5ffd5b50505050506135018161407e565b807f055b14c7efbc07d692265b907b52ec309741a29408ffad1d871aa6b371ac77295f34604051613533929190615a0c565b60405180910390a250565b6005545f906001600160a01b031633146135905760405162461bcd60e51b815260206004820152601360248201527213db9b1e4818d554d4110818dbdb9d1c9858dd606a1b6044820152606401610bc5565b6004545f036135d65760405162461bcd60e51b81526020600482015260126024820152714e6f20616c6c6f63617465642066756e647360701b6044820152606401610bc5565b6006546001600160a01b031615613690576006546040805163b367380760e01b815284516004820152602085015160ff1660248201529084015160448201525f916001600160a01b03169063b367380790606401602060405180830381865afa158015613645573d5f5f3e3d5ffd5b505050506040513d601f19601f820116820180604052508101906136699190615a53565b905061271081101561368e5760405163a3c8cf1560e01b815260040160405180910390fd5b505b600454835f805b83158015906136a557505f83115b15613879576203d0905a10613879575f848152602081815260408083206003810154600f84528285205483516369cd54ad60e11b81529351929591946001600160a01b03909116939192849263d39aa95a9260048083019391928290030181865afa158015613716573d5f5f3e3d5ffd5b505050506040513d601f19601f8201168201806040525081019061373a9190615a53565b9050801561386d575f8188116137505787613752565b815b9050801561386b575f6137678a85848f6143b5565b80519091506137769089615ba1565b97508060400151876137889190615ba1565b965081830361381c5761379a8a6141b7565b5f8a8152600e6020908152604080832054815163ec60b9ab60e01b815291516001600160a01b039091169263ec60b9ab92600480820193918290030181865afa1580156137e9573d5f5f3e3d5ffd5b505050506040513d601f19601f8201168201806040525081019061380d9190615a53565b111561381c5761381c8a61407e565b613826828a615a6a565b81516020808401516040805193845291830152919a508b917f7bd51af63c72ca163b2d37a37219fbdda7a4c3803f69ed76e3948078619a32f9910160405180910390a2505b505b82975050505050613697565b5f82116138bf5760405162461bcd60e51b8152602060048201526014602482015273139bc8199d5b991cc81d5b985b1b1bd8d85d195960621b6044820152606401610bc5565b801561392b576006546001600160a01b031663f6ff3ee86138df83615a39565b6040518263ffffffff1660e01b81526004016138fd91815260200190565b5f604051808303815f87803b158015613914575f5ffd5b505af1158015613926573d5f5f3e3d5ffd5b505050505b5095945050505050565b5f6001600160e01b03198216637965db0b60e01b1480610c965750610c9682614856565b5f5f6139648361487a565b90506001600160a01b038116610c9657604051637e27328960e01b815260048101849052602401610bc5565b5f9081527f80bb2b638cc20bc4d0a60d66940f3ab4a00c1d7b313497ca82fb0b4ab007930460205260409020546001600160a01b031690565b610ebb83838360016148b3565b5f6139e28484846149c6565b949350505050565b6139f48133614abc565b50565b5f5f516020615f645f395f51905f52613a108484611cc1565b613a8f575f848152602082815260408083206001600160a01b03871684529091529020805460ff19166001179055613a453390565b6001600160a01b0316836001600160a01b0316857f2f8788117e7eff1d82e926ec794901d17c78024a50270940304540a733656f0d60405160405180910390a46001915050610c96565b5f915050610c96565b5f5f516020615f645f395f51905f52613ab18484611cc1565b15613a8f575f848152602082815260408083206001600160a01b0387168085529252808320805460ff1916905551339287917ff6391f5c32d9c69d2a47ea670b442974b53935d1edc7fd64eb21e047a839171b9190a46001915050610c96565b6003541580613b205750600454155b15613b2f576003819055600455565b600454811115613b5d57600480545f8381526020819052604080822060030183905591815220810182905555565b600354811015613b8b57600380545f8381526020819052604080822060040183905591815220810182905555565b6003545b8015801590613b9d57508181105b15613bb8575f90815260208190526040902060040154613b8f565b5f8181526020819052604080822060039081018054868552838520928301819055600492830186905584529183200184905591905255565b5f81815260208190526040902060015482148015613c0f575060025482145b15613c22575f6001819055600255613c9f565b6001548203613c4957600281015460018181555f9182526020829052604082200155613c9f565b6002548203613c7057600181015460028181555f9182526020829052604082200155613c9f565b600180820154600280840180545f90815260208190526040808220909501849055905492815292909220909101555b5f6002820181905560019091015550565b306001600160a01b037f0000000000000000000000000000000000000000000000000000000000000000161480613d3657507f00000000000000000000000000000000000000000000000000000000000000006001600160a01b0316613d2a5f516020615f245f395f51905f52546001600160a01b031690565b6001600160a01b031614155b15613d545760405163703e46dd60e11b815260040160405180910390fd5b565b7f189ab7a9244df0848122154315af71fe140f3db0fe014031783b0946b8c9d2e3610d5c816139ea565b816001600160a01b03166352d1902d6040518163ffffffff1660e01b8152600401602060405180830381865afa925050508015613dda575060408051601f3d908101601f19168201909252613dd791810190615a53565b60015b613e0257604051634c9c8ce360e01b81526001600160a01b0383166004820152602401610bc5565b5f516020615f245f395f51905f528114613e3257604051632a87526960e21b815260048101829052602401610bc5565b610ebb8383614ae7565b306001600160a01b037f00000000000000000000000000000000000000000000000000000000000000001614613d545760405163703e46dd60e11b815260040160405180910390fd5b5f610c96825f614b3c565b610d5c828260405180602001604052805f815250614bd0565b5f516020615ee45f395f51905f526001600160a01b038316613ee957604051630b61174360e31b81526001600160a01b0384166004820152602401610bc5565b6001600160a01b038481165f818152600584016020908152604080832094881680845294825291829020805460ff191687151590811790915591519182527f17307eab39ab6107e8899845ad3d59bd9653f200f220920489ca2b5937696c31910160405180910390a350505050565b6001600160a01b0383163b1561407757604051630a85bd0160e11b81526001600160a01b0384169063150b7a0290613f9a908890889087908790600401615e3a565b6020604051808303815f875af1925050508015613fd4575060408051601f3d908101601f19168201909252613fd191810190615e76565b60015b61403b573d808015614001576040519150601f19603f3d011682016040523d82523d5f602084013e614006565b606091505b5080515f0361403357604051633250574960e11b81526001600160a01b0385166004820152602401610bc5565b805181602001fd5b6001600160e01b03198116630a85bd0160e11b14610f3e57604051633250574960e11b81526001600160a01b0385166004820152602401610bc5565b5050505050565b5f818152602081905260409020600181015415801561409f57506002810154155b80156140ad57508160015414155b15610d5c576001545f036140c657506001819055600255565b6002548211156140f357600280546001929092018290555f91825260208290526040909120810182905555565b60015482101561412057600180546002929092018290555f91825260208290526040909120810182905555565b6001545b5f818152602081905260409020600201541580159061415257505f8181526020819052604090206002015483115b1561416d575f90815260208190526040902060020154614124565b5f818152602081905260409020600290810180546001850184905591840182905584905580156141af575f818152602081905260409020600101849055610de3565b505050600255565b5f818152602081905260409020600354821480156141d6575060045482145b156141e9575f6003819055600455614266565b600354820361421057600481015460038181555f9182526020829052604082200155614266565b600454820361423757600381015460048181555f9182526020829052604082200155614266565b600380820154600480840180545f90815260208190526040808220909501849055905492815292909220909101555b5f6004820181905560039091015550565b6060815f0361429d5750506040805180820190915260018152600360fc1b602082015290565b815f5b81156142c657806142b081615cc6565b91506142bf9050600a83615aa8565b91506142a0565b5f816001600160401b038111156142df576142df6155e3565b6040519080825280601f01601f191660200182016040528015614309576020820181803683370190505b5090505b84156139e25761431e600183615a6a565b915061432b600a86615e91565b614336906030615ba1565b60f81b81838151811061434b5761434b615bb4565b60200101906001600160f81b03191690815f1a90535061436c600a86615aa8565b945061430d565b5f807ff0c57e16840df040f15088dc2f81fe391c3923bec73e23a9662efc9c229c6a00610c96565b6143a3614be7565b610d5c8282614c0c565b613d54614be7565b6143d660405180606001604052805f81526020015f81526020015f81525090565b5f5f6143e3868686614c3c565b91509150856001600160a01b0316630bfd07fc8661440090615a39565b6040518263ffffffff1660e01b815260040161441e91815260200190565b5f604051808303815f87803b158015614435575f5ffd5b505af1158015614447573d5f5f3e3d5ffd5b505050505f818310614471578184526144608284615a6a565b6020850152604084018390526145aa565b8284525f61447f8484615a6a565b90505f8111801561449a57506007546001600160a01b031615155b156145995760075460408051635b73e7c160e01b815290515f926001600160a01b031691635b73e7c19160048083019260209291908290030181865afa1580156144e6573d5f5f3e3d5ffd5b505050506040513d601f19601f8201168201806040525081019061450a9190615a53565b9050808211614519578161451b565b805b925082156145975760075460405163df6e697360e01b81526001600160a01b039091169063df6e6973906145559030908790600401615a0c565b5f604051808303815f87803b15801561456c575f5ffd5b505af115801561457e573d5f5f3e3d5ffd5b5050505082865f018181516145939190615ba1565b9052505b505b6145a38285615ba1565b6040860152505b821561460c57604051636a0eee4b60e11b8152600481018490523060248201526001600160a01b0388169063d41ddc96906044015f604051808303815f87803b1580156145f5575f5ffd5b505af1158015614607573d5f5f3e3d5ffd5b505050505b8351156146e657600954600554855160405163a9059cbb60e01b81526001600160a01b039384169363a9059cbb9361464993911691600401615a0c565b6020604051808303815f875af1158015614665573d5f5f3e3d5ffd5b505050506040513d601f19601f820116820180604052508101906146899190615cf9565b6146e65760405162461bcd60e51b815260206004820152602860248201527f55736572207374455448207472616e7366657220746f206355535044546f6b656044820152671b8819985a5b195960c21b6064820152608401610bc5565b60208401511561484b576009545f898152600e60209081526040918290205490870151915163a9059cbb60e01b81526001600160a01b039384169363a9059cbb936147379390911691600401615a0c565b6020604051808303815f875af1158015614753573d5f5f3e3d5ffd5b505050506040513d601f19601f820116820180604052508101906147779190615cf9565b6147e05760405162461bcd60e51b815260206004820152603460248201527f53746162696c697a6572207374455448207472616e7366657220746f20537461604482015273189a5b1a5e995c915cd8dc9bddc819985a5b195960621b6064820152608401610bc5565b5f888152600e6020908152604091829020549086015191516302e3603160e31b815260048101929092526001600160a01b03169063171b0188906024015f604051808303815f87803b158015614834575f5ffd5b505af1158015614846573d5f5f3e3d5ffd5b505050505b505050949350505050565b5f6001600160e01b0319821663780e9d6360e01b1480610c965750610c9682614ec8565b5f9081527f80bb2b638cc20bc4d0a60d66940f3ab4a00c1d7b313497ca82fb0b4ab007930260205260409020546001600160a01b031690565b5f516020615ee45f395f51905f5281806148d557506001600160a01b03831615155b15614996575f6148e485613959565b90506001600160a01b038416158015906149105750836001600160a01b0316816001600160a01b031614155b8015614923575061492181856133dc565b155b1561494c5760405163a9fbf51f60e01b81526001600160a01b0385166004820152602401610bc5565b82156149945784866001600160a01b0316826001600160a01b03167f8c5be1e5ebec7d5bd14f71427d1e84f3dd0314c0f7b2291e5b200ac8c7c3b92560405160405180910390a45b505b5f93845260040160205250506040902080546001600160a01b0319166001600160a01b0392909216919091179055565b5f5f6149d3858585614f17565b90506001600160a01b038116614a5a57614a55845f516020615f445f395f51905f5280545f8381527f645e039705490088daad89bae25049a34f4a9072d398537b1ab2425f24cbed0360205260408120829055600182018355919091527fa42f15e5d656f8155fd7419d740a6073999f19cd6e061449ce4a257150545bf20155565b614a7d565b846001600160a01b0316816001600160a01b031614614a7d57614a7d8185615019565b6001600160a01b038516614a9957614a94846150b0565b6139e2565b846001600160a01b0316816001600160a01b0316146139e2576139e2858561517d565b614ac68282611cc1565b610d5c57808260405163e2517d3f60e01b8152600401610bc5929190615a0c565b614af0826151d5565b6040516001600160a01b038316907fbc7cd75a20ee27fd9adebab32041f755214dbc6bffa90cc0225b39da2e5c2d3b905f90a2805115614b3457610ebb8282615238565b610d5c6152aa565b5f81471015614b675760405163cf47918160e01b815247600482015260248101839052604401610bc5565b763d602d80600a3d3981f3363d3d373d3d3d363d730000008360601b60e81c175f526e5af43d82803e903d91602b57fd5bf38360781b176020526037600983f090506001600160a01b038116610c965760405163b06ebf3d60e01b815260040160405180910390fd5b614bda83836152c9565b610ebb335f858585613f58565b614bef61532a565b613d5457604051631afcd79f60e31b815260040160405180910390fd5b614c14614be7565b5f516020615ee45f395f51905f5280614c2d8482615c0c565b5060018101610de38382615c0c565b5f5f846001600160a01b031663d39aa95a6040518163ffffffff1660e01b8152600401602060405180830381865afa158015614c7a573d5f5f3e3d5ffd5b505050506040513d601f19601f82011682018060405250810190614c9e9190615a53565b5f03614cae57505f905080614ec0565b600b546040805163efa7fa5d60e01b815290515f926001600160a01b03169163efa7fa5d9160048083019260209291908290030181865afa158015614cf5573d5f5f3e3d5ffd5b505050506040513d601f19601f82011682018060405250810190614d199190615a53565b90505f600b5f9054906101000a90046001600160a01b03166001600160a01b031663a42c69a96040518163ffffffff1660e01b8152600401602060405180830381865afa158015614d6c573d5f5f3e3d5ffd5b505050506040513d601f19601f82011682018060405250810190614d909190615a53565b614d9a8388615a7d565b614da49190615aa8565b8551909150614df55760405162461bcd60e51b815260206004820152601b60248201527f4f7261636c652070726963652063616e6e6f74206265207a65726f00000000006044820152606401610bc5565b84516020860151614e0a9060ff16600a615b96565b614e149083615a7d565b614e1e9190615aa8565b6040805163dc607d6f60e01b815287516004820152602088015160ff1660248201529087015160448201529093505f906001600160a01b0389169063dc607d6f90606401602060405180830381865afa158015614e7d573d5f5f3e3d5ffd5b505050506040513d601f19601f82011682018060405250810190614ea19190615a53565b9050612710614eb08286615a7d565b614eba9190615aa8565b94505050505b935093915050565b5f6001600160e01b031982166380ac58cd60e01b1480614ef857506001600160e01b03198216635b5e139f60e01b145b80610c9657506301ffc9a760e01b6001600160e01b0319831614610c96565b5f5f516020615ee45f395f51905f5281614f308561487a565b90506001600160a01b03841615614f4c57614f4c818587615343565b6001600160a01b03811615614f8857614f675f865f5f6148b3565b6001600160a01b0381165f908152600383016020526040902080545f190190555b6001600160a01b03861615614fb8576001600160a01b0386165f9081526003830160205260409020805460010190555b5f85815260028301602052604080822080546001600160a01b0319166001600160a01b038a811691821790925591518893918516917fddf252ad1be2c89b69c2b068fc378daa952ba7f163c4a11628f55a4df523b3ef91a495945050505050565b5f516020615ec45f395f51905f525f61503184611bbf565b5f8481526001840160209081526040808320546001600160a01b03891684529186905290912091925090818314615089575f838152602082815260408083205485845281842081905583526001870190915290208290555b5f948552600190930160209081526040808620869055928552929092528220919091555050565b5f516020615f445f395f51905f52545f516020615ec45f395f51905f52905f906150dc90600190615a6a565b5f84815260038401602052604081205460028501805493945090928490811061510757615107615bb4565b905f5260205f20015490508084600201838154811061512857615128615bb4565b5f9182526020808320909101929092558281526003860190915260408082208490558682528120556002840180548061516357615163615ea4565b600190038181905f5260205f20015f905590555050505050565b5f516020615ec45f395f51905f525f600161519785611bbf565b6151a19190615a6a565b6001600160a01b039094165f9081526020838152604080832087845282528083208690559482526001909301909252502055565b806001600160a01b03163b5f0361520a57604051634c9c8ce360e01b81526001600160a01b0382166004820152602401610bc5565b5f516020615f245f395f51905f5280546001600160a01b0319166001600160a01b0392909216919091179055565b60605f5f846001600160a01b0316846040516152549190615eb8565b5f60405180830381855af49150503d805f811461528c576040519150601f19603f3d011682016040523d82523d5f602084013e615291565b606091505b50915091506152a1858383615399565b95945050505050565b3415613d545760405163b398979f60e01b815260040160405180910390fd5b6001600160a01b0382166152f257604051633250574960e11b81525f6004820152602401610bc5565b5f6152fe83835f6139d6565b90506001600160a01b03811615610ebb576040516339e3563760e11b81525f6004820152602401610bc5565b5f615333614373565b54600160401b900460ff16919050565b61534e8383836153f5565b610ebb576001600160a01b03831661537c57604051637e27328960e01b815260048101829052602401610bc5565b818160405163177e802f60e01b8152600401610bc5929190615a0c565b6060826153ae576153a982615459565b61306b565b81511580156153c557506001600160a01b0384163b155b156153ee57604051639996b31560e01b81526001600160a01b0385166004820152602401610bc5565b508061306b565b5f6001600160a01b038316158015906139e25750826001600160a01b0316846001600160a01b0316148061542e575061542e84846133dc565b806139e25750826001600160a01b031661544783613990565b6001600160a01b031614949350505050565b8051156154695780518082602001fd5b60405163d6bda27560e01b815260040160405180910390fd5b5f5f60408385031215615493575f5ffd5b50508035926020909101359150565b6001600160e01b0319811681146139f4575f5ffd5b5f602082840312156154c7575f5ffd5b813561306b816154a2565b5f81518084528060208401602086015e5f602082860101526020601f19601f83011685010191505092915050565b602081525f61306b60208301846154d2565b5f60208284031215615522575f5ffd5b5035919050565b6001600160a01b03811681146139f4575f5ffd5b803561554881615529565b919050565b5f5f6040838503121561555e575f5ffd5b823561556981615529565b946020939093013593505050565b5f5f5f60608486031215615589575f5ffd5b833561559481615529565b925060208401356155a481615529565b929592945050506040919091013590565b5f5f604083850312156155c6575f5ffd5b8235915060208301356155d881615529565b809150509250929050565b634e487b7160e01b5f52604160045260245ffd5b604051606081016001600160401b0381118282101715615619576156196155e3565b60405290565b5f82601f83011261562e575f5ffd5b8135602083015f5f6001600160401b0384111561564d5761564d6155e3565b50604051601f19601f85018116603f011681018181106001600160401b038211171561567b5761567b6155e3565b604052838152905080828401871015615692575f5ffd5b838360208301375f602085830101528094505050505092915050565b5f5f604083850312156156bf575f5ffd5b82356156ca81615529565b915060208301356001600160401b038111156156e4575f5ffd5b6156f08582860161561f565b9150509250929050565b5f6020828403121561570a575f5ffd5b81356001600160401b0381111561571f575f5ffd5b6139e28482850161561f565b5f6020828403121561573b575f5ffd5b813561306b81615529565b80151581146139f4575f5ffd5b5f5f60408385031215615764575f5ffd5b823561576f81615529565b915060208301356155d881615746565b5f5f5f5f60808587031215615792575f5ffd5b843561579d81615529565b935060208501356157ad81615529565b92506040850135915060608501356001600160401b038111156157ce575f5ffd5b6157da8782880161561f565b91505092959194509250565b5f5f5f5f608085870312156157f9575f5ffd5b84359350602085013592506040850135915060608501356001600160401b03811115615823575f5ffd5b850160a08188031215615834575f5ffd5b939692955090935050565b5f5f5f5f5f5f5f5f5f5f6101408b8d031215615859575f5ffd5b8a3561586481615529565b995060208b013561587481615529565b985060408b013561588481615529565b975060608b013561589481615529565b96506158a260808c0161553d565b95506158b060a08c0161553d565b945060c08b01356001600160401b038111156158ca575f5ffd5b6158d68d828e0161561f565b9450506158e560e08c0161553d565b92506158f46101008c0161553d565b91506159036101208c0161553d565b90509295989b9194979a5092959850565b5f5f60408385031215615925575f5ffd5b823561593081615529565b915060208301356155d881615529565b60ff811681146139f4575f5ffd5b5f5f8284036080811215615960575f5ffd5b833592506060601f1982011215615975575f5ffd5b5061597e6155f7565b60208401358152604084013561599381615940565b60208201526060939093013560408401525092909150565b6020808252600f908201526e2737ba103a37b5b2b71037bbb732b960891b604082015260600190565b600181811c908216806159e857607f821691505b602082108103615a0657634e487b7160e01b5f52602260045260245ffd5b50919050565b6001600160a01b03929092168252602082015260400190565b634e487b7160e01b5f52601160045260245ffd5b5f600160ff1b8201615a4d57615a4d615a25565b505f0390565b5f60208284031215615a63575f5ffd5b5051919050565b81810381811115610c9657610c96615a25565b8082028115828204841417610c9657610c96615a25565b634e487b7160e01b5f52601260045260245ffd5b5f82615ab657615ab6615a94565b500490565b6001815b6001841115614ec057808504811115615ada57615ada615a25565b6001841615615ae857908102905b60019390931c928002615abf565b5f82615b0457506001610c96565b81615b1057505f610c96565b8160018114615b265760028114615b3057615b4c565b6001915050610c96565b60ff841115615b4157615b41615a25565b50506001821b610c96565b5060208310610133831016604e8410600b8410161715615b6f575081810a610c96565b615b7b5f198484615abb565b805f1904821115615b8e57615b8e615a25565b029392505050565b5f61306b8383615af6565b80820180821115610c9657610c96615a25565b634e487b7160e01b5f52603260045260245ffd5b601f821115610ebb57805f5260205f20601f840160051c81016020851015615bed5750805b601f840160051c820191505b81811015614077575f8155600101615bf9565b81516001600160401b03811115615c2557615c256155e3565b615c3981615c3384546159d4565b84615bc8565b6020601f821160018114615c6b575f8315615c545750848201515b5f19600385901b1c1916600184901b178455614077565b5f84815260208120601f198516915b82811015615c9a5787850151825560209485019460019092019101615c7a565b5084821015615cb757868401515f19600387901b60f8161c191681555b50505050600190811b01905550565b5f60018201615cd757615cd7615a25565b5060010190565b5f60208284031215615cee575f5ffd5b815161306b81615529565b5f60208284031215615d09575f5ffd5b815161306b81615746565b81835281816020850137505f828201602090810191909152601f909101601f19169091010190565b60208082528235828201525f90830135615d5581615940565b60ff1660408381019190915283013560608084019190915283013560808084019190915283013536849003601e19018112615d8e575f5ffd5b83016020810190356001600160401b03811115615da9575f5ffd5b803603821315615db7575f5ffd5b60a0808501526152a160c085018284615d14565b5f6060828403128015615ddc575f5ffd5b50615de56155f7565b825181526020830151615df781615940565b60208201526040928301519281019290925250919050565b5f81518060208401855e5f93019283525090919050565b5f6139e2615e348386615e0f565b84615e0f565b6001600160a01b03858116825284166020820152604081018390526080606082018190525f90615e6c908301846154d2565b9695505050505050565b5f60208284031215615e86575f5ffd5b815161306b816154a2565b5f82615e9f57615e9f615a94565b500690565b634e487b7160e01b5f52603160045260245ffd5b5f61306b8284615e0f56fe645e039705490088daad89bae25049a34f4a9072d398537b1ab2425f24cbed0080bb2b638cc20bc4d0a60d66940f3ab4a00c1d7b313497ca82fb0b4ab00793008c21e8ab0c92c4c41f2714adb63619371ca8ed5eb69a6fed79b7d52cdd9703ae360894a13ba1a3210667c828492db98dca3e2076cc3735a920a3ca505d382bbc645e039705490088daad89bae25049a34f4a9072d398537b1ab2425f24cbed0202dd7bc7dec4dceedda775e58dd541e08a116c6c53815c0bd028192f7b626800","linkReferences":{}},"methodIdentifiers":{"DEFAULT_ADMIN_ROLE()":"a217fddf","FACTOR_PRECISION()":"a42c69a9","MINIMUM_UNALLOCATE_COLLATERALIZATION_RATIO()":"62382f9f","MINTER_ROLE()":"d5391393","MIN_GAS()":"20d2c951","POSITION_ESCROW_ROLE()":"8d7cac7b","UPGRADER_ROLE()":"f72c0d8b","UPGRADE_INTERFACE_VERSION()":"ad3cb1cc","addUnallocatedFundsEth(uint256)":"f399beb7","addUnallocatedFundsStETH(uint256,uint256)":"bb566297","allocateStabilizerFunds(uint256,uint256)":"451fda68","approve(address,uint256)":"095ea7b3","balanceOf(address)":"70a08231","baseURI()":"6c0360eb","cuspdToken()":"6bc05b7e","getApproved(uint256)":"081812fc","getRoleAdmin(bytes32)":"248a9ca3","grantRole(bytes32,address)":"2f2ff15d","hasRole(bytes32,address)":"91d14854","highestAllocatedId()":"d743fd1e","highestUnallocatedId()":"92133362","initialize(address,address,address,address,address,address,string,address,address,address)":"d9230389","insuranceEscrow()":"4d87a1f2","isApprovedForAll(address,address)":"e985e9c5","lido()":"23509a2d","liquidatePosition(uint256,uint256,uint256,(uint256,uint8,uint256,bytes32,bytes))":"bdb35bf2","liquidationLiquidatorPayoutPercent()":"4e027fe9","lowestAllocatedId()":"2995bc50","lowestUnallocatedId()":"853cad06","mint(address)":"6a627842","name()":"06fdde03","ownerOf(uint256)":"6352211e","positionEscrowImplementation()":"e96d5787","positionEscrows(uint256)":"a04ad512","positions(uint256)":"99fbab88","proxiableUUID()":"52d1902d","rateContract()":"eee24219","removeUnallocatedFunds(uint256,uint256)":"ae88a779","renounceRole(bytes32,address)":"36568abe","reportCollateralAddition(uint256)":"67bff4a8","reportCollateralRemoval(uint256)":"39112058","reporter()":"010ec441","revokeRole(bytes32,address)":"d547741f","safeTransferFrom(address,address,uint256)":"42842e0e","safeTransferFrom(address,address,uint256,bytes)":"b88d4fde","setApprovalForAll(address,bool)":"a22cb465","setBaseURI(string)":"55f804b3","setInsuranceEscrow(address)":"7122bcc3","setLiquidationParameters(uint256)":"b10114d3","setMinCollateralizationRatio(uint256,uint256)":"01aa0b1a","stETH()":"c1fe3e48","stabilizerEscrowImplementation()":"7da31f61","stabilizerEscrows(uint256)":"bba6fd6f","supportsInterface(bytes4)":"01ffc9a7","symbol()":"95d89b41","tokenByIndex(uint256)":"4f6ccce7","tokenOfOwnerByIndex(address,uint256)":"2f745c59","tokenURI(uint256)":"c87b56dd","totalSupply()":"18160ddd","transferFrom(address,address,uint256)":"23b872dd","unallocateStabilizerFunds(uint256,(uint256,uint8,uint256))":"ff70fa64","upgradeToAndCall(address,bytes)":"4f1ef286"},"storageLayout":{"storage":[{"astId":64332,"contract":"src/StabilizerNFT.sol:StabilizerNFT","label":"positions","offset":0,"slot":"0","type":"t_mapping(t_uint256,t_struct(StabilizerPosition)64327_storage)"},{"astId":64334,"contract":"src/StabilizerNFT.sol:StabilizerNFT","label":"lowestUnallocatedId","offset":0,"slot":"1","type":"t_uint256"},{"astId":64336,"contract":"src/StabilizerNFT.sol:StabilizerNFT","label":"highestUnallocatedId","offset":0,"slot":"2","type":"t_uint256"},{"astId":64338,"contract":"src/StabilizerNFT.sol:StabilizerNFT","label":"lowestAllocatedId","offset":0,"slot":"3","type":"t_uint256"},{"astId":64340,"contract":"src/StabilizerNFT.sol:StabilizerNFT","label":"highestAllocatedId","offset":0,"slot":"4","type":"t_uint256"},{"astId":64343,"contract":"src/StabilizerNFT.sol:StabilizerNFT","label":"cuspdToken","offset":0,"slot":"5","type":"t_contract(IcUSPDToken)69535"},{"astId":64346,"contract":"src/StabilizerNFT.sol:StabilizerNFT","label":"reporter","offset":0,"slot":"6","type":"t_contract(IOvercollateralizationReporter)69075"},{"astId":64349,"contract":"src/StabilizerNFT.sol:StabilizerNFT","label":"insuranceEscrow","offset":0,"slot":"7","type":"t_contract(IInsuranceEscrow)68955"},{"astId":64351,"contract":"src/StabilizerNFT.sol:StabilizerNFT","label":"liquidationLiquidatorPayoutPercent","offset":0,"slot":"8","type":"t_uint256"},{"astId":64353,"contract":"src/StabilizerNFT.sol:StabilizerNFT","label":"stETH","offset":0,"slot":"9","type":"t_address"},{"astId":64355,"contract":"src/StabilizerNFT.sol:StabilizerNFT","label":"lido","offset":0,"slot":"10","type":"t_address"},{"astId":64358,"contract":"src/StabilizerNFT.sol:StabilizerNFT","label":"rateContract","offset":0,"slot":"11","type":"t_contract(IPoolSharesConversionRate)69115"},{"astId":64360,"contract":"src/StabilizerNFT.sol:StabilizerNFT","label":"stabilizerEscrowImplementation","offset":0,"slot":"12","type":"t_address"},{"astId":64362,"contract":"src/StabilizerNFT.sol:StabilizerNFT","label":"positionEscrowImplementation","offset":0,"slot":"13","type":"t_address"},{"astId":64366,"contract":"src/StabilizerNFT.sol:StabilizerNFT","label":"stabilizerEscrows","offset":0,"slot":"14","type":"t_mapping(t_uint256,t_address)"},{"astId":64370,"contract":"src/StabilizerNFT.sol:StabilizerNFT","label":"positionEscrows","offset":0,"slot":"15","type":"t_mapping(t_uint256,t_address)"},{"astId":64372,"contract":"src/StabilizerNFT.sol:StabilizerNFT","label":"baseURI","offset":0,"slot":"16","type":"t_string_storage"},{"astId":64374,"contract":"src/StabilizerNFT.sol:StabilizerNFT","label":"_nextTokenId","offset":0,"slot":"17","type":"t_uint256"}],"types":{"t_address":{"encoding":"inplace","label":"address","numberOfBytes":"20"},"t_contract(IInsuranceEscrow)68955":{"encoding":"inplace","label":"contract IInsuranceEscrow","numberOfBytes":"20"},"t_contract(IOvercollateralizationReporter)69075":{"encoding":"inplace","label":"contract IOvercollateralizationReporter","numberOfBytes":"20"},"t_contract(IPoolSharesConversionRate)69115":{"encoding":"inplace","label":"contract IPoolSharesConversionRate","numberOfBytes":"20"},"t_contract(IcUSPDToken)69535":{"encoding":"inplace","label":"contract IcUSPDToken","numberOfBytes":"20"},"t_mapping(t_uint256,t_address)":{"encoding":"mapping","key":"t_uint256","label":"mapping(uint256 => address)","numberOfBytes":"32","value":"t_address"},"t_mapping(t_uint256,t_struct(StabilizerPosition)64327_storage)":{"encoding":"mapping","key":"t_uint256","label":"mapping(uint256 => struct StabilizerNFT.StabilizerPosition)","numberOfBytes":"32","value":"t_struct(StabilizerPosition)64327_storage"},"t_string_storage":{"encoding":"bytes","label":"string","numberOfBytes":"32"},"t_struct(StabilizerPosition)64327_storage":{"encoding":"inplace","label":"struct StabilizerNFT.StabilizerPosition","numberOfBytes":"160","members":[{"astId":64318,"contract":"src/StabilizerNFT.sol:StabilizerNFT","label":"minCollateralRatio","offset":0,"slot":"0","type":"t_uint256"},{"astId":64320,"contract":"src/StabilizerNFT.sol:StabilizerNFT","label":"prevUnallocated","offset":0,"slot":"1","type":"t_uint256"},{"astId":64322,"contract":"src/StabilizerNFT.sol:StabilizerNFT","label":"nextUnallocated","offset":0,"slot":"2","type":"t_uint256"},{"astId":64324,"contract":"src/StabilizerNFT.sol:StabilizerNFT","label":"prevAllocated","offset":0,"slot":"3","type":"t_uint256"},{"astId":64326,"contract":"src/StabilizerNFT.sol:StabilizerNFT","label":"nextAllocated","offset":0,"slot":"4","type":"t_uint256"}]},"t_uint256":{"encoding":"inplace","label":"uint256","numberOfBytes":"32"}}},"id":109}