{"abi":[{"type":"constructor","inputs":[],"stateMutability":"nonpayable"},{"type":"receive","stateMutability":"payable"},{"type":"function","name":"DEFAULT_ADMIN_ROLE","inputs":[],"outputs":[{"name":"","type":"bytes32","internalType":"bytes32"}],"stateMutability":"view"},{"type":"function","name":"MINTER_ROLE","inputs":[],"outputs":[{"name":"","type":"bytes32","internalType":"bytes32"}],"stateMutability":"view"},{"type":"function","name":"MIN_GAS","inputs":[],"outputs":[{"name":"","type":"uint256","internalType":"uint256"}],"stateMutability":"view"},{"type":"function","name":"addUnallocatedFundsEth","inputs":[{"name":"tokenId","type":"uint256","internalType":"uint256"}],"outputs":[],"stateMutability":"payable"},{"type":"function","name":"addUnallocatedFundsStETH","inputs":[{"name":"tokenId","type":"uint256","internalType":"uint256"},{"name":"stETHAmount","type":"uint256","internalType":"uint256"}],"outputs":[],"stateMutability":"nonpayable"},{"type":"function","name":"allocateStabilizerFunds","inputs":[{"name":"poolSharesToMint","type":"uint256","internalType":"uint256"},{"name":"ethUsdPrice","type":"uint256","internalType":"uint256"},{"name":"priceDecimals","type":"uint256","internalType":"uint256"}],"outputs":[{"name":"result","type":"tuple","internalType":"struct IStabilizerNFT.AllocationResult","components":[{"name":"allocatedEth","type":"uint256","internalType":"uint256"}]}],"stateMutability":"payable"},{"type":"function","name":"approve","inputs":[{"name":"to","type":"address","internalType":"address"},{"name":"tokenId","type":"uint256","internalType":"uint256"}],"outputs":[],"stateMutability":"nonpayable"},{"type":"function","name":"balanceOf","inputs":[{"name":"owner","type":"address","internalType":"address"}],"outputs":[{"name":"","type":"uint256","internalType":"uint256"}],"stateMutability":"view"},{"type":"function","name":"getApproved","inputs":[{"name":"tokenId","type":"uint256","internalType":"uint256"}],"outputs":[{"name":"","type":"address","internalType":"address"}],"stateMutability":"view"},{"type":"function","name":"getMinCollateralRatio","inputs":[{"name":"tokenId","type":"uint256","internalType":"uint256"}],"outputs":[{"name":"","type":"uint256","internalType":"uint256"}],"stateMutability":"view"},{"type":"function","name":"getRoleAdmin","inputs":[{"name":"role","type":"bytes32","internalType":"bytes32"}],"outputs":[{"name":"","type":"bytes32","internalType":"bytes32"}],"stateMutability":"view"},{"type":"function","name":"grantRole","inputs":[{"name":"role","type":"bytes32","internalType":"bytes32"},{"name":"account","type":"address","internalType":"address"}],"outputs":[],"stateMutability":"nonpayable"},{"type":"function","name":"hasRole","inputs":[{"name":"role","type":"bytes32","internalType":"bytes32"},{"name":"account","type":"address","internalType":"address"}],"outputs":[{"name":"","type":"bool","internalType":"bool"}],"stateMutability":"view"},{"type":"function","name":"highestAllocatedId","inputs":[],"outputs":[{"name":"","type":"uint256","internalType":"uint256"}],"stateMutability":"view"},{"type":"function","name":"highestUnallocatedId","inputs":[],"outputs":[{"name":"","type":"uint256","internalType":"uint256"}],"stateMutability":"view"},{"type":"function","name":"initialize","inputs":[{"name":"_uspdToken","type":"address","internalType":"address"},{"name":"_stETH","type":"address","internalType":"address"},{"name":"_lido","type":"address","internalType":"address"},{"name":"_rateContract","type":"address","internalType":"address"},{"name":"_admin","type":"address","internalType":"address"}],"outputs":[],"stateMutability":"nonpayable"},{"type":"function","name":"isApprovedForAll","inputs":[{"name":"owner","type":"address","internalType":"address"},{"name":"operator","type":"address","internalType":"address"}],"outputs":[{"name":"","type":"bool","internalType":"bool"}],"stateMutability":"view"},{"type":"function","name":"lido","inputs":[],"outputs":[{"name":"","type":"address","internalType":"address"}],"stateMutability":"view"},{"type":"function","name":"lowestAllocatedId","inputs":[],"outputs":[{"name":"","type":"uint256","internalType":"uint256"}],"stateMutability":"view"},{"type":"function","name":"lowestUnallocatedId","inputs":[],"outputs":[{"name":"","type":"uint256","internalType":"uint256"}],"stateMutability":"view"},{"type":"function","name":"mint","inputs":[{"name":"to","type":"address","internalType":"address"},{"name":"tokenId","type":"uint256","internalType":"uint256"}],"outputs":[],"stateMutability":"nonpayable"},{"type":"function","name":"name","inputs":[],"outputs":[{"name":"","type":"string","internalType":"string"}],"stateMutability":"view"},{"type":"function","name":"ownerOf","inputs":[{"name":"tokenId","type":"uint256","internalType":"uint256"}],"outputs":[{"name":"","type":"address","internalType":"address"}],"stateMutability":"view"},{"type":"function","name":"positionEscrows","inputs":[{"name":"","type":"uint256","internalType":"uint256"}],"outputs":[{"name":"","type":"address","internalType":"address"}],"stateMutability":"view"},{"type":"function","name":"positions","inputs":[{"name":"","type":"uint256","internalType":"uint256"}],"outputs":[{"name":"minCollateralRatio","type":"uint256","internalType":"uint256"},{"name":"prevUnallocated","type":"uint256","internalType":"uint256"},{"name":"nextUnallocated","type":"uint256","internalType":"uint256"},{"name":"prevAllocated","type":"uint256","internalType":"uint256"},{"name":"nextAllocated","type":"uint256","internalType":"uint256"}],"stateMutability":"view"},{"type":"function","name":"rateContract","inputs":[],"outputs":[{"name":"","type":"address","internalType":"contract IPoolSharesConversionRate"}],"stateMutability":"view"},{"type":"function","name":"renounceRole","inputs":[{"name":"role","type":"bytes32","internalType":"bytes32"},{"name":"callerConfirmation","type":"address","internalType":"address"}],"outputs":[],"stateMutability":"nonpayable"},{"type":"function","name":"revokeRole","inputs":[{"name":"role","type":"bytes32","internalType":"bytes32"},{"name":"account","type":"address","internalType":"address"}],"outputs":[],"stateMutability":"nonpayable"},{"type":"function","name":"safeTransferFrom","inputs":[{"name":"from","type":"address","internalType":"address"},{"name":"to","type":"address","internalType":"address"},{"name":"tokenId","type":"uint256","internalType":"uint256"}],"outputs":[],"stateMutability":"nonpayable"},{"type":"function","name":"safeTransferFrom","inputs":[{"name":"from","type":"address","internalType":"address"},{"name":"to","type":"address","internalType":"address"},{"name":"tokenId","type":"uint256","internalType":"uint256"},{"name":"data","type":"bytes","internalType":"bytes"}],"outputs":[],"stateMutability":"nonpayable"},{"type":"function","name":"setApprovalForAll","inputs":[{"name":"operator","type":"address","internalType":"address"},{"name":"approved","type":"bool","internalType":"bool"}],"outputs":[],"stateMutability":"nonpayable"},{"type":"function","name":"setMinCollateralizationRatio","inputs":[{"name":"tokenId","type":"uint256","internalType":"uint256"},{"name":"newRatio","type":"uint256","internalType":"uint256"}],"outputs":[],"stateMutability":"nonpayable"},{"type":"function","name":"stETH","inputs":[],"outputs":[{"name":"","type":"address","internalType":"address"}],"stateMutability":"view"},{"type":"function","name":"stabilizerEscrows","inputs":[{"name":"","type":"uint256","internalType":"uint256"}],"outputs":[{"name":"","type":"address","internalType":"address"}],"stateMutability":"view"},{"type":"function","name":"supportsInterface","inputs":[{"name":"interfaceId","type":"bytes4","internalType":"bytes4"}],"outputs":[{"name":"","type":"bool","internalType":"bool"}],"stateMutability":"view"},{"type":"function","name":"symbol","inputs":[],"outputs":[{"name":"","type":"string","internalType":"string"}],"stateMutability":"view"},{"type":"function","name":"tokenByIndex","inputs":[{"name":"index","type":"uint256","internalType":"uint256"}],"outputs":[{"name":"","type":"uint256","internalType":"uint256"}],"stateMutability":"view"},{"type":"function","name":"tokenOfOwnerByIndex","inputs":[{"name":"owner","type":"address","internalType":"address"},{"name":"index","type":"uint256","internalType":"uint256"}],"outputs":[{"name":"","type":"uint256","internalType":"uint256"}],"stateMutability":"view"},{"type":"function","name":"tokenURI","inputs":[{"name":"tokenId","type":"uint256","internalType":"uint256"}],"outputs":[{"name":"","type":"string","internalType":"string"}],"stateMutability":"view"},{"type":"function","name":"totalSupply","inputs":[],"outputs":[{"name":"","type":"uint256","internalType":"uint256"}],"stateMutability":"view"},{"type":"function","name":"transferFrom","inputs":[{"name":"from","type":"address","internalType":"address"},{"name":"to","type":"address","internalType":"address"},{"name":"tokenId","type":"uint256","internalType":"uint256"}],"outputs":[],"stateMutability":"nonpayable"},{"type":"function","name":"unallocateStabilizerFunds","inputs":[{"name":"poolSharesToUnallocate","type":"uint256","internalType":"uint256"},{"name":"priceResponse","type":"tuple","internalType":"struct IPriceOracle.PriceResponse","components":[{"name":"price","type":"uint256","internalType":"uint256"},{"name":"decimals","type":"uint8","internalType":"uint8"},{"name":"timestamp","type":"uint256","internalType":"uint256"}]}],"outputs":[{"name":"unallocatedEth","type":"uint256","internalType":"uint256"}],"stateMutability":"nonpayable"},{"type":"function","name":"uspdToken","inputs":[],"outputs":[{"name":"","type":"address","internalType":"contract USPDToken"}],"stateMutability":"view"},{"type":"event","name":"Approval","inputs":[{"name":"owner","type":"address","indexed":true,"internalType":"address"},{"name":"approved","type":"address","indexed":true,"internalType":"address"},{"name":"tokenId","type":"uint256","indexed":true,"internalType":"uint256"}],"anonymous":false},{"type":"event","name":"ApprovalForAll","inputs":[{"name":"owner","type":"address","indexed":true,"internalType":"address"},{"name":"operator","type":"address","indexed":true,"internalType":"address"},{"name":"approved","type":"bool","indexed":false,"internalType":"bool"}],"anonymous":false},{"type":"event","name":"FundsAllocated","inputs":[{"name":"tokenId","type":"uint256","indexed":true,"internalType":"uint256"},{"name":"stabilizersAmount","type":"uint256","indexed":false,"internalType":"uint256"},{"name":"usersAmount","type":"uint256","indexed":false,"internalType":"uint256"}],"anonymous":false},{"type":"event","name":"FundsUnallocated","inputs":[{"name":"tokenId","type":"uint256","indexed":true,"internalType":"uint256"},{"name":"userStEthAmount","type":"uint256","indexed":false,"internalType":"uint256"},{"name":"stabilizerStEthAmount","type":"uint256","indexed":false,"internalType":"uint256"}],"anonymous":false},{"type":"event","name":"Initialized","inputs":[{"name":"version","type":"uint64","indexed":false,"internalType":"uint64"}],"anonymous":false},{"type":"event","name":"MinCollateralRatioUpdated","inputs":[{"name":"tokenId","type":"uint256","indexed":true,"internalType":"uint256"},{"name":"oldRatio","type":"uint256","indexed":false,"internalType":"uint256"},{"name":"newRatio","type":"uint256","indexed":false,"internalType":"uint256"}],"anonymous":false},{"type":"event","name":"RoleAdminChanged","inputs":[{"name":"role","type":"bytes32","indexed":true,"internalType":"bytes32"},{"name":"previousAdminRole","type":"bytes32","indexed":true,"internalType":"bytes32"},{"name":"newAdminRole","type":"bytes32","indexed":true,"internalType":"bytes32"}],"anonymous":false},{"type":"event","name":"RoleGranted","inputs":[{"name":"role","type":"bytes32","indexed":true,"internalType":"bytes32"},{"name":"account","type":"address","indexed":true,"internalType":"address"},{"name":"sender","type":"address","indexed":true,"internalType":"address"}],"anonymous":false},{"type":"event","name":"RoleRevoked","inputs":[{"name":"role","type":"bytes32","indexed":true,"internalType":"bytes32"},{"name":"account","type":"address","indexed":true,"internalType":"address"},{"name":"sender","type":"address","indexed":true,"internalType":"address"}],"anonymous":false},{"type":"event","name":"StabilizerPositionCreated","inputs":[{"name":"tokenId","type":"uint256","indexed":true,"internalType":"uint256"},{"name":"owner","type":"address","indexed":true,"internalType":"address"}],"anonymous":false},{"type":"event","name":"Transfer","inputs":[{"name":"from","type":"address","indexed":true,"internalType":"address"},{"name":"to","type":"address","indexed":true,"internalType":"address"},{"name":"tokenId","type":"uint256","indexed":true,"internalType":"uint256"}],"anonymous":false},{"type":"event","name":"UnallocatedFundsAdded","inputs":[{"name":"tokenId","type":"uint256","indexed":true,"internalType":"uint256"},{"name":"asset","type":"address","indexed":false,"internalType":"address"},{"name":"amount","type":"uint256","indexed":false,"internalType":"uint256"}],"anonymous":false},{"type":"error","name":"AccessControlBadConfirmation","inputs":[]},{"type":"error","name":"AccessControlUnauthorizedAccount","inputs":[{"name":"account","type":"address","internalType":"address"},{"name":"neededRole","type":"bytes32","internalType":"bytes32"}]},{"type":"error","name":"ERC721EnumerableForbiddenBatchMint","inputs":[]},{"type":"error","name":"ERC721IncorrectOwner","inputs":[{"name":"sender","type":"address","internalType":"address"},{"name":"tokenId","type":"uint256","internalType":"uint256"},{"name":"owner","type":"address","internalType":"address"}]},{"type":"error","name":"ERC721InsufficientApproval","inputs":[{"name":"operator","type":"address","internalType":"address"},{"name":"tokenId","type":"uint256","internalType":"uint256"}]},{"type":"error","name":"ERC721InvalidApprover","inputs":[{"name":"approver","type":"address","internalType":"address"}]},{"type":"error","name":"ERC721InvalidOperator","inputs":[{"name":"operator","type":"address","internalType":"address"}]},{"type":"error","name":"ERC721InvalidOwner","inputs":[{"name":"owner","type":"address","internalType":"address"}]},{"type":"error","name":"ERC721InvalidReceiver","inputs":[{"name":"receiver","type":"address","internalType":"address"}]},{"type":"error","name":"ERC721InvalidSender","inputs":[{"name":"sender","type":"address","internalType":"address"}]},{"type":"error","name":"ERC721NonexistentToken","inputs":[{"name":"tokenId","type":"uint256","internalType":"uint256"}]},{"type":"error","name":"ERC721OutOfBoundsIndex","inputs":[{"name":"owner","type":"address","internalType":"address"},{"name":"index","type":"uint256","internalType":"uint256"}]},{"type":"error","name":"InvalidInitialization","inputs":[]},{"type":"error","name":"NotInitializing","inputs":[]}],"bytecode":{"object":"0x6080604052348015600e575f80fd5b5060156019565b60c9565b7ff0c57e16840df040f15088dc2f81fe391c3923bec73e23a9662efc9c229c6a00805468010000000000000000900460ff161560685760405163f92ee8a960e01b815260040160405180910390fd5b80546001600160401b039081161460c65780546001600160401b0319166001600160401b0390811782556040519081527fc7f505b2f371ae2175ee4913f4499e1f2633a7b5936321eed1cdaeb6115181d29060200160405180910390a15b50565b6185b5806100d65f395ff3fe6080604052600436106102cf575f3560e01c806370a082311161017b578063bb566297116100d1578063d547741f11610087578063eee2421911610062578063eee2421914610904578063f399beb714610923578063ff70fa6414610936575f80fd5b8063d547741f1461086a578063d743fd1e14610889578063e985e9c51461089e575f80fd5b8063c1fe3e48116100b7578063c1fe3e48146107f9578063c87b56dd14610818578063d539139314610837575f80fd5b8063bb566297146107a6578063bba6fd6f146107c5575f80fd5b806399fbab8811610131578063a22cb4651161010c578063a22cb46514610749578063b88d4fde14610768578063bb310a8014610787575f80fd5b806399fbab8814610692578063a04ad51214610702578063a217fddf14610736575f80fd5b806391d148541161016157806391d1485414610606578063921333621461066957806395d89b411461067e575f80fd5b806370a08231146105d2578063853cad06146105f1575f80fd5b806323b872dd1161023057806336568abe116101e65780634d0c810b116101c15780634d0c810b146105755780634f6ccce7146105945780636352211e146105b3575f80fd5b806336568abe1461051857806340c10f191461053757806342842e0e14610556575f80fd5b80632995bc50116102165780632995bc50146104c55780632f2ff15d146104da5780632f745c59146104f9575f80fd5b806323b872dd14610459578063248a9ca314610478575f80fd5b8063095ea7b31161028557806318160ddd1161026b57806318160ddd146103e757806320d2c9511461042457806323509a2d1461043a575f80fd5b8063095ea7b3146103a95780631459457a146103c8575f80fd5b806306fdde03116102b557806306fdde031461032f578063080a896114610350578063081812fc14610372575f80fd5b806301aa0b1a146102da57806301ffc9a7146102fb575f80fd5b366102d657005b5f80fd5b3480156102e5575f80fd5b506102f96102f4366004614369565b610955565b005b348015610306575f80fd5b5061031a6103153660046143b6565b610ab3565b60405190151581526020015b60405180910390f35b34801561033a575f80fd5b50610343610ac3565b604051610326919061441d565b61036361035e36600461442f565b610b77565b60405190518152602001610326565b34801561037d575f80fd5b5061039161038c366004614458565b611364565b6040516001600160a01b039091168152602001610326565b3480156103b4575f80fd5b506102f96103c3366004614483565b6113aa565b3480156103d3575f80fd5b506102f96103e23660046144ad565b6113b9565b3480156103f2575f80fd5b507f645e039705490088daad89bae25049a34f4a9072d398537b1ab2425f24cbed02545b604051908152602001610326565b34801561042f575f80fd5b50610416620186a081565b348015610445575f80fd5b50600754610391906001600160a01b031681565b348015610464575f80fd5b506102f961047336600461451a565b61160e565b348015610483575f80fd5b50610416610492366004614458565b5f9081527f02dd7bc7dec4dceedda775e58dd541e08a116c6c53815c0bd028192f7b626800602052604090206001015490565b3480156104d0575f80fd5b5061041660035481565b3480156104e5575f80fd5b506102f96104f4366004614558565b6116c9565b348015610504575f80fd5b50610416610513366004614483565b61170c565b348015610523575f80fd5b506102f9610532366004614558565b6117a9565b348015610542575f80fd5b506102f9610551366004614483565b6117fa565b348015610561575f80fd5b506102f961057036600461451a565b611b76565b348015610580575f80fd5b50600554610391906001600160a01b031681565b34801561059f575f80fd5b506104166105ae366004614458565b611b90565b3480156105be575f80fd5b506103916105cd366004614458565b611c41565b3480156105dd575f80fd5b506104166105ec366004614586565b611c4b565b3480156105fc575f80fd5b5061041660015481565b348015610611575f80fd5b5061031a610620366004614558565b5f9182527f02dd7bc7dec4dceedda775e58dd541e08a116c6c53815c0bd028192f7b626800602090815260408084206001600160a01b0393909316845291905290205460ff1690565b348015610674575f80fd5b5061041660025481565b348015610689575f80fd5b50610343611ccf565b34801561069d575f80fd5b506106da6106ac366004614458565b5f60208190529081526040902080546001820154600283015460038401546004909401549293919290919085565b604080519586526020860194909452928401919091526060830152608082015260a001610326565b34801561070d575f80fd5b5061039161071c366004614458565b600a6020525f90815260409020546001600160a01b031681565b348015610741575f80fd5b506104165f81565b348015610754575f80fd5b506102f96107633660046145ae565b611d20565b348015610773575f80fd5b506102f9610782366004614656565b611d2b565b348015610792575f80fd5b506104166107a1366004614458565b611d43565b3480156107b1575f80fd5b506102f96107c0366004614369565b611db6565b3480156107d0575f80fd5b506103916107df366004614458565b60096020525f90815260409020546001600160a01b031681565b348015610804575f80fd5b50600654610391906001600160a01b031681565b348015610823575f80fd5b50610343610832366004614458565b611fb3565b348015610842575f80fd5b506104167f9f2df0fed2c77648de5860a4cc508cd0818c85b8b8a1ab4ceeef8d981c8956a681565b348015610875575f80fd5b506102f9610884366004614558565b61209c565b348015610894575f80fd5b5061041660045481565b3480156108a9575f80fd5b5061031a6108b8366004614736565b6001600160a01b039182165f9081527f80bb2b638cc20bc4d0a60d66940f3ab4a00c1d7b313497ca82fb0b4ab00793056020908152604080832093909416825291909152205460ff1690565b34801561090f575f80fd5b50600854610391906001600160a01b031681565b6102f9610931366004614458565b6120df565b348015610941575f80fd5b50610416610950366004614762565b612289565b3361095f83611c41565b6001600160a01b0316146109ba5760405162461bcd60e51b815260206004820152600f60248201527f4e6f7420746f6b656e206f776e6572000000000000000000000000000000000060448201526064015b60405180910390fd5b606e811015610a0b5760405162461bcd60e51b815260206004820152601b60248201527f526174696f206d757374206265206174206c656173742031313025000000000060448201526064016109b1565b6103e8811115610a5d5760405162461bcd60e51b815260206004820152601960248201527f526174696f2063616e6e6f74206578636565642031303030250000000000000060448201526064016109b1565b5f8281526020818152604091829020805484825583518181529283018590529092909185917f3e82d134b4a0328de7223eb1ae194d98009405cb6b8dc9c3d6bd70eb3aeb5c94910160405180910390a250505050565b5f610abd82612937565b92915050565b7f80bb2b638cc20bc4d0a60d66940f3ab4a00c1d7b313497ca82fb0b4ab00793008054606091908190610af590614800565b80601f0160208091040260200160405190810160405280929190818152602001828054610b2190614800565b8015610b6c5780601f10610b4357610100808354040283529160200191610b6c565b820191905f5260205f20905b815481529060010190602001808311610b4f57829003601f168201915b505050505091505090565b60408051602081019091525f81526005546001600160a01b03163314610bdf5760405162461bcd60e51b815260206004820152601260248201527f4f6e6c79205553504420636f6e7472616374000000000000000000000000000060448201526064016109b1565b6001545f03610c305760405162461bcd60e51b815260206004820152601460248201527f4e6f20756e616c6c6f63617465642066756e647300000000000000000000000060448201526064016109b1565b5f3411610c7f5760405162461bcd60e51b815260206004820152600b60248201527f4e6f204554482073656e7400000000000000000000000000000000000000000060448201526064016109b1565b600154345b8115801590610c9257505f81115b156112a157620186a05a106112a1575f828152602081815260408083206009909252909120546001600160a01b031680610d0e5760405162461bcd60e51b815260206004820152601f60248201527f457363726f77206e6f7420666f756e6420666f722073746162696c697a65720060448201526064016109b1565b5f816001600160a01b031663ec60b9ab6040518163ffffffff1660e01b8152600401602060405180830381865afa158015610d4b573d5f803e3d5ffd5b505050506040513d601f19601f82011682018060405250810190610d6f9190614851565b9050801580610d7c575083155b15610d8e575050600201549150610c84565b5f846064855f015487610da19190614895565b610dab91906148d9565b610db591906148ec565b90505f828211610dc55781610dc7565b825b90508582821015610e02578554610de0906064906148ec565b610deb836064614895565b610df591906148d9565b905086811115610e025750855b5f888152600a60205260409020546001600160a01b031680610e665760405162461bcd60e51b815260206004820152601860248201527f506f736974696f6e457363726f77206e6f7420666f756e64000000000000000060448201526064016109b1565b6040517f4f68ae75000000000000000000000000000000000000000000000000000000008152600481018490523060248201526001600160a01b03871690634f68ae75906044015f604051808303815f87803b158015610ec4575f80fd5b505af1158015610ed6573d5f803e3d5ffd5b50506006546040517f23b872dd0000000000000000000000000000000000000000000000000000000081526001600160a01b038a811660048301528581166024830152604482018890525f945090911691506323b872dd906064016020604051808303815f875af1158015610f4d573d5f803e3d5ffd5b505050506040513d601f19601f82011682018060405250810190610f7191906148ff565b905080610fe65760405162461bcd60e51b815260206004820152603260248201527f53746162696c697a6572207374455448207472616e7366657220746f20506f7360448201527f6974696f6e457363726f77206661696c6564000000000000000000000000000060648201526084016109b1565b6040517fbf3fdde7000000000000000000000000000000000000000000000000000000008152600481018590526001600160a01b0383169063bf3fdde79085906024015f604051808303818588803b158015611040575f80fd5b505af1158015611052573d5f803e3d5ffd5b50505050505f8c600a6110659190614a33565b61106f8f86614895565b61107991906148d9565b90505f60085f9054906101000a90046001600160a01b03166001600160a01b031663efa7fa5d6040518163ffffffff1660e01b8152600401602060405180830381865afa1580156110cc573d5f803e3d5ffd5b505050506040513d601f19601f820116820180604052508101906110f09190614851565b90505f8160085f9054906101000a90046001600160a01b03166001600160a01b031663a42c69a96040518163ffffffff1660e01b8152600401602060405180830381865afa158015611144573d5f803e3d5ffd5b505050506040513d601f19601f820116820180604052508101906111689190614851565b6111729085614895565b61117c91906148d9565b6040517f0bfd07fc000000000000000000000000000000000000000000000000000000008152600481018290529091506001600160a01b03861690630bfd07fc906024015f604051808303815f87803b1580156111d7575f80fd5b505af11580156111e9573d5f803e3d5ffd5b50505050858e5f018181516111fe9190614a3e565b90525061120b868d6148ec565b6040805189815260208101899052919d508e917fc0a79f21f196b4ee5a242474a85cb9aa5fc2ce59ecc884d7271f1c2bd19b9a13910160405180910390a260038b015415801561125d575060048b0154155b801561126b57508c60035414155b15611279576112798d61298c565b60028b015489880361128e5761128e8e612a6f565b9c50610c849a5050505050505050505050565b82516112ef5760405162461bcd60e51b815260206004820152601260248201527f4e6f2066756e647320616c6c6f6361746564000000000000000000000000000060448201526064016109b1565b801561135a5760055f9054906101000a90046001600160a01b03166001600160a01b031663b09f409d826040518263ffffffff1660e01b81526004015f604051808303818588803b158015611342575f80fd5b505af1158015611354573d5f803e3d5ffd5b50505050505b50505b9392505050565b5f61136e82612b2f565b505f8281527f80bb2b638cc20bc4d0a60d66940f3ab4a00c1d7b313497ca82fb0b4ab007930460205260409020546001600160a01b0316610abd565b6113b5828233612b9f565b5050565b5f6113c2612bac565b805490915060ff68010000000000000000820416159067ffffffffffffffff165f811580156113ee5750825b90505f8267ffffffffffffffff16600114801561140a5750303b155b905081158015611418575080155b1561144f576040517ff92ee8a900000000000000000000000000000000000000000000000000000000815260040160405180910390fd5b84547fffffffffffffffffffffffffffffffffffffffffffffffff000000000000000016600117855583156114b05784547fffffffffffffffffffffffffffffffffffffffffffffff00ffffffffffffffff16680100000000000000001785555b6115246040518060400160405280600f81526020017f555350442053746162696c697a657200000000000000000000000000000000008152506040518060400160405280600581526020017f5553504453000000000000000000000000000000000000000000000000000000815250612bd4565b61152c612be6565b611534612be6565b61153e5f87612bf0565b50600580546001600160a01b03808d167fffffffffffffffffffffffff000000000000000000000000000000000000000092831617909255600680548c8416908316179055600780548b841690831617905560088054928a169290911691909117905583156116025784547fffffffffffffffffffffffffffffffffffffffffffffff00ffffffffffffffff168555604051600181527fc7f505b2f371ae2175ee4913f4499e1f2633a7b5936321eed1cdaeb6115181d29060200160405180910390a15b50505050505050505050565b6001600160a01b038216611650576040517f64a0ae920000000000000000000000000000000000000000000000000000000081525f60048201526024016109b1565b5f61165c838333612cda565b9050836001600160a01b0316816001600160a01b0316146116c3576040517f64283d7b0000000000000000000000000000000000000000000000000000000081526001600160a01b03808616600483015260248201849052821660448201526064016109b1565b50505050565b5f8281527f02dd7bc7dec4dceedda775e58dd541e08a116c6c53815c0bd028192f7b626800602052604090206001015461170281612cee565b6116c38383612bf0565b5f7f645e039705490088daad89bae25049a34f4a9072d398537b1ab2425f24cbed0061173784611c4b565b8310611781576040517fa57d13dc0000000000000000000000000000000000000000000000000000000081526001600160a01b0385166004820152602481018490526044016109b1565b6001600160a01b0384165f908152602091825260408082208583529092522054905092915050565b6001600160a01b03811633146117eb576040517f6697b23200000000000000000000000000000000000000000000000000000000815260040160405180910390fd5b6117f58282612cf8565b505050565b7f9f2df0fed2c77648de5860a4cc508cd0818c85b8b8a1ab4ceeef8d981c8956a661182481612cee565b6040805160a081018252606e81525f60208083018281528385018381526060850184815260808601858152898652938590529590932093518455516001840155905160028301559151600382015590516004909101556118848383612dba565b6040516001600160a01b0384169083907f6474509949d7dca0e17a8cf02aeb66814967a3c7adbfefc212edb6e6693b6865905f90a36006546007546040515f92309287926001600160a01b0392831692909116906118e19061434f565b6001600160a01b039485168152928416602084015290831660408301529091166060820152608001604051809103905ff080158015611922573d5f803e3d5ffd5b5090506001600160a01b0381166119a15760405162461bcd60e51b815260206004820152602260248201527f53746162696c697a6572457363726f77206465706c6f796d656e74206661696c60448201527f656400000000000000000000000000000000000000000000000000000000000060648201526084016109b1565b5f83815260096020908152604080832080547fffffffffffffffffffffffff0000000000000000000000000000000000000000166001600160a01b038681169190911790915560065460075460085460055485517f7dc0d1d0000000000000000000000000000000000000000000000000000000008152955130978d979587169694851695938516949290921692637dc0d1d09260048083019391928290030181865afa158015611a54573d5f803e3d5ffd5b505050506040513d601f19601f82011682018060405250810190611a789190614a51565b604051611a849061435c565b6001600160a01b0396871681529486166020860152928516604085015290841660608401528316608083015290911660a082015260c001604051809103905ff080158015611ad4573d5f803e3d5ffd5b5090506001600160a01b038116611b2d5760405162461bcd60e51b815260206004820181905260248201527f506f736974696f6e457363726f77206465706c6f796d656e74206661696c656460448201526064016109b1565b5f938452600a602052604090932080547fffffffffffffffffffffffff0000000000000000000000000000000000000000166001600160a01b0390941693909317909255505050565b6117f583838360405180602001604052805f815250611d2b565b5f7f645e039705490088daad89bae25049a34f4a9072d398537b1ab2425f24cbed00611bda7f645e039705490088daad89bae25049a34f4a9072d398537b1ab2425f24cbed025490565b8310611c1b576040517fa57d13dc0000000000000000000000000000000000000000000000000000000081525f6004820152602481018490526044016109b1565b806002018381548110611c3057611c30614a6c565b905f5260205f200154915050919050565b5f610abd82612b2f565b5f7f80bb2b638cc20bc4d0a60d66940f3ab4a00c1d7b313497ca82fb0b4ab00793006001600160a01b038316611caf576040517f89c62b640000000000000000000000000000000000000000000000000000000081525f60048201526024016109b1565b6001600160a01b039092165f908152600390920160205250604090205490565b7f80bb2b638cc20bc4d0a60d66940f3ab4a00c1d7b313497ca82fb0b4ab007930180546060917f80bb2b638cc20bc4d0a60d66940f3ab4a00c1d7b313497ca82fb0b4ab007930091610af590614800565b6113b5338383612dd3565b611d3684848461160e565b6116c33385858585612ecc565b5f80611d4e83611c41565b6001600160a01b031603611da45760405162461bcd60e51b815260206004820152601460248201527f546f6b656e20646f6573206e6f7420657869737400000000000000000000000060448201526064016109b1565b505f9081526020819052604090205490565b33611dc083611c41565b6001600160a01b031614611e165760405162461bcd60e51b815260206004820152600f60248201527f4e6f7420746f6b656e206f776e6572000000000000000000000000000000000060448201526064016109b1565b5f8111611e655760405162461bcd60e51b815260206004820152601760248201527f416d6f756e74206d75737420626520706f73697469766500000000000000000060448201526064016109b1565b5f828152600960205260409020546001600160a01b031680611ec95760405162461bcd60e51b815260206004820152601060248201527f457363726f77206e6f7420666f756e640000000000000000000000000000000060448201526064016109b1565b6006546040517f23b872dd0000000000000000000000000000000000000000000000000000000081523360048201526001600160a01b03838116602483015260448201859052909116906323b872dd906064016020604051808303815f875af1158015611f38573d5f803e3d5ffd5b505050506040513d601f19601f82011682018060405250810190611f5c91906148ff565b50611f668361308e565b600654604080516001600160a01b0390921682526020820184905284917f055b14c7efbc07d692265b907b52ec309741a29408ffad1d871aa6b371ac7729910160405180910390a2505050565b60605f611fbf83611c41565b6001600160a01b0316036120155760405162461bcd60e51b815260206004820152601460248201527f546f6b656e20646f6573206e6f7420657869737400000000000000000000000060448201526064016109b1565b5f8281526020819052604081209061207161202f856131c7565b61204061203b876132f8565b613338565b845461204b906131c7565b60405160200161205d93929190614ab0565b604051602081830303815290604052613338565b9050806040516020016120849190614c57565b60405160208183030381529060405292505050919050565b5f8281527f02dd7bc7dec4dceedda775e58dd541e08a116c6c53815c0bd028192f7b62680060205260409020600101546120d581612cee565b6116c38383612cf8565b336120e982611c41565b6001600160a01b03161461213f5760405162461bcd60e51b815260206004820152600f60248201527f4e6f7420746f6b656e206f776e6572000000000000000000000000000000000060448201526064016109b1565b5f341161218e5760405162461bcd60e51b815260206004820152600b60248201527f4e6f204554482073656e7400000000000000000000000000000000000000000060448201526064016109b1565b5f818152600960205260409020546001600160a01b0316806121f25760405162461bcd60e51b815260206004820152601060248201527f457363726f77206e6f7420666f756e640000000000000000000000000000000060448201526064016109b1565b806001600160a01b031663d0e30db0346040518263ffffffff1660e01b81526004015f604051808303818588803b15801561222b575f80fd5b505af115801561223d573d5f803e3d5ffd5b505050505061224b8261308e565b604080515f815234602082015283917f055b14c7efbc07d692265b907b52ec309741a29408ffad1d871aa6b371ac7729910160405180910390a25050565b6005545f906001600160a01b031633146122e55760405162461bcd60e51b815260206004820152601260248201527f4f6e6c79205553504420636f6e7472616374000000000000000000000000000060448201526064016109b1565b6004545f036123365760405162461bcd60e51b815260206004820152601260248201527f4e6f20616c6c6f63617465642066756e6473000000000000000000000000000060448201526064016109b1565b600454835f5b821580159061234a57505f82115b156128df57620186a05a106128df575f83815260208181526040808320600a909252909120546001600160a01b0316806123c65760405162461bcd60e51b815260206004820152601860248201527f506f736974696f6e457363726f77206e6f7420666f756e64000000000000000060448201526064016109b1565b5f8190505f816001600160a01b031663d39aa95a6040518163ffffffff1660e01b8152600401602060405180830381865afa158015612407573d5f803e3d5ffd5b505050506040513d601f19601f8201168201806040525081019061242b9190614851565b905080156128d1575f8187116124415786612443565b815b905080156128cf575f8061245885848e61335e565b91509150846001600160a01b0316630bfd07fc8461247590614c88565b6040518263ffffffff1660e01b815260040161249391815260200190565b5f604051808303815f87803b1580156124aa575f80fd5b505af11580156124bc573d5f803e3d5ffd5b50506040517f9d45109a00000000000000000000000000000000000000000000000000000000815260048101859052602481018490523060448201526001600160a01b0388169250639d45109a91506064015f604051808303815f87803b158015612525575f80fd5b505af1158015612537573d5f803e3d5ffd5b505050505f818361254891906148ec565b90508115612666576006546005546040517fa9059cbb0000000000000000000000000000000000000000000000000000000081526001600160a01b039182166004820152602481018590525f92919091169063a9059cbb906044016020604051808303815f875af11580156125bf573d5f803e3d5ffd5b505050506040513d601f19601f820116820180604052508101906125e391906148ff565b9050806126585760405162461bcd60e51b815260206004820152602760248201527f55736572207374455448207472616e7366657220746f2055535044546f6b656e60448201527f206661696c65640000000000000000000000000000000000000000000000000060648201526084016109b1565b612662838b614a3e565b9950505b80156127d5575f8b8152600960205260409020546001600160a01b0316806126d05760405162461bcd60e51b815260206004820152601a60248201527f53746162696c697a6572457363726f77206e6f7420666f756e6400000000000060448201526064016109b1565b6006546040517fa9059cbb0000000000000000000000000000000000000000000000000000000081526001600160a01b038381166004830152602482018590525f92169063a9059cbb906044016020604051808303815f875af1158015612739573d5f803e3d5ffd5b505050506040513d601f19601f8201168201806040525081019061275d91906148ff565b9050806127d25760405162461bcd60e51b815260206004820152603460248201527f53746162696c697a6572207374455448207472616e7366657220746f2053746160448201527f62696c697a6572457363726f77206661696c656400000000000000000000000060648201526084016109b1565b50505b8484148015612882576127e78c61369e565b5f8c81526009602090815260408083205481517fec60b9ab00000000000000000000000000000000000000000000000000000000815291516001600160a01b039091169263ec60b9ab92600480820193918290030181865afa15801561284f573d5f803e3d5ffd5b505050506040513d601f19601f820116820180604052508101906128739190614851565b1115612882576128828c61308e565b61288c858c6148ec565b6040805185815260208101859052919c508d917f7bd51af63c72ca163b2d37a37219fbdda7a4c3803f69ed76e3948078619a32f9910160405180910390a2505050505b505b50505060030154925061233c565b5f811161292e5760405162461bcd60e51b815260206004820152601460248201527f4e6f2066756e647320756e616c6c6f636174656400000000000000000000000060448201526064016109b1565b95945050505050565b5f7fffffffff0000000000000000000000000000000000000000000000000000000082167f7965db0b000000000000000000000000000000000000000000000000000000001480610abd5750610abd8261375e565b600354158061299b5750600454155b156129aa576003819055600455565b6004548111156129d857600480545f8381526020819052604080822060030183905591815220810182905555565b600354811015612a0657600380545f8381526020819052604080822060040183905591815220810182905555565b6003545b8015801590612a1857508181105b15612a33575f90815260208190526040902060040154612a0a565b5f818152602081905260408082206003908101805486855283852092830181905560049283018690558452918320018490559190528190555b50565b5f81815260208190526040902060015482148015612a8e575060025482145b15612aa1575f6001819055600255612b1e565b6001548203612ac857600281015460018181555f9182526020829052604082200155612b1e565b6002548203612aef57600181015460028181555f9182526020829052604082200155612b1e565b600180820154600280840180545f90815260208190526040808220909501849055905492815292909220909101555b5f6002820181905560019091015550565b5f8181527f80bb2b638cc20bc4d0a60d66940f3ab4a00c1d7b313497ca82fb0b4ab007930260205260408120546001600160a01b031680610abd576040517f7e273289000000000000000000000000000000000000000000000000000000008152600481018490526024016109b1565b6117f583838360016137b3565b5f807ff0c57e16840df040f15088dc2f81fe391c3923bec73e23a9662efc9c229c6a00610abd565b612bdc613947565b6113b58282613985565b612bee613947565b565b5f8281527f02dd7bc7dec4dceedda775e58dd541e08a116c6c53815c0bd028192f7b626800602081815260408084206001600160a01b038616855290915282205460ff16612cd1575f848152602082815260408083206001600160a01b0387168452909152902080547fffffffffffffffffffffffffffffffffffffffffffffffffffffffffffffff00166001179055612c873390565b6001600160a01b0316836001600160a01b0316857f2f8788117e7eff1d82e926ec794901d17c78024a50270940304540a733656f0d60405160405180910390a46001915050610abd565b5f915050610abd565b5f612ce68484846139c8565b949350505050565b612a6c8133613ad1565b5f8281527f02dd7bc7dec4dceedda775e58dd541e08a116c6c53815c0bd028192f7b626800602081815260408084206001600160a01b038616855290915282205460ff1615612cd1575f848152602082815260408083206001600160a01b038716808552925280832080547fffffffffffffffffffffffffffffffffffffffffffffffffffffffffffffff0016905551339287917ff6391f5c32d9c69d2a47ea670b442974b53935d1edc7fd64eb21e047a839171b9190a46001915050610abd565b6113b5828260405180602001604052805f815250613b5d565b7f80bb2b638cc20bc4d0a60d66940f3ab4a00c1d7b313497ca82fb0b4ab00793006001600160a01b038316612e3f576040517f5b08ba180000000000000000000000000000000000000000000000000000000081526001600160a01b03841660048201526024016109b1565b6001600160a01b038481165f81815260058401602090815260408083209488168084529482529182902080547fffffffffffffffffffffffffffffffffffffffffffffffffffffffffffffff001687151590811790915591519182527f17307eab39ab6107e8899845ad3d59bd9653f200f220920489ca2b5937696c31910160405180910390a350505050565b6001600160a01b0383163b15613087576040517f150b7a020000000000000000000000000000000000000000000000000000000081526001600160a01b0384169063150b7a0290612f27908890889087908790600401614cbe565b6020604051808303815f875af1925050508015612f7f575060408051601f3d9081017fffffffffffffffffffffffffffffffffffffffffffffffffffffffffffffffe0168201909252612f7c91810190614cfe565b60015b612fff573d808015612fac576040519150601f19603f3d011682016040523d82523d5f602084013e612fb1565b606091505b5080515f03612ff7576040517f64a0ae920000000000000000000000000000000000000000000000000000000081526001600160a01b03851660048201526024016109b1565b805181602001fd5b7fffffffff0000000000000000000000000000000000000000000000000000000081167f150b7a020000000000000000000000000000000000000000000000000000000014613085576040517f64a0ae920000000000000000000000000000000000000000000000000000000081526001600160a01b03851660048201526024016109b1565b505b5050505050565b5f81815260208190526040902060018101541580156130af57506002810154155b80156130bd57508160015414155b156113b5576001545f036130d657506001819055600255565b60025482111561310357600280546001929092018290555f91825260208290526040909120810182905555565b60015482101561313057600180546002929092018290555f91825260208290526040909120810182905555565b6001545b5f818152602081905260409020600201541580159061316257505f8181526020819052604090206002015483115b1561317d575f90815260208190526040902060020154613134565b5f818152602081905260409020600290810180546001850184905591840182905584905580156131bf575f8181526020819052604090206001018490556116c3565b505050600255565b6060815f0361320957505060408051808201909152600181527f3000000000000000000000000000000000000000000000000000000000000000602082015290565b815f5b8115613232578061321c81614d19565b915061322b9050600a836148d9565b915061320c565b5f8167ffffffffffffffff81111561324c5761324c6145da565b6040519080825280601f01601f191660200182016040528015613276576020820181803683370190505b5090505b8415612ce65761328b6001836148ec565b9150613298600a86614d50565b6132a3906030614a3e565b60f81b8183815181106132b8576132b8614a6c565b60200101907effffffffffffffffffffffffffffffffffffffffffffffffffffffffffffff191690815f1a9053506132f1600a866148d9565b945061327a565b5f818152602081905260409020606090613311836131c7565b6040516020016133219190614d63565b604051602081830303815290604052915050919050565b6060610abd82604051806060016040528060408152602001618540604091396001613b74565b5f80846001600160a01b031663d39aa95a6040518163ffffffff1660e01b8152600401602060405180830381865afa15801561339c573d5f803e3d5ffd5b505050506040513d601f19601f820116820180604052508101906133c09190614851565b5f036133d057505f905080613696565b600854604080517fefa7fa5d00000000000000000000000000000000000000000000000000000000815290515f926001600160a01b03169163efa7fa5d9160048083019260209291908290030181865afa158015613430573d5f803e3d5ffd5b505050506040513d601f19601f820116820180604052508101906134549190614851565b90505f60085f9054906101000a90046001600160a01b03166001600160a01b031663a42c69a96040518163ffffffff1660e01b8152600401602060405180830381865afa1580156134a7573d5f803e3d5ffd5b505050506040513d601f19601f820116820180604052508101906134cb9190614851565b6134d58388614895565b6134df91906148d9565b85519091506135305760405162461bcd60e51b815260206004820152601b60248201527f4f7261636c652070726963652063616e6e6f74206265207a65726f000000000060448201526064016109b1565b845160208601516135459060ff16600a614a33565b61354f9083614895565b61355991906148d9565b604080517fdc607d6f00000000000000000000000000000000000000000000000000000000815287516004820152602088015160ff1660248201529087015160448201529093505f906001600160a01b0389169063dc607d6f90606401602060405180830381865afa1580156135d1573d5f803e3d5ffd5b505050506040513d601f19601f820116820180604052508101906135f59190614851565b9050606481101561366e5760405162461bcd60e51b815260206004820152603360248201527f43616e6e6f7420756e616c6c6f636174652066726f6d20756e646572636f6c6c60448201527f61746572616c697a656420706f736974696f6e0000000000000000000000000060648201526084016109b1565b606461367a8286614895565b61368491906148d9565b945084841115613692578493505b5050505b935093915050565b5f818152602081905260409020600354821480156136bd575060045482145b156136d0575f600381905560045561374d565b60035482036136f757600481015460038181555f918252602082905260408220015561374d565b600454820361371e57600381015460048181555f918252602082905260408220015561374d565b600380820154600480840180545f90815260208190526040808220909501849055905492815292909220909101555b5f6004820181905560039091015550565b5f7fffffffff0000000000000000000000000000000000000000000000000000000082167f780e9d63000000000000000000000000000000000000000000000000000000001480610abd5750610abd82613cef565b7f80bb2b638cc20bc4d0a60d66940f3ab4a00c1d7b313497ca82fb0b4ab007930081806137e857506001600160a01b03831615155b156138ff575f6137f785612b2f565b90506001600160a01b038416158015906138235750836001600160a01b0316816001600160a01b031614155b801561387357506001600160a01b038082165f9081527f80bb2b638cc20bc4d0a60d66940f3ab4a00c1d7b313497ca82fb0b4ab0079305602090815260408083209388168352929052205460ff16155b156138b5576040517fa9fbf51f0000000000000000000000000000000000000000000000000000000081526001600160a01b03851660048201526024016109b1565b82156138fd5784866001600160a01b0316826001600160a01b03167f8c5be1e5ebec7d5bd14f71427d1e84f3dd0314c0f7b2291e5b200ac8c7c3b92560405160405180910390a45b505b5f93845260040160205250506040902080547fffffffffffffffffffffffff0000000000000000000000000000000000000000166001600160a01b0392909216919091179055565b61394f613dd1565b612bee576040517fd7e6bcf800000000000000000000000000000000000000000000000000000000815260040160405180910390fd5b61398d613947565b7f80bb2b638cc20bc4d0a60d66940f3ab4a00c1d7b313497ca82fb0b4ab0079300806139b98482614fd4565b50600181016116c38382614fd4565b5f806139d5858585613def565b90506001600160a01b038116613a6f57613a6a847f645e039705490088daad89bae25049a34f4a9072d398537b1ab2425f24cbed0280545f8381527f645e039705490088daad89bae25049a34f4a9072d398537b1ab2425f24cbed0360205260408120829055600182018355919091527fa42f15e5d656f8155fd7419d740a6073999f19cd6e061449ce4a257150545bf20155565b613a92565b846001600160a01b0316816001600160a01b031614613a9257613a928185613f60565b6001600160a01b038516613aae57613aa98461400a565b612ce6565b846001600160a01b0316816001600160a01b031614612ce657612ce685856140fd565b5f8281527f02dd7bc7dec4dceedda775e58dd541e08a116c6c53815c0bd028192f7b626800602090815260408083206001600160a01b038516845290915290205460ff166113b5576040517fe2517d3f0000000000000000000000000000000000000000000000000000000081526001600160a01b0382166004820152602481018390526044016109b1565b613b678383614168565b6117f5335f858585612ecc565b606083515f03613b92575060408051602081019091525f815261135d565b5f82613bc257600385516004613ba89190614895565b613bb3906002614a3e565b613bbd91906148d9565b613be7565b600385516002613bd29190614a3e565b613bdc91906148d9565b613be7906004614895565b90505f8167ffffffffffffffff811115613c0357613c036145da565b6040519080825280601f01601f191660200182016040528015613c2d576020820181803683370190505b509050600185016020820187885189016020810180515f82525b82841015613ca2576003840193508351603f8160121c168701518653600186019550603f81600c1c168701518653600186019550603f8160061c168701518653600186019550603f8116870151865350600185019450613c47565b905250508515613ce357600388510660018114613cc65760028114613cd957613ce1565b603d6001830353603d6002830353613ce1565b603d60018303535b505b50909695505050505050565b5f7fffffffff0000000000000000000000000000000000000000000000000000000082167f80ac58cd000000000000000000000000000000000000000000000000000000001480613d8157507fffffffff0000000000000000000000000000000000000000000000000000000082167f5b5e139f00000000000000000000000000000000000000000000000000000000145b80610abd57507f01ffc9a7000000000000000000000000000000000000000000000000000000007fffffffff00000000000000000000000000000000000000000000000000000000831614610abd565b5f613dda612bac565b5468010000000000000000900460ff16919050565b5f8281527f80bb2b638cc20bc4d0a60d66940f3ab4a00c1d7b313497ca82fb0b4ab007930260205260408120547f80bb2b638cc20bc4d0a60d66940f3ab4a00c1d7b313497ca82fb0b4ab0079300906001600160a01b0390811690841615613e5c57613e5c8185876141fb565b6001600160a01b03811615613eb757613e775f865f806137b3565b6001600160a01b0381165f908152600383016020526040902080547fffffffffffffffffffffffffffffffffffffffffffffffffffffffffffffffff0190555b6001600160a01b03861615613ee7576001600160a01b0386165f9081526003830160205260409020805460010190555b5f85815260028301602052604080822080547fffffffffffffffffffffffff0000000000000000000000000000000000000000166001600160a01b038a811691821790925591518893918516917fddf252ad1be2c89b69c2b068fc378daa952ba7f163c4a11628f55a4df523b3ef91a495945050505050565b7f645e039705490088daad89bae25049a34f4a9072d398537b1ab2425f24cbed005f613f8b84611c4b565b5f8481526001840160209081526040808320546001600160a01b03891684529186905290912091925090818314613fe3575f838152602082815260408083205485845281842081905583526001870190915290208290555b5f948552600190930160209081526040808620869055928552929092528220919091555050565b7f645e039705490088daad89bae25049a34f4a9072d398537b1ab2425f24cbed02547f645e039705490088daad89bae25049a34f4a9072d398537b1ab2425f24cbed00905f9061405c906001906148ec565b5f84815260038401602052604081205460028501805493945090928490811061408757614087614a6c565b905f5260205f2001549050808460020183815481106140a8576140a8614a6c565b5f918252602080832090910192909255828152600386019091526040808220849055868252812055600284018054806140e3576140e36150eb565b600190038181905f5260205f20015f905590555050505050565b7f645e039705490088daad89bae25049a34f4a9072d398537b1ab2425f24cbed005f600161412a85611c4b565b61413491906148ec565b6001600160a01b039094165f9081526020838152604080832087845282528083208690559482526001909301909252502055565b6001600160a01b0382166141aa576040517f64a0ae920000000000000000000000000000000000000000000000000000000081525f60048201526024016109b1565b5f6141b683835f612cda565b90506001600160a01b038116156117f5576040517f73c6ac6e0000000000000000000000000000000000000000000000000000000081525f60048201526024016109b1565b614206838383614291565b6117f5576001600160a01b03831661424d576040517f7e273289000000000000000000000000000000000000000000000000000000008152600481018290526024016109b1565b6040517f177e802f0000000000000000000000000000000000000000000000000000000081526001600160a01b0383166004820152602481018290526044016109b1565b5f6001600160a01b03831615801590612ce65750826001600160a01b0316846001600160a01b0316148061430857506001600160a01b038085165f9081527f80bb2b638cc20bc4d0a60d66940f3ab4a00c1d7b313497ca82fb0b4ab0079305602090815260408083209387168352929052205460ff165b80612ce65750505f9081527f80bb2b638cc20bc4d0a60d66940f3ab4a00c1d7b313497ca82fb0b4ab007930460205260409020546001600160a01b03908116911614919050565b610d248061511983390190565b61270380615e3d83390190565b5f806040838503121561437a575f80fd5b50508035926020909101359150565b7fffffffff0000000000000000000000000000000000000000000000000000000081168114612a6c575f80fd5b5f602082840312156143c6575f80fd5b813561135d81614389565b5f81518084528060208401602086015e5f6020828601015260207fffffffffffffffffffffffffffffffffffffffffffffffffffffffffffffffe0601f83011685010191505092915050565b602081525f61135d60208301846143d1565b5f805f60608486031215614441575f80fd5b505081359360208301359350604090920135919050565b5f60208284031215614468575f80fd5b5035919050565b6001600160a01b0381168114612a6c575f80fd5b5f8060408385031215614494575f80fd5b823561449f8161446f565b946020939093013593505050565b5f805f805f60a086880312156144c1575f80fd5b85356144cc8161446f565b945060208601356144dc8161446f565b935060408601356144ec8161446f565b925060608601356144fc8161446f565b9150608086013561450c8161446f565b809150509295509295909350565b5f805f6060848603121561452c575f80fd5b83356145378161446f565b925060208401356145478161446f565b929592945050506040919091013590565b5f8060408385031215614569575f80fd5b82359150602083013561457b8161446f565b809150509250929050565b5f60208284031215614596575f80fd5b813561135d8161446f565b8015158114612a6c575f80fd5b5f80604083850312156145bf575f80fd5b82356145ca8161446f565b9150602083013561457b816145a1565b7f4e487b71000000000000000000000000000000000000000000000000000000005f52604160045260245ffd5b604051601f82017fffffffffffffffffffffffffffffffffffffffffffffffffffffffffffffffe016810167ffffffffffffffff8111828210171561464e5761464e6145da565b604052919050565b5f805f8060808587031215614669575f80fd5b84356146748161446f565b935060208501356146848161446f565b925060408501359150606085013567ffffffffffffffff8111156146a6575f80fd5b8501601f810187136146b6575f80fd5b803567ffffffffffffffff8111156146d0576146d06145da565b61470160207fffffffffffffffffffffffffffffffffffffffffffffffffffffffffffffffe0601f84011601614607565b818152886020838501011115614715575f80fd5b816020840160208301375f6020838301015280935050505092959194509250565b5f8060408385031215614747575f80fd5b82356147528161446f565b9150602083013561457b8161446f565b5f808284036080811215614774575f80fd5b8335925060607fffffffffffffffffffffffffffffffffffffffffffffffffffffffffffffffe0820112156147a7575f80fd5b506040516060810167ffffffffffffffff811182821017156147cb576147cb6145da565b60409081526020850135825284013560ff811681146147e8575f80fd5b60208201526060939093013560408401525092909150565b600181811c9082168061481457607f821691505b60208210810361484b577f4e487b71000000000000000000000000000000000000000000000000000000005f52602260045260245ffd5b50919050565b5f60208284031215614861575f80fd5b5051919050565b7f4e487b71000000000000000000000000000000000000000000000000000000005f52601160045260245ffd5b8082028115828204841417610abd57610abd614868565b7f4e487b71000000000000000000000000000000000000000000000000000000005f52601260045260245ffd5b5f826148e7576148e76148ac565b500490565b81810381811115610abd57610abd614868565b5f6020828403121561490f575f80fd5b815161135d816145a1565b6001815b60018411156136965780850481111561493957614939614868565b600184161561494757908102905b60019390931c92800261491e565b5f8261496357506001610abd565b8161496f57505f610abd565b8160018114614985576002811461498f576149ab565b6001915050610abd565b60ff8411156149a0576149a0614868565b50506001821b610abd565b5060208310610133831016604e8410600b84101617156149ce575081810a610abd565b6149f97fffffffffffffffffffffffffffffffffffffffffffffffffffffffffffffffff848461491a565b807fffffffffffffffffffffffffffffffffffffffffffffffffffffffffffffffff04821115614a2b57614a2b614868565b029392505050565b5f61135d8383614955565b80820180821115610abd57610abd614868565b5f60208284031215614a61575f80fd5b815161135d8161446f565b7f4e487b71000000000000000000000000000000000000000000000000000000005f52603260045260245ffd5b5f81518060208401855e5f93019283525090919050565b7f7b226e616d65223a2022555350442053746162696c697a65722023000000000081525f614ae1601b830186614a99565b7f222c20226465736372697074696f6e223a2022555350442053746162696c697a81527f657220506f736974696f6e204e4654222c20000000000000000000000000000060208201527f22696d616765223a2022646174613a696d6167652f7376672b786d6c3b62617360328201527f6536342c000000000000000000000000000000000000000000000000000000006052820152614b836056820186614a99565b90507f222c202261747472696275746573223a205b000000000000000000000000000081527f7b2274726169745f74797065223a20224d696e20436f6c6c61746572616c205260128201527f6174696f222c202276616c7565223a20220000000000000000000000000000006032820152614c016043820185614a99565b7f25227d000000000000000000000000000000000000000000000000000000000081527f5d7d00000000000000000000000000000000000000000000000000000000000060038201526005019695505050505050565b7f646174613a6170706c69636174696f6e2f6a736f6e3b6261736536342c00000081525f61135d601d830184614a99565b5f7f80000000000000000000000000000000000000000000000000000000000000008203614cb857614cb8614868565b505f0390565b6001600160a01b03851681526001600160a01b0384166020820152826040820152608060608201525f614cf460808301846143d1565b9695505050505050565b5f60208284031215614d0e575f80fd5b815161135d81614389565b5f7fffffffffffffffffffffffffffffffffffffffffffffffffffffffffffffffff8203614d4957614d49614868565b5060010190565b5f82614d5e57614d5e6148ac565b500690565b7f3c73766720786d6c6e733d22687474703a2f2f7777772e77332e6f72672f323081527f30302f737667222077696474683d2234303022206865696768743d223430302260208201527f3e0000000000000000000000000000000000000000000000000000000000000060408201527f3c7374796c653e2e62617365207b2066696c6c3a2077686974653b20666f6e7460418201527f2d66616d696c793a2073657269663b20666f6e742d73697a653a20313470783b60618201527f207d3c2f7374796c653e0000000000000000000000000000000000000000000060818201527f3c726563742077696474683d223130302522206865696768743d223130302522608b8201527f2066696c6c3d22626c61636b222f3e000000000000000000000000000000000060ab8201527f3c7465787420783d223530252220793d223430252220636c6173733d2262617360ba8201527f652220646f6d696e616e742d626173656c696e653d226d6964646c652220746560da8201527f78742d616e63686f723d226d6964646c65223e0000000000000000000000000060fa8201527f53746162696c697a65722023000000000000000000000000000000000000000061010d8201525f61135d614f67614f3e610119850186614a99565b7f3c2f746578743e00000000000000000000000000000000000000000000000000815260070190565b7f3c2f7376673e0000000000000000000000000000000000000000000000000000815260060190565b601f8211156117f557805f5260205f20601f840160051c81016020851015614fb55750805b601f840160051c820191505b81811015613087575f8155600101614fc1565b815167ffffffffffffffff811115614fee57614fee6145da565b61500281614ffc8454614800565b84614f90565b6020601f821160018114615053575f831561501d5750848201515b7fffffffffffffffffffffffffffffffffffffffffffffffffffffffffffffffff600385901b1c1916600184901b178455613087565b5f848152602081207fffffffffffffffffffffffffffffffffffffffffffffffffffffffffffffffe08516915b828110156150a05787850151825560209485019460019092019101615080565b50848210156150dc57868401517fffffffffffffffffffffffffffffffffffffffffffffffffffffffffffffffff600387901b60f8161c191681555b50505050600190811b01905550565b7f4e487b71000000000000000000000000000000000000000000000000000000005f52603160045260245ffdfe610100604052348015610010575f80fd5b50604051610d24380380610d2483398101604081905261002f916100cb565b6001600160a01b038416158061004c57506001600160a01b038316155b8061005e57506001600160a01b038216155b8061007057506001600160a01b038116155b1561008e5760405163d92e233d60e01b815260040160405180910390fd5b6001600160a01b0393841660805291831660a052821660c0521660e05261011c565b80516001600160a01b03811681146100c6575f80fd5b919050565b5f805f80608085870312156100de575f80fd5b6100e7856100b0565b93506100f5602086016100b0565b9250610103604086016100b0565b9150610111606086016100b0565b905092959194509250565b60805160a05160c05160e051610b906101945f395f81816098015261090701525f818161019b01528181610341015281816104570152818161061f015281816107570152610a3d01525f8181610116015261072601525f8181610168015281816101ff0152818161052f01526108190152610b905ff3fe60806040526004361061007c575f3560e01c8063bec070d61161004c578063bec070d614610157578063c1fe3e481461018a578063d0e30db0146101bd578063ec60b9ab146101c5575f80fd5b806323509a2d146100875780634f68ae75146100e45780637d0e9bba14610105578063a901540014610138575f80fd5b3661008357005b5f80fd5b348015610092575f80fd5b506100ba7f000000000000000000000000000000000000000000000000000000000000000081565b60405173ffffffffffffffffffffffffffffffffffffffff90911681526020015b60405180910390f35b3480156100ef575f80fd5b506101036100fe366004610ac0565b6101e7565b005b348015610110575f80fd5b506100ba7f000000000000000000000000000000000000000000000000000000000000000081565b348015610143575f80fd5b50610103610152366004610b06565b610517565b348015610162575f80fd5b506100ba7f000000000000000000000000000000000000000000000000000000000000000081565b348015610195575f80fd5b506100ba7f000000000000000000000000000000000000000000000000000000000000000081565b610103610801565b3480156101d0575f80fd5b506101d9610a0d565b6040519081526020016100db565b3373ffffffffffffffffffffffffffffffffffffffff7f0000000000000000000000000000000000000000000000000000000000000000161461028b576040517f08c379a000000000000000000000000000000000000000000000000000000000815260206004820152601b60248201527f43616c6c6572206973206e6f742053746162696c697a65724e4654000000000060448201526064015b60405180910390fd5b815f036102c4576040517f1f2a200500000000000000000000000000000000000000000000000000000000815260040160405180910390fd5b73ffffffffffffffffffffffffffffffffffffffff8116610311576040517fd92e233d00000000000000000000000000000000000000000000000000000000815260040160405180910390fd5b6040517f70a082310000000000000000000000000000000000000000000000000000000081523060048201525f907f000000000000000000000000000000000000000000000000000000000000000073ffffffffffffffffffffffffffffffffffffffff16906370a0823190602401602060405180830381865afa15801561039b573d5f803e3d5ffd5b505050506040513d601f19601f820116820180604052508101906103bf9190610b1d565b90508083111561040b576040517fe450d38c0000000000000000000000000000000000000000000000000000000081523060048201526024810182905260448101849052606401610282565b6040517f095ea7b300000000000000000000000000000000000000000000000000000000815273ffffffffffffffffffffffffffffffffffffffff8381166004830152602482018590527f0000000000000000000000000000000000000000000000000000000000000000169063095ea7b3906044016020604051808303815f875af115801561049d573d5f803e3d5ffd5b505050506040513d601f19601f820116820180604052508101906104c19190610b34565b508173ffffffffffffffffffffffffffffffffffffffff167fd4ff9b9c0e7f96a5697a4d12df976cbce4f79f135c350cc8014ce7ecfe4ed25e8460405161050a91815260200190565b60405180910390a2505050565b3373ffffffffffffffffffffffffffffffffffffffff7f000000000000000000000000000000000000000000000000000000000000000016146105b6576040517f08c379a000000000000000000000000000000000000000000000000000000000815260206004820152601b60248201527f43616c6c6572206973206e6f742053746162696c697a65724e465400000000006044820152606401610282565b805f036105ef576040517f1f2a200500000000000000000000000000000000000000000000000000000000815260040160405180910390fd5b6040517f70a082310000000000000000000000000000000000000000000000000000000081523060048201525f907f000000000000000000000000000000000000000000000000000000000000000073ffffffffffffffffffffffffffffffffffffffff16906370a0823190602401602060405180830381865afa158015610679573d5f803e3d5ffd5b505050506040513d601f19601f8201168201806040525081019061069d9190610b1d565b9050808211156106e9576040517fe450d38c0000000000000000000000000000000000000000000000000000000081523060048201526024810182905260448101839052606401610282565b6040517fa9059cbb00000000000000000000000000000000000000000000000000000000815273ffffffffffffffffffffffffffffffffffffffff7f000000000000000000000000000000000000000000000000000000000000000081166004830152602482018490525f917f00000000000000000000000000000000000000000000000000000000000000009091169063a9059cbb906044016020604051808303815f875af115801561079f573d5f803e3d5ffd5b505050506040513d601f19601f820116820180604052508101906107c39190610b34565b9050806107fc576040517f90b8ec1800000000000000000000000000000000000000000000000000000000815260040160405180910390fd5b505050565b3373ffffffffffffffffffffffffffffffffffffffff7f000000000000000000000000000000000000000000000000000000000000000016146108a0576040517f08c379a000000000000000000000000000000000000000000000000000000000815260206004820152601b60248201527f43616c6c6572206973206e6f742053746162696c697a65724e465400000000006044820152606401610282565b345f036108d9576040517f1f2a200500000000000000000000000000000000000000000000000000000000815260040160405180910390fd5b6040517fa1903eab0000000000000000000000000000000000000000000000000000000081525f60048201527f000000000000000000000000000000000000000000000000000000000000000073ffffffffffffffffffffffffffffffffffffffff169063a1903eab90349060240160206040518083038185885af1935050505080156109a1575060408051601f3d9081017fffffffffffffffffffffffffffffffffffffffffffffffffffffffffffffffe016820190925261099e91810190610b1d565b60015b6109d7576040517f79cacff100000000000000000000000000000000000000000000000000000000815260040160405180910390fd5b506040513481527fa1ab46d0e38f33a7b1f03853088a305927deb55c906370ff5d6d2bc732f150959060200160405180910390a1565b6040517f70a082310000000000000000000000000000000000000000000000000000000081523060048201525f907f000000000000000000000000000000000000000000000000000000000000000073ffffffffffffffffffffffffffffffffffffffff16906370a0823190602401602060405180830381865afa158015610a97573d5f803e3d5ffd5b505050506040513d601f19601f82011682018060405250810190610abb9190610b1d565b905090565b5f8060408385031215610ad1575f80fd5b82359150602083013573ffffffffffffffffffffffffffffffffffffffff81168114610afb575f80fd5b809150509250929050565b5f60208284031215610b16575f80fd5b5035919050565b5f60208284031215610b2d575f80fd5b5051919050565b5f60208284031215610b44575f80fd5b81518015158114610b53575f80fd5b939250505056fea264697066735822122001e2d025c5f0d8097af9263c28953b66fce8ea1f1c40fd9a14aa44c69bbb25c964736f6c634300081a0033610120604052348015610010575f80fd5b5060405161270338038061270383398101604081905261002f9161020e565b6001600160a01b038616158061004c57506001600160a01b038516155b8061005e57506001600160a01b038416155b8061007057506001600160a01b038316155b8061008257506001600160a01b038216155b8061009457506001600160a01b038116155b156100b25760405163d92e233d60e01b815260040160405180910390fd5b6001600160a01b0380871660805284811660a05283811660c05282811660e0528116610100525f60018190556100e8908761014a565b506101137f079847024f21c1f5f8d88daf6764f03ddd70ce4acc6aa7104a85233fe5a769958761014a565b5061013e7f7f61e2b6df76d800cd249804cfbce4bce022e89227550287211f04d6f3b464e78661014a565b5050505050505061027e565b5f828152602081815260408083206001600160a01b038516845290915281205460ff166101ea575f838152602081815260408083206001600160a01b03861684529091529020805460ff191660011790556101a23390565b6001600160a01b0316826001600160a01b0316847f2f8788117e7eff1d82e926ec794901d17c78024a50270940304540a733656f0d60405160405180910390a45060016101ed565b505f5b92915050565b80516001600160a01b0381168114610209575f80fd5b919050565b5f805f805f8060c08789031215610223575f80fd5b61022c876101f3565b955061023a602088016101f3565b9450610248604088016101f3565b9350610256606088016101f3565b9250610264608088016101f3565b915061027260a088016101f3565b90509295509295509295565b60805160a05160c05160e051610100516123d861032b5f395f81816104fc0152610b4501525f81816106c301528181610cd601528181610d66015281816119d80152611a6801525f81816101e70152818161037e015281816110cf015261173501525f81816106290152818161096601528181610c0201528181610f4e01528181611311015281816114370152818161152e015281816119180152611b8d01525f6105e301526123d85ff3fe608060405260043610610191575f3560e01c806382882f8a116100dc578063bf3fdde711610087578063d547741f11610062578063d547741f14610660578063dc607d6f1461067f578063ee5f44071461069e578063eee24219146106b2575f80fd5b8063bf3fdde714610605578063c1fe3e4814610618578063d39aa95a1461064b575f80fd5b8063a217fddf116100b7578063a217fddf146105a0578063bcc46e83146105b3578063bec070d6146105d2575f80fd5b806382882f8a1461051e57806391d14854146105325780639d45109a14610581575f80fd5b80634699643b1161013c57806368b2f94a1161011757806368b2f94a146104b0578063769ef03d146104e35780637dc0d1d0146104eb575f80fd5b80634699643b1461043f578063571a1e2814610472578063618f802714610491575f80fd5b8063248a9ca31161016c578063248a9ca3146103c55780632f2ff15d1461040157806336568abe14610420575f80fd5b806301ffc9a7146103185780630bfd07fc1461034c57806323509a2d1461036d575f80fd5b3661031457345f8190036101a157005b6040517fa1903eab0000000000000000000000000000000000000000000000000000000081525f600482018190529073ffffffffffffffffffffffffffffffffffffffff7f0000000000000000000000000000000000000000000000000000000000000000169063a1903eab90849060240160206040518083038185885af19350505050801561026c575060408051601f3d9081017fffffffffffffffffffffffffffffffffffffffffffffffffffffffffffffffe016820190925261026991810190611e54565b60015b6102a2576040517f90b8ec1800000000000000000000000000000000000000000000000000000000815260040160405180910390fd5b809150815f036102de576040517f90b8ec1800000000000000000000000000000000000000000000000000000000815260040160405180910390fd5b506040518181527f206d5f22994381488f76c20f193ebf898daf960461a61d40e68e1641f62d8c5d9060200160405180910390a1005b5f80fd5b348015610323575f80fd5b50610337610332366004611e6b565b6106e5565b60405190151581526020015b60405180910390f35b348015610357575f80fd5b5061036b610366366004611eb1565b61077d565b005b348015610378575f80fd5b506103a07f000000000000000000000000000000000000000000000000000000000000000081565b60405173ffffffffffffffffffffffffffffffffffffffff9091168152602001610343565b3480156103d0575f80fd5b506103f36103df366004611eb1565b5f9081526020819052604090206001015490565b604051908152602001610343565b34801561040c575f80fd5b5061036b61041b366004611ee9565b61086d565b34801561042b575f80fd5b5061036b61043a366004611ee9565b610897565b34801561044a575f80fd5b506103f37f079847024f21c1f5f8d88daf6764f03ddd70ce4acc6aa7104a85233fe5a7699581565b34801561047d575f80fd5b5061036b61048c366004611eb1565b6108f0565b34801561049c575f80fd5b5061036b6104ab366004611f17565b610a56565b3480156104bb575f80fd5b506103f37f7f61e2b6df76d800cd249804cfbce4bce022e89227550287211f04d6f3b464e781565b61036b61104e565b3480156104f6575f80fd5b506103a07f000000000000000000000000000000000000000000000000000000000000000081565b348015610529575f80fd5b506103f3606e81565b34801561053d575f80fd5b5061033761054c366004611ee9565b5f9182526020828152604080842073ffffffffffffffffffffffffffffffffffffffff93909316845291905290205460ff1690565b34801561058c575f80fd5b5061036b61059b366004611f72565b6111f7565b3480156105ab575f80fd5b506103f35f81565b3480156105be575f80fd5b5061036b6105cd366004611eb1565b61162f565b3480156105dd575f80fd5b506103a07f000000000000000000000000000000000000000000000000000000000000000081565b61036b610613366004611eb1565b611692565b348015610623575f80fd5b506103a07f000000000000000000000000000000000000000000000000000000000000000081565b348015610656575f80fd5b506103f360015481565b34801561066b575f80fd5b5061036b61067a366004611ee9565b611890565b34801561068a575f80fd5b506103f3610699366004611ff9565b6118b4565b3480156106a9575f80fd5b506103f3611b5d565b3480156106bd575f80fd5b506103a07f000000000000000000000000000000000000000000000000000000000000000081565b5f7fffffffff0000000000000000000000000000000000000000000000000000000082167f7965db0b00000000000000000000000000000000000000000000000000000000148061077757507f01ffc9a7000000000000000000000000000000000000000000000000000000007fffffffff000000000000000000000000000000000000000000000000000000008316145b92915050565b7f079847024f21c1f5f8d88daf6764f03ddd70ce4acc6aa7104a85233fe5a769956107a781611c10565b6001545f8313156107c4576107bc838261206a565b60015561082a565b5f831215610825575f6107d68461207d565b905081811115610812576040517f1f825c6a00000000000000000000000000000000000000000000000000000000815260040160405180910390fd5b61081c81836120b3565b6001555061082a565b505050565b6001546040805185815260208101929092527fabc1e0200cea3daa5c1d23d3df8212b5b114ee4bb8800bc01d8c2a7f93641d02910160405180910390a1505b5050565b5f8281526020819052604090206001015461088781611c10565b6108918383611c1d565b50505050565b73ffffffffffffffffffffffffffffffffffffffff811633146108e6576040517f6697b23200000000000000000000000000000000000000000000000000000000815260040160405180910390fd5b6108258282611d16565b805f03610929576040517f1f2a200500000000000000000000000000000000000000000000000000000000815260040160405180910390fd5b6040517f23b872dd000000000000000000000000000000000000000000000000000000008152336004820152306024820152604481018290525f907f000000000000000000000000000000000000000000000000000000000000000073ffffffffffffffffffffffffffffffffffffffff16906323b872dd906064016020604051808303815f875af11580156109c1573d5f803e3d5ffd5b505050506040513d601f19601f820116820180604052508101906109e591906120c6565b905080610a1e576040517f90b8ec1800000000000000000000000000000000000000000000000000000000815260040160405180910390fd5b6040518281527f206d5f22994381488f76c20f193ebf898daf960461a61d40e68e1641f62d8c5d906020015b60405180910390a15050565b7f7f61e2b6df76d800cd249804cfbce4bce022e89227550287211f04d6f3b464e7610a8081611c10565b73ffffffffffffffffffffffffffffffffffffffff8416610acd576040517fd92e233d00000000000000000000000000000000000000000000000000000000815260040160405180910390fd5b825f03610b06576040517f1f2a200500000000000000000000000000000000000000000000000000000000815260040160405180910390fd5b6040517f65ab8c710000000000000000000000000000000000000000000000000000000081525f9073ffffffffffffffffffffffffffffffffffffffff7f000000000000000000000000000000000000000000000000000000000000000016906365ab8c7190610b7a90869060040161212c565b6060604051808303815f875af1158015610b96573d5f803e3d5ffd5b505050506040513d601f19601f82011682018060405250810190610bba91906121e3565b6040517f70a082310000000000000000000000000000000000000000000000000000000081523060048201529091505f9073ffffffffffffffffffffffffffffffffffffffff7f000000000000000000000000000000000000000000000000000000000000000016906370a0823190602401602060405180830381865afa158015610c47573d5f803e3d5ffd5b505050506040513d601f19601f82011682018060405250810190610c6b9190611e54565b60015490915081861115610cc0576040517fe450d38c00000000000000000000000000000000000000000000000000000000815230600482015260248101839052604481018790526064015b60405180910390fd5b5f610ccb87846120b3565b90508115610f00575f7f000000000000000000000000000000000000000000000000000000000000000073ffffffffffffffffffffffffffffffffffffffff1663efa7fa5d6040518163ffffffff1660e01b8152600401602060405180830381865afa158015610d3d573d5f803e3d5ffd5b505050506040513d601f19601f82011682018060405250810190610d619190611e54565b90505f7f000000000000000000000000000000000000000000000000000000000000000073ffffffffffffffffffffffffffffffffffffffff1663a42c69a96040518163ffffffff1660e01b8152600401602060405180830381865afa158015610dcd573d5f803e3d5ffd5b505050506040513d601f19601f82011682018060405250810190610df19190611e54565b610dfb8386612227565b610e05919061223e565b9050805f03610e40576040517f1f825c6a00000000000000000000000000000000000000000000000000000000815260040160405180910390fd5b85515f03610e7a576040517f1f2a200500000000000000000000000000000000000000000000000000000000815260040160405180910390fd5b5f866020015160ff16600a610e8f9190612397565b8751610e9b9086612227565b610ea5919061223e565b90505f82610eb4836064612227565b610ebe919061223e565b9050606e811015610efb576040517f133804c300000000000000000000000000000000000000000000000000000000815260040160405180910390fd5b505050505b6040517fa9059cbb00000000000000000000000000000000000000000000000000000000815273ffffffffffffffffffffffffffffffffffffffff8981166004830152602482018990525f917f00000000000000000000000000000000000000000000000000000000000000009091169063a9059cbb906044016020604051808303815f875af1158015610f96573d5f803e3d5ffd5b505050506040513d601f19601f82011682018060405250810190610fba91906120c6565b905080610ff3576040517f90b8ec1800000000000000000000000000000000000000000000000000000000815260040160405180910390fd5b8873ffffffffffffffffffffffffffffffffffffffff167f370ef93e54c934af17869115596b96ef88d1454cd91736e1d7ae0efdaa62686f8960405161103b91815260200190565b60405180910390a2505050505050505050565b345f819003611089576040517f1f2a200500000000000000000000000000000000000000000000000000000000815260040160405180910390fd5b6040517fa1903eab0000000000000000000000000000000000000000000000000000000081525f600482018190529073ffffffffffffffffffffffffffffffffffffffff7f0000000000000000000000000000000000000000000000000000000000000000169063a1903eab90849060240160206040518083038185885af193505050508015611154575060408051601f3d9081017fffffffffffffffffffffffffffffffffffffffffffffffffffffffffffffffe016820190925261115191810190611e54565b60015b61118a576040517f90b8ec1800000000000000000000000000000000000000000000000000000000815260040160405180910390fd5b809150815f036111c6576040517f90b8ec1800000000000000000000000000000000000000000000000000000000815260040160405180910390fd5b506040518181527f206d5f22994381488f76c20f193ebf898daf960461a61d40e68e1641f62d8c5d90602001610a4a565b7f079847024f21c1f5f8d88daf6764f03ddd70ce4acc6aa7104a85233fe5a7699561122181611c10565b835f0361125a576040517f1f2a200500000000000000000000000000000000000000000000000000000000815260040160405180910390fd5b73ffffffffffffffffffffffffffffffffffffffff82166112a7576040517fd92e233d00000000000000000000000000000000000000000000000000000000815260040160405180910390fd5b838311156112e1576040517f1f825c6a00000000000000000000000000000000000000000000000000000000815260040160405180910390fd5b6040517f70a082310000000000000000000000000000000000000000000000000000000081523060048201525f907f000000000000000000000000000000000000000000000000000000000000000073ffffffffffffffffffffffffffffffffffffffff16906370a0823190602401602060405180830381865afa15801561136b573d5f803e3d5ffd5b505050506040513d601f19601f8201168201806040525081019061138f9190611e54565b9050808511156113db576040517fe450d38c0000000000000000000000000000000000000000000000000000000081523060048201526024810182905260448101869052606401610cb7565b5f6113e685876120b3565b6040517fa9059cbb00000000000000000000000000000000000000000000000000000000815273ffffffffffffffffffffffffffffffffffffffff8681166004830152602482018890529192505f917f0000000000000000000000000000000000000000000000000000000000000000169063a9059cbb906044016020604051808303815f875af115801561147d573d5f803e3d5ffd5b505050506040513d601f19601f820116820180604052508101906114a191906120c6565b9050806114da576040517f90b8ec1800000000000000000000000000000000000000000000000000000000815260040160405180910390fd5b81156115d5576040517fa9059cbb00000000000000000000000000000000000000000000000000000000815273ffffffffffffffffffffffffffffffffffffffff8681166004830152602482018490525f917f00000000000000000000000000000000000000000000000000000000000000009091169063a9059cbb906044016020604051808303815f875af1158015611576573d5f803e3d5ffd5b505050506040513d601f19601f8201168201806040525081019061159a91906120c6565b9050806115d3576040517f90b8ec1800000000000000000000000000000000000000000000000000000000815260040160405180910390fd5b505b604080518781526020810184905273ffffffffffffffffffffffffffffffffffffffff8716917f47e1336b6fdb5f42c3a1d28b558fa98786d820c3705d726358dcc8e63a401eef910160405180910390a250505050505050565b7f079847024f21c1f5f8d88daf6764f03ddd70ce4acc6aa7104a85233fe5a7699561165981611c10565b815f03610a1e576040517f1f2a200500000000000000000000000000000000000000000000000000000000815260040160405180910390fd5b7f079847024f21c1f5f8d88daf6764f03ddd70ce4acc6aa7104a85233fe5a769956116bc81611c10565b34801580156116c9575082155b15611700576040517f1f2a200500000000000000000000000000000000000000000000000000000000815260040160405180910390fd5b5f8115611843576040517fa1903eab0000000000000000000000000000000000000000000000000000000081525f60048201527f000000000000000000000000000000000000000000000000000000000000000073ffffffffffffffffffffffffffffffffffffffff169063a1903eab90849060240160206040518083038185885af1935050505080156117cf575060408051601f3d9081017fffffffffffffffffffffffffffffffffffffffffffffffffffffffffffffffe01682019092526117cc91810190611e54565b60015b611805576040517f90b8ec1800000000000000000000000000000000000000000000000000000000815260040160405180910390fd5b809150815f03611841576040517f90b8ec1800000000000000000000000000000000000000000000000000000000815260040160405180910390fd5b505b5f61184e858361206a565b90507f206d5f22994381488f76c20f193ebf898daf960461a61d40e68e1641f62d8c5d8160405161188191815260200190565b60405180910390a15050505050565b5f828152602081905260409020600101546118aa81611c10565b6108918383611d16565b6001545f908082036118e857507fffffffffffffffffffffffffffffffffffffffffffffffffffffffffffffffff92915050565b6040517f70a082310000000000000000000000000000000000000000000000000000000081523060048201525f907f000000000000000000000000000000000000000000000000000000000000000073ffffffffffffffffffffffffffffffffffffffff16906370a0823190602401602060405180830381865afa158015611972573d5f803e3d5ffd5b505050506040513d601f19601f820116820180604052508101906119969190611e54565b9050805f036119a857505f9392505050565b5f846020015160ff16600a6119bd9190612397565b85516119c99084612227565b6119d3919061223e565b90505f7f000000000000000000000000000000000000000000000000000000000000000073ffffffffffffffffffffffffffffffffffffffff1663efa7fa5d6040518163ffffffff1660e01b8152600401602060405180830381865afa158015611a3f573d5f803e3d5ffd5b505050506040513d601f19601f82011682018060405250810190611a639190611e54565b90505f7f000000000000000000000000000000000000000000000000000000000000000073ffffffffffffffffffffffffffffffffffffffff1663a42c69a96040518163ffffffff1660e01b8152600401602060405180830381865afa158015611acf573d5f803e3d5ffd5b505050506040513d601f19601f82011682018060405250810190611af39190611e54565b611afd8387612227565b611b07919061223e565b9050805f03611b3c57507fffffffffffffffffffffffffffffffffffffffffffffffffffffffffffffffff9695505050505050565b80611b48846064612227565b611b52919061223e565b979650505050505050565b6040517f70a082310000000000000000000000000000000000000000000000000000000081523060048201525f907f000000000000000000000000000000000000000000000000000000000000000073ffffffffffffffffffffffffffffffffffffffff16906370a0823190602401602060405180830381865afa158015611be7573d5f803e3d5ffd5b505050506040513d601f19601f82011682018060405250810190611c0b9190611e54565b905090565b611c1a8133611dcf565b50565b5f8281526020818152604080832073ffffffffffffffffffffffffffffffffffffffff8516845290915281205460ff16611d0f575f8381526020818152604080832073ffffffffffffffffffffffffffffffffffffffff86168452909152902080547fffffffffffffffffffffffffffffffffffffffffffffffffffffffffffffff00166001179055611cad3390565b73ffffffffffffffffffffffffffffffffffffffff168273ffffffffffffffffffffffffffffffffffffffff16847f2f8788117e7eff1d82e926ec794901d17c78024a50270940304540a733656f0d60405160405180910390a4506001610777565b505f610777565b5f8281526020818152604080832073ffffffffffffffffffffffffffffffffffffffff8516845290915281205460ff1615611d0f575f8381526020818152604080832073ffffffffffffffffffffffffffffffffffffffff8616808552925280832080547fffffffffffffffffffffffffffffffffffffffffffffffffffffffffffffff0016905551339286917ff6391f5c32d9c69d2a47ea670b442974b53935d1edc7fd64eb21e047a839171b9190a4506001610777565b5f8281526020818152604080832073ffffffffffffffffffffffffffffffffffffffff8516845290915290205460ff16610869576040517fe2517d3f00000000000000000000000000000000000000000000000000000000815273ffffffffffffffffffffffffffffffffffffffff8216600482015260248101839052604401610cb7565b5f60208284031215611e64575f80fd5b5051919050565b5f60208284031215611e7b575f80fd5b81357fffffffff0000000000000000000000000000000000000000000000000000000081168114611eaa575f80fd5b9392505050565b5f60208284031215611ec1575f80fd5b5035919050565b73ffffffffffffffffffffffffffffffffffffffff81168114611c1a575f80fd5b5f8060408385031215611efa575f80fd5b823591506020830135611f0c81611ec8565b809150509250929050565b5f805f60608486031215611f29575f80fd5b8335611f3481611ec8565b925060208401359150604084013567ffffffffffffffff811115611f56575f80fd5b840160a08187031215611f67575f80fd5b809150509250925092565b5f805f60608486031215611f84575f80fd5b83359250602084013591506040840135611f6781611ec8565b6040516060810167ffffffffffffffff81118282101715611fe5577f4e487b71000000000000000000000000000000000000000000000000000000005f52604160045260245ffd5b60405290565b60ff81168114611c1a575f80fd5b5f606082840312801561200a575f80fd5b50612013611f9d565b82358152602083013561202581611feb565b60208201526040928301359281019290925250919050565b7f4e487b71000000000000000000000000000000000000000000000000000000005f52601160045260245ffd5b808201808211156107775761077761203d565b5f7f800000000000000000000000000000000000000000000000000000000000000082036120ad576120ad61203d565b505f0390565b818103818111156107775761077761203d565b5f602082840312156120d6575f80fd5b81518015158114611eaa575f80fd5b81835281816020850137505f602082840101525f60207fffffffffffffffffffffffffffffffffffffffffffffffffffffffffffffffe0601f840116840101905092915050565b60208082528235828201525f9083013561214581611feb565b60ff16604083810191909152830135606080840191909152830135608080840191909152830135368490037fffffffffffffffffffffffffffffffffffffffffffffffffffffffffffffffe101811261219c575f80fd5b830160208101903567ffffffffffffffff8111156121b8575f80fd5b8036038213156121c6575f80fd5b60a0808501526121da60c0850182846120e5565b95945050505050565b5f60608284031280156121f4575f80fd5b506121fd611f9d565b82518152602083015161220f81611feb565b60208201526040928301519281019290925250919050565b80820281158282048414176107775761077761203d565b5f82612271577f4e487b71000000000000000000000000000000000000000000000000000000005f52601260045260245ffd5b500490565b6001815b60018411156122b1578085048111156122955761229561203d565b60018416156122a357908102905b60019390931c92800261227a565b935093915050565b5f826122c757506001610777565b816122d357505f610777565b81600181146122e957600281146122f35761230f565b6001915050610777565b60ff8411156123045761230461203d565b50506001821b610777565b5060208310610133831016604e8410600b8410161715612332575081810a610777565b61235d7fffffffffffffffffffffffffffffffffffffffffffffffffffffffffffffffff8484612276565b807fffffffffffffffffffffffffffffffffffffffffffffffffffffffffffffffff0482111561238f5761238f61203d565b029392505050565b5f611eaa83836122b956fea2646970667358221220e28630c0db7fc368cff871e220cab878fdb779c361a51c52ca9d3208ea89cdaa64736f6c634300081a00334142434445464748494a4b4c4d4e4f505152535455565758595a6162636465666768696a6b6c6d6e6f707172737475767778797a303132333435363738392b2fa26469706673582212209d9927eb84bb266a50ed434228a4116af1a72f19aa5cedca7f91f00006c4da2f64736f6c634300081a0033","linkReferences":{}},"methodIdentifiers":{"DEFAULT_ADMIN_ROLE()":"a217fddf","MINTER_ROLE()":"d5391393","MIN_GAS()":"20d2c951","addUnallocatedFundsEth(uint256)":"f399beb7","addUnallocatedFundsStETH(uint256,uint256)":"bb566297","allocateStabilizerFunds(uint256,uint256,uint256)":"080a8961","approve(address,uint256)":"095ea7b3","balanceOf(address)":"70a08231","getApproved(uint256)":"081812fc","getMinCollateralRatio(uint256)":"bb310a80","getRoleAdmin(bytes32)":"248a9ca3","grantRole(bytes32,address)":"2f2ff15d","hasRole(bytes32,address)":"91d14854","highestAllocatedId()":"d743fd1e","highestUnallocatedId()":"92133362","initialize(address,address,address,address,address)":"1459457a","isApprovedForAll(address,address)":"e985e9c5","lido()":"23509a2d","lowestAllocatedId()":"2995bc50","lowestUnallocatedId()":"853cad06","mint(address,uint256)":"40c10f19","name()":"06fdde03","ownerOf(uint256)":"6352211e","positionEscrows(uint256)":"a04ad512","positions(uint256)":"99fbab88","rateContract()":"eee24219","renounceRole(bytes32,address)":"36568abe","revokeRole(bytes32,address)":"d547741f","safeTransferFrom(address,address,uint256)":"42842e0e","safeTransferFrom(address,address,uint256,bytes)":"b88d4fde","setApprovalForAll(address,bool)":"a22cb465","setMinCollateralizationRatio(uint256,uint256)":"01aa0b1a","stETH()":"c1fe3e48","stabilizerEscrows(uint256)":"bba6fd6f","supportsInterface(bytes4)":"01ffc9a7","symbol()":"95d89b41","tokenByIndex(uint256)":"4f6ccce7","tokenOfOwnerByIndex(address,uint256)":"2f745c59","tokenURI(uint256)":"c87b56dd","totalSupply()":"18160ddd","transferFrom(address,address,uint256)":"23b872dd","unallocateStabilizerFunds(uint256,(uint256,uint8,uint256))":"ff70fa64","uspdToken()":"4d0c810b"},"storageLayout":{"storage":[{"astId":52472,"contract":"src/StabilizerNFT.sol:StabilizerNFT","label":"positions","offset":0,"slot":"0","type":"t_mapping(t_uint256,t_struct(StabilizerPosition)52467_storage)"},{"astId":52474,"contract":"src/StabilizerNFT.sol:StabilizerNFT","label":"lowestUnallocatedId","offset":0,"slot":"1","type":"t_uint256"},{"astId":52476,"contract":"src/StabilizerNFT.sol:StabilizerNFT","label":"highestUnallocatedId","offset":0,"slot":"2","type":"t_uint256"},{"astId":52478,"contract":"src/StabilizerNFT.sol:StabilizerNFT","label":"lowestAllocatedId","offset":0,"slot":"3","type":"t_uint256"},{"astId":52480,"contract":"src/StabilizerNFT.sol:StabilizerNFT","label":"highestAllocatedId","offset":0,"slot":"4","type":"t_uint256"},{"astId":52483,"contract":"src/StabilizerNFT.sol:StabilizerNFT","label":"uspdToken","offset":0,"slot":"5","type":"t_contract(USPDToken)55249"},{"astId":52485,"contract":"src/StabilizerNFT.sol:StabilizerNFT","label":"stETH","offset":0,"slot":"6","type":"t_address"},{"astId":52487,"contract":"src/StabilizerNFT.sol:StabilizerNFT","label":"lido","offset":0,"slot":"7","type":"t_address"},{"astId":52490,"contract":"src/StabilizerNFT.sol:StabilizerNFT","label":"rateContract","offset":0,"slot":"8","type":"t_contract(IPoolSharesConversionRate)55290"},{"astId":52494,"contract":"src/StabilizerNFT.sol:StabilizerNFT","label":"stabilizerEscrows","offset":0,"slot":"9","type":"t_mapping(t_uint256,t_address)"},{"astId":52498,"contract":"src/StabilizerNFT.sol:StabilizerNFT","label":"positionEscrows","offset":0,"slot":"10","type":"t_mapping(t_uint256,t_address)"}],"types":{"t_address":{"encoding":"inplace","label":"address","numberOfBytes":"20"},"t_contract(IPoolSharesConversionRate)55290":{"encoding":"inplace","label":"contract IPoolSharesConversionRate","numberOfBytes":"20"},"t_contract(USPDToken)55249":{"encoding":"inplace","label":"contract USPDToken","numberOfBytes":"20"},"t_mapping(t_uint256,t_address)":{"encoding":"mapping","key":"t_uint256","label":"mapping(uint256 => address)","numberOfBytes":"32","value":"t_address"},"t_mapping(t_uint256,t_struct(StabilizerPosition)52467_storage)":{"encoding":"mapping","key":"t_uint256","label":"mapping(uint256 => struct StabilizerNFT.StabilizerPosition)","numberOfBytes":"32","value":"t_struct(StabilizerPosition)52467_storage"},"t_struct(StabilizerPosition)52467_storage":{"encoding":"inplace","label":"struct StabilizerNFT.StabilizerPosition","numberOfBytes":"160","members":[{"astId":52458,"contract":"src/StabilizerNFT.sol:StabilizerNFT","label":"minCollateralRatio","offset":0,"slot":"0","type":"t_uint256"},{"astId":52460,"contract":"src/StabilizerNFT.sol:StabilizerNFT","label":"prevUnallocated","offset":0,"slot":"1","type":"t_uint256"},{"astId":52462,"contract":"src/StabilizerNFT.sol:StabilizerNFT","label":"nextUnallocated","offset":0,"slot":"2","type":"t_uint256"},{"astId":52464,"contract":"src/StabilizerNFT.sol:StabilizerNFT","label":"prevAllocated","offset":0,"slot":"3","type":"t_uint256"},{"astId":52466,"contract":"src/StabilizerNFT.sol:StabilizerNFT","label":"nextAllocated","offset":0,"slot":"4","type":"t_uint256"}]},"t_uint256":{"encoding":"inplace","label":"uint256","numberOfBytes":"32"}}},"id":71}