{"abi":[{"type":"constructor","inputs":[],"stateMutability":"nonpayable"},{"type":"receive","stateMutability":"payable"},{"type":"function","name":"DEFAULT_ADMIN_ROLE","inputs":[],"outputs":[{"name":"","type":"bytes32","internalType":"bytes32"}],"stateMutability":"view"},{"type":"function","name":"EXCESSCOLLATERALMANAGER_ROLE","inputs":[],"outputs":[{"name":"","type":"bytes32","internalType":"bytes32"}],"stateMutability":"view"},{"type":"function","name":"MINIMUM_COLLATERAL_RATIO","inputs":[],"outputs":[{"name":"","type":"uint256","internalType":"uint256"}],"stateMutability":"view"},{"type":"function","name":"STABILIZER_ROLE","inputs":[],"outputs":[{"name":"","type":"bytes32","internalType":"bytes32"}],"stateMutability":"view"},{"type":"function","name":"addCollateralEth","inputs":[],"outputs":[],"stateMutability":"payable"},{"type":"function","name":"addCollateralFromStabilizer","inputs":[{"name":"stabilizerStEthAmount","type":"uint256","internalType":"uint256"}],"outputs":[],"stateMutability":"payable"},{"type":"function","name":"addCollateralStETH","inputs":[{"name":"stETHAmount","type":"uint256","internalType":"uint256"}],"outputs":[],"stateMutability":"nonpayable"},{"type":"function","name":"backedPoolShares","inputs":[],"outputs":[{"name":"","type":"uint256","internalType":"uint256"}],"stateMutability":"view"},{"type":"function","name":"getCollateralizationRatio","inputs":[{"name":"priceResponse","type":"tuple","internalType":"struct IPriceOracle.PriceResponse","components":[{"name":"price","type":"uint256","internalType":"uint256"},{"name":"decimals","type":"uint8","internalType":"uint8"},{"name":"timestamp","type":"uint256","internalType":"uint256"}]}],"outputs":[{"name":"ratio","type":"uint256","internalType":"uint256"}],"stateMutability":"view"},{"type":"function","name":"getCurrentStEthBalance","inputs":[],"outputs":[{"name":"balance","type":"uint256","internalType":"uint256"}],"stateMutability":"view"},{"type":"function","name":"getRoleAdmin","inputs":[{"name":"role","type":"bytes32","internalType":"bytes32"}],"outputs":[{"name":"","type":"bytes32","internalType":"bytes32"}],"stateMutability":"view"},{"type":"function","name":"grantRole","inputs":[{"name":"role","type":"bytes32","internalType":"bytes32"},{"name":"account","type":"address","internalType":"address"}],"outputs":[],"stateMutability":"nonpayable"},{"type":"function","name":"hasRole","inputs":[{"name":"role","type":"bytes32","internalType":"bytes32"},{"name":"account","type":"address","internalType":"address"}],"outputs":[{"name":"","type":"bool","internalType":"bool"}],"stateMutability":"view"},{"type":"function","name":"initialize","inputs":[{"name":"_stabilizerNFT","type":"address","internalType":"address"},{"name":"_stabilizerOwner","type":"address","internalType":"address"},{"name":"_stETHAddress","type":"address","internalType":"address"},{"name":"_lidoAddress","type":"address","internalType":"address"},{"name":"_rateContractAddress","type":"address","internalType":"address"},{"name":"_oracleAddress","type":"address","internalType":"address"}],"outputs":[],"stateMutability":"nonpayable"},{"type":"function","name":"lido","inputs":[],"outputs":[{"name":"","type":"address","internalType":"address"}],"stateMutability":"view"},{"type":"function","name":"modifyAllocation","inputs":[{"name":"sharesDelta","type":"int256","internalType":"int256"}],"outputs":[],"stateMutability":"nonpayable"},{"type":"function","name":"oracle","inputs":[],"outputs":[{"name":"","type":"address","internalType":"address"}],"stateMutability":"view"},{"type":"function","name":"rateContract","inputs":[],"outputs":[{"name":"","type":"address","internalType":"address"}],"stateMutability":"view"},{"type":"function","name":"removeCollateral","inputs":[{"name":"amountToRemove","type":"uint256","internalType":"uint256"},{"name":"recipient","type":"address","internalType":"address"}],"outputs":[],"stateMutability":"nonpayable"},{"type":"function","name":"removeExcessCollateral","inputs":[{"name":"recipient","type":"address","internalType":"address payable"},{"name":"amountToRemove","type":"uint256","internalType":"uint256"},{"name":"priceQuery","type":"tuple","internalType":"struct IPriceOracle.PriceAttestationQuery","components":[{"name":"price","type":"uint256","internalType":"uint256"},{"name":"decimals","type":"uint8","internalType":"uint8"},{"name":"dataTimestamp","type":"uint256","internalType":"uint256"},{"name":"assetPair","type":"bytes32","internalType":"bytes32"},{"name":"signature","type":"bytes","internalType":"bytes"}]}],"outputs":[],"stateMutability":"nonpayable"},{"type":"function","name":"renounceRole","inputs":[{"name":"role","type":"bytes32","internalType":"bytes32"},{"name":"callerConfirmation","type":"address","internalType":"address"}],"outputs":[],"stateMutability":"nonpayable"},{"type":"function","name":"revokeRole","inputs":[{"name":"role","type":"bytes32","internalType":"bytes32"},{"name":"account","type":"address","internalType":"address"}],"outputs":[],"stateMutability":"nonpayable"},{"type":"function","name":"stETH","inputs":[],"outputs":[{"name":"","type":"address","internalType":"address"}],"stateMutability":"view"},{"type":"function","name":"stabilizerNFTContract","inputs":[],"outputs":[{"name":"","type":"address","internalType":"address"}],"stateMutability":"view"},{"type":"function","name":"supportsInterface","inputs":[{"name":"interfaceId","type":"bytes4","internalType":"bytes4"}],"outputs":[{"name":"","type":"bool","internalType":"bool"}],"stateMutability":"view"},{"type":"event","name":"AllocationModified","inputs":[{"name":"sharesDelta","type":"int256","indexed":false,"internalType":"int256"},{"name":"newTotalShares","type":"uint256","indexed":false,"internalType":"uint256"}],"anonymous":false},{"type":"event","name":"CollateralAdded","inputs":[{"name":"totalStEthAmount","type":"uint256","indexed":false,"internalType":"uint256"}],"anonymous":false},{"type":"event","name":"CollateralRemoved","inputs":[{"name":"recipient","type":"address","indexed":true,"internalType":"address"},{"name":"amount","type":"uint256","indexed":false,"internalType":"uint256"}],"anonymous":false},{"type":"event","name":"ExcessCollateralRemoved","inputs":[{"name":"recipient","type":"address","indexed":true,"internalType":"address"},{"name":"amount","type":"uint256","indexed":false,"internalType":"uint256"}],"anonymous":false},{"type":"event","name":"Initialized","inputs":[{"name":"version","type":"uint64","indexed":false,"internalType":"uint64"}],"anonymous":false},{"type":"event","name":"RoleAdminChanged","inputs":[{"name":"role","type":"bytes32","indexed":true,"internalType":"bytes32"},{"name":"previousAdminRole","type":"bytes32","indexed":true,"internalType":"bytes32"},{"name":"newAdminRole","type":"bytes32","indexed":true,"internalType":"bytes32"}],"anonymous":false},{"type":"event","name":"RoleGranted","inputs":[{"name":"role","type":"bytes32","indexed":true,"internalType":"bytes32"},{"name":"account","type":"address","indexed":true,"internalType":"address"},{"name":"sender","type":"address","indexed":true,"internalType":"address"}],"anonymous":false},{"type":"event","name":"RoleRevoked","inputs":[{"name":"role","type":"bytes32","indexed":true,"internalType":"bytes32"},{"name":"account","type":"address","indexed":true,"internalType":"address"},{"name":"sender","type":"address","indexed":true,"internalType":"address"}],"anonymous":false},{"type":"error","name":"AccessControlBadConfirmation","inputs":[]},{"type":"error","name":"AccessControlUnauthorizedAccount","inputs":[{"name":"account","type":"address","internalType":"address"},{"name":"neededRole","type":"bytes32","internalType":"bytes32"}]},{"type":"error","name":"ArithmeticError","inputs":[]},{"type":"error","name":"BelowMinimumRatio","inputs":[]},{"type":"error","name":"ERC20InsufficientAllowance","inputs":[{"name":"spender","type":"address","internalType":"address"},{"name":"allowance","type":"uint256","internalType":"uint256"},{"name":"needed","type":"uint256","internalType":"uint256"}]},{"type":"error","name":"ERC20InsufficientBalance","inputs":[{"name":"sender","type":"address","internalType":"address"},{"name":"balance","type":"uint256","internalType":"uint256"},{"name":"needed","type":"uint256","internalType":"uint256"}]},{"type":"error","name":"ERC20InvalidApprover","inputs":[{"name":"approver","type":"address","internalType":"address"}]},{"type":"error","name":"ERC20InvalidReceiver","inputs":[{"name":"receiver","type":"address","internalType":"address"}]},{"type":"error","name":"ERC20InvalidSender","inputs":[{"name":"sender","type":"address","internalType":"address"}]},{"type":"error","name":"ERC20InvalidSpender","inputs":[{"name":"spender","type":"address","internalType":"address"}]},{"type":"error","name":"InvalidInitialization","inputs":[]},{"type":"error","name":"NotInitializing","inputs":[]},{"type":"error","name":"TransferFailed","inputs":[]},{"type":"error","name":"ZeroAddress","inputs":[]},{"type":"error","name":"ZeroAmount","inputs":[]}],"bytecode":{"object":"0x6080604052348015600e575f5ffd5b5060156019565b60c9565b7ff0c57e16840df040f15088dc2f81fe391c3923bec73e23a9662efc9c229c6a00805468010000000000000000900460ff161560685760405163f92ee8a960e01b815260040160405180910390fd5b80546001600160401b039081161460c65780546001600160401b0319166001600160401b0390811782556040519081527fc7f505b2f371ae2175ee4913f4499e1f2633a7b5936321eed1cdaeb6115181d29060200160405180910390a15b50565b611cbe806100d65f395ff3fe608060405260043610610164575f3560e01c806382882f8a116100cd578063cc2a9a5b11610087578063d547741f11610062578063d547741f1461052f578063dc607d6f1461054e578063ee5f44071461056d578063eee2421914610581575f5ffd5b8063cc2a9a5b146104dc578063d39aa95a146104fb578063d41ddc9614610510575f5ffd5b806382882f8a1461044557806391d148541461045a578063a217fddf14610479578063bec070d61461048c578063bf3fdde7146104aa578063c1fe3e48146104bd575f5ffd5b80634699643b1161011e5780634699643b1461038d578063571a1e28146103ad578063618f8027146103cc57806368b2f94a146103eb578063769ef03d1461041e5780637dc0d1d014610426575f5ffd5b806301ffc9a7146102985780630bfd07fc146102cc57806323509a2d146102eb578063248a9ca3146103225780632f2ff15d1461034f57806336568abe1461036e575f5ffd5b3661029457345f81900361017457005b60025460405163a1903eab60e01b81525f60048201819052916001600160a01b03169063a1903eab90849060240160206040518083038185885af1935050505080156101dd575060408051601f3d908101601f191682019092526101da9181019061178e565b60015b6101fa576040516312171d8360e31b815260040160405180910390fd5b809150815f0361021d576040516312171d8360e31b815260040160405180910390fd5b506040518181525f516020611c295f395f51905f529060200160405180910390a15f54604051630cf7fe9560e31b8152600481018390526001600160a01b03909116906367bff4a8906024015f604051808303815f87803b158015610280575f5ffd5b505af1158015610292573d5f5f3e3d5ffd5b005b5f5ffd5b3480156102a3575f5ffd5b506102b76102b23660046117a5565b6105a0565b60405190151581526020015b60405180910390f35b3480156102d7575f5ffd5b506102926102e63660046117d3565b6105d6565b3480156102f6575f5ffd5b5060025461030a906001600160a01b031681565b6040516001600160a01b0390911681526020016102c3565b34801561032d575f5ffd5b5061034161033c3660046117d3565b61069a565b6040519081526020016102c3565b34801561035a575f5ffd5b506102926103693660046117fe565b6106ba565b348015610379575f5ffd5b506102926103883660046117fe565b6106dc565b348015610398575f5ffd5b506103415f516020611c695f395f51905f5281565b3480156103b8575f5ffd5b506102926103c73660046117d3565b61070f565b3480156103d7575f5ffd5b506102926103e636600461182c565b610844565b3480156103f6575f5ffd5b506103417f7f61e2b6df76d800cd249804cfbce4bce022e89227550287211f04d6f3b464e781565b610292610cc6565b348015610431575f5ffd5b5060045461030a906001600160a01b031681565b348015610450575f5ffd5b50610341612af881565b348015610465575f5ffd5b506102b76104743660046117fe565b610de2565b348015610484575f5ffd5b506103415f81565b348015610497575f5ffd5b505f5461030a906001600160a01b031681565b6102926104b83660046117d3565b610e18565b3480156104c8575f5ffd5b5060015461030a906001600160a01b031681565b3480156104e7575f5ffd5b506102926104f6366004611887565b610f45565b348015610506575f5ffd5b5061034160055481565b34801561051b575f5ffd5b5061029261052a3660046117fe565b611164565b34801561053a575f5ffd5b506102926105493660046117fe565b61133d565b348015610559575f5ffd5b50610341610568366004611948565b611359565b348015610578575f5ffd5b5061034161154f565b34801561058c575f5ffd5b5060035461030a906001600160a01b031681565b5f6001600160e01b03198216637965db0b60e01b14806105d057506301ffc9a760e01b6001600160e01b03198316145b92915050565b5f516020611c695f395f51905f526105ed816115be565b6005545f83131561060a5761060283826119a0565b600555610657565b5f831215610652575f61061c846119b3565b90508181111561063f57604051630fc12e3560e11b815260040160405180910390fd5b61064981836119cd565b60055550610657565b505050565b6005546040805185815260208101929092527fabc1e0200cea3daa5c1d23d3df8212b5b114ee4bb8800bc01d8c2a7f93641d02910160405180910390a1505b5050565b5f9081525f516020611c495f395f51905f52602052604090206001015490565b6106c38261069a565b6106cc816115be565b6106d683836115cb565b50505050565b6001600160a01b03811633146107055760405163334bd91960e11b815260040160405180910390fd5b610652828261166c565b805f0361072f57604051631f2a200560e01b815260040160405180910390fd5b6001546040516323b872dd60e01b8152336004820152306024820152604481018390525f916001600160a01b0316906323b872dd906064016020604051808303815f875af1158015610783573d5f5f3e3d5ffd5b505050506040513d601f19601f820116820180604052508101906107a791906119e0565b9050806107c7576040516312171d8360e31b815260040160405180910390fd5b6040518281525f516020611c295f395f51905f529060200160405180910390a15f54604051630cf7fe9560e31b8152600481018490526001600160a01b03909116906367bff4a8906024015b5f604051808303815f87803b15801561082a575f5ffd5b505af115801561083c573d5f5f3e3d5ffd5b505050505050565b7f7f61e2b6df76d800cd249804cfbce4bce022e89227550287211f04d6f3b464e761086e816115be565b6001600160a01b0384166108955760405163d92e233d60e01b815260040160405180910390fd5b825f036108b557604051631f2a200560e01b815260040160405180910390fd5b600480546040516365ab8c7160e01b81525f926001600160a01b03909216916365ab8c71916108e691879101611a27565b6060604051808303815f875af1158015610902573d5f5f3e3d5ffd5b505050506040513d601f19601f820116820180604052508101906109269190611ac0565b6001546040516370a0823160e01b81523060048201529192505f916001600160a01b03909116906370a0823190602401602060405180830381865afa158015610971573d5f5f3e3d5ffd5b505050506040513d601f19601f82011682018060405250810190610995919061178e565b600554909150818611156109d15760405163391434e360e21b815230600482015260248101839052604481018790526064015b60405180910390fd5b5f6109dc87846119cd565b90508115610b8c576003546040805163efa7fa5d60e01b815290515f926001600160a01b03169163efa7fa5d9160048083019260209291908290030181865afa158015610a2b573d5f5f3e3d5ffd5b505050506040513d601f19601f82011682018060405250810190610a4f919061178e565b90505f60035f9054906101000a90046001600160a01b03166001600160a01b031663a42c69a96040518163ffffffff1660e01b8152600401602060405180830381865afa158015610aa2573d5f5f3e3d5ffd5b505050506040513d601f19601f82011682018060405250810190610ac6919061178e565b610ad08386611b04565b610ada9190611b1b565b9050805f03610afc57604051630fc12e3560e11b815260040160405180910390fd5b85515f03610b1d57604051631f2a200560e01b815260040160405180910390fd5b5f866020015160ff16600a610b329190611c1d565b8751610b3e9086611b04565b610b489190611b1b565b90505f82610b5883612710611b04565b610b629190611b1b565b9050612af8811015610b875760405163133804c360e01b815260040160405180910390fd5b505050505b60015460405163a9059cbb60e01b81526001600160a01b038a81166004830152602482018a90525f92169063a9059cbb906044016020604051808303815f875af1158015610bdc573d5f5f3e3d5ffd5b505050506040513d601f19601f82011682018060405250810190610c0091906119e0565b905080610c20576040516312171d8360e31b815260040160405180910390fd5b886001600160a01b03167f370ef93e54c934af17869115596b96ef88d1454cd91736e1d7ae0efdaa62686f89604051610c5b91815260200190565b60405180910390a25f54604051630722240b60e31b8152600481018a90526001600160a01b03909116906339112058906024015f604051808303815f87803b158015610ca5575f5ffd5b505af1158015610cb7573d5f5f3e3d5ffd5b50505050505050505050505050565b345f819003610ce857604051631f2a200560e01b815260040160405180910390fd5b60025460405163a1903eab60e01b81525f60048201819052916001600160a01b03169063a1903eab90849060240160206040518083038185885af193505050508015610d51575060408051601f3d908101601f19168201909252610d4e9181019061178e565b60015b610d6e576040516312171d8360e31b815260040160405180910390fd5b809150815f03610d91576040516312171d8360e31b815260040160405180910390fd5b506040518181525f516020611c295f395f51905f529060200160405180910390a15f54604051630cf7fe9560e31b8152600481018390526001600160a01b03909116906367bff4a890602401610813565b5f9182525f516020611c495f395f51905f52602090815260408084206001600160a01b0393909316845291905290205460ff1690565b5f516020611c695f395f51905f52610e2f816115be565b3480158015610e3c575082155b15610e5a57604051631f2a200560e01b815260040160405180910390fd5b5f8115610f0b5760025460405163a1903eab60e01b81525f60048201526001600160a01b039091169063a1903eab90849060240160206040518083038185885af193505050508015610ec9575060408051601f3d908101601f19168201909252610ec69181019061178e565b60015b610ee6576040516312171d8360e31b815260040160405180910390fd5b809150815f03610f09576040516312171d8360e31b815260040160405180910390fd5b505b5f610f1685836119a0565b90505f516020611c295f395f51905f5281604051610f3691815260200190565b60405180910390a15050505050565b5f610f4e6116e5565b805490915060ff600160401b820416159067ffffffffffffffff165f81158015610f755750825b90505f8267ffffffffffffffff166001148015610f915750303b155b905081158015610f9f575080155b15610fbd5760405163f92ee8a960e01b815260040160405180910390fd5b845467ffffffffffffffff191660011785558315610fe757845460ff60401b1916600160401b1785555b610fef61170d565b6001600160a01b038b16158061100c57506001600160a01b038a16155b8061101e57506001600160a01b038916155b8061103057506001600160a01b038816155b8061104257506001600160a01b038716155b8061105457506001600160a01b038616155b156110725760405163d92e233d60e01b815260040160405180910390fd5b5f80546001600160a01b03199081166001600160a01b038e81169190911783556001805483168d83161790556002805483168c83161790556003805483168b8316179055600480549092169089161790556110cd908c6115cb565b506110e55f516020611c695f395f51905f528c6115cb565b506111107f7f61e2b6df76d800cd249804cfbce4bce022e89227550287211f04d6f3b464e78b6115cb565b50831561115757845460ff60401b19168555604051600181527fc7f505b2f371ae2175ee4913f4499e1f2633a7b5936321eed1cdaeb6115181d29060200160405180910390a15b5050505050505050505050565b5f516020611c695f395f51905f5261117b816115be565b825f0361119b57604051631f2a200560e01b815260040160405180910390fd5b6001600160a01b0382166111c25760405163d92e233d60e01b815260040160405180910390fd5b6001546040516370a0823160e01b81523060048201525f916001600160a01b0316906370a0823190602401602060405180830381865afa158015611208573d5f5f3e3d5ffd5b505050506040513d601f19601f8201168201806040525081019061122c919061178e565b90508084111561125f5760405163391434e360e21b815230600482015260248101829052604481018590526064016109c8565b60015460405163a9059cbb60e01b81526001600160a01b038581166004830152602482018790525f92169063a9059cbb906044016020604051808303815f875af11580156112af573d5f5f3e3d5ffd5b505050506040513d601f19601f820116820180604052508101906112d391906119e0565b9050806112f3576040516312171d8360e31b815260040160405180910390fd5b836001600160a01b03167f12c7466676da8453fdc8fb091f1a24d31919043a79a50ebe022867a5f5c1ed348660405161132e91815260200190565b60405180910390a25050505050565b6113468261069a565b61134f816115be565b6106d6838361166c565b6005545f9080820361136e57505f1992915050565b6001546040516370a0823160e01b81523060048201525f916001600160a01b0316906370a0823190602401602060405180830381865afa1580156113b4573d5f5f3e3d5ffd5b505050506040513d601f19601f820116820180604052508101906113d8919061178e565b9050805f036113ea57505f9392505050565b5f846020015160ff16600a6113ff9190611c1d565b855161140b9084611b04565b6114159190611b1b565b90505f60035f9054906101000a90046001600160a01b03166001600160a01b031663efa7fa5d6040518163ffffffff1660e01b8152600401602060405180830381865afa158015611468573d5f5f3e3d5ffd5b505050506040513d601f19601f8201168201806040525081019061148c919061178e565b90505f60035f9054906101000a90046001600160a01b03166001600160a01b031663a42c69a96040518163ffffffff1660e01b8152600401602060405180830381865afa1580156114df573d5f5f3e3d5ffd5b505050506040513d601f19601f82011682018060405250810190611503919061178e565b61150d8387611b04565b6115179190611b1b565b9050805f0361152d57505f199695505050505050565b8061153a84612710611b04565b6115449190611b1b565b979650505050505050565b6001546040516370a0823160e01b81523060048201525f916001600160a01b0316906370a0823190602401602060405180830381865afa158015611595573d5f5f3e3d5ffd5b505050506040513d601f19601f820116820180604052508101906115b9919061178e565b905090565b6115c88133611717565b50565b5f5f516020611c495f395f51905f526115e48484610de2565b611663575f848152602082815260408083206001600160a01b03871684529091529020805460ff191660011790556116193390565b6001600160a01b0316836001600160a01b0316857f2f8788117e7eff1d82e926ec794901d17c78024a50270940304540a733656f0d60405160405180910390a460019150506105d0565b5f9150506105d0565b5f5f516020611c495f395f51905f526116858484610de2565b15611663575f848152602082815260408083206001600160a01b0387168085529252808320805460ff1916905551339287917ff6391f5c32d9c69d2a47ea670b442974b53935d1edc7fd64eb21e047a839171b9190a460019150506105d0565b5f807ff0c57e16840df040f15088dc2f81fe391c3923bec73e23a9662efc9c229c6a006105d0565b611715611750565b565b6117218282610de2565b6106965760405163e2517d3f60e01b81526001600160a01b0382166004820152602481018390526044016109c8565b611758611775565b61171557604051631afcd79f60e31b815260040160405180910390fd5b5f61177e6116e5565b54600160401b900460ff16919050565b5f6020828403121561179e575f5ffd5b5051919050565b5f602082840312156117b5575f5ffd5b81356001600160e01b0319811681146117cc575f5ffd5b9392505050565b5f602082840312156117e3575f5ffd5b5035919050565b6001600160a01b03811681146115c8575f5ffd5b5f5f6040838503121561180f575f5ffd5b823591506020830135611821816117ea565b809150509250929050565b5f5f5f6060848603121561183e575f5ffd5b8335611849816117ea565b925060208401359150604084013567ffffffffffffffff81111561186b575f5ffd5b840160a0818703121561187c575f5ffd5b809150509250925092565b5f5f5f5f5f5f60c0878903121561189c575f5ffd5b86356118a7816117ea565b955060208701356118b7816117ea565b945060408701356118c7816117ea565b935060608701356118d7816117ea565b925060808701356118e7816117ea565b915060a08701356118f7816117ea565b809150509295509295509295565b6040516060810167ffffffffffffffff8111828210171561193457634e487b7160e01b5f52604160045260245ffd5b60405290565b60ff811681146115c8575f5ffd5b5f6060828403128015611959575f5ffd5b50611962611905565b8235815260208301356119748161193a565b60208201526040928301359281019290925250919050565b634e487b7160e01b5f52601160045260245ffd5b808201808211156105d0576105d061198c565b5f600160ff1b82016119c7576119c761198c565b505f0390565b818103818111156105d0576105d061198c565b5f602082840312156119f0575f5ffd5b815180151581146117cc575f5ffd5b81835281816020850137505f828201602090810191909152601f909101601f19169091010190565b60208082528235828201525f90830135611a408161193a565b60ff1660408381019190915283013560608084019190915283013560808084019190915283013536849003601e19018112611a79575f5ffd5b830160208101903567ffffffffffffffff811115611a95575f5ffd5b803603821315611aa3575f5ffd5b60a080850152611ab760c0850182846119ff565b95945050505050565b5f6060828403128015611ad1575f5ffd5b50611ada611905565b825181526020830151611aec8161193a565b60208201526040928301519281019290925250919050565b80820281158282048414176105d0576105d061198c565b5f82611b3557634e487b7160e01b5f52601260045260245ffd5b500490565b6001815b6001841115611b7557808504811115611b5957611b5961198c565b6001841615611b6757908102905b60019390931c928002611b3e565b935093915050565b5f82611b8b575060016105d0565b81611b9757505f6105d0565b8160018114611bad5760028114611bb757611bd3565b60019150506105d0565b60ff841115611bc857611bc861198c565b50506001821b6105d0565b5060208310610133831016604e8410600b8410161715611bf6575081810a6105d0565b611c025f198484611b3a565b805f1904821115611c1557611c1561198c565b029392505050565b5f6117cc8383611b7d56fe206d5f22994381488f76c20f193ebf898daf960461a61d40e68e1641f62d8c5d02dd7bc7dec4dceedda775e58dd541e08a116c6c53815c0bd028192f7b626800079847024f21c1f5f8d88daf6764f03ddd70ce4acc6aa7104a85233fe5a76995a2646970667358221220624036492e68b92e8f59fae6b0c0e1ac2de7c990457b9523d1bc8ac84c8ed5cb64736f6c634300081d0033","linkReferences":{}},"methodIdentifiers":{"DEFAULT_ADMIN_ROLE()":"a217fddf","EXCESSCOLLATERALMANAGER_ROLE()":"68b2f94a","MINIMUM_COLLATERAL_RATIO()":"82882f8a","STABILIZER_ROLE()":"4699643b","addCollateralEth()":"769ef03d","addCollateralFromStabilizer(uint256)":"bf3fdde7","addCollateralStETH(uint256)":"571a1e28","backedPoolShares()":"d39aa95a","getCollateralizationRatio((uint256,uint8,uint256))":"dc607d6f","getCurrentStEthBalance()":"ee5f4407","getRoleAdmin(bytes32)":"248a9ca3","grantRole(bytes32,address)":"2f2ff15d","hasRole(bytes32,address)":"91d14854","initialize(address,address,address,address,address,address)":"cc2a9a5b","lido()":"23509a2d","modifyAllocation(int256)":"0bfd07fc","oracle()":"7dc0d1d0","rateContract()":"eee24219","removeCollateral(uint256,address)":"d41ddc96","removeExcessCollateral(address,uint256,(uint256,uint8,uint256,bytes32,bytes))":"618f8027","renounceRole(bytes32,address)":"36568abe","revokeRole(bytes32,address)":"d547741f","stETH()":"c1fe3e48","stabilizerNFTContract()":"bec070d6","supportsInterface(bytes4)":"01ffc9a7"},"storageLayout":{"storage":[{"astId":52574,"contract":"src/PositionEscrow.sol:PositionEscrow","label":"stabilizerNFTContract","offset":0,"slot":"0","type":"t_address"},{"astId":52577,"contract":"src/PositionEscrow.sol:PositionEscrow","label":"stETH","offset":0,"slot":"1","type":"t_address"},{"astId":52580,"contract":"src/PositionEscrow.sol:PositionEscrow","label":"lido","offset":0,"slot":"2","type":"t_address"},{"astId":52583,"contract":"src/PositionEscrow.sol:PositionEscrow","label":"rateContract","offset":0,"slot":"3","type":"t_address"},{"astId":52586,"contract":"src/PositionEscrow.sol:PositionEscrow","label":"oracle","offset":0,"slot":"4","type":"t_address"},{"astId":52589,"contract":"src/PositionEscrow.sol:PositionEscrow","label":"backedPoolShares","offset":0,"slot":"5","type":"t_uint256"}],"types":{"t_address":{"encoding":"inplace","label":"address","numberOfBytes":"20"},"t_uint256":{"encoding":"inplace","label":"uint256","numberOfBytes":"32"}}},"id":75}