{"abi":[{"type":"constructor","inputs":[],"stateMutability":"nonpayable"},{"type":"receive","stateMutability":"payable"},{"type":"function","name":"DEFAULT_ADMIN_ROLE","inputs":[],"outputs":[{"name":"","type":"bytes32","internalType":"bytes32"}],"stateMutability":"view"},{"type":"function","name":"MINIMUM_COLLATERAL_RATIO","inputs":[],"outputs":[{"name":"","type":"uint256","internalType":"uint256"}],"stateMutability":"view"},{"type":"function","name":"STABILIZER_ROLE","inputs":[],"outputs":[{"name":"","type":"bytes32","internalType":"bytes32"}],"stateMutability":"view"},{"type":"function","name":"addCollateralEth","inputs":[],"outputs":[],"stateMutability":"payable"},{"type":"function","name":"addCollateralFromStabilizer","inputs":[{"name":"stabilizerStEthAmount","type":"uint256","internalType":"uint256"}],"outputs":[],"stateMutability":"payable"},{"type":"function","name":"addCollateralStETH","inputs":[{"name":"stETHAmount","type":"uint256","internalType":"uint256"}],"outputs":[],"stateMutability":"nonpayable"},{"type":"function","name":"backedPoolShares","inputs":[],"outputs":[{"name":"","type":"uint256","internalType":"uint256"}],"stateMutability":"view"},{"type":"function","name":"getCollateralizationRatio","inputs":[{"name":"priceResponse","type":"tuple","internalType":"struct IPriceOracle.PriceResponse","components":[{"name":"price","type":"uint256","internalType":"uint256"},{"name":"decimals","type":"uint8","internalType":"uint8"},{"name":"timestamp","type":"uint256","internalType":"uint256"}]}],"outputs":[{"name":"ratio","type":"uint256","internalType":"uint256"}],"stateMutability":"view"},{"type":"function","name":"getCurrentStEthBalance","inputs":[],"outputs":[{"name":"balance","type":"uint256","internalType":"uint256"}],"stateMutability":"view"},{"type":"function","name":"getRoleAdmin","inputs":[{"name":"role","type":"bytes32","internalType":"bytes32"}],"outputs":[{"name":"","type":"bytes32","internalType":"bytes32"}],"stateMutability":"view"},{"type":"function","name":"grantRole","inputs":[{"name":"role","type":"bytes32","internalType":"bytes32"},{"name":"account","type":"address","internalType":"address"}],"outputs":[],"stateMutability":"nonpayable"},{"type":"function","name":"hasRole","inputs":[{"name":"role","type":"bytes32","internalType":"bytes32"},{"name":"account","type":"address","internalType":"address"}],"outputs":[{"name":"","type":"bool","internalType":"bool"}],"stateMutability":"view"},{"type":"function","name":"initialize","inputs":[{"name":"_stabilizerNFT","type":"address","internalType":"address"},{"name":"_tokenId","type":"uint256","internalType":"uint256"},{"name":"_stETHAddress","type":"address","internalType":"address"},{"name":"_lidoAddress","type":"address","internalType":"address"},{"name":"_rateContractAddress","type":"address","internalType":"address"},{"name":"_oracleAddress","type":"address","internalType":"address"}],"outputs":[],"stateMutability":"nonpayable"},{"type":"function","name":"lido","inputs":[],"outputs":[{"name":"","type":"address","internalType":"address"}],"stateMutability":"view"},{"type":"function","name":"modifyAllocation","inputs":[{"name":"sharesDelta","type":"int256","internalType":"int256"}],"outputs":[],"stateMutability":"nonpayable"},{"type":"function","name":"oracle","inputs":[],"outputs":[{"name":"","type":"address","internalType":"address"}],"stateMutability":"view"},{"type":"function","name":"rateContract","inputs":[],"outputs":[{"name":"","type":"address","internalType":"address"}],"stateMutability":"view"},{"type":"function","name":"removeCollateral","inputs":[{"name":"amountToRemove","type":"uint256","internalType":"uint256"},{"name":"recipient","type":"address","internalType":"address"}],"outputs":[],"stateMutability":"nonpayable"},{"type":"function","name":"removeExcessCollateral","inputs":[{"name":"recipient","type":"address","internalType":"address payable"},{"name":"amountToRemove","type":"uint256","internalType":"uint256"},{"name":"priceQuery","type":"tuple","internalType":"struct IPriceOracle.PriceAttestationQuery","components":[{"name":"price","type":"uint256","internalType":"uint256"},{"name":"decimals","type":"uint8","internalType":"uint8"},{"name":"dataTimestamp","type":"uint256","internalType":"uint256"},{"name":"assetPair","type":"bytes32","internalType":"bytes32"},{"name":"signature","type":"bytes","internalType":"bytes"}]}],"outputs":[],"stateMutability":"nonpayable"},{"type":"function","name":"renounceRole","inputs":[{"name":"role","type":"bytes32","internalType":"bytes32"},{"name":"callerConfirmation","type":"address","internalType":"address"}],"outputs":[],"stateMutability":"nonpayable"},{"type":"function","name":"revokeRole","inputs":[{"name":"role","type":"bytes32","internalType":"bytes32"},{"name":"account","type":"address","internalType":"address"}],"outputs":[],"stateMutability":"nonpayable"},{"type":"function","name":"stETH","inputs":[],"outputs":[{"name":"","type":"address","internalType":"address"}],"stateMutability":"view"},{"type":"function","name":"stabilizerNFTContract","inputs":[],"outputs":[{"name":"","type":"address","internalType":"address"}],"stateMutability":"view"},{"type":"function","name":"supportsInterface","inputs":[{"name":"interfaceId","type":"bytes4","internalType":"bytes4"}],"outputs":[{"name":"","type":"bool","internalType":"bool"}],"stateMutability":"view"},{"type":"function","name":"tokenId","inputs":[],"outputs":[{"name":"","type":"uint256","internalType":"uint256"}],"stateMutability":"view"},{"type":"event","name":"AllocationModified","inputs":[{"name":"sharesDelta","type":"int256","indexed":false,"internalType":"int256"},{"name":"newTotalShares","type":"uint256","indexed":false,"internalType":"uint256"}],"anonymous":false},{"type":"event","name":"CollateralAdded","inputs":[{"name":"totalStEthAmount","type":"uint256","indexed":false,"internalType":"uint256"}],"anonymous":false},{"type":"event","name":"CollateralRemoved","inputs":[{"name":"recipient","type":"address","indexed":true,"internalType":"address"},{"name":"amount","type":"uint256","indexed":false,"internalType":"uint256"}],"anonymous":false},{"type":"event","name":"ExcessCollateralRemoved","inputs":[{"name":"recipient","type":"address","indexed":true,"internalType":"address"},{"name":"amount","type":"uint256","indexed":false,"internalType":"uint256"}],"anonymous":false},{"type":"event","name":"Initialized","inputs":[{"name":"version","type":"uint64","indexed":false,"internalType":"uint64"}],"anonymous":false},{"type":"event","name":"RoleAdminChanged","inputs":[{"name":"role","type":"bytes32","indexed":true,"internalType":"bytes32"},{"name":"previousAdminRole","type":"bytes32","indexed":true,"internalType":"bytes32"},{"name":"newAdminRole","type":"bytes32","indexed":true,"internalType":"bytes32"}],"anonymous":false},{"type":"event","name":"RoleGranted","inputs":[{"name":"role","type":"bytes32","indexed":true,"internalType":"bytes32"},{"name":"account","type":"address","indexed":true,"internalType":"address"},{"name":"sender","type":"address","indexed":true,"internalType":"address"}],"anonymous":false},{"type":"event","name":"RoleRevoked","inputs":[{"name":"role","type":"bytes32","indexed":true,"internalType":"bytes32"},{"name":"account","type":"address","indexed":true,"internalType":"address"},{"name":"sender","type":"address","indexed":true,"internalType":"address"}],"anonymous":false},{"type":"error","name":"AccessControlBadConfirmation","inputs":[]},{"type":"error","name":"AccessControlUnauthorizedAccount","inputs":[{"name":"account","type":"address","internalType":"address"},{"name":"neededRole","type":"bytes32","internalType":"bytes32"}]},{"type":"error","name":"ArithmeticError","inputs":[]},{"type":"error","name":"BelowMinimumRatio","inputs":[]},{"type":"error","name":"ERC20InsufficientAllowance","inputs":[{"name":"spender","type":"address","internalType":"address"},{"name":"allowance","type":"uint256","internalType":"uint256"},{"name":"needed","type":"uint256","internalType":"uint256"}]},{"type":"error","name":"ERC20InsufficientBalance","inputs":[{"name":"sender","type":"address","internalType":"address"},{"name":"balance","type":"uint256","internalType":"uint256"},{"name":"needed","type":"uint256","internalType":"uint256"}]},{"type":"error","name":"ERC20InvalidApprover","inputs":[{"name":"approver","type":"address","internalType":"address"}]},{"type":"error","name":"ERC20InvalidReceiver","inputs":[{"name":"receiver","type":"address","internalType":"address"}]},{"type":"error","name":"ERC20InvalidSender","inputs":[{"name":"sender","type":"address","internalType":"address"}]},{"type":"error","name":"ERC20InvalidSpender","inputs":[{"name":"spender","type":"address","internalType":"address"}]},{"type":"error","name":"InvalidInitialization","inputs":[]},{"type":"error","name":"NotInitializing","inputs":[]},{"type":"error","name":"NotNFTOwner","inputs":[]},{"type":"error","name":"TransferFailed","inputs":[]},{"type":"error","name":"ZeroAddress","inputs":[]},{"type":"error","name":"ZeroAmount","inputs":[]}],"bytecode":{"object":"0x6080604052348015600e575f5ffd5b5060156019565b60c9565b7ff0c57e16840df040f15088dc2f81fe391c3923bec73e23a9662efc9c229c6a00805468010000000000000000900460ff161560685760405163f92ee8a960e01b815260040160405180910390fd5b80546001600160401b039081161460c65780546001600160401b0319166001600160401b0390811782556040519081527fc7f505b2f371ae2175ee4913f4499e1f2633a7b5936321eed1cdaeb6115181d29060200160405180910390a15b50565b611ced806100d65f395ff3fe608060405260043610610164575f3560e01c806382882f8a116100cd578063c1fe3e4811610087578063d547741f11610062578063d547741f14610511578063dc607d6f14610530578063ee5f44071461054f578063eee2421914610563575f5ffd5b8063c1fe3e48146104be578063d39aa95a146104dd578063d41ddc96146104f2575f5ffd5b806382882f8a1461042757806391d148541461043c578063a217fddf1461045b578063a2dc2ab71461046e578063bec070d61461048d578063bf3fdde7146104ab575f5ffd5b806336568abe1161011e57806336568abe146103835780634699643b146103a2578063571a1e28146103c2578063618f8027146103e1578063769ef03d146104005780637dc0d1d014610408575f5ffd5b806301ffc9a7146102985780630bfd07fc146102cc57806317d70f7c146102eb57806323509a2d1461030e578063248a9ca3146103455780632f2ff15d14610364575f5ffd5b3661029457345f81900361017457005b60025460405163a1903eab60e01b81525f60048201819052916001600160a01b03169063a1903eab90849060240160206040518083038185885af1935050505080156101dd575060408051601f3d908101601f191682019092526101da918101906117ab565b60015b6101fa576040516312171d8360e31b815260040160405180910390fd5b809150815f0361021d576040516312171d8360e31b815260040160405180910390fd5b506040518181525f516020611c585f395f51905f529060200160405180910390a15f54604051630cf7fe9560e31b8152600481018390526001600160a01b03909116906367bff4a8906024015f604051808303815f87803b158015610280575f5ffd5b505af1158015610292573d5f5f3e3d5ffd5b005b5f5ffd5b3480156102a3575f5ffd5b506102b76102b23660046117c2565b610582565b60405190151581526020015b60405180910390f35b3480156102d7575f5ffd5b506102926102e63660046117f0565b6105b8565b3480156102f6575f5ffd5b5061030060055481565b6040519081526020016102c3565b348015610319575f5ffd5b5060025461032d906001600160a01b031681565b6040516001600160a01b0390911681526020016102c3565b348015610350575f5ffd5b5061030061035f3660046117f0565b61067c565b34801561036f575f5ffd5b5061029261037e36600461181b565b61069c565b34801561038e575f5ffd5b5061029261039d36600461181b565b6106be565b3480156103ad575f5ffd5b506103005f516020611c985f395f51905f5281565b3480156103cd575f5ffd5b506102926103dc3660046117f0565b6106f1565b3480156103ec575f5ffd5b506102926103fb366004611849565b610826565b610292610d12565b348015610413575f5ffd5b5060045461032d906001600160a01b031681565b348015610432575f5ffd5b506103006130d481565b348015610447575f5ffd5b506102b761045636600461181b565b610e2e565b348015610466575f5ffd5b506103005f81565b348015610479575f5ffd5b506102926104883660046118a4565b610e64565b348015610498575f5ffd5b505f5461032d906001600160a01b031681565b6102926104b93660046117f0565b611054565b3480156104c9575f5ffd5b5060015461032d906001600160a01b031681565b3480156104e8575f5ffd5b5061030060065481565b3480156104fd575f5ffd5b5061029261050c36600461181b565b611181565b34801561051c575f5ffd5b5061029261052b36600461181b565b61135a565b34801561053b575f5ffd5b5061030061054a36600461195c565b611376565b34801561055a575f5ffd5b5061030061156c565b34801561056e575f5ffd5b5060035461032d906001600160a01b031681565b5f6001600160e01b03198216637965db0b60e01b14806105b257506301ffc9a760e01b6001600160e01b03198316145b92915050565b5f516020611c985f395f51905f526105cf816115db565b6006545f8313156105ec576105e483826119b4565b600655610639565b5f831215610634575f6105fe846119c7565b90508181111561062157604051630fc12e3560e11b815260040160405180910390fd5b61062b81836119e1565b60065550610639565b505050565b6006546040805185815260208101929092527fabc1e0200cea3daa5c1d23d3df8212b5b114ee4bb8800bc01d8c2a7f93641d02910160405180910390a1505b5050565b5f9081525f516020611c785f395f51905f52602052604090206001015490565b6106a58261067c565b6106ae816115db565b6106b883836115e8565b50505050565b6001600160a01b03811633146106e75760405163334bd91960e11b815260040160405180910390fd5b6106348282611689565b805f0361071157604051631f2a200560e01b815260040160405180910390fd5b6001546040516323b872dd60e01b8152336004820152306024820152604481018390525f916001600160a01b0316906323b872dd906064016020604051808303815f875af1158015610765573d5f5f3e3d5ffd5b505050506040513d601f19601f8201168201806040525081019061078991906119f4565b9050806107a9576040516312171d8360e31b815260040160405180910390fd5b6040518281525f516020611c585f395f51905f529060200160405180910390a15f54604051630cf7fe9560e31b8152600481018490526001600160a01b03909116906367bff4a8906024015b5f604051808303815f87803b15801561080c575f5ffd5b505af115801561081e573d5f5f3e3d5ffd5b505050505050565b5f546005546040516331a9108f60e11b8152600481019190915233916001600160a01b031690636352211e90602401602060405180830381865afa158015610870573d5f5f3e3d5ffd5b505050506040513d601f19601f820116820180604052508101906108949190611a13565b6001600160a01b0316146108bb57604051631022318760e21b815260040160405180910390fd5b6001600160a01b0383166108e25760405163d92e233d60e01b815260040160405180910390fd5b815f0361090257604051631f2a200560e01b815260040160405180910390fd5b600480546040516365ab8c7160e01b81525f926001600160a01b03909216916365ab8c719161093391869101611a56565b6060604051808303815f875af115801561094f573d5f5f3e3d5ffd5b505050506040513d601f19601f820116820180604052508101906109739190611aef565b6001546040516370a0823160e01b81523060048201529192505f916001600160a01b03909116906370a0823190602401602060405180830381865afa1580156109be573d5f5f3e3d5ffd5b505050506040513d601f19601f820116820180604052508101906109e291906117ab565b60065490915081851115610a1e5760405163391434e360e21b815230600482015260248101839052604481018690526064015b60405180910390fd5b5f610a2986846119e1565b90508115610bd9576003546040805163efa7fa5d60e01b815290515f926001600160a01b03169163efa7fa5d9160048083019260209291908290030181865afa158015610a78573d5f5f3e3d5ffd5b505050506040513d601f19601f82011682018060405250810190610a9c91906117ab565b90505f60035f9054906101000a90046001600160a01b03166001600160a01b031663a42c69a96040518163ffffffff1660e01b8152600401602060405180830381865afa158015610aef573d5f5f3e3d5ffd5b505050506040513d601f19601f82011682018060405250810190610b1391906117ab565b610b1d8386611b33565b610b279190611b4a565b9050805f03610b4957604051630fc12e3560e11b815260040160405180910390fd5b85515f03610b6a57604051631f2a200560e01b815260040160405180910390fd5b5f866020015160ff16600a610b7f9190611c4c565b8751610b8b9086611b33565b610b959190611b4a565b90505f82610ba583612710611b33565b610baf9190611b4a565b90506130d4811015610bd45760405163133804c360e01b815260040160405180910390fd5b505050505b60015460405163a9059cbb60e01b81526001600160a01b038981166004830152602482018990525f92169063a9059cbb906044016020604051808303815f875af1158015610c29573d5f5f3e3d5ffd5b505050506040513d601f19601f82011682018060405250810190610c4d91906119f4565b905080610c6d576040516312171d8360e31b815260040160405180910390fd5b876001600160a01b03167f370ef93e54c934af17869115596b96ef88d1454cd91736e1d7ae0efdaa62686f88604051610ca891815260200190565b60405180910390a25f54604051630722240b60e31b8152600481018990526001600160a01b03909116906339112058906024015f604051808303815f87803b158015610cf2575f5ffd5b505af1158015610d04573d5f5f3e3d5ffd5b505050505050505050505050565b345f819003610d3457604051631f2a200560e01b815260040160405180910390fd5b60025460405163a1903eab60e01b81525f60048201819052916001600160a01b03169063a1903eab90849060240160206040518083038185885af193505050508015610d9d575060408051601f3d908101601f19168201909252610d9a918101906117ab565b60015b610dba576040516312171d8360e31b815260040160405180910390fd5b809150815f03610ddd576040516312171d8360e31b815260040160405180910390fd5b506040518181525f516020611c585f395f51905f529060200160405180910390a15f54604051630cf7fe9560e31b8152600481018390526001600160a01b03909116906367bff4a8906024016107f5565b5f9182525f516020611c785f395f51905f52602090815260408084206001600160a01b0393909316845291905290205460ff1690565b5f610e6d611702565b805490915060ff600160401b820416159067ffffffffffffffff165f81158015610e945750825b90505f8267ffffffffffffffff166001148015610eb05750303b155b905081158015610ebe575080155b15610edc5760405163f92ee8a960e01b815260040160405180910390fd5b845467ffffffffffffffff191660011785558315610f0657845460ff60401b1916600160401b1785555b610f0e61172a565b6001600160a01b038b161580610f22575089155b80610f3457506001600160a01b038916155b80610f4657506001600160a01b038816155b80610f5857506001600160a01b038716155b80610f6a57506001600160a01b038616155b15610f885760405163d92e233d60e01b815260040160405180910390fd5b5f80546001600160a01b03199081166001600160a01b038e811691909117835560058d90556001805483168d83161790556002805483168c83161790556003805483168b831617905560048054909216908916179055610fe8908c6115e8565b506110005f516020611c985f395f51905f528c6115e8565b50831561104757845460ff60401b19168555604051600181527fc7f505b2f371ae2175ee4913f4499e1f2633a7b5936321eed1cdaeb6115181d29060200160405180910390a15b5050505050505050505050565b5f516020611c985f395f51905f5261106b816115db565b3480158015611078575082155b1561109657604051631f2a200560e01b815260040160405180910390fd5b5f81156111475760025460405163a1903eab60e01b81525f60048201526001600160a01b039091169063a1903eab90849060240160206040518083038185885af193505050508015611105575060408051601f3d908101601f19168201909252611102918101906117ab565b60015b611122576040516312171d8360e31b815260040160405180910390fd5b809150815f03611145576040516312171d8360e31b815260040160405180910390fd5b505b5f61115285836119b4565b90505f516020611c585f395f51905f528160405161117291815260200190565b60405180910390a15050505050565b5f516020611c985f395f51905f52611198816115db565b825f036111b857604051631f2a200560e01b815260040160405180910390fd5b6001600160a01b0382166111df5760405163d92e233d60e01b815260040160405180910390fd5b6001546040516370a0823160e01b81523060048201525f916001600160a01b0316906370a0823190602401602060405180830381865afa158015611225573d5f5f3e3d5ffd5b505050506040513d601f19601f8201168201806040525081019061124991906117ab565b90508084111561127c5760405163391434e360e21b81523060048201526024810182905260448101859052606401610a15565b60015460405163a9059cbb60e01b81526001600160a01b038581166004830152602482018790525f92169063a9059cbb906044016020604051808303815f875af11580156112cc573d5f5f3e3d5ffd5b505050506040513d601f19601f820116820180604052508101906112f091906119f4565b905080611310576040516312171d8360e31b815260040160405180910390fd5b836001600160a01b03167f12c7466676da8453fdc8fb091f1a24d31919043a79a50ebe022867a5f5c1ed348660405161134b91815260200190565b60405180910390a25050505050565b6113638261067c565b61136c816115db565b6106b88383611689565b6006545f9080820361138b57505f1992915050565b6001546040516370a0823160e01b81523060048201525f916001600160a01b0316906370a0823190602401602060405180830381865afa1580156113d1573d5f5f3e3d5ffd5b505050506040513d601f19601f820116820180604052508101906113f591906117ab565b9050805f0361140757505f9392505050565b5f846020015160ff16600a61141c9190611c4c565b85516114289084611b33565b6114329190611b4a565b90505f60035f9054906101000a90046001600160a01b03166001600160a01b031663efa7fa5d6040518163ffffffff1660e01b8152600401602060405180830381865afa158015611485573d5f5f3e3d5ffd5b505050506040513d601f19601f820116820180604052508101906114a991906117ab565b90505f60035f9054906101000a90046001600160a01b03166001600160a01b031663a42c69a96040518163ffffffff1660e01b8152600401602060405180830381865afa1580156114fc573d5f5f3e3d5ffd5b505050506040513d601f19601f8201168201806040525081019061152091906117ab565b61152a8387611b33565b6115349190611b4a565b9050805f0361154a57505f199695505050505050565b8061155784612710611b33565b6115619190611b4a565b979650505050505050565b6001546040516370a0823160e01b81523060048201525f916001600160a01b0316906370a0823190602401602060405180830381865afa1580156115b2573d5f5f3e3d5ffd5b505050506040513d601f19601f820116820180604052508101906115d691906117ab565b905090565b6115e58133611734565b50565b5f5f516020611c785f395f51905f526116018484610e2e565b611680575f848152602082815260408083206001600160a01b03871684529091529020805460ff191660011790556116363390565b6001600160a01b0316836001600160a01b0316857f2f8788117e7eff1d82e926ec794901d17c78024a50270940304540a733656f0d60405160405180910390a460019150506105b2565b5f9150506105b2565b5f5f516020611c785f395f51905f526116a28484610e2e565b15611680575f848152602082815260408083206001600160a01b0387168085529252808320805460ff1916905551339287917ff6391f5c32d9c69d2a47ea670b442974b53935d1edc7fd64eb21e047a839171b9190a460019150506105b2565b5f807ff0c57e16840df040f15088dc2f81fe391c3923bec73e23a9662efc9c229c6a006105b2565b61173261176d565b565b61173e8282610e2e565b6106785760405163e2517d3f60e01b81526001600160a01b038216600482015260248101839052604401610a15565b611775611792565b61173257604051631afcd79f60e31b815260040160405180910390fd5b5f61179b611702565b54600160401b900460ff16919050565b5f602082840312156117bb575f5ffd5b5051919050565b5f602082840312156117d2575f5ffd5b81356001600160e01b0319811681146117e9575f5ffd5b9392505050565b5f60208284031215611800575f5ffd5b5035919050565b6001600160a01b03811681146115e5575f5ffd5b5f5f6040838503121561182c575f5ffd5b82359150602083013561183e81611807565b809150509250929050565b5f5f5f6060848603121561185b575f5ffd5b833561186681611807565b925060208401359150604084013567ffffffffffffffff811115611888575f5ffd5b840160a08187031215611899575f5ffd5b809150509250925092565b5f5f5f5f5f5f60c087890312156118b9575f5ffd5b86356118c481611807565b95506020870135945060408701356118db81611807565b935060608701356118eb81611807565b925060808701356118fb81611807565b915060a087013561190b81611807565b809150509295509295509295565b6040516060810167ffffffffffffffff8111828210171561194857634e487b7160e01b5f52604160045260245ffd5b60405290565b60ff811681146115e5575f5ffd5b5f606082840312801561196d575f5ffd5b50611976611919565b8235815260208301356119888161194e565b60208201526040928301359281019290925250919050565b634e487b7160e01b5f52601160045260245ffd5b808201808211156105b2576105b26119a0565b5f600160ff1b82016119db576119db6119a0565b505f0390565b818103818111156105b2576105b26119a0565b5f60208284031215611a04575f5ffd5b815180151581146117e9575f5ffd5b5f60208284031215611a23575f5ffd5b81516117e981611807565b81835281816020850137505f828201602090810191909152601f909101601f19169091010190565b60208082528235828201525f90830135611a6f8161194e565b60ff1660408381019190915283013560608084019190915283013560808084019190915283013536849003601e19018112611aa8575f5ffd5b830160208101903567ffffffffffffffff811115611ac4575f5ffd5b803603821315611ad2575f5ffd5b60a080850152611ae660c085018284611a2e565b95945050505050565b5f6060828403128015611b00575f5ffd5b50611b09611919565b825181526020830151611b1b8161194e565b60208201526040928301519281019290925250919050565b80820281158282048414176105b2576105b26119a0565b5f82611b6457634e487b7160e01b5f52601260045260245ffd5b500490565b6001815b6001841115611ba457808504811115611b8857611b886119a0565b6001841615611b9657908102905b60019390931c928002611b6d565b935093915050565b5f82611bba575060016105b2565b81611bc657505f6105b2565b8160018114611bdc5760028114611be657611c02565b60019150506105b2565b60ff841115611bf757611bf76119a0565b50506001821b6105b2565b5060208310610133831016604e8410600b8410161715611c25575081810a6105b2565b611c315f198484611b69565b805f1904821115611c4457611c446119a0565b029392505050565b5f6117e98383611bac56fe206d5f22994381488f76c20f193ebf898daf960461a61d40e68e1641f62d8c5d02dd7bc7dec4dceedda775e58dd541e08a116c6c53815c0bd028192f7b626800079847024f21c1f5f8d88daf6764f03ddd70ce4acc6aa7104a85233fe5a76995a2646970667358221220004547277b17c6f6c05e5d0ee6f74d4c91cdf6687a79894ac6f4c106cf6b709464736f6c634300081d0033","linkReferences":{}},"methodIdentifiers":{"DEFAULT_ADMIN_ROLE()":"a217fddf","MINIMUM_COLLATERAL_RATIO()":"82882f8a","STABILIZER_ROLE()":"4699643b","addCollateralEth()":"769ef03d","addCollateralFromStabilizer(uint256)":"bf3fdde7","addCollateralStETH(uint256)":"571a1e28","backedPoolShares()":"d39aa95a","getCollateralizationRatio((uint256,uint8,uint256))":"dc607d6f","getCurrentStEthBalance()":"ee5f4407","getRoleAdmin(bytes32)":"248a9ca3","grantRole(bytes32,address)":"2f2ff15d","hasRole(bytes32,address)":"91d14854","initialize(address,uint256,address,address,address,address)":"a2dc2ab7","lido()":"23509a2d","modifyAllocation(int256)":"0bfd07fc","oracle()":"7dc0d1d0","rateContract()":"eee24219","removeCollateral(uint256,address)":"d41ddc96","removeExcessCollateral(address,uint256,(uint256,uint8,uint256,bytes32,bytes))":"618f8027","renounceRole(bytes32,address)":"36568abe","revokeRole(bytes32,address)":"d547741f","stETH()":"c1fe3e48","stabilizerNFTContract()":"bec070d6","supportsInterface(bytes4)":"01ffc9a7","tokenId()":"17d70f7c"},"storageLayout":{"storage":[{"astId":52741,"contract":"src/PositionEscrow.sol:PositionEscrow","label":"stabilizerNFTContract","offset":0,"slot":"0","type":"t_address"},{"astId":52744,"contract":"src/PositionEscrow.sol:PositionEscrow","label":"stETH","offset":0,"slot":"1","type":"t_address"},{"astId":52747,"contract":"src/PositionEscrow.sol:PositionEscrow","label":"lido","offset":0,"slot":"2","type":"t_address"},{"astId":52750,"contract":"src/PositionEscrow.sol:PositionEscrow","label":"rateContract","offset":0,"slot":"3","type":"t_address"},{"astId":52753,"contract":"src/PositionEscrow.sol:PositionEscrow","label":"oracle","offset":0,"slot":"4","type":"t_address"},{"astId":52756,"contract":"src/PositionEscrow.sol:PositionEscrow","label":"tokenId","offset":0,"slot":"5","type":"t_uint256"},{"astId":52759,"contract":"src/PositionEscrow.sol:PositionEscrow","label":"backedPoolShares","offset":0,"slot":"6","type":"t_uint256"}],"types":{"t_address":{"encoding":"inplace","label":"address","numberOfBytes":"20"},"t_uint256":{"encoding":"inplace","label":"uint256","numberOfBytes":"32"}}},"id":75}