{"abi":[{"type":"constructor","inputs":[],"stateMutability":"nonpayable"},{"type":"receive","stateMutability":"payable"},{"type":"function","name":"DEFAULT_ADMIN_ROLE","inputs":[],"outputs":[{"name":"","type":"bytes32","internalType":"bytes32"}],"stateMutability":"view"},{"type":"function","name":"MINIMUM_COLLATERAL_RATIO","inputs":[],"outputs":[{"name":"","type":"uint256","internalType":"uint256"}],"stateMutability":"view"},{"type":"function","name":"STABILIZER_ROLE","inputs":[],"outputs":[{"name":"","type":"bytes32","internalType":"bytes32"}],"stateMutability":"view"},{"type":"function","name":"addCollateralEth","inputs":[],"outputs":[],"stateMutability":"payable"},{"type":"function","name":"addCollateralFromStabilizer","inputs":[{"name":"stabilizerStEthAmount","type":"uint256","internalType":"uint256"}],"outputs":[],"stateMutability":"payable"},{"type":"function","name":"addCollateralStETH","inputs":[{"name":"stETHAmount","type":"uint256","internalType":"uint256"}],"outputs":[],"stateMutability":"nonpayable"},{"type":"function","name":"backedPoolShares","inputs":[],"outputs":[{"name":"","type":"uint256","internalType":"uint256"}],"stateMutability":"view"},{"type":"function","name":"getCollateralizationRatio","inputs":[{"name":"priceResponse","type":"tuple","internalType":"struct IPriceOracle.PriceResponse","components":[{"name":"price","type":"uint256","internalType":"uint256"},{"name":"decimals","type":"uint8","internalType":"uint8"},{"name":"timestamp","type":"uint256","internalType":"uint256"}]}],"outputs":[{"name":"ratio","type":"uint256","internalType":"uint256"}],"stateMutability":"view"},{"type":"function","name":"getCurrentStEthBalance","inputs":[],"outputs":[{"name":"balance","type":"uint256","internalType":"uint256"}],"stateMutability":"view"},{"type":"function","name":"getRoleAdmin","inputs":[{"name":"role","type":"bytes32","internalType":"bytes32"}],"outputs":[{"name":"","type":"bytes32","internalType":"bytes32"}],"stateMutability":"view"},{"type":"function","name":"getTrackedStEthWithYield","inputs":[],"outputs":[{"name":"","type":"uint256","internalType":"uint256"}],"stateMutability":"view"},{"type":"function","name":"grantRole","inputs":[{"name":"role","type":"bytes32","internalType":"bytes32"},{"name":"account","type":"address","internalType":"address"}],"outputs":[],"stateMutability":"nonpayable"},{"type":"function","name":"hasRole","inputs":[{"name":"role","type":"bytes32","internalType":"bytes32"},{"name":"account","type":"address","internalType":"address"}],"outputs":[{"name":"","type":"bool","internalType":"bool"}],"stateMutability":"view"},{"type":"function","name":"initialize","inputs":[{"name":"_stabilizerNFT","type":"address","internalType":"address"},{"name":"_tokenId","type":"uint256","internalType":"uint256"},{"name":"_stETHAddress","type":"address","internalType":"address"},{"name":"_lidoAddress","type":"address","internalType":"address"},{"name":"_rateContractAddress","type":"address","internalType":"address"},{"name":"_oracleAddress","type":"address","internalType":"address"}],"outputs":[],"stateMutability":"nonpayable"},{"type":"function","name":"lido","inputs":[],"outputs":[{"name":"","type":"address","internalType":"address"}],"stateMutability":"view"},{"type":"function","name":"lockedStEth","inputs":[],"outputs":[{"name":"","type":"uint256","internalType":"uint256"}],"stateMutability":"view"},{"type":"function","name":"modifyAllocation","inputs":[{"name":"sharesDelta","type":"int256","internalType":"int256"}],"outputs":[],"stateMutability":"nonpayable"},{"type":"function","name":"oracle","inputs":[],"outputs":[{"name":"","type":"address","internalType":"address"}],"stateMutability":"view"},{"type":"function","name":"rateContract","inputs":[],"outputs":[{"name":"","type":"address","internalType":"address"}],"stateMutability":"view"},{"type":"function","name":"removeCollateral","inputs":[{"name":"amountToRemove","type":"uint256","internalType":"uint256"},{"name":"recipient","type":"address","internalType":"address"}],"outputs":[],"stateMutability":"nonpayable"},{"type":"function","name":"removeExcessCollateral","inputs":[{"name":"recipient","type":"address","internalType":"address payable"},{"name":"amountToRemove","type":"uint256","internalType":"uint256"},{"name":"priceQuery","type":"tuple","internalType":"struct IPriceOracle.PriceAttestationQuery","components":[{"name":"price","type":"uint256","internalType":"uint256"},{"name":"decimals","type":"uint8","internalType":"uint8"},{"name":"dataTimestamp","type":"uint256","internalType":"uint256"},{"name":"assetPair","type":"bytes32","internalType":"bytes32"},{"name":"signature","type":"bytes","internalType":"bytes"}]}],"outputs":[],"stateMutability":"nonpayable"},{"type":"function","name":"renounceRole","inputs":[{"name":"role","type":"bytes32","internalType":"bytes32"},{"name":"callerConfirmation","type":"address","internalType":"address"}],"outputs":[],"stateMutability":"nonpayable"},{"type":"function","name":"revokeRole","inputs":[{"name":"role","type":"bytes32","internalType":"bytes32"},{"name":"account","type":"address","internalType":"address"}],"outputs":[],"stateMutability":"nonpayable"},{"type":"function","name":"stETH","inputs":[],"outputs":[{"name":"","type":"address","internalType":"address"}],"stateMutability":"view"},{"type":"function","name":"stabilizerNFTContract","inputs":[],"outputs":[{"name":"","type":"address","internalType":"address"}],"stateMutability":"view"},{"type":"function","name":"supportsInterface","inputs":[{"name":"interfaceId","type":"bytes4","internalType":"bytes4"}],"outputs":[{"name":"","type":"bool","internalType":"bool"}],"stateMutability":"view"},{"type":"function","name":"syncStEthAndGetCollateralizationRatio","inputs":[{"name":"priceResponse","type":"tuple","internalType":"struct IPriceOracle.PriceResponse","components":[{"name":"price","type":"uint256","internalType":"uint256"},{"name":"decimals","type":"uint8","internalType":"uint8"},{"name":"timestamp","type":"uint256","internalType":"uint256"}]}],"outputs":[{"name":"ratio","type":"uint256","internalType":"uint256"}],"stateMutability":"nonpayable"},{"type":"function","name":"syncStEthBalance","inputs":[],"outputs":[],"stateMutability":"nonpayable"},{"type":"function","name":"tokenId","inputs":[],"outputs":[{"name":"","type":"uint256","internalType":"uint256"}],"stateMutability":"view"},{"type":"function","name":"yieldFactorAtLastUpdate","inputs":[],"outputs":[{"name":"","type":"uint256","internalType":"uint256"}],"stateMutability":"view"},{"type":"event","name":"AllocationModified","inputs":[{"name":"sharesDelta","type":"int256","indexed":false,"internalType":"int256"},{"name":"newTotalShares","type":"uint256","indexed":false,"internalType":"uint256"}],"anonymous":false},{"type":"event","name":"CollateralAdded","inputs":[{"name":"totalStEthAmount","type":"uint256","indexed":false,"internalType":"uint256"}],"anonymous":false},{"type":"event","name":"CollateralRemoved","inputs":[{"name":"recipient","type":"address","indexed":true,"internalType":"address"},{"name":"amount","type":"uint256","indexed":false,"internalType":"uint256"}],"anonymous":false},{"type":"event","name":"ExcessCollateralRemoved","inputs":[{"name":"recipient","type":"address","indexed":true,"internalType":"address"},{"name":"amount","type":"uint256","indexed":false,"internalType":"uint256"}],"anonymous":false},{"type":"event","name":"Initialized","inputs":[{"name":"version","type":"uint64","indexed":false,"internalType":"uint64"}],"anonymous":false},{"type":"event","name":"RoleAdminChanged","inputs":[{"name":"role","type":"bytes32","indexed":true,"internalType":"bytes32"},{"name":"previousAdminRole","type":"bytes32","indexed":true,"internalType":"bytes32"},{"name":"newAdminRole","type":"bytes32","indexed":true,"internalType":"bytes32"}],"anonymous":false},{"type":"event","name":"RoleGranted","inputs":[{"name":"role","type":"bytes32","indexed":true,"internalType":"bytes32"},{"name":"account","type":"address","indexed":true,"internalType":"address"},{"name":"sender","type":"address","indexed":true,"internalType":"address"}],"anonymous":false},{"type":"event","name":"RoleRevoked","inputs":[{"name":"role","type":"bytes32","indexed":true,"internalType":"bytes32"},{"name":"account","type":"address","indexed":true,"internalType":"address"},{"name":"sender","type":"address","indexed":true,"internalType":"address"}],"anonymous":false},{"type":"error","name":"AccessControlBadConfirmation","inputs":[]},{"type":"error","name":"AccessControlUnauthorizedAccount","inputs":[{"name":"account","type":"address","internalType":"address"},{"name":"neededRole","type":"bytes32","internalType":"bytes32"}]},{"type":"error","name":"ArithmeticError","inputs":[]},{"type":"error","name":"BelowMinimumRatio","inputs":[]},{"type":"error","name":"ERC20InsufficientAllowance","inputs":[{"name":"spender","type":"address","internalType":"address"},{"name":"allowance","type":"uint256","internalType":"uint256"},{"name":"needed","type":"uint256","internalType":"uint256"}]},{"type":"error","name":"ERC20InsufficientBalance","inputs":[{"name":"sender","type":"address","internalType":"address"},{"name":"balance","type":"uint256","internalType":"uint256"},{"name":"needed","type":"uint256","internalType":"uint256"}]},{"type":"error","name":"ERC20InvalidApprover","inputs":[{"name":"approver","type":"address","internalType":"address"}]},{"type":"error","name":"ERC20InvalidReceiver","inputs":[{"name":"receiver","type":"address","internalType":"address"}]},{"type":"error","name":"ERC20InvalidSender","inputs":[{"name":"sender","type":"address","internalType":"address"}]},{"type":"error","name":"ERC20InvalidSpender","inputs":[{"name":"spender","type":"address","internalType":"address"}]},{"type":"error","name":"InvalidInitialization","inputs":[]},{"type":"error","name":"NotInitializing","inputs":[]},{"type":"error","name":"NotNFTOwner","inputs":[]},{"type":"error","name":"TransferFailed","inputs":[]},{"type":"error","name":"ZeroAddress","inputs":[]},{"type":"error","name":"ZeroAmount","inputs":[]}],"bytecode":{"object":"0x6080604052348015600e575f5ffd5b5060156019565b60c9565b7ff0c57e16840df040f15088dc2f81fe391c3923bec73e23a9662efc9c229c6a00805468010000000000000000900460ff161560685760405163f92ee8a960e01b815260040160405180910390fd5b80546001600160401b039081161460c65780546001600160401b0319166001600160401b0390811782556040519081527fc7f505b2f371ae2175ee4913f4499e1f2633a7b5936321eed1cdaeb6115181d29060200160405180910390a15b50565b6125df806100d65f395ff3fe6080604052600436106101c8575f3560e01c8063a217fddf116100f2578063d39aa95a11610092578063ee5f440711610062578063ee5f4407146106e1578063eee24219146106f5578063f362e62614610714578063fc52347114610729575f5ffd5b8063d39aa95a1461066f578063d41ddc9614610684578063d547741f146106a3578063dc607d6f146106c2575f5ffd5b8063bf3fdde7116100cd578063bf3fdde71461060a578063c1fe3e481461061d578063c6d56aa91461063c578063cd2174841461065b575f5ffd5b8063a217fddf146105ba578063a2dc2ab7146105cd578063bec070d6146105ec575f5ffd5b80634699643b116101685780637dc0d1d0116101385780637dc0d1d0146105525780638175ad231461057157806382882f8a1461058657806391d148541461059b575f5ffd5b80634699643b146104ec578063571a1e281461050c578063618f80271461052b578063769ef03d1461054a575f5ffd5b806323509a2d116101a357806323509a2d14610458578063248a9ca31461048f5780632f2ff15d146104ae57806336568abe146104cd575f5ffd5b806301ffc9a7146103e05780630bfd07fc1461041457806317d70f7c14610435575f5ffd5b366103dc57345f8190036101d857005b6001546040516370a0823160e01b81523060048201525f916001600160a01b0316906370a0823190602401602060405180830381865afa15801561021e573d5f5f3e3d5ffd5b505050506040513d601f19601f82011682018060405250810190610242919061209d565b60025460405163a1903eab60e01b81525f600482018190529293506001600160a01b039091169063a1903eab90859060240160206040518083038185885af1935050505080156102af575060408051601f3d908101601f191682019092526102ac9181019061209d565b60015b6102cc576040516312171d8360e31b815260040160405180910390fd5b506001546040516370a0823160e01b81523060048201525f916001600160a01b0316906370a0823190602401602060405180830381865afa158015610313573d5f5f3e3d5ffd5b505050506040513d601f19601f82011682018060405250810190610337919061209d565b905061034383826120c8565b9150815f03610365576040516312171d8360e31b815260040160405180910390fd5b50306001600160a01b031663fc5234716040518163ffffffff1660e01b81526004015f604051808303815f87803b15801561039e575f5ffd5b505af11580156103b0573d5f5f3e3d5ffd5b505050505f51602061254a5f395f51905f52816040516103d291815260200190565b60405180910390a1005b5f5ffd5b3480156103eb575f5ffd5b506103ff6103fa3660046120db565b61073d565b60405190151581526020015b60405180910390f35b34801561041f575f5ffd5b5061043361042e366004612109565b610773565b005b348015610440575f5ffd5b5061044a60055481565b60405190815260200161040b565b348015610463575f5ffd5b50600254610477906001600160a01b031681565b6040516001600160a01b03909116815260200161040b565b34801561049a575f5ffd5b5061044a6104a9366004612109565b610838565b3480156104b9575f5ffd5b506104336104c8366004612134565b610858565b3480156104d8575f5ffd5b506104336104e7366004612134565b61087a565b3480156104f7575f5ffd5b5061044a5f51602061258a5f395f51905f5281565b348015610517575f5ffd5b50610433610526366004612109565b6108ad565b348015610536575f5ffd5b50610433610545366004612162565b6109dd565b610433610eb3565b34801561055d575f5ffd5b50600454610477906001600160a01b031681565b34801561057c575f5ffd5b5061044a60085481565b348015610591575f5ffd5b5061044a6130d481565b3480156105a6575f5ffd5b506103ff6105b5366004612134565b6110cf565b3480156105c5575f5ffd5b5061044a5f81565b3480156105d8575f5ffd5b506104336105e73660046121bd565b611105565b3480156105f7575f5ffd5b505f54610477906001600160a01b031681565b610433610618366004612109565b611359565b348015610628575f5ffd5b50600154610477906001600160a01b031681565b348015610647575f5ffd5b5061044a610656366004612275565b611642565b348015610666575f5ffd5b5061044a611706565b34801561067a575f5ffd5b5061044a60065481565b34801561068f575f5ffd5b5061043361069e366004612134565b6117c4565b3480156106ae575f5ffd5b506104336106bd366004612134565b611a0b565b3480156106cd575f5ffd5b5061044a6106dc366004612275565b611a27565b3480156106ec575f5ffd5b5061044a611c14565b348015610700575f5ffd5b50600354610477906001600160a01b031681565b34801561071f575f5ffd5b5061044a60075481565b348015610734575f5ffd5b50610433611c83565b5f6001600160e01b03198216637965db0b60e01b148061076d57506301ffc9a760e01b6001600160e01b03198316145b92915050565b5f51602061258a5f395f51905f5261078a81611ecd565b6006545f8313156107a75761079f83826122b9565b6006556107f4565b5f8312156107ef575f6107b9846122cc565b9050818111156107dc57604051630fc12e3560e11b815260040160405180910390fd5b6107e681836120c8565b600655506107f4565b505050565b6006546040805185815260208101929092527fabc1e0200cea3daa5c1d23d3df8212b5b114ee4bb8800bc01d8c2a7f93641d0291015b60405180910390a1505b5050565b5f9081525f51602061256a5f395f51905f52602052604090206001015490565b61086182610838565b61086a81611ecd565b6108748383611eda565b50505050565b6001600160a01b03811633146108a35760405163334bd91960e11b815260040160405180910390fd5b6107ef8282611f7b565b805f036108cd57604051631f2a200560e01b815260040160405180910390fd5b6001546040516323b872dd60e01b8152336004820152306024820152604481018390525f916001600160a01b0316906323b872dd906064016020604051808303815f875af1158015610921573d5f5f3e3d5ffd5b505050506040513d601f19601f8201168201806040525081019061094591906122e6565b905080610965576040516312171d8360e31b815260040160405180910390fd5b306001600160a01b031663fc5234716040518163ffffffff1660e01b81526004015f604051808303815f87803b15801561099d575f5ffd5b505af11580156109af573d5f5f3e3d5ffd5b505050505f51602061254a5f395f51905f52826040516109d191815260200190565b60405180910390a15050565b5f546005546040516331a9108f60e11b8152600481019190915233916001600160a01b031690636352211e90602401602060405180830381865afa158015610a27573d5f5f3e3d5ffd5b505050506040513d601f19601f82011682018060405250810190610a4b9190612305565b6001600160a01b031614610a7257604051631022318760e21b815260040160405180910390fd5b6001600160a01b038316610a995760405163d92e233d60e01b815260040160405180910390fd5b815f03610ab957604051631f2a200560e01b815260040160405180910390fd5b600480546040516365ab8c7160e01b81525f926001600160a01b03909216916365ab8c7191610aea91869101612348565b6060604051808303815f875af1158015610b06573d5f5f3e3d5ffd5b505050506040513d601f19601f82011682018060405250810190610b2a91906123e1565b90505f306001600160a01b031663cd2174846040518163ffffffff1660e01b8152600401602060405180830381865afa158015610b69573d5f5f3e3d5ffd5b505050506040513d601f19601f82011682018060405250810190610b8d919061209d565b60065490915081851115610bc95760405163391434e360e21b815230600482015260248101839052604481018690526064015b60405180910390fd5b5f610bd486846120c8565b90508115610d84576003546040805163efa7fa5d60e01b815290515f926001600160a01b03169163efa7fa5d9160048083019260209291908290030181865afa158015610c23573d5f5f3e3d5ffd5b505050506040513d601f19601f82011682018060405250810190610c47919061209d565b90505f60035f9054906101000a90046001600160a01b03166001600160a01b031663a42c69a96040518163ffffffff1660e01b8152600401602060405180830381865afa158015610c9a573d5f5f3e3d5ffd5b505050506040513d601f19601f82011682018060405250810190610cbe919061209d565b610cc88386612425565b610cd2919061243c565b9050805f03610cf457604051630fc12e3560e11b815260040160405180910390fd5b85515f03610d1557604051631f2a200560e01b815260040160405180910390fd5b5f866020015160ff16600a610d2a919061253e565b8751610d369086612425565b610d40919061243c565b90505f82610d5083612710612425565b610d5a919061243c565b90506130d4811015610d7f5760405163133804c360e01b815260040160405180910390fd5b505050505b60015460405163a9059cbb60e01b81526001600160a01b038981166004830152602482018990525f92169063a9059cbb906044016020604051808303815f875af1158015610dd4573d5f5f3e3d5ffd5b505050506040513d601f19601f82011682018060405250810190610df891906122e6565b905080610e18576040516312171d8360e31b815260040160405180910390fd5b306001600160a01b031663fc5234716040518163ffffffff1660e01b81526004015f604051808303815f87803b158015610e50575f5ffd5b505af1158015610e62573d5f5f3e3d5ffd5b50505050876001600160a01b03167f370ef93e54c934af17869115596b96ef88d1454cd91736e1d7ae0efdaa62686f88604051610ea191815260200190565b60405180910390a25050505050505050565b345f819003610ed557604051631f2a200560e01b815260040160405180910390fd5b6001546040516370a0823160e01b81523060048201525f916001600160a01b0316906370a0823190602401602060405180830381865afa158015610f1b573d5f5f3e3d5ffd5b505050506040513d601f19601f82011682018060405250810190610f3f919061209d565b60025460405163a1903eab60e01b81525f600482018190529293506001600160a01b039091169063a1903eab90859060240160206040518083038185885af193505050508015610fac575060408051601f3d908101601f19168201909252610fa99181019061209d565b60015b610fc9576040516312171d8360e31b815260040160405180910390fd5b506001546040516370a0823160e01b81523060048201525f916001600160a01b0316906370a0823190602401602060405180830381865afa158015611010573d5f5f3e3d5ffd5b505050506040513d601f19601f82011682018060405250810190611034919061209d565b905061104083826120c8565b9150815f03611062576040516312171d8360e31b815260040160405180910390fd5b50306001600160a01b031663fc5234716040518163ffffffff1660e01b81526004015f604051808303815f87803b15801561109b575f5ffd5b505af11580156110ad573d5f5f3e3d5ffd5b505050505f51602061254a5f395f51905f528160405161082a91815260200190565b5f9182525f51602061256a5f395f51905f52602090815260408084206001600160a01b0393909316845291905290205460ff1690565b5f61110e611ff4565b805490915060ff600160401b820416159067ffffffffffffffff165f811580156111355750825b90505f8267ffffffffffffffff1660011480156111515750303b155b90508115801561115f575080155b1561117d5760405163f92ee8a960e01b815260040160405180910390fd5b845467ffffffffffffffff1916600117855583156111a757845460ff60401b1916600160401b1785555b6111af61201c565b6001600160a01b038b1615806111c3575089155b806111d557506001600160a01b038916155b806111e757506001600160a01b038816155b806111f957506001600160a01b038716155b8061120b57506001600160a01b038616155b156112295760405163d92e233d60e01b815260040160405180910390fd5b5f80546001600160a01b03808e166001600160a01b03199283161790925560058c9055600180548c8416908316179055600280548b8416908316179055600380548a8416908316811790915560048054938a16939092169290921781556040805163efa7fa5d60e01b8152905163efa7fa5d928281019260209291908290030181865afa1580156112bc573d5f5f3e3d5ffd5b505050506040513d601f19601f820116820180604052508101906112e0919061209d565b6008556112ed5f8c611eda565b506113055f51602061258a5f395f51905f528c611eda565b50831561134c57845460ff60401b19168555604051600181527fc7f505b2f371ae2175ee4913f4499e1f2633a7b5936321eed1cdaeb6115181d29060200160405180910390a15b5050505050505050505050565b5f51602061258a5f395f51905f5261137081611ecd565b348015801561137d575082155b1561139b57604051631f2a200560e01b815260040160405180910390fd5b5f811561152e576001546040516370a0823160e01b81523060048201525f916001600160a01b0316906370a0823190602401602060405180830381865afa1580156113e8573d5f5f3e3d5ffd5b505050506040513d601f19601f8201168201806040525081019061140c919061209d565b60025460405163a1903eab60e01b81525f60048201529192506001600160a01b03169063a1903eab90859060240160206040518083038185885af193505050508015611475575060408051601f3d908101601f191682019092526114729181019061209d565b60015b611492576040516312171d8360e31b815260040160405180910390fd5b506001546040516370a0823160e01b81523060048201525f916001600160a01b0316906370a0823190602401602060405180830381865afa1580156114d9573d5f5f3e3d5ffd5b505050506040513d601f19601f820116820180604052508101906114fd919061209d565b905061150982826120c8565b9250825f0361152b576040516312171d8360e31b815260040160405180910390fd5b50505b5f61153985836122b9565b90505f306001600160a01b031663cd2174846040518163ffffffff1660e01b8152600401602060405180830381865afa158015611578573d5f5f3e3d5ffd5b505050506040513d601f19601f8201168201806040525081019061159c919061209d565b90506115a882826122b9565b6007556003546040805163efa7fa5d60e01b815290516001600160a01b039092169163efa7fa5d916004808201926020929091908290030181865afa1580156115f3573d5f5f3e3d5ffd5b505050506040513d601f19601f82011682018060405250810190611617919061209d565b6008556040518281525f51602061254a5f395f51905f529060200160405180910390a1505050505050565b5f306001600160a01b031663fc5234716040518163ffffffff1660e01b81526004015f604051808303815f87803b15801561167b575f5ffd5b505af115801561168d573d5f5f3e3d5ffd5b50506040805163dc607d6f60e01b815285516004820152602086015160ff16602482015290850151604482015230925063dc607d6f9150606401602060405180830381865afa1580156116e2573d5f5f3e3d5ffd5b505050506040513d601f19601f8201168201806040525081019061076d919061209d565b5f5f60035f9054906101000a90046001600160a01b03166001600160a01b031663efa7fa5d6040518163ffffffff1660e01b8152600401602060405180830381865afa158015611758573d5f5f3e3d5ffd5b505050506040513d601f19601f8201168201806040525081019061177c919061209d565b60085460075491925090811580611791575082155b8061179b57508282145b156117a7579392505050565b816117b28483612425565b6117bc919061243c565b935050505090565b5f51602061258a5f395f51905f526117db81611ecd565b825f036117fb57604051631f2a200560e01b815260040160405180910390fd5b6001600160a01b0382166118225760405163d92e233d60e01b815260040160405180910390fd5b5f306001600160a01b031663cd2174846040518163ffffffff1660e01b8152600401602060405180830381865afa15801561185f573d5f5f3e3d5ffd5b505050506040513d601f19601f82011682018060405250810190611883919061209d565b9050808411156118b65760405163391434e360e21b81523060048201526024810182905260448101859052606401610bc0565b60015460405163a9059cbb60e01b81526001600160a01b038581166004830152602482018790525f92169063a9059cbb906044016020604051808303815f875af1158015611906573d5f5f3e3d5ffd5b505050506040513d601f19601f8201168201806040525081019061192a91906122e6565b90508061194a576040516312171d8360e31b815260040160405180910390fd5b61195485836120c8565b6007556003546040805163efa7fa5d60e01b815290516001600160a01b039092169163efa7fa5d916004808201926020929091908290030181865afa15801561199f573d5f5f3e3d5ffd5b505050506040513d601f19601f820116820180604052508101906119c3919061209d565b6008556040518581526001600160a01b038516907f12c7466676da8453fdc8fb091f1a24d31919043a79a50ebe022867a5f5c1ed349060200160405180910390a25050505050565b611a1482610838565b611a1d81611ecd565b6108748383611f7b565b6006545f90808203611a3c57505f1992915050565b5f306001600160a01b031663cd2174846040518163ffffffff1660e01b8152600401602060405180830381865afa158015611a79573d5f5f3e3d5ffd5b505050506040513d601f19601f82011682018060405250810190611a9d919061209d565b9050805f03611aaf57505f9392505050565b5f846020015160ff16600a611ac4919061253e565b8551611ad09084612425565b611ada919061243c565b90505f60035f9054906101000a90046001600160a01b03166001600160a01b031663efa7fa5d6040518163ffffffff1660e01b8152600401602060405180830381865afa158015611b2d573d5f5f3e3d5ffd5b505050506040513d601f19601f82011682018060405250810190611b51919061209d565b90505f60035f9054906101000a90046001600160a01b03166001600160a01b031663a42c69a96040518163ffffffff1660e01b8152600401602060405180830381865afa158015611ba4573d5f5f3e3d5ffd5b505050506040513d601f19601f82011682018060405250810190611bc8919061209d565b611bd28387612425565b611bdc919061243c565b9050805f03611bf257505f199695505050505050565b80611bff84612710612425565b611c09919061243c565b979650505050505050565b6001546040516370a0823160e01b81523060048201525f916001600160a01b0316906370a0823190602401602060405180830381865afa158015611c5a573d5f5f3e3d5ffd5b505050506040513d601f19601f82011682018060405250810190611c7e919061209d565b905090565b6001546040516370a0823160e01b81523060048201525f916001600160a01b0316906370a0823190602401602060405180830381865afa158015611cc9573d5f5f3e3d5ffd5b505050506040513d601f19601f82011682018060405250810190611ced919061209d565b90505f306001600160a01b031663cd2174846040518163ffffffff1660e01b8152600401602060405180830381865afa158015611d2c573d5f5f3e3d5ffd5b505050506040513d601f19601f82011682018060405250810190611d50919061209d565b90505f60035f9054906101000a90046001600160a01b03166001600160a01b031663efa7fa5d6040518163ffffffff1660e01b8152600401602060405180830381865afa158015611da3573d5f5f3e3d5ffd5b505050506040513d601f19601f82011682018060405250810190611dc7919061209d565b905081831115611e3b575f611ddc83856120c8565b5f54604051630cf7fe9560e31b8152600481018390529192506001600160a01b0316906367bff4a8906024015f604051808303815f87803b158015611e1f575f5ffd5b505af1158015611e31573d5f5f3e3d5ffd5b5050505050611ea9565b81831015611ea9575f611e4e84846120c8565b5f54604051630722240b60e31b8152600481018390529192506001600160a01b0316906339112058906024015f604051808303815f87803b158015611e91575f5ffd5b505af1158015611ea3573d5f5f3e3d5ffd5b50505050505b82600754141580611ebc57508060085414155b156107ef5760079290925550600855565b611ed78133612026565b50565b5f5f51602061256a5f395f51905f52611ef384846110cf565b611f72575f848152602082815260408083206001600160a01b03871684529091529020805460ff19166001179055611f283390565b6001600160a01b0316836001600160a01b0316857f2f8788117e7eff1d82e926ec794901d17c78024a50270940304540a733656f0d60405160405180910390a4600191505061076d565b5f91505061076d565b5f5f51602061256a5f395f51905f52611f9484846110cf565b15611f72575f848152602082815260408083206001600160a01b0387168085529252808320805460ff1916905551339287917ff6391f5c32d9c69d2a47ea670b442974b53935d1edc7fd64eb21e047a839171b9190a4600191505061076d565b5f807ff0c57e16840df040f15088dc2f81fe391c3923bec73e23a9662efc9c229c6a0061076d565b61202461205f565b565b61203082826110cf565b6108345760405163e2517d3f60e01b81526001600160a01b038216600482015260248101839052604401610bc0565b612067612084565b61202457604051631afcd79f60e31b815260040160405180910390fd5b5f61208d611ff4565b54600160401b900460ff16919050565b5f602082840312156120ad575f5ffd5b5051919050565b634e487b7160e01b5f52601160045260245ffd5b8181038181111561076d5761076d6120b4565b5f602082840312156120eb575f5ffd5b81356001600160e01b031981168114612102575f5ffd5b9392505050565b5f60208284031215612119575f5ffd5b5035919050565b6001600160a01b0381168114611ed7575f5ffd5b5f5f60408385031215612145575f5ffd5b82359150602083013561215781612120565b809150509250929050565b5f5f5f60608486031215612174575f5ffd5b833561217f81612120565b925060208401359150604084013567ffffffffffffffff8111156121a1575f5ffd5b840160a081870312156121b2575f5ffd5b809150509250925092565b5f5f5f5f5f5f60c087890312156121d2575f5ffd5b86356121dd81612120565b95506020870135945060408701356121f481612120565b9350606087013561220481612120565b9250608087013561221481612120565b915060a087013561222481612120565b809150509295509295509295565b6040516060810167ffffffffffffffff8111828210171561226157634e487b7160e01b5f52604160045260245ffd5b60405290565b60ff81168114611ed7575f5ffd5b5f6060828403128015612286575f5ffd5b5061228f612232565b8235815260208301356122a181612267565b60208201526040928301359281019290925250919050565b8082018082111561076d5761076d6120b4565b5f600160ff1b82016122e0576122e06120b4565b505f0390565b5f602082840312156122f6575f5ffd5b81518015158114612102575f5ffd5b5f60208284031215612315575f5ffd5b815161210281612120565b81835281816020850137505f828201602090810191909152601f909101601f19169091010190565b60208082528235828201525f9083013561236181612267565b60ff1660408381019190915283013560608084019190915283013560808084019190915283013536849003601e1901811261239a575f5ffd5b830160208101903567ffffffffffffffff8111156123b6575f5ffd5b8036038213156123c4575f5ffd5b60a0808501526123d860c085018284612320565b95945050505050565b5f60608284031280156123f2575f5ffd5b506123fb612232565b82518152602083015161240d81612267565b60208201526040928301519281019290925250919050565b808202811582820484141761076d5761076d6120b4565b5f8261245657634e487b7160e01b5f52601260045260245ffd5b500490565b6001815b60018411156124965780850481111561247a5761247a6120b4565b600184161561248857908102905b60019390931c92800261245f565b935093915050565b5f826124ac5750600161076d565b816124b857505f61076d565b81600181146124ce57600281146124d8576124f4565b600191505061076d565b60ff8411156124e9576124e96120b4565b50506001821b61076d565b5060208310610133831016604e8410600b8410161715612517575081810a61076d565b6125235f19848461245b565b805f1904821115612536576125366120b4565b029392505050565b5f612102838361249e56fe206d5f22994381488f76c20f193ebf898daf960461a61d40e68e1641f62d8c5d02dd7bc7dec4dceedda775e58dd541e08a116c6c53815c0bd028192f7b626800079847024f21c1f5f8d88daf6764f03ddd70ce4acc6aa7104a85233fe5a76995a26469706673582212209fc6f55ac14d4e2a698762e1e3f9258cfbc77cbbe2623b47340d4d86e334103564736f6c634300081d0033","linkReferences":{}},"methodIdentifiers":{"DEFAULT_ADMIN_ROLE()":"a217fddf","MINIMUM_COLLATERAL_RATIO()":"82882f8a","STABILIZER_ROLE()":"4699643b","addCollateralEth()":"769ef03d","addCollateralFromStabilizer(uint256)":"bf3fdde7","addCollateralStETH(uint256)":"571a1e28","backedPoolShares()":"d39aa95a","getCollateralizationRatio((uint256,uint8,uint256))":"dc607d6f","getCurrentStEthBalance()":"ee5f4407","getRoleAdmin(bytes32)":"248a9ca3","getTrackedStEthWithYield()":"cd217484","grantRole(bytes32,address)":"2f2ff15d","hasRole(bytes32,address)":"91d14854","initialize(address,uint256,address,address,address,address)":"a2dc2ab7","lido()":"23509a2d","lockedStEth()":"f362e626","modifyAllocation(int256)":"0bfd07fc","oracle()":"7dc0d1d0","rateContract()":"eee24219","removeCollateral(uint256,address)":"d41ddc96","removeExcessCollateral(address,uint256,(uint256,uint8,uint256,bytes32,bytes))":"618f8027","renounceRole(bytes32,address)":"36568abe","revokeRole(bytes32,address)":"d547741f","stETH()":"c1fe3e48","stabilizerNFTContract()":"bec070d6","supportsInterface(bytes4)":"01ffc9a7","syncStEthAndGetCollateralizationRatio((uint256,uint8,uint256))":"c6d56aa9","syncStEthBalance()":"fc523471","tokenId()":"17d70f7c","yieldFactorAtLastUpdate()":"8175ad23"},"storageLayout":{"storage":[{"astId":50822,"contract":"src/PositionEscrow.sol:PositionEscrow","label":"stabilizerNFTContract","offset":0,"slot":"0","type":"t_address"},{"astId":50825,"contract":"src/PositionEscrow.sol:PositionEscrow","label":"stETH","offset":0,"slot":"1","type":"t_address"},{"astId":50828,"contract":"src/PositionEscrow.sol:PositionEscrow","label":"lido","offset":0,"slot":"2","type":"t_address"},{"astId":50831,"contract":"src/PositionEscrow.sol:PositionEscrow","label":"rateContract","offset":0,"slot":"3","type":"t_address"},{"astId":50834,"contract":"src/PositionEscrow.sol:PositionEscrow","label":"oracle","offset":0,"slot":"4","type":"t_address"},{"astId":50837,"contract":"src/PositionEscrow.sol:PositionEscrow","label":"tokenId","offset":0,"slot":"5","type":"t_uint256"},{"astId":50840,"contract":"src/PositionEscrow.sol:PositionEscrow","label":"backedPoolShares","offset":0,"slot":"6","type":"t_uint256"},{"astId":50842,"contract":"src/PositionEscrow.sol:PositionEscrow","label":"lockedStEth","offset":0,"slot":"7","type":"t_uint256"},{"astId":50844,"contract":"src/PositionEscrow.sol:PositionEscrow","label":"yieldFactorAtLastUpdate","offset":0,"slot":"8","type":"t_uint256"}],"types":{"t_address":{"encoding":"inplace","label":"address","numberOfBytes":"20"},"t_uint256":{"encoding":"inplace","label":"uint256","numberOfBytes":"32"}}},"id":79}