{"abi":[{"type":"constructor","inputs":[],"stateMutability":"nonpayable"},{"type":"receive","stateMutability":"payable"},{"type":"function","name":"DEFAULT_ADMIN_ROLE","inputs":[],"outputs":[{"name":"","type":"bytes32","internalType":"bytes32"}],"stateMutability":"view"},{"type":"function","name":"EXCESSCOLLATERALMANAGER_ROLE","inputs":[],"outputs":[{"name":"","type":"bytes32","internalType":"bytes32"}],"stateMutability":"view"},{"type":"function","name":"MINIMUM_COLLATERAL_RATIO","inputs":[],"outputs":[{"name":"","type":"uint256","internalType":"uint256"}],"stateMutability":"view"},{"type":"function","name":"STABILIZER_ROLE","inputs":[],"outputs":[{"name":"","type":"bytes32","internalType":"bytes32"}],"stateMutability":"view"},{"type":"function","name":"addCollateral","inputs":[{"name":"totalStEthAmount","type":"uint256","internalType":"uint256"}],"outputs":[],"stateMutability":"nonpayable"},{"type":"function","name":"addCollateralEth","inputs":[],"outputs":[],"stateMutability":"payable"},{"type":"function","name":"addCollateralFromStabilizer","inputs":[{"name":"stabilizerStEthAmount","type":"uint256","internalType":"uint256"}],"outputs":[],"stateMutability":"payable"},{"type":"function","name":"addCollateralStETH","inputs":[{"name":"stETHAmount","type":"uint256","internalType":"uint256"}],"outputs":[],"stateMutability":"nonpayable"},{"type":"function","name":"backedPoolShares","inputs":[],"outputs":[{"name":"","type":"uint256","internalType":"uint256"}],"stateMutability":"view"},{"type":"function","name":"getCollateralizationRatio","inputs":[{"name":"priceResponse","type":"tuple","internalType":"struct IPriceOracle.PriceResponse","components":[{"name":"price","type":"uint256","internalType":"uint256"},{"name":"decimals","type":"uint8","internalType":"uint8"},{"name":"timestamp","type":"uint256","internalType":"uint256"}]}],"outputs":[{"name":"ratio","type":"uint256","internalType":"uint256"}],"stateMutability":"view"},{"type":"function","name":"getCurrentStEthBalance","inputs":[],"outputs":[{"name":"balance","type":"uint256","internalType":"uint256"}],"stateMutability":"view"},{"type":"function","name":"getRoleAdmin","inputs":[{"name":"role","type":"bytes32","internalType":"bytes32"}],"outputs":[{"name":"","type":"bytes32","internalType":"bytes32"}],"stateMutability":"view"},{"type":"function","name":"grantRole","inputs":[{"name":"role","type":"bytes32","internalType":"bytes32"},{"name":"account","type":"address","internalType":"address"}],"outputs":[],"stateMutability":"nonpayable"},{"type":"function","name":"hasRole","inputs":[{"name":"role","type":"bytes32","internalType":"bytes32"},{"name":"account","type":"address","internalType":"address"}],"outputs":[{"name":"","type":"bool","internalType":"bool"}],"stateMutability":"view"},{"type":"function","name":"initialize","inputs":[{"name":"_stabilizerNFT","type":"address","internalType":"address"},{"name":"_stabilizerOwner","type":"address","internalType":"address"},{"name":"_stETHAddress","type":"address","internalType":"address"},{"name":"_lidoAddress","type":"address","internalType":"address"},{"name":"_rateContractAddress","type":"address","internalType":"address"},{"name":"_oracleAddress","type":"address","internalType":"address"}],"outputs":[],"stateMutability":"nonpayable"},{"type":"function","name":"lido","inputs":[],"outputs":[{"name":"","type":"address","internalType":"address"}],"stateMutability":"view"},{"type":"function","name":"modifyAllocation","inputs":[{"name":"sharesDelta","type":"int256","internalType":"int256"}],"outputs":[],"stateMutability":"nonpayable"},{"type":"function","name":"oracle","inputs":[],"outputs":[{"name":"","type":"address","internalType":"address"}],"stateMutability":"view"},{"type":"function","name":"rateContract","inputs":[],"outputs":[{"name":"","type":"address","internalType":"address"}],"stateMutability":"view"},{"type":"function","name":"removeCollateral","inputs":[{"name":"amountToRemove","type":"uint256","internalType":"uint256"},{"name":"recipient","type":"address","internalType":"address"}],"outputs":[],"stateMutability":"nonpayable"},{"type":"function","name":"removeExcessCollateral","inputs":[{"name":"recipient","type":"address","internalType":"address payable"},{"name":"amountToRemove","type":"uint256","internalType":"uint256"},{"name":"priceQuery","type":"tuple","internalType":"struct IPriceOracle.PriceAttestationQuery","components":[{"name":"price","type":"uint256","internalType":"uint256"},{"name":"decimals","type":"uint8","internalType":"uint8"},{"name":"dataTimestamp","type":"uint256","internalType":"uint256"},{"name":"assetPair","type":"bytes32","internalType":"bytes32"},{"name":"signature","type":"bytes","internalType":"bytes"}]}],"outputs":[],"stateMutability":"nonpayable"},{"type":"function","name":"renounceRole","inputs":[{"name":"role","type":"bytes32","internalType":"bytes32"},{"name":"callerConfirmation","type":"address","internalType":"address"}],"outputs":[],"stateMutability":"nonpayable"},{"type":"function","name":"revokeRole","inputs":[{"name":"role","type":"bytes32","internalType":"bytes32"},{"name":"account","type":"address","internalType":"address"}],"outputs":[],"stateMutability":"nonpayable"},{"type":"function","name":"stETH","inputs":[],"outputs":[{"name":"","type":"address","internalType":"address"}],"stateMutability":"view"},{"type":"function","name":"stabilizerNFTContract","inputs":[],"outputs":[{"name":"","type":"address","internalType":"address"}],"stateMutability":"view"},{"type":"function","name":"supportsInterface","inputs":[{"name":"interfaceId","type":"bytes4","internalType":"bytes4"}],"outputs":[{"name":"","type":"bool","internalType":"bool"}],"stateMutability":"view"},{"type":"event","name":"AllocationModified","inputs":[{"name":"sharesDelta","type":"int256","indexed":false,"internalType":"int256"},{"name":"newTotalShares","type":"uint256","indexed":false,"internalType":"uint256"}],"anonymous":false},{"type":"event","name":"CollateralAdded","inputs":[{"name":"totalStEthAmount","type":"uint256","indexed":false,"internalType":"uint256"}],"anonymous":false},{"type":"event","name":"CollateralRemoved","inputs":[{"name":"recipient","type":"address","indexed":true,"internalType":"address"},{"name":"amount","type":"uint256","indexed":false,"internalType":"uint256"}],"anonymous":false},{"type":"event","name":"ExcessCollateralRemoved","inputs":[{"name":"recipient","type":"address","indexed":true,"internalType":"address"},{"name":"amount","type":"uint256","indexed":false,"internalType":"uint256"}],"anonymous":false},{"type":"event","name":"Initialized","inputs":[{"name":"version","type":"uint64","indexed":false,"internalType":"uint64"}],"anonymous":false},{"type":"event","name":"RoleAdminChanged","inputs":[{"name":"role","type":"bytes32","indexed":true,"internalType":"bytes32"},{"name":"previousAdminRole","type":"bytes32","indexed":true,"internalType":"bytes32"},{"name":"newAdminRole","type":"bytes32","indexed":true,"internalType":"bytes32"}],"anonymous":false},{"type":"event","name":"RoleGranted","inputs":[{"name":"role","type":"bytes32","indexed":true,"internalType":"bytes32"},{"name":"account","type":"address","indexed":true,"internalType":"address"},{"name":"sender","type":"address","indexed":true,"internalType":"address"}],"anonymous":false},{"type":"event","name":"RoleRevoked","inputs":[{"name":"role","type":"bytes32","indexed":true,"internalType":"bytes32"},{"name":"account","type":"address","indexed":true,"internalType":"address"},{"name":"sender","type":"address","indexed":true,"internalType":"address"}],"anonymous":false},{"type":"error","name":"AccessControlBadConfirmation","inputs":[]},{"type":"error","name":"AccessControlUnauthorizedAccount","inputs":[{"name":"account","type":"address","internalType":"address"},{"name":"neededRole","type":"bytes32","internalType":"bytes32"}]},{"type":"error","name":"ArithmeticError","inputs":[]},{"type":"error","name":"BelowMinimumRatio","inputs":[]},{"type":"error","name":"ERC20InsufficientAllowance","inputs":[{"name":"spender","type":"address","internalType":"address"},{"name":"allowance","type":"uint256","internalType":"uint256"},{"name":"needed","type":"uint256","internalType":"uint256"}]},{"type":"error","name":"ERC20InsufficientBalance","inputs":[{"name":"sender","type":"address","internalType":"address"},{"name":"balance","type":"uint256","internalType":"uint256"},{"name":"needed","type":"uint256","internalType":"uint256"}]},{"type":"error","name":"ERC20InvalidApprover","inputs":[{"name":"approver","type":"address","internalType":"address"}]},{"type":"error","name":"ERC20InvalidReceiver","inputs":[{"name":"receiver","type":"address","internalType":"address"}]},{"type":"error","name":"ERC20InvalidSender","inputs":[{"name":"sender","type":"address","internalType":"address"}]},{"type":"error","name":"ERC20InvalidSpender","inputs":[{"name":"spender","type":"address","internalType":"address"}]},{"type":"error","name":"InvalidInitialization","inputs":[]},{"type":"error","name":"NotInitializing","inputs":[]},{"type":"error","name":"TransferFailed","inputs":[]},{"type":"error","name":"ZeroAddress","inputs":[]},{"type":"error","name":"ZeroAmount","inputs":[]}],"bytecode":{"object":"0x6080604052348015600e575f5ffd5b5060156019565b60c9565b7ff0c57e16840df040f15088dc2f81fe391c3923bec73e23a9662efc9c229c6a00805468010000000000000000900460ff161560685760405163f92ee8a960e01b815260040160405180910390fd5b80546001600160401b039081161460c65780546001600160401b0319166001600160401b0390811782556040519081527fc7f505b2f371ae2175ee4913f4499e1f2633a7b5936321eed1cdaeb6115181d29060200160405180910390a15b50565b611d57806100d65f395ff3fe60806040526004361061017e575f3560e01c806391d14854116100cd578063cc2a9a5b11610087578063d547741f11610062578063d547741f14610568578063dc607d6f14610587578063ee5f4407146105a6578063eee24219146105ba575f5ffd5b8063cc2a9a5b14610515578063d39aa95a14610534578063d41ddc9614610549575f5ffd5b806391d1485414610474578063a217fddf14610493578063bcc46e83146104a6578063bec070d6146104c5578063bf3fdde7146104e3578063c1fe3e48146104f6575f5ffd5b80634699643b1161013857806368b2f94a1161011357806368b2f94a14610405578063769ef03d146104385780637dc0d1d01461044057806382882f8a1461045f575f5ffd5b80634699643b146103a7578063571a1e28146103c7578063618f8027146103e6575f5ffd5b806301ffc9a7146102b25780630bfd07fc146102e657806323509a2d14610305578063248a9ca31461033c5780632f2ff15d1461036957806336568abe14610388575f5ffd5b366102ae57345f81900361018e57005b60025460405163a1903eab60e01b81525f60048201819052916001600160a01b03169063a1903eab90849060240160206040518083038185885af1935050505080156101f7575060408051601f3d908101601f191682019092526101f491810190611827565b60015b610214576040516312171d8360e31b815260040160405180910390fd5b809150815f03610237576040516312171d8360e31b815260040160405180910390fd5b506040518181525f516020611cc25f395f51905f529060200160405180910390a15f54604051630cf7fe9560e31b8152600481018390526001600160a01b03909116906367bff4a8906024015f604051808303815f87803b15801561029a575f5ffd5b505af11580156102ac573d5f5f3e3d5ffd5b005b5f5ffd5b3480156102bd575f5ffd5b506102d16102cc36600461183e565b6105d9565b60405190151581526020015b60405180910390f35b3480156102f1575f5ffd5b506102ac61030036600461186c565b61060f565b348015610310575f5ffd5b50600254610324906001600160a01b031681565b6040516001600160a01b0390911681526020016102dd565b348015610347575f5ffd5b5061035b61035636600461186c565b6106d3565b6040519081526020016102dd565b348015610374575f5ffd5b506102ac610383366004611897565b6106f3565b348015610393575f5ffd5b506102ac6103a2366004611897565b610715565b3480156103b2575f5ffd5b5061035b5f516020611d025f395f51905f5281565b3480156103d2575f5ffd5b506102ac6103e136600461186c565b610748565b3480156103f1575f5ffd5b506102ac6104003660046118c5565b61087d565b348015610410575f5ffd5b5061035b7f7f61e2b6df76d800cd249804cfbce4bce022e89227550287211f04d6f3b464e781565b6102ac610cff565b34801561044b575f5ffd5b50600454610324906001600160a01b031681565b34801561046a575f5ffd5b5061035b612af881565b34801561047f575f5ffd5b506102d161048e366004611897565b610e1b565b34801561049e575f5ffd5b5061035b5f81565b3480156104b1575f5ffd5b506102ac6104c036600461186c565b610e51565b3480156104d0575f5ffd5b505f54610324906001600160a01b031681565b6102ac6104f136600461186c565b610eac565b348015610501575f5ffd5b50600154610324906001600160a01b031681565b348015610520575f5ffd5b506102ac61052f366004611920565b610fd9565b34801561053f575f5ffd5b5061035b60055481565b348015610554575f5ffd5b506102ac610563366004611897565b6111fd565b348015610573575f5ffd5b506102ac610582366004611897565b6113d6565b348015610592575f5ffd5b5061035b6105a13660046119e1565b6113f2565b3480156105b1575f5ffd5b5061035b6115e8565b3480156105c5575f5ffd5b50600354610324906001600160a01b031681565b5f6001600160e01b03198216637965db0b60e01b148061060957506301ffc9a760e01b6001600160e01b03198316145b92915050565b5f516020611d025f395f51905f5261062681611657565b6005545f8313156106435761063b8382611a39565b600555610690565b5f83121561068b575f61065584611a4c565b90508181111561067857604051630fc12e3560e11b815260040160405180910390fd5b6106828183611a66565b60055550610690565b505050565b6005546040805185815260208101929092527fabc1e0200cea3daa5c1d23d3df8212b5b114ee4bb8800bc01d8c2a7f93641d02910160405180910390a1505b5050565b5f9081525f516020611ce25f395f51905f52602052604090206001015490565b6106fc826106d3565b61070581611657565b61070f8383611664565b50505050565b6001600160a01b038116331461073e5760405163334bd91960e11b815260040160405180910390fd5b61068b8282611705565b805f0361076857604051631f2a200560e01b815260040160405180910390fd5b6001546040516323b872dd60e01b8152336004820152306024820152604481018390525f916001600160a01b0316906323b872dd906064016020604051808303815f875af11580156107bc573d5f5f3e3d5ffd5b505050506040513d601f19601f820116820180604052508101906107e09190611a79565b905080610800576040516312171d8360e31b815260040160405180910390fd5b6040518281525f516020611cc25f395f51905f529060200160405180910390a15f54604051630cf7fe9560e31b8152600481018490526001600160a01b03909116906367bff4a8906024015b5f604051808303815f87803b158015610863575f5ffd5b505af1158015610875573d5f5f3e3d5ffd5b505050505050565b7f7f61e2b6df76d800cd249804cfbce4bce022e89227550287211f04d6f3b464e76108a781611657565b6001600160a01b0384166108ce5760405163d92e233d60e01b815260040160405180910390fd5b825f036108ee57604051631f2a200560e01b815260040160405180910390fd5b600480546040516365ab8c7160e01b81525f926001600160a01b03909216916365ab8c719161091f91879101611ac0565b6060604051808303815f875af115801561093b573d5f5f3e3d5ffd5b505050506040513d601f19601f8201168201806040525081019061095f9190611b59565b6001546040516370a0823160e01b81523060048201529192505f916001600160a01b03909116906370a0823190602401602060405180830381865afa1580156109aa573d5f5f3e3d5ffd5b505050506040513d601f19601f820116820180604052508101906109ce9190611827565b60055490915081861115610a0a5760405163391434e360e21b815230600482015260248101839052604481018790526064015b60405180910390fd5b5f610a158784611a66565b90508115610bc5576003546040805163efa7fa5d60e01b815290515f926001600160a01b03169163efa7fa5d9160048083019260209291908290030181865afa158015610a64573d5f5f3e3d5ffd5b505050506040513d601f19601f82011682018060405250810190610a889190611827565b90505f60035f9054906101000a90046001600160a01b03166001600160a01b031663a42c69a96040518163ffffffff1660e01b8152600401602060405180830381865afa158015610adb573d5f5f3e3d5ffd5b505050506040513d601f19601f82011682018060405250810190610aff9190611827565b610b098386611b9d565b610b139190611bb4565b9050805f03610b3557604051630fc12e3560e11b815260040160405180910390fd5b85515f03610b5657604051631f2a200560e01b815260040160405180910390fd5b5f866020015160ff16600a610b6b9190611cb6565b8751610b779086611b9d565b610b819190611bb4565b90505f82610b9183612710611b9d565b610b9b9190611bb4565b9050612af8811015610bc05760405163133804c360e01b815260040160405180910390fd5b505050505b60015460405163a9059cbb60e01b81526001600160a01b038a81166004830152602482018a90525f92169063a9059cbb906044016020604051808303815f875af1158015610c15573d5f5f3e3d5ffd5b505050506040513d601f19601f82011682018060405250810190610c399190611a79565b905080610c59576040516312171d8360e31b815260040160405180910390fd5b886001600160a01b03167f370ef93e54c934af17869115596b96ef88d1454cd91736e1d7ae0efdaa62686f89604051610c9491815260200190565b60405180910390a25f54604051630722240b60e31b8152600481018a90526001600160a01b03909116906339112058906024015f604051808303815f87803b158015610cde575f5ffd5b505af1158015610cf0573d5f5f3e3d5ffd5b50505050505050505050505050565b345f819003610d2157604051631f2a200560e01b815260040160405180910390fd5b60025460405163a1903eab60e01b81525f60048201819052916001600160a01b03169063a1903eab90849060240160206040518083038185885af193505050508015610d8a575060408051601f3d908101601f19168201909252610d8791810190611827565b60015b610da7576040516312171d8360e31b815260040160405180910390fd5b809150815f03610dca576040516312171d8360e31b815260040160405180910390fd5b506040518181525f516020611cc25f395f51905f529060200160405180910390a15f54604051630cf7fe9560e31b8152600481018390526001600160a01b03909116906367bff4a89060240161084c565b5f9182525f516020611ce25f395f51905f52602090815260408084206001600160a01b0393909316845291905290205460ff1690565b5f516020611d025f395f51905f52610e6881611657565b815f03610e8857604051631f2a200560e01b815260040160405180910390fd5b6040518281525f516020611cc25f395f51905f529060200160405180910390a15050565b5f516020611d025f395f51905f52610ec381611657565b3480158015610ed0575082155b15610eee57604051631f2a200560e01b815260040160405180910390fd5b5f8115610f9f5760025460405163a1903eab60e01b81525f60048201526001600160a01b039091169063a1903eab90849060240160206040518083038185885af193505050508015610f5d575060408051601f3d908101601f19168201909252610f5a91810190611827565b60015b610f7a576040516312171d8360e31b815260040160405180910390fd5b809150815f03610f9d576040516312171d8360e31b815260040160405180910390fd5b505b5f610faa8583611a39565b90505f516020611cc25f395f51905f5281604051610fca91815260200190565b60405180910390a15050505050565b5f610fe261177e565b805490915060ff600160401b820416159067ffffffffffffffff165f811580156110095750825b90505f8267ffffffffffffffff1660011480156110255750303b155b905081158015611033575080155b156110515760405163f92ee8a960e01b815260040160405180910390fd5b845467ffffffffffffffff19166001178555831561107b57845460ff60401b1916600160401b1785555b6110836117a6565b6001600160a01b038b1615806110a057506001600160a01b038a16155b806110b257506001600160a01b038916155b806110c457506001600160a01b038816155b806110d657506001600160a01b038716155b806110e857506001600160a01b038616155b156111065760405163d92e233d60e01b815260040160405180910390fd5b5f80546001600160a01b03199081166001600160a01b038e81169190911783556001805483168d83161790556002805483168c83161790556003805483168b8316179055600480549092169089161790556005819055611166908c611664565b5061117e5f516020611d025f395f51905f528c611664565b506111a97f7f61e2b6df76d800cd249804cfbce4bce022e89227550287211f04d6f3b464e78b611664565b5083156111f057845460ff60401b19168555604051600181527fc7f505b2f371ae2175ee4913f4499e1f2633a7b5936321eed1cdaeb6115181d29060200160405180910390a15b5050505050505050505050565b5f516020611d025f395f51905f5261121481611657565b825f0361123457604051631f2a200560e01b815260040160405180910390fd5b6001600160a01b03821661125b5760405163d92e233d60e01b815260040160405180910390fd5b6001546040516370a0823160e01b81523060048201525f916001600160a01b0316906370a0823190602401602060405180830381865afa1580156112a1573d5f5f3e3d5ffd5b505050506040513d601f19601f820116820180604052508101906112c59190611827565b9050808411156112f85760405163391434e360e21b81523060048201526024810182905260448101859052606401610a01565b60015460405163a9059cbb60e01b81526001600160a01b038581166004830152602482018790525f92169063a9059cbb906044016020604051808303815f875af1158015611348573d5f5f3e3d5ffd5b505050506040513d601f19601f8201168201806040525081019061136c9190611a79565b90508061138c576040516312171d8360e31b815260040160405180910390fd5b836001600160a01b03167f12c7466676da8453fdc8fb091f1a24d31919043a79a50ebe022867a5f5c1ed34866040516113c791815260200190565b60405180910390a25050505050565b6113df826106d3565b6113e881611657565b61070f8383611705565b6005545f9080820361140757505f1992915050565b6001546040516370a0823160e01b81523060048201525f916001600160a01b0316906370a0823190602401602060405180830381865afa15801561144d573d5f5f3e3d5ffd5b505050506040513d601f19601f820116820180604052508101906114719190611827565b9050805f0361148357505f9392505050565b5f846020015160ff16600a6114989190611cb6565b85516114a49084611b9d565b6114ae9190611bb4565b90505f60035f9054906101000a90046001600160a01b03166001600160a01b031663efa7fa5d6040518163ffffffff1660e01b8152600401602060405180830381865afa158015611501573d5f5f3e3d5ffd5b505050506040513d601f19601f820116820180604052508101906115259190611827565b90505f60035f9054906101000a90046001600160a01b03166001600160a01b031663a42c69a96040518163ffffffff1660e01b8152600401602060405180830381865afa158015611578573d5f5f3e3d5ffd5b505050506040513d601f19601f8201168201806040525081019061159c9190611827565b6115a68387611b9d565b6115b09190611bb4565b9050805f036115c657505f199695505050505050565b806115d384612710611b9d565b6115dd9190611bb4565b979650505050505050565b6001546040516370a0823160e01b81523060048201525f916001600160a01b0316906370a0823190602401602060405180830381865afa15801561162e573d5f5f3e3d5ffd5b505050506040513d601f19601f820116820180604052508101906116529190611827565b905090565b61166181336117b0565b50565b5f5f516020611ce25f395f51905f5261167d8484610e1b565b6116fc575f848152602082815260408083206001600160a01b03871684529091529020805460ff191660011790556116b23390565b6001600160a01b0316836001600160a01b0316857f2f8788117e7eff1d82e926ec794901d17c78024a50270940304540a733656f0d60405160405180910390a46001915050610609565b5f915050610609565b5f5f516020611ce25f395f51905f5261171e8484610e1b565b156116fc575f848152602082815260408083206001600160a01b0387168085529252808320805460ff1916905551339287917ff6391f5c32d9c69d2a47ea670b442974b53935d1edc7fd64eb21e047a839171b9190a46001915050610609565b5f807ff0c57e16840df040f15088dc2f81fe391c3923bec73e23a9662efc9c229c6a00610609565b6117ae6117e9565b565b6117ba8282610e1b565b6106cf5760405163e2517d3f60e01b81526001600160a01b038216600482015260248101839052604401610a01565b6117f161180e565b6117ae57604051631afcd79f60e31b815260040160405180910390fd5b5f61181761177e565b54600160401b900460ff16919050565b5f60208284031215611837575f5ffd5b5051919050565b5f6020828403121561184e575f5ffd5b81356001600160e01b031981168114611865575f5ffd5b9392505050565b5f6020828403121561187c575f5ffd5b5035919050565b6001600160a01b0381168114611661575f5ffd5b5f5f604083850312156118a8575f5ffd5b8235915060208301356118ba81611883565b809150509250929050565b5f5f5f606084860312156118d7575f5ffd5b83356118e281611883565b925060208401359150604084013567ffffffffffffffff811115611904575f5ffd5b840160a08187031215611915575f5ffd5b809150509250925092565b5f5f5f5f5f5f60c08789031215611935575f5ffd5b863561194081611883565b9550602087013561195081611883565b9450604087013561196081611883565b9350606087013561197081611883565b9250608087013561198081611883565b915060a087013561199081611883565b809150509295509295509295565b6040516060810167ffffffffffffffff811182821017156119cd57634e487b7160e01b5f52604160045260245ffd5b60405290565b60ff81168114611661575f5ffd5b5f60608284031280156119f2575f5ffd5b506119fb61199e565b823581526020830135611a0d816119d3565b60208201526040928301359281019290925250919050565b634e487b7160e01b5f52601160045260245ffd5b8082018082111561060957610609611a25565b5f600160ff1b8201611a6057611a60611a25565b505f0390565b8181038181111561060957610609611a25565b5f60208284031215611a89575f5ffd5b81518015158114611865575f5ffd5b81835281816020850137505f828201602090810191909152601f909101601f19169091010190565b60208082528235828201525f90830135611ad9816119d3565b60ff1660408381019190915283013560608084019190915283013560808084019190915283013536849003601e19018112611b12575f5ffd5b830160208101903567ffffffffffffffff811115611b2e575f5ffd5b803603821315611b3c575f5ffd5b60a080850152611b5060c085018284611a98565b95945050505050565b5f6060828403128015611b6a575f5ffd5b50611b7361199e565b825181526020830151611b85816119d3565b60208201526040928301519281019290925250919050565b808202811582820484141761060957610609611a25565b5f82611bce57634e487b7160e01b5f52601260045260245ffd5b500490565b6001815b6001841115611c0e57808504811115611bf257611bf2611a25565b6001841615611c0057908102905b60019390931c928002611bd7565b935093915050565b5f82611c2457506001610609565b81611c3057505f610609565b8160018114611c465760028114611c5057611c6c565b6001915050610609565b60ff841115611c6157611c61611a25565b50506001821b610609565b5060208310610133831016604e8410600b8410161715611c8f575081810a610609565b611c9b5f198484611bd3565b805f1904821115611cae57611cae611a25565b029392505050565b5f6118658383611c1656fe206d5f22994381488f76c20f193ebf898daf960461a61d40e68e1641f62d8c5d02dd7bc7dec4dceedda775e58dd541e08a116c6c53815c0bd028192f7b626800079847024f21c1f5f8d88daf6764f03ddd70ce4acc6aa7104a85233fe5a76995a26469706673582212203af7741800315a839f13443c8d42bdb3b690f9ae2c1c634b9636404b695aff6964736f6c634300081d0033","linkReferences":{}},"methodIdentifiers":{"DEFAULT_ADMIN_ROLE()":"a217fddf","EXCESSCOLLATERALMANAGER_ROLE()":"68b2f94a","MINIMUM_COLLATERAL_RATIO()":"82882f8a","STABILIZER_ROLE()":"4699643b","addCollateral(uint256)":"bcc46e83","addCollateralEth()":"769ef03d","addCollateralFromStabilizer(uint256)":"bf3fdde7","addCollateralStETH(uint256)":"571a1e28","backedPoolShares()":"d39aa95a","getCollateralizationRatio((uint256,uint8,uint256))":"dc607d6f","getCurrentStEthBalance()":"ee5f4407","getRoleAdmin(bytes32)":"248a9ca3","grantRole(bytes32,address)":"2f2ff15d","hasRole(bytes32,address)":"91d14854","initialize(address,address,address,address,address,address)":"cc2a9a5b","lido()":"23509a2d","modifyAllocation(int256)":"0bfd07fc","oracle()":"7dc0d1d0","rateContract()":"eee24219","removeCollateral(uint256,address)":"d41ddc96","removeExcessCollateral(address,uint256,(uint256,uint8,uint256,bytes32,bytes))":"618f8027","renounceRole(bytes32,address)":"36568abe","revokeRole(bytes32,address)":"d547741f","stETH()":"c1fe3e48","stabilizerNFTContract()":"bec070d6","supportsInterface(bytes4)":"01ffc9a7"},"storageLayout":{"storage":[{"astId":56876,"contract":"src/PositionEscrow.sol:PositionEscrow","label":"stabilizerNFTContract","offset":0,"slot":"0","type":"t_address"},{"astId":56879,"contract":"src/PositionEscrow.sol:PositionEscrow","label":"stETH","offset":0,"slot":"1","type":"t_address"},{"astId":56882,"contract":"src/PositionEscrow.sol:PositionEscrow","label":"lido","offset":0,"slot":"2","type":"t_address"},{"astId":56885,"contract":"src/PositionEscrow.sol:PositionEscrow","label":"rateContract","offset":0,"slot":"3","type":"t_address"},{"astId":56888,"contract":"src/PositionEscrow.sol:PositionEscrow","label":"oracle","offset":0,"slot":"4","type":"t_address"},{"astId":56891,"contract":"src/PositionEscrow.sol:PositionEscrow","label":"backedPoolShares","offset":0,"slot":"5","type":"t_uint256"}],"types":{"t_address":{"encoding":"inplace","label":"address","numberOfBytes":"20"},"t_uint256":{"encoding":"inplace","label":"uint256","numberOfBytes":"32"}}},"id":93}