{"abi":[{"type":"constructor","inputs":[],"stateMutability":"nonpayable"},{"type":"receive","stateMutability":"payable"},{"type":"function","name":"DEFAULT_ADMIN_ROLE","inputs":[],"outputs":[{"name":"","type":"bytes32","internalType":"bytes32"}],"stateMutability":"view"},{"type":"function","name":"EXCESSCOLLATERALMANAGER_ROLE","inputs":[],"outputs":[{"name":"","type":"bytes32","internalType":"bytes32"}],"stateMutability":"view"},{"type":"function","name":"MINIMUM_COLLATERAL_RATIO","inputs":[],"outputs":[{"name":"","type":"uint256","internalType":"uint256"}],"stateMutability":"view"},{"type":"function","name":"STABILIZER_ROLE","inputs":[],"outputs":[{"name":"","type":"bytes32","internalType":"bytes32"}],"stateMutability":"view"},{"type":"function","name":"addCollateral","inputs":[{"name":"totalStEthAmount","type":"uint256","internalType":"uint256"}],"outputs":[],"stateMutability":"nonpayable"},{"type":"function","name":"addCollateralEth","inputs":[],"outputs":[],"stateMutability":"payable"},{"type":"function","name":"addCollateralFromStabilizer","inputs":[{"name":"stabilizerStEthAmount","type":"uint256","internalType":"uint256"}],"outputs":[],"stateMutability":"payable"},{"type":"function","name":"addCollateralStETH","inputs":[{"name":"stETHAmount","type":"uint256","internalType":"uint256"}],"outputs":[],"stateMutability":"nonpayable"},{"type":"function","name":"backedPoolShares","inputs":[],"outputs":[{"name":"","type":"uint256","internalType":"uint256"}],"stateMutability":"view"},{"type":"function","name":"getCollateralizationRatio","inputs":[{"name":"priceResponse","type":"tuple","internalType":"struct IPriceOracle.PriceResponse","components":[{"name":"price","type":"uint256","internalType":"uint256"},{"name":"decimals","type":"uint8","internalType":"uint8"},{"name":"timestamp","type":"uint256","internalType":"uint256"}]}],"outputs":[{"name":"ratio","type":"uint256","internalType":"uint256"}],"stateMutability":"view"},{"type":"function","name":"getCurrentStEthBalance","inputs":[],"outputs":[{"name":"balance","type":"uint256","internalType":"uint256"}],"stateMutability":"view"},{"type":"function","name":"getRoleAdmin","inputs":[{"name":"role","type":"bytes32","internalType":"bytes32"}],"outputs":[{"name":"","type":"bytes32","internalType":"bytes32"}],"stateMutability":"view"},{"type":"function","name":"grantRole","inputs":[{"name":"role","type":"bytes32","internalType":"bytes32"},{"name":"account","type":"address","internalType":"address"}],"outputs":[],"stateMutability":"nonpayable"},{"type":"function","name":"hasRole","inputs":[{"name":"role","type":"bytes32","internalType":"bytes32"},{"name":"account","type":"address","internalType":"address"}],"outputs":[{"name":"","type":"bool","internalType":"bool"}],"stateMutability":"view"},{"type":"function","name":"initialize","inputs":[{"name":"_stabilizerNFT","type":"address","internalType":"address"},{"name":"_stabilizerOwner","type":"address","internalType":"address"},{"name":"_stETHAddress","type":"address","internalType":"address"},{"name":"_lidoAddress","type":"address","internalType":"address"},{"name":"_rateContractAddress","type":"address","internalType":"address"},{"name":"_oracleAddress","type":"address","internalType":"address"}],"outputs":[],"stateMutability":"nonpayable"},{"type":"function","name":"lido","inputs":[],"outputs":[{"name":"","type":"address","internalType":"address"}],"stateMutability":"view"},{"type":"function","name":"modifyAllocation","inputs":[{"name":"sharesDelta","type":"int256","internalType":"int256"}],"outputs":[],"stateMutability":"nonpayable"},{"type":"function","name":"oracle","inputs":[],"outputs":[{"name":"","type":"address","internalType":"address"}],"stateMutability":"view"},{"type":"function","name":"rateContract","inputs":[],"outputs":[{"name":"","type":"address","internalType":"address"}],"stateMutability":"view"},{"type":"function","name":"removeCollateral","inputs":[{"name":"amountToRemove","type":"uint256","internalType":"uint256"},{"name":"recipient","type":"address","internalType":"address"}],"outputs":[],"stateMutability":"nonpayable"},{"type":"function","name":"removeExcessCollateral","inputs":[{"name":"recipient","type":"address","internalType":"address payable"},{"name":"amountToRemove","type":"uint256","internalType":"uint256"},{"name":"priceQuery","type":"tuple","internalType":"struct IPriceOracle.PriceAttestationQuery","components":[{"name":"price","type":"uint256","internalType":"uint256"},{"name":"decimals","type":"uint8","internalType":"uint8"},{"name":"dataTimestamp","type":"uint256","internalType":"uint256"},{"name":"assetPair","type":"bytes32","internalType":"bytes32"},{"name":"signature","type":"bytes","internalType":"bytes"}]}],"outputs":[],"stateMutability":"nonpayable"},{"type":"function","name":"renounceRole","inputs":[{"name":"role","type":"bytes32","internalType":"bytes32"},{"name":"callerConfirmation","type":"address","internalType":"address"}],"outputs":[],"stateMutability":"nonpayable"},{"type":"function","name":"revokeRole","inputs":[{"name":"role","type":"bytes32","internalType":"bytes32"},{"name":"account","type":"address","internalType":"address"}],"outputs":[],"stateMutability":"nonpayable"},{"type":"function","name":"stETH","inputs":[],"outputs":[{"name":"","type":"address","internalType":"address"}],"stateMutability":"view"},{"type":"function","name":"stabilizerNFTContract","inputs":[],"outputs":[{"name":"","type":"address","internalType":"address"}],"stateMutability":"view"},{"type":"function","name":"supportsInterface","inputs":[{"name":"interfaceId","type":"bytes4","internalType":"bytes4"}],"outputs":[{"name":"","type":"bool","internalType":"bool"}],"stateMutability":"view"},{"type":"event","name":"AllocationModified","inputs":[{"name":"sharesDelta","type":"int256","indexed":false,"internalType":"int256"},{"name":"newTotalShares","type":"uint256","indexed":false,"internalType":"uint256"}],"anonymous":false},{"type":"event","name":"CollateralAdded","inputs":[{"name":"totalStEthAmount","type":"uint256","indexed":false,"internalType":"uint256"}],"anonymous":false},{"type":"event","name":"CollateralRemoved","inputs":[{"name":"recipient","type":"address","indexed":true,"internalType":"address"},{"name":"amount","type":"uint256","indexed":false,"internalType":"uint256"}],"anonymous":false},{"type":"event","name":"ExcessCollateralRemoved","inputs":[{"name":"recipient","type":"address","indexed":true,"internalType":"address"},{"name":"amount","type":"uint256","indexed":false,"internalType":"uint256"}],"anonymous":false},{"type":"event","name":"Initialized","inputs":[{"name":"version","type":"uint64","indexed":false,"internalType":"uint64"}],"anonymous":false},{"type":"event","name":"RoleAdminChanged","inputs":[{"name":"role","type":"bytes32","indexed":true,"internalType":"bytes32"},{"name":"previousAdminRole","type":"bytes32","indexed":true,"internalType":"bytes32"},{"name":"newAdminRole","type":"bytes32","indexed":true,"internalType":"bytes32"}],"anonymous":false},{"type":"event","name":"RoleGranted","inputs":[{"name":"role","type":"bytes32","indexed":true,"internalType":"bytes32"},{"name":"account","type":"address","indexed":true,"internalType":"address"},{"name":"sender","type":"address","indexed":true,"internalType":"address"}],"anonymous":false},{"type":"event","name":"RoleRevoked","inputs":[{"name":"role","type":"bytes32","indexed":true,"internalType":"bytes32"},{"name":"account","type":"address","indexed":true,"internalType":"address"},{"name":"sender","type":"address","indexed":true,"internalType":"address"}],"anonymous":false},{"type":"error","name":"AccessControlBadConfirmation","inputs":[]},{"type":"error","name":"AccessControlUnauthorizedAccount","inputs":[{"name":"account","type":"address","internalType":"address"},{"name":"neededRole","type":"bytes32","internalType":"bytes32"}]},{"type":"error","name":"ArithmeticError","inputs":[]},{"type":"error","name":"BelowMinimumRatio","inputs":[]},{"type":"error","name":"ERC20InsufficientAllowance","inputs":[{"name":"spender","type":"address","internalType":"address"},{"name":"allowance","type":"uint256","internalType":"uint256"},{"name":"needed","type":"uint256","internalType":"uint256"}]},{"type":"error","name":"ERC20InsufficientBalance","inputs":[{"name":"sender","type":"address","internalType":"address"},{"name":"balance","type":"uint256","internalType":"uint256"},{"name":"needed","type":"uint256","internalType":"uint256"}]},{"type":"error","name":"ERC20InvalidApprover","inputs":[{"name":"approver","type":"address","internalType":"address"}]},{"type":"error","name":"ERC20InvalidReceiver","inputs":[{"name":"receiver","type":"address","internalType":"address"}]},{"type":"error","name":"ERC20InvalidSender","inputs":[{"name":"sender","type":"address","internalType":"address"}]},{"type":"error","name":"ERC20InvalidSpender","inputs":[{"name":"spender","type":"address","internalType":"address"}]},{"type":"error","name":"InvalidInitialization","inputs":[]},{"type":"error","name":"NotInitializing","inputs":[]},{"type":"error","name":"TransferFailed","inputs":[]},{"type":"error","name":"ZeroAddress","inputs":[]},{"type":"error","name":"ZeroAmount","inputs":[]}],"bytecode":{"object":"0x6080604052348015600e575f5ffd5b5060156019565b60c9565b7ff0c57e16840df040f15088dc2f81fe391c3923bec73e23a9662efc9c229c6a00805468010000000000000000900460ff161560685760405163f92ee8a960e01b815260040160405180910390fd5b80546001600160401b039081161460c65780546001600160401b0319166001600160401b0390811782556040519081527fc7f505b2f371ae2175ee4913f4499e1f2633a7b5936321eed1cdaeb6115181d29060200160405180910390a15b50565b611d52806100d65f395ff3fe60806040526004361061017e575f3560e01c806391d14854116100cd578063cc2a9a5b11610087578063d547741f11610062578063d547741f14610568578063dc607d6f14610587578063ee5f4407146105a6578063eee24219146105ba575f5ffd5b8063cc2a9a5b14610515578063d39aa95a14610534578063d41ddc9614610549575f5ffd5b806391d1485414610474578063a217fddf14610493578063bcc46e83146104a6578063bec070d6146104c5578063bf3fdde7146104e3578063c1fe3e48146104f6575f5ffd5b80634699643b1161013857806368b2f94a1161011357806368b2f94a14610405578063769ef03d146104385780637dc0d1d01461044057806382882f8a1461045f575f5ffd5b80634699643b146103a7578063571a1e28146103c7578063618f8027146103e6575f5ffd5b806301ffc9a7146102b25780630bfd07fc146102e657806323509a2d14610305578063248a9ca31461033c5780632f2ff15d1461036957806336568abe14610388575f5ffd5b366102ae57345f81900361018e57005b60025460405163a1903eab60e01b81525f60048201819052916001600160a01b03169063a1903eab90849060240160206040518083038185885af1935050505080156101f7575060408051601f3d908101601f191682019092526101f491810190611822565b60015b610214576040516312171d8360e31b815260040160405180910390fd5b809150815f03610237576040516312171d8360e31b815260040160405180910390fd5b506040518181525f516020611cbd5f395f51905f529060200160405180910390a15f54604051630cf7fe9560e31b8152600481018390526001600160a01b03909116906367bff4a8906024015f604051808303815f87803b15801561029a575f5ffd5b505af11580156102ac573d5f5f3e3d5ffd5b005b5f5ffd5b3480156102bd575f5ffd5b506102d16102cc366004611839565b6105d9565b60405190151581526020015b60405180910390f35b3480156102f1575f5ffd5b506102ac610300366004611867565b61060f565b348015610310575f5ffd5b50600254610324906001600160a01b031681565b6040516001600160a01b0390911681526020016102dd565b348015610347575f5ffd5b5061035b610356366004611867565b6106d3565b6040519081526020016102dd565b348015610374575f5ffd5b506102ac610383366004611892565b6106f3565b348015610393575f5ffd5b506102ac6103a2366004611892565b610715565b3480156103b2575f5ffd5b5061035b5f516020611cfd5f395f51905f5281565b3480156103d2575f5ffd5b506102ac6103e1366004611867565b610748565b3480156103f1575f5ffd5b506102ac6104003660046118c0565b61087d565b348015610410575f5ffd5b5061035b7f7f61e2b6df76d800cd249804cfbce4bce022e89227550287211f04d6f3b464e781565b6102ac610cff565b34801561044b575f5ffd5b50600454610324906001600160a01b031681565b34801561046a575f5ffd5b5061035b612af881565b34801561047f575f5ffd5b506102d161048e366004611892565b610e1b565b34801561049e575f5ffd5b5061035b5f81565b3480156104b1575f5ffd5b506102ac6104c0366004611867565b610e51565b3480156104d0575f5ffd5b505f54610324906001600160a01b031681565b6102ac6104f1366004611867565b610eac565b348015610501575f5ffd5b50600154610324906001600160a01b031681565b348015610520575f5ffd5b506102ac61052f36600461191b565b610fd9565b34801561053f575f5ffd5b5061035b60055481565b348015610554575f5ffd5b506102ac610563366004611892565b6111f8565b348015610573575f5ffd5b506102ac610582366004611892565b6113d1565b348015610592575f5ffd5b5061035b6105a13660046119dc565b6113ed565b3480156105b1575f5ffd5b5061035b6115e3565b3480156105c5575f5ffd5b50600354610324906001600160a01b031681565b5f6001600160e01b03198216637965db0b60e01b148061060957506301ffc9a760e01b6001600160e01b03198316145b92915050565b5f516020611cfd5f395f51905f5261062681611652565b6005545f8313156106435761063b8382611a34565b600555610690565b5f83121561068b575f61065584611a47565b90508181111561067857604051630fc12e3560e11b815260040160405180910390fd5b6106828183611a61565b60055550610690565b505050565b6005546040805185815260208101929092527fabc1e0200cea3daa5c1d23d3df8212b5b114ee4bb8800bc01d8c2a7f93641d02910160405180910390a1505b5050565b5f9081525f516020611cdd5f395f51905f52602052604090206001015490565b6106fc826106d3565b61070581611652565b61070f838361165f565b50505050565b6001600160a01b038116331461073e5760405163334bd91960e11b815260040160405180910390fd5b61068b8282611700565b805f0361076857604051631f2a200560e01b815260040160405180910390fd5b6001546040516323b872dd60e01b8152336004820152306024820152604481018390525f916001600160a01b0316906323b872dd906064016020604051808303815f875af11580156107bc573d5f5f3e3d5ffd5b505050506040513d601f19601f820116820180604052508101906107e09190611a74565b905080610800576040516312171d8360e31b815260040160405180910390fd5b6040518281525f516020611cbd5f395f51905f529060200160405180910390a15f54604051630cf7fe9560e31b8152600481018490526001600160a01b03909116906367bff4a8906024015b5f604051808303815f87803b158015610863575f5ffd5b505af1158015610875573d5f5f3e3d5ffd5b505050505050565b7f7f61e2b6df76d800cd249804cfbce4bce022e89227550287211f04d6f3b464e76108a781611652565b6001600160a01b0384166108ce5760405163d92e233d60e01b815260040160405180910390fd5b825f036108ee57604051631f2a200560e01b815260040160405180910390fd5b600480546040516365ab8c7160e01b81525f926001600160a01b03909216916365ab8c719161091f91879101611abb565b6060604051808303815f875af115801561093b573d5f5f3e3d5ffd5b505050506040513d601f19601f8201168201806040525081019061095f9190611b54565b6001546040516370a0823160e01b81523060048201529192505f916001600160a01b03909116906370a0823190602401602060405180830381865afa1580156109aa573d5f5f3e3d5ffd5b505050506040513d601f19601f820116820180604052508101906109ce9190611822565b60055490915081861115610a0a5760405163391434e360e21b815230600482015260248101839052604481018790526064015b60405180910390fd5b5f610a158784611a61565b90508115610bc5576003546040805163efa7fa5d60e01b815290515f926001600160a01b03169163efa7fa5d9160048083019260209291908290030181865afa158015610a64573d5f5f3e3d5ffd5b505050506040513d601f19601f82011682018060405250810190610a889190611822565b90505f60035f9054906101000a90046001600160a01b03166001600160a01b031663a42c69a96040518163ffffffff1660e01b8152600401602060405180830381865afa158015610adb573d5f5f3e3d5ffd5b505050506040513d601f19601f82011682018060405250810190610aff9190611822565b610b098386611b98565b610b139190611baf565b9050805f03610b3557604051630fc12e3560e11b815260040160405180910390fd5b85515f03610b5657604051631f2a200560e01b815260040160405180910390fd5b5f866020015160ff16600a610b6b9190611cb1565b8751610b779086611b98565b610b819190611baf565b90505f82610b9183612710611b98565b610b9b9190611baf565b9050612af8811015610bc05760405163133804c360e01b815260040160405180910390fd5b505050505b60015460405163a9059cbb60e01b81526001600160a01b038a81166004830152602482018a90525f92169063a9059cbb906044016020604051808303815f875af1158015610c15573d5f5f3e3d5ffd5b505050506040513d601f19601f82011682018060405250810190610c399190611a74565b905080610c59576040516312171d8360e31b815260040160405180910390fd5b886001600160a01b03167f370ef93e54c934af17869115596b96ef88d1454cd91736e1d7ae0efdaa62686f89604051610c9491815260200190565b60405180910390a25f54604051630722240b60e31b8152600481018a90526001600160a01b03909116906339112058906024015f604051808303815f87803b158015610cde575f5ffd5b505af1158015610cf0573d5f5f3e3d5ffd5b50505050505050505050505050565b345f819003610d2157604051631f2a200560e01b815260040160405180910390fd5b60025460405163a1903eab60e01b81525f60048201819052916001600160a01b03169063a1903eab90849060240160206040518083038185885af193505050508015610d8a575060408051601f3d908101601f19168201909252610d8791810190611822565b60015b610da7576040516312171d8360e31b815260040160405180910390fd5b809150815f03610dca576040516312171d8360e31b815260040160405180910390fd5b506040518181525f516020611cbd5f395f51905f529060200160405180910390a15f54604051630cf7fe9560e31b8152600481018390526001600160a01b03909116906367bff4a89060240161084c565b5f9182525f516020611cdd5f395f51905f52602090815260408084206001600160a01b0393909316845291905290205460ff1690565b5f516020611cfd5f395f51905f52610e6881611652565b815f03610e8857604051631f2a200560e01b815260040160405180910390fd5b6040518281525f516020611cbd5f395f51905f529060200160405180910390a15050565b5f516020611cfd5f395f51905f52610ec381611652565b3480158015610ed0575082155b15610eee57604051631f2a200560e01b815260040160405180910390fd5b5f8115610f9f5760025460405163a1903eab60e01b81525f60048201526001600160a01b039091169063a1903eab90849060240160206040518083038185885af193505050508015610f5d575060408051601f3d908101601f19168201909252610f5a91810190611822565b60015b610f7a576040516312171d8360e31b815260040160405180910390fd5b809150815f03610f9d576040516312171d8360e31b815260040160405180910390fd5b505b5f610faa8583611a34565b90505f516020611cbd5f395f51905f5281604051610fca91815260200190565b60405180910390a15050505050565b5f610fe2611779565b805490915060ff600160401b820416159067ffffffffffffffff165f811580156110095750825b90505f8267ffffffffffffffff1660011480156110255750303b155b905081158015611033575080155b156110515760405163f92ee8a960e01b815260040160405180910390fd5b845467ffffffffffffffff19166001178555831561107b57845460ff60401b1916600160401b1785555b6110836117a1565b6001600160a01b038b1615806110a057506001600160a01b038a16155b806110b257506001600160a01b038916155b806110c457506001600160a01b038816155b806110d657506001600160a01b038716155b806110e857506001600160a01b038616155b156111065760405163d92e233d60e01b815260040160405180910390fd5b5f80546001600160a01b03199081166001600160a01b038e81169190911783556001805483168d83161790556002805483168c83161790556003805483168b831617905560048054909216908916179055611161908c61165f565b506111795f516020611cfd5f395f51905f528c61165f565b506111a47f7f61e2b6df76d800cd249804cfbce4bce022e89227550287211f04d6f3b464e78b61165f565b5083156111eb57845460ff60401b19168555604051600181527fc7f505b2f371ae2175ee4913f4499e1f2633a7b5936321eed1cdaeb6115181d29060200160405180910390a15b5050505050505050505050565b5f516020611cfd5f395f51905f5261120f81611652565b825f0361122f57604051631f2a200560e01b815260040160405180910390fd5b6001600160a01b0382166112565760405163d92e233d60e01b815260040160405180910390fd5b6001546040516370a0823160e01b81523060048201525f916001600160a01b0316906370a0823190602401602060405180830381865afa15801561129c573d5f5f3e3d5ffd5b505050506040513d601f19601f820116820180604052508101906112c09190611822565b9050808411156112f35760405163391434e360e21b81523060048201526024810182905260448101859052606401610a01565b60015460405163a9059cbb60e01b81526001600160a01b038581166004830152602482018790525f92169063a9059cbb906044016020604051808303815f875af1158015611343573d5f5f3e3d5ffd5b505050506040513d601f19601f820116820180604052508101906113679190611a74565b905080611387576040516312171d8360e31b815260040160405180910390fd5b836001600160a01b03167f12c7466676da8453fdc8fb091f1a24d31919043a79a50ebe022867a5f5c1ed34866040516113c291815260200190565b60405180910390a25050505050565b6113da826106d3565b6113e381611652565b61070f8383611700565b6005545f9080820361140257505f1992915050565b6001546040516370a0823160e01b81523060048201525f916001600160a01b0316906370a0823190602401602060405180830381865afa158015611448573d5f5f3e3d5ffd5b505050506040513d601f19601f8201168201806040525081019061146c9190611822565b9050805f0361147e57505f9392505050565b5f846020015160ff16600a6114939190611cb1565b855161149f9084611b98565b6114a99190611baf565b90505f60035f9054906101000a90046001600160a01b03166001600160a01b031663efa7fa5d6040518163ffffffff1660e01b8152600401602060405180830381865afa1580156114fc573d5f5f3e3d5ffd5b505050506040513d601f19601f820116820180604052508101906115209190611822565b90505f60035f9054906101000a90046001600160a01b03166001600160a01b031663a42c69a96040518163ffffffff1660e01b8152600401602060405180830381865afa158015611573573d5f5f3e3d5ffd5b505050506040513d601f19601f820116820180604052508101906115979190611822565b6115a18387611b98565b6115ab9190611baf565b9050805f036115c157505f199695505050505050565b806115ce84612710611b98565b6115d89190611baf565b979650505050505050565b6001546040516370a0823160e01b81523060048201525f916001600160a01b0316906370a0823190602401602060405180830381865afa158015611629573d5f5f3e3d5ffd5b505050506040513d601f19601f8201168201806040525081019061164d9190611822565b905090565b61165c81336117ab565b50565b5f5f516020611cdd5f395f51905f526116788484610e1b565b6116f7575f848152602082815260408083206001600160a01b03871684529091529020805460ff191660011790556116ad3390565b6001600160a01b0316836001600160a01b0316857f2f8788117e7eff1d82e926ec794901d17c78024a50270940304540a733656f0d60405160405180910390a46001915050610609565b5f915050610609565b5f5f516020611cdd5f395f51905f526117198484610e1b565b156116f7575f848152602082815260408083206001600160a01b0387168085529252808320805460ff1916905551339287917ff6391f5c32d9c69d2a47ea670b442974b53935d1edc7fd64eb21e047a839171b9190a46001915050610609565b5f807ff0c57e16840df040f15088dc2f81fe391c3923bec73e23a9662efc9c229c6a00610609565b6117a96117e4565b565b6117b58282610e1b565b6106cf5760405163e2517d3f60e01b81526001600160a01b038216600482015260248101839052604401610a01565b6117ec611809565b6117a957604051631afcd79f60e31b815260040160405180910390fd5b5f611812611779565b54600160401b900460ff16919050565b5f60208284031215611832575f5ffd5b5051919050565b5f60208284031215611849575f5ffd5b81356001600160e01b031981168114611860575f5ffd5b9392505050565b5f60208284031215611877575f5ffd5b5035919050565b6001600160a01b038116811461165c575f5ffd5b5f5f604083850312156118a3575f5ffd5b8235915060208301356118b58161187e565b809150509250929050565b5f5f5f606084860312156118d2575f5ffd5b83356118dd8161187e565b925060208401359150604084013567ffffffffffffffff8111156118ff575f5ffd5b840160a08187031215611910575f5ffd5b809150509250925092565b5f5f5f5f5f5f60c08789031215611930575f5ffd5b863561193b8161187e565b9550602087013561194b8161187e565b9450604087013561195b8161187e565b9350606087013561196b8161187e565b9250608087013561197b8161187e565b915060a087013561198b8161187e565b809150509295509295509295565b6040516060810167ffffffffffffffff811182821017156119c857634e487b7160e01b5f52604160045260245ffd5b60405290565b60ff8116811461165c575f5ffd5b5f60608284031280156119ed575f5ffd5b506119f6611999565b823581526020830135611a08816119ce565b60208201526040928301359281019290925250919050565b634e487b7160e01b5f52601160045260245ffd5b8082018082111561060957610609611a20565b5f600160ff1b8201611a5b57611a5b611a20565b505f0390565b8181038181111561060957610609611a20565b5f60208284031215611a84575f5ffd5b81518015158114611860575f5ffd5b81835281816020850137505f828201602090810191909152601f909101601f19169091010190565b60208082528235828201525f90830135611ad4816119ce565b60ff1660408381019190915283013560608084019190915283013560808084019190915283013536849003601e19018112611b0d575f5ffd5b830160208101903567ffffffffffffffff811115611b29575f5ffd5b803603821315611b37575f5ffd5b60a080850152611b4b60c085018284611a93565b95945050505050565b5f6060828403128015611b65575f5ffd5b50611b6e611999565b825181526020830151611b80816119ce565b60208201526040928301519281019290925250919050565b808202811582820484141761060957610609611a20565b5f82611bc957634e487b7160e01b5f52601260045260245ffd5b500490565b6001815b6001841115611c0957808504811115611bed57611bed611a20565b6001841615611bfb57908102905b60019390931c928002611bd2565b935093915050565b5f82611c1f57506001610609565b81611c2b57505f610609565b8160018114611c415760028114611c4b57611c67565b6001915050610609565b60ff841115611c5c57611c5c611a20565b50506001821b610609565b5060208310610133831016604e8410600b8410161715611c8a575081810a610609565b611c965f198484611bce565b805f1904821115611ca957611ca9611a20565b029392505050565b5f6118608383611c1156fe206d5f22994381488f76c20f193ebf898daf960461a61d40e68e1641f62d8c5d02dd7bc7dec4dceedda775e58dd541e08a116c6c53815c0bd028192f7b626800079847024f21c1f5f8d88daf6764f03ddd70ce4acc6aa7104a85233fe5a76995a26469706673582212207409b71d25cc0a1b52f72aa913e13664e845ad52c0f12c7e737e258cf717750c64736f6c634300081d0033","linkReferences":{}},"methodIdentifiers":{"DEFAULT_ADMIN_ROLE()":"a217fddf","EXCESSCOLLATERALMANAGER_ROLE()":"68b2f94a","MINIMUM_COLLATERAL_RATIO()":"82882f8a","STABILIZER_ROLE()":"4699643b","addCollateral(uint256)":"bcc46e83","addCollateralEth()":"769ef03d","addCollateralFromStabilizer(uint256)":"bf3fdde7","addCollateralStETH(uint256)":"571a1e28","backedPoolShares()":"d39aa95a","getCollateralizationRatio((uint256,uint8,uint256))":"dc607d6f","getCurrentStEthBalance()":"ee5f4407","getRoleAdmin(bytes32)":"248a9ca3","grantRole(bytes32,address)":"2f2ff15d","hasRole(bytes32,address)":"91d14854","initialize(address,address,address,address,address,address)":"cc2a9a5b","lido()":"23509a2d","modifyAllocation(int256)":"0bfd07fc","oracle()":"7dc0d1d0","rateContract()":"eee24219","removeCollateral(uint256,address)":"d41ddc96","removeExcessCollateral(address,uint256,(uint256,uint8,uint256,bytes32,bytes))":"618f8027","renounceRole(bytes32,address)":"36568abe","revokeRole(bytes32,address)":"d547741f","stETH()":"c1fe3e48","stabilizerNFTContract()":"bec070d6","supportsInterface(bytes4)":"01ffc9a7"},"storageLayout":{"storage":[{"astId":52574,"contract":"src/PositionEscrow.sol:PositionEscrow","label":"stabilizerNFTContract","offset":0,"slot":"0","type":"t_address"},{"astId":52577,"contract":"src/PositionEscrow.sol:PositionEscrow","label":"stETH","offset":0,"slot":"1","type":"t_address"},{"astId":52580,"contract":"src/PositionEscrow.sol:PositionEscrow","label":"lido","offset":0,"slot":"2","type":"t_address"},{"astId":52583,"contract":"src/PositionEscrow.sol:PositionEscrow","label":"rateContract","offset":0,"slot":"3","type":"t_address"},{"astId":52586,"contract":"src/PositionEscrow.sol:PositionEscrow","label":"oracle","offset":0,"slot":"4","type":"t_address"},{"astId":52589,"contract":"src/PositionEscrow.sol:PositionEscrow","label":"backedPoolShares","offset":0,"slot":"5","type":"t_uint256"}],"types":{"t_address":{"encoding":"inplace","label":"address","numberOfBytes":"20"},"t_uint256":{"encoding":"inplace","label":"uint256","numberOfBytes":"32"}}},"id":75}