{"abi":[{"type":"constructor","inputs":[],"stateMutability":"nonpayable"},{"type":"receive","stateMutability":"payable"},{"type":"function","name":"DEFAULT_ADMIN_ROLE","inputs":[],"outputs":[{"name":"","type":"bytes32","internalType":"bytes32"}],"stateMutability":"view"},{"type":"function","name":"MINIMUM_COLLATERAL_RATIO","inputs":[],"outputs":[{"name":"","type":"uint256","internalType":"uint256"}],"stateMutability":"view"},{"type":"function","name":"STABILIZER_ROLE","inputs":[],"outputs":[{"name":"","type":"bytes32","internalType":"bytes32"}],"stateMutability":"view"},{"type":"function","name":"addCollateralEth","inputs":[],"outputs":[],"stateMutability":"payable"},{"type":"function","name":"addCollateralFromStabilizer","inputs":[{"name":"stabilizerStEthAmount","type":"uint256","internalType":"uint256"}],"outputs":[],"stateMutability":"payable"},{"type":"function","name":"addCollateralStETH","inputs":[{"name":"stETHAmount","type":"uint256","internalType":"uint256"}],"outputs":[],"stateMutability":"nonpayable"},{"type":"function","name":"backedPoolShares","inputs":[],"outputs":[{"name":"","type":"uint256","internalType":"uint256"}],"stateMutability":"view"},{"type":"function","name":"getCollateralizationRatio","inputs":[{"name":"priceResponse","type":"tuple","internalType":"struct IPriceOracle.PriceResponse","components":[{"name":"price","type":"uint256","internalType":"uint256"},{"name":"decimals","type":"uint8","internalType":"uint8"},{"name":"timestamp","type":"uint256","internalType":"uint256"}]}],"outputs":[{"name":"ratio","type":"uint256","internalType":"uint256"}],"stateMutability":"view"},{"type":"function","name":"getCurrentStEthBalance","inputs":[],"outputs":[{"name":"balance","type":"uint256","internalType":"uint256"}],"stateMutability":"view"},{"type":"function","name":"getRoleAdmin","inputs":[{"name":"role","type":"bytes32","internalType":"bytes32"}],"outputs":[{"name":"","type":"bytes32","internalType":"bytes32"}],"stateMutability":"view"},{"type":"function","name":"grantRole","inputs":[{"name":"role","type":"bytes32","internalType":"bytes32"},{"name":"account","type":"address","internalType":"address"}],"outputs":[],"stateMutability":"nonpayable"},{"type":"function","name":"hasRole","inputs":[{"name":"role","type":"bytes32","internalType":"bytes32"},{"name":"account","type":"address","internalType":"address"}],"outputs":[{"name":"","type":"bool","internalType":"bool"}],"stateMutability":"view"},{"type":"function","name":"initialize","inputs":[{"name":"_stabilizerNFT","type":"address","internalType":"address"},{"name":"_tokenId","type":"uint256","internalType":"uint256"},{"name":"_stETHAddress","type":"address","internalType":"address"},{"name":"_lidoAddress","type":"address","internalType":"address"},{"name":"_rateContractAddress","type":"address","internalType":"address"},{"name":"_oracleAddress","type":"address","internalType":"address"}],"outputs":[],"stateMutability":"nonpayable"},{"type":"function","name":"lido","inputs":[],"outputs":[{"name":"","type":"address","internalType":"address"}],"stateMutability":"view"},{"type":"function","name":"lockedStEth","inputs":[],"outputs":[{"name":"","type":"uint256","internalType":"uint256"}],"stateMutability":"view"},{"type":"function","name":"modifyAllocation","inputs":[{"name":"sharesDelta","type":"int256","internalType":"int256"}],"outputs":[],"stateMutability":"nonpayable"},{"type":"function","name":"oracle","inputs":[],"outputs":[{"name":"","type":"address","internalType":"address"}],"stateMutability":"view"},{"type":"function","name":"rateContract","inputs":[],"outputs":[{"name":"","type":"address","internalType":"address"}],"stateMutability":"view"},{"type":"function","name":"removeCollateral","inputs":[{"name":"amountToRemove","type":"uint256","internalType":"uint256"},{"name":"recipient","type":"address","internalType":"address"}],"outputs":[],"stateMutability":"nonpayable"},{"type":"function","name":"removeExcessCollateral","inputs":[{"name":"recipient","type":"address","internalType":"address payable"},{"name":"amountToRemove","type":"uint256","internalType":"uint256"},{"name":"priceQuery","type":"tuple","internalType":"struct IPriceOracle.PriceAttestationQuery","components":[{"name":"price","type":"uint256","internalType":"uint256"},{"name":"decimals","type":"uint8","internalType":"uint8"},{"name":"dataTimestamp","type":"uint256","internalType":"uint256"},{"name":"assetPair","type":"bytes32","internalType":"bytes32"},{"name":"signature","type":"bytes","internalType":"bytes"}]}],"outputs":[],"stateMutability":"nonpayable"},{"type":"function","name":"renounceRole","inputs":[{"name":"role","type":"bytes32","internalType":"bytes32"},{"name":"callerConfirmation","type":"address","internalType":"address"}],"outputs":[],"stateMutability":"nonpayable"},{"type":"function","name":"revokeRole","inputs":[{"name":"role","type":"bytes32","internalType":"bytes32"},{"name":"account","type":"address","internalType":"address"}],"outputs":[],"stateMutability":"nonpayable"},{"type":"function","name":"stETH","inputs":[],"outputs":[{"name":"","type":"address","internalType":"address"}],"stateMutability":"view"},{"type":"function","name":"stabilizerNFTContract","inputs":[],"outputs":[{"name":"","type":"address","internalType":"address"}],"stateMutability":"view"},{"type":"function","name":"supportsInterface","inputs":[{"name":"interfaceId","type":"bytes4","internalType":"bytes4"}],"outputs":[{"name":"","type":"bool","internalType":"bool"}],"stateMutability":"view"},{"type":"function","name":"tokenId","inputs":[],"outputs":[{"name":"","type":"uint256","internalType":"uint256"}],"stateMutability":"view"},{"type":"event","name":"AllocationModified","inputs":[{"name":"sharesDelta","type":"int256","indexed":false,"internalType":"int256"},{"name":"newTotalShares","type":"uint256","indexed":false,"internalType":"uint256"}],"anonymous":false},{"type":"event","name":"CollateralAdded","inputs":[{"name":"totalStEthAmount","type":"uint256","indexed":false,"internalType":"uint256"}],"anonymous":false},{"type":"event","name":"CollateralRemoved","inputs":[{"name":"recipient","type":"address","indexed":true,"internalType":"address"},{"name":"amount","type":"uint256","indexed":false,"internalType":"uint256"}],"anonymous":false},{"type":"event","name":"ExcessCollateralRemoved","inputs":[{"name":"recipient","type":"address","indexed":true,"internalType":"address"},{"name":"amount","type":"uint256","indexed":false,"internalType":"uint256"}],"anonymous":false},{"type":"event","name":"Initialized","inputs":[{"name":"version","type":"uint64","indexed":false,"internalType":"uint64"}],"anonymous":false},{"type":"event","name":"RoleAdminChanged","inputs":[{"name":"role","type":"bytes32","indexed":true,"internalType":"bytes32"},{"name":"previousAdminRole","type":"bytes32","indexed":true,"internalType":"bytes32"},{"name":"newAdminRole","type":"bytes32","indexed":true,"internalType":"bytes32"}],"anonymous":false},{"type":"event","name":"RoleGranted","inputs":[{"name":"role","type":"bytes32","indexed":true,"internalType":"bytes32"},{"name":"account","type":"address","indexed":true,"internalType":"address"},{"name":"sender","type":"address","indexed":true,"internalType":"address"}],"anonymous":false},{"type":"event","name":"RoleRevoked","inputs":[{"name":"role","type":"bytes32","indexed":true,"internalType":"bytes32"},{"name":"account","type":"address","indexed":true,"internalType":"address"},{"name":"sender","type":"address","indexed":true,"internalType":"address"}],"anonymous":false},{"type":"error","name":"AccessControlBadConfirmation","inputs":[]},{"type":"error","name":"AccessControlUnauthorizedAccount","inputs":[{"name":"account","type":"address","internalType":"address"},{"name":"neededRole","type":"bytes32","internalType":"bytes32"}]},{"type":"error","name":"ArithmeticError","inputs":[]},{"type":"error","name":"BelowMinimumRatio","inputs":[]},{"type":"error","name":"ERC20InsufficientAllowance","inputs":[{"name":"spender","type":"address","internalType":"address"},{"name":"allowance","type":"uint256","internalType":"uint256"},{"name":"needed","type":"uint256","internalType":"uint256"}]},{"type":"error","name":"ERC20InsufficientBalance","inputs":[{"name":"sender","type":"address","internalType":"address"},{"name":"balance","type":"uint256","internalType":"uint256"},{"name":"needed","type":"uint256","internalType":"uint256"}]},{"type":"error","name":"ERC20InvalidApprover","inputs":[{"name":"approver","type":"address","internalType":"address"}]},{"type":"error","name":"ERC20InvalidReceiver","inputs":[{"name":"receiver","type":"address","internalType":"address"}]},{"type":"error","name":"ERC20InvalidSender","inputs":[{"name":"sender","type":"address","internalType":"address"}]},{"type":"error","name":"ERC20InvalidSpender","inputs":[{"name":"spender","type":"address","internalType":"address"}]},{"type":"error","name":"InvalidInitialization","inputs":[]},{"type":"error","name":"NotInitializing","inputs":[]},{"type":"error","name":"NotNFTOwner","inputs":[]},{"type":"error","name":"TransferFailed","inputs":[]},{"type":"error","name":"ZeroAddress","inputs":[]},{"type":"error","name":"ZeroAmount","inputs":[]}],"bytecode":{"object":"0x6080604052348015600e575f5ffd5b5060156019565b60c9565b7ff0c57e16840df040f15088dc2f81fe391c3923bec73e23a9662efc9c229c6a00805468010000000000000000900460ff161560685760405163f92ee8a960e01b815260040160405180910390fd5b80546001600160401b039081161460c65780546001600160401b0319166001600160401b0390811782556040519081527fc7f505b2f371ae2175ee4913f4499e1f2633a7b5936321eed1cdaeb6115181d29060200160405180910390a15b50565b611be7806100d65f395ff3fe60806040526004361061017e575f3560e01c806391d14854116100cd578063d39aa95a11610087578063dc607d6f11610062578063dc607d6f14610560578063ee5f44071461057f578063eee2421914610593578063f362e626146105b2575f5ffd5b8063d39aa95a1461050d578063d41ddc9614610522578063d547741f14610541575f5ffd5b806391d148541461046c578063a217fddf1461048b578063a2dc2ab71461049e578063bec070d6146104bd578063bf3fdde7146104db578063c1fe3e48146104ee575f5ffd5b806336568abe11610138578063618f802711610113578063618f802714610411578063769ef03d146104305780637dc0d1d01461043857806382882f8a14610457575f5ffd5b806336568abe146103b35780634699643b146103d2578063571a1e28146103f2575f5ffd5b806301ffc9a7146102c85780630bfd07fc146102fc57806317d70f7c1461031b57806323509a2d1461033e578063248a9ca3146103755780632f2ff15d14610394575f5ffd5b366102c457345f81900361018e57005b60025460405163a1903eab60e01b81525f60048201819052916001600160a01b03169063a1903eab90849060240160206040518083038185885af1935050505080156101f7575060408051601f3d908101601f191682019092526101f4918101906116a5565b60015b610214576040516312171d8360e31b815260040160405180910390fd5b809150815f03610237576040516312171d8360e31b815260040160405180910390fd5b508060075f82825461024991906116d0565b90915550506040518181525f516020611b525f395f51905f529060200160405180910390a15f54604051630cf7fe9560e31b8152600481018390526001600160a01b03909116906367bff4a8906024015f604051808303815f87803b1580156102b0575f5ffd5b505af11580156102c2573d5f5f3e3d5ffd5b005b5f5ffd5b3480156102d3575f5ffd5b506102e76102e23660046116e3565b6105c7565b60405190151581526020015b60405180910390f35b348015610307575f5ffd5b506102c2610316366004611711565b6105fd565b348015610326575f5ffd5b5061033060055481565b6040519081526020016102f3565b348015610349575f5ffd5b5060025461035d906001600160a01b031681565b6040516001600160a01b0390911681526020016102f3565b348015610380575f5ffd5b5061033061038f366004611711565b6106c1565b34801561039f575f5ffd5b506102c26103ae36600461173c565b6106e1565b3480156103be575f5ffd5b506102c26103cd36600461173c565b610703565b3480156103dd575f5ffd5b506103305f516020611b925f395f51905f5281565b3480156103fd575f5ffd5b506102c261040c366004611711565b610736565b34801561041c575f5ffd5b506102c261042b36600461176a565b610881565b6102c2610d13565b348015610443575f5ffd5b5060045461035d906001600160a01b031681565b348015610462575f5ffd5b506103306130d481565b348015610477575f5ffd5b506102e761048636600461173c565b610e45565b348015610496575f5ffd5b506103305f81565b3480156104a9575f5ffd5b506102c26104b83660046117c5565b610e7b565b3480156104c8575f5ffd5b505f5461035d906001600160a01b031681565b6102c26104e9366004611711565b61106b565b3480156104f9575f5ffd5b5060015461035d906001600160a01b031681565b348015610518575f5ffd5b5061033060065481565b34801561052d575f5ffd5b506102c261053c36600461173c565b6111a8565b34801561054c575f5ffd5b506102c261055b36600461173c565b61132b565b34801561056b575f5ffd5b5061033061057a36600461187d565b611347565b34801561058a575f5ffd5b50600754610330565b34801561059e575f5ffd5b5060035461035d906001600160a01b031681565b3480156105bd575f5ffd5b5061033060075481565b5f6001600160e01b03198216637965db0b60e01b14806105f757506301ffc9a760e01b6001600160e01b03198316145b92915050565b5f516020611b925f395f51905f52610614816114d5565b6006545f8313156106315761062983826116d0565b60065561067e565b5f831215610679575f610643846118c1565b90508181111561066657604051630fc12e3560e11b815260040160405180910390fd5b61067081836118db565b6006555061067e565b505050565b6006546040805185815260208101929092527fabc1e0200cea3daa5c1d23d3df8212b5b114ee4bb8800bc01d8c2a7f93641d02910160405180910390a1505b5050565b5f9081525f516020611b725f395f51905f52602052604090206001015490565b6106ea826106c1565b6106f3816114d5565b6106fd83836114e2565b50505050565b6001600160a01b038116331461072c5760405163334bd91960e11b815260040160405180910390fd5b6106798282611583565b805f0361075657604051631f2a200560e01b815260040160405180910390fd5b6001546040516323b872dd60e01b8152336004820152306024820152604481018390525f916001600160a01b0316906323b872dd906064016020604051808303815f875af11580156107aa573d5f5f3e3d5ffd5b505050506040513d601f19601f820116820180604052508101906107ce91906118ee565b9050806107ee576040516312171d8360e31b815260040160405180910390fd5b8160075f8282546107ff91906116d0565b90915550506040518281525f516020611b525f395f51905f529060200160405180910390a15f54604051630cf7fe9560e31b8152600481018490526001600160a01b03909116906367bff4a8906024015b5f604051808303815f87803b158015610867575f5ffd5b505af1158015610879573d5f5f3e3d5ffd5b505050505050565b5f546005546040516331a9108f60e11b8152600481019190915233916001600160a01b031690636352211e90602401602060405180830381865afa1580156108cb573d5f5f3e3d5ffd5b505050506040513d601f19601f820116820180604052508101906108ef919061190d565b6001600160a01b03161461091657604051631022318760e21b815260040160405180910390fd5b6001600160a01b03831661093d5760405163d92e233d60e01b815260040160405180910390fd5b815f0361095d57604051631f2a200560e01b815260040160405180910390fd5b600480546040516365ab8c7160e01b81525f926001600160a01b03909216916365ab8c719161098e91869101611950565b6060604051808303815f875af11580156109aa573d5f5f3e3d5ffd5b505050506040513d601f19601f820116820180604052508101906109ce91906119e9565b6007546006549192509081851115610a0e5760405163391434e360e21b815230600482015260248101839052604481018690526064015b60405180910390fd5b5f610a1986846118db565b90508115610bc9576003546040805163efa7fa5d60e01b815290515f926001600160a01b03169163efa7fa5d9160048083019260209291908290030181865afa158015610a68573d5f5f3e3d5ffd5b505050506040513d601f19601f82011682018060405250810190610a8c91906116a5565b90505f60035f9054906101000a90046001600160a01b03166001600160a01b031663a42c69a96040518163ffffffff1660e01b8152600401602060405180830381865afa158015610adf573d5f5f3e3d5ffd5b505050506040513d601f19601f82011682018060405250810190610b0391906116a5565b610b0d8386611a2d565b610b179190611a44565b9050805f03610b3957604051630fc12e3560e11b815260040160405180910390fd5b85515f03610b5a57604051631f2a200560e01b815260040160405180910390fd5b5f866020015160ff16600a610b6f9190611b46565b8751610b7b9086611a2d565b610b859190611a44565b90505f82610b9583612710611a2d565b610b9f9190611a44565b90506130d4811015610bc45760405163133804c360e01b815260040160405180910390fd5b505050505b60015460405163a9059cbb60e01b81526001600160a01b038981166004830152602482018990525f92169063a9059cbb906044016020604051808303815f875af1158015610c19573d5f5f3e3d5ffd5b505050506040513d601f19601f82011682018060405250810190610c3d91906118ee565b905080610c5d576040516312171d8360e31b815260040160405180910390fd5b8660075f828254610c6e91906118db565b90915550506040518781526001600160a01b038916907f370ef93e54c934af17869115596b96ef88d1454cd91736e1d7ae0efdaa62686f9060200160405180910390a25f54604051630722240b60e31b8152600481018990526001600160a01b03909116906339112058906024015f604051808303815f87803b158015610cf3575f5ffd5b505af1158015610d05573d5f5f3e3d5ffd5b505050505050505050505050565b345f819003610d3557604051631f2a200560e01b815260040160405180910390fd5b60025460405163a1903eab60e01b81525f60048201819052916001600160a01b03169063a1903eab90849060240160206040518083038185885af193505050508015610d9e575060408051601f3d908101601f19168201909252610d9b918101906116a5565b60015b610dbb576040516312171d8360e31b815260040160405180910390fd5b809150815f03610dde576040516312171d8360e31b815260040160405180910390fd5b508060075f828254610df091906116d0565b90915550506040518181525f516020611b525f395f51905f529060200160405180910390a15f54604051630cf7fe9560e31b8152600481018390526001600160a01b03909116906367bff4a890602401610850565b5f9182525f516020611b725f395f51905f52602090815260408084206001600160a01b0393909316845291905290205460ff1690565b5f610e846115fc565b805490915060ff600160401b820416159067ffffffffffffffff165f81158015610eab5750825b90505f8267ffffffffffffffff166001148015610ec75750303b155b905081158015610ed5575080155b15610ef35760405163f92ee8a960e01b815260040160405180910390fd5b845467ffffffffffffffff191660011785558315610f1d57845460ff60401b1916600160401b1785555b610f25611624565b6001600160a01b038b161580610f39575089155b80610f4b57506001600160a01b038916155b80610f5d57506001600160a01b038816155b80610f6f57506001600160a01b038716155b80610f8157506001600160a01b038616155b15610f9f5760405163d92e233d60e01b815260040160405180910390fd5b5f80546001600160a01b03199081166001600160a01b038e811691909117835560058d90556001805483168d83161790556002805483168c83161790556003805483168b831617905560048054909216908916179055610fff908c6114e2565b506110175f516020611b925f395f51905f528c6114e2565b50831561105e57845460ff60401b19168555604051600181527fc7f505b2f371ae2175ee4913f4499e1f2633a7b5936321eed1cdaeb6115181d29060200160405180910390a15b5050505050505050505050565b5f516020611b925f395f51905f52611082816114d5565b348015801561108f575082155b156110ad57604051631f2a200560e01b815260040160405180910390fd5b5f811561115e5760025460405163a1903eab60e01b81525f60048201526001600160a01b039091169063a1903eab90849060240160206040518083038185885af19350505050801561111c575060408051601f3d908101601f19168201909252611119918101906116a5565b60015b611139576040516312171d8360e31b815260040160405180910390fd5b809150815f0361115c576040516312171d8360e31b815260040160405180910390fd5b505b5f61116985836116d0565b90508060075f82825461117c91906116d0565b90915550506040518181525f516020611b525f395f51905f529060200160405180910390a15050505050565b5f516020611b925f395f51905f526111bf816114d5565b825f036111df57604051631f2a200560e01b815260040160405180910390fd5b6001600160a01b0382166112065760405163d92e233d60e01b815260040160405180910390fd5b60075483111561123d5760075460405163391434e360e21b8152306004820152602481019190915260448101849052606401610a05565b60015460405163a9059cbb60e01b81526001600160a01b038481166004830152602482018690525f92169063a9059cbb906044016020604051808303815f875af115801561128d573d5f5f3e3d5ffd5b505050506040513d601f19601f820116820180604052508101906112b191906118ee565b9050806112d1576040516312171d8360e31b815260040160405180910390fd5b8360075f8282546112e291906118db565b90915550506040518481526001600160a01b038416907f12c7466676da8453fdc8fb091f1a24d31919043a79a50ebe022867a5f5c1ed349060200160405180910390a250505050565b611334826106c1565b61133d816114d5565b6106fd8383611583565b6006545f9080820361135c57505f1992915050565b6007545f81900361137057505f9392505050565b5f846020015160ff16600a6113859190611b46565b85516113919084611a2d565b61139b9190611a44565b90505f60035f9054906101000a90046001600160a01b03166001600160a01b031663efa7fa5d6040518163ffffffff1660e01b8152600401602060405180830381865afa1580156113ee573d5f5f3e3d5ffd5b505050506040513d601f19601f8201168201806040525081019061141291906116a5565b90505f60035f9054906101000a90046001600160a01b03166001600160a01b031663a42c69a96040518163ffffffff1660e01b8152600401602060405180830381865afa158015611465573d5f5f3e3d5ffd5b505050506040513d601f19601f8201168201806040525081019061148991906116a5565b6114938387611a2d565b61149d9190611a44565b9050805f036114b357505f199695505050505050565b806114c084612710611a2d565b6114ca9190611a44565b979650505050505050565b6114df813361162e565b50565b5f5f516020611b725f395f51905f526114fb8484610e45565b61157a575f848152602082815260408083206001600160a01b03871684529091529020805460ff191660011790556115303390565b6001600160a01b0316836001600160a01b0316857f2f8788117e7eff1d82e926ec794901d17c78024a50270940304540a733656f0d60405160405180910390a460019150506105f7565b5f9150506105f7565b5f5f516020611b725f395f51905f5261159c8484610e45565b1561157a575f848152602082815260408083206001600160a01b0387168085529252808320805460ff1916905551339287917ff6391f5c32d9c69d2a47ea670b442974b53935d1edc7fd64eb21e047a839171b9190a460019150506105f7565b5f807ff0c57e16840df040f15088dc2f81fe391c3923bec73e23a9662efc9c229c6a006105f7565b61162c611667565b565b6116388282610e45565b6106bd5760405163e2517d3f60e01b81526001600160a01b038216600482015260248101839052604401610a05565b61166f61168c565b61162c57604051631afcd79f60e31b815260040160405180910390fd5b5f6116956115fc565b54600160401b900460ff16919050565b5f602082840312156116b5575f5ffd5b5051919050565b634e487b7160e01b5f52601160045260245ffd5b808201808211156105f7576105f76116bc565b5f602082840312156116f3575f5ffd5b81356001600160e01b03198116811461170a575f5ffd5b9392505050565b5f60208284031215611721575f5ffd5b5035919050565b6001600160a01b03811681146114df575f5ffd5b5f5f6040838503121561174d575f5ffd5b82359150602083013561175f81611728565b809150509250929050565b5f5f5f6060848603121561177c575f5ffd5b833561178781611728565b925060208401359150604084013567ffffffffffffffff8111156117a9575f5ffd5b840160a081870312156117ba575f5ffd5b809150509250925092565b5f5f5f5f5f5f60c087890312156117da575f5ffd5b86356117e581611728565b95506020870135945060408701356117fc81611728565b9350606087013561180c81611728565b9250608087013561181c81611728565b915060a087013561182c81611728565b809150509295509295509295565b6040516060810167ffffffffffffffff8111828210171561186957634e487b7160e01b5f52604160045260245ffd5b60405290565b60ff811681146114df575f5ffd5b5f606082840312801561188e575f5ffd5b5061189761183a565b8235815260208301356118a98161186f565b60208201526040928301359281019290925250919050565b5f600160ff1b82016118d5576118d56116bc565b505f0390565b818103818111156105f7576105f76116bc565b5f602082840312156118fe575f5ffd5b8151801515811461170a575f5ffd5b5f6020828403121561191d575f5ffd5b815161170a81611728565b81835281816020850137505f828201602090810191909152601f909101601f19169091010190565b60208082528235828201525f908301356119698161186f565b60ff1660408381019190915283013560608084019190915283013560808084019190915283013536849003601e190181126119a2575f5ffd5b830160208101903567ffffffffffffffff8111156119be575f5ffd5b8036038213156119cc575f5ffd5b60a0808501526119e060c085018284611928565b95945050505050565b5f60608284031280156119fa575f5ffd5b50611a0361183a565b825181526020830151611a158161186f565b60208201526040928301519281019290925250919050565b80820281158282048414176105f7576105f76116bc565b5f82611a5e57634e487b7160e01b5f52601260045260245ffd5b500490565b6001815b6001841115611a9e57808504811115611a8257611a826116bc565b6001841615611a9057908102905b60019390931c928002611a67565b935093915050565b5f82611ab4575060016105f7565b81611ac057505f6105f7565b8160018114611ad65760028114611ae057611afc565b60019150506105f7565b60ff841115611af157611af16116bc565b50506001821b6105f7565b5060208310610133831016604e8410600b8410161715611b1f575081810a6105f7565b611b2b5f198484611a63565b805f1904821115611b3e57611b3e6116bc565b029392505050565b5f61170a8383611aa656fe206d5f22994381488f76c20f193ebf898daf960461a61d40e68e1641f62d8c5d02dd7bc7dec4dceedda775e58dd541e08a116c6c53815c0bd028192f7b626800079847024f21c1f5f8d88daf6764f03ddd70ce4acc6aa7104a85233fe5a76995a2646970667358221220b8d97e6725c3c58d62c013d64f528e8ddb4fa6ca2816a9d2d352517d1828070a64736f6c634300081d0033","linkReferences":{}},"methodIdentifiers":{"DEFAULT_ADMIN_ROLE()":"a217fddf","MINIMUM_COLLATERAL_RATIO()":"82882f8a","STABILIZER_ROLE()":"4699643b","addCollateralEth()":"769ef03d","addCollateralFromStabilizer(uint256)":"bf3fdde7","addCollateralStETH(uint256)":"571a1e28","backedPoolShares()":"d39aa95a","getCollateralizationRatio((uint256,uint8,uint256))":"dc607d6f","getCurrentStEthBalance()":"ee5f4407","getRoleAdmin(bytes32)":"248a9ca3","grantRole(bytes32,address)":"2f2ff15d","hasRole(bytes32,address)":"91d14854","initialize(address,uint256,address,address,address,address)":"a2dc2ab7","lido()":"23509a2d","lockedStEth()":"f362e626","modifyAllocation(int256)":"0bfd07fc","oracle()":"7dc0d1d0","rateContract()":"eee24219","removeCollateral(uint256,address)":"d41ddc96","removeExcessCollateral(address,uint256,(uint256,uint8,uint256,bytes32,bytes))":"618f8027","renounceRole(bytes32,address)":"36568abe","revokeRole(bytes32,address)":"d547741f","stETH()":"c1fe3e48","stabilizerNFTContract()":"bec070d6","supportsInterface(bytes4)":"01ffc9a7","tokenId()":"17d70f7c"},"storageLayout":{"storage":[{"astId":52741,"contract":"src/PositionEscrow.sol:PositionEscrow","label":"stabilizerNFTContract","offset":0,"slot":"0","type":"t_address"},{"astId":52744,"contract":"src/PositionEscrow.sol:PositionEscrow","label":"stETH","offset":0,"slot":"1","type":"t_address"},{"astId":52747,"contract":"src/PositionEscrow.sol:PositionEscrow","label":"lido","offset":0,"slot":"2","type":"t_address"},{"astId":52750,"contract":"src/PositionEscrow.sol:PositionEscrow","label":"rateContract","offset":0,"slot":"3","type":"t_address"},{"astId":52753,"contract":"src/PositionEscrow.sol:PositionEscrow","label":"oracle","offset":0,"slot":"4","type":"t_address"},{"astId":52756,"contract":"src/PositionEscrow.sol:PositionEscrow","label":"tokenId","offset":0,"slot":"5","type":"t_uint256"},{"astId":52759,"contract":"src/PositionEscrow.sol:PositionEscrow","label":"backedPoolShares","offset":0,"slot":"6","type":"t_uint256"},{"astId":52761,"contract":"src/PositionEscrow.sol:PositionEscrow","label":"lockedStEth","offset":0,"slot":"7","type":"t_uint256"}],"types":{"t_address":{"encoding":"inplace","label":"address","numberOfBytes":"20"},"t_uint256":{"encoding":"inplace","label":"uint256","numberOfBytes":"32"}}},"id":75}