{"abi":[{"type":"constructor","inputs":[],"stateMutability":"nonpayable"},{"type":"receive","stateMutability":"payable"},{"type":"function","name":"DEFAULT_ADMIN_ROLE","inputs":[],"outputs":[{"name":"","type":"bytes32","internalType":"bytes32"}],"stateMutability":"view"},{"type":"function","name":"MINIMUM_COLLATERAL_RATIO","inputs":[],"outputs":[{"name":"","type":"uint256","internalType":"uint256"}],"stateMutability":"view"},{"type":"function","name":"STABILIZER_ROLE","inputs":[],"outputs":[{"name":"","type":"bytes32","internalType":"bytes32"}],"stateMutability":"view"},{"type":"function","name":"addCollateralEth","inputs":[],"outputs":[],"stateMutability":"payable"},{"type":"function","name":"addCollateralFromStabilizer","inputs":[{"name":"stabilizerStEthAmount","type":"uint256","internalType":"uint256"}],"outputs":[],"stateMutability":"payable"},{"type":"function","name":"addCollateralStETH","inputs":[{"name":"stETHAmount","type":"uint256","internalType":"uint256"}],"outputs":[],"stateMutability":"nonpayable"},{"type":"function","name":"backedPoolShares","inputs":[],"outputs":[{"name":"","type":"uint256","internalType":"uint256"}],"stateMutability":"view"},{"type":"function","name":"getCollateralizationRatio","inputs":[{"name":"priceResponse","type":"tuple","internalType":"struct IPriceOracle.PriceResponse","components":[{"name":"price","type":"uint256","internalType":"uint256"},{"name":"decimals","type":"uint8","internalType":"uint8"},{"name":"timestamp","type":"uint256","internalType":"uint256"}]}],"outputs":[{"name":"ratio","type":"uint256","internalType":"uint256"}],"stateMutability":"view"},{"type":"function","name":"getCurrentStEthBalance","inputs":[],"outputs":[{"name":"balance","type":"uint256","internalType":"uint256"}],"stateMutability":"view"},{"type":"function","name":"getRoleAdmin","inputs":[{"name":"role","type":"bytes32","internalType":"bytes32"}],"outputs":[{"name":"","type":"bytes32","internalType":"bytes32"}],"stateMutability":"view"},{"type":"function","name":"getTrackedStEthWithYield","inputs":[],"outputs":[{"name":"","type":"uint256","internalType":"uint256"}],"stateMutability":"view"},{"type":"function","name":"grantRole","inputs":[{"name":"role","type":"bytes32","internalType":"bytes32"},{"name":"account","type":"address","internalType":"address"}],"outputs":[],"stateMutability":"nonpayable"},{"type":"function","name":"hasRole","inputs":[{"name":"role","type":"bytes32","internalType":"bytes32"},{"name":"account","type":"address","internalType":"address"}],"outputs":[{"name":"","type":"bool","internalType":"bool"}],"stateMutability":"view"},{"type":"function","name":"initialize","inputs":[{"name":"_stabilizerNFT","type":"address","internalType":"address"},{"name":"_tokenId","type":"uint256","internalType":"uint256"},{"name":"_stETHAddress","type":"address","internalType":"address"},{"name":"_lidoAddress","type":"address","internalType":"address"},{"name":"_rateContractAddress","type":"address","internalType":"address"},{"name":"_oracleAddress","type":"address","internalType":"address"}],"outputs":[],"stateMutability":"nonpayable"},{"type":"function","name":"lido","inputs":[],"outputs":[{"name":"","type":"address","internalType":"address"}],"stateMutability":"view"},{"type":"function","name":"lockedStEth","inputs":[],"outputs":[{"name":"","type":"uint256","internalType":"uint256"}],"stateMutability":"view"},{"type":"function","name":"modifyAllocation","inputs":[{"name":"sharesDelta","type":"int256","internalType":"int256"}],"outputs":[],"stateMutability":"nonpayable"},{"type":"function","name":"oracle","inputs":[],"outputs":[{"name":"","type":"address","internalType":"address"}],"stateMutability":"view"},{"type":"function","name":"rateContract","inputs":[],"outputs":[{"name":"","type":"address","internalType":"address"}],"stateMutability":"view"},{"type":"function","name":"removeCollateral","inputs":[{"name":"amountToRemove","type":"uint256","internalType":"uint256"},{"name":"recipient","type":"address","internalType":"address"}],"outputs":[],"stateMutability":"nonpayable"},{"type":"function","name":"removeExcessCollateral","inputs":[{"name":"recipient","type":"address","internalType":"address payable"},{"name":"amountToRemove","type":"uint256","internalType":"uint256"},{"name":"priceQuery","type":"tuple","internalType":"struct IPriceOracle.PriceAttestationQuery","components":[{"name":"price","type":"uint256","internalType":"uint256"},{"name":"decimals","type":"uint8","internalType":"uint8"},{"name":"dataTimestamp","type":"uint256","internalType":"uint256"},{"name":"assetPair","type":"bytes32","internalType":"bytes32"},{"name":"signature","type":"bytes","internalType":"bytes"}]}],"outputs":[],"stateMutability":"nonpayable"},{"type":"function","name":"renounceRole","inputs":[{"name":"role","type":"bytes32","internalType":"bytes32"},{"name":"callerConfirmation","type":"address","internalType":"address"}],"outputs":[],"stateMutability":"nonpayable"},{"type":"function","name":"revokeRole","inputs":[{"name":"role","type":"bytes32","internalType":"bytes32"},{"name":"account","type":"address","internalType":"address"}],"outputs":[],"stateMutability":"nonpayable"},{"type":"function","name":"stETH","inputs":[],"outputs":[{"name":"","type":"address","internalType":"address"}],"stateMutability":"view"},{"type":"function","name":"stabilizerNFTContract","inputs":[],"outputs":[{"name":"","type":"address","internalType":"address"}],"stateMutability":"view"},{"type":"function","name":"supportsInterface","inputs":[{"name":"interfaceId","type":"bytes4","internalType":"bytes4"}],"outputs":[{"name":"","type":"bool","internalType":"bool"}],"stateMutability":"view"},{"type":"function","name":"syncStEthAndGetCollateralizationRatio","inputs":[{"name":"priceResponse","type":"tuple","internalType":"struct IPriceOracle.PriceResponse","components":[{"name":"price","type":"uint256","internalType":"uint256"},{"name":"decimals","type":"uint8","internalType":"uint8"},{"name":"timestamp","type":"uint256","internalType":"uint256"}]}],"outputs":[{"name":"ratio","type":"uint256","internalType":"uint256"}],"stateMutability":"nonpayable"},{"type":"function","name":"syncStEthBalance","inputs":[],"outputs":[],"stateMutability":"nonpayable"},{"type":"function","name":"tokenId","inputs":[],"outputs":[{"name":"","type":"uint256","internalType":"uint256"}],"stateMutability":"view"},{"type":"function","name":"yieldFactorAtLastUpdate","inputs":[],"outputs":[{"name":"","type":"uint256","internalType":"uint256"}],"stateMutability":"view"},{"type":"event","name":"AllocationModified","inputs":[{"name":"sharesDelta","type":"int256","indexed":false,"internalType":"int256"},{"name":"newTotalShares","type":"uint256","indexed":false,"internalType":"uint256"}],"anonymous":false},{"type":"event","name":"CollateralAdded","inputs":[{"name":"totalStEthAmount","type":"uint256","indexed":false,"internalType":"uint256"}],"anonymous":false},{"type":"event","name":"CollateralRemoved","inputs":[{"name":"recipient","type":"address","indexed":true,"internalType":"address"},{"name":"amount","type":"uint256","indexed":false,"internalType":"uint256"}],"anonymous":false},{"type":"event","name":"ExcessCollateralRemoved","inputs":[{"name":"recipient","type":"address","indexed":true,"internalType":"address"},{"name":"amount","type":"uint256","indexed":false,"internalType":"uint256"}],"anonymous":false},{"type":"event","name":"Initialized","inputs":[{"name":"version","type":"uint64","indexed":false,"internalType":"uint64"}],"anonymous":false},{"type":"event","name":"RoleAdminChanged","inputs":[{"name":"role","type":"bytes32","indexed":true,"internalType":"bytes32"},{"name":"previousAdminRole","type":"bytes32","indexed":true,"internalType":"bytes32"},{"name":"newAdminRole","type":"bytes32","indexed":true,"internalType":"bytes32"}],"anonymous":false},{"type":"event","name":"RoleGranted","inputs":[{"name":"role","type":"bytes32","indexed":true,"internalType":"bytes32"},{"name":"account","type":"address","indexed":true,"internalType":"address"},{"name":"sender","type":"address","indexed":true,"internalType":"address"}],"anonymous":false},{"type":"event","name":"RoleRevoked","inputs":[{"name":"role","type":"bytes32","indexed":true,"internalType":"bytes32"},{"name":"account","type":"address","indexed":true,"internalType":"address"},{"name":"sender","type":"address","indexed":true,"internalType":"address"}],"anonymous":false},{"type":"error","name":"AccessControlBadConfirmation","inputs":[]},{"type":"error","name":"AccessControlUnauthorizedAccount","inputs":[{"name":"account","type":"address","internalType":"address"},{"name":"neededRole","type":"bytes32","internalType":"bytes32"}]},{"type":"error","name":"ArithmeticError","inputs":[]},{"type":"error","name":"BelowMinimumRatio","inputs":[]},{"type":"error","name":"ERC20InsufficientAllowance","inputs":[{"name":"spender","type":"address","internalType":"address"},{"name":"allowance","type":"uint256","internalType":"uint256"},{"name":"needed","type":"uint256","internalType":"uint256"}]},{"type":"error","name":"ERC20InsufficientBalance","inputs":[{"name":"sender","type":"address","internalType":"address"},{"name":"balance","type":"uint256","internalType":"uint256"},{"name":"needed","type":"uint256","internalType":"uint256"}]},{"type":"error","name":"ERC20InvalidApprover","inputs":[{"name":"approver","type":"address","internalType":"address"}]},{"type":"error","name":"ERC20InvalidReceiver","inputs":[{"name":"receiver","type":"address","internalType":"address"}]},{"type":"error","name":"ERC20InvalidSender","inputs":[{"name":"sender","type":"address","internalType":"address"}]},{"type":"error","name":"ERC20InvalidSpender","inputs":[{"name":"spender","type":"address","internalType":"address"}]},{"type":"error","name":"InvalidInitialization","inputs":[]},{"type":"error","name":"NotInitializing","inputs":[]},{"type":"error","name":"NotNFTOwner","inputs":[]},{"type":"error","name":"TransferFailed","inputs":[]},{"type":"error","name":"ZeroAddress","inputs":[]},{"type":"error","name":"ZeroAmount","inputs":[]}],"bytecode":{"object":"0x6080604052348015600e575f5ffd5b5060156019565b60c9565b7ff0c57e16840df040f15088dc2f81fe391c3923bec73e23a9662efc9c229c6a00805468010000000000000000900460ff161560685760405163f92ee8a960e01b815260040160405180910390fd5b80546001600160401b039081161460c65780546001600160401b0319166001600160401b0390811782556040519081527fc7f505b2f371ae2175ee4913f4499e1f2633a7b5936321eed1cdaeb6115181d29060200160405180910390a15b50565b612334806100d65f395ff3fe6080604052600436106101c8575f3560e01c8063a217fddf116100f2578063d39aa95a11610092578063ee5f440711610062578063ee5f4407146105fd578063eee2421914610611578063f362e62614610630578063fc52347114610645575f5ffd5b8063d39aa95a1461058b578063d41ddc96146105a0578063d547741f146105bf578063dc607d6f146105de575f5ffd5b8063bf3fdde7116100cd578063bf3fdde714610526578063c1fe3e4814610539578063c6d56aa914610558578063cd21748414610577575f5ffd5b8063a217fddf146104d6578063a2dc2ab7146104e9578063bec070d614610508575f5ffd5b80634699643b116101685780637dc0d1d0116101385780637dc0d1d01461046e5780638175ad231461048d57806382882f8a146104a257806391d14854146104b7575f5ffd5b80634699643b14610408578063571a1e2814610428578063618f802714610447578063769ef03d14610466575f5ffd5b806323509a2d116101a357806323509a2d14610374578063248a9ca3146103ab5780632f2ff15d146103ca57806336568abe146103e9575f5ffd5b806301ffc9a7146102fc5780630bfd07fc1461033057806317d70f7c14610351575f5ffd5b366102f857345f8190036101d857005b60025460405163a1903eab60e01b81525f60048201819052916001600160a01b03169063a1903eab90849060240160206040518083038185885af193505050508015610241575060408051601f3d908101601f1916820190925261023e91810190611df2565b60015b61025e576040516312171d8360e31b815260040160405180910390fd5b809150815f03610281576040516312171d8360e31b815260040160405180910390fd5b50306001600160a01b031663fc5234716040518163ffffffff1660e01b81526004015f604051808303815f87803b1580156102ba575f5ffd5b505af11580156102cc573d5f5f3e3d5ffd5b505050505f51602061229f5f395f51905f52816040516102ee91815260200190565b60405180910390a1005b5f5ffd5b348015610307575f5ffd5b5061031b610316366004611e09565b610659565b60405190151581526020015b60405180910390f35b34801561033b575f5ffd5b5061034f61034a366004611e37565b61068f565b005b34801561035c575f5ffd5b5061036660055481565b604051908152602001610327565b34801561037f575f5ffd5b50600254610393906001600160a01b031681565b6040516001600160a01b039091168152602001610327565b3480156103b6575f5ffd5b506103666103c5366004611e37565b610753565b3480156103d5575f5ffd5b5061034f6103e4366004611e62565b610773565b3480156103f4575f5ffd5b5061034f610403366004611e62565b610795565b348015610413575f5ffd5b506103665f5160206122df5f395f51905f5281565b348015610433575f5ffd5b5061034f610442366004611e37565b6107c8565b348015610452575f5ffd5b5061034f610461366004611e90565b6108f8565b61034f610dce565b348015610479575f5ffd5b50600454610393906001600160a01b031681565b348015610498575f5ffd5b5061036660085481565b3480156104ad575f5ffd5b506103666130d481565b3480156104c2575f5ffd5b5061031b6104d1366004611e62565b610f06565b3480156104e1575f5ffd5b506103665f81565b3480156104f4575f5ffd5b5061034f610503366004611eeb565b610f3c565b348015610513575f5ffd5b505f54610393906001600160a01b031681565b61034f610534366004611e37565b611190565b348015610544575f5ffd5b50600154610393906001600160a01b031681565b348015610563575f5ffd5b50610366610572366004611fa3565b611397565b348015610582575f5ffd5b5061036661145b565b348015610596575f5ffd5b5061036660065481565b3480156105ab575f5ffd5b5061034f6105ba366004611e62565b611519565b3480156105ca575f5ffd5b5061034f6105d9366004611e62565b611760565b3480156105e9575f5ffd5b506103666105f8366004611fa3565b61177c565b348015610608575f5ffd5b50610366611969565b34801561061c575f5ffd5b50600354610393906001600160a01b031681565b34801561063b575f5ffd5b5061036660075481565b348015610650575f5ffd5b5061034f6119d8565b5f6001600160e01b03198216637965db0b60e01b148061068957506301ffc9a760e01b6001600160e01b03198316145b92915050565b5f5160206122df5f395f51905f526106a681611c22565b6006545f8313156106c3576106bb8382611ffb565b600655610710565b5f83121561070b575f6106d58461200e565b9050818111156106f857604051630fc12e3560e11b815260040160405180910390fd5b6107028183612028565b60065550610710565b505050565b6006546040805185815260208101929092527fabc1e0200cea3daa5c1d23d3df8212b5b114ee4bb8800bc01d8c2a7f93641d02910160405180910390a1505b5050565b5f9081525f5160206122bf5f395f51905f52602052604090206001015490565b61077c82610753565b61078581611c22565b61078f8383611c2f565b50505050565b6001600160a01b03811633146107be5760405163334bd91960e11b815260040160405180910390fd5b61070b8282611cd0565b805f036107e857604051631f2a200560e01b815260040160405180910390fd5b6001546040516323b872dd60e01b8152336004820152306024820152604481018390525f916001600160a01b0316906323b872dd906064016020604051808303815f875af115801561083c573d5f5f3e3d5ffd5b505050506040513d601f19601f82011682018060405250810190610860919061203b565b905080610880576040516312171d8360e31b815260040160405180910390fd5b306001600160a01b031663fc5234716040518163ffffffff1660e01b81526004015f604051808303815f87803b1580156108b8575f5ffd5b505af11580156108ca573d5f5f3e3d5ffd5b505050505f51602061229f5f395f51905f52826040516108ec91815260200190565b60405180910390a15050565b5f546005546040516331a9108f60e11b8152600481019190915233916001600160a01b031690636352211e90602401602060405180830381865afa158015610942573d5f5f3e3d5ffd5b505050506040513d601f19601f82011682018060405250810190610966919061205a565b6001600160a01b03161461098d57604051631022318760e21b815260040160405180910390fd5b6001600160a01b0383166109b45760405163d92e233d60e01b815260040160405180910390fd5b815f036109d457604051631f2a200560e01b815260040160405180910390fd5b600480546040516365ab8c7160e01b81525f926001600160a01b03909216916365ab8c7191610a059186910161209d565b6060604051808303815f875af1158015610a21573d5f5f3e3d5ffd5b505050506040513d601f19601f82011682018060405250810190610a459190612136565b90505f306001600160a01b031663cd2174846040518163ffffffff1660e01b8152600401602060405180830381865afa158015610a84573d5f5f3e3d5ffd5b505050506040513d601f19601f82011682018060405250810190610aa89190611df2565b60065490915081851115610ae45760405163391434e360e21b815230600482015260248101839052604481018690526064015b60405180910390fd5b5f610aef8684612028565b90508115610c9f576003546040805163efa7fa5d60e01b815290515f926001600160a01b03169163efa7fa5d9160048083019260209291908290030181865afa158015610b3e573d5f5f3e3d5ffd5b505050506040513d601f19601f82011682018060405250810190610b629190611df2565b90505f60035f9054906101000a90046001600160a01b03166001600160a01b031663a42c69a96040518163ffffffff1660e01b8152600401602060405180830381865afa158015610bb5573d5f5f3e3d5ffd5b505050506040513d601f19601f82011682018060405250810190610bd99190611df2565b610be3838661217a565b610bed9190612191565b9050805f03610c0f57604051630fc12e3560e11b815260040160405180910390fd5b85515f03610c3057604051631f2a200560e01b815260040160405180910390fd5b5f866020015160ff16600a610c459190612293565b8751610c51908661217a565b610c5b9190612191565b90505f82610c6b8361271061217a565b610c759190612191565b90506130d4811015610c9a5760405163133804c360e01b815260040160405180910390fd5b505050505b60015460405163a9059cbb60e01b81526001600160a01b038981166004830152602482018990525f92169063a9059cbb906044016020604051808303815f875af1158015610cef573d5f5f3e3d5ffd5b505050506040513d601f19601f82011682018060405250810190610d13919061203b565b905080610d33576040516312171d8360e31b815260040160405180910390fd5b306001600160a01b031663fc5234716040518163ffffffff1660e01b81526004015f604051808303815f87803b158015610d6b575f5ffd5b505af1158015610d7d573d5f5f3e3d5ffd5b50505050876001600160a01b03167f370ef93e54c934af17869115596b96ef88d1454cd91736e1d7ae0efdaa62686f88604051610dbc91815260200190565b60405180910390a25050505050505050565b345f819003610df057604051631f2a200560e01b815260040160405180910390fd5b60025460405163a1903eab60e01b81525f60048201819052916001600160a01b03169063a1903eab90849060240160206040518083038185885af193505050508015610e59575060408051601f3d908101601f19168201909252610e5691810190611df2565b60015b610e76576040516312171d8360e31b815260040160405180910390fd5b809150815f03610e99576040516312171d8360e31b815260040160405180910390fd5b50306001600160a01b031663fc5234716040518163ffffffff1660e01b81526004015f604051808303815f87803b158015610ed2575f5ffd5b505af1158015610ee4573d5f5f3e3d5ffd5b505050505f51602061229f5f395f51905f52816040516108ec91815260200190565b5f9182525f5160206122bf5f395f51905f52602090815260408084206001600160a01b0393909316845291905290205460ff1690565b5f610f45611d49565b805490915060ff600160401b820416159067ffffffffffffffff165f81158015610f6c5750825b90505f8267ffffffffffffffff166001148015610f885750303b155b905081158015610f96575080155b15610fb45760405163f92ee8a960e01b815260040160405180910390fd5b845467ffffffffffffffff191660011785558315610fde57845460ff60401b1916600160401b1785555b610fe6611d71565b6001600160a01b038b161580610ffa575089155b8061100c57506001600160a01b038916155b8061101e57506001600160a01b038816155b8061103057506001600160a01b038716155b8061104257506001600160a01b038616155b156110605760405163d92e233d60e01b815260040160405180910390fd5b5f80546001600160a01b03808e166001600160a01b03199283161790925560058c9055600180548c8416908316179055600280548b8416908316179055600380548a8416908316811790915560048054938a16939092169290921781556040805163efa7fa5d60e01b8152905163efa7fa5d928281019260209291908290030181865afa1580156110f3573d5f5f3e3d5ffd5b505050506040513d601f19601f820116820180604052508101906111179190611df2565b6008556111245f8c611c2f565b5061113c5f5160206122df5f395f51905f528c611c2f565b50831561118357845460ff60401b19168555604051600181527fc7f505b2f371ae2175ee4913f4499e1f2633a7b5936321eed1cdaeb6115181d29060200160405180910390a15b5050505050505050505050565b5f5160206122df5f395f51905f526111a781611c22565b34801580156111b4575082155b156111d257604051631f2a200560e01b815260040160405180910390fd5b5f81156112835760025460405163a1903eab60e01b81525f60048201526001600160a01b039091169063a1903eab90849060240160206040518083038185885af193505050508015611241575060408051601f3d908101601f1916820190925261123e91810190611df2565b60015b61125e576040516312171d8360e31b815260040160405180910390fd5b809150815f03611281576040516312171d8360e31b815260040160405180910390fd5b505b5f61128e8583611ffb565b90505f306001600160a01b031663cd2174846040518163ffffffff1660e01b8152600401602060405180830381865afa1580156112cd573d5f5f3e3d5ffd5b505050506040513d601f19601f820116820180604052508101906112f19190611df2565b90506112fd8282611ffb565b6007556003546040805163efa7fa5d60e01b815290516001600160a01b039092169163efa7fa5d916004808201926020929091908290030181865afa158015611348573d5f5f3e3d5ffd5b505050506040513d601f19601f8201168201806040525081019061136c9190611df2565b6008556040518281525f51602061229f5f395f51905f529060200160405180910390a1505050505050565b5f306001600160a01b031663fc5234716040518163ffffffff1660e01b81526004015f604051808303815f87803b1580156113d0575f5ffd5b505af11580156113e2573d5f5f3e3d5ffd5b50506040805163dc607d6f60e01b815285516004820152602086015160ff16602482015290850151604482015230925063dc607d6f9150606401602060405180830381865afa158015611437573d5f5f3e3d5ffd5b505050506040513d601f19601f820116820180604052508101906106899190611df2565b5f5f60035f9054906101000a90046001600160a01b03166001600160a01b031663efa7fa5d6040518163ffffffff1660e01b8152600401602060405180830381865afa1580156114ad573d5f5f3e3d5ffd5b505050506040513d601f19601f820116820180604052508101906114d19190611df2565b600854600754919250908115806114e6575082155b806114f057508282145b156114fc579392505050565b81611507848361217a565b6115119190612191565b935050505090565b5f5160206122df5f395f51905f5261153081611c22565b825f0361155057604051631f2a200560e01b815260040160405180910390fd5b6001600160a01b0382166115775760405163d92e233d60e01b815260040160405180910390fd5b5f306001600160a01b031663cd2174846040518163ffffffff1660e01b8152600401602060405180830381865afa1580156115b4573d5f5f3e3d5ffd5b505050506040513d601f19601f820116820180604052508101906115d89190611df2565b90508084111561160b5760405163391434e360e21b81523060048201526024810182905260448101859052606401610adb565b60015460405163a9059cbb60e01b81526001600160a01b038581166004830152602482018790525f92169063a9059cbb906044016020604051808303815f875af115801561165b573d5f5f3e3d5ffd5b505050506040513d601f19601f8201168201806040525081019061167f919061203b565b90508061169f576040516312171d8360e31b815260040160405180910390fd5b6116a98583612028565b6007556003546040805163efa7fa5d60e01b815290516001600160a01b039092169163efa7fa5d916004808201926020929091908290030181865afa1580156116f4573d5f5f3e3d5ffd5b505050506040513d601f19601f820116820180604052508101906117189190611df2565b6008556040518581526001600160a01b038516907f12c7466676da8453fdc8fb091f1a24d31919043a79a50ebe022867a5f5c1ed349060200160405180910390a25050505050565b61176982610753565b61177281611c22565b61078f8383611cd0565b6006545f9080820361179157505f1992915050565b5f306001600160a01b031663cd2174846040518163ffffffff1660e01b8152600401602060405180830381865afa1580156117ce573d5f5f3e3d5ffd5b505050506040513d601f19601f820116820180604052508101906117f29190611df2565b9050805f0361180457505f9392505050565b5f846020015160ff16600a6118199190612293565b8551611825908461217a565b61182f9190612191565b90505f60035f9054906101000a90046001600160a01b03166001600160a01b031663efa7fa5d6040518163ffffffff1660e01b8152600401602060405180830381865afa158015611882573d5f5f3e3d5ffd5b505050506040513d601f19601f820116820180604052508101906118a69190611df2565b90505f60035f9054906101000a90046001600160a01b03166001600160a01b031663a42c69a96040518163ffffffff1660e01b8152600401602060405180830381865afa1580156118f9573d5f5f3e3d5ffd5b505050506040513d601f19601f8201168201806040525081019061191d9190611df2565b611927838761217a565b6119319190612191565b9050805f0361194757505f199695505050505050565b806119548461271061217a565b61195e9190612191565b979650505050505050565b6001546040516370a0823160e01b81523060048201525f916001600160a01b0316906370a0823190602401602060405180830381865afa1580156119af573d5f5f3e3d5ffd5b505050506040513d601f19601f820116820180604052508101906119d39190611df2565b905090565b6001546040516370a0823160e01b81523060048201525f916001600160a01b0316906370a0823190602401602060405180830381865afa158015611a1e573d5f5f3e3d5ffd5b505050506040513d601f19601f82011682018060405250810190611a429190611df2565b90505f306001600160a01b031663cd2174846040518163ffffffff1660e01b8152600401602060405180830381865afa158015611a81573d5f5f3e3d5ffd5b505050506040513d601f19601f82011682018060405250810190611aa59190611df2565b90505f60035f9054906101000a90046001600160a01b03166001600160a01b031663efa7fa5d6040518163ffffffff1660e01b8152600401602060405180830381865afa158015611af8573d5f5f3e3d5ffd5b505050506040513d601f19601f82011682018060405250810190611b1c9190611df2565b905081831115611b90575f611b318385612028565b5f54604051630cf7fe9560e31b8152600481018390529192506001600160a01b0316906367bff4a8906024015f604051808303815f87803b158015611b74575f5ffd5b505af1158015611b86573d5f5f3e3d5ffd5b5050505050611bfe565b81831015611bfe575f611ba38484612028565b5f54604051630722240b60e31b8152600481018390529192506001600160a01b0316906339112058906024015f604051808303815f87803b158015611be6575f5ffd5b505af1158015611bf8573d5f5f3e3d5ffd5b50505050505b82600754141580611c1157508060085414155b1561070b5760079290925550600855565b611c2c8133611d7b565b50565b5f5f5160206122bf5f395f51905f52611c488484610f06565b611cc7575f848152602082815260408083206001600160a01b03871684529091529020805460ff19166001179055611c7d3390565b6001600160a01b0316836001600160a01b0316857f2f8788117e7eff1d82e926ec794901d17c78024a50270940304540a733656f0d60405160405180910390a46001915050610689565b5f915050610689565b5f5f5160206122bf5f395f51905f52611ce98484610f06565b15611cc7575f848152602082815260408083206001600160a01b0387168085529252808320805460ff1916905551339287917ff6391f5c32d9c69d2a47ea670b442974b53935d1edc7fd64eb21e047a839171b9190a46001915050610689565b5f807ff0c57e16840df040f15088dc2f81fe391c3923bec73e23a9662efc9c229c6a00610689565b611d79611db4565b565b611d858282610f06565b61074f5760405163e2517d3f60e01b81526001600160a01b038216600482015260248101839052604401610adb565b611dbc611dd9565b611d7957604051631afcd79f60e31b815260040160405180910390fd5b5f611de2611d49565b54600160401b900460ff16919050565b5f60208284031215611e02575f5ffd5b5051919050565b5f60208284031215611e19575f5ffd5b81356001600160e01b031981168114611e30575f5ffd5b9392505050565b5f60208284031215611e47575f5ffd5b5035919050565b6001600160a01b0381168114611c2c575f5ffd5b5f5f60408385031215611e73575f5ffd5b823591506020830135611e8581611e4e565b809150509250929050565b5f5f5f60608486031215611ea2575f5ffd5b8335611ead81611e4e565b925060208401359150604084013567ffffffffffffffff811115611ecf575f5ffd5b840160a08187031215611ee0575f5ffd5b809150509250925092565b5f5f5f5f5f5f60c08789031215611f00575f5ffd5b8635611f0b81611e4e565b9550602087013594506040870135611f2281611e4e565b93506060870135611f3281611e4e565b92506080870135611f4281611e4e565b915060a0870135611f5281611e4e565b809150509295509295509295565b6040516060810167ffffffffffffffff81118282101715611f8f57634e487b7160e01b5f52604160045260245ffd5b60405290565b60ff81168114611c2c575f5ffd5b5f6060828403128015611fb4575f5ffd5b50611fbd611f60565b823581526020830135611fcf81611f95565b60208201526040928301359281019290925250919050565b634e487b7160e01b5f52601160045260245ffd5b8082018082111561068957610689611fe7565b5f600160ff1b820161202257612022611fe7565b505f0390565b8181038181111561068957610689611fe7565b5f6020828403121561204b575f5ffd5b81518015158114611e30575f5ffd5b5f6020828403121561206a575f5ffd5b8151611e3081611e4e565b81835281816020850137505f828201602090810191909152601f909101601f19169091010190565b60208082528235828201525f908301356120b681611f95565b60ff1660408381019190915283013560608084019190915283013560808084019190915283013536849003601e190181126120ef575f5ffd5b830160208101903567ffffffffffffffff81111561210b575f5ffd5b803603821315612119575f5ffd5b60a08085015261212d60c085018284612075565b95945050505050565b5f6060828403128015612147575f5ffd5b50612150611f60565b82518152602083015161216281611f95565b60208201526040928301519281019290925250919050565b808202811582820484141761068957610689611fe7565b5f826121ab57634e487b7160e01b5f52601260045260245ffd5b500490565b6001815b60018411156121eb578085048111156121cf576121cf611fe7565b60018416156121dd57908102905b60019390931c9280026121b4565b935093915050565b5f8261220157506001610689565b8161220d57505f610689565b8160018114612223576002811461222d57612249565b6001915050610689565b60ff84111561223e5761223e611fe7565b50506001821b610689565b5060208310610133831016604e8410600b841016171561226c575081810a610689565b6122785f1984846121b0565b805f190482111561228b5761228b611fe7565b029392505050565b5f611e3083836121f356fe206d5f22994381488f76c20f193ebf898daf960461a61d40e68e1641f62d8c5d02dd7bc7dec4dceedda775e58dd541e08a116c6c53815c0bd028192f7b626800079847024f21c1f5f8d88daf6764f03ddd70ce4acc6aa7104a85233fe5a76995a2646970667358221220aec03338174675a533a9f5ae98416d14b4e1e16f0e2b6b029977d3be3aa5d03364736f6c634300081d0033","linkReferences":{}},"methodIdentifiers":{"DEFAULT_ADMIN_ROLE()":"a217fddf","MINIMUM_COLLATERAL_RATIO()":"82882f8a","STABILIZER_ROLE()":"4699643b","addCollateralEth()":"769ef03d","addCollateralFromStabilizer(uint256)":"bf3fdde7","addCollateralStETH(uint256)":"571a1e28","backedPoolShares()":"d39aa95a","getCollateralizationRatio((uint256,uint8,uint256))":"dc607d6f","getCurrentStEthBalance()":"ee5f4407","getRoleAdmin(bytes32)":"248a9ca3","getTrackedStEthWithYield()":"cd217484","grantRole(bytes32,address)":"2f2ff15d","hasRole(bytes32,address)":"91d14854","initialize(address,uint256,address,address,address,address)":"a2dc2ab7","lido()":"23509a2d","lockedStEth()":"f362e626","modifyAllocation(int256)":"0bfd07fc","oracle()":"7dc0d1d0","rateContract()":"eee24219","removeCollateral(uint256,address)":"d41ddc96","removeExcessCollateral(address,uint256,(uint256,uint8,uint256,bytes32,bytes))":"618f8027","renounceRole(bytes32,address)":"36568abe","revokeRole(bytes32,address)":"d547741f","stETH()":"c1fe3e48","stabilizerNFTContract()":"bec070d6","supportsInterface(bytes4)":"01ffc9a7","syncStEthAndGetCollateralizationRatio((uint256,uint8,uint256))":"c6d56aa9","syncStEthBalance()":"fc523471","tokenId()":"17d70f7c","yieldFactorAtLastUpdate()":"8175ad23"},"storageLayout":{"storage":[{"astId":52741,"contract":"src/PositionEscrow.sol:PositionEscrow","label":"stabilizerNFTContract","offset":0,"slot":"0","type":"t_address"},{"astId":52744,"contract":"src/PositionEscrow.sol:PositionEscrow","label":"stETH","offset":0,"slot":"1","type":"t_address"},{"astId":52747,"contract":"src/PositionEscrow.sol:PositionEscrow","label":"lido","offset":0,"slot":"2","type":"t_address"},{"astId":52750,"contract":"src/PositionEscrow.sol:PositionEscrow","label":"rateContract","offset":0,"slot":"3","type":"t_address"},{"astId":52753,"contract":"src/PositionEscrow.sol:PositionEscrow","label":"oracle","offset":0,"slot":"4","type":"t_address"},{"astId":52756,"contract":"src/PositionEscrow.sol:PositionEscrow","label":"tokenId","offset":0,"slot":"5","type":"t_uint256"},{"astId":52759,"contract":"src/PositionEscrow.sol:PositionEscrow","label":"backedPoolShares","offset":0,"slot":"6","type":"t_uint256"},{"astId":52761,"contract":"src/PositionEscrow.sol:PositionEscrow","label":"lockedStEth","offset":0,"slot":"7","type":"t_uint256"},{"astId":52763,"contract":"src/PositionEscrow.sol:PositionEscrow","label":"yieldFactorAtLastUpdate","offset":0,"slot":"8","type":"t_uint256"}],"types":{"t_address":{"encoding":"inplace","label":"address","numberOfBytes":"20"},"t_uint256":{"encoding":"inplace","label":"uint256","numberOfBytes":"32"}}},"id":75}