{"abi":[{"type":"constructor","inputs":[{"name":"name","type":"string","internalType":"string"},{"name":"symbol","type":"string","internalType":"string"},{"name":"_cuspdTokenAddress","type":"address","internalType":"address"},{"name":"_rateContractAddress","type":"address","internalType":"address"},{"name":"_admin","type":"address","internalType":"address"}],"stateMutability":"nonpayable"},{"type":"receive","stateMutability":"payable"},{"type":"function","name":"DEFAULT_ADMIN_ROLE","inputs":[],"outputs":[{"name":"","type":"bytes32","internalType":"bytes32"}],"stateMutability":"view"},{"type":"function","name":"DOMAIN_SEPARATOR","inputs":[],"outputs":[{"name":"","type":"bytes32","internalType":"bytes32"}],"stateMutability":"view"},{"type":"function","name":"FACTOR_PRECISION","inputs":[],"outputs":[{"name":"","type":"uint256","internalType":"uint256"}],"stateMutability":"view"},{"type":"function","name":"RELAYER_ROLE","inputs":[],"outputs":[{"name":"","type":"bytes32","internalType":"bytes32"}],"stateMutability":"view"},{"type":"function","name":"allowance","inputs":[{"name":"owner","type":"address","internalType":"address"},{"name":"spender","type":"address","internalType":"address"}],"outputs":[{"name":"","type":"uint256","internalType":"uint256"}],"stateMutability":"view"},{"type":"function","name":"approve","inputs":[{"name":"spender","type":"address","internalType":"address"},{"name":"value","type":"uint256","internalType":"uint256"}],"outputs":[{"name":"","type":"bool","internalType":"bool"}],"stateMutability":"nonpayable"},{"type":"function","name":"balanceOf","inputs":[{"name":"account","type":"address","internalType":"address"}],"outputs":[{"name":"","type":"uint256","internalType":"uint256"}],"stateMutability":"view"},{"type":"function","name":"bridgeEscrowAddress","inputs":[],"outputs":[{"name":"","type":"address","internalType":"address"}],"stateMutability":"view"},{"type":"function","name":"cuspdToken","inputs":[],"outputs":[{"name":"","type":"address","internalType":"contract IcUSPDToken"}],"stateMutability":"view"},{"type":"function","name":"decimals","inputs":[],"outputs":[{"name":"","type":"uint8","internalType":"uint8"}],"stateMutability":"view"},{"type":"function","name":"eip712Domain","inputs":[],"outputs":[{"name":"fields","type":"bytes1","internalType":"bytes1"},{"name":"name","type":"string","internalType":"string"},{"name":"version","type":"string","internalType":"string"},{"name":"chainId","type":"uint256","internalType":"uint256"},{"name":"verifyingContract","type":"address","internalType":"address"},{"name":"salt","type":"bytes32","internalType":"bytes32"},{"name":"extensions","type":"uint256[]","internalType":"uint256[]"}],"stateMutability":"view"},{"type":"function","name":"getRoleAdmin","inputs":[{"name":"role","type":"bytes32","internalType":"bytes32"}],"outputs":[{"name":"","type":"bytes32","internalType":"bytes32"}],"stateMutability":"view"},{"type":"function","name":"grantRole","inputs":[{"name":"role","type":"bytes32","internalType":"bytes32"},{"name":"account","type":"address","internalType":"address"}],"outputs":[],"stateMutability":"nonpayable"},{"type":"function","name":"hasRole","inputs":[{"name":"role","type":"bytes32","internalType":"bytes32"},{"name":"account","type":"address","internalType":"address"}],"outputs":[{"name":"","type":"bool","internalType":"bool"}],"stateMutability":"view"},{"type":"function","name":"lockForBridging","inputs":[{"name":"uspdAmountToBridge","type":"uint256","internalType":"uint256"},{"name":"targetChainId","type":"uint256","internalType":"uint256"}],"outputs":[],"stateMutability":"nonpayable"},{"type":"function","name":"mint","inputs":[{"name":"to","type":"address","internalType":"address"},{"name":"priceQuery","type":"tuple","internalType":"struct IPriceOracle.PriceAttestationQuery","components":[{"name":"price","type":"uint256","internalType":"uint256"},{"name":"decimals","type":"uint8","internalType":"uint8"},{"name":"dataTimestamp","type":"uint256","internalType":"uint256"},{"name":"assetPair","type":"bytes32","internalType":"bytes32"},{"name":"signature","type":"bytes","internalType":"bytes"}]}],"outputs":[],"stateMutability":"payable"},{"type":"function","name":"name","inputs":[],"outputs":[{"name":"","type":"string","internalType":"string"}],"stateMutability":"view"},{"type":"function","name":"nonces","inputs":[{"name":"owner","type":"address","internalType":"address"}],"outputs":[{"name":"","type":"uint256","internalType":"uint256"}],"stateMutability":"view"},{"type":"function","name":"permit","inputs":[{"name":"owner","type":"address","internalType":"address"},{"name":"spender","type":"address","internalType":"address"},{"name":"value","type":"uint256","internalType":"uint256"},{"name":"deadline","type":"uint256","internalType":"uint256"},{"name":"v","type":"uint8","internalType":"uint8"},{"name":"r","type":"bytes32","internalType":"bytes32"},{"name":"s","type":"bytes32","internalType":"bytes32"}],"outputs":[],"stateMutability":"nonpayable"},{"type":"function","name":"rateContract","inputs":[],"outputs":[{"name":"","type":"address","internalType":"contract IPoolSharesConversionRate"}],"stateMutability":"view"},{"type":"function","name":"renounceRole","inputs":[{"name":"role","type":"bytes32","internalType":"bytes32"},{"name":"callerConfirmation","type":"address","internalType":"address"}],"outputs":[],"stateMutability":"nonpayable"},{"type":"function","name":"revokeRole","inputs":[{"name":"role","type":"bytes32","internalType":"bytes32"},{"name":"account","type":"address","internalType":"address"}],"outputs":[],"stateMutability":"nonpayable"},{"type":"function","name":"setBridgeEscrowAddress","inputs":[{"name":"_bridgeEscrowAddress","type":"address","internalType":"address"}],"outputs":[],"stateMutability":"nonpayable"},{"type":"function","name":"supportsInterface","inputs":[{"name":"interfaceId","type":"bytes4","internalType":"bytes4"}],"outputs":[{"name":"","type":"bool","internalType":"bool"}],"stateMutability":"view"},{"type":"function","name":"symbol","inputs":[],"outputs":[{"name":"","type":"string","internalType":"string"}],"stateMutability":"view"},{"type":"function","name":"totalSupply","inputs":[],"outputs":[{"name":"","type":"uint256","internalType":"uint256"}],"stateMutability":"view"},{"type":"function","name":"transfer","inputs":[{"name":"to","type":"address","internalType":"address"},{"name":"uspdAmount","type":"uint256","internalType":"uint256"}],"outputs":[{"name":"","type":"bool","internalType":"bool"}],"stateMutability":"nonpayable"},{"type":"function","name":"transferFrom","inputs":[{"name":"from","type":"address","internalType":"address"},{"name":"to","type":"address","internalType":"address"},{"name":"uspdAmount","type":"uint256","internalType":"uint256"}],"outputs":[{"name":"","type":"bool","internalType":"bool"}],"stateMutability":"nonpayable"},{"type":"function","name":"unlockFromBridging","inputs":[{"name":"recipient","type":"address","internalType":"address"},{"name":"uspdAmountIntended","type":"uint256","internalType":"uint256"},{"name":"sourceChainYieldFactor","type":"uint256","internalType":"uint256"},{"name":"sourceChainId","type":"uint256","internalType":"uint256"}],"outputs":[],"stateMutability":"nonpayable"},{"type":"function","name":"updateCUSPDAddress","inputs":[{"name":"newCUSPDAddress","type":"address","internalType":"address"}],"outputs":[],"stateMutability":"nonpayable"},{"type":"function","name":"updateRateContract","inputs":[{"name":"newRateContract","type":"address","internalType":"address"}],"outputs":[],"stateMutability":"nonpayable"},{"type":"event","name":"Approval","inputs":[{"name":"owner","type":"address","indexed":true,"internalType":"address"},{"name":"spender","type":"address","indexed":true,"internalType":"address"},{"name":"value","type":"uint256","indexed":false,"internalType":"uint256"}],"anonymous":false},{"type":"event","name":"BridgeEscrowAddressUpdated","inputs":[{"name":"oldAddress","type":"address","indexed":true,"internalType":"address"},{"name":"newAddress","type":"address","indexed":true,"internalType":"address"}],"anonymous":false},{"type":"event","name":"CUSPDAddressUpdated","inputs":[{"name":"oldCUSPDAddress","type":"address","indexed":true,"internalType":"address"},{"name":"newCUSPDAddress","type":"address","indexed":true,"internalType":"address"}],"anonymous":false},{"type":"event","name":"EIP712DomainChanged","inputs":[],"anonymous":false},{"type":"event","name":"LockForBridgingInitiated","inputs":[{"name":"tokenAdapter","type":"address","indexed":true,"internalType":"address"},{"name":"targetChainId","type":"uint256","indexed":true,"internalType":"uint256"},{"name":"uspdAmount","type":"uint256","indexed":false,"internalType":"uint256"},{"name":"cUSPDShareAmount","type":"uint256","indexed":false,"internalType":"uint256"}],"anonymous":false},{"type":"event","name":"RateContractUpdated","inputs":[{"name":"oldRateContract","type":"address","indexed":true,"internalType":"address"},{"name":"newRateContract","type":"address","indexed":true,"internalType":"address"}],"anonymous":false},{"type":"event","name":"RoleAdminChanged","inputs":[{"name":"role","type":"bytes32","indexed":true,"internalType":"bytes32"},{"name":"previousAdminRole","type":"bytes32","indexed":true,"internalType":"bytes32"},{"name":"newAdminRole","type":"bytes32","indexed":true,"internalType":"bytes32"}],"anonymous":false},{"type":"event","name":"RoleGranted","inputs":[{"name":"role","type":"bytes32","indexed":true,"internalType":"bytes32"},{"name":"account","type":"address","indexed":true,"internalType":"address"},{"name":"sender","type":"address","indexed":true,"internalType":"address"}],"anonymous":false},{"type":"event","name":"RoleRevoked","inputs":[{"name":"role","type":"bytes32","indexed":true,"internalType":"bytes32"},{"name":"account","type":"address","indexed":true,"internalType":"address"},{"name":"sender","type":"address","indexed":true,"internalType":"address"}],"anonymous":false},{"type":"event","name":"Transfer","inputs":[{"name":"from","type":"address","indexed":true,"internalType":"address"},{"name":"to","type":"address","indexed":true,"internalType":"address"},{"name":"value","type":"uint256","indexed":false,"internalType":"uint256"}],"anonymous":false},{"type":"event","name":"UnlockFromBridgingInitiated","inputs":[{"name":"recipient","type":"address","indexed":true,"internalType":"address"},{"name":"sourceChainId","type":"uint256","indexed":true,"internalType":"uint256"},{"name":"uspdAmountIntended","type":"uint256","indexed":false,"internalType":"uint256"},{"name":"sourceChainYieldFactor","type":"uint256","indexed":false,"internalType":"uint256"},{"name":"cUSPDShareAmount","type":"uint256","indexed":false,"internalType":"uint256"}],"anonymous":false},{"type":"error","name":"AccessControlBadConfirmation","inputs":[]},{"type":"error","name":"AccessControlUnauthorizedAccount","inputs":[{"name":"account","type":"address","internalType":"address"},{"name":"neededRole","type":"bytes32","internalType":"bytes32"}]},{"type":"error","name":"AmountTooSmall","inputs":[]},{"type":"error","name":"BridgeEscrowNotSet","inputs":[]},{"type":"error","name":"ECDSAInvalidSignature","inputs":[]},{"type":"error","name":"ECDSAInvalidSignatureLength","inputs":[{"name":"length","type":"uint256","internalType":"uint256"}]},{"type":"error","name":"ECDSAInvalidSignatureS","inputs":[{"name":"s","type":"bytes32","internalType":"bytes32"}]},{"type":"error","name":"ERC20InsufficientAllowance","inputs":[{"name":"spender","type":"address","internalType":"address"},{"name":"allowance","type":"uint256","internalType":"uint256"},{"name":"needed","type":"uint256","internalType":"uint256"}]},{"type":"error","name":"ERC20InsufficientBalance","inputs":[{"name":"sender","type":"address","internalType":"address"},{"name":"balance","type":"uint256","internalType":"uint256"},{"name":"needed","type":"uint256","internalType":"uint256"}]},{"type":"error","name":"ERC20InvalidApprover","inputs":[{"name":"approver","type":"address","internalType":"address"}]},{"type":"error","name":"ERC20InvalidReceiver","inputs":[{"name":"receiver","type":"address","internalType":"address"}]},{"type":"error","name":"ERC20InvalidSender","inputs":[{"name":"sender","type":"address","internalType":"address"}]},{"type":"error","name":"ERC20InvalidSpender","inputs":[{"name":"spender","type":"address","internalType":"address"}]},{"type":"error","name":"ERC2612ExpiredSignature","inputs":[{"name":"deadline","type":"uint256","internalType":"uint256"}]},{"type":"error","name":"ERC2612InvalidSigner","inputs":[{"name":"signer","type":"address","internalType":"address"},{"name":"owner","type":"address","internalType":"address"}]},{"type":"error","name":"InvalidAccountNonce","inputs":[{"name":"account","type":"address","internalType":"address"},{"name":"currentNonce","type":"uint256","internalType":"uint256"}]},{"type":"error","name":"InvalidShortString","inputs":[]},{"type":"error","name":"InvalidYieldFactor","inputs":[]},{"type":"error","name":"StringTooLong","inputs":[{"name":"str","type":"string","internalType":"string"}]},{"type":"error","name":"ZeroAddress","inputs":[]}],"bytecode":{"object":"0x610160604052348015610010575f5ffd5b5060405161281938038061281983398101604081905261002f91610439565b6040805180820190915260018152603160f81b602082015285908190818760036100598382610552565b5060046100668282610552565b5061007691508390506005610267565b61012052610085816006610267565b61014052815160208084019190912060e052815190820120610100524660a05261011160e05161010051604080517f8b73c3c69bb8fe3d512ecc4cf759cc79239f7b179b0ffacaa9a75d522b39400f60208201529081019290925260608201524660808201523060a08201525f9060c00160405160208183030381529060405280519060200120905090565b60805250503060c052506001600160a01b0383166101765760405162461bcd60e51b815260206004820152601860248201527f555350443a205a65726f2063555350442061646472657373000000000000000060448201526064015b60405180910390fd5b6001600160a01b0382166101cc5760405162461bcd60e51b815260206004820181905260248201527f555350443a205a65726f207261746520636f6e74726163742061646472657373604482015260640161016d565b6001600160a01b0381166102225760405162461bcd60e51b815260206004820152601860248201527f555350443a205a65726f2061646d696e20616464726573730000000000000000604482015260640161016d565b600980546001600160a01b038086166001600160a01b031992831617909255600a80549285169290911691909117905561025c5f82610299565b505050505050610664565b5f6020835110156102825761027b83610344565b9050610293565b8161028d8482610552565b5060ff90505b92915050565b5f8281526008602090815260408083206001600160a01b038516845290915281205460ff1661033d575f8381526008602090815260408083206001600160a01b03861684529091529020805460ff191660011790556102f53390565b6001600160a01b0316826001600160a01b0316847f2f8788117e7eff1d82e926ec794901d17c78024a50270940304540a733656f0d60405160405180910390a4506001610293565b505f610293565b5f5f829050601f8151111561036e578260405163305a27a960e01b815260040161016d919061060c565b805161037982610641565b179392505050565b634e487b7160e01b5f52604160045260245ffd5b5f82601f8301126103a4575f5ffd5b81516001600160401b038111156103bd576103bd610381565b604051601f8201601f19908116603f011681016001600160401b03811182821017156103eb576103eb610381565b604052818152838201602001851015610402575f5ffd5b8160208501602083015e5f918101602001919091529392505050565b80516001600160a01b0381168114610434575f5ffd5b919050565b5f5f5f5f5f60a0868803121561044d575f5ffd5b85516001600160401b03811115610462575f5ffd5b61046e88828901610395565b602088015190965090506001600160401b0381111561048b575f5ffd5b61049788828901610395565b9450506104a66040870161041e565b92506104b46060870161041e565b91506104c26080870161041e565b90509295509295909350565b600181811c908216806104e257607f821691505b60208210810361050057634e487b7160e01b5f52602260045260245ffd5b50919050565b601f82111561054d57805f5260205f20601f840160051c8101602085101561052b5750805b601f840160051c820191505b8181101561054a575f8155600101610537565b50505b505050565b81516001600160401b0381111561056b5761056b610381565b61057f8161057984546104ce565b84610506565b6020601f8211600181146105b1575f831561059a5750848201515b5f19600385901b1c1916600184901b17845561054a565b5f84815260208120601f198516915b828110156105e057878501518255602094850194600190920191016105c0565b50848210156105fd57868401515f19600387901b60f8161c191681555b50505050600190811b01905550565b602081525f82518060208401528060208501604085015e5f604082850101526040601f19601f83011684010191505092915050565b80516020808301519190811015610500575f1960209190910360031b1b16919050565b60805160a05160c05160e0516101005161012051610140516121646106b55f395f61188001525f61185301525f61179101525f61176901525f6116c401525f6116ee01525f61171801526121645ff3fe6080604052600436106101d3575f3560e01c80637d08a771116100fd578063a6f4ae2711610092578063d547741f11610062578063d547741f146105c4578063dd62ed3e146105e3578063e7b14eeb14610627578063eee242191461063a575f5ffd5b8063a6f4ae2714610548578063a9059cbb14610567578063b6501f0514610586578063d505accf146105a5575f5ffd5b8063926d7d7f116100cd578063926d7d7f146104d357806395d89b4114610506578063a217fddf1461051a578063a42c69a91461052d575f5ffd5b80637d08a7711461044f5780637ecebe001461046e57806384b0196e1461048d57806391d14854146104b4575f5ffd5b8063248a9ca31161017357806336568abe1161014357806336568abe146103d357806351cab913146103f25780636bc05b7e1461041157806370a0823114610430575f5ffd5b8063248a9ca3146103575780632f2ff15d14610385578063313ce567146103a45780633644e515146103bf575f5ffd5b80630a9c6819116101ae5780630a9c6819146102c057806318160ddd146102df5780631a2a4a8e1461030157806323b872dd14610338575f5ffd5b806301ffc9a71461024c57806306fdde0314610280578063095ea7b3146102a1575f5ffd5b36610248576009546001600160a01b031633146102465760405162461bcd60e51b815260206004820152602660248201527f555350443a2044697265637420455448207472616e7366657273206e6f7420616044820152651b1b1bddd95960d21b60648201526084015b60405180910390fd5b005b5f5ffd5b348015610257575f5ffd5b5061026b610266366004611c9a565b610659565b60405190151581526020015b60405180910390f35b34801561028b575f5ffd5b5061029461068f565b6040516102779190611cef565b3480156102ac575f5ffd5b5061026b6102bb366004611d1c565b61071f565b3480156102cb575f5ffd5b506102466102da366004611d44565b610736565b3480156102ea575f5ffd5b506102f36107c3565b604051908152602001610277565b34801561030c575f5ffd5b50600b54610320906001600160a01b031681565b6040516001600160a01b039091168152602001610277565b348015610343575f5ffd5b5061026b610352366004611d5d565b610903565b348015610362575f5ffd5b506102f3610371366004611d97565b5f9081526008602052604090206001015490565b348015610390575f5ffd5b5061024661039f366004611dae565b610a66565b3480156103af575f5ffd5b5060405160128152602001610277565b3480156103ca575f5ffd5b506102f3610a90565b3480156103de575f5ffd5b506102466103ed366004611dae565b610a9e565b3480156103fd575f5ffd5b5061024661040c366004611dd8565b610ad6565b34801561041c575f5ffd5b50600954610320906001600160a01b031681565b34801561043b575f5ffd5b506102f361044a366004611d44565b610c87565b34801561045a575f5ffd5b50610246610469366004611e0e565b610dc4565b348015610479575f5ffd5b506102f3610488366004611d44565b611010565b348015610498575f5ffd5b506104a161102d565b6040516102779796959493929190611e2e565b3480156104bf575f5ffd5b5061026b6104ce366004611dae565b61106f565b3480156104de575f5ffd5b506102f37fe2b7fb3b832174769106daebcfd6d1970523240dda11281102db9363b83b0dc481565b348015610511575f5ffd5b50610294611099565b348015610525575f5ffd5b506102f35f81565b348015610538575f5ffd5b506102f3670de0b6b3a764000081565b348015610553575f5ffd5b50610246610562366004611d44565b6110a8565b348015610572575f5ffd5b5061026b610581366004611d1c565b611135565b348015610591575f5ffd5b506102466105a0366004611d44565b61128a565b3480156105b0575f5ffd5b506102466105bf366004611ed4565b611317565b3480156105cf575f5ffd5b506102466105de366004611dae565b61144d565b3480156105ee575f5ffd5b506102f36105fd366004611f3a565b6001600160a01b039182165f90815260016020908152604080832093909416825291909152205490565b610246610635366004611f62565b611471565b348015610645575f5ffd5b50600a54610320906001600160a01b031681565b5f6001600160e01b03198216637965db0b60e01b148061068957506301ffc9a760e01b6001600160e01b03198316145b92915050565b60606003805461069e90611fb3565b80601f01602080910402602001604051908101604052809291908181526020018280546106ca90611fb3565b80156107155780601f106106ec57610100808354040283529160200191610715565b820191905f5260205f20905b8154815290600101906020018083116106f857829003601f168201915b5050505050905090565b5f3361072c818585611597565b5060019392505050565b5f610740816115a4565b6001600160a01b0382166107675760405163d92e233d60e01b815260040160405180910390fd5b6009546040516001600160a01b038085169216907f974190c639ecade8910423bd4d87599b333611969e577aca3bb7135069ea9723905f90a350600980546001600160a01b0319166001600160a01b0392909216919091179055565b600a545f906001600160a01b031615806107e657506009546001600160a01b0316155b156107f057505f90565b600a546040805163efa7fa5d60e01b815290515f926001600160a01b03169163efa7fa5d9160048083019260209291908290030181865afa158015610837573d5f5f3e3d5ffd5b505050506040513d601f19601f8201168201806040525081019061085b9190611feb565b9050805f0361086b575f91505090565b670de0b6b3a76400008160095f9054906101000a90046001600160a01b03166001600160a01b03166318160ddd6040518163ffffffff1660e01b8152600401602060405180830381865afa1580156108c5573d5f5f3e3d5ffd5b505050506040513d601f19601f820116820180604052508101906108e99190611feb565b6108f39190612002565b6108fd9190612025565b91505090565b5f5f600a5f9054906101000a90046001600160a01b03166001600160a01b031663efa7fa5d6040518163ffffffff1660e01b8152600401602060405180830381865afa158015610955573d5f5f3e3d5ffd5b505050506040513d601f19601f820116820180604052508101906109799190611feb565b9050805f0361099b57604051637278bcd360e01b815260040160405180910390fd5b5f816109af670de0b6b3a764000086612002565b6109b99190612025565b9050801580156109c857505f84115b156109e65760405163617ab12d60e11b815260040160405180910390fd5b6109f18633866115b1565b600954604051631cb1df1560e31b81526001600160a01b0388811660048301528781166024830152604482018490529091169063e58ef8a8906064015f604051808303815f87803b158015610a44575f5ffd5b505af1158015610a56573d5f5f3e3d5ffd5b5060019998505050505050505050565b5f82815260086020526040902060010154610a80816115a4565b610a8a8383611627565b50505050565b5f610a996116b8565b905090565b6001600160a01b0381163314610ac75760405163334bd91960e11b815260040160405180910390fd5b610ad182826117e1565b505050565b7fe2b7fb3b832174769106daebcfd6d1970523240dda11281102db9363b83b0dc4610b00816115a4565b600b546001600160a01b0316610b29576040516337cc76b960e01b815260040160405180910390fd5b6001600160a01b038516610b505760405163d92e233d60e01b815260040160405180910390fd5b825f03610b7057604051637278bcd360e01b815260040160405180910390fd5b5f83610b84670de0b6b3a764000087612002565b610b8e9190612025565b905080158015610b9d57505f85115b15610bbb5760405163617ab12d60e11b815260040160405180910390fd5b600b5460405163727fca5f60e01b81526001600160a01b038881166004830152602482018490526044820186905260648201889052608482018790529091169063727fca5f9060a4015f604051808303815f87803b158015610c1b575f5ffd5b505af1158015610c2d573d5f5f3e3d5ffd5b505060408051888152602081018890529081018490528592506001600160a01b03891691507f3ddf88d4935a0e526d3301fcc42bd043672d906fbf6ab83fc5b3d51b52fe229f9060600160405180910390a3505050505050565b600a545f906001600160a01b03161580610caa57506009546001600160a01b0316155b15610cb657505f919050565b600a546040805163efa7fa5d60e01b815290515f926001600160a01b03169163efa7fa5d9160048083019260209291908290030181865afa158015610cfd573d5f5f3e3d5ffd5b505050506040513d601f19601f82011682018060405250810190610d219190611feb565b9050805f03610d3257505f92915050565b6009546040516370a0823160e01b81526001600160a01b038581166004830152670de0b6b3a76400009284929116906370a0823190602401602060405180830381865afa158015610d85573d5f5f3e3d5ffd5b505050506040513d601f19601f82011682018060405250810190610da99190611feb565b610db39190612002565b610dbd9190612025565b9392505050565b7fe2b7fb3b832174769106daebcfd6d1970523240dda11281102db9363b83b0dc4610dee816115a4565b600b546001600160a01b0316610e17576040516337cc76b960e01b815260040160405180910390fd5b600a546040805163efa7fa5d60e01b815290515f926001600160a01b03169163efa7fa5d9160048083019260209291908290030181865afa158015610e5e573d5f5f3e3d5ffd5b505050506040513d601f19601f82011682018060405250810190610e829190611feb565b9050805f03610ea457604051637278bcd360e01b815260040160405180910390fd5b5f81610eb8670de0b6b3a764000087612002565b610ec29190612025565b905080158015610ed157505f85115b15610eef5760405163617ab12d60e11b815260040160405180910390fd5b600954600b54604051631cb1df1560e31b81523360048201526001600160a01b0391821660248201526044810184905291169063e58ef8a8906064015f604051808303815f87803b158015610f42575f5ffd5b505af1158015610f54573d5f5f3e3d5ffd5b5050600b546040516375ca208d60e01b8152600481018590526024810188905260448101899052606481018690523360848201526001600160a01b0390911692506375ca208d915060a4015f604051808303815f87803b158015610fb6575f5ffd5b505af1158015610fc8573d5f5f3e3d5ffd5b505060408051888152602081018590528793503392507fe8d4f7eb343525ad4e1e4e5d4ffbdf599818752c9296f694ba3e23f8e89b75a0910160405180910390a35050505050565b6001600160a01b0381165f90815260076020526040812054610689565b5f6060805f5f5f606061103e61184c565b611046611879565b604080515f80825260208201909252600f60f81b9b939a50919850469750309650945092509050565b5f9182526008602090815260408084206001600160a01b0393909316845291905290205460ff1690565b60606004805461069e90611fb3565b5f6110b2816115a4565b6001600160a01b0382166110d95760405163d92e233d60e01b815260040160405180910390fd5b600a546040516001600160a01b038085169216907f7f0de29187af70d0a98056dd080553d3dec269c81e80033f3ca34a97b3985d3a905f90a350600a80546001600160a01b0319166001600160a01b0392909216919091179055565b5f5f600a5f9054906101000a90046001600160a01b03166001600160a01b031663efa7fa5d6040518163ffffffff1660e01b8152600401602060405180830381865afa158015611187573d5f5f3e3d5ffd5b505050506040513d601f19601f820116820180604052508101906111ab9190611feb565b9050805f036111cd57604051637278bcd360e01b815260040160405180910390fd5b5f816111e1670de0b6b3a764000086612002565b6111eb9190612025565b9050801580156111fa57505f84115b156112185760405163617ab12d60e11b815260040160405180910390fd5b600954604051631cb1df1560e31b81523360048201526001600160a01b038781166024830152604482018490529091169063e58ef8a8906064015f604051808303815f87803b158015611269575f5ffd5b505af115801561127b573d5f5f3e3d5ffd5b50600198975050505050505050565b5f611294816115a4565b6001600160a01b0382166112bb5760405163d92e233d60e01b815260040160405180910390fd5b600b546040516001600160a01b038085169216907f0842e0125c5dd8fb48b1a967ae420e8954c9ccb1f6a29f83ff9da9204895ff1a905f90a350600b80546001600160a01b0319166001600160a01b0392909216919091179055565b8342111561133b5760405163313c898160e11b81526004810185905260240161023d565b5f7f6e71edae12b1b97f4d1f60370fef10105fa2faae0126114a169c64845d6126c98888886113868c6001600160a01b03165f90815260076020526040902080546001810190915590565b6040805160208101969096526001600160a01b0394851690860152929091166060840152608083015260a082015260c0810186905260e0016040516020818303038152906040528051906020012090505f6113e0826118a6565b90505f6113ef828787876118d2565b9050896001600160a01b0316816001600160a01b031614611436576040516325c0072360e11b81526001600160a01b0380831660048301528b16602482015260440161023d565b6114418a8a8a611597565b50505050505050505050565b5f82815260086020526040902060010154611467816115a4565b610a8a83836117e1565b6001600160a01b0382166114c75760405162461bcd60e51b815260206004820152601a60248201527f555350443a204d696e7420746f207a65726f2061646472657373000000000000604482015260640161023d565b6009546001600160a01b03166114f05760405163d92e233d60e01b815260040160405180910390fd5b60095460405163bda11bed60e01b81525f916001600160a01b03169063bda11bed903490611524908790879060040161206c565b60206040518083038185885af1158015611540573d5f5f3e3d5ffd5b50505050506040513d601f19601f820116820180604052508101906115659190611feb565b90508015610ad157604051339082156108fc029083905f818181858888f19350505050158015610a8a573d5f5f3e3d5ffd5b610ad183838360016118fe565b6115ae81336119d0565b50565b6001600160a01b038381165f908152600160209081526040808320938616835292905220545f19811015610a8a578181101561161957604051637dc7a0d960e11b81526001600160a01b0384166004820152602481018290526044810183905260640161023d565b610a8a84848484035f6118fe565b5f611632838361106f565b6116b1575f8381526008602090815260408083206001600160a01b03861684529091529020805460ff191660011790556116693390565b6001600160a01b0316826001600160a01b0316847f2f8788117e7eff1d82e926ec794901d17c78024a50270940304540a733656f0d60405160405180910390a4506001610689565b505f610689565b5f306001600160a01b037f00000000000000000000000000000000000000000000000000000000000000001614801561171057507f000000000000000000000000000000000000000000000000000000000000000046145b1561173a57507f000000000000000000000000000000000000000000000000000000000000000090565b610a99604080517f8b73c3c69bb8fe3d512ecc4cf759cc79239f7b179b0ffacaa9a75d522b39400f60208201527f0000000000000000000000000000000000000000000000000000000000000000918101919091527f000000000000000000000000000000000000000000000000000000000000000060608201524660808201523060a08201525f9060c00160405160208183030381529060405280519060200120905090565b5f6117ec838361106f565b156116b1575f8381526008602090815260408083206001600160a01b0386168085529252808320805460ff1916905551339286917ff6391f5c32d9c69d2a47ea670b442974b53935d1edc7fd64eb21e047a839171b9190a4506001610689565b6060610a997f00000000000000000000000000000000000000000000000000000000000000006005611a0d565b6060610a997f00000000000000000000000000000000000000000000000000000000000000006006611a0d565b5f6106896118b26116b8565b8360405161190160f01b8152600281019290925260228201526042902090565b5f5f5f5f6118e288888888611ab6565b9250925092506118f28282611b7e565b50909695505050505050565b6001600160a01b0384166119275760405163e602df0560e01b81525f600482015260240161023d565b6001600160a01b03831661195057604051634a1406b160e11b81525f600482015260240161023d565b6001600160a01b038085165f9081526001602090815260408083209387168352929052208290558015610a8a57826001600160a01b0316846001600160a01b03167f8c5be1e5ebec7d5bd14f71427d1e84f3dd0314c0f7b2291e5b200ac8c7c3b925846040516119c291815260200190565b60405180910390a350505050565b6119da828261106f565b611a095760405163e2517d3f60e01b81526001600160a01b03821660048201526024810183905260440161023d565b5050565b606060ff8314611a2757611a2083611c36565b9050610689565b818054611a3390611fb3565b80601f0160208091040260200160405190810160405280929190818152602001828054611a5f90611fb3565b8015611aaa5780601f10611a8157610100808354040283529160200191611aaa565b820191905f5260205f20905b815481529060010190602001808311611a8d57829003601f168201915b50505050509050610689565b5f80807f7fffffffffffffffffffffffffffffff5d576e7357a4501ddfe92f46681b20a0841115611aef57505f91506003905082611b74565b604080515f808252602082018084528a905260ff891692820192909252606081018790526080810186905260019060a0016020604051602081039080840390855afa158015611b40573d5f5f3e3d5ffd5b5050604051601f1901519150506001600160a01b038116611b6b57505f925060019150829050611b74565b92505f91508190505b9450945094915050565b5f826003811115611b9157611b9161211a565b03611b9a575050565b6001826003811115611bae57611bae61211a565b03611bcc5760405163f645eedf60e01b815260040160405180910390fd5b6002826003811115611be057611be061211a565b03611c015760405163fce698f760e01b81526004810182905260240161023d565b6003826003811115611c1557611c1561211a565b03611a09576040516335e2f38360e21b81526004810182905260240161023d565b60605f611c4283611c73565b6040805160208082528183019092529192505f91906020820181803683375050509182525060208101929092525090565b5f60ff8216601f81111561068957604051632cd44ac360e21b815260040160405180910390fd5b5f60208284031215611caa575f5ffd5b81356001600160e01b031981168114610dbd575f5ffd5b5f81518084528060208401602086015e5f602082860101526020601f19601f83011685010191505092915050565b602081525f610dbd6020830184611cc1565b80356001600160a01b0381168114611d17575f5ffd5b919050565b5f5f60408385031215611d2d575f5ffd5b611d3683611d01565b946020939093013593505050565b5f60208284031215611d54575f5ffd5b610dbd82611d01565b5f5f5f60608486031215611d6f575f5ffd5b611d7884611d01565b9250611d8660208501611d01565b929592945050506040919091013590565b5f60208284031215611da7575f5ffd5b5035919050565b5f5f60408385031215611dbf575f5ffd5b82359150611dcf60208401611d01565b90509250929050565b5f5f5f5f60808587031215611deb575f5ffd5b611df485611d01565b966020860135965060408601359560600135945092505050565b5f5f60408385031215611e1f575f5ffd5b50508035926020909101359150565b60ff60f81b8816815260e060208201525f611e4c60e0830189611cc1565b8281036040840152611e5e8189611cc1565b606084018890526001600160a01b038716608085015260a0840186905283810360c0850152845180825260208087019350909101905f5b81811015611eb3578351835260209384019390920191600101611e95565b50909b9a5050505050505050505050565b803560ff81168114611d17575f5ffd5b5f5f5f5f5f5f5f60e0888a031215611eea575f5ffd5b611ef388611d01565b9650611f0160208901611d01565b95506040880135945060608801359350611f1d60808901611ec4565b9699959850939692959460a0840135945060c09093013592915050565b5f5f60408385031215611f4b575f5ffd5b611f5483611d01565b9150611dcf60208401611d01565b5f5f60408385031215611f73575f5ffd5b611f7c83611d01565b9150602083013567ffffffffffffffff811115611f97575f5ffd5b830160a08186031215611fa8575f5ffd5b809150509250929050565b600181811c90821680611fc757607f821691505b602082108103611fe557634e487b7160e01b5f52602260045260245ffd5b50919050565b5f60208284031215611ffb575f5ffd5b5051919050565b808202811582820484141761068957634e487b7160e01b5f52601160045260245ffd5b5f8261203f57634e487b7160e01b5f52601260045260245ffd5b500490565b81835281816020850137505f828201602090810191909152601f909101601f19169091010190565b6001600160a01b0383168152604060208083018290528335918301919091525f9060ff9061209b908501611ec4565b1660608381019190915260408401356080808501919091529084013560a084015283013536849003601e190181126120d1575f5ffd5b830160208101903567ffffffffffffffff8111156120ed575f5ffd5b8036038213156120fb575f5ffd5b60a060c085015261211060e085018284612044565b9695505050505050565b634e487b7160e01b5f52602160045260245ffdfea2646970667358221220db2296ab61e87eb111ee2993f804d80edc2ed3c864ba25fbec63037e5c6f067364736f6c634300081d0033","linkReferences":{}},"methodIdentifiers":{"DEFAULT_ADMIN_ROLE()":"a217fddf","DOMAIN_SEPARATOR()":"3644e515","FACTOR_PRECISION()":"a42c69a9","RELAYER_ROLE()":"926d7d7f","allowance(address,address)":"dd62ed3e","approve(address,uint256)":"095ea7b3","balanceOf(address)":"70a08231","bridgeEscrowAddress()":"1a2a4a8e","cuspdToken()":"6bc05b7e","decimals()":"313ce567","eip712Domain()":"84b0196e","getRoleAdmin(bytes32)":"248a9ca3","grantRole(bytes32,address)":"2f2ff15d","hasRole(bytes32,address)":"91d14854","lockForBridging(uint256,uint256)":"7d08a771","mint(address,(uint256,uint8,uint256,bytes32,bytes))":"e7b14eeb","name()":"06fdde03","nonces(address)":"7ecebe00","permit(address,address,uint256,uint256,uint8,bytes32,bytes32)":"d505accf","rateContract()":"eee24219","renounceRole(bytes32,address)":"36568abe","revokeRole(bytes32,address)":"d547741f","setBridgeEscrowAddress(address)":"b6501f05","supportsInterface(bytes4)":"01ffc9a7","symbol()":"95d89b41","totalSupply()":"18160ddd","transfer(address,uint256)":"a9059cbb","transferFrom(address,address,uint256)":"23b872dd","unlockFromBridging(address,uint256,uint256,uint256)":"51cab913","updateCUSPDAddress(address)":"0a9c6819","updateRateContract(address)":"a6f4ae27"},"storageLayout":{"storage":[{"astId":43235,"contract":"src/UspdToken.sol:USPDToken","label":"_balances","offset":0,"slot":"0","type":"t_mapping(t_address,t_uint256)"},{"astId":43241,"contract":"src/UspdToken.sol:USPDToken","label":"_allowances","offset":0,"slot":"1","type":"t_mapping(t_address,t_mapping(t_address,t_uint256))"},{"astId":43243,"contract":"src/UspdToken.sol:USPDToken","label":"_totalSupply","offset":0,"slot":"2","type":"t_uint256"},{"astId":43245,"contract":"src/UspdToken.sol:USPDToken","label":"_name","offset":0,"slot":"3","type":"t_string_storage"},{"astId":43247,"contract":"src/UspdToken.sol:USPDToken","label":"_symbol","offset":0,"slot":"4","type":"t_string_storage"},{"astId":46750,"contract":"src/UspdToken.sol:USPDToken","label":"_nameFallback","offset":0,"slot":"5","type":"t_string_storage"},{"astId":46752,"contract":"src/UspdToken.sol:USPDToken","label":"_versionFallback","offset":0,"slot":"6","type":"t_string_storage"},{"astId":44718,"contract":"src/UspdToken.sol:USPDToken","label":"_nonces","offset":0,"slot":"7","type":"t_mapping(t_address,t_uint256)"},{"astId":41742,"contract":"src/UspdToken.sol:USPDToken","label":"_roles","offset":0,"slot":"8","type":"t_mapping(t_bytes32,t_struct(RoleData)41737_storage)"},{"astId":57014,"contract":"src/UspdToken.sol:USPDToken","label":"cuspdToken","offset":0,"slot":"9","type":"t_contract(IcUSPDToken)59058"},{"astId":57017,"contract":"src/UspdToken.sol:USPDToken","label":"rateContract","offset":0,"slot":"10","type":"t_contract(IPoolSharesConversionRate)58688"},{"astId":57019,"contract":"src/UspdToken.sol:USPDToken","label":"bridgeEscrowAddress","offset":0,"slot":"11","type":"t_address"}],"types":{"t_address":{"encoding":"inplace","label":"address","numberOfBytes":"20"},"t_bool":{"encoding":"inplace","label":"bool","numberOfBytes":"1"},"t_bytes32":{"encoding":"inplace","label":"bytes32","numberOfBytes":"32"},"t_contract(IPoolSharesConversionRate)58688":{"encoding":"inplace","label":"contract IPoolSharesConversionRate","numberOfBytes":"20"},"t_contract(IcUSPDToken)59058":{"encoding":"inplace","label":"contract IcUSPDToken","numberOfBytes":"20"},"t_mapping(t_address,t_bool)":{"encoding":"mapping","key":"t_address","label":"mapping(address => bool)","numberOfBytes":"32","value":"t_bool"},"t_mapping(t_address,t_mapping(t_address,t_uint256))":{"encoding":"mapping","key":"t_address","label":"mapping(address => mapping(address => uint256))","numberOfBytes":"32","value":"t_mapping(t_address,t_uint256)"},"t_mapping(t_address,t_uint256)":{"encoding":"mapping","key":"t_address","label":"mapping(address => uint256)","numberOfBytes":"32","value":"t_uint256"},"t_mapping(t_bytes32,t_struct(RoleData)41737_storage)":{"encoding":"mapping","key":"t_bytes32","label":"mapping(bytes32 => struct AccessControl.RoleData)","numberOfBytes":"32","value":"t_struct(RoleData)41737_storage"},"t_string_storage":{"encoding":"bytes","label":"string","numberOfBytes":"32"},"t_struct(RoleData)41737_storage":{"encoding":"inplace","label":"struct AccessControl.RoleData","numberOfBytes":"64","members":[{"astId":41734,"contract":"src/UspdToken.sol:USPDToken","label":"hasRole","offset":0,"slot":"0","type":"t_mapping(t_address,t_bool)"},{"astId":41736,"contract":"src/UspdToken.sol:USPDToken","label":"adminRole","offset":0,"slot":"1","type":"t_bytes32"}]},"t_uint256":{"encoding":"inplace","label":"uint256","numberOfBytes":"32"}}},"id":77}