{"abi":[{"type":"constructor","inputs":[{"name":"name","type":"string","internalType":"string"},{"name":"symbol","type":"string","internalType":"string"},{"name":"_cuspdTokenAddress","type":"address","internalType":"address"},{"name":"_rateContractAddress","type":"address","internalType":"address"},{"name":"_admin","type":"address","internalType":"address"}],"stateMutability":"nonpayable"},{"type":"receive","stateMutability":"payable"},{"type":"function","name":"DEFAULT_ADMIN_ROLE","inputs":[],"outputs":[{"name":"","type":"bytes32","internalType":"bytes32"}],"stateMutability":"view"},{"type":"function","name":"DOMAIN_SEPARATOR","inputs":[],"outputs":[{"name":"","type":"bytes32","internalType":"bytes32"}],"stateMutability":"view"},{"type":"function","name":"FACTOR_PRECISION","inputs":[],"outputs":[{"name":"","type":"uint256","internalType":"uint256"}],"stateMutability":"view"},{"type":"function","name":"allowance","inputs":[{"name":"owner","type":"address","internalType":"address"},{"name":"spender","type":"address","internalType":"address"}],"outputs":[{"name":"","type":"uint256","internalType":"uint256"}],"stateMutability":"view"},{"type":"function","name":"approve","inputs":[{"name":"spender","type":"address","internalType":"address"},{"name":"uspdAmount","type":"uint256","internalType":"uint256"}],"outputs":[{"name":"","type":"bool","internalType":"bool"}],"stateMutability":"nonpayable"},{"type":"function","name":"balanceOf","inputs":[{"name":"account","type":"address","internalType":"address"}],"outputs":[{"name":"","type":"uint256","internalType":"uint256"}],"stateMutability":"view"},{"type":"function","name":"cuspdToken","inputs":[],"outputs":[{"name":"","type":"address","internalType":"contract IcUSPDToken"}],"stateMutability":"view"},{"type":"function","name":"decimals","inputs":[],"outputs":[{"name":"","type":"uint8","internalType":"uint8"}],"stateMutability":"view"},{"type":"function","name":"eip712Domain","inputs":[],"outputs":[{"name":"fields","type":"bytes1","internalType":"bytes1"},{"name":"name","type":"string","internalType":"string"},{"name":"version","type":"string","internalType":"string"},{"name":"chainId","type":"uint256","internalType":"uint256"},{"name":"verifyingContract","type":"address","internalType":"address"},{"name":"salt","type":"bytes32","internalType":"bytes32"},{"name":"extensions","type":"uint256[]","internalType":"uint256[]"}],"stateMutability":"view"},{"type":"function","name":"getRoleAdmin","inputs":[{"name":"role","type":"bytes32","internalType":"bytes32"}],"outputs":[{"name":"","type":"bytes32","internalType":"bytes32"}],"stateMutability":"view"},{"type":"function","name":"grantRole","inputs":[{"name":"role","type":"bytes32","internalType":"bytes32"},{"name":"account","type":"address","internalType":"address"}],"outputs":[],"stateMutability":"nonpayable"},{"type":"function","name":"hasRole","inputs":[{"name":"role","type":"bytes32","internalType":"bytes32"},{"name":"account","type":"address","internalType":"address"}],"outputs":[{"name":"","type":"bool","internalType":"bool"}],"stateMutability":"view"},{"type":"function","name":"name","inputs":[],"outputs":[{"name":"","type":"string","internalType":"string"}],"stateMutability":"view"},{"type":"function","name":"nonces","inputs":[{"name":"owner","type":"address","internalType":"address"}],"outputs":[{"name":"","type":"uint256","internalType":"uint256"}],"stateMutability":"view"},{"type":"function","name":"permit","inputs":[{"name":"owner","type":"address","internalType":"address"},{"name":"spender","type":"address","internalType":"address"},{"name":"value","type":"uint256","internalType":"uint256"},{"name":"deadline","type":"uint256","internalType":"uint256"},{"name":"v","type":"uint8","internalType":"uint8"},{"name":"r","type":"bytes32","internalType":"bytes32"},{"name":"s","type":"bytes32","internalType":"bytes32"}],"outputs":[],"stateMutability":"nonpayable"},{"type":"function","name":"rateContract","inputs":[],"outputs":[{"name":"","type":"address","internalType":"contract IPoolSharesConversionRate"}],"stateMutability":"view"},{"type":"function","name":"renounceRole","inputs":[{"name":"role","type":"bytes32","internalType":"bytes32"},{"name":"callerConfirmation","type":"address","internalType":"address"}],"outputs":[],"stateMutability":"nonpayable"},{"type":"function","name":"revokeRole","inputs":[{"name":"role","type":"bytes32","internalType":"bytes32"},{"name":"account","type":"address","internalType":"address"}],"outputs":[],"stateMutability":"nonpayable"},{"type":"function","name":"supportsInterface","inputs":[{"name":"interfaceId","type":"bytes4","internalType":"bytes4"}],"outputs":[{"name":"","type":"bool","internalType":"bool"}],"stateMutability":"view"},{"type":"function","name":"symbol","inputs":[],"outputs":[{"name":"","type":"string","internalType":"string"}],"stateMutability":"view"},{"type":"function","name":"totalSupply","inputs":[],"outputs":[{"name":"","type":"uint256","internalType":"uint256"}],"stateMutability":"view"},{"type":"function","name":"transfer","inputs":[{"name":"to","type":"address","internalType":"address"},{"name":"uspdAmount","type":"uint256","internalType":"uint256"}],"outputs":[{"name":"","type":"bool","internalType":"bool"}],"stateMutability":"nonpayable"},{"type":"function","name":"transferFrom","inputs":[{"name":"from","type":"address","internalType":"address"},{"name":"to","type":"address","internalType":"address"},{"name":"uspdAmount","type":"uint256","internalType":"uint256"}],"outputs":[{"name":"","type":"bool","internalType":"bool"}],"stateMutability":"nonpayable"},{"type":"function","name":"updateCUSPDAddress","inputs":[{"name":"newCUSPDAddress","type":"address","internalType":"address"}],"outputs":[],"stateMutability":"nonpayable"},{"type":"function","name":"updateRateContract","inputs":[{"name":"newRateContract","type":"address","internalType":"address"}],"outputs":[],"stateMutability":"nonpayable"},{"type":"event","name":"Approval","inputs":[{"name":"owner","type":"address","indexed":true,"internalType":"address"},{"name":"spender","type":"address","indexed":true,"internalType":"address"},{"name":"value","type":"uint256","indexed":false,"internalType":"uint256"}],"anonymous":false},{"type":"event","name":"CUSPDAddressUpdated","inputs":[{"name":"oldCUSPDAddress","type":"address","indexed":true,"internalType":"address"},{"name":"newCUSPDAddress","type":"address","indexed":true,"internalType":"address"}],"anonymous":false},{"type":"event","name":"EIP712DomainChanged","inputs":[],"anonymous":false},{"type":"event","name":"RateContractUpdated","inputs":[{"name":"oldRateContract","type":"address","indexed":true,"internalType":"address"},{"name":"newRateContract","type":"address","indexed":true,"internalType":"address"}],"anonymous":false},{"type":"event","name":"RoleAdminChanged","inputs":[{"name":"role","type":"bytes32","indexed":true,"internalType":"bytes32"},{"name":"previousAdminRole","type":"bytes32","indexed":true,"internalType":"bytes32"},{"name":"newAdminRole","type":"bytes32","indexed":true,"internalType":"bytes32"}],"anonymous":false},{"type":"event","name":"RoleGranted","inputs":[{"name":"role","type":"bytes32","indexed":true,"internalType":"bytes32"},{"name":"account","type":"address","indexed":true,"internalType":"address"},{"name":"sender","type":"address","indexed":true,"internalType":"address"}],"anonymous":false},{"type":"event","name":"RoleRevoked","inputs":[{"name":"role","type":"bytes32","indexed":true,"internalType":"bytes32"},{"name":"account","type":"address","indexed":true,"internalType":"address"},{"name":"sender","type":"address","indexed":true,"internalType":"address"}],"anonymous":false},{"type":"event","name":"Transfer","inputs":[{"name":"from","type":"address","indexed":true,"internalType":"address"},{"name":"to","type":"address","indexed":true,"internalType":"address"},{"name":"value","type":"uint256","indexed":false,"internalType":"uint256"}],"anonymous":false},{"type":"error","name":"AccessControlBadConfirmation","inputs":[]},{"type":"error","name":"AccessControlUnauthorizedAccount","inputs":[{"name":"account","type":"address","internalType":"address"},{"name":"neededRole","type":"bytes32","internalType":"bytes32"}]},{"type":"error","name":"ECDSAInvalidSignature","inputs":[]},{"type":"error","name":"ECDSAInvalidSignatureLength","inputs":[{"name":"length","type":"uint256","internalType":"uint256"}]},{"type":"error","name":"ECDSAInvalidSignatureS","inputs":[{"name":"s","type":"bytes32","internalType":"bytes32"}]},{"type":"error","name":"ERC20InsufficientAllowance","inputs":[{"name":"spender","type":"address","internalType":"address"},{"name":"allowance","type":"uint256","internalType":"uint256"},{"name":"needed","type":"uint256","internalType":"uint256"}]},{"type":"error","name":"ERC20InsufficientBalance","inputs":[{"name":"sender","type":"address","internalType":"address"},{"name":"balance","type":"uint256","internalType":"uint256"},{"name":"needed","type":"uint256","internalType":"uint256"}]},{"type":"error","name":"ERC20InvalidApprover","inputs":[{"name":"approver","type":"address","internalType":"address"}]},{"type":"error","name":"ERC20InvalidReceiver","inputs":[{"name":"receiver","type":"address","internalType":"address"}]},{"type":"error","name":"ERC20InvalidSender","inputs":[{"name":"sender","type":"address","internalType":"address"}]},{"type":"error","name":"ERC20InvalidSpender","inputs":[{"name":"spender","type":"address","internalType":"address"}]},{"type":"error","name":"ERC2612ExpiredSignature","inputs":[{"name":"deadline","type":"uint256","internalType":"uint256"}]},{"type":"error","name":"ERC2612InvalidSigner","inputs":[{"name":"signer","type":"address","internalType":"address"},{"name":"owner","type":"address","internalType":"address"}]},{"type":"error","name":"InvalidAccountNonce","inputs":[{"name":"account","type":"address","internalType":"address"},{"name":"currentNonce","type":"uint256","internalType":"uint256"}]},{"type":"error","name":"InvalidShortString","inputs":[]},{"type":"error","name":"StringTooLong","inputs":[{"name":"str","type":"string","internalType":"string"}]}],"bytecode":{"object":"0x610160604052348015610010575f80fd5b5060405161220838038061220883398101604081905261002f91610439565b6040805180820190915260018152603160f81b602082015285908190818760036100598382610552565b5060046100668282610552565b5061007691508390506005610267565b61012052610085816006610267565b61014052815160208084019190912060e052815190820120610100524660a05261011160e05161010051604080517f8b73c3c69bb8fe3d512ecc4cf759cc79239f7b179b0ffacaa9a75d522b39400f60208201529081019290925260608201524660808201523060a08201525f9060c00160405160208183030381529060405280519060200120905090565b60805250503060c052506001600160a01b0383166101765760405162461bcd60e51b815260206004820152601860248201527f555350443a205a65726f2063555350442061646472657373000000000000000060448201526064015b60405180910390fd5b6001600160a01b0382166101cc5760405162461bcd60e51b815260206004820181905260248201527f555350443a205a65726f207261746520636f6e74726163742061646472657373604482015260640161016d565b6001600160a01b0381166102225760405162461bcd60e51b815260206004820152601860248201527f555350443a205a65726f2061646d696e20616464726573730000000000000000604482015260640161016d565b600980546001600160a01b038086166001600160a01b031992831617909255600a80549285169290911691909117905561025c5f82610299565b505050505050610664565b5f6020835110156102825761027b83610344565b9050610293565b8161028d8482610552565b5060ff90505b92915050565b5f8281526008602090815260408083206001600160a01b038516845290915281205460ff1661033d575f8381526008602090815260408083206001600160a01b03861684529091529020805460ff191660011790556102f53390565b6001600160a01b0316826001600160a01b0316847f2f8788117e7eff1d82e926ec794901d17c78024a50270940304540a733656f0d60405160405180910390a4506001610293565b505f610293565b5f80829050601f8151111561036e578260405163305a27a960e01b815260040161016d919061060c565b805161037982610641565b179392505050565b634e487b7160e01b5f52604160045260245ffd5b5f82601f8301126103a4575f80fd5b81516001600160401b038111156103bd576103bd610381565b604051601f8201601f19908116603f011681016001600160401b03811182821017156103eb576103eb610381565b604052818152838201602001851015610402575f80fd5b8160208501602083015e5f918101602001919091529392505050565b80516001600160a01b0381168114610434575f80fd5b919050565b5f805f805f60a0868803121561044d575f80fd5b85516001600160401b03811115610462575f80fd5b61046e88828901610395565b602088015190965090506001600160401b0381111561048b575f80fd5b61049788828901610395565b9450506104a66040870161041e565b92506104b46060870161041e565b91506104c26080870161041e565b90509295509295909350565b600181811c908216806104e257607f821691505b60208210810361050057634e487b7160e01b5f52602260045260245ffd5b50919050565b601f82111561054d57805f5260205f20601f840160051c8101602085101561052b5750805b601f840160051c820191505b8181101561054a575f8155600101610537565b50505b505050565b81516001600160401b0381111561056b5761056b610381565b61057f8161057984546104ce565b84610506565b6020601f8211600181146105b1575f831561059a5750848201515b5f19600385901b1c1916600184901b17845561054a565b5f84815260208120601f198516915b828110156105e057878501518255602094850194600190920191016105c0565b50848210156105fd57868401515f19600387901b60f8161c191681555b50505050600190811b01905550565b602081525f82518060208401528060208501604085015e5f604082850101526040601f19601f83011684010191505092915050565b80516020808301519190811015610500575f1960209190910360031b1b16919050565b60805160a05160c05160e051610100516101205161014051611b536106b55f395f61134101525f61131401525f61125201525f61122a01525f61118501525f6111af01525f6111d90152611b535ff3fe608060405260043610610164575f3560e01c806370a08231116100cd578063a42c69a911610087578063d505accf11610062578063d505accf14610475578063d547741f14610494578063dd62ed3e146104b3578063eee24219146104d2575f80fd5b8063a42c69a91461041c578063a6f4ae2714610437578063a9059cbb14610456575f80fd5b806370a08231146103715780637ecebe001461039057806384b0196e146103af57806391d14854146103d657806395d89b41146103f5578063a217fddf14610409575f80fd5b8063248a9ca31161011e578063248a9ca31461029f5780632f2ff15d146102cd578063313ce567146102ec5780633644e5151461030757806336568abe1461031b5780636bc05b7e1461033a575f80fd5b806301ffc9a7146101c957806306fdde03146101fd578063095ea7b31461021e5780630a9c68191461023d57806318160ddd1461025e57806323b872dd14610280575f80fd5b366101c55760405162461bcd60e51b815260206004820152602660248201527f555350443a2044697265637420455448207472616e7366657273206e6f7420616044820152651b1b1bddd95960d21b60648201526084015b60405180910390fd5b5f80fd5b3480156101d4575f80fd5b506101e86101e3366004611768565b6104f1565b60405190151581526020015b60405180910390f35b348015610208575f80fd5b50610211610527565b6040516101f491906117bd565b348015610229575f80fd5b506101e86102383660046117ea565b6105b7565b348015610248575f80fd5b5061025c610257366004611812565b6106ec565b005b348015610269575f80fd5b506102726107a8565b6040519081526020016101f4565b34801561028b575f80fd5b506101e861029a36600461182b565b6108e8565b3480156102aa575f80fd5b506102726102b9366004611865565b5f9081526008602052604090206001015490565b3480156102d8575f80fd5b5061025c6102e736600461187c565b610a4d565b3480156102f7575f80fd5b50604051601281526020016101f4565b348015610312575f80fd5b50610272610a77565b348015610326575f80fd5b5061025c61033536600461187c565b610a85565b348015610345575f80fd5b50600954610359906001600160a01b031681565b6040516001600160a01b0390911681526020016101f4565b34801561037c575f80fd5b5061027261038b366004611812565b610abd565b34801561039b575f80fd5b506102726103aa366004611812565b610bfa565b3480156103ba575f80fd5b506103c3610c17565b6040516101f497969594939291906118a6565b3480156103e1575f80fd5b506101e86103f036600461187c565b610c59565b348015610400575f80fd5b50610211610c83565b348015610414575f80fd5b506102725f81565b348015610427575f80fd5b50610272670de0b6b3a764000081565b348015610442575f80fd5b5061025c610451366004611812565b610c92565b348015610461575f80fd5b506101e86104703660046117ea565b610d4e565b348015610480575f80fd5b5061025c61048f36600461193c565b610e66565b34801561049f575f80fd5b5061025c6104ae36600461187c565b610f9c565b3480156104be575f80fd5b506102726104cd3660046119a9565b610fc0565b3480156104dd575f80fd5b50600a54610359906001600160a01b031681565b5f6001600160e01b03198216637965db0b60e01b148061052157506301ffc9a760e01b6001600160e01b03198316145b92915050565b606060038054610536906119d1565b80601f0160208091040260200160405190810160405280929190818152602001828054610562906119d1565b80156105ad5780601f10610584576101008083540402835291602001916105ad565b820191905f5260205f20905b81548152906001019060200180831161059057829003601f168201915b5050505050905090565b5f80600a5f9054906101000a90046001600160a01b03166001600160a01b031663efa7fa5d6040518163ffffffff1660e01b8152600401602060405180830381865afa158015610609573d5f803e3d5ffd5b505050506040513d601f19601f8201168201806040525081019061062d9190611a09565b90505f811161064e5760405162461bcd60e51b81526004016101bc90611a20565b5f81610662670de0b6b3a764000086611a57565b61066c9190611a7a565b60095460405163095ea7b360e01b81526001600160a01b0388811660048301526024820184905292935091169063095ea7b3906044015b6020604051808303815f875af11580156106bf573d5f803e3d5ffd5b505050506040513d601f19601f820116820180604052508101906106e39190611a99565b95945050505050565b5f6106f6816110db565b6001600160a01b03821661074c5760405162461bcd60e51b815260206004820152601860248201527f555350443a205a65726f2063555350442061646472657373000000000000000060448201526064016101bc565b6009546040516001600160a01b038085169216907f974190c639ecade8910423bd4d87599b333611969e577aca3bb7135069ea9723905f90a350600980546001600160a01b0319166001600160a01b0392909216919091179055565b600a545f906001600160a01b031615806107cb57506009546001600160a01b0316155b156107d557505f90565b600a546040805163efa7fa5d60e01b815290515f926001600160a01b03169163efa7fa5d9160048083019260209291908290030181865afa15801561081c573d5f803e3d5ffd5b505050506040513d601f19601f820116820180604052508101906108409190611a09565b9050805f03610850575f91505090565b670de0b6b3a76400008160095f9054906101000a90046001600160a01b03166001600160a01b03166318160ddd6040518163ffffffff1660e01b8152600401602060405180830381865afa1580156108aa573d5f803e3d5ffd5b505050506040513d601f19601f820116820180604052508101906108ce9190611a09565b6108d89190611a57565b6108e29190611a7a565b91505090565b5f80600a5f9054906101000a90046001600160a01b03166001600160a01b031663efa7fa5d6040518163ffffffff1660e01b8152600401602060405180830381865afa15801561093a573d5f803e3d5ffd5b505050506040513d601f19601f8201168201806040525081019061095e9190611a09565b90505f811161097f5760405162461bcd60e51b81526004016101bc90611a20565b5f81610993670de0b6b3a764000086611a57565b61099d9190611a7a565b90505f8111806109ab575083155b6109c75760405162461bcd60e51b81526004016101bc90611ab8565b6009546040516323b872dd60e01b81526001600160a01b038881166004830152878116602483015260448201849052909116906323b872dd906064016020604051808303815f875af1158015610a1f573d5f803e3d5ffd5b505050506040513d601f19601f82011682018060405250810190610a439190611a99565b9695505050505050565b5f82815260086020526040902060010154610a67816110db565b610a7183836110e8565b50505050565b5f610a80611179565b905090565b6001600160a01b0381163314610aae5760405163334bd91960e11b815260040160405180910390fd5b610ab882826112a2565b505050565b600a545f906001600160a01b03161580610ae057506009546001600160a01b0316155b15610aec57505f919050565b600a546040805163efa7fa5d60e01b815290515f926001600160a01b03169163efa7fa5d9160048083019260209291908290030181865afa158015610b33573d5f803e3d5ffd5b505050506040513d601f19601f82011682018060405250810190610b579190611a09565b9050805f03610b6857505f92915050565b6009546040516370a0823160e01b81526001600160a01b038581166004830152670de0b6b3a76400009284929116906370a0823190602401602060405180830381865afa158015610bbb573d5f803e3d5ffd5b505050506040513d601f19601f82011682018060405250810190610bdf9190611a09565b610be99190611a57565b610bf39190611a7a565b9392505050565b6001600160a01b0381165f90815260076020526040812054610521565b5f6060805f805f6060610c2861130d565b610c3061133a565b604080515f80825260208201909252600f60f81b9b939a50919850469750309650945092509050565b5f9182526008602090815260408084206001600160a01b0393909316845291905290205460ff1690565b606060048054610536906119d1565b5f610c9c816110db565b6001600160a01b038216610cf25760405162461bcd60e51b815260206004820181905260248201527f555350443a205a65726f207261746520636f6e7472616374206164647265737360448201526064016101bc565b600a546040516001600160a01b038085169216907f7f0de29187af70d0a98056dd080553d3dec269c81e80033f3ca34a97b3985d3a905f90a350600a80546001600160a01b0319166001600160a01b0392909216919091179055565b5f80600a5f9054906101000a90046001600160a01b03166001600160a01b031663efa7fa5d6040518163ffffffff1660e01b8152600401602060405180830381865afa158015610da0573d5f803e3d5ffd5b505050506040513d601f19601f82011682018060405250810190610dc49190611a09565b90505f8111610de55760405162461bcd60e51b81526004016101bc90611a20565b5f81610df9670de0b6b3a764000086611a57565b610e039190611a7a565b90505f811180610e11575083155b610e2d5760405162461bcd60e51b81526004016101bc90611ab8565b60095460405163a9059cbb60e01b81526001600160a01b038781166004830152602482018490529091169063a9059cbb906044016106a3565b83421115610e8a5760405163313c898160e11b8152600481018590526024016101bc565b5f7f6e71edae12b1b97f4d1f60370fef10105fa2faae0126114a169c64845d6126c9888888610ed58c6001600160a01b03165f90815260076020526040902080546001810190915590565b6040805160208101969096526001600160a01b0394851690860152929091166060840152608083015260a082015260c0810186905260e0016040516020818303038152906040528051906020012090505f610f2f82611367565b90505f610f3e82878787611393565b9050896001600160a01b0316816001600160a01b031614610f85576040516325c0072360e11b81526001600160a01b0380831660048301528b1660248201526044016101bc565b610f908a8a8a6113bf565b50505050505050505050565b5f82815260086020526040902060010154610fb6816110db565b610a7183836112a2565b5f80600a5f9054906101000a90046001600160a01b03166001600160a01b031663efa7fa5d6040518163ffffffff1660e01b8152600401602060405180830381865afa158015611012573d5f803e3d5ffd5b505050506040513d601f19601f820116820180604052508101906110369190611a09565b9050805f03611048575f915050610521565b600954604051636eb1769f60e11b81526001600160a01b03868116600483015285811660248301525f92169063dd62ed3e90604401602060405180830381865afa158015611098573d5f803e3d5ffd5b505050506040513d601f19601f820116820180604052508101906110bc9190611a09565b9050670de0b6b3a76400006110d18383611a57565b6106e39190611a7a565b6110e581336113cc565b50565b5f6110f38383610c59565b611172575f8381526008602090815260408083206001600160a01b03861684529091529020805460ff1916600117905561112a3390565b6001600160a01b0316826001600160a01b0316847f2f8788117e7eff1d82e926ec794901d17c78024a50270940304540a733656f0d60405160405180910390a4506001610521565b505f610521565b5f306001600160a01b037f0000000000000000000000000000000000000000000000000000000000000000161480156111d157507f000000000000000000000000000000000000000000000000000000000000000046145b156111fb57507f000000000000000000000000000000000000000000000000000000000000000090565b610a80604080517f8b73c3c69bb8fe3d512ecc4cf759cc79239f7b179b0ffacaa9a75d522b39400f60208201527f0000000000000000000000000000000000000000000000000000000000000000918101919091527f000000000000000000000000000000000000000000000000000000000000000060608201524660808201523060a08201525f9060c00160405160208183030381529060405280519060200120905090565b5f6112ad8383610c59565b15611172575f8381526008602090815260408083206001600160a01b0386168085529252808320805460ff1916905551339286917ff6391f5c32d9c69d2a47ea670b442974b53935d1edc7fd64eb21e047a839171b9190a4506001610521565b6060610a807f00000000000000000000000000000000000000000000000000000000000000006005611409565b6060610a807f00000000000000000000000000000000000000000000000000000000000000006006611409565b5f610521611373611179565b8360405161190160f01b8152600281019290925260228201526042902090565b5f805f806113a3888888886114b2565b9250925092506113b3828261157a565b50909695505050505050565b610ab88383836001611632565b6113d68282610c59565b6114055760405163e2517d3f60e01b81526001600160a01b0382166004820152602481018390526044016101bc565b5050565b606060ff83146114235761141c83611704565b9050610521565b81805461142f906119d1565b80601f016020809104026020016040519081016040528092919081815260200182805461145b906119d1565b80156114a65780601f1061147d576101008083540402835291602001916114a6565b820191905f5260205f20905b81548152906001019060200180831161148957829003601f168201915b50505050509050610521565b5f80807f7fffffffffffffffffffffffffffffff5d576e7357a4501ddfe92f46681b20a08411156114eb57505f91506003905082611570565b604080515f808252602082018084528a905260ff891692820192909252606081018790526080810186905260019060a0016020604051602081039080840390855afa15801561153c573d5f803e3d5ffd5b5050604051601f1901519150506001600160a01b03811661156757505f925060019150829050611570565b92505f91508190505b9450945094915050565b5f82600381111561158d5761158d611b09565b03611596575050565b60018260038111156115aa576115aa611b09565b036115c85760405163f645eedf60e01b815260040160405180910390fd5b60028260038111156115dc576115dc611b09565b036115fd5760405163fce698f760e01b8152600481018290526024016101bc565b600382600381111561161157611611611b09565b03611405576040516335e2f38360e21b8152600481018290526024016101bc565b6001600160a01b03841661165b5760405163e602df0560e01b81525f60048201526024016101bc565b6001600160a01b03831661168457604051634a1406b160e11b81525f60048201526024016101bc565b6001600160a01b038085165f9081526001602090815260408083209387168352929052208290558015610a7157826001600160a01b0316846001600160a01b03167f8c5be1e5ebec7d5bd14f71427d1e84f3dd0314c0f7b2291e5b200ac8c7c3b925846040516116f691815260200190565b60405180910390a350505050565b60605f61171083611741565b6040805160208082528183019092529192505f91906020820181803683375050509182525060208101929092525090565b5f60ff8216601f81111561052157604051632cd44ac360e21b815260040160405180910390fd5b5f60208284031215611778575f80fd5b81356001600160e01b031981168114610bf3575f80fd5b5f81518084528060208401602086015e5f602082860101526020601f19601f83011685010191505092915050565b602081525f610bf3602083018461178f565b80356001600160a01b03811681146117e5575f80fd5b919050565b5f80604083850312156117fb575f80fd5b611804836117cf565b946020939093013593505050565b5f60208284031215611822575f80fd5b610bf3826117cf565b5f805f6060848603121561183d575f80fd5b611846846117cf565b9250611854602085016117cf565b929592945050506040919091013590565b5f60208284031215611875575f80fd5b5035919050565b5f806040838503121561188d575f80fd5b8235915061189d602084016117cf565b90509250929050565b60ff60f81b8816815260e060208201525f6118c460e083018961178f565b82810360408401526118d6818961178f565b606084018890526001600160a01b038716608085015260a0840186905283810360c0850152845180825260208087019350909101905f5b8181101561192b57835183526020938401939092019160010161190d565b50909b9a5050505050505050505050565b5f805f805f805f60e0888a031215611952575f80fd5b61195b886117cf565b9650611969602089016117cf565b95506040880135945060608801359350608088013560ff8116811461198c575f80fd5b9699959850939692959460a0840135945060c09093013592915050565b5f80604083850312156119ba575f80fd5b6119c3836117cf565b915061189d602084016117cf565b600181811c908216806119e557607f821691505b602082108103611a0357634e487b7160e01b5f52602260045260245ffd5b50919050565b5f60208284031215611a19575f80fd5b5051919050565b6020808252601a908201527f555350443a20496e76616c6964207969656c6420666163746f72000000000000604082015260600190565b808202811582820484141761052157634e487b7160e01b5f52601160045260245ffd5b5f82611a9457634e487b7160e01b5f52601260045260245ffd5b500490565b5f60208284031215611aa9575f80fd5b81518015158114610bf3575f80fd5b60208082526031908201527f555350443a205472616e7366657220616d6f756e7420746f6f20736d616c6c20604082015270199bdc8818dd5c9c995b9d081e5a595b19607a1b606082015260800190565b634e487b7160e01b5f52602160045260245ffdfea2646970667358221220960061680838da0a6a27b28d404b37aefa42918d9bcd762d968410eaa0953b5764736f6c634300081a0033","linkReferences":{}},"methodIdentifiers":{"DEFAULT_ADMIN_ROLE()":"a217fddf","DOMAIN_SEPARATOR()":"3644e515","FACTOR_PRECISION()":"a42c69a9","allowance(address,address)":"dd62ed3e","approve(address,uint256)":"095ea7b3","balanceOf(address)":"70a08231","cuspdToken()":"6bc05b7e","decimals()":"313ce567","eip712Domain()":"84b0196e","getRoleAdmin(bytes32)":"248a9ca3","grantRole(bytes32,address)":"2f2ff15d","hasRole(bytes32,address)":"91d14854","name()":"06fdde03","nonces(address)":"7ecebe00","permit(address,address,uint256,uint256,uint8,bytes32,bytes32)":"d505accf","rateContract()":"eee24219","renounceRole(bytes32,address)":"36568abe","revokeRole(bytes32,address)":"d547741f","supportsInterface(bytes4)":"01ffc9a7","symbol()":"95d89b41","totalSupply()":"18160ddd","transfer(address,uint256)":"a9059cbb","transferFrom(address,address,uint256)":"23b872dd","updateCUSPDAddress(address)":"0a9c6819","updateRateContract(address)":"a6f4ae27"},"storageLayout":{"storage":[{"astId":39197,"contract":"src/UspdToken.sol:USPDToken","label":"_balances","offset":0,"slot":"0","type":"t_mapping(t_address,t_uint256)"},{"astId":39203,"contract":"src/UspdToken.sol:USPDToken","label":"_allowances","offset":0,"slot":"1","type":"t_mapping(t_address,t_mapping(t_address,t_uint256))"},{"astId":39205,"contract":"src/UspdToken.sol:USPDToken","label":"_totalSupply","offset":0,"slot":"2","type":"t_uint256"},{"astId":39207,"contract":"src/UspdToken.sol:USPDToken","label":"_name","offset":0,"slot":"3","type":"t_string_storage"},{"astId":39209,"contract":"src/UspdToken.sol:USPDToken","label":"_symbol","offset":0,"slot":"4","type":"t_string_storage"},{"astId":42708,"contract":"src/UspdToken.sol:USPDToken","label":"_nameFallback","offset":0,"slot":"5","type":"t_string_storage"},{"astId":42710,"contract":"src/UspdToken.sol:USPDToken","label":"_versionFallback","offset":0,"slot":"6","type":"t_string_storage"},{"astId":40676,"contract":"src/UspdToken.sol:USPDToken","label":"_nonces","offset":0,"slot":"7","type":"t_mapping(t_address,t_uint256)"},{"astId":37929,"contract":"src/UspdToken.sol:USPDToken","label":"_roles","offset":0,"slot":"8","type":"t_mapping(t_bytes32,t_struct(RoleData)37924_storage)"},{"astId":52968,"contract":"src/UspdToken.sol:USPDToken","label":"cuspdToken","offset":0,"slot":"9","type":"t_contract(IcUSPDToken)54477"},{"astId":52971,"contract":"src/UspdToken.sol:USPDToken","label":"rateContract","offset":0,"slot":"10","type":"t_contract(IPoolSharesConversionRate)54166"}],"types":{"t_address":{"encoding":"inplace","label":"address","numberOfBytes":"20"},"t_bool":{"encoding":"inplace","label":"bool","numberOfBytes":"1"},"t_bytes32":{"encoding":"inplace","label":"bytes32","numberOfBytes":"32"},"t_contract(IPoolSharesConversionRate)54166":{"encoding":"inplace","label":"contract IPoolSharesConversionRate","numberOfBytes":"20"},"t_contract(IcUSPDToken)54477":{"encoding":"inplace","label":"contract IcUSPDToken","numberOfBytes":"20"},"t_mapping(t_address,t_bool)":{"encoding":"mapping","key":"t_address","label":"mapping(address => bool)","numberOfBytes":"32","value":"t_bool"},"t_mapping(t_address,t_mapping(t_address,t_uint256))":{"encoding":"mapping","key":"t_address","label":"mapping(address => mapping(address => uint256))","numberOfBytes":"32","value":"t_mapping(t_address,t_uint256)"},"t_mapping(t_address,t_uint256)":{"encoding":"mapping","key":"t_address","label":"mapping(address => uint256)","numberOfBytes":"32","value":"t_uint256"},"t_mapping(t_bytes32,t_struct(RoleData)37924_storage)":{"encoding":"mapping","key":"t_bytes32","label":"mapping(bytes32 => struct AccessControl.RoleData)","numberOfBytes":"32","value":"t_struct(RoleData)37924_storage"},"t_string_storage":{"encoding":"bytes","label":"string","numberOfBytes":"32"},"t_struct(RoleData)37924_storage":{"encoding":"inplace","label":"struct AccessControl.RoleData","numberOfBytes":"64","members":[{"astId":37921,"contract":"src/UspdToken.sol:USPDToken","label":"hasRole","offset":0,"slot":"0","type":"t_mapping(t_address,t_bool)"},{"astId":37923,"contract":"src/UspdToken.sol:USPDToken","label":"adminRole","offset":0,"slot":"1","type":"t_bytes32"}]},"t_uint256":{"encoding":"inplace","label":"uint256","numberOfBytes":"32"}}},"id":72}