{"abi":[{"type":"constructor","inputs":[{"name":"name","type":"string","internalType":"string"},{"name":"symbol","type":"string","internalType":"string"},{"name":"_cuspdTokenAddress","type":"address","internalType":"address"},{"name":"_rateContractAddress","type":"address","internalType":"address"},{"name":"_admin","type":"address","internalType":"address"}],"stateMutability":"nonpayable"},{"type":"receive","stateMutability":"payable"},{"type":"function","name":"DEFAULT_ADMIN_ROLE","inputs":[],"outputs":[{"name":"","type":"bytes32","internalType":"bytes32"}],"stateMutability":"view"},{"type":"function","name":"DOMAIN_SEPARATOR","inputs":[],"outputs":[{"name":"","type":"bytes32","internalType":"bytes32"}],"stateMutability":"view"},{"type":"function","name":"FACTOR_PRECISION","inputs":[],"outputs":[{"name":"","type":"uint256","internalType":"uint256"}],"stateMutability":"view"},{"type":"function","name":"allowance","inputs":[{"name":"owner","type":"address","internalType":"address"},{"name":"spender","type":"address","internalType":"address"}],"outputs":[{"name":"","type":"uint256","internalType":"uint256"}],"stateMutability":"view"},{"type":"function","name":"approve","inputs":[{"name":"spender","type":"address","internalType":"address"},{"name":"uspdAmount","type":"uint256","internalType":"uint256"}],"outputs":[{"name":"","type":"bool","internalType":"bool"}],"stateMutability":"nonpayable"},{"type":"function","name":"balanceOf","inputs":[{"name":"account","type":"address","internalType":"address"}],"outputs":[{"name":"","type":"uint256","internalType":"uint256"}],"stateMutability":"view"},{"type":"function","name":"cuspdToken","inputs":[],"outputs":[{"name":"","type":"address","internalType":"contract IcUSPDToken"}],"stateMutability":"view"},{"type":"function","name":"decimals","inputs":[],"outputs":[{"name":"","type":"uint8","internalType":"uint8"}],"stateMutability":"view"},{"type":"function","name":"eip712Domain","inputs":[],"outputs":[{"name":"fields","type":"bytes1","internalType":"bytes1"},{"name":"name","type":"string","internalType":"string"},{"name":"version","type":"string","internalType":"string"},{"name":"chainId","type":"uint256","internalType":"uint256"},{"name":"verifyingContract","type":"address","internalType":"address"},{"name":"salt","type":"bytes32","internalType":"bytes32"},{"name":"extensions","type":"uint256[]","internalType":"uint256[]"}],"stateMutability":"view"},{"type":"function","name":"getRoleAdmin","inputs":[{"name":"role","type":"bytes32","internalType":"bytes32"}],"outputs":[{"name":"","type":"bytes32","internalType":"bytes32"}],"stateMutability":"view"},{"type":"function","name":"grantRole","inputs":[{"name":"role","type":"bytes32","internalType":"bytes32"},{"name":"account","type":"address","internalType":"address"}],"outputs":[],"stateMutability":"nonpayable"},{"type":"function","name":"hasRole","inputs":[{"name":"role","type":"bytes32","internalType":"bytes32"},{"name":"account","type":"address","internalType":"address"}],"outputs":[{"name":"","type":"bool","internalType":"bool"}],"stateMutability":"view"},{"type":"function","name":"mint","inputs":[{"name":"to","type":"address","internalType":"address"},{"name":"priceQuery","type":"tuple","internalType":"struct IPriceOracle.PriceAttestationQuery","components":[{"name":"price","type":"uint256","internalType":"uint256"},{"name":"decimals","type":"uint8","internalType":"uint8"},{"name":"dataTimestamp","type":"uint256","internalType":"uint256"},{"name":"assetPair","type":"bytes32","internalType":"bytes32"},{"name":"signature","type":"bytes","internalType":"bytes"}]}],"outputs":[],"stateMutability":"payable"},{"type":"function","name":"name","inputs":[],"outputs":[{"name":"","type":"string","internalType":"string"}],"stateMutability":"view"},{"type":"function","name":"nonces","inputs":[{"name":"owner","type":"address","internalType":"address"}],"outputs":[{"name":"","type":"uint256","internalType":"uint256"}],"stateMutability":"view"},{"type":"function","name":"permit","inputs":[{"name":"owner","type":"address","internalType":"address"},{"name":"spender","type":"address","internalType":"address"},{"name":"value","type":"uint256","internalType":"uint256"},{"name":"deadline","type":"uint256","internalType":"uint256"},{"name":"v","type":"uint8","internalType":"uint8"},{"name":"r","type":"bytes32","internalType":"bytes32"},{"name":"s","type":"bytes32","internalType":"bytes32"}],"outputs":[],"stateMutability":"nonpayable"},{"type":"function","name":"rateContract","inputs":[],"outputs":[{"name":"","type":"address","internalType":"contract IPoolSharesConversionRate"}],"stateMutability":"view"},{"type":"function","name":"renounceRole","inputs":[{"name":"role","type":"bytes32","internalType":"bytes32"},{"name":"callerConfirmation","type":"address","internalType":"address"}],"outputs":[],"stateMutability":"nonpayable"},{"type":"function","name":"revokeRole","inputs":[{"name":"role","type":"bytes32","internalType":"bytes32"},{"name":"account","type":"address","internalType":"address"}],"outputs":[],"stateMutability":"nonpayable"},{"type":"function","name":"supportsInterface","inputs":[{"name":"interfaceId","type":"bytes4","internalType":"bytes4"}],"outputs":[{"name":"","type":"bool","internalType":"bool"}],"stateMutability":"view"},{"type":"function","name":"symbol","inputs":[],"outputs":[{"name":"","type":"string","internalType":"string"}],"stateMutability":"view"},{"type":"function","name":"totalSupply","inputs":[],"outputs":[{"name":"","type":"uint256","internalType":"uint256"}],"stateMutability":"view"},{"type":"function","name":"transfer","inputs":[{"name":"to","type":"address","internalType":"address"},{"name":"uspdAmount","type":"uint256","internalType":"uint256"}],"outputs":[{"name":"","type":"bool","internalType":"bool"}],"stateMutability":"nonpayable"},{"type":"function","name":"transferFrom","inputs":[{"name":"from","type":"address","internalType":"address"},{"name":"to","type":"address","internalType":"address"},{"name":"uspdAmount","type":"uint256","internalType":"uint256"}],"outputs":[{"name":"","type":"bool","internalType":"bool"}],"stateMutability":"nonpayable"},{"type":"function","name":"updateCUSPDAddress","inputs":[{"name":"newCUSPDAddress","type":"address","internalType":"address"}],"outputs":[],"stateMutability":"nonpayable"},{"type":"function","name":"updateRateContract","inputs":[{"name":"newRateContract","type":"address","internalType":"address"}],"outputs":[],"stateMutability":"nonpayable"},{"type":"event","name":"Approval","inputs":[{"name":"owner","type":"address","indexed":true,"internalType":"address"},{"name":"spender","type":"address","indexed":true,"internalType":"address"},{"name":"value","type":"uint256","indexed":false,"internalType":"uint256"}],"anonymous":false},{"type":"event","name":"CUSPDAddressUpdated","inputs":[{"name":"oldCUSPDAddress","type":"address","indexed":true,"internalType":"address"},{"name":"newCUSPDAddress","type":"address","indexed":true,"internalType":"address"}],"anonymous":false},{"type":"event","name":"EIP712DomainChanged","inputs":[],"anonymous":false},{"type":"event","name":"RateContractUpdated","inputs":[{"name":"oldRateContract","type":"address","indexed":true,"internalType":"address"},{"name":"newRateContract","type":"address","indexed":true,"internalType":"address"}],"anonymous":false},{"type":"event","name":"RoleAdminChanged","inputs":[{"name":"role","type":"bytes32","indexed":true,"internalType":"bytes32"},{"name":"previousAdminRole","type":"bytes32","indexed":true,"internalType":"bytes32"},{"name":"newAdminRole","type":"bytes32","indexed":true,"internalType":"bytes32"}],"anonymous":false},{"type":"event","name":"RoleGranted","inputs":[{"name":"role","type":"bytes32","indexed":true,"internalType":"bytes32"},{"name":"account","type":"address","indexed":true,"internalType":"address"},{"name":"sender","type":"address","indexed":true,"internalType":"address"}],"anonymous":false},{"type":"event","name":"RoleRevoked","inputs":[{"name":"role","type":"bytes32","indexed":true,"internalType":"bytes32"},{"name":"account","type":"address","indexed":true,"internalType":"address"},{"name":"sender","type":"address","indexed":true,"internalType":"address"}],"anonymous":false},{"type":"event","name":"Transfer","inputs":[{"name":"from","type":"address","indexed":true,"internalType":"address"},{"name":"to","type":"address","indexed":true,"internalType":"address"},{"name":"value","type":"uint256","indexed":false,"internalType":"uint256"}],"anonymous":false},{"type":"error","name":"AccessControlBadConfirmation","inputs":[]},{"type":"error","name":"AccessControlUnauthorizedAccount","inputs":[{"name":"account","type":"address","internalType":"address"},{"name":"neededRole","type":"bytes32","internalType":"bytes32"}]},{"type":"error","name":"ECDSAInvalidSignature","inputs":[]},{"type":"error","name":"ECDSAInvalidSignatureLength","inputs":[{"name":"length","type":"uint256","internalType":"uint256"}]},{"type":"error","name":"ECDSAInvalidSignatureS","inputs":[{"name":"s","type":"bytes32","internalType":"bytes32"}]},{"type":"error","name":"ERC20InsufficientAllowance","inputs":[{"name":"spender","type":"address","internalType":"address"},{"name":"allowance","type":"uint256","internalType":"uint256"},{"name":"needed","type":"uint256","internalType":"uint256"}]},{"type":"error","name":"ERC20InsufficientBalance","inputs":[{"name":"sender","type":"address","internalType":"address"},{"name":"balance","type":"uint256","internalType":"uint256"},{"name":"needed","type":"uint256","internalType":"uint256"}]},{"type":"error","name":"ERC20InvalidApprover","inputs":[{"name":"approver","type":"address","internalType":"address"}]},{"type":"error","name":"ERC20InvalidReceiver","inputs":[{"name":"receiver","type":"address","internalType":"address"}]},{"type":"error","name":"ERC20InvalidSender","inputs":[{"name":"sender","type":"address","internalType":"address"}]},{"type":"error","name":"ERC20InvalidSpender","inputs":[{"name":"spender","type":"address","internalType":"address"}]},{"type":"error","name":"ERC2612ExpiredSignature","inputs":[{"name":"deadline","type":"uint256","internalType":"uint256"}]},{"type":"error","name":"ERC2612InvalidSigner","inputs":[{"name":"signer","type":"address","internalType":"address"},{"name":"owner","type":"address","internalType":"address"}]},{"type":"error","name":"InvalidAccountNonce","inputs":[{"name":"account","type":"address","internalType":"address"},{"name":"currentNonce","type":"uint256","internalType":"uint256"}]},{"type":"error","name":"InvalidShortString","inputs":[]},{"type":"error","name":"StringTooLong","inputs":[{"name":"str","type":"string","internalType":"string"}]}],"bytecode":{"object":"0x610160604052348015610010575f80fd5b506040516124b03803806124b083398101604081905261002f91610439565b6040805180820190915260018152603160f81b602082015285908190818760036100598382610552565b5060046100668282610552565b5061007691508390506005610267565b61012052610085816006610267565b61014052815160208084019190912060e052815190820120610100524660a05261011160e05161010051604080517f8b73c3c69bb8fe3d512ecc4cf759cc79239f7b179b0ffacaa9a75d522b39400f60208201529081019290925260608201524660808201523060a08201525f9060c00160405160208183030381529060405280519060200120905090565b60805250503060c052506001600160a01b0383166101765760405162461bcd60e51b815260206004820152601860248201527f555350443a205a65726f2063555350442061646472657373000000000000000060448201526064015b60405180910390fd5b6001600160a01b0382166101cc5760405162461bcd60e51b815260206004820181905260248201527f555350443a205a65726f207261746520636f6e74726163742061646472657373604482015260640161016d565b6001600160a01b0381166102225760405162461bcd60e51b815260206004820152601860248201527f555350443a205a65726f2061646d696e20616464726573730000000000000000604482015260640161016d565b600980546001600160a01b038086166001600160a01b031992831617909255600a80549285169290911691909117905561025c5f82610299565b505050505050610664565b5f6020835110156102825761027b83610344565b9050610293565b8161028d8482610552565b5060ff90505b92915050565b5f8281526008602090815260408083206001600160a01b038516845290915281205460ff1661033d575f8381526008602090815260408083206001600160a01b03861684529091529020805460ff191660011790556102f53390565b6001600160a01b0316826001600160a01b0316847f2f8788117e7eff1d82e926ec794901d17c78024a50270940304540a733656f0d60405160405180910390a4506001610293565b505f610293565b5f80829050601f8151111561036e578260405163305a27a960e01b815260040161016d919061060c565b805161037982610641565b179392505050565b634e487b7160e01b5f52604160045260245ffd5b5f82601f8301126103a4575f80fd5b81516001600160401b038111156103bd576103bd610381565b604051601f8201601f19908116603f011681016001600160401b03811182821017156103eb576103eb610381565b604052818152838201602001851015610402575f80fd5b8160208501602083015e5f918101602001919091529392505050565b80516001600160a01b0381168114610434575f80fd5b919050565b5f805f805f60a0868803121561044d575f80fd5b85516001600160401b03811115610462575f80fd5b61046e88828901610395565b602088015190965090506001600160401b0381111561048b575f80fd5b61049788828901610395565b9450506104a66040870161041e565b92506104b46060870161041e565b91506104c26080870161041e565b90509295509295909350565b600181811c908216806104e257607f821691505b60208210810361050057634e487b7160e01b5f52602260045260245ffd5b50919050565b601f82111561054d57805f5260205f20601f840160051c8101602085101561052b5750805b601f840160051c820191505b8181101561054a575f8155600101610537565b50505b505050565b81516001600160401b0381111561056b5761056b610381565b61057f8161057984546104ce565b84610506565b6020601f8211600181146105b1575f831561059a5750848201515b5f19600385901b1c1916600184901b17845561054a565b5f84815260208120601f198516915b828110156105e057878501518255602094850194600190920191016105c0565b50848210156105fd57868401515f19600387901b60f8161c191681555b50505050600190811b01905550565b602081525f82518060208401528060208501604085015e5f604082850101526040601f19601f83011684010191505092915050565b80516020808301519190811015610500575f1960209190910360031b1b16919050565b60805160a05160c05160e051610100516101205161014051611dfb6106b55f395f6114c301525f61149601525f6113d401525f6113ac01525f61130701525f61133101525f61135b0152611dfb5ff3fe60806040526004361061017e575f3560e01c80637ecebe00116100cd578063a6f4ae2711610087578063d547741f11610062578063d547741f146104ae578063dd62ed3e146104cd578063e7b14eeb146104ec578063eee24219146104ff575f80fd5b8063a6f4ae2714610451578063a9059cbb14610470578063d505accf1461048f575f80fd5b80637ecebe00146103aa57806384b0196e146103c957806391d14854146103f057806395d89b411461040f578063a217fddf14610423578063a42c69a914610436575f80fd5b8063248a9ca3116101385780633644e515116101135780633644e5151461032157806336568abe146103355780636bc05b7e1461035457806370a082311461038b575f80fd5b8063248a9ca3146102b95780632f2ff15d146102e7578063313ce56714610306575f80fd5b806301ffc9a7146101e357806306fdde0314610217578063095ea7b3146102385780630a9c68191461025757806318160ddd1461027857806323b872dd1461029a575f80fd5b366101df5760405162461bcd60e51b815260206004820152602660248201527f555350443a2044697265637420455448207472616e7366657273206e6f7420616044820152651b1b1bddd95960d21b60648201526084015b60405180910390fd5b5f80fd5b3480156101ee575f80fd5b506102026101fd3660046118ea565b61051e565b60405190151581526020015b60405180910390f35b348015610222575f80fd5b5061022b610554565b60405161020e919061193f565b348015610243575f80fd5b5061020261025236600461196c565b6105e4565b348015610262575f80fd5b50610276610271366004611994565b610719565b005b348015610283575f80fd5b5061028c6107d5565b60405190815260200161020e565b3480156102a5575f80fd5b506102026102b43660046119ad565b610915565b3480156102c4575f80fd5b5061028c6102d33660046119e7565b5f9081526008602052604090206001015490565b3480156102f2575f80fd5b506102766103013660046119fe565b610a7a565b348015610311575f80fd5b506040516012815260200161020e565b34801561032c575f80fd5b5061028c610aa4565b348015610340575f80fd5b5061027661034f3660046119fe565b610ab2565b34801561035f575f80fd5b50600954610373906001600160a01b031681565b6040516001600160a01b03909116815260200161020e565b348015610396575f80fd5b5061028c6103a5366004611994565b610aea565b3480156103b5575f80fd5b5061028c6103c4366004611994565b610c27565b3480156103d4575f80fd5b506103dd610c44565b60405161020e9796959493929190611a28565b3480156103fb575f80fd5b5061020261040a3660046119fe565b610c86565b34801561041a575f80fd5b5061022b610cb0565b34801561042e575f80fd5b5061028c5f81565b348015610441575f80fd5b5061028c670de0b6b3a764000081565b34801561045c575f80fd5b5061027661046b366004611994565b610cbf565b34801561047b575f80fd5b5061020261048a36600461196c565b610d7b565b34801561049a575f80fd5b506102766104a9366004611ace565b610e93565b3480156104b9575f80fd5b506102766104c83660046119fe565b610fc9565b3480156104d8575f80fd5b5061028c6104e7366004611b34565b610fed565b6102766104fa366004611b5c565b611108565b34801561050a575f80fd5b50600a54610373906001600160a01b031681565b5f6001600160e01b03198216637965db0b60e01b148061054e57506301ffc9a760e01b6001600160e01b03198316145b92915050565b60606003805461056390611bad565b80601f016020809104026020016040519081016040528092919081815260200182805461058f90611bad565b80156105da5780601f106105b1576101008083540402835291602001916105da565b820191905f5260205f20905b8154815290600101906020018083116105bd57829003601f168201915b5050505050905090565b5f80600a5f9054906101000a90046001600160a01b03166001600160a01b031663efa7fa5d6040518163ffffffff1660e01b8152600401602060405180830381865afa158015610636573d5f803e3d5ffd5b505050506040513d601f19601f8201168201806040525081019061065a9190611be5565b90505f811161067b5760405162461bcd60e51b81526004016101d690611bfc565b5f8161068f670de0b6b3a764000086611c33565b6106999190611c56565b60095460405163095ea7b360e01b81526001600160a01b0388811660048301526024820184905292935091169063095ea7b3906044015b6020604051808303815f875af11580156106ec573d5f803e3d5ffd5b505050506040513d601f19601f820116820180604052508101906107109190611c75565b95945050505050565b5f6107238161125d565b6001600160a01b0382166107795760405162461bcd60e51b815260206004820152601860248201527f555350443a205a65726f2063555350442061646472657373000000000000000060448201526064016101d6565b6009546040516001600160a01b038085169216907f974190c639ecade8910423bd4d87599b333611969e577aca3bb7135069ea9723905f90a350600980546001600160a01b0319166001600160a01b0392909216919091179055565b600a545f906001600160a01b031615806107f857506009546001600160a01b0316155b1561080257505f90565b600a546040805163efa7fa5d60e01b815290515f926001600160a01b03169163efa7fa5d9160048083019260209291908290030181865afa158015610849573d5f803e3d5ffd5b505050506040513d601f19601f8201168201806040525081019061086d9190611be5565b9050805f0361087d575f91505090565b670de0b6b3a76400008160095f9054906101000a90046001600160a01b03166001600160a01b03166318160ddd6040518163ffffffff1660e01b8152600401602060405180830381865afa1580156108d7573d5f803e3d5ffd5b505050506040513d601f19601f820116820180604052508101906108fb9190611be5565b6109059190611c33565b61090f9190611c56565b91505090565b5f80600a5f9054906101000a90046001600160a01b03166001600160a01b031663efa7fa5d6040518163ffffffff1660e01b8152600401602060405180830381865afa158015610967573d5f803e3d5ffd5b505050506040513d601f19601f8201168201806040525081019061098b9190611be5565b90505f81116109ac5760405162461bcd60e51b81526004016101d690611bfc565b5f816109c0670de0b6b3a764000086611c33565b6109ca9190611c56565b90505f8111806109d8575083155b6109f45760405162461bcd60e51b81526004016101d690611c94565b6009546040516323b872dd60e01b81526001600160a01b038881166004830152878116602483015260448201849052909116906323b872dd906064016020604051808303815f875af1158015610a4c573d5f803e3d5ffd5b505050506040513d601f19601f82011682018060405250810190610a709190611c75565b9695505050505050565b5f82815260086020526040902060010154610a948161125d565b610a9e838361126a565b50505050565b5f610aad6112fb565b905090565b6001600160a01b0381163314610adb5760405163334bd91960e11b815260040160405180910390fd5b610ae58282611424565b505050565b600a545f906001600160a01b03161580610b0d57506009546001600160a01b0316155b15610b1957505f919050565b600a546040805163efa7fa5d60e01b815290515f926001600160a01b03169163efa7fa5d9160048083019260209291908290030181865afa158015610b60573d5f803e3d5ffd5b505050506040513d601f19601f82011682018060405250810190610b849190611be5565b9050805f03610b9557505f92915050565b6009546040516370a0823160e01b81526001600160a01b038581166004830152670de0b6b3a76400009284929116906370a0823190602401602060405180830381865afa158015610be8573d5f803e3d5ffd5b505050506040513d601f19601f82011682018060405250810190610c0c9190611be5565b610c169190611c33565b610c209190611c56565b9392505050565b6001600160a01b0381165f9081526007602052604081205461054e565b5f6060805f805f6060610c5561148f565b610c5d6114bc565b604080515f80825260208201909252600f60f81b9b939a50919850469750309650945092509050565b5f9182526008602090815260408084206001600160a01b0393909316845291905290205460ff1690565b60606004805461056390611bad565b5f610cc98161125d565b6001600160a01b038216610d1f5760405162461bcd60e51b815260206004820181905260248201527f555350443a205a65726f207261746520636f6e7472616374206164647265737360448201526064016101d6565b600a546040516001600160a01b038085169216907f7f0de29187af70d0a98056dd080553d3dec269c81e80033f3ca34a97b3985d3a905f90a350600a80546001600160a01b0319166001600160a01b0392909216919091179055565b5f80600a5f9054906101000a90046001600160a01b03166001600160a01b031663efa7fa5d6040518163ffffffff1660e01b8152600401602060405180830381865afa158015610dcd573d5f803e3d5ffd5b505050506040513d601f19601f82011682018060405250810190610df19190611be5565b90505f8111610e125760405162461bcd60e51b81526004016101d690611bfc565b5f81610e26670de0b6b3a764000086611c33565b610e309190611c56565b90505f811180610e3e575083155b610e5a5760405162461bcd60e51b81526004016101d690611c94565b60095460405163a9059cbb60e01b81526001600160a01b038781166004830152602482018490529091169063a9059cbb906044016106d0565b83421115610eb75760405163313c898160e11b8152600481018590526024016101d6565b5f7f6e71edae12b1b97f4d1f60370fef10105fa2faae0126114a169c64845d6126c9888888610f028c6001600160a01b03165f90815260076020526040902080546001810190915590565b6040805160208101969096526001600160a01b0394851690860152929091166060840152608083015260a082015260c0810186905260e0016040516020818303038152906040528051906020012090505f610f5c826114e9565b90505f610f6b82878787611515565b9050896001600160a01b0316816001600160a01b031614610fb2576040516325c0072360e11b81526001600160a01b0380831660048301528b1660248201526044016101d6565b610fbd8a8a8a611541565b50505050505050505050565b5f82815260086020526040902060010154610fe38161125d565b610a9e8383611424565b5f80600a5f9054906101000a90046001600160a01b03166001600160a01b031663efa7fa5d6040518163ffffffff1660e01b8152600401602060405180830381865afa15801561103f573d5f803e3d5ffd5b505050506040513d601f19601f820116820180604052508101906110639190611be5565b9050805f03611075575f91505061054e565b600954604051636eb1769f60e11b81526001600160a01b03868116600483015285811660248301525f92169063dd62ed3e90604401602060405180830381865afa1580156110c5573d5f803e3d5ffd5b505050506040513d601f19601f820116820180604052508101906110e99190611be5565b9050670de0b6b3a76400006110fe8383611c33565b6107109190611c56565b6001600160a01b03821661115e5760405162461bcd60e51b815260206004820152601a60248201527f555350443a204d696e7420746f207a65726f206164647265737300000000000060448201526064016101d6565b6009546001600160a01b03166111b65760405162461bcd60e51b815260206004820152601b60248201527f555350443a2063555350442061646472657373206e6f7420736574000000000060448201526064016101d6565b60095460405163bda11bed60e01b81525f916001600160a01b03169063bda11bed9034906111ea9087908790600401611d0d565b60206040518083038185885af1158015611206573d5f803e3d5ffd5b50505050506040513d601f19601f8201168201806040525081019061122b9190611be5565b90508015610ae557604051339082156108fc029083905f818181858888f19350505050158015610a9e573d5f803e3d5ffd5b611267813361154e565b50565b5f6112758383610c86565b6112f4575f8381526008602090815260408083206001600160a01b03861684529091529020805460ff191660011790556112ac3390565b6001600160a01b0316826001600160a01b0316847f2f8788117e7eff1d82e926ec794901d17c78024a50270940304540a733656f0d60405160405180910390a450600161054e565b505f61054e565b5f306001600160a01b037f00000000000000000000000000000000000000000000000000000000000000001614801561135357507f000000000000000000000000000000000000000000000000000000000000000046145b1561137d57507f000000000000000000000000000000000000000000000000000000000000000090565b610aad604080517f8b73c3c69bb8fe3d512ecc4cf759cc79239f7b179b0ffacaa9a75d522b39400f60208201527f0000000000000000000000000000000000000000000000000000000000000000918101919091527f000000000000000000000000000000000000000000000000000000000000000060608201524660808201523060a08201525f9060c00160405160208183030381529060405280519060200120905090565b5f61142f8383610c86565b156112f4575f8381526008602090815260408083206001600160a01b0386168085529252808320805460ff1916905551339286917ff6391f5c32d9c69d2a47ea670b442974b53935d1edc7fd64eb21e047a839171b9190a450600161054e565b6060610aad7f0000000000000000000000000000000000000000000000000000000000000000600561158b565b6060610aad7f0000000000000000000000000000000000000000000000000000000000000000600661158b565b5f61054e6114f56112fb565b8360405161190160f01b8152600281019290925260228201526042902090565b5f805f8061152588888888611634565b92509250925061153582826116fc565b50909695505050505050565b610ae583838360016117b4565b6115588282610c86565b6115875760405163e2517d3f60e01b81526001600160a01b0382166004820152602481018390526044016101d6565b5050565b606060ff83146115a55761159e83611886565b905061054e565b8180546115b190611bad565b80601f01602080910402602001604051908101604052809291908181526020018280546115dd90611bad565b80156116285780601f106115ff57610100808354040283529160200191611628565b820191905f5260205f20905b81548152906001019060200180831161160b57829003601f168201915b5050505050905061054e565b5f80807f7fffffffffffffffffffffffffffffff5d576e7357a4501ddfe92f46681b20a084111561166d57505f915060039050826116f2565b604080515f808252602082018084528a905260ff891692820192909252606081018790526080810186905260019060a0016020604051602081039080840390855afa1580156116be573d5f803e3d5ffd5b5050604051601f1901519150506001600160a01b0381166116e957505f9250600191508290506116f2565b92505f91508190505b9450945094915050565b5f82600381111561170f5761170f611db1565b03611718575050565b600182600381111561172c5761172c611db1565b0361174a5760405163f645eedf60e01b815260040160405180910390fd5b600282600381111561175e5761175e611db1565b0361177f5760405163fce698f760e01b8152600481018290526024016101d6565b600382600381111561179357611793611db1565b03611587576040516335e2f38360e21b8152600481018290526024016101d6565b6001600160a01b0384166117dd5760405163e602df0560e01b81525f60048201526024016101d6565b6001600160a01b03831661180657604051634a1406b160e11b81525f60048201526024016101d6565b6001600160a01b038085165f9081526001602090815260408083209387168352929052208290558015610a9e57826001600160a01b0316846001600160a01b03167f8c5be1e5ebec7d5bd14f71427d1e84f3dd0314c0f7b2291e5b200ac8c7c3b9258460405161187891815260200190565b60405180910390a350505050565b60605f611892836118c3565b6040805160208082528183019092529192505f91906020820181803683375050509182525060208101929092525090565b5f60ff8216601f81111561054e57604051632cd44ac360e21b815260040160405180910390fd5b5f602082840312156118fa575f80fd5b81356001600160e01b031981168114610c20575f80fd5b5f81518084528060208401602086015e5f602082860101526020601f19601f83011685010191505092915050565b602081525f610c206020830184611911565b80356001600160a01b0381168114611967575f80fd5b919050565b5f806040838503121561197d575f80fd5b61198683611951565b946020939093013593505050565b5f602082840312156119a4575f80fd5b610c2082611951565b5f805f606084860312156119bf575f80fd5b6119c884611951565b92506119d660208501611951565b929592945050506040919091013590565b5f602082840312156119f7575f80fd5b5035919050565b5f8060408385031215611a0f575f80fd5b82359150611a1f60208401611951565b90509250929050565b60ff60f81b8816815260e060208201525f611a4660e0830189611911565b8281036040840152611a588189611911565b606084018890526001600160a01b038716608085015260a0840186905283810360c0850152845180825260208087019350909101905f5b81811015611aad578351835260209384019390920191600101611a8f565b50909b9a5050505050505050505050565b803560ff81168114611967575f80fd5b5f805f805f805f60e0888a031215611ae4575f80fd5b611aed88611951565b9650611afb60208901611951565b95506040880135945060608801359350611b1760808901611abe565b9699959850939692959460a0840135945060c09093013592915050565b5f8060408385031215611b45575f80fd5b611b4e83611951565b9150611a1f60208401611951565b5f8060408385031215611b6d575f80fd5b611b7683611951565b9150602083013567ffffffffffffffff811115611b91575f80fd5b830160a08186031215611ba2575f80fd5b809150509250929050565b600181811c90821680611bc157607f821691505b602082108103611bdf57634e487b7160e01b5f52602260045260245ffd5b50919050565b5f60208284031215611bf5575f80fd5b5051919050565b6020808252601a908201527f555350443a20496e76616c6964207969656c6420666163746f72000000000000604082015260600190565b808202811582820484141761054e57634e487b7160e01b5f52601160045260245ffd5b5f82611c7057634e487b7160e01b5f52601260045260245ffd5b500490565b5f60208284031215611c85575f80fd5b81518015158114610c20575f80fd5b60208082526031908201527f555350443a205472616e7366657220616d6f756e7420746f6f20736d616c6c20604082015270199bdc8818dd5c9c995b9d081e5a595b19607a1b606082015260800190565b81835281816020850137505f828201602090810191909152601f909101601f19169091010190565b6001600160a01b0383168152604060208083018290528335918301919091525f9060ff90611d3c908501611abe565b1660608381019190915260408401356080808501919091529084013560a084015283013536849003601e19018112611d72575f80fd5b830160208101903567ffffffffffffffff811115611d8e575f80fd5b803603821315611d9c575f80fd5b60a060c0850152610a7060e085018284611ce5565b634e487b7160e01b5f52602160045260245ffdfea2646970667358221220f651dba483867afa1b171c874dbf27b5e95f03df8df4cbcbc06257d77205885d64736f6c634300081a0033","linkReferences":{}},"methodIdentifiers":{"DEFAULT_ADMIN_ROLE()":"a217fddf","DOMAIN_SEPARATOR()":"3644e515","FACTOR_PRECISION()":"a42c69a9","allowance(address,address)":"dd62ed3e","approve(address,uint256)":"095ea7b3","balanceOf(address)":"70a08231","cuspdToken()":"6bc05b7e","decimals()":"313ce567","eip712Domain()":"84b0196e","getRoleAdmin(bytes32)":"248a9ca3","grantRole(bytes32,address)":"2f2ff15d","hasRole(bytes32,address)":"91d14854","mint(address,(uint256,uint8,uint256,bytes32,bytes))":"e7b14eeb","name()":"06fdde03","nonces(address)":"7ecebe00","permit(address,address,uint256,uint256,uint8,bytes32,bytes32)":"d505accf","rateContract()":"eee24219","renounceRole(bytes32,address)":"36568abe","revokeRole(bytes32,address)":"d547741f","supportsInterface(bytes4)":"01ffc9a7","symbol()":"95d89b41","totalSupply()":"18160ddd","transfer(address,uint256)":"a9059cbb","transferFrom(address,address,uint256)":"23b872dd","updateCUSPDAddress(address)":"0a9c6819","updateRateContract(address)":"a6f4ae27"},"storageLayout":{"storage":[{"astId":43219,"contract":"src/UspdToken.sol:USPDToken","label":"_balances","offset":0,"slot":"0","type":"t_mapping(t_address,t_uint256)"},{"astId":43225,"contract":"src/UspdToken.sol:USPDToken","label":"_allowances","offset":0,"slot":"1","type":"t_mapping(t_address,t_mapping(t_address,t_uint256))"},{"astId":43227,"contract":"src/UspdToken.sol:USPDToken","label":"_totalSupply","offset":0,"slot":"2","type":"t_uint256"},{"astId":43229,"contract":"src/UspdToken.sol:USPDToken","label":"_name","offset":0,"slot":"3","type":"t_string_storage"},{"astId":43231,"contract":"src/UspdToken.sol:USPDToken","label":"_symbol","offset":0,"slot":"4","type":"t_string_storage"},{"astId":46734,"contract":"src/UspdToken.sol:USPDToken","label":"_nameFallback","offset":0,"slot":"5","type":"t_string_storage"},{"astId":46736,"contract":"src/UspdToken.sol:USPDToken","label":"_versionFallback","offset":0,"slot":"6","type":"t_string_storage"},{"astId":44702,"contract":"src/UspdToken.sol:USPDToken","label":"_nonces","offset":0,"slot":"7","type":"t_mapping(t_address,t_uint256)"},{"astId":41560,"contract":"src/UspdToken.sol:USPDToken","label":"_roles","offset":0,"slot":"8","type":"t_mapping(t_bytes32,t_struct(RoleData)41555_storage)"},{"astId":55830,"contract":"src/UspdToken.sol:USPDToken","label":"cuspdToken","offset":0,"slot":"9","type":"t_contract(IcUSPDToken)57446"},{"astId":55833,"contract":"src/UspdToken.sol:USPDToken","label":"rateContract","offset":0,"slot":"10","type":"t_contract(IPoolSharesConversionRate)57096"}],"types":{"t_address":{"encoding":"inplace","label":"address","numberOfBytes":"20"},"t_bool":{"encoding":"inplace","label":"bool","numberOfBytes":"1"},"t_bytes32":{"encoding":"inplace","label":"bytes32","numberOfBytes":"32"},"t_contract(IPoolSharesConversionRate)57096":{"encoding":"inplace","label":"contract IPoolSharesConversionRate","numberOfBytes":"20"},"t_contract(IcUSPDToken)57446":{"encoding":"inplace","label":"contract IcUSPDToken","numberOfBytes":"20"},"t_mapping(t_address,t_bool)":{"encoding":"mapping","key":"t_address","label":"mapping(address => bool)","numberOfBytes":"32","value":"t_bool"},"t_mapping(t_address,t_mapping(t_address,t_uint256))":{"encoding":"mapping","key":"t_address","label":"mapping(address => mapping(address => uint256))","numberOfBytes":"32","value":"t_mapping(t_address,t_uint256)"},"t_mapping(t_address,t_uint256)":{"encoding":"mapping","key":"t_address","label":"mapping(address => uint256)","numberOfBytes":"32","value":"t_uint256"},"t_mapping(t_bytes32,t_struct(RoleData)41555_storage)":{"encoding":"mapping","key":"t_bytes32","label":"mapping(bytes32 => struct AccessControl.RoleData)","numberOfBytes":"32","value":"t_struct(RoleData)41555_storage"},"t_string_storage":{"encoding":"bytes","label":"string","numberOfBytes":"32"},"t_struct(RoleData)41555_storage":{"encoding":"inplace","label":"struct AccessControl.RoleData","numberOfBytes":"64","members":[{"astId":41552,"contract":"src/UspdToken.sol:USPDToken","label":"hasRole","offset":0,"slot":"0","type":"t_mapping(t_address,t_bool)"},{"astId":41554,"contract":"src/UspdToken.sol:USPDToken","label":"adminRole","offset":0,"slot":"1","type":"t_bytes32"}]},"t_uint256":{"encoding":"inplace","label":"uint256","numberOfBytes":"32"}}},"id":76}