{"abi":[{"type":"constructor","inputs":[{"name":"name","type":"string","internalType":"string"},{"name":"symbol","type":"string","internalType":"string"},{"name":"_cuspdTokenAddress","type":"address","internalType":"address"},{"name":"_rateContractAddress","type":"address","internalType":"address"},{"name":"_admin","type":"address","internalType":"address"}],"stateMutability":"nonpayable"},{"type":"receive","stateMutability":"payable"},{"type":"function","name":"DEFAULT_ADMIN_ROLE","inputs":[],"outputs":[{"name":"","type":"bytes32","internalType":"bytes32"}],"stateMutability":"view"},{"type":"function","name":"DOMAIN_SEPARATOR","inputs":[],"outputs":[{"name":"","type":"bytes32","internalType":"bytes32"}],"stateMutability":"view"},{"type":"function","name":"FACTOR_PRECISION","inputs":[],"outputs":[{"name":"","type":"uint256","internalType":"uint256"}],"stateMutability":"view"},{"type":"function","name":"RELAYER_ROLE","inputs":[],"outputs":[{"name":"","type":"bytes32","internalType":"bytes32"}],"stateMutability":"view"},{"type":"function","name":"allowance","inputs":[{"name":"owner","type":"address","internalType":"address"},{"name":"spender","type":"address","internalType":"address"}],"outputs":[{"name":"","type":"uint256","internalType":"uint256"}],"stateMutability":"view"},{"type":"function","name":"approve","inputs":[{"name":"spender","type":"address","internalType":"address"},{"name":"value","type":"uint256","internalType":"uint256"}],"outputs":[{"name":"","type":"bool","internalType":"bool"}],"stateMutability":"nonpayable"},{"type":"function","name":"balanceOf","inputs":[{"name":"account","type":"address","internalType":"address"}],"outputs":[{"name":"","type":"uint256","internalType":"uint256"}],"stateMutability":"view"},{"type":"function","name":"bridgeEscrowAddress","inputs":[],"outputs":[{"name":"","type":"address","internalType":"address"}],"stateMutability":"view"},{"type":"function","name":"burn","inputs":[{"name":"uspdAmount","type":"uint256","internalType":"uint256"},{"name":"priceQuery","type":"tuple","internalType":"struct IPriceOracle.PriceAttestationQuery","components":[{"name":"price","type":"uint256","internalType":"uint256"},{"name":"decimals","type":"uint8","internalType":"uint8"},{"name":"dataTimestamp","type":"uint256","internalType":"uint256"},{"name":"assetPair","type":"bytes32","internalType":"bytes32"},{"name":"signature","type":"bytes","internalType":"bytes"}]}],"outputs":[],"stateMutability":"nonpayable"},{"type":"function","name":"cuspdToken","inputs":[],"outputs":[{"name":"","type":"address","internalType":"contract IcUSPDToken"}],"stateMutability":"view"},{"type":"function","name":"decimals","inputs":[],"outputs":[{"name":"","type":"uint8","internalType":"uint8"}],"stateMutability":"view"},{"type":"function","name":"eip712Domain","inputs":[],"outputs":[{"name":"fields","type":"bytes1","internalType":"bytes1"},{"name":"name","type":"string","internalType":"string"},{"name":"version","type":"string","internalType":"string"},{"name":"chainId","type":"uint256","internalType":"uint256"},{"name":"verifyingContract","type":"address","internalType":"address"},{"name":"salt","type":"bytes32","internalType":"bytes32"},{"name":"extensions","type":"uint256[]","internalType":"uint256[]"}],"stateMutability":"view"},{"type":"function","name":"getRoleAdmin","inputs":[{"name":"role","type":"bytes32","internalType":"bytes32"}],"outputs":[{"name":"","type":"bytes32","internalType":"bytes32"}],"stateMutability":"view"},{"type":"function","name":"grantRole","inputs":[{"name":"role","type":"bytes32","internalType":"bytes32"},{"name":"account","type":"address","internalType":"address"}],"outputs":[],"stateMutability":"nonpayable"},{"type":"function","name":"hasRole","inputs":[{"name":"role","type":"bytes32","internalType":"bytes32"},{"name":"account","type":"address","internalType":"address"}],"outputs":[{"name":"","type":"bool","internalType":"bool"}],"stateMutability":"view"},{"type":"function","name":"lockForBridging","inputs":[{"name":"uspdAmountToBridge","type":"uint256","internalType":"uint256"},{"name":"targetChainId","type":"uint256","internalType":"uint256"}],"outputs":[],"stateMutability":"nonpayable"},{"type":"function","name":"mint","inputs":[{"name":"to","type":"address","internalType":"address"},{"name":"priceQuery","type":"tuple","internalType":"struct IPriceOracle.PriceAttestationQuery","components":[{"name":"price","type":"uint256","internalType":"uint256"},{"name":"decimals","type":"uint8","internalType":"uint8"},{"name":"dataTimestamp","type":"uint256","internalType":"uint256"},{"name":"assetPair","type":"bytes32","internalType":"bytes32"},{"name":"signature","type":"bytes","internalType":"bytes"}]}],"outputs":[],"stateMutability":"payable"},{"type":"function","name":"name","inputs":[],"outputs":[{"name":"","type":"string","internalType":"string"}],"stateMutability":"view"},{"type":"function","name":"nonces","inputs":[{"name":"owner","type":"address","internalType":"address"}],"outputs":[{"name":"","type":"uint256","internalType":"uint256"}],"stateMutability":"view"},{"type":"function","name":"permit","inputs":[{"name":"owner","type":"address","internalType":"address"},{"name":"spender","type":"address","internalType":"address"},{"name":"value","type":"uint256","internalType":"uint256"},{"name":"deadline","type":"uint256","internalType":"uint256"},{"name":"v","type":"uint8","internalType":"uint8"},{"name":"r","type":"bytes32","internalType":"bytes32"},{"name":"s","type":"bytes32","internalType":"bytes32"}],"outputs":[],"stateMutability":"nonpayable"},{"type":"function","name":"rateContract","inputs":[],"outputs":[{"name":"","type":"address","internalType":"contract IPoolSharesConversionRate"}],"stateMutability":"view"},{"type":"function","name":"renounceRole","inputs":[{"name":"role","type":"bytes32","internalType":"bytes32"},{"name":"callerConfirmation","type":"address","internalType":"address"}],"outputs":[],"stateMutability":"nonpayable"},{"type":"function","name":"revokeRole","inputs":[{"name":"role","type":"bytes32","internalType":"bytes32"},{"name":"account","type":"address","internalType":"address"}],"outputs":[],"stateMutability":"nonpayable"},{"type":"function","name":"setBridgeEscrowAddress","inputs":[{"name":"_bridgeEscrowAddress","type":"address","internalType":"address"}],"outputs":[],"stateMutability":"nonpayable"},{"type":"function","name":"supportsInterface","inputs":[{"name":"interfaceId","type":"bytes4","internalType":"bytes4"}],"outputs":[{"name":"","type":"bool","internalType":"bool"}],"stateMutability":"view"},{"type":"function","name":"symbol","inputs":[],"outputs":[{"name":"","type":"string","internalType":"string"}],"stateMutability":"view"},{"type":"function","name":"totalSupply","inputs":[],"outputs":[{"name":"","type":"uint256","internalType":"uint256"}],"stateMutability":"view"},{"type":"function","name":"transfer","inputs":[{"name":"to","type":"address","internalType":"address"},{"name":"uspdAmount","type":"uint256","internalType":"uint256"}],"outputs":[{"name":"","type":"bool","internalType":"bool"}],"stateMutability":"nonpayable"},{"type":"function","name":"transferFrom","inputs":[{"name":"from","type":"address","internalType":"address"},{"name":"to","type":"address","internalType":"address"},{"name":"uspdAmount","type":"uint256","internalType":"uint256"}],"outputs":[{"name":"","type":"bool","internalType":"bool"}],"stateMutability":"nonpayable"},{"type":"function","name":"unlockFromBridging","inputs":[{"name":"recipient","type":"address","internalType":"address"},{"name":"uspdAmountIntended","type":"uint256","internalType":"uint256"},{"name":"sourceChainYieldFactor","type":"uint256","internalType":"uint256"},{"name":"sourceChainId","type":"uint256","internalType":"uint256"}],"outputs":[],"stateMutability":"nonpayable"},{"type":"function","name":"updateCUSPDAddress","inputs":[{"name":"newCUSPDAddress","type":"address","internalType":"address"}],"outputs":[],"stateMutability":"nonpayable"},{"type":"function","name":"updateRateContract","inputs":[{"name":"newRateContract","type":"address","internalType":"address"}],"outputs":[],"stateMutability":"nonpayable"},{"type":"event","name":"Approval","inputs":[{"name":"owner","type":"address","indexed":true,"internalType":"address"},{"name":"spender","type":"address","indexed":true,"internalType":"address"},{"name":"value","type":"uint256","indexed":false,"internalType":"uint256"}],"anonymous":false},{"type":"event","name":"BridgeEscrowAddressUpdated","inputs":[{"name":"oldAddress","type":"address","indexed":true,"internalType":"address"},{"name":"newAddress","type":"address","indexed":true,"internalType":"address"}],"anonymous":false},{"type":"event","name":"CUSPDAddressUpdated","inputs":[{"name":"oldCUSPDAddress","type":"address","indexed":true,"internalType":"address"},{"name":"newCUSPDAddress","type":"address","indexed":true,"internalType":"address"}],"anonymous":false},{"type":"event","name":"EIP712DomainChanged","inputs":[],"anonymous":false},{"type":"event","name":"LockForBridgingInitiated","inputs":[{"name":"tokenAdapter","type":"address","indexed":true,"internalType":"address"},{"name":"targetChainId","type":"uint256","indexed":true,"internalType":"uint256"},{"name":"uspdAmount","type":"uint256","indexed":false,"internalType":"uint256"},{"name":"cUSPDShareAmount","type":"uint256","indexed":false,"internalType":"uint256"}],"anonymous":false},{"type":"event","name":"RateContractUpdated","inputs":[{"name":"oldRateContract","type":"address","indexed":true,"internalType":"address"},{"name":"newRateContract","type":"address","indexed":true,"internalType":"address"}],"anonymous":false},{"type":"event","name":"RoleAdminChanged","inputs":[{"name":"role","type":"bytes32","indexed":true,"internalType":"bytes32"},{"name":"previousAdminRole","type":"bytes32","indexed":true,"internalType":"bytes32"},{"name":"newAdminRole","type":"bytes32","indexed":true,"internalType":"bytes32"}],"anonymous":false},{"type":"event","name":"RoleGranted","inputs":[{"name":"role","type":"bytes32","indexed":true,"internalType":"bytes32"},{"name":"account","type":"address","indexed":true,"internalType":"address"},{"name":"sender","type":"address","indexed":true,"internalType":"address"}],"anonymous":false},{"type":"event","name":"RoleRevoked","inputs":[{"name":"role","type":"bytes32","indexed":true,"internalType":"bytes32"},{"name":"account","type":"address","indexed":true,"internalType":"address"},{"name":"sender","type":"address","indexed":true,"internalType":"address"}],"anonymous":false},{"type":"event","name":"Transfer","inputs":[{"name":"from","type":"address","indexed":true,"internalType":"address"},{"name":"to","type":"address","indexed":true,"internalType":"address"},{"name":"value","type":"uint256","indexed":false,"internalType":"uint256"}],"anonymous":false},{"type":"event","name":"UnlockFromBridgingInitiated","inputs":[{"name":"recipient","type":"address","indexed":true,"internalType":"address"},{"name":"sourceChainId","type":"uint256","indexed":true,"internalType":"uint256"},{"name":"uspdAmountIntended","type":"uint256","indexed":false,"internalType":"uint256"},{"name":"sourceChainYieldFactor","type":"uint256","indexed":false,"internalType":"uint256"},{"name":"cUSPDShareAmount","type":"uint256","indexed":false,"internalType":"uint256"}],"anonymous":false},{"type":"error","name":"AccessControlBadConfirmation","inputs":[]},{"type":"error","name":"AccessControlUnauthorizedAccount","inputs":[{"name":"account","type":"address","internalType":"address"},{"name":"neededRole","type":"bytes32","internalType":"bytes32"}]},{"type":"error","name":"AmountTooSmall","inputs":[]},{"type":"error","name":"BridgeEscrowNotSet","inputs":[]},{"type":"error","name":"ECDSAInvalidSignature","inputs":[]},{"type":"error","name":"ECDSAInvalidSignatureLength","inputs":[{"name":"length","type":"uint256","internalType":"uint256"}]},{"type":"error","name":"ECDSAInvalidSignatureS","inputs":[{"name":"s","type":"bytes32","internalType":"bytes32"}]},{"type":"error","name":"ERC20InsufficientAllowance","inputs":[{"name":"spender","type":"address","internalType":"address"},{"name":"allowance","type":"uint256","internalType":"uint256"},{"name":"needed","type":"uint256","internalType":"uint256"}]},{"type":"error","name":"ERC20InsufficientBalance","inputs":[{"name":"sender","type":"address","internalType":"address"},{"name":"balance","type":"uint256","internalType":"uint256"},{"name":"needed","type":"uint256","internalType":"uint256"}]},{"type":"error","name":"ERC20InvalidApprover","inputs":[{"name":"approver","type":"address","internalType":"address"}]},{"type":"error","name":"ERC20InvalidReceiver","inputs":[{"name":"receiver","type":"address","internalType":"address"}]},{"type":"error","name":"ERC20InvalidSender","inputs":[{"name":"sender","type":"address","internalType":"address"}]},{"type":"error","name":"ERC20InvalidSpender","inputs":[{"name":"spender","type":"address","internalType":"address"}]},{"type":"error","name":"ERC2612ExpiredSignature","inputs":[{"name":"deadline","type":"uint256","internalType":"uint256"}]},{"type":"error","name":"ERC2612InvalidSigner","inputs":[{"name":"signer","type":"address","internalType":"address"},{"name":"owner","type":"address","internalType":"address"}]},{"type":"error","name":"InvalidAccountNonce","inputs":[{"name":"account","type":"address","internalType":"address"},{"name":"currentNonce","type":"uint256","internalType":"uint256"}]},{"type":"error","name":"InvalidShortString","inputs":[]},{"type":"error","name":"InvalidYieldFactor","inputs":[]},{"type":"error","name":"StringTooLong","inputs":[{"name":"str","type":"string","internalType":"string"}]},{"type":"error","name":"ZeroAddress","inputs":[]}],"bytecode":{"object":"0x610160604052348015610010575f5ffd5b5060405161308138038061308183398101604081905261002f91610439565b6040805180820190915260018152603160f81b602082015285908190818760036100598382610552565b5060046100668282610552565b5061007691508390506005610267565b61012052610085816006610267565b61014052815160208084019190912060e052815190820120610100524660a05261011160e05161010051604080517f8b73c3c69bb8fe3d512ecc4cf759cc79239f7b179b0ffacaa9a75d522b39400f60208201529081019290925260608201524660808201523060a08201525f9060c00160405160208183030381529060405280519060200120905090565b60805250503060c052506001600160a01b0383166101765760405162461bcd60e51b815260206004820152601860248201527f555350443a205a65726f2063555350442061646472657373000000000000000060448201526064015b60405180910390fd5b6001600160a01b0382166101cc5760405162461bcd60e51b815260206004820181905260248201527f555350443a205a65726f207261746520636f6e74726163742061646472657373604482015260640161016d565b6001600160a01b0381166102225760405162461bcd60e51b815260206004820152601860248201527f555350443a205a65726f2061646d696e20616464726573730000000000000000604482015260640161016d565b600980546001600160a01b038086166001600160a01b031992831617909255600a80549285169290911691909117905561025c5f82610299565b505050505050610664565b5f6020835110156102825761027b83610344565b9050610293565b8161028d8482610552565b5060ff90505b92915050565b5f8281526008602090815260408083206001600160a01b038516845290915281205460ff1661033d575f8381526008602090815260408083206001600160a01b03861684529091529020805460ff191660011790556102f53390565b6001600160a01b0316826001600160a01b0316847f2f8788117e7eff1d82e926ec794901d17c78024a50270940304540a733656f0d60405160405180910390a4506001610293565b505f610293565b5f5f829050601f8151111561036e578260405163305a27a960e01b815260040161016d919061060c565b805161037982610641565b179392505050565b634e487b7160e01b5f52604160045260245ffd5b5f82601f8301126103a4575f5ffd5b81516001600160401b038111156103bd576103bd610381565b604051601f8201601f19908116603f011681016001600160401b03811182821017156103eb576103eb610381565b604052818152838201602001851015610402575f5ffd5b8160208501602083015e5f918101602001919091529392505050565b80516001600160a01b0381168114610434575f5ffd5b919050565b5f5f5f5f5f60a0868803121561044d575f5ffd5b85516001600160401b03811115610462575f5ffd5b61046e88828901610395565b602088015190965090506001600160401b0381111561048b575f5ffd5b61049788828901610395565b9450506104a66040870161041e565b92506104b46060870161041e565b91506104c26080870161041e565b90509295509295909350565b600181811c908216806104e257607f821691505b60208210810361050057634e487b7160e01b5f52602260045260245ffd5b50919050565b601f82111561054d57805f5260205f20601f840160051c8101602085101561052b5750805b601f840160051c820191505b8181101561054a575f8155600101610537565b50505b505050565b81516001600160401b0381111561056b5761056b610381565b61057f8161057984546104ce565b84610506565b6020601f8211600181146105b1575f831561059a5750848201515b5f19600385901b1c1916600184901b17845561054a565b5f84815260208120601f198516915b828110156105e057878501518255602094850194600190920191016105c0565b50848210156105fd57868401515f19600387901b60f8161c191681555b50505050600190811b01905550565b602081525f82518060208401528060208501604085015e5f604082850101526040601f19601f83011684010191505092915050565b80516020808301519190811015610500575f1960209190910360031b1b16919050565b60805160a05160c05160e0516101005161012051610140516129cc6106b55f395f61202501525f611ff801525f611f3601525f611f0e01525f611e6901525f611e9301525f611ebd01526129cc5ff3fe6080604052600436106101de575f3560e01c80637ecebe00116100fd578063a9059cbb11610092578063d547741f11610062578063d547741f146105ee578063dd62ed3e1461060d578063e7b14eeb14610651578063eee2421914610664575f5ffd5b8063a9059cbb14610572578063b6501f0514610591578063babc678f146105b0578063d505accf146105cf575f5ffd5b806395d89b41116100cd57806395d89b4114610511578063a217fddf14610525578063a42c69a914610538578063a6f4ae2714610553575f5ffd5b80637ecebe001461047957806384b0196e1461049857806391d14854146104bf578063926d7d7f146104de575f5ffd5b80632f2ff15d1161017357806351cab9131161014357806351cab913146103fd5780636bc05b7e1461041c57806370a082311461043b5780637d08a7711461045a575f5ffd5b80632f2ff15d14610390578063313ce567146103af5780633644e515146103ca57806336568abe146103de575f5ffd5b806318160ddd116101ae57806318160ddd146102ea5780631a2a4a8e1461030c57806323b872dd14610343578063248a9ca314610362575f5ffd5b806301ffc9a71461025757806306fdde031461028b578063095ea7b3146102ac5780630a9c6819146102cb575f5ffd5b36610253576009546001600160a01b031633146102515760405162461bcd60e51b815260206004820152602660248201527f555350443a2044697265637420455448207472616e7366657273206e6f7420616044820152651b1b1bddd95960d21b60648201526084015b60405180910390fd5b005b5f5ffd5b348015610262575f5ffd5b5061027661027136600461243f565b610683565b60405190151581526020015b60405180910390f35b348015610296575f5ffd5b5061029f6106b9565b6040516102829190612494565b3480156102b7575f5ffd5b506102766102c63660046124ba565b610749565b3480156102d6575f5ffd5b506102516102e53660046124e4565b610760565b3480156102f5575f5ffd5b506102fe6107ed565b604051908152602001610282565b348015610317575f5ffd5b50600b5461032b906001600160a01b031681565b6040516001600160a01b039091168152602001610282565b34801561034e575f5ffd5b5061027661035d3660046124ff565b61092d565b34801561036d575f5ffd5b506102fe61037c36600461253d565b5f9081526008602052604090206001015490565b34801561039b575f5ffd5b506102516103aa366004612554565b610a88565b3480156103ba575f5ffd5b5060405160128152602001610282565b3480156103d5575f5ffd5b506102fe610ab2565b3480156103e9575f5ffd5b506102516103f8366004612554565b610ac0565b348015610408575f5ffd5b50610251610417366004612582565b610af8565b348015610427575f5ffd5b5060095461032b906001600160a01b031681565b348015610446575f5ffd5b506102fe6104553660046124e4565b610ca9565b348015610465575f5ffd5b506102516104743660046125ba565b610de6565b348015610484575f5ffd5b506102fe6104933660046124e4565b61102f565b3480156104a3575f5ffd5b506104ac61104c565b60405161028297969594939291906125da565b3480156104ca575f5ffd5b506102766104d9366004612554565b61108e565b3480156104e9575f5ffd5b506102fe7fe2b7fb3b832174769106daebcfd6d1970523240dda11281102db9363b83b0dc481565b34801561051c575f5ffd5b5061029f6110b8565b348015610530575f5ffd5b506102fe5f81565b348015610543575f5ffd5b506102fe670de0b6b3a764000081565b34801561055e575f5ffd5b5061025161056d3660046124e4565b6110c7565b34801561057d575f5ffd5b5061027661058c3660046124ba565b611154565b34801561059c575f5ffd5b506102516105ab3660046124e4565b6112c3565b3480156105bb575f5ffd5b506102516105ca366004612686565b611350565b3480156105da575f5ffd5b506102516105e93660046126df565b6119d8565b3480156105f9575f5ffd5b50610251610608366004612554565b611b0e565b348015610618575f5ffd5b506102fe610627366004612749565b6001600160a01b039182165f90815260016020908152604080832093909416825291909152205490565b61025161065f366004612775565b611b32565b34801561066f575f5ffd5b50600a5461032b906001600160a01b031681565b5f6001600160e01b03198216637965db0b60e01b14806106b357506301ffc9a760e01b6001600160e01b03198316145b92915050565b6060600380546106c8906127ac565b80601f01602080910402602001604051908101604052809291908181526020018280546106f4906127ac565b801561073f5780601f106107165761010080835404028352916020019161073f565b820191905f5260205f20905b81548152906001019060200180831161072257829003601f168201915b5050505050905090565b5f33610756818585611d3c565b5060019392505050565b5f61076a81611d49565b6001600160a01b0382166107915760405163d92e233d60e01b815260040160405180910390fd5b6009546040516001600160a01b038085169216907f974190c639ecade8910423bd4d87599b333611969e577aca3bb7135069ea9723905f90a350600980546001600160a01b0319166001600160a01b0392909216919091179055565b600a545f906001600160a01b0316158061081057506009546001600160a01b0316155b1561081a57505f90565b600a546040805163efa7fa5d60e01b815290515f926001600160a01b03169163efa7fa5d9160048083019260209291908290030181865afa158015610861573d5f5f3e3d5ffd5b505050506040513d601f19601f8201168201806040525081019061088591906127de565b9050805f03610895575f91505090565b670de0b6b3a76400008160095f9054906101000a90046001600160a01b03166001600160a01b03166318160ddd6040518163ffffffff1660e01b8152600401602060405180830381865afa1580156108ef573d5f5f3e3d5ffd5b505050506040513d601f19601f8201168201806040525081019061091391906127de565b61091d9190612809565b6109279190612820565b91505090565b5f5f600a5f9054906101000a90046001600160a01b03166001600160a01b031663efa7fa5d6040518163ffffffff1660e01b8152600401602060405180830381865afa15801561097f573d5f5f3e3d5ffd5b505050506040513d601f19601f820116820180604052508101906109a391906127de565b9050805f036109c557604051637278bcd360e01b815260040160405180910390fd5b5f816109d9670de0b6b3a764000086612809565b6109e39190612820565b9050801580156109f257505f84115b15610a105760405163617ab12d60e11b815260040160405180910390fd5b610a1b863386611d56565b600954604051631cb1df1560e31b81526001600160a01b039091169063e58ef8a890610a4f9089908990869060040161283f565b5f604051808303815f87803b158015610a66575f5ffd5b505af1158015610a78573d5f5f3e3d5ffd5b5060019998505050505050505050565b5f82815260086020526040902060010154610aa281611d49565b610aac8383611dcc565b50505050565b5f610abb611e5d565b905090565b6001600160a01b0381163314610ae95760405163334bd91960e11b815260040160405180910390fd5b610af38282611f86565b505050565b7fe2b7fb3b832174769106daebcfd6d1970523240dda11281102db9363b83b0dc4610b2281611d49565b600b546001600160a01b0316610b4b576040516337cc76b960e01b815260040160405180910390fd5b6001600160a01b038516610b725760405163d92e233d60e01b815260040160405180910390fd5b825f03610b9257604051637278bcd360e01b815260040160405180910390fd5b5f83610ba6670de0b6b3a764000087612809565b610bb09190612820565b905080158015610bbf57505f85115b15610bdd5760405163617ab12d60e11b815260040160405180910390fd5b600b5460405163727fca5f60e01b81526001600160a01b038881166004830152602482018490526044820186905260648201889052608482018790529091169063727fca5f9060a4015f604051808303815f87803b158015610c3d575f5ffd5b505af1158015610c4f573d5f5f3e3d5ffd5b505060408051888152602081018890529081018490528592506001600160a01b03891691507f3ddf88d4935a0e526d3301fcc42bd043672d906fbf6ab83fc5b3d51b52fe229f9060600160405180910390a3505050505050565b600a545f906001600160a01b03161580610ccc57506009546001600160a01b0316155b15610cd857505f919050565b600a546040805163efa7fa5d60e01b815290515f926001600160a01b03169163efa7fa5d9160048083019260209291908290030181865afa158015610d1f573d5f5f3e3d5ffd5b505050506040513d601f19601f82011682018060405250810190610d4391906127de565b9050805f03610d5457505f92915050565b6009546040516370a0823160e01b81526001600160a01b038581166004830152670de0b6b3a76400009284929116906370a0823190602401602060405180830381865afa158015610da7573d5f5f3e3d5ffd5b505050506040513d601f19601f82011682018060405250810190610dcb91906127de565b610dd59190612809565b610ddf9190612820565b9392505050565b7fe2b7fb3b832174769106daebcfd6d1970523240dda11281102db9363b83b0dc4610e1081611d49565b600b546001600160a01b0316610e39576040516337cc76b960e01b815260040160405180910390fd5b600a546040805163efa7fa5d60e01b815290515f926001600160a01b03169163efa7fa5d9160048083019260209291908290030181865afa158015610e80573d5f5f3e3d5ffd5b505050506040513d601f19601f82011682018060405250810190610ea491906127de565b9050805f03610ec657604051637278bcd360e01b815260040160405180910390fd5b5f81610eda670de0b6b3a764000087612809565b610ee49190612820565b905080158015610ef357505f85115b15610f115760405163617ab12d60e11b815260040160405180910390fd5b600954600b54604051631cb1df1560e31b81526001600160a01b039283169263e58ef8a892610f4a92339290911690869060040161283f565b5f604051808303815f87803b158015610f61575f5ffd5b505af1158015610f73573d5f5f3e3d5ffd5b5050600b546040516375ca208d60e01b8152600481018590526024810188905260448101899052606481018690523360848201526001600160a01b0390911692506375ca208d915060a4015f604051808303815f87803b158015610fd5575f5ffd5b505af1158015610fe7573d5f5f3e3d5ffd5b505060408051888152602081018590528793503392507fe8d4f7eb343525ad4e1e4e5d4ffbdf599818752c9296f694ba3e23f8e89b75a0910160405180910390a35050505050565b6001600160a01b0381165f908152600760205260408120546106b3565b5f6060805f5f5f606061105d611ff1565b61106561201e565b604080515f80825260208201909252600f60f81b9b939a50919850469750309650945092509050565b5f9182526008602090815260408084206001600160a01b0393909316845291905290205460ff1690565b6060600480546106c8906127ac565b5f6110d181611d49565b6001600160a01b0382166110f85760405163d92e233d60e01b815260040160405180910390fd5b600a546040516001600160a01b038085169216907f7f0de29187af70d0a98056dd080553d3dec269c81e80033f3ca34a97b3985d3a905f90a350600a80546001600160a01b0319166001600160a01b0392909216919091179055565b5f5f600a5f9054906101000a90046001600160a01b03166001600160a01b031663efa7fa5d6040518163ffffffff1660e01b8152600401602060405180830381865afa1580156111a6573d5f5f3e3d5ffd5b505050506040513d601f19601f820116820180604052508101906111ca91906127de565b9050805f036111ec57604051637278bcd360e01b815260040160405180910390fd5b825f0361120c5760405163617ab12d60e11b815260040160405180910390fd5b5f81611220670de0b6b3a764000086612809565b61122a9190612820565b90508015801561123957505f84115b156112575760405163617ab12d60e11b815260040160405180910390fd5b600954604051631cb1df1560e31b81526001600160a01b039091169063e58ef8a89061128b9033908990869060040161283f565b5f604051808303815f87803b1580156112a2575f5ffd5b505af11580156112b4573d5f5f3e3d5ffd5b50600198975050505050505050565b5f6112cd81611d49565b6001600160a01b0382166112f45760405163d92e233d60e01b815260040160405180910390fd5b600b546040516001600160a01b038085169216907f0842e0125c5dd8fb48b1a967ae420e8954c9ccb1f6a29f83ff9da9204895ff1a905f90a350600b80546001600160a01b0319166001600160a01b0392909216919091179055565b600a546040805163efa7fa5d60e01b815290515f926001600160a01b03169163efa7fa5d9160048083019260209291908290030181865afa158015611397573d5f5f3e3d5ffd5b505050506040513d601f19601f820116820180604052508101906113bb91906127de565b9050805f036113dd57604051637278bcd360e01b815260040160405180910390fd5b5f83116114375760405162461bcd60e51b815260206004820152602260248201527f555350443a204275726e20616d6f756e74206d75737420626520706f73697469604482015261766560f01b6064820152608401610248565b8261144133610ca9565b101561148f5760405162461bcd60e51b815260206004820152601a60248201527f555350443a20496e73756666696369656e742062616c616e63650000000000006044820152606401610248565b5f816114a3670de0b6b3a764000086612809565b6114ad9190612820565b9050805f036114cf5760405163617ab12d60e11b815260040160405180910390fd5b600a546040805163183fc7c960e31b815290515f926001600160a01b03169163c1fe3e489160048083019260209291908290030181865afa158015611516573d5f5f3e3d5ffd5b505050506040513d601f19601f8201168201806040525081019061153a9190612863565b90506001600160a01b0381166115925760405162461bcd60e51b815260206004820152601b60248201527f555350443a20496e76616c6964207374455448206164647265737300000000006044820152606401610248565b6040516370a0823160e01b815230600482015281905f906001600160a01b038316906370a0823190602401602060405180830381865afa1580156115d8573d5f5f3e3d5ffd5b505050506040513d601f19601f820116820180604052508101906115fc91906127de565b6009546040516370a0823160e01b81523060048201529192505f916001600160a01b03909116906370a0823190602401602060405180830381865afa158015611647573d5f5f3e3d5ffd5b505050506040513d601f19601f8201168201806040525081019061166b91906127de565b600954604051631cb1df1560e31b81529192506001600160a01b03169063e58ef8a8906116a090339030908a9060040161283f565b5f604051808303815f87803b1580156116b7575f5ffd5b505af11580156116c9573d5f5f3e3d5ffd5b5050600954604051638441871360e01b81526001600160a01b0390911692506384418713915061170190889030908c90600401612932565b6020604051808303815f875af115801561171d573d5f5f3e3d5ffd5b505050506040513d601f19601f8201168201806040525081019061174191906127de565b506040516370a0823160e01b81523060048201525f906001600160a01b038516906370a0823190602401602060405180830381865afa158015611786573d5f5f3e3d5ffd5b505050506040513d601f19601f820116820180604052508101906117aa91906127de565b6009546040516370a0823160e01b81523060048201529192505f916001600160a01b03909116906370a0823190602401602060405180830381865afa1580156117f5573d5f5f3e3d5ffd5b505050506040513d601f19601f8201168201806040525081019061181991906127de565b90505f611826858461295b565b90505f611833858461295b565b905081156118f55760405163a9059cbb60e01b8152336004820152602481018390526001600160a01b0388169063a9059cbb906044016020604051808303815f875af1158015611885573d5f5f3e3d5ffd5b505050506040513d601f19601f820116820180604052508101906118a9919061296e565b6118f55760405162461bcd60e51b815260206004820152601b60248201527f555350443a207374455448207472616e73666572206661696c656400000000006044820152606401610248565b801561195d57600954604051631cb1df1560e31b81526001600160a01b039091169063e58ef8a89061192f9030903390869060040161283f565b5f604051808303815f87803b158015611946575f5ffd5b505af1158015611958573d5f5f3e3d5ffd5b505050505b5f611968828b61295b565b90505f670de0b6b3a764000061197e8d84612809565b6119889190612820565b905080156119c8576040518181525f9033907fddf252ad1be2c89b69c2b068fc378daa952ba7f163c4a11628f55a4df523b3ef9060200160405180910390a35b5050505050505050505050505050565b834211156119fc5760405163313c898160e11b815260048101859052602401610248565b5f7f6e71edae12b1b97f4d1f60370fef10105fa2faae0126114a169c64845d6126c9888888611a478c6001600160a01b03165f90815260076020526040902080546001810190915590565b6040805160208101969096526001600160a01b0394851690860152929091166060840152608083015260a082015260c0810186905260e0016040516020818303038152906040528051906020012090505f611aa18261204b565b90505f611ab082878787612077565b9050896001600160a01b0316816001600160a01b031614611af7576040516325c0072360e11b81526001600160a01b0380831660048301528b166024820152604401610248565b611b028a8a8a611d3c565b50505050505050505050565b5f82815260086020526040902060010154611b2881611d49565b610aac8383611f86565b6001600160a01b038216611b885760405162461bcd60e51b815260206004820152601a60248201527f555350443a204d696e7420746f207a65726f20616464726573730000000000006044820152606401610248565b6009546001600160a01b0316611bb15760405163d92e233d60e01b815260040160405180910390fd5b5f611bbb83610ca9565b60095460405163bda11bed60e01b81529192505f916001600160a01b039091169063bda11bed903490611bf4908890889060040161298d565b60206040518083038185885af1158015611c10573d5f5f3e3d5ffd5b50505050506040513d601f19601f82011682018060405250810190611c3591906127de565b90505f611c4185610ca9565b90505f611c4e848361295b565b90508015611c97576040518181526001600160a01b038716905f907fddf252ad1be2c89b69c2b068fc378daa952ba7f163c4a11628f55a4df523b3ef9060200160405180910390a35b8215611d34576040515f90339085908381818185875af1925050503d805f8114611cdc576040519150601f19603f3d011682016040523d82523d5f602084013e611ce1565b606091505b5050905080611d325760405162461bcd60e51b815260206004820152601760248201527f555350443a2045544820726566756e64206661696c65640000000000000000006044820152606401610248565b505b505050505050565b610af383838360016120a3565b611d538133612175565b50565b6001600160a01b038381165f908152600160209081526040808320938616835292905220545f19811015610aac5781811015611dbe57604051637dc7a0d960e11b81526001600160a01b03841660048201526024810182905260448101839052606401610248565b610aac84848484035f6120a3565b5f611dd7838361108e565b611e56575f8381526008602090815260408083206001600160a01b03861684529091529020805460ff19166001179055611e0e3390565b6001600160a01b0316826001600160a01b0316847f2f8788117e7eff1d82e926ec794901d17c78024a50270940304540a733656f0d60405160405180910390a45060016106b3565b505f6106b3565b5f306001600160a01b037f000000000000000000000000000000000000000000000000000000000000000016148015611eb557507f000000000000000000000000000000000000000000000000000000000000000046145b15611edf57507f000000000000000000000000000000000000000000000000000000000000000090565b610abb604080517f8b73c3c69bb8fe3d512ecc4cf759cc79239f7b179b0ffacaa9a75d522b39400f60208201527f0000000000000000000000000000000000000000000000000000000000000000918101919091527f000000000000000000000000000000000000000000000000000000000000000060608201524660808201523060a08201525f9060c00160405160208183030381529060405280519060200120905090565b5f611f91838361108e565b15611e56575f8381526008602090815260408083206001600160a01b0386168085529252808320805460ff1916905551339286917ff6391f5c32d9c69d2a47ea670b442974b53935d1edc7fd64eb21e047a839171b9190a45060016106b3565b6060610abb7f000000000000000000000000000000000000000000000000000000000000000060056121b2565b6060610abb7f000000000000000000000000000000000000000000000000000000000000000060066121b2565b5f6106b3612057611e5d565b8360405161190160f01b8152600281019290925260228201526042902090565b5f5f5f5f6120878888888861225b565b9250925092506120978282612323565b50909695505050505050565b6001600160a01b0384166120cc5760405163e602df0560e01b81525f6004820152602401610248565b6001600160a01b0383166120f557604051634a1406b160e11b81525f6004820152602401610248565b6001600160a01b038085165f9081526001602090815260408083209387168352929052208290558015610aac57826001600160a01b0316846001600160a01b03167f8c5be1e5ebec7d5bd14f71427d1e84f3dd0314c0f7b2291e5b200ac8c7c3b9258460405161216791815260200190565b60405180910390a350505050565b61217f828261108e565b6121ae5760405163e2517d3f60e01b81526001600160a01b038216600482015260248101839052604401610248565b5050565b606060ff83146121cc576121c5836123db565b90506106b3565b8180546121d8906127ac565b80601f0160208091040260200160405190810160405280929190818152602001828054612204906127ac565b801561224f5780601f106122265761010080835404028352916020019161224f565b820191905f5260205f20905b81548152906001019060200180831161223257829003601f168201915b505050505090506106b3565b5f80807f7fffffffffffffffffffffffffffffff5d576e7357a4501ddfe92f46681b20a084111561229457505f91506003905082612319565b604080515f808252602082018084528a905260ff891692820192909252606081018790526080810186905260019060a0016020604051602081039080840390855afa1580156122e5573d5f5f3e3d5ffd5b5050604051601f1901519150506001600160a01b03811661231057505f925060019150829050612319565b92505f91508190505b9450945094915050565b5f826003811115612336576123366129b8565b0361233f575050565b6001826003811115612353576123536129b8565b036123715760405163f645eedf60e01b815260040160405180910390fd5b6002826003811115612385576123856129b8565b036123a65760405163fce698f760e01b815260048101829052602401610248565b60038260038111156123ba576123ba6129b8565b036121ae576040516335e2f38360e21b815260048101829052602401610248565b60605f6123e783612418565b6040805160208082528183019092529192505f91906020820181803683375050509182525060208101929092525090565b5f60ff8216601f8111156106b357604051632cd44ac360e21b815260040160405180910390fd5b5f6020828403121561244f575f5ffd5b81356001600160e01b031981168114610ddf575f5ffd5b5f81518084528060208401602086015e5f602082860101526020601f19601f83011685010191505092915050565b602081525f610ddf6020830184612466565b6001600160a01b0381168114611d53575f5ffd5b5f5f604083850312156124cb575f5ffd5b82356124d6816124a6565b946020939093013593505050565b5f602082840312156124f4575f5ffd5b8135610ddf816124a6565b5f5f5f60608486031215612511575f5ffd5b833561251c816124a6565b9250602084013561252c816124a6565b929592945050506040919091013590565b5f6020828403121561254d575f5ffd5b5035919050565b5f5f60408385031215612565575f5ffd5b823591506020830135612577816124a6565b809150509250929050565b5f5f5f5f60808587031215612595575f5ffd5b84356125a0816124a6565b966020860135965060408601359560600135945092505050565b5f5f604083850312156125cb575f5ffd5b50508035926020909101359150565b60ff60f81b8816815260e060208201525f6125f860e0830189612466565b828103604084015261260a8189612466565b606084018890526001600160a01b038716608085015260a0840186905283810360c0850152845180825260208087019350909101905f5b8181101561265f578351835260209384019390920191600101612641565b50909b9a5050505050505050505050565b5f60a08284031215612680575f5ffd5b50919050565b5f5f60408385031215612697575f5ffd5b82359150602083013567ffffffffffffffff8111156126b4575f5ffd5b6126c085828601612670565b9150509250929050565b803560ff811681146126da575f5ffd5b919050565b5f5f5f5f5f5f5f60e0888a0312156126f5575f5ffd5b8735612700816124a6565b96506020880135612710816124a6565b9550604088013594506060880135935061272c608089016126ca565b9699959850939692959460a0840135945060c09093013592915050565b5f5f6040838503121561275a575f5ffd5b8235612765816124a6565b91506020830135612577816124a6565b5f5f60408385031215612786575f5ffd5b8235612791816124a6565b9150602083013567ffffffffffffffff8111156126b4575f5ffd5b600181811c908216806127c057607f821691505b60208210810361268057634e487b7160e01b5f52602260045260245ffd5b5f602082840312156127ee575f5ffd5b5051919050565b634e487b7160e01b5f52601160045260245ffd5b80820281158282048414176106b3576106b36127f5565b5f8261283a57634e487b7160e01b5f52601260045260245ffd5b500490565b6001600160a01b039384168152919092166020820152604081019190915260600190565b5f60208284031215612873575f5ffd5b8151610ddf816124a6565b81835281816020850137505f828201602090810191909152601f909101601f19169091010190565b803582525f60ff6128b9602084016126ca565b1660208401526040828101359084015260608083013590840152608082013536839003601e190181126128ea575f5ffd5b820160208101903567ffffffffffffffff811115612906575f5ffd5b803603821315612914575f5ffd5b60a0608086015261292960a08601828461287e565b95945050505050565b8381526001600160a01b03831660208201526060604082018190525f90612929908301846128a6565b818103818111156106b3576106b36127f5565b5f6020828403121561297e575f5ffd5b81518015158114610ddf575f5ffd5b6001600160a01b03831681526040602082018190525f906129b0908301846128a6565b949350505050565b634e487b7160e01b5f52602160045260245ffd","linkReferences":{}},"methodIdentifiers":{"DEFAULT_ADMIN_ROLE()":"a217fddf","DOMAIN_SEPARATOR()":"3644e515","FACTOR_PRECISION()":"a42c69a9","RELAYER_ROLE()":"926d7d7f","allowance(address,address)":"dd62ed3e","approve(address,uint256)":"095ea7b3","balanceOf(address)":"70a08231","bridgeEscrowAddress()":"1a2a4a8e","burn(uint256,(uint256,uint8,uint256,bytes32,bytes))":"babc678f","cuspdToken()":"6bc05b7e","decimals()":"313ce567","eip712Domain()":"84b0196e","getRoleAdmin(bytes32)":"248a9ca3","grantRole(bytes32,address)":"2f2ff15d","hasRole(bytes32,address)":"91d14854","lockForBridging(uint256,uint256)":"7d08a771","mint(address,(uint256,uint8,uint256,bytes32,bytes))":"e7b14eeb","name()":"06fdde03","nonces(address)":"7ecebe00","permit(address,address,uint256,uint256,uint8,bytes32,bytes32)":"d505accf","rateContract()":"eee24219","renounceRole(bytes32,address)":"36568abe","revokeRole(bytes32,address)":"d547741f","setBridgeEscrowAddress(address)":"b6501f05","supportsInterface(bytes4)":"01ffc9a7","symbol()":"95d89b41","totalSupply()":"18160ddd","transfer(address,uint256)":"a9059cbb","transferFrom(address,address,uint256)":"23b872dd","unlockFromBridging(address,uint256,uint256,uint256)":"51cab913","updateCUSPDAddress(address)":"0a9c6819","updateRateContract(address)":"a6f4ae27"},"storageLayout":{"storage":[{"astId":43235,"contract":"src/UspdToken.sol:USPDToken","label":"_balances","offset":0,"slot":"0","type":"t_mapping(t_address,t_uint256)"},{"astId":43241,"contract":"src/UspdToken.sol:USPDToken","label":"_allowances","offset":0,"slot":"1","type":"t_mapping(t_address,t_mapping(t_address,t_uint256))"},{"astId":43243,"contract":"src/UspdToken.sol:USPDToken","label":"_totalSupply","offset":0,"slot":"2","type":"t_uint256"},{"astId":43245,"contract":"src/UspdToken.sol:USPDToken","label":"_name","offset":0,"slot":"3","type":"t_string_storage"},{"astId":43247,"contract":"src/UspdToken.sol:USPDToken","label":"_symbol","offset":0,"slot":"4","type":"t_string_storage"},{"astId":46819,"contract":"src/UspdToken.sol:USPDToken","label":"_nameFallback","offset":0,"slot":"5","type":"t_string_storage"},{"astId":46821,"contract":"src/UspdToken.sol:USPDToken","label":"_versionFallback","offset":0,"slot":"6","type":"t_string_storage"},{"astId":44718,"contract":"src/UspdToken.sol:USPDToken","label":"_nonces","offset":0,"slot":"7","type":"t_mapping(t_address,t_uint256)"},{"astId":41742,"contract":"src/UspdToken.sol:USPDToken","label":"_roles","offset":0,"slot":"8","type":"t_mapping(t_bytes32,t_struct(RoleData)41737_storage)"},{"astId":58629,"contract":"src/UspdToken.sol:USPDToken","label":"cuspdToken","offset":0,"slot":"9","type":"t_contract(IcUSPDToken)61083"},{"astId":58632,"contract":"src/UspdToken.sol:USPDToken","label":"rateContract","offset":0,"slot":"10","type":"t_contract(IPoolSharesConversionRate)60663"},{"astId":58634,"contract":"src/UspdToken.sol:USPDToken","label":"bridgeEscrowAddress","offset":0,"slot":"11","type":"t_address"}],"types":{"t_address":{"encoding":"inplace","label":"address","numberOfBytes":"20"},"t_bool":{"encoding":"inplace","label":"bool","numberOfBytes":"1"},"t_bytes32":{"encoding":"inplace","label":"bytes32","numberOfBytes":"32"},"t_contract(IPoolSharesConversionRate)60663":{"encoding":"inplace","label":"contract IPoolSharesConversionRate","numberOfBytes":"20"},"t_contract(IcUSPDToken)61083":{"encoding":"inplace","label":"contract IcUSPDToken","numberOfBytes":"20"},"t_mapping(t_address,t_bool)":{"encoding":"mapping","key":"t_address","label":"mapping(address => bool)","numberOfBytes":"32","value":"t_bool"},"t_mapping(t_address,t_mapping(t_address,t_uint256))":{"encoding":"mapping","key":"t_address","label":"mapping(address => mapping(address => uint256))","numberOfBytes":"32","value":"t_mapping(t_address,t_uint256)"},"t_mapping(t_address,t_uint256)":{"encoding":"mapping","key":"t_address","label":"mapping(address => uint256)","numberOfBytes":"32","value":"t_uint256"},"t_mapping(t_bytes32,t_struct(RoleData)41737_storage)":{"encoding":"mapping","key":"t_bytes32","label":"mapping(bytes32 => struct AccessControl.RoleData)","numberOfBytes":"32","value":"t_struct(RoleData)41737_storage"},"t_string_storage":{"encoding":"bytes","label":"string","numberOfBytes":"32"},"t_struct(RoleData)41737_storage":{"encoding":"inplace","label":"struct AccessControl.RoleData","numberOfBytes":"64","members":[{"astId":41734,"contract":"src/UspdToken.sol:USPDToken","label":"hasRole","offset":0,"slot":"0","type":"t_mapping(t_address,t_bool)"},{"astId":41736,"contract":"src/UspdToken.sol:USPDToken","label":"adminRole","offset":0,"slot":"1","type":"t_bytes32"}]},"t_uint256":{"encoding":"inplace","label":"uint256","numberOfBytes":"32"}}},"id":80}