{"abi":[{"type":"constructor","inputs":[{"name":"_oracle","type":"address","internalType":"address"},{"name":"_priceProvider","type":"address","internalType":"address"}],"stateMutability":"nonpayable"},{"type":"receive","stateMutability":"payable"},{"type":"function","name":"DEFAULT_ADMIN_ROLE","inputs":[],"outputs":[{"name":"","type":"bytes32","internalType":"bytes32"}],"stateMutability":"view"},{"type":"function","name":"DOMAIN_SEPARATOR","inputs":[],"outputs":[{"name":"","type":"bytes32","internalType":"bytes32"}],"stateMutability":"view"},{"type":"function","name":"ETH_USDT","inputs":[],"outputs":[{"name":"","type":"bytes32","internalType":"bytes32"}],"stateMutability":"view"},{"type":"function","name":"EXCESS_COLLATERAL_DRAIN_ROLE","inputs":[],"outputs":[{"name":"","type":"bytes32","internalType":"bytes32"}],"stateMutability":"view"},{"type":"function","name":"UPDATE_ORACLE_ROLE","inputs":[],"outputs":[{"name":"","type":"bytes32","internalType":"bytes32"}],"stateMutability":"view"},{"type":"function","name":"allowance","inputs":[{"name":"owner","type":"address","internalType":"address"},{"name":"spender","type":"address","internalType":"address"}],"outputs":[{"name":"","type":"uint256","internalType":"uint256"}],"stateMutability":"view"},{"type":"function","name":"approve","inputs":[{"name":"spender","type":"address","internalType":"address"},{"name":"value","type":"uint256","internalType":"uint256"}],"outputs":[{"name":"","type":"bool","internalType":"bool"}],"stateMutability":"nonpayable"},{"type":"function","name":"balanceOf","inputs":[{"name":"account","type":"address","internalType":"address"}],"outputs":[{"name":"","type":"uint256","internalType":"uint256"}],"stateMutability":"view"},{"type":"function","name":"burn","inputs":[{"name":"amount","type":"uint256","internalType":"uint256"},{"name":"to","type":"address","internalType":"address"}],"outputs":[],"stateMutability":"nonpayable"},{"type":"function","name":"decimals","inputs":[],"outputs":[{"name":"","type":"uint8","internalType":"uint8"}],"stateMutability":"view"},{"type":"function","name":"drainOvercollateralizedFunds","inputs":[{"name":"to","type":"address","internalType":"address payable"}],"outputs":[],"stateMutability":"payable"},{"type":"function","name":"eip712Domain","inputs":[],"outputs":[{"name":"fields","type":"bytes1","internalType":"bytes1"},{"name":"name","type":"string","internalType":"string"},{"name":"version","type":"string","internalType":"string"},{"name":"chainId","type":"uint256","internalType":"uint256"},{"name":"verifyingContract","type":"address","internalType":"address"},{"name":"salt","type":"bytes32","internalType":"bytes32"},{"name":"extensions","type":"uint256[]","internalType":"uint256[]"}],"stateMutability":"view"},{"type":"function","name":"getCollateralization","inputs":[],"outputs":[{"name":"","type":"uint256","internalType":"uint256"}],"stateMutability":"payable"},{"type":"function","name":"getRoleAdmin","inputs":[{"name":"role","type":"bytes32","internalType":"bytes32"}],"outputs":[{"name":"","type":"bytes32","internalType":"bytes32"}],"stateMutability":"view"},{"type":"function","name":"grantRole","inputs":[{"name":"role","type":"bytes32","internalType":"bytes32"},{"name":"account","type":"address","internalType":"address"}],"outputs":[],"stateMutability":"nonpayable"},{"type":"function","name":"hasRole","inputs":[{"name":"role","type":"bytes32","internalType":"bytes32"},{"name":"account","type":"address","internalType":"address"}],"outputs":[{"name":"","type":"bool","internalType":"bool"}],"stateMutability":"view"},{"type":"function","name":"mint","inputs":[{"name":"to","type":"address","internalType":"address"}],"outputs":[],"stateMutability":"payable"},{"type":"function","name":"name","inputs":[],"outputs":[{"name":"","type":"string","internalType":"string"}],"stateMutability":"view"},{"type":"function","name":"nonces","inputs":[{"name":"owner","type":"address","internalType":"address"}],"outputs":[{"name":"","type":"uint256","internalType":"uint256"}],"stateMutability":"view"},{"type":"function","name":"permit","inputs":[{"name":"owner","type":"address","internalType":"address"},{"name":"spender","type":"address","internalType":"address"},{"name":"value","type":"uint256","internalType":"uint256"},{"name":"deadline","type":"uint256","internalType":"uint256"},{"name":"v","type":"uint8","internalType":"uint8"},{"name":"r","type":"bytes32","internalType":"bytes32"},{"name":"s","type":"bytes32","internalType":"bytes32"}],"outputs":[],"stateMutability":"nonpayable"},{"type":"function","name":"priceProvider","inputs":[],"outputs":[{"name":"","type":"address","internalType":"address"}],"stateMutability":"view"},{"type":"function","name":"renounceRole","inputs":[{"name":"role","type":"bytes32","internalType":"bytes32"},{"name":"callerConfirmation","type":"address","internalType":"address"}],"outputs":[],"stateMutability":"nonpayable"},{"type":"function","name":"requirements","inputs":[{"name":"_selector","type":"bytes4","internalType":"bytes4"}],"outputs":[{"name":"","type":"tuple[]","internalType":"struct DataDependent.DataRequirement[]","components":[{"name":"provider","type":"address","internalType":"address"},{"name":"requester","type":"address","internalType":"address"},{"name":"dataKey","type":"bytes32","internalType":"bytes32"}]}],"stateMutability":"view"},{"type":"function","name":"revokeRole","inputs":[{"name":"role","type":"bytes32","internalType":"bytes32"},{"name":"account","type":"address","internalType":"address"}],"outputs":[],"stateMutability":"nonpayable"},{"type":"function","name":"supportsInterface","inputs":[{"name":"interfaceId","type":"bytes4","internalType":"bytes4"}],"outputs":[{"name":"","type":"bool","internalType":"bool"}],"stateMutability":"view"},{"type":"function","name":"symbol","inputs":[],"outputs":[{"name":"","type":"string","internalType":"string"}],"stateMutability":"view"},{"type":"function","name":"totalSupply","inputs":[],"outputs":[{"name":"","type":"uint256","internalType":"uint256"}],"stateMutability":"view"},{"type":"function","name":"transfer","inputs":[{"name":"to","type":"address","internalType":"address"},{"name":"value","type":"uint256","internalType":"uint256"}],"outputs":[{"name":"","type":"bool","internalType":"bool"}],"stateMutability":"nonpayable"},{"type":"function","name":"transferFrom","inputs":[{"name":"from","type":"address","internalType":"address"},{"name":"to","type":"address","internalType":"address"},{"name":"value","type":"uint256","internalType":"uint256"}],"outputs":[{"name":"","type":"bool","internalType":"bool"}],"stateMutability":"nonpayable"},{"type":"function","name":"updateOracle","inputs":[{"name":"newOracle","type":"address","internalType":"address"}],"outputs":[],"stateMutability":"nonpayable"},{"type":"event","name":"Approval","inputs":[{"name":"owner","type":"address","indexed":true,"internalType":"address"},{"name":"spender","type":"address","indexed":true,"internalType":"address"},{"name":"value","type":"uint256","indexed":false,"internalType":"uint256"}],"anonymous":false},{"type":"event","name":"EIP712DomainChanged","inputs":[],"anonymous":false},{"type":"event","name":"ExcessCollateralPayout","inputs":[{"name":"to","type":"address","indexed":false,"internalType":"address"},{"name":"ethAmount","type":"uint256","indexed":false,"internalType":"uint256"}],"anonymous":false},{"type":"event","name":"Payout","inputs":[{"name":"to","type":"address","indexed":false,"internalType":"address"},{"name":"psdAmount","type":"uint256","indexed":false,"internalType":"uint256"},{"name":"ethAmount","type":"uint256","indexed":false,"internalType":"uint256"},{"name":"askPrice","type":"uint256","indexed":false,"internalType":"uint256"}],"anonymous":false},{"type":"event","name":"PriceOracleUpdated","inputs":[{"name":"oldOracle","type":"address","indexed":false,"internalType":"address"},{"name":"newOracle","type":"address","indexed":false,"internalType":"address"}],"anonymous":false},{"type":"event","name":"RoleAdminChanged","inputs":[{"name":"role","type":"bytes32","indexed":true,"internalType":"bytes32"},{"name":"previousAdminRole","type":"bytes32","indexed":true,"internalType":"bytes32"},{"name":"newAdminRole","type":"bytes32","indexed":true,"internalType":"bytes32"}],"anonymous":false},{"type":"event","name":"RoleGranted","inputs":[{"name":"role","type":"bytes32","indexed":true,"internalType":"bytes32"},{"name":"account","type":"address","indexed":true,"internalType":"address"},{"name":"sender","type":"address","indexed":true,"internalType":"address"}],"anonymous":false},{"type":"event","name":"RoleRevoked","inputs":[{"name":"role","type":"bytes32","indexed":true,"internalType":"bytes32"},{"name":"account","type":"address","indexed":true,"internalType":"address"},{"name":"sender","type":"address","indexed":true,"internalType":"address"}],"anonymous":false},{"type":"event","name":"Transfer","inputs":[{"name":"from","type":"address","indexed":true,"internalType":"address"},{"name":"to","type":"address","indexed":true,"internalType":"address"},{"name":"value","type":"uint256","indexed":false,"internalType":"uint256"}],"anonymous":false},{"type":"error","name":"AccessControlBadConfirmation","inputs":[]},{"type":"error","name":"AccessControlUnauthorizedAccount","inputs":[{"name":"account","type":"address","internalType":"address"},{"name":"neededRole","type":"bytes32","internalType":"bytes32"}]},{"type":"error","name":"ECDSAInvalidSignature","inputs":[]},{"type":"error","name":"ECDSAInvalidSignatureLength","inputs":[{"name":"length","type":"uint256","internalType":"uint256"}]},{"type":"error","name":"ECDSAInvalidSignatureS","inputs":[{"name":"s","type":"bytes32","internalType":"bytes32"}]},{"type":"error","name":"ERC20InsufficientAllowance","inputs":[{"name":"spender","type":"address","internalType":"address"},{"name":"allowance","type":"uint256","internalType":"uint256"},{"name":"needed","type":"uint256","internalType":"uint256"}]},{"type":"error","name":"ERC20InsufficientBalance","inputs":[{"name":"sender","type":"address","internalType":"address"},{"name":"balance","type":"uint256","internalType":"uint256"},{"name":"needed","type":"uint256","internalType":"uint256"}]},{"type":"error","name":"ERC20InvalidApprover","inputs":[{"name":"approver","type":"address","internalType":"address"}]},{"type":"error","name":"ERC20InvalidReceiver","inputs":[{"name":"receiver","type":"address","internalType":"address"}]},{"type":"error","name":"ERC20InvalidSender","inputs":[{"name":"sender","type":"address","internalType":"address"}]},{"type":"error","name":"ERC20InvalidSpender","inputs":[{"name":"spender","type":"address","internalType":"address"}]},{"type":"error","name":"ERC2612ExpiredSignature","inputs":[{"name":"deadline","type":"uint256","internalType":"uint256"}]},{"type":"error","name":"ERC2612InvalidSigner","inputs":[{"name":"signer","type":"address","internalType":"address"},{"name":"owner","type":"address","internalType":"address"}]},{"type":"error","name":"InvalidAccountNonce","inputs":[{"name":"account","type":"address","internalType":"address"},{"name":"currentNonce","type":"uint256","internalType":"uint256"}]},{"type":"error","name":"InvalidShortString","inputs":[]},{"type":"error","name":"StringTooLong","inputs":[{"name":"str","type":"string","internalType":"string"}]}],"bytecode":{"object":"0x610160604052611388600b553480156200001857600080fd5b50604051620025db380380620025db8339810160408190526200003b9162000389565b604051806040016040528060088152602001675553504444454d4f60c01b81525080604051806040016040528060018152602001603160f81b81525060405180604001604052806009815260200168555350442044656d6f60b81b815250604051806040016040528060088152602001675553504444454d4f60c01b8152508160039081620000cb919062000466565b506004620000da828262000466565b50620000ec9150839050600562000235565b61012052620000fd81600662000235565b61014052815160208084019190912060e052815190820120610100524660a0526200018b60e05161010051604080517f8b73c3c69bb8fe3d512ecc4cf759cc79239f7b179b0ffacaa9a75d522b39400f60208201529081019290925260608201524660808201523060a082015260009060c00160405160208183030381529060405280519060200120905090565b60805250503060c05250600980546001600160a01b038481166001600160a01b031992831617909255600a805492841692909116919091179055620001d26000336200026e565b50620001ff7f07dadfef42b760da37c1787f23390032c991ba73626ca6711e8fbb581ca48ec5336200026e565b506200022c7f90e45b937a8206cd9165edccea3d6e7eee3817439762d76dd6f0730bb9e8f671336200026e565b505050620005a7565b600060208351101562000255576200024d8362000320565b905062000268565b8162000262848262000466565b5060ff90505b92915050565b60008281526008602090815260408083206001600160a01b038516845290915281205460ff16620003175760008381526008602090815260408083206001600160a01b03861684529091529020805460ff19166001179055620002ce3390565b6001600160a01b0316826001600160a01b0316847f2f8788117e7eff1d82e926ec794901d17c78024a50270940304540a733656f0d60405160405180910390a450600162000268565b50600062000268565b600080829050601f8151111562000357578260405163305a27a960e01b81526004016200034e919062000532565b60405180910390fd5b8051620003648262000582565b179392505050565b80516001600160a01b03811681146200038457600080fd5b919050565b600080604083850312156200039d57600080fd5b620003a8836200036c565b9150620003b8602084016200036c565b90509250929050565b634e487b7160e01b600052604160045260246000fd5b600181811c90821680620003ec57607f821691505b6020821081036200040d57634e487b7160e01b600052602260045260246000fd5b50919050565b601f8211156200046157600081815260208120601f850160051c810160208610156200043c5750805b601f850160051c820191505b818110156200045d5782815560010162000448565b5050505b505050565b81516001600160401b03811115620004825762000482620003c1565b6200049a81620004938454620003d7565b8462000413565b602080601f831160018114620004d25760008415620004b95750858301515b600019600386901b1c1916600185901b1785556200045d565b600085815260208120601f198616915b828110156200050357888601518255948401946001909101908401620004e2565b5085821015620005225787850151600019600388901b60f8161c191681555b5050505050600190811b01905550565b600060208083528351808285015260005b81811015620005615785810183015185820160400152820162000543565b506000604082860101526040601f19601f8301168501019250505092915050565b805160208083015191908110156200040d5760001960209190910360031b1b16919050565b60805160a05160c05160e051610100516101205161014051611fd962000602600039600061157e015260006115510152600061148c01526000611464015260006113bf015260006113e9015260006114130152611fd96000f3fe6080604052600436106101d15760003560e01c806384b0196e116100f7578063b259d96411610095578063d505accf11610064578063d505accf14610562578063d547741f14610582578063dd62ed3e146105a2578063fcd3533c146105e857600080fd5b8063b259d964146104cc578063b6e33f3b146104ee578063b888879e14610522578063ce394e6e1461055a57600080fd5b806395d89b41116100d157806395d89b4114610455578063a217fddf1461046a578063a9059cbb1461047f578063ade79fd31461049f57600080fd5b806384b0196e146103fa57806385e73b5d1461042257806391d148541461043557600080fd5b80632f2ff15d1161016f57806361aa346e1161013e57806361aa346e1461035d5780636a6278421461039157806370a08231146103a45780637ecebe00146103da57600080fd5b80632f2ff15d146102ec578063313ce5671461030c5780633644e5151461032857806336568abe1461033d57600080fd5b806318160ddd116101ab57806318160ddd1461025d5780631cb44dfc1461027c57806323b872dd1461029c578063248a9ca3146102bc57600080fd5b806301ffc9a7146101e657806306fdde031461021b578063095ea7b31461023d57600080fd5b366101e1576101df33610608565b005b600080fd5b3480156101f257600080fd5b50610206610201366004611b03565b610776565b60405190151581526020015b60405180910390f35b34801561022757600080fd5b506102306107ad565b6040516102129190611b7a565b34801561024957600080fd5b50610206610258366004611ba2565b61083f565b34801561026957600080fd5b506002545b604051908152602001610212565b34801561028857600080fd5b506101df610297366004611bce565b610857565b3480156102a857600080fd5b506102066102b7366004611beb565b6108eb565b3480156102c857600080fd5b5061026e6102d7366004611c2c565b60009081526008602052604090206001015490565b3480156102f857600080fd5b506101df610307366004611c45565b61090f565b34801561031857600080fd5b5060405160128152602001610212565b34801561033457600080fd5b5061026e61093a565b34801561034957600080fd5b506101df610358366004611c45565b610949565b34801561036957600080fd5b5061026e7f90e45b937a8206cd9165edccea3d6e7eee3817439762d76dd6f0730bb9e8f67181565b6101df61039f366004611bce565b610608565b3480156103b057600080fd5b5061026e6103bf366004611bce565b6001600160a01b031660009081526020819052604090205490565b3480156103e657600080fd5b5061026e6103f5366004611bce565b610981565b34801561040657600080fd5b5061040f61099f565b6040516102129796959493929190611c75565b6101df610430366004611bce565b6109e5565b34801561044157600080fd5b50610206610450366004611c45565b610b1c565b34801561046157600080fd5b50610230610b47565b34801561047657600080fd5b5061026e600081565b34801561048b57600080fd5b5061020661049a366004611ba2565b610b56565b3480156104ab57600080fd5b506104bf6104ba366004611b03565b610b64565b6040516102129190611d0b565b3480156104d857600080fd5b5061026e600080516020611f8483398151915281565b3480156104fa57600080fd5b5061026e7f07dadfef42b760da37c1787f23390032c991ba73626ca6711e8fbb581ca48ec581565b34801561052e57600080fd5b50600a54610542906001600160a01b031681565b6040516001600160a01b039091168152602001610212565b61026e610cb9565b34801561056e57600080fd5b506101df61057d366004611d70565b610d41565b34801561058e57600080fd5b506101df61059d366004611c45565b610e7b565b3480156105ae57600080fd5b5061026e6105bd366004611de7565b6001600160a01b03918216600090815260016020908152604080832093909416825291909152205490565b3480156105f457600080fd5b506101df610603366004611c45565b610ea0565b6000610621600080516020611f84833981519152610fa8565b805160208201519192509034116106535760405162461bcd60e51b815260040161064a90611e15565b60405180910390fd5b60008260200151346106659190611e73565b90506000670de0b6b3a764000061067c8484611e86565b6106869190611e9d565b905060008361069d83670de0b6b3a7640000611e86565b6106a79190611e9d565b6106b19084611e73565b9050600b54670de0b6b3a76400006106c99190611e86565b826106d360025490565b6106dd9190611ebf565b106107365760405162461bcd60e51b8152602060048201526024808201527f4d696e74696e67204572726f723a204d6178696d756d204c696d69742052656160448201526318da195960e21b606482015260840161064a565b61074086836111f3565b604051339082156108fc029083906000818181858888f1935050505015801561076d573d6000803e3d6000fd5b50505050505050565b60006001600160e01b03198216637965db0b60e01b14806107a757506301ffc9a760e01b6001600160e01b03198316145b92915050565b6060600380546107bc90611ed2565b80601f01602080910402602001604051908101604052809291908181526020018280546107e890611ed2565b80156108355780601f1061080a57610100808354040283529160200191610835565b820191906000526020600020905b81548152906001019060200180831161081857829003601f168201915b5050505050905090565b60003361084d81858561122d565b5060019392505050565b7f90e45b937a8206cd9165edccea3d6e7eee3817439762d76dd6f0730bb9e8f6716108818161123a565b600954604080516001600160a01b03928316815291841660208301527f56b5f80d8cac1479698aa7d01605fd6111e90b15fc4d2b377417f46034876cbd910160405180910390a150600980546001600160a01b0319166001600160a01b0392909216919091179055565b6000336108f9858285611247565b6109048585856112bf565b506001949350505050565b60008281526008602052604090206001015461092a8161123a565b610934838361131e565b50505050565b60006109446113b2565b905090565b6001600160a01b03811633146109725760405163334bd91960e11b815260040160405180910390fd5b61097c82826114dd565b505050565b6001600160a01b0381166000908152600760205260408120546107a7565b6000606080600080600060606109b361154a565b6109bb611577565b60408051600080825260208201909252600f60f81b9b939a50919850469750309650945092509050565b7f07dadfef42b760da37c1787f23390032c991ba73626ca6711e8fbb581ca48ec5610a0f8161123a565b6000610a28600080516020611f84833981519152610fa8565b8051602082015191925090341015610a525760405162461bcd60e51b815260040161064a90611e15565b600081610a5e60025490565b610a7090670de0b6b3a7640000611e86565b610a7a9190611e9d565b610a849047611e73565b90506001600160a01b0385166108fc6064610aa084605f611e86565b610aaa9190611e9d565b6040518115909202916000818181858888f19350505050158015610ad2573d6000803e3d6000fd5b50604080516001600160a01b0387168152602081018390527fc0d37c7700db7ed0fd47e132c15accdb2d8f64f0b60fa478939c0aef5192cbf0910160405180910390a15050505050565b60009182526008602090815260408084206001600160a01b0393909316845291905290205460ff1690565b6060600480546107bc90611ed2565b60003361084d8185856112bf565b60606335313c2160e11b6001600160e01b031983161480610b955750633f34d4cf60e21b6001600160e01b03198316145b80610bb0575063671ca73760e11b6001600160e01b03198316145b80610bcb57506385e73b5d60e01b6001600160e01b03198316145b15610c6f57604080516001808252818301909252600091816020015b6040805160608101825260008082526020808301829052928201528252600019909201910181610be757505060408051606081018252600a546001600160a01b03168152306020820152600080516020611f84833981519152918101919091528151919250908290600090610c5e57610c5e611f0c565b602090810291909101015292915050565b6040805160008082526020820190925290610cb2565b6040805160608101825260008082526020808301829052928201528252600019909201910181610c855790505b5092915050565b600080610cd3600080516020611f84833981519152610fa8565b8051602082015191925090341015610cfd5760405162461bcd60e51b815260040161064a90611e15565b80610d0760025490565b610d1990670de0b6b3a7640000611e86565b610d239190611e9d565b610d2d9047611e9d565b610d3a90620f4240611e86565b9250505090565b83421115610d655760405163313c898160e11b81526004810185905260240161064a565b60007f6e71edae12b1b97f4d1f60370fef10105fa2faae0126114a169c64845d6126c9888888610db28c6001600160a01b0316600090815260076020526040902080546001810190915590565b6040805160208101969096526001600160a01b0394851690860152929091166060840152608083015260a082015260c0810186905260e0016040516020818303038152906040528051906020012090506000610e0d826115a4565b90506000610e1d828787876115d1565b9050896001600160a01b0316816001600160a01b031614610e64576040516325c0072360e11b81526001600160a01b0380831660048301528b16602482015260440161064a565b610e6f8a8a8a61122d565b50505050505050505050565b600082815260086020526040902060010154610e968161123a565b61093483836114dd565b610eaa33836115ff565b6000610ec3600080516020611f84833981519152610fa8565b8051909150600081610edd86670de0b6b3a7640000611e86565b610ee79190611e9d565b905082602001518111610f0c5760405162461bcd60e51b815260040161064a90611e15565b6000836020015182610f1e9190611e73565b604080516001600160a01b038816815260208101899052908101829052606081018590529091507f6a8d62de1ac9f1415dd17b430b809682ff1794d5b31015f9acf43fcdf17a68859060800160405180910390a16040516001600160a01b0386169082156108fc029083906000818181858888f1935050505015801561076d573d6000803e3d6000fd5b6040805180820190915260008082526020820152600954600a54604051633afe9bd360e11b81526001600160a01b0391821660048201526024810185905260009291909116906375fd37a690604401602060405180830381865afa158015611014573d6000803e3d6000fd5b505050506040513d601f19601f820116820180604052508101906110389190611f22565b600954600a546040516331fbc06960e21b81526001600160a01b0391821660048201526024810187905292935060009291169063c7ef01a490849060440160206040518083038185885af1158015611094573d6000803e3d6000fd5b50505050506040513d601f19601f820116820180604052508101906110b99190611f22565b90508060d081901c6110cd61012c42611e73565b6110d9906103e8611e86565b81116111175760405162461bcd60e51b815260206004820152600d60248201526c4461746120746f6f206f6c642160981b604482015260640161064a565b600061112582610100611e86565b6111339060c885901c611e73565b90508060ff166012146111945760405162461bcd60e51b8152602060048201526024808201527f4f7261636c6520726573706f6e736520776974682077726f6e6720646563696d604482015263616c732160e01b606482015260840161064a565b60006111a760ff8316600160c81b611f3b565b6001600160d01b03166111be84600160d01b611e86565b6111c89086611e73565b6111d29190611e73565b60408051808201909152908152602081019690965250939695505050505050565b6001600160a01b03821661121d5760405163ec442f0560e01b81526000600482015260240161064a565b61122960008383611631565b5050565b61097c838383600161175b565b6112448133611830565b50565b6001600160a01b03838116600090815260016020908152604080832093861683529290522054600019811461093457818110156112b057604051637dc7a0d960e11b81526001600160a01b0384166004820152602481018290526044810183905260640161064a565b6109348484848403600061175b565b6001600160a01b0383166112e957604051634b637e8f60e11b81526000600482015260240161064a565b6001600160a01b0382166113135760405163ec442f0560e01b81526000600482015260240161064a565b61097c838383611631565b600061132a8383610b1c565b6113aa5760008381526008602090815260408083206001600160a01b03861684529091529020805460ff191660011790556113623390565b6001600160a01b0316826001600160a01b0316847f2f8788117e7eff1d82e926ec794901d17c78024a50270940304540a733656f0d60405160405180910390a45060016107a7565b5060006107a7565b6000306001600160a01b037f00000000000000000000000000000000000000000000000000000000000000001614801561140b57507f000000000000000000000000000000000000000000000000000000000000000046145b1561143557507f000000000000000000000000000000000000000000000000000000000000000090565b610944604080517f8b73c3c69bb8fe3d512ecc4cf759cc79239f7b179b0ffacaa9a75d522b39400f60208201527f0000000000000000000000000000000000000000000000000000000000000000918101919091527f000000000000000000000000000000000000000000000000000000000000000060608201524660808201523060a082015260009060c00160405160208183030381529060405280519060200120905090565b60006114e98383610b1c565b156113aa5760008381526008602090815260408083206001600160a01b0386168085529252808320805460ff1916905551339286917ff6391f5c32d9c69d2a47ea670b442974b53935d1edc7fd64eb21e047a839171b9190a45060016107a7565b60606109447f00000000000000000000000000000000000000000000000000000000000000006005611869565b60606109447f00000000000000000000000000000000000000000000000000000000000000006006611869565b60006107a76115b16113b2565b8360405161190160f01b8152600281019290925260228201526042902090565b6000806000806115e388888888611914565b9250925092506115f382826119e3565b50909695505050505050565b6001600160a01b03821661162957604051634b637e8f60e11b81526000600482015260240161064a565b611229826000835b6001600160a01b03831661165c5780600260008282546116519190611ebf565b909155506116ce9050565b6001600160a01b038316600090815260208190526040902054818110156116af5760405163391434e360e21b81526001600160a01b0385166004820152602481018290526044810183905260640161064a565b6001600160a01b03841660009081526020819052604090209082900390555b6001600160a01b0382166116ea57600280548290039055611709565b6001600160a01b03821660009081526020819052604090208054820190555b816001600160a01b0316836001600160a01b03167fddf252ad1be2c89b69c2b068fc378daa952ba7f163c4a11628f55a4df523b3ef8360405161174e91815260200190565b60405180910390a3505050565b6001600160a01b0384166117855760405163e602df0560e01b81526000600482015260240161064a565b6001600160a01b0383166117af57604051634a1406b160e11b81526000600482015260240161064a565b6001600160a01b038085166000908152600160209081526040808320938716835292905220829055801561093457826001600160a01b0316846001600160a01b03167f8c5be1e5ebec7d5bd14f71427d1e84f3dd0314c0f7b2291e5b200ac8c7c3b9258460405161182291815260200190565b60405180910390a350505050565b61183a8282610b1c565b6112295760405163e2517d3f60e01b81526001600160a01b03821660048201526024810183905260440161064a565b606060ff83146118835761187c83611a9c565b90506107a7565b81805461188f90611ed2565b80601f01602080910402602001604051908101604052809291908181526020018280546118bb90611ed2565b80156119085780601f106118dd57610100808354040283529160200191611908565b820191906000526020600020905b8154815290600101906020018083116118eb57829003601f168201915b505050505090506107a7565b600080807f7fffffffffffffffffffffffffffffff5d576e7357a4501ddfe92f46681b20a084111561194f57506000915060039050826119d9565b604080516000808252602082018084528a905260ff891692820192909252606081018790526080810186905260019060a0016020604051602081039080840390855afa1580156119a3573d6000803e3d6000fd5b5050604051601f1901519150506001600160a01b0381166119cf575060009250600191508290506119d9565b9250600091508190505b9450945094915050565b60008260038111156119f7576119f7611f6d565b03611a00575050565b6001826003811115611a1457611a14611f6d565b03611a325760405163f645eedf60e01b815260040160405180910390fd5b6002826003811115611a4657611a46611f6d565b03611a675760405163fce698f760e01b81526004810182905260240161064a565b6003826003811115611a7b57611a7b611f6d565b03611229576040516335e2f38360e21b81526004810182905260240161064a565b60606000611aa983611adb565b604080516020808252818301909252919250600091906020820181803683375050509182525060208101929092525090565b600060ff8216601f8111156107a757604051632cd44ac360e21b815260040160405180910390fd5b600060208284031215611b1557600080fd5b81356001600160e01b031981168114611b2d57600080fd5b9392505050565b6000815180845260005b81811015611b5a57602081850181015186830182015201611b3e565b506000602082860101526020601f19601f83011685010191505092915050565b602081526000611b2d6020830184611b34565b6001600160a01b038116811461124457600080fd5b60008060408385031215611bb557600080fd5b8235611bc081611b8d565b946020939093013593505050565b600060208284031215611be057600080fd5b8135611b2d81611b8d565b600080600060608486031215611c0057600080fd5b8335611c0b81611b8d565b92506020840135611c1b81611b8d565b929592945050506040919091013590565b600060208284031215611c3e57600080fd5b5035919050565b60008060408385031215611c5857600080fd5b823591506020830135611c6a81611b8d565b809150509250929050565b60ff60f81b881681526000602060e081840152611c9560e084018a611b34565b8381036040850152611ca7818a611b34565b606085018990526001600160a01b038816608086015260a0850187905284810360c0860152855180825283870192509083019060005b81811015611cf957835183529284019291840191600101611cdd565b50909c9b505050505050505050505050565b602080825282518282018190526000919060409081850190868401855b82811015611d6357815180516001600160a01b0390811686528782015116878601528501518585015260609093019290850190600101611d28565b5091979650505050505050565b600080600080600080600060e0888a031215611d8b57600080fd5b8735611d9681611b8d565b96506020880135611da681611b8d565b95506040880135945060608801359350608088013560ff81168114611dca57600080fd5b9699959850939692959460a0840135945060c09093013592915050565b60008060408385031215611dfa57600080fd5b8235611e0581611b8d565b91506020830135611c6a81611b8d565b60208082526028908201527f4e6f7420656e6f7567682076616c756520746f2070617920666f72206f7261636040820152676c6520646174612160c01b606082015260800190565b634e487b7160e01b600052601160045260246000fd5b818103818111156107a7576107a7611e5d565b80820281158282048414176107a7576107a7611e5d565b600082611eba57634e487b7160e01b600052601260045260246000fd5b500490565b808201808211156107a7576107a7611e5d565b600181811c90821680611ee657607f821691505b602082108103611f0657634e487b7160e01b600052602260045260246000fd5b50919050565b634e487b7160e01b600052603260045260246000fd5b600060208284031215611f3457600080fd5b5051919050565b6001600160d01b03828116828216818102831692918115828504821417611f6457611f64611e5d565b50505092915050565b634e487b7160e01b600052602160045260246000fdfe2254c990a58518d65b479977dcbc58aec0e1db5df9476fc0245d21ad94ec7bb7a2646970667358221220d6d522f672e69c80f32c5a60e8ee2918a36931fb9fa91911753930ef6357bd5464736f6c63430008140033","linkReferences":{}},"methodIdentifiers":{"DEFAULT_ADMIN_ROLE()":"a217fddf","DOMAIN_SEPARATOR()":"3644e515","ETH_USDT()":"b259d964","EXCESS_COLLATERAL_DRAIN_ROLE()":"b6e33f3b","UPDATE_ORACLE_ROLE()":"61aa346e","allowance(address,address)":"dd62ed3e","approve(address,uint256)":"095ea7b3","balanceOf(address)":"70a08231","burn(uint256,address)":"fcd3533c","decimals()":"313ce567","drainOvercollateralizedFunds(address)":"85e73b5d","eip712Domain()":"84b0196e","getCollateralization()":"ce394e6e","getRoleAdmin(bytes32)":"248a9ca3","grantRole(bytes32,address)":"2f2ff15d","hasRole(bytes32,address)":"91d14854","mint(address)":"6a627842","name()":"06fdde03","nonces(address)":"7ecebe00","permit(address,address,uint256,uint256,uint8,bytes32,bytes32)":"d505accf","priceProvider()":"b888879e","renounceRole(bytes32,address)":"36568abe","requirements(bytes4)":"ade79fd3","revokeRole(bytes32,address)":"d547741f","supportsInterface(bytes4)":"01ffc9a7","symbol()":"95d89b41","totalSupply()":"18160ddd","transfer(address,uint256)":"a9059cbb","transferFrom(address,address,uint256)":"23b872dd","updateOracle(address)":"1cb44dfc"},"id":23}