{"abi":[{"type":"constructor","inputs":[{"name":"name","type":"string","internalType":"string"},{"name":"symbol","type":"string","internalType":"string"},{"name":"_cuspdTokenAddress","type":"address","internalType":"address"},{"name":"_rateContractAddress","type":"address","internalType":"address"},{"name":"_admin","type":"address","internalType":"address"}],"stateMutability":"nonpayable"},{"type":"receive","stateMutability":"payable"},{"type":"function","name":"DEFAULT_ADMIN_ROLE","inputs":[],"outputs":[{"name":"","type":"bytes32","internalType":"bytes32"}],"stateMutability":"view"},{"type":"function","name":"DOMAIN_SEPARATOR","inputs":[],"outputs":[{"name":"","type":"bytes32","internalType":"bytes32"}],"stateMutability":"view"},{"type":"function","name":"FACTOR_PRECISION","inputs":[],"outputs":[{"name":"","type":"uint256","internalType":"uint256"}],"stateMutability":"view"},{"type":"function","name":"RELAYER_ROLE","inputs":[],"outputs":[{"name":"","type":"bytes32","internalType":"bytes32"}],"stateMutability":"view"},{"type":"function","name":"allowance","inputs":[{"name":"owner","type":"address","internalType":"address"},{"name":"spender","type":"address","internalType":"address"}],"outputs":[{"name":"","type":"uint256","internalType":"uint256"}],"stateMutability":"view"},{"type":"function","name":"approve","inputs":[{"name":"spender","type":"address","internalType":"address"},{"name":"value","type":"uint256","internalType":"uint256"}],"outputs":[{"name":"","type":"bool","internalType":"bool"}],"stateMutability":"nonpayable"},{"type":"function","name":"balanceOf","inputs":[{"name":"account","type":"address","internalType":"address"}],"outputs":[{"name":"","type":"uint256","internalType":"uint256"}],"stateMutability":"view"},{"type":"function","name":"bridgeEscrowAddress","inputs":[],"outputs":[{"name":"","type":"address","internalType":"address"}],"stateMutability":"view"},{"type":"function","name":"cuspdToken","inputs":[],"outputs":[{"name":"","type":"address","internalType":"contract IcUSPDToken"}],"stateMutability":"view"},{"type":"function","name":"decimals","inputs":[],"outputs":[{"name":"","type":"uint8","internalType":"uint8"}],"stateMutability":"view"},{"type":"function","name":"eip712Domain","inputs":[],"outputs":[{"name":"fields","type":"bytes1","internalType":"bytes1"},{"name":"name","type":"string","internalType":"string"},{"name":"version","type":"string","internalType":"string"},{"name":"chainId","type":"uint256","internalType":"uint256"},{"name":"verifyingContract","type":"address","internalType":"address"},{"name":"salt","type":"bytes32","internalType":"bytes32"},{"name":"extensions","type":"uint256[]","internalType":"uint256[]"}],"stateMutability":"view"},{"type":"function","name":"getRoleAdmin","inputs":[{"name":"role","type":"bytes32","internalType":"bytes32"}],"outputs":[{"name":"","type":"bytes32","internalType":"bytes32"}],"stateMutability":"view"},{"type":"function","name":"grantRole","inputs":[{"name":"role","type":"bytes32","internalType":"bytes32"},{"name":"account","type":"address","internalType":"address"}],"outputs":[],"stateMutability":"nonpayable"},{"type":"function","name":"hasRole","inputs":[{"name":"role","type":"bytes32","internalType":"bytes32"},{"name":"account","type":"address","internalType":"address"}],"outputs":[{"name":"","type":"bool","internalType":"bool"}],"stateMutability":"view"},{"type":"function","name":"lockForBridging","inputs":[{"name":"uspdAmountToBridge","type":"uint256","internalType":"uint256"},{"name":"targetChainId","type":"uint256","internalType":"uint256"}],"outputs":[],"stateMutability":"nonpayable"},{"type":"function","name":"mint","inputs":[{"name":"to","type":"address","internalType":"address"},{"name":"priceQuery","type":"tuple","internalType":"struct IPriceOracle.PriceAttestationQuery","components":[{"name":"price","type":"uint256","internalType":"uint256"},{"name":"decimals","type":"uint8","internalType":"uint8"},{"name":"dataTimestamp","type":"uint256","internalType":"uint256"},{"name":"assetPair","type":"bytes32","internalType":"bytes32"},{"name":"signature","type":"bytes","internalType":"bytes"}]}],"outputs":[],"stateMutability":"payable"},{"type":"function","name":"name","inputs":[],"outputs":[{"name":"","type":"string","internalType":"string"}],"stateMutability":"view"},{"type":"function","name":"nonces","inputs":[{"name":"owner","type":"address","internalType":"address"}],"outputs":[{"name":"","type":"uint256","internalType":"uint256"}],"stateMutability":"view"},{"type":"function","name":"permit","inputs":[{"name":"owner","type":"address","internalType":"address"},{"name":"spender","type":"address","internalType":"address"},{"name":"value","type":"uint256","internalType":"uint256"},{"name":"deadline","type":"uint256","internalType":"uint256"},{"name":"v","type":"uint8","internalType":"uint8"},{"name":"r","type":"bytes32","internalType":"bytes32"},{"name":"s","type":"bytes32","internalType":"bytes32"}],"outputs":[],"stateMutability":"nonpayable"},{"type":"function","name":"rateContract","inputs":[],"outputs":[{"name":"","type":"address","internalType":"contract IPoolSharesConversionRate"}],"stateMutability":"view"},{"type":"function","name":"renounceRole","inputs":[{"name":"role","type":"bytes32","internalType":"bytes32"},{"name":"callerConfirmation","type":"address","internalType":"address"}],"outputs":[],"stateMutability":"nonpayable"},{"type":"function","name":"revokeRole","inputs":[{"name":"role","type":"bytes32","internalType":"bytes32"},{"name":"account","type":"address","internalType":"address"}],"outputs":[],"stateMutability":"nonpayable"},{"type":"function","name":"setBridgeEscrowAddress","inputs":[{"name":"_bridgeEscrowAddress","type":"address","internalType":"address"}],"outputs":[],"stateMutability":"nonpayable"},{"type":"function","name":"supportsInterface","inputs":[{"name":"interfaceId","type":"bytes4","internalType":"bytes4"}],"outputs":[{"name":"","type":"bool","internalType":"bool"}],"stateMutability":"view"},{"type":"function","name":"symbol","inputs":[],"outputs":[{"name":"","type":"string","internalType":"string"}],"stateMutability":"view"},{"type":"function","name":"totalSupply","inputs":[],"outputs":[{"name":"","type":"uint256","internalType":"uint256"}],"stateMutability":"view"},{"type":"function","name":"transfer","inputs":[{"name":"to","type":"address","internalType":"address"},{"name":"uspdAmount","type":"uint256","internalType":"uint256"}],"outputs":[{"name":"","type":"bool","internalType":"bool"}],"stateMutability":"nonpayable"},{"type":"function","name":"transferFrom","inputs":[{"name":"from","type":"address","internalType":"address"},{"name":"to","type":"address","internalType":"address"},{"name":"uspdAmount","type":"uint256","internalType":"uint256"}],"outputs":[{"name":"","type":"bool","internalType":"bool"}],"stateMutability":"nonpayable"},{"type":"function","name":"unlockFromBridging","inputs":[{"name":"recipient","type":"address","internalType":"address"},{"name":"uspdAmountIntended","type":"uint256","internalType":"uint256"},{"name":"sourceChainYieldFactor","type":"uint256","internalType":"uint256"},{"name":"sourceChainId","type":"uint256","internalType":"uint256"}],"outputs":[],"stateMutability":"nonpayable"},{"type":"function","name":"updateCUSPDAddress","inputs":[{"name":"newCUSPDAddress","type":"address","internalType":"address"}],"outputs":[],"stateMutability":"nonpayable"},{"type":"function","name":"updateRateContract","inputs":[{"name":"newRateContract","type":"address","internalType":"address"}],"outputs":[],"stateMutability":"nonpayable"},{"type":"event","name":"Approval","inputs":[{"name":"owner","type":"address","indexed":true,"internalType":"address"},{"name":"spender","type":"address","indexed":true,"internalType":"address"},{"name":"value","type":"uint256","indexed":false,"internalType":"uint256"}],"anonymous":false},{"type":"event","name":"BridgeEscrowAddressUpdated","inputs":[{"name":"oldAddress","type":"address","indexed":true,"internalType":"address"},{"name":"newAddress","type":"address","indexed":true,"internalType":"address"}],"anonymous":false},{"type":"event","name":"CUSPDAddressUpdated","inputs":[{"name":"oldCUSPDAddress","type":"address","indexed":true,"internalType":"address"},{"name":"newCUSPDAddress","type":"address","indexed":true,"internalType":"address"}],"anonymous":false},{"type":"event","name":"EIP712DomainChanged","inputs":[],"anonymous":false},{"type":"event","name":"LockForBridgingInitiated","inputs":[{"name":"tokenAdapter","type":"address","indexed":true,"internalType":"address"},{"name":"targetChainId","type":"uint256","indexed":true,"internalType":"uint256"},{"name":"uspdAmount","type":"uint256","indexed":false,"internalType":"uint256"},{"name":"cUSPDShareAmount","type":"uint256","indexed":false,"internalType":"uint256"}],"anonymous":false},{"type":"event","name":"RateContractUpdated","inputs":[{"name":"oldRateContract","type":"address","indexed":true,"internalType":"address"},{"name":"newRateContract","type":"address","indexed":true,"internalType":"address"}],"anonymous":false},{"type":"event","name":"RoleAdminChanged","inputs":[{"name":"role","type":"bytes32","indexed":true,"internalType":"bytes32"},{"name":"previousAdminRole","type":"bytes32","indexed":true,"internalType":"bytes32"},{"name":"newAdminRole","type":"bytes32","indexed":true,"internalType":"bytes32"}],"anonymous":false},{"type":"event","name":"RoleGranted","inputs":[{"name":"role","type":"bytes32","indexed":true,"internalType":"bytes32"},{"name":"account","type":"address","indexed":true,"internalType":"address"},{"name":"sender","type":"address","indexed":true,"internalType":"address"}],"anonymous":false},{"type":"event","name":"RoleRevoked","inputs":[{"name":"role","type":"bytes32","indexed":true,"internalType":"bytes32"},{"name":"account","type":"address","indexed":true,"internalType":"address"},{"name":"sender","type":"address","indexed":true,"internalType":"address"}],"anonymous":false},{"type":"event","name":"Transfer","inputs":[{"name":"from","type":"address","indexed":true,"internalType":"address"},{"name":"to","type":"address","indexed":true,"internalType":"address"},{"name":"value","type":"uint256","indexed":false,"internalType":"uint256"}],"anonymous":false},{"type":"event","name":"UnlockFromBridgingInitiated","inputs":[{"name":"recipient","type":"address","indexed":true,"internalType":"address"},{"name":"sourceChainId","type":"uint256","indexed":true,"internalType":"uint256"},{"name":"uspdAmountIntended","type":"uint256","indexed":false,"internalType":"uint256"},{"name":"sourceChainYieldFactor","type":"uint256","indexed":false,"internalType":"uint256"},{"name":"cUSPDShareAmount","type":"uint256","indexed":false,"internalType":"uint256"}],"anonymous":false},{"type":"error","name":"AccessControlBadConfirmation","inputs":[]},{"type":"error","name":"AccessControlUnauthorizedAccount","inputs":[{"name":"account","type":"address","internalType":"address"},{"name":"neededRole","type":"bytes32","internalType":"bytes32"}]},{"type":"error","name":"AmountTooSmall","inputs":[]},{"type":"error","name":"BridgeEscrowNotSet","inputs":[]},{"type":"error","name":"ECDSAInvalidSignature","inputs":[]},{"type":"error","name":"ECDSAInvalidSignatureLength","inputs":[{"name":"length","type":"uint256","internalType":"uint256"}]},{"type":"error","name":"ECDSAInvalidSignatureS","inputs":[{"name":"s","type":"bytes32","internalType":"bytes32"}]},{"type":"error","name":"ERC20InsufficientAllowance","inputs":[{"name":"spender","type":"address","internalType":"address"},{"name":"allowance","type":"uint256","internalType":"uint256"},{"name":"needed","type":"uint256","internalType":"uint256"}]},{"type":"error","name":"ERC20InsufficientBalance","inputs":[{"name":"sender","type":"address","internalType":"address"},{"name":"balance","type":"uint256","internalType":"uint256"},{"name":"needed","type":"uint256","internalType":"uint256"}]},{"type":"error","name":"ERC20InvalidApprover","inputs":[{"name":"approver","type":"address","internalType":"address"}]},{"type":"error","name":"ERC20InvalidReceiver","inputs":[{"name":"receiver","type":"address","internalType":"address"}]},{"type":"error","name":"ERC20InvalidSender","inputs":[{"name":"sender","type":"address","internalType":"address"}]},{"type":"error","name":"ERC20InvalidSpender","inputs":[{"name":"spender","type":"address","internalType":"address"}]},{"type":"error","name":"ERC2612ExpiredSignature","inputs":[{"name":"deadline","type":"uint256","internalType":"uint256"}]},{"type":"error","name":"ERC2612InvalidSigner","inputs":[{"name":"signer","type":"address","internalType":"address"},{"name":"owner","type":"address","internalType":"address"}]},{"type":"error","name":"InvalidAccountNonce","inputs":[{"name":"account","type":"address","internalType":"address"},{"name":"currentNonce","type":"uint256","internalType":"uint256"}]},{"type":"error","name":"InvalidShortString","inputs":[]},{"type":"error","name":"InvalidYieldFactor","inputs":[]},{"type":"error","name":"StringTooLong","inputs":[{"name":"str","type":"string","internalType":"string"}]},{"type":"error","name":"ZeroAddress","inputs":[]}],"bytecode":{"object":"0x610160604052348015610010575f5ffd5b5060405161280738038061280783398101604081905261002f91610439565b6040805180820190915260018152603160f81b602082015285908190818760036100598382610552565b5060046100668282610552565b5061007691508390506005610267565b61012052610085816006610267565b61014052815160208084019190912060e052815190820120610100524660a05261011160e05161010051604080517f8b73c3c69bb8fe3d512ecc4cf759cc79239f7b179b0ffacaa9a75d522b39400f60208201529081019290925260608201524660808201523060a08201525f9060c00160405160208183030381529060405280519060200120905090565b60805250503060c052506001600160a01b0383166101765760405162461bcd60e51b815260206004820152601860248201527f555350443a205a65726f2063555350442061646472657373000000000000000060448201526064015b60405180910390fd5b6001600160a01b0382166101cc5760405162461bcd60e51b815260206004820181905260248201527f555350443a205a65726f207261746520636f6e74726163742061646472657373604482015260640161016d565b6001600160a01b0381166102225760405162461bcd60e51b815260206004820152601860248201527f555350443a205a65726f2061646d696e20616464726573730000000000000000604482015260640161016d565b600980546001600160a01b038086166001600160a01b031992831617909255600a80549285169290911691909117905561025c5f82610299565b505050505050610664565b5f6020835110156102825761027b83610344565b9050610293565b8161028d8482610552565b5060ff90505b92915050565b5f8281526008602090815260408083206001600160a01b038516845290915281205460ff1661033d575f8381526008602090815260408083206001600160a01b03861684529091529020805460ff191660011790556102f53390565b6001600160a01b0316826001600160a01b0316847f2f8788117e7eff1d82e926ec794901d17c78024a50270940304540a733656f0d60405160405180910390a4506001610293565b505f610293565b5f5f829050601f8151111561036e578260405163305a27a960e01b815260040161016d919061060c565b805161037982610641565b179392505050565b634e487b7160e01b5f52604160045260245ffd5b5f82601f8301126103a4575f5ffd5b81516001600160401b038111156103bd576103bd610381565b604051601f8201601f19908116603f011681016001600160401b03811182821017156103eb576103eb610381565b604052818152838201602001851015610402575f5ffd5b8160208501602083015e5f918101602001919091529392505050565b80516001600160a01b0381168114610434575f5ffd5b919050565b5f5f5f5f5f60a0868803121561044d575f5ffd5b85516001600160401b03811115610462575f5ffd5b61046e88828901610395565b602088015190965090506001600160401b0381111561048b575f5ffd5b61049788828901610395565b9450506104a66040870161041e565b92506104b46060870161041e565b91506104c26080870161041e565b90509295509295909350565b600181811c908216806104e257607f821691505b60208210810361050057634e487b7160e01b5f52602260045260245ffd5b50919050565b601f82111561054d57805f5260205f20601f840160051c8101602085101561052b5750805b601f840160051c820191505b8181101561054a575f8155600101610537565b50505b505050565b81516001600160401b0381111561056b5761056b610381565b61057f8161057984546104ce565b84610506565b6020601f8211600181146105b1575f831561059a5750848201515b5f19600385901b1c1916600184901b17845561054a565b5f84815260208120601f198516915b828110156105e057878501518255602094850194600190920191016105c0565b50848210156105fd57868401515f19600387901b60f8161c191681555b50505050600190811b01905550565b602081525f82518060208401528060208501604085015e5f604082850101526040601f19601f83011684010191505092915050565b80516020808301519190811015610500575f1960209190910360031b1b16919050565b60805160a05160c05160e0516101005161012051610140516121526106b55f395f61186e01525f61184101525f61177f01525f61175701525f6116b201525f6116dc01525f61170601526121525ff3fe6080604052600436106101d3575f3560e01c80637d08a771116100fd578063a6f4ae2711610092578063d547741f11610062578063d547741f146105b2578063dd62ed3e146105d1578063e7b14eeb14610615578063eee2421914610628575f5ffd5b8063a6f4ae2714610536578063a9059cbb14610555578063b6501f0514610574578063d505accf14610593575f5ffd5b8063926d7d7f116100cd578063926d7d7f146104c157806395d89b41146104f4578063a217fddf14610508578063a42c69a91461051b575f5ffd5b80637d08a7711461043d5780637ecebe001461045c57806384b0196e1461047b57806391d14854146104a2575f5ffd5b8063248a9ca31161017357806336568abe1161014357806336568abe146103c157806351cab913146103e05780636bc05b7e146103ff57806370a082311461041e575f5ffd5b8063248a9ca3146103455780632f2ff15d14610373578063313ce567146103925780633644e515146103ad575f5ffd5b80630a9c6819116101ae5780630a9c6819146102ac57806318160ddd146102cd5780631a2a4a8e146102ef57806323b872dd14610326575f5ffd5b806301ffc9a71461023857806306fdde031461026c578063095ea7b31461028d575f5ffd5b366102345760405162461bcd60e51b815260206004820152602660248201527f555350443a2044697265637420455448207472616e7366657273206e6f7420616044820152651b1b1bddd95960d21b60648201526084015b60405180910390fd5b5f5ffd5b348015610243575f5ffd5b50610257610252366004611c88565b610647565b60405190151581526020015b60405180910390f35b348015610277575f5ffd5b5061028061067d565b6040516102639190611cdd565b348015610298575f5ffd5b506102576102a7366004611d0a565b61070d565b3480156102b7575f5ffd5b506102cb6102c6366004611d32565b610724565b005b3480156102d8575f5ffd5b506102e16107b1565b604051908152602001610263565b3480156102fa575f5ffd5b50600b5461030e906001600160a01b031681565b6040516001600160a01b039091168152602001610263565b348015610331575f5ffd5b50610257610340366004611d4b565b6108f1565b348015610350575f5ffd5b506102e161035f366004611d85565b5f9081526008602052604090206001015490565b34801561037e575f5ffd5b506102cb61038d366004611d9c565b610a54565b34801561039d575f5ffd5b5060405160128152602001610263565b3480156103b8575f5ffd5b506102e1610a7e565b3480156103cc575f5ffd5b506102cb6103db366004611d9c565b610a8c565b3480156103eb575f5ffd5b506102cb6103fa366004611dc6565b610ac4565b34801561040a575f5ffd5b5060095461030e906001600160a01b031681565b348015610429575f5ffd5b506102e1610438366004611d32565b610c75565b348015610448575f5ffd5b506102cb610457366004611dfc565b610db2565b348015610467575f5ffd5b506102e1610476366004611d32565b610ffe565b348015610486575f5ffd5b5061048f61101b565b6040516102639796959493929190611e1c565b3480156104ad575f5ffd5b506102576104bc366004611d9c565b61105d565b3480156104cc575f5ffd5b506102e17fe2b7fb3b832174769106daebcfd6d1970523240dda11281102db9363b83b0dc481565b3480156104ff575f5ffd5b50610280611087565b348015610513575f5ffd5b506102e15f81565b348015610526575f5ffd5b506102e1670de0b6b3a764000081565b348015610541575f5ffd5b506102cb610550366004611d32565b611096565b348015610560575f5ffd5b5061025761056f366004611d0a565b611123565b34801561057f575f5ffd5b506102cb61058e366004611d32565b611278565b34801561059e575f5ffd5b506102cb6105ad366004611ec2565b611305565b3480156105bd575f5ffd5b506102cb6105cc366004611d9c565b61143b565b3480156105dc575f5ffd5b506102e16105eb366004611f28565b6001600160a01b039182165f90815260016020908152604080832093909416825291909152205490565b6102cb610623366004611f50565b61145f565b348015610633575f5ffd5b50600a5461030e906001600160a01b031681565b5f6001600160e01b03198216637965db0b60e01b148061067757506301ffc9a760e01b6001600160e01b03198316145b92915050565b60606003805461068c90611fa1565b80601f01602080910402602001604051908101604052809291908181526020018280546106b890611fa1565b80156107035780601f106106da57610100808354040283529160200191610703565b820191905f5260205f20905b8154815290600101906020018083116106e657829003601f168201915b5050505050905090565b5f3361071a818585611585565b5060019392505050565b5f61072e81611592565b6001600160a01b0382166107555760405163d92e233d60e01b815260040160405180910390fd5b6009546040516001600160a01b038085169216907f974190c639ecade8910423bd4d87599b333611969e577aca3bb7135069ea9723905f90a350600980546001600160a01b0319166001600160a01b0392909216919091179055565b600a545f906001600160a01b031615806107d457506009546001600160a01b0316155b156107de57505f90565b600a546040805163efa7fa5d60e01b815290515f926001600160a01b03169163efa7fa5d9160048083019260209291908290030181865afa158015610825573d5f5f3e3d5ffd5b505050506040513d601f19601f820116820180604052508101906108499190611fd9565b9050805f03610859575f91505090565b670de0b6b3a76400008160095f9054906101000a90046001600160a01b03166001600160a01b03166318160ddd6040518163ffffffff1660e01b8152600401602060405180830381865afa1580156108b3573d5f5f3e3d5ffd5b505050506040513d601f19601f820116820180604052508101906108d79190611fd9565b6108e19190611ff0565b6108eb9190612013565b91505090565b5f5f600a5f9054906101000a90046001600160a01b03166001600160a01b031663efa7fa5d6040518163ffffffff1660e01b8152600401602060405180830381865afa158015610943573d5f5f3e3d5ffd5b505050506040513d601f19601f820116820180604052508101906109679190611fd9565b9050805f0361098957604051637278bcd360e01b815260040160405180910390fd5b5f8161099d670de0b6b3a764000086611ff0565b6109a79190612013565b9050801580156109b657505f84115b156109d45760405163617ab12d60e11b815260040160405180910390fd5b6109df86338661159f565b600954604051631cb1df1560e31b81526001600160a01b0388811660048301528781166024830152604482018490529091169063e58ef8a8906064015f604051808303815f87803b158015610a32575f5ffd5b505af1158015610a44573d5f5f3e3d5ffd5b5060019998505050505050505050565b5f82815260086020526040902060010154610a6e81611592565b610a788383611615565b50505050565b5f610a876116a6565b905090565b6001600160a01b0381163314610ab55760405163334bd91960e11b815260040160405180910390fd5b610abf82826117cf565b505050565b7fe2b7fb3b832174769106daebcfd6d1970523240dda11281102db9363b83b0dc4610aee81611592565b600b546001600160a01b0316610b17576040516337cc76b960e01b815260040160405180910390fd5b6001600160a01b038516610b3e5760405163d92e233d60e01b815260040160405180910390fd5b825f03610b5e57604051637278bcd360e01b815260040160405180910390fd5b5f83610b72670de0b6b3a764000087611ff0565b610b7c9190612013565b905080158015610b8b57505f85115b15610ba95760405163617ab12d60e11b815260040160405180910390fd5b600b5460405163727fca5f60e01b81526001600160a01b038881166004830152602482018490526044820186905260648201889052608482018790529091169063727fca5f9060a4015f604051808303815f87803b158015610c09575f5ffd5b505af1158015610c1b573d5f5f3e3d5ffd5b505060408051888152602081018890529081018490528592506001600160a01b03891691507f3ddf88d4935a0e526d3301fcc42bd043672d906fbf6ab83fc5b3d51b52fe229f9060600160405180910390a3505050505050565b600a545f906001600160a01b03161580610c9857506009546001600160a01b0316155b15610ca457505f919050565b600a546040805163efa7fa5d60e01b815290515f926001600160a01b03169163efa7fa5d9160048083019260209291908290030181865afa158015610ceb573d5f5f3e3d5ffd5b505050506040513d601f19601f82011682018060405250810190610d0f9190611fd9565b9050805f03610d2057505f92915050565b6009546040516370a0823160e01b81526001600160a01b038581166004830152670de0b6b3a76400009284929116906370a0823190602401602060405180830381865afa158015610d73573d5f5f3e3d5ffd5b505050506040513d601f19601f82011682018060405250810190610d979190611fd9565b610da19190611ff0565b610dab9190612013565b9392505050565b7fe2b7fb3b832174769106daebcfd6d1970523240dda11281102db9363b83b0dc4610ddc81611592565b600b546001600160a01b0316610e05576040516337cc76b960e01b815260040160405180910390fd5b600a546040805163efa7fa5d60e01b815290515f926001600160a01b03169163efa7fa5d9160048083019260209291908290030181865afa158015610e4c573d5f5f3e3d5ffd5b505050506040513d601f19601f82011682018060405250810190610e709190611fd9565b9050805f03610e9257604051637278bcd360e01b815260040160405180910390fd5b5f81610ea6670de0b6b3a764000087611ff0565b610eb09190612013565b905080158015610ebf57505f85115b15610edd5760405163617ab12d60e11b815260040160405180910390fd5b600954600b54604051631cb1df1560e31b81523360048201526001600160a01b0391821660248201526044810184905291169063e58ef8a8906064015f604051808303815f87803b158015610f30575f5ffd5b505af1158015610f42573d5f5f3e3d5ffd5b5050600b546040516375ca208d60e01b8152600481018590526024810188905260448101899052606481018690523360848201526001600160a01b0390911692506375ca208d915060a4015f604051808303815f87803b158015610fa4575f5ffd5b505af1158015610fb6573d5f5f3e3d5ffd5b505060408051888152602081018590528793503392507fe8d4f7eb343525ad4e1e4e5d4ffbdf599818752c9296f694ba3e23f8e89b75a0910160405180910390a35050505050565b6001600160a01b0381165f90815260076020526040812054610677565b5f6060805f5f5f606061102c61183a565b611034611867565b604080515f80825260208201909252600f60f81b9b939a50919850469750309650945092509050565b5f9182526008602090815260408084206001600160a01b0393909316845291905290205460ff1690565b60606004805461068c90611fa1565b5f6110a081611592565b6001600160a01b0382166110c75760405163d92e233d60e01b815260040160405180910390fd5b600a546040516001600160a01b038085169216907f7f0de29187af70d0a98056dd080553d3dec269c81e80033f3ca34a97b3985d3a905f90a350600a80546001600160a01b0319166001600160a01b0392909216919091179055565b5f5f600a5f9054906101000a90046001600160a01b03166001600160a01b031663efa7fa5d6040518163ffffffff1660e01b8152600401602060405180830381865afa158015611175573d5f5f3e3d5ffd5b505050506040513d601f19601f820116820180604052508101906111999190611fd9565b9050805f036111bb57604051637278bcd360e01b815260040160405180910390fd5b5f816111cf670de0b6b3a764000086611ff0565b6111d99190612013565b9050801580156111e857505f84115b156112065760405163617ab12d60e11b815260040160405180910390fd5b600954604051631cb1df1560e31b81523360048201526001600160a01b038781166024830152604482018490529091169063e58ef8a8906064015f604051808303815f87803b158015611257575f5ffd5b505af1158015611269573d5f5f3e3d5ffd5b50600198975050505050505050565b5f61128281611592565b6001600160a01b0382166112a95760405163d92e233d60e01b815260040160405180910390fd5b600b546040516001600160a01b038085169216907f0842e0125c5dd8fb48b1a967ae420e8954c9ccb1f6a29f83ff9da9204895ff1a905f90a350600b80546001600160a01b0319166001600160a01b0392909216919091179055565b834211156113295760405163313c898160e11b81526004810185905260240161022b565b5f7f6e71edae12b1b97f4d1f60370fef10105fa2faae0126114a169c64845d6126c98888886113748c6001600160a01b03165f90815260076020526040902080546001810190915590565b6040805160208101969096526001600160a01b0394851690860152929091166060840152608083015260a082015260c0810186905260e0016040516020818303038152906040528051906020012090505f6113ce82611894565b90505f6113dd828787876118c0565b9050896001600160a01b0316816001600160a01b031614611424576040516325c0072360e11b81526001600160a01b0380831660048301528b16602482015260440161022b565b61142f8a8a8a611585565b50505050505050505050565b5f8281526008602052604090206001015461145581611592565b610a7883836117cf565b6001600160a01b0382166114b55760405162461bcd60e51b815260206004820152601a60248201527f555350443a204d696e7420746f207a65726f2061646472657373000000000000604482015260640161022b565b6009546001600160a01b03166114de5760405163d92e233d60e01b815260040160405180910390fd5b60095460405163bda11bed60e01b81525f916001600160a01b03169063bda11bed903490611512908790879060040161205a565b60206040518083038185885af115801561152e573d5f5f3e3d5ffd5b50505050506040513d601f19601f820116820180604052508101906115539190611fd9565b90508015610abf57604051339082156108fc029083905f818181858888f19350505050158015610a78573d5f5f3e3d5ffd5b610abf83838360016118ec565b61159c81336119be565b50565b6001600160a01b038381165f908152600160209081526040808320938616835292905220545f19811015610a78578181101561160757604051637dc7a0d960e11b81526001600160a01b0384166004820152602481018290526044810183905260640161022b565b610a7884848484035f6118ec565b5f611620838361105d565b61169f575f8381526008602090815260408083206001600160a01b03861684529091529020805460ff191660011790556116573390565b6001600160a01b0316826001600160a01b0316847f2f8788117e7eff1d82e926ec794901d17c78024a50270940304540a733656f0d60405160405180910390a4506001610677565b505f610677565b5f306001600160a01b037f0000000000000000000000000000000000000000000000000000000000000000161480156116fe57507f000000000000000000000000000000000000000000000000000000000000000046145b1561172857507f000000000000000000000000000000000000000000000000000000000000000090565b610a87604080517f8b73c3c69bb8fe3d512ecc4cf759cc79239f7b179b0ffacaa9a75d522b39400f60208201527f0000000000000000000000000000000000000000000000000000000000000000918101919091527f000000000000000000000000000000000000000000000000000000000000000060608201524660808201523060a08201525f9060c00160405160208183030381529060405280519060200120905090565b5f6117da838361105d565b1561169f575f8381526008602090815260408083206001600160a01b0386168085529252808320805460ff1916905551339286917ff6391f5c32d9c69d2a47ea670b442974b53935d1edc7fd64eb21e047a839171b9190a4506001610677565b6060610a877f000000000000000000000000000000000000000000000000000000000000000060056119fb565b6060610a877f000000000000000000000000000000000000000000000000000000000000000060066119fb565b5f6106776118a06116a6565b8360405161190160f01b8152600281019290925260228201526042902090565b5f5f5f5f6118d088888888611aa4565b9250925092506118e08282611b6c565b50909695505050505050565b6001600160a01b0384166119155760405163e602df0560e01b81525f600482015260240161022b565b6001600160a01b03831661193e57604051634a1406b160e11b81525f600482015260240161022b565b6001600160a01b038085165f9081526001602090815260408083209387168352929052208290558015610a7857826001600160a01b0316846001600160a01b03167f8c5be1e5ebec7d5bd14f71427d1e84f3dd0314c0f7b2291e5b200ac8c7c3b925846040516119b091815260200190565b60405180910390a350505050565b6119c8828261105d565b6119f75760405163e2517d3f60e01b81526001600160a01b03821660048201526024810183905260440161022b565b5050565b606060ff8314611a1557611a0e83611c24565b9050610677565b818054611a2190611fa1565b80601f0160208091040260200160405190810160405280929190818152602001828054611a4d90611fa1565b8015611a985780601f10611a6f57610100808354040283529160200191611a98565b820191905f5260205f20905b815481529060010190602001808311611a7b57829003601f168201915b50505050509050610677565b5f80807f7fffffffffffffffffffffffffffffff5d576e7357a4501ddfe92f46681b20a0841115611add57505f91506003905082611b62565b604080515f808252602082018084528a905260ff891692820192909252606081018790526080810186905260019060a0016020604051602081039080840390855afa158015611b2e573d5f5f3e3d5ffd5b5050604051601f1901519150506001600160a01b038116611b5957505f925060019150829050611b62565b92505f91508190505b9450945094915050565b5f826003811115611b7f57611b7f612108565b03611b88575050565b6001826003811115611b9c57611b9c612108565b03611bba5760405163f645eedf60e01b815260040160405180910390fd5b6002826003811115611bce57611bce612108565b03611bef5760405163fce698f760e01b81526004810182905260240161022b565b6003826003811115611c0357611c03612108565b036119f7576040516335e2f38360e21b81526004810182905260240161022b565b60605f611c3083611c61565b6040805160208082528183019092529192505f91906020820181803683375050509182525060208101929092525090565b5f60ff8216601f81111561067757604051632cd44ac360e21b815260040160405180910390fd5b5f60208284031215611c98575f5ffd5b81356001600160e01b031981168114610dab575f5ffd5b5f81518084528060208401602086015e5f602082860101526020601f19601f83011685010191505092915050565b602081525f610dab6020830184611caf565b80356001600160a01b0381168114611d05575f5ffd5b919050565b5f5f60408385031215611d1b575f5ffd5b611d2483611cef565b946020939093013593505050565b5f60208284031215611d42575f5ffd5b610dab82611cef565b5f5f5f60608486031215611d5d575f5ffd5b611d6684611cef565b9250611d7460208501611cef565b929592945050506040919091013590565b5f60208284031215611d95575f5ffd5b5035919050565b5f5f60408385031215611dad575f5ffd5b82359150611dbd60208401611cef565b90509250929050565b5f5f5f5f60808587031215611dd9575f5ffd5b611de285611cef565b966020860135965060408601359560600135945092505050565b5f5f60408385031215611e0d575f5ffd5b50508035926020909101359150565b60ff60f81b8816815260e060208201525f611e3a60e0830189611caf565b8281036040840152611e4c8189611caf565b606084018890526001600160a01b038716608085015260a0840186905283810360c0850152845180825260208087019350909101905f5b81811015611ea1578351835260209384019390920191600101611e83565b50909b9a5050505050505050505050565b803560ff81168114611d05575f5ffd5b5f5f5f5f5f5f5f60e0888a031215611ed8575f5ffd5b611ee188611cef565b9650611eef60208901611cef565b95506040880135945060608801359350611f0b60808901611eb2565b9699959850939692959460a0840135945060c09093013592915050565b5f5f60408385031215611f39575f5ffd5b611f4283611cef565b9150611dbd60208401611cef565b5f5f60408385031215611f61575f5ffd5b611f6a83611cef565b9150602083013567ffffffffffffffff811115611f85575f5ffd5b830160a08186031215611f96575f5ffd5b809150509250929050565b600181811c90821680611fb557607f821691505b602082108103611fd357634e487b7160e01b5f52602260045260245ffd5b50919050565b5f60208284031215611fe9575f5ffd5b5051919050565b808202811582820484141761067757634e487b7160e01b5f52601160045260245ffd5b5f8261202d57634e487b7160e01b5f52601260045260245ffd5b500490565b81835281816020850137505f828201602090810191909152601f909101601f19169091010190565b6001600160a01b0383168152604060208083018290528335918301919091525f9060ff90612089908501611eb2565b1660608381019190915260408401356080808501919091529084013560a084015283013536849003601e190181126120bf575f5ffd5b830160208101903567ffffffffffffffff8111156120db575f5ffd5b8036038213156120e9575f5ffd5b60a060c08501526120fe60e085018284612032565b9695505050505050565b634e487b7160e01b5f52602160045260245ffdfea264697066735822122011f3dd64c9787fd614bdeba32979a73cafd0568897749a3c3e005a9043c1b09264736f6c634300081d0033","linkReferences":{}},"methodIdentifiers":{"DEFAULT_ADMIN_ROLE()":"a217fddf","DOMAIN_SEPARATOR()":"3644e515","FACTOR_PRECISION()":"a42c69a9","RELAYER_ROLE()":"926d7d7f","allowance(address,address)":"dd62ed3e","approve(address,uint256)":"095ea7b3","balanceOf(address)":"70a08231","bridgeEscrowAddress()":"1a2a4a8e","cuspdToken()":"6bc05b7e","decimals()":"313ce567","eip712Domain()":"84b0196e","getRoleAdmin(bytes32)":"248a9ca3","grantRole(bytes32,address)":"2f2ff15d","hasRole(bytes32,address)":"91d14854","lockForBridging(uint256,uint256)":"7d08a771","mint(address,(uint256,uint8,uint256,bytes32,bytes))":"e7b14eeb","name()":"06fdde03","nonces(address)":"7ecebe00","permit(address,address,uint256,uint256,uint8,bytes32,bytes32)":"d505accf","rateContract()":"eee24219","renounceRole(bytes32,address)":"36568abe","revokeRole(bytes32,address)":"d547741f","setBridgeEscrowAddress(address)":"b6501f05","supportsInterface(bytes4)":"01ffc9a7","symbol()":"95d89b41","totalSupply()":"18160ddd","transfer(address,uint256)":"a9059cbb","transferFrom(address,address,uint256)":"23b872dd","unlockFromBridging(address,uint256,uint256,uint256)":"51cab913","updateCUSPDAddress(address)":"0a9c6819","updateRateContract(address)":"a6f4ae27"},"storageLayout":{"storage":[{"astId":43235,"contract":"src/UspdToken.sol:USPDToken","label":"_balances","offset":0,"slot":"0","type":"t_mapping(t_address,t_uint256)"},{"astId":43241,"contract":"src/UspdToken.sol:USPDToken","label":"_allowances","offset":0,"slot":"1","type":"t_mapping(t_address,t_mapping(t_address,t_uint256))"},{"astId":43243,"contract":"src/UspdToken.sol:USPDToken","label":"_totalSupply","offset":0,"slot":"2","type":"t_uint256"},{"astId":43245,"contract":"src/UspdToken.sol:USPDToken","label":"_name","offset":0,"slot":"3","type":"t_string_storage"},{"astId":43247,"contract":"src/UspdToken.sol:USPDToken","label":"_symbol","offset":0,"slot":"4","type":"t_string_storage"},{"astId":46819,"contract":"src/UspdToken.sol:USPDToken","label":"_nameFallback","offset":0,"slot":"5","type":"t_string_storage"},{"astId":46821,"contract":"src/UspdToken.sol:USPDToken","label":"_versionFallback","offset":0,"slot":"6","type":"t_string_storage"},{"astId":44718,"contract":"src/UspdToken.sol:USPDToken","label":"_nonces","offset":0,"slot":"7","type":"t_mapping(t_address,t_uint256)"},{"astId":41742,"contract":"src/UspdToken.sol:USPDToken","label":"_roles","offset":0,"slot":"8","type":"t_mapping(t_bytes32,t_struct(RoleData)41737_storage)"},{"astId":57249,"contract":"src/UspdToken.sol:USPDToken","label":"cuspdToken","offset":0,"slot":"9","type":"t_contract(IcUSPDToken)59347"},{"astId":57252,"contract":"src/UspdToken.sol:USPDToken","label":"rateContract","offset":0,"slot":"10","type":"t_contract(IPoolSharesConversionRate)58977"},{"astId":57254,"contract":"src/UspdToken.sol:USPDToken","label":"bridgeEscrowAddress","offset":0,"slot":"11","type":"t_address"}],"types":{"t_address":{"encoding":"inplace","label":"address","numberOfBytes":"20"},"t_bool":{"encoding":"inplace","label":"bool","numberOfBytes":"1"},"t_bytes32":{"encoding":"inplace","label":"bytes32","numberOfBytes":"32"},"t_contract(IPoolSharesConversionRate)58977":{"encoding":"inplace","label":"contract IPoolSharesConversionRate","numberOfBytes":"20"},"t_contract(IcUSPDToken)59347":{"encoding":"inplace","label":"contract IcUSPDToken","numberOfBytes":"20"},"t_mapping(t_address,t_bool)":{"encoding":"mapping","key":"t_address","label":"mapping(address => bool)","numberOfBytes":"32","value":"t_bool"},"t_mapping(t_address,t_mapping(t_address,t_uint256))":{"encoding":"mapping","key":"t_address","label":"mapping(address => mapping(address => uint256))","numberOfBytes":"32","value":"t_mapping(t_address,t_uint256)"},"t_mapping(t_address,t_uint256)":{"encoding":"mapping","key":"t_address","label":"mapping(address => uint256)","numberOfBytes":"32","value":"t_uint256"},"t_mapping(t_bytes32,t_struct(RoleData)41737_storage)":{"encoding":"mapping","key":"t_bytes32","label":"mapping(bytes32 => struct AccessControl.RoleData)","numberOfBytes":"32","value":"t_struct(RoleData)41737_storage"},"t_string_storage":{"encoding":"bytes","label":"string","numberOfBytes":"32"},"t_struct(RoleData)41737_storage":{"encoding":"inplace","label":"struct AccessControl.RoleData","numberOfBytes":"64","members":[{"astId":41734,"contract":"src/UspdToken.sol:USPDToken","label":"hasRole","offset":0,"slot":"0","type":"t_mapping(t_address,t_bool)"},{"astId":41736,"contract":"src/UspdToken.sol:USPDToken","label":"adminRole","offset":0,"slot":"1","type":"t_bytes32"}]},"t_uint256":{"encoding":"inplace","label":"uint256","numberOfBytes":"32"}}},"id":79}