{"abi":[{"type":"constructor","inputs":[{"name":"_oracle","type":"address","internalType":"address"},{"name":"_stabilizer","type":"address","internalType":"address"},{"name":"_rateContractAddress","type":"address","internalType":"address"},{"name":"_admin","type":"address","internalType":"address"}],"stateMutability":"nonpayable"},{"type":"receive","stateMutability":"payable"},{"type":"function","name":"DEFAULT_ADMIN_ROLE","inputs":[],"outputs":[{"name":"","type":"bytes32","internalType":"bytes32"}],"stateMutability":"view"},{"type":"function","name":"DOMAIN_SEPARATOR","inputs":[],"outputs":[{"name":"","type":"bytes32","internalType":"bytes32"}],"stateMutability":"view"},{"type":"function","name":"EXCESS_COLLATERAL_DRAIN_ROLE","inputs":[],"outputs":[{"name":"","type":"bytes32","internalType":"bytes32"}],"stateMutability":"view"},{"type":"function","name":"FACTOR_PRECISION","inputs":[],"outputs":[{"name":"","type":"uint256","internalType":"uint256"}],"stateMutability":"view"},{"type":"function","name":"STABILIZER_ROLE","inputs":[],"outputs":[{"name":"","type":"bytes32","internalType":"bytes32"}],"stateMutability":"view"},{"type":"function","name":"UPDATE_ORACLE_ROLE","inputs":[],"outputs":[{"name":"","type":"bytes32","internalType":"bytes32"}],"stateMutability":"view"},{"type":"function","name":"allowance","inputs":[{"name":"owner","type":"address","internalType":"address"},{"name":"spender","type":"address","internalType":"address"}],"outputs":[{"name":"","type":"uint256","internalType":"uint256"}],"stateMutability":"view"},{"type":"function","name":"approve","inputs":[{"name":"spender","type":"address","internalType":"address"},{"name":"value","type":"uint256","internalType":"uint256"}],"outputs":[{"name":"","type":"bool","internalType":"bool"}],"stateMutability":"nonpayable"},{"type":"function","name":"balanceOf","inputs":[{"name":"account","type":"address","internalType":"address"}],"outputs":[{"name":"","type":"uint256","internalType":"uint256"}],"stateMutability":"view"},{"type":"function","name":"burn","inputs":[{"name":"amount","type":"uint256","internalType":"uint256"},{"name":"to","type":"address","internalType":"address payable"},{"name":"priceQuery","type":"tuple","internalType":"struct IPriceOracle.PriceAttestationQuery","components":[{"name":"price","type":"uint256","internalType":"uint256"},{"name":"decimals","type":"uint8","internalType":"uint8"},{"name":"dataTimestamp","type":"uint256","internalType":"uint256"},{"name":"assetPair","type":"bytes32","internalType":"bytes32"},{"name":"signature","type":"bytes","internalType":"bytes"}]}],"outputs":[],"stateMutability":"nonpayable"},{"type":"function","name":"decimals","inputs":[],"outputs":[{"name":"","type":"uint8","internalType":"uint8"}],"stateMutability":"view"},{"type":"function","name":"eip712Domain","inputs":[],"outputs":[{"name":"fields","type":"bytes1","internalType":"bytes1"},{"name":"name","type":"string","internalType":"string"},{"name":"version","type":"string","internalType":"string"},{"name":"chainId","type":"uint256","internalType":"uint256"},{"name":"verifyingContract","type":"address","internalType":"address"},{"name":"salt","type":"bytes32","internalType":"bytes32"},{"name":"extensions","type":"uint256[]","internalType":"uint256[]"}],"stateMutability":"view"},{"type":"function","name":"getRoleAdmin","inputs":[{"name":"role","type":"bytes32","internalType":"bytes32"}],"outputs":[{"name":"","type":"bytes32","internalType":"bytes32"}],"stateMutability":"view"},{"type":"function","name":"grantRole","inputs":[{"name":"role","type":"bytes32","internalType":"bytes32"},{"name":"account","type":"address","internalType":"address"}],"outputs":[],"stateMutability":"nonpayable"},{"type":"function","name":"hasRole","inputs":[{"name":"role","type":"bytes32","internalType":"bytes32"},{"name":"account","type":"address","internalType":"address"}],"outputs":[{"name":"","type":"bool","internalType":"bool"}],"stateMutability":"view"},{"type":"function","name":"mint","inputs":[{"name":"to","type":"address","internalType":"address"},{"name":"priceQuery","type":"tuple","internalType":"struct IPriceOracle.PriceAttestationQuery","components":[{"name":"price","type":"uint256","internalType":"uint256"},{"name":"decimals","type":"uint8","internalType":"uint8"},{"name":"dataTimestamp","type":"uint256","internalType":"uint256"},{"name":"assetPair","type":"bytes32","internalType":"bytes32"},{"name":"signature","type":"bytes","internalType":"bytes"}]}],"outputs":[],"stateMutability":"payable"},{"type":"function","name":"name","inputs":[],"outputs":[{"name":"","type":"string","internalType":"string"}],"stateMutability":"view"},{"type":"function","name":"nonces","inputs":[{"name":"owner","type":"address","internalType":"address"}],"outputs":[{"name":"","type":"uint256","internalType":"uint256"}],"stateMutability":"view"},{"type":"function","name":"oracle","inputs":[],"outputs":[{"name":"","type":"address","internalType":"contract PriceOracle"}],"stateMutability":"view"},{"type":"function","name":"permit","inputs":[{"name":"owner","type":"address","internalType":"address"},{"name":"spender","type":"address","internalType":"address"},{"name":"value","type":"uint256","internalType":"uint256"},{"name":"deadline","type":"uint256","internalType":"uint256"},{"name":"v","type":"uint8","internalType":"uint8"},{"name":"r","type":"bytes32","internalType":"bytes32"},{"name":"s","type":"bytes32","internalType":"bytes32"}],"outputs":[],"stateMutability":"nonpayable"},{"type":"function","name":"poolSharesOf","inputs":[{"name":"account","type":"address","internalType":"address"}],"outputs":[{"name":"","type":"uint256","internalType":"uint256"}],"stateMutability":"view"},{"type":"function","name":"rateContract","inputs":[],"outputs":[{"name":"","type":"address","internalType":"contract IPoolSharesConversionRate"}],"stateMutability":"view"},{"type":"function","name":"receiveStabilizerReturn","inputs":[],"outputs":[],"stateMutability":"payable"},{"type":"function","name":"receiveUserStETH","inputs":[{"name":"user","type":"address","internalType":"address"},{"name":"stETHAmount","type":"uint256","internalType":"uint256"}],"outputs":[],"stateMutability":"nonpayable"},{"type":"function","name":"renounceRole","inputs":[{"name":"role","type":"bytes32","internalType":"bytes32"},{"name":"callerConfirmation","type":"address","internalType":"address"}],"outputs":[],"stateMutability":"nonpayable"},{"type":"function","name":"revokeRole","inputs":[{"name":"role","type":"bytes32","internalType":"bytes32"},{"name":"account","type":"address","internalType":"address"}],"outputs":[],"stateMutability":"nonpayable"},{"type":"function","name":"stabilizer","inputs":[],"outputs":[{"name":"","type":"address","internalType":"contract IStabilizerNFT"}],"stateMutability":"view"},{"type":"function","name":"supportsInterface","inputs":[{"name":"interfaceId","type":"bytes4","internalType":"bytes4"}],"outputs":[{"name":"","type":"bool","internalType":"bool"}],"stateMutability":"view"},{"type":"function","name":"symbol","inputs":[],"outputs":[{"name":"","type":"string","internalType":"string"}],"stateMutability":"view"},{"type":"function","name":"totalPoolShares","inputs":[],"outputs":[{"name":"","type":"uint256","internalType":"uint256"}],"stateMutability":"view"},{"type":"function","name":"totalSupply","inputs":[],"outputs":[{"name":"","type":"uint256","internalType":"uint256"}],"stateMutability":"view"},{"type":"function","name":"transfer","inputs":[{"name":"to","type":"address","internalType":"address"},{"name":"value","type":"uint256","internalType":"uint256"}],"outputs":[{"name":"","type":"bool","internalType":"bool"}],"stateMutability":"nonpayable"},{"type":"function","name":"transferFrom","inputs":[{"name":"from","type":"address","internalType":"address"},{"name":"to","type":"address","internalType":"address"},{"name":"value","type":"uint256","internalType":"uint256"}],"outputs":[{"name":"","type":"bool","internalType":"bool"}],"stateMutability":"nonpayable"},{"type":"function","name":"updateOracle","inputs":[{"name":"newOracle","type":"address","internalType":"address"}],"outputs":[],"stateMutability":"nonpayable"},{"type":"function","name":"updateRateContract","inputs":[{"name":"newRateContract","type":"address","internalType":"address"}],"outputs":[],"stateMutability":"nonpayable"},{"type":"function","name":"updateStabilizer","inputs":[{"name":"newStabilizer","type":"address","internalType":"address"}],"outputs":[],"stateMutability":"nonpayable"},{"type":"event","name":"Approval","inputs":[{"name":"owner","type":"address","indexed":true,"internalType":"address"},{"name":"spender","type":"address","indexed":true,"internalType":"address"},{"name":"value","type":"uint256","indexed":false,"internalType":"uint256"}],"anonymous":false},{"type":"event","name":"BurnPoolShares","inputs":[{"name":"from","type":"address","indexed":true,"internalType":"address"},{"name":"to","type":"address","indexed":true,"internalType":"address"},{"name":"uspdAmount","type":"uint256","indexed":false,"internalType":"uint256"},{"name":"poolShares","type":"uint256","indexed":false,"internalType":"uint256"},{"name":"yieldFactor","type":"uint256","indexed":false,"internalType":"uint256"}],"anonymous":false},{"type":"event","name":"EIP712DomainChanged","inputs":[],"anonymous":false},{"type":"event","name":"ExcessCollateralPayout","inputs":[{"name":"to","type":"address","indexed":false,"internalType":"address"},{"name":"ethAmount","type":"uint256","indexed":false,"internalType":"uint256"}],"anonymous":false},{"type":"event","name":"MintPoolShares","inputs":[{"name":"from","type":"address","indexed":true,"internalType":"address"},{"name":"to","type":"address","indexed":true,"internalType":"address"},{"name":"uspdAmount","type":"uint256","indexed":false,"internalType":"uint256"},{"name":"poolShares","type":"uint256","indexed":false,"internalType":"uint256"},{"name":"yieldFactor","type":"uint256","indexed":false,"internalType":"uint256"}],"anonymous":false},{"type":"event","name":"Payout","inputs":[{"name":"to","type":"address","indexed":false,"internalType":"address"},{"name":"psdAmount","type":"uint256","indexed":false,"internalType":"uint256"},{"name":"ethAmount","type":"uint256","indexed":false,"internalType":"uint256"},{"name":"askPrice","type":"uint256","indexed":false,"internalType":"uint256"}],"anonymous":false},{"type":"event","name":"PriceOracleUpdated","inputs":[{"name":"oldOracle","type":"address","indexed":false,"internalType":"address"},{"name":"newOracle","type":"address","indexed":false,"internalType":"address"}],"anonymous":false},{"type":"event","name":"RateContractUpdated","inputs":[{"name":"oldRateContract","type":"address","indexed":false,"internalType":"address"},{"name":"newRateContract","type":"address","indexed":false,"internalType":"address"}],"anonymous":false},{"type":"event","name":"RoleAdminChanged","inputs":[{"name":"role","type":"bytes32","indexed":true,"internalType":"bytes32"},{"name":"previousAdminRole","type":"bytes32","indexed":true,"internalType":"bytes32"},{"name":"newAdminRole","type":"bytes32","indexed":true,"internalType":"bytes32"}],"anonymous":false},{"type":"event","name":"RoleGranted","inputs":[{"name":"role","type":"bytes32","indexed":true,"internalType":"bytes32"},{"name":"account","type":"address","indexed":true,"internalType":"address"},{"name":"sender","type":"address","indexed":true,"internalType":"address"}],"anonymous":false},{"type":"event","name":"RoleRevoked","inputs":[{"name":"role","type":"bytes32","indexed":true,"internalType":"bytes32"},{"name":"account","type":"address","indexed":true,"internalType":"address"},{"name":"sender","type":"address","indexed":true,"internalType":"address"}],"anonymous":false},{"type":"event","name":"StabilizerUpdated","inputs":[{"name":"oldStabilizer","type":"address","indexed":false,"internalType":"address"},{"name":"newStabilizer","type":"address","indexed":false,"internalType":"address"}],"anonymous":false},{"type":"event","name":"Transfer","inputs":[{"name":"from","type":"address","indexed":true,"internalType":"address"},{"name":"to","type":"address","indexed":true,"internalType":"address"},{"name":"value","type":"uint256","indexed":false,"internalType":"uint256"}],"anonymous":false},{"type":"error","name":"AccessControlBadConfirmation","inputs":[]},{"type":"error","name":"AccessControlUnauthorizedAccount","inputs":[{"name":"account","type":"address","internalType":"address"},{"name":"neededRole","type":"bytes32","internalType":"bytes32"}]},{"type":"error","name":"ECDSAInvalidSignature","inputs":[]},{"type":"error","name":"ECDSAInvalidSignatureLength","inputs":[{"name":"length","type":"uint256","internalType":"uint256"}]},{"type":"error","name":"ECDSAInvalidSignatureS","inputs":[{"name":"s","type":"bytes32","internalType":"bytes32"}]},{"type":"error","name":"ERC20InsufficientAllowance","inputs":[{"name":"spender","type":"address","internalType":"address"},{"name":"allowance","type":"uint256","internalType":"uint256"},{"name":"needed","type":"uint256","internalType":"uint256"}]},{"type":"error","name":"ERC20InsufficientBalance","inputs":[{"name":"sender","type":"address","internalType":"address"},{"name":"balance","type":"uint256","internalType":"uint256"},{"name":"needed","type":"uint256","internalType":"uint256"}]},{"type":"error","name":"ERC20InvalidApprover","inputs":[{"name":"approver","type":"address","internalType":"address"}]},{"type":"error","name":"ERC20InvalidReceiver","inputs":[{"name":"receiver","type":"address","internalType":"address"}]},{"type":"error","name":"ERC20InvalidSender","inputs":[{"name":"sender","type":"address","internalType":"address"}]},{"type":"error","name":"ERC20InvalidSpender","inputs":[{"name":"spender","type":"address","internalType":"address"}]},{"type":"error","name":"ERC2612ExpiredSignature","inputs":[{"name":"deadline","type":"uint256","internalType":"uint256"}]},{"type":"error","name":"ERC2612InvalidSigner","inputs":[{"name":"signer","type":"address","internalType":"address"},{"name":"owner","type":"address","internalType":"address"}]},{"type":"error","name":"InvalidAccountNonce","inputs":[{"name":"account","type":"address","internalType":"address"},{"name":"currentNonce","type":"uint256","internalType":"uint256"}]},{"type":"error","name":"InvalidShortString","inputs":[]},{"type":"error","name":"StringTooLong","inputs":[{"name":"str","type":"string","internalType":"string"}]}],"bytecode":{"object":"0x6101606040526103e8600e55348015610016575f80fd5b50604051613aa1380380613aa1833981016040819052610035916104c0565b604051806040016040528060088152602001675553504444454d4f60c01b81525080604051806040016040528060018152602001603160f81b81525060405180604001604052806009815260200168555350442044656d6f60b81b815250604051806040016040528060088152602001675553504444454d4f60c01b81525081600390816100c391906105a9565b5060046100d082826105a9565b506100e09150839050600561038b565b610120526100ef81600661038b565b61014052815160208084019190912060e052815190820120610100524660a05261017b60e05161010051604080517f8b73c3c69bb8fe3d512ecc4cf759cc79239f7b179b0ffacaa9a75d522b39400f60208201529081019290925260608201524660808201523060a08201525f9060c00160405160208183030381529060405280519060200120905090565b60805250503060c052506001600160a01b0384166101e05760405162461bcd60e51b815260206004820152601d60248201527f4f7261636c6520616464726573732063616e6e6f74206265207a65726f00000060448201526064015b60405180910390fd5b6001600160a01b0382166102425760405162461bcd60e51b8152602060048201526024808201527f5261746520636f6e747261637420616464726573732063616e6e6f74206265206044820152637a65726f60e01b60648201526084016101d7565b6001600160a01b0381166102985760405162461bcd60e51b815260206004820152601c60248201527f41646d696e20616464726573732063616e6e6f74206265207a65726f0000000060448201526064016101d7565b600980546001600160a01b0319166001600160a01b038681169190911790915583161561030657600a80546001600160a01b0319166001600160a01b0385161790556103047f079847024f21c1f5f8d88daf6764f03ddd70ce4acc6aa7104a85233fe5a76995846103bd565b505b600b80546001600160a01b0319166001600160a01b03841617905561032b5f826103bd565b506103567f07dadfef42b760da37c1787f23390032c991ba73626ca6711e8fbb581ca48ec5826103bd565b506103817f90e45b937a8206cd9165edccea3d6e7eee3817439762d76dd6f0730bb9e8f671826103bd565b50505050506106bb565b5f6020835110156103a65761039f83610468565b90506103b7565b816103b184826105a9565b5060ff90505b92915050565b5f8281526008602090815260408083206001600160a01b038516845290915281205460ff16610461575f8381526008602090815260408083206001600160a01b03861684529091529020805460ff191660011790556104193390565b6001600160a01b0316826001600160a01b0316847f2f8788117e7eff1d82e926ec794901d17c78024a50270940304540a733656f0d60405160405180910390a45060016103b7565b505f6103b7565b5f80829050601f81511115610492578260405163305a27a960e01b81526004016101d79190610663565b805161049d82610698565b179392505050565b80516001600160a01b03811681146104bb575f80fd5b919050565b5f805f80608085870312156104d3575f80fd5b6104dc856104a5565b93506104ea602086016104a5565b92506104f8604086016104a5565b9150610506606086016104a5565b905092959194509250565b634e487b7160e01b5f52604160045260245ffd5b600181811c9082168061053957607f821691505b60208210810361055757634e487b7160e01b5f52602260045260245ffd5b50919050565b601f8211156105a457805f5260205f20601f840160051c810160208510156105825750805b601f840160051c820191505b818110156105a1575f815560010161058e565b50505b505050565b81516001600160401b038111156105c2576105c2610511565b6105d6816105d08454610525565b8461055d565b6020601f821160018114610608575f83156105f15750848201515b5f19600385901b1c1916600184901b1784556105a1565b5f84815260208120601f198516915b828110156106375787850151825560209485019460019092019101610617565b508482101561065457868401515f19600387901b60f8161c191681555b50505050600190811b01905550565b602081525f82518060208401528060208501604085015e5f604082850101526040601f19601f83011684010191505092915050565b80516020808301519190811015610557575f1960209190910360031b1b16919050565b60805160a05160c05160e05161010051610120516101405161339561070c5f395f6125eb01525f6125be01525f611f2a01525f611f0201525f611e5d01525f611e8701525f611eb101526133955ff3fe608060405260043610610246575f3560e01c80637e47961c11610131578063b09f409d116100ac578063d547741f1161007c578063e620e97011610062578063e620e970146107e9578063e7b14eeb14610808578063eee242191461081b575f80fd5b8063d547741f14610779578063dd62ed3e14610798575f80fd5b8063b09f409d146106de578063b6e33f3b146106e6578063d3e4317f14610719578063d505accf1461075a575f80fd5b806395d89b4111610101578063a42c69a9116100e7578063a42c69a914610685578063a6f4ae27146106a0578063a9059cbb146106bf575f80fd5b806395d89b411461065e578063a217fddf14610672575f80fd5b80637e47961c1461059b5780637ecebe00146105c757806384b0196e146105e657806391d148541461060d575f80fd5b80633644e515116101c157806346dc94c4116101915780636d0a67de116101775780636d0a67de1461051757806370a082311461052b5780637dc0d1d01461054a575f80fd5b806346dc94c4146104c557806361aa346e146104e4575f80fd5b80633644e5151461044057806336568abe146104545780634315d334146104735780634699643b14610492575f80fd5b80631cb44dfc11610216578063248a9ca3116101fc578063248a9ca3146103d85780632f2ff15d14610406578063313ce56714610425575f80fd5b80631cb44dfc1461039857806323b872dd146103b9575f80fd5b806301ffc9a71461030257806306fdde0314610336578063095ea7b31461035757806318160ddd14610376575f80fd5b366102fe576040517f08c379a000000000000000000000000000000000000000000000000000000000815260206004820152604660248201527f44697265637420455448207472616e7366657273206e6f7420737570706f727460448201527f65642e20557365206d696e74282920776974682070726963652061747465737460648201527f6174696f6e2e0000000000000000000000000000000000000000000000000000608482015260a4015b60405180910390fd5b5f80fd5b34801561030d575f80fd5b5061032161031c366004612b70565b610847565b60405190151581526020015b60405180910390f35b348015610341575f80fd5b5061034a6108df565b60405161032d9190612bfb565b348015610362575f80fd5b50610321610371366004612c2e565b61096f565b348015610381575f80fd5b5061038a610986565b60405190815260200161032d565b3480156103a3575f80fd5b506103b76103b2366004612c58565b610a66565b005b3480156103c4575f80fd5b506103216103d3366004612c73565b610b2c565b3480156103e3575f80fd5b5061038a6103f2366004612cb1565b5f9081526008602052604090206001015490565b348015610411575f80fd5b506103b7610420366004612cc8565b610b4f565b348015610430575f80fd5b506040516012815260200161032d565b34801561044b575f80fd5b5061038a610b79565b34801561045f575f80fd5b506103b761046e366004612cc8565b610b87565b34801561047e575f80fd5b506103b761048d366004612d0c565b610be5565b34801561049d575f80fd5b5061038a7f079847024f21c1f5f8d88daf6764f03ddd70ce4acc6aa7104a85233fe5a7699581565b3480156104d0575f80fd5b506103b76104df366004612c58565b6110fc565b3480156104ef575f80fd5b5061038a7f90e45b937a8206cd9165edccea3d6e7eee3817439762d76dd6f0730bb9e8f67181565b348015610522575f80fd5b50600d5461038a565b348015610536575f80fd5b5061038a610545366004612c58565b6111a2565b348015610555575f80fd5b506009546105769073ffffffffffffffffffffffffffffffffffffffff1681565b60405173ffffffffffffffffffffffffffffffffffffffff909116815260200161032d565b3480156105a6575f80fd5b50600a546105769073ffffffffffffffffffffffffffffffffffffffff1681565b3480156105d2575f80fd5b5061038a6105e1366004612c58565b6112c8565b3480156105f1575f80fd5b506105fa6112f2565b60405161032d9796959493929190612d61565b348015610618575f80fd5b50610321610627366004612cc8565b5f91825260086020908152604080842073ffffffffffffffffffffffffffffffffffffffff93909316845291905290205460ff1690565b348015610669575f80fd5b5061034a611350565b34801561067d575f80fd5b5061038a5f81565b348015610690575f80fd5b5061038a670de0b6b3a764000081565b3480156106ab575f80fd5b506103b76106ba366004612c58565b61135f565b3480156106ca575f80fd5b506103216106d9366004612c2e565b6114a7565b6103b76114b4565b3480156106f1575f80fd5b5061038a7f07dadfef42b760da37c1787f23390032c991ba73626ca6711e8fbb581ca48ec581565b348015610724575f80fd5b5061038a610733366004612c58565b73ffffffffffffffffffffffffffffffffffffffff165f908152600c602052604090205490565b348015610765575f80fd5b506103b7610774366004612e2e565b611537565b348015610784575f80fd5b506103b7610793366004612cc8565b6116e0565b3480156107a3575f80fd5b5061038a6107b2366004612e9a565b73ffffffffffffffffffffffffffffffffffffffff9182165f90815260016020908152604080832093909416825291909152205490565b3480156107f4575f80fd5b506103b7610803366004612c2e565b611704565b6103b7610816366004612ec6565b6117b6565b348015610826575f80fd5b50600b546105769073ffffffffffffffffffffffffffffffffffffffff1681565b5f7fffffffff0000000000000000000000000000000000000000000000000000000082167f7965db0b0000000000000000000000000000000000000000000000000000000014806108d957507f01ffc9a7000000000000000000000000000000000000000000000000000000007fffffffff000000000000000000000000000000000000000000000000000000008316145b92915050565b6060600380546108ee90612f13565b80601f016020809104026020016040519081016040528092919081815260200182805461091a90612f13565b80156109655780601f1061093c57610100808354040283529160200191610965565b820191905f5260205f20905b81548152906001019060200180831161094857829003601f168201915b5050505050905090565b5f3361097c818585611bbc565b5060019392505050565b600b545f9073ffffffffffffffffffffffffffffffffffffffff166109ac5750600d5490565b600b54604080517fefa7fa5d00000000000000000000000000000000000000000000000000000000815290515f9273ffffffffffffffffffffffffffffffffffffffff169163efa7fa5d9160048083019260209291908290030181865afa158015610a19573d5f803e3d5ffd5b505050506040513d601f19601f82011682018060405250810190610a3d9190612f5e565b9050670de0b6b3a764000081600d54610a569190612fa2565b610a609190612fb9565b91505090565b7f90e45b937a8206cd9165edccea3d6e7eee3817439762d76dd6f0730bb9e8f671610a9081611bc9565b6009546040805173ffffffffffffffffffffffffffffffffffffffff928316815291841660208301527f56b5f80d8cac1479698aa7d01605fd6111e90b15fc4d2b377417f46034876cbd910160405180910390a150600980547fffffffffffffffffffffffff00000000000000000000000000000000000000001673ffffffffffffffffffffffffffffffffffffffff92909216919091179055565b5f33610b39858285611bd6565b610b44858585611c9e565b506001949350505050565b5f82815260086020526040902060010154610b6981611bc9565b610b738383611d47565b50505050565b5f610b82611e44565b905090565b73ffffffffffffffffffffffffffffffffffffffff81163314610bd6576040517f6697b23200000000000000000000000000000000000000000000000000000000815260040160405180910390fd5b610be08282611f7a565b505050565b5f8311610c4e576040517f08c379a000000000000000000000000000000000000000000000000000000000815260206004820152601d60248201527f416d6f756e74206d7573742062652067726561746572207468616e203000000060448201526064016102f5565b73ffffffffffffffffffffffffffffffffffffffff8216610ccb576040517f08c379a000000000000000000000000000000000000000000000000000000000815260206004820152601160248201527f496e76616c696420726563697069656e7400000000000000000000000000000060448201526064016102f5565b600b54604080517fefa7fa5d00000000000000000000000000000000000000000000000000000000815290515f9273ffffffffffffffffffffffffffffffffffffffff169163efa7fa5d9160048083019260209291908290030181865afa158015610d38573d5f803e3d5ffd5b505050506040513d601f19601f82011682018060405250810190610d5c9190612f5e565b90505f81610d72670de0b6b3a764000087612fa2565b610d7c9190612fb9565b9050610d89335f87612037565b60408051868152602081018390529081018390525f9033907f7e5ae1eb2aec611d2f10191f988af4d446ef89c65ca87c080b439640aa2852da9060600160405180910390a36009546040517f65ab8c710000000000000000000000000000000000000000000000000000000081525f9173ffffffffffffffffffffffffffffffffffffffff16906365ab8c7190610e24908790600401613038565b6060604051808303815f875af1158015610e40573d5f803e3d5ffd5b505050506040513d601f19601f82011682018060405250810190610e6491906130ef565b600a549091505f9073ffffffffffffffffffffffffffffffffffffffff1615610f3e57600a54604080517fff70fa640000000000000000000000000000000000000000000000000000000081526004810186905284516024820152602085015160ff16604482015290840151606482015273ffffffffffffffffffffffffffffffffffffffff9091169063ff70fa64906084016020604051808303815f875af1158015610f13573d5f803e3d5ffd5b505050506040513d601f19601f82011682018060405250810190610f379190612f5e565b9050610fc6565b6040517f08c379a000000000000000000000000000000000000000000000000000000000815260206004820152603860248201527f4275726e696e67206e6f7420737570706f7274656420696e206272696467656460448201527f206d6f646520776974686f75742073746162696c697a6572000000000000000060648201526084016102f5565b81516040805173ffffffffffffffffffffffffffffffffffffffff89168152602081018a90528082018490526060810192909252517f6a8d62de1ac9f1415dd17b430b809682ff1794d5b31015f9acf43fcdf17a68859181900360800190a180156110f3575f8673ffffffffffffffffffffffffffffffffffffffff16826040515f6040518083038185875af1925050503d805f8114611081576040519150601f19603f3d011682016040523d82523d5f602084013e611086565b606091505b50509050806110f1576040517f08c379a000000000000000000000000000000000000000000000000000000000815260206004820152601360248201527f455448207472616e73666572206661696c65640000000000000000000000000060448201526064016102f5565b505b50505050505050565b5f61110681611bc9565b600a546040805173ffffffffffffffffffffffffffffffffffffffff928316815291841660208301527f4fd9930550d5b9b345f1d80bce61f17c1dc8733fa06dea5fa89c47155cbb7741910160405180910390a150600a80547fffffffffffffffffffffffff00000000000000000000000000000000000000001673ffffffffffffffffffffffffffffffffffffffff92909216919091179055565b600b545f9073ffffffffffffffffffffffffffffffffffffffff166111e9575073ffffffffffffffffffffffffffffffffffffffff165f908152600c602052604090205490565b600b54604080517fefa7fa5d00000000000000000000000000000000000000000000000000000000815290515f9273ffffffffffffffffffffffffffffffffffffffff169163efa7fa5d9160048083019260209291908290030181865afa158015611256573d5f803e3d5ffd5b505050506040513d601f19601f8201168201806040525081019061127a9190612f5e565b73ffffffffffffffffffffffffffffffffffffffff84165f908152600c6020526040902054909150670de0b6b3a7640000906112b7908390612fa2565b6112c19190612fb9565b9392505050565b73ffffffffffffffffffffffffffffffffffffffff81165f908152600760205260408120546108d9565b5f6060805f805f60606113036125b7565b61130b6125e4565b604080515f808252602082019092527f0f000000000000000000000000000000000000000000000000000000000000009b939a50919850469750309650945092509050565b6060600480546108ee90612f13565b5f61136981611bc9565b73ffffffffffffffffffffffffffffffffffffffff821661140b576040517f08c379a0000000000000000000000000000000000000000000000000000000008152602060048201526024808201527f5261746520636f6e747261637420616464726573732063616e6e6f742062652060448201527f7a65726f0000000000000000000000000000000000000000000000000000000060648201526084016102f5565b600b546040805173ffffffffffffffffffffffffffffffffffffffff928316815291841660208301527f7f0de29187af70d0a98056dd080553d3dec269c81e80033f3ca34a97b3985d3a910160405180910390a150600b80547fffffffffffffffffffffffff00000000000000000000000000000000000000001673ffffffffffffffffffffffffffffffffffffffff92909216919091179055565b5f3361097c818585611c9e565b600a5473ffffffffffffffffffffffffffffffffffffffff163314611535576040517f08c379a000000000000000000000000000000000000000000000000000000000815260206004820152601e60248201527f4f6e6c792073746162696c697a65722063616e2072657475726e20455448000060448201526064016102f5565b565b83421115611574576040517f62791302000000000000000000000000000000000000000000000000000000008152600481018590526024016102f5565b5f7f6e71edae12b1b97f4d1f60370fef10105fa2faae0126114a169c64845d6126c98888886115cc8c73ffffffffffffffffffffffffffffffffffffffff165f90815260076020526040902080546001810190915590565b60408051602081019690965273ffffffffffffffffffffffffffffffffffffffff94851690860152929091166060840152608083015260a082015260c0810186905260e0016040516020818303038152906040528051906020012090505f61163382612611565b90505f61164282878787612658565b90508973ffffffffffffffffffffffffffffffffffffffff168173ffffffffffffffffffffffffffffffffffffffff16146116c9576040517f4b800e4600000000000000000000000000000000000000000000000000000000815273ffffffffffffffffffffffffffffffffffffffff80831660048301528b1660248201526044016102f5565b6116d48a8a8a611bbc565b50505050505050505050565b5f828152600860205260409020600101546116fa81611bc9565b610b738383611f7a565b7f079847024f21c1f5f8d88daf6764f03ddd70ce4acc6aa7104a85233fe5a7699561172e81611bc9565b6040517f08c379a000000000000000000000000000000000000000000000000000000000815260206004820152602660248201527f72656365697665557365725374455448206e6f742066756c6c7920696d706c6560448201527f6d656e746564000000000000000000000000000000000000000000000000000060648201526084016102f5565b5f341161181f576040517f08c379a000000000000000000000000000000000000000000000000000000000815260206004820152601560248201527f4d7573742073656e642045544820746f206d696e74000000000000000000000060448201526064016102f5565b6009546040517f65ab8c710000000000000000000000000000000000000000000000000000000081525f9173ffffffffffffffffffffffffffffffffffffffff16906365ab8c7190611875908590600401613038565b6060604051808303815f875af1158015611891573d5f803e3d5ffd5b505050506040513d601f19601f820116820180604052508101906118b591906130ef565b602081015190915034905f906118cc90600a613297565b83516118d89084612fa2565b6118e29190612fb9565b90505f600b5f9054906101000a900473ffffffffffffffffffffffffffffffffffffffff1673ffffffffffffffffffffffffffffffffffffffff1663efa7fa5d6040518163ffffffff1660e01b8152600401602060405180830381865afa15801561194f573d5f803e3d5ffd5b505050506040513d601f19601f820116820180604052508101906119739190612f5e565b90505f81611989670de0b6b3a764000085612fa2565b6119939190612fb9565b90506119aa60405180602001604052805f81525090565b600a5473ffffffffffffffffffffffffffffffffffffffff1615611a7b57600a54865160208801516040517f080a896100000000000000000000000000000000000000000000000000000000815260048101869052602481019290925260ff16604482015273ffffffffffffffffffffffffffffffffffffffff9091169063080a896190879060640160206040518083038185885af1158015611a4f573d5f803e3d5ffd5b50505050506040513d601f19601f82011682018060405250810190611a7491906132a5565b9050611a7f565b8481525b5f8086835f01511015611add575f8860200151600a611a9e9190613297565b89518551611aac9190612fa2565b611ab69190612fb9565b905085611acb670de0b6b3a764000083612fa2565b611ad59190612fb9565b925050611ae1565b8391505b670de0b6b3a7640000611af48684612fa2565b611afe9190612fb9565b90508115611b6d57611b115f8b83612037565b604080518281526020810184905290810186905273ffffffffffffffffffffffffffffffffffffffff8b16905f907f6f81d1fde5042de6f9c9436b16e3607bc44f26df15b3e53ffb98b080bf76f1059060600160405180910390a35b82515f90611b7b903461330c565b90508015611baf57604051339082156108fc029083905f818181858888f19350505050158015611bad573d5f803e3d5ffd5b505b5050505050505050505050565b610be08383836001612684565b611bd381336127c9565b50565b73ffffffffffffffffffffffffffffffffffffffff8381165f908152600160209081526040808320938616835292905220547fffffffffffffffffffffffffffffffffffffffffffffffffffffffffffffffff811015610b735781811015611c90576040517ffb8f41b200000000000000000000000000000000000000000000000000000000815273ffffffffffffffffffffffffffffffffffffffff8416600482015260248101829052604481018390526064016102f5565b610b7384848484035f612684565b73ffffffffffffffffffffffffffffffffffffffff8316611ced576040517f96c6fd1e0000000000000000000000000000000000000000000000000000000081525f60048201526024016102f5565b73ffffffffffffffffffffffffffffffffffffffff8216611d3c576040517fec442f050000000000000000000000000000000000000000000000000000000081525f60048201526024016102f5565b610be0838383612037565b5f82815260086020908152604080832073ffffffffffffffffffffffffffffffffffffffff8516845290915281205460ff16611e3d575f83815260086020908152604080832073ffffffffffffffffffffffffffffffffffffffff86168452909152902080547fffffffffffffffffffffffffffffffffffffffffffffffffffffffffffffff00166001179055611ddb3390565b73ffffffffffffffffffffffffffffffffffffffff168273ffffffffffffffffffffffffffffffffffffffff16847f2f8788117e7eff1d82e926ec794901d17c78024a50270940304540a733656f0d60405160405180910390a45060016108d9565b505f6108d9565b5f3073ffffffffffffffffffffffffffffffffffffffff7f000000000000000000000000000000000000000000000000000000000000000016148015611ea957507f000000000000000000000000000000000000000000000000000000000000000046145b15611ed357507f000000000000000000000000000000000000000000000000000000000000000090565b610b82604080517f8b73c3c69bb8fe3d512ecc4cf759cc79239f7b179b0ffacaa9a75d522b39400f60208201527f0000000000000000000000000000000000000000000000000000000000000000918101919091527f000000000000000000000000000000000000000000000000000000000000000060608201524660808201523060a08201525f9060c00160405160208183030381529060405280519060200120905090565b5f82815260086020908152604080832073ffffffffffffffffffffffffffffffffffffffff8516845290915281205460ff1615611e3d575f83815260086020908152604080832073ffffffffffffffffffffffffffffffffffffffff8616808552925280832080547fffffffffffffffffffffffffffffffffffffffffffffffffffffffffffffff0016905551339286917ff6391f5c32d9c69d2a47ea670b442974b53935d1edc7fd64eb21e047a839171b9190a45060016108d9565b73ffffffffffffffffffffffffffffffffffffffff83166121c457600b54604080517fefa7fa5d00000000000000000000000000000000000000000000000000000000815290515f9273ffffffffffffffffffffffffffffffffffffffff169163efa7fa5d9160048083019260209291908290030181865afa1580156120bf573d5f803e3d5ffd5b505050506040513d601f19601f820116820180604052508101906120e39190612f5e565b90505f816120f9670de0b6b3a764000085612fa2565b6121039190612fb9565b905080600d5f828254612116919061331f565b909155505073ffffffffffffffffffffffffffffffffffffffff84165f908152600c60205260408120805483929061214f90849061331f565b925050819055508373ffffffffffffffffffffffffffffffffffffffff168573ffffffffffffffffffffffffffffffffffffffff167fddf252ad1be2c89b69c2b068fc378daa952ba7f163c4a11628f55a4df523b3ef856040516121b591815260200190565b60405180910390a35050505050565b73ffffffffffffffffffffffffffffffffffffffff821661240257600b54604080517fefa7fa5d00000000000000000000000000000000000000000000000000000000815290515f9273ffffffffffffffffffffffffffffffffffffffff169163efa7fa5d9160048083019260209291908290030181865afa15801561224c573d5f803e3d5ffd5b505050506040513d601f19601f820116820180604052508101906122709190612f5e565b90505f81612286670de0b6b3a764000085612fa2565b6122909190612fb9565b73ffffffffffffffffffffffffffffffffffffffff86165f908152600c602052604090205490915081811015612348576040517f08c379a000000000000000000000000000000000000000000000000000000000815260206004820152602260248201527f45524332303a206275726e20616d6f756e7420657863656564732062616c616e60448201527f636500000000000000000000000000000000000000000000000000000000000060648201526084016102f5565b612352828261330c565b73ffffffffffffffffffffffffffffffffffffffff87165f908152600c6020526040812091909155600d805484929061238c90849061330c565b925050819055508473ffffffffffffffffffffffffffffffffffffffff168673ffffffffffffffffffffffffffffffffffffffff167fddf252ad1be2c89b69c2b068fc378daa952ba7f163c4a11628f55a4df523b3ef866040516123f291815260200190565b60405180910390a3505050505050565b600b54604080517fefa7fa5d00000000000000000000000000000000000000000000000000000000815290515f9273ffffffffffffffffffffffffffffffffffffffff169163efa7fa5d9160048083019260209291908290030181865afa15801561246f573d5f803e3d5ffd5b505050506040513d601f19601f820116820180604052508101906124939190612f5e565b90505f816124a9670de0b6b3a764000085612fa2565b6124b39190612fb9565b73ffffffffffffffffffffffffffffffffffffffff86165f908152600c60205260409020549091508181101561256b576040517f08c379a000000000000000000000000000000000000000000000000000000000815260206004820152602660248201527f45524332303a207472616e7366657220616d6f756e742065786365656473206260448201527f616c616e6365000000000000000000000000000000000000000000000000000060648201526084016102f5565b612575828261330c565b73ffffffffffffffffffffffffffffffffffffffff8088165f908152600c6020526040808220939093559087168152908120805484929061238c90849061331f565b6060610b827f00000000000000000000000000000000000000000000000000000000000000006005612854565b6060610b827f00000000000000000000000000000000000000000000000000000000000000006006612854565b5f6108d961261d611e44565b836040517f19010000000000000000000000000000000000000000000000000000000000008152600281019290925260228201526042902090565b5f805f80612668888888886128fd565b92509250925061267882826129f0565b50909695505050505050565b73ffffffffffffffffffffffffffffffffffffffff84166126d3576040517fe602df050000000000000000000000000000000000000000000000000000000081525f60048201526024016102f5565b73ffffffffffffffffffffffffffffffffffffffff8316612722576040517f94280d620000000000000000000000000000000000000000000000000000000081525f60048201526024016102f5565b73ffffffffffffffffffffffffffffffffffffffff8085165f9081526001602090815260408083209387168352929052208290558015610b73578273ffffffffffffffffffffffffffffffffffffffff168473ffffffffffffffffffffffffffffffffffffffff167f8c5be1e5ebec7d5bd14f71427d1e84f3dd0314c0f7b2291e5b200ac8c7c3b925846040516127bb91815260200190565b60405180910390a350505050565b5f82815260086020908152604080832073ffffffffffffffffffffffffffffffffffffffff8516845290915290205460ff16612850576040517fe2517d3f00000000000000000000000000000000000000000000000000000000815273ffffffffffffffffffffffffffffffffffffffff82166004820152602481018390526044016102f5565b5050565b606060ff831461286e5761286783612af3565b90506108d9565b81805461287a90612f13565b80601f01602080910402602001604051908101604052809291908181526020018280546128a690612f13565b80156128f15780601f106128c8576101008083540402835291602001916128f1565b820191905f5260205f20905b8154815290600101906020018083116128d457829003601f168201915b505050505090506108d9565b5f80807f7fffffffffffffffffffffffffffffff5d576e7357a4501ddfe92f46681b20a084111561293657505f915060039050826129e6565b604080515f808252602082018084528a905260ff891692820192909252606081018790526080810186905260019060a0016020604051602081039080840390855afa158015612987573d5f803e3d5ffd5b50506040517fffffffffffffffffffffffffffffffffffffffffffffffffffffffffffffffe0015191505073ffffffffffffffffffffffffffffffffffffffff81166129dd57505f9250600191508290506129e6565b92505f91508190505b9450945094915050565b5f826003811115612a0357612a03613332565b03612a0c575050565b6001826003811115612a2057612a20613332565b03612a57576040517ff645eedf00000000000000000000000000000000000000000000000000000000815260040160405180910390fd5b6002826003811115612a6b57612a6b613332565b03612aa5576040517ffce698f7000000000000000000000000000000000000000000000000000000008152600481018290526024016102f5565b6003826003811115612ab957612ab9613332565b03612850576040517fd78bce0c000000000000000000000000000000000000000000000000000000008152600481018290526024016102f5565b60605f612aff83612b30565b6040805160208082528183019092529192505f91906020820181803683375050509182525060208101929092525090565b5f60ff8216601f8111156108d9576040517fb3512b0c00000000000000000000000000000000000000000000000000000000815260040160405180910390fd5b5f60208284031215612b80575f80fd5b81357fffffffff00000000000000000000000000000000000000000000000000000000811681146112c1575f80fd5b5f81518084528060208401602086015e5f6020828601015260207fffffffffffffffffffffffffffffffffffffffffffffffffffffffffffffffe0601f83011685010191505092915050565b602081525f6112c16020830184612baf565b73ffffffffffffffffffffffffffffffffffffffff81168114611bd3575f80fd5b5f8060408385031215612c3f575f80fd5b8235612c4a81612c0d565b946020939093013593505050565b5f60208284031215612c68575f80fd5b81356112c181612c0d565b5f805f60608486031215612c85575f80fd5b8335612c9081612c0d565b92506020840135612ca081612c0d565b929592945050506040919091013590565b5f60208284031215612cc1575f80fd5b5035919050565b5f8060408385031215612cd9575f80fd5b823591506020830135612ceb81612c0d565b809150509250929050565b5f60a08284031215612d06575f80fd5b50919050565b5f805f60608486031215612d1e575f80fd5b833592506020840135612d3081612c0d565b9150604084013567ffffffffffffffff811115612d4b575f80fd5b612d5786828701612cf6565b9150509250925092565b7fff000000000000000000000000000000000000000000000000000000000000008816815260e060208201525f612d9b60e0830189612baf565b8281036040840152612dad8189612baf565b6060840188905273ffffffffffffffffffffffffffffffffffffffff8716608085015260a0840186905283810360c0850152845180825260208087019350909101905f5b81811015612e0f578351835260209384019390920191600101612df1565b50909b9a5050505050505050505050565b60ff81168114611bd3575f80fd5b5f805f805f805f60e0888a031215612e44575f80fd5b8735612e4f81612c0d565b96506020880135612e5f81612c0d565b955060408801359450606088013593506080880135612e7d81612e20565b9699959850939692959460a0840135945060c09093013592915050565b5f8060408385031215612eab575f80fd5b8235612eb681612c0d565b91506020830135612ceb81612c0d565b5f8060408385031215612ed7575f80fd5b8235612ee281612c0d565b9150602083013567ffffffffffffffff811115612efd575f80fd5b612f0985828601612cf6565b9150509250929050565b600181811c90821680612f2757607f821691505b602082108103612d06577f4e487b71000000000000000000000000000000000000000000000000000000005f52602260045260245ffd5b5f60208284031215612f6e575f80fd5b5051919050565b7f4e487b71000000000000000000000000000000000000000000000000000000005f52601160045260245ffd5b80820281158282048414176108d9576108d9612f75565b5f82612fec577f4e487b71000000000000000000000000000000000000000000000000000000005f52601260045260245ffd5b500490565b81835281816020850137505f602082840101525f60207fffffffffffffffffffffffffffffffffffffffffffffffffffffffffffffffe0601f840116840101905092915050565b60208082528235828201525f9083013561305181612e20565b60ff16604083810191909152830135606080840191909152830135608080840191909152830135368490037fffffffffffffffffffffffffffffffffffffffffffffffffffffffffffffffe10181126130a8575f80fd5b830160208101903567ffffffffffffffff8111156130c4575f80fd5b8036038213156130d2575f80fd5b60a0808501526130e660c085018284612ff1565b95945050505050565b5f6060828403128015613100575f80fd5b506040516060810167ffffffffffffffff81118282101715613149577f4e487b71000000000000000000000000000000000000000000000000000000005f52604160045260245ffd5b60405282518152602083015161315e81612e20565b60208201526040928301519281019290925250919050565b6001815b60018411156131b15780850481111561319557613195612f75565b60018416156131a357908102905b60019390931c92800261317a565b935093915050565b5f826131c7575060016108d9565b816131d357505f6108d9565b81600181146131e957600281146131f35761320f565b60019150506108d9565b60ff84111561320457613204612f75565b50506001821b6108d9565b5060208310610133831016604e8410600b8410161715613232575081810a6108d9565b61325d7fffffffffffffffffffffffffffffffffffffffffffffffffffffffffffffffff8484613176565b807fffffffffffffffffffffffffffffffffffffffffffffffffffffffffffffffff0482111561328f5761328f612f75565b029392505050565b5f6112c160ff8416836131b9565b5f60208284031280156132b6575f80fd5b506040516020810167ffffffffffffffff811182821017156132ff577f4e487b71000000000000000000000000000000000000000000000000000000005f52604160045260245ffd5b6040529151825250919050565b818103818111156108d9576108d9612f75565b808201808211156108d9576108d9612f75565b7f4e487b71000000000000000000000000000000000000000000000000000000005f52602160045260245ffdfea2646970667358221220b808bf0038f80f47a99a04572ef0b66fcd6e638292575fd7bc77ec597c98995064736f6c634300081a0033","linkReferences":{}},"methodIdentifiers":{"DEFAULT_ADMIN_ROLE()":"a217fddf","DOMAIN_SEPARATOR()":"3644e515","EXCESS_COLLATERAL_DRAIN_ROLE()":"b6e33f3b","FACTOR_PRECISION()":"a42c69a9","STABILIZER_ROLE()":"4699643b","UPDATE_ORACLE_ROLE()":"61aa346e","allowance(address,address)":"dd62ed3e","approve(address,uint256)":"095ea7b3","balanceOf(address)":"70a08231","burn(uint256,address,(uint256,uint8,uint256,bytes32,bytes))":"4315d334","decimals()":"313ce567","eip712Domain()":"84b0196e","getRoleAdmin(bytes32)":"248a9ca3","grantRole(bytes32,address)":"2f2ff15d","hasRole(bytes32,address)":"91d14854","mint(address,(uint256,uint8,uint256,bytes32,bytes))":"e7b14eeb","name()":"06fdde03","nonces(address)":"7ecebe00","oracle()":"7dc0d1d0","permit(address,address,uint256,uint256,uint8,bytes32,bytes32)":"d505accf","poolSharesOf(address)":"d3e4317f","rateContract()":"eee24219","receiveStabilizerReturn()":"b09f409d","receiveUserStETH(address,uint256)":"e620e970","renounceRole(bytes32,address)":"36568abe","revokeRole(bytes32,address)":"d547741f","stabilizer()":"7e47961c","supportsInterface(bytes4)":"01ffc9a7","symbol()":"95d89b41","totalPoolShares()":"6d0a67de","totalSupply()":"18160ddd","transfer(address,uint256)":"a9059cbb","transferFrom(address,address,uint256)":"23b872dd","updateOracle(address)":"1cb44dfc","updateRateContract(address)":"a6f4ae27","updateStabilizer(address)":"46dc94c4"},"storageLayout":{"storage":[{"astId":43174,"contract":"src/UspdToken.sol:USPDToken","label":"_balances","offset":0,"slot":"0","type":"t_mapping(t_address,t_uint256)"},{"astId":43180,"contract":"src/UspdToken.sol:USPDToken","label":"_allowances","offset":0,"slot":"1","type":"t_mapping(t_address,t_mapping(t_address,t_uint256))"},{"astId":43182,"contract":"src/UspdToken.sol:USPDToken","label":"_totalSupply","offset":0,"slot":"2","type":"t_uint256"},{"astId":43184,"contract":"src/UspdToken.sol:USPDToken","label":"_name","offset":0,"slot":"3","type":"t_string_storage"},{"astId":43186,"contract":"src/UspdToken.sol:USPDToken","label":"_symbol","offset":0,"slot":"4","type":"t_string_storage"},{"astId":46685,"contract":"src/UspdToken.sol:USPDToken","label":"_nameFallback","offset":0,"slot":"5","type":"t_string_storage"},{"astId":46687,"contract":"src/UspdToken.sol:USPDToken","label":"_versionFallback","offset":0,"slot":"6","type":"t_string_storage"},{"astId":44653,"contract":"src/UspdToken.sol:USPDToken","label":"_nonces","offset":0,"slot":"7","type":"t_mapping(t_address,t_uint256)"},{"astId":41906,"contract":"src/UspdToken.sol:USPDToken","label":"_roles","offset":0,"slot":"8","type":"t_mapping(t_bytes32,t_struct(RoleData)41901_storage)"},{"astId":57354,"contract":"src/UspdToken.sol:USPDToken","label":"oracle","offset":0,"slot":"9","type":"t_contract(PriceOracle)54161"},{"astId":57357,"contract":"src/UspdToken.sol:USPDToken","label":"stabilizer","offset":0,"slot":"10","type":"t_contract(IStabilizerNFT)58397"},{"astId":57360,"contract":"src/UspdToken.sol:USPDToken","label":"rateContract","offset":0,"slot":"11","type":"t_contract(IPoolSharesConversionRate)58273"},{"astId":57364,"contract":"src/UspdToken.sol:USPDToken","label":"_poolShareBalances","offset":0,"slot":"12","type":"t_mapping(t_address,t_uint256)"},{"astId":57366,"contract":"src/UspdToken.sol:USPDToken","label":"_totalPoolShares","offset":0,"slot":"13","type":"t_uint256"},{"astId":57445,"contract":"src/UspdToken.sol:USPDToken","label":"maxMintingSum","offset":0,"slot":"14","type":"t_uint256"}],"types":{"t_address":{"encoding":"inplace","label":"address","numberOfBytes":"20"},"t_bool":{"encoding":"inplace","label":"bool","numberOfBytes":"1"},"t_bytes32":{"encoding":"inplace","label":"bytes32","numberOfBytes":"32"},"t_contract(IPoolSharesConversionRate)58273":{"encoding":"inplace","label":"contract IPoolSharesConversionRate","numberOfBytes":"20"},"t_contract(IStabilizerNFT)58397":{"encoding":"inplace","label":"contract IStabilizerNFT","numberOfBytes":"20"},"t_contract(PriceOracle)54161":{"encoding":"inplace","label":"contract PriceOracle","numberOfBytes":"20"},"t_mapping(t_address,t_bool)":{"encoding":"mapping","key":"t_address","label":"mapping(address => bool)","numberOfBytes":"32","value":"t_bool"},"t_mapping(t_address,t_mapping(t_address,t_uint256))":{"encoding":"mapping","key":"t_address","label":"mapping(address => mapping(address => uint256))","numberOfBytes":"32","value":"t_mapping(t_address,t_uint256)"},"t_mapping(t_address,t_uint256)":{"encoding":"mapping","key":"t_address","label":"mapping(address => uint256)","numberOfBytes":"32","value":"t_uint256"},"t_mapping(t_bytes32,t_struct(RoleData)41901_storage)":{"encoding":"mapping","key":"t_bytes32","label":"mapping(bytes32 => struct AccessControl.RoleData)","numberOfBytes":"32","value":"t_struct(RoleData)41901_storage"},"t_string_storage":{"encoding":"bytes","label":"string","numberOfBytes":"32"},"t_struct(RoleData)41901_storage":{"encoding":"inplace","label":"struct AccessControl.RoleData","numberOfBytes":"64","members":[{"astId":41898,"contract":"src/UspdToken.sol:USPDToken","label":"hasRole","offset":0,"slot":"0","type":"t_mapping(t_address,t_bool)"},{"astId":41900,"contract":"src/UspdToken.sol:USPDToken","label":"adminRole","offset":0,"slot":"1","type":"t_bytes32"}]},"t_uint256":{"encoding":"inplace","label":"uint256","numberOfBytes":"32"}}},"id":79}