{"abi":[{"type":"constructor","inputs":[{"name":"name","type":"string","internalType":"string"},{"name":"symbol","type":"string","internalType":"string"},{"name":"_cuspdTokenAddress","type":"address","internalType":"address"},{"name":"_rateContractAddress","type":"address","internalType":"address"},{"name":"_admin","type":"address","internalType":"address"}],"stateMutability":"nonpayable"},{"type":"receive","stateMutability":"payable"},{"type":"function","name":"DEFAULT_ADMIN_ROLE","inputs":[],"outputs":[{"name":"","type":"bytes32","internalType":"bytes32"}],"stateMutability":"view"},{"type":"function","name":"DOMAIN_SEPARATOR","inputs":[],"outputs":[{"name":"","type":"bytes32","internalType":"bytes32"}],"stateMutability":"view"},{"type":"function","name":"FACTOR_PRECISION","inputs":[],"outputs":[{"name":"","type":"uint256","internalType":"uint256"}],"stateMutability":"view"},{"type":"function","name":"RELAYER_ROLE","inputs":[],"outputs":[{"name":"","type":"bytes32","internalType":"bytes32"}],"stateMutability":"view"},{"type":"function","name":"allowance","inputs":[{"name":"owner","type":"address","internalType":"address"},{"name":"spender","type":"address","internalType":"address"}],"outputs":[{"name":"","type":"uint256","internalType":"uint256"}],"stateMutability":"view"},{"type":"function","name":"approve","inputs":[{"name":"spender","type":"address","internalType":"address"},{"name":"value","type":"uint256","internalType":"uint256"}],"outputs":[{"name":"","type":"bool","internalType":"bool"}],"stateMutability":"nonpayable"},{"type":"function","name":"balanceOf","inputs":[{"name":"account","type":"address","internalType":"address"}],"outputs":[{"name":"","type":"uint256","internalType":"uint256"}],"stateMutability":"view"},{"type":"function","name":"bridgeEscrowAddress","inputs":[],"outputs":[{"name":"","type":"address","internalType":"address"}],"stateMutability":"view"},{"type":"function","name":"burn","inputs":[{"name":"uspdAmount","type":"uint256","internalType":"uint256"},{"name":"priceQuery","type":"tuple","internalType":"struct IPriceOracle.PriceAttestationQuery","components":[{"name":"price","type":"uint256","internalType":"uint256"},{"name":"decimals","type":"uint8","internalType":"uint8"},{"name":"dataTimestamp","type":"uint256","internalType":"uint256"},{"name":"assetPair","type":"bytes32","internalType":"bytes32"},{"name":"signature","type":"bytes","internalType":"bytes"}]}],"outputs":[],"stateMutability":"nonpayable"},{"type":"function","name":"cuspdToken","inputs":[],"outputs":[{"name":"","type":"address","internalType":"contract IcUSPDToken"}],"stateMutability":"view"},{"type":"function","name":"decimals","inputs":[],"outputs":[{"name":"","type":"uint8","internalType":"uint8"}],"stateMutability":"view"},{"type":"function","name":"eip712Domain","inputs":[],"outputs":[{"name":"fields","type":"bytes1","internalType":"bytes1"},{"name":"name","type":"string","internalType":"string"},{"name":"version","type":"string","internalType":"string"},{"name":"chainId","type":"uint256","internalType":"uint256"},{"name":"verifyingContract","type":"address","internalType":"address"},{"name":"salt","type":"bytes32","internalType":"bytes32"},{"name":"extensions","type":"uint256[]","internalType":"uint256[]"}],"stateMutability":"view"},{"type":"function","name":"getRoleAdmin","inputs":[{"name":"role","type":"bytes32","internalType":"bytes32"}],"outputs":[{"name":"","type":"bytes32","internalType":"bytes32"}],"stateMutability":"view"},{"type":"function","name":"grantRole","inputs":[{"name":"role","type":"bytes32","internalType":"bytes32"},{"name":"account","type":"address","internalType":"address"}],"outputs":[],"stateMutability":"nonpayable"},{"type":"function","name":"hasRole","inputs":[{"name":"role","type":"bytes32","internalType":"bytes32"},{"name":"account","type":"address","internalType":"address"}],"outputs":[{"name":"","type":"bool","internalType":"bool"}],"stateMutability":"view"},{"type":"function","name":"lockForBridging","inputs":[{"name":"uspdAmountToBridge","type":"uint256","internalType":"uint256"},{"name":"targetChainId","type":"uint256","internalType":"uint256"}],"outputs":[],"stateMutability":"nonpayable"},{"type":"function","name":"mint","inputs":[{"name":"to","type":"address","internalType":"address"},{"name":"priceQuery","type":"tuple","internalType":"struct IPriceOracle.PriceAttestationQuery","components":[{"name":"price","type":"uint256","internalType":"uint256"},{"name":"decimals","type":"uint8","internalType":"uint8"},{"name":"dataTimestamp","type":"uint256","internalType":"uint256"},{"name":"assetPair","type":"bytes32","internalType":"bytes32"},{"name":"signature","type":"bytes","internalType":"bytes"}]}],"outputs":[],"stateMutability":"payable"},{"type":"function","name":"name","inputs":[],"outputs":[{"name":"","type":"string","internalType":"string"}],"stateMutability":"view"},{"type":"function","name":"nonces","inputs":[{"name":"owner","type":"address","internalType":"address"}],"outputs":[{"name":"","type":"uint256","internalType":"uint256"}],"stateMutability":"view"},{"type":"function","name":"permit","inputs":[{"name":"owner","type":"address","internalType":"address"},{"name":"spender","type":"address","internalType":"address"},{"name":"value","type":"uint256","internalType":"uint256"},{"name":"deadline","type":"uint256","internalType":"uint256"},{"name":"v","type":"uint8","internalType":"uint8"},{"name":"r","type":"bytes32","internalType":"bytes32"},{"name":"s","type":"bytes32","internalType":"bytes32"}],"outputs":[],"stateMutability":"nonpayable"},{"type":"function","name":"rateContract","inputs":[],"outputs":[{"name":"","type":"address","internalType":"contract IPoolSharesConversionRate"}],"stateMutability":"view"},{"type":"function","name":"renounceRole","inputs":[{"name":"role","type":"bytes32","internalType":"bytes32"},{"name":"callerConfirmation","type":"address","internalType":"address"}],"outputs":[],"stateMutability":"nonpayable"},{"type":"function","name":"revokeRole","inputs":[{"name":"role","type":"bytes32","internalType":"bytes32"},{"name":"account","type":"address","internalType":"address"}],"outputs":[],"stateMutability":"nonpayable"},{"type":"function","name":"roundUpEnabled","inputs":[{"name":"user","type":"address","internalType":"address"}],"outputs":[{"name":"","type":"bool","internalType":"bool"}],"stateMutability":"view"},{"type":"function","name":"setBridgeEscrowAddress","inputs":[{"name":"_bridgeEscrowAddress","type":"address","internalType":"address"}],"outputs":[],"stateMutability":"nonpayable"},{"type":"function","name":"setRoundUpPreference","inputs":[{"name":"preference","type":"uint8","internalType":"enum USPDToken.RoundUpPreference"}],"outputs":[],"stateMutability":"nonpayable"},{"type":"function","name":"setSystemDefaultRoundUp","inputs":[{"name":"enabled","type":"bool","internalType":"bool"}],"outputs":[],"stateMutability":"nonpayable"},{"type":"function","name":"supportsInterface","inputs":[{"name":"interfaceId","type":"bytes4","internalType":"bytes4"}],"outputs":[{"name":"","type":"bool","internalType":"bool"}],"stateMutability":"view"},{"type":"function","name":"symbol","inputs":[],"outputs":[{"name":"","type":"string","internalType":"string"}],"stateMutability":"view"},{"type":"function","name":"systemDefaultRoundUp","inputs":[],"outputs":[{"name":"","type":"bool","internalType":"bool"}],"stateMutability":"view"},{"type":"function","name":"totalSupply","inputs":[],"outputs":[{"name":"","type":"uint256","internalType":"uint256"}],"stateMutability":"view"},{"type":"function","name":"transfer","inputs":[{"name":"to","type":"address","internalType":"address"},{"name":"uspdAmount","type":"uint256","internalType":"uint256"}],"outputs":[{"name":"","type":"bool","internalType":"bool"}],"stateMutability":"nonpayable"},{"type":"function","name":"transferFrom","inputs":[{"name":"from","type":"address","internalType":"address"},{"name":"to","type":"address","internalType":"address"},{"name":"uspdAmount","type":"uint256","internalType":"uint256"}],"outputs":[{"name":"","type":"bool","internalType":"bool"}],"stateMutability":"nonpayable"},{"type":"function","name":"unlockFromBridging","inputs":[{"name":"recipient","type":"address","internalType":"address"},{"name":"uspdAmountIntended","type":"uint256","internalType":"uint256"},{"name":"sourceChainYieldFactor","type":"uint256","internalType":"uint256"},{"name":"sourceChainId","type":"uint256","internalType":"uint256"}],"outputs":[],"stateMutability":"nonpayable"},{"type":"function","name":"updateCUSPDAddress","inputs":[{"name":"newCUSPDAddress","type":"address","internalType":"address"}],"outputs":[],"stateMutability":"nonpayable"},{"type":"function","name":"updateRateContract","inputs":[{"name":"newRateContract","type":"address","internalType":"address"}],"outputs":[],"stateMutability":"nonpayable"},{"type":"function","name":"userRoundUpPreference","inputs":[{"name":"","type":"address","internalType":"address"}],"outputs":[{"name":"","type":"uint8","internalType":"enum USPDToken.RoundUpPreference"}],"stateMutability":"view"},{"type":"event","name":"Approval","inputs":[{"name":"owner","type":"address","indexed":true,"internalType":"address"},{"name":"spender","type":"address","indexed":true,"internalType":"address"},{"name":"value","type":"uint256","indexed":false,"internalType":"uint256"}],"anonymous":false},{"type":"event","name":"BridgeEscrowAddressUpdated","inputs":[{"name":"oldAddress","type":"address","indexed":true,"internalType":"address"},{"name":"newAddress","type":"address","indexed":true,"internalType":"address"}],"anonymous":false},{"type":"event","name":"CUSPDAddressUpdated","inputs":[{"name":"oldCUSPDAddress","type":"address","indexed":true,"internalType":"address"},{"name":"newCUSPDAddress","type":"address","indexed":true,"internalType":"address"}],"anonymous":false},{"type":"event","name":"EIP712DomainChanged","inputs":[],"anonymous":false},{"type":"event","name":"LockForBridgingInitiated","inputs":[{"name":"tokenAdapter","type":"address","indexed":true,"internalType":"address"},{"name":"targetChainId","type":"uint256","indexed":true,"internalType":"uint256"},{"name":"uspdAmount","type":"uint256","indexed":false,"internalType":"uint256"},{"name":"cUSPDShareAmount","type":"uint256","indexed":false,"internalType":"uint256"}],"anonymous":false},{"type":"event","name":"RateContractUpdated","inputs":[{"name":"oldRateContract","type":"address","indexed":true,"internalType":"address"},{"name":"newRateContract","type":"address","indexed":true,"internalType":"address"}],"anonymous":false},{"type":"event","name":"RoleAdminChanged","inputs":[{"name":"role","type":"bytes32","indexed":true,"internalType":"bytes32"},{"name":"previousAdminRole","type":"bytes32","indexed":true,"internalType":"bytes32"},{"name":"newAdminRole","type":"bytes32","indexed":true,"internalType":"bytes32"}],"anonymous":false},{"type":"event","name":"RoleGranted","inputs":[{"name":"role","type":"bytes32","indexed":true,"internalType":"bytes32"},{"name":"account","type":"address","indexed":true,"internalType":"address"},{"name":"sender","type":"address","indexed":true,"internalType":"address"}],"anonymous":false},{"type":"event","name":"RoleRevoked","inputs":[{"name":"role","type":"bytes32","indexed":true,"internalType":"bytes32"},{"name":"account","type":"address","indexed":true,"internalType":"address"},{"name":"sender","type":"address","indexed":true,"internalType":"address"}],"anonymous":false},{"type":"event","name":"SystemRoundUpDefaultUpdated","inputs":[{"name":"enabled","type":"bool","indexed":false,"internalType":"bool"}],"anonymous":false},{"type":"event","name":"Transfer","inputs":[{"name":"from","type":"address","indexed":true,"internalType":"address"},{"name":"to","type":"address","indexed":true,"internalType":"address"},{"name":"value","type":"uint256","indexed":false,"internalType":"uint256"}],"anonymous":false},{"type":"event","name":"UnlockFromBridgingInitiated","inputs":[{"name":"recipient","type":"address","indexed":true,"internalType":"address"},{"name":"sourceChainId","type":"uint256","indexed":true,"internalType":"uint256"},{"name":"uspdAmountIntended","type":"uint256","indexed":false,"internalType":"uint256"},{"name":"sourceChainYieldFactor","type":"uint256","indexed":false,"internalType":"uint256"},{"name":"cUSPDShareAmount","type":"uint256","indexed":false,"internalType":"uint256"}],"anonymous":false},{"type":"event","name":"UserRoundUpPreferenceUpdated","inputs":[{"name":"user","type":"address","indexed":true,"internalType":"address"},{"name":"preference","type":"uint8","indexed":false,"internalType":"enum USPDToken.RoundUpPreference"}],"anonymous":false},{"type":"error","name":"AccessControlBadConfirmation","inputs":[]},{"type":"error","name":"AccessControlUnauthorizedAccount","inputs":[{"name":"account","type":"address","internalType":"address"},{"name":"neededRole","type":"bytes32","internalType":"bytes32"}]},{"type":"error","name":"AmountTooSmall","inputs":[]},{"type":"error","name":"BridgeEscrowNotSet","inputs":[]},{"type":"error","name":"ECDSAInvalidSignature","inputs":[]},{"type":"error","name":"ECDSAInvalidSignatureLength","inputs":[{"name":"length","type":"uint256","internalType":"uint256"}]},{"type":"error","name":"ECDSAInvalidSignatureS","inputs":[{"name":"s","type":"bytes32","internalType":"bytes32"}]},{"type":"error","name":"ERC20InsufficientAllowance","inputs":[{"name":"spender","type":"address","internalType":"address"},{"name":"allowance","type":"uint256","internalType":"uint256"},{"name":"needed","type":"uint256","internalType":"uint256"}]},{"type":"error","name":"ERC20InsufficientBalance","inputs":[{"name":"sender","type":"address","internalType":"address"},{"name":"balance","type":"uint256","internalType":"uint256"},{"name":"needed","type":"uint256","internalType":"uint256"}]},{"type":"error","name":"ERC20InvalidApprover","inputs":[{"name":"approver","type":"address","internalType":"address"}]},{"type":"error","name":"ERC20InvalidReceiver","inputs":[{"name":"receiver","type":"address","internalType":"address"}]},{"type":"error","name":"ERC20InvalidSender","inputs":[{"name":"sender","type":"address","internalType":"address"}]},{"type":"error","name":"ERC20InvalidSpender","inputs":[{"name":"spender","type":"address","internalType":"address"}]},{"type":"error","name":"ERC2612ExpiredSignature","inputs":[{"name":"deadline","type":"uint256","internalType":"uint256"}]},{"type":"error","name":"ERC2612InvalidSigner","inputs":[{"name":"signer","type":"address","internalType":"address"},{"name":"owner","type":"address","internalType":"address"}]},{"type":"error","name":"InvalidAccountNonce","inputs":[{"name":"account","type":"address","internalType":"address"},{"name":"currentNonce","type":"uint256","internalType":"uint256"}]},{"type":"error","name":"InvalidShortString","inputs":[]},{"type":"error","name":"InvalidYieldFactor","inputs":[]},{"type":"error","name":"StringTooLong","inputs":[{"name":"str","type":"string","internalType":"string"}]},{"type":"error","name":"ZeroAddress","inputs":[]}],"bytecode":{"object":"0x610160604052600d805460ff1916600117905534801561001d575f5ffd5b5060405161347338038061347383398101604081905261003c91610446565b6040805180820190915260018152603160f81b60208201528590819081876003610066838261055f565b506004610073828261055f565b5061008391508390506005610274565b61012052610092816006610274565b61014052815160208084019190912060e052815190820120610100524660a05261011e60e05161010051604080517f8b73c3c69bb8fe3d512ecc4cf759cc79239f7b179b0ffacaa9a75d522b39400f60208201529081019290925260608201524660808201523060a08201525f9060c00160405160208183030381529060405280519060200120905090565b60805250503060c052506001600160a01b0383166101835760405162461bcd60e51b815260206004820152601860248201527f555350443a205a65726f2063555350442061646472657373000000000000000060448201526064015b60405180910390fd5b6001600160a01b0382166101d95760405162461bcd60e51b815260206004820181905260248201527f555350443a205a65726f207261746520636f6e74726163742061646472657373604482015260640161017a565b6001600160a01b03811661022f5760405162461bcd60e51b815260206004820152601860248201527f555350443a205a65726f2061646d696e20616464726573730000000000000000604482015260640161017a565b600980546001600160a01b038086166001600160a01b031992831617909255600a8054928516929091169190911790556102695f826102a6565b505050505050610671565b5f60208351101561028f5761028883610351565b90506102a0565b8161029a848261055f565b5060ff90505b92915050565b5f8281526008602090815260408083206001600160a01b038516845290915281205460ff1661034a575f8381526008602090815260408083206001600160a01b03861684529091529020805460ff191660011790556103023390565b6001600160a01b0316826001600160a01b0316847f2f8788117e7eff1d82e926ec794901d17c78024a50270940304540a733656f0d60405160405180910390a45060016102a0565b505f6102a0565b5f5f829050601f8151111561037b578260405163305a27a960e01b815260040161017a9190610619565b80516103868261064e565b179392505050565b634e487b7160e01b5f52604160045260245ffd5b5f82601f8301126103b1575f5ffd5b81516001600160401b038111156103ca576103ca61038e565b604051601f8201601f19908116603f011681016001600160401b03811182821017156103f8576103f861038e565b60405281815283820160200185101561040f575f5ffd5b8160208501602083015e5f918101602001919091529392505050565b80516001600160a01b0381168114610441575f5ffd5b919050565b5f5f5f5f5f60a0868803121561045a575f5ffd5b85516001600160401b0381111561046f575f5ffd5b61047b888289016103a2565b602088015190965090506001600160401b03811115610498575f5ffd5b6104a4888289016103a2565b9450506104b36040870161042b565b92506104c16060870161042b565b91506104cf6080870161042b565b90509295509295909350565b600181811c908216806104ef57607f821691505b60208210810361050d57634e487b7160e01b5f52602260045260245ffd5b50919050565b601f82111561055a57805f5260205f20601f840160051c810160208510156105385750805b601f840160051c820191505b81811015610557575f8155600101610544565b50505b505050565b81516001600160401b038111156105785761057861038e565b61058c8161058684546104db565b84610513565b6020601f8211600181146105be575f83156105a75750848201515b5f19600385901b1c1916600184901b178455610557565b5f84815260208120601f198516915b828110156105ed57878501518255602094850194600190920191016105cd565b508482101561060a57868401515f19600387901b60f8161c191681555b50505050600190811b01905550565b602081525f82518060208401528060208501604085015e5f604082850101526040601f19601f83011684010191505092915050565b8051602080830151919081101561050d575f1960209190910360031b1b16919050565b60805160a05160c05160e051610100516101205161014051612db16106c25f395f61237401525f61234701525f61228501525f61225d01525f6121b801525f6121e201525f61220c0152612db15ff3fe608060405260043610610215575f3560e01c80637d08a7711161011e578063a6f4ae27116100a8578063d547741f1161006d578063d547741f146106b7578063dac3970e146106d6578063dd62ed3e146106f5578063e7b14eeb14610739578063eee242191461074c575f5ffd5b8063a6f4ae271461061c578063a9059cbb1461063b578063b6501f051461065a578063babc678f14610679578063d505accf14610698575f5ffd5b8063923bf6e2116100ee578063923bf6e21461056c578063926d7d7f146105a757806395d89b41146105da578063a217fddf146105ee578063a42c69a914610601575f5ffd5b80637d08a771146104e85780637ecebe001461050757806384b0196e1461052657806391d148541461054d575f5ffd5b8063313ce5671161019f57806345301bfe1161016f57806345301bfe1461045357806351cab913146104725780635b3cc7a4146104915780636bc05b7e146104aa57806370a08231146104c9575f5ffd5b8063313ce567146103e65780633644e5151461040157806336568abe146104155780633b31594914610434575f5ffd5b806318160ddd116101e557806318160ddd146103215780631a2a4a8e1461034357806323b872dd1461037a578063248a9ca3146103995780632f2ff15d146103c7575f5ffd5b806301ffc9a71461028e57806306fdde03146102c2578063095ea7b3146102e35780630a9c681914610302575f5ffd5b3661028a576009546001600160a01b031633146102885760405162461bcd60e51b815260206004820152602660248201527f555350443a2044697265637420455448207472616e7366657273206e6f7420616044820152651b1b1bddd95960d21b60648201526084015b60405180910390fd5b005b5f5ffd5b348015610299575f5ffd5b506102ad6102a836600461278e565b61076b565b60405190151581526020015b60405180910390f35b3480156102cd575f5ffd5b506102d66107a1565b6040516102b991906127e3565b3480156102ee575f5ffd5b506102ad6102fd366004612809565b610831565b34801561030d575f5ffd5b5061028861031c366004612833565b610848565b34801561032c575f5ffd5b506103356108d5565b6040519081526020016102b9565b34801561034e575f5ffd5b50600b54610362906001600160a01b031681565b6040516001600160a01b0390911681526020016102b9565b348015610385575f5ffd5b506102ad61039436600461284e565b610a15565b3480156103a4575f5ffd5b506103356103b336600461288c565b5f9081526008602052604090206001015490565b3480156103d2575f5ffd5b506102886103e13660046128a3565b610c15565b3480156103f1575f5ffd5b50604051601281526020016102b9565b34801561040c575f5ffd5b50610335610c3f565b348015610420575f5ffd5b5061028861042f3660046128a3565b610c4d565b34801561043f575f5ffd5b5061028861044e3660046128de565b610c85565b34801561045e575f5ffd5b506102ad61046d366004612833565b610cd7565b34801561047d575f5ffd5b5061028861048c3660046128f9565b610ce1565b34801561049c575f5ffd5b50600d546102ad9060ff1681565b3480156104b5575f5ffd5b50600954610362906001600160a01b031681565b3480156104d4575f5ffd5b506103356104e3366004612833565b610e92565b3480156104f3575f5ffd5b50610288610502366004612931565b610fcf565b348015610512575f5ffd5b50610335610521366004612833565b611218565b348015610531575f5ffd5b5061053a611235565b6040516102b99796959493929190612951565b348015610558575f5ffd5b506102ad6105673660046128a3565b611277565b348015610577575f5ffd5b5061059a610586366004612833565b600c6020525f908152604090205460ff1681565b6040516102b991906129fb565b3480156105b2575f5ffd5b506103357fe2b7fb3b832174769106daebcfd6d1970523240dda11281102db9363b83b0dc481565b3480156105e5575f5ffd5b506102d66112a1565b3480156105f9575f5ffd5b506103355f81565b34801561060c575f5ffd5b50610335670de0b6b3a764000081565b348015610627575f5ffd5b50610288610636366004612833565b6112b0565b348015610646575f5ffd5b506102ad610655366004612809565b61133d565b348015610665575f5ffd5b50610288610674366004612833565b611553565b348015610684575f5ffd5b50610288610693366004612a31565b6115e0565b3480156106a3575f5ffd5b506102886106b2366004612a8a565b611c55565b3480156106c2575f5ffd5b506102886106d13660046128a3565b611d8b565b3480156106e1575f5ffd5b506102886106f0366004612af4565b611daf565b348015610700575f5ffd5b5061033561070f366004612b12565b6001600160a01b039182165f90815260016020908152604080832093909416825291909152205490565b610288610747366004612b3e565b611e23565b348015610757575f5ffd5b50600a54610362906001600160a01b031681565b5f6001600160e01b03198216637965db0b60e01b148061079b57506301ffc9a760e01b6001600160e01b03198316145b92915050565b6060600380546107b090612b75565b80601f01602080910402602001604051908101604052809291908181526020018280546107dc90612b75565b80156108275780601f106107fe57610100808354040283529160200191610827565b820191905f5260205f20905b81548152906001019060200180831161080a57829003601f168201915b5050505050905090565b5f3361083e81858561201a565b5060019392505050565b5f61085281612027565b6001600160a01b0382166108795760405163d92e233d60e01b815260040160405180910390fd5b6009546040516001600160a01b038085169216907f974190c639ecade8910423bd4d87599b333611969e577aca3bb7135069ea9723905f90a350600980546001600160a01b0319166001600160a01b0392909216919091179055565b600a545f906001600160a01b031615806108f857506009546001600160a01b0316155b1561090257505f90565b600a546040805163efa7fa5d60e01b815290515f926001600160a01b03169163efa7fa5d9160048083019260209291908290030181865afa158015610949573d5f5f3e3d5ffd5b505050506040513d601f19601f8201168201806040525081019061096d9190612ba7565b9050805f0361097d575f91505090565b670de0b6b3a76400008160095f9054906101000a90046001600160a01b03166001600160a01b03166318160ddd6040518163ffffffff1660e01b8152600401602060405180830381865afa1580156109d7573d5f5f3e3d5ffd5b505050506040513d601f19601f820116820180604052508101906109fb9190612ba7565b610a059190612bd2565b610a0f9190612be9565b91505090565b5f5f600a5f9054906101000a90046001600160a01b03166001600160a01b031663efa7fa5d6040518163ffffffff1660e01b8152600401602060405180830381865afa158015610a67573d5f5f3e3d5ffd5b505050506040513d601f19601f82011682018060405250810190610a8b9190612ba7565b9050805f03610aad57604051637278bcd360e01b815260040160405180910390fd5b5f610ab786612034565b15610af75781600181610ad2670de0b6b3a764000088612bd2565b610adc9190612c08565b610ae69190612c1b565b610af09190612be9565b9050610b17565b81610b0a670de0b6b3a764000086612bd2565b610b149190612be9565b90505b80158015610b2457505f84115b15610b425760405163617ab12d60e11b815260040160405180910390fd5b5f670de0b6b3a7640000610b568484612bd2565b610b609190612be9565b9050610b6d8733876120a5565b600954604051631cb1df1560e31b81526001600160a01b039091169063e58ef8a890610ba1908a908a908790600401612c2e565b5f604051808303815f87803b158015610bb8575f5ffd5b505af1158015610bca573d5f5f3e3d5ffd5b50505050856001600160a01b0316876001600160a01b03165f516020612d915f395f51905f5283604051610c0091815260200190565b60405180910390a35060019695505050505050565b5f82815260086020526040902060010154610c2f81612027565b610c39838361211b565b50505050565b5f610c486121ac565b905090565b6001600160a01b0381163314610c765760405163334bd91960e11b815260040160405180910390fd5b610c8082826122d5565b505050565b5f610c8f81612027565b600d805460ff19168315159081179091556040519081527fe0b10548c8b5b36d2fdb28686096fcb4525998dd4176e35e32ecd9e1c089ca509060200160405180910390a15050565b5f61079b82612034565b7fe2b7fb3b832174769106daebcfd6d1970523240dda11281102db9363b83b0dc4610d0b81612027565b600b546001600160a01b0316610d34576040516337cc76b960e01b815260040160405180910390fd5b6001600160a01b038516610d5b5760405163d92e233d60e01b815260040160405180910390fd5b825f03610d7b57604051637278bcd360e01b815260040160405180910390fd5b5f83610d8f670de0b6b3a764000087612bd2565b610d999190612be9565b905080158015610da857505f85115b15610dc65760405163617ab12d60e11b815260040160405180910390fd5b600b5460405163727fca5f60e01b81526001600160a01b038881166004830152602482018490526044820186905260648201889052608482018790529091169063727fca5f9060a4015f604051808303815f87803b158015610e26575f5ffd5b505af1158015610e38573d5f5f3e3d5ffd5b505060408051888152602081018890529081018490528592506001600160a01b03891691507f3ddf88d4935a0e526d3301fcc42bd043672d906fbf6ab83fc5b3d51b52fe229f9060600160405180910390a3505050505050565b600a545f906001600160a01b03161580610eb557506009546001600160a01b0316155b15610ec157505f919050565b600a546040805163efa7fa5d60e01b815290515f926001600160a01b03169163efa7fa5d9160048083019260209291908290030181865afa158015610f08573d5f5f3e3d5ffd5b505050506040513d601f19601f82011682018060405250810190610f2c9190612ba7565b9050805f03610f3d57505f92915050565b6009546040516370a0823160e01b81526001600160a01b038581166004830152670de0b6b3a76400009284929116906370a0823190602401602060405180830381865afa158015610f90573d5f5f3e3d5ffd5b505050506040513d601f19601f82011682018060405250810190610fb49190612ba7565b610fbe9190612bd2565b610fc89190612be9565b9392505050565b7fe2b7fb3b832174769106daebcfd6d1970523240dda11281102db9363b83b0dc4610ff981612027565b600b546001600160a01b0316611022576040516337cc76b960e01b815260040160405180910390fd5b600a546040805163efa7fa5d60e01b815290515f926001600160a01b03169163efa7fa5d9160048083019260209291908290030181865afa158015611069573d5f5f3e3d5ffd5b505050506040513d601f19601f8201168201806040525081019061108d9190612ba7565b9050805f036110af57604051637278bcd360e01b815260040160405180910390fd5b5f816110c3670de0b6b3a764000087612bd2565b6110cd9190612be9565b9050801580156110dc57505f85115b156110fa5760405163617ab12d60e11b815260040160405180910390fd5b600954600b54604051631cb1df1560e31b81526001600160a01b039283169263e58ef8a892611133923392909116908690600401612c2e565b5f604051808303815f87803b15801561114a575f5ffd5b505af115801561115c573d5f5f3e3d5ffd5b5050600b546040516375ca208d60e01b8152600481018590526024810188905260448101899052606481018690523360848201526001600160a01b0390911692506375ca208d915060a4015f604051808303815f87803b1580156111be575f5ffd5b505af11580156111d0573d5f5f3e3d5ffd5b505060408051888152602081018590528793503392507fe8d4f7eb343525ad4e1e4e5d4ffbdf599818752c9296f694ba3e23f8e89b75a0910160405180910390a35050505050565b6001600160a01b0381165f9081526007602052604081205461079b565b5f6060805f5f5f6060611246612340565b61124e61236d565b604080515f80825260208201909252600f60f81b9b939a50919850469750309650945092509050565b5f9182526008602090815260408084206001600160a01b0393909316845291905290205460ff1690565b6060600480546107b090612b75565b5f6112ba81612027565b6001600160a01b0382166112e15760405163d92e233d60e01b815260040160405180910390fd5b600a546040516001600160a01b038085169216907f7f0de29187af70d0a98056dd080553d3dec269c81e80033f3ca34a97b3985d3a905f90a350600a80546001600160a01b0319166001600160a01b0392909216919091179055565b5f5f600a5f9054906101000a90046001600160a01b03166001600160a01b031663efa7fa5d6040518163ffffffff1660e01b8152600401602060405180830381865afa15801561138f573d5f5f3e3d5ffd5b505050506040513d601f19601f820116820180604052508101906113b39190612ba7565b9050805f036113d557604051637278bcd360e01b815260040160405180910390fd5b825f036113f55760405163617ab12d60e11b815260040160405180910390fd5b5f6113ff33612034565b1561143f578160018161141a670de0b6b3a764000088612bd2565b6114249190612c08565b61142e9190612c1b565b6114389190612be9565b905061145f565b81611452670de0b6b3a764000086612bd2565b61145c9190612be9565b90505b8015801561146c57505f84115b1561148a5760405163617ab12d60e11b815260040160405180910390fd5b600954604051631cb1df1560e31b81526001600160a01b039091169063e58ef8a8906114be90339089908690600401612c2e565b5f604051808303815f87803b1580156114d5575f5ffd5b505af11580156114e7573d5f5f3e3d5ffd5b505050505f670de0b6b3a764000083836115019190612bd2565b61150b9190612be9565b9050856001600160a01b0316336001600160a01b03165f516020612d915f395f51905f528360405161153f91815260200190565b60405180910390a350600195945050505050565b5f61155d81612027565b6001600160a01b0382166115845760405163d92e233d60e01b815260040160405180910390fd5b600b546040516001600160a01b038085169216907f0842e0125c5dd8fb48b1a967ae420e8954c9ccb1f6a29f83ff9da9204895ff1a905f90a350600b80546001600160a01b0319166001600160a01b0392909216919091179055565b600a546040805163efa7fa5d60e01b815290515f926001600160a01b03169163efa7fa5d9160048083019260209291908290030181865afa158015611627573d5f5f3e3d5ffd5b505050506040513d601f19601f8201168201806040525081019061164b9190612ba7565b9050805f0361166d57604051637278bcd360e01b815260040160405180910390fd5b5f83116116c75760405162461bcd60e51b815260206004820152602260248201527f555350443a204275726e20616d6f756e74206d75737420626520706f73697469604482015261766560f01b606482015260840161027f565b826116d133610e92565b101561171f5760405162461bcd60e51b815260206004820152601a60248201527f555350443a20496e73756666696369656e742062616c616e6365000000000000604482015260640161027f565b5f81611733670de0b6b3a764000086612bd2565b61173d9190612be9565b9050805f0361175f5760405163617ab12d60e11b815260040160405180910390fd5b600a546040805163183fc7c960e31b815290515f926001600160a01b03169163c1fe3e489160048083019260209291908290030181865afa1580156117a6573d5f5f3e3d5ffd5b505050506040513d601f19601f820116820180604052508101906117ca9190612c52565b90506001600160a01b0381166118225760405162461bcd60e51b815260206004820152601b60248201527f555350443a20496e76616c696420737445544820616464726573730000000000604482015260640161027f565b6040516370a0823160e01b815230600482015281905f906001600160a01b038316906370a0823190602401602060405180830381865afa158015611868573d5f5f3e3d5ffd5b505050506040513d601f19601f8201168201806040525081019061188c9190612ba7565b6009546040516370a0823160e01b81523060048201529192505f916001600160a01b03909116906370a0823190602401602060405180830381865afa1580156118d7573d5f5f3e3d5ffd5b505050506040513d601f19601f820116820180604052508101906118fb9190612ba7565b600954604051631cb1df1560e31b81529192506001600160a01b03169063e58ef8a89061193090339030908a90600401612c2e565b5f604051808303815f87803b158015611947575f5ffd5b505af1158015611959573d5f5f3e3d5ffd5b5050600954604051638441871360e01b81526001600160a01b0390911692506384418713915061199190889030908c90600401612d21565b6020604051808303815f875af11580156119ad573d5f5f3e3d5ffd5b505050506040513d601f19601f820116820180604052508101906119d19190612ba7565b506040516370a0823160e01b81523060048201525f906001600160a01b038516906370a0823190602401602060405180830381865afa158015611a16573d5f5f3e3d5ffd5b505050506040513d601f19601f82011682018060405250810190611a3a9190612ba7565b6009546040516370a0823160e01b81523060048201529192505f916001600160a01b03909116906370a0823190602401602060405180830381865afa158015611a85573d5f5f3e3d5ffd5b505050506040513d601f19601f82011682018060405250810190611aa99190612ba7565b90505f611ab68584612c1b565b90505f611ac38584612c1b565b90508115611b855760405163a9059cbb60e01b8152336004820152602481018390526001600160a01b0388169063a9059cbb906044016020604051808303815f875af1158015611b15573d5f5f3e3d5ffd5b505050506040513d601f19601f82011682018060405250810190611b399190612d4a565b611b855760405162461bcd60e51b815260206004820152601b60248201527f555350443a207374455448207472616e73666572206661696c65640000000000604482015260640161027f565b8015611bed57600954604051631cb1df1560e31b81526001600160a01b039091169063e58ef8a890611bbf90309033908690600401612c2e565b5f604051808303815f87803b158015611bd6575f5ffd5b505af1158015611be8573d5f5f3e3d5ffd5b505050505b5f611bf8828b612c1b565b90505f670de0b6b3a7640000611c0e8d84612bd2565b611c189190612be9565b90508015611c45576040518181525f9033905f516020612d915f395f51905f529060200160405180910390a35b5050505050505050505050505050565b83421115611c795760405163313c898160e11b81526004810185905260240161027f565b5f7f6e71edae12b1b97f4d1f60370fef10105fa2faae0126114a169c64845d6126c9888888611cc48c6001600160a01b03165f90815260076020526040902080546001810190915590565b6040805160208101969096526001600160a01b0394851690860152929091166060840152608083015260a082015260c0810186905260e0016040516020818303038152906040528051906020012090505f611d1e8261239a565b90505f611d2d828787876123c6565b9050896001600160a01b0316816001600160a01b031614611d74576040516325c0072360e11b81526001600160a01b0380831660048301528b16602482015260440161027f565b611d7f8a8a8a61201a565b50505050505050505050565b5f82815260086020526040902060010154611da581612027565b610c3983836122d5565b335f908152600c60205260409020805482919060ff19166001836002811115611dda57611dda6129e7565b0217905550336001600160a01b03167fac5934f79a29c4c7b91883b406ec6d2d80d24b6be82aef979aba3c12d5dbca5c82604051611e1891906129fb565b60405180910390a250565b6001600160a01b038216611e795760405162461bcd60e51b815260206004820152601a60248201527f555350443a204d696e7420746f207a65726f2061646472657373000000000000604482015260640161027f565b6009546001600160a01b0316611ea25760405163d92e233d60e01b815260040160405180910390fd5b5f611eac83610e92565b60095460405163bda11bed60e01b81529192505f916001600160a01b039091169063bda11bed903490611ee59088908890600401612d65565b60206040518083038185885af1158015611f01573d5f5f3e3d5ffd5b50505050506040513d601f19601f82011682018060405250810190611f269190612ba7565b90505f611f3285610e92565b90505f611f3f8483612c1b565b90508015611f75576040518181526001600160a01b038716905f905f516020612d915f395f51905f529060200160405180910390a35b8215612012576040515f90339085908381818185875af1925050503d805f8114611fba576040519150601f19603f3d011682016040523d82523d5f602084013e611fbf565b606091505b50509050806120105760405162461bcd60e51b815260206004820152601760248201527f555350443a2045544820726566756e64206661696c6564000000000000000000604482015260640161027f565b505b505050505050565b610c8083838360016123f2565b61203181336124c4565b50565b6001600160a01b0381165f908152600c602052604081205460ff166001816002811115612063576120636129e7565b036120715750600192915050565b6002816002811115612085576120856129e7565b0361209257505f92915050565b5050600d5460ff16919050565b50919050565b6001600160a01b038381165f908152600160209081526040808320938616835292905220545f19811015610c39578181101561210d57604051637dc7a0d960e11b81526001600160a01b0384166004820152602481018290526044810183905260640161027f565b610c3984848484035f6123f2565b5f6121268383611277565b6121a5575f8381526008602090815260408083206001600160a01b03861684529091529020805460ff1916600117905561215d3390565b6001600160a01b0316826001600160a01b0316847f2f8788117e7eff1d82e926ec794901d17c78024a50270940304540a733656f0d60405160405180910390a450600161079b565b505f61079b565b5f306001600160a01b037f00000000000000000000000000000000000000000000000000000000000000001614801561220457507f000000000000000000000000000000000000000000000000000000000000000046145b1561222e57507f000000000000000000000000000000000000000000000000000000000000000090565b610c48604080517f8b73c3c69bb8fe3d512ecc4cf759cc79239f7b179b0ffacaa9a75d522b39400f60208201527f0000000000000000000000000000000000000000000000000000000000000000918101919091527f000000000000000000000000000000000000000000000000000000000000000060608201524660808201523060a08201525f9060c00160405160208183030381529060405280519060200120905090565b5f6122e08383611277565b156121a5575f8381526008602090815260408083206001600160a01b0386168085529252808320805460ff1916905551339286917ff6391f5c32d9c69d2a47ea670b442974b53935d1edc7fd64eb21e047a839171b9190a450600161079b565b6060610c487f00000000000000000000000000000000000000000000000000000000000000006005612501565b6060610c487f00000000000000000000000000000000000000000000000000000000000000006006612501565b5f61079b6123a66121ac565b8360405161190160f01b8152600281019290925260228201526042902090565b5f5f5f5f6123d6888888886125aa565b9250925092506123e68282612672565b50909695505050505050565b6001600160a01b03841661241b5760405163e602df0560e01b81525f600482015260240161027f565b6001600160a01b03831661244457604051634a1406b160e11b81525f600482015260240161027f565b6001600160a01b038085165f9081526001602090815260408083209387168352929052208290558015610c3957826001600160a01b0316846001600160a01b03167f8c5be1e5ebec7d5bd14f71427d1e84f3dd0314c0f7b2291e5b200ac8c7c3b925846040516124b691815260200190565b60405180910390a350505050565b6124ce8282611277565b6124fd5760405163e2517d3f60e01b81526001600160a01b03821660048201526024810183905260440161027f565b5050565b606060ff831461251b576125148361272a565b905061079b565b81805461252790612b75565b80601f016020809104026020016040519081016040528092919081815260200182805461255390612b75565b801561259e5780601f106125755761010080835404028352916020019161259e565b820191905f5260205f20905b81548152906001019060200180831161258157829003601f168201915b5050505050905061079b565b5f80807f7fffffffffffffffffffffffffffffff5d576e7357a4501ddfe92f46681b20a08411156125e357505f91506003905082612668565b604080515f808252602082018084528a905260ff891692820192909252606081018790526080810186905260019060a0016020604051602081039080840390855afa158015612634573d5f5f3e3d5ffd5b5050604051601f1901519150506001600160a01b03811661265f57505f925060019150829050612668565b92505f91508190505b9450945094915050565b5f826003811115612685576126856129e7565b0361268e575050565b60018260038111156126a2576126a26129e7565b036126c05760405163f645eedf60e01b815260040160405180910390fd5b60028260038111156126d4576126d46129e7565b036126f55760405163fce698f760e01b81526004810182905260240161027f565b6003826003811115612709576127096129e7565b036124fd576040516335e2f38360e21b81526004810182905260240161027f565b60605f61273683612767565b6040805160208082528183019092529192505f91906020820181803683375050509182525060208101929092525090565b5f60ff8216601f81111561079b57604051632cd44ac360e21b815260040160405180910390fd5b5f6020828403121561279e575f5ffd5b81356001600160e01b031981168114610fc8575f5ffd5b5f81518084528060208401602086015e5f602082860101526020601f19601f83011685010191505092915050565b602081525f610fc860208301846127b5565b6001600160a01b0381168114612031575f5ffd5b5f5f6040838503121561281a575f5ffd5b8235612825816127f5565b946020939093013593505050565b5f60208284031215612843575f5ffd5b8135610fc8816127f5565b5f5f5f60608486031215612860575f5ffd5b833561286b816127f5565b9250602084013561287b816127f5565b929592945050506040919091013590565b5f6020828403121561289c575f5ffd5b5035919050565b5f5f604083850312156128b4575f5ffd5b8235915060208301356128c6816127f5565b809150509250929050565b8015158114612031575f5ffd5b5f602082840312156128ee575f5ffd5b8135610fc8816128d1565b5f5f5f5f6080858703121561290c575f5ffd5b8435612917816127f5565b966020860135965060408601359560600135945092505050565b5f5f60408385031215612942575f5ffd5b50508035926020909101359150565b60ff60f81b8816815260e060208201525f61296f60e08301896127b5565b828103604084015261298181896127b5565b606084018890526001600160a01b038716608085015260a0840186905283810360c0850152845180825260208087019350909101905f5b818110156129d65783518352602093840193909201916001016129b8565b50909b9a5050505050505050505050565b634e487b7160e01b5f52602160045260245ffd5b6020810160038310612a1b57634e487b7160e01b5f52602160045260245ffd5b91905290565b5f60a0828403121561209f575f5ffd5b5f5f60408385031215612a42575f5ffd5b82359150602083013567ffffffffffffffff811115612a5f575f5ffd5b612a6b85828601612a21565b9150509250929050565b803560ff81168114612a85575f5ffd5b919050565b5f5f5f5f5f5f5f60e0888a031215612aa0575f5ffd5b8735612aab816127f5565b96506020880135612abb816127f5565b95506040880135945060608801359350612ad760808901612a75565b9699959850939692959460a0840135945060c09093013592915050565b5f60208284031215612b04575f5ffd5b813560038110610fc8575f5ffd5b5f5f60408385031215612b23575f5ffd5b8235612b2e816127f5565b915060208301356128c6816127f5565b5f5f60408385031215612b4f575f5ffd5b8235612b5a816127f5565b9150602083013567ffffffffffffffff811115612a5f575f5ffd5b600181811c90821680612b8957607f821691505b60208210810361209f57634e487b7160e01b5f52602260045260245ffd5b5f60208284031215612bb7575f5ffd5b5051919050565b634e487b7160e01b5f52601160045260245ffd5b808202811582820484141761079b5761079b612bbe565b5f82612c0357634e487b7160e01b5f52601260045260245ffd5b500490565b8082018082111561079b5761079b612bbe565b8181038181111561079b5761079b612bbe565b6001600160a01b039384168152919092166020820152604081019190915260600190565b5f60208284031215612c62575f5ffd5b8151610fc8816127f5565b81835281816020850137505f828201602090810191909152601f909101601f19169091010190565b803582525f60ff612ca860208401612a75565b1660208401526040828101359084015260608083013590840152608082013536839003601e19018112612cd9575f5ffd5b820160208101903567ffffffffffffffff811115612cf5575f5ffd5b803603821315612d03575f5ffd5b60a06080860152612d1860a086018284612c6d565b95945050505050565b8381526001600160a01b03831660208201526060604082018190525f90612d1890830184612c95565b5f60208284031215612d5a575f5ffd5b8151610fc8816128d1565b6001600160a01b03831681526040602082018190525f90612d8890830184612c95565b94935050505056feddf252ad1be2c89b69c2b068fc378daa952ba7f163c4a11628f55a4df523b3ef","linkReferences":{}},"methodIdentifiers":{"DEFAULT_ADMIN_ROLE()":"a217fddf","DOMAIN_SEPARATOR()":"3644e515","FACTOR_PRECISION()":"a42c69a9","RELAYER_ROLE()":"926d7d7f","allowance(address,address)":"dd62ed3e","approve(address,uint256)":"095ea7b3","balanceOf(address)":"70a08231","bridgeEscrowAddress()":"1a2a4a8e","burn(uint256,(uint256,uint8,uint256,bytes32,bytes))":"babc678f","cuspdToken()":"6bc05b7e","decimals()":"313ce567","eip712Domain()":"84b0196e","getRoleAdmin(bytes32)":"248a9ca3","grantRole(bytes32,address)":"2f2ff15d","hasRole(bytes32,address)":"91d14854","lockForBridging(uint256,uint256)":"7d08a771","mint(address,(uint256,uint8,uint256,bytes32,bytes))":"e7b14eeb","name()":"06fdde03","nonces(address)":"7ecebe00","permit(address,address,uint256,uint256,uint8,bytes32,bytes32)":"d505accf","rateContract()":"eee24219","renounceRole(bytes32,address)":"36568abe","revokeRole(bytes32,address)":"d547741f","roundUpEnabled(address)":"45301bfe","setBridgeEscrowAddress(address)":"b6501f05","setRoundUpPreference(uint8)":"dac3970e","setSystemDefaultRoundUp(bool)":"3b315949","supportsInterface(bytes4)":"01ffc9a7","symbol()":"95d89b41","systemDefaultRoundUp()":"5b3cc7a4","totalSupply()":"18160ddd","transfer(address,uint256)":"a9059cbb","transferFrom(address,address,uint256)":"23b872dd","unlockFromBridging(address,uint256,uint256,uint256)":"51cab913","updateCUSPDAddress(address)":"0a9c6819","updateRateContract(address)":"a6f4ae27","userRoundUpPreference(address)":"923bf6e2"},"storageLayout":{"storage":[{"astId":43235,"contract":"src/UspdToken.sol:USPDToken","label":"_balances","offset":0,"slot":"0","type":"t_mapping(t_address,t_uint256)"},{"astId":43241,"contract":"src/UspdToken.sol:USPDToken","label":"_allowances","offset":0,"slot":"1","type":"t_mapping(t_address,t_mapping(t_address,t_uint256))"},{"astId":43243,"contract":"src/UspdToken.sol:USPDToken","label":"_totalSupply","offset":0,"slot":"2","type":"t_uint256"},{"astId":43245,"contract":"src/UspdToken.sol:USPDToken","label":"_name","offset":0,"slot":"3","type":"t_string_storage"},{"astId":43247,"contract":"src/UspdToken.sol:USPDToken","label":"_symbol","offset":0,"slot":"4","type":"t_string_storage"},{"astId":46819,"contract":"src/UspdToken.sol:USPDToken","label":"_nameFallback","offset":0,"slot":"5","type":"t_string_storage"},{"astId":46821,"contract":"src/UspdToken.sol:USPDToken","label":"_versionFallback","offset":0,"slot":"6","type":"t_string_storage"},{"astId":44718,"contract":"src/UspdToken.sol:USPDToken","label":"_nonces","offset":0,"slot":"7","type":"t_mapping(t_address,t_uint256)"},{"astId":41742,"contract":"src/UspdToken.sol:USPDToken","label":"_roles","offset":0,"slot":"8","type":"t_mapping(t_bytes32,t_struct(RoleData)41737_storage)"},{"astId":58629,"contract":"src/UspdToken.sol:USPDToken","label":"cuspdToken","offset":0,"slot":"9","type":"t_contract(IcUSPDToken)61269"},{"astId":58632,"contract":"src/UspdToken.sol:USPDToken","label":"rateContract","offset":0,"slot":"10","type":"t_contract(IPoolSharesConversionRate)60849"},{"astId":58634,"contract":"src/UspdToken.sol:USPDToken","label":"bridgeEscrowAddress","offset":0,"slot":"11","type":"t_address"},{"astId":58646,"contract":"src/UspdToken.sol:USPDToken","label":"userRoundUpPreference","offset":0,"slot":"12","type":"t_mapping(t_address,t_enum(RoundUpPreference)58641)"},{"astId":58649,"contract":"src/UspdToken.sol:USPDToken","label":"systemDefaultRoundUp","offset":0,"slot":"13","type":"t_bool"}],"types":{"t_address":{"encoding":"inplace","label":"address","numberOfBytes":"20"},"t_bool":{"encoding":"inplace","label":"bool","numberOfBytes":"1"},"t_bytes32":{"encoding":"inplace","label":"bytes32","numberOfBytes":"32"},"t_contract(IPoolSharesConversionRate)60849":{"encoding":"inplace","label":"contract IPoolSharesConversionRate","numberOfBytes":"20"},"t_contract(IcUSPDToken)61269":{"encoding":"inplace","label":"contract IcUSPDToken","numberOfBytes":"20"},"t_enum(RoundUpPreference)58641":{"encoding":"inplace","label":"enum USPDToken.RoundUpPreference","numberOfBytes":"1"},"t_mapping(t_address,t_bool)":{"encoding":"mapping","key":"t_address","label":"mapping(address => bool)","numberOfBytes":"32","value":"t_bool"},"t_mapping(t_address,t_enum(RoundUpPreference)58641)":{"encoding":"mapping","key":"t_address","label":"mapping(address => enum USPDToken.RoundUpPreference)","numberOfBytes":"32","value":"t_enum(RoundUpPreference)58641"},"t_mapping(t_address,t_mapping(t_address,t_uint256))":{"encoding":"mapping","key":"t_address","label":"mapping(address => mapping(address => uint256))","numberOfBytes":"32","value":"t_mapping(t_address,t_uint256)"},"t_mapping(t_address,t_uint256)":{"encoding":"mapping","key":"t_address","label":"mapping(address => uint256)","numberOfBytes":"32","value":"t_uint256"},"t_mapping(t_bytes32,t_struct(RoleData)41737_storage)":{"encoding":"mapping","key":"t_bytes32","label":"mapping(bytes32 => struct AccessControl.RoleData)","numberOfBytes":"32","value":"t_struct(RoleData)41737_storage"},"t_string_storage":{"encoding":"bytes","label":"string","numberOfBytes":"32"},"t_struct(RoleData)41737_storage":{"encoding":"inplace","label":"struct AccessControl.RoleData","numberOfBytes":"64","members":[{"astId":41734,"contract":"src/UspdToken.sol:USPDToken","label":"hasRole","offset":0,"slot":"0","type":"t_mapping(t_address,t_bool)"},{"astId":41736,"contract":"src/UspdToken.sol:USPDToken","label":"adminRole","offset":0,"slot":"1","type":"t_bytes32"}]},"t_uint256":{"encoding":"inplace","label":"uint256","numberOfBytes":"32"}}},"id":80}