{"abi":[{"type":"constructor","inputs":[{"name":"_oracle","type":"address","internalType":"address"},{"name":"_stabilizer","type":"address","internalType":"address"},{"name":"_admin","type":"address","internalType":"address"}],"stateMutability":"nonpayable"},{"type":"receive","stateMutability":"payable"},{"type":"function","name":"DEFAULT_ADMIN_ROLE","inputs":[],"outputs":[{"name":"","type":"bytes32","internalType":"bytes32"}],"stateMutability":"view"},{"type":"function","name":"DOMAIN_SEPARATOR","inputs":[],"outputs":[{"name":"","type":"bytes32","internalType":"bytes32"}],"stateMutability":"view"},{"type":"function","name":"EXCESS_COLLATERAL_DRAIN_ROLE","inputs":[],"outputs":[{"name":"","type":"bytes32","internalType":"bytes32"}],"stateMutability":"view"},{"type":"function","name":"STABILIZER_ROLE","inputs":[],"outputs":[{"name":"","type":"bytes32","internalType":"bytes32"}],"stateMutability":"view"},{"type":"function","name":"UPDATE_ORACLE_ROLE","inputs":[],"outputs":[{"name":"","type":"bytes32","internalType":"bytes32"}],"stateMutability":"view"},{"type":"function","name":"allowance","inputs":[{"name":"owner","type":"address","internalType":"address"},{"name":"spender","type":"address","internalType":"address"}],"outputs":[{"name":"","type":"uint256","internalType":"uint256"}],"stateMutability":"view"},{"type":"function","name":"approve","inputs":[{"name":"spender","type":"address","internalType":"address"},{"name":"value","type":"uint256","internalType":"uint256"}],"outputs":[{"name":"","type":"bool","internalType":"bool"}],"stateMutability":"nonpayable"},{"type":"function","name":"balanceOf","inputs":[{"name":"account","type":"address","internalType":"address"}],"outputs":[{"name":"","type":"uint256","internalType":"uint256"}],"stateMutability":"view"},{"type":"function","name":"burn","inputs":[{"name":"amount","type":"uint256","internalType":"uint256"},{"name":"to","type":"address","internalType":"address payable"},{"name":"priceQuery","type":"tuple","internalType":"struct IPriceOracle.PriceAttestationQuery","components":[{"name":"price","type":"uint256","internalType":"uint256"},{"name":"decimals","type":"uint8","internalType":"uint8"},{"name":"dataTimestamp","type":"uint256","internalType":"uint256"},{"name":"assetPair","type":"bytes32","internalType":"bytes32"},{"name":"signature","type":"bytes","internalType":"bytes"}]}],"outputs":[],"stateMutability":"nonpayable"},{"type":"function","name":"decimals","inputs":[],"outputs":[{"name":"","type":"uint8","internalType":"uint8"}],"stateMutability":"view"},{"type":"function","name":"eip712Domain","inputs":[],"outputs":[{"name":"fields","type":"bytes1","internalType":"bytes1"},{"name":"name","type":"string","internalType":"string"},{"name":"version","type":"string","internalType":"string"},{"name":"chainId","type":"uint256","internalType":"uint256"},{"name":"verifyingContract","type":"address","internalType":"address"},{"name":"salt","type":"bytes32","internalType":"bytes32"},{"name":"extensions","type":"uint256[]","internalType":"uint256[]"}],"stateMutability":"view"},{"type":"function","name":"getRoleAdmin","inputs":[{"name":"role","type":"bytes32","internalType":"bytes32"}],"outputs":[{"name":"","type":"bytes32","internalType":"bytes32"}],"stateMutability":"view"},{"type":"function","name":"grantRole","inputs":[{"name":"role","type":"bytes32","internalType":"bytes32"},{"name":"account","type":"address","internalType":"address"}],"outputs":[],"stateMutability":"nonpayable"},{"type":"function","name":"hasRole","inputs":[{"name":"role","type":"bytes32","internalType":"bytes32"},{"name":"account","type":"address","internalType":"address"}],"outputs":[{"name":"","type":"bool","internalType":"bool"}],"stateMutability":"view"},{"type":"function","name":"mint","inputs":[{"name":"to","type":"address","internalType":"address"},{"name":"priceQuery","type":"tuple","internalType":"struct IPriceOracle.PriceAttestationQuery","components":[{"name":"price","type":"uint256","internalType":"uint256"},{"name":"decimals","type":"uint8","internalType":"uint8"},{"name":"dataTimestamp","type":"uint256","internalType":"uint256"},{"name":"assetPair","type":"bytes32","internalType":"bytes32"},{"name":"signature","type":"bytes","internalType":"bytes"}]}],"outputs":[],"stateMutability":"payable"},{"type":"function","name":"mint","inputs":[{"name":"to","type":"address","internalType":"address"},{"name":"maxUspdAmount","type":"uint256","internalType":"uint256"},{"name":"priceQuery","type":"tuple","internalType":"struct IPriceOracle.PriceAttestationQuery","components":[{"name":"price","type":"uint256","internalType":"uint256"},{"name":"decimals","type":"uint8","internalType":"uint8"},{"name":"dataTimestamp","type":"uint256","internalType":"uint256"},{"name":"assetPair","type":"bytes32","internalType":"bytes32"},{"name":"signature","type":"bytes","internalType":"bytes"}]}],"outputs":[],"stateMutability":"payable"},{"type":"function","name":"name","inputs":[],"outputs":[{"name":"","type":"string","internalType":"string"}],"stateMutability":"view"},{"type":"function","name":"nonces","inputs":[{"name":"owner","type":"address","internalType":"address"}],"outputs":[{"name":"","type":"uint256","internalType":"uint256"}],"stateMutability":"view"},{"type":"function","name":"permit","inputs":[{"name":"owner","type":"address","internalType":"address"},{"name":"spender","type":"address","internalType":"address"},{"name":"value","type":"uint256","internalType":"uint256"},{"name":"deadline","type":"uint256","internalType":"uint256"},{"name":"v","type":"uint8","internalType":"uint8"},{"name":"r","type":"bytes32","internalType":"bytes32"},{"name":"s","type":"bytes32","internalType":"bytes32"}],"outputs":[],"stateMutability":"nonpayable"},{"type":"function","name":"receiveStabilizerReturn","inputs":[],"outputs":[],"stateMutability":"payable"},{"type":"function","name":"renounceRole","inputs":[{"name":"role","type":"bytes32","internalType":"bytes32"},{"name":"callerConfirmation","type":"address","internalType":"address"}],"outputs":[],"stateMutability":"nonpayable"},{"type":"function","name":"revokeRole","inputs":[{"name":"role","type":"bytes32","internalType":"bytes32"},{"name":"account","type":"address","internalType":"address"}],"outputs":[],"stateMutability":"nonpayable"},{"type":"function","name":"supportsInterface","inputs":[{"name":"interfaceId","type":"bytes4","internalType":"bytes4"}],"outputs":[{"name":"","type":"bool","internalType":"bool"}],"stateMutability":"view"},{"type":"function","name":"symbol","inputs":[],"outputs":[{"name":"","type":"string","internalType":"string"}],"stateMutability":"view"},{"type":"function","name":"totalSupply","inputs":[],"outputs":[{"name":"","type":"uint256","internalType":"uint256"}],"stateMutability":"view"},{"type":"function","name":"transfer","inputs":[{"name":"to","type":"address","internalType":"address"},{"name":"value","type":"uint256","internalType":"uint256"}],"outputs":[{"name":"","type":"bool","internalType":"bool"}],"stateMutability":"nonpayable"},{"type":"function","name":"transferFrom","inputs":[{"name":"from","type":"address","internalType":"address"},{"name":"to","type":"address","internalType":"address"},{"name":"value","type":"uint256","internalType":"uint256"}],"outputs":[{"name":"","type":"bool","internalType":"bool"}],"stateMutability":"nonpayable"},{"type":"function","name":"updateOracle","inputs":[{"name":"newOracle","type":"address","internalType":"address"}],"outputs":[],"stateMutability":"nonpayable"},{"type":"function","name":"updateStabilizer","inputs":[{"name":"newStabilizer","type":"address","internalType":"address"}],"outputs":[],"stateMutability":"nonpayable"},{"type":"event","name":"Approval","inputs":[{"name":"owner","type":"address","indexed":true,"internalType":"address"},{"name":"spender","type":"address","indexed":true,"internalType":"address"},{"name":"value","type":"uint256","indexed":false,"internalType":"uint256"}],"anonymous":false},{"type":"event","name":"EIP712DomainChanged","inputs":[],"anonymous":false},{"type":"event","name":"ExcessCollateralPayout","inputs":[{"name":"to","type":"address","indexed":false,"internalType":"address"},{"name":"ethAmount","type":"uint256","indexed":false,"internalType":"uint256"}],"anonymous":false},{"type":"event","name":"Payout","inputs":[{"name":"to","type":"address","indexed":false,"internalType":"address"},{"name":"psdAmount","type":"uint256","indexed":false,"internalType":"uint256"},{"name":"ethAmount","type":"uint256","indexed":false,"internalType":"uint256"},{"name":"askPrice","type":"uint256","indexed":false,"internalType":"uint256"}],"anonymous":false},{"type":"event","name":"PriceOracleUpdated","inputs":[{"name":"oldOracle","type":"address","indexed":false,"internalType":"address"},{"name":"newOracle","type":"address","indexed":false,"internalType":"address"}],"anonymous":false},{"type":"event","name":"RoleAdminChanged","inputs":[{"name":"role","type":"bytes32","indexed":true,"internalType":"bytes32"},{"name":"previousAdminRole","type":"bytes32","indexed":true,"internalType":"bytes32"},{"name":"newAdminRole","type":"bytes32","indexed":true,"internalType":"bytes32"}],"anonymous":false},{"type":"event","name":"RoleGranted","inputs":[{"name":"role","type":"bytes32","indexed":true,"internalType":"bytes32"},{"name":"account","type":"address","indexed":true,"internalType":"address"},{"name":"sender","type":"address","indexed":true,"internalType":"address"}],"anonymous":false},{"type":"event","name":"RoleRevoked","inputs":[{"name":"role","type":"bytes32","indexed":true,"internalType":"bytes32"},{"name":"account","type":"address","indexed":true,"internalType":"address"},{"name":"sender","type":"address","indexed":true,"internalType":"address"}],"anonymous":false},{"type":"event","name":"StabilizerUpdated","inputs":[{"name":"oldStabilizer","type":"address","indexed":false,"internalType":"address"},{"name":"newStabilizer","type":"address","indexed":false,"internalType":"address"}],"anonymous":false},{"type":"event","name":"Transfer","inputs":[{"name":"from","type":"address","indexed":true,"internalType":"address"},{"name":"to","type":"address","indexed":true,"internalType":"address"},{"name":"value","type":"uint256","indexed":false,"internalType":"uint256"}],"anonymous":false},{"type":"error","name":"AccessControlBadConfirmation","inputs":[]},{"type":"error","name":"AccessControlUnauthorizedAccount","inputs":[{"name":"account","type":"address","internalType":"address"},{"name":"neededRole","type":"bytes32","internalType":"bytes32"}]},{"type":"error","name":"ECDSAInvalidSignature","inputs":[]},{"type":"error","name":"ECDSAInvalidSignatureLength","inputs":[{"name":"length","type":"uint256","internalType":"uint256"}]},{"type":"error","name":"ECDSAInvalidSignatureS","inputs":[{"name":"s","type":"bytes32","internalType":"bytes32"}]},{"type":"error","name":"ERC20InsufficientAllowance","inputs":[{"name":"spender","type":"address","internalType":"address"},{"name":"allowance","type":"uint256","internalType":"uint256"},{"name":"needed","type":"uint256","internalType":"uint256"}]},{"type":"error","name":"ERC20InsufficientBalance","inputs":[{"name":"sender","type":"address","internalType":"address"},{"name":"balance","type":"uint256","internalType":"uint256"},{"name":"needed","type":"uint256","internalType":"uint256"}]},{"type":"error","name":"ERC20InvalidApprover","inputs":[{"name":"approver","type":"address","internalType":"address"}]},{"type":"error","name":"ERC20InvalidReceiver","inputs":[{"name":"receiver","type":"address","internalType":"address"}]},{"type":"error","name":"ERC20InvalidSender","inputs":[{"name":"sender","type":"address","internalType":"address"}]},{"type":"error","name":"ERC20InvalidSpender","inputs":[{"name":"spender","type":"address","internalType":"address"}]},{"type":"error","name":"ERC2612ExpiredSignature","inputs":[{"name":"deadline","type":"uint256","internalType":"uint256"}]},{"type":"error","name":"ERC2612InvalidSigner","inputs":[{"name":"signer","type":"address","internalType":"address"},{"name":"owner","type":"address","internalType":"address"}]},{"type":"error","name":"InvalidAccountNonce","inputs":[{"name":"account","type":"address","internalType":"address"},{"name":"currentNonce","type":"uint256","internalType":"uint256"}]},{"type":"error","name":"InvalidShortString","inputs":[]},{"type":"error","name":"StringTooLong","inputs":[{"name":"str","type":"string","internalType":"string"}]}],"bytecode":{"object":"0x6101606040526103e8600b55348015610016575f80fd5b50604051612d01380380612d018339810160408190526100359161035c565b604051806040016040528060088152602001675553504444454d4f60c01b81525080604051806040016040528060018152602001603160f81b81525060405180604001604052806009815260200168555350442044656d6f60b81b815250604051806040016040528060088152602001675553504444454d4f60c01b81525081600390816100c39190610434565b5060046100d08282610434565b506100e09150839050600561021e565b610120526100ef81600661021e565b61014052815160208084019190912060e052815190820120610100524660a05261017b60e05161010051604080517f8b73c3c69bb8fe3d512ecc4cf759cc79239f7b179b0ffacaa9a75d522b39400f60208201529081019290925260608201524660808201523060a08201525f9060c00160405160208183030381529060405280519060200120905090565b60805250503060c05250600980546001600160a01b038581166001600160a01b031992831617909255600a8054928516929091169190911790556101bf5f82610250565b506101ea7f07dadfef42b760da37c1787f23390032c991ba73626ca6711e8fbb581ca48ec582610250565b506102157f90e45b937a8206cd9165edccea3d6e7eee3817439762d76dd6f0730bb9e8f67182610250565b50505050610546565b5f60208351101561023957610232836102fb565b905061024a565b816102448482610434565b5060ff90505b92915050565b5f8281526008602090815260408083206001600160a01b038516845290915281205460ff166102f4575f8381526008602090815260408083206001600160a01b03861684529091529020805460ff191660011790556102ac3390565b6001600160a01b0316826001600160a01b0316847f2f8788117e7eff1d82e926ec794901d17c78024a50270940304540a733656f0d60405160405180910390a450600161024a565b505f61024a565b5f80829050601f8151111561032e578260405163305a27a960e01b815260040161032591906104ee565b60405180910390fd5b805161033982610523565b179392505050565b80516001600160a01b0381168114610357575f80fd5b919050565b5f805f6060848603121561036e575f80fd5b61037784610341565b925061038560208501610341565b915061039360408501610341565b90509250925092565b634e487b7160e01b5f52604160045260245ffd5b600181811c908216806103c457607f821691505b6020821081036103e257634e487b7160e01b5f52602260045260245ffd5b50919050565b601f82111561042f57805f5260205f20601f840160051c8101602085101561040d5750805b601f840160051c820191505b8181101561042c575f8155600101610419565b50505b505050565b81516001600160401b0381111561044d5761044d61039c565b6104618161045b84546103b0565b846103e8565b6020601f821160018114610493575f831561047c5750848201515b5f19600385901b1c1916600184901b17845561042c565b5f84815260208120601f198516915b828110156104c257878501518255602094850194600190920191016104a2565b50848210156104df57868401515f19600387901b60f8161c191681555b50505050600190811b01905550565b602081525f82518060208401528060208501604085015e5f604082850101526040601f19601f83011684010191505092915050565b805160208083015191908110156103e2575f1960209190910360031b1b16919050565b60805160a05160c05160e05161010051610120516101405161276a6105975f395f61177d01525f61175001525f6115e201525f6115ba01525f61151501525f61153f01525f611569015261276a5ff3fe6080604052600436106101bd575f3560e01c806361aa346e116100f2578063a9059cbb11610092578063d547741f11610062578063d547741f14610602578063dd62ed3e14610621578063e7b14eeb14610672578063f97ca2e014610685575f80fd5b8063a9059cbb14610589578063b09f409d146105a8578063b6e33f3b146105b0578063d505accf146105e3575f80fd5b806384b0196e116100cd57806384b0196e146104ea57806391d148541461051157806395d89b4114610562578063a217fddf14610576575f80fd5b806361aa346e1461045757806370a082311461048a5780637ecebe00146104cb575f80fd5b80632f2ff15d1161015d57806336568abe1161013857806336568abe146103c75780634315d334146103e65780634699643b1461040557806346dc94c414610438575f80fd5b80632f2ff15d14610379578063313ce567146103985780633644e515146103b3575f80fd5b806318160ddd1161019857806318160ddd146102ed5780631cb44dfc1461030b57806323b872dd1461032c578063248a9ca31461034b575f80fd5b806301ffc9a71461027957806306fdde03146102ad578063095ea7b3146102ce575f80fd5b36610275576040517f08c379a000000000000000000000000000000000000000000000000000000000815260206004820152604660248201527f44697265637420455448207472616e7366657273206e6f7420737570706f727460448201527f65642e20557365206d696e74282920776974682070726963652061747465737460648201527f6174696f6e2e0000000000000000000000000000000000000000000000000000608482015260a4015b60405180910390fd5b5f80fd5b348015610284575f80fd5b50610298610293366004611eff565b610698565b60405190151581526020015b60405180910390f35b3480156102b8575f80fd5b506102c1610730565b6040516102a49190611f91565b3480156102d9575f80fd5b506102986102e8366004611fc4565b6107c0565b3480156102f8575f80fd5b506002545b6040519081526020016102a4565b348015610316575f80fd5b5061032a610325366004611fee565b6107d7565b005b348015610337575f80fd5b50610298610346366004612009565b61089d565b348015610356575f80fd5b506102fd610365366004612047565b5f9081526008602052604090206001015490565b348015610384575f80fd5b5061032a61039336600461205e565b6108c0565b3480156103a3575f80fd5b50604051601281526020016102a4565b3480156103be575f80fd5b506102fd6108ea565b3480156103d2575f80fd5b5061032a6103e136600461205e565b6108f8565b3480156103f1575f80fd5b5061032a6104003660046120a2565b610956565b348015610410575f80fd5b506102fd7f079847024f21c1f5f8d88daf6764f03ddd70ce4acc6aa7104a85233fe5a7699581565b348015610443575f80fd5b5061032a610452366004611fee565b610cc3565b348015610462575f80fd5b506102fd7f90e45b937a8206cd9165edccea3d6e7eee3817439762d76dd6f0730bb9e8f67181565b348015610495575f80fd5b506102fd6104a4366004611fee565b73ffffffffffffffffffffffffffffffffffffffff165f9081526020819052604090205490565b3480156104d6575f80fd5b506102fd6104e5366004611fee565b610d69565b3480156104f5575f80fd5b506104fe610d93565b6040516102a497969594939291906120f7565b34801561051c575f80fd5b5061029861052b36600461205e565b5f91825260086020908152604080842073ffffffffffffffffffffffffffffffffffffffff93909316845291905290205460ff1690565b34801561056d575f80fd5b506102c1610df1565b348015610581575f80fd5b506102fd5f81565b348015610594575f80fd5b506102986105a3366004611fc4565b610e00565b61032a610e0d565b3480156105bb575f80fd5b506102fd7f07dadfef42b760da37c1787f23390032c991ba73626ca6711e8fbb581ca48ec581565b3480156105ee575f80fd5b5061032a6105fd3660046121c4565b610e90565b34801561060d575f80fd5b5061032a61061c36600461205e565b611039565b34801561062c575f80fd5b506102fd61063b366004612230565b73ffffffffffffffffffffffffffffffffffffffff9182165f90815260016020908152604080832093909416825291909152205490565b61032a61068036600461225c565b61105d565b61032a6106933660046122a9565b61106c565b5f7fffffffff0000000000000000000000000000000000000000000000000000000082167f7965db0b00000000000000000000000000000000000000000000000000000000148061072a57507f01ffc9a7000000000000000000000000000000000000000000000000000000007fffffffff000000000000000000000000000000000000000000000000000000008316145b92915050565b60606003805461073f906122e8565b80601f016020809104026020016040519081016040528092919081815260200182805461076b906122e8565b80156107b65780601f1061078d576101008083540402835291602001916107b6565b820191905f5260205f20905b81548152906001019060200180831161079957829003601f168201915b5050505050905090565b5f336107cd818585611274565b5060019392505050565b7f90e45b937a8206cd9165edccea3d6e7eee3817439762d76dd6f0730bb9e8f67161080181611281565b6009546040805173ffffffffffffffffffffffffffffffffffffffff928316815291841660208301527f56b5f80d8cac1479698aa7d01605fd6111e90b15fc4d2b377417f46034876cbd910160405180910390a150600980547fffffffffffffffffffffffff00000000000000000000000000000000000000001673ffffffffffffffffffffffffffffffffffffffff92909216919091179055565b5f336108aa85828561128e565b6108b5858585611356565b506001949350505050565b5f828152600860205260409020600101546108da81611281565b6108e483836113ff565b50505050565b5f6108f36114fc565b905090565b73ffffffffffffffffffffffffffffffffffffffff81163314610947576040517f6697b23200000000000000000000000000000000000000000000000000000000815260040160405180910390fd5b6109518282611632565b505050565b5f83116109bf576040517f08c379a000000000000000000000000000000000000000000000000000000000815260206004820152601d60248201527f416d6f756e74206d7573742062652067726561746572207468616e2030000000604482015260640161026c565b73ffffffffffffffffffffffffffffffffffffffff8216610a3c576040517f08c379a000000000000000000000000000000000000000000000000000000000815260206004820152601160248201527f496e76616c696420726563697069656e74000000000000000000000000000000604482015260640161026c565b610a4633846116ef565b6009546040517f65ab8c710000000000000000000000000000000000000000000000000000000081525f9173ffffffffffffffffffffffffffffffffffffffff16906365ab8c7190610a9c90859060040161237a565b6060604051808303815f875af1158015610ab8573d5f803e3d5ffd5b505050506040513d601f19601f82011682018060405250810190610adc9190612431565b600a54604080517fff70fa640000000000000000000000000000000000000000000000000000000081526004810188905283516024820152602084015160ff1660448201529083015160648201529192505f9173ffffffffffffffffffffffffffffffffffffffff9091169063ff70fa64906084016020604051808303815f875af1158015610b6d573d5f803e3d5ffd5b505050506040513d601f19601f82011682018060405250810190610b9191906124b8565b82516040805173ffffffffffffffffffffffffffffffffffffffff881681526020810189905290810183905260608101919091529091507f6a8d62de1ac9f1415dd17b430b809682ff1794d5b31015f9acf43fcdf17a68859060800160405180910390a15f8473ffffffffffffffffffffffffffffffffffffffff16826040515f6040518083038185875af1925050503d805f8114610c4b576040519150601f19603f3d011682016040523d82523d5f602084013e610c50565b606091505b5050905080610cbb576040517f08c379a000000000000000000000000000000000000000000000000000000000815260206004820152601360248201527f455448207472616e73666572206661696c656400000000000000000000000000604482015260640161026c565b505050505050565b5f610ccd81611281565b600a546040805173ffffffffffffffffffffffffffffffffffffffff928316815291841660208301527f4fd9930550d5b9b345f1d80bce61f17c1dc8733fa06dea5fa89c47155cbb7741910160405180910390a150600a80547fffffffffffffffffffffffff00000000000000000000000000000000000000001673ffffffffffffffffffffffffffffffffffffffff92909216919091179055565b73ffffffffffffffffffffffffffffffffffffffff81165f9081526007602052604081205461072a565b5f6060805f805f6060610da4611749565b610dac611776565b604080515f808252602082019092527f0f000000000000000000000000000000000000000000000000000000000000009b939a50919850469750309650945092509050565b60606004805461073f906122e8565b5f336107cd818585611356565b600a5473ffffffffffffffffffffffffffffffffffffffff163314610e8e576040517f08c379a000000000000000000000000000000000000000000000000000000000815260206004820152601e60248201527f4f6e6c792073746162696c697a65722063616e2072657475726e204554480000604482015260640161026c565b565b83421115610ecd576040517f627913020000000000000000000000000000000000000000000000000000000081526004810185905260240161026c565b5f7f6e71edae12b1b97f4d1f60370fef10105fa2faae0126114a169c64845d6126c9888888610f258c73ffffffffffffffffffffffffffffffffffffffff165f90815260076020526040902080546001810190915590565b60408051602081019690965273ffffffffffffffffffffffffffffffffffffffff94851690860152929091166060840152608083015260a082015260c0810186905260e0016040516020818303038152906040528051906020012090505f610f8c826117a3565b90505f610f9b828787876117ea565b90508973ffffffffffffffffffffffffffffffffffffffff168173ffffffffffffffffffffffffffffffffffffffff1614611022576040517f4b800e4600000000000000000000000000000000000000000000000000000000815273ffffffffffffffffffffffffffffffffffffffff80831660048301528b16602482015260440161026c565b61102d8a8a8a611274565b50505050505050505050565b5f8281526008602052604090206001015461105381611281565b6108e48383611632565b611068825f8361106c565b5050565b6009546040517f65ab8c710000000000000000000000000000000000000000000000000000000081525f9173ffffffffffffffffffffffffffffffffffffffff16906365ab8c71906110c290859060040161237a565b6060604051808303815f875af11580156110de573d5f803e3d5ffd5b505050506040513d601f19601f820116820180604052508101906111029190612431565b905034831561114457815160208301515f919061112090600a61261d565b61112a908761262b565b6111349190612642565b905081811015611142578091505b505b600a54825160208401516040517f080a896100000000000000000000000000000000000000000000000000000000815260048101859052602481019290925260ff1660448201525f9173ffffffffffffffffffffffffffffffffffffffff169063080a896190849060640160206040518083038185885af11580156111cb573d5f803e3d5ffd5b50505050506040513d601f19601f820116820180604052508101906111f0919061267a565b90505f8360200151600a611204919061261d565b84518351611212919061262b565b61121c9190612642565b90506112288782611816565b81515f9061123690346126e1565b9050801561126a57604051339082156108fc029083905f818181858888f19350505050158015611268573d5f803e3d5ffd5b505b5050505050505050565b6109518383836001611870565b61128b81336119b5565b50565b73ffffffffffffffffffffffffffffffffffffffff8381165f908152600160209081526040808320938616835292905220547fffffffffffffffffffffffffffffffffffffffffffffffffffffffffffffffff8110156108e45781811015611348576040517ffb8f41b200000000000000000000000000000000000000000000000000000000815273ffffffffffffffffffffffffffffffffffffffff84166004820152602481018290526044810183905260640161026c565b6108e484848484035f611870565b73ffffffffffffffffffffffffffffffffffffffff83166113a5576040517f96c6fd1e0000000000000000000000000000000000000000000000000000000081525f600482015260240161026c565b73ffffffffffffffffffffffffffffffffffffffff82166113f4576040517fec442f050000000000000000000000000000000000000000000000000000000081525f600482015260240161026c565b610951838383611a3c565b5f82815260086020908152604080832073ffffffffffffffffffffffffffffffffffffffff8516845290915281205460ff166114f5575f83815260086020908152604080832073ffffffffffffffffffffffffffffffffffffffff86168452909152902080547fffffffffffffffffffffffffffffffffffffffffffffffffffffffffffffff001660011790556114933390565b73ffffffffffffffffffffffffffffffffffffffff168273ffffffffffffffffffffffffffffffffffffffff16847f2f8788117e7eff1d82e926ec794901d17c78024a50270940304540a733656f0d60405160405180910390a450600161072a565b505f61072a565b5f3073ffffffffffffffffffffffffffffffffffffffff7f00000000000000000000000000000000000000000000000000000000000000001614801561156157507f000000000000000000000000000000000000000000000000000000000000000046145b1561158b57507f000000000000000000000000000000000000000000000000000000000000000090565b6108f3604080517f8b73c3c69bb8fe3d512ecc4cf759cc79239f7b179b0ffacaa9a75d522b39400f60208201527f0000000000000000000000000000000000000000000000000000000000000000918101919091527f000000000000000000000000000000000000000000000000000000000000000060608201524660808201523060a08201525f9060c00160405160208183030381529060405280519060200120905090565b5f82815260086020908152604080832073ffffffffffffffffffffffffffffffffffffffff8516845290915281205460ff16156114f5575f83815260086020908152604080832073ffffffffffffffffffffffffffffffffffffffff8616808552925280832080547fffffffffffffffffffffffffffffffffffffffffffffffffffffffffffffff0016905551339286917ff6391f5c32d9c69d2a47ea670b442974b53935d1edc7fd64eb21e047a839171b9190a450600161072a565b73ffffffffffffffffffffffffffffffffffffffff821661173e576040517f96c6fd1e0000000000000000000000000000000000000000000000000000000081525f600482015260240161026c565b611068825f83611a3c565b60606108f37f00000000000000000000000000000000000000000000000000000000000000006005611be3565b60606108f37f00000000000000000000000000000000000000000000000000000000000000006006611be3565b5f61072a6117af6114fc565b836040517f19010000000000000000000000000000000000000000000000000000000000008152600281019290925260228201526042902090565b5f805f806117fa88888888611c8c565b92509250925061180a8282611d7f565b50909695505050505050565b73ffffffffffffffffffffffffffffffffffffffff8216611865576040517fec442f050000000000000000000000000000000000000000000000000000000081525f600482015260240161026c565b6110685f8383611a3c565b73ffffffffffffffffffffffffffffffffffffffff84166118bf576040517fe602df050000000000000000000000000000000000000000000000000000000081525f600482015260240161026c565b73ffffffffffffffffffffffffffffffffffffffff831661190e576040517f94280d620000000000000000000000000000000000000000000000000000000081525f600482015260240161026c565b73ffffffffffffffffffffffffffffffffffffffff8085165f90815260016020908152604080832093871683529290522082905580156108e4578273ffffffffffffffffffffffffffffffffffffffff168473ffffffffffffffffffffffffffffffffffffffff167f8c5be1e5ebec7d5bd14f71427d1e84f3dd0314c0f7b2291e5b200ac8c7c3b925846040516119a791815260200190565b60405180910390a350505050565b5f82815260086020908152604080832073ffffffffffffffffffffffffffffffffffffffff8516845290915290205460ff16611068576040517fe2517d3f00000000000000000000000000000000000000000000000000000000815273ffffffffffffffffffffffffffffffffffffffff821660048201526024810183905260440161026c565b73ffffffffffffffffffffffffffffffffffffffff8316611a73578060025f828254611a6891906126f4565b90915550611b239050565b73ffffffffffffffffffffffffffffffffffffffff83165f9081526020819052604090205481811015611af8576040517fe450d38c00000000000000000000000000000000000000000000000000000000815273ffffffffffffffffffffffffffffffffffffffff85166004820152602481018290526044810183905260640161026c565b73ffffffffffffffffffffffffffffffffffffffff84165f9081526020819052604090209082900390555b73ffffffffffffffffffffffffffffffffffffffff8216611b4c57600280548290039055611b77565b73ffffffffffffffffffffffffffffffffffffffff82165f9081526020819052604090208054820190555b8173ffffffffffffffffffffffffffffffffffffffff168373ffffffffffffffffffffffffffffffffffffffff167fddf252ad1be2c89b69c2b068fc378daa952ba7f163c4a11628f55a4df523b3ef83604051611bd691815260200190565b60405180910390a3505050565b606060ff8314611bfd57611bf683611e82565b905061072a565b818054611c09906122e8565b80601f0160208091040260200160405190810160405280929190818152602001828054611c35906122e8565b8015611c805780601f10611c5757610100808354040283529160200191611c80565b820191905f5260205f20905b815481529060010190602001808311611c6357829003601f168201915b5050505050905061072a565b5f80807f7fffffffffffffffffffffffffffffff5d576e7357a4501ddfe92f46681b20a0841115611cc557505f91506003905082611d75565b604080515f808252602082018084528a905260ff891692820192909252606081018790526080810186905260019060a0016020604051602081039080840390855afa158015611d16573d5f803e3d5ffd5b50506040517fffffffffffffffffffffffffffffffffffffffffffffffffffffffffffffffe0015191505073ffffffffffffffffffffffffffffffffffffffff8116611d6c57505f925060019150829050611d75565b92505f91508190505b9450945094915050565b5f826003811115611d9257611d92612707565b03611d9b575050565b6001826003811115611daf57611daf612707565b03611de6576040517ff645eedf00000000000000000000000000000000000000000000000000000000815260040160405180910390fd5b6002826003811115611dfa57611dfa612707565b03611e34576040517ffce698f70000000000000000000000000000000000000000000000000000000081526004810182905260240161026c565b6003826003811115611e4857611e48612707565b03611068576040517fd78bce0c0000000000000000000000000000000000000000000000000000000081526004810182905260240161026c565b60605f611e8e83611ebf565b6040805160208082528183019092529192505f91906020820181803683375050509182525060208101929092525090565b5f60ff8216601f81111561072a576040517fb3512b0c00000000000000000000000000000000000000000000000000000000815260040160405180910390fd5b5f60208284031215611f0f575f80fd5b81357fffffffff0000000000000000000000000000000000000000000000000000000081168114611f3e575f80fd5b9392505050565b5f81518084528060208401602086015e5f6020828601015260207fffffffffffffffffffffffffffffffffffffffffffffffffffffffffffffffe0601f83011685010191505092915050565b602081525f611f3e6020830184611f45565b73ffffffffffffffffffffffffffffffffffffffff8116811461128b575f80fd5b5f8060408385031215611fd5575f80fd5b8235611fe081611fa3565b946020939093013593505050565b5f60208284031215611ffe575f80fd5b8135611f3e81611fa3565b5f805f6060848603121561201b575f80fd5b833561202681611fa3565b9250602084013561203681611fa3565b929592945050506040919091013590565b5f60208284031215612057575f80fd5b5035919050565b5f806040838503121561206f575f80fd5b82359150602083013561208181611fa3565b809150509250929050565b5f60a0828403121561209c575f80fd5b50919050565b5f805f606084860312156120b4575f80fd5b8335925060208401356120c681611fa3565b9150604084013567ffffffffffffffff8111156120e1575f80fd5b6120ed8682870161208c565b9150509250925092565b7fff000000000000000000000000000000000000000000000000000000000000008816815260e060208201525f61213160e0830189611f45565b82810360408401526121438189611f45565b6060840188905273ffffffffffffffffffffffffffffffffffffffff8716608085015260a0840186905283810360c0850152845180825260208087019350909101905f5b818110156121a5578351835260209384019390920191600101612187565b50909b9a5050505050505050505050565b60ff8116811461128b575f80fd5b5f805f805f805f60e0888a0312156121da575f80fd5b87356121e581611fa3565b965060208801356121f581611fa3565b955060408801359450606088013593506080880135612213816121b6565b9699959850939692959460a0840135945060c09093013592915050565b5f8060408385031215612241575f80fd5b823561224c81611fa3565b9150602083013561208181611fa3565b5f806040838503121561226d575f80fd5b823561227881611fa3565b9150602083013567ffffffffffffffff811115612293575f80fd5b61229f8582860161208c565b9150509250929050565b5f805f606084860312156122bb575f80fd5b83356122c681611fa3565b925060208401359150604084013567ffffffffffffffff8111156120e1575f80fd5b600181811c908216806122fc57607f821691505b60208210810361209c577f4e487b71000000000000000000000000000000000000000000000000000000005f52602260045260245ffd5b81835281816020850137505f602082840101525f60207fffffffffffffffffffffffffffffffffffffffffffffffffffffffffffffffe0601f840116840101905092915050565b60208082528235828201525f90830135612393816121b6565b60ff16604083810191909152830135606080840191909152830135608080840191909152830135368490037fffffffffffffffffffffffffffffffffffffffffffffffffffffffffffffffe10181126123ea575f80fd5b830160208101903567ffffffffffffffff811115612406575f80fd5b803603821315612414575f80fd5b60a08085015261242860c085018284612333565b95945050505050565b5f6060828403128015612442575f80fd5b506040516060810167ffffffffffffffff8111828210171561248b577f4e487b71000000000000000000000000000000000000000000000000000000005f52604160045260245ffd5b6040528251815260208301516124a0816121b6565b60208201526040928301519281019290925250919050565b5f602082840312156124c8575f80fd5b5051919050565b7f4e487b71000000000000000000000000000000000000000000000000000000005f52601160045260245ffd5b6001815b60018411156125375780850481111561251b5761251b6124cf565b600184161561252957908102905b60019390931c928002612500565b935093915050565b5f8261254d5750600161072a565b8161255957505f61072a565b816001811461256f576002811461257957612595565b600191505061072a565b60ff84111561258a5761258a6124cf565b50506001821b61072a565b5060208310610133831016604e8410600b84101617156125b8575081810a61072a565b6125e37fffffffffffffffffffffffffffffffffffffffffffffffffffffffffffffffff84846124fc565b807fffffffffffffffffffffffffffffffffffffffffffffffffffffffffffffffff04821115612615576126156124cf565b029392505050565b5f611f3e60ff84168361253f565b808202811582820484141761072a5761072a6124cf565b5f82612675577f4e487b71000000000000000000000000000000000000000000000000000000005f52601260045260245ffd5b500490565b5f602082840312801561268b575f80fd5b506040516020810167ffffffffffffffff811182821017156126d4577f4e487b71000000000000000000000000000000000000000000000000000000005f52604160045260245ffd5b6040529151825250919050565b8181038181111561072a5761072a6124cf565b8082018082111561072a5761072a6124cf565b7f4e487b71000000000000000000000000000000000000000000000000000000005f52602160045260245ffdfea264697066735822122073efe8daa40777963ae6cadde8e40c1c0e6a9394376406038603159e9a25b27164736f6c634300081a0033","linkReferences":{}},"methodIdentifiers":{"DEFAULT_ADMIN_ROLE()":"a217fddf","DOMAIN_SEPARATOR()":"3644e515","EXCESS_COLLATERAL_DRAIN_ROLE()":"b6e33f3b","STABILIZER_ROLE()":"4699643b","UPDATE_ORACLE_ROLE()":"61aa346e","allowance(address,address)":"dd62ed3e","approve(address,uint256)":"095ea7b3","balanceOf(address)":"70a08231","burn(uint256,address,(uint256,uint8,uint256,bytes32,bytes))":"4315d334","decimals()":"313ce567","eip712Domain()":"84b0196e","getRoleAdmin(bytes32)":"248a9ca3","grantRole(bytes32,address)":"2f2ff15d","hasRole(bytes32,address)":"91d14854","mint(address,(uint256,uint8,uint256,bytes32,bytes))":"e7b14eeb","mint(address,uint256,(uint256,uint8,uint256,bytes32,bytes))":"f97ca2e0","name()":"06fdde03","nonces(address)":"7ecebe00","permit(address,address,uint256,uint256,uint8,bytes32,bytes32)":"d505accf","receiveStabilizerReturn()":"b09f409d","renounceRole(bytes32,address)":"36568abe","revokeRole(bytes32,address)":"d547741f","supportsInterface(bytes4)":"01ffc9a7","symbol()":"95d89b41","totalSupply()":"18160ddd","transfer(address,uint256)":"a9059cbb","transferFrom(address,address,uint256)":"23b872dd","updateOracle(address)":"1cb44dfc","updateStabilizer(address)":"46dc94c4"},"storageLayout":{"storage":[{"astId":43174,"contract":"src/UspdToken.sol:USPDToken","label":"_balances","offset":0,"slot":"0","type":"t_mapping(t_address,t_uint256)"},{"astId":43180,"contract":"src/UspdToken.sol:USPDToken","label":"_allowances","offset":0,"slot":"1","type":"t_mapping(t_address,t_mapping(t_address,t_uint256))"},{"astId":43182,"contract":"src/UspdToken.sol:USPDToken","label":"_totalSupply","offset":0,"slot":"2","type":"t_uint256"},{"astId":43184,"contract":"src/UspdToken.sol:USPDToken","label":"_name","offset":0,"slot":"3","type":"t_string_storage"},{"astId":43186,"contract":"src/UspdToken.sol:USPDToken","label":"_symbol","offset":0,"slot":"4","type":"t_string_storage"},{"astId":46685,"contract":"src/UspdToken.sol:USPDToken","label":"_nameFallback","offset":0,"slot":"5","type":"t_string_storage"},{"astId":46687,"contract":"src/UspdToken.sol:USPDToken","label":"_versionFallback","offset":0,"slot":"6","type":"t_string_storage"},{"astId":44653,"contract":"src/UspdToken.sol:USPDToken","label":"_nonces","offset":0,"slot":"7","type":"t_mapping(t_address,t_uint256)"},{"astId":41906,"contract":"src/UspdToken.sol:USPDToken","label":"_roles","offset":0,"slot":"8","type":"t_mapping(t_bytes32,t_struct(RoleData)41901_storage)"},{"astId":55355,"contract":"src/UspdToken.sol:USPDToken","label":"oracle","offset":0,"slot":"9","type":"t_contract(PriceOracle)53063"},{"astId":55358,"contract":"src/UspdToken.sol:USPDToken","label":"stabilizer","offset":0,"slot":"10","type":"t_contract(IStabilizerNFT)55864"},{"astId":55404,"contract":"src/UspdToken.sol:USPDToken","label":"maxMintingSum","offset":0,"slot":"11","type":"t_uint256"}],"types":{"t_address":{"encoding":"inplace","label":"address","numberOfBytes":"20"},"t_bool":{"encoding":"inplace","label":"bool","numberOfBytes":"1"},"t_bytes32":{"encoding":"inplace","label":"bytes32","numberOfBytes":"32"},"t_contract(IStabilizerNFT)55864":{"encoding":"inplace","label":"contract IStabilizerNFT","numberOfBytes":"20"},"t_contract(PriceOracle)53063":{"encoding":"inplace","label":"contract PriceOracle","numberOfBytes":"20"},"t_mapping(t_address,t_bool)":{"encoding":"mapping","key":"t_address","label":"mapping(address => bool)","numberOfBytes":"32","value":"t_bool"},"t_mapping(t_address,t_mapping(t_address,t_uint256))":{"encoding":"mapping","key":"t_address","label":"mapping(address => mapping(address => uint256))","numberOfBytes":"32","value":"t_mapping(t_address,t_uint256)"},"t_mapping(t_address,t_uint256)":{"encoding":"mapping","key":"t_address","label":"mapping(address => uint256)","numberOfBytes":"32","value":"t_uint256"},"t_mapping(t_bytes32,t_struct(RoleData)41901_storage)":{"encoding":"mapping","key":"t_bytes32","label":"mapping(bytes32 => struct AccessControl.RoleData)","numberOfBytes":"32","value":"t_struct(RoleData)41901_storage"},"t_string_storage":{"encoding":"bytes","label":"string","numberOfBytes":"32"},"t_struct(RoleData)41901_storage":{"encoding":"inplace","label":"struct AccessControl.RoleData","numberOfBytes":"64","members":[{"astId":41898,"contract":"src/UspdToken.sol:USPDToken","label":"hasRole","offset":0,"slot":"0","type":"t_mapping(t_address,t_bool)"},{"astId":41900,"contract":"src/UspdToken.sol:USPDToken","label":"adminRole","offset":0,"slot":"1","type":"t_bytes32"}]},"t_uint256":{"encoding":"inplace","label":"uint256","numberOfBytes":"32"}}},"id":76}