{"abi":[{"type":"constructor","inputs":[{"name":"_oracle","type":"address","internalType":"address"}],"stateMutability":"nonpayable"},{"type":"receive","stateMutability":"payable"},{"type":"function","name":"DEFAULT_ADMIN_ROLE","inputs":[],"outputs":[{"name":"","type":"bytes32","internalType":"bytes32"}],"stateMutability":"view"},{"type":"function","name":"DOMAIN_SEPARATOR","inputs":[],"outputs":[{"name":"","type":"bytes32","internalType":"bytes32"}],"stateMutability":"view"},{"type":"function","name":"EXCESS_COLLATERAL_DRAIN_ROLE","inputs":[],"outputs":[{"name":"","type":"bytes32","internalType":"bytes32"}],"stateMutability":"view"},{"type":"function","name":"UPDATE_ORACLE_ROLE","inputs":[],"outputs":[{"name":"","type":"bytes32","internalType":"bytes32"}],"stateMutability":"view"},{"type":"function","name":"allowance","inputs":[{"name":"owner","type":"address","internalType":"address"},{"name":"spender","type":"address","internalType":"address"}],"outputs":[{"name":"","type":"uint256","internalType":"uint256"}],"stateMutability":"view"},{"type":"function","name":"approve","inputs":[{"name":"spender","type":"address","internalType":"address"},{"name":"value","type":"uint256","internalType":"uint256"}],"outputs":[{"name":"","type":"bool","internalType":"bool"}],"stateMutability":"nonpayable"},{"type":"function","name":"balanceOf","inputs":[{"name":"account","type":"address","internalType":"address"}],"outputs":[{"name":"","type":"uint256","internalType":"uint256"}],"stateMutability":"view"},{"type":"function","name":"burn","inputs":[{"name":"amount","type":"uint256","internalType":"uint256"},{"name":"to","type":"address","internalType":"address"}],"outputs":[],"stateMutability":"nonpayable"},{"type":"function","name":"decimals","inputs":[],"outputs":[{"name":"","type":"uint8","internalType":"uint8"}],"stateMutability":"view"},{"type":"function","name":"drainOvercollateralizedFunds","inputs":[{"name":"to","type":"address","internalType":"address payable"}],"outputs":[],"stateMutability":"nonpayable"},{"type":"function","name":"eip712Domain","inputs":[],"outputs":[{"name":"fields","type":"bytes1","internalType":"bytes1"},{"name":"name","type":"string","internalType":"string"},{"name":"version","type":"string","internalType":"string"},{"name":"chainId","type":"uint256","internalType":"uint256"},{"name":"verifyingContract","type":"address","internalType":"address"},{"name":"salt","type":"bytes32","internalType":"bytes32"},{"name":"extensions","type":"uint256[]","internalType":"uint256[]"}],"stateMutability":"view"},{"type":"function","name":"getCollateralization","inputs":[],"outputs":[{"name":"","type":"uint256","internalType":"uint256"}],"stateMutability":"view"},{"type":"function","name":"getRoleAdmin","inputs":[{"name":"role","type":"bytes32","internalType":"bytes32"}],"outputs":[{"name":"","type":"bytes32","internalType":"bytes32"}],"stateMutability":"view"},{"type":"function","name":"grantRole","inputs":[{"name":"role","type":"bytes32","internalType":"bytes32"},{"name":"account","type":"address","internalType":"address"}],"outputs":[],"stateMutability":"nonpayable"},{"type":"function","name":"hasRole","inputs":[{"name":"role","type":"bytes32","internalType":"bytes32"},{"name":"account","type":"address","internalType":"address"}],"outputs":[{"name":"","type":"bool","internalType":"bool"}],"stateMutability":"view"},{"type":"function","name":"mint","inputs":[{"name":"to","type":"address","internalType":"address"}],"outputs":[],"stateMutability":"payable"},{"type":"function","name":"name","inputs":[],"outputs":[{"name":"","type":"string","internalType":"string"}],"stateMutability":"view"},{"type":"function","name":"nonces","inputs":[{"name":"owner","type":"address","internalType":"address"}],"outputs":[{"name":"","type":"uint256","internalType":"uint256"}],"stateMutability":"view"},{"type":"function","name":"permit","inputs":[{"name":"owner","type":"address","internalType":"address"},{"name":"spender","type":"address","internalType":"address"},{"name":"value","type":"uint256","internalType":"uint256"},{"name":"deadline","type":"uint256","internalType":"uint256"},{"name":"v","type":"uint8","internalType":"uint8"},{"name":"r","type":"bytes32","internalType":"bytes32"},{"name":"s","type":"bytes32","internalType":"bytes32"}],"outputs":[],"stateMutability":"nonpayable"},{"type":"function","name":"renounceRole","inputs":[{"name":"role","type":"bytes32","internalType":"bytes32"},{"name":"callerConfirmation","type":"address","internalType":"address"}],"outputs":[],"stateMutability":"nonpayable"},{"type":"function","name":"revokeRole","inputs":[{"name":"role","type":"bytes32","internalType":"bytes32"},{"name":"account","type":"address","internalType":"address"}],"outputs":[],"stateMutability":"nonpayable"},{"type":"function","name":"supportsInterface","inputs":[{"name":"interfaceId","type":"bytes4","internalType":"bytes4"}],"outputs":[{"name":"","type":"bool","internalType":"bool"}],"stateMutability":"view"},{"type":"function","name":"symbol","inputs":[],"outputs":[{"name":"","type":"string","internalType":"string"}],"stateMutability":"view"},{"type":"function","name":"totalSupply","inputs":[],"outputs":[{"name":"","type":"uint256","internalType":"uint256"}],"stateMutability":"view"},{"type":"function","name":"transfer","inputs":[{"name":"to","type":"address","internalType":"address"},{"name":"value","type":"uint256","internalType":"uint256"}],"outputs":[{"name":"","type":"bool","internalType":"bool"}],"stateMutability":"nonpayable"},{"type":"function","name":"transferFrom","inputs":[{"name":"from","type":"address","internalType":"address"},{"name":"to","type":"address","internalType":"address"},{"name":"value","type":"uint256","internalType":"uint256"}],"outputs":[{"name":"","type":"bool","internalType":"bool"}],"stateMutability":"nonpayable"},{"type":"function","name":"updateOracle","inputs":[{"name":"newOracle","type":"address","internalType":"address"}],"outputs":[],"stateMutability":"nonpayable"},{"type":"event","name":"Approval","inputs":[{"name":"owner","type":"address","indexed":true,"internalType":"address"},{"name":"spender","type":"address","indexed":true,"internalType":"address"},{"name":"value","type":"uint256","indexed":false,"internalType":"uint256"}],"anonymous":false},{"type":"event","name":"EIP712DomainChanged","inputs":[],"anonymous":false},{"type":"event","name":"ExcessCollateralPayout","inputs":[{"name":"to","type":"address","indexed":false,"internalType":"address"},{"name":"ethAmount","type":"uint256","indexed":false,"internalType":"uint256"}],"anonymous":false},{"type":"event","name":"Payout","inputs":[{"name":"to","type":"address","indexed":false,"internalType":"address"},{"name":"psdAmount","type":"uint256","indexed":false,"internalType":"uint256"},{"name":"ethAmount","type":"uint256","indexed":false,"internalType":"uint256"},{"name":"askPrice","type":"uint256","indexed":false,"internalType":"uint256"}],"anonymous":false},{"type":"event","name":"PriceOracleUpdated","inputs":[{"name":"oldOracle","type":"address","indexed":false,"internalType":"address"},{"name":"newOracle","type":"address","indexed":false,"internalType":"address"}],"anonymous":false},{"type":"event","name":"RoleAdminChanged","inputs":[{"name":"role","type":"bytes32","indexed":true,"internalType":"bytes32"},{"name":"previousAdminRole","type":"bytes32","indexed":true,"internalType":"bytes32"},{"name":"newAdminRole","type":"bytes32","indexed":true,"internalType":"bytes32"}],"anonymous":false},{"type":"event","name":"RoleGranted","inputs":[{"name":"role","type":"bytes32","indexed":true,"internalType":"bytes32"},{"name":"account","type":"address","indexed":true,"internalType":"address"},{"name":"sender","type":"address","indexed":true,"internalType":"address"}],"anonymous":false},{"type":"event","name":"RoleRevoked","inputs":[{"name":"role","type":"bytes32","indexed":true,"internalType":"bytes32"},{"name":"account","type":"address","indexed":true,"internalType":"address"},{"name":"sender","type":"address","indexed":true,"internalType":"address"}],"anonymous":false},{"type":"event","name":"Transfer","inputs":[{"name":"from","type":"address","indexed":true,"internalType":"address"},{"name":"to","type":"address","indexed":true,"internalType":"address"},{"name":"value","type":"uint256","indexed":false,"internalType":"uint256"}],"anonymous":false},{"type":"error","name":"AccessControlBadConfirmation","inputs":[]},{"type":"error","name":"AccessControlUnauthorizedAccount","inputs":[{"name":"account","type":"address","internalType":"address"},{"name":"neededRole","type":"bytes32","internalType":"bytes32"}]},{"type":"error","name":"ECDSAInvalidSignature","inputs":[]},{"type":"error","name":"ECDSAInvalidSignatureLength","inputs":[{"name":"length","type":"uint256","internalType":"uint256"}]},{"type":"error","name":"ECDSAInvalidSignatureS","inputs":[{"name":"s","type":"bytes32","internalType":"bytes32"}]},{"type":"error","name":"ERC20InsufficientAllowance","inputs":[{"name":"spender","type":"address","internalType":"address"},{"name":"allowance","type":"uint256","internalType":"uint256"},{"name":"needed","type":"uint256","internalType":"uint256"}]},{"type":"error","name":"ERC20InsufficientBalance","inputs":[{"name":"sender","type":"address","internalType":"address"},{"name":"balance","type":"uint256","internalType":"uint256"},{"name":"needed","type":"uint256","internalType":"uint256"}]},{"type":"error","name":"ERC20InvalidApprover","inputs":[{"name":"approver","type":"address","internalType":"address"}]},{"type":"error","name":"ERC20InvalidReceiver","inputs":[{"name":"receiver","type":"address","internalType":"address"}]},{"type":"error","name":"ERC20InvalidSender","inputs":[{"name":"sender","type":"address","internalType":"address"}]},{"type":"error","name":"ERC20InvalidSpender","inputs":[{"name":"spender","type":"address","internalType":"address"}]},{"type":"error","name":"ERC2612ExpiredSignature","inputs":[{"name":"deadline","type":"uint256","internalType":"uint256"}]},{"type":"error","name":"ERC2612InvalidSigner","inputs":[{"name":"signer","type":"address","internalType":"address"},{"name":"owner","type":"address","internalType":"address"}]},{"type":"error","name":"InvalidAccountNonce","inputs":[{"name":"account","type":"address","internalType":"address"},{"name":"currentNonce","type":"uint256","internalType":"uint256"}]},{"type":"error","name":"InvalidShortString","inputs":[]},{"type":"error","name":"StringTooLong","inputs":[{"name":"str","type":"string","internalType":"string"}]}],"bytecode":{"object":"0x6101606040526103e8600a55348015610016575f80fd5b506040516139943803806139948339818101604052810190610038919061056d565b6040518060400160405280600881526020017f5553504444454d4f000000000000000000000000000000000000000000000000815250806040518060400160405280600181526020017f31000000000000000000000000000000000000000000000000000000000000008152506040518060400160405280600981526020017f555350442044656d6f00000000000000000000000000000000000000000000008152506040518060400160405280600881526020017f5553504444454d4f000000000000000000000000000000000000000000000000815250816003908161012091906107d2565b50806004908161013091906107d2565b50505061014760058361029960201b90919060201c565b610120818152505061016360068261029960201b90919060201c565b6101408181525050818051906020012060e08181525050808051906020012061010081815250504660a081815250506101a06102e660201b60201c565b608081815250503073ffffffffffffffffffffffffffffffffffffffff1660c08173ffffffffffffffffffffffffffffffffffffffff16815250505050508060095f6101000a81548173ffffffffffffffffffffffffffffffffffffffff021916908373ffffffffffffffffffffffffffffffffffffffff1602179055506102305f801b3361034060201b60201c565b506102617f07dadfef42b760da37c1787f23390032c991ba73626ca6711e8fbb581ca48ec53361034060201b60201c565b506102927f90e45b937a8206cd9165edccea3d6e7eee3817439762d76dd6f0730bb9e8f6713361034060201b60201c565b5050610a41565b5f6020835110156102ba576102b38361043660201b60201c565b90506102e0565b826102ca8361049b60201b60201c565b5f0190816102d891906107d2565b5060ff5f1b90505b92915050565b5f7f8b73c3c69bb8fe3d512ecc4cf759cc79239f7b179b0ffacaa9a75d522b39400f60e0516101005146306040516020016103259594939291906108d7565b60405160208183030381529060405280519060200120905090565b5f61035183836104a460201b60201c565b61042c57600160085f8581526020019081526020015f205f015f8473ffffffffffffffffffffffffffffffffffffffff1673ffffffffffffffffffffffffffffffffffffffff1681526020019081526020015f205f6101000a81548160ff0219169083151502179055506103c961050860201b60201c565b73ffffffffffffffffffffffffffffffffffffffff168273ffffffffffffffffffffffffffffffffffffffff16847f2f8788117e7eff1d82e926ec794901d17c78024a50270940304540a733656f0d60405160405180910390a460019050610430565b5f90505b92915050565b5f80829050601f8151111561048257826040517f305a27a9000000000000000000000000000000000000000000000000000000008152600401610479919061098e565b60405180910390fd5b80518161048e906109db565b5f1c175f1b915050919050565b5f819050919050565b5f60085f8481526020019081526020015f205f015f8373ffffffffffffffffffffffffffffffffffffffff1673ffffffffffffffffffffffffffffffffffffffff1681526020019081526020015f205f9054906101000a900460ff16905092915050565b5f33905090565b5f80fd5b5f73ffffffffffffffffffffffffffffffffffffffff82169050919050565b5f61053c82610513565b9050919050565b61054c81610532565b8114610556575f80fd5b50565b5f8151905061056781610543565b92915050565b5f602082840312156105825761058161050f565b5b5f61058f84828501610559565b91505092915050565b5f81519050919050565b7f4e487b71000000000000000000000000000000000000000000000000000000005f52604160045260245ffd5b7f4e487b71000000000000000000000000000000000000000000000000000000005f52602260045260245ffd5b5f600282049050600182168061061357607f821691505b602082108103610626576106256105cf565b5b50919050565b5f819050815f5260205f209050919050565b5f6020601f8301049050919050565b5f82821b905092915050565b5f600883026106887fffffffffffffffffffffffffffffffffffffffffffffffffffffffffffffffff8261064d565b610692868361064d565b95508019841693508086168417925050509392505050565b5f819050919050565b5f819050919050565b5f6106d66106d16106cc846106aa565b6106b3565b6106aa565b9050919050565b5f819050919050565b6106ef836106bc565b6107036106fb826106dd565b848454610659565b825550505050565b5f90565b61071761070b565b6107228184846106e6565b505050565b5b818110156107455761073a5f8261070f565b600181019050610728565b5050565b601f82111561078a5761075b8161062c565b6107648461063e565b81016020851015610773578190505b61078761077f8561063e565b830182610727565b50505b505050565b5f82821c905092915050565b5f6107aa5f198460080261078f565b1980831691505092915050565b5f6107c2838361079b565b9150826002028217905092915050565b6107db82610598565b67ffffffffffffffff8111156107f4576107f36105a2565b5b6107fe82546105fc565b610809828285610749565b5f60209050601f83116001811461083a575f8415610828578287015190505b61083285826107b7565b865550610899565b601f1984166108488661062c565b5f5b8281101561086f5784890151825560018201915060208501945060208101905061084a565b8683101561088c5784890151610888601f89168261079b565b8355505b6001600288020188555050505b505050505050565b5f819050919050565b6108b3816108a1565b82525050565b6108c2816106aa565b82525050565b6108d181610532565b82525050565b5f60a0820190506108ea5f8301886108aa565b6108f760208301876108aa565b61090460408301866108aa565b61091160608301856108b9565b61091e60808301846108c8565b9695505050505050565b5f82825260208201905092915050565b8281835e5f83830152505050565b5f601f19601f8301169050919050565b5f61096082610598565b61096a8185610928565b935061097a818560208601610938565b61098381610946565b840191505092915050565b5f6020820190508181035f8301526109a68184610956565b905092915050565b5f81519050919050565b5f819050602082019050919050565b5f6109d282516108a1565b80915050919050565b5f6109e5826109ae565b826109ef846109b8565b90506109fa816109c7565b92506020821015610a3a57610a357fffffffffffffffffffffffffffffffffffffffffffffffffffffffffffffffff8360200360080261064d565b831692505b5050919050565b60805160a05160c05160e051610100516101205161014051612f02610a925f395f6118dc01525f6118a101525f611ea501525f611e8401525f6116b501525f61170b01525f6117340152612f025ff3fe60806040526004361061019f575f3560e01c806370a08231116100eb578063a9059cbb11610089578063d505accf11610063578063d505accf146105f9578063d547741f14610621578063dd62ed3e14610649578063fcd3533c14610685576101af565b8063a9059cbb14610569578063b6e33f3b146105a5578063ce394e6e146105cf576101af565b806385e73b5d116100c557806385e73b5d146104b157806391d14854146104d957806395d89b4114610515578063a217fddf1461053f576101af565b806370a08231146104095780637ecebe001461044557806384b0196e14610481576101af565b8063248a9ca3116101585780633644e515116101325780633644e5151461037157806336568abe1461039b57806361aa346e146103c35780636a627842146103ed576101af565b8063248a9ca3146102e35780632f2ff15d1461031f578063313ce56714610347576101af565b806301ffc9a7146101b357806306fdde03146101ef578063095ea7b31461021957806318160ddd146102555780631cb44dfc1461027f57806323b872dd146102a7576101af565b366101af576101ad336106ad565b005b5f80fd5b3480156101be575f80fd5b506101d960048036038101906101d49190612344565b61084a565b6040516101e69190612389565b60405180910390f35b3480156101fa575f80fd5b506102036108c3565b6040516102109190612412565b60405180910390f35b348015610224575f80fd5b5061023f600480360381019061023a91906124bf565b610953565b60405161024c9190612389565b60405180910390f35b348015610260575f80fd5b50610269610975565b604051610276919061250c565b60405180910390f35b34801561028a575f80fd5b506102a560048036038101906102a09190612525565b61097e565b005b3480156102b2575f80fd5b506102cd60048036038101906102c89190612550565b610a46565b6040516102da9190612389565b60405180910390f35b3480156102ee575f80fd5b50610309600480360381019061030491906125d3565b610a74565b604051610316919061260d565b60405180910390f35b34801561032a575f80fd5b5061034560048036038101906103409190612626565b610a91565b005b348015610352575f80fd5b5061035b610ab3565b604051610368919061267f565b60405180910390f35b34801561037c575f80fd5b50610385610abb565b604051610392919061260d565b60405180910390f35b3480156103a6575f80fd5b506103c160048036038101906103bc9190612626565b610ac9565b005b3480156103ce575f80fd5b506103d7610b44565b6040516103e4919061260d565b60405180910390f35b61040760048036038101906104029190612525565b6106ad565b005b348015610414575f80fd5b5061042f600480360381019061042a9190612525565b610b68565b60405161043c919061250c565b60405180910390f35b348015610450575f80fd5b5061046b60048036038101906104669190612525565b610bad565b604051610478919061250c565b60405180910390f35b34801561048c575f80fd5b50610495610bbe565b6040516104a89796959493929190612798565b60405180910390f35b3480156104bc575f80fd5b506104d760048036038101906104d29190612855565b610c63565b005b3480156104e4575f80fd5b506104ff60048036038101906104fa9190612626565b610ded565b60405161050c9190612389565b60405180910390f35b348015610520575f80fd5b50610529610e51565b6040516105369190612412565b60405180910390f35b34801561054a575f80fd5b50610553610ee1565b604051610560919061260d565b60405180910390f35b348015610574575f80fd5b5061058f600480360381019061058a91906124bf565b610ee7565b60405161059c9190612389565b60405180910390f35b3480156105b0575f80fd5b506105b9610f09565b6040516105c6919061260d565b60405180910390f35b3480156105da575f80fd5b506105e3610f2d565b6040516105f0919061250c565b60405180910390f35b348015610604575f80fd5b5061061f600480360381019061061a91906128aa565b611004565b005b34801561062c575f80fd5b5061064760048036038101906106429190612626565b611149565b005b348015610654575f80fd5b5061066f600480360381019061066a9190612947565b61116b565b60405161067c919061250c565b60405180910390f35b348015610690575f80fd5b506106ab60048036038101906106a69190612985565b6111ed565b005b5f60095f9054906101000a900473ffffffffffffffffffffffffffffffffffffffff1673ffffffffffffffffffffffffffffffffffffffff1663ec34866d6040518163ffffffff1660e01b8152600401602060405180830381865afa158015610718573d5f803e3d5ffd5b505050506040513d601f19601f8201168201806040525081019061073c91906129d7565b90505f670de0b6b3a764000082346107549190612a2f565b61075e9190612a9d565b90505f82670de0b6b3a7640000836107769190612a2f565b6107809190612a9d565b3461078b9190612acd565b9050670de0b6b3a7640000600a546107a39190612a2f565b826107ac610975565b6107b69190612b00565b106107f6576040517f08c379a00000000000000000000000000000000000000000000000000000000081526004016107ed90612ba3565b60405180910390fd5b6108008483611331565b3373ffffffffffffffffffffffffffffffffffffffff166108fc8290811502906040515f60405180830381858888f19350505050158015610843573d5f803e3d5ffd5b5050505050565b5f7f7965db0b000000000000000000000000000000000000000000000000000000007bffffffffffffffffffffffffffffffffffffffffffffffffffffffff1916827bffffffffffffffffffffffffffffffffffffffffffffffffffffffff191614806108bc57506108bb826113b0565b5b9050919050565b6060600380546108d290612bee565b80601f01602080910402602001604051908101604052809291908181526020018280546108fe90612bee565b80156109495780601f1061092057610100808354040283529160200191610949565b820191905f5260205f20905b81548152906001019060200180831161092c57829003601f168201915b5050505050905090565b5f8061095d611419565b905061096a818585611420565b600191505092915050565b5f600254905090565b7f90e45b937a8206cd9165edccea3d6e7eee3817439762d76dd6f0730bb9e8f6716109a881611432565b7f56b5f80d8cac1479698aa7d01605fd6111e90b15fc4d2b377417f46034876cbd60095f9054906101000a900473ffffffffffffffffffffffffffffffffffffffff16836040516109fa929190612c1e565b60405180910390a18160095f6101000a81548173ffffffffffffffffffffffffffffffffffffffff021916908373ffffffffffffffffffffffffffffffffffffffff1602179055505050565b5f80610a50611419565b9050610a5d858285611446565b610a688585856114d8565b60019150509392505050565b5f60085f8381526020019081526020015f20600101549050919050565b610a9a82610a74565b610aa381611432565b610aad83836115c8565b50505050565b5f6012905090565b5f610ac46116b2565b905090565b610ad1611419565b73ffffffffffffffffffffffffffffffffffffffff168173ffffffffffffffffffffffffffffffffffffffff1614610b35576040517f6697b23200000000000000000000000000000000000000000000000000000000815260040160405180910390fd5b610b3f8282611768565b505050565b7f90e45b937a8206cd9165edccea3d6e7eee3817439762d76dd6f0730bb9e8f67181565b5f805f8373ffffffffffffffffffffffffffffffffffffffff1673ffffffffffffffffffffffffffffffffffffffff1681526020019081526020015f20549050919050565b5f610bb782611852565b9050919050565b5f6060805f805f6060610bcf611898565b610bd76118d3565b46305f801b5f67ffffffffffffffff811115610bf657610bf5612c45565b5b604051908082528060200260200182016040528015610c245781602001602082028036833780820191505090505b507f0f00000000000000000000000000000000000000000000000000000000000000959493929190965096509650965096509650965090919293949596565b7f07dadfef42b760da37c1787f23390032c991ba73626ca6711e8fbb581ca48ec5610c8d81611432565b5f60095f9054906101000a900473ffffffffffffffffffffffffffffffffffffffff1673ffffffffffffffffffffffffffffffffffffffff16635155c1426040518163ffffffff1660e01b8152600401602060405180830381865afa158015610cf8573d5f803e3d5ffd5b505050506040513d601f19601f82011682018060405250810190610d1c91906129d7565b90505f81670de0b6b3a7640000610d31610975565b610d3b9190612a2f565b610d459190612a9d565b47610d509190612acd565b90508373ffffffffffffffffffffffffffffffffffffffff166108fc606483605f610d7b9190612a2f565b610d859190612a9d565b90811502906040515f60405180830381858888f19350505050158015610dad573d5f803e3d5ffd5b507fc0d37c7700db7ed0fd47e132c15accdb2d8f64f0b60fa478939c0aef5192cbf08482604051610ddf929190612ccd565b60405180910390a150505050565b5f60085f8481526020019081526020015f205f015f8373ffffffffffffffffffffffffffffffffffffffff1673ffffffffffffffffffffffffffffffffffffffff1681526020019081526020015f205f9054906101000a900460ff16905092915050565b606060048054610e6090612bee565b80601f0160208091040260200160405190810160405280929190818152602001828054610e8c90612bee565b8015610ed75780601f10610eae57610100808354040283529160200191610ed7565b820191905f5260205f20905b815481529060010190602001808311610eba57829003601f168201915b5050505050905090565b5f801b81565b5f80610ef1611419565b9050610efe8185856114d8565b600191505092915050565b7f07dadfef42b760da37c1787f23390032c991ba73626ca6711e8fbb581ca48ec581565b5f8060095f9054906101000a900473ffffffffffffffffffffffffffffffffffffffff1673ffffffffffffffffffffffffffffffffffffffff16635155c1426040518163ffffffff1660e01b8152600401602060405180830381865afa158015610f99573d5f803e3d5ffd5b505050506040513d601f19601f82011682018060405250810190610fbd91906129d7565b9050620f424081670de0b6b3a7640000610fd5610975565b610fdf9190612a2f565b610fe99190612a9d565b47610ff49190612a9d565b610ffe9190612a2f565b91505090565b8342111561104957836040517f62791302000000000000000000000000000000000000000000000000000000008152600401611040919061250c565b60405180910390fd5b5f7f6e71edae12b1b97f4d1f60370fef10105fa2faae0126114a169c64845d6126c98888886110778c61190e565b8960405160200161108d96959493929190612cf4565b6040516020818303038152906040528051906020012090505f6110af82611961565b90505f6110be8287878761197a565b90508973ffffffffffffffffffffffffffffffffffffffff168173ffffffffffffffffffffffffffffffffffffffff161461113257808a6040517f4b800e46000000000000000000000000000000000000000000000000000000008152600401611129929190612c1e565b60405180910390fd5b61113d8a8a8a611420565b50505050505050505050565b61115282610a74565b61115b81611432565b6111658383611768565b50505050565b5f60015f8473ffffffffffffffffffffffffffffffffffffffff1673ffffffffffffffffffffffffffffffffffffffff1681526020019081526020015f205f8373ffffffffffffffffffffffffffffffffffffffff1673ffffffffffffffffffffffffffffffffffffffff1681526020019081526020015f2054905092915050565b6111f733836119a8565b5f60095f9054906101000a900473ffffffffffffffffffffffffffffffffffffffff1673ffffffffffffffffffffffffffffffffffffffff16635155c1426040518163ffffffff1660e01b8152600401602060405180830381865afa158015611262573d5f803e3d5ffd5b505050506040513d601f19601f8201168201806040525081019061128691906129d7565b90505f81670de0b6b3a76400008561129e9190612a2f565b6112a89190612a9d565b90507f6a8d62de1ac9f1415dd17b430b809682ff1794d5b31015f9acf43fcdf17a6885838583856040516112df9493929190612d53565b60405180910390a18273ffffffffffffffffffffffffffffffffffffffff166108fc8290811502906040515f60405180830381858888f1935050505015801561132a573d5f803e3d5ffd5b5050505050565b5f73ffffffffffffffffffffffffffffffffffffffff168273ffffffffffffffffffffffffffffffffffffffff16036113a1575f6040517fec442f050000000000000000000000000000000000000000000000000000000081526004016113989190612d96565b60405180910390fd5b6113ac5f8383611a27565b5050565b5f7f01ffc9a7000000000000000000000000000000000000000000000000000000007bffffffffffffffffffffffffffffffffffffffffffffffffffffffff1916827bffffffffffffffffffffffffffffffffffffffffffffffffffffffff1916149050919050565b5f33905090565b61142d8383836001611c40565b505050565b6114438161143e611419565b611e0f565b50565b5f611451848461116b565b90507fffffffffffffffffffffffffffffffffffffffffffffffffffffffffffffffff81146114d257818110156114c3578281836040517ffb8f41b20000000000000000000000000000000000000000000000000000000081526004016114ba93929190612daf565b60405180910390fd5b6114d184848484035f611c40565b5b50505050565b5f73ffffffffffffffffffffffffffffffffffffffff168373ffffffffffffffffffffffffffffffffffffffff1603611548575f6040517f96c6fd1e00000000000000000000000000000000000000000000000000000000815260040161153f9190612d96565b60405180910390fd5b5f73ffffffffffffffffffffffffffffffffffffffff168273ffffffffffffffffffffffffffffffffffffffff16036115b8575f6040517fec442f050000000000000000000000000000000000000000000000000000000081526004016115af9190612d96565b60405180910390fd5b6115c3838383611a27565b505050565b5f6115d38383610ded565b6116a857600160085f8581526020019081526020015f205f015f8473ffffffffffffffffffffffffffffffffffffffff1673ffffffffffffffffffffffffffffffffffffffff1681526020019081526020015f205f6101000a81548160ff021916908315150217905550611645611419565b73ffffffffffffffffffffffffffffffffffffffff168273ffffffffffffffffffffffffffffffffffffffff16847f2f8788117e7eff1d82e926ec794901d17c78024a50270940304540a733656f0d60405160405180910390a4600190506116ac565b5f90505b92915050565b5f7f000000000000000000000000000000000000000000000000000000000000000073ffffffffffffffffffffffffffffffffffffffff163073ffffffffffffffffffffffffffffffffffffffff1614801561172d57507f000000000000000000000000000000000000000000000000000000000000000046145b1561175a577f00000000000000000000000000000000000000000000000000000000000000009050611765565b611762611e60565b90505b90565b5f6117738383610ded565b15611848575f60085f8581526020019081526020015f205f015f8473ffffffffffffffffffffffffffffffffffffffff1673ffffffffffffffffffffffffffffffffffffffff1681526020019081526020015f205f6101000a81548160ff0219169083151502179055506117e5611419565b73ffffffffffffffffffffffffffffffffffffffff168273ffffffffffffffffffffffffffffffffffffffff16847ff6391f5c32d9c69d2a47ea670b442974b53935d1edc7fd64eb21e047a839171b60405160405180910390a46001905061184c565b5f90505b92915050565b5f60075f8373ffffffffffffffffffffffffffffffffffffffff1673ffffffffffffffffffffffffffffffffffffffff1681526020019081526020015f20549050919050565b60606118ce60057f0000000000000000000000000000000000000000000000000000000000000000611ef590919063ffffffff16565b905090565b606061190960067f0000000000000000000000000000000000000000000000000000000000000000611ef590919063ffffffff16565b905090565b5f60075f8373ffffffffffffffffffffffffffffffffffffffff1673ffffffffffffffffffffffffffffffffffffffff1681526020019081526020015f205f815480929190600101919050559050919050565b5f61197361196d6116b2565b83611fa2565b9050919050565b5f805f8061198a88888888611fe2565b92509250925061199a82826120c9565b829350505050949350505050565b5f73ffffffffffffffffffffffffffffffffffffffff168273ffffffffffffffffffffffffffffffffffffffff1603611a18575f6040517f96c6fd1e000000000000000000000000000000000000000000000000000000008152600401611a0f9190612d96565b60405180910390fd5b611a23825f83611a27565b5050565b5f73ffffffffffffffffffffffffffffffffffffffff168373ffffffffffffffffffffffffffffffffffffffff1603611a77578060025f828254611a6b9190612b00565b92505081905550611b45565b5f805f8573ffffffffffffffffffffffffffffffffffffffff1673ffffffffffffffffffffffffffffffffffffffff1681526020019081526020015f2054905081811015611b00578381836040517fe450d38c000000000000000000000000000000000000000000000000000000008152600401611af793929190612daf565b60405180910390fd5b8181035f808673ffffffffffffffffffffffffffffffffffffffff1673ffffffffffffffffffffffffffffffffffffffff1681526020019081526020015f2081905550505b5f73ffffffffffffffffffffffffffffffffffffffff168273ffffffffffffffffffffffffffffffffffffffff1603611b8c578060025f8282540392505081905550611bd6565b805f808473ffffffffffffffffffffffffffffffffffffffff1673ffffffffffffffffffffffffffffffffffffffff1681526020019081526020015f205f82825401925050819055505b8173ffffffffffffffffffffffffffffffffffffffff168373ffffffffffffffffffffffffffffffffffffffff167fddf252ad1be2c89b69c2b068fc378daa952ba7f163c4a11628f55a4df523b3ef83604051611c33919061250c565b60405180910390a3505050565b5f73ffffffffffffffffffffffffffffffffffffffff168473ffffffffffffffffffffffffffffffffffffffff1603611cb0575f6040517fe602df05000000000000000000000000000000000000000000000000000000008152600401611ca79190612d96565b60405180910390fd5b5f73ffffffffffffffffffffffffffffffffffffffff168373ffffffffffffffffffffffffffffffffffffffff1603611d20575f6040517f94280d62000000000000000000000000000000000000000000000000000000008152600401611d179190612d96565b60405180910390fd5b8160015f8673ffffffffffffffffffffffffffffffffffffffff1673ffffffffffffffffffffffffffffffffffffffff1681526020019081526020015f205f8573ffffffffffffffffffffffffffffffffffffffff1673ffffffffffffffffffffffffffffffffffffffff1681526020019081526020015f20819055508015611e09578273ffffffffffffffffffffffffffffffffffffffff168473ffffffffffffffffffffffffffffffffffffffff167f8c5be1e5ebec7d5bd14f71427d1e84f3dd0314c0f7b2291e5b200ac8c7c3b92584604051611e00919061250c565b60405180910390a35b50505050565b611e198282610ded565b611e5c5780826040517fe2517d3f000000000000000000000000000000000000000000000000000000008152600401611e53929190612de4565b60405180910390fd5b5050565b5f7f8b73c3c69bb8fe3d512ecc4cf759cc79239f7b179b0ffacaa9a75d522b39400f7f00000000000000000000000000000000000000000000000000000000000000007f00000000000000000000000000000000000000000000000000000000000000004630604051602001611eda959493929190612e0b565b60405160208183030381529060405280519060200120905090565b606060ff5f1b8314611f1157611f0a8361222b565b9050611f9c565b818054611f1d90612bee565b80601f0160208091040260200160405190810160405280929190818152602001828054611f4990612bee565b8015611f945780601f10611f6b57610100808354040283529160200191611f94565b820191905f5260205f20905b815481529060010190602001808311611f7757829003601f168201915b505050505090505b92915050565b5f6040517f190100000000000000000000000000000000000000000000000000000000000081528360028201528260228201526042812091505092915050565b5f805f7f7fffffffffffffffffffffffffffffff5d576e7357a4501ddfe92f46681b20a0845f1c111561201e575f6003859250925092506120bf565b5f6001888888886040515f81526020016040526040516120419493929190612e5c565b6020604051602081039080840390855afa158015612061573d5f803e3d5ffd5b5050506020604051035190505f73ffffffffffffffffffffffffffffffffffffffff168173ffffffffffffffffffffffffffffffffffffffff16036120b2575f60015f801b935093509350506120bf565b805f805f1b935093509350505b9450945094915050565b5f60038111156120dc576120db612e9f565b5b8260038111156120ef576120ee612e9f565b5b0315612227576001600381111561210957612108612e9f565b5b82600381111561211c5761211b612e9f565b5b03612153576040517ff645eedf00000000000000000000000000000000000000000000000000000000815260040160405180910390fd5b6002600381111561216757612166612e9f565b5b82600381111561217a57612179612e9f565b5b036121be57805f1c6040517ffce698f70000000000000000000000000000000000000000000000000000000081526004016121b5919061250c565b60405180910390fd5b6003808111156121d1576121d0612e9f565b5b8260038111156121e4576121e3612e9f565b5b0361222657806040517fd78bce0c00000000000000000000000000000000000000000000000000000000815260040161221d919061260d565b60405180910390fd5b5b5050565b60605f6122378361229d565b90505f602067ffffffffffffffff81111561225557612254612c45565b5b6040519080825280601f01601f1916602001820160405280156122875781602001600182028036833780820191505090505b5090508181528360208201528092505050919050565b5f8060ff835f1c169050601f8111156122e2576040517fb3512b0c00000000000000000000000000000000000000000000000000000000815260040160405180910390fd5b80915050919050565b5f80fd5b5f7fffffffff0000000000000000000000000000000000000000000000000000000082169050919050565b612323816122ef565b811461232d575f80fd5b50565b5f8135905061233e8161231a565b92915050565b5f60208284031215612359576123586122eb565b5b5f61236684828501612330565b91505092915050565b5f8115159050919050565b6123838161236f565b82525050565b5f60208201905061239c5f83018461237a565b92915050565b5f81519050919050565b5f82825260208201905092915050565b8281835e5f83830152505050565b5f601f19601f8301169050919050565b5f6123e4826123a2565b6123ee81856123ac565b93506123fe8185602086016123bc565b612407816123ca565b840191505092915050565b5f6020820190508181035f83015261242a81846123da565b905092915050565b5f73ffffffffffffffffffffffffffffffffffffffff82169050919050565b5f61245b82612432565b9050919050565b61246b81612451565b8114612475575f80fd5b50565b5f8135905061248681612462565b92915050565b5f819050919050565b61249e8161248c565b81146124a8575f80fd5b50565b5f813590506124b981612495565b92915050565b5f80604083850312156124d5576124d46122eb565b5b5f6124e285828601612478565b92505060206124f3858286016124ab565b9150509250929050565b6125068161248c565b82525050565b5f60208201905061251f5f8301846124fd565b92915050565b5f6020828403121561253a576125396122eb565b5b5f61254784828501612478565b91505092915050565b5f805f60608486031215612567576125666122eb565b5b5f61257486828701612478565b935050602061258586828701612478565b9250506040612596868287016124ab565b9150509250925092565b5f819050919050565b6125b2816125a0565b81146125bc575f80fd5b50565b5f813590506125cd816125a9565b92915050565b5f602082840312156125e8576125e76122eb565b5b5f6125f5848285016125bf565b91505092915050565b612607816125a0565b82525050565b5f6020820190506126205f8301846125fe565b92915050565b5f806040838503121561263c5761263b6122eb565b5b5f612649858286016125bf565b925050602061265a85828601612478565b9150509250929050565b5f60ff82169050919050565b61267981612664565b82525050565b5f6020820190506126925f830184612670565b92915050565b5f7fff0000000000000000000000000000000000000000000000000000000000000082169050919050565b6126cc81612698565b82525050565b6126db81612451565b82525050565b5f81519050919050565b5f82825260208201905092915050565b5f819050602082019050919050565b6127138161248c565b82525050565b5f612724838361270a565b60208301905092915050565b5f602082019050919050565b5f612746826126e1565b61275081856126eb565b935061275b836126fb565b805f5b8381101561278b5781516127728882612719565b975061277d83612730565b92505060018101905061275e565b5085935050505092915050565b5f60e0820190506127ab5f83018a6126c3565b81810360208301526127bd81896123da565b905081810360408301526127d181886123da565b90506127e060608301876124fd565b6127ed60808301866126d2565b6127fa60a08301856125fe565b81810360c083015261280c818461273c565b905098975050505050505050565b5f61282482612432565b9050919050565b6128348161281a565b811461283e575f80fd5b50565b5f8135905061284f8161282b565b92915050565b5f6020828403121561286a576128696122eb565b5b5f61287784828501612841565b91505092915050565b61288981612664565b8114612893575f80fd5b50565b5f813590506128a481612880565b92915050565b5f805f805f805f60e0888a0312156128c5576128c46122eb565b5b5f6128d28a828b01612478565b97505060206128e38a828b01612478565b96505060406128f48a828b016124ab565b95505060606129058a828b016124ab565b94505060806129168a828b01612896565b93505060a06129278a828b016125bf565b92505060c06129388a828b016125bf565b91505092959891949750929550565b5f806040838503121561295d5761295c6122eb565b5b5f61296a85828601612478565b925050602061297b85828601612478565b9150509250929050565b5f806040838503121561299b5761299a6122eb565b5b5f6129a8858286016124ab565b92505060206129b985828601612478565b9150509250929050565b5f815190506129d181612495565b92915050565b5f602082840312156129ec576129eb6122eb565b5b5f6129f9848285016129c3565b91505092915050565b7f4e487b71000000000000000000000000000000000000000000000000000000005f52601160045260245ffd5b5f612a398261248c565b9150612a448361248c565b9250828202612a528161248c565b91508282048414831517612a6957612a68612a02565b5b5092915050565b7f4e487b71000000000000000000000000000000000000000000000000000000005f52601260045260245ffd5b5f612aa78261248c565b9150612ab28361248c565b925082612ac257612ac1612a70565b5b828204905092915050565b5f612ad78261248c565b9150612ae28361248c565b9250828203905081811115612afa57612af9612a02565b5b92915050565b5f612b0a8261248c565b9150612b158361248c565b9250828201905080821115612b2d57612b2c612a02565b5b92915050565b7f4d696e74696e67204572726f723a204d6178696d756d204c696d6974205265615f8201527f6368656400000000000000000000000000000000000000000000000000000000602082015250565b5f612b8d6024836123ac565b9150612b9882612b33565b604082019050919050565b5f6020820190508181035f830152612bba81612b81565b9050919050565b7f4e487b71000000000000000000000000000000000000000000000000000000005f52602260045260245ffd5b5f6002820490506001821680612c0557607f821691505b602082108103612c1857612c17612bc1565b5b50919050565b5f604082019050612c315f8301856126d2565b612c3e60208301846126d2565b9392505050565b7f4e487b71000000000000000000000000000000000000000000000000000000005f52604160045260245ffd5b5f819050919050565b5f612c95612c90612c8b84612432565b612c72565b612432565b9050919050565b5f612ca682612c7b565b9050919050565b5f612cb782612c9c565b9050919050565b612cc781612cad565b82525050565b5f604082019050612ce05f830185612cbe565b612ced60208301846124fd565b9392505050565b5f60c082019050612d075f8301896125fe565b612d1460208301886126d2565b612d2160408301876126d2565b612d2e60608301866124fd565b612d3b60808301856124fd565b612d4860a08301846124fd565b979650505050505050565b5f608082019050612d665f8301876126d2565b612d7360208301866124fd565b612d8060408301856124fd565b612d8d60608301846124fd565b95945050505050565b5f602082019050612da95f8301846126d2565b92915050565b5f606082019050612dc25f8301866126d2565b612dcf60208301856124fd565b612ddc60408301846124fd565b949350505050565b5f604082019050612df75f8301856126d2565b612e0460208301846125fe565b9392505050565b5f60a082019050612e1e5f8301886125fe565b612e2b60208301876125fe565b612e3860408301866125fe565b612e4560608301856124fd565b612e5260808301846126d2565b9695505050505050565b5f608082019050612e6f5f8301876125fe565b612e7c6020830186612670565b612e8960408301856125fe565b612e9660608301846125fe565b95945050505050565b7f4e487b71000000000000000000000000000000000000000000000000000000005f52602160045260245ffdfea2646970667358221220b3ecf958cfcae4e3651b819e523d318a6a216572664c0114acc19d78b7cd940a64736f6c634300081a0033","linkReferences":{}},"methodIdentifiers":{"DEFAULT_ADMIN_ROLE()":"a217fddf","DOMAIN_SEPARATOR()":"3644e515","EXCESS_COLLATERAL_DRAIN_ROLE()":"b6e33f3b","UPDATE_ORACLE_ROLE()":"61aa346e","allowance(address,address)":"dd62ed3e","approve(address,uint256)":"095ea7b3","balanceOf(address)":"70a08231","burn(uint256,address)":"fcd3533c","decimals()":"313ce567","drainOvercollateralizedFunds(address)":"85e73b5d","eip712Domain()":"84b0196e","getCollateralization()":"ce394e6e","getRoleAdmin(bytes32)":"248a9ca3","grantRole(bytes32,address)":"2f2ff15d","hasRole(bytes32,address)":"91d14854","mint(address)":"6a627842","name()":"06fdde03","nonces(address)":"7ecebe00","permit(address,address,uint256,uint256,uint8,bytes32,bytes32)":"d505accf","renounceRole(bytes32,address)":"36568abe","revokeRole(bytes32,address)":"d547741f","supportsInterface(bytes4)":"01ffc9a7","symbol()":"95d89b41","totalSupply()":"18160ddd","transfer(address,uint256)":"a9059cbb","transferFrom(address,address,uint256)":"23b872dd","updateOracle(address)":"1cb44dfc"},"id":48}