{"abi":[{"type":"constructor","inputs":[{"name":"name","type":"string","internalType":"string"},{"name":"symbol","type":"string","internalType":"string"},{"name":"_cuspdTokenAddress","type":"address","internalType":"address"},{"name":"_rateContractAddress","type":"address","internalType":"address"},{"name":"_admin","type":"address","internalType":"address"}],"stateMutability":"nonpayable"},{"type":"receive","stateMutability":"payable"},{"type":"function","name":"DEFAULT_ADMIN_ROLE","inputs":[],"outputs":[{"name":"","type":"bytes32","internalType":"bytes32"}],"stateMutability":"view"},{"type":"function","name":"DOMAIN_SEPARATOR","inputs":[],"outputs":[{"name":"","type":"bytes32","internalType":"bytes32"}],"stateMutability":"view"},{"type":"function","name":"FACTOR_PRECISION","inputs":[],"outputs":[{"name":"","type":"uint256","internalType":"uint256"}],"stateMutability":"view"},{"type":"function","name":"allowance","inputs":[{"name":"owner","type":"address","internalType":"address"},{"name":"spender","type":"address","internalType":"address"}],"outputs":[{"name":"","type":"uint256","internalType":"uint256"}],"stateMutability":"view"},{"type":"function","name":"approve","inputs":[{"name":"spender","type":"address","internalType":"address"},{"name":"uspdAmount","type":"uint256","internalType":"uint256"}],"outputs":[{"name":"","type":"bool","internalType":"bool"}],"stateMutability":"nonpayable"},{"type":"function","name":"balanceOf","inputs":[{"name":"account","type":"address","internalType":"address"}],"outputs":[{"name":"","type":"uint256","internalType":"uint256"}],"stateMutability":"view"},{"type":"function","name":"cuspdToken","inputs":[],"outputs":[{"name":"","type":"address","internalType":"contract IcUSPDToken"}],"stateMutability":"view"},{"type":"function","name":"decimals","inputs":[],"outputs":[{"name":"","type":"uint8","internalType":"uint8"}],"stateMutability":"view"},{"type":"function","name":"eip712Domain","inputs":[],"outputs":[{"name":"fields","type":"bytes1","internalType":"bytes1"},{"name":"name","type":"string","internalType":"string"},{"name":"version","type":"string","internalType":"string"},{"name":"chainId","type":"uint256","internalType":"uint256"},{"name":"verifyingContract","type":"address","internalType":"address"},{"name":"salt","type":"bytes32","internalType":"bytes32"},{"name":"extensions","type":"uint256[]","internalType":"uint256[]"}],"stateMutability":"view"},{"type":"function","name":"getRoleAdmin","inputs":[{"name":"role","type":"bytes32","internalType":"bytes32"}],"outputs":[{"name":"","type":"bytes32","internalType":"bytes32"}],"stateMutability":"view"},{"type":"function","name":"grantRole","inputs":[{"name":"role","type":"bytes32","internalType":"bytes32"},{"name":"account","type":"address","internalType":"address"}],"outputs":[],"stateMutability":"nonpayable"},{"type":"function","name":"hasRole","inputs":[{"name":"role","type":"bytes32","internalType":"bytes32"},{"name":"account","type":"address","internalType":"address"}],"outputs":[{"name":"","type":"bool","internalType":"bool"}],"stateMutability":"view"},{"type":"function","name":"name","inputs":[],"outputs":[{"name":"","type":"string","internalType":"string"}],"stateMutability":"view"},{"type":"function","name":"nonces","inputs":[{"name":"owner","type":"address","internalType":"address"}],"outputs":[{"name":"","type":"uint256","internalType":"uint256"}],"stateMutability":"view"},{"type":"function","name":"permit","inputs":[{"name":"owner","type":"address","internalType":"address"},{"name":"spender","type":"address","internalType":"address"},{"name":"value","type":"uint256","internalType":"uint256"},{"name":"deadline","type":"uint256","internalType":"uint256"},{"name":"v","type":"uint8","internalType":"uint8"},{"name":"r","type":"bytes32","internalType":"bytes32"},{"name":"s","type":"bytes32","internalType":"bytes32"}],"outputs":[],"stateMutability":"nonpayable"},{"type":"function","name":"rateContract","inputs":[],"outputs":[{"name":"","type":"address","internalType":"contract IPoolSharesConversionRate"}],"stateMutability":"view"},{"type":"function","name":"renounceRole","inputs":[{"name":"role","type":"bytes32","internalType":"bytes32"},{"name":"callerConfirmation","type":"address","internalType":"address"}],"outputs":[],"stateMutability":"nonpayable"},{"type":"function","name":"revokeRole","inputs":[{"name":"role","type":"bytes32","internalType":"bytes32"},{"name":"account","type":"address","internalType":"address"}],"outputs":[],"stateMutability":"nonpayable"},{"type":"function","name":"supportsInterface","inputs":[{"name":"interfaceId","type":"bytes4","internalType":"bytes4"}],"outputs":[{"name":"","type":"bool","internalType":"bool"}],"stateMutability":"view"},{"type":"function","name":"symbol","inputs":[],"outputs":[{"name":"","type":"string","internalType":"string"}],"stateMutability":"view"},{"type":"function","name":"totalSupply","inputs":[],"outputs":[{"name":"","type":"uint256","internalType":"uint256"}],"stateMutability":"view"},{"type":"function","name":"transfer","inputs":[{"name":"to","type":"address","internalType":"address"},{"name":"uspdAmount","type":"uint256","internalType":"uint256"}],"outputs":[{"name":"","type":"bool","internalType":"bool"}],"stateMutability":"nonpayable"},{"type":"function","name":"transferFrom","inputs":[{"name":"from","type":"address","internalType":"address"},{"name":"to","type":"address","internalType":"address"},{"name":"uspdAmount","type":"uint256","internalType":"uint256"}],"outputs":[{"name":"","type":"bool","internalType":"bool"}],"stateMutability":"nonpayable"},{"type":"function","name":"updateCUSPDAddress","inputs":[{"name":"newCUSPDAddress","type":"address","internalType":"address"}],"outputs":[],"stateMutability":"nonpayable"},{"type":"function","name":"updateRateContract","inputs":[{"name":"newRateContract","type":"address","internalType":"address"}],"outputs":[],"stateMutability":"nonpayable"},{"type":"event","name":"Approval","inputs":[{"name":"owner","type":"address","indexed":true,"internalType":"address"},{"name":"spender","type":"address","indexed":true,"internalType":"address"},{"name":"value","type":"uint256","indexed":false,"internalType":"uint256"}],"anonymous":false},{"type":"event","name":"CUSPDAddressUpdated","inputs":[{"name":"oldCUSPDAddress","type":"address","indexed":true,"internalType":"address"},{"name":"newCUSPDAddress","type":"address","indexed":true,"internalType":"address"}],"anonymous":false},{"type":"event","name":"EIP712DomainChanged","inputs":[],"anonymous":false},{"type":"event","name":"RateContractUpdated","inputs":[{"name":"oldRateContract","type":"address","indexed":true,"internalType":"address"},{"name":"newRateContract","type":"address","indexed":true,"internalType":"address"}],"anonymous":false},{"type":"event","name":"RoleAdminChanged","inputs":[{"name":"role","type":"bytes32","indexed":true,"internalType":"bytes32"},{"name":"previousAdminRole","type":"bytes32","indexed":true,"internalType":"bytes32"},{"name":"newAdminRole","type":"bytes32","indexed":true,"internalType":"bytes32"}],"anonymous":false},{"type":"event","name":"RoleGranted","inputs":[{"name":"role","type":"bytes32","indexed":true,"internalType":"bytes32"},{"name":"account","type":"address","indexed":true,"internalType":"address"},{"name":"sender","type":"address","indexed":true,"internalType":"address"}],"anonymous":false},{"type":"event","name":"RoleRevoked","inputs":[{"name":"role","type":"bytes32","indexed":true,"internalType":"bytes32"},{"name":"account","type":"address","indexed":true,"internalType":"address"},{"name":"sender","type":"address","indexed":true,"internalType":"address"}],"anonymous":false},{"type":"event","name":"Transfer","inputs":[{"name":"from","type":"address","indexed":true,"internalType":"address"},{"name":"to","type":"address","indexed":true,"internalType":"address"},{"name":"value","type":"uint256","indexed":false,"internalType":"uint256"}],"anonymous":false},{"type":"error","name":"AccessControlBadConfirmation","inputs":[]},{"type":"error","name":"AccessControlUnauthorizedAccount","inputs":[{"name":"account","type":"address","internalType":"address"},{"name":"neededRole","type":"bytes32","internalType":"bytes32"}]},{"type":"error","name":"ECDSAInvalidSignature","inputs":[]},{"type":"error","name":"ECDSAInvalidSignatureLength","inputs":[{"name":"length","type":"uint256","internalType":"uint256"}]},{"type":"error","name":"ECDSAInvalidSignatureS","inputs":[{"name":"s","type":"bytes32","internalType":"bytes32"}]},{"type":"error","name":"ERC20InsufficientAllowance","inputs":[{"name":"spender","type":"address","internalType":"address"},{"name":"allowance","type":"uint256","internalType":"uint256"},{"name":"needed","type":"uint256","internalType":"uint256"}]},{"type":"error","name":"ERC20InsufficientBalance","inputs":[{"name":"sender","type":"address","internalType":"address"},{"name":"balance","type":"uint256","internalType":"uint256"},{"name":"needed","type":"uint256","internalType":"uint256"}]},{"type":"error","name":"ERC20InvalidApprover","inputs":[{"name":"approver","type":"address","internalType":"address"}]},{"type":"error","name":"ERC20InvalidReceiver","inputs":[{"name":"receiver","type":"address","internalType":"address"}]},{"type":"error","name":"ERC20InvalidSender","inputs":[{"name":"sender","type":"address","internalType":"address"}]},{"type":"error","name":"ERC20InvalidSpender","inputs":[{"name":"spender","type":"address","internalType":"address"}]},{"type":"error","name":"ERC2612ExpiredSignature","inputs":[{"name":"deadline","type":"uint256","internalType":"uint256"}]},{"type":"error","name":"ERC2612InvalidSigner","inputs":[{"name":"signer","type":"address","internalType":"address"},{"name":"owner","type":"address","internalType":"address"}]},{"type":"error","name":"InvalidAccountNonce","inputs":[{"name":"account","type":"address","internalType":"address"},{"name":"currentNonce","type":"uint256","internalType":"uint256"}]},{"type":"error","name":"InvalidShortString","inputs":[]},{"type":"error","name":"StringTooLong","inputs":[{"name":"str","type":"string","internalType":"string"}]}],"bytecode":{"object":"0x610160604052348015610010575f80fd5b50604051612a67380380612a6783398101604081905261002f91610439565b6040805180820190915260018152603160f81b602082015285908190818760036100598382610552565b5060046100668282610552565b5061007691508390506005610267565b61012052610085816006610267565b61014052815160208084019190912060e052815190820120610100524660a05261011160e05161010051604080517f8b73c3c69bb8fe3d512ecc4cf759cc79239f7b179b0ffacaa9a75d522b39400f60208201529081019290925260608201524660808201523060a08201525f9060c00160405160208183030381529060405280519060200120905090565b60805250503060c052506001600160a01b0383166101765760405162461bcd60e51b815260206004820152601860248201527f555350443a205a65726f2063555350442061646472657373000000000000000060448201526064015b60405180910390fd5b6001600160a01b0382166101cc5760405162461bcd60e51b815260206004820181905260248201527f555350443a205a65726f207261746520636f6e74726163742061646472657373604482015260640161016d565b6001600160a01b0381166102225760405162461bcd60e51b815260206004820152601860248201527f555350443a205a65726f2061646d696e20616464726573730000000000000000604482015260640161016d565b600980546001600160a01b038086166001600160a01b031992831617909255600a80549285169290911691909117905561025c5f82610299565b505050505050610664565b5f6020835110156102825761027b83610344565b9050610293565b8161028d8482610552565b5060ff90505b92915050565b5f8281526008602090815260408083206001600160a01b038516845290915281205460ff1661033d575f8381526008602090815260408083206001600160a01b03861684529091529020805460ff191660011790556102f53390565b6001600160a01b0316826001600160a01b0316847f2f8788117e7eff1d82e926ec794901d17c78024a50270940304540a733656f0d60405160405180910390a4506001610293565b505f610293565b5f80829050601f8151111561036e578260405163305a27a960e01b815260040161016d919061060c565b805161037982610641565b179392505050565b634e487b7160e01b5f52604160045260245ffd5b5f82601f8301126103a4575f80fd5b81516001600160401b038111156103bd576103bd610381565b604051601f8201601f19908116603f011681016001600160401b03811182821017156103eb576103eb610381565b604052818152838201602001851015610402575f80fd5b8160208501602083015e5f918101602001919091529392505050565b80516001600160a01b0381168114610434575f80fd5b919050565b5f805f805f60a0868803121561044d575f80fd5b85516001600160401b03811115610462575f80fd5b61046e88828901610395565b602088015190965090506001600160401b0381111561048b575f80fd5b61049788828901610395565b9450506104a66040870161041e565b92506104b46060870161041e565b91506104c26080870161041e565b90509295509295909350565b600181811c908216806104e257607f821691505b60208210810361050057634e487b7160e01b5f52602260045260245ffd5b50919050565b601f82111561054d57805f5260205f20601f840160051c8101602085101561052b5750805b601f840160051c820191505b8181101561054a575f8155600101610537565b50505b505050565b81516001600160401b0381111561056b5761056b610381565b61057f8161057984546104ce565b84610506565b6020601f8211600181146105b1575f831561059a5750848201515b5f19600385901b1c1916600184901b17845561054a565b5f84815260208120601f198516915b828110156105e057878501518255602094850194600190920191016105c0565b50848210156105fd57868401515f19600387901b60f8161c191681555b50505050600190811b01905550565b602081525f82518060208401528060208501604085015e5f604082850101526040601f19601f83011684010191505092915050565b80516020808301519190811015610500575f1960209190910360031b1b16919050565b60805160a05160c05160e0516101005161012051610140516123b26106b55f395f6119ed01525f6119c001525f6118ac01525f61188401525f6117df01525f61180901525f61183301526123b25ff3fe608060405260043610610191575f3560e01c806370a08231116100dc578063a42c69a911610087578063d505accf11610062578063d505accf1461051f578063d547741f1461053e578063dd62ed3e1461055d578063eee242191461057c575f80fd5b8063a42c69a9146104c6578063a6f4ae27146104e1578063a9059cbb14610500575f80fd5b806391d14854116100b757806391d148541461044e57806395d89b411461049f578063a217fddf146104b3575f80fd5b806370a08231146103e95780637ecebe001461040857806384b0196e14610427575f80fd5b8063248a9ca31161013c5780633644e515116101175780633644e5151461036557806336568abe146103795780636bc05b7e14610398575f80fd5b8063248a9ca3146102fd5780632f2ff15d1461032b578063313ce5671461034a575f80fd5b80630a9c68191161016c5780630a9c68191461029b57806318160ddd146102bc57806323b872dd146102de575f80fd5b806301ffc9a71461022757806306fdde031461025b578063095ea7b31461027c575f80fd5b36610223576040517f08c379a000000000000000000000000000000000000000000000000000000000815260206004820152602660248201527f555350443a2044697265637420455448207472616e7366657273206e6f74206160448201527f6c6c6f776564000000000000000000000000000000000000000000000000000060648201526084015b60405180910390fd5b5f80fd5b348015610232575f80fd5b50610246610241366004611f7f565b6105a8565b60405190151581526020015b60405180910390f35b348015610266575f80fd5b5061026f610640565b604051610252919061200a565b348015610287575f80fd5b50610246610296366004612044565b6106d0565b3480156102a6575f80fd5b506102ba6102b536600461206c565b61088f565b005b3480156102c7575f80fd5b506102d06109a4565b604051908152602001610252565b3480156102e9575f80fd5b506102466102f8366004612085565b610b3e565b348015610308575f80fd5b506102d06103173660046120bf565b5f9081526008602052604090206001015490565b348015610336575f80fd5b506102ba6103453660046120d6565b610d9d565b348015610355575f80fd5b5060405160128152602001610252565b348015610370575f80fd5b506102d0610dc7565b348015610384575f80fd5b506102ba6103933660046120d6565b610dd5565b3480156103a3575f80fd5b506009546103c49073ffffffffffffffffffffffffffffffffffffffff1681565b60405173ffffffffffffffffffffffffffffffffffffffff9091168152602001610252565b3480156103f4575f80fd5b506102d061040336600461206c565b610e33565b348015610413575f80fd5b506102d061042236600461206c565b610fd6565b348015610432575f80fd5b5061043b611000565b6040516102529796959493929190612100565b348015610459575f80fd5b506102466104683660046120d6565b5f91825260086020908152604080842073ffffffffffffffffffffffffffffffffffffffff93909316845291905290205460ff1690565b3480156104aa575f80fd5b5061026f61105e565b3480156104be575f80fd5b506102d05f81565b3480156104d1575f80fd5b506102d0670de0b6b3a764000081565b3480156104ec575f80fd5b506102ba6104fb36600461206c565b61106d565b34801561050b575f80fd5b5061024661051a366004612044565b611182565b34801561052a575f80fd5b506102ba6105393660046121bf565b611394565b348015610549575f80fd5b506102ba6105583660046120d6565b61153d565b348015610568575f80fd5b506102d061057736600461222c565b611561565b348015610587575f80fd5b50600a546103c49073ffffffffffffffffffffffffffffffffffffffff1681565b5f7fffffffff0000000000000000000000000000000000000000000000000000000082167f7965db0b00000000000000000000000000000000000000000000000000000000148061063a57507f01ffc9a7000000000000000000000000000000000000000000000000000000007fffffffff000000000000000000000000000000000000000000000000000000008316145b92915050565b60606003805461064f90612254565b80601f016020809104026020016040519081016040528092919081815260200182805461067b90612254565b80156106c65780601f1061069d576101008083540402835291602001916106c6565b820191905f5260205f20905b8154815290600101906020018083116106a957829003601f168201915b5050505050905090565b5f80600a5f9054906101000a900473ffffffffffffffffffffffffffffffffffffffff1673ffffffffffffffffffffffffffffffffffffffff1663efa7fa5d6040518163ffffffff1660e01b8152600401602060405180830381865afa15801561073c573d5f803e3d5ffd5b505050506040513d601f19601f8201168201806040525081019061076091906122a5565b90505f81116107cb576040517f08c379a000000000000000000000000000000000000000000000000000000000815260206004820152601a60248201527f555350443a20496e76616c6964207969656c6420666163746f72000000000000604482015260640161021a565b5f816107df670de0b6b3a7640000866122bc565b6107e991906122f8565b6009546040517f095ea7b300000000000000000000000000000000000000000000000000000000815273ffffffffffffffffffffffffffffffffffffffff88811660048301526024820184905292935091169063095ea7b3906044015b6020604051808303815f875af1158015610862573d5f803e3d5ffd5b505050506040513d601f19601f820116820180604052508101906108869190612330565b95945050505050565b5f610899816116bc565b73ffffffffffffffffffffffffffffffffffffffff8216610916576040517f08c379a000000000000000000000000000000000000000000000000000000000815260206004820152601860248201527f555350443a205a65726f20635553504420616464726573730000000000000000604482015260640161021a565b60095460405173ffffffffffffffffffffffffffffffffffffffff8085169216907f974190c639ecade8910423bd4d87599b333611969e577aca3bb7135069ea9723905f90a350600980547fffffffffffffffffffffffff00000000000000000000000000000000000000001673ffffffffffffffffffffffffffffffffffffffff92909216919091179055565b600a545f9073ffffffffffffffffffffffffffffffffffffffff1615806109e1575060095473ffffffffffffffffffffffffffffffffffffffff16155b156109eb57505f90565b600a54604080517fefa7fa5d00000000000000000000000000000000000000000000000000000000815290515f9273ffffffffffffffffffffffffffffffffffffffff169163efa7fa5d9160048083019260209291908290030181865afa158015610a58573d5f803e3d5ffd5b505050506040513d601f19601f82011682018060405250810190610a7c91906122a5565b9050805f03610a8c575f91505090565b670de0b6b3a76400008160095f9054906101000a900473ffffffffffffffffffffffffffffffffffffffff1673ffffffffffffffffffffffffffffffffffffffff166318160ddd6040518163ffffffff1660e01b8152600401602060405180830381865afa158015610b00573d5f803e3d5ffd5b505050506040513d601f19601f82011682018060405250810190610b2491906122a5565b610b2e91906122bc565b610b3891906122f8565b91505090565b5f80600a5f9054906101000a900473ffffffffffffffffffffffffffffffffffffffff1673ffffffffffffffffffffffffffffffffffffffff1663efa7fa5d6040518163ffffffff1660e01b8152600401602060405180830381865afa158015610baa573d5f803e3d5ffd5b505050506040513d601f19601f82011682018060405250810190610bce91906122a5565b90505f8111610c39576040517f08c379a000000000000000000000000000000000000000000000000000000000815260206004820152601a60248201527f555350443a20496e76616c6964207969656c6420666163746f72000000000000604482015260640161021a565b5f81610c4d670de0b6b3a7640000866122bc565b610c5791906122f8565b90505f811180610c65575083155b610cf1576040517f08c379a000000000000000000000000000000000000000000000000000000000815260206004820152603160248201527f555350443a205472616e7366657220616d6f756e7420746f6f20736d616c6c2060448201527f666f722063757272656e74207969656c64000000000000000000000000000000606482015260840161021a565b6009546040517f23b872dd00000000000000000000000000000000000000000000000000000000815273ffffffffffffffffffffffffffffffffffffffff8881166004830152878116602483015260448201849052909116906323b872dd906064016020604051808303815f875af1158015610d6f573d5f803e3d5ffd5b505050506040513d601f19601f82011682018060405250810190610d939190612330565b9695505050505050565b5f82815260086020526040902060010154610db7816116bc565b610dc183836116c9565b50505050565b5f610dd06117c6565b905090565b73ffffffffffffffffffffffffffffffffffffffff81163314610e24576040517f6697b23200000000000000000000000000000000000000000000000000000000815260040160405180910390fd5b610e2e82826118fc565b505050565b600a545f9073ffffffffffffffffffffffffffffffffffffffff161580610e70575060095473ffffffffffffffffffffffffffffffffffffffff16155b15610e7c57505f919050565b600a54604080517fefa7fa5d00000000000000000000000000000000000000000000000000000000815290515f9273ffffffffffffffffffffffffffffffffffffffff169163efa7fa5d9160048083019260209291908290030181865afa158015610ee9573d5f803e3d5ffd5b505050506040513d601f19601f82011682018060405250810190610f0d91906122a5565b9050805f03610f1e57505f92915050565b6009546040517f70a0823100000000000000000000000000000000000000000000000000000000815273ffffffffffffffffffffffffffffffffffffffff8581166004830152670de0b6b3a76400009284929116906370a0823190602401602060405180830381865afa158015610f97573d5f803e3d5ffd5b505050506040513d601f19601f82011682018060405250810190610fbb91906122a5565b610fc591906122bc565b610fcf91906122f8565b9392505050565b73ffffffffffffffffffffffffffffffffffffffff81165f9081526007602052604081205461063a565b5f6060805f805f60606110116119b9565b6110196119e6565b604080515f808252602082019092527f0f000000000000000000000000000000000000000000000000000000000000009b939a50919850469750309650945092509050565b60606004805461064f90612254565b5f611077816116bc565b73ffffffffffffffffffffffffffffffffffffffff82166110f4576040517f08c379a000000000000000000000000000000000000000000000000000000000815260206004820181905260248201527f555350443a205a65726f207261746520636f6e74726163742061646472657373604482015260640161021a565b600a5460405173ffffffffffffffffffffffffffffffffffffffff8085169216907f7f0de29187af70d0a98056dd080553d3dec269c81e80033f3ca34a97b3985d3a905f90a350600a80547fffffffffffffffffffffffff00000000000000000000000000000000000000001673ffffffffffffffffffffffffffffffffffffffff92909216919091179055565b5f80600a5f9054906101000a900473ffffffffffffffffffffffffffffffffffffffff1673ffffffffffffffffffffffffffffffffffffffff1663efa7fa5d6040518163ffffffff1660e01b8152600401602060405180830381865afa1580156111ee573d5f803e3d5ffd5b505050506040513d601f19601f8201168201806040525081019061121291906122a5565b90505f811161127d576040517f08c379a000000000000000000000000000000000000000000000000000000000815260206004820152601a60248201527f555350443a20496e76616c6964207969656c6420666163746f72000000000000604482015260640161021a565b5f81611291670de0b6b3a7640000866122bc565b61129b91906122f8565b90505f8111806112a9575083155b611335576040517f08c379a000000000000000000000000000000000000000000000000000000000815260206004820152603160248201527f555350443a205472616e7366657220616d6f756e7420746f6f20736d616c6c2060448201527f666f722063757272656e74207969656c64000000000000000000000000000000606482015260840161021a565b6009546040517fa9059cbb00000000000000000000000000000000000000000000000000000000815273ffffffffffffffffffffffffffffffffffffffff8781166004830152602482018490529091169063a9059cbb90604401610846565b834211156113d1576040517f627913020000000000000000000000000000000000000000000000000000000081526004810185905260240161021a565b5f7f6e71edae12b1b97f4d1f60370fef10105fa2faae0126114a169c64845d6126c98888886114298c73ffffffffffffffffffffffffffffffffffffffff165f90815260076020526040902080546001810190915590565b60408051602081019690965273ffffffffffffffffffffffffffffffffffffffff94851690860152929091166060840152608083015260a082015260c0810186905260e0016040516020818303038152906040528051906020012090505f61149082611a13565b90505f61149f82878787611a5a565b90508973ffffffffffffffffffffffffffffffffffffffff168173ffffffffffffffffffffffffffffffffffffffff1614611526576040517f4b800e4600000000000000000000000000000000000000000000000000000000815273ffffffffffffffffffffffffffffffffffffffff80831660048301528b16602482015260440161021a565b6115318a8a8a611a86565b50505050505050505050565b5f82815260086020526040902060010154611557816116bc565b610dc183836118fc565b5f80600a5f9054906101000a900473ffffffffffffffffffffffffffffffffffffffff1673ffffffffffffffffffffffffffffffffffffffff1663efa7fa5d6040518163ffffffff1660e01b8152600401602060405180830381865afa1580156115cd573d5f803e3d5ffd5b505050506040513d601f19601f820116820180604052508101906115f191906122a5565b9050805f03611603575f91505061063a565b6009546040517fdd62ed3e00000000000000000000000000000000000000000000000000000000815273ffffffffffffffffffffffffffffffffffffffff868116600483015285811660248301525f92169063dd62ed3e90604401602060405180830381865afa158015611679573d5f803e3d5ffd5b505050506040513d601f19601f8201168201806040525081019061169d91906122a5565b9050670de0b6b3a76400006116b283836122bc565b61088691906122f8565b6116c68133611a93565b50565b5f82815260086020908152604080832073ffffffffffffffffffffffffffffffffffffffff8516845290915281205460ff166117bf575f83815260086020908152604080832073ffffffffffffffffffffffffffffffffffffffff86168452909152902080547fffffffffffffffffffffffffffffffffffffffffffffffffffffffffffffff0016600117905561175d3390565b73ffffffffffffffffffffffffffffffffffffffff168273ffffffffffffffffffffffffffffffffffffffff16847f2f8788117e7eff1d82e926ec794901d17c78024a50270940304540a733656f0d60405160405180910390a450600161063a565b505f61063a565b5f3073ffffffffffffffffffffffffffffffffffffffff7f00000000000000000000000000000000000000000000000000000000000000001614801561182b57507f000000000000000000000000000000000000000000000000000000000000000046145b1561185557507f000000000000000000000000000000000000000000000000000000000000000090565b610dd0604080517f8b73c3c69bb8fe3d512ecc4cf759cc79239f7b179b0ffacaa9a75d522b39400f60208201527f0000000000000000000000000000000000000000000000000000000000000000918101919091527f000000000000000000000000000000000000000000000000000000000000000060608201524660808201523060a08201525f9060c00160405160208183030381529060405280519060200120905090565b5f82815260086020908152604080832073ffffffffffffffffffffffffffffffffffffffff8516845290915281205460ff16156117bf575f83815260086020908152604080832073ffffffffffffffffffffffffffffffffffffffff8616808552925280832080547fffffffffffffffffffffffffffffffffffffffffffffffffffffffffffffff0016905551339286917ff6391f5c32d9c69d2a47ea670b442974b53935d1edc7fd64eb21e047a839171b9190a450600161063a565b6060610dd07f00000000000000000000000000000000000000000000000000000000000000006005611b1e565b6060610dd07f00000000000000000000000000000000000000000000000000000000000000006006611b1e565b5f61063a611a1f6117c6565b836040517f19010000000000000000000000000000000000000000000000000000000000008152600281019290925260228201526042902090565b5f805f80611a6a88888888611bc7565b925092509250611a7a8282611cba565b50909695505050505050565b610e2e8383836001611dbd565b5f82815260086020908152604080832073ffffffffffffffffffffffffffffffffffffffff8516845290915290205460ff16611b1a576040517fe2517d3f00000000000000000000000000000000000000000000000000000000815273ffffffffffffffffffffffffffffffffffffffff821660048201526024810183905260440161021a565b5050565b606060ff8314611b3857611b3183611f02565b905061063a565b818054611b4490612254565b80601f0160208091040260200160405190810160405280929190818152602001828054611b7090612254565b8015611bbb5780601f10611b9257610100808354040283529160200191611bbb565b820191905f5260205f20905b815481529060010190602001808311611b9e57829003601f168201915b5050505050905061063a565b5f80807f7fffffffffffffffffffffffffffffff5d576e7357a4501ddfe92f46681b20a0841115611c0057505f91506003905082611cb0565b604080515f808252602082018084528a905260ff891692820192909252606081018790526080810186905260019060a0016020604051602081039080840390855afa158015611c51573d5f803e3d5ffd5b50506040517fffffffffffffffffffffffffffffffffffffffffffffffffffffffffffffffe0015191505073ffffffffffffffffffffffffffffffffffffffff8116611ca757505f925060019150829050611cb0565b92505f91508190505b9450945094915050565b5f826003811115611ccd57611ccd61234f565b03611cd6575050565b6001826003811115611cea57611cea61234f565b03611d21576040517ff645eedf00000000000000000000000000000000000000000000000000000000815260040160405180910390fd5b6002826003811115611d3557611d3561234f565b03611d6f576040517ffce698f70000000000000000000000000000000000000000000000000000000081526004810182905260240161021a565b6003826003811115611d8357611d8361234f565b03611b1a576040517fd78bce0c0000000000000000000000000000000000000000000000000000000081526004810182905260240161021a565b73ffffffffffffffffffffffffffffffffffffffff8416611e0c576040517fe602df050000000000000000000000000000000000000000000000000000000081525f600482015260240161021a565b73ffffffffffffffffffffffffffffffffffffffff8316611e5b576040517f94280d620000000000000000000000000000000000000000000000000000000081525f600482015260240161021a565b73ffffffffffffffffffffffffffffffffffffffff8085165f9081526001602090815260408083209387168352929052208290558015610dc1578273ffffffffffffffffffffffffffffffffffffffff168473ffffffffffffffffffffffffffffffffffffffff167f8c5be1e5ebec7d5bd14f71427d1e84f3dd0314c0f7b2291e5b200ac8c7c3b92584604051611ef491815260200190565b60405180910390a350505050565b60605f611f0e83611f3f565b6040805160208082528183019092529192505f91906020820181803683375050509182525060208101929092525090565b5f60ff8216601f81111561063a576040517fb3512b0c00000000000000000000000000000000000000000000000000000000815260040160405180910390fd5b5f60208284031215611f8f575f80fd5b81357fffffffff0000000000000000000000000000000000000000000000000000000081168114610fcf575f80fd5b5f81518084528060208401602086015e5f6020828601015260207fffffffffffffffffffffffffffffffffffffffffffffffffffffffffffffffe0601f83011685010191505092915050565b602081525f610fcf6020830184611fbe565b803573ffffffffffffffffffffffffffffffffffffffff8116811461203f575f80fd5b919050565b5f8060408385031215612055575f80fd5b61205e8361201c565b946020939093013593505050565b5f6020828403121561207c575f80fd5b610fcf8261201c565b5f805f60608486031215612097575f80fd5b6120a08461201c565b92506120ae6020850161201c565b929592945050506040919091013590565b5f602082840312156120cf575f80fd5b5035919050565b5f80604083850312156120e7575f80fd5b823591506120f76020840161201c565b90509250929050565b7fff000000000000000000000000000000000000000000000000000000000000008816815260e060208201525f61213a60e0830189611fbe565b828103604084015261214c8189611fbe565b6060840188905273ffffffffffffffffffffffffffffffffffffffff8716608085015260a0840186905283810360c0850152845180825260208087019350909101905f5b818110156121ae578351835260209384019390920191600101612190565b50909b9a5050505050505050505050565b5f805f805f805f60e0888a0312156121d5575f80fd5b6121de8861201c565b96506121ec6020890161201c565b95506040880135945060608801359350608088013560ff8116811461220f575f80fd5b9699959850939692959460a0840135945060c09093013592915050565b5f806040838503121561223d575f80fd5b6122468361201c565b91506120f76020840161201c565b600181811c9082168061226857607f821691505b60208210810361229f577f4e487b71000000000000000000000000000000000000000000000000000000005f52602260045260245ffd5b50919050565b5f602082840312156122b5575f80fd5b5051919050565b808202811582820484141761063a577f4e487b71000000000000000000000000000000000000000000000000000000005f52601160045260245ffd5b5f8261232b577f4e487b71000000000000000000000000000000000000000000000000000000005f52601260045260245ffd5b500490565b5f60208284031215612340575f80fd5b81518015158114610fcf575f80fd5b7f4e487b71000000000000000000000000000000000000000000000000000000005f52602160045260245ffdfea2646970667358221220666cdcb15d048b6bf42f738107d27967a6d3b5ff3ff6bc0d1647b53471d25d5464736f6c634300081a0033","linkReferences":{}},"methodIdentifiers":{"DEFAULT_ADMIN_ROLE()":"a217fddf","DOMAIN_SEPARATOR()":"3644e515","FACTOR_PRECISION()":"a42c69a9","allowance(address,address)":"dd62ed3e","approve(address,uint256)":"095ea7b3","balanceOf(address)":"70a08231","cuspdToken()":"6bc05b7e","decimals()":"313ce567","eip712Domain()":"84b0196e","getRoleAdmin(bytes32)":"248a9ca3","grantRole(bytes32,address)":"2f2ff15d","hasRole(bytes32,address)":"91d14854","name()":"06fdde03","nonces(address)":"7ecebe00","permit(address,address,uint256,uint256,uint8,bytes32,bytes32)":"d505accf","rateContract()":"eee24219","renounceRole(bytes32,address)":"36568abe","revokeRole(bytes32,address)":"d547741f","supportsInterface(bytes4)":"01ffc9a7","symbol()":"95d89b41","totalSupply()":"18160ddd","transfer(address,uint256)":"a9059cbb","transferFrom(address,address,uint256)":"23b872dd","updateCUSPDAddress(address)":"0a9c6819","updateRateContract(address)":"a6f4ae27"},"storageLayout":{"storage":[{"astId":42644,"contract":"src/UspdToken.sol:USPDToken","label":"_balances","offset":0,"slot":"0","type":"t_mapping(t_address,t_uint256)"},{"astId":42650,"contract":"src/UspdToken.sol:USPDToken","label":"_allowances","offset":0,"slot":"1","type":"t_mapping(t_address,t_mapping(t_address,t_uint256))"},{"astId":42652,"contract":"src/UspdToken.sol:USPDToken","label":"_totalSupply","offset":0,"slot":"2","type":"t_uint256"},{"astId":42654,"contract":"src/UspdToken.sol:USPDToken","label":"_name","offset":0,"slot":"3","type":"t_string_storage"},{"astId":42656,"contract":"src/UspdToken.sol:USPDToken","label":"_symbol","offset":0,"slot":"4","type":"t_string_storage"},{"astId":46155,"contract":"src/UspdToken.sol:USPDToken","label":"_nameFallback","offset":0,"slot":"5","type":"t_string_storage"},{"astId":46157,"contract":"src/UspdToken.sol:USPDToken","label":"_versionFallback","offset":0,"slot":"6","type":"t_string_storage"},{"astId":44123,"contract":"src/UspdToken.sol:USPDToken","label":"_nonces","offset":0,"slot":"7","type":"t_mapping(t_address,t_uint256)"},{"astId":41560,"contract":"src/UspdToken.sol:USPDToken","label":"_roles","offset":0,"slot":"8","type":"t_mapping(t_bytes32,t_struct(RoleData)41555_storage)"},{"astId":54806,"contract":"src/UspdToken.sol:USPDToken","label":"cuspdToken","offset":0,"slot":"9","type":"t_contract(IcUSPDToken)56229"},{"astId":54809,"contract":"src/UspdToken.sol:USPDToken","label":"rateContract","offset":0,"slot":"10","type":"t_contract(IPoolSharesConversionRate)55918"}],"types":{"t_address":{"encoding":"inplace","label":"address","numberOfBytes":"20"},"t_bool":{"encoding":"inplace","label":"bool","numberOfBytes":"1"},"t_bytes32":{"encoding":"inplace","label":"bytes32","numberOfBytes":"32"},"t_contract(IPoolSharesConversionRate)55918":{"encoding":"inplace","label":"contract IPoolSharesConversionRate","numberOfBytes":"20"},"t_contract(IcUSPDToken)56229":{"encoding":"inplace","label":"contract IcUSPDToken","numberOfBytes":"20"},"t_mapping(t_address,t_bool)":{"encoding":"mapping","key":"t_address","label":"mapping(address => bool)","numberOfBytes":"32","value":"t_bool"},"t_mapping(t_address,t_mapping(t_address,t_uint256))":{"encoding":"mapping","key":"t_address","label":"mapping(address => mapping(address => uint256))","numberOfBytes":"32","value":"t_mapping(t_address,t_uint256)"},"t_mapping(t_address,t_uint256)":{"encoding":"mapping","key":"t_address","label":"mapping(address => uint256)","numberOfBytes":"32","value":"t_uint256"},"t_mapping(t_bytes32,t_struct(RoleData)41555_storage)":{"encoding":"mapping","key":"t_bytes32","label":"mapping(bytes32 => struct AccessControl.RoleData)","numberOfBytes":"32","value":"t_struct(RoleData)41555_storage"},"t_string_storage":{"encoding":"bytes","label":"string","numberOfBytes":"32"},"t_struct(RoleData)41555_storage":{"encoding":"inplace","label":"struct AccessControl.RoleData","numberOfBytes":"64","members":[{"astId":41552,"contract":"src/UspdToken.sol:USPDToken","label":"hasRole","offset":0,"slot":"0","type":"t_mapping(t_address,t_bool)"},{"astId":41554,"contract":"src/UspdToken.sol:USPDToken","label":"adminRole","offset":0,"slot":"1","type":"t_bytes32"}]},"t_uint256":{"encoding":"inplace","label":"uint256","numberOfBytes":"32"}}},"id":72}