{"abi":[{"type":"constructor","inputs":[],"stateMutability":"nonpayable"},{"type":"function","name":"DEFAULT_ADMIN_ROLE","inputs":[],"outputs":[{"name":"","type":"bytes32","internalType":"bytes32"}],"stateMutability":"view"},{"type":"function","name":"PAUSER_ROLE","inputs":[],"outputs":[{"name":"","type":"bytes32","internalType":"bytes32"}],"stateMutability":"view"},{"type":"function","name":"PRICE_PRECISION","inputs":[],"outputs":[{"name":"","type":"uint256","internalType":"uint256"}],"stateMutability":"view"},{"type":"function","name":"SIGNER_ROLE","inputs":[],"outputs":[{"name":"","type":"bytes32","internalType":"bytes32"}],"stateMutability":"view"},{"type":"function","name":"UPGRADER_ROLE","inputs":[],"outputs":[{"name":"","type":"bytes32","internalType":"bytes32"}],"stateMutability":"view"},{"type":"function","name":"UPGRADE_INTERFACE_VERSION","inputs":[],"outputs":[{"name":"","type":"string","internalType":"string"}],"stateMutability":"view"},{"type":"function","name":"attestationService","inputs":[{"name":"priceQuery","type":"tuple","internalType":"struct IPriceOracle.PriceAttestationQuery","components":[{"name":"price","type":"uint256","internalType":"uint256"},{"name":"decimals","type":"uint8","internalType":"uint8"},{"name":"dataTimestamp","type":"uint256","internalType":"uint256"},{"name":"assetPair","type":"bytes32","internalType":"bytes32"},{"name":"signature","type":"bytes","internalType":"bytes"}]}],"outputs":[{"name":"","type":"tuple","internalType":"struct IPriceOracle.PriceResponse","components":[{"name":"price","type":"uint256","internalType":"uint256"},{"name":"decimals","type":"uint8","internalType":"uint8"},{"name":"timestamp","type":"uint256","internalType":"uint256"}]}],"stateMutability":"payable"},{"type":"function","name":"config","inputs":[],"outputs":[{"name":"maxPriceDeviation","type":"uint256","internalType":"uint256"},{"name":"priceStalenessPeriod","type":"uint256","internalType":"uint256"}],"stateMutability":"view"},{"type":"function","name":"getChainlinkDataFeedLatestAnswer","inputs":[],"outputs":[{"name":"","type":"int256","internalType":"int256"}],"stateMutability":"view"},{"type":"function","name":"getRoleAdmin","inputs":[{"name":"role","type":"bytes32","internalType":"bytes32"}],"outputs":[{"name":"","type":"bytes32","internalType":"bytes32"}],"stateMutability":"view"},{"type":"function","name":"getUniswapV3WethUsdcPrice","inputs":[],"outputs":[{"name":"","type":"uint256","internalType":"uint256"}],"stateMutability":"view"},{"type":"function","name":"grantRole","inputs":[{"name":"role","type":"bytes32","internalType":"bytes32"},{"name":"account","type":"address","internalType":"address"}],"outputs":[],"stateMutability":"nonpayable"},{"type":"function","name":"hasRole","inputs":[{"name":"role","type":"bytes32","internalType":"bytes32"},{"name":"account","type":"address","internalType":"address"}],"outputs":[{"name":"","type":"bool","internalType":"bool"}],"stateMutability":"view"},{"type":"function","name":"initialize","inputs":[{"name":"_maxPriceDeviation","type":"uint256","internalType":"uint256"},{"name":"_priceStalenessPeriod","type":"uint256","internalType":"uint256"},{"name":"_usdcAddress","type":"address","internalType":"address"},{"name":"_uniswapRouter","type":"address","internalType":"address"},{"name":"_chainlinkAggregator","type":"address","internalType":"address"},{"name":"_admin","type":"address","internalType":"address"}],"outputs":[],"stateMutability":"nonpayable"},{"type":"function","name":"lastPrices","inputs":[{"name":"","type":"bytes32","internalType":"bytes32"}],"outputs":[{"name":"price","type":"uint256","internalType":"uint256"},{"name":"decimals","type":"uint8","internalType":"uint8"},{"name":"timestamp","type":"uint256","internalType":"uint256"}],"stateMutability":"view"},{"type":"function","name":"maxDeviationPercentage","inputs":[],"outputs":[{"name":"","type":"uint256","internalType":"uint256"}],"stateMutability":"view"},{"type":"function","name":"pause","inputs":[],"outputs":[],"stateMutability":"nonpayable"},{"type":"function","name":"paused","inputs":[],"outputs":[{"name":"","type":"bool","internalType":"bool"}],"stateMutability":"view"},{"type":"function","name":"priceProvider","inputs":[],"outputs":[{"name":"","type":"address","internalType":"address"}],"stateMutability":"view"},{"type":"function","name":"proxiableUUID","inputs":[],"outputs":[{"name":"","type":"bytes32","internalType":"bytes32"}],"stateMutability":"view"},{"type":"function","name":"renounceRole","inputs":[{"name":"role","type":"bytes32","internalType":"bytes32"},{"name":"callerConfirmation","type":"address","internalType":"address"}],"outputs":[],"stateMutability":"nonpayable"},{"type":"function","name":"revokeRole","inputs":[{"name":"role","type":"bytes32","internalType":"bytes32"},{"name":"account","type":"address","internalType":"address"}],"outputs":[],"stateMutability":"nonpayable"},{"type":"function","name":"setMaxDeviationPercentage","inputs":[{"name":"_maxDeviationPercentage","type":"uint256","internalType":"uint256"}],"outputs":[],"stateMutability":"nonpayable"},{"type":"function","name":"supportsInterface","inputs":[{"name":"interfaceId","type":"bytes4","internalType":"bytes4"}],"outputs":[{"name":"","type":"bool","internalType":"bool"}],"stateMutability":"view"},{"type":"function","name":"uniswapRouter","inputs":[],"outputs":[{"name":"","type":"address","internalType":"contract IUniswapV2Router02"}],"stateMutability":"view"},{"type":"function","name":"unpause","inputs":[],"outputs":[],"stateMutability":"nonpayable"},{"type":"function","name":"upgradeToAndCall","inputs":[{"name":"newImplementation","type":"address","internalType":"address"},{"name":"data","type":"bytes","internalType":"bytes"}],"outputs":[],"stateMutability":"payable"},{"type":"function","name":"usdcAddress","inputs":[],"outputs":[{"name":"","type":"address","internalType":"address"}],"stateMutability":"view"},{"type":"function","name":"verifySignature","inputs":[{"name":"price","type":"uint256","internalType":"uint256"},{"name":"decimals","type":"uint8","internalType":"uint8"},{"name":"timestamp","type":"uint256","internalType":"uint256"},{"name":"assetPair","type":"bytes32","internalType":"bytes32"},{"name":"signature","type":"bytes","internalType":"bytes"}],"outputs":[{"name":"","type":"address","internalType":"address"}],"stateMutability":"pure"},{"type":"event","name":"Initialized","inputs":[{"name":"version","type":"uint64","indexed":false,"internalType":"uint64"}],"anonymous":false},{"type":"event","name":"Paused","inputs":[{"name":"account","type":"address","indexed":false,"internalType":"address"}],"anonymous":false},{"type":"event","name":"RoleAdminChanged","inputs":[{"name":"role","type":"bytes32","indexed":true,"internalType":"bytes32"},{"name":"previousAdminRole","type":"bytes32","indexed":true,"internalType":"bytes32"},{"name":"newAdminRole","type":"bytes32","indexed":true,"internalType":"bytes32"}],"anonymous":false},{"type":"event","name":"RoleGranted","inputs":[{"name":"role","type":"bytes32","indexed":true,"internalType":"bytes32"},{"name":"account","type":"address","indexed":true,"internalType":"address"},{"name":"sender","type":"address","indexed":true,"internalType":"address"}],"anonymous":false},{"type":"event","name":"RoleRevoked","inputs":[{"name":"role","type":"bytes32","indexed":true,"internalType":"bytes32"},{"name":"account","type":"address","indexed":true,"internalType":"address"},{"name":"sender","type":"address","indexed":true,"internalType":"address"}],"anonymous":false},{"type":"event","name":"Unpaused","inputs":[{"name":"account","type":"address","indexed":false,"internalType":"address"}],"anonymous":false},{"type":"event","name":"Upgraded","inputs":[{"name":"implementation","type":"address","indexed":true,"internalType":"address"}],"anonymous":false},{"type":"error","name":"AccessControlBadConfirmation","inputs":[]},{"type":"error","name":"AccessControlUnauthorizedAccount","inputs":[{"name":"account","type":"address","internalType":"address"},{"name":"neededRole","type":"bytes32","internalType":"bytes32"}]},{"type":"error","name":"AddressEmptyCode","inputs":[{"name":"target","type":"address","internalType":"address"}]},{"type":"error","name":"ECDSAInvalidSignature","inputs":[]},{"type":"error","name":"ECDSAInvalidSignatureLength","inputs":[{"name":"length","type":"uint256","internalType":"uint256"}]},{"type":"error","name":"ECDSAInvalidSignatureS","inputs":[{"name":"s","type":"bytes32","internalType":"bytes32"}]},{"type":"error","name":"ERC1967InvalidImplementation","inputs":[{"name":"implementation","type":"address","internalType":"address"}]},{"type":"error","name":"ERC1967NonPayable","inputs":[]},{"type":"error","name":"EnforcedPause","inputs":[]},{"type":"error","name":"ExpectedPause","inputs":[]},{"type":"error","name":"FailedCall","inputs":[]},{"type":"error","name":"InvalidDecimals","inputs":[{"name":"expected","type":"uint8","internalType":"uint8"},{"name":"actual","type":"uint8","internalType":"uint8"}]},{"type":"error","name":"InvalidInitialization","inputs":[]},{"type":"error","name":"InvalidSignature","inputs":[]},{"type":"error","name":"NotInitializing","inputs":[]},{"type":"error","name":"OraclePaused","inputs":[]},{"type":"error","name":"PriceDataTooOld","inputs":[{"name":"timestamp","type":"uint256","internalType":"uint256"},{"name":"currentTime","type":"uint256","internalType":"uint256"}]},{"type":"error","name":"PriceDeviationTooHigh","inputs":[{"name":"morpherPrice","type":"uint256","internalType":"uint256"},{"name":"chainlinkPrice","type":"uint256","internalType":"uint256"},{"name":"uniswapPrice","type":"uint256","internalType":"uint256"}]},{"type":"error","name":"PriceSourceUnavailable","inputs":[{"name":"source","type":"string","internalType":"string"}]},{"type":"error","name":"UUPSUnauthorizedCallContext","inputs":[]},{"type":"error","name":"UUPSUnsupportedProxiableUUID","inputs":[{"name":"slot","type":"bytes32","internalType":"bytes32"}]}],"bytecode":{"object":"0x60a0604052306080526101f45f55348015610018575f5ffd5b50610021610026565b6100d8565b7ff0c57e16840df040f15088dc2f81fe391c3923bec73e23a9662efc9c229c6a00805468010000000000000000900460ff16156100765760405163f92ee8a960e01b815260040160405180910390fd5b80546001600160401b03908116146100d55780546001600160401b0319166001600160401b0390811782556040519081527fc7f505b2f371ae2175ee4913f4499e1f2633a7b5936321eed1cdaeb6115181d29060200160405180910390a15b50565b608051611f426100fe5f395f818161112c0152818161115501526112b60152611f425ff3fe6080604052600436106101ba575f3560e01c806379502c55116100f2578063b888879e11610092578063dd5bfe3311610062578063dd5bfe3314610554578063e63ab1e914610568578063f72c0d8b1461059b578063f780d9bc146105ce575f5ffd5b8063b888879e146104a8578063bea4dfb5146104c7578063d547741f146104db578063d67e343c146104fa575f5ffd5b806395082d25116100cd57806395082d251461040a578063a1ebf35d14610425578063a217fddf14610458578063ad3cb1cc1461046b575f5ffd5b806379502c55146103a85780638456cb59146103d757806391d14854146103eb575f5ffd5b8063451a579d1161015d5780635c975abb116101385780635c975abb1461030f57806365ab8c71146103325780636ccba2ac1461036a578063735de9f714610389575f5ffd5b8063451a579d146102c95780634f1ef286146102e857806352d1902d146102fb575f5ffd5b8063248a9ca311610198578063248a9ca31461024a5780632f2ff15d1461027757806336568abe146102965780633f4ba83a146102b5575f5ffd5b806301ffc9a7146101be57806302d45457146101f257806310e51e1414610229575b5f5ffd5b3480156101c9575f5ffd5b506101dd6101d8366004611859565b6105e2565b60405190151581526020015b60405180910390f35b3480156101fd575f5ffd5b50600154610211906001600160a01b031681565b6040516001600160a01b0390911681526020016101e9565b348015610234575f5ffd5b50610248610243366004611894565b6105f2565b005b348015610255575f5ffd5b50610269610264366004611900565b61077c565b6040519081526020016101e9565b348015610282575f5ffd5b50610248610291366004611917565b61079c565b3480156102a1575f5ffd5b506102486102b0366004611917565b6107be565b3480156102c0575f5ffd5b506102486107f6565b3480156102d4575f5ffd5b506102486102e3366004611900565b61082b565b6102486102f63660046119e4565b61083b565b348015610306575f5ffd5b5061026961085a565b34801561031a575f5ffd5b505f516020611eed5f395f51905f525460ff166101dd565b610345610340366004611a31565b610875565b604080518251815260208084015160ff169082015291810151908201526060016101e9565b348015610375575f5ffd5b50610211610384366004611a76565b610b2a565b348015610394575f5ffd5b50600654610211906001600160a01b031681565b3480156103b3575f5ffd5b506003546004546103c2919082565b604080519283526020830191909152016101e9565b3480156103e2575f5ffd5b50610248610c37565b3480156103f6575f5ffd5b506101dd610405366004611917565b610c69565b348015610415575f5ffd5b50610269670de0b6b3a764000081565b348015610430575f5ffd5b506102697fe2f4eaae4a9751e85a3e4a7b9587827a877f29914755229b07a7b2da98285f7081565b348015610463575f5ffd5b506102695f81565b348015610476575f5ffd5b5061049b604051806040016040528060058152602001640352e302e360dc1b81525081565b6040516101e99190611ade565b3480156104b3575f5ffd5b50600254610211906001600160a01b031681565b3480156104d2575f5ffd5b50610269610c9f565b3480156104e6575f5ffd5b506102486104f5366004611917565b610d44565b348015610505575f5ffd5b50610537610514366004611900565b60056020525f9081526040902080546001820154600290920154909160ff169083565b6040805193845260ff9092166020840152908201526060016101e9565b34801561055f575f5ffd5b50610269610d60565b348015610573575f5ffd5b506102697f65d7a28e3265b37a6474929f336521b332c1681b933f6cb9f3376673440d862a81565b3480156105a6575f5ffd5b506102697f189ab7a9244df0848122154315af71fe140f3db0fe014031783b0946b8c9d2e381565b3480156105d9575f5ffd5b506102695f5481565b5f6105ec82610f38565b92915050565b5f6105fb610f6c565b805490915060ff600160401b820416159067ffffffffffffffff165f811580156106225750825b90505f8267ffffffffffffffff16600114801561063e5750303b155b90508115801561064c575080155b1561066a5760405163f92ee8a960e01b815260040160405180910390fd5b845467ffffffffffffffff19166001178555831561069457845460ff60401b1916600160401b1785555b61069c610f94565b6106a4610f94565b6106ac610f94565b6106b65f87610f9e565b506106e17f189ab7a9244df0848122154315af71fe140f3db0fe014031783b0946b8c9d2e387610f9e565b5060038b905560048a9055600180546001600160a01b03808c166001600160a01b031992831617909255600680548b841690831617905560078054928a1692909116919091179055831561076f57845460ff60401b19168555604051600181527fc7f505b2f371ae2175ee4913f4499e1f2633a7b5936321eed1cdaeb6115181d29060200160405180910390a15b5050505050505050505050565b5f9081525f516020611ecd5f395f51905f52602052604090206001015490565b6107a58261077c565b6107ae8161103f565b6107b88383610f9e565b50505050565b6001600160a01b03811633146107e75760405163334bd91960e11b815260040160405180910390fd5b6107f18282611049565b505050565b7f65d7a28e3265b37a6474929f336521b332c1681b933f6cb9f3376673440d862a6108208161103f565b6108286110c2565b50565b5f6108358161103f565b50600355565b610843611121565b61084c826111c5565b61085682826111ef565b5050565b5f6108636112ab565b505f516020611ead5f395f51905f5290565b61089960405180606001604052805f81526020015f60ff1681526020015f81525090565b5f516020611eed5f395f51905f525460ff16156108c95760405163e28b705360e01b815260040160405180910390fd5b5f61092f83356108df6040860160208701611b13565b604086013560608701356108f66080890189611b2e565b8080601f0160208091040260200160405190810160405280939291908181526020018383808284375f92019190915250610b2a92505050565b905061095b7fe2f4eaae4a9751e85a3e4a7b9587827a877f29914755229b07a7b2da98285f7082610c69565b61097857604051638baa579f60e01b815260040160405180910390fd5b6109886040840160208501611b13565b60ff166012146109cf5760126109a46040850160208601611b13565b60405163047e54d360e31b815260ff9283166004820152911660248201526044015b60405180910390fd5b6004546109dc9042611b8c565b6109e8906103e8611b9f565b836040013511610a17576040805163195c727d60e01b81529084013560048201524260248201526044016109c6565b46600103610aeb575f610a28610c9f565b9050805f03610a66576040516314e7f62b60e31b8152602060048201526009602482015268436861696e6c696e6b60b81b60448201526064016109c6565b5f610a6f610d60565b9050805f03610aae576040516314e7f62b60e31b815260206004820152600a602482015269556e697377617020563360b01b60448201526064016109c6565b610aba853583836112f4565b610ae85760405163e9b5646f60e01b81528535600482015260248101839052604481018290526064016109c6565b50505b6040518060600160405280845f01358152602001846020016020810190610b129190611b13565b60ff1681526020018460400135815250915050919050565b5f5f86868686604051602001610b66949392919093845260f89290921b6001600160f81b03191660208401526021830152604182015260610190565b6040516020818303038152906040528051906020012090505f81604051602001610bbc91907f19457468657265756d205369676e6564204d6573736167653a0a3332000000008152601c810191909152603c0190565b6040516020818303038152906040528051906020012090505f610bdf828661137c565b90506001600160a01b038116610c2b5760405162461bcd60e51b8152602060048201526011602482015270496e76616c6964207369676e617475726560781b60448201526064016109c6565b98975050505050505050565b7f65d7a28e3265b37a6474929f336521b332c1681b933f6cb9f3376673440d862a610c618161103f565b6108286113a4565b5f9182525f516020611ecd5f395f51905f52602090815260408084206001600160a01b0393909316845291905290205460ff1690565b5f5f60075f9054906101000a90046001600160a01b03166001600160a01b031663feaf968c6040518163ffffffff1660e01b815260040160a060405180830381865afa158015610cf1573d5f5f3e3d5ffd5b505050506040513d601f19601f82011682018060405250810190610d159190611bd4565b5050509150506305f5e10081670de0b6b3a7640000610d349190611c22565b610d3e9190611c65565b91505090565b610d4d8261077c565b610d568161103f565b6107b88383611049565b5f5f731f98431c8ad98523631ae4a59f267346ea31f98490505f816001600160a01b0316631698ee8260065f9054906101000a90046001600160a01b03166001600160a01b031663ad5c46486040518163ffffffff1660e01b8152600401602060405180830381865afa158015610dd9573d5f5f3e3d5ffd5b505050506040513d601f19601f82011682018060405250810190610dfd9190611c91565b60015460405160e084901b6001600160e01b03191681526001600160a01b03928316600482015291166024820152610bb86044820152606401602060405180830381865afa158015610e51573d5f5f3e3d5ffd5b505050506040513d601f19601f82011682018060405250810190610e759190611c91565b90506001600160a01b03811615610f30575f8190505f816001600160a01b0316633850c7bd6040518163ffffffff1660e01b815260040160e060405180830381865afa158015610ec7573d5f5f3e3d5ffd5b505050506040513d601f19601f82011682018060405250810190610eeb9190611cbd565b5050505050506001600160a01b031690506002600160601b82610f0e9190611d54565b610f189190611e4a565b610f279064e8d4a51000611b9f565b94505050505090565b5f9250505090565b5f6001600160e01b03198216637965db0b60e01b14806105ec57506301ffc9a760e01b6001600160e01b03198316146105ec565b5f807ff0c57e16840df040f15088dc2f81fe391c3923bec73e23a9662efc9c229c6a006105ec565b610f9c6113ec565b565b5f5f516020611ecd5f395f51905f52610fb78484610c69565b611036575f848152602082815260408083206001600160a01b03871684529091529020805460ff19166001179055610fec3390565b6001600160a01b0316836001600160a01b0316857f2f8788117e7eff1d82e926ec794901d17c78024a50270940304540a733656f0d60405160405180910390a460019150506105ec565b5f9150506105ec565b6108288133611411565b5f5f516020611ecd5f395f51905f526110628484610c69565b15611036575f848152602082815260408083206001600160a01b0387168085529252808320805460ff1916905551339287917ff6391f5c32d9c69d2a47ea670b442974b53935d1edc7fd64eb21e047a839171b9190a460019150506105ec565b6110ca61144a565b5f516020611eed5f395f51905f52805460ff191681557f5db9ee0a495bf2e6ff9c91a7834c1ba4fdd244a5e8aa4e537bd38aeae4b073aa335b6040516001600160a01b03909116815260200160405180910390a150565b306001600160a01b037f00000000000000000000000000000000000000000000000000000000000000001614806111a757507f00000000000000000000000000000000000000000000000000000000000000006001600160a01b031661119b5f516020611ead5f395f51905f52546001600160a01b031690565b6001600160a01b031614155b15610f9c5760405163703e46dd60e11b815260040160405180910390fd5b7f189ab7a9244df0848122154315af71fe140f3db0fe014031783b0946b8c9d2e36108568161103f565b816001600160a01b03166352d1902d6040518163ffffffff1660e01b8152600401602060405180830381865afa925050508015611249575060408051601f3d908101601f1916820190925261124691810190611e58565b60015b61127157604051634c9c8ce360e01b81526001600160a01b03831660048201526024016109c6565b5f516020611ead5f395f51905f5281146112a157604051632a87526960e21b8152600481018290526024016109c6565b6107f18383611479565b306001600160a01b037f00000000000000000000000000000000000000000000000000000000000000001614610f9c5760405163703e46dd60e11b815260040160405180910390fd5b5f5f61271060035f0154866113099190611b9f565b6113139190611d54565b905061131f8185611e6f565b8511806113345750836113328287611e6f565b105b15611342575f915050611375565b61134c8184611e6f565b85118061136157508261135f8287611e6f565b105b1561136f575f915050611375565b60019150505b9392505050565b5f5f5f5f61138a86866114ce565b92509250925061139a8282611517565b5090949350505050565b6113ac6115cf565b5f516020611eed5f395f51905f52805460ff191660011781557f62e78cea01bee320cd4e420270b5ea74000d11b0c9f74754ebdbfc544b05a25833611103565b6113f46115ff565b610f9c57604051631afcd79f60e31b815260040160405180910390fd5b61141b8282610c69565b6108565760405163e2517d3f60e01b81526001600160a01b0382166004820152602481018390526044016109c6565b5f516020611eed5f395f51905f525460ff16610f9c57604051638dfc202b60e01b815260040160405180910390fd5b61148282611618565b6040516001600160a01b038316907fbc7cd75a20ee27fd9adebab32041f755214dbc6bffa90cc0225b39da2e5c2d3b905f90a28051156114c6576107f1828261167b565b6108566116ed565b5f5f5f8351604103611505576020840151604085015160608601515f1a6114f78882858561170c565b955095509550505050611510565b505081515f91506002905b9250925092565b5f82600381111561152a5761152a611e82565b03611533575050565b600182600381111561154757611547611e82565b036115655760405163f645eedf60e01b815260040160405180910390fd5b600282600381111561157957611579611e82565b0361159a5760405163fce698f760e01b8152600481018290526024016109c6565b60038260038111156115ae576115ae611e82565b03610856576040516335e2f38360e21b8152600481018290526024016109c6565b5f516020611eed5f395f51905f525460ff1615610f9c5760405163d93c066560e01b815260040160405180910390fd5b5f611608610f6c565b54600160401b900460ff16919050565b806001600160a01b03163b5f0361164d57604051634c9c8ce360e01b81526001600160a01b03821660048201526024016109c6565b5f516020611ead5f395f51905f5280546001600160a01b0319166001600160a01b0392909216919091179055565b60605f5f846001600160a01b0316846040516116979190611e96565b5f60405180830381855af49150503d805f81146116cf576040519150601f19603f3d011682016040523d82523d5f602084013e6116d4565b606091505b50915091506116e48583836117d4565b95945050505050565b3415610f9c5760405163b398979f60e01b815260040160405180910390fd5b5f80807f7fffffffffffffffffffffffffffffff5d576e7357a4501ddfe92f46681b20a084111561174557505f915060039050826117ca565b604080515f808252602082018084528a905260ff891692820192909252606081018790526080810186905260019060a0016020604051602081039080840390855afa158015611796573d5f5f3e3d5ffd5b5050604051601f1901519150506001600160a01b0381166117c157505f9250600191508290506117ca565b92505f91508190505b9450945094915050565b6060826117e9576117e482611830565b611375565b815115801561180057506001600160a01b0384163b155b1561182957604051639996b31560e01b81526001600160a01b03851660048201526024016109c6565b5080611375565b8051156118405780518082602001fd5b60405163d6bda27560e01b815260040160405180910390fd5b5f60208284031215611869575f5ffd5b81356001600160e01b031981168114611375575f5ffd5b6001600160a01b0381168114610828575f5ffd5b5f5f5f5f5f5f60c087890312156118a9575f5ffd5b863595506020870135945060408701356118c281611880565b935060608701356118d281611880565b925060808701356118e281611880565b915060a08701356118f281611880565b809150509295509295509295565b5f60208284031215611910575f5ffd5b5035919050565b5f5f60408385031215611928575f5ffd5b82359150602083013561193a81611880565b809150509250929050565b634e487b7160e01b5f52604160045260245ffd5b5f82601f830112611968575f5ffd5b813567ffffffffffffffff81111561198257611982611945565b604051601f8201601f19908116603f0116810167ffffffffffffffff811182821017156119b1576119b1611945565b6040528181528382016020018510156119c8575f5ffd5b816020850160208301375f918101602001919091529392505050565b5f5f604083850312156119f5575f5ffd5b8235611a0081611880565b9150602083013567ffffffffffffffff811115611a1b575f5ffd5b611a2785828601611959565b9150509250929050565b5f60208284031215611a41575f5ffd5b813567ffffffffffffffff811115611a57575f5ffd5b820160a08185031215611375575f5ffd5b60ff81168114610828575f5ffd5b5f5f5f5f5f60a08688031215611a8a575f5ffd5b853594506020860135611a9c81611a68565b93506040860135925060608601359150608086013567ffffffffffffffff811115611ac5575f5ffd5b611ad188828901611959565b9150509295509295909350565b602081525f82518060208401528060208501604085015e5f604082850101526040601f19601f83011684010191505092915050565b5f60208284031215611b23575f5ffd5b813561137581611a68565b5f5f8335601e19843603018112611b43575f5ffd5b83018035915067ffffffffffffffff821115611b5d575f5ffd5b602001915036819003821315611b71575f5ffd5b9250929050565b634e487b7160e01b5f52601160045260245ffd5b818103818111156105ec576105ec611b78565b80820281158282048414176105ec576105ec611b78565b805169ffffffffffffffffffff81168114611bcf575f5ffd5b919050565b5f5f5f5f5f60a08688031215611be8575f5ffd5b611bf186611bb6565b60208701516040880151606089015192975090955093509150611c1660808701611bb6565b90509295509295909350565b8082025f8212600160ff1b84141615611c3d57611c3d611b78565b81810583148215176105ec576105ec611b78565b634e487b7160e01b5f52601260045260245ffd5b5f82611c7357611c73611c51565b600160ff1b82145f1984141615611c8c57611c8c611b78565b500590565b5f60208284031215611ca1575f5ffd5b815161137581611880565b805161ffff81168114611bcf575f5ffd5b5f5f5f5f5f5f5f60e0888a031215611cd3575f5ffd5b8751611cde81611880565b8097505060208801518060020b8114611cf5575f5ffd5b9550611d0360408901611cac565b9450611d1160608901611cac565b9350611d1f60808901611cac565b925060a0880151611d2f81611a68565b60c08901519092508015158114611d44575f5ffd5b8091505092959891949750929550565b5f82611d6257611d62611c51565b500490565b6001815b6001841115611da257808504811115611d8657611d86611b78565b6001841615611d9457908102905b60019390931c928002611d6b565b935093915050565b5f82611db8575060016105ec565b81611dc457505f6105ec565b8160018114611dda5760028114611de457611e00565b60019150506105ec565b60ff841115611df557611df5611b78565b50506001821b6105ec565b5060208310610133831016604e8410600b8410161715611e23575081810a6105ec565b611e2f5f198484611d67565b805f1904821115611e4257611e42611b78565b029392505050565b5f61137560ff841683611daa565b5f60208284031215611e68575f5ffd5b5051919050565b808201808211156105ec576105ec611b78565b634e487b7160e01b5f52602160045260245ffd5b5f82518060208501845e5f92019182525091905056fe360894a13ba1a3210667c828492db98dca3e2076cc3735a920a3ca505d382bbc02dd7bc7dec4dceedda775e58dd541e08a116c6c53815c0bd028192f7b626800cd5ed15c6e187e77e9aee88184c21f4f2182ab5827cb3b7e07fbedcd63f03300a26469706673582212201bf0171e0fd6d6c870637899c5d83236769f59cba77795f96190a508f175341b64736f6c634300081d0033","linkReferences":{}},"methodIdentifiers":{"DEFAULT_ADMIN_ROLE()":"a217fddf","PAUSER_ROLE()":"e63ab1e9","PRICE_PRECISION()":"95082d25","SIGNER_ROLE()":"a1ebf35d","UPGRADER_ROLE()":"f72c0d8b","UPGRADE_INTERFACE_VERSION()":"ad3cb1cc","attestationService((uint256,uint8,uint256,bytes32,bytes))":"65ab8c71","config()":"79502c55","getChainlinkDataFeedLatestAnswer()":"bea4dfb5","getRoleAdmin(bytes32)":"248a9ca3","getUniswapV3WethUsdcPrice()":"dd5bfe33","grantRole(bytes32,address)":"2f2ff15d","hasRole(bytes32,address)":"91d14854","initialize(uint256,uint256,address,address,address,address)":"10e51e14","lastPrices(bytes32)":"d67e343c","maxDeviationPercentage()":"f780d9bc","pause()":"8456cb59","paused()":"5c975abb","priceProvider()":"b888879e","proxiableUUID()":"52d1902d","renounceRole(bytes32,address)":"36568abe","revokeRole(bytes32,address)":"d547741f","setMaxDeviationPercentage(uint256)":"451a579d","supportsInterface(bytes4)":"01ffc9a7","uniswapRouter()":"735de9f7","unpause()":"3f4ba83a","upgradeToAndCall(address,bytes)":"4f1ef286","usdcAddress()":"02d45457","verifySignature(uint256,uint8,uint256,bytes32,bytes)":"6ccba2ac"},"storageLayout":{"storage":[{"astId":57799,"contract":"src/PriceOracle.sol:PriceOracle","label":"maxDeviationPercentage","offset":0,"slot":"0","type":"t_uint256"},{"astId":57806,"contract":"src/PriceOracle.sol:PriceOracle","label":"usdcAddress","offset":0,"slot":"1","type":"t_address"},{"astId":57808,"contract":"src/PriceOracle.sol:PriceOracle","label":"priceProvider","offset":0,"slot":"2","type":"t_address"},{"astId":57811,"contract":"src/PriceOracle.sol:PriceOracle","label":"config","offset":0,"slot":"3","type":"t_struct(PriceConfig)57804_storage"},{"astId":57816,"contract":"src/PriceOracle.sol:PriceOracle","label":"lastPrices","offset":0,"slot":"5","type":"t_mapping(t_bytes32,t_struct(PriceResponse)63376_storage)"},{"astId":57819,"contract":"src/PriceOracle.sol:PriceOracle","label":"uniswapRouter","offset":0,"slot":"6","type":"t_contract(IUniswapV2Router02)51575"},{"astId":57822,"contract":"src/PriceOracle.sol:PriceOracle","label":"dataFeed","offset":0,"slot":"7","type":"t_contract(AggregatorV3Interface)45"}],"types":{"t_address":{"encoding":"inplace","label":"address","numberOfBytes":"20"},"t_bytes32":{"encoding":"inplace","label":"bytes32","numberOfBytes":"32"},"t_contract(AggregatorV3Interface)45":{"encoding":"inplace","label":"contract AggregatorV3Interface","numberOfBytes":"20"},"t_contract(IUniswapV2Router02)51575":{"encoding":"inplace","label":"contract IUniswapV2Router02","numberOfBytes":"20"},"t_mapping(t_bytes32,t_struct(PriceResponse)63376_storage)":{"encoding":"mapping","key":"t_bytes32","label":"mapping(bytes32 => struct IPriceOracle.PriceResponse)","numberOfBytes":"32","value":"t_struct(PriceResponse)63376_storage"},"t_struct(PriceConfig)57804_storage":{"encoding":"inplace","label":"struct PriceOracle.PriceConfig","numberOfBytes":"64","members":[{"astId":57801,"contract":"src/PriceOracle.sol:PriceOracle","label":"maxPriceDeviation","offset":0,"slot":"0","type":"t_uint256"},{"astId":57803,"contract":"src/PriceOracle.sol:PriceOracle","label":"priceStalenessPeriod","offset":0,"slot":"1","type":"t_uint256"}]},"t_struct(PriceResponse)63376_storage":{"encoding":"inplace","label":"struct IPriceOracle.PriceResponse","numberOfBytes":"96","members":[{"astId":63371,"contract":"src/PriceOracle.sol:PriceOracle","label":"price","offset":0,"slot":"0","type":"t_uint256"},{"astId":63373,"contract":"src/PriceOracle.sol:PriceOracle","label":"decimals","offset":0,"slot":"1","type":"t_uint8"},{"astId":63375,"contract":"src/PriceOracle.sol:PriceOracle","label":"timestamp","offset":0,"slot":"2","type":"t_uint256"}]},"t_uint256":{"encoding":"inplace","label":"uint256","numberOfBytes":"32"},"t_uint8":{"encoding":"inplace","label":"uint8","numberOfBytes":"1"}}},"id":94}