{"abi":[{"type":"constructor","inputs":[],"stateMutability":"nonpayable"},{"type":"function","name":"DEFAULT_ADMIN_ROLE","inputs":[],"outputs":[{"name":"","type":"bytes32","internalType":"bytes32"}],"stateMutability":"view"},{"type":"function","name":"ETH_USD_ASSET_PAIR","inputs":[],"outputs":[{"name":"","type":"bytes32","internalType":"bytes32"}],"stateMutability":"view"},{"type":"function","name":"EUR_USD_ASSET_PAIR","inputs":[],"outputs":[{"name":"","type":"bytes32","internalType":"bytes32"}],"stateMutability":"view"},{"type":"function","name":"MAX_DEVIATION_BPS","inputs":[],"outputs":[{"name":"","type":"uint256","internalType":"uint256"}],"stateMutability":"view"},{"type":"function","name":"MAX_STALENESS_PERIOD_SECONDS","inputs":[],"outputs":[{"name":"","type":"uint256","internalType":"uint256"}],"stateMutability":"view"},{"type":"function","name":"PAUSER_ROLE","inputs":[],"outputs":[{"name":"","type":"bytes32","internalType":"bytes32"}],"stateMutability":"view"},{"type":"function","name":"PRICE_PRECISION","inputs":[],"outputs":[{"name":"","type":"uint256","internalType":"uint256"}],"stateMutability":"view"},{"type":"function","name":"SIGNER_ROLE","inputs":[],"outputs":[{"name":"","type":"bytes32","internalType":"bytes32"}],"stateMutability":"view"},{"type":"function","name":"UPGRADER_ROLE","inputs":[],"outputs":[{"name":"","type":"bytes32","internalType":"bytes32"}],"stateMutability":"view"},{"type":"function","name":"UPGRADE_INTERFACE_VERSION","inputs":[],"outputs":[{"name":"","type":"string","internalType":"string"}],"stateMutability":"view"},{"type":"function","name":"attestationService","inputs":[{"name":"priceQuery","type":"tuple","internalType":"struct IPriceOracle.PriceAttestationQuery","components":[{"name":"price","type":"uint256","internalType":"uint256"},{"name":"decimals","type":"uint8","internalType":"uint8"},{"name":"dataTimestamp","type":"uint256","internalType":"uint256"},{"name":"assetPair","type":"bytes32","internalType":"bytes32"},{"name":"signature","type":"bytes","internalType":"bytes"}]}],"outputs":[{"name":"","type":"tuple","internalType":"struct IPriceOracle.PriceResponse","components":[{"name":"price","type":"uint256","internalType":"uint256"},{"name":"decimals","type":"uint8","internalType":"uint8"},{"name":"timestamp","type":"uint256","internalType":"uint256"}]}],"stateMutability":"payable"},{"type":"function","name":"config","inputs":[],"outputs":[{"name":"maxPriceDeviation","type":"uint256","internalType":"uint256"},{"name":"priceStalenessPeriod","type":"uint256","internalType":"uint256"}],"stateMutability":"view"},{"type":"function","name":"generalAttestationService","inputs":[{"name":"priceQuery","type":"tuple","internalType":"struct IPriceOracle.PriceAttestationQuery","components":[{"name":"price","type":"uint256","internalType":"uint256"},{"name":"decimals","type":"uint8","internalType":"uint8"},{"name":"dataTimestamp","type":"uint256","internalType":"uint256"},{"name":"assetPair","type":"bytes32","internalType":"bytes32"},{"name":"signature","type":"bytes","internalType":"bytes"}]}],"outputs":[{"name":"","type":"tuple","internalType":"struct IPriceOracle.PriceResponse","components":[{"name":"price","type":"uint256","internalType":"uint256"},{"name":"decimals","type":"uint8","internalType":"uint8"},{"name":"timestamp","type":"uint256","internalType":"uint256"}]}],"stateMutability":"payable"},{"type":"function","name":"getChainlinkDataFeedLatestAnswer","inputs":[],"outputs":[{"name":"","type":"int256","internalType":"int256"}],"stateMutability":"view"},{"type":"function","name":"getRoleAdmin","inputs":[{"name":"role","type":"bytes32","internalType":"bytes32"}],"outputs":[{"name":"","type":"bytes32","internalType":"bytes32"}],"stateMutability":"view"},{"type":"function","name":"getUniswapV3WethUsdcPrice","inputs":[],"outputs":[{"name":"","type":"uint256","internalType":"uint256"}],"stateMutability":"view"},{"type":"function","name":"grantRole","inputs":[{"name":"role","type":"bytes32","internalType":"bytes32"},{"name":"account","type":"address","internalType":"address"}],"outputs":[],"stateMutability":"nonpayable"},{"type":"function","name":"hasRole","inputs":[{"name":"role","type":"bytes32","internalType":"bytes32"},{"name":"account","type":"address","internalType":"address"}],"outputs":[{"name":"","type":"bool","internalType":"bool"}],"stateMutability":"view"},{"type":"function","name":"initialize","inputs":[{"name":"_maxPriceDeviation","type":"uint256","internalType":"uint256"},{"name":"_priceStalenessPeriod","type":"uint256","internalType":"uint256"},{"name":"_usdcAddress","type":"address","internalType":"address"},{"name":"_uniswapRouter","type":"address","internalType":"address"},{"name":"_chainlinkAggregator","type":"address","internalType":"address"},{"name":"_uniswapV3Factory","type":"address","internalType":"address"},{"name":"_admin","type":"address","internalType":"address"}],"outputs":[],"stateMutability":"nonpayable"},{"type":"function","name":"lastAttestationTimestamp","inputs":[],"outputs":[{"name":"","type":"uint256","internalType":"uint256"}],"stateMutability":"view"},{"type":"function","name":"lastPrices","inputs":[{"name":"","type":"bytes32","internalType":"bytes32"}],"outputs":[{"name":"price","type":"uint256","internalType":"uint256"},{"name":"decimals","type":"uint8","internalType":"uint8"},{"name":"timestamp","type":"uint256","internalType":"uint256"}],"stateMutability":"view"},{"type":"function","name":"pause","inputs":[],"outputs":[],"stateMutability":"nonpayable"},{"type":"function","name":"paused","inputs":[],"outputs":[{"name":"","type":"bool","internalType":"bool"}],"stateMutability":"view"},{"type":"function","name":"priceProvider","inputs":[],"outputs":[{"name":"","type":"address","internalType":"address"}],"stateMutability":"view"},{"type":"function","name":"proxiableUUID","inputs":[],"outputs":[{"name":"","type":"bytes32","internalType":"bytes32"}],"stateMutability":"view"},{"type":"function","name":"renounceRole","inputs":[{"name":"role","type":"bytes32","internalType":"bytes32"},{"name":"callerConfirmation","type":"address","internalType":"address"}],"outputs":[],"stateMutability":"nonpayable"},{"type":"function","name":"revokeRole","inputs":[{"name":"role","type":"bytes32","internalType":"bytes32"},{"name":"account","type":"address","internalType":"address"}],"outputs":[],"stateMutability":"nonpayable"},{"type":"function","name":"setMaxDeviationPercentage","inputs":[{"name":"_maxDeviationPercentage","type":"uint256","internalType":"uint256"}],"outputs":[],"stateMutability":"nonpayable"},{"type":"function","name":"setPriceStalenessPeriod","inputs":[{"name":"_priceStalenessPeriod","type":"uint256","internalType":"uint256"}],"outputs":[],"stateMutability":"nonpayable"},{"type":"function","name":"supportsInterface","inputs":[{"name":"interfaceId","type":"bytes4","internalType":"bytes4"}],"outputs":[{"name":"","type":"bool","internalType":"bool"}],"stateMutability":"view"},{"type":"function","name":"uniswapRouter","inputs":[],"outputs":[{"name":"","type":"address","internalType":"contract IUniswapV2Router02"}],"stateMutability":"view"},{"type":"function","name":"uniswapV3Factory","inputs":[],"outputs":[{"name":"","type":"address","internalType":"address"}],"stateMutability":"view"},{"type":"function","name":"unpause","inputs":[],"outputs":[],"stateMutability":"nonpayable"},{"type":"function","name":"upgradeToAndCall","inputs":[{"name":"newImplementation","type":"address","internalType":"address"},{"name":"data","type":"bytes","internalType":"bytes"}],"outputs":[],"stateMutability":"payable"},{"type":"function","name":"usdcAddress","inputs":[],"outputs":[{"name":"","type":"address","internalType":"address"}],"stateMutability":"view"},{"type":"function","name":"verifySignature","inputs":[{"name":"price","type":"uint256","internalType":"uint256"},{"name":"decimals","type":"uint8","internalType":"uint8"},{"name":"timestamp","type":"uint256","internalType":"uint256"},{"name":"assetPair","type":"bytes32","internalType":"bytes32"},{"name":"signature","type":"bytes","internalType":"bytes"}],"outputs":[{"name":"","type":"address","internalType":"address"}],"stateMutability":"pure"},{"type":"event","name":"Initialized","inputs":[{"name":"version","type":"uint64","indexed":false,"internalType":"uint64"}],"anonymous":false},{"type":"event","name":"Paused","inputs":[{"name":"account","type":"address","indexed":false,"internalType":"address"}],"anonymous":false},{"type":"event","name":"RoleAdminChanged","inputs":[{"name":"role","type":"bytes32","indexed":true,"internalType":"bytes32"},{"name":"previousAdminRole","type":"bytes32","indexed":true,"internalType":"bytes32"},{"name":"newAdminRole","type":"bytes32","indexed":true,"internalType":"bytes32"}],"anonymous":false},{"type":"event","name":"RoleGranted","inputs":[{"name":"role","type":"bytes32","indexed":true,"internalType":"bytes32"},{"name":"account","type":"address","indexed":true,"internalType":"address"},{"name":"sender","type":"address","indexed":true,"internalType":"address"}],"anonymous":false},{"type":"event","name":"RoleRevoked","inputs":[{"name":"role","type":"bytes32","indexed":true,"internalType":"bytes32"},{"name":"account","type":"address","indexed":true,"internalType":"address"},{"name":"sender","type":"address","indexed":true,"internalType":"address"}],"anonymous":false},{"type":"event","name":"Unpaused","inputs":[{"name":"account","type":"address","indexed":false,"internalType":"address"}],"anonymous":false},{"type":"event","name":"Upgraded","inputs":[{"name":"implementation","type":"address","indexed":true,"internalType":"address"}],"anonymous":false},{"type":"error","name":"AccessControlBadConfirmation","inputs":[]},{"type":"error","name":"AccessControlUnauthorizedAccount","inputs":[{"name":"account","type":"address","internalType":"address"},{"name":"neededRole","type":"bytes32","internalType":"bytes32"}]},{"type":"error","name":"AddressEmptyCode","inputs":[{"name":"target","type":"address","internalType":"address"}]},{"type":"error","name":"ECDSAInvalidSignature","inputs":[]},{"type":"error","name":"ECDSAInvalidSignatureLength","inputs":[{"name":"length","type":"uint256","internalType":"uint256"}]},{"type":"error","name":"ECDSAInvalidSignatureS","inputs":[{"name":"s","type":"bytes32","internalType":"bytes32"}]},{"type":"error","name":"ERC1967InvalidImplementation","inputs":[{"name":"implementation","type":"address","internalType":"address"}]},{"type":"error","name":"ERC1967NonPayable","inputs":[]},{"type":"error","name":"EnforcedPause","inputs":[]},{"type":"error","name":"ExpectedPause","inputs":[]},{"type":"error","name":"FailedCall","inputs":[]},{"type":"error","name":"FutureTimestampProvided","inputs":[{"name":"providedTimestamp","type":"uint256","internalType":"uint256"},{"name":"maxAllowedTimestamp","type":"uint256","internalType":"uint256"}]},{"type":"error","name":"InvalidAssetPair","inputs":[{"name":"expected","type":"bytes32","internalType":"bytes32"},{"name":"actual","type":"bytes32","internalType":"bytes32"}]},{"type":"error","name":"InvalidDecimals","inputs":[{"name":"expected","type":"uint8","internalType":"uint8"},{"name":"actual","type":"uint8","internalType":"uint8"}]},{"type":"error","name":"InvalidInitialization","inputs":[]},{"type":"error","name":"InvalidSignature","inputs":[]},{"type":"error","name":"MaxDeviationTooHigh","inputs":[{"name":"provided","type":"uint256","internalType":"uint256"},{"name":"maxAllowed","type":"uint256","internalType":"uint256"}]},{"type":"error","name":"NotInitializing","inputs":[]},{"type":"error","name":"OraclePaused","inputs":[]},{"type":"error","name":"PriceDataTooOld","inputs":[{"name":"timestamp","type":"uint256","internalType":"uint256"},{"name":"currentTime","type":"uint256","internalType":"uint256"}]},{"type":"error","name":"PriceDeviationTooHigh","inputs":[{"name":"morpherPrice","type":"uint256","internalType":"uint256"},{"name":"chainlinkPrice","type":"uint256","internalType":"uint256"},{"name":"uniswapPrice","type":"uint256","internalType":"uint256"}]},{"type":"error","name":"PriceSourceUnavailable","inputs":[{"name":"source","type":"string","internalType":"string"}]},{"type":"error","name":"StaleAttestation","inputs":[{"name":"lastTimestamp","type":"uint256","internalType":"uint256"},{"name":"providedTimestamp","type":"uint256","internalType":"uint256"}]},{"type":"error","name":"StalenessPeriodTooHigh","inputs":[{"name":"provided","type":"uint256","internalType":"uint256"},{"name":"maxAllowed","type":"uint256","internalType":"uint256"}]},{"type":"error","name":"UUPSUnauthorizedCallContext","inputs":[]},{"type":"error","name":"UUPSUnsupportedProxiableUUID","inputs":[{"name":"slot","type":"bytes32","internalType":"bytes32"}]},{"type":"error","name":"ZeroAddressProvided","inputs":[{"name":"field","type":"string","internalType":"string"}]}],"bytecode":{"object":"0x60a060405230608052348015610013575f5ffd5b5061001c610021565b6100d3565b7ff0c57e16840df040f15088dc2f81fe391c3923bec73e23a9662efc9c229c6a00805468010000000000000000900460ff16156100715760405163f92ee8a960e01b815260040160405180910390fd5b80546001600160401b03908116146100d05780546001600160401b0319166001600160401b0390811782556040519081527fc7f505b2f371ae2175ee4913f4499e1f2633a7b5936321eed1cdaeb6115181d29060200160405180910390a15b50565b6080516124256100f95f395f818161130d01528181611336015261149701526124255ff3fe608060405260043610610207575f3560e01c8063735de9f711610113578063b888879e1161009d578063d547741f1161006d578063d547741f14610609578063d67e343c14610628578063dd5bfe3314610682578063e63ab1e914610696578063f72c0d8b146106c9575f5ffd5b8063b888879e146105a1578063bea4dfb5146105c0578063bef99f52146105d4578063c9f0bf03146105e9575f5ffd5b806391d14854116100e357806391d14854146104e457806395082d2514610503578063a1ebf35d1461051e578063a217fddf14610551578063ad3cb1cc14610564575f5ffd5b8063735de9f71461046f57806375deccfd1461048e57806379502c55146104a15780638456cb59146104d0575f5ffd5b806336568abe1161019457806352d1902d1161016457806352d1902d146103c25780635b549182146103d65780635c975abb146103f557806365ab8c71146104185780636ccba2ac14610450575f5ffd5b806336568abe1461035d5780633f4ba83a1461037c578063451a579d146103905780634f1ef286146103af575f5ffd5b80631268a28f116101da5780631268a28f146102d7578063238c92da146102f6578063248a9ca31461030a57806325c68403146103295780632f2ff15d1461033e575f5ffd5b806301f258991461020b57806301ffc9a71461025157806302d45457146102805780630dd388d0146102b6575b5f5ffd5b348015610216575f5ffd5b5061023e7f41e2f25885efd1656d996274e4e6fe9ca626d3bda5bda2fb0242e20bba717bb381565b6040519081526020015b60405180910390f35b34801561025c575f5ffd5b5061027061026b366004611d53565b6106fc565b6040519015158152602001610248565b34801561028b575f5ffd5b505f5461029e906001600160a01b031681565b6040516001600160a01b039091168152602001610248565b3480156102c1575f5ffd5b506102d56102d0366004611d7a565b61070c565b005b3480156102e2575f5ffd5b506102d56102f1366004611da5565b61074d565b348015610301575f5ffd5b5061023e607881565b348015610315575f5ffd5b5061023e610324366004611d7a565b610a9f565b348015610334575f5ffd5b5061023e6101f481565b348015610349575f5ffd5b506102d5610358366004611e24565b610abf565b348015610368575f5ffd5b506102d5610377366004611e24565b610ae1565b348015610387575f5ffd5b506102d5610b19565b34801561039b575f5ffd5b506102d56103aa366004611d7a565b610b4e565b6102d56103bd366004611ef1565b610b8c565b3480156103cd575f5ffd5b5061023e610bab565b3480156103e1575f5ffd5b5060085461029e906001600160a01b031681565b348015610400575f5ffd5b505f5160206124055f395f51905f525460ff16610270565b61042b610426366004611f3e565b610bc6565b604080518251815260208084015160ff16908201529181015190820152606001610248565b34801561045b575f5ffd5b5061029e61046a366004611f83565b610c4c565b34801561047a575f5ffd5b5060065461029e906001600160a01b031681565b61042b61049c366004611f3e565b610d59565b3480156104ac575f5ffd5b506003546004546104bb919082565b60408051928352602083019190915201610248565b3480156104db575f5ffd5b506102d5610daa565b3480156104ef575f5ffd5b506102706104fe366004611e24565b610ddc565b34801561050e575f5ffd5b5061023e670de0b6b3a764000081565b348015610529575f5ffd5b5061023e7fe2f4eaae4a9751e85a3e4a7b9587827a877f29914755229b07a7b2da98285f7081565b34801561055c575f5ffd5b5061023e5f81565b34801561056f575f5ffd5b50610594604051806040016040528060058152602001640352e302e360dc1b81525081565b6040516102489190611feb565b3480156105ac575f5ffd5b5060015461029e906001600160a01b031681565b3480156105cb575f5ffd5b5061023e610e12565b3480156105df575f5ffd5b5061023e60025481565b3480156105f4575f5ffd5b5061023e5f5160206123c55f395f51905f5281565b348015610614575f5ffd5b506102d5610623366004611e24565b610f1e565b348015610633575f5ffd5b50610665610642366004611d7a565b60056020525f9081526040902080546001820154600290920154909160ff169083565b6040805193845260ff909216602084015290820152606001610248565b34801561068d575f5ffd5b5061023e610f3a565b3480156106a1575f5ffd5b5061023e7f65d7a28e3265b37a6474929f336521b332c1681b933f6cb9f3376673440d862a81565b3480156106d4575f5ffd5b5061023e7f189ab7a9244df0848122154315af71fe140f3db0fe014031783b0946b8c9d2e381565b5f61070682611119565b92915050565b5f6107168161114d565b607882111561074757604051632b4055b360e21b815260048101839052607860248201526044015b60405180910390fd5b50600455565b5f610756611157565b805490915060ff600160401b820416159067ffffffffffffffff165f8115801561077d5750825b90505f8267ffffffffffffffff1660011480156107995750303b155b9050811580156107a7575080155b156107c55760405163f92ee8a960e01b815260040160405180910390fd5b845467ffffffffffffffff1916600117855583156107ef57845460ff60401b1916600160401b1785555b6001600160a01b038a1661082f576040516356af9c8160e01b815260040161073e906020808252600490820152635553444360e01b604082015260600190565b6001600160a01b038916610877576040516356af9c8160e01b815260206004820152600e60248201526d2ab734b9bbb0b8102937baba32b960911b604482015260640161073e565b6001600160a01b0388166108c5576040516356af9c8160e01b815260206004820152601460248201527321b430b4b73634b7359020b3b3b932b3b0ba37b960611b604482015260640161073e565b6001600160a01b038716610911576040516356af9c8160e01b8152602060048201526012602482015271556e697377617020563320466163746f727960701b604482015260640161073e565b6001600160a01b038616610950576040516356af9c8160e01b815260206004820152600560248201526420b236b4b760d91b604482015260640161073e565b6101f48c111561097e576040516358b471f360e01b8152600481018d90526101f4602482015260440161073e565b60788b11156109aa57604051632b4055b360e21b8152600481018c90526078602482015260440161073e565b6109b261117f565b6109ba61117f565b6109c261117f565b6109cc5f87611189565b506109f77f189ab7a9244df0848122154315af71fe140f3db0fe014031783b0946b8c9d2e387611189565b5060038c905560048b90555f80546001600160a01b03808d166001600160a01b031992831617909255600680548c8416908316179055600780548b841690831617905560088054928a16929091169190911790558315610a9157845460ff60401b19168555604051600181527fc7f505b2f371ae2175ee4913f4499e1f2633a7b5936321eed1cdaeb6115181d29060200160405180910390a15b505050505050505050505050565b5f9081525f5160206123e55f395f51905f52602052604090206001015490565b610ac882610a9f565b610ad18161114d565b610adb8383611189565b50505050565b6001600160a01b0381163314610b0a5760405163334bd91960e11b815260040160405180910390fd5b610b14828261122a565b505050565b7f65d7a28e3265b37a6474929f336521b332c1681b933f6cb9f3376673440d862a610b438161114d565b610b4b6112a3565b50565b5f610b588161114d565b6101f4821115610b86576040516358b471f360e01b8152600481018390526101f4602482015260440161073e565b50600355565b610b94611302565b610b9d826113a6565b610ba782826113d0565b5050565b5f610bb461148c565b505f5160206123a55f395f51905f5290565b610bea60405180606001604052805f81526020015f60ff1681526020015f81525090565b610bf26114d5565b5f5160206123c55f395f51905f52826060013514610c3c57604051634750117760e01b81525f5160206123c55f395f51905f5260048201526060830135602482015260440161073e565b610706826001611505565b919050565b5f5f86868686604051602001610c88949392919093845260f89290921b6001600160f81b03191660208401526021830152604182015260610190565b6040516020818303038152906040528051906020012090505f81604051602001610cde91907f19457468657265756d205369676e6564204d6573736167653a0a3332000000008152601c810191909152603c0190565b6040516020818303038152906040528051906020012090505f610d018286611820565b90506001600160a01b038116610d4d5760405162461bcd60e51b8152602060048201526011602482015270496e76616c6964207369676e617475726560781b604482015260640161073e565b98975050505050505050565b610d7d60405180606001604052805f81526020015f60ff1681526020015f81525090565b610d856114d5565b60608201355f5160206123c55f395f51905f5214610da38382611505565b9392505050565b7f65d7a28e3265b37a6474929f336521b332c1681b933f6cb9f3376673440d862a610dd48161114d565b610b4b611848565b5f9182525f5160206123e55f395f51905f52602090815260408084206001600160a01b0393909316845291905290205460ff1690565b5f5f5f60075f9054906101000a90046001600160a01b03166001600160a01b031663feaf968c6040518163ffffffff1660e01b815260040160a060405180830381865afa158015610e65573d5f5f3e3d5ffd5b505050506040513d601f19601f82011682018060405250810190610e899190612039565b50935050925050610e108142610e9f919061209b565b10610ee6576040516314e7f62b60e31b8152602060048201526016602482015275436861696e6c696e6b204f7261636c65205374616c6560501b604482015260640161073e565b5f821215610ef6575f9250505090565b6305f5e100610f0d83670de0b6b3a76400006120ae565b610f1791906120f1565b9250505090565b610f2782610a9f565b610f308161114d565b610adb838361122a565b5f5f731f98431c8ad98523631ae4a59f267346ea31f98490505f816001600160a01b0316631698ee8260065f9054906101000a90046001600160a01b03166001600160a01b031663ad5c46486040518163ffffffff1660e01b8152600401602060405180830381865afa158015610fb3573d5f5f3e3d5ffd5b505050506040513d601f19601f82011682018060405250810190610fd7919061211d565b5f5460405160e084901b6001600160e01b03191681526001600160a01b03928316600482015291166024820152610bb86044820152606401602060405180830381865afa15801561102a573d5f5f3e3d5ffd5b505050506040513d601f19601f8201168201806040525081019061104e919061211d565b90506001600160a01b03811615611111575f8190505f816001600160a01b0316633850c7bd6040518163ffffffff1660e01b815260040160e060405180830381865afa1580156110a0573d5f5f3e3d5ffd5b505050506040513d601f19601f820116820180604052508101906110c49190612149565b5050505050506001600160a01b031690505f6002826110e391906122b3565b6110f6906503782dace9d960d21b6122c1565b90506111078164e8d4a510006122d4565b9550505050505090565b5f9250505090565b5f6001600160e01b03198216637965db0b60e01b148061070657506301ffc9a760e01b6001600160e01b0319831614610706565b610b4b8133611890565b5f807ff0c57e16840df040f15088dc2f81fe391c3923bec73e23a9662efc9c229c6a00610706565b6111876118c9565b565b5f5f5160206123e55f395f51905f526111a28484610ddc565b611221575f848152602082815260408083206001600160a01b03871684529091529020805460ff191660011790556111d73390565b6001600160a01b0316836001600160a01b0316857f2f8788117e7eff1d82e926ec794901d17c78024a50270940304540a733656f0d60405160405180910390a46001915050610706565b5f915050610706565b5f5f5160206123e55f395f51905f526112438484610ddc565b15611221575f848152602082815260408083206001600160a01b0387168085529252808320805460ff1916905551339287917ff6391f5c32d9c69d2a47ea670b442974b53935d1edc7fd64eb21e047a839171b9190a46001915050610706565b6112ab6118ee565b5f5160206124055f395f51905f52805460ff191681557f5db9ee0a495bf2e6ff9c91a7834c1ba4fdd244a5e8aa4e537bd38aeae4b073aa335b6040516001600160a01b03909116815260200160405180910390a150565b306001600160a01b037f000000000000000000000000000000000000000000000000000000000000000016148061138857507f00000000000000000000000000000000000000000000000000000000000000006001600160a01b031661137c5f5160206123a55f395f51905f52546001600160a01b031690565b6001600160a01b031614155b156111875760405163703e46dd60e11b815260040160405180910390fd5b7f189ab7a9244df0848122154315af71fe140f3db0fe014031783b0946b8c9d2e3610ba78161114d565b816001600160a01b03166352d1902d6040518163ffffffff1660e01b8152600401602060405180830381865afa92505050801561142a575060408051601f3d908101601f19168201909252611427918101906122eb565b60015b61145257604051634c9c8ce360e01b81526001600160a01b038316600482015260240161073e565b5f5160206123a55f395f51905f52811461148257604051632a87526960e21b81526004810182905260240161073e565b610b14838361191d565b306001600160a01b037f000000000000000000000000000000000000000000000000000000000000000016146111875760405163703e46dd60e11b815260040160405180910390fd5b5f5160206124055f395f51905f525460ff16156111875760405163e28b705360e01b815260040160405180910390fd5b61152960405180606001604052805f81526020015f60ff1681526020015f81525090565b5f61158f843561153f6040870160208801612302565b6040870135606088013561155660808a018a61231d565b8080601f0160208091040260200160405190810160405280939291908181526020018383808284375f92019190915250610c4c92505050565b90506115bb7fe2f4eaae4a9751e85a3e4a7b9587827a877f29914755229b07a7b2da98285f7082610ddc565b6115d857604051638baa579f60e01b815260040160405180910390fd5b6002546115eb6040860135613a98612367565b101561161a5760025460408051639e9b3e7560e01b81526004810192909252850135602482015260440161073e565b61162a6040850160208601612302565b60ff1660121461166c5760126116466040860160208701612302565b60405163047e54d360e31b815260ff92831660048201529116602482015260440161073e565b600454611679904261209b565b611685906103e86122d4565b8460400135116116b4576040805163195c727d60e01b815290850135600482015242602482015260440161073e565b5f6116c042600f612367565b6116cc906103e86122d4565b9050808560400135111561170057604080516389dee5f360e01b81529086013560048201526024810182905260440161073e565b83801561170d5750466001145b156117de575f61171b610e12565b9050805f03611759576040516314e7f62b60e31b8152602060048201526009602482015268436861696e6c696e6b60b81b604482015260640161073e565b5f611762610f3a565b9050805f036117a1576040516314e7f62b60e31b815260206004820152600a602482015269556e697377617020563360b01b604482015260640161073e565b6117ad87358383611972565b6117db5760405163e9b5646f60e01b815287356004820152602481018390526044810182905260640161073e565b50505b6040808601803560025581516060810190925286358252602080830191611806918901612302565b60ff16815260200186604001358152509250505092915050565b5f5f5f5f61182e86866119f8565b92509250925061183e8282611a41565b5090949350505050565b6118506114d5565b5f5160206124055f395f51905f52805460ff191660011781557f62e78cea01bee320cd4e420270b5ea74000d11b0c9f74754ebdbfc544b05a258336112e4565b61189a8282610ddc565b610ba75760405163e2517d3f60e01b81526001600160a01b03821660048201526024810183905260440161073e565b6118d1611af9565b61118757604051631afcd79f60e31b815260040160405180910390fd5b5f5160206124055f395f51905f525460ff1661118757604051638dfc202b60e01b815260040160405180910390fd5b61192682611b12565b6040516001600160a01b038316907fbc7cd75a20ee27fd9adebab32041f755214dbc6bffa90cc0225b39da2e5c2d3b905f90a280511561196a57610b148282611b75565b610ba7611be7565b5f5f61271060035f01548661198791906122d4565b61199191906122c1565b905061199d8185612367565b8511806119b25750836119b08287612367565b105b156119c0575f915050610da3565b6119ca8184612367565b8511806119df5750826119dd8287612367565b105b156119ed575f915050610da3565b506001949350505050565b5f5f5f8351604103611a2f576020840151604085015160608601515f1a611a2188828585611c06565b955095509550505050611a3a565b505081515f91506002905b9250925092565b5f826003811115611a5457611a5461237a565b03611a5d575050565b6001826003811115611a7157611a7161237a565b03611a8f5760405163f645eedf60e01b815260040160405180910390fd5b6002826003811115611aa357611aa361237a565b03611ac45760405163fce698f760e01b81526004810182905260240161073e565b6003826003811115611ad857611ad861237a565b03610ba7576040516335e2f38360e21b81526004810182905260240161073e565b5f611b02611157565b54600160401b900460ff16919050565b806001600160a01b03163b5f03611b4757604051634c9c8ce360e01b81526001600160a01b038216600482015260240161073e565b5f5160206123a55f395f51905f5280546001600160a01b0319166001600160a01b0392909216919091179055565b60605f5f846001600160a01b031684604051611b91919061238e565b5f60405180830381855af49150503d805f8114611bc9576040519150601f19603f3d011682016040523d82523d5f602084013e611bce565b606091505b5091509150611bde858383611cce565b95945050505050565b34156111875760405163b398979f60e01b815260040160405180910390fd5b5f80807f7fffffffffffffffffffffffffffffff5d576e7357a4501ddfe92f46681b20a0841115611c3f57505f91506003905082611cc4565b604080515f808252602082018084528a905260ff891692820192909252606081018790526080810186905260019060a0016020604051602081039080840390855afa158015611c90573d5f5f3e3d5ffd5b5050604051601f1901519150506001600160a01b038116611cbb57505f925060019150829050611cc4565b92505f91508190505b9450945094915050565b606082611ce357611cde82611d2a565b610da3565b8151158015611cfa57506001600160a01b0384163b155b15611d2357604051639996b31560e01b81526001600160a01b038516600482015260240161073e565b5080610da3565b805115611d3a5780518082602001fd5b60405163d6bda27560e01b815260040160405180910390fd5b5f60208284031215611d63575f5ffd5b81356001600160e01b031981168114610da3575f5ffd5b5f60208284031215611d8a575f5ffd5b5035919050565b6001600160a01b0381168114610b4b575f5ffd5b5f5f5f5f5f5f5f60e0888a031215611dbb575f5ffd5b87359650602088013595506040880135611dd481611d91565b94506060880135611de481611d91565b93506080880135611df481611d91565b925060a0880135611e0481611d91565b915060c0880135611e1481611d91565b8091505092959891949750929550565b5f5f60408385031215611e35575f5ffd5b823591506020830135611e4781611d91565b809150509250929050565b634e487b7160e01b5f52604160045260245ffd5b5f82601f830112611e75575f5ffd5b813567ffffffffffffffff811115611e8f57611e8f611e52565b604051601f8201601f19908116603f0116810167ffffffffffffffff81118282101715611ebe57611ebe611e52565b604052818152838201602001851015611ed5575f5ffd5b816020850160208301375f918101602001919091529392505050565b5f5f60408385031215611f02575f5ffd5b8235611f0d81611d91565b9150602083013567ffffffffffffffff811115611f28575f5ffd5b611f3485828601611e66565b9150509250929050565b5f60208284031215611f4e575f5ffd5b813567ffffffffffffffff811115611f64575f5ffd5b820160a08185031215610da3575f5ffd5b60ff81168114610b4b575f5ffd5b5f5f5f5f5f60a08688031215611f97575f5ffd5b853594506020860135611fa981611f75565b93506040860135925060608601359150608086013567ffffffffffffffff811115611fd2575f5ffd5b611fde88828901611e66565b9150509295509295909350565b602081525f82518060208401528060208501604085015e5f604082850101526040601f19601f83011684010191505092915050565b805169ffffffffffffffffffff81168114610c47575f5ffd5b5f5f5f5f5f60a0868803121561204d575f5ffd5b61205686612020565b6020870151604088015160608901519297509095509350915061207b60808701612020565b90509295509295909350565b634e487b7160e01b5f52601160045260245ffd5b8181038181111561070657610706612087565b8082025f8212600160ff1b841416156120c9576120c9612087565b818105831482151761070657610706612087565b634e487b7160e01b5f52601260045260245ffd5b5f826120ff576120ff6120dd565b600160ff1b82145f198414161561211857612118612087565b500590565b5f6020828403121561212d575f5ffd5b8151610da381611d91565b805161ffff81168114610c47575f5ffd5b5f5f5f5f5f5f5f60e0888a03121561215f575f5ffd5b875161216a81611d91565b8097505060208801518060020b8114612181575f5ffd5b955061218f60408901612138565b945061219d60608901612138565b93506121ab60808901612138565b925060a08801516121bb81611f75565b60c08901519092508015158114611e14575f5ffd5b6001815b600184111561220b578085048111156121ef576121ef612087565b60018416156121fd57908102905b60019390931c9280026121d4565b935093915050565b5f8261222157506001610706565b8161222d57505f610706565b8160018114612243576002811461224d57612269565b6001915050610706565b60ff84111561225e5761225e612087565b50506001821b610706565b5060208310610133831016604e8410600b841016171561228c575081810a610706565b6122985f1984846121d0565b805f19048211156122ab576122ab612087565b029392505050565b5f610da360ff841683612213565b5f826122cf576122cf6120dd565b500490565b808202811582820484141761070657610706612087565b5f602082840312156122fb575f5ffd5b5051919050565b5f60208284031215612312575f5ffd5b8135610da381611f75565b5f5f8335601e19843603018112612332575f5ffd5b83018035915067ffffffffffffffff82111561234c575f5ffd5b602001915036819003821315612360575f5ffd5b9250929050565b8082018082111561070657610706612087565b634e487b7160e01b5f52602160045260245ffd5b5f82518060208501845e5f92019182525091905056fe360894a13ba1a3210667c828492db98dca3e2076cc3735a920a3ca505d382bbc267fb830456e0b64582e3058e563e93c21b337432aecaf19f4b3dee7d6faa07802dd7bc7dec4dceedda775e58dd541e08a116c6c53815c0bd028192f7b626800cd5ed15c6e187e77e9aee88184c21f4f2182ab5827cb3b7e07fbedcd63f03300","linkReferences":{}},"methodIdentifiers":{"DEFAULT_ADMIN_ROLE()":"a217fddf","ETH_USD_ASSET_PAIR()":"c9f0bf03","EUR_USD_ASSET_PAIR()":"01f25899","MAX_DEVIATION_BPS()":"25c68403","MAX_STALENESS_PERIOD_SECONDS()":"238c92da","PAUSER_ROLE()":"e63ab1e9","PRICE_PRECISION()":"95082d25","SIGNER_ROLE()":"a1ebf35d","UPGRADER_ROLE()":"f72c0d8b","UPGRADE_INTERFACE_VERSION()":"ad3cb1cc","attestationService((uint256,uint8,uint256,bytes32,bytes))":"65ab8c71","config()":"79502c55","generalAttestationService((uint256,uint8,uint256,bytes32,bytes))":"75deccfd","getChainlinkDataFeedLatestAnswer()":"bea4dfb5","getRoleAdmin(bytes32)":"248a9ca3","getUniswapV3WethUsdcPrice()":"dd5bfe33","grantRole(bytes32,address)":"2f2ff15d","hasRole(bytes32,address)":"91d14854","initialize(uint256,uint256,address,address,address,address,address)":"1268a28f","lastAttestationTimestamp()":"bef99f52","lastPrices(bytes32)":"d67e343c","pause()":"8456cb59","paused()":"5c975abb","priceProvider()":"b888879e","proxiableUUID()":"52d1902d","renounceRole(bytes32,address)":"36568abe","revokeRole(bytes32,address)":"d547741f","setMaxDeviationPercentage(uint256)":"451a579d","setPriceStalenessPeriod(uint256)":"0dd388d0","supportsInterface(bytes4)":"01ffc9a7","uniswapRouter()":"735de9f7","uniswapV3Factory()":"5b549182","unpause()":"3f4ba83a","upgradeToAndCall(address,bytes)":"4f1ef286","usdcAddress()":"02d45457","verifySignature(uint256,uint8,uint256,bytes32,bytes)":"6ccba2ac"},"storageLayout":{"storage":[{"astId":53936,"contract":"src/PriceOracle.sol:PriceOracle","label":"usdcAddress","offset":0,"slot":"0","type":"t_address"},{"astId":53938,"contract":"src/PriceOracle.sol:PriceOracle","label":"priceProvider","offset":0,"slot":"1","type":"t_address"},{"astId":53940,"contract":"src/PriceOracle.sol:PriceOracle","label":"lastAttestationTimestamp","offset":0,"slot":"2","type":"t_uint256"},{"astId":53943,"contract":"src/PriceOracle.sol:PriceOracle","label":"config","offset":0,"slot":"3","type":"t_struct(PriceConfig)53934_storage"},{"astId":53948,"contract":"src/PriceOracle.sol:PriceOracle","label":"lastPrices","offset":0,"slot":"5","type":"t_mapping(t_bytes32,t_struct(PriceResponse)60525_storage)"},{"astId":53951,"contract":"src/PriceOracle.sol:PriceOracle","label":"uniswapRouter","offset":0,"slot":"6","type":"t_contract(IUniswapV2Router02)51045"},{"astId":53954,"contract":"src/PriceOracle.sol:PriceOracle","label":"dataFeed","offset":0,"slot":"7","type":"t_contract(AggregatorV3Interface)45"},{"astId":53956,"contract":"src/PriceOracle.sol:PriceOracle","label":"uniswapV3Factory","offset":0,"slot":"8","type":"t_address"}],"types":{"t_address":{"encoding":"inplace","label":"address","numberOfBytes":"20"},"t_bytes32":{"encoding":"inplace","label":"bytes32","numberOfBytes":"32"},"t_contract(AggregatorV3Interface)45":{"encoding":"inplace","label":"contract AggregatorV3Interface","numberOfBytes":"20"},"t_contract(IUniswapV2Router02)51045":{"encoding":"inplace","label":"contract IUniswapV2Router02","numberOfBytes":"20"},"t_mapping(t_bytes32,t_struct(PriceResponse)60525_storage)":{"encoding":"mapping","key":"t_bytes32","label":"mapping(bytes32 => struct IPriceOracle.PriceResponse)","numberOfBytes":"32","value":"t_struct(PriceResponse)60525_storage"},"t_struct(PriceConfig)53934_storage":{"encoding":"inplace","label":"struct PriceOracle.PriceConfig","numberOfBytes":"64","members":[{"astId":53931,"contract":"src/PriceOracle.sol:PriceOracle","label":"maxPriceDeviation","offset":0,"slot":"0","type":"t_uint256"},{"astId":53933,"contract":"src/PriceOracle.sol:PriceOracle","label":"priceStalenessPeriod","offset":0,"slot":"1","type":"t_uint256"}]},"t_struct(PriceResponse)60525_storage":{"encoding":"inplace","label":"struct IPriceOracle.PriceResponse","numberOfBytes":"96","members":[{"astId":60520,"contract":"src/PriceOracle.sol:PriceOracle","label":"price","offset":0,"slot":"0","type":"t_uint256"},{"astId":60522,"contract":"src/PriceOracle.sol:PriceOracle","label":"decimals","offset":0,"slot":"1","type":"t_uint8"},{"astId":60524,"contract":"src/PriceOracle.sol:PriceOracle","label":"timestamp","offset":0,"slot":"2","type":"t_uint256"}]},"t_uint256":{"encoding":"inplace","label":"uint256","numberOfBytes":"32"},"t_uint8":{"encoding":"inplace","label":"uint8","numberOfBytes":"1"}}},"id":76}