{"abi":[{"type":"constructor","inputs":[],"stateMutability":"nonpayable"},{"type":"function","name":"DEFAULT_ADMIN_ROLE","inputs":[],"outputs":[{"name":"","type":"bytes32","internalType":"bytes32"}],"stateMutability":"view"},{"type":"function","name":"ETH_USD_ASSET_PAIR","inputs":[],"outputs":[{"name":"","type":"bytes32","internalType":"bytes32"}],"stateMutability":"view"},{"type":"function","name":"PAUSER_ROLE","inputs":[],"outputs":[{"name":"","type":"bytes32","internalType":"bytes32"}],"stateMutability":"view"},{"type":"function","name":"PRICE_PRECISION","inputs":[],"outputs":[{"name":"","type":"uint256","internalType":"uint256"}],"stateMutability":"view"},{"type":"function","name":"SIGNER_ROLE","inputs":[],"outputs":[{"name":"","type":"bytes32","internalType":"bytes32"}],"stateMutability":"view"},{"type":"function","name":"UPGRADER_ROLE","inputs":[],"outputs":[{"name":"","type":"bytes32","internalType":"bytes32"}],"stateMutability":"view"},{"type":"function","name":"UPGRADE_INTERFACE_VERSION","inputs":[],"outputs":[{"name":"","type":"string","internalType":"string"}],"stateMutability":"view"},{"type":"function","name":"attestationService","inputs":[{"name":"priceQuery","type":"tuple","internalType":"struct IPriceOracle.PriceAttestationQuery","components":[{"name":"price","type":"uint256","internalType":"uint256"},{"name":"decimals","type":"uint8","internalType":"uint8"},{"name":"dataTimestamp","type":"uint256","internalType":"uint256"},{"name":"assetPair","type":"bytes32","internalType":"bytes32"},{"name":"signature","type":"bytes","internalType":"bytes"}]}],"outputs":[{"name":"","type":"tuple","internalType":"struct IPriceOracle.PriceResponse","components":[{"name":"price","type":"uint256","internalType":"uint256"},{"name":"decimals","type":"uint8","internalType":"uint8"},{"name":"timestamp","type":"uint256","internalType":"uint256"}]}],"stateMutability":"payable"},{"type":"function","name":"config","inputs":[],"outputs":[{"name":"maxPriceDeviation","type":"uint256","internalType":"uint256"},{"name":"priceStalenessPeriod","type":"uint256","internalType":"uint256"}],"stateMutability":"view"},{"type":"function","name":"getChainlinkDataFeedLatestAnswer","inputs":[],"outputs":[{"name":"","type":"int256","internalType":"int256"}],"stateMutability":"view"},{"type":"function","name":"getRoleAdmin","inputs":[{"name":"role","type":"bytes32","internalType":"bytes32"}],"outputs":[{"name":"","type":"bytes32","internalType":"bytes32"}],"stateMutability":"view"},{"type":"function","name":"getUniswapV3WethUsdcPrice","inputs":[],"outputs":[{"name":"","type":"uint256","internalType":"uint256"}],"stateMutability":"view"},{"type":"function","name":"grantRole","inputs":[{"name":"role","type":"bytes32","internalType":"bytes32"},{"name":"account","type":"address","internalType":"address"}],"outputs":[],"stateMutability":"nonpayable"},{"type":"function","name":"hasRole","inputs":[{"name":"role","type":"bytes32","internalType":"bytes32"},{"name":"account","type":"address","internalType":"address"}],"outputs":[{"name":"","type":"bool","internalType":"bool"}],"stateMutability":"view"},{"type":"function","name":"initialize","inputs":[{"name":"_maxPriceDeviation","type":"uint256","internalType":"uint256"},{"name":"_priceStalenessPeriod","type":"uint256","internalType":"uint256"},{"name":"_usdcAddress","type":"address","internalType":"address"},{"name":"_uniswapRouter","type":"address","internalType":"address"},{"name":"_chainlinkAggregator","type":"address","internalType":"address"},{"name":"_admin","type":"address","internalType":"address"}],"outputs":[],"stateMutability":"nonpayable"},{"type":"function","name":"lastAttestationTimestamp","inputs":[],"outputs":[{"name":"","type":"uint256","internalType":"uint256"}],"stateMutability":"view"},{"type":"function","name":"lastPrices","inputs":[{"name":"","type":"bytes32","internalType":"bytes32"}],"outputs":[{"name":"price","type":"uint256","internalType":"uint256"},{"name":"decimals","type":"uint8","internalType":"uint8"},{"name":"timestamp","type":"uint256","internalType":"uint256"}],"stateMutability":"view"},{"type":"function","name":"maxDeviationPercentage","inputs":[],"outputs":[{"name":"","type":"uint256","internalType":"uint256"}],"stateMutability":"view"},{"type":"function","name":"pause","inputs":[],"outputs":[],"stateMutability":"nonpayable"},{"type":"function","name":"paused","inputs":[],"outputs":[{"name":"","type":"bool","internalType":"bool"}],"stateMutability":"view"},{"type":"function","name":"priceProvider","inputs":[],"outputs":[{"name":"","type":"address","internalType":"address"}],"stateMutability":"view"},{"type":"function","name":"proxiableUUID","inputs":[],"outputs":[{"name":"","type":"bytes32","internalType":"bytes32"}],"stateMutability":"view"},{"type":"function","name":"renounceRole","inputs":[{"name":"role","type":"bytes32","internalType":"bytes32"},{"name":"callerConfirmation","type":"address","internalType":"address"}],"outputs":[],"stateMutability":"nonpayable"},{"type":"function","name":"revokeRole","inputs":[{"name":"role","type":"bytes32","internalType":"bytes32"},{"name":"account","type":"address","internalType":"address"}],"outputs":[],"stateMutability":"nonpayable"},{"type":"function","name":"setMaxDeviationPercentage","inputs":[{"name":"_maxDeviationPercentage","type":"uint256","internalType":"uint256"}],"outputs":[],"stateMutability":"nonpayable"},{"type":"function","name":"supportsInterface","inputs":[{"name":"interfaceId","type":"bytes4","internalType":"bytes4"}],"outputs":[{"name":"","type":"bool","internalType":"bool"}],"stateMutability":"view"},{"type":"function","name":"uniswapRouter","inputs":[],"outputs":[{"name":"","type":"address","internalType":"contract IUniswapV2Router02"}],"stateMutability":"view"},{"type":"function","name":"unpause","inputs":[],"outputs":[],"stateMutability":"nonpayable"},{"type":"function","name":"upgradeToAndCall","inputs":[{"name":"newImplementation","type":"address","internalType":"address"},{"name":"data","type":"bytes","internalType":"bytes"}],"outputs":[],"stateMutability":"payable"},{"type":"function","name":"usdcAddress","inputs":[],"outputs":[{"name":"","type":"address","internalType":"address"}],"stateMutability":"view"},{"type":"function","name":"verifySignature","inputs":[{"name":"price","type":"uint256","internalType":"uint256"},{"name":"decimals","type":"uint8","internalType":"uint8"},{"name":"timestamp","type":"uint256","internalType":"uint256"},{"name":"assetPair","type":"bytes32","internalType":"bytes32"},{"name":"signature","type":"bytes","internalType":"bytes"}],"outputs":[{"name":"","type":"address","internalType":"address"}],"stateMutability":"pure"},{"type":"event","name":"Initialized","inputs":[{"name":"version","type":"uint64","indexed":false,"internalType":"uint64"}],"anonymous":false},{"type":"event","name":"Paused","inputs":[{"name":"account","type":"address","indexed":false,"internalType":"address"}],"anonymous":false},{"type":"event","name":"RoleAdminChanged","inputs":[{"name":"role","type":"bytes32","indexed":true,"internalType":"bytes32"},{"name":"previousAdminRole","type":"bytes32","indexed":true,"internalType":"bytes32"},{"name":"newAdminRole","type":"bytes32","indexed":true,"internalType":"bytes32"}],"anonymous":false},{"type":"event","name":"RoleGranted","inputs":[{"name":"role","type":"bytes32","indexed":true,"internalType":"bytes32"},{"name":"account","type":"address","indexed":true,"internalType":"address"},{"name":"sender","type":"address","indexed":true,"internalType":"address"}],"anonymous":false},{"type":"event","name":"RoleRevoked","inputs":[{"name":"role","type":"bytes32","indexed":true,"internalType":"bytes32"},{"name":"account","type":"address","indexed":true,"internalType":"address"},{"name":"sender","type":"address","indexed":true,"internalType":"address"}],"anonymous":false},{"type":"event","name":"Unpaused","inputs":[{"name":"account","type":"address","indexed":false,"internalType":"address"}],"anonymous":false},{"type":"event","name":"Upgraded","inputs":[{"name":"implementation","type":"address","indexed":true,"internalType":"address"}],"anonymous":false},{"type":"error","name":"AccessControlBadConfirmation","inputs":[]},{"type":"error","name":"AccessControlUnauthorizedAccount","inputs":[{"name":"account","type":"address","internalType":"address"},{"name":"neededRole","type":"bytes32","internalType":"bytes32"}]},{"type":"error","name":"AddressEmptyCode","inputs":[{"name":"target","type":"address","internalType":"address"}]},{"type":"error","name":"ECDSAInvalidSignature","inputs":[]},{"type":"error","name":"ECDSAInvalidSignatureLength","inputs":[{"name":"length","type":"uint256","internalType":"uint256"}]},{"type":"error","name":"ECDSAInvalidSignatureS","inputs":[{"name":"s","type":"bytes32","internalType":"bytes32"}]},{"type":"error","name":"ERC1967InvalidImplementation","inputs":[{"name":"implementation","type":"address","internalType":"address"}]},{"type":"error","name":"ERC1967NonPayable","inputs":[]},{"type":"error","name":"EnforcedPause","inputs":[]},{"type":"error","name":"ExpectedPause","inputs":[]},{"type":"error","name":"FailedCall","inputs":[]},{"type":"error","name":"InvalidAssetPair","inputs":[{"name":"expected","type":"bytes32","internalType":"bytes32"},{"name":"actual","type":"bytes32","internalType":"bytes32"}]},{"type":"error","name":"InvalidDecimals","inputs":[{"name":"expected","type":"uint8","internalType":"uint8"},{"name":"actual","type":"uint8","internalType":"uint8"}]},{"type":"error","name":"InvalidInitialization","inputs":[]},{"type":"error","name":"InvalidSignature","inputs":[]},{"type":"error","name":"NotInitializing","inputs":[]},{"type":"error","name":"OraclePaused","inputs":[]},{"type":"error","name":"PriceDataTooOld","inputs":[{"name":"timestamp","type":"uint256","internalType":"uint256"},{"name":"currentTime","type":"uint256","internalType":"uint256"}]},{"type":"error","name":"PriceDeviationTooHigh","inputs":[{"name":"morpherPrice","type":"uint256","internalType":"uint256"},{"name":"chainlinkPrice","type":"uint256","internalType":"uint256"},{"name":"uniswapPrice","type":"uint256","internalType":"uint256"}]},{"type":"error","name":"PriceSourceUnavailable","inputs":[{"name":"source","type":"string","internalType":"string"}]},{"type":"error","name":"StaleAttestation","inputs":[{"name":"lastTimestamp","type":"uint256","internalType":"uint256"},{"name":"providedTimestamp","type":"uint256","internalType":"uint256"}]},{"type":"error","name":"UUPSUnauthorizedCallContext","inputs":[]},{"type":"error","name":"UUPSUnsupportedProxiableUUID","inputs":[{"name":"slot","type":"bytes32","internalType":"bytes32"}]},{"type":"error","name":"ZeroAddressProvided","inputs":[{"name":"field","type":"string","internalType":"string"}]}],"bytecode":{"object":"0x60a0604052306080526101f45f55348015610018575f5ffd5b50610021610026565b6100d8565b7ff0c57e16840df040f15088dc2f81fe391c3923bec73e23a9662efc9c229c6a00805468010000000000000000900460ff16156100765760405163f92ee8a960e01b815260040160405180910390fd5b80546001600160401b03908116146100d55780546001600160401b0319166001600160401b0390811782556040519081527fc7f505b2f371ae2175ee4913f4499e1f2633a7b5936321eed1cdaeb6115181d29060200160405180910390a15b50565b6080516121c36100fe5f395f81816113ad015281816113d6015261153701526121c35ff3fe6080604052600436106101d0575f3560e01c80638456cb59116100fd578063bef99f5211610092578063dd5bfe3311610062578063dd5bfe33146105b2578063e63ab1e9146105c6578063f72c0d8b146105f9578063f780d9bc1461062c575f5ffd5b8063bef99f52146104f1578063c9f0bf0314610506578063d547741f14610539578063d67e343c14610558575f5ffd5b8063a217fddf116100cd578063a217fddf1461046e578063ad3cb1cc14610481578063b888879e146104be578063bea4dfb5146104dd575f5ffd5b80638456cb59146103ed57806391d148541461040157806395082d2514610420578063a1ebf35d1461043b575f5ffd5b8063451a579d1161017357806365ab8c711161014357806365ab8c71146103485780636ccba2ac14610380578063735de9f71461039f57806379502c55146103be575f5ffd5b8063451a579d146102df5780634f1ef286146102fe57806352d1902d146103115780635c975abb14610325575f5ffd5b8063248a9ca3116101ae578063248a9ca3146102605780632f2ff15d1461028d57806336568abe146102ac5780633f4ba83a146102cb575f5ffd5b806301ffc9a7146101d457806302d454571461020857806310e51e141461023f575b5f5ffd5b3480156101df575f5ffd5b506101f36101ee366004611ada565b610640565b60405190151581526020015b60405180910390f35b348015610213575f5ffd5b50600154610227906001600160a01b031681565b6040516001600160a01b0390911681526020016101ff565b34801561024a575f5ffd5b5061025e610259366004611b15565b610650565b005b34801561026b575f5ffd5b5061027f61027a366004611b81565b6108f8565b6040519081526020016101ff565b348015610298575f5ffd5b5061025e6102a7366004611b98565b610918565b3480156102b7575f5ffd5b5061025e6102c6366004611b98565b61093a565b3480156102d6575f5ffd5b5061025e610972565b3480156102ea575f5ffd5b5061025e6102f9366004611b81565b6109a7565b61025e61030c366004611c65565b6109b7565b34801561031c575f5ffd5b5061027f6109d6565b348015610330575f5ffd5b505f51602061216e5f395f51905f525460ff166101f3565b61035b610356366004611cb2565b6109f1565b604080518251815260208084015160ff169082015291810151908201526060016101ff565b34801561038b575f5ffd5b5061022761039a366004611cf7565b610d54565b3480156103aa575f5ffd5b50600754610227906001600160a01b031681565b3480156103c9575f5ffd5b506004546005546103d8919082565b604080519283526020830191909152016101ff565b3480156103f8575f5ffd5b5061025e610e61565b34801561040c575f5ffd5b506101f361041b366004611b98565b610e93565b34801561042b575f5ffd5b5061027f670de0b6b3a764000081565b348015610446575f5ffd5b5061027f7fe2f4eaae4a9751e85a3e4a7b9587827a877f29914755229b07a7b2da98285f7081565b348015610479575f5ffd5b5061027f5f81565b34801561048c575f5ffd5b506104b1604051806040016040528060058152602001640352e302e360dc1b81525081565b6040516101ff9190611d5f565b3480156104c9575f5ffd5b50600254610227906001600160a01b031681565b3480156104e8575f5ffd5b5061027f610ec9565b3480156104fc575f5ffd5b5061027f60035481565b348015610511575f5ffd5b5061027f7f267fb830456e0b64582e3058e563e93c21b337432aecaf19f4b3dee7d6faa07881565b348015610544575f5ffd5b5061025e610553366004611b98565b610fc5565b348015610563575f5ffd5b50610595610572366004611b81565b60066020525f9081526040902080546001820154600290920154909160ff169083565b6040805193845260ff9092166020840152908201526060016101ff565b3480156105bd575f5ffd5b5061027f610fe1565b3480156105d1575f5ffd5b5061027f7f65d7a28e3265b37a6474929f336521b332c1681b933f6cb9f3376673440d862a81565b348015610604575f5ffd5b5061027f7f189ab7a9244df0848122154315af71fe140f3db0fe014031783b0946b8c9d2e381565b348015610637575f5ffd5b5061027f5f5481565b5f61064a826111b9565b92915050565b5f6106596111ed565b805490915060ff600160401b820416159067ffffffffffffffff165f811580156106805750825b90505f8267ffffffffffffffff16600114801561069c5750303b155b9050811580156106aa575080155b156106c85760405163f92ee8a960e01b815260040160405180910390fd5b845467ffffffffffffffff1916600117855583156106f257845460ff60401b1916600160401b1785555b6001600160a01b03891661073b576040516356af9c8160e01b8152600401610732906020808252600490820152635553444360e01b604082015260600190565b60405180910390fd5b6001600160a01b038816610783576040516356af9c8160e01b815260206004820152600e60248201526d2ab734b9bbb0b8102937baba32b960911b6044820152606401610732565b6001600160a01b0387166107d1576040516356af9c8160e01b815260206004820152601460248201527321b430b4b73634b7359020b3b3b932b3b0ba37b960611b6044820152606401610732565b6001600160a01b038616610810576040516356af9c8160e01b815260206004820152600560248201526420b236b4b760d91b6044820152606401610732565b610818611215565b610820611215565b610828611215565b6108325f8761121f565b5061085d7f189ab7a9244df0848122154315af71fe140f3db0fe014031783b0946b8c9d2e38761121f565b5060048b905560058a9055600180546001600160a01b03808c166001600160a01b031992831617909255600780548b841690831617905560088054928a169290911691909117905583156108eb57845460ff60401b19168555604051600181527fc7f505b2f371ae2175ee4913f4499e1f2633a7b5936321eed1cdaeb6115181d29060200160405180910390a15b5050505050505050505050565b5f9081525f51602061214e5f395f51905f52602052604090206001015490565b610921826108f8565b61092a816112c0565b610934838361121f565b50505050565b6001600160a01b03811633146109635760405163334bd91960e11b815260040160405180910390fd5b61096d82826112ca565b505050565b7f65d7a28e3265b37a6474929f336521b332c1681b933f6cb9f3376673440d862a61099c816112c0565b6109a4611343565b50565b5f6109b1816112c0565b50600455565b6109bf6113a2565b6109c882611446565b6109d28282611470565b5050565b5f6109df61152c565b505f51602061212e5f395f51905f5290565b610a1560405180606001604052805f81526020015f60ff1681526020015f81525090565b5f51602061216e5f395f51905f525460ff1615610a455760405163e28b705360e01b815260040160405180910390fd5b7f267fb830456e0b64582e3058e563e93c21b337432aecaf19f4b3dee7d6faa078826060013514610ab557604051634750117760e01b81527f267fb830456e0b64582e3058e563e93c21b337432aecaf19f4b3dee7d6faa078600482015260608301356024820152604401610732565b5f610b1b8335610acb6040860160208701611d94565b60408601356060870135610ae26080890189611daf565b8080601f0160208091040260200160405190810160405280939291908181526020018383808284375f92019190915250610d5492505050565b9050610b477fe2f4eaae4a9751e85a3e4a7b9587827a877f29914755229b07a7b2da98285f7082610e93565b610b6457604051638baa579f60e01b815260040160405180910390fd5b600354610b776040850135613a98611e0d565b1015610ba65760035460408051639e9b3e7560e01b815260048101929092528401356024820152604401610732565b610bb66040840160208501611d94565b60ff16601214610bf8576012610bd26040850160208601611d94565b60405163047e54d360e31b815260ff928316600482015291166024820152604401610732565b600554610c059042611e20565b610c11906103e8611e33565b836040013511610c40576040805163195c727d60e01b8152908401356004820152426024820152604401610732565b46600103610d14575f610c51610ec9565b9050805f03610c8f576040516314e7f62b60e31b8152602060048201526009602482015268436861696e6c696e6b60b81b6044820152606401610732565b5f610c98610fe1565b9050805f03610cd7576040516314e7f62b60e31b815260206004820152600a602482015269556e697377617020563360b01b6044820152606401610732565b610ce385358383611575565b610d115760405163e9b5646f60e01b8152853560048201526024810183905260448101829052606401610732565b50505b6040808401803560035581516060810190925284358252602080830191610d3c918701611d94565b60ff1681526020018460400135815250915050919050565b5f5f86868686604051602001610d90949392919093845260f89290921b6001600160f81b03191660208401526021830152604182015260610190565b6040516020818303038152906040528051906020012090505f81604051602001610de691907f19457468657265756d205369676e6564204d6573736167653a0a3332000000008152601c810191909152603c0190565b6040516020818303038152906040528051906020012090505f610e0982866115fd565b90506001600160a01b038116610e555760405162461bcd60e51b8152602060048201526011602482015270496e76616c6964207369676e617475726560781b6044820152606401610732565b98975050505050505050565b7f65d7a28e3265b37a6474929f336521b332c1681b933f6cb9f3376673440d862a610e8b816112c0565b6109a4611625565b5f9182525f51602061214e5f395f51905f52602090815260408084206001600160a01b0393909316845291905290205460ff1690565b5f5f5f60085f9054906101000a90046001600160a01b03166001600160a01b031663feaf968c6040518163ffffffff1660e01b815260040160a060405180830381865afa158015610f1c573d5f5f3e3d5ffd5b505050506040513d601f19601f82011682018060405250810190610f409190611e68565b50935050925050610e108142610f569190611e20565b10610f9d576040516314e7f62b60e31b8152602060048201526016602482015275436861696e6c696e6b204f7261636c65205374616c6560501b6044820152606401610732565b6305f5e100610fb483670de0b6b3a7640000611eb6565b610fbe9190611ef9565b9250505090565b610fce826108f8565b610fd7816112c0565b61093483836112ca565b5f5f731f98431c8ad98523631ae4a59f267346ea31f98490505f816001600160a01b0316631698ee8260075f9054906101000a90046001600160a01b03166001600160a01b031663ad5c46486040518163ffffffff1660e01b8152600401602060405180830381865afa15801561105a573d5f5f3e3d5ffd5b505050506040513d601f19601f8201168201806040525081019061107e9190611f25565b60015460405160e084901b6001600160e01b03191681526001600160a01b03928316600482015291166024820152610bb86044820152606401602060405180830381865afa1580156110d2573d5f5f3e3d5ffd5b505050506040513d601f19601f820116820180604052508101906110f69190611f25565b90506001600160a01b038116156111b1575f8190505f816001600160a01b0316633850c7bd6040518163ffffffff1660e01b815260040160e060405180830381865afa158015611148573d5f5f3e3d5ffd5b505050506040513d601f19601f8201168201806040525081019061116c9190611f51565b5050505050506001600160a01b031690506002600160601b8261118f9190611fe8565b61119991906120de565b6111a89064e8d4a51000611e33565b94505050505090565b5f9250505090565b5f6001600160e01b03198216637965db0b60e01b148061064a57506301ffc9a760e01b6001600160e01b031983161461064a565b5f807ff0c57e16840df040f15088dc2f81fe391c3923bec73e23a9662efc9c229c6a0061064a565b61121d61166d565b565b5f5f51602061214e5f395f51905f526112388484610e93565b6112b7575f848152602082815260408083206001600160a01b03871684529091529020805460ff1916600117905561126d3390565b6001600160a01b0316836001600160a01b0316857f2f8788117e7eff1d82e926ec794901d17c78024a50270940304540a733656f0d60405160405180910390a4600191505061064a565b5f91505061064a565b6109a48133611692565b5f5f51602061214e5f395f51905f526112e38484610e93565b156112b7575f848152602082815260408083206001600160a01b0387168085529252808320805460ff1916905551339287917ff6391f5c32d9c69d2a47ea670b442974b53935d1edc7fd64eb21e047a839171b9190a4600191505061064a565b61134b6116cb565b5f51602061216e5f395f51905f52805460ff191681557f5db9ee0a495bf2e6ff9c91a7834c1ba4fdd244a5e8aa4e537bd38aeae4b073aa335b6040516001600160a01b03909116815260200160405180910390a150565b306001600160a01b037f000000000000000000000000000000000000000000000000000000000000000016148061142857507f00000000000000000000000000000000000000000000000000000000000000006001600160a01b031661141c5f51602061212e5f395f51905f52546001600160a01b031690565b6001600160a01b031614155b1561121d5760405163703e46dd60e11b815260040160405180910390fd5b7f189ab7a9244df0848122154315af71fe140f3db0fe014031783b0946b8c9d2e36109d2816112c0565b816001600160a01b03166352d1902d6040518163ffffffff1660e01b8152600401602060405180830381865afa9250505080156114ca575060408051601f3d908101601f191682019092526114c7918101906120ec565b60015b6114f257604051634c9c8ce360e01b81526001600160a01b0383166004820152602401610732565b5f51602061212e5f395f51905f52811461152257604051632a87526960e21b815260048101829052602401610732565b61096d83836116fa565b306001600160a01b037f0000000000000000000000000000000000000000000000000000000000000000161461121d5760405163703e46dd60e11b815260040160405180910390fd5b5f5f61271060045f01548661158a9190611e33565b6115949190611fe8565b90506115a08185611e0d565b8511806115b55750836115b38287611e0d565b105b156115c3575f9150506115f6565b6115cd8184611e0d565b8511806115e25750826115e08287611e0d565b105b156115f0575f9150506115f6565b60019150505b9392505050565b5f5f5f5f61160b868661174f565b92509250925061161b8282611798565b5090949350505050565b61162d611850565b5f51602061216e5f395f51905f52805460ff191660011781557f62e78cea01bee320cd4e420270b5ea74000d11b0c9f74754ebdbfc544b05a25833611384565b611675611880565b61121d57604051631afcd79f60e31b815260040160405180910390fd5b61169c8282610e93565b6109d25760405163e2517d3f60e01b81526001600160a01b038216600482015260248101839052604401610732565b5f51602061216e5f395f51905f525460ff1661121d57604051638dfc202b60e01b815260040160405180910390fd5b61170382611899565b6040516001600160a01b038316907fbc7cd75a20ee27fd9adebab32041f755214dbc6bffa90cc0225b39da2e5c2d3b905f90a28051156117475761096d82826118fc565b6109d261196e565b5f5f5f8351604103611786576020840151604085015160608601515f1a6117788882858561198d565b955095509550505050611791565b505081515f91506002905b9250925092565b5f8260038111156117ab576117ab612103565b036117b4575050565b60018260038111156117c8576117c8612103565b036117e65760405163f645eedf60e01b815260040160405180910390fd5b60028260038111156117fa576117fa612103565b0361181b5760405163fce698f760e01b815260048101829052602401610732565b600382600381111561182f5761182f612103565b036109d2576040516335e2f38360e21b815260048101829052602401610732565b5f51602061216e5f395f51905f525460ff161561121d5760405163d93c066560e01b815260040160405180910390fd5b5f6118896111ed565b54600160401b900460ff16919050565b806001600160a01b03163b5f036118ce57604051634c9c8ce360e01b81526001600160a01b0382166004820152602401610732565b5f51602061212e5f395f51905f5280546001600160a01b0319166001600160a01b0392909216919091179055565b60605f5f846001600160a01b0316846040516119189190612117565b5f60405180830381855af49150503d805f8114611950576040519150601f19603f3d011682016040523d82523d5f602084013e611955565b606091505b5091509150611965858383611a55565b95945050505050565b341561121d5760405163b398979f60e01b815260040160405180910390fd5b5f80807f7fffffffffffffffffffffffffffffff5d576e7357a4501ddfe92f46681b20a08411156119c657505f91506003905082611a4b565b604080515f808252602082018084528a905260ff891692820192909252606081018790526080810186905260019060a0016020604051602081039080840390855afa158015611a17573d5f5f3e3d5ffd5b5050604051601f1901519150506001600160a01b038116611a4257505f925060019150829050611a4b565b92505f91508190505b9450945094915050565b606082611a6a57611a6582611ab1565b6115f6565b8151158015611a8157506001600160a01b0384163b155b15611aaa57604051639996b31560e01b81526001600160a01b0385166004820152602401610732565b50806115f6565b805115611ac15780518082602001fd5b60405163d6bda27560e01b815260040160405180910390fd5b5f60208284031215611aea575f5ffd5b81356001600160e01b0319811681146115f6575f5ffd5b6001600160a01b03811681146109a4575f5ffd5b5f5f5f5f5f5f60c08789031215611b2a575f5ffd5b86359550602087013594506040870135611b4381611b01565b93506060870135611b5381611b01565b92506080870135611b6381611b01565b915060a0870135611b7381611b01565b809150509295509295509295565b5f60208284031215611b91575f5ffd5b5035919050565b5f5f60408385031215611ba9575f5ffd5b823591506020830135611bbb81611b01565b809150509250929050565b634e487b7160e01b5f52604160045260245ffd5b5f82601f830112611be9575f5ffd5b813567ffffffffffffffff811115611c0357611c03611bc6565b604051601f8201601f19908116603f0116810167ffffffffffffffff81118282101715611c3257611c32611bc6565b604052818152838201602001851015611c49575f5ffd5b816020850160208301375f918101602001919091529392505050565b5f5f60408385031215611c76575f5ffd5b8235611c8181611b01565b9150602083013567ffffffffffffffff811115611c9c575f5ffd5b611ca885828601611bda565b9150509250929050565b5f60208284031215611cc2575f5ffd5b813567ffffffffffffffff811115611cd8575f5ffd5b820160a081850312156115f6575f5ffd5b60ff811681146109a4575f5ffd5b5f5f5f5f5f60a08688031215611d0b575f5ffd5b853594506020860135611d1d81611ce9565b93506040860135925060608601359150608086013567ffffffffffffffff811115611d46575f5ffd5b611d5288828901611bda565b9150509295509295909350565b602081525f82518060208401528060208501604085015e5f604082850101526040601f19601f83011684010191505092915050565b5f60208284031215611da4575f5ffd5b81356115f681611ce9565b5f5f8335601e19843603018112611dc4575f5ffd5b83018035915067ffffffffffffffff821115611dde575f5ffd5b602001915036819003821315611df2575f5ffd5b9250929050565b634e487b7160e01b5f52601160045260245ffd5b8082018082111561064a5761064a611df9565b8181038181111561064a5761064a611df9565b808202811582820484141761064a5761064a611df9565b805169ffffffffffffffffffff81168114611e63575f5ffd5b919050565b5f5f5f5f5f60a08688031215611e7c575f5ffd5b611e8586611e4a565b60208701516040880151606089015192975090955093509150611eaa60808701611e4a565b90509295509295909350565b8082025f8212600160ff1b84141615611ed157611ed1611df9565b818105831482151761064a5761064a611df9565b634e487b7160e01b5f52601260045260245ffd5b5f82611f0757611f07611ee5565b600160ff1b82145f1984141615611f2057611f20611df9565b500590565b5f60208284031215611f35575f5ffd5b81516115f681611b01565b805161ffff81168114611e63575f5ffd5b5f5f5f5f5f5f5f60e0888a031215611f67575f5ffd5b8751611f7281611b01565b8097505060208801518060020b8114611f89575f5ffd5b9550611f9760408901611f40565b9450611fa560608901611f40565b9350611fb360808901611f40565b925060a0880151611fc381611ce9565b60c08901519092508015158114611fd8575f5ffd5b8091505092959891949750929550565b5f82611ff657611ff6611ee5565b500490565b6001815b60018411156120365780850481111561201a5761201a611df9565b600184161561202857908102905b60019390931c928002611fff565b935093915050565b5f8261204c5750600161064a565b8161205857505f61064a565b816001811461206e576002811461207857612094565b600191505061064a565b60ff84111561208957612089611df9565b50506001821b61064a565b5060208310610133831016604e8410600b84101617156120b7575081810a61064a565b6120c35f198484611ffb565b805f19048211156120d6576120d6611df9565b029392505050565b5f6115f660ff84168361203e565b5f602082840312156120fc575f5ffd5b5051919050565b634e487b7160e01b5f52602160045260245ffd5b5f82518060208501845e5f92019182525091905056fe360894a13ba1a3210667c828492db98dca3e2076cc3735a920a3ca505d382bbc02dd7bc7dec4dceedda775e58dd541e08a116c6c53815c0bd028192f7b626800cd5ed15c6e187e77e9aee88184c21f4f2182ab5827cb3b7e07fbedcd63f03300a2646970667358221220afc6e60aa84c76667d4599d59fd624aeef4b75e2293c0c26c6faa935883f08af64736f6c634300081d0033","linkReferences":{}},"methodIdentifiers":{"DEFAULT_ADMIN_ROLE()":"a217fddf","ETH_USD_ASSET_PAIR()":"c9f0bf03","PAUSER_ROLE()":"e63ab1e9","PRICE_PRECISION()":"95082d25","SIGNER_ROLE()":"a1ebf35d","UPGRADER_ROLE()":"f72c0d8b","UPGRADE_INTERFACE_VERSION()":"ad3cb1cc","attestationService((uint256,uint8,uint256,bytes32,bytes))":"65ab8c71","config()":"79502c55","getChainlinkDataFeedLatestAnswer()":"bea4dfb5","getRoleAdmin(bytes32)":"248a9ca3","getUniswapV3WethUsdcPrice()":"dd5bfe33","grantRole(bytes32,address)":"2f2ff15d","hasRole(bytes32,address)":"91d14854","initialize(uint256,uint256,address,address,address,address)":"10e51e14","lastAttestationTimestamp()":"bef99f52","lastPrices(bytes32)":"d67e343c","maxDeviationPercentage()":"f780d9bc","pause()":"8456cb59","paused()":"5c975abb","priceProvider()":"b888879e","proxiableUUID()":"52d1902d","renounceRole(bytes32,address)":"36568abe","revokeRole(bytes32,address)":"d547741f","setMaxDeviationPercentage(uint256)":"451a579d","supportsInterface(bytes4)":"01ffc9a7","uniswapRouter()":"735de9f7","unpause()":"3f4ba83a","upgradeToAndCall(address,bytes)":"4f1ef286","usdcAddress()":"02d45457","verifySignature(uint256,uint8,uint256,bytes32,bytes)":"6ccba2ac"},"storageLayout":{"storage":[{"astId":53534,"contract":"src/PriceOracle.sol:PriceOracle","label":"maxDeviationPercentage","offset":0,"slot":"0","type":"t_uint256"},{"astId":53541,"contract":"src/PriceOracle.sol:PriceOracle","label":"usdcAddress","offset":0,"slot":"1","type":"t_address"},{"astId":53543,"contract":"src/PriceOracle.sol:PriceOracle","label":"priceProvider","offset":0,"slot":"2","type":"t_address"},{"astId":53545,"contract":"src/PriceOracle.sol:PriceOracle","label":"lastAttestationTimestamp","offset":0,"slot":"3","type":"t_uint256"},{"astId":53548,"contract":"src/PriceOracle.sol:PriceOracle","label":"config","offset":0,"slot":"4","type":"t_struct(PriceConfig)53539_storage"},{"astId":53553,"contract":"src/PriceOracle.sol:PriceOracle","label":"lastPrices","offset":0,"slot":"6","type":"t_mapping(t_bytes32,t_struct(PriceResponse)59118_storage)"},{"astId":53556,"contract":"src/PriceOracle.sol:PriceOracle","label":"uniswapRouter","offset":0,"slot":"7","type":"t_contract(IUniswapV2Router02)51045"},{"astId":53559,"contract":"src/PriceOracle.sol:PriceOracle","label":"dataFeed","offset":0,"slot":"8","type":"t_contract(AggregatorV3Interface)45"}],"types":{"t_address":{"encoding":"inplace","label":"address","numberOfBytes":"20"},"t_bytes32":{"encoding":"inplace","label":"bytes32","numberOfBytes":"32"},"t_contract(AggregatorV3Interface)45":{"encoding":"inplace","label":"contract AggregatorV3Interface","numberOfBytes":"20"},"t_contract(IUniswapV2Router02)51045":{"encoding":"inplace","label":"contract IUniswapV2Router02","numberOfBytes":"20"},"t_mapping(t_bytes32,t_struct(PriceResponse)59118_storage)":{"encoding":"mapping","key":"t_bytes32","label":"mapping(bytes32 => struct IPriceOracle.PriceResponse)","numberOfBytes":"32","value":"t_struct(PriceResponse)59118_storage"},"t_struct(PriceConfig)53539_storage":{"encoding":"inplace","label":"struct PriceOracle.PriceConfig","numberOfBytes":"64","members":[{"astId":53536,"contract":"src/PriceOracle.sol:PriceOracle","label":"maxPriceDeviation","offset":0,"slot":"0","type":"t_uint256"},{"astId":53538,"contract":"src/PriceOracle.sol:PriceOracle","label":"priceStalenessPeriod","offset":0,"slot":"1","type":"t_uint256"}]},"t_struct(PriceResponse)59118_storage":{"encoding":"inplace","label":"struct IPriceOracle.PriceResponse","numberOfBytes":"96","members":[{"astId":59113,"contract":"src/PriceOracle.sol:PriceOracle","label":"price","offset":0,"slot":"0","type":"t_uint256"},{"astId":59115,"contract":"src/PriceOracle.sol:PriceOracle","label":"decimals","offset":0,"slot":"1","type":"t_uint8"},{"astId":59117,"contract":"src/PriceOracle.sol:PriceOracle","label":"timestamp","offset":0,"slot":"2","type":"t_uint256"}]},"t_uint256":{"encoding":"inplace","label":"uint256","numberOfBytes":"32"},"t_uint8":{"encoding":"inplace","label":"uint8","numberOfBytes":"1"}}},"id":76}