{"abi":[{"type":"constructor","inputs":[],"stateMutability":"nonpayable"},{"type":"function","name":"DEFAULT_ADMIN_ROLE","inputs":[],"outputs":[{"name":"","type":"bytes32","internalType":"bytes32"}],"stateMutability":"view"},{"type":"function","name":"ETH_USD_ASSET_PAIR","inputs":[],"outputs":[{"name":"","type":"bytes32","internalType":"bytes32"}],"stateMutability":"view"},{"type":"function","name":"MAX_DEVIATION_BPS","inputs":[],"outputs":[{"name":"","type":"uint256","internalType":"uint256"}],"stateMutability":"view"},{"type":"function","name":"MAX_STALENESS_PERIOD_SECONDS","inputs":[],"outputs":[{"name":"","type":"uint256","internalType":"uint256"}],"stateMutability":"view"},{"type":"function","name":"PAUSER_ROLE","inputs":[],"outputs":[{"name":"","type":"bytes32","internalType":"bytes32"}],"stateMutability":"view"},{"type":"function","name":"PRICE_PRECISION","inputs":[],"outputs":[{"name":"","type":"uint256","internalType":"uint256"}],"stateMutability":"view"},{"type":"function","name":"SIGNER_ROLE","inputs":[],"outputs":[{"name":"","type":"bytes32","internalType":"bytes32"}],"stateMutability":"view"},{"type":"function","name":"UPGRADER_ROLE","inputs":[],"outputs":[{"name":"","type":"bytes32","internalType":"bytes32"}],"stateMutability":"view"},{"type":"function","name":"UPGRADE_INTERFACE_VERSION","inputs":[],"outputs":[{"name":"","type":"string","internalType":"string"}],"stateMutability":"view"},{"type":"function","name":"attestationService","inputs":[{"name":"priceQuery","type":"tuple","internalType":"struct IPriceOracle.PriceAttestationQuery","components":[{"name":"price","type":"uint256","internalType":"uint256"},{"name":"decimals","type":"uint8","internalType":"uint8"},{"name":"dataTimestamp","type":"uint256","internalType":"uint256"},{"name":"assetPair","type":"bytes32","internalType":"bytes32"},{"name":"signature","type":"bytes","internalType":"bytes"}]}],"outputs":[{"name":"","type":"tuple","internalType":"struct IPriceOracle.PriceResponse","components":[{"name":"price","type":"uint256","internalType":"uint256"},{"name":"decimals","type":"uint8","internalType":"uint8"},{"name":"timestamp","type":"uint256","internalType":"uint256"}]}],"stateMutability":"payable"},{"type":"function","name":"config","inputs":[],"outputs":[{"name":"maxPriceDeviation","type":"uint256","internalType":"uint256"},{"name":"priceStalenessPeriod","type":"uint256","internalType":"uint256"}],"stateMutability":"view"},{"type":"function","name":"getChainlinkDataFeedLatestAnswer","inputs":[],"outputs":[{"name":"","type":"int256","internalType":"int256"}],"stateMutability":"view"},{"type":"function","name":"getRoleAdmin","inputs":[{"name":"role","type":"bytes32","internalType":"bytes32"}],"outputs":[{"name":"","type":"bytes32","internalType":"bytes32"}],"stateMutability":"view"},{"type":"function","name":"getUniswapV3WethUsdcPrice","inputs":[],"outputs":[{"name":"","type":"uint256","internalType":"uint256"}],"stateMutability":"view"},{"type":"function","name":"grantRole","inputs":[{"name":"role","type":"bytes32","internalType":"bytes32"},{"name":"account","type":"address","internalType":"address"}],"outputs":[],"stateMutability":"nonpayable"},{"type":"function","name":"hasRole","inputs":[{"name":"role","type":"bytes32","internalType":"bytes32"},{"name":"account","type":"address","internalType":"address"}],"outputs":[{"name":"","type":"bool","internalType":"bool"}],"stateMutability":"view"},{"type":"function","name":"initialize","inputs":[{"name":"_maxPriceDeviation","type":"uint256","internalType":"uint256"},{"name":"_priceStalenessPeriod","type":"uint256","internalType":"uint256"},{"name":"_usdcAddress","type":"address","internalType":"address"},{"name":"_uniswapRouter","type":"address","internalType":"address"},{"name":"_chainlinkAggregator","type":"address","internalType":"address"},{"name":"_uniswapV3Factory","type":"address","internalType":"address"},{"name":"_admin","type":"address","internalType":"address"}],"outputs":[],"stateMutability":"nonpayable"},{"type":"function","name":"lastAttestationTimestamp","inputs":[],"outputs":[{"name":"","type":"uint256","internalType":"uint256"}],"stateMutability":"view"},{"type":"function","name":"lastPrices","inputs":[{"name":"","type":"bytes32","internalType":"bytes32"}],"outputs":[{"name":"price","type":"uint256","internalType":"uint256"},{"name":"decimals","type":"uint8","internalType":"uint8"},{"name":"timestamp","type":"uint256","internalType":"uint256"}],"stateMutability":"view"},{"type":"function","name":"pause","inputs":[],"outputs":[],"stateMutability":"nonpayable"},{"type":"function","name":"paused","inputs":[],"outputs":[{"name":"","type":"bool","internalType":"bool"}],"stateMutability":"view"},{"type":"function","name":"priceProvider","inputs":[],"outputs":[{"name":"","type":"address","internalType":"address"}],"stateMutability":"view"},{"type":"function","name":"proxiableUUID","inputs":[],"outputs":[{"name":"","type":"bytes32","internalType":"bytes32"}],"stateMutability":"view"},{"type":"function","name":"renounceRole","inputs":[{"name":"role","type":"bytes32","internalType":"bytes32"},{"name":"callerConfirmation","type":"address","internalType":"address"}],"outputs":[],"stateMutability":"nonpayable"},{"type":"function","name":"revokeRole","inputs":[{"name":"role","type":"bytes32","internalType":"bytes32"},{"name":"account","type":"address","internalType":"address"}],"outputs":[],"stateMutability":"nonpayable"},{"type":"function","name":"setMaxDeviationPercentage","inputs":[{"name":"_maxDeviationPercentage","type":"uint256","internalType":"uint256"}],"outputs":[],"stateMutability":"nonpayable"},{"type":"function","name":"setPriceStalenessPeriod","inputs":[{"name":"_priceStalenessPeriod","type":"uint256","internalType":"uint256"}],"outputs":[],"stateMutability":"nonpayable"},{"type":"function","name":"supportsInterface","inputs":[{"name":"interfaceId","type":"bytes4","internalType":"bytes4"}],"outputs":[{"name":"","type":"bool","internalType":"bool"}],"stateMutability":"view"},{"type":"function","name":"uniswapRouter","inputs":[],"outputs":[{"name":"","type":"address","internalType":"contract IUniswapV2Router02"}],"stateMutability":"view"},{"type":"function","name":"uniswapV3Factory","inputs":[],"outputs":[{"name":"","type":"address","internalType":"address"}],"stateMutability":"view"},{"type":"function","name":"unpause","inputs":[],"outputs":[],"stateMutability":"nonpayable"},{"type":"function","name":"upgradeToAndCall","inputs":[{"name":"newImplementation","type":"address","internalType":"address"},{"name":"data","type":"bytes","internalType":"bytes"}],"outputs":[],"stateMutability":"payable"},{"type":"function","name":"usdcAddress","inputs":[],"outputs":[{"name":"","type":"address","internalType":"address"}],"stateMutability":"view"},{"type":"function","name":"verifySignature","inputs":[{"name":"price","type":"uint256","internalType":"uint256"},{"name":"decimals","type":"uint8","internalType":"uint8"},{"name":"timestamp","type":"uint256","internalType":"uint256"},{"name":"assetPair","type":"bytes32","internalType":"bytes32"},{"name":"signature","type":"bytes","internalType":"bytes"}],"outputs":[{"name":"","type":"address","internalType":"address"}],"stateMutability":"pure"},{"type":"event","name":"Initialized","inputs":[{"name":"version","type":"uint64","indexed":false,"internalType":"uint64"}],"anonymous":false},{"type":"event","name":"Paused","inputs":[{"name":"account","type":"address","indexed":false,"internalType":"address"}],"anonymous":false},{"type":"event","name":"RoleAdminChanged","inputs":[{"name":"role","type":"bytes32","indexed":true,"internalType":"bytes32"},{"name":"previousAdminRole","type":"bytes32","indexed":true,"internalType":"bytes32"},{"name":"newAdminRole","type":"bytes32","indexed":true,"internalType":"bytes32"}],"anonymous":false},{"type":"event","name":"RoleGranted","inputs":[{"name":"role","type":"bytes32","indexed":true,"internalType":"bytes32"},{"name":"account","type":"address","indexed":true,"internalType":"address"},{"name":"sender","type":"address","indexed":true,"internalType":"address"}],"anonymous":false},{"type":"event","name":"RoleRevoked","inputs":[{"name":"role","type":"bytes32","indexed":true,"internalType":"bytes32"},{"name":"account","type":"address","indexed":true,"internalType":"address"},{"name":"sender","type":"address","indexed":true,"internalType":"address"}],"anonymous":false},{"type":"event","name":"Unpaused","inputs":[{"name":"account","type":"address","indexed":false,"internalType":"address"}],"anonymous":false},{"type":"event","name":"Upgraded","inputs":[{"name":"implementation","type":"address","indexed":true,"internalType":"address"}],"anonymous":false},{"type":"error","name":"AccessControlBadConfirmation","inputs":[]},{"type":"error","name":"AccessControlUnauthorizedAccount","inputs":[{"name":"account","type":"address","internalType":"address"},{"name":"neededRole","type":"bytes32","internalType":"bytes32"}]},{"type":"error","name":"AddressEmptyCode","inputs":[{"name":"target","type":"address","internalType":"address"}]},{"type":"error","name":"ECDSAInvalidSignature","inputs":[]},{"type":"error","name":"ECDSAInvalidSignatureLength","inputs":[{"name":"length","type":"uint256","internalType":"uint256"}]},{"type":"error","name":"ECDSAInvalidSignatureS","inputs":[{"name":"s","type":"bytes32","internalType":"bytes32"}]},{"type":"error","name":"ERC1967InvalidImplementation","inputs":[{"name":"implementation","type":"address","internalType":"address"}]},{"type":"error","name":"ERC1967NonPayable","inputs":[]},{"type":"error","name":"EnforcedPause","inputs":[]},{"type":"error","name":"ExpectedPause","inputs":[]},{"type":"error","name":"FailedCall","inputs":[]},{"type":"error","name":"InvalidAssetPair","inputs":[{"name":"expected","type":"bytes32","internalType":"bytes32"},{"name":"actual","type":"bytes32","internalType":"bytes32"}]},{"type":"error","name":"InvalidDecimals","inputs":[{"name":"expected","type":"uint8","internalType":"uint8"},{"name":"actual","type":"uint8","internalType":"uint8"}]},{"type":"error","name":"InvalidInitialization","inputs":[]},{"type":"error","name":"InvalidSignature","inputs":[]},{"type":"error","name":"MaxDeviationTooHigh","inputs":[{"name":"provided","type":"uint256","internalType":"uint256"},{"name":"maxAllowed","type":"uint256","internalType":"uint256"}]},{"type":"error","name":"NotInitializing","inputs":[]},{"type":"error","name":"OraclePaused","inputs":[]},{"type":"error","name":"PriceDataTooOld","inputs":[{"name":"timestamp","type":"uint256","internalType":"uint256"},{"name":"currentTime","type":"uint256","internalType":"uint256"}]},{"type":"error","name":"PriceDeviationTooHigh","inputs":[{"name":"morpherPrice","type":"uint256","internalType":"uint256"},{"name":"chainlinkPrice","type":"uint256","internalType":"uint256"},{"name":"uniswapPrice","type":"uint256","internalType":"uint256"}]},{"type":"error","name":"PriceSourceUnavailable","inputs":[{"name":"source","type":"string","internalType":"string"}]},{"type":"error","name":"StaleAttestation","inputs":[{"name":"lastTimestamp","type":"uint256","internalType":"uint256"},{"name":"providedTimestamp","type":"uint256","internalType":"uint256"}]},{"type":"error","name":"StalenessPeriodTooHigh","inputs":[{"name":"provided","type":"uint256","internalType":"uint256"},{"name":"maxAllowed","type":"uint256","internalType":"uint256"}]},{"type":"error","name":"UUPSUnauthorizedCallContext","inputs":[]},{"type":"error","name":"UUPSUnsupportedProxiableUUID","inputs":[{"name":"slot","type":"bytes32","internalType":"bytes32"}]},{"type":"error","name":"ZeroAddressProvided","inputs":[{"name":"field","type":"string","internalType":"string"}]}],"bytecode":{"object":"0x60a060405230608052348015610013575f5ffd5b5061001c610021565b6100d3565b7ff0c57e16840df040f15088dc2f81fe391c3923bec73e23a9662efc9c229c6a00805468010000000000000000900460ff16156100715760405163f92ee8a960e01b815260040160405180910390fd5b80546001600160401b03908116146100d05780546001600160401b0319166001600160401b0390811782556040519081527fc7f505b2f371ae2175ee4913f4499e1f2633a7b5936321eed1cdaeb6115181d29060200160405180910390a15b50565b60805161233d6100f95f395f81816115290152818161155201526116b3015261233d5ff3fe6080604052600436106101f1575f3560e01c8063735de9f711610108578063b888879e1161009d578063d547741f1161006d578063d547741f146105c0578063d67e343c146105df578063dd5bfe3314610639578063e63ab1e91461064d578063f72c0d8b14610680575f5ffd5b8063b888879e14610545578063bea4dfb514610564578063bef99f5214610578578063c9f0bf031461058d575f5ffd5b806395082d25116100d857806395082d25146104a7578063a1ebf35d146104c2578063a217fddf146104f5578063ad3cb1cc14610508575f5ffd5b8063735de9f71461042657806379502c55146104455780638456cb591461047457806391d1485414610488575f5ffd5b806336568abe1161018957806352d1902d1161015957806352d1902d146103795780635b5491821461038d5780635c975abb146103ac57806365ab8c71146103cf5780636ccba2ac14610407575f5ffd5b806336568abe146103145780633f4ba83a14610333578063451a579d146103475780634f1ef28614610366575f5ffd5b8063238c92da116101c4578063238c92da1461029f578063248a9ca3146102c157806325c68403146102e05780632f2ff15d146102f5575f5ffd5b806301ffc9a7146101f557806302d45457146102295780630dd388d01461025f5780631268a28f14610280575b5f5ffd5b348015610200575f5ffd5b5061021461020f366004611c56565b6106b3565b60405190151581526020015b60405180910390f35b348015610234575f5ffd5b505f54610247906001600160a01b031681565b6040516001600160a01b039091168152602001610220565b34801561026a575f5ffd5b5061027e610279366004611c7d565b6106c3565b005b34801561028b575f5ffd5b5061027e61029a366004611ca8565b610704565b3480156102aa575f5ffd5b506102b3607881565b604051908152602001610220565b3480156102cc575f5ffd5b506102b36102db366004611c7d565b610a56565b3480156102eb575f5ffd5b506102b36101f481565b348015610300575f5ffd5b5061027e61030f366004611d27565b610a76565b34801561031f575f5ffd5b5061027e61032e366004611d27565b610a98565b34801561033e575f5ffd5b5061027e610ad0565b348015610352575f5ffd5b5061027e610361366004611c7d565b610b05565b61027e610374366004611df4565b610b43565b348015610384575f5ffd5b506102b3610b62565b348015610398575f5ffd5b50600854610247906001600160a01b031681565b3480156103b7575f5ffd5b505f5160206122e85f395f51905f525460ff16610214565b6103e26103dd366004611e41565b610b7d565b604080518251815260208084015160ff16908201529181015190820152606001610220565b348015610412575f5ffd5b50610247610421366004611e86565b610eb9565b348015610431575f5ffd5b50600654610247906001600160a01b031681565b348015610450575f5ffd5b5060035460045461045f919082565b60408051928352602083019190915201610220565b34801561047f575f5ffd5b5061027e610fc6565b348015610493575f5ffd5b506102146104a2366004611d27565b610ff8565b3480156104b2575f5ffd5b506102b3670de0b6b3a764000081565b3480156104cd575f5ffd5b506102b37fe2f4eaae4a9751e85a3e4a7b9587827a877f29914755229b07a7b2da98285f7081565b348015610500575f5ffd5b506102b35f81565b348015610513575f5ffd5b50610538604051806040016040528060058152602001640352e302e360dc1b81525081565b6040516102209190611eee565b348015610550575f5ffd5b50600154610247906001600160a01b031681565b34801561056f575f5ffd5b506102b361102e565b348015610583575f5ffd5b506102b360025481565b348015610598575f5ffd5b506102b37f267fb830456e0b64582e3058e563e93c21b337432aecaf19f4b3dee7d6faa07881565b3480156105cb575f5ffd5b5061027e6105da366004611d27565b61113a565b3480156105ea575f5ffd5b5061061c6105f9366004611c7d565b60056020525f9081526040902080546001820154600290920154909160ff169083565b6040805193845260ff909216602084015290820152606001610220565b348015610644575f5ffd5b506102b3611156565b348015610658575f5ffd5b506102b37f65d7a28e3265b37a6474929f336521b332c1681b933f6cb9f3376673440d862a81565b34801561068b575f5ffd5b506102b37f189ab7a9244df0848122154315af71fe140f3db0fe014031783b0946b8c9d2e381565b5f6106bd82611335565b92915050565b5f6106cd81611369565b60788211156106fe57604051632b4055b360e21b815260048101839052607860248201526044015b60405180910390fd5b50600455565b5f61070d611373565b805490915060ff600160401b820416159067ffffffffffffffff165f811580156107345750825b90505f8267ffffffffffffffff1660011480156107505750303b155b90508115801561075e575080155b1561077c5760405163f92ee8a960e01b815260040160405180910390fd5b845467ffffffffffffffff1916600117855583156107a657845460ff60401b1916600160401b1785555b6001600160a01b038a166107e6576040516356af9c8160e01b81526004016106f5906020808252600490820152635553444360e01b604082015260600190565b6001600160a01b03891661082e576040516356af9c8160e01b815260206004820152600e60248201526d2ab734b9bbb0b8102937baba32b960911b60448201526064016106f5565b6001600160a01b03881661087c576040516356af9c8160e01b815260206004820152601460248201527321b430b4b73634b7359020b3b3b932b3b0ba37b960611b60448201526064016106f5565b6001600160a01b0387166108c8576040516356af9c8160e01b8152602060048201526012602482015271556e697377617020563320466163746f727960701b60448201526064016106f5565b6001600160a01b038616610907576040516356af9c8160e01b815260206004820152600560248201526420b236b4b760d91b60448201526064016106f5565b6101f48c1115610935576040516358b471f360e01b8152600481018d90526101f460248201526044016106f5565b60788b111561096157604051632b4055b360e21b8152600481018c9052607860248201526044016106f5565b61096961139b565b61097161139b565b61097961139b565b6109835f876113a5565b506109ae7f189ab7a9244df0848122154315af71fe140f3db0fe014031783b0946b8c9d2e3876113a5565b5060038c905560048b90555f80546001600160a01b03808d166001600160a01b031992831617909255600680548c8416908316179055600780548b841690831617905560088054928a16929091169190911790558315610a4857845460ff60401b19168555604051600181527fc7f505b2f371ae2175ee4913f4499e1f2633a7b5936321eed1cdaeb6115181d29060200160405180910390a15b505050505050505050505050565b5f9081525f5160206122c85f395f51905f52602052604090206001015490565b610a7f82610a56565b610a8881611369565b610a9283836113a5565b50505050565b6001600160a01b0381163314610ac15760405163334bd91960e11b815260040160405180910390fd5b610acb8282611446565b505050565b7f65d7a28e3265b37a6474929f336521b332c1681b933f6cb9f3376673440d862a610afa81611369565b610b026114bf565b50565b5f610b0f81611369565b6101f4821115610b3d576040516358b471f360e01b8152600481018390526101f460248201526044016106f5565b50600355565b610b4b61151e565b610b54826115c2565b610b5e82826115ec565b5050565b5f610b6b6116a8565b505f5160206122a85f395f51905f5290565b610ba160405180606001604052805f81526020015f60ff1681526020015f81525090565b610ba96116f1565b7f267fb830456e0b64582e3058e563e93c21b337432aecaf19f4b3dee7d6faa078826060013514610c1957604051634750117760e01b81527f267fb830456e0b64582e3058e563e93c21b337432aecaf19f4b3dee7d6faa0786004820152606083013560248201526044016106f5565b5f610c7f8335610c2f6040860160208701611f23565b60408601356060870135610c466080890189611f3e565b8080601f0160208091040260200160405190810160405280939291908181526020018383808284375f92019190915250610eb992505050565b9050610cab7fe2f4eaae4a9751e85a3e4a7b9587827a877f29914755229b07a7b2da98285f7082610ff8565b610cc857604051638baa579f60e01b815260040160405180910390fd5b600254610cdb6040850135613a98611f9c565b1015610d0a5760025460408051639e9b3e7560e01b8152600481019290925284013560248201526044016106f5565b610d1a6040840160208501611f23565b60ff16601214610d5c576012610d366040850160208601611f23565b60405163047e54d360e31b815260ff9283166004820152911660248201526044016106f5565b600454610d699042611faf565b610d75906103e8611fc2565b836040013511610da4576040805163195c727d60e01b81529084013560048201524260248201526044016106f5565b46600103610e78575f610db561102e565b9050805f03610df3576040516314e7f62b60e31b8152602060048201526009602482015268436861696e6c696e6b60b81b60448201526064016106f5565b5f610dfc611156565b9050805f03610e3b576040516314e7f62b60e31b815260206004820152600a602482015269556e697377617020563360b01b60448201526064016106f5565b610e4785358383611721565b610e755760405163e9b5646f60e01b81528535600482015260248101839052604481018290526064016106f5565b50505b6040808401803560025581516060810190925284358252602080830191610ea0918701611f23565b60ff16815260200184604001358152509150505b919050565b5f5f86868686604051602001610ef5949392919093845260f89290921b6001600160f81b03191660208401526021830152604182015260610190565b6040516020818303038152906040528051906020012090505f81604051602001610f4b91907f19457468657265756d205369676e6564204d6573736167653a0a3332000000008152601c810191909152603c0190565b6040516020818303038152906040528051906020012090505f610f6e82866117a9565b90506001600160a01b038116610fba5760405162461bcd60e51b8152602060048201526011602482015270496e76616c6964207369676e617475726560781b60448201526064016106f5565b98975050505050505050565b7f65d7a28e3265b37a6474929f336521b332c1681b933f6cb9f3376673440d862a610ff081611369565b610b026117d1565b5f9182525f5160206122c85f395f51905f52602090815260408084206001600160a01b0393909316845291905290205460ff1690565b5f5f5f60075f9054906101000a90046001600160a01b03166001600160a01b031663feaf968c6040518163ffffffff1660e01b815260040160a060405180830381865afa158015611081573d5f5f3e3d5ffd5b505050506040513d601f19601f820116820180604052508101906110a59190611ff2565b50935050925050610e1081426110bb9190611faf565b10611102576040516314e7f62b60e31b8152602060048201526016602482015275436861696e6c696e6b204f7261636c65205374616c6560501b60448201526064016106f5565b5f821215611112575f9250505090565b6305f5e10061112983670de0b6b3a7640000612040565b6111339190612083565b9250505090565b61114382610a56565b61114c81611369565b610a928383611446565b5f5f731f98431c8ad98523631ae4a59f267346ea31f98490505f816001600160a01b0316631698ee8260065f9054906101000a90046001600160a01b03166001600160a01b031663ad5c46486040518163ffffffff1660e01b8152600401602060405180830381865afa1580156111cf573d5f5f3e3d5ffd5b505050506040513d601f19601f820116820180604052508101906111f391906120af565b5f5460405160e084901b6001600160e01b03191681526001600160a01b03928316600482015291166024820152610bb86044820152606401602060405180830381865afa158015611246573d5f5f3e3d5ffd5b505050506040513d601f19601f8201168201806040525081019061126a91906120af565b90506001600160a01b0381161561132d575f8190505f816001600160a01b0316633850c7bd6040518163ffffffff1660e01b815260040160e060405180830381865afa1580156112bc573d5f5f3e3d5ffd5b505050506040513d601f19601f820116820180604052508101906112e091906120db565b5050505050506001600160a01b031690505f6002826112ff9190612245565b611312906503782dace9d960d21b612253565b90506113238164e8d4a51000611fc2565b9550505050505090565b5f9250505090565b5f6001600160e01b03198216637965db0b60e01b14806106bd57506301ffc9a760e01b6001600160e01b03198316146106bd565b610b028133611819565b5f807ff0c57e16840df040f15088dc2f81fe391c3923bec73e23a9662efc9c229c6a006106bd565b6113a3611852565b565b5f5f5160206122c85f395f51905f526113be8484610ff8565b61143d575f848152602082815260408083206001600160a01b03871684529091529020805460ff191660011790556113f33390565b6001600160a01b0316836001600160a01b0316857f2f8788117e7eff1d82e926ec794901d17c78024a50270940304540a733656f0d60405160405180910390a460019150506106bd565b5f9150506106bd565b5f5f5160206122c85f395f51905f5261145f8484610ff8565b1561143d575f848152602082815260408083206001600160a01b0387168085529252808320805460ff1916905551339287917ff6391f5c32d9c69d2a47ea670b442974b53935d1edc7fd64eb21e047a839171b9190a460019150506106bd565b6114c7611877565b5f5160206122e85f395f51905f52805460ff191681557f5db9ee0a495bf2e6ff9c91a7834c1ba4fdd244a5e8aa4e537bd38aeae4b073aa335b6040516001600160a01b03909116815260200160405180910390a150565b306001600160a01b037f00000000000000000000000000000000000000000000000000000000000000001614806115a457507f00000000000000000000000000000000000000000000000000000000000000006001600160a01b03166115985f5160206122a85f395f51905f52546001600160a01b031690565b6001600160a01b031614155b156113a35760405163703e46dd60e11b815260040160405180910390fd5b7f189ab7a9244df0848122154315af71fe140f3db0fe014031783b0946b8c9d2e3610b5e81611369565b816001600160a01b03166352d1902d6040518163ffffffff1660e01b8152600401602060405180830381865afa925050508015611646575060408051601f3d908101601f1916820190925261164391810190612266565b60015b61166e57604051634c9c8ce360e01b81526001600160a01b03831660048201526024016106f5565b5f5160206122a85f395f51905f52811461169e57604051632a87526960e21b8152600481018290526024016106f5565b610acb83836118a6565b306001600160a01b037f000000000000000000000000000000000000000000000000000000000000000016146113a35760405163703e46dd60e11b815260040160405180910390fd5b5f5160206122e85f395f51905f525460ff16156113a35760405163e28b705360e01b815260040160405180910390fd5b5f5f61271060035f0154866117369190611fc2565b6117409190612253565b905061174c8185611f9c565b85118061176157508361175f8287611f9c565b105b1561176f575f9150506117a2565b6117798184611f9c565b85118061178e57508261178c8287611f9c565b105b1561179c575f9150506117a2565b60019150505b9392505050565b5f5f5f5f6117b786866118fb565b9250925092506117c78282611944565b5090949350505050565b6117d96116f1565b5f5160206122e85f395f51905f52805460ff191660011781557f62e78cea01bee320cd4e420270b5ea74000d11b0c9f74754ebdbfc544b05a25833611500565b6118238282610ff8565b610b5e5760405163e2517d3f60e01b81526001600160a01b0382166004820152602481018390526044016106f5565b61185a6119fc565b6113a357604051631afcd79f60e31b815260040160405180910390fd5b5f5160206122e85f395f51905f525460ff166113a357604051638dfc202b60e01b815260040160405180910390fd5b6118af82611a15565b6040516001600160a01b038316907fbc7cd75a20ee27fd9adebab32041f755214dbc6bffa90cc0225b39da2e5c2d3b905f90a28051156118f357610acb8282611a78565b610b5e611aea565b5f5f5f8351604103611932576020840151604085015160608601515f1a61192488828585611b09565b95509550955050505061193d565b505081515f91506002905b9250925092565b5f8260038111156119575761195761227d565b03611960575050565b60018260038111156119745761197461227d565b036119925760405163f645eedf60e01b815260040160405180910390fd5b60028260038111156119a6576119a661227d565b036119c75760405163fce698f760e01b8152600481018290526024016106f5565b60038260038111156119db576119db61227d565b03610b5e576040516335e2f38360e21b8152600481018290526024016106f5565b5f611a05611373565b54600160401b900460ff16919050565b806001600160a01b03163b5f03611a4a57604051634c9c8ce360e01b81526001600160a01b03821660048201526024016106f5565b5f5160206122a85f395f51905f5280546001600160a01b0319166001600160a01b0392909216919091179055565b60605f5f846001600160a01b031684604051611a949190612291565b5f60405180830381855af49150503d805f8114611acc576040519150601f19603f3d011682016040523d82523d5f602084013e611ad1565b606091505b5091509150611ae1858383611bd1565b95945050505050565b34156113a35760405163b398979f60e01b815260040160405180910390fd5b5f80807f7fffffffffffffffffffffffffffffff5d576e7357a4501ddfe92f46681b20a0841115611b4257505f91506003905082611bc7565b604080515f808252602082018084528a905260ff891692820192909252606081018790526080810186905260019060a0016020604051602081039080840390855afa158015611b93573d5f5f3e3d5ffd5b5050604051601f1901519150506001600160a01b038116611bbe57505f925060019150829050611bc7565b92505f91508190505b9450945094915050565b606082611be657611be182611c2d565b6117a2565b8151158015611bfd57506001600160a01b0384163b155b15611c2657604051639996b31560e01b81526001600160a01b03851660048201526024016106f5565b50806117a2565b805115611c3d5780518082602001fd5b60405163d6bda27560e01b815260040160405180910390fd5b5f60208284031215611c66575f5ffd5b81356001600160e01b0319811681146117a2575f5ffd5b5f60208284031215611c8d575f5ffd5b5035919050565b6001600160a01b0381168114610b02575f5ffd5b5f5f5f5f5f5f5f60e0888a031215611cbe575f5ffd5b87359650602088013595506040880135611cd781611c94565b94506060880135611ce781611c94565b93506080880135611cf781611c94565b925060a0880135611d0781611c94565b915060c0880135611d1781611c94565b8091505092959891949750929550565b5f5f60408385031215611d38575f5ffd5b823591506020830135611d4a81611c94565b809150509250929050565b634e487b7160e01b5f52604160045260245ffd5b5f82601f830112611d78575f5ffd5b813567ffffffffffffffff811115611d9257611d92611d55565b604051601f8201601f19908116603f0116810167ffffffffffffffff81118282101715611dc157611dc1611d55565b604052818152838201602001851015611dd8575f5ffd5b816020850160208301375f918101602001919091529392505050565b5f5f60408385031215611e05575f5ffd5b8235611e1081611c94565b9150602083013567ffffffffffffffff811115611e2b575f5ffd5b611e3785828601611d69565b9150509250929050565b5f60208284031215611e51575f5ffd5b813567ffffffffffffffff811115611e67575f5ffd5b820160a081850312156117a2575f5ffd5b60ff81168114610b02575f5ffd5b5f5f5f5f5f60a08688031215611e9a575f5ffd5b853594506020860135611eac81611e78565b93506040860135925060608601359150608086013567ffffffffffffffff811115611ed5575f5ffd5b611ee188828901611d69565b9150509295509295909350565b602081525f82518060208401528060208501604085015e5f604082850101526040601f19601f83011684010191505092915050565b5f60208284031215611f33575f5ffd5b81356117a281611e78565b5f5f8335601e19843603018112611f53575f5ffd5b83018035915067ffffffffffffffff821115611f6d575f5ffd5b602001915036819003821315611f81575f5ffd5b9250929050565b634e487b7160e01b5f52601160045260245ffd5b808201808211156106bd576106bd611f88565b818103818111156106bd576106bd611f88565b80820281158282048414176106bd576106bd611f88565b805169ffffffffffffffffffff81168114610eb4575f5ffd5b5f5f5f5f5f60a08688031215612006575f5ffd5b61200f86611fd9565b6020870151604088015160608901519297509095509350915061203460808701611fd9565b90509295509295909350565b8082025f8212600160ff1b8414161561205b5761205b611f88565b81810583148215176106bd576106bd611f88565b634e487b7160e01b5f52601260045260245ffd5b5f826120915761209161206f565b600160ff1b82145f19841416156120aa576120aa611f88565b500590565b5f602082840312156120bf575f5ffd5b81516117a281611c94565b805161ffff81168114610eb4575f5ffd5b5f5f5f5f5f5f5f60e0888a0312156120f1575f5ffd5b87516120fc81611c94565b8097505060208801518060020b8114612113575f5ffd5b9550612121604089016120ca565b945061212f606089016120ca565b935061213d608089016120ca565b925060a088015161214d81611e78565b60c08901519092508015158114611d17575f5ffd5b6001815b600184111561219d5780850481111561218157612181611f88565b600184161561218f57908102905b60019390931c928002612166565b935093915050565b5f826121b3575060016106bd565b816121bf57505f6106bd565b81600181146121d557600281146121df576121fb565b60019150506106bd565b60ff8411156121f0576121f0611f88565b50506001821b6106bd565b5060208310610133831016604e8410600b841016171561221e575081810a6106bd565b61222a5f198484612162565b805f190482111561223d5761223d611f88565b029392505050565b5f6117a260ff8416836121a5565b5f826122615761226161206f565b500490565b5f60208284031215612276575f5ffd5b5051919050565b634e487b7160e01b5f52602160045260245ffd5b5f82518060208501845e5f92019182525091905056fe360894a13ba1a3210667c828492db98dca3e2076cc3735a920a3ca505d382bbc02dd7bc7dec4dceedda775e58dd541e08a116c6c53815c0bd028192f7b626800cd5ed15c6e187e77e9aee88184c21f4f2182ab5827cb3b7e07fbedcd63f03300a264697066735822122025fcac580bb95f2b51fd12103515c65d582d7d17297b2f85cbc69ea8207ac5ad64736f6c634300081d0033","linkReferences":{}},"methodIdentifiers":{"DEFAULT_ADMIN_ROLE()":"a217fddf","ETH_USD_ASSET_PAIR()":"c9f0bf03","MAX_DEVIATION_BPS()":"25c68403","MAX_STALENESS_PERIOD_SECONDS()":"238c92da","PAUSER_ROLE()":"e63ab1e9","PRICE_PRECISION()":"95082d25","SIGNER_ROLE()":"a1ebf35d","UPGRADER_ROLE()":"f72c0d8b","UPGRADE_INTERFACE_VERSION()":"ad3cb1cc","attestationService((uint256,uint8,uint256,bytes32,bytes))":"65ab8c71","config()":"79502c55","getChainlinkDataFeedLatestAnswer()":"bea4dfb5","getRoleAdmin(bytes32)":"248a9ca3","getUniswapV3WethUsdcPrice()":"dd5bfe33","grantRole(bytes32,address)":"2f2ff15d","hasRole(bytes32,address)":"91d14854","initialize(uint256,uint256,address,address,address,address,address)":"1268a28f","lastAttestationTimestamp()":"bef99f52","lastPrices(bytes32)":"d67e343c","pause()":"8456cb59","paused()":"5c975abb","priceProvider()":"b888879e","proxiableUUID()":"52d1902d","renounceRole(bytes32,address)":"36568abe","revokeRole(bytes32,address)":"d547741f","setMaxDeviationPercentage(uint256)":"451a579d","setPriceStalenessPeriod(uint256)":"0dd388d0","supportsInterface(bytes4)":"01ffc9a7","uniswapRouter()":"735de9f7","uniswapV3Factory()":"5b549182","unpause()":"3f4ba83a","upgradeToAndCall(address,bytes)":"4f1ef286","usdcAddress()":"02d45457","verifySignature(uint256,uint8,uint256,bytes32,bytes)":"6ccba2ac"},"storageLayout":{"storage":[{"astId":53682,"contract":"src/PriceOracle.sol:PriceOracle","label":"usdcAddress","offset":0,"slot":"0","type":"t_address"},{"astId":53684,"contract":"src/PriceOracle.sol:PriceOracle","label":"priceProvider","offset":0,"slot":"1","type":"t_address"},{"astId":53686,"contract":"src/PriceOracle.sol:PriceOracle","label":"lastAttestationTimestamp","offset":0,"slot":"2","type":"t_uint256"},{"astId":53689,"contract":"src/PriceOracle.sol:PriceOracle","label":"config","offset":0,"slot":"3","type":"t_struct(PriceConfig)53680_storage"},{"astId":53694,"contract":"src/PriceOracle.sol:PriceOracle","label":"lastPrices","offset":0,"slot":"5","type":"t_mapping(t_bytes32,t_struct(PriceResponse)59887_storage)"},{"astId":53697,"contract":"src/PriceOracle.sol:PriceOracle","label":"uniswapRouter","offset":0,"slot":"6","type":"t_contract(IUniswapV2Router02)51045"},{"astId":53700,"contract":"src/PriceOracle.sol:PriceOracle","label":"dataFeed","offset":0,"slot":"7","type":"t_contract(AggregatorV3Interface)45"},{"astId":53702,"contract":"src/PriceOracle.sol:PriceOracle","label":"uniswapV3Factory","offset":0,"slot":"8","type":"t_address"}],"types":{"t_address":{"encoding":"inplace","label":"address","numberOfBytes":"20"},"t_bytes32":{"encoding":"inplace","label":"bytes32","numberOfBytes":"32"},"t_contract(AggregatorV3Interface)45":{"encoding":"inplace","label":"contract AggregatorV3Interface","numberOfBytes":"20"},"t_contract(IUniswapV2Router02)51045":{"encoding":"inplace","label":"contract IUniswapV2Router02","numberOfBytes":"20"},"t_mapping(t_bytes32,t_struct(PriceResponse)59887_storage)":{"encoding":"mapping","key":"t_bytes32","label":"mapping(bytes32 => struct IPriceOracle.PriceResponse)","numberOfBytes":"32","value":"t_struct(PriceResponse)59887_storage"},"t_struct(PriceConfig)53680_storage":{"encoding":"inplace","label":"struct PriceOracle.PriceConfig","numberOfBytes":"64","members":[{"astId":53677,"contract":"src/PriceOracle.sol:PriceOracle","label":"maxPriceDeviation","offset":0,"slot":"0","type":"t_uint256"},{"astId":53679,"contract":"src/PriceOracle.sol:PriceOracle","label":"priceStalenessPeriod","offset":0,"slot":"1","type":"t_uint256"}]},"t_struct(PriceResponse)59887_storage":{"encoding":"inplace","label":"struct IPriceOracle.PriceResponse","numberOfBytes":"96","members":[{"astId":59882,"contract":"src/PriceOracle.sol:PriceOracle","label":"price","offset":0,"slot":"0","type":"t_uint256"},{"astId":59884,"contract":"src/PriceOracle.sol:PriceOracle","label":"decimals","offset":0,"slot":"1","type":"t_uint8"},{"astId":59886,"contract":"src/PriceOracle.sol:PriceOracle","label":"timestamp","offset":0,"slot":"2","type":"t_uint256"}]},"t_uint256":{"encoding":"inplace","label":"uint256","numberOfBytes":"32"},"t_uint8":{"encoding":"inplace","label":"uint8","numberOfBytes":"1"}}},"id":76}