{"abi":[{"type":"constructor","inputs":[],"stateMutability":"nonpayable"},{"type":"function","name":"DEFAULT_ADMIN_ROLE","inputs":[],"outputs":[{"name":"","type":"bytes32","internalType":"bytes32"}],"stateMutability":"view"},{"type":"function","name":"PAUSER_ROLE","inputs":[],"outputs":[{"name":"","type":"bytes32","internalType":"bytes32"}],"stateMutability":"view"},{"type":"function","name":"PRICE_PRECISION","inputs":[],"outputs":[{"name":"","type":"uint256","internalType":"uint256"}],"stateMutability":"view"},{"type":"function","name":"SIGNER_ROLE","inputs":[],"outputs":[{"name":"","type":"bytes32","internalType":"bytes32"}],"stateMutability":"view"},{"type":"function","name":"UPGRADER_ROLE","inputs":[],"outputs":[{"name":"","type":"bytes32","internalType":"bytes32"}],"stateMutability":"view"},{"type":"function","name":"UPGRADE_INTERFACE_VERSION","inputs":[],"outputs":[{"name":"","type":"string","internalType":"string"}],"stateMutability":"view"},{"type":"function","name":"attestationService","inputs":[{"name":"priceQuery","type":"tuple","internalType":"struct IPriceOracle.PriceAttestationQuery","components":[{"name":"price","type":"uint256","internalType":"uint256"},{"name":"decimals","type":"uint8","internalType":"uint8"},{"name":"dataTimestamp","type":"uint256","internalType":"uint256"},{"name":"assetPair","type":"bytes32","internalType":"bytes32"},{"name":"signature","type":"bytes","internalType":"bytes"}]}],"outputs":[{"name":"","type":"tuple","internalType":"struct IPriceOracle.PriceResponse","components":[{"name":"price","type":"uint256","internalType":"uint256"},{"name":"decimals","type":"uint8","internalType":"uint8"},{"name":"timestamp","type":"uint256","internalType":"uint256"}]}],"stateMutability":"payable"},{"type":"function","name":"config","inputs":[],"outputs":[{"name":"maxPriceDeviation","type":"uint256","internalType":"uint256"},{"name":"priceStalenessPeriod","type":"uint256","internalType":"uint256"}],"stateMutability":"view"},{"type":"function","name":"getChainlinkDataFeedLatestAnswer","inputs":[],"outputs":[{"name":"","type":"int256","internalType":"int256"}],"stateMutability":"view"},{"type":"function","name":"getRoleAdmin","inputs":[{"name":"role","type":"bytes32","internalType":"bytes32"}],"outputs":[{"name":"","type":"bytes32","internalType":"bytes32"}],"stateMutability":"view"},{"type":"function","name":"getUniswapV3WethUsdcPrice","inputs":[],"outputs":[{"name":"","type":"uint256","internalType":"uint256"}],"stateMutability":"view"},{"type":"function","name":"grantRole","inputs":[{"name":"role","type":"bytes32","internalType":"bytes32"},{"name":"account","type":"address","internalType":"address"}],"outputs":[],"stateMutability":"nonpayable"},{"type":"function","name":"hasRole","inputs":[{"name":"role","type":"bytes32","internalType":"bytes32"},{"name":"account","type":"address","internalType":"address"}],"outputs":[{"name":"","type":"bool","internalType":"bool"}],"stateMutability":"view"},{"type":"function","name":"initialize","inputs":[{"name":"_maxPriceDeviation","type":"uint256","internalType":"uint256"},{"name":"_priceStalenessPeriod","type":"uint256","internalType":"uint256"},{"name":"_usdcAddress","type":"address","internalType":"address"},{"name":"_uniswapRouter","type":"address","internalType":"address"},{"name":"_chainlinkAggregator","type":"address","internalType":"address"},{"name":"_admin","type":"address","internalType":"address"}],"outputs":[],"stateMutability":"nonpayable"},{"type":"function","name":"lastAttestationTimestamp","inputs":[],"outputs":[{"name":"","type":"uint256","internalType":"uint256"}],"stateMutability":"view"},{"type":"function","name":"lastPrices","inputs":[{"name":"","type":"bytes32","internalType":"bytes32"}],"outputs":[{"name":"price","type":"uint256","internalType":"uint256"},{"name":"decimals","type":"uint8","internalType":"uint8"},{"name":"timestamp","type":"uint256","internalType":"uint256"}],"stateMutability":"view"},{"type":"function","name":"maxDeviationPercentage","inputs":[],"outputs":[{"name":"","type":"uint256","internalType":"uint256"}],"stateMutability":"view"},{"type":"function","name":"pause","inputs":[],"outputs":[],"stateMutability":"nonpayable"},{"type":"function","name":"paused","inputs":[],"outputs":[{"name":"","type":"bool","internalType":"bool"}],"stateMutability":"view"},{"type":"function","name":"priceProvider","inputs":[],"outputs":[{"name":"","type":"address","internalType":"address"}],"stateMutability":"view"},{"type":"function","name":"proxiableUUID","inputs":[],"outputs":[{"name":"","type":"bytes32","internalType":"bytes32"}],"stateMutability":"view"},{"type":"function","name":"renounceRole","inputs":[{"name":"role","type":"bytes32","internalType":"bytes32"},{"name":"callerConfirmation","type":"address","internalType":"address"}],"outputs":[],"stateMutability":"nonpayable"},{"type":"function","name":"revokeRole","inputs":[{"name":"role","type":"bytes32","internalType":"bytes32"},{"name":"account","type":"address","internalType":"address"}],"outputs":[],"stateMutability":"nonpayable"},{"type":"function","name":"setMaxDeviationPercentage","inputs":[{"name":"_maxDeviationPercentage","type":"uint256","internalType":"uint256"}],"outputs":[],"stateMutability":"nonpayable"},{"type":"function","name":"supportsInterface","inputs":[{"name":"interfaceId","type":"bytes4","internalType":"bytes4"}],"outputs":[{"name":"","type":"bool","internalType":"bool"}],"stateMutability":"view"},{"type":"function","name":"uniswapRouter","inputs":[],"outputs":[{"name":"","type":"address","internalType":"contract IUniswapV2Router02"}],"stateMutability":"view"},{"type":"function","name":"unpause","inputs":[],"outputs":[],"stateMutability":"nonpayable"},{"type":"function","name":"upgradeToAndCall","inputs":[{"name":"newImplementation","type":"address","internalType":"address"},{"name":"data","type":"bytes","internalType":"bytes"}],"outputs":[],"stateMutability":"payable"},{"type":"function","name":"usdcAddress","inputs":[],"outputs":[{"name":"","type":"address","internalType":"address"}],"stateMutability":"view"},{"type":"function","name":"verifySignature","inputs":[{"name":"price","type":"uint256","internalType":"uint256"},{"name":"decimals","type":"uint8","internalType":"uint8"},{"name":"timestamp","type":"uint256","internalType":"uint256"},{"name":"assetPair","type":"bytes32","internalType":"bytes32"},{"name":"signature","type":"bytes","internalType":"bytes"}],"outputs":[{"name":"","type":"address","internalType":"address"}],"stateMutability":"pure"},{"type":"event","name":"Initialized","inputs":[{"name":"version","type":"uint64","indexed":false,"internalType":"uint64"}],"anonymous":false},{"type":"event","name":"Paused","inputs":[{"name":"account","type":"address","indexed":false,"internalType":"address"}],"anonymous":false},{"type":"event","name":"RoleAdminChanged","inputs":[{"name":"role","type":"bytes32","indexed":true,"internalType":"bytes32"},{"name":"previousAdminRole","type":"bytes32","indexed":true,"internalType":"bytes32"},{"name":"newAdminRole","type":"bytes32","indexed":true,"internalType":"bytes32"}],"anonymous":false},{"type":"event","name":"RoleGranted","inputs":[{"name":"role","type":"bytes32","indexed":true,"internalType":"bytes32"},{"name":"account","type":"address","indexed":true,"internalType":"address"},{"name":"sender","type":"address","indexed":true,"internalType":"address"}],"anonymous":false},{"type":"event","name":"RoleRevoked","inputs":[{"name":"role","type":"bytes32","indexed":true,"internalType":"bytes32"},{"name":"account","type":"address","indexed":true,"internalType":"address"},{"name":"sender","type":"address","indexed":true,"internalType":"address"}],"anonymous":false},{"type":"event","name":"Unpaused","inputs":[{"name":"account","type":"address","indexed":false,"internalType":"address"}],"anonymous":false},{"type":"event","name":"Upgraded","inputs":[{"name":"implementation","type":"address","indexed":true,"internalType":"address"}],"anonymous":false},{"type":"error","name":"AccessControlBadConfirmation","inputs":[]},{"type":"error","name":"AccessControlUnauthorizedAccount","inputs":[{"name":"account","type":"address","internalType":"address"},{"name":"neededRole","type":"bytes32","internalType":"bytes32"}]},{"type":"error","name":"AddressEmptyCode","inputs":[{"name":"target","type":"address","internalType":"address"}]},{"type":"error","name":"ECDSAInvalidSignature","inputs":[]},{"type":"error","name":"ECDSAInvalidSignatureLength","inputs":[{"name":"length","type":"uint256","internalType":"uint256"}]},{"type":"error","name":"ECDSAInvalidSignatureS","inputs":[{"name":"s","type":"bytes32","internalType":"bytes32"}]},{"type":"error","name":"ERC1967InvalidImplementation","inputs":[{"name":"implementation","type":"address","internalType":"address"}]},{"type":"error","name":"ERC1967NonPayable","inputs":[]},{"type":"error","name":"EnforcedPause","inputs":[]},{"type":"error","name":"ExpectedPause","inputs":[]},{"type":"error","name":"FailedCall","inputs":[]},{"type":"error","name":"InvalidDecimals","inputs":[{"name":"expected","type":"uint8","internalType":"uint8"},{"name":"actual","type":"uint8","internalType":"uint8"}]},{"type":"error","name":"InvalidInitialization","inputs":[]},{"type":"error","name":"InvalidSignature","inputs":[]},{"type":"error","name":"NotInitializing","inputs":[]},{"type":"error","name":"OraclePaused","inputs":[]},{"type":"error","name":"PriceDataTooOld","inputs":[{"name":"timestamp","type":"uint256","internalType":"uint256"},{"name":"currentTime","type":"uint256","internalType":"uint256"}]},{"type":"error","name":"PriceDeviationTooHigh","inputs":[{"name":"morpherPrice","type":"uint256","internalType":"uint256"},{"name":"chainlinkPrice","type":"uint256","internalType":"uint256"},{"name":"uniswapPrice","type":"uint256","internalType":"uint256"}]},{"type":"error","name":"PriceSourceUnavailable","inputs":[{"name":"source","type":"string","internalType":"string"}]},{"type":"error","name":"StaleAttestation","inputs":[{"name":"lastTimestamp","type":"uint256","internalType":"uint256"},{"name":"providedTimestamp","type":"uint256","internalType":"uint256"}]},{"type":"error","name":"UUPSUnauthorizedCallContext","inputs":[]},{"type":"error","name":"UUPSUnsupportedProxiableUUID","inputs":[{"name":"slot","type":"bytes32","internalType":"bytes32"}]}],"bytecode":{"object":"0x60a0604052306080526101f45f55348015610018575f5ffd5b50610021610026565b6100d8565b7ff0c57e16840df040f15088dc2f81fe391c3923bec73e23a9662efc9c229c6a00805468010000000000000000900460ff16156100765760405163f92ee8a960e01b815260040160405180910390fd5b80546001600160401b03908116146100d55780546001600160401b0319166001600160401b0390811782556040519081527fc7f505b2f371ae2175ee4913f4499e1f2633a7b5936321eed1cdaeb6115181d29060200160405180910390a15b50565b608051611fa56100fe5f395f818161118f015281816111b801526113190152611fa55ff3fe6080604052600436106101c5575f3560e01c80638456cb59116100f2578063bea4dfb511610092578063dd5bfe3311610062578063dd5bfe3314610574578063e63ab1e914610588578063f72c0d8b146105bb578063f780d9bc146105ee575f5ffd5b8063bea4dfb5146104d2578063bef99f52146104e6578063d547741f146104fb578063d67e343c1461051a575f5ffd5b8063a1ebf35d116100cd578063a1ebf35d14610430578063a217fddf14610463578063ad3cb1cc14610476578063b888879e146104b3575f5ffd5b80638456cb59146103e257806391d14854146103f657806395082d2514610415575f5ffd5b8063451a579d1161016857806365ab8c711161013857806365ab8c711461033d5780636ccba2ac14610375578063735de9f71461039457806379502c55146103b3575f5ffd5b8063451a579d146102d45780634f1ef286146102f357806352d1902d146103065780635c975abb1461031a575f5ffd5b8063248a9ca3116101a3578063248a9ca3146102555780632f2ff15d1461028257806336568abe146102a15780633f4ba83a146102c0575f5ffd5b806301ffc9a7146101c957806302d45457146101fd57806310e51e1414610234575b5f5ffd5b3480156101d4575f5ffd5b506101e86101e33660046118bc565b610602565b60405190151581526020015b60405180910390f35b348015610208575f5ffd5b5060015461021c906001600160a01b031681565b6040516001600160a01b0390911681526020016101f4565b34801561023f575f5ffd5b5061025361024e3660046118f7565b610612565b005b348015610260575f5ffd5b5061027461026f366004611963565b61079c565b6040519081526020016101f4565b34801561028d575f5ffd5b5061025361029c36600461197a565b6107bc565b3480156102ac575f5ffd5b506102536102bb36600461197a565b6107de565b3480156102cb575f5ffd5b50610253610816565b3480156102df575f5ffd5b506102536102ee366004611963565b61084b565b610253610301366004611a47565b61085b565b348015610311575f5ffd5b5061027461087a565b348015610325575f5ffd5b505f516020611f505f395f51905f525460ff166101e8565b61035061034b366004611a94565b610895565b604080518251815260208084015160ff169082015291810151908201526060016101f4565b348015610380575f5ffd5b5061021c61038f366004611ad9565b610b8d565b34801561039f575f5ffd5b5060075461021c906001600160a01b031681565b3480156103be575f5ffd5b506004546005546103cd919082565b604080519283526020830191909152016101f4565b3480156103ed575f5ffd5b50610253610c9a565b348015610401575f5ffd5b506101e861041036600461197a565b610ccc565b348015610420575f5ffd5b50610274670de0b6b3a764000081565b34801561043b575f5ffd5b506102747fe2f4eaae4a9751e85a3e4a7b9587827a877f29914755229b07a7b2da98285f7081565b34801561046e575f5ffd5b506102745f81565b348015610481575f5ffd5b506104a6604051806040016040528060058152602001640352e302e360dc1b81525081565b6040516101f49190611b41565b3480156104be575f5ffd5b5060025461021c906001600160a01b031681565b3480156104dd575f5ffd5b50610274610d02565b3480156104f1575f5ffd5b5061027460035481565b348015610506575f5ffd5b5061025361051536600461197a565b610da7565b348015610525575f5ffd5b50610557610534366004611963565b60066020525f9081526040902080546001820154600290920154909160ff169083565b6040805193845260ff9092166020840152908201526060016101f4565b34801561057f575f5ffd5b50610274610dc3565b348015610593575f5ffd5b506102747f65d7a28e3265b37a6474929f336521b332c1681b933f6cb9f3376673440d862a81565b3480156105c6575f5ffd5b506102747f189ab7a9244df0848122154315af71fe140f3db0fe014031783b0946b8c9d2e381565b3480156105f9575f5ffd5b506102745f5481565b5f61060c82610f9b565b92915050565b5f61061b610fcf565b805490915060ff600160401b820416159067ffffffffffffffff165f811580156106425750825b90505f8267ffffffffffffffff16600114801561065e5750303b155b90508115801561066c575080155b1561068a5760405163f92ee8a960e01b815260040160405180910390fd5b845467ffffffffffffffff1916600117855583156106b457845460ff60401b1916600160401b1785555b6106bc610ff7565b6106c4610ff7565b6106cc610ff7565b6106d65f87611001565b506107017f189ab7a9244df0848122154315af71fe140f3db0fe014031783b0946b8c9d2e387611001565b5060048b905560058a9055600180546001600160a01b03808c166001600160a01b031992831617909255600780548b841690831617905560088054928a1692909116919091179055831561078f57845460ff60401b19168555604051600181527fc7f505b2f371ae2175ee4913f4499e1f2633a7b5936321eed1cdaeb6115181d29060200160405180910390a15b5050505050505050505050565b5f9081525f516020611f305f395f51905f52602052604090206001015490565b6107c58261079c565b6107ce816110a2565b6107d88383611001565b50505050565b6001600160a01b03811633146108075760405163334bd91960e11b815260040160405180910390fd5b61081182826110ac565b505050565b7f65d7a28e3265b37a6474929f336521b332c1681b933f6cb9f3376673440d862a610840816110a2565b610848611125565b50565b5f610855816110a2565b50600455565b610863611184565b61086c82611228565b6108768282611252565b5050565b5f61088361130e565b505f516020611f105f395f51905f5290565b6108b960405180606001604052805f81526020015f60ff1681526020015f81525090565b5f516020611f505f395f51905f525460ff16156108e95760405163e28b705360e01b815260040160405180910390fd5b5f61094f83356108ff6040860160208701611b76565b604086013560608701356109166080890189611b91565b8080601f0160208091040260200160405190810160405280939291908181526020018383808284375f92019190915250610b8d92505050565b905061097b7fe2f4eaae4a9751e85a3e4a7b9587827a877f29914755229b07a7b2da98285f7082610ccc565b61099857604051638baa579f60e01b815260040160405180910390fd5b6003546109ab6040850135613a98611bef565b10156109df5760035460408051639e9b3e7560e01b8152600481019290925284013560248201526044015b60405180910390fd5b6109ef6040840160208501611b76565b60ff16601214610a31576012610a0b6040850160208601611b76565b60405163047e54d360e31b815260ff9283166004820152911660248201526044016109d6565b600554610a3e9042611c02565b610a4a906103e8611c15565b836040013511610a79576040805163195c727d60e01b81529084013560048201524260248201526044016109d6565b46600103610b4d575f610a8a610d02565b9050805f03610ac8576040516314e7f62b60e31b8152602060048201526009602482015268436861696e6c696e6b60b81b60448201526064016109d6565b5f610ad1610dc3565b9050805f03610b10576040516314e7f62b60e31b815260206004820152600a602482015269556e697377617020563360b01b60448201526064016109d6565b610b1c85358383611357565b610b4a5760405163e9b5646f60e01b81528535600482015260248101839052604481018290526064016109d6565b50505b6040808401803560035581516060810190925284358252602080830191610b75918701611b76565b60ff1681526020018460400135815250915050919050565b5f5f86868686604051602001610bc9949392919093845260f89290921b6001600160f81b03191660208401526021830152604182015260610190565b6040516020818303038152906040528051906020012090505f81604051602001610c1f91907f19457468657265756d205369676e6564204d6573736167653a0a3332000000008152601c810191909152603c0190565b6040516020818303038152906040528051906020012090505f610c4282866113df565b90506001600160a01b038116610c8e5760405162461bcd60e51b8152602060048201526011602482015270496e76616c6964207369676e617475726560781b60448201526064016109d6565b98975050505050505050565b7f65d7a28e3265b37a6474929f336521b332c1681b933f6cb9f3376673440d862a610cc4816110a2565b610848611407565b5f9182525f516020611f305f395f51905f52602090815260408084206001600160a01b0393909316845291905290205460ff1690565b5f5f60085f9054906101000a90046001600160a01b03166001600160a01b031663feaf968c6040518163ffffffff1660e01b815260040160a060405180830381865afa158015610d54573d5f5f3e3d5ffd5b505050506040513d601f19601f82011682018060405250810190610d789190611c4a565b5050509150506305f5e10081670de0b6b3a7640000610d979190611c98565b610da19190611cdb565b91505090565b610db08261079c565b610db9816110a2565b6107d883836110ac565b5f5f731f98431c8ad98523631ae4a59f267346ea31f98490505f816001600160a01b0316631698ee8260075f9054906101000a90046001600160a01b03166001600160a01b031663ad5c46486040518163ffffffff1660e01b8152600401602060405180830381865afa158015610e3c573d5f5f3e3d5ffd5b505050506040513d601f19601f82011682018060405250810190610e609190611d07565b60015460405160e084901b6001600160e01b03191681526001600160a01b03928316600482015291166024820152610bb86044820152606401602060405180830381865afa158015610eb4573d5f5f3e3d5ffd5b505050506040513d601f19601f82011682018060405250810190610ed89190611d07565b90506001600160a01b03811615610f93575f8190505f816001600160a01b0316633850c7bd6040518163ffffffff1660e01b815260040160e060405180830381865afa158015610f2a573d5f5f3e3d5ffd5b505050506040513d601f19601f82011682018060405250810190610f4e9190611d33565b5050505050506001600160a01b031690506002600160601b82610f719190611dca565b610f7b9190611ec0565b610f8a9064e8d4a51000611c15565b94505050505090565b5f9250505090565b5f6001600160e01b03198216637965db0b60e01b148061060c57506301ffc9a760e01b6001600160e01b031983161461060c565b5f807ff0c57e16840df040f15088dc2f81fe391c3923bec73e23a9662efc9c229c6a0061060c565b610fff61144f565b565b5f5f516020611f305f395f51905f5261101a8484610ccc565b611099575f848152602082815260408083206001600160a01b03871684529091529020805460ff1916600117905561104f3390565b6001600160a01b0316836001600160a01b0316857f2f8788117e7eff1d82e926ec794901d17c78024a50270940304540a733656f0d60405160405180910390a4600191505061060c565b5f91505061060c565b6108488133611474565b5f5f516020611f305f395f51905f526110c58484610ccc565b15611099575f848152602082815260408083206001600160a01b0387168085529252808320805460ff1916905551339287917ff6391f5c32d9c69d2a47ea670b442974b53935d1edc7fd64eb21e047a839171b9190a4600191505061060c565b61112d6114ad565b5f516020611f505f395f51905f52805460ff191681557f5db9ee0a495bf2e6ff9c91a7834c1ba4fdd244a5e8aa4e537bd38aeae4b073aa335b6040516001600160a01b03909116815260200160405180910390a150565b306001600160a01b037f000000000000000000000000000000000000000000000000000000000000000016148061120a57507f00000000000000000000000000000000000000000000000000000000000000006001600160a01b03166111fe5f516020611f105f395f51905f52546001600160a01b031690565b6001600160a01b031614155b15610fff5760405163703e46dd60e11b815260040160405180910390fd5b7f189ab7a9244df0848122154315af71fe140f3db0fe014031783b0946b8c9d2e3610876816110a2565b816001600160a01b03166352d1902d6040518163ffffffff1660e01b8152600401602060405180830381865afa9250505080156112ac575060408051601f3d908101601f191682019092526112a991810190611ece565b60015b6112d457604051634c9c8ce360e01b81526001600160a01b03831660048201526024016109d6565b5f516020611f105f395f51905f52811461130457604051632a87526960e21b8152600481018290526024016109d6565b61081183836114dc565b306001600160a01b037f00000000000000000000000000000000000000000000000000000000000000001614610fff5760405163703e46dd60e11b815260040160405180910390fd5b5f5f61271060045f01548661136c9190611c15565b6113769190611dca565b90506113828185611bef565b8511806113975750836113958287611bef565b105b156113a5575f9150506113d8565b6113af8184611bef565b8511806113c45750826113c28287611bef565b105b156113d2575f9150506113d8565b60019150505b9392505050565b5f5f5f5f6113ed8686611531565b9250925092506113fd828261157a565b5090949350505050565b61140f611632565b5f516020611f505f395f51905f52805460ff191660011781557f62e78cea01bee320cd4e420270b5ea74000d11b0c9f74754ebdbfc544b05a25833611166565b611457611662565b610fff57604051631afcd79f60e31b815260040160405180910390fd5b61147e8282610ccc565b6108765760405163e2517d3f60e01b81526001600160a01b0382166004820152602481018390526044016109d6565b5f516020611f505f395f51905f525460ff16610fff57604051638dfc202b60e01b815260040160405180910390fd5b6114e58261167b565b6040516001600160a01b038316907fbc7cd75a20ee27fd9adebab32041f755214dbc6bffa90cc0225b39da2e5c2d3b905f90a28051156115295761081182826116de565b610876611750565b5f5f5f8351604103611568576020840151604085015160608601515f1a61155a8882858561176f565b955095509550505050611573565b505081515f91506002905b9250925092565b5f82600381111561158d5761158d611ee5565b03611596575050565b60018260038111156115aa576115aa611ee5565b036115c85760405163f645eedf60e01b815260040160405180910390fd5b60028260038111156115dc576115dc611ee5565b036115fd5760405163fce698f760e01b8152600481018290526024016109d6565b600382600381111561161157611611611ee5565b03610876576040516335e2f38360e21b8152600481018290526024016109d6565b5f516020611f505f395f51905f525460ff1615610fff5760405163d93c066560e01b815260040160405180910390fd5b5f61166b610fcf565b54600160401b900460ff16919050565b806001600160a01b03163b5f036116b057604051634c9c8ce360e01b81526001600160a01b03821660048201526024016109d6565b5f516020611f105f395f51905f5280546001600160a01b0319166001600160a01b0392909216919091179055565b60605f5f846001600160a01b0316846040516116fa9190611ef9565b5f60405180830381855af49150503d805f8114611732576040519150601f19603f3d011682016040523d82523d5f602084013e611737565b606091505b5091509150611747858383611837565b95945050505050565b3415610fff5760405163b398979f60e01b815260040160405180910390fd5b5f80807f7fffffffffffffffffffffffffffffff5d576e7357a4501ddfe92f46681b20a08411156117a857505f9150600390508261182d565b604080515f808252602082018084528a905260ff891692820192909252606081018790526080810186905260019060a0016020604051602081039080840390855afa1580156117f9573d5f5f3e3d5ffd5b5050604051601f1901519150506001600160a01b03811661182457505f92506001915082905061182d565b92505f91508190505b9450945094915050565b60608261184c5761184782611893565b6113d8565b815115801561186357506001600160a01b0384163b155b1561188c57604051639996b31560e01b81526001600160a01b03851660048201526024016109d6565b50806113d8565b8051156118a35780518082602001fd5b60405163d6bda27560e01b815260040160405180910390fd5b5f602082840312156118cc575f5ffd5b81356001600160e01b0319811681146113d8575f5ffd5b6001600160a01b0381168114610848575f5ffd5b5f5f5f5f5f5f60c0878903121561190c575f5ffd5b86359550602087013594506040870135611925816118e3565b93506060870135611935816118e3565b92506080870135611945816118e3565b915060a0870135611955816118e3565b809150509295509295509295565b5f60208284031215611973575f5ffd5b5035919050565b5f5f6040838503121561198b575f5ffd5b82359150602083013561199d816118e3565b809150509250929050565b634e487b7160e01b5f52604160045260245ffd5b5f82601f8301126119cb575f5ffd5b813567ffffffffffffffff8111156119e5576119e56119a8565b604051601f8201601f19908116603f0116810167ffffffffffffffff81118282101715611a1457611a146119a8565b604052818152838201602001851015611a2b575f5ffd5b816020850160208301375f918101602001919091529392505050565b5f5f60408385031215611a58575f5ffd5b8235611a63816118e3565b9150602083013567ffffffffffffffff811115611a7e575f5ffd5b611a8a858286016119bc565b9150509250929050565b5f60208284031215611aa4575f5ffd5b813567ffffffffffffffff811115611aba575f5ffd5b820160a081850312156113d8575f5ffd5b60ff81168114610848575f5ffd5b5f5f5f5f5f60a08688031215611aed575f5ffd5b853594506020860135611aff81611acb565b93506040860135925060608601359150608086013567ffffffffffffffff811115611b28575f5ffd5b611b34888289016119bc565b9150509295509295909350565b602081525f82518060208401528060208501604085015e5f604082850101526040601f19601f83011684010191505092915050565b5f60208284031215611b86575f5ffd5b81356113d881611acb565b5f5f8335601e19843603018112611ba6575f5ffd5b83018035915067ffffffffffffffff821115611bc0575f5ffd5b602001915036819003821315611bd4575f5ffd5b9250929050565b634e487b7160e01b5f52601160045260245ffd5b8082018082111561060c5761060c611bdb565b8181038181111561060c5761060c611bdb565b808202811582820484141761060c5761060c611bdb565b805169ffffffffffffffffffff81168114611c45575f5ffd5b919050565b5f5f5f5f5f60a08688031215611c5e575f5ffd5b611c6786611c2c565b60208701516040880151606089015192975090955093509150611c8c60808701611c2c565b90509295509295909350565b8082025f8212600160ff1b84141615611cb357611cb3611bdb565b818105831482151761060c5761060c611bdb565b634e487b7160e01b5f52601260045260245ffd5b5f82611ce957611ce9611cc7565b600160ff1b82145f1984141615611d0257611d02611bdb565b500590565b5f60208284031215611d17575f5ffd5b81516113d8816118e3565b805161ffff81168114611c45575f5ffd5b5f5f5f5f5f5f5f60e0888a031215611d49575f5ffd5b8751611d54816118e3565b8097505060208801518060020b8114611d6b575f5ffd5b9550611d7960408901611d22565b9450611d8760608901611d22565b9350611d9560808901611d22565b925060a0880151611da581611acb565b60c08901519092508015158114611dba575f5ffd5b8091505092959891949750929550565b5f82611dd857611dd8611cc7565b500490565b6001815b6001841115611e1857808504811115611dfc57611dfc611bdb565b6001841615611e0a57908102905b60019390931c928002611de1565b935093915050565b5f82611e2e5750600161060c565b81611e3a57505f61060c565b8160018114611e505760028114611e5a57611e76565b600191505061060c565b60ff841115611e6b57611e6b611bdb565b50506001821b61060c565b5060208310610133831016604e8410600b8410161715611e99575081810a61060c565b611ea55f198484611ddd565b805f1904821115611eb857611eb8611bdb565b029392505050565b5f6113d860ff841683611e20565b5f60208284031215611ede575f5ffd5b5051919050565b634e487b7160e01b5f52602160045260245ffd5b5f82518060208501845e5f92019182525091905056fe360894a13ba1a3210667c828492db98dca3e2076cc3735a920a3ca505d382bbc02dd7bc7dec4dceedda775e58dd541e08a116c6c53815c0bd028192f7b626800cd5ed15c6e187e77e9aee88184c21f4f2182ab5827cb3b7e07fbedcd63f03300a26469706673582212202294b0270eb36807fdfe269bf9bbf2eb6e42e0c67b08378b511ec71866086f9564736f6c634300081d0033","linkReferences":{}},"methodIdentifiers":{"DEFAULT_ADMIN_ROLE()":"a217fddf","PAUSER_ROLE()":"e63ab1e9","PRICE_PRECISION()":"95082d25","SIGNER_ROLE()":"a1ebf35d","UPGRADER_ROLE()":"f72c0d8b","UPGRADE_INTERFACE_VERSION()":"ad3cb1cc","attestationService((uint256,uint8,uint256,bytes32,bytes))":"65ab8c71","config()":"79502c55","getChainlinkDataFeedLatestAnswer()":"bea4dfb5","getRoleAdmin(bytes32)":"248a9ca3","getUniswapV3WethUsdcPrice()":"dd5bfe33","grantRole(bytes32,address)":"2f2ff15d","hasRole(bytes32,address)":"91d14854","initialize(uint256,uint256,address,address,address,address)":"10e51e14","lastAttestationTimestamp()":"bef99f52","lastPrices(bytes32)":"d67e343c","maxDeviationPercentage()":"f780d9bc","pause()":"8456cb59","paused()":"5c975abb","priceProvider()":"b888879e","proxiableUUID()":"52d1902d","renounceRole(bytes32,address)":"36568abe","revokeRole(bytes32,address)":"d547741f","setMaxDeviationPercentage(uint256)":"451a579d","supportsInterface(bytes4)":"01ffc9a7","uniswapRouter()":"735de9f7","unpause()":"3f4ba83a","upgradeToAndCall(address,bytes)":"4f1ef286","usdcAddress()":"02d45457","verifySignature(uint256,uint8,uint256,bytes32,bytes)":"6ccba2ac"},"storageLayout":{"storage":[{"astId":53519,"contract":"src/PriceOracle.sol:PriceOracle","label":"maxDeviationPercentage","offset":0,"slot":"0","type":"t_uint256"},{"astId":53526,"contract":"src/PriceOracle.sol:PriceOracle","label":"usdcAddress","offset":0,"slot":"1","type":"t_address"},{"astId":53528,"contract":"src/PriceOracle.sol:PriceOracle","label":"priceProvider","offset":0,"slot":"2","type":"t_address"},{"astId":53530,"contract":"src/PriceOracle.sol:PriceOracle","label":"lastAttestationTimestamp","offset":0,"slot":"3","type":"t_uint256"},{"astId":53533,"contract":"src/PriceOracle.sol:PriceOracle","label":"config","offset":0,"slot":"4","type":"t_struct(PriceConfig)53524_storage"},{"astId":53538,"contract":"src/PriceOracle.sol:PriceOracle","label":"lastPrices","offset":0,"slot":"6","type":"t_mapping(t_bytes32,t_struct(PriceResponse)59025_storage)"},{"astId":53541,"contract":"src/PriceOracle.sol:PriceOracle","label":"uniswapRouter","offset":0,"slot":"7","type":"t_contract(IUniswapV2Router02)51045"},{"astId":53544,"contract":"src/PriceOracle.sol:PriceOracle","label":"dataFeed","offset":0,"slot":"8","type":"t_contract(AggregatorV3Interface)45"}],"types":{"t_address":{"encoding":"inplace","label":"address","numberOfBytes":"20"},"t_bytes32":{"encoding":"inplace","label":"bytes32","numberOfBytes":"32"},"t_contract(AggregatorV3Interface)45":{"encoding":"inplace","label":"contract AggregatorV3Interface","numberOfBytes":"20"},"t_contract(IUniswapV2Router02)51045":{"encoding":"inplace","label":"contract IUniswapV2Router02","numberOfBytes":"20"},"t_mapping(t_bytes32,t_struct(PriceResponse)59025_storage)":{"encoding":"mapping","key":"t_bytes32","label":"mapping(bytes32 => struct IPriceOracle.PriceResponse)","numberOfBytes":"32","value":"t_struct(PriceResponse)59025_storage"},"t_struct(PriceConfig)53524_storage":{"encoding":"inplace","label":"struct PriceOracle.PriceConfig","numberOfBytes":"64","members":[{"astId":53521,"contract":"src/PriceOracle.sol:PriceOracle","label":"maxPriceDeviation","offset":0,"slot":"0","type":"t_uint256"},{"astId":53523,"contract":"src/PriceOracle.sol:PriceOracle","label":"priceStalenessPeriod","offset":0,"slot":"1","type":"t_uint256"}]},"t_struct(PriceResponse)59025_storage":{"encoding":"inplace","label":"struct IPriceOracle.PriceResponse","numberOfBytes":"96","members":[{"astId":59020,"contract":"src/PriceOracle.sol:PriceOracle","label":"price","offset":0,"slot":"0","type":"t_uint256"},{"astId":59022,"contract":"src/PriceOracle.sol:PriceOracle","label":"decimals","offset":0,"slot":"1","type":"t_uint8"},{"astId":59024,"contract":"src/PriceOracle.sol:PriceOracle","label":"timestamp","offset":0,"slot":"2","type":"t_uint256"}]},"t_uint256":{"encoding":"inplace","label":"uint256","numberOfBytes":"32"},"t_uint8":{"encoding":"inplace","label":"uint8","numberOfBytes":"1"}}},"id":76}