{
    "abi": [
        {
            "type": "constructor",
            "inputs": [
                {
                    "name": "_provider",
                    "type": "address",
                    "internalType": "address"
                },
                {
                    "name": "_oracleEntrypoint",
                    "type": "address",
                    "internalType": "address"
                }
            ],
            "stateMutability": "nonpayable"
        },
        {
            "type": "function",
            "name": "ETH_USD",
            "inputs": [],
            "outputs": [
                {
                    "name": "",
                    "type": "bytes32",
                    "internalType": "bytes32"
                }
            ],
            "stateMutability": "view"
        },
        {
            "type": "function",
            "name": "getAskPrice",
            "inputs": [],
            "outputs": [
                {
                    "name": "",
                    "type": "uint256",
                    "internalType": "uint256"
                }
            ],
            "stateMutability": "nonpayable"
        },
        {
            "type": "function",
            "name": "getBidPrice",
            "inputs": [],
            "outputs": [
                {
                    "name": "",
                    "type": "uint256",
                    "internalType": "uint256"
                }
            ],
            "stateMutability": "nonpayable"
        },
        {
            "type": "function",
            "name": "provider",
            "inputs": [],
            "outputs": [
                {
                    "name": "",
                    "type": "address",
                    "internalType": "address"
                }
            ],
            "stateMutability": "view"
        },
        {
            "type": "function",
            "name": "requirements",
            "inputs": [],
            "outputs": [
                {
                    "name": "",
                    "type": "bytes4[]",
                    "internalType": "bytes4[]"
                }
            ],
            "stateMutability": "pure"
        },
        {
            "type": "function",
            "name": "requirements",
            "inputs": [
                {
                    "name": "",
                    "type": "bytes4",
                    "internalType": "bytes4"
                }
            ],
            "outputs": [
                {
                    "name": "",
                    "type": "tuple[]",
                    "internalType": "struct DataDependent.DataSource[]",
                    "components": [
                        {
                            "name": "provider",
                            "type": "address",
                            "internalType": "address"
                        },
                        {
                            "name": "requester",
                            "type": "address",
                            "internalType": "address"
                        },
                        {
                            "name": "dataKey",
                            "type": "bytes32",
                            "internalType": "bytes32"
                        }
                    ]
                }
            ],
            "stateMutability": "view"
        }
    ],
    "bytecode": {
        "object": "0x608060405234801561001057600080fd5b506040516106ac3803806106ac83398101604081905261002f9161007c565b600080546001600160a01b039384166001600160a01b031991821617909155600180549290931691161790556100af565b80516001600160a01b038116811461007757600080fd5b919050565b6000806040838503121561008f57600080fd5b61009883610060565b91506100a660208401610060565b90509250929050565b6105ee806100be6000396000f3fe608060405234801561001057600080fd5b50600436106100625760003560e01c8063085d4883146100675780635155c142146100975780636260f55b146100ad578063a51b4b65146100d4578063ade79fd3146100e9578063ec34866d14610109575b600080fd5b60005461007a906001600160a01b031681565b6040516001600160a01b0390911681526020015b60405180910390f35b61009f610111565b60405190815260200161008e565b61009f7f7ffda7a2f43427562e5fee12d8c875cfc089dab65bc5edaa49a9737c5c49338c81565b6100dc6102d5565b60405161008e919061042d565b6100fc6100f736600461047b565b61036a565b60405161008e91906104ac565b61009f61041e565b600154600080546040516331fbc06960e21b81526001600160a01b0391821660048201527f7ffda7a2f43427562e5fee12d8c875cfc089dab65bc5edaa49a9737c5c49338c60248201529192839291169063c7ef01a4906044016020604051808303816000875af115801561018a573d6000803e3d6000fd5b505050506040513d601f19601f820116820180604052508101906101ae9190610511565b90508060d081901c6101c1601e42610540565b6101cd906103e8610559565b81116102105760405162461bcd60e51b815260206004820152600d60248201526c4461746120746f6f206f6c642160981b60448201526064015b60405180910390fd5b600061021e82610100610559565b61022c9060c885901c610540565b90508060ff1660121461028d5760405162461bcd60e51b8152602060048201526024808201527f4f7261636c6520726573706f6e736520776974682077726f6e6720646563696d604482015263616c732160e01b6064820152608401610207565b60006102a060ff8316600160c81b610570565b6001600160d01b03166102b784600160d01b610559565b6102c19086610540565b6102cb9190610540565b9695505050505050565b60408051600280825260608083018452926000929190602083019080368337019050509050635155c14260e01b81600081518110610315576103156105a2565b6001600160e01b031990921660209283029190910190910152805163ec34866d60e01b908290600190811061034c5761034c6105a2565b6001600160e01b031990921660209283029190910190910152919050565b60408051600180825281830190925260609160009190816020015b604080516060810182526000808252602080830182905292820152825260001990920191018161038557505060408051606081018252600080546001600160a01b031682523060208301527f7ffda7a2f43427562e5fee12d8c875cfc089dab65bc5edaa49a9737c5c49338c9282019290925282519293509183919061040d5761040d6105a2565b602090810291909101015292915050565b6000610428610111565b905090565b6020808252825182820181905260009190848201906040850190845b8181101561046f5783516001600160e01b03191683529284019291840191600101610449565b50909695505050505050565b60006020828403121561048d57600080fd5b81356001600160e01b0319811681146104a557600080fd5b9392505050565b602080825282518282018190526000919060409081850190868401855b8281101561050457815180516001600160a01b03908116865287820151168786015285015185850152606090930192908501906001016104c9565b5091979650505050505050565b60006020828403121561052357600080fd5b5051919050565b634e487b7160e01b600052601160045260246000fd5b818103818111156105535761055361052a565b92915050565b80820281158282048414176105535761055361052a565b6001600160d01b038281168282168181028316929181158285048214176105995761059961052a565b50505092915050565b634e487b7160e01b600052603260045260246000fdfea264697066735822122084d8ed5b1c8c78d632706d65954e0d79f92df813058292962c8b31da7ad2e3aa64736f6c63430008140033",
        "linkReferences": {}
    },
    "methodIdentifiers": {
        "ETH_USD()": "6260f55b",
        "getAskPrice()": "5155c142",
        "getBidPrice()": "ec34866d",
        "provider()": "085d4883",
        "requirements()": "a51b4b65",
        "requirements(bytes4)": "ade79fd3"
    },
    "id": 46
}