{"abi":[{"type":"constructor","inputs":[],"stateMutability":"nonpayable"},{"type":"function","name":"DEFAULT_ADMIN_ROLE","inputs":[],"outputs":[{"name":"","type":"bytes32","internalType":"bytes32"}],"stateMutability":"view"},{"type":"function","name":"PAUSER_ROLE","inputs":[],"outputs":[{"name":"","type":"bytes32","internalType":"bytes32"}],"stateMutability":"view"},{"type":"function","name":"PRICE_FEED_ETH_USD","inputs":[],"outputs":[{"name":"","type":"bytes32","internalType":"bytes32"}],"stateMutability":"view"},{"type":"function","name":"PRICE_PRECISION","inputs":[],"outputs":[{"name":"","type":"uint256","internalType":"uint256"}],"stateMutability":"view"},{"type":"function","name":"SIGNER_ROLE","inputs":[],"outputs":[{"name":"","type":"bytes32","internalType":"bytes32"}],"stateMutability":"view"},{"type":"function","name":"attestationService","inputs":[{"name":"priceQuery","type":"tuple","internalType":"struct IPriceOracle.PriceAttestationQuery","components":[{"name":"price","type":"uint256","internalType":"uint256"},{"name":"decimals","type":"uint8","internalType":"uint8"},{"name":"dataTimestamp","type":"uint256","internalType":"uint256"},{"name":"assetPair","type":"bytes32","internalType":"bytes32"},{"name":"signature","type":"bytes","internalType":"bytes"}]}],"outputs":[{"name":"","type":"tuple","internalType":"struct IPriceOracle.PriceResponse","components":[{"name":"price","type":"uint256","internalType":"uint256"},{"name":"decimals","type":"uint8","internalType":"uint8"},{"name":"timestamp","type":"uint256","internalType":"uint256"}]}],"stateMutability":"payable"},{"type":"function","name":"config","inputs":[],"outputs":[{"name":"maxPriceDeviation","type":"uint256","internalType":"uint256"},{"name":"priceStalenessPeriod","type":"uint256","internalType":"uint256"}],"stateMutability":"view"},{"type":"function","name":"getChainlinkDataFeedLatestAnswer","inputs":[],"outputs":[{"name":"","type":"int256","internalType":"int256"}],"stateMutability":"view"},{"type":"function","name":"getRoleAdmin","inputs":[{"name":"role","type":"bytes32","internalType":"bytes32"}],"outputs":[{"name":"","type":"bytes32","internalType":"bytes32"}],"stateMutability":"view"},{"type":"function","name":"getUniswapV3WethUsdcPrice","inputs":[],"outputs":[{"name":"","type":"uint256","internalType":"uint256"}],"stateMutability":"view"},{"type":"function","name":"grantRole","inputs":[{"name":"role","type":"bytes32","internalType":"bytes32"},{"name":"account","type":"address","internalType":"address"}],"outputs":[],"stateMutability":"nonpayable"},{"type":"function","name":"hasRole","inputs":[{"name":"role","type":"bytes32","internalType":"bytes32"},{"name":"account","type":"address","internalType":"address"}],"outputs":[{"name":"","type":"bool","internalType":"bool"}],"stateMutability":"view"},{"type":"function","name":"initialize","inputs":[{"name":"_maxPriceDeviation","type":"uint256","internalType":"uint256"},{"name":"_priceStalenessPeriod","type":"uint256","internalType":"uint256"},{"name":"_usdcAddress","type":"address","internalType":"address"},{"name":"_uniswapRouter","type":"address","internalType":"address"},{"name":"_chainlinkAggregator","type":"address","internalType":"address"},{"name":"_admin","type":"address","internalType":"address"}],"outputs":[],"stateMutability":"nonpayable"},{"type":"function","name":"lastPrices","inputs":[{"name":"","type":"bytes32","internalType":"bytes32"}],"outputs":[{"name":"price","type":"uint256","internalType":"uint256"},{"name":"decimals","type":"uint8","internalType":"uint8"},{"name":"timestamp","type":"uint256","internalType":"uint256"}],"stateMutability":"view"},{"type":"function","name":"maxDeviationPercentage","inputs":[],"outputs":[{"name":"","type":"uint256","internalType":"uint256"}],"stateMutability":"view"},{"type":"function","name":"pause","inputs":[],"outputs":[],"stateMutability":"nonpayable"},{"type":"function","name":"paused","inputs":[],"outputs":[{"name":"","type":"bool","internalType":"bool"}],"stateMutability":"view"},{"type":"function","name":"priceProvider","inputs":[],"outputs":[{"name":"","type":"address","internalType":"address"}],"stateMutability":"view"},{"type":"function","name":"renounceRole","inputs":[{"name":"role","type":"bytes32","internalType":"bytes32"},{"name":"callerConfirmation","type":"address","internalType":"address"}],"outputs":[],"stateMutability":"nonpayable"},{"type":"function","name":"revokeRole","inputs":[{"name":"role","type":"bytes32","internalType":"bytes32"},{"name":"account","type":"address","internalType":"address"}],"outputs":[],"stateMutability":"nonpayable"},{"type":"function","name":"setMaxDeviationPercentage","inputs":[{"name":"_maxDeviationPercentage","type":"uint256","internalType":"uint256"}],"outputs":[],"stateMutability":"nonpayable"},{"type":"function","name":"supportsInterface","inputs":[{"name":"interfaceId","type":"bytes4","internalType":"bytes4"}],"outputs":[{"name":"","type":"bool","internalType":"bool"}],"stateMutability":"view"},{"type":"function","name":"uniswapRouter","inputs":[],"outputs":[{"name":"","type":"address","internalType":"contract IUniswapV2Router02"}],"stateMutability":"view"},{"type":"function","name":"unpause","inputs":[],"outputs":[],"stateMutability":"nonpayable"},{"type":"function","name":"usdcAddress","inputs":[],"outputs":[{"name":"","type":"address","internalType":"address"}],"stateMutability":"view"},{"type":"function","name":"verifySignature","inputs":[{"name":"price","type":"uint256","internalType":"uint256"},{"name":"decimals","type":"uint8","internalType":"uint8"},{"name":"timestamp","type":"uint256","internalType":"uint256"},{"name":"assetPair","type":"bytes32","internalType":"bytes32"},{"name":"signature","type":"bytes","internalType":"bytes"}],"outputs":[{"name":"","type":"address","internalType":"address"}],"stateMutability":"pure"},{"type":"event","name":"Initialized","inputs":[{"name":"version","type":"uint64","indexed":false,"internalType":"uint64"}],"anonymous":false},{"type":"event","name":"Paused","inputs":[{"name":"account","type":"address","indexed":false,"internalType":"address"}],"anonymous":false},{"type":"event","name":"RoleAdminChanged","inputs":[{"name":"role","type":"bytes32","indexed":true,"internalType":"bytes32"},{"name":"previousAdminRole","type":"bytes32","indexed":true,"internalType":"bytes32"},{"name":"newAdminRole","type":"bytes32","indexed":true,"internalType":"bytes32"}],"anonymous":false},{"type":"event","name":"RoleGranted","inputs":[{"name":"role","type":"bytes32","indexed":true,"internalType":"bytes32"},{"name":"account","type":"address","indexed":true,"internalType":"address"},{"name":"sender","type":"address","indexed":true,"internalType":"address"}],"anonymous":false},{"type":"event","name":"RoleRevoked","inputs":[{"name":"role","type":"bytes32","indexed":true,"internalType":"bytes32"},{"name":"account","type":"address","indexed":true,"internalType":"address"},{"name":"sender","type":"address","indexed":true,"internalType":"address"}],"anonymous":false},{"type":"event","name":"Unpaused","inputs":[{"name":"account","type":"address","indexed":false,"internalType":"address"}],"anonymous":false},{"type":"error","name":"AccessControlBadConfirmation","inputs":[]},{"type":"error","name":"AccessControlUnauthorizedAccount","inputs":[{"name":"account","type":"address","internalType":"address"},{"name":"neededRole","type":"bytes32","internalType":"bytes32"}]},{"type":"error","name":"ECDSAInvalidSignature","inputs":[]},{"type":"error","name":"ECDSAInvalidSignatureLength","inputs":[{"name":"length","type":"uint256","internalType":"uint256"}]},{"type":"error","name":"ECDSAInvalidSignatureS","inputs":[{"name":"s","type":"bytes32","internalType":"bytes32"}]},{"type":"error","name":"EnforcedPause","inputs":[]},{"type":"error","name":"ExpectedPause","inputs":[]},{"type":"error","name":"InvalidDecimals","inputs":[{"name":"expected","type":"uint8","internalType":"uint8"},{"name":"actual","type":"uint8","internalType":"uint8"}]},{"type":"error","name":"InvalidInitialization","inputs":[]},{"type":"error","name":"InvalidSignature","inputs":[]},{"type":"error","name":"NotInitializing","inputs":[]},{"type":"error","name":"OraclePaused","inputs":[]},{"type":"error","name":"PriceDataTooOld","inputs":[{"name":"timestamp","type":"uint256","internalType":"uint256"},{"name":"currentTime","type":"uint256","internalType":"uint256"}]},{"type":"error","name":"PriceDeviationTooHigh","inputs":[{"name":"morpherPrice","type":"uint256","internalType":"uint256"},{"name":"chainlinkPrice","type":"uint256","internalType":"uint256"},{"name":"uniswapPrice","type":"uint256","internalType":"uint256"}]},{"type":"error","name":"PriceSourceUnavailable","inputs":[{"name":"source","type":"string","internalType":"string"}]}],"bytecode":{"object":"0x60806040526101f45f553480156013575f80fd5b50601a601e565b60ce565b7ff0c57e16840df040f15088dc2f81fe391c3923bec73e23a9662efc9c229c6a00805468010000000000000000900460ff1615606d5760405163f92ee8a960e01b815260040160405180910390fd5b80546001600160401b039081161460cb5780546001600160401b0319166001600160401b0390811782556040519081527fc7f505b2f371ae2175ee4913f4499e1f2633a7b5936321eed1cdaeb6115181d29060200160405180910390a15b50565b6119b4806100db5f395ff3fe60806040526004361061017b575f3560e01c80638456cb59116100cd578063bea4dfb511610087578063dd5bfe3311610062578063dd5bfe33146104b1578063dd77cc36146104c5578063e63ab1e9146104f8578063f780d9bc1461052b575f80fd5b8063bea4dfb514610424578063d547741f14610438578063d67e343c14610457575f80fd5b80638456cb591461037157806391d148541461038557806395082d25146103a4578063a1ebf35d146103bf578063a217fddf146103f2578063b888879e14610405575f80fd5b80633f4ba83a1161013857806365ab8c711161011357806365ab8c71146102cc5780636ccba2ac14610304578063735de9f71461032357806379502c5514610342575f80fd5b80633f4ba83a14610276578063451a579d1461028a5780635c975abb146102a9575f80fd5b806301ffc9a71461017f57806302d45457146101b357806310e51e14146101ea578063248a9ca31461020b5780632f2ff15d1461023857806336568abe14610257575b5f80fd5b34801561018a575f80fd5b5061019e6101993660046113ac565b61053f565b60405190151581526020015b60405180910390f35b3480156101be575f80fd5b506001546101d2906001600160a01b031681565b6040516001600160a01b0390911681526020016101aa565b3480156101f5575f80fd5b506102096102043660046113e7565b61054f565b005b348015610216575f80fd5b5061022a610225366004611453565b6106a6565b6040519081526020016101aa565b348015610243575f80fd5b5061020961025236600461146a565b6106c6565b348015610262575f80fd5b5061020961027136600461146a565b6106e8565b348015610281575f80fd5b50610209610720565b348015610295575f80fd5b506102096102a4366004611453565b610755565b3480156102b4575f80fd5b505f8051602061195f8339815191525460ff1661019e565b6102df6102da366004611498565b610765565b604080518251815260208084015160ff169082015291810151908201526060016101aa565b34801561030f575f80fd5b506101d261031e3660046114f1565b610a1a565b34801561032e575f80fd5b506006546101d2906001600160a01b031681565b34801561034d575f80fd5b5060035460045461035c919082565b604080519283526020830191909152016101aa565b34801561037c575f80fd5b50610209610b27565b348015610390575f80fd5b5061019e61039f36600461146a565b610b59565b3480156103af575f80fd5b5061022a670de0b6b3a764000081565b3480156103ca575f80fd5b5061022a7fe2f4eaae4a9751e85a3e4a7b9587827a877f29914755229b07a7b2da98285f7081565b3480156103fd575f80fd5b5061022a5f81565b348015610410575f80fd5b506002546101d2906001600160a01b031681565b34801561042f575f80fd5b5061022a610b8f565b348015610443575f80fd5b5061020961045236600461146a565b610c34565b348015610462575f80fd5b50610494610471366004611453565b60056020525f9081526040902080546001820154600290920154909160ff169083565b6040805193845260ff9092166020840152908201526060016101aa565b3480156104bc575f80fd5b5061022a610c50565b3480156104d0575f80fd5b5061022a7f267fb830456e0b64582e3058e563e93c21b337432aecaf19f4b3dee7d6faa07881565b348015610503575f80fd5b5061022a7f65d7a28e3265b37a6474929f336521b332c1681b933f6cb9f3376673440d862a81565b348015610536575f80fd5b5061022a5f5481565b5f61054982610e28565b92915050565b5f610558610e5c565b805490915060ff600160401b820416159067ffffffffffffffff165f8115801561057f5750825b90505f8267ffffffffffffffff16600114801561059b5750303b155b9050811580156105a9575080155b156105c75760405163f92ee8a960e01b815260040160405180910390fd5b845467ffffffffffffffff1916600117855583156105f157845460ff60401b1916600160401b1785555b6105f9610e84565b610601610e84565b61060b5f87610e8e565b5060038b905560048a9055600180546001600160a01b03808c166001600160a01b031992831617909255600680548b841690831617905560078054928a1692909116919091179055831561069957845460ff60401b19168555604051600181527fc7f505b2f371ae2175ee4913f4499e1f2633a7b5936321eed1cdaeb6115181d29060200160405180910390a15b5050505050505050505050565b5f9081525f8051602061193f833981519152602052604090206001015490565b6106cf826106a6565b6106d881610f2f565b6106e28383610e8e565b50505050565b6001600160a01b03811633146107115760405163334bd91960e11b815260040160405180910390fd5b61071b8282610f39565b505050565b7f65d7a28e3265b37a6474929f336521b332c1681b933f6cb9f3376673440d862a61074a81610f2f565b610752610fb2565b50565b5f61075f81610f2f565b50600355565b61078960405180606001604052805f81526020015f60ff1681526020015f81525090565b5f8051602061195f8339815191525460ff16156107b95760405163e28b705360e01b815260040160405180910390fd5b5f61081f83356107cf60408601602087016115d2565b604086013560608701356107e660808901896115ed565b8080601f0160208091040260200160405190810160405280939291908181526020018383808284375f92019190915250610a1a92505050565b905061084b7fe2f4eaae4a9751e85a3e4a7b9587827a877f29914755229b07a7b2da98285f7082610b59565b61086857604051638baa579f60e01b815260040160405180910390fd5b61087860408401602085016115d2565b60ff166012146108bf57601261089460408501602086016115d2565b60405163047e54d360e31b815260ff9283166004820152911660248201526044015b60405180910390fd5b6004546108cc904261164b565b6108d8906103e861165e565b836040013511610907576040805163195c727d60e01b81529084013560048201524260248201526044016108b6565b466001036109db575f610918610b8f565b9050805f03610956576040516314e7f62b60e31b8152602060048201526009602482015268436861696e6c696e6b60b81b60448201526064016108b6565b5f61095f610c50565b9050805f0361099e576040516314e7f62b60e31b815260206004820152600a602482015269556e697377617020563360b01b60448201526064016108b6565b6109aa85358383611011565b6109d85760405163e9b5646f60e01b81528535600482015260248101839052604481018290526064016108b6565b50505b6040518060600160405280845f01358152602001846020016020810190610a0291906115d2565b60ff1681526020018460400135815250915050919050565b5f8086868686604051602001610a56949392919093845260f89290921b6001600160f81b03191660208401526021830152604182015260610190565b6040516020818303038152906040528051906020012090505f81604051602001610aac91907f19457468657265756d205369676e6564204d6573736167653a0a3332000000008152601c810191909152603c0190565b6040516020818303038152906040528051906020012090505f610acf8286611099565b90506001600160a01b038116610b1b5760405162461bcd60e51b8152602060048201526011602482015270496e76616c6964207369676e617475726560781b60448201526064016108b6565b98975050505050505050565b7f65d7a28e3265b37a6474929f336521b332c1681b933f6cb9f3376673440d862a610b5181610f2f565b6107526110c1565b5f9182525f8051602061193f833981519152602090815260408084206001600160a01b0393909316845291905290205460ff1690565b5f8060075f9054906101000a90046001600160a01b03166001600160a01b031663feaf968c6040518163ffffffff1660e01b815260040160a060405180830381865afa158015610be1573d5f803e3d5ffd5b505050506040513d601f19601f82011682018060405250810190610c059190611693565b5050509150506305f5e10081670de0b6b3a7640000610c2491906116e1565b610c2e9190611724565b91505090565b610c3d826106a6565b610c4681610f2f565b6106e28383610f39565b5f80731f98431c8ad98523631ae4a59f267346ea31f98490505f816001600160a01b0316631698ee8260065f9054906101000a90046001600160a01b03166001600160a01b031663ad5c46486040518163ffffffff1660e01b8152600401602060405180830381865afa158015610cc9573d5f803e3d5ffd5b505050506040513d601f19601f82011682018060405250810190610ced9190611750565b60015460405160e084901b6001600160e01b03191681526001600160a01b03928316600482015291166024820152610bb86044820152606401602060405180830381865afa158015610d41573d5f803e3d5ffd5b505050506040513d601f19601f82011682018060405250810190610d659190611750565b90506001600160a01b03811615610e20575f8190505f816001600160a01b0316633850c7bd6040518163ffffffff1660e01b815260040160e060405180830381865afa158015610db7573d5f803e3d5ffd5b505050506040513d601f19601f82011682018060405250810190610ddb919061177c565b5050505050506001600160a01b031690506002600160601b82610dfe9190611813565b610e089190611909565b610e179064e8d4a5100061165e565b94505050505090565b5f9250505090565b5f6001600160e01b03198216637965db0b60e01b148061054957506301ffc9a760e01b6001600160e01b0319831614610549565b5f807ff0c57e16840df040f15088dc2f81fe391c3923bec73e23a9662efc9c229c6a00610549565b610e8c611109565b565b5f5f8051602061193f833981519152610ea78484610b59565b610f26575f848152602082815260408083206001600160a01b03871684529091529020805460ff19166001179055610edc3390565b6001600160a01b0316836001600160a01b0316857f2f8788117e7eff1d82e926ec794901d17c78024a50270940304540a733656f0d60405160405180910390a46001915050610549565b5f915050610549565b610752813361112e565b5f5f8051602061193f833981519152610f528484610b59565b15610f26575f848152602082815260408083206001600160a01b0387168085529252808320805460ff1916905551339287917ff6391f5c32d9c69d2a47ea670b442974b53935d1edc7fd64eb21e047a839171b9190a46001915050610549565b610fba61116b565b5f8051602061195f833981519152805460ff191681557f5db9ee0a495bf2e6ff9c91a7834c1ba4fdd244a5e8aa4e537bd38aeae4b073aa335b6040516001600160a01b03909116815260200160405180910390a150565b5f8061271060035f015486611026919061165e565b6110309190611813565b905061103c8185611917565b85118061105157508361104f8287611917565b105b1561105f575f915050611092565b6110698184611917565b85118061107e57508261107c8287611917565b105b1561108c575f915050611092565b60019150505b9392505050565b5f805f806110a7868661119a565b9250925092506110b782826111e3565b5090949350505050565b6110c961129b565b5f8051602061195f833981519152805460ff191660011781557f62e78cea01bee320cd4e420270b5ea74000d11b0c9f74754ebdbfc544b05a25833610ff3565b6111116112cb565b610e8c57604051631afcd79f60e31b815260040160405180910390fd5b6111388282610b59565b6111675760405163e2517d3f60e01b81526001600160a01b0382166004820152602481018390526044016108b6565b5050565b5f8051602061195f8339815191525460ff16610e8c57604051638dfc202b60e01b815260040160405180910390fd5b5f805f83516041036111d1576020840151604085015160608601515f1a6111c3888285856112e4565b9550955095505050506111dc565b505081515f91506002905b9250925092565b5f8260038111156111f6576111f661192a565b036111ff575050565b60018260038111156112135761121361192a565b036112315760405163f645eedf60e01b815260040160405180910390fd5b60028260038111156112455761124561192a565b036112665760405163fce698f760e01b8152600481018290526024016108b6565b600382600381111561127a5761127a61192a565b03611167576040516335e2f38360e21b8152600481018290526024016108b6565b5f8051602061195f8339815191525460ff1615610e8c5760405163d93c066560e01b815260040160405180910390fd5b5f6112d4610e5c565b54600160401b900460ff16919050565b5f80807f7fffffffffffffffffffffffffffffff5d576e7357a4501ddfe92f46681b20a084111561131d57505f915060039050826113a2565b604080515f808252602082018084528a905260ff891692820192909252606081018790526080810186905260019060a0016020604051602081039080840390855afa15801561136e573d5f803e3d5ffd5b5050604051601f1901519150506001600160a01b03811661139957505f9250600191508290506113a2565b92505f91508190505b9450945094915050565b5f602082840312156113bc575f80fd5b81356001600160e01b031981168114611092575f80fd5b6001600160a01b0381168114610752575f80fd5b5f805f805f8060c087890312156113fc575f80fd5b86359550602087013594506040870135611415816113d3565b93506060870135611425816113d3565b92506080870135611435816113d3565b915060a0870135611445816113d3565b809150509295509295509295565b5f60208284031215611463575f80fd5b5035919050565b5f806040838503121561147b575f80fd5b82359150602083013561148d816113d3565b809150509250929050565b5f602082840312156114a8575f80fd5b813567ffffffffffffffff8111156114be575f80fd5b820160a08185031215611092575f80fd5b60ff81168114610752575f80fd5b634e487b7160e01b5f52604160045260245ffd5b5f805f805f60a08688031215611505575f80fd5b853594506020860135611517816114cf565b93506040860135925060608601359150608086013567ffffffffffffffff811115611540575f80fd5b8601601f81018813611550575f80fd5b803567ffffffffffffffff81111561156a5761156a6114dd565b604051601f8201601f19908116603f0116810167ffffffffffffffff81118282101715611599576115996114dd565b6040528181528282016020018a10156115b0575f80fd5b816020840160208301375f602083830101528093505050509295509295909350565b5f602082840312156115e2575f80fd5b8135611092816114cf565b5f808335601e19843603018112611602575f80fd5b83018035915067ffffffffffffffff82111561161c575f80fd5b602001915036819003821315611630575f80fd5b9250929050565b634e487b7160e01b5f52601160045260245ffd5b8181038181111561054957610549611637565b808202811582820484141761054957610549611637565b805169ffffffffffffffffffff8116811461168e575f80fd5b919050565b5f805f805f60a086880312156116a7575f80fd5b6116b086611675565b602087015160408801516060890151929750909550935091506116d560808701611675565b90509295509295909350565b8082025f8212600160ff1b841416156116fc576116fc611637565b818105831482151761054957610549611637565b634e487b7160e01b5f52601260045260245ffd5b5f8261173257611732611710565b600160ff1b82145f198414161561174b5761174b611637565b500590565b5f60208284031215611760575f80fd5b8151611092816113d3565b805161ffff8116811461168e575f80fd5b5f805f805f805f60e0888a031215611792575f80fd5b875161179d816113d3565b8097505060208801518060020b81146117b4575f80fd5b95506117c26040890161176b565b94506117d06060890161176b565b93506117de6080890161176b565b925060a08801516117ee816114cf565b60c08901519092508015158114611803575f80fd5b8091505092959891949750929550565b5f8261182157611821611710565b500490565b6001815b60018411156118615780850481111561184557611845611637565b600184161561185357908102905b60019390931c92800261182a565b935093915050565b5f8261187757506001610549565b8161188357505f610549565b816001811461189957600281146118a3576118bf565b6001915050610549565b60ff8411156118b4576118b4611637565b50506001821b610549565b5060208310610133831016604e8410600b84101617156118e2575081810a610549565b6118ee5f198484611826565b805f190482111561190157611901611637565b029392505050565b5f61109260ff841683611869565b8082018082111561054957610549611637565b634e487b7160e01b5f52602160045260245ffdfe02dd7bc7dec4dceedda775e58dd541e08a116c6c53815c0bd028192f7b626800cd5ed15c6e187e77e9aee88184c21f4f2182ab5827cb3b7e07fbedcd63f03300a2646970667358221220ddd3f31a27c1946ccce6332cf1f63d392317b9ac6f9fc3517c13c71f83abaf4b64736f6c634300081a0033","linkReferences":{}},"methodIdentifiers":{"DEFAULT_ADMIN_ROLE()":"a217fddf","PAUSER_ROLE()":"e63ab1e9","PRICE_FEED_ETH_USD()":"dd77cc36","PRICE_PRECISION()":"95082d25","SIGNER_ROLE()":"a1ebf35d","attestationService((uint256,uint8,uint256,bytes32,bytes))":"65ab8c71","config()":"79502c55","getChainlinkDataFeedLatestAnswer()":"bea4dfb5","getRoleAdmin(bytes32)":"248a9ca3","getUniswapV3WethUsdcPrice()":"dd5bfe33","grantRole(bytes32,address)":"2f2ff15d","hasRole(bytes32,address)":"91d14854","initialize(uint256,uint256,address,address,address,address)":"10e51e14","lastPrices(bytes32)":"d67e343c","maxDeviationPercentage()":"f780d9bc","pause()":"8456cb59","paused()":"5c975abb","priceProvider()":"b888879e","renounceRole(bytes32,address)":"36568abe","revokeRole(bytes32,address)":"d547741f","setMaxDeviationPercentage(uint256)":"451a579d","supportsInterface(bytes4)":"01ffc9a7","uniswapRouter()":"735de9f7","unpause()":"3f4ba83a","usdcAddress()":"02d45457","verifySignature(uint256,uint8,uint256,bytes32,bytes)":"6ccba2ac"},"storageLayout":{"storage":[{"astId":52855,"contract":"src/PriceOracle.sol:PriceOracle","label":"maxDeviationPercentage","offset":0,"slot":"0","type":"t_uint256"},{"astId":52862,"contract":"src/PriceOracle.sol:PriceOracle","label":"usdcAddress","offset":0,"slot":"1","type":"t_address"},{"astId":52864,"contract":"src/PriceOracle.sol:PriceOracle","label":"priceProvider","offset":0,"slot":"2","type":"t_address"},{"astId":52867,"contract":"src/PriceOracle.sol:PriceOracle","label":"config","offset":0,"slot":"3","type":"t_struct(PriceConfig)52860_storage"},{"astId":52877,"contract":"src/PriceOracle.sol:PriceOracle","label":"lastPrices","offset":0,"slot":"5","type":"t_mapping(t_bytes32,t_struct(PriceResponse)57254_storage)"},{"astId":52880,"contract":"src/PriceOracle.sol:PriceOracle","label":"uniswapRouter","offset":0,"slot":"6","type":"t_contract(IUniswapV2Router02)50960"},{"astId":52883,"contract":"src/PriceOracle.sol:PriceOracle","label":"dataFeed","offset":0,"slot":"7","type":"t_contract(AggregatorV3Interface)45"}],"types":{"t_address":{"encoding":"inplace","label":"address","numberOfBytes":"20"},"t_bytes32":{"encoding":"inplace","label":"bytes32","numberOfBytes":"32"},"t_contract(AggregatorV3Interface)45":{"encoding":"inplace","label":"contract AggregatorV3Interface","numberOfBytes":"20"},"t_contract(IUniswapV2Router02)50960":{"encoding":"inplace","label":"contract IUniswapV2Router02","numberOfBytes":"20"},"t_mapping(t_bytes32,t_struct(PriceResponse)57254_storage)":{"encoding":"mapping","key":"t_bytes32","label":"mapping(bytes32 => struct IPriceOracle.PriceResponse)","numberOfBytes":"32","value":"t_struct(PriceResponse)57254_storage"},"t_struct(PriceConfig)52860_storage":{"encoding":"inplace","label":"struct PriceOracle.PriceConfig","numberOfBytes":"64","members":[{"astId":52857,"contract":"src/PriceOracle.sol:PriceOracle","label":"maxPriceDeviation","offset":0,"slot":"0","type":"t_uint256"},{"astId":52859,"contract":"src/PriceOracle.sol:PriceOracle","label":"priceStalenessPeriod","offset":0,"slot":"1","type":"t_uint256"}]},"t_struct(PriceResponse)57254_storage":{"encoding":"inplace","label":"struct IPriceOracle.PriceResponse","numberOfBytes":"96","members":[{"astId":57249,"contract":"src/PriceOracle.sol:PriceOracle","label":"price","offset":0,"slot":"0","type":"t_uint256"},{"astId":57251,"contract":"src/PriceOracle.sol:PriceOracle","label":"decimals","offset":0,"slot":"1","type":"t_uint8"},{"astId":57253,"contract":"src/PriceOracle.sol:PriceOracle","label":"timestamp","offset":0,"slot":"2","type":"t_uint256"}]},"t_uint256":{"encoding":"inplace","label":"uint256","numberOfBytes":"32"},"t_uint8":{"encoding":"inplace","label":"uint8","numberOfBytes":"1"}}},"id":73}