{"abi":[{"type":"constructor","inputs":[],"stateMutability":"nonpayable"},{"type":"function","name":"DEFAULT_ADMIN_ROLE","inputs":[],"outputs":[{"name":"","type":"bytes32","internalType":"bytes32"}],"stateMutability":"view"},{"type":"function","name":"ETH_USD_ASSET_PAIR","inputs":[],"outputs":[{"name":"","type":"bytes32","internalType":"bytes32"}],"stateMutability":"view"},{"type":"function","name":"MAX_DEVIATION_BPS","inputs":[],"outputs":[{"name":"","type":"uint256","internalType":"uint256"}],"stateMutability":"view"},{"type":"function","name":"MAX_STALENESS_PERIOD_SECONDS","inputs":[],"outputs":[{"name":"","type":"uint256","internalType":"uint256"}],"stateMutability":"view"},{"type":"function","name":"PAUSER_ROLE","inputs":[],"outputs":[{"name":"","type":"bytes32","internalType":"bytes32"}],"stateMutability":"view"},{"type":"function","name":"PRICE_PRECISION","inputs":[],"outputs":[{"name":"","type":"uint256","internalType":"uint256"}],"stateMutability":"view"},{"type":"function","name":"SIGNER_ROLE","inputs":[],"outputs":[{"name":"","type":"bytes32","internalType":"bytes32"}],"stateMutability":"view"},{"type":"function","name":"UPGRADER_ROLE","inputs":[],"outputs":[{"name":"","type":"bytes32","internalType":"bytes32"}],"stateMutability":"view"},{"type":"function","name":"UPGRADE_INTERFACE_VERSION","inputs":[],"outputs":[{"name":"","type":"string","internalType":"string"}],"stateMutability":"view"},{"type":"function","name":"attestationService","inputs":[{"name":"priceQuery","type":"tuple","internalType":"struct IPriceOracle.PriceAttestationQuery","components":[{"name":"price","type":"uint256","internalType":"uint256"},{"name":"decimals","type":"uint8","internalType":"uint8"},{"name":"dataTimestamp","type":"uint256","internalType":"uint256"},{"name":"assetPair","type":"bytes32","internalType":"bytes32"},{"name":"signature","type":"bytes","internalType":"bytes"}]}],"outputs":[{"name":"","type":"tuple","internalType":"struct IPriceOracle.PriceResponse","components":[{"name":"price","type":"uint256","internalType":"uint256"},{"name":"decimals","type":"uint8","internalType":"uint8"},{"name":"timestamp","type":"uint256","internalType":"uint256"}]}],"stateMutability":"payable"},{"type":"function","name":"config","inputs":[],"outputs":[{"name":"maxPriceDeviation","type":"uint256","internalType":"uint256"},{"name":"priceStalenessPeriod","type":"uint256","internalType":"uint256"}],"stateMutability":"view"},{"type":"function","name":"getChainlinkDataFeedLatestAnswer","inputs":[],"outputs":[{"name":"","type":"int256","internalType":"int256"}],"stateMutability":"view"},{"type":"function","name":"getRoleAdmin","inputs":[{"name":"role","type":"bytes32","internalType":"bytes32"}],"outputs":[{"name":"","type":"bytes32","internalType":"bytes32"}],"stateMutability":"view"},{"type":"function","name":"getUniswapV3WethUsdcPrice","inputs":[],"outputs":[{"name":"","type":"uint256","internalType":"uint256"}],"stateMutability":"view"},{"type":"function","name":"grantRole","inputs":[{"name":"role","type":"bytes32","internalType":"bytes32"},{"name":"account","type":"address","internalType":"address"}],"outputs":[],"stateMutability":"nonpayable"},{"type":"function","name":"hasRole","inputs":[{"name":"role","type":"bytes32","internalType":"bytes32"},{"name":"account","type":"address","internalType":"address"}],"outputs":[{"name":"","type":"bool","internalType":"bool"}],"stateMutability":"view"},{"type":"function","name":"initialize","inputs":[{"name":"_maxPriceDeviation","type":"uint256","internalType":"uint256"},{"name":"_priceStalenessPeriod","type":"uint256","internalType":"uint256"},{"name":"_usdcAddress","type":"address","internalType":"address"},{"name":"_uniswapRouter","type":"address","internalType":"address"},{"name":"_chainlinkAggregator","type":"address","internalType":"address"},{"name":"_admin","type":"address","internalType":"address"}],"outputs":[],"stateMutability":"nonpayable"},{"type":"function","name":"lastAttestationTimestamp","inputs":[],"outputs":[{"name":"","type":"uint256","internalType":"uint256"}],"stateMutability":"view"},{"type":"function","name":"lastPrices","inputs":[{"name":"","type":"bytes32","internalType":"bytes32"}],"outputs":[{"name":"price","type":"uint256","internalType":"uint256"},{"name":"decimals","type":"uint8","internalType":"uint8"},{"name":"timestamp","type":"uint256","internalType":"uint256"}],"stateMutability":"view"},{"type":"function","name":"pause","inputs":[],"outputs":[],"stateMutability":"nonpayable"},{"type":"function","name":"paused","inputs":[],"outputs":[{"name":"","type":"bool","internalType":"bool"}],"stateMutability":"view"},{"type":"function","name":"priceProvider","inputs":[],"outputs":[{"name":"","type":"address","internalType":"address"}],"stateMutability":"view"},{"type":"function","name":"proxiableUUID","inputs":[],"outputs":[{"name":"","type":"bytes32","internalType":"bytes32"}],"stateMutability":"view"},{"type":"function","name":"renounceRole","inputs":[{"name":"role","type":"bytes32","internalType":"bytes32"},{"name":"callerConfirmation","type":"address","internalType":"address"}],"outputs":[],"stateMutability":"nonpayable"},{"type":"function","name":"revokeRole","inputs":[{"name":"role","type":"bytes32","internalType":"bytes32"},{"name":"account","type":"address","internalType":"address"}],"outputs":[],"stateMutability":"nonpayable"},{"type":"function","name":"setMaxDeviationPercentage","inputs":[{"name":"_maxDeviationPercentage","type":"uint256","internalType":"uint256"}],"outputs":[],"stateMutability":"nonpayable"},{"type":"function","name":"setPriceStalenessPeriod","inputs":[{"name":"_priceStalenessPeriod","type":"uint256","internalType":"uint256"}],"outputs":[],"stateMutability":"nonpayable"},{"type":"function","name":"supportsInterface","inputs":[{"name":"interfaceId","type":"bytes4","internalType":"bytes4"}],"outputs":[{"name":"","type":"bool","internalType":"bool"}],"stateMutability":"view"},{"type":"function","name":"uniswapRouter","inputs":[],"outputs":[{"name":"","type":"address","internalType":"contract IUniswapV2Router02"}],"stateMutability":"view"},{"type":"function","name":"unpause","inputs":[],"outputs":[],"stateMutability":"nonpayable"},{"type":"function","name":"upgradeToAndCall","inputs":[{"name":"newImplementation","type":"address","internalType":"address"},{"name":"data","type":"bytes","internalType":"bytes"}],"outputs":[],"stateMutability":"payable"},{"type":"function","name":"usdcAddress","inputs":[],"outputs":[{"name":"","type":"address","internalType":"address"}],"stateMutability":"view"},{"type":"function","name":"verifySignature","inputs":[{"name":"price","type":"uint256","internalType":"uint256"},{"name":"decimals","type":"uint8","internalType":"uint8"},{"name":"timestamp","type":"uint256","internalType":"uint256"},{"name":"assetPair","type":"bytes32","internalType":"bytes32"},{"name":"signature","type":"bytes","internalType":"bytes"}],"outputs":[{"name":"","type":"address","internalType":"address"}],"stateMutability":"pure"},{"type":"event","name":"Initialized","inputs":[{"name":"version","type":"uint64","indexed":false,"internalType":"uint64"}],"anonymous":false},{"type":"event","name":"Paused","inputs":[{"name":"account","type":"address","indexed":false,"internalType":"address"}],"anonymous":false},{"type":"event","name":"RoleAdminChanged","inputs":[{"name":"role","type":"bytes32","indexed":true,"internalType":"bytes32"},{"name":"previousAdminRole","type":"bytes32","indexed":true,"internalType":"bytes32"},{"name":"newAdminRole","type":"bytes32","indexed":true,"internalType":"bytes32"}],"anonymous":false},{"type":"event","name":"RoleGranted","inputs":[{"name":"role","type":"bytes32","indexed":true,"internalType":"bytes32"},{"name":"account","type":"address","indexed":true,"internalType":"address"},{"name":"sender","type":"address","indexed":true,"internalType":"address"}],"anonymous":false},{"type":"event","name":"RoleRevoked","inputs":[{"name":"role","type":"bytes32","indexed":true,"internalType":"bytes32"},{"name":"account","type":"address","indexed":true,"internalType":"address"},{"name":"sender","type":"address","indexed":true,"internalType":"address"}],"anonymous":false},{"type":"event","name":"Unpaused","inputs":[{"name":"account","type":"address","indexed":false,"internalType":"address"}],"anonymous":false},{"type":"event","name":"Upgraded","inputs":[{"name":"implementation","type":"address","indexed":true,"internalType":"address"}],"anonymous":false},{"type":"error","name":"AccessControlBadConfirmation","inputs":[]},{"type":"error","name":"AccessControlUnauthorizedAccount","inputs":[{"name":"account","type":"address","internalType":"address"},{"name":"neededRole","type":"bytes32","internalType":"bytes32"}]},{"type":"error","name":"AddressEmptyCode","inputs":[{"name":"target","type":"address","internalType":"address"}]},{"type":"error","name":"ECDSAInvalidSignature","inputs":[]},{"type":"error","name":"ECDSAInvalidSignatureLength","inputs":[{"name":"length","type":"uint256","internalType":"uint256"}]},{"type":"error","name":"ECDSAInvalidSignatureS","inputs":[{"name":"s","type":"bytes32","internalType":"bytes32"}]},{"type":"error","name":"ERC1967InvalidImplementation","inputs":[{"name":"implementation","type":"address","internalType":"address"}]},{"type":"error","name":"ERC1967NonPayable","inputs":[]},{"type":"error","name":"EnforcedPause","inputs":[]},{"type":"error","name":"ExpectedPause","inputs":[]},{"type":"error","name":"FailedCall","inputs":[]},{"type":"error","name":"InvalidAssetPair","inputs":[{"name":"expected","type":"bytes32","internalType":"bytes32"},{"name":"actual","type":"bytes32","internalType":"bytes32"}]},{"type":"error","name":"InvalidDecimals","inputs":[{"name":"expected","type":"uint8","internalType":"uint8"},{"name":"actual","type":"uint8","internalType":"uint8"}]},{"type":"error","name":"InvalidInitialization","inputs":[]},{"type":"error","name":"InvalidSignature","inputs":[]},{"type":"error","name":"MaxDeviationTooHigh","inputs":[{"name":"provided","type":"uint256","internalType":"uint256"},{"name":"maxAllowed","type":"uint256","internalType":"uint256"}]},{"type":"error","name":"NotInitializing","inputs":[]},{"type":"error","name":"OraclePaused","inputs":[]},{"type":"error","name":"PriceDataTooOld","inputs":[{"name":"timestamp","type":"uint256","internalType":"uint256"},{"name":"currentTime","type":"uint256","internalType":"uint256"}]},{"type":"error","name":"PriceDeviationTooHigh","inputs":[{"name":"morpherPrice","type":"uint256","internalType":"uint256"},{"name":"chainlinkPrice","type":"uint256","internalType":"uint256"},{"name":"uniswapPrice","type":"uint256","internalType":"uint256"}]},{"type":"error","name":"PriceSourceUnavailable","inputs":[{"name":"source","type":"string","internalType":"string"}]},{"type":"error","name":"StaleAttestation","inputs":[{"name":"lastTimestamp","type":"uint256","internalType":"uint256"},{"name":"providedTimestamp","type":"uint256","internalType":"uint256"}]},{"type":"error","name":"StalenessPeriodTooHigh","inputs":[{"name":"provided","type":"uint256","internalType":"uint256"},{"name":"maxAllowed","type":"uint256","internalType":"uint256"}]},{"type":"error","name":"UUPSUnauthorizedCallContext","inputs":[]},{"type":"error","name":"UUPSUnsupportedProxiableUUID","inputs":[{"name":"slot","type":"bytes32","internalType":"bytes32"}]},{"type":"error","name":"ZeroAddressProvided","inputs":[{"name":"field","type":"string","internalType":"string"}]}],"bytecode":{"object":"0x60a060405230608052348015610013575f5ffd5b5061001c610021565b6100d3565b7ff0c57e16840df040f15088dc2f81fe391c3923bec73e23a9662efc9c229c6a00805468010000000000000000900460ff16156100715760405163f92ee8a960e01b815260040160405180910390fd5b80546001600160401b03908116146100d05780546001600160401b0319166001600160401b0390811782556040519081527fc7f505b2f371ae2175ee4913f4499e1f2633a7b5936321eed1cdaeb6115181d29060200160405180910390a15b50565b6080516122ca6100f95f395f81816114b4015281816114dd015261163e01526122ca5ff3fe6080604052600436106101e6575f3560e01c8063735de9f711610108578063b888879e1161009d578063d547741f1161006d578063d547741f14610596578063d67e343c146105b5578063dd5bfe331461060f578063e63ab1e914610623578063f72c0d8b14610656575f5ffd5b8063b888879e1461051b578063bea4dfb51461053a578063bef99f521461054e578063c9f0bf0314610563575f5ffd5b806395082d25116100d857806395082d251461047d578063a1ebf35d14610498578063a217fddf146104cb578063ad3cb1cc146104de575f5ffd5b8063735de9f7146103fc57806379502c551461041b5780638456cb591461044a57806391d148541461045e575f5ffd5b806336568abe1161017e57806352d1902d1161014e57806352d1902d1461036e5780635c975abb1461038257806365ab8c71146103a55780636ccba2ac146103dd575f5ffd5b806336568abe146103095780633f4ba83a14610328578063451a579d1461033c5780634f1ef2861461035b575f5ffd5b8063238c92da116101b9578063238c92da14610294578063248a9ca3146102b657806325c68403146102d55780632f2ff15d146102ea575f5ffd5b806301ffc9a7146101ea57806302d454571461021e5780630dd388d01461025457806310e51e1414610275575b5f5ffd5b3480156101f5575f5ffd5b50610209610204366004611be1565b610689565b60405190151581526020015b60405180910390f35b348015610229575f5ffd5b505f5461023c906001600160a01b031681565b6040516001600160a01b039091168152602001610215565b34801561025f575f5ffd5b5061027361026e366004611c08565b610699565b005b348015610280575f5ffd5b5061027361028f366004611c33565b6106da565b34801561029f575f5ffd5b506102a8607881565b604051908152602001610215565b3480156102c1575f5ffd5b506102a86102d0366004611c08565b6109d2565b3480156102e0575f5ffd5b506102a86101f481565b3480156102f5575f5ffd5b50610273610304366004611c9f565b6109f2565b348015610314575f5ffd5b50610273610323366004611c9f565b610a14565b348015610333575f5ffd5b50610273610a4c565b348015610347575f5ffd5b50610273610356366004611c08565b610a81565b610273610369366004611d6c565b610abf565b348015610379575f5ffd5b506102a8610ade565b34801561038d575f5ffd5b505f5160206122755f395f51905f525460ff16610209565b6103b86103b3366004611db9565b610af9565b604080518251815260208084015160ff16908201529181015190820152606001610215565b3480156103e8575f5ffd5b5061023c6103f7366004611dfe565b610e5c565b348015610407575f5ffd5b5060065461023c906001600160a01b031681565b348015610426575f5ffd5b50600354600454610435919082565b60408051928352602083019190915201610215565b348015610455575f5ffd5b50610273610f69565b348015610469575f5ffd5b50610209610478366004611c9f565b610f9b565b348015610488575f5ffd5b506102a8670de0b6b3a764000081565b3480156104a3575f5ffd5b506102a87fe2f4eaae4a9751e85a3e4a7b9587827a877f29914755229b07a7b2da98285f7081565b3480156104d6575f5ffd5b506102a85f81565b3480156104e9575f5ffd5b5061050e604051806040016040528060058152602001640352e302e360dc1b81525081565b6040516102159190611e66565b348015610526575f5ffd5b5060015461023c906001600160a01b031681565b348015610545575f5ffd5b506102a8610fd1565b348015610559575f5ffd5b506102a860025481565b34801561056e575f5ffd5b506102a87f267fb830456e0b64582e3058e563e93c21b337432aecaf19f4b3dee7d6faa07881565b3480156105a1575f5ffd5b506102736105b0366004611c9f565b6110cd565b3480156105c0575f5ffd5b506105f26105cf366004611c08565b60056020525f9081526040902080546001820154600290920154909160ff169083565b6040805193845260ff909216602084015290820152606001610215565b34801561061a575f5ffd5b506102a86110e9565b34801561062e575f5ffd5b506102a87f65d7a28e3265b37a6474929f336521b332c1681b933f6cb9f3376673440d862a81565b348015610661575f5ffd5b506102a87f189ab7a9244df0848122154315af71fe140f3db0fe014031783b0946b8c9d2e381565b5f610693826112c0565b92915050565b5f6106a3816112f4565b60788211156106d457604051632b4055b360e21b815260048101839052607860248201526044015b60405180910390fd5b50600455565b5f6106e36112fe565b805490915060ff600160401b820416159067ffffffffffffffff165f8115801561070a5750825b90505f8267ffffffffffffffff1660011480156107265750303b155b905081158015610734575080155b156107525760405163f92ee8a960e01b815260040160405180910390fd5b845467ffffffffffffffff19166001178555831561077c57845460ff60401b1916600160401b1785555b6001600160a01b0389166107bc576040516356af9c8160e01b81526004016106cb906020808252600490820152635553444360e01b604082015260600190565b6001600160a01b038816610804576040516356af9c8160e01b815260206004820152600e60248201526d2ab734b9bbb0b8102937baba32b960911b60448201526064016106cb565b6001600160a01b038716610852576040516356af9c8160e01b815260206004820152601460248201527321b430b4b73634b7359020b3b3b932b3b0ba37b960611b60448201526064016106cb565b6001600160a01b038616610891576040516356af9c8160e01b815260206004820152600560248201526420b236b4b760d91b60448201526064016106cb565b6101f48b11156108bf576040516358b471f360e01b8152600481018c90526101f460248201526044016106cb565b60788a11156108eb57604051632b4055b360e21b8152600481018b9052607860248201526044016106cb565b6108f3611326565b6108fb611326565b610903611326565b61090d5f87611330565b506109387f189ab7a9244df0848122154315af71fe140f3db0fe014031783b0946b8c9d2e387611330565b5060038b905560048a90555f80546001600160a01b03808c166001600160a01b031992831617909255600680548b841690831617905560078054928a169290911691909117905583156109c557845460ff60401b19168555604051600181527fc7f505b2f371ae2175ee4913f4499e1f2633a7b5936321eed1cdaeb6115181d29060200160405180910390a15b5050505050505050505050565b5f9081525f5160206122555f395f51905f52602052604090206001015490565b6109fb826109d2565b610a04816112f4565b610a0e8383611330565b50505050565b6001600160a01b0381163314610a3d5760405163334bd91960e11b815260040160405180910390fd5b610a4782826113d1565b505050565b7f65d7a28e3265b37a6474929f336521b332c1681b933f6cb9f3376673440d862a610a76816112f4565b610a7e61144a565b50565b5f610a8b816112f4565b6101f4821115610ab9576040516358b471f360e01b8152600481018390526101f460248201526044016106cb565b50600355565b610ac76114a9565b610ad08261154d565b610ada8282611577565b5050565b5f610ae7611633565b505f5160206122355f395f51905f5290565b610b1d60405180606001604052805f81526020015f60ff1681526020015f81525090565b5f5160206122755f395f51905f525460ff1615610b4d5760405163e28b705360e01b815260040160405180910390fd5b7f267fb830456e0b64582e3058e563e93c21b337432aecaf19f4b3dee7d6faa078826060013514610bbd57604051634750117760e01b81527f267fb830456e0b64582e3058e563e93c21b337432aecaf19f4b3dee7d6faa0786004820152606083013560248201526044016106cb565b5f610c238335610bd36040860160208701611e9b565b60408601356060870135610bea6080890189611eb6565b8080601f0160208091040260200160405190810160405280939291908181526020018383808284375f92019190915250610e5c92505050565b9050610c4f7fe2f4eaae4a9751e85a3e4a7b9587827a877f29914755229b07a7b2da98285f7082610f9b565b610c6c57604051638baa579f60e01b815260040160405180910390fd5b600254610c7f6040850135613a98611f14565b1015610cae5760025460408051639e9b3e7560e01b8152600481019290925284013560248201526044016106cb565b610cbe6040840160208501611e9b565b60ff16601214610d00576012610cda6040850160208601611e9b565b60405163047e54d360e31b815260ff9283166004820152911660248201526044016106cb565b600454610d0d9042611f27565b610d19906103e8611f3a565b836040013511610d48576040805163195c727d60e01b81529084013560048201524260248201526044016106cb565b46600103610e1c575f610d59610fd1565b9050805f03610d97576040516314e7f62b60e31b8152602060048201526009602482015268436861696e6c696e6b60b81b60448201526064016106cb565b5f610da06110e9565b9050805f03610ddf576040516314e7f62b60e31b815260206004820152600a602482015269556e697377617020563360b01b60448201526064016106cb565b610deb8535838361167c565b610e195760405163e9b5646f60e01b81528535600482015260248101839052604481018290526064016106cb565b50505b6040808401803560025581516060810190925284358252602080830191610e44918701611e9b565b60ff1681526020018460400135815250915050919050565b5f5f86868686604051602001610e98949392919093845260f89290921b6001600160f81b03191660208401526021830152604182015260610190565b6040516020818303038152906040528051906020012090505f81604051602001610eee91907f19457468657265756d205369676e6564204d6573736167653a0a3332000000008152601c810191909152603c0190565b6040516020818303038152906040528051906020012090505f610f118286611704565b90506001600160a01b038116610f5d5760405162461bcd60e51b8152602060048201526011602482015270496e76616c6964207369676e617475726560781b60448201526064016106cb565b98975050505050505050565b7f65d7a28e3265b37a6474929f336521b332c1681b933f6cb9f3376673440d862a610f93816112f4565b610a7e61172c565b5f9182525f5160206122555f395f51905f52602090815260408084206001600160a01b0393909316845291905290205460ff1690565b5f5f5f60075f9054906101000a90046001600160a01b03166001600160a01b031663feaf968c6040518163ffffffff1660e01b815260040160a060405180830381865afa158015611024573d5f5f3e3d5ffd5b505050506040513d601f19601f820116820180604052508101906110489190611f6f565b50935050925050610e10814261105e9190611f27565b106110a5576040516314e7f62b60e31b8152602060048201526016602482015275436861696e6c696e6b204f7261636c65205374616c6560501b60448201526064016106cb565b6305f5e1006110bc83670de0b6b3a7640000611fbd565b6110c69190612000565b9250505090565b6110d6826109d2565b6110df816112f4565b610a0e83836113d1565b5f5f731f98431c8ad98523631ae4a59f267346ea31f98490505f816001600160a01b0316631698ee8260065f9054906101000a90046001600160a01b03166001600160a01b031663ad5c46486040518163ffffffff1660e01b8152600401602060405180830381865afa158015611162573d5f5f3e3d5ffd5b505050506040513d601f19601f82011682018060405250810190611186919061202c565b5f5460405160e084901b6001600160e01b03191681526001600160a01b03928316600482015291166024820152610bb86044820152606401602060405180830381865afa1580156111d9573d5f5f3e3d5ffd5b505050506040513d601f19601f820116820180604052508101906111fd919061202c565b90506001600160a01b038116156112b8575f8190505f816001600160a01b0316633850c7bd6040518163ffffffff1660e01b815260040160e060405180830381865afa15801561124f573d5f5f3e3d5ffd5b505050506040513d601f19601f820116820180604052508101906112739190612058565b5050505050506001600160a01b031690506002600160601b8261129691906120ef565b6112a091906121e5565b6112af9064e8d4a51000611f3a565b94505050505090565b5f9250505090565b5f6001600160e01b03198216637965db0b60e01b148061069357506301ffc9a760e01b6001600160e01b0319831614610693565b610a7e8133611774565b5f807ff0c57e16840df040f15088dc2f81fe391c3923bec73e23a9662efc9c229c6a00610693565b61132e6117ad565b565b5f5f5160206122555f395f51905f526113498484610f9b565b6113c8575f848152602082815260408083206001600160a01b03871684529091529020805460ff1916600117905561137e3390565b6001600160a01b0316836001600160a01b0316857f2f8788117e7eff1d82e926ec794901d17c78024a50270940304540a733656f0d60405160405180910390a46001915050610693565b5f915050610693565b5f5f5160206122555f395f51905f526113ea8484610f9b565b156113c8575f848152602082815260408083206001600160a01b0387168085529252808320805460ff1916905551339287917ff6391f5c32d9c69d2a47ea670b442974b53935d1edc7fd64eb21e047a839171b9190a46001915050610693565b6114526117d2565b5f5160206122755f395f51905f52805460ff191681557f5db9ee0a495bf2e6ff9c91a7834c1ba4fdd244a5e8aa4e537bd38aeae4b073aa335b6040516001600160a01b03909116815260200160405180910390a150565b306001600160a01b037f000000000000000000000000000000000000000000000000000000000000000016148061152f57507f00000000000000000000000000000000000000000000000000000000000000006001600160a01b03166115235f5160206122355f395f51905f52546001600160a01b031690565b6001600160a01b031614155b1561132e5760405163703e46dd60e11b815260040160405180910390fd5b7f189ab7a9244df0848122154315af71fe140f3db0fe014031783b0946b8c9d2e3610ada816112f4565b816001600160a01b03166352d1902d6040518163ffffffff1660e01b8152600401602060405180830381865afa9250505080156115d1575060408051601f3d908101601f191682019092526115ce918101906121f3565b60015b6115f957604051634c9c8ce360e01b81526001600160a01b03831660048201526024016106cb565b5f5160206122355f395f51905f52811461162957604051632a87526960e21b8152600481018290526024016106cb565b610a478383611801565b306001600160a01b037f0000000000000000000000000000000000000000000000000000000000000000161461132e5760405163703e46dd60e11b815260040160405180910390fd5b5f5f61271060035f0154866116919190611f3a565b61169b91906120ef565b90506116a78185611f14565b8511806116bc5750836116ba8287611f14565b105b156116ca575f9150506116fd565b6116d48184611f14565b8511806116e95750826116e78287611f14565b105b156116f7575f9150506116fd565b60019150505b9392505050565b5f5f5f5f6117128686611856565b925092509250611722828261189f565b5090949350505050565b611734611957565b5f5160206122755f395f51905f52805460ff191660011781557f62e78cea01bee320cd4e420270b5ea74000d11b0c9f74754ebdbfc544b05a2583361148b565b61177e8282610f9b565b610ada5760405163e2517d3f60e01b81526001600160a01b0382166004820152602481018390526044016106cb565b6117b5611987565b61132e57604051631afcd79f60e31b815260040160405180910390fd5b5f5160206122755f395f51905f525460ff1661132e57604051638dfc202b60e01b815260040160405180910390fd5b61180a826119a0565b6040516001600160a01b038316907fbc7cd75a20ee27fd9adebab32041f755214dbc6bffa90cc0225b39da2e5c2d3b905f90a280511561184e57610a478282611a03565b610ada611a75565b5f5f5f835160410361188d576020840151604085015160608601515f1a61187f88828585611a94565b955095509550505050611898565b505081515f91506002905b9250925092565b5f8260038111156118b2576118b261220a565b036118bb575050565b60018260038111156118cf576118cf61220a565b036118ed5760405163f645eedf60e01b815260040160405180910390fd5b60028260038111156119015761190161220a565b036119225760405163fce698f760e01b8152600481018290526024016106cb565b60038260038111156119365761193661220a565b03610ada576040516335e2f38360e21b8152600481018290526024016106cb565b5f5160206122755f395f51905f525460ff161561132e5760405163d93c066560e01b815260040160405180910390fd5b5f6119906112fe565b54600160401b900460ff16919050565b806001600160a01b03163b5f036119d557604051634c9c8ce360e01b81526001600160a01b03821660048201526024016106cb565b5f5160206122355f395f51905f5280546001600160a01b0319166001600160a01b0392909216919091179055565b60605f5f846001600160a01b031684604051611a1f919061221e565b5f60405180830381855af49150503d805f8114611a57576040519150601f19603f3d011682016040523d82523d5f602084013e611a5c565b606091505b5091509150611a6c858383611b5c565b95945050505050565b341561132e5760405163b398979f60e01b815260040160405180910390fd5b5f80807f7fffffffffffffffffffffffffffffff5d576e7357a4501ddfe92f46681b20a0841115611acd57505f91506003905082611b52565b604080515f808252602082018084528a905260ff891692820192909252606081018790526080810186905260019060a0016020604051602081039080840390855afa158015611b1e573d5f5f3e3d5ffd5b5050604051601f1901519150506001600160a01b038116611b4957505f925060019150829050611b52565b92505f91508190505b9450945094915050565b606082611b7157611b6c82611bb8565b6116fd565b8151158015611b8857506001600160a01b0384163b155b15611bb157604051639996b31560e01b81526001600160a01b03851660048201526024016106cb565b50806116fd565b805115611bc85780518082602001fd5b60405163d6bda27560e01b815260040160405180910390fd5b5f60208284031215611bf1575f5ffd5b81356001600160e01b0319811681146116fd575f5ffd5b5f60208284031215611c18575f5ffd5b5035919050565b6001600160a01b0381168114610a7e575f5ffd5b5f5f5f5f5f5f60c08789031215611c48575f5ffd5b86359550602087013594506040870135611c6181611c1f565b93506060870135611c7181611c1f565b92506080870135611c8181611c1f565b915060a0870135611c9181611c1f565b809150509295509295509295565b5f5f60408385031215611cb0575f5ffd5b823591506020830135611cc281611c1f565b809150509250929050565b634e487b7160e01b5f52604160045260245ffd5b5f82601f830112611cf0575f5ffd5b813567ffffffffffffffff811115611d0a57611d0a611ccd565b604051601f8201601f19908116603f0116810167ffffffffffffffff81118282101715611d3957611d39611ccd565b604052818152838201602001851015611d50575f5ffd5b816020850160208301375f918101602001919091529392505050565b5f5f60408385031215611d7d575f5ffd5b8235611d8881611c1f565b9150602083013567ffffffffffffffff811115611da3575f5ffd5b611daf85828601611ce1565b9150509250929050565b5f60208284031215611dc9575f5ffd5b813567ffffffffffffffff811115611ddf575f5ffd5b820160a081850312156116fd575f5ffd5b60ff81168114610a7e575f5ffd5b5f5f5f5f5f60a08688031215611e12575f5ffd5b853594506020860135611e2481611df0565b93506040860135925060608601359150608086013567ffffffffffffffff811115611e4d575f5ffd5b611e5988828901611ce1565b9150509295509295909350565b602081525f82518060208401528060208501604085015e5f604082850101526040601f19601f83011684010191505092915050565b5f60208284031215611eab575f5ffd5b81356116fd81611df0565b5f5f8335601e19843603018112611ecb575f5ffd5b83018035915067ffffffffffffffff821115611ee5575f5ffd5b602001915036819003821315611ef9575f5ffd5b9250929050565b634e487b7160e01b5f52601160045260245ffd5b8082018082111561069357610693611f00565b8181038181111561069357610693611f00565b808202811582820484141761069357610693611f00565b805169ffffffffffffffffffff81168114611f6a575f5ffd5b919050565b5f5f5f5f5f60a08688031215611f83575f5ffd5b611f8c86611f51565b60208701516040880151606089015192975090955093509150611fb160808701611f51565b90509295509295909350565b8082025f8212600160ff1b84141615611fd857611fd8611f00565b818105831482151761069357610693611f00565b634e487b7160e01b5f52601260045260245ffd5b5f8261200e5761200e611fec565b600160ff1b82145f198414161561202757612027611f00565b500590565b5f6020828403121561203c575f5ffd5b81516116fd81611c1f565b805161ffff81168114611f6a575f5ffd5b5f5f5f5f5f5f5f60e0888a03121561206e575f5ffd5b875161207981611c1f565b8097505060208801518060020b8114612090575f5ffd5b955061209e60408901612047565b94506120ac60608901612047565b93506120ba60808901612047565b925060a08801516120ca81611df0565b60c089015190925080151581146120df575f5ffd5b8091505092959891949750929550565b5f826120fd576120fd611fec565b500490565b6001815b600184111561213d5780850481111561212157612121611f00565b600184161561212f57908102905b60019390931c928002612106565b935093915050565b5f8261215357506001610693565b8161215f57505f610693565b8160018114612175576002811461217f5761219b565b6001915050610693565b60ff84111561219057612190611f00565b50506001821b610693565b5060208310610133831016604e8410600b84101617156121be575081810a610693565b6121ca5f198484612102565b805f19048211156121dd576121dd611f00565b029392505050565b5f6116fd60ff841683612145565b5f60208284031215612203575f5ffd5b5051919050565b634e487b7160e01b5f52602160045260245ffd5b5f82518060208501845e5f92019182525091905056fe360894a13ba1a3210667c828492db98dca3e2076cc3735a920a3ca505d382bbc02dd7bc7dec4dceedda775e58dd541e08a116c6c53815c0bd028192f7b626800cd5ed15c6e187e77e9aee88184c21f4f2182ab5827cb3b7e07fbedcd63f03300a264697066735822122001815bfacb463bc204566a3d561874fe1593f204fc68c7c30d5f89dca79161cd64736f6c634300081d0033","linkReferences":{}},"methodIdentifiers":{"DEFAULT_ADMIN_ROLE()":"a217fddf","ETH_USD_ASSET_PAIR()":"c9f0bf03","MAX_DEVIATION_BPS()":"25c68403","MAX_STALENESS_PERIOD_SECONDS()":"238c92da","PAUSER_ROLE()":"e63ab1e9","PRICE_PRECISION()":"95082d25","SIGNER_ROLE()":"a1ebf35d","UPGRADER_ROLE()":"f72c0d8b","UPGRADE_INTERFACE_VERSION()":"ad3cb1cc","attestationService((uint256,uint8,uint256,bytes32,bytes))":"65ab8c71","config()":"79502c55","getChainlinkDataFeedLatestAnswer()":"bea4dfb5","getRoleAdmin(bytes32)":"248a9ca3","getUniswapV3WethUsdcPrice()":"dd5bfe33","grantRole(bytes32,address)":"2f2ff15d","hasRole(bytes32,address)":"91d14854","initialize(uint256,uint256,address,address,address,address)":"10e51e14","lastAttestationTimestamp()":"bef99f52","lastPrices(bytes32)":"d67e343c","pause()":"8456cb59","paused()":"5c975abb","priceProvider()":"b888879e","proxiableUUID()":"52d1902d","renounceRole(bytes32,address)":"36568abe","revokeRole(bytes32,address)":"d547741f","setMaxDeviationPercentage(uint256)":"451a579d","setPriceStalenessPeriod(uint256)":"0dd388d0","supportsInterface(bytes4)":"01ffc9a7","uniswapRouter()":"735de9f7","unpause()":"3f4ba83a","upgradeToAndCall(address,bytes)":"4f1ef286","usdcAddress()":"02d45457","verifySignature(uint256,uint8,uint256,bytes32,bytes)":"6ccba2ac"},"storageLayout":{"storage":[{"astId":53548,"contract":"src/PriceOracle.sol:PriceOracle","label":"usdcAddress","offset":0,"slot":"0","type":"t_address"},{"astId":53550,"contract":"src/PriceOracle.sol:PriceOracle","label":"priceProvider","offset":0,"slot":"1","type":"t_address"},{"astId":53552,"contract":"src/PriceOracle.sol:PriceOracle","label":"lastAttestationTimestamp","offset":0,"slot":"2","type":"t_uint256"},{"astId":53555,"contract":"src/PriceOracle.sol:PriceOracle","label":"config","offset":0,"slot":"3","type":"t_struct(PriceConfig)53546_storage"},{"astId":53560,"contract":"src/PriceOracle.sol:PriceOracle","label":"lastPrices","offset":0,"slot":"5","type":"t_mapping(t_bytes32,t_struct(PriceResponse)59266_storage)"},{"astId":53563,"contract":"src/PriceOracle.sol:PriceOracle","label":"uniswapRouter","offset":0,"slot":"6","type":"t_contract(IUniswapV2Router02)51045"},{"astId":53566,"contract":"src/PriceOracle.sol:PriceOracle","label":"dataFeed","offset":0,"slot":"7","type":"t_contract(AggregatorV3Interface)45"}],"types":{"t_address":{"encoding":"inplace","label":"address","numberOfBytes":"20"},"t_bytes32":{"encoding":"inplace","label":"bytes32","numberOfBytes":"32"},"t_contract(AggregatorV3Interface)45":{"encoding":"inplace","label":"contract AggregatorV3Interface","numberOfBytes":"20"},"t_contract(IUniswapV2Router02)51045":{"encoding":"inplace","label":"contract IUniswapV2Router02","numberOfBytes":"20"},"t_mapping(t_bytes32,t_struct(PriceResponse)59266_storage)":{"encoding":"mapping","key":"t_bytes32","label":"mapping(bytes32 => struct IPriceOracle.PriceResponse)","numberOfBytes":"32","value":"t_struct(PriceResponse)59266_storage"},"t_struct(PriceConfig)53546_storage":{"encoding":"inplace","label":"struct PriceOracle.PriceConfig","numberOfBytes":"64","members":[{"astId":53543,"contract":"src/PriceOracle.sol:PriceOracle","label":"maxPriceDeviation","offset":0,"slot":"0","type":"t_uint256"},{"astId":53545,"contract":"src/PriceOracle.sol:PriceOracle","label":"priceStalenessPeriod","offset":0,"slot":"1","type":"t_uint256"}]},"t_struct(PriceResponse)59266_storage":{"encoding":"inplace","label":"struct IPriceOracle.PriceResponse","numberOfBytes":"96","members":[{"astId":59261,"contract":"src/PriceOracle.sol:PriceOracle","label":"price","offset":0,"slot":"0","type":"t_uint256"},{"astId":59263,"contract":"src/PriceOracle.sol:PriceOracle","label":"decimals","offset":0,"slot":"1","type":"t_uint8"},{"astId":59265,"contract":"src/PriceOracle.sol:PriceOracle","label":"timestamp","offset":0,"slot":"2","type":"t_uint256"}]},"t_uint256":{"encoding":"inplace","label":"uint256","numberOfBytes":"32"},"t_uint8":{"encoding":"inplace","label":"uint8","numberOfBytes":"1"}}},"id":76}