{"abi":[{"type":"constructor","inputs":[],"stateMutability":"nonpayable"},{"type":"function","name":"DEFAULT_ADMIN_ROLE","inputs":[],"outputs":[{"name":"","type":"bytes32","internalType":"bytes32"}],"stateMutability":"view"},{"type":"function","name":"PAUSER_ROLE","inputs":[],"outputs":[{"name":"","type":"bytes32","internalType":"bytes32"}],"stateMutability":"view"},{"type":"function","name":"PRICE_FEED_ETH_USD","inputs":[],"outputs":[{"name":"","type":"bytes32","internalType":"bytes32"}],"stateMutability":"view"},{"type":"function","name":"PRICE_PRECISION","inputs":[],"outputs":[{"name":"","type":"uint256","internalType":"uint256"}],"stateMutability":"view"},{"type":"function","name":"SIGNER_ROLE","inputs":[],"outputs":[{"name":"","type":"bytes32","internalType":"bytes32"}],"stateMutability":"view"},{"type":"function","name":"UPGRADER_ROLE","inputs":[],"outputs":[{"name":"","type":"bytes32","internalType":"bytes32"}],"stateMutability":"view"},{"type":"function","name":"UPGRADE_INTERFACE_VERSION","inputs":[],"outputs":[{"name":"","type":"string","internalType":"string"}],"stateMutability":"view"},{"type":"function","name":"attestationService","inputs":[{"name":"priceQuery","type":"tuple","internalType":"struct IPriceOracle.PriceAttestationQuery","components":[{"name":"price","type":"uint256","internalType":"uint256"},{"name":"decimals","type":"uint8","internalType":"uint8"},{"name":"dataTimestamp","type":"uint256","internalType":"uint256"},{"name":"assetPair","type":"bytes32","internalType":"bytes32"},{"name":"signature","type":"bytes","internalType":"bytes"}]}],"outputs":[{"name":"","type":"tuple","internalType":"struct IPriceOracle.PriceResponse","components":[{"name":"price","type":"uint256","internalType":"uint256"},{"name":"decimals","type":"uint8","internalType":"uint8"},{"name":"timestamp","type":"uint256","internalType":"uint256"}]}],"stateMutability":"payable"},{"type":"function","name":"config","inputs":[],"outputs":[{"name":"maxPriceDeviation","type":"uint256","internalType":"uint256"},{"name":"priceStalenessPeriod","type":"uint256","internalType":"uint256"}],"stateMutability":"view"},{"type":"function","name":"getChainlinkDataFeedLatestAnswer","inputs":[],"outputs":[{"name":"","type":"int256","internalType":"int256"}],"stateMutability":"view"},{"type":"function","name":"getRoleAdmin","inputs":[{"name":"role","type":"bytes32","internalType":"bytes32"}],"outputs":[{"name":"","type":"bytes32","internalType":"bytes32"}],"stateMutability":"view"},{"type":"function","name":"getUniswapV3WethUsdcPrice","inputs":[],"outputs":[{"name":"","type":"uint256","internalType":"uint256"}],"stateMutability":"view"},{"type":"function","name":"grantRole","inputs":[{"name":"role","type":"bytes32","internalType":"bytes32"},{"name":"account","type":"address","internalType":"address"}],"outputs":[],"stateMutability":"nonpayable"},{"type":"function","name":"hasRole","inputs":[{"name":"role","type":"bytes32","internalType":"bytes32"},{"name":"account","type":"address","internalType":"address"}],"outputs":[{"name":"","type":"bool","internalType":"bool"}],"stateMutability":"view"},{"type":"function","name":"initialize","inputs":[{"name":"_maxPriceDeviation","type":"uint256","internalType":"uint256"},{"name":"_priceStalenessPeriod","type":"uint256","internalType":"uint256"},{"name":"_usdcAddress","type":"address","internalType":"address"},{"name":"_uniswapRouter","type":"address","internalType":"address"},{"name":"_chainlinkAggregator","type":"address","internalType":"address"},{"name":"_admin","type":"address","internalType":"address"}],"outputs":[],"stateMutability":"nonpayable"},{"type":"function","name":"lastPrices","inputs":[{"name":"","type":"bytes32","internalType":"bytes32"}],"outputs":[{"name":"price","type":"uint256","internalType":"uint256"},{"name":"decimals","type":"uint8","internalType":"uint8"},{"name":"timestamp","type":"uint256","internalType":"uint256"}],"stateMutability":"view"},{"type":"function","name":"maxDeviationPercentage","inputs":[],"outputs":[{"name":"","type":"uint256","internalType":"uint256"}],"stateMutability":"view"},{"type":"function","name":"pause","inputs":[],"outputs":[],"stateMutability":"nonpayable"},{"type":"function","name":"paused","inputs":[],"outputs":[{"name":"","type":"bool","internalType":"bool"}],"stateMutability":"view"},{"type":"function","name":"priceProvider","inputs":[],"outputs":[{"name":"","type":"address","internalType":"address"}],"stateMutability":"view"},{"type":"function","name":"proxiableUUID","inputs":[],"outputs":[{"name":"","type":"bytes32","internalType":"bytes32"}],"stateMutability":"view"},{"type":"function","name":"renounceRole","inputs":[{"name":"role","type":"bytes32","internalType":"bytes32"},{"name":"callerConfirmation","type":"address","internalType":"address"}],"outputs":[],"stateMutability":"nonpayable"},{"type":"function","name":"revokeRole","inputs":[{"name":"role","type":"bytes32","internalType":"bytes32"},{"name":"account","type":"address","internalType":"address"}],"outputs":[],"stateMutability":"nonpayable"},{"type":"function","name":"setMaxDeviationPercentage","inputs":[{"name":"_maxDeviationPercentage","type":"uint256","internalType":"uint256"}],"outputs":[],"stateMutability":"nonpayable"},{"type":"function","name":"supportsInterface","inputs":[{"name":"interfaceId","type":"bytes4","internalType":"bytes4"}],"outputs":[{"name":"","type":"bool","internalType":"bool"}],"stateMutability":"view"},{"type":"function","name":"uniswapRouter","inputs":[],"outputs":[{"name":"","type":"address","internalType":"contract IUniswapV2Router02"}],"stateMutability":"view"},{"type":"function","name":"unpause","inputs":[],"outputs":[],"stateMutability":"nonpayable"},{"type":"function","name":"upgradeToAndCall","inputs":[{"name":"newImplementation","type":"address","internalType":"address"},{"name":"data","type":"bytes","internalType":"bytes"}],"outputs":[],"stateMutability":"payable"},{"type":"function","name":"usdcAddress","inputs":[],"outputs":[{"name":"","type":"address","internalType":"address"}],"stateMutability":"view"},{"type":"function","name":"verifySignature","inputs":[{"name":"price","type":"uint256","internalType":"uint256"},{"name":"decimals","type":"uint8","internalType":"uint8"},{"name":"timestamp","type":"uint256","internalType":"uint256"},{"name":"assetPair","type":"bytes32","internalType":"bytes32"},{"name":"signature","type":"bytes","internalType":"bytes"}],"outputs":[{"name":"","type":"address","internalType":"address"}],"stateMutability":"pure"},{"type":"event","name":"Initialized","inputs":[{"name":"version","type":"uint64","indexed":false,"internalType":"uint64"}],"anonymous":false},{"type":"event","name":"Paused","inputs":[{"name":"account","type":"address","indexed":false,"internalType":"address"}],"anonymous":false},{"type":"event","name":"RoleAdminChanged","inputs":[{"name":"role","type":"bytes32","indexed":true,"internalType":"bytes32"},{"name":"previousAdminRole","type":"bytes32","indexed":true,"internalType":"bytes32"},{"name":"newAdminRole","type":"bytes32","indexed":true,"internalType":"bytes32"}],"anonymous":false},{"type":"event","name":"RoleGranted","inputs":[{"name":"role","type":"bytes32","indexed":true,"internalType":"bytes32"},{"name":"account","type":"address","indexed":true,"internalType":"address"},{"name":"sender","type":"address","indexed":true,"internalType":"address"}],"anonymous":false},{"type":"event","name":"RoleRevoked","inputs":[{"name":"role","type":"bytes32","indexed":true,"internalType":"bytes32"},{"name":"account","type":"address","indexed":true,"internalType":"address"},{"name":"sender","type":"address","indexed":true,"internalType":"address"}],"anonymous":false},{"type":"event","name":"Unpaused","inputs":[{"name":"account","type":"address","indexed":false,"internalType":"address"}],"anonymous":false},{"type":"event","name":"Upgraded","inputs":[{"name":"implementation","type":"address","indexed":true,"internalType":"address"}],"anonymous":false},{"type":"error","name":"AccessControlBadConfirmation","inputs":[]},{"type":"error","name":"AccessControlUnauthorizedAccount","inputs":[{"name":"account","type":"address","internalType":"address"},{"name":"neededRole","type":"bytes32","internalType":"bytes32"}]},{"type":"error","name":"AddressEmptyCode","inputs":[{"name":"target","type":"address","internalType":"address"}]},{"type":"error","name":"ECDSAInvalidSignature","inputs":[]},{"type":"error","name":"ECDSAInvalidSignatureLength","inputs":[{"name":"length","type":"uint256","internalType":"uint256"}]},{"type":"error","name":"ECDSAInvalidSignatureS","inputs":[{"name":"s","type":"bytes32","internalType":"bytes32"}]},{"type":"error","name":"ERC1967InvalidImplementation","inputs":[{"name":"implementation","type":"address","internalType":"address"}]},{"type":"error","name":"ERC1967NonPayable","inputs":[]},{"type":"error","name":"EnforcedPause","inputs":[]},{"type":"error","name":"ExpectedPause","inputs":[]},{"type":"error","name":"FailedCall","inputs":[]},{"type":"error","name":"InvalidDecimals","inputs":[{"name":"expected","type":"uint8","internalType":"uint8"},{"name":"actual","type":"uint8","internalType":"uint8"}]},{"type":"error","name":"InvalidInitialization","inputs":[]},{"type":"error","name":"InvalidSignature","inputs":[]},{"type":"error","name":"NotInitializing","inputs":[]},{"type":"error","name":"OraclePaused","inputs":[]},{"type":"error","name":"PriceDataTooOld","inputs":[{"name":"timestamp","type":"uint256","internalType":"uint256"},{"name":"currentTime","type":"uint256","internalType":"uint256"}]},{"type":"error","name":"PriceDeviationTooHigh","inputs":[{"name":"morpherPrice","type":"uint256","internalType":"uint256"},{"name":"chainlinkPrice","type":"uint256","internalType":"uint256"},{"name":"uniswapPrice","type":"uint256","internalType":"uint256"}]},{"type":"error","name":"PriceSourceUnavailable","inputs":[{"name":"source","type":"string","internalType":"string"}]},{"type":"error","name":"UUPSUnauthorizedCallContext","inputs":[]},{"type":"error","name":"UUPSUnsupportedProxiableUUID","inputs":[{"name":"slot","type":"bytes32","internalType":"bytes32"}]}],"bytecode":{"object":"0x60a0604052306080526101f45f55348015610018575f5ffd5b50610021610026565b6100d8565b7ff0c57e16840df040f15088dc2f81fe391c3923bec73e23a9662efc9c229c6a00805468010000000000000000900460ff16156100765760405163f92ee8a960e01b815260040160405180910390fd5b80546001600160401b03908116146100d55780546001600160401b0319166001600160401b0390811782556040519081527fc7f505b2f371ae2175ee4913f4499e1f2633a7b5936321eed1cdaeb6115181d29060200160405180910390a15b50565b608051611f806100fe5f395f818161116a0152818161119301526112f40152611f805ff3fe6080604052600436106101c5575f3560e01c80638456cb59116100f2578063bea4dfb511610092578063dd77cc3611610062578063dd77cc3614610573578063e63ab1e9146105a6578063f72c0d8b146105d9578063f780d9bc1461060c575f5ffd5b8063bea4dfb5146104d2578063d547741f146104e6578063d67e343c14610505578063dd5bfe331461055f575f5ffd5b8063a1ebf35d116100cd578063a1ebf35d14610430578063a217fddf14610463578063ad3cb1cc14610476578063b888879e146104b3575f5ffd5b80638456cb59146103e257806391d14854146103f657806395082d2514610415575f5ffd5b8063451a579d1161016857806365ab8c711161013857806365ab8c711461033d5780636ccba2ac14610375578063735de9f71461039457806379502c55146103b3575f5ffd5b8063451a579d146102d45780634f1ef286146102f357806352d1902d146103065780635c975abb1461031a575f5ffd5b8063248a9ca3116101a3578063248a9ca3146102555780632f2ff15d1461028257806336568abe146102a15780633f4ba83a146102c0575f5ffd5b806301ffc9a7146101c957806302d45457146101fd57806310e51e1414610234575b5f5ffd5b3480156101d4575f5ffd5b506101e86101e3366004611897565b610620565b60405190151581526020015b60405180910390f35b348015610208575f5ffd5b5060015461021c906001600160a01b031681565b6040516001600160a01b0390911681526020016101f4565b34801561023f575f5ffd5b5061025361024e3660046118d2565b610630565b005b348015610260575f5ffd5b5061027461026f36600461193e565b6107ba565b6040519081526020016101f4565b34801561028d575f5ffd5b5061025361029c366004611955565b6107da565b3480156102ac575f5ffd5b506102536102bb366004611955565b6107fc565b3480156102cb575f5ffd5b50610253610834565b3480156102df575f5ffd5b506102536102ee36600461193e565b610869565b610253610301366004611a22565b610879565b348015610311575f5ffd5b50610274610898565b348015610325575f5ffd5b505f516020611f2b5f395f51905f525460ff166101e8565b61035061034b366004611a6f565b6108b3565b604080518251815260208084015160ff169082015291810151908201526060016101f4565b348015610380575f5ffd5b5061021c61038f366004611ab4565b610b68565b34801561039f575f5ffd5b5060065461021c906001600160a01b031681565b3480156103be575f5ffd5b506003546004546103cd919082565b604080519283526020830191909152016101f4565b3480156103ed575f5ffd5b50610253610c75565b348015610401575f5ffd5b506101e8610410366004611955565b610ca7565b348015610420575f5ffd5b50610274670de0b6b3a764000081565b34801561043b575f5ffd5b506102747fe2f4eaae4a9751e85a3e4a7b9587827a877f29914755229b07a7b2da98285f7081565b34801561046e575f5ffd5b506102745f81565b348015610481575f5ffd5b506104a6604051806040016040528060058152602001640352e302e360dc1b81525081565b6040516101f49190611b1c565b3480156104be575f5ffd5b5060025461021c906001600160a01b031681565b3480156104dd575f5ffd5b50610274610cdd565b3480156104f1575f5ffd5b50610253610500366004611955565b610d82565b348015610510575f5ffd5b5061054261051f36600461193e565b60056020525f9081526040902080546001820154600290920154909160ff169083565b6040805193845260ff9092166020840152908201526060016101f4565b34801561056a575f5ffd5b50610274610d9e565b34801561057e575f5ffd5b506102747f267fb830456e0b64582e3058e563e93c21b337432aecaf19f4b3dee7d6faa07881565b3480156105b1575f5ffd5b506102747f65d7a28e3265b37a6474929f336521b332c1681b933f6cb9f3376673440d862a81565b3480156105e4575f5ffd5b506102747f189ab7a9244df0848122154315af71fe140f3db0fe014031783b0946b8c9d2e381565b348015610617575f5ffd5b506102745f5481565b5f61062a82610f76565b92915050565b5f610639610faa565b805490915060ff600160401b820416159067ffffffffffffffff165f811580156106605750825b90505f8267ffffffffffffffff16600114801561067c5750303b155b90508115801561068a575080155b156106a85760405163f92ee8a960e01b815260040160405180910390fd5b845467ffffffffffffffff1916600117855583156106d257845460ff60401b1916600160401b1785555b6106da610fd2565b6106e2610fd2565b6106ea610fd2565b6106f45f87610fdc565b5061071f7f189ab7a9244df0848122154315af71fe140f3db0fe014031783b0946b8c9d2e387610fdc565b5060038b905560048a9055600180546001600160a01b03808c166001600160a01b031992831617909255600680548b841690831617905560078054928a169290911691909117905583156107ad57845460ff60401b19168555604051600181527fc7f505b2f371ae2175ee4913f4499e1f2633a7b5936321eed1cdaeb6115181d29060200160405180910390a15b5050505050505050505050565b5f9081525f516020611f0b5f395f51905f52602052604090206001015490565b6107e3826107ba565b6107ec8161107d565b6107f68383610fdc565b50505050565b6001600160a01b03811633146108255760405163334bd91960e11b815260040160405180910390fd5b61082f8282611087565b505050565b7f65d7a28e3265b37a6474929f336521b332c1681b933f6cb9f3376673440d862a61085e8161107d565b610866611100565b50565b5f6108738161107d565b50600355565b61088161115f565b61088a82611203565b610894828261122d565b5050565b5f6108a16112e9565b505f516020611eeb5f395f51905f5290565b6108d760405180606001604052805f81526020015f60ff1681526020015f81525090565b5f516020611f2b5f395f51905f525460ff16156109075760405163e28b705360e01b815260040160405180910390fd5b5f61096d833561091d6040860160208701611b51565b604086013560608701356109346080890189611b6c565b8080601f0160208091040260200160405190810160405280939291908181526020018383808284375f92019190915250610b6892505050565b90506109997fe2f4eaae4a9751e85a3e4a7b9587827a877f29914755229b07a7b2da98285f7082610ca7565b6109b657604051638baa579f60e01b815260040160405180910390fd5b6109c66040840160208501611b51565b60ff16601214610a0d5760126109e26040850160208601611b51565b60405163047e54d360e31b815260ff9283166004820152911660248201526044015b60405180910390fd5b600454610a1a9042611bca565b610a26906103e8611bdd565b836040013511610a55576040805163195c727d60e01b8152908401356004820152426024820152604401610a04565b46600103610b29575f610a66610cdd565b9050805f03610aa4576040516314e7f62b60e31b8152602060048201526009602482015268436861696e6c696e6b60b81b6044820152606401610a04565b5f610aad610d9e565b9050805f03610aec576040516314e7f62b60e31b815260206004820152600a602482015269556e697377617020563360b01b6044820152606401610a04565b610af885358383611332565b610b265760405163e9b5646f60e01b8152853560048201526024810183905260448101829052606401610a04565b50505b6040518060600160405280845f01358152602001846020016020810190610b509190611b51565b60ff1681526020018460400135815250915050919050565b5f5f86868686604051602001610ba4949392919093845260f89290921b6001600160f81b03191660208401526021830152604182015260610190565b6040516020818303038152906040528051906020012090505f81604051602001610bfa91907f19457468657265756d205369676e6564204d6573736167653a0a3332000000008152601c810191909152603c0190565b6040516020818303038152906040528051906020012090505f610c1d82866113ba565b90506001600160a01b038116610c695760405162461bcd60e51b8152602060048201526011602482015270496e76616c6964207369676e617475726560781b6044820152606401610a04565b98975050505050505050565b7f65d7a28e3265b37a6474929f336521b332c1681b933f6cb9f3376673440d862a610c9f8161107d565b6108666113e2565b5f9182525f516020611f0b5f395f51905f52602090815260408084206001600160a01b0393909316845291905290205460ff1690565b5f5f60075f9054906101000a90046001600160a01b03166001600160a01b031663feaf968c6040518163ffffffff1660e01b815260040160a060405180830381865afa158015610d2f573d5f5f3e3d5ffd5b505050506040513d601f19601f82011682018060405250810190610d539190611c12565b5050509150506305f5e10081670de0b6b3a7640000610d729190611c60565b610d7c9190611ca3565b91505090565b610d8b826107ba565b610d948161107d565b6107f68383611087565b5f5f731f98431c8ad98523631ae4a59f267346ea31f98490505f816001600160a01b0316631698ee8260065f9054906101000a90046001600160a01b03166001600160a01b031663ad5c46486040518163ffffffff1660e01b8152600401602060405180830381865afa158015610e17573d5f5f3e3d5ffd5b505050506040513d601f19601f82011682018060405250810190610e3b9190611ccf565b60015460405160e084901b6001600160e01b03191681526001600160a01b03928316600482015291166024820152610bb86044820152606401602060405180830381865afa158015610e8f573d5f5f3e3d5ffd5b505050506040513d601f19601f82011682018060405250810190610eb39190611ccf565b90506001600160a01b03811615610f6e575f8190505f816001600160a01b0316633850c7bd6040518163ffffffff1660e01b815260040160e060405180830381865afa158015610f05573d5f5f3e3d5ffd5b505050506040513d601f19601f82011682018060405250810190610f299190611cfb565b5050505050506001600160a01b031690506002600160601b82610f4c9190611d92565b610f569190611e88565b610f659064e8d4a51000611bdd565b94505050505090565b5f9250505090565b5f6001600160e01b03198216637965db0b60e01b148061062a57506301ffc9a760e01b6001600160e01b031983161461062a565b5f807ff0c57e16840df040f15088dc2f81fe391c3923bec73e23a9662efc9c229c6a0061062a565b610fda61142a565b565b5f5f516020611f0b5f395f51905f52610ff58484610ca7565b611074575f848152602082815260408083206001600160a01b03871684529091529020805460ff1916600117905561102a3390565b6001600160a01b0316836001600160a01b0316857f2f8788117e7eff1d82e926ec794901d17c78024a50270940304540a733656f0d60405160405180910390a4600191505061062a565b5f91505061062a565b610866813361144f565b5f5f516020611f0b5f395f51905f526110a08484610ca7565b15611074575f848152602082815260408083206001600160a01b0387168085529252808320805460ff1916905551339287917ff6391f5c32d9c69d2a47ea670b442974b53935d1edc7fd64eb21e047a839171b9190a4600191505061062a565b611108611488565b5f516020611f2b5f395f51905f52805460ff191681557f5db9ee0a495bf2e6ff9c91a7834c1ba4fdd244a5e8aa4e537bd38aeae4b073aa335b6040516001600160a01b03909116815260200160405180910390a150565b306001600160a01b037f00000000000000000000000000000000000000000000000000000000000000001614806111e557507f00000000000000000000000000000000000000000000000000000000000000006001600160a01b03166111d95f516020611eeb5f395f51905f52546001600160a01b031690565b6001600160a01b031614155b15610fda5760405163703e46dd60e11b815260040160405180910390fd5b7f189ab7a9244df0848122154315af71fe140f3db0fe014031783b0946b8c9d2e36108948161107d565b816001600160a01b03166352d1902d6040518163ffffffff1660e01b8152600401602060405180830381865afa925050508015611287575060408051601f3d908101601f1916820190925261128491810190611e96565b60015b6112af57604051634c9c8ce360e01b81526001600160a01b0383166004820152602401610a04565b5f516020611eeb5f395f51905f5281146112df57604051632a87526960e21b815260048101829052602401610a04565b61082f83836114b7565b306001600160a01b037f00000000000000000000000000000000000000000000000000000000000000001614610fda5760405163703e46dd60e11b815260040160405180910390fd5b5f5f61271060035f0154866113479190611bdd565b6113519190611d92565b905061135d8185611ead565b8511806113725750836113708287611ead565b105b15611380575f9150506113b3565b61138a8184611ead565b85118061139f57508261139d8287611ead565b105b156113ad575f9150506113b3565b60019150505b9392505050565b5f5f5f5f6113c8868661150c565b9250925092506113d88282611555565b5090949350505050565b6113ea61160d565b5f516020611f2b5f395f51905f52805460ff191660011781557f62e78cea01bee320cd4e420270b5ea74000d11b0c9f74754ebdbfc544b05a25833611141565b61143261163d565b610fda57604051631afcd79f60e31b815260040160405180910390fd5b6114598282610ca7565b6108945760405163e2517d3f60e01b81526001600160a01b038216600482015260248101839052604401610a04565b5f516020611f2b5f395f51905f525460ff16610fda57604051638dfc202b60e01b815260040160405180910390fd5b6114c082611656565b6040516001600160a01b038316907fbc7cd75a20ee27fd9adebab32041f755214dbc6bffa90cc0225b39da2e5c2d3b905f90a28051156115045761082f82826116b9565b61089461172b565b5f5f5f8351604103611543576020840151604085015160608601515f1a6115358882858561174a565b95509550955050505061154e565b505081515f91506002905b9250925092565b5f82600381111561156857611568611ec0565b03611571575050565b600182600381111561158557611585611ec0565b036115a35760405163f645eedf60e01b815260040160405180910390fd5b60028260038111156115b7576115b7611ec0565b036115d85760405163fce698f760e01b815260048101829052602401610a04565b60038260038111156115ec576115ec611ec0565b03610894576040516335e2f38360e21b815260048101829052602401610a04565b5f516020611f2b5f395f51905f525460ff1615610fda5760405163d93c066560e01b815260040160405180910390fd5b5f611646610faa565b54600160401b900460ff16919050565b806001600160a01b03163b5f0361168b57604051634c9c8ce360e01b81526001600160a01b0382166004820152602401610a04565b5f516020611eeb5f395f51905f5280546001600160a01b0319166001600160a01b0392909216919091179055565b60605f5f846001600160a01b0316846040516116d59190611ed4565b5f60405180830381855af49150503d805f811461170d576040519150601f19603f3d011682016040523d82523d5f602084013e611712565b606091505b5091509150611722858383611812565b95945050505050565b3415610fda5760405163b398979f60e01b815260040160405180910390fd5b5f80807f7fffffffffffffffffffffffffffffff5d576e7357a4501ddfe92f46681b20a084111561178357505f91506003905082611808565b604080515f808252602082018084528a905260ff891692820192909252606081018790526080810186905260019060a0016020604051602081039080840390855afa1580156117d4573d5f5f3e3d5ffd5b5050604051601f1901519150506001600160a01b0381166117ff57505f925060019150829050611808565b92505f91508190505b9450945094915050565b606082611827576118228261186e565b6113b3565b815115801561183e57506001600160a01b0384163b155b1561186757604051639996b31560e01b81526001600160a01b0385166004820152602401610a04565b50806113b3565b80511561187e5780518082602001fd5b60405163d6bda27560e01b815260040160405180910390fd5b5f602082840312156118a7575f5ffd5b81356001600160e01b0319811681146113b3575f5ffd5b6001600160a01b0381168114610866575f5ffd5b5f5f5f5f5f5f60c087890312156118e7575f5ffd5b86359550602087013594506040870135611900816118be565b93506060870135611910816118be565b92506080870135611920816118be565b915060a0870135611930816118be565b809150509295509295509295565b5f6020828403121561194e575f5ffd5b5035919050565b5f5f60408385031215611966575f5ffd5b823591506020830135611978816118be565b809150509250929050565b634e487b7160e01b5f52604160045260245ffd5b5f82601f8301126119a6575f5ffd5b813567ffffffffffffffff8111156119c0576119c0611983565b604051601f8201601f19908116603f0116810167ffffffffffffffff811182821017156119ef576119ef611983565b604052818152838201602001851015611a06575f5ffd5b816020850160208301375f918101602001919091529392505050565b5f5f60408385031215611a33575f5ffd5b8235611a3e816118be565b9150602083013567ffffffffffffffff811115611a59575f5ffd5b611a6585828601611997565b9150509250929050565b5f60208284031215611a7f575f5ffd5b813567ffffffffffffffff811115611a95575f5ffd5b820160a081850312156113b3575f5ffd5b60ff81168114610866575f5ffd5b5f5f5f5f5f60a08688031215611ac8575f5ffd5b853594506020860135611ada81611aa6565b93506040860135925060608601359150608086013567ffffffffffffffff811115611b03575f5ffd5b611b0f88828901611997565b9150509295509295909350565b602081525f82518060208401528060208501604085015e5f604082850101526040601f19601f83011684010191505092915050565b5f60208284031215611b61575f5ffd5b81356113b381611aa6565b5f5f8335601e19843603018112611b81575f5ffd5b83018035915067ffffffffffffffff821115611b9b575f5ffd5b602001915036819003821315611baf575f5ffd5b9250929050565b634e487b7160e01b5f52601160045260245ffd5b8181038181111561062a5761062a611bb6565b808202811582820484141761062a5761062a611bb6565b805169ffffffffffffffffffff81168114611c0d575f5ffd5b919050565b5f5f5f5f5f60a08688031215611c26575f5ffd5b611c2f86611bf4565b60208701516040880151606089015192975090955093509150611c5460808701611bf4565b90509295509295909350565b8082025f8212600160ff1b84141615611c7b57611c7b611bb6565b818105831482151761062a5761062a611bb6565b634e487b7160e01b5f52601260045260245ffd5b5f82611cb157611cb1611c8f565b600160ff1b82145f1984141615611cca57611cca611bb6565b500590565b5f60208284031215611cdf575f5ffd5b81516113b3816118be565b805161ffff81168114611c0d575f5ffd5b5f5f5f5f5f5f5f60e0888a031215611d11575f5ffd5b8751611d1c816118be565b8097505060208801518060020b8114611d33575f5ffd5b9550611d4160408901611cea565b9450611d4f60608901611cea565b9350611d5d60808901611cea565b925060a0880151611d6d81611aa6565b60c08901519092508015158114611d82575f5ffd5b8091505092959891949750929550565b5f82611da057611da0611c8f565b500490565b6001815b6001841115611de057808504811115611dc457611dc4611bb6565b6001841615611dd257908102905b60019390931c928002611da9565b935093915050565b5f82611df65750600161062a565b81611e0257505f61062a565b8160018114611e185760028114611e2257611e3e565b600191505061062a565b60ff841115611e3357611e33611bb6565b50506001821b61062a565b5060208310610133831016604e8410600b8410161715611e61575081810a61062a565b611e6d5f198484611da5565b805f1904821115611e8057611e80611bb6565b029392505050565b5f6113b360ff841683611de8565b5f60208284031215611ea6575f5ffd5b5051919050565b8082018082111561062a5761062a611bb6565b634e487b7160e01b5f52602160045260245ffd5b5f82518060208501845e5f92019182525091905056fe360894a13ba1a3210667c828492db98dca3e2076cc3735a920a3ca505d382bbc02dd7bc7dec4dceedda775e58dd541e08a116c6c53815c0bd028192f7b626800cd5ed15c6e187e77e9aee88184c21f4f2182ab5827cb3b7e07fbedcd63f03300a26469706673582212208bfb737024a9dac1bd3abf81eaff6f63539da5f0dd4799a3df80dfdc4f54885964736f6c634300081d0033","linkReferences":{}},"methodIdentifiers":{"DEFAULT_ADMIN_ROLE()":"a217fddf","PAUSER_ROLE()":"e63ab1e9","PRICE_FEED_ETH_USD()":"dd77cc36","PRICE_PRECISION()":"95082d25","SIGNER_ROLE()":"a1ebf35d","UPGRADER_ROLE()":"f72c0d8b","UPGRADE_INTERFACE_VERSION()":"ad3cb1cc","attestationService((uint256,uint8,uint256,bytes32,bytes))":"65ab8c71","config()":"79502c55","getChainlinkDataFeedLatestAnswer()":"bea4dfb5","getRoleAdmin(bytes32)":"248a9ca3","getUniswapV3WethUsdcPrice()":"dd5bfe33","grantRole(bytes32,address)":"2f2ff15d","hasRole(bytes32,address)":"91d14854","initialize(uint256,uint256,address,address,address,address)":"10e51e14","lastPrices(bytes32)":"d67e343c","maxDeviationPercentage()":"f780d9bc","pause()":"8456cb59","paused()":"5c975abb","priceProvider()":"b888879e","proxiableUUID()":"52d1902d","renounceRole(bytes32,address)":"36568abe","revokeRole(bytes32,address)":"d547741f","setMaxDeviationPercentage(uint256)":"451a579d","supportsInterface(bytes4)":"01ffc9a7","uniswapRouter()":"735de9f7","unpause()":"3f4ba83a","upgradeToAndCall(address,bytes)":"4f1ef286","usdcAddress()":"02d45457","verifySignature(uint256,uint8,uint256,bytes32,bytes)":"6ccba2ac"},"storageLayout":{"storage":[{"astId":53554,"contract":"src/PriceOracle.sol:PriceOracle","label":"maxDeviationPercentage","offset":0,"slot":"0","type":"t_uint256"},{"astId":53561,"contract":"src/PriceOracle.sol:PriceOracle","label":"usdcAddress","offset":0,"slot":"1","type":"t_address"},{"astId":53563,"contract":"src/PriceOracle.sol:PriceOracle","label":"priceProvider","offset":0,"slot":"2","type":"t_address"},{"astId":53566,"contract":"src/PriceOracle.sol:PriceOracle","label":"config","offset":0,"slot":"3","type":"t_struct(PriceConfig)53559_storage"},{"astId":53576,"contract":"src/PriceOracle.sol:PriceOracle","label":"lastPrices","offset":0,"slot":"5","type":"t_mapping(t_bytes32,t_struct(PriceResponse)59125_storage)"},{"astId":53579,"contract":"src/PriceOracle.sol:PriceOracle","label":"uniswapRouter","offset":0,"slot":"6","type":"t_contract(IUniswapV2Router02)51045"},{"astId":53582,"contract":"src/PriceOracle.sol:PriceOracle","label":"dataFeed","offset":0,"slot":"7","type":"t_contract(AggregatorV3Interface)45"}],"types":{"t_address":{"encoding":"inplace","label":"address","numberOfBytes":"20"},"t_bytes32":{"encoding":"inplace","label":"bytes32","numberOfBytes":"32"},"t_contract(AggregatorV3Interface)45":{"encoding":"inplace","label":"contract AggregatorV3Interface","numberOfBytes":"20"},"t_contract(IUniswapV2Router02)51045":{"encoding":"inplace","label":"contract IUniswapV2Router02","numberOfBytes":"20"},"t_mapping(t_bytes32,t_struct(PriceResponse)59125_storage)":{"encoding":"mapping","key":"t_bytes32","label":"mapping(bytes32 => struct IPriceOracle.PriceResponse)","numberOfBytes":"32","value":"t_struct(PriceResponse)59125_storage"},"t_struct(PriceConfig)53559_storage":{"encoding":"inplace","label":"struct PriceOracle.PriceConfig","numberOfBytes":"64","members":[{"astId":53556,"contract":"src/PriceOracle.sol:PriceOracle","label":"maxPriceDeviation","offset":0,"slot":"0","type":"t_uint256"},{"astId":53558,"contract":"src/PriceOracle.sol:PriceOracle","label":"priceStalenessPeriod","offset":0,"slot":"1","type":"t_uint256"}]},"t_struct(PriceResponse)59125_storage":{"encoding":"inplace","label":"struct IPriceOracle.PriceResponse","numberOfBytes":"96","members":[{"astId":59120,"contract":"src/PriceOracle.sol:PriceOracle","label":"price","offset":0,"slot":"0","type":"t_uint256"},{"astId":59122,"contract":"src/PriceOracle.sol:PriceOracle","label":"decimals","offset":0,"slot":"1","type":"t_uint8"},{"astId":59124,"contract":"src/PriceOracle.sol:PriceOracle","label":"timestamp","offset":0,"slot":"2","type":"t_uint256"}]},"t_uint256":{"encoding":"inplace","label":"uint256","numberOfBytes":"32"},"t_uint8":{"encoding":"inplace","label":"uint8","numberOfBytes":"1"}}},"id":76}