{"abi":[{"type":"constructor","inputs":[],"stateMutability":"nonpayable"},{"type":"function","name":"DEFAULT_ADMIN_ROLE","inputs":[],"outputs":[{"name":"","type":"bytes32","internalType":"bytes32"}],"stateMutability":"view"},{"type":"function","name":"ETH_USD_ASSET_PAIR","inputs":[],"outputs":[{"name":"","type":"bytes32","internalType":"bytes32"}],"stateMutability":"view"},{"type":"function","name":"MAX_DEVIATION_BPS","inputs":[],"outputs":[{"name":"","type":"uint256","internalType":"uint256"}],"stateMutability":"view"},{"type":"function","name":"MAX_STALENESS_PERIOD_SECONDS","inputs":[],"outputs":[{"name":"","type":"uint256","internalType":"uint256"}],"stateMutability":"view"},{"type":"function","name":"PAUSER_ROLE","inputs":[],"outputs":[{"name":"","type":"bytes32","internalType":"bytes32"}],"stateMutability":"view"},{"type":"function","name":"PRICE_PRECISION","inputs":[],"outputs":[{"name":"","type":"uint256","internalType":"uint256"}],"stateMutability":"view"},{"type":"function","name":"SIGNER_ROLE","inputs":[],"outputs":[{"name":"","type":"bytes32","internalType":"bytes32"}],"stateMutability":"view"},{"type":"function","name":"UPGRADER_ROLE","inputs":[],"outputs":[{"name":"","type":"bytes32","internalType":"bytes32"}],"stateMutability":"view"},{"type":"function","name":"UPGRADE_INTERFACE_VERSION","inputs":[],"outputs":[{"name":"","type":"string","internalType":"string"}],"stateMutability":"view"},{"type":"function","name":"attestationService","inputs":[{"name":"priceQuery","type":"tuple","internalType":"struct IPriceOracle.PriceAttestationQuery","components":[{"name":"price","type":"uint256","internalType":"uint256"},{"name":"decimals","type":"uint8","internalType":"uint8"},{"name":"dataTimestamp","type":"uint256","internalType":"uint256"},{"name":"assetPair","type":"bytes32","internalType":"bytes32"},{"name":"signature","type":"bytes","internalType":"bytes"}]}],"outputs":[{"name":"","type":"tuple","internalType":"struct IPriceOracle.PriceResponse","components":[{"name":"price","type":"uint256","internalType":"uint256"},{"name":"decimals","type":"uint8","internalType":"uint8"},{"name":"timestamp","type":"uint256","internalType":"uint256"}]}],"stateMutability":"payable"},{"type":"function","name":"config","inputs":[],"outputs":[{"name":"maxPriceDeviation","type":"uint256","internalType":"uint256"},{"name":"priceStalenessPeriod","type":"uint256","internalType":"uint256"}],"stateMutability":"view"},{"type":"function","name":"getChainlinkDataFeedLatestAnswer","inputs":[],"outputs":[{"name":"","type":"int256","internalType":"int256"}],"stateMutability":"view"},{"type":"function","name":"getRoleAdmin","inputs":[{"name":"role","type":"bytes32","internalType":"bytes32"}],"outputs":[{"name":"","type":"bytes32","internalType":"bytes32"}],"stateMutability":"view"},{"type":"function","name":"getUniswapV3WethUsdcPrice","inputs":[],"outputs":[{"name":"","type":"uint256","internalType":"uint256"}],"stateMutability":"view"},{"type":"function","name":"grantRole","inputs":[{"name":"role","type":"bytes32","internalType":"bytes32"},{"name":"account","type":"address","internalType":"address"}],"outputs":[],"stateMutability":"nonpayable"},{"type":"function","name":"hasRole","inputs":[{"name":"role","type":"bytes32","internalType":"bytes32"},{"name":"account","type":"address","internalType":"address"}],"outputs":[{"name":"","type":"bool","internalType":"bool"}],"stateMutability":"view"},{"type":"function","name":"initialize","inputs":[{"name":"_maxPriceDeviation","type":"uint256","internalType":"uint256"},{"name":"_priceStalenessPeriod","type":"uint256","internalType":"uint256"},{"name":"_usdcAddress","type":"address","internalType":"address"},{"name":"_uniswapRouter","type":"address","internalType":"address"},{"name":"_chainlinkAggregator","type":"address","internalType":"address"},{"name":"_admin","type":"address","internalType":"address"}],"outputs":[],"stateMutability":"nonpayable"},{"type":"function","name":"lastAttestationTimestamp","inputs":[],"outputs":[{"name":"","type":"uint256","internalType":"uint256"}],"stateMutability":"view"},{"type":"function","name":"lastPrices","inputs":[{"name":"","type":"bytes32","internalType":"bytes32"}],"outputs":[{"name":"price","type":"uint256","internalType":"uint256"},{"name":"decimals","type":"uint8","internalType":"uint8"},{"name":"timestamp","type":"uint256","internalType":"uint256"}],"stateMutability":"view"},{"type":"function","name":"pause","inputs":[],"outputs":[],"stateMutability":"nonpayable"},{"type":"function","name":"paused","inputs":[],"outputs":[{"name":"","type":"bool","internalType":"bool"}],"stateMutability":"view"},{"type":"function","name":"priceProvider","inputs":[],"outputs":[{"name":"","type":"address","internalType":"address"}],"stateMutability":"view"},{"type":"function","name":"proxiableUUID","inputs":[],"outputs":[{"name":"","type":"bytes32","internalType":"bytes32"}],"stateMutability":"view"},{"type":"function","name":"renounceRole","inputs":[{"name":"role","type":"bytes32","internalType":"bytes32"},{"name":"callerConfirmation","type":"address","internalType":"address"}],"outputs":[],"stateMutability":"nonpayable"},{"type":"function","name":"revokeRole","inputs":[{"name":"role","type":"bytes32","internalType":"bytes32"},{"name":"account","type":"address","internalType":"address"}],"outputs":[],"stateMutability":"nonpayable"},{"type":"function","name":"setMaxDeviationPercentage","inputs":[{"name":"_maxDeviationPercentage","type":"uint256","internalType":"uint256"}],"outputs":[],"stateMutability":"nonpayable"},{"type":"function","name":"setPriceStalenessPeriod","inputs":[{"name":"_priceStalenessPeriod","type":"uint256","internalType":"uint256"}],"outputs":[],"stateMutability":"nonpayable"},{"type":"function","name":"supportsInterface","inputs":[{"name":"interfaceId","type":"bytes4","internalType":"bytes4"}],"outputs":[{"name":"","type":"bool","internalType":"bool"}],"stateMutability":"view"},{"type":"function","name":"uniswapRouter","inputs":[],"outputs":[{"name":"","type":"address","internalType":"contract IUniswapV2Router02"}],"stateMutability":"view"},{"type":"function","name":"unpause","inputs":[],"outputs":[],"stateMutability":"nonpayable"},{"type":"function","name":"upgradeToAndCall","inputs":[{"name":"newImplementation","type":"address","internalType":"address"},{"name":"data","type":"bytes","internalType":"bytes"}],"outputs":[],"stateMutability":"payable"},{"type":"function","name":"usdcAddress","inputs":[],"outputs":[{"name":"","type":"address","internalType":"address"}],"stateMutability":"view"},{"type":"function","name":"verifySignature","inputs":[{"name":"price","type":"uint256","internalType":"uint256"},{"name":"decimals","type":"uint8","internalType":"uint8"},{"name":"timestamp","type":"uint256","internalType":"uint256"},{"name":"assetPair","type":"bytes32","internalType":"bytes32"},{"name":"signature","type":"bytes","internalType":"bytes"}],"outputs":[{"name":"","type":"address","internalType":"address"}],"stateMutability":"pure"},{"type":"event","name":"Initialized","inputs":[{"name":"version","type":"uint64","indexed":false,"internalType":"uint64"}],"anonymous":false},{"type":"event","name":"Paused","inputs":[{"name":"account","type":"address","indexed":false,"internalType":"address"}],"anonymous":false},{"type":"event","name":"RoleAdminChanged","inputs":[{"name":"role","type":"bytes32","indexed":true,"internalType":"bytes32"},{"name":"previousAdminRole","type":"bytes32","indexed":true,"internalType":"bytes32"},{"name":"newAdminRole","type":"bytes32","indexed":true,"internalType":"bytes32"}],"anonymous":false},{"type":"event","name":"RoleGranted","inputs":[{"name":"role","type":"bytes32","indexed":true,"internalType":"bytes32"},{"name":"account","type":"address","indexed":true,"internalType":"address"},{"name":"sender","type":"address","indexed":true,"internalType":"address"}],"anonymous":false},{"type":"event","name":"RoleRevoked","inputs":[{"name":"role","type":"bytes32","indexed":true,"internalType":"bytes32"},{"name":"account","type":"address","indexed":true,"internalType":"address"},{"name":"sender","type":"address","indexed":true,"internalType":"address"}],"anonymous":false},{"type":"event","name":"Unpaused","inputs":[{"name":"account","type":"address","indexed":false,"internalType":"address"}],"anonymous":false},{"type":"event","name":"Upgraded","inputs":[{"name":"implementation","type":"address","indexed":true,"internalType":"address"}],"anonymous":false},{"type":"error","name":"AccessControlBadConfirmation","inputs":[]},{"type":"error","name":"AccessControlUnauthorizedAccount","inputs":[{"name":"account","type":"address","internalType":"address"},{"name":"neededRole","type":"bytes32","internalType":"bytes32"}]},{"type":"error","name":"AddressEmptyCode","inputs":[{"name":"target","type":"address","internalType":"address"}]},{"type":"error","name":"ECDSAInvalidSignature","inputs":[]},{"type":"error","name":"ECDSAInvalidSignatureLength","inputs":[{"name":"length","type":"uint256","internalType":"uint256"}]},{"type":"error","name":"ECDSAInvalidSignatureS","inputs":[{"name":"s","type":"bytes32","internalType":"bytes32"}]},{"type":"error","name":"ERC1967InvalidImplementation","inputs":[{"name":"implementation","type":"address","internalType":"address"}]},{"type":"error","name":"ERC1967NonPayable","inputs":[]},{"type":"error","name":"EnforcedPause","inputs":[]},{"type":"error","name":"ExpectedPause","inputs":[]},{"type":"error","name":"FailedCall","inputs":[]},{"type":"error","name":"InvalidAssetPair","inputs":[{"name":"expected","type":"bytes32","internalType":"bytes32"},{"name":"actual","type":"bytes32","internalType":"bytes32"}]},{"type":"error","name":"InvalidDecimals","inputs":[{"name":"expected","type":"uint8","internalType":"uint8"},{"name":"actual","type":"uint8","internalType":"uint8"}]},{"type":"error","name":"InvalidInitialization","inputs":[]},{"type":"error","name":"InvalidSignature","inputs":[]},{"type":"error","name":"MaxDeviationTooHigh","inputs":[{"name":"provided","type":"uint256","internalType":"uint256"},{"name":"maxAllowed","type":"uint256","internalType":"uint256"}]},{"type":"error","name":"NotInitializing","inputs":[]},{"type":"error","name":"OraclePaused","inputs":[]},{"type":"error","name":"PriceDataTooOld","inputs":[{"name":"timestamp","type":"uint256","internalType":"uint256"},{"name":"currentTime","type":"uint256","internalType":"uint256"}]},{"type":"error","name":"PriceDeviationTooHigh","inputs":[{"name":"morpherPrice","type":"uint256","internalType":"uint256"},{"name":"chainlinkPrice","type":"uint256","internalType":"uint256"},{"name":"uniswapPrice","type":"uint256","internalType":"uint256"}]},{"type":"error","name":"PriceSourceUnavailable","inputs":[{"name":"source","type":"string","internalType":"string"}]},{"type":"error","name":"StaleAttestation","inputs":[{"name":"lastTimestamp","type":"uint256","internalType":"uint256"},{"name":"providedTimestamp","type":"uint256","internalType":"uint256"}]},{"type":"error","name":"StalenessPeriodTooHigh","inputs":[{"name":"provided","type":"uint256","internalType":"uint256"},{"name":"maxAllowed","type":"uint256","internalType":"uint256"}]},{"type":"error","name":"UUPSUnauthorizedCallContext","inputs":[]},{"type":"error","name":"UUPSUnsupportedProxiableUUID","inputs":[{"name":"slot","type":"bytes32","internalType":"bytes32"}]},{"type":"error","name":"ZeroAddressProvided","inputs":[{"name":"field","type":"string","internalType":"string"}]}],"bytecode":{"object":"0x60a060405230608052348015610013575f5ffd5b5061001c610021565b6100d3565b7ff0c57e16840df040f15088dc2f81fe391c3923bec73e23a9662efc9c229c6a00805468010000000000000000900460ff16156100715760405163f92ee8a960e01b815260040160405180910390fd5b80546001600160401b03908116146100d05780546001600160401b0319166001600160401b0390811782556040519081527fc7f505b2f371ae2175ee4913f4499e1f2633a7b5936321eed1cdaeb6115181d29060200160405180910390a15b50565b60805161229e6100f95f395f818161148d015281816114b60152611617015261229e5ff3fe6080604052600436106101e6575f3560e01c8063735de9f711610108578063b888879e1161009d578063d547741f1161006d578063d547741f14610596578063d67e343c146105b5578063dd5bfe331461060f578063e63ab1e914610623578063f72c0d8b14610656575f5ffd5b8063b888879e1461051b578063bea4dfb51461053a578063bef99f521461054e578063c9f0bf0314610563575f5ffd5b806395082d25116100d857806395082d251461047d578063a1ebf35d14610498578063a217fddf146104cb578063ad3cb1cc146104de575f5ffd5b8063735de9f7146103fc57806379502c551461041b5780638456cb591461044a57806391d148541461045e575f5ffd5b806336568abe1161017e57806352d1902d1161014e57806352d1902d1461036e5780635c975abb1461038257806365ab8c71146103a55780636ccba2ac146103dd575f5ffd5b806336568abe146103095780633f4ba83a14610328578063451a579d1461033c5780634f1ef2861461035b575f5ffd5b8063238c92da116101b9578063238c92da14610294578063248a9ca3146102b657806325c68403146102d55780632f2ff15d146102ea575f5ffd5b806301ffc9a7146101ea57806302d454571461021e5780630dd388d01461025457806310e51e1414610275575b5f5ffd5b3480156101f5575f5ffd5b50610209610204366004611bba565b610689565b60405190151581526020015b60405180910390f35b348015610229575f5ffd5b505f5461023c906001600160a01b031681565b6040516001600160a01b039091168152602001610215565b34801561025f575f5ffd5b5061027361026e366004611be1565b610699565b005b348015610280575f5ffd5b5061027361028f366004611c0c565b6106da565b34801561029f575f5ffd5b506102a8607881565b604051908152602001610215565b3480156102c1575f5ffd5b506102a86102d0366004611be1565b6109d2565b3480156102e0575f5ffd5b506102a86101f481565b3480156102f5575f5ffd5b50610273610304366004611c78565b6109f2565b348015610314575f5ffd5b50610273610323366004611c78565b610a14565b348015610333575f5ffd5b50610273610a4c565b348015610347575f5ffd5b50610273610356366004611be1565b610a81565b610273610369366004611d45565b610abf565b348015610379575f5ffd5b506102a8610ade565b34801561038d575f5ffd5b505f5160206122495f395f51905f525460ff16610209565b6103b86103b3366004611d92565b610af9565b604080518251815260208084015160ff16908201529181015190820152606001610215565b3480156103e8575f5ffd5b5061023c6103f7366004611dd7565b610e35565b348015610407575f5ffd5b5060065461023c906001600160a01b031681565b348015610426575f5ffd5b50600354600454610435919082565b60408051928352602083019190915201610215565b348015610455575f5ffd5b50610273610f42565b348015610469575f5ffd5b50610209610478366004611c78565b610f74565b348015610488575f5ffd5b506102a8670de0b6b3a764000081565b3480156104a3575f5ffd5b506102a87fe2f4eaae4a9751e85a3e4a7b9587827a877f29914755229b07a7b2da98285f7081565b3480156104d6575f5ffd5b506102a85f81565b3480156104e9575f5ffd5b5061050e604051806040016040528060058152602001640352e302e360dc1b81525081565b6040516102159190611e3f565b348015610526575f5ffd5b5060015461023c906001600160a01b031681565b348015610545575f5ffd5b506102a8610faa565b348015610559575f5ffd5b506102a860025481565b34801561056e575f5ffd5b506102a87f267fb830456e0b64582e3058e563e93c21b337432aecaf19f4b3dee7d6faa07881565b3480156105a1575f5ffd5b506102736105b0366004611c78565b6110a6565b3480156105c0575f5ffd5b506105f26105cf366004611be1565b60056020525f9081526040902080546001820154600290920154909160ff169083565b6040805193845260ff909216602084015290820152606001610215565b34801561061a575f5ffd5b506102a86110c2565b34801561062e575f5ffd5b506102a87f65d7a28e3265b37a6474929f336521b332c1681b933f6cb9f3376673440d862a81565b348015610661575f5ffd5b506102a87f189ab7a9244df0848122154315af71fe140f3db0fe014031783b0946b8c9d2e381565b5f61069382611299565b92915050565b5f6106a3816112cd565b60788211156106d457604051632b4055b360e21b815260048101839052607860248201526044015b60405180910390fd5b50600455565b5f6106e36112d7565b805490915060ff600160401b820416159067ffffffffffffffff165f8115801561070a5750825b90505f8267ffffffffffffffff1660011480156107265750303b155b905081158015610734575080155b156107525760405163f92ee8a960e01b815260040160405180910390fd5b845467ffffffffffffffff19166001178555831561077c57845460ff60401b1916600160401b1785555b6001600160a01b0389166107bc576040516356af9c8160e01b81526004016106cb906020808252600490820152635553444360e01b604082015260600190565b6001600160a01b038816610804576040516356af9c8160e01b815260206004820152600e60248201526d2ab734b9bbb0b8102937baba32b960911b60448201526064016106cb565b6001600160a01b038716610852576040516356af9c8160e01b815260206004820152601460248201527321b430b4b73634b7359020b3b3b932b3b0ba37b960611b60448201526064016106cb565b6001600160a01b038616610891576040516356af9c8160e01b815260206004820152600560248201526420b236b4b760d91b60448201526064016106cb565b6101f48b11156108bf576040516358b471f360e01b8152600481018c90526101f460248201526044016106cb565b60788a11156108eb57604051632b4055b360e21b8152600481018b9052607860248201526044016106cb565b6108f36112ff565b6108fb6112ff565b6109036112ff565b61090d5f87611309565b506109387f189ab7a9244df0848122154315af71fe140f3db0fe014031783b0946b8c9d2e387611309565b5060038b905560048a90555f80546001600160a01b03808c166001600160a01b031992831617909255600680548b841690831617905560078054928a169290911691909117905583156109c557845460ff60401b19168555604051600181527fc7f505b2f371ae2175ee4913f4499e1f2633a7b5936321eed1cdaeb6115181d29060200160405180910390a15b5050505050505050505050565b5f9081525f5160206122295f395f51905f52602052604090206001015490565b6109fb826109d2565b610a04816112cd565b610a0e8383611309565b50505050565b6001600160a01b0381163314610a3d5760405163334bd91960e11b815260040160405180910390fd5b610a4782826113aa565b505050565b7f65d7a28e3265b37a6474929f336521b332c1681b933f6cb9f3376673440d862a610a76816112cd565b610a7e611423565b50565b5f610a8b816112cd565b6101f4821115610ab9576040516358b471f360e01b8152600481018390526101f460248201526044016106cb565b50600355565b610ac7611482565b610ad082611526565b610ada8282611550565b5050565b5f610ae761160c565b505f5160206122095f395f51905f5290565b610b1d60405180606001604052805f81526020015f60ff1681526020015f81525090565b610b25611655565b7f267fb830456e0b64582e3058e563e93c21b337432aecaf19f4b3dee7d6faa078826060013514610b9557604051634750117760e01b81527f267fb830456e0b64582e3058e563e93c21b337432aecaf19f4b3dee7d6faa0786004820152606083013560248201526044016106cb565b5f610bfb8335610bab6040860160208701611e74565b60408601356060870135610bc26080890189611e8f565b8080601f0160208091040260200160405190810160405280939291908181526020018383808284375f92019190915250610e3592505050565b9050610c277fe2f4eaae4a9751e85a3e4a7b9587827a877f29914755229b07a7b2da98285f7082610f74565b610c4457604051638baa579f60e01b815260040160405180910390fd5b600254610c576040850135613a98611eed565b1015610c865760025460408051639e9b3e7560e01b8152600481019290925284013560248201526044016106cb565b610c966040840160208501611e74565b60ff16601214610cd8576012610cb26040850160208601611e74565b60405163047e54d360e31b815260ff9283166004820152911660248201526044016106cb565b600454610ce59042611f00565b610cf1906103e8611f13565b836040013511610d20576040805163195c727d60e01b81529084013560048201524260248201526044016106cb565b46600103610df4575f610d31610faa565b9050805f03610d6f576040516314e7f62b60e31b8152602060048201526009602482015268436861696e6c696e6b60b81b60448201526064016106cb565b5f610d786110c2565b9050805f03610db7576040516314e7f62b60e31b815260206004820152600a602482015269556e697377617020563360b01b60448201526064016106cb565b610dc385358383611685565b610df15760405163e9b5646f60e01b81528535600482015260248101839052604481018290526064016106cb565b50505b6040808401803560025581516060810190925284358252602080830191610e1c918701611e74565b60ff16815260200184604001358152509150505b919050565b5f5f86868686604051602001610e71949392919093845260f89290921b6001600160f81b03191660208401526021830152604182015260610190565b6040516020818303038152906040528051906020012090505f81604051602001610ec791907f19457468657265756d205369676e6564204d6573736167653a0a3332000000008152601c810191909152603c0190565b6040516020818303038152906040528051906020012090505f610eea828661170d565b90506001600160a01b038116610f365760405162461bcd60e51b8152602060048201526011602482015270496e76616c6964207369676e617475726560781b60448201526064016106cb565b98975050505050505050565b7f65d7a28e3265b37a6474929f336521b332c1681b933f6cb9f3376673440d862a610f6c816112cd565b610a7e611735565b5f9182525f5160206122295f395f51905f52602090815260408084206001600160a01b0393909316845291905290205460ff1690565b5f5f5f60075f9054906101000a90046001600160a01b03166001600160a01b031663feaf968c6040518163ffffffff1660e01b815260040160a060405180830381865afa158015610ffd573d5f5f3e3d5ffd5b505050506040513d601f19601f820116820180604052508101906110219190611f43565b50935050925050610e1081426110379190611f00565b1061107e576040516314e7f62b60e31b8152602060048201526016602482015275436861696e6c696e6b204f7261636c65205374616c6560501b60448201526064016106cb565b6305f5e10061109583670de0b6b3a7640000611f91565b61109f9190611fd4565b9250505090565b6110af826109d2565b6110b8816112cd565b610a0e83836113aa565b5f5f731f98431c8ad98523631ae4a59f267346ea31f98490505f816001600160a01b0316631698ee8260065f9054906101000a90046001600160a01b03166001600160a01b031663ad5c46486040518163ffffffff1660e01b8152600401602060405180830381865afa15801561113b573d5f5f3e3d5ffd5b505050506040513d601f19601f8201168201806040525081019061115f9190612000565b5f5460405160e084901b6001600160e01b03191681526001600160a01b03928316600482015291166024820152610bb86044820152606401602060405180830381865afa1580156111b2573d5f5f3e3d5ffd5b505050506040513d601f19601f820116820180604052508101906111d69190612000565b90506001600160a01b03811615611291575f8190505f816001600160a01b0316633850c7bd6040518163ffffffff1660e01b815260040160e060405180830381865afa158015611228573d5f5f3e3d5ffd5b505050506040513d601f19601f8201168201806040525081019061124c919061202c565b5050505050506001600160a01b031690506002600160601b8261126f91906120c3565b61127991906121b9565b6112889064e8d4a51000611f13565b94505050505090565b5f9250505090565b5f6001600160e01b03198216637965db0b60e01b148061069357506301ffc9a760e01b6001600160e01b0319831614610693565b610a7e813361177d565b5f807ff0c57e16840df040f15088dc2f81fe391c3923bec73e23a9662efc9c229c6a00610693565b6113076117b6565b565b5f5f5160206122295f395f51905f526113228484610f74565b6113a1575f848152602082815260408083206001600160a01b03871684529091529020805460ff191660011790556113573390565b6001600160a01b0316836001600160a01b0316857f2f8788117e7eff1d82e926ec794901d17c78024a50270940304540a733656f0d60405160405180910390a46001915050610693565b5f915050610693565b5f5f5160206122295f395f51905f526113c38484610f74565b156113a1575f848152602082815260408083206001600160a01b0387168085529252808320805460ff1916905551339287917ff6391f5c32d9c69d2a47ea670b442974b53935d1edc7fd64eb21e047a839171b9190a46001915050610693565b61142b6117db565b5f5160206122495f395f51905f52805460ff191681557f5db9ee0a495bf2e6ff9c91a7834c1ba4fdd244a5e8aa4e537bd38aeae4b073aa335b6040516001600160a01b03909116815260200160405180910390a150565b306001600160a01b037f000000000000000000000000000000000000000000000000000000000000000016148061150857507f00000000000000000000000000000000000000000000000000000000000000006001600160a01b03166114fc5f5160206122095f395f51905f52546001600160a01b031690565b6001600160a01b031614155b156113075760405163703e46dd60e11b815260040160405180910390fd5b7f189ab7a9244df0848122154315af71fe140f3db0fe014031783b0946b8c9d2e3610ada816112cd565b816001600160a01b03166352d1902d6040518163ffffffff1660e01b8152600401602060405180830381865afa9250505080156115aa575060408051601f3d908101601f191682019092526115a7918101906121c7565b60015b6115d257604051634c9c8ce360e01b81526001600160a01b03831660048201526024016106cb565b5f5160206122095f395f51905f52811461160257604051632a87526960e21b8152600481018290526024016106cb565b610a47838361180a565b306001600160a01b037f000000000000000000000000000000000000000000000000000000000000000016146113075760405163703e46dd60e11b815260040160405180910390fd5b5f5160206122495f395f51905f525460ff16156113075760405163e28b705360e01b815260040160405180910390fd5b5f5f61271060035f01548661169a9190611f13565b6116a491906120c3565b90506116b08185611eed565b8511806116c55750836116c38287611eed565b105b156116d3575f915050611706565b6116dd8184611eed565b8511806116f25750826116f08287611eed565b105b15611700575f915050611706565b60019150505b9392505050565b5f5f5f5f61171b868661185f565b92509250925061172b82826118a8565b5090949350505050565b61173d611655565b5f5160206122495f395f51905f52805460ff191660011781557f62e78cea01bee320cd4e420270b5ea74000d11b0c9f74754ebdbfc544b05a25833611464565b6117878282610f74565b610ada5760405163e2517d3f60e01b81526001600160a01b0382166004820152602481018390526044016106cb565b6117be611960565b61130757604051631afcd79f60e31b815260040160405180910390fd5b5f5160206122495f395f51905f525460ff1661130757604051638dfc202b60e01b815260040160405180910390fd5b61181382611979565b6040516001600160a01b038316907fbc7cd75a20ee27fd9adebab32041f755214dbc6bffa90cc0225b39da2e5c2d3b905f90a280511561185757610a4782826119dc565b610ada611a4e565b5f5f5f8351604103611896576020840151604085015160608601515f1a61188888828585611a6d565b9550955095505050506118a1565b505081515f91506002905b9250925092565b5f8260038111156118bb576118bb6121de565b036118c4575050565b60018260038111156118d8576118d86121de565b036118f65760405163f645eedf60e01b815260040160405180910390fd5b600282600381111561190a5761190a6121de565b0361192b5760405163fce698f760e01b8152600481018290526024016106cb565b600382600381111561193f5761193f6121de565b03610ada576040516335e2f38360e21b8152600481018290526024016106cb565b5f6119696112d7565b54600160401b900460ff16919050565b806001600160a01b03163b5f036119ae57604051634c9c8ce360e01b81526001600160a01b03821660048201526024016106cb565b5f5160206122095f395f51905f5280546001600160a01b0319166001600160a01b0392909216919091179055565b60605f5f846001600160a01b0316846040516119f891906121f2565b5f60405180830381855af49150503d805f8114611a30576040519150601f19603f3d011682016040523d82523d5f602084013e611a35565b606091505b5091509150611a45858383611b35565b95945050505050565b34156113075760405163b398979f60e01b815260040160405180910390fd5b5f80807f7fffffffffffffffffffffffffffffff5d576e7357a4501ddfe92f46681b20a0841115611aa657505f91506003905082611b2b565b604080515f808252602082018084528a905260ff891692820192909252606081018790526080810186905260019060a0016020604051602081039080840390855afa158015611af7573d5f5f3e3d5ffd5b5050604051601f1901519150506001600160a01b038116611b2257505f925060019150829050611b2b565b92505f91508190505b9450945094915050565b606082611b4a57611b4582611b91565b611706565b8151158015611b6157506001600160a01b0384163b155b15611b8a57604051639996b31560e01b81526001600160a01b03851660048201526024016106cb565b5080611706565b805115611ba15780518082602001fd5b60405163d6bda27560e01b815260040160405180910390fd5b5f60208284031215611bca575f5ffd5b81356001600160e01b031981168114611706575f5ffd5b5f60208284031215611bf1575f5ffd5b5035919050565b6001600160a01b0381168114610a7e575f5ffd5b5f5f5f5f5f5f60c08789031215611c21575f5ffd5b86359550602087013594506040870135611c3a81611bf8565b93506060870135611c4a81611bf8565b92506080870135611c5a81611bf8565b915060a0870135611c6a81611bf8565b809150509295509295509295565b5f5f60408385031215611c89575f5ffd5b823591506020830135611c9b81611bf8565b809150509250929050565b634e487b7160e01b5f52604160045260245ffd5b5f82601f830112611cc9575f5ffd5b813567ffffffffffffffff811115611ce357611ce3611ca6565b604051601f8201601f19908116603f0116810167ffffffffffffffff81118282101715611d1257611d12611ca6565b604052818152838201602001851015611d29575f5ffd5b816020850160208301375f918101602001919091529392505050565b5f5f60408385031215611d56575f5ffd5b8235611d6181611bf8565b9150602083013567ffffffffffffffff811115611d7c575f5ffd5b611d8885828601611cba565b9150509250929050565b5f60208284031215611da2575f5ffd5b813567ffffffffffffffff811115611db8575f5ffd5b820160a08185031215611706575f5ffd5b60ff81168114610a7e575f5ffd5b5f5f5f5f5f60a08688031215611deb575f5ffd5b853594506020860135611dfd81611dc9565b93506040860135925060608601359150608086013567ffffffffffffffff811115611e26575f5ffd5b611e3288828901611cba565b9150509295509295909350565b602081525f82518060208401528060208501604085015e5f604082850101526040601f19601f83011684010191505092915050565b5f60208284031215611e84575f5ffd5b813561170681611dc9565b5f5f8335601e19843603018112611ea4575f5ffd5b83018035915067ffffffffffffffff821115611ebe575f5ffd5b602001915036819003821315611ed2575f5ffd5b9250929050565b634e487b7160e01b5f52601160045260245ffd5b8082018082111561069357610693611ed9565b8181038181111561069357610693611ed9565b808202811582820484141761069357610693611ed9565b805169ffffffffffffffffffff81168114610e30575f5ffd5b5f5f5f5f5f60a08688031215611f57575f5ffd5b611f6086611f2a565b60208701516040880151606089015192975090955093509150611f8560808701611f2a565b90509295509295909350565b8082025f8212600160ff1b84141615611fac57611fac611ed9565b818105831482151761069357610693611ed9565b634e487b7160e01b5f52601260045260245ffd5b5f82611fe257611fe2611fc0565b600160ff1b82145f1984141615611ffb57611ffb611ed9565b500590565b5f60208284031215612010575f5ffd5b815161170681611bf8565b805161ffff81168114610e30575f5ffd5b5f5f5f5f5f5f5f60e0888a031215612042575f5ffd5b875161204d81611bf8565b8097505060208801518060020b8114612064575f5ffd5b95506120726040890161201b565b94506120806060890161201b565b935061208e6080890161201b565b925060a088015161209e81611dc9565b60c089015190925080151581146120b3575f5ffd5b8091505092959891949750929550565b5f826120d1576120d1611fc0565b500490565b6001815b6001841115612111578085048111156120f5576120f5611ed9565b600184161561210357908102905b60019390931c9280026120da565b935093915050565b5f8261212757506001610693565b8161213357505f610693565b816001811461214957600281146121535761216f565b6001915050610693565b60ff84111561216457612164611ed9565b50506001821b610693565b5060208310610133831016604e8410600b8410161715612192575081810a610693565b61219e5f1984846120d6565b805f19048211156121b1576121b1611ed9565b029392505050565b5f61170660ff841683612119565b5f602082840312156121d7575f5ffd5b5051919050565b634e487b7160e01b5f52602160045260245ffd5b5f82518060208501845e5f92019182525091905056fe360894a13ba1a3210667c828492db98dca3e2076cc3735a920a3ca505d382bbc02dd7bc7dec4dceedda775e58dd541e08a116c6c53815c0bd028192f7b626800cd5ed15c6e187e77e9aee88184c21f4f2182ab5827cb3b7e07fbedcd63f03300a26469706673582212205c9bfa855cdbd5efc93ecd8d816577932cfd6f9b6f090fe23c96585aa8207c3064736f6c634300081d0033","linkReferences":{}},"methodIdentifiers":{"DEFAULT_ADMIN_ROLE()":"a217fddf","ETH_USD_ASSET_PAIR()":"c9f0bf03","MAX_DEVIATION_BPS()":"25c68403","MAX_STALENESS_PERIOD_SECONDS()":"238c92da","PAUSER_ROLE()":"e63ab1e9","PRICE_PRECISION()":"95082d25","SIGNER_ROLE()":"a1ebf35d","UPGRADER_ROLE()":"f72c0d8b","UPGRADE_INTERFACE_VERSION()":"ad3cb1cc","attestationService((uint256,uint8,uint256,bytes32,bytes))":"65ab8c71","config()":"79502c55","getChainlinkDataFeedLatestAnswer()":"bea4dfb5","getRoleAdmin(bytes32)":"248a9ca3","getUniswapV3WethUsdcPrice()":"dd5bfe33","grantRole(bytes32,address)":"2f2ff15d","hasRole(bytes32,address)":"91d14854","initialize(uint256,uint256,address,address,address,address)":"10e51e14","lastAttestationTimestamp()":"bef99f52","lastPrices(bytes32)":"d67e343c","pause()":"8456cb59","paused()":"5c975abb","priceProvider()":"b888879e","proxiableUUID()":"52d1902d","renounceRole(bytes32,address)":"36568abe","revokeRole(bytes32,address)":"d547741f","setMaxDeviationPercentage(uint256)":"451a579d","setPriceStalenessPeriod(uint256)":"0dd388d0","supportsInterface(bytes4)":"01ffc9a7","uniswapRouter()":"735de9f7","unpause()":"3f4ba83a","upgradeToAndCall(address,bytes)":"4f1ef286","usdcAddress()":"02d45457","verifySignature(uint256,uint8,uint256,bytes32,bytes)":"6ccba2ac"},"storageLayout":{"storage":[{"astId":53511,"contract":"src/PriceOracle.sol:PriceOracle","label":"usdcAddress","offset":0,"slot":"0","type":"t_address"},{"astId":53513,"contract":"src/PriceOracle.sol:PriceOracle","label":"priceProvider","offset":0,"slot":"1","type":"t_address"},{"astId":53515,"contract":"src/PriceOracle.sol:PriceOracle","label":"lastAttestationTimestamp","offset":0,"slot":"2","type":"t_uint256"},{"astId":53518,"contract":"src/PriceOracle.sol:PriceOracle","label":"config","offset":0,"slot":"3","type":"t_struct(PriceConfig)53509_storage"},{"astId":53523,"contract":"src/PriceOracle.sol:PriceOracle","label":"lastPrices","offset":0,"slot":"5","type":"t_mapping(t_bytes32,t_struct(PriceResponse)59124_storage)"},{"astId":53526,"contract":"src/PriceOracle.sol:PriceOracle","label":"uniswapRouter","offset":0,"slot":"6","type":"t_contract(IUniswapV2Router02)51045"},{"astId":53529,"contract":"src/PriceOracle.sol:PriceOracle","label":"dataFeed","offset":0,"slot":"7","type":"t_contract(AggregatorV3Interface)45"}],"types":{"t_address":{"encoding":"inplace","label":"address","numberOfBytes":"20"},"t_bytes32":{"encoding":"inplace","label":"bytes32","numberOfBytes":"32"},"t_contract(AggregatorV3Interface)45":{"encoding":"inplace","label":"contract AggregatorV3Interface","numberOfBytes":"20"},"t_contract(IUniswapV2Router02)51045":{"encoding":"inplace","label":"contract IUniswapV2Router02","numberOfBytes":"20"},"t_mapping(t_bytes32,t_struct(PriceResponse)59124_storage)":{"encoding":"mapping","key":"t_bytes32","label":"mapping(bytes32 => struct IPriceOracle.PriceResponse)","numberOfBytes":"32","value":"t_struct(PriceResponse)59124_storage"},"t_struct(PriceConfig)53509_storage":{"encoding":"inplace","label":"struct PriceOracle.PriceConfig","numberOfBytes":"64","members":[{"astId":53506,"contract":"src/PriceOracle.sol:PriceOracle","label":"maxPriceDeviation","offset":0,"slot":"0","type":"t_uint256"},{"astId":53508,"contract":"src/PriceOracle.sol:PriceOracle","label":"priceStalenessPeriod","offset":0,"slot":"1","type":"t_uint256"}]},"t_struct(PriceResponse)59124_storage":{"encoding":"inplace","label":"struct IPriceOracle.PriceResponse","numberOfBytes":"96","members":[{"astId":59119,"contract":"src/PriceOracle.sol:PriceOracle","label":"price","offset":0,"slot":"0","type":"t_uint256"},{"astId":59121,"contract":"src/PriceOracle.sol:PriceOracle","label":"decimals","offset":0,"slot":"1","type":"t_uint8"},{"astId":59123,"contract":"src/PriceOracle.sol:PriceOracle","label":"timestamp","offset":0,"slot":"2","type":"t_uint256"}]},"t_uint256":{"encoding":"inplace","label":"uint256","numberOfBytes":"32"},"t_uint8":{"encoding":"inplace","label":"uint8","numberOfBytes":"1"}}},"id":76}