{"abi":[{"type":"constructor","inputs":[{"name":"name","type":"string","internalType":"string"},{"name":"symbol","type":"string","internalType":"string"},{"name":"_oracle","type":"address","internalType":"address"},{"name":"_stabilizer","type":"address","internalType":"address"},{"name":"_rateContract","type":"address","internalType":"address"},{"name":"_admin","type":"address","internalType":"address"}],"stateMutability":"nonpayable"},{"type":"receive","stateMutability":"payable"},{"type":"function","name":"BURNER_ROLE","inputs":[],"outputs":[{"name":"","type":"bytes32","internalType":"bytes32"}],"stateMutability":"view"},{"type":"function","name":"DEFAULT_ADMIN_ROLE","inputs":[],"outputs":[{"name":"","type":"bytes32","internalType":"bytes32"}],"stateMutability":"view"},{"type":"function","name":"DOMAIN_SEPARATOR","inputs":[],"outputs":[{"name":"","type":"bytes32","internalType":"bytes32"}],"stateMutability":"view"},{"type":"function","name":"FACTOR_PRECISION","inputs":[],"outputs":[{"name":"","type":"uint256","internalType":"uint256"}],"stateMutability":"view"},{"type":"function","name":"MINTER_ROLE","inputs":[],"outputs":[{"name":"","type":"bytes32","internalType":"bytes32"}],"stateMutability":"view"},{"type":"function","name":"UPDATER_ROLE","inputs":[],"outputs":[{"name":"","type":"bytes32","internalType":"bytes32"}],"stateMutability":"view"},{"type":"function","name":"USPD_CALLER_ROLE","inputs":[],"outputs":[{"name":"","type":"bytes32","internalType":"bytes32"}],"stateMutability":"view"},{"type":"function","name":"allowance","inputs":[{"name":"owner","type":"address","internalType":"address"},{"name":"spender","type":"address","internalType":"address"}],"outputs":[{"name":"","type":"uint256","internalType":"uint256"}],"stateMutability":"view"},{"type":"function","name":"approve","inputs":[{"name":"spender","type":"address","internalType":"address"},{"name":"value","type":"uint256","internalType":"uint256"}],"outputs":[{"name":"","type":"bool","internalType":"bool"}],"stateMutability":"nonpayable"},{"type":"function","name":"balanceOf","inputs":[{"name":"account","type":"address","internalType":"address"}],"outputs":[{"name":"","type":"uint256","internalType":"uint256"}],"stateMutability":"view"},{"type":"function","name":"burn","inputs":[{"name":"amount","type":"uint256","internalType":"uint256"}],"outputs":[],"stateMutability":"nonpayable"},{"type":"function","name":"burnShares","inputs":[{"name":"sharesAmount","type":"uint256","internalType":"uint256"},{"name":"to","type":"address","internalType":"address payable"},{"name":"priceQuery","type":"tuple","internalType":"struct IPriceOracle.PriceAttestationQuery","components":[{"name":"price","type":"uint256","internalType":"uint256"},{"name":"decimals","type":"uint8","internalType":"uint8"},{"name":"dataTimestamp","type":"uint256","internalType":"uint256"},{"name":"assetPair","type":"bytes32","internalType":"bytes32"},{"name":"signature","type":"bytes","internalType":"bytes"}]}],"outputs":[{"name":"unallocatedStEthReturned","type":"uint256","internalType":"uint256"}],"stateMutability":"nonpayable"},{"type":"function","name":"decimals","inputs":[],"outputs":[{"name":"","type":"uint8","internalType":"uint8"}],"stateMutability":"view"},{"type":"function","name":"eip712Domain","inputs":[],"outputs":[{"name":"fields","type":"bytes1","internalType":"bytes1"},{"name":"name","type":"string","internalType":"string"},{"name":"version","type":"string","internalType":"string"},{"name":"chainId","type":"uint256","internalType":"uint256"},{"name":"verifyingContract","type":"address","internalType":"address"},{"name":"salt","type":"bytes32","internalType":"bytes32"},{"name":"extensions","type":"uint256[]","internalType":"uint256[]"}],"stateMutability":"view"},{"type":"function","name":"executeTransfer","inputs":[{"name":"from","type":"address","internalType":"address"},{"name":"to","type":"address","internalType":"address"},{"name":"amount","type":"uint256","internalType":"uint256"}],"outputs":[],"stateMutability":"nonpayable"},{"type":"function","name":"getRoleAdmin","inputs":[{"name":"role","type":"bytes32","internalType":"bytes32"}],"outputs":[{"name":"","type":"bytes32","internalType":"bytes32"}],"stateMutability":"view"},{"type":"function","name":"grantRole","inputs":[{"name":"role","type":"bytes32","internalType":"bytes32"},{"name":"account","type":"address","internalType":"address"}],"outputs":[],"stateMutability":"nonpayable"},{"type":"function","name":"hasRole","inputs":[{"name":"role","type":"bytes32","internalType":"bytes32"},{"name":"account","type":"address","internalType":"address"}],"outputs":[{"name":"","type":"bool","internalType":"bool"}],"stateMutability":"view"},{"type":"function","name":"mint","inputs":[{"name":"account","type":"address","internalType":"address"},{"name":"amount","type":"uint256","internalType":"uint256"}],"outputs":[],"stateMutability":"nonpayable"},{"type":"function","name":"mintShares","inputs":[{"name":"to","type":"address","internalType":"address"},{"name":"priceQuery","type":"tuple","internalType":"struct IPriceOracle.PriceAttestationQuery","components":[{"name":"price","type":"uint256","internalType":"uint256"},{"name":"decimals","type":"uint8","internalType":"uint8"},{"name":"dataTimestamp","type":"uint256","internalType":"uint256"},{"name":"assetPair","type":"bytes32","internalType":"bytes32"},{"name":"signature","type":"bytes","internalType":"bytes"}]}],"outputs":[{"name":"leftoverEth","type":"uint256","internalType":"uint256"}],"stateMutability":"payable"},{"type":"function","name":"name","inputs":[],"outputs":[{"name":"","type":"string","internalType":"string"}],"stateMutability":"view"},{"type":"function","name":"nonces","inputs":[{"name":"owner","type":"address","internalType":"address"}],"outputs":[{"name":"","type":"uint256","internalType":"uint256"}],"stateMutability":"view"},{"type":"function","name":"oracle","inputs":[],"outputs":[{"name":"","type":"address","internalType":"contract IPriceOracle"}],"stateMutability":"view"},{"type":"function","name":"permit","inputs":[{"name":"owner","type":"address","internalType":"address"},{"name":"spender","type":"address","internalType":"address"},{"name":"value","type":"uint256","internalType":"uint256"},{"name":"deadline","type":"uint256","internalType":"uint256"},{"name":"v","type":"uint8","internalType":"uint8"},{"name":"r","type":"bytes32","internalType":"bytes32"},{"name":"s","type":"bytes32","internalType":"bytes32"}],"outputs":[],"stateMutability":"nonpayable"},{"type":"function","name":"rateContract","inputs":[],"outputs":[{"name":"","type":"address","internalType":"contract IPoolSharesConversionRate"}],"stateMutability":"view"},{"type":"function","name":"renounceRole","inputs":[{"name":"role","type":"bytes32","internalType":"bytes32"},{"name":"callerConfirmation","type":"address","internalType":"address"}],"outputs":[],"stateMutability":"nonpayable"},{"type":"function","name":"revokeRole","inputs":[{"name":"role","type":"bytes32","internalType":"bytes32"},{"name":"account","type":"address","internalType":"address"}],"outputs":[],"stateMutability":"nonpayable"},{"type":"function","name":"stabilizer","inputs":[],"outputs":[{"name":"","type":"address","internalType":"contract IStabilizerNFT"}],"stateMutability":"view"},{"type":"function","name":"supportsInterface","inputs":[{"name":"interfaceId","type":"bytes4","internalType":"bytes4"}],"outputs":[{"name":"","type":"bool","internalType":"bool"}],"stateMutability":"view"},{"type":"function","name":"symbol","inputs":[],"outputs":[{"name":"","type":"string","internalType":"string"}],"stateMutability":"view"},{"type":"function","name":"totalSupply","inputs":[],"outputs":[{"name":"","type":"uint256","internalType":"uint256"}],"stateMutability":"view"},{"type":"function","name":"transfer","inputs":[{"name":"to","type":"address","internalType":"address"},{"name":"value","type":"uint256","internalType":"uint256"}],"outputs":[{"name":"","type":"bool","internalType":"bool"}],"stateMutability":"nonpayable"},{"type":"function","name":"transferFrom","inputs":[{"name":"from","type":"address","internalType":"address"},{"name":"to","type":"address","internalType":"address"},{"name":"value","type":"uint256","internalType":"uint256"}],"outputs":[{"name":"","type":"bool","internalType":"bool"}],"stateMutability":"nonpayable"},{"type":"function","name":"updateOracle","inputs":[{"name":"newOracle","type":"address","internalType":"address"}],"outputs":[],"stateMutability":"nonpayable"},{"type":"function","name":"updateRateContract","inputs":[{"name":"newRateContract","type":"address","internalType":"address"}],"outputs":[],"stateMutability":"nonpayable"},{"type":"function","name":"updateStabilizer","inputs":[{"name":"newStabilizer","type":"address","internalType":"address"}],"outputs":[],"stateMutability":"nonpayable"},{"type":"event","name":"Approval","inputs":[{"name":"owner","type":"address","indexed":true,"internalType":"address"},{"name":"spender","type":"address","indexed":true,"internalType":"address"},{"name":"value","type":"uint256","indexed":false,"internalType":"uint256"}],"anonymous":false},{"type":"event","name":"EIP712DomainChanged","inputs":[],"anonymous":false},{"type":"event","name":"Payout","inputs":[{"name":"to","type":"address","indexed":true,"internalType":"address"},{"name":"sharesBurned","type":"uint256","indexed":false,"internalType":"uint256"},{"name":"stEthAmount","type":"uint256","indexed":false,"internalType":"uint256"},{"name":"price","type":"uint256","indexed":false,"internalType":"uint256"}],"anonymous":false},{"type":"event","name":"PriceOracleUpdated","inputs":[{"name":"oldOracle","type":"address","indexed":true,"internalType":"address"},{"name":"newOracle","type":"address","indexed":true,"internalType":"address"}],"anonymous":false},{"type":"event","name":"RateContractUpdated","inputs":[{"name":"oldRateContract","type":"address","indexed":true,"internalType":"address"},{"name":"newRateContract","type":"address","indexed":true,"internalType":"address"}],"anonymous":false},{"type":"event","name":"RoleAdminChanged","inputs":[{"name":"role","type":"bytes32","indexed":true,"internalType":"bytes32"},{"name":"previousAdminRole","type":"bytes32","indexed":true,"internalType":"bytes32"},{"name":"newAdminRole","type":"bytes32","indexed":true,"internalType":"bytes32"}],"anonymous":false},{"type":"event","name":"RoleGranted","inputs":[{"name":"role","type":"bytes32","indexed":true,"internalType":"bytes32"},{"name":"account","type":"address","indexed":true,"internalType":"address"},{"name":"sender","type":"address","indexed":true,"internalType":"address"}],"anonymous":false},{"type":"event","name":"RoleRevoked","inputs":[{"name":"role","type":"bytes32","indexed":true,"internalType":"bytes32"},{"name":"account","type":"address","indexed":true,"internalType":"address"},{"name":"sender","type":"address","indexed":true,"internalType":"address"}],"anonymous":false},{"type":"event","name":"SharesBurned","inputs":[{"name":"burner","type":"address","indexed":true,"internalType":"address"},{"name":"from","type":"address","indexed":true,"internalType":"address"},{"name":"sharesBurned","type":"uint256","indexed":false,"internalType":"uint256"},{"name":"stEthReturned","type":"uint256","indexed":false,"internalType":"uint256"}],"anonymous":false},{"type":"event","name":"SharesMinted","inputs":[{"name":"minter","type":"address","indexed":true,"internalType":"address"},{"name":"to","type":"address","indexed":true,"internalType":"address"},{"name":"ethAmount","type":"uint256","indexed":false,"internalType":"uint256"},{"name":"sharesMinted","type":"uint256","indexed":false,"internalType":"uint256"}],"anonymous":false},{"type":"event","name":"StabilizerUpdated","inputs":[{"name":"oldStabilizer","type":"address","indexed":true,"internalType":"address"},{"name":"newStabilizer","type":"address","indexed":true,"internalType":"address"}],"anonymous":false},{"type":"event","name":"Transfer","inputs":[{"name":"from","type":"address","indexed":true,"internalType":"address"},{"name":"to","type":"address","indexed":true,"internalType":"address"},{"name":"value","type":"uint256","indexed":false,"internalType":"uint256"}],"anonymous":false},{"type":"error","name":"AccessControlBadConfirmation","inputs":[]},{"type":"error","name":"AccessControlUnauthorizedAccount","inputs":[{"name":"account","type":"address","internalType":"address"},{"name":"neededRole","type":"bytes32","internalType":"bytes32"}]},{"type":"error","name":"ECDSAInvalidSignature","inputs":[]},{"type":"error","name":"ECDSAInvalidSignatureLength","inputs":[{"name":"length","type":"uint256","internalType":"uint256"}]},{"type":"error","name":"ECDSAInvalidSignatureS","inputs":[{"name":"s","type":"bytes32","internalType":"bytes32"}]},{"type":"error","name":"ERC20InsufficientAllowance","inputs":[{"name":"spender","type":"address","internalType":"address"},{"name":"allowance","type":"uint256","internalType":"uint256"},{"name":"needed","type":"uint256","internalType":"uint256"}]},{"type":"error","name":"ERC20InsufficientBalance","inputs":[{"name":"sender","type":"address","internalType":"address"},{"name":"balance","type":"uint256","internalType":"uint256"},{"name":"needed","type":"uint256","internalType":"uint256"}]},{"type":"error","name":"ERC20InvalidApprover","inputs":[{"name":"approver","type":"address","internalType":"address"}]},{"type":"error","name":"ERC20InvalidReceiver","inputs":[{"name":"receiver","type":"address","internalType":"address"}]},{"type":"error","name":"ERC20InvalidSender","inputs":[{"name":"sender","type":"address","internalType":"address"}]},{"type":"error","name":"ERC20InvalidSpender","inputs":[{"name":"spender","type":"address","internalType":"address"}]},{"type":"error","name":"ERC2612ExpiredSignature","inputs":[{"name":"deadline","type":"uint256","internalType":"uint256"}]},{"type":"error","name":"ERC2612InvalidSigner","inputs":[{"name":"signer","type":"address","internalType":"address"},{"name":"owner","type":"address","internalType":"address"}]},{"type":"error","name":"InvalidAccountNonce","inputs":[{"name":"account","type":"address","internalType":"address"},{"name":"currentNonce","type":"uint256","internalType":"uint256"}]},{"type":"error","name":"InvalidShortString","inputs":[]},{"type":"error","name":"StringTooLong","inputs":[{"name":"str","type":"string","internalType":"string"}]}],"bytecode":{"object":"0x610160604052348015610010575f5ffd5b50604051612eec380380612eec83398101604081905261002f91610528565b6040805180820190915260018152603160f81b602082015286908190818860036100598382610650565b5060046100668282610650565b5061007691508390506005610356565b61012052610085816006610356565b61014052815160208084019190912060e052815190820120610100524660a05261011160e05161010051604080517f8b73c3c69bb8fe3d512ecc4cf759cc79239f7b179b0ffacaa9a75d522b39400f60208201529081019290925260608201524660808201523060a08201525f9060c00160405160208183030381529060405280519060200120905090565b60805250503060c052506001600160a01b0384166101765760405162461bcd60e51b815260206004820152601a60248201527f63555350443a205a65726f206f7261636c65206164647265737300000000000060448201526064015b60405180910390fd5b6001600160a01b0383166101cc5760405162461bcd60e51b815260206004820152601e60248201527f63555350443a205a65726f2073746162696c697a657220616464726573730000604482015260640161016d565b6001600160a01b03821661022c5760405162461bcd60e51b815260206004820152602160248201527f63555350443a205a65726f207261746520636f6e7472616374206164647265736044820152607360f81b606482015260840161016d565b6001600160a01b0381166102825760405162461bcd60e51b815260206004820152601960248201527f63555350443a205a65726f2061646d696e206164647265737300000000000000604482015260640161016d565b600980546001600160a01b038087166001600160a01b031992831617909255600a8054868416908316179055600b8054928516929091169190911790556102c95f82610388565b506102f47f9f2df0fed2c77648de5860a4cc508cd0818c85b8b8a1ab4ceeef8d981c8956a682610388565b5061031f7f3c11d16cbaffd01df69ce1c404f6340ee057498f5f00246190ea54220576a84882610388565b5061034a7f73e573f9566d61418a34d5de3ff49360f9c51fec37f7486551670290f6285dab82610388565b50505050505050610762565b5f6020835110156103715761036a83610433565b9050610382565b8161037c8482610650565b5060ff90505b92915050565b5f8281526008602090815260408083206001600160a01b038516845290915281205460ff1661042c575f8381526008602090815260408083206001600160a01b03861684529091529020805460ff191660011790556103e43390565b6001600160a01b0316826001600160a01b0316847f2f8788117e7eff1d82e926ec794901d17c78024a50270940304540a733656f0d60405160405180910390a4506001610382565b505f610382565b5f5f829050601f8151111561045d578260405163305a27a960e01b815260040161016d919061070a565b80516104688261073f565b179392505050565b634e487b7160e01b5f52604160045260245ffd5b5f82601f830112610493575f5ffd5b81516001600160401b038111156104ac576104ac610470565b604051601f8201601f19908116603f011681016001600160401b03811182821017156104da576104da610470565b6040528181528382016020018510156104f1575f5ffd5b8160208501602083015e5f918101602001919091529392505050565b80516001600160a01b0381168114610523575f5ffd5b919050565b5f5f5f5f5f5f60c0878903121561053d575f5ffd5b86516001600160401b03811115610552575f5ffd5b61055e89828a01610484565b602089015190975090506001600160401b0381111561057b575f5ffd5b61058789828a01610484565b9550506105966040880161050d565b93506105a46060880161050d565b92506105b26080880161050d565b91506105c060a0880161050d565b90509295509295509295565b600181811c908216806105e057607f821691505b6020821081036105fe57634e487b7160e01b5f52602260045260245ffd5b50919050565b601f82111561064b57805f5260205f20601f840160051c810160208510156106295750805b601f840160051c820191505b81811015610648575f8155600101610635565b50505b505050565b81516001600160401b0381111561066957610669610470565b61067d8161067784546105cc565b84610604565b6020601f8211600181146106af575f83156106985750848201515b5f19600385901b1c1916600184901b178455610648565b5f84815260208120601f198516915b828110156106de57878501518255602094850194600190920191016106be565b50848210156106fb57868401515f19600387901b60f8161c191681555b50505050600190811b01905550565b602081525f82518060208401528060208501604085015e5f604082850101526040601f19601f83011684010191505092915050565b805160208083015191908110156105fe575f1960209190910360031b1b16919050565b60805160a05160c05160e0516101005161012051610140516127396107b35f395f611af301525f611ac601525f61199c01525f61197401525f6118cf01525f6118f901525f61192301526127395ff3fe60806040526004361061020a575f3560e01c80637dc0d1d011610113578063a6f4ae271161009d578063d53913931161006d578063d539139314610692578063d547741f146106c5578063dd62ed3e146106e4578063e58ef8a814610728578063eee2421914610747575f5ffd5b8063a6f4ae2714610622578063a9059cbb14610641578063bda11bed14610660578063d505accf14610673575f5ffd5b806384b0196e116100e357806384b0196e1461059a57806391d14854146105c157806395d89b41146105e0578063a217fddf146105f4578063a42c69a914610607575f5ffd5b80637dc0d1d0146105065780637e47961c1461053d5780637ecebe001461055c578063844187131461057b575f5ffd5b8063313ce5671161019457806342966c681161016457806342966c681461044157806346dc94c41461046057806347e633801461047f57806370a082311461049f57806373956b03146104d3575f5ffd5b8063313ce567146103d45780633644e515146103ef57806336568abe1461040357806340c10f1914610422575f5ffd5b80631cb44dfc116101da5780631cb44dfc1461031657806323b872dd14610335578063248a9ca314610354578063282c51f3146103825780632f2ff15d146103b5575f5ffd5b806301ffc9a71461028457806306fdde03146102b8578063095ea7b3146102d957806318160ddd146102f8575f5ffd5b3661028057600a546001600160a01b0316331461027e5760405162461bcd60e51b815260206004820152602760248201527f63555350443a2044697265637420455448207472616e7366657273206e6f7420604482015266185b1b1bddd95960ca1b60648201526084015b60405180910390fd5b005b5f5ffd5b34801561028f575f5ffd5b506102a361029e36600461202f565b610766565b60405190151581526020015b60405180910390f35b3480156102c3575f5ffd5b506102cc61079c565b6040516102af919061208b565b3480156102e4575f5ffd5b506102a36102f33660046120b1565b61082c565b348015610303575f5ffd5b506002545b6040519081526020016102af565b348015610321575f5ffd5b5061027e6103303660046120db565b610843565b348015610340575f5ffd5b506102a361034f3660046120f6565b61090c565b34801561035f575f5ffd5b5061030861036e366004612134565b5f9081526008602052604090206001015490565b34801561038d575f5ffd5b506103087f3c11d16cbaffd01df69ce1c404f6340ee057498f5f00246190ea54220576a84881565b3480156103c0575f5ffd5b5061027e6103cf36600461214b565b61092f565b3480156103df575f5ffd5b50604051601281526020016102af565b3480156103fa575f5ffd5b50610308610959565b34801561040e575f5ffd5b5061027e61041d36600461214b565b610967565b34801561042d575f5ffd5b5061027e61043c3660046120b1565b61099f565b34801561044c575f5ffd5b5061027e61045b366004612134565b6109d3565b34801561046b575f5ffd5b5061027e61047a3660046120db565b610a0b565b34801561048a575f5ffd5b506103085f5160206126e45f395f51905f5281565b3480156104aa575f5ffd5b506103086104b93660046120db565b6001600160a01b03165f9081526020819052604090205490565b3480156104de575f5ffd5b506103087f4702cfe9ce425da868e47050b25fe42f288c81eb74d83efc6cfaa2d9b6eb45c281565b348015610511575f5ffd5b50600954610525906001600160a01b031681565b6040516001600160a01b0390911681526020016102af565b348015610548575f5ffd5b50600a54610525906001600160a01b031681565b348015610567575f5ffd5b506103086105763660046120db565b610ad4565b348015610586575f5ffd5b5061030861059536600461218f565b610af1565b3480156105a5575f5ffd5b506105ae610ffb565b6040516102af97969594939291906121e4565b3480156105cc575f5ffd5b506102a36105db36600461214b565b61103d565b3480156105eb575f5ffd5b506102cc611067565b3480156105ff575f5ffd5b506103085f81565b348015610612575f5ffd5b50610308670de0b6b3a764000081565b34801561062d575f5ffd5b5061027e61063c3660046120db565b611076565b34801561064c575f5ffd5b506102a361065b3660046120b1565b611149565b61030861066e36600461227a565b611156565b34801561067e575f5ffd5b5061027e61068d3660046122d5565b6115b6565b34801561069d575f5ffd5b506103087f9f2df0fed2c77648de5860a4cc508cd0818c85b8b8a1ab4ceeef8d981c8956a681565b3480156106d0575f5ffd5b5061027e6106df36600461214b565b6116ec565b3480156106ef575f5ffd5b506103086106fe366004612341565b6001600160a01b039182165f90815260016020908152604080832093909416825291909152205490565b348015610733575f5ffd5b5061027e6107423660046120f6565b611710565b348015610752575f5ffd5b50600b54610525906001600160a01b031681565b5f6001600160e01b03198216637965db0b60e01b148061079657506301ffc9a760e01b6001600160e01b03198316145b92915050565b6060600380546107ab9061236d565b80601f01602080910402602001604051908101604052809291908181526020018280546107d79061236d565b80156108225780601f106107f957610100808354040283529160200191610822565b820191905f5260205f20905b81548152906001019060200180831161080557829003601f168201915b5050505050905090565b5f33610839818585611745565b5060019392505050565b5f5160206126e45f395f51905f5261085a81611752565b6001600160a01b0382166108b05760405162461bcd60e51b815260206004820152601a60248201527f63555350443a205a65726f206f7261636c6520616464726573730000000000006044820152606401610275565b6009546040516001600160a01b038085169216907f56b5f80d8cac1479698aa7d01605fd6111e90b15fc4d2b377417f46034876cbd905f90a350600980546001600160a01b0319166001600160a01b0392909216919091179055565b5f3361091985828561175f565b6109248585856117d5565b506001949350505050565b5f8281526008602052604090206001015461094981611752565b6109538383611832565b50505050565b5f6109626118c3565b905090565b6001600160a01b03811633146109905760405163334bd91960e11b815260040160405180910390fd5b61099a82826119ec565b505050565b7f9f2df0fed2c77648de5860a4cc508cd0818c85b8b8a1ab4ceeef8d981c8956a66109c981611752565b61099a8383611a57565b7f3c11d16cbaffd01df69ce1c404f6340ee057498f5f00246190ea54220576a8486109fd81611752565b610a073383611a8b565b5050565b5f5160206126e45f395f51905f52610a2281611752565b6001600160a01b038216610a785760405162461bcd60e51b815260206004820152601e60248201527f63555350443a205a65726f2073746162696c697a6572206164647265737300006044820152606401610275565b600a546040516001600160a01b038085169216907f4fd9930550d5b9b345f1d80bce61f17c1dc8733fa06dea5fa89c47155cbb7741905f90a350600a80546001600160a01b0319166001600160a01b0392909216919091179055565b6001600160a01b0381165f90815260076020526040812054610796565b5f5f8411610b4f5760405162461bcd60e51b815260206004820152602560248201527f63555350443a2053686172657320616d6f756e74206d75737420626520706f73604482015264697469766560d81b6064820152608401610275565b6001600160a01b038316610ba55760405162461bcd60e51b815260206004820152601b60248201527f63555350443a204275726e20746f207a65726f206164647265737300000000006044820152606401610275565b6009546040516365ab8c7160e01b81525f916001600160a01b0316906365ab8c7190610bd59086906004016123c7565b6060604051808303815f875af1158015610bf1573d5f5f3e3d5ffd5b505050506040513d601f19601f82011682018060405250810190610c159190612457565b8051909150610c665760405162461bcd60e51b815260206004820152601b60248201527f63555350443a20496e76616c6964206f7261636c6520707269636500000000006044820152606401610275565b610c703386611a8b565b600a546040805160016223c16760e21b031981526004810188905283516024820152602084015160ff1660448201529083015160648201525f916001600160a01b03169063ff70fa64906084016020604051808303815f875af1158015610cd9573d5f5f3e3d5ffd5b505050506040513d601f19601f82011682018060405250810190610cfd91906124c5565b6040805188815260208101839052919250339182917fdf98f11672c77edcc0f4ed1da404198a75887435a8da9173ef3d22969dcf318c910160405180910390a381516040805188815260208101849052908101919091526001600160a01b038616907f6a8d62de1ac9f1415dd17b430b809682ff1794d5b31015f9acf43fcdf17a68859060600160405180910390a28015610ff257600b546040805163183fc7c960e31b815290515f926001600160a01b03169163c1fe3e489160048083019260209291908290030181865afa158015610dd9573d5f5f3e3d5ffd5b505050506040513d601f19601f82011682018060405250810190610dfd91906124dc565b90506001600160a01b038116610e6c5760405162461bcd60e51b815260206004820152602e60248201527f63555350443a20496e76616c696420737445544820616464726573732066726f60448201526d1b481c985d1950dbdb9d1c9858dd60921b6064820152608401610275565b6040516370a0823160e01b815230600482015282906001600160a01b038316906370a0823190602401602060405180830381865afa158015610eb0573d5f5f3e3d5ffd5b505050506040513d601f19601f82011682018060405250810190610ed491906124c5565b1015610f2d5760405162461bcd60e51b815260206004820152602260248201527f63555350443a20496e73756666696369656e7420737445544820726563656976604482015261195960f21b6064820152608401610275565b60405163a9059cbb60e01b81526001600160a01b038781166004830152602482018490525f919083169063a9059cbb906044016020604051808303815f875af1158015610f7c573d5f5f3e3d5ffd5b505050506040513d601f19601f82011682018060405250810190610fa091906124f7565b905080610fef5760405162461bcd60e51b815260206004820152601c60248201527f63555350443a207374455448207472616e73666572206661696c6564000000006044820152606401610275565b50505b95945050505050565b5f6060805f5f5f606061100c611abf565b611014611aec565b604080515f80825260208201909252600f60f81b9b939a50919850469750309650945092509050565b5f9182526008602090815260408084206001600160a01b0393909316845291905290205460ff1690565b6060600480546107ab9061236d565b5f5160206126e45f395f51905f5261108d81611752565b6001600160a01b0382166110ed5760405162461bcd60e51b815260206004820152602160248201527f63555350443a205a65726f207261746520636f6e7472616374206164647265736044820152607360f81b6064820152608401610275565b600b546040516001600160a01b038085169216907f7f0de29187af70d0a98056dd080553d3dec269c81e80033f3ca34a97b3985d3a905f90a350600b80546001600160a01b0319166001600160a01b0392909216919091179055565b5f336108398185856117d5565b5f5f34116111a65760405162461bcd60e51b815260206004820152601c60248201527f63555350443a204d7573742073656e642045544820746f206d696e74000000006044820152606401610275565b6001600160a01b0383166111fc5760405162461bcd60e51b815260206004820152601b60248201527f63555350443a204d696e7420746f207a65726f206164647265737300000000006044820152606401610275565b6009546040516365ab8c7160e01b81525f916001600160a01b0316906365ab8c719061122c9086906004016123c7565b6060604051808303815f875af1158015611248573d5f5f3e3d5ffd5b505050506040513d601f19601f8201168201806040525081019061126c9190612457565b80519091506112bd5760405162461bcd60e51b815260206004820152601b60248201527f63555350443a20496e76616c6964206f7261636c6520707269636500000000006044820152606401610275565b602081015134905f906112d49060ff16600a61260d565b83516112e09084612618565b6112ea919061262f565b90505f811161133b5760405162461bcd60e51b815260206004820152601860248201527f63555350443a204554482076616c756520746f6f206c6f7700000000000000006044820152606401610275565b600b546040805163efa7fa5d60e01b815290515f926001600160a01b03169163efa7fa5d9160048083019260209291908290030181865afa158015611382573d5f5f3e3d5ffd5b505050506040513d601f19601f820116820180604052508101906113a691906124c5565b90505f81116113f75760405162461bcd60e51b815260206004820152601b60248201527f63555350443a20496e76616c6964207969656c6420666163746f7200000000006044820152606401610275565b5f8161140b670de0b6b3a764000085612618565b611415919061262f565b600a54865160208801516040516308a3fb4d60e31b81529394505f936001600160a01b039093169263451fda6892899261145d9260040191825260ff16602082015260400190565b604080518083038185885af1158015611478573d5f5f3e3d5ffd5b50505050506040513d601f19601f8201168201806040525081019061149d919061264e565b90505f815f01515f036114b157505f611510565b815186116114c0575081611510565b5f876020015160ff16600a6114d5919061260d565b885184516114e39190612618565b6114ed919061262f565b905084611502670de0b6b3a764000083612618565b61150c919061262f565b9150505b8015611569576115208a82611a57565b815160408051918252602082018390526001600160a01b038c169133917fd9c8415d46bc958abafa67ce0dad25daa34cd66edf0fba6e9bf3cc0fc8bfe1e0910160405180910390a35b815161157590346126a9565b975087156115a957604051339089156108fc02908a905f818181858888f193505050501580156115a7573d5f5f3e3d5ffd5b505b5050505050505092915050565b834211156115da5760405163313c898160e11b815260048101859052602401610275565b5f7f6e71edae12b1b97f4d1f60370fef10105fa2faae0126114a169c64845d6126c98888886116258c6001600160a01b03165f90815260076020526040902080546001810190915590565b6040805160208101969096526001600160a01b0394851690860152929091166060840152608083015260a082015260c0810186905260e0016040516020818303038152906040528051906020012090505f61167f82611b19565b90505f61168e82878787611b45565b9050896001600160a01b0316816001600160a01b0316146116d5576040516325c0072360e11b81526001600160a01b0380831660048301528b166024820152604401610275565b6116e08a8a8a611745565b50505050505050505050565b5f8281526008602052604090206001015461170681611752565b61095383836119ec565b7f4702cfe9ce425da868e47050b25fe42f288c81eb74d83efc6cfaa2d9b6eb45c261173a81611752565b6109538484846117d5565b61099a8383836001611b71565b61175c8133611c43565b50565b6001600160a01b038381165f908152600160209081526040808320938616835292905220545f1981101561095357818110156117c757604051637dc7a0d960e11b81526001600160a01b03841660048201526024810182905260448101839052606401610275565b61095384848484035f611b71565b6001600160a01b0383166117fe57604051634b637e8f60e11b81525f6004820152602401610275565b6001600160a01b0382166118275760405163ec442f0560e01b81525f6004820152602401610275565b61099a838383611c7c565b5f61183d838361103d565b6118bc575f8381526008602090815260408083206001600160a01b03861684529091529020805460ff191660011790556118743390565b6001600160a01b0316826001600160a01b0316847f2f8788117e7eff1d82e926ec794901d17c78024a50270940304540a733656f0d60405160405180910390a4506001610796565b505f610796565b5f306001600160a01b037f00000000000000000000000000000000000000000000000000000000000000001614801561191b57507f000000000000000000000000000000000000000000000000000000000000000046145b1561194557507f000000000000000000000000000000000000000000000000000000000000000090565b610962604080517f8b73c3c69bb8fe3d512ecc4cf759cc79239f7b179b0ffacaa9a75d522b39400f60208201527f0000000000000000000000000000000000000000000000000000000000000000918101919091527f000000000000000000000000000000000000000000000000000000000000000060608201524660808201523060a08201525f9060c00160405160208183030381529060405280519060200120905090565b5f6119f7838361103d565b156118bc575f8381526008602090815260408083206001600160a01b0386168085529252808320805460ff1916905551339286917ff6391f5c32d9c69d2a47ea670b442974b53935d1edc7fd64eb21e047a839171b9190a4506001610796565b6001600160a01b038216611a805760405163ec442f0560e01b81525f6004820152602401610275565b610a075f8383611c7c565b6001600160a01b038216611ab457604051634b637e8f60e11b81525f6004820152602401610275565b610a07825f83611c7c565b60606109627f00000000000000000000000000000000000000000000000000000000000000006005611da2565b60606109627f00000000000000000000000000000000000000000000000000000000000000006006611da2565b5f610796611b256118c3565b8360405161190160f01b8152600281019290925260228201526042902090565b5f5f5f5f611b5588888888611e4b565b925092509250611b658282611f13565b50909695505050505050565b6001600160a01b038416611b9a5760405163e602df0560e01b81525f6004820152602401610275565b6001600160a01b038316611bc357604051634a1406b160e11b81525f6004820152602401610275565b6001600160a01b038085165f908152600160209081526040808320938716835292905220829055801561095357826001600160a01b0316846001600160a01b03167f8c5be1e5ebec7d5bd14f71427d1e84f3dd0314c0f7b2291e5b200ac8c7c3b92584604051611c3591815260200190565b60405180910390a350505050565b611c4d828261103d565b610a075760405163e2517d3f60e01b81526001600160a01b038216600482015260248101839052604401610275565b6001600160a01b038316611ca6578060025f828254611c9b91906126bc565b90915550611d169050565b6001600160a01b0383165f9081526020819052604090205481811015611cf85760405163391434e360e21b81526001600160a01b03851660048201526024810182905260448101839052606401610275565b6001600160a01b0384165f9081526020819052604090209082900390555b6001600160a01b038216611d3257600280548290039055611d50565b6001600160a01b0382165f9081526020819052604090208054820190555b816001600160a01b0316836001600160a01b03167fddf252ad1be2c89b69c2b068fc378daa952ba7f163c4a11628f55a4df523b3ef83604051611d9591815260200190565b60405180910390a3505050565b606060ff8314611dbc57611db583611fcb565b9050610796565b818054611dc89061236d565b80601f0160208091040260200160405190810160405280929190818152602001828054611df49061236d565b8015611e3f5780601f10611e1657610100808354040283529160200191611e3f565b820191905f5260205f20905b815481529060010190602001808311611e2257829003601f168201915b50505050509050610796565b5f80807f7fffffffffffffffffffffffffffffff5d576e7357a4501ddfe92f46681b20a0841115611e8457505f91506003905082611f09565b604080515f808252602082018084528a905260ff891692820192909252606081018790526080810186905260019060a0016020604051602081039080840390855afa158015611ed5573d5f5f3e3d5ffd5b5050604051601f1901519150506001600160a01b038116611f0057505f925060019150829050611f09565b92505f91508190505b9450945094915050565b5f826003811115611f2657611f266126cf565b03611f2f575050565b6001826003811115611f4357611f436126cf565b03611f615760405163f645eedf60e01b815260040160405180910390fd5b6002826003811115611f7557611f756126cf565b03611f965760405163fce698f760e01b815260048101829052602401610275565b6003826003811115611faa57611faa6126cf565b03610a07576040516335e2f38360e21b815260048101829052602401610275565b60605f611fd783612008565b6040805160208082528183019092529192505f91906020820181803683375050509182525060208101929092525090565b5f60ff8216601f81111561079657604051632cd44ac360e21b815260040160405180910390fd5b5f6020828403121561203f575f5ffd5b81356001600160e01b031981168114612056575f5ffd5b9392505050565b5f81518084528060208401602086015e5f602082860101526020601f19601f83011685010191505092915050565b602081525f612056602083018461205d565b6001600160a01b038116811461175c575f5ffd5b5f5f604083850312156120c2575f5ffd5b82356120cd8161209d565b946020939093013593505050565b5f602082840312156120eb575f5ffd5b81356120568161209d565b5f5f5f60608486031215612108575f5ffd5b83356121138161209d565b925060208401356121238161209d565b929592945050506040919091013590565b5f60208284031215612144575f5ffd5b5035919050565b5f5f6040838503121561215c575f5ffd5b82359150602083013561216e8161209d565b809150509250929050565b5f60a08284031215612189575f5ffd5b50919050565b5f5f5f606084860312156121a1575f5ffd5b8335925060208401356121b38161209d565b9150604084013567ffffffffffffffff8111156121ce575f5ffd5b6121da86828701612179565b9150509250925092565b60ff60f81b8816815260e060208201525f61220260e083018961205d565b8281036040840152612214818961205d565b606084018890526001600160a01b038716608085015260a0840186905283810360c0850152845180825260208087019350909101905f5b8181101561226957835183526020938401939092019160010161224b565b50909b9a5050505050505050505050565b5f5f6040838503121561228b575f5ffd5b82356122968161209d565b9150602083013567ffffffffffffffff8111156122b1575f5ffd5b6122bd85828601612179565b9150509250929050565b60ff8116811461175c575f5ffd5b5f5f5f5f5f5f5f60e0888a0312156122eb575f5ffd5b87356122f68161209d565b965060208801356123068161209d565b955060408801359450606088013593506080880135612324816122c7565b9699959850939692959460a0840135945060c09093013592915050565b5f5f60408385031215612352575f5ffd5b823561235d8161209d565b9150602083013561216e8161209d565b600181811c9082168061238157607f821691505b60208210810361218957634e487b7160e01b5f52602260045260245ffd5b81835281816020850137505f828201602090810191909152601f909101601f19169091010190565b60208082528235828201525f908301356123e0816122c7565b60ff1660408381019190915283013560608084019190915283013560808084019190915283013536849003601e19018112612419575f5ffd5b830160208101903567ffffffffffffffff811115612435575f5ffd5b803603821315612443575f5ffd5b60a080850152610ff260c08501828461239f565b5f6060828403128015612468575f5ffd5b506040516060810167ffffffffffffffff8111828210171561249857634e487b7160e01b5f52604160045260245ffd5b6040528251815260208301516124ad816122c7565b60208201526040928301519281019290925250919050565b5f602082840312156124d5575f5ffd5b5051919050565b5f602082840312156124ec575f5ffd5b81516120568161209d565b5f60208284031215612507575f5ffd5b81518015158114612056575f5ffd5b634e487b7160e01b5f52601160045260245ffd5b6001815b60018411156125655780850481111561254957612549612516565b600184161561255757908102905b60019390931c92800261252e565b935093915050565b5f8261257b57506001610796565b8161258757505f610796565b816001811461259d57600281146125a7576125c3565b6001915050610796565b60ff8411156125b8576125b8612516565b50506001821b610796565b5060208310610133831016604e8410600b84101617156125e6575081810a610796565b6125f25f19848461252a565b805f190482111561260557612605612516565b029392505050565b5f612056838361256d565b808202811582820484141761079657610796612516565b5f8261264957634e487b7160e01b5f52601260045260245ffd5b500490565b5f604082840312801561265f575f5ffd5b506040805190810167ffffffffffffffff8111828210171561268f57634e487b7160e01b5f52604160045260245ffd5b604052825181526020928301519281019290925250919050565b8181038181111561079657610796612516565b8082018082111561079657610796612516565b634e487b7160e01b5f52602160045260245ffdfe73e573f9566d61418a34d5de3ff49360f9c51fec37f7486551670290f6285daba2646970667358221220c7d38230afb268a937374423ff91eb956942432907a5bdedfe0a3a19fc8f535c64736f6c634300081d0033","linkReferences":{}},"methodIdentifiers":{"BURNER_ROLE()":"282c51f3","DEFAULT_ADMIN_ROLE()":"a217fddf","DOMAIN_SEPARATOR()":"3644e515","FACTOR_PRECISION()":"a42c69a9","MINTER_ROLE()":"d5391393","UPDATER_ROLE()":"47e63380","USPD_CALLER_ROLE()":"73956b03","allowance(address,address)":"dd62ed3e","approve(address,uint256)":"095ea7b3","balanceOf(address)":"70a08231","burn(uint256)":"42966c68","burnShares(uint256,address,(uint256,uint8,uint256,bytes32,bytes))":"84418713","decimals()":"313ce567","eip712Domain()":"84b0196e","executeTransfer(address,address,uint256)":"e58ef8a8","getRoleAdmin(bytes32)":"248a9ca3","grantRole(bytes32,address)":"2f2ff15d","hasRole(bytes32,address)":"91d14854","mint(address,uint256)":"40c10f19","mintShares(address,(uint256,uint8,uint256,bytes32,bytes))":"bda11bed","name()":"06fdde03","nonces(address)":"7ecebe00","oracle()":"7dc0d1d0","permit(address,address,uint256,uint256,uint8,bytes32,bytes32)":"d505accf","rateContract()":"eee24219","renounceRole(bytes32,address)":"36568abe","revokeRole(bytes32,address)":"d547741f","stabilizer()":"7e47961c","supportsInterface(bytes4)":"01ffc9a7","symbol()":"95d89b41","totalSupply()":"18160ddd","transfer(address,uint256)":"a9059cbb","transferFrom(address,address,uint256)":"23b872dd","updateOracle(address)":"1cb44dfc","updateRateContract(address)":"a6f4ae27","updateStabilizer(address)":"46dc94c4"},"storageLayout":{"storage":[{"astId":43765,"contract":"src/cUSPDToken.sol:cUSPDToken","label":"_balances","offset":0,"slot":"0","type":"t_mapping(t_address,t_uint256)"},{"astId":43771,"contract":"src/cUSPDToken.sol:cUSPDToken","label":"_allowances","offset":0,"slot":"1","type":"t_mapping(t_address,t_mapping(t_address,t_uint256))"},{"astId":43773,"contract":"src/cUSPDToken.sol:cUSPDToken","label":"_totalSupply","offset":0,"slot":"2","type":"t_uint256"},{"astId":43775,"contract":"src/cUSPDToken.sol:cUSPDToken","label":"_name","offset":0,"slot":"3","type":"t_string_storage"},{"astId":43777,"contract":"src/cUSPDToken.sol:cUSPDToken","label":"_symbol","offset":0,"slot":"4","type":"t_string_storage"},{"astId":47349,"contract":"src/cUSPDToken.sol:cUSPDToken","label":"_nameFallback","offset":0,"slot":"5","type":"t_string_storage"},{"astId":47351,"contract":"src/cUSPDToken.sol:cUSPDToken","label":"_versionFallback","offset":0,"slot":"6","type":"t_string_storage"},{"astId":45248,"contract":"src/cUSPDToken.sol:cUSPDToken","label":"_nonces","offset":0,"slot":"7","type":"t_mapping(t_address,t_uint256)"},{"astId":42088,"contract":"src/cUSPDToken.sol:cUSPDToken","label":"_roles","offset":0,"slot":"8","type":"t_mapping(t_bytes32,t_struct(RoleData)42083_storage)"},{"astId":61771,"contract":"src/cUSPDToken.sol:cUSPDToken","label":"oracle","offset":0,"slot":"9","type":"t_contract(IPriceOracle)62892"},{"astId":61774,"contract":"src/cUSPDToken.sol:cUSPDToken","label":"stabilizer","offset":0,"slot":"10","type":"t_contract(IStabilizerNFT)62998"},{"astId":61777,"contract":"src/cUSPDToken.sol:cUSPDToken","label":"rateContract","offset":0,"slot":"11","type":"t_contract(IPoolSharesConversionRate)62734"}],"types":{"t_address":{"encoding":"inplace","label":"address","numberOfBytes":"20"},"t_bool":{"encoding":"inplace","label":"bool","numberOfBytes":"1"},"t_bytes32":{"encoding":"inplace","label":"bytes32","numberOfBytes":"32"},"t_contract(IPoolSharesConversionRate)62734":{"encoding":"inplace","label":"contract IPoolSharesConversionRate","numberOfBytes":"20"},"t_contract(IPriceOracle)62892":{"encoding":"inplace","label":"contract IPriceOracle","numberOfBytes":"20"},"t_contract(IStabilizerNFT)62998":{"encoding":"inplace","label":"contract IStabilizerNFT","numberOfBytes":"20"},"t_mapping(t_address,t_bool)":{"encoding":"mapping","key":"t_address","label":"mapping(address => bool)","numberOfBytes":"32","value":"t_bool"},"t_mapping(t_address,t_mapping(t_address,t_uint256))":{"encoding":"mapping","key":"t_address","label":"mapping(address => mapping(address => uint256))","numberOfBytes":"32","value":"t_mapping(t_address,t_uint256)"},"t_mapping(t_address,t_uint256)":{"encoding":"mapping","key":"t_address","label":"mapping(address => uint256)","numberOfBytes":"32","value":"t_uint256"},"t_mapping(t_bytes32,t_struct(RoleData)42083_storage)":{"encoding":"mapping","key":"t_bytes32","label":"mapping(bytes32 => struct AccessControl.RoleData)","numberOfBytes":"32","value":"t_struct(RoleData)42083_storage"},"t_string_storage":{"encoding":"bytes","label":"string","numberOfBytes":"32"},"t_struct(RoleData)42083_storage":{"encoding":"inplace","label":"struct AccessControl.RoleData","numberOfBytes":"64","members":[{"astId":42080,"contract":"src/cUSPDToken.sol:cUSPDToken","label":"hasRole","offset":0,"slot":"0","type":"t_mapping(t_address,t_bool)"},{"astId":42082,"contract":"src/cUSPDToken.sol:cUSPDToken","label":"adminRole","offset":0,"slot":"1","type":"t_bytes32"}]},"t_uint256":{"encoding":"inplace","label":"uint256","numberOfBytes":"32"}}},"id":94}