{"abi":[{"type":"constructor","inputs":[{"name":"_stETHAddress","type":"address","internalType":"address"},{"name":"_lidoAddress","type":"address","internalType":"address"},{"name":"_admin","type":"address","internalType":"address"}],"stateMutability":"payable"},{"type":"function","name":"DEFAULT_ADMIN_ROLE","inputs":[],"outputs":[{"name":"","type":"bytes32","internalType":"bytes32"}],"stateMutability":"view"},{"type":"function","name":"FACTOR_PRECISION","inputs":[],"outputs":[{"name":"","type":"uint256","internalType":"uint256"}],"stateMutability":"view"},{"type":"function","name":"MAINNET_CHAIN_ID","inputs":[],"outputs":[{"name":"","type":"uint256","internalType":"uint256"}],"stateMutability":"view"},{"type":"function","name":"YIELD_FACTOR_UPDATER_ROLE","inputs":[],"outputs":[{"name":"","type":"bytes32","internalType":"bytes32"}],"stateMutability":"view"},{"type":"function","name":"getRoleAdmin","inputs":[{"name":"role","type":"bytes32","internalType":"bytes32"}],"outputs":[{"name":"","type":"bytes32","internalType":"bytes32"}],"stateMutability":"view"},{"type":"function","name":"getYieldFactor","inputs":[],"outputs":[{"name":"yieldFactor","type":"uint256","internalType":"uint256"}],"stateMutability":"view"},{"type":"function","name":"grantRole","inputs":[{"name":"role","type":"bytes32","internalType":"bytes32"},{"name":"account","type":"address","internalType":"address"}],"outputs":[],"stateMutability":"nonpayable"},{"type":"function","name":"hasRole","inputs":[{"name":"role","type":"bytes32","internalType":"bytes32"},{"name":"account","type":"address","internalType":"address"}],"outputs":[{"name":"","type":"bool","internalType":"bool"}],"stateMutability":"view"},{"type":"function","name":"initialStEthBalance","inputs":[],"outputs":[{"name":"","type":"uint256","internalType":"uint256"}],"stateMutability":"view"},{"type":"function","name":"renounceRole","inputs":[{"name":"role","type":"bytes32","internalType":"bytes32"},{"name":"callerConfirmation","type":"address","internalType":"address"}],"outputs":[],"stateMutability":"nonpayable"},{"type":"function","name":"revokeRole","inputs":[{"name":"role","type":"bytes32","internalType":"bytes32"},{"name":"account","type":"address","internalType":"address"}],"outputs":[],"stateMutability":"nonpayable"},{"type":"function","name":"stETH","inputs":[],"outputs":[{"name":"","type":"address","internalType":"address"}],"stateMutability":"view"},{"type":"function","name":"supportsInterface","inputs":[{"name":"interfaceId","type":"bytes4","internalType":"bytes4"}],"outputs":[{"name":"","type":"bool","internalType":"bool"}],"stateMutability":"view"},{"type":"function","name":"updateL2YieldFactor","inputs":[{"name":"newYieldFactor","type":"uint256","internalType":"uint256"}],"outputs":[],"stateMutability":"nonpayable"},{"type":"event","name":"RoleAdminChanged","inputs":[{"name":"role","type":"bytes32","indexed":true,"internalType":"bytes32"},{"name":"previousAdminRole","type":"bytes32","indexed":true,"internalType":"bytes32"},{"name":"newAdminRole","type":"bytes32","indexed":true,"internalType":"bytes32"}],"anonymous":false},{"type":"event","name":"RoleGranted","inputs":[{"name":"role","type":"bytes32","indexed":true,"internalType":"bytes32"},{"name":"account","type":"address","indexed":true,"internalType":"address"},{"name":"sender","type":"address","indexed":true,"internalType":"address"}],"anonymous":false},{"type":"event","name":"RoleRevoked","inputs":[{"name":"role","type":"bytes32","indexed":true,"internalType":"bytes32"},{"name":"account","type":"address","indexed":true,"internalType":"address"},{"name":"sender","type":"address","indexed":true,"internalType":"address"}],"anonymous":false},{"type":"event","name":"YieldFactorUpdated","inputs":[{"name":"oldYieldFactor","type":"uint256","indexed":false,"internalType":"uint256"},{"name":"newYieldFactor","type":"uint256","indexed":false,"internalType":"uint256"}],"anonymous":false},{"type":"error","name":"AccessControlBadConfirmation","inputs":[]},{"type":"error","name":"AccessControlUnauthorizedAccount","inputs":[{"name":"account","type":"address","internalType":"address"},{"name":"neededRole","type":"bytes32","internalType":"bytes32"}]},{"type":"error","name":"InitialBalanceZero","inputs":[]},{"type":"error","name":"LidoAddressZero","inputs":[]},{"type":"error","name":"LidoSubmitFailed","inputs":[]},{"type":"error","name":"NoEthSent","inputs":[]},{"type":"error","name":"NotL1Chain","inputs":[]},{"type":"error","name":"NotL2Chain","inputs":[]},{"type":"error","name":"StEthAddressZero","inputs":[]},{"type":"error","name":"YieldFactorDecreaseNotAllowed","inputs":[]}],"bytecode":{"object":"0x60c0604052604051610a96380380610a96833981016040819052610022916102d0565b61002c5f8261020c565b50600146036101c3576001600160a01b03831661005f5760405160016203b73b60e21b0319815260040160405180910390fd5b6001600160a01b0382166100865760405163556b6e9d60e11b815260040160405180910390fd5b345f036100a65760405163717e6b7b60e01b815260040160405180910390fd5b6001600160a01b0383811660805260405163a1903eab60e01b81525f60048201529083169063a1903eab90349060240160206040518083038185885af193505050508015610111575060408051601f3d908101601f1916820190925261010e91810190610310565b60015b61012e57604051633b7df2f760e01b815260040160405180910390fd5b506080516040516370a0823160e01b81523060048201525f916001600160a01b0316906370a0823190602401602060405180830381865afa158015610175573d5f5f3e3d5ffd5b505050506040513d601f19601f820116820180604052508101906101999190610310565b9050805f036101bb576040516369a94c4960e01b815260040160405180910390fd5b60a052610204565b5f608081905260a052670de0b6b3a76400006001556102027f6349981c8f973aae243626fb13628338972392c22bccc395c05a43c57e7f24398261020c565b505b505050610327565b5f828152602081815260408083206001600160a01b038516845290915281205460ff166102ac575f838152602081815260408083206001600160a01b03861684529091529020805460ff191660011790556102643390565b6001600160a01b0316826001600160a01b0316847f2f8788117e7eff1d82e926ec794901d17c78024a50270940304540a733656f0d60405160405180910390a45060016102af565b505f5b92915050565b80516001600160a01b03811681146102cb575f5ffd5b919050565b5f5f5f606084860312156102e2575f5ffd5b6102eb846102b5565b92506102f9602085016102b5565b9150610307604085016102b5565b90509250925092565b5f60208284031215610320575f5ffd5b5051919050565b60805160a0516107406103565f395f81816101b201526103f801525f81816101d9015261044f01526107405ff3fe608060405234801561000f575f5ffd5b50600436106100e5575f3560e01c8063a217fddf11610088578063c1fe3e4811610063578063c1fe3e48146101d4578063d547741f14610213578063d5648d8c14610226578063efa7fa5d1461024d575f5ffd5b8063a217fddf14610197578063a42c69a91461019e578063b646346b146101ad575f5ffd5b80632f2ff15d116100c35780632f2ff15d1461015657806336568abe1461016957806368c200571461017c57806391d1485414610184575f5ffd5b806301ffc9a7146100e9578063248a9ca3146101115780632bac811814610141575b5f5ffd5b6100fc6100f7366004610633565b610255565b60405190151581526020015b60405180910390f35b61013361011f366004610661565b5f9081526020819052604090206001015490565b604051908152602001610108565b61015461014f366004610661565b61028b565b005b610154610164366004610678565b61033f565b610154610177366004610678565b610369565b610133600181565b6100fc610192366004610678565b6103a1565b6101335f81565b610133670de0b6b3a764000081565b6101337f000000000000000000000000000000000000000000000000000000000000000081565b6101fb7f000000000000000000000000000000000000000000000000000000000000000081565b6040516001600160a01b039091168152602001610108565b610154610221366004610678565b6103c9565b6101337f6349981c8f973aae243626fb13628338972392c22bccc395c05a43c57e7f243981565b6101336103ed565b5f6001600160e01b03198216637965db0b60e01b148061028557506301ffc9a760e01b6001600160e01b03198316145b92915050565b7f6349981c8f973aae243626fb13628338972392c22bccc395c05a43c57e7f24396102b5816104ed565b600146036102d6576040516348e9beb760e01b815260040160405180910390fd5b6001548210156102f95760405163e2f5ba2560e01b815260040160405180910390fd5b600180549083905560408051828152602081018590527f3b6bdcf53af9f5bc4a2eba59bc1a138f5711c133e6dbf67af92230cbae6c5d52910160405180910390a1505050565b5f82815260208190526040902060010154610359816104ed565b61036383836104fa565b50505050565b6001600160a01b03811633146103925760405163334bd91960e11b815260040160405180910390fd5b61039c8282610589565b505050565b5f918252602082815260408084206001600160a01b0393909316845291905290205460ff1690565b5f828152602081905260409020600101546103e3816104ed565b6103638383610589565b5f600146036104e6577f00000000000000000000000000000000000000000000000000000000000000005f819003610438576040516369a94c4960e01b815260040160405180910390fd5b6040516370a0823160e01b81523060048201525f907f00000000000000000000000000000000000000000000000000000000000000006001600160a01b0316906370a0823190602401602060405180830381865afa15801561049c573d5f5f3e3d5ffd5b505050506040513d601f19601f820116820180604052508101906104c091906106b1565b9050816104d5670de0b6b3a7640000836106c8565b6104df91906106eb565b9250505090565b5060015490565b6104f781336105f2565b50565b5f61050583836103a1565b610582575f838152602081815260408083206001600160a01b03861684529091529020805460ff1916600117905561053a3390565b6001600160a01b0316826001600160a01b0316847f2f8788117e7eff1d82e926ec794901d17c78024a50270940304540a733656f0d60405160405180910390a4506001610285565b505f610285565b5f61059483836103a1565b15610582575f838152602081815260408083206001600160a01b0386168085529252808320805460ff1916905551339286917ff6391f5c32d9c69d2a47ea670b442974b53935d1edc7fd64eb21e047a839171b9190a4506001610285565b6105fc82826103a1565b61062f5760405163e2517d3f60e01b81526001600160a01b03821660048201526024810183905260440160405180910390fd5b5050565b5f60208284031215610643575f5ffd5b81356001600160e01b03198116811461065a575f5ffd5b9392505050565b5f60208284031215610671575f5ffd5b5035919050565b5f5f60408385031215610689575f5ffd5b8235915060208301356001600160a01b03811681146106a6575f5ffd5b809150509250929050565b5f602082840312156106c1575f5ffd5b5051919050565b808202811582820484141761028557634e487b7160e01b5f52601160045260245ffd5b5f8261070557634e487b7160e01b5f52601260045260245ffd5b50049056fea26469706673582212204bb1c75d9a2c3aa53630a1b9b4fd8688e325818de93b2831e6c363fe3eb3644d64736f6c634300081d0033","linkReferences":{}},"methodIdentifiers":{"DEFAULT_ADMIN_ROLE()":"a217fddf","FACTOR_PRECISION()":"a42c69a9","MAINNET_CHAIN_ID()":"68c20057","YIELD_FACTOR_UPDATER_ROLE()":"d5648d8c","getRoleAdmin(bytes32)":"248a9ca3","getYieldFactor()":"efa7fa5d","grantRole(bytes32,address)":"2f2ff15d","hasRole(bytes32,address)":"91d14854","initialStEthBalance()":"b646346b","renounceRole(bytes32,address)":"36568abe","revokeRole(bytes32,address)":"d547741f","stETH()":"c1fe3e48","supportsInterface(bytes4)":"01ffc9a7","updateL2YieldFactor(uint256)":"2bac8118"},"storageLayout":{"storage":[{"astId":42088,"contract":"src/PoolSharesConversionRate.sol:PoolSharesConversionRate","label":"_roles","offset":0,"slot":"0","type":"t_mapping(t_bytes32,t_struct(RoleData)42083_storage)"},{"astId":56199,"contract":"src/PoolSharesConversionRate.sol:PoolSharesConversionRate","label":"_yieldFactor","offset":0,"slot":"1","type":"t_uint256"}],"types":{"t_address":{"encoding":"inplace","label":"address","numberOfBytes":"20"},"t_bool":{"encoding":"inplace","label":"bool","numberOfBytes":"1"},"t_bytes32":{"encoding":"inplace","label":"bytes32","numberOfBytes":"32"},"t_mapping(t_address,t_bool)":{"encoding":"mapping","key":"t_address","label":"mapping(address => bool)","numberOfBytes":"32","value":"t_bool"},"t_mapping(t_bytes32,t_struct(RoleData)42083_storage)":{"encoding":"mapping","key":"t_bytes32","label":"mapping(bytes32 => struct AccessControl.RoleData)","numberOfBytes":"32","value":"t_struct(RoleData)42083_storage"},"t_struct(RoleData)42083_storage":{"encoding":"inplace","label":"struct AccessControl.RoleData","numberOfBytes":"64","members":[{"astId":42080,"contract":"src/PoolSharesConversionRate.sol:PoolSharesConversionRate","label":"hasRole","offset":0,"slot":"0","type":"t_mapping(t_address,t_bool)"},{"astId":42082,"contract":"src/PoolSharesConversionRate.sol:PoolSharesConversionRate","label":"adminRole","offset":0,"slot":"1","type":"t_bytes32"}]},"t_uint256":{"encoding":"inplace","label":"uint256","numberOfBytes":"32"}}},"id":88}