{"abi":[{"type":"constructor","inputs":[{"name":"_stETHAddress","type":"address","internalType":"address"},{"name":"_admin","type":"address","internalType":"address"}],"stateMutability":"nonpayable"},{"type":"function","name":"DEFAULT_ADMIN_ROLE","inputs":[],"outputs":[{"name":"","type":"bytes32","internalType":"bytes32"}],"stateMutability":"view"},{"type":"function","name":"FACTOR_PRECISION","inputs":[],"outputs":[{"name":"","type":"uint256","internalType":"uint256"}],"stateMutability":"view"},{"type":"function","name":"MAINNET_CHAIN_ID","inputs":[],"outputs":[{"name":"","type":"uint256","internalType":"uint256"}],"stateMutability":"view"},{"type":"function","name":"MAINNET_TEST_CHAIN_ID","inputs":[],"outputs":[{"name":"","type":"uint256","internalType":"uint256"}],"stateMutability":"view"},{"type":"function","name":"YIELD_FACTOR_UPDATER_ROLE","inputs":[],"outputs":[{"name":"","type":"bytes32","internalType":"bytes32"}],"stateMutability":"view"},{"type":"function","name":"getRoleAdmin","inputs":[{"name":"role","type":"bytes32","internalType":"bytes32"}],"outputs":[{"name":"","type":"bytes32","internalType":"bytes32"}],"stateMutability":"view"},{"type":"function","name":"getYieldFactor","inputs":[],"outputs":[{"name":"yieldFactor","type":"uint256","internalType":"uint256"}],"stateMutability":"view"},{"type":"function","name":"grantRole","inputs":[{"name":"role","type":"bytes32","internalType":"bytes32"},{"name":"account","type":"address","internalType":"address"}],"outputs":[],"stateMutability":"nonpayable"},{"type":"function","name":"hasRole","inputs":[{"name":"role","type":"bytes32","internalType":"bytes32"},{"name":"account","type":"address","internalType":"address"}],"outputs":[{"name":"","type":"bool","internalType":"bool"}],"stateMutability":"view"},{"type":"function","name":"initialEthEquivalentPerShare","inputs":[],"outputs":[{"name":"","type":"uint256","internalType":"uint256"}],"stateMutability":"view"},{"type":"function","name":"renounceRole","inputs":[{"name":"role","type":"bytes32","internalType":"bytes32"},{"name":"callerConfirmation","type":"address","internalType":"address"}],"outputs":[],"stateMutability":"nonpayable"},{"type":"function","name":"revokeRole","inputs":[{"name":"role","type":"bytes32","internalType":"bytes32"},{"name":"account","type":"address","internalType":"address"}],"outputs":[],"stateMutability":"nonpayable"},{"type":"function","name":"rewardsYieldBooster","inputs":[],"outputs":[{"name":"","type":"address","internalType":"contract IRewardsYieldBooster"}],"stateMutability":"view"},{"type":"function","name":"setRewardsYieldBooster","inputs":[{"name":"_boosterAddress","type":"address","internalType":"address"}],"outputs":[],"stateMutability":"nonpayable"},{"type":"function","name":"stETH","inputs":[],"outputs":[{"name":"","type":"address","internalType":"address"}],"stateMutability":"view"},{"type":"function","name":"supportsInterface","inputs":[{"name":"interfaceId","type":"bytes4","internalType":"bytes4"}],"outputs":[{"name":"","type":"bool","internalType":"bool"}],"stateMutability":"view"},{"type":"function","name":"updateL2YieldFactor","inputs":[{"name":"newYieldFactor","type":"uint256","internalType":"uint256"}],"outputs":[],"stateMutability":"nonpayable"},{"type":"event","name":"RewardsYieldBoosterUpdated","inputs":[{"name":"oldBooster","type":"address","indexed":true,"internalType":"address"},{"name":"newBooster","type":"address","indexed":true,"internalType":"address"}],"anonymous":false},{"type":"event","name":"RoleAdminChanged","inputs":[{"name":"role","type":"bytes32","indexed":true,"internalType":"bytes32"},{"name":"previousAdminRole","type":"bytes32","indexed":true,"internalType":"bytes32"},{"name":"newAdminRole","type":"bytes32","indexed":true,"internalType":"bytes32"}],"anonymous":false},{"type":"event","name":"RoleGranted","inputs":[{"name":"role","type":"bytes32","indexed":true,"internalType":"bytes32"},{"name":"account","type":"address","indexed":true,"internalType":"address"},{"name":"sender","type":"address","indexed":true,"internalType":"address"}],"anonymous":false},{"type":"event","name":"RoleRevoked","inputs":[{"name":"role","type":"bytes32","indexed":true,"internalType":"bytes32"},{"name":"account","type":"address","indexed":true,"internalType":"address"},{"name":"sender","type":"address","indexed":true,"internalType":"address"}],"anonymous":false},{"type":"event","name":"YieldFactorUpdated","inputs":[{"name":"oldYieldFactor","type":"uint256","indexed":false,"internalType":"uint256"},{"name":"newYieldFactor","type":"uint256","indexed":false,"internalType":"uint256"}],"anonymous":false},{"type":"error","name":"AccessControlBadConfirmation","inputs":[]},{"type":"error","name":"AccessControlUnauthorizedAccount","inputs":[{"name":"account","type":"address","internalType":"address"},{"name":"neededRole","type":"bytes32","internalType":"bytes32"}]},{"type":"error","name":"InitialRateZero","inputs":[]},{"type":"error","name":"NotL1Chain","inputs":[]},{"type":"error","name":"NotL2Chain","inputs":[]},{"type":"error","name":"StEthAddressZero","inputs":[]},{"type":"error","name":"YieldFactorDecreaseNotAllowed","inputs":[]}],"bytecode":{"object":"0x60c060405234801561000f575f5ffd5b50604051610b33380380610b3383398101604081905261002e91610224565b6100385f82610160565b50600146148061004a575062aa36a746145b15610118576001600160a01b0382166100795760405160016203b73b60e21b0319815260040160405180910390fd5b6001600160a01b0382166080819052604051630f451f7160e31b8152670de0b6b3a764000060048201525f9190637a28fb8890602401602060405180830381865afa1580156100ca573d5f5f3e3d5ffd5b505050506040513d601f19601f820116820180604052508101906100ee9190610255565b9050805f036101105760405163afe6d04360e01b815260040160405180910390fd5b60a052610159565b5f608081905260a052670de0b6b3a76400006001556101577f6349981c8f973aae243626fb13628338972392c22bccc395c05a43c57e7f243982610160565b505b505061026c565b5f828152602081815260408083206001600160a01b038516845290915281205460ff16610200575f838152602081815260408083206001600160a01b03861684529091529020805460ff191660011790556101b83390565b6001600160a01b0316826001600160a01b0316847f2f8788117e7eff1d82e926ec794901d17c78024a50270940304540a733656f0d60405160405180910390a4506001610203565b505f5b92915050565b80516001600160a01b038116811461021f575f5ffd5b919050565b5f5f60408385031215610235575f5ffd5b61023e83610209565b915061024c60208401610209565b90509250929050565b5f60208284031215610265575f5ffd5b5051919050565b60805160a05161089861029b5f395f818161027c01526104a901525f818161021b015261050801526108985ff3fe608060405234801561000f575f5ffd5b5060043610610106575f3560e01c8063a217fddf1161009e578063c1fe3e481161006e578063c1fe3e4814610216578063d547741f1461023d578063d5648d8c14610250578063e8c39cb314610277578063efa7fa5d1461029e575f5ffd5b8063a217fddf146101cb578063a42c69a9146101d2578063b729e72f146101e1578063bacf618d146101eb575f5ffd5b806336568abe116100d957806336568abe1461018a5780635dc747201461019d57806368c20057146101b057806391d14854146101b8575f5ffd5b806301ffc9a71461010a578063248a9ca3146101325780632bac8118146101625780632f2ff15d14610177575b5f5ffd5b61011d610118366004610786565b6102a6565b60405190151581526020015b60405180910390f35b6101546101403660046107b4565b5f9081526020819052604090206001015490565b604051908152602001610129565b6101756101703660046107b4565b6102dc565b005b6101756101853660046107e1565b61037b565b6101756101983660046107e1565b6103a5565b6101756101ab36600461080b565b6103dd565b610154600181565b61011d6101c63660046107e1565b610443565b6101545f81565b610154670de0b6b3a764000081565b61015462aa36a781565b6002546101fe906001600160a01b031681565b6040516001600160a01b039091168152602001610129565b6101fe7f000000000000000000000000000000000000000000000000000000000000000081565b61017561024b3660046107e1565b61046b565b6101547f6349981c8f973aae243626fb13628338972392c22bccc395c05a43c57e7f243981565b6101547f000000000000000000000000000000000000000000000000000000000000000081565b61015461048f565b5f6001600160e01b03198216637965db0b60e01b14806102d657506301ffc9a760e01b6001600160e01b03198316145b92915050565b7f6349981c8f973aae243626fb13628338972392c22bccc395c05a43c57e7f243961030681610640565b6001461480610317575062aa36a746145b15610335576040516348e9beb760e01b815260040160405180910390fd5b600180549083905560408051828152602081018590527f3b6bdcf53af9f5bc4a2eba59bc1a138f5711c133e6dbf67af92230cbae6c5d52910160405180910390a1505050565b5f8281526020819052604090206001015461039581610640565b61039f838361064d565b50505050565b6001600160a01b03811633146103ce5760405163334bd91960e11b815260040160405180910390fd5b6103d882826106dc565b505050565b5f6103e781610640565b6002546040516001600160a01b038085169216907f7412404b785c9205376ebecc024e92417328d2baffb531651a06045c80334e96905f90a350600280546001600160a01b0319166001600160a01b0392909216919091179055565b5f918252602082815260408084206001600160a01b0393909316845291905290205460ff1690565b5f8281526020819052604090206001015461048581610640565b61039f83836106dc565b5f5f60014614806104a2575062aa36a746145b156105a1577f00000000000000000000000000000000000000000000000000000000000000005f8190036104e95760405163afe6d04360e01b815260040160405180910390fd5b604051630f451f7160e31b8152670de0b6b3a764000060048201525f907f00000000000000000000000000000000000000000000000000000000000000006001600160a01b031690637a28fb8890602401602060405180830381865afa158015610555573d5f5f3e3d5ffd5b505050506040513d601f19601f820116820180604052508101906105799190610824565b90508161058e670de0b6b3a76400008361084f565b6105989190610866565b925050506105a6565b506001545b6002546001600160a01b03161561063b5760025f9054906101000a90046001600160a01b03166001600160a01b03166383113ec36040518163ffffffff1660e01b8152600401602060405180830381865afa158015610607573d5f5f3e3d5ffd5b505050506040513d601f19601f8201168201806040525081019061062b9190610824565b6106359082610885565b91505090565b919050565b61064a8133610745565b50565b5f6106588383610443565b6106d5575f838152602081815260408083206001600160a01b03861684529091529020805460ff1916600117905561068d3390565b6001600160a01b0316826001600160a01b0316847f2f8788117e7eff1d82e926ec794901d17c78024a50270940304540a733656f0d60405160405180910390a45060016102d6565b505f6102d6565b5f6106e78383610443565b156106d5575f838152602081815260408083206001600160a01b0386168085529252808320805460ff1916905551339286917ff6391f5c32d9c69d2a47ea670b442974b53935d1edc7fd64eb21e047a839171b9190a45060016102d6565b61074f8282610443565b6107825760405163e2517d3f60e01b81526001600160a01b03821660048201526024810183905260440160405180910390fd5b5050565b5f60208284031215610796575f5ffd5b81356001600160e01b0319811681146107ad575f5ffd5b9392505050565b5f602082840312156107c4575f5ffd5b5035919050565b80356001600160a01b038116811461063b575f5ffd5b5f5f604083850312156107f2575f5ffd5b82359150610802602084016107cb565b90509250929050565b5f6020828403121561081b575f5ffd5b6107ad826107cb565b5f60208284031215610834575f5ffd5b5051919050565b634e487b7160e01b5f52601160045260245ffd5b80820281158282048414176102d6576102d661083b565b5f8261088057634e487b7160e01b5f52601260045260245ffd5b500490565b808201808211156102d6576102d661083b56","linkReferences":{}},"methodIdentifiers":{"DEFAULT_ADMIN_ROLE()":"a217fddf","FACTOR_PRECISION()":"a42c69a9","MAINNET_CHAIN_ID()":"68c20057","MAINNET_TEST_CHAIN_ID()":"b729e72f","YIELD_FACTOR_UPDATER_ROLE()":"d5648d8c","getRoleAdmin(bytes32)":"248a9ca3","getYieldFactor()":"efa7fa5d","grantRole(bytes32,address)":"2f2ff15d","hasRole(bytes32,address)":"91d14854","initialEthEquivalentPerShare()":"e8c39cb3","renounceRole(bytes32,address)":"36568abe","revokeRole(bytes32,address)":"d547741f","rewardsYieldBooster()":"bacf618d","setRewardsYieldBooster(address)":"5dc74720","stETH()":"c1fe3e48","supportsInterface(bytes4)":"01ffc9a7","updateL2YieldFactor(uint256)":"2bac8118"},"storageLayout":{"storage":[{"astId":38111,"contract":"src/PoolSharesConversionRate.sol:PoolSharesConversionRate","label":"_roles","offset":0,"slot":"0","type":"t_mapping(t_bytes32,t_struct(RoleData)38106_storage)"},{"astId":50543,"contract":"src/PoolSharesConversionRate.sol:PoolSharesConversionRate","label":"_yieldFactor","offset":0,"slot":"1","type":"t_uint256"},{"astId":50547,"contract":"src/PoolSharesConversionRate.sol:PoolSharesConversionRate","label":"rewardsYieldBooster","offset":0,"slot":"2","type":"t_contract(IRewardsYieldBooster)58661"}],"types":{"t_address":{"encoding":"inplace","label":"address","numberOfBytes":"20"},"t_bool":{"encoding":"inplace","label":"bool","numberOfBytes":"1"},"t_bytes32":{"encoding":"inplace","label":"bytes32","numberOfBytes":"32"},"t_contract(IRewardsYieldBooster)58661":{"encoding":"inplace","label":"contract IRewardsYieldBooster","numberOfBytes":"20"},"t_mapping(t_address,t_bool)":{"encoding":"mapping","key":"t_address","label":"mapping(address => bool)","numberOfBytes":"32","value":"t_bool"},"t_mapping(t_bytes32,t_struct(RoleData)38106_storage)":{"encoding":"mapping","key":"t_bytes32","label":"mapping(bytes32 => struct AccessControl.RoleData)","numberOfBytes":"32","value":"t_struct(RoleData)38106_storage"},"t_struct(RoleData)38106_storage":{"encoding":"inplace","label":"struct AccessControl.RoleData","numberOfBytes":"64","members":[{"astId":38103,"contract":"src/PoolSharesConversionRate.sol:PoolSharesConversionRate","label":"hasRole","offset":0,"slot":"0","type":"t_mapping(t_address,t_bool)"},{"astId":38105,"contract":"src/PoolSharesConversionRate.sol:PoolSharesConversionRate","label":"adminRole","offset":0,"slot":"1","type":"t_bytes32"}]},"t_uint256":{"encoding":"inplace","label":"uint256","numberOfBytes":"32"}}},"id":78}