{"abi":[{"type":"constructor","inputs":[{"name":"_stETHAddress","type":"address","internalType":"address"},{"name":"_admin","type":"address","internalType":"address"}],"stateMutability":"nonpayable"},{"type":"function","name":"DEFAULT_ADMIN_ROLE","inputs":[],"outputs":[{"name":"","type":"bytes32","internalType":"bytes32"}],"stateMutability":"view"},{"type":"function","name":"FACTOR_PRECISION","inputs":[],"outputs":[{"name":"","type":"uint256","internalType":"uint256"}],"stateMutability":"view"},{"type":"function","name":"MAINNET_CHAIN_ID","inputs":[],"outputs":[{"name":"","type":"uint256","internalType":"uint256"}],"stateMutability":"view"},{"type":"function","name":"MAINNET_TEST_CHAIN_ID","inputs":[],"outputs":[{"name":"","type":"uint256","internalType":"uint256"}],"stateMutability":"view"},{"type":"function","name":"YIELD_FACTOR_UPDATER_ROLE","inputs":[],"outputs":[{"name":"","type":"bytes32","internalType":"bytes32"}],"stateMutability":"view"},{"type":"function","name":"getRoleAdmin","inputs":[{"name":"role","type":"bytes32","internalType":"bytes32"}],"outputs":[{"name":"","type":"bytes32","internalType":"bytes32"}],"stateMutability":"view"},{"type":"function","name":"getYieldFactor","inputs":[],"outputs":[{"name":"yieldFactor","type":"uint256","internalType":"uint256"}],"stateMutability":"view"},{"type":"function","name":"grantRole","inputs":[{"name":"role","type":"bytes32","internalType":"bytes32"},{"name":"account","type":"address","internalType":"address"}],"outputs":[],"stateMutability":"nonpayable"},{"type":"function","name":"hasRole","inputs":[{"name":"role","type":"bytes32","internalType":"bytes32"},{"name":"account","type":"address","internalType":"address"}],"outputs":[{"name":"","type":"bool","internalType":"bool"}],"stateMutability":"view"},{"type":"function","name":"initialEthEquivalentPerShare","inputs":[],"outputs":[{"name":"","type":"uint256","internalType":"uint256"}],"stateMutability":"view"},{"type":"function","name":"renounceRole","inputs":[{"name":"role","type":"bytes32","internalType":"bytes32"},{"name":"callerConfirmation","type":"address","internalType":"address"}],"outputs":[],"stateMutability":"nonpayable"},{"type":"function","name":"revokeRole","inputs":[{"name":"role","type":"bytes32","internalType":"bytes32"},{"name":"account","type":"address","internalType":"address"}],"outputs":[],"stateMutability":"nonpayable"},{"type":"function","name":"stETH","inputs":[],"outputs":[{"name":"","type":"address","internalType":"address"}],"stateMutability":"view"},{"type":"function","name":"supportsInterface","inputs":[{"name":"interfaceId","type":"bytes4","internalType":"bytes4"}],"outputs":[{"name":"","type":"bool","internalType":"bool"}],"stateMutability":"view"},{"type":"function","name":"updateL2YieldFactor","inputs":[{"name":"newYieldFactor","type":"uint256","internalType":"uint256"}],"outputs":[],"stateMutability":"nonpayable"},{"type":"event","name":"RoleAdminChanged","inputs":[{"name":"role","type":"bytes32","indexed":true,"internalType":"bytes32"},{"name":"previousAdminRole","type":"bytes32","indexed":true,"internalType":"bytes32"},{"name":"newAdminRole","type":"bytes32","indexed":true,"internalType":"bytes32"}],"anonymous":false},{"type":"event","name":"RoleGranted","inputs":[{"name":"role","type":"bytes32","indexed":true,"internalType":"bytes32"},{"name":"account","type":"address","indexed":true,"internalType":"address"},{"name":"sender","type":"address","indexed":true,"internalType":"address"}],"anonymous":false},{"type":"event","name":"RoleRevoked","inputs":[{"name":"role","type":"bytes32","indexed":true,"internalType":"bytes32"},{"name":"account","type":"address","indexed":true,"internalType":"address"},{"name":"sender","type":"address","indexed":true,"internalType":"address"}],"anonymous":false},{"type":"event","name":"YieldFactorUpdated","inputs":[{"name":"oldYieldFactor","type":"uint256","indexed":false,"internalType":"uint256"},{"name":"newYieldFactor","type":"uint256","indexed":false,"internalType":"uint256"}],"anonymous":false},{"type":"error","name":"AccessControlBadConfirmation","inputs":[]},{"type":"error","name":"AccessControlUnauthorizedAccount","inputs":[{"name":"account","type":"address","internalType":"address"},{"name":"neededRole","type":"bytes32","internalType":"bytes32"}]},{"type":"error","name":"InitialRateZero","inputs":[]},{"type":"error","name":"NotL1Chain","inputs":[]},{"type":"error","name":"NotL2Chain","inputs":[]},{"type":"error","name":"StEthAddressZero","inputs":[]},{"type":"error","name":"YieldFactorDecreaseNotAllowed","inputs":[]}],"bytecode":{"object":"0x60c060405234801561000f575f5ffd5b506040516109f13803806109f183398101604081905261002e91610224565b6100385f82610160565b50600146148061004a575062aa36a746145b15610118576001600160a01b0382166100795760405160016203b73b60e21b0319815260040160405180910390fd5b6001600160a01b0382166080819052604051630f451f7160e31b8152670de0b6b3a764000060048201525f9190637a28fb8890602401602060405180830381865afa1580156100ca573d5f5f3e3d5ffd5b505050506040513d601f19601f820116820180604052508101906100ee9190610255565b9050805f036101105760405163afe6d04360e01b815260040160405180910390fd5b60a052610159565b5f608081905260a052670de0b6b3a76400006001556101577f6349981c8f973aae243626fb13628338972392c22bccc395c05a43c57e7f243982610160565b505b505061026c565b5f828152602081815260408083206001600160a01b038516845290915281205460ff16610200575f838152602081815260408083206001600160a01b03861684529091529020805460ff191660011790556101b83390565b6001600160a01b0316826001600160a01b0316847f2f8788117e7eff1d82e926ec794901d17c78024a50270940304540a733656f0d60405160405180910390a4506001610203565b505f5b92915050565b80516001600160a01b038116811461021f575f5ffd5b919050565b5f5f60408385031215610235575f5ffd5b61023e83610209565b915061024c60208401610209565b90509250929050565b5f60208284031215610265575f5ffd5b5051919050565b60805160a05161075661029b5f395f8181610240015261040601525f81816101c7015261046501526107565ff3fe608060405234801561000f575f5ffd5b50600436106100f0575f3560e01c8063a217fddf11610093578063d547741f11610063578063d547741f14610201578063d5648d8c14610214578063e8c39cb31461023b578063efa7fa5d14610262575f5ffd5b8063a217fddf146101a2578063a42c69a9146101a9578063b729e72f146101b8578063c1fe3e48146101c2575f5ffd5b80632f2ff15d116100ce5780632f2ff15d1461016157806336568abe1461017457806368c200571461018757806391d148541461018f575f5ffd5b806301ffc9a7146100f4578063248a9ca31461011c5780632bac81181461014c575b5f5ffd5b610107610102366004610649565b61026a565b60405190151581526020015b60405180910390f35b61013e61012a366004610677565b5f9081526020819052604090206001015490565b604051908152602001610113565b61015f61015a366004610677565b6102a0565b005b61015f61016f36600461068e565b61033f565b61015f61018236600461068e565b610369565b61013e600181565b61010761019d36600461068e565b6103a1565b61013e5f81565b61013e670de0b6b3a764000081565b61013e62aa36a781565b6101e97f000000000000000000000000000000000000000000000000000000000000000081565b6040516001600160a01b039091168152602001610113565b61015f61020f36600461068e565b6103c9565b61013e7f6349981c8f973aae243626fb13628338972392c22bccc395c05a43c57e7f243981565b61013e7f000000000000000000000000000000000000000000000000000000000000000081565b61013e6103ed565b5f6001600160e01b03198216637965db0b60e01b148061029a57506301ffc9a760e01b6001600160e01b03198316145b92915050565b7f6349981c8f973aae243626fb13628338972392c22bccc395c05a43c57e7f24396102ca81610503565b60014614806102db575062aa36a746145b156102f9576040516348e9beb760e01b815260040160405180910390fd5b600180549083905560408051828152602081018590527f3b6bdcf53af9f5bc4a2eba59bc1a138f5711c133e6dbf67af92230cbae6c5d52910160405180910390a1505050565b5f8281526020819052604090206001015461035981610503565b6103638383610510565b50505050565b6001600160a01b03811633146103925760405163334bd91960e11b815260040160405180910390fd5b61039c828261059f565b505050565b5f918252602082815260408084206001600160a01b0393909316845291905290205460ff1690565b5f828152602081905260409020600101546103e381610503565b610363838361059f565b5f60014614806103ff575062aa36a746145b156104fc577f00000000000000000000000000000000000000000000000000000000000000005f8190036104465760405163afe6d04360e01b815260040160405180910390fd5b604051630f451f7160e31b8152670de0b6b3a764000060048201525f907f00000000000000000000000000000000000000000000000000000000000000006001600160a01b031690637a28fb8890602401602060405180830381865afa1580156104b2573d5f5f3e3d5ffd5b505050506040513d601f19601f820116820180604052508101906104d691906106c7565b9050816104eb670de0b6b3a7640000836106de565b6104f59190610701565b9250505090565b5060015490565b61050d8133610608565b50565b5f61051b83836103a1565b610598575f838152602081815260408083206001600160a01b03861684529091529020805460ff191660011790556105503390565b6001600160a01b0316826001600160a01b0316847f2f8788117e7eff1d82e926ec794901d17c78024a50270940304540a733656f0d60405160405180910390a450600161029a565b505f61029a565b5f6105aa83836103a1565b15610598575f838152602081815260408083206001600160a01b0386168085529252808320805460ff1916905551339286917ff6391f5c32d9c69d2a47ea670b442974b53935d1edc7fd64eb21e047a839171b9190a450600161029a565b61061282826103a1565b6106455760405163e2517d3f60e01b81526001600160a01b03821660048201526024810183905260440160405180910390fd5b5050565b5f60208284031215610659575f5ffd5b81356001600160e01b031981168114610670575f5ffd5b9392505050565b5f60208284031215610687575f5ffd5b5035919050565b5f5f6040838503121561069f575f5ffd5b8235915060208301356001600160a01b03811681146106bc575f5ffd5b809150509250929050565b5f602082840312156106d7575f5ffd5b5051919050565b808202811582820484141761029a57634e487b7160e01b5f52601160045260245ffd5b5f8261071b57634e487b7160e01b5f52601260045260245ffd5b50049056fea2646970667358221220ac3cb4d23a92001fe5801cf45bc13128d8122f36b90b07327e9768f084e60fb264736f6c634300081d0033","linkReferences":{}},"methodIdentifiers":{"DEFAULT_ADMIN_ROLE()":"a217fddf","FACTOR_PRECISION()":"a42c69a9","MAINNET_CHAIN_ID()":"68c20057","MAINNET_TEST_CHAIN_ID()":"b729e72f","YIELD_FACTOR_UPDATER_ROLE()":"d5648d8c","getRoleAdmin(bytes32)":"248a9ca3","getYieldFactor()":"efa7fa5d","grantRole(bytes32,address)":"2f2ff15d","hasRole(bytes32,address)":"91d14854","initialEthEquivalentPerShare()":"e8c39cb3","renounceRole(bytes32,address)":"36568abe","revokeRole(bytes32,address)":"d547741f","stETH()":"c1fe3e48","supportsInterface(bytes4)":"01ffc9a7","updateL2YieldFactor(uint256)":"2bac8118"},"storageLayout":{"storage":[{"astId":36547,"contract":"src/PoolSharesConversionRate.sol:PoolSharesConversionRate","label":"_roles","offset":0,"slot":"0","type":"t_mapping(t_bytes32,t_struct(RoleData)36542_storage)"},{"astId":40881,"contract":"src/PoolSharesConversionRate.sol:PoolSharesConversionRate","label":"_yieldFactor","offset":0,"slot":"1","type":"t_uint256"}],"types":{"t_address":{"encoding":"inplace","label":"address","numberOfBytes":"20"},"t_bool":{"encoding":"inplace","label":"bool","numberOfBytes":"1"},"t_bytes32":{"encoding":"inplace","label":"bytes32","numberOfBytes":"32"},"t_mapping(t_address,t_bool)":{"encoding":"mapping","key":"t_address","label":"mapping(address => bool)","numberOfBytes":"32","value":"t_bool"},"t_mapping(t_bytes32,t_struct(RoleData)36542_storage)":{"encoding":"mapping","key":"t_bytes32","label":"mapping(bytes32 => struct AccessControl.RoleData)","numberOfBytes":"32","value":"t_struct(RoleData)36542_storage"},"t_struct(RoleData)36542_storage":{"encoding":"inplace","label":"struct AccessControl.RoleData","numberOfBytes":"64","members":[{"astId":36539,"contract":"src/PoolSharesConversionRate.sol:PoolSharesConversionRate","label":"hasRole","offset":0,"slot":"0","type":"t_mapping(t_address,t_bool)"},{"astId":36541,"contract":"src/PoolSharesConversionRate.sol:PoolSharesConversionRate","label":"adminRole","offset":0,"slot":"1","type":"t_bytes32"}]},"t_uint256":{"encoding":"inplace","label":"uint256","numberOfBytes":"32"}}},"id":51}