{"abi":[{"type":"constructor","inputs":[{"name":"_oracle","type":"address","internalType":"address"},{"name":"_priceProvider","type":"address","internalType":"address"}],"stateMutability":"nonpayable"},{"type":"receive","stateMutability":"payable"},{"type":"function","name":"DOGEBALL_PRICE_USD","inputs":[],"outputs":[{"name":"","type":"uint256","internalType":"uint256"}],"stateMutability":"view"},{"type":"function","name":"ETH_USD","inputs":[],"outputs":[{"name":"","type":"bytes32","internalType":"bytes32"}],"stateMutability":"view"},{"type":"function","name":"balances","inputs":[{"name":"","type":"address","internalType":"address"}],"outputs":[{"name":"","type":"uint256","internalType":"uint256"}],"stateMutability":"view"},{"type":"function","name":"getOwners","inputs":[],"outputs":[{"name":"","type":"address[]","internalType":"address[]"}],"stateMutability":"view"},{"type":"function","name":"mint","inputs":[{"name":"to","type":"address","internalType":"address"}],"outputs":[],"stateMutability":"payable"},{"type":"function","name":"owners","inputs":[{"name":"","type":"uint256","internalType":"uint256"}],"outputs":[{"name":"","type":"address","internalType":"address"}],"stateMutability":"view"},{"type":"function","name":"priceProvider","inputs":[],"outputs":[{"name":"","type":"address","internalType":"address"}],"stateMutability":"view"},{"type":"function","name":"requirements","inputs":[{"name":"_selector","type":"bytes4","internalType":"bytes4"}],"outputs":[{"name":"","type":"tuple[]","internalType":"struct DataDependent.DataRequirement[]","components":[{"name":"provider","type":"address","internalType":"address"},{"name":"requester","type":"address","internalType":"address"},{"name":"dataKey","type":"bytes32","internalType":"bytes32"}]}],"stateMutability":"view"}],"bytecode":{"object":"0x6080604052348015600f57600080fd5b50604051610a92380380610a92833981016040819052602c916077565b600080546001600160a01b039384166001600160a01b0319918216179091556001805492909316911617905560a5565b80516001600160a01b0381168114607257600080fd5b919050565b60008060408385031215608957600080fd5b609083605c565b9150609c60208401605c565b90509250929050565b6109de806100b46000396000f3fe60806040526004361061007f5760003560e01c8063a0e67e2b1161004e578063a0e67e2b14610153578063ade79fd314610175578063b888879e146101a2578063e504919d146101c257600080fd5b8063025e7c271461009457806327e235e3146100d15780636260f55b1461010c5780636a6278421461014057600080fd5b3661008f5761008d336101d7565b005b600080fd5b3480156100a057600080fd5b506100b46100af3660046107a7565b6103bf565b6040516001600160a01b0390911681526020015b60405180910390f35b3480156100dd57600080fd5b506100fe6100ec3660046107c0565b60026020526000908152604090205481565b6040519081526020016100c8565b34801561011857600080fd5b506100fe7f454cb7a6422f15e5515ccb99bfcbcbbdfe8511673224d296ab28ecb2b6d8576881565b61008d61014e3660046107c0565b6101d7565b34801561015f57600080fd5b506101686103e9565b6040516100c891906107f0565b34801561018157600080fd5b5061019561019036600461083d565b61044b565b6040516100c89190610867565b3480156101ae57600080fd5b506001546100b4906001600160a01b031681565b3480156101ce57600080fd5b506100fe600581565b60006102027f454cb7a6422f15e5515ccb99bfcbcbbdfe8511673224d296ab28ecb2b6d85768610560565b805160208201519192509034116102715760405162461bcd60e51b815260206004820152602860248201527f4e6f7420656e6f7567682076616c756520746f2070617920666f72206f7261636044820152676c6520646174612160c01b60648201526084015b60405180910390fd5b6000670de0b6b3a76400008284602001513461028d91906108e2565b61029791906108fb565b6102a19190610912565b90506000670de0b6b3a76400006102b9600584610912565b6102c39190610912565b9050600060056102db83670de0b6b3a76400006108fb565b6102e591906108fb565b6102ef90846108e2565b6001600160a01b0387166000908152600260205260408120549192500361035c57600380546001810182556000919091527fc2575a0e9e593c00f959f8c92f12db2869c3395a3b0502d05e2516446f71f85b0180546001600160a01b0319166001600160a01b0388161790555b6001600160a01b03861660009081526002602052604081208054849290610384908490610934565b9091555050604051339082156108fc029083906000818181858888f193505050501580156103b6573d6000803e3d6000fd5b50505050505050565b600381815481106103cf57600080fd5b6000918252602090912001546001600160a01b0316905081565b6060600380548060200260200160405190810160405280929190818152602001828054801561044157602002820191906000526020600020905b81546001600160a01b03168152600190910190602001808311610423575b5050505050905090565b60606001600160e01b031982166335313c2160e11b0361051657604080516001808252818301909252600091816020015b604080516060810182526000808252602080830182905292820152825260001990920191018161047c575050604080516060810182526001546001600160a01b031681523060208201527f454cb7a6422f15e5515ccb99bfcbcbbdfe8511673224d296ab28ecb2b6d8576891810191909152815191925090829060009061050557610505610947565b602090810291909101015292915050565b6040805160008082526020820190925290610559565b604080516060810182526000808252602080830182905292820152825260001990920191018161052c5790505b5092915050565b604080518082019091526000808252602082015260008054600154604051633afe9bd360e11b81526001600160a01b039182166004820152602481018690529116906375fd37a690604401602060405180830381865afa1580156105c8573d6000803e3d6000fd5b505050506040513d601f19601f820116820180604052508101906105ec919061095d565b600080546001546040516331fbc06960e21b81526001600160a01b03918216600482015260248101889052939450919291169063c7ef01a490849060440160206040518083038185885af1158015610648573d6000803e3d6000fd5b50505050506040513d601f19601f8201168201806040525081019061066d919061095d565b90508060d081901c61068161012c426108e2565b61068d906103e86108fb565b81116106cb5760405162461bcd60e51b815260206004820152600d60248201526c4461746120746f6f206f6c642160981b6044820152606401610268565b60006106d9826101006108fb565b6106e79060c885901c6108e2565b90508060ff166012146107485760405162461bcd60e51b8152602060048201526024808201527f4f7261636c6520726573706f6e736520776974682077726f6e6720646563696d604482015263616c732160e01b6064820152608401610268565b600061075b60ff8316600160c81b610976565b6001600160d01b031661077284600160d01b6108fb565b61077c90866108e2565b61078691906108e2565b60408051808201909152908152602081019690965250939695505050505050565b6000602082840312156107b957600080fd5b5035919050565b6000602082840312156107d257600080fd5b81356001600160a01b03811681146107e957600080fd5b9392505050565b6020808252825182820181905260009190848201906040850190845b818110156108315783516001600160a01b03168352928401929184019160010161080c565b50909695505050505050565b60006020828403121561084f57600080fd5b81356001600160e01b0319811681146107e957600080fd5b602080825282518282018190526000919060409081850190868401855b828110156108bf57815180516001600160a01b0390811686528782015116878601528501518585015260609093019290850190600101610884565b5091979650505050505050565b634e487b7160e01b600052601160045260246000fd5b818103818111156108f5576108f56108cc565b92915050565b80820281158282048414176108f5576108f56108cc565b60008261092f57634e487b7160e01b600052601260045260246000fd5b500490565b808201808211156108f5576108f56108cc565b634e487b7160e01b600052603260045260246000fd5b60006020828403121561096f57600080fd5b5051919050565b6001600160d01b0382811682821681810283169291811582850482141761099f5761099f6108cc565b5050509291505056fea26469706673582212208e5516775695dd292122847b67c4c0a7c3fa759ee31238fefcc335401fcc346364736f6c63430008190033","linkReferences":{}},"methodIdentifiers":{"DOGEBALL_PRICE_USD()":"e504919d","ETH_USD()":"6260f55b","balances(address)":"27e235e3","getOwners()":"a0e67e2b","mint(address)":"6a627842","owners(uint256)":"025e7c27","priceProvider()":"b888879e","requirements(bytes4)":"ade79fd3"},"id":1}