{"abi":[{"type":"constructor","inputs":[],"stateMutability":"nonpayable"},{"type":"function","name":"DEFAULT_ADMIN_ROLE","inputs":[],"outputs":[{"name":"","type":"bytes32","internalType":"bytes32"}],"stateMutability":"view"},{"type":"function","name":"FACTOR_PRECISION","inputs":[],"outputs":[{"name":"","type":"uint256","internalType":"uint256"}],"stateMutability":"view"},{"type":"function","name":"UPDATER_ROLE","inputs":[],"outputs":[{"name":"","type":"bytes32","internalType":"bytes32"}],"stateMutability":"view"},{"type":"function","name":"UPGRADER_ROLE","inputs":[],"outputs":[{"name":"","type":"bytes32","internalType":"bytes32"}],"stateMutability":"view"},{"type":"function","name":"UPGRADE_INTERFACE_VERSION","inputs":[],"outputs":[{"name":"","type":"string","internalType":"string"}],"stateMutability":"view"},{"type":"function","name":"cuspdToken","inputs":[],"outputs":[{"name":"","type":"address","internalType":"contract IcUSPDToken"}],"stateMutability":"view"},{"type":"function","name":"getRoleAdmin","inputs":[{"name":"role","type":"bytes32","internalType":"bytes32"}],"outputs":[{"name":"","type":"bytes32","internalType":"bytes32"}],"stateMutability":"view"},{"type":"function","name":"getSystemCollateralizationRatio","inputs":[{"name":"priceResponse","type":"tuple","internalType":"struct IPriceOracle.PriceResponse","components":[{"name":"price","type":"uint256","internalType":"uint256"},{"name":"decimals","type":"uint8","internalType":"uint8"},{"name":"timestamp","type":"uint256","internalType":"uint256"}]}],"outputs":[{"name":"ratio","type":"uint256","internalType":"uint256"}],"stateMutability":"view"},{"type":"function","name":"grantRole","inputs":[{"name":"role","type":"bytes32","internalType":"bytes32"},{"name":"account","type":"address","internalType":"address"}],"outputs":[],"stateMutability":"nonpayable"},{"type":"function","name":"hasRole","inputs":[{"name":"role","type":"bytes32","internalType":"bytes32"},{"name":"account","type":"address","internalType":"address"}],"outputs":[{"name":"","type":"bool","internalType":"bool"}],"stateMutability":"view"},{"type":"function","name":"initialize","inputs":[{"name":"_admin","type":"address","internalType":"address"},{"name":"_stabilizerNFTContract","type":"address","internalType":"address"},{"name":"_rateContract","type":"address","internalType":"address"},{"name":"_cuspdToken","type":"address","internalType":"address"}],"outputs":[],"stateMutability":"nonpayable"},{"type":"function","name":"proxiableUUID","inputs":[],"outputs":[{"name":"","type":"bytes32","internalType":"bytes32"}],"stateMutability":"view"},{"type":"function","name":"rateContract","inputs":[],"outputs":[{"name":"","type":"address","internalType":"contract IPoolSharesConversionRate"}],"stateMutability":"view"},{"type":"function","name":"renounceRole","inputs":[{"name":"role","type":"bytes32","internalType":"bytes32"},{"name":"callerConfirmation","type":"address","internalType":"address"}],"outputs":[],"stateMutability":"nonpayable"},{"type":"function","name":"resetCollateralSnapshot","inputs":[{"name":"actualTotalEthEquivalent","type":"uint256","internalType":"uint256"}],"outputs":[],"stateMutability":"nonpayable"},{"type":"function","name":"revokeRole","inputs":[{"name":"role","type":"bytes32","internalType":"bytes32"},{"name":"account","type":"address","internalType":"address"}],"outputs":[],"stateMutability":"nonpayable"},{"type":"function","name":"stabilizerNFTContract","inputs":[],"outputs":[{"name":"","type":"address","internalType":"address"}],"stateMutability":"view"},{"type":"function","name":"supportsInterface","inputs":[{"name":"interfaceId","type":"bytes4","internalType":"bytes4"}],"outputs":[{"name":"","type":"bool","internalType":"bool"}],"stateMutability":"view"},{"type":"function","name":"totalEthEquivalentAtLastSnapshot","inputs":[],"outputs":[{"name":"","type":"uint256","internalType":"uint256"}],"stateMutability":"view"},{"type":"function","name":"updateCUSPDToken","inputs":[{"name":"newCUSPDToken","type":"address","internalType":"address"}],"outputs":[],"stateMutability":"nonpayable"},{"type":"function","name":"updateRateContract","inputs":[{"name":"newRateContract","type":"address","internalType":"address"}],"outputs":[],"stateMutability":"nonpayable"},{"type":"function","name":"updateSnapshot","inputs":[{"name":"ethEquivalentDelta","type":"int256","internalType":"int256"}],"outputs":[],"stateMutability":"nonpayable"},{"type":"function","name":"updateStabilizerNFTContract","inputs":[{"name":"newStabilizerNFTContract","type":"address","internalType":"address"}],"outputs":[],"stateMutability":"nonpayable"},{"type":"function","name":"upgradeToAndCall","inputs":[{"name":"newImplementation","type":"address","internalType":"address"},{"name":"data","type":"bytes","internalType":"bytes"}],"outputs":[],"stateMutability":"payable"},{"type":"function","name":"yieldFactorAtLastSnapshot","inputs":[],"outputs":[{"name":"","type":"uint256","internalType":"uint256"}],"stateMutability":"view"},{"type":"event","name":"CUSPDTokenUpdated","inputs":[{"name":"oldContract","type":"address","indexed":false,"internalType":"address"},{"name":"newContract","type":"address","indexed":false,"internalType":"address"}],"anonymous":false},{"type":"event","name":"Initialized","inputs":[{"name":"version","type":"uint64","indexed":false,"internalType":"uint64"}],"anonymous":false},{"type":"event","name":"RateContractUpdated","inputs":[{"name":"oldContract","type":"address","indexed":false,"internalType":"address"},{"name":"newContract","type":"address","indexed":false,"internalType":"address"}],"anonymous":false},{"type":"event","name":"RoleAdminChanged","inputs":[{"name":"role","type":"bytes32","indexed":true,"internalType":"bytes32"},{"name":"previousAdminRole","type":"bytes32","indexed":true,"internalType":"bytes32"},{"name":"newAdminRole","type":"bytes32","indexed":true,"internalType":"bytes32"}],"anonymous":false},{"type":"event","name":"RoleGranted","inputs":[{"name":"role","type":"bytes32","indexed":true,"internalType":"bytes32"},{"name":"account","type":"address","indexed":true,"internalType":"address"},{"name":"sender","type":"address","indexed":true,"internalType":"address"}],"anonymous":false},{"type":"event","name":"RoleRevoked","inputs":[{"name":"role","type":"bytes32","indexed":true,"internalType":"bytes32"},{"name":"account","type":"address","indexed":true,"internalType":"address"},{"name":"sender","type":"address","indexed":true,"internalType":"address"}],"anonymous":false},{"type":"event","name":"SnapshotReset","inputs":[{"name":"newEthEquivalent","type":"uint256","indexed":false,"internalType":"uint256"},{"name":"newYieldFactor","type":"uint256","indexed":false,"internalType":"uint256"}],"anonymous":false},{"type":"event","name":"SnapshotUpdated","inputs":[{"name":"newEthEquivalent","type":"uint256","indexed":false,"internalType":"uint256"},{"name":"newYieldFactor","type":"uint256","indexed":false,"internalType":"uint256"}],"anonymous":false},{"type":"event","name":"StabilizerNFTContractUpdated","inputs":[{"name":"oldContract","type":"address","indexed":false,"internalType":"address"},{"name":"newContract","type":"address","indexed":false,"internalType":"address"}],"anonymous":false},{"type":"event","name":"Upgraded","inputs":[{"name":"implementation","type":"address","indexed":true,"internalType":"address"}],"anonymous":false},{"type":"error","name":"AccessControlBadConfirmation","inputs":[]},{"type":"error","name":"AccessControlUnauthorizedAccount","inputs":[{"name":"account","type":"address","internalType":"address"},{"name":"neededRole","type":"bytes32","internalType":"bytes32"}]},{"type":"error","name":"AddressEmptyCode","inputs":[{"name":"target","type":"address","internalType":"address"}]},{"type":"error","name":"ERC1967InvalidImplementation","inputs":[{"name":"implementation","type":"address","internalType":"address"}]},{"type":"error","name":"ERC1967NonPayable","inputs":[]},{"type":"error","name":"FailedCall","inputs":[]},{"type":"error","name":"InvalidInitialization","inputs":[]},{"type":"error","name":"NotInitializing","inputs":[]},{"type":"error","name":"UUPSUnauthorizedCallContext","inputs":[]},{"type":"error","name":"UUPSUnsupportedProxiableUUID","inputs":[{"name":"slot","type":"bytes32","internalType":"bytes32"}]}],"bytecode":{"object":"0x60a060405230608052348015610013575f5ffd5b5061001c610021565b6100d3565b7ff0c57e16840df040f15088dc2f81fe391c3923bec73e23a9662efc9c229c6a00805468010000000000000000900460ff16156100715760405163f92ee8a960e01b815260040160405180910390fd5b80546001600160401b03908116146100d05780546001600160401b0319166001600160401b0390811782556040519081527fc7f505b2f371ae2175ee4913f4499e1f2633a7b5936321eed1cdaeb6115181d29060200160405180910390a15b50565b608051611a306100f95f395f81816111200152818161114901526112ac0152611a305ff3fe608060405260043610610161575f3560e01c8063a42c69a9116100cd578063e0bb880911610087578063f72c0d8b11610062578063f72c0d8b1461041b578063f8c8765e1461044e578063fb310d711461046d578063ffb618d41461048c575f5ffd5b8063e0bb8809146103be578063eee24219146103dd578063f6ff3ee8146103fc575f5ffd5b8063a42c69a9146102ea578063a6f4ae2714610305578063ad3cb1cc14610324578063b367380714610361578063bec070d614610380578063d547741f1461039f575f5ffd5b80634d27f08b1161011e5780634d27f08b1461023b5780634f1ef2861461025a57806352d1902d1461026d5780636bc05b7e1461028157806391d14854146102b8578063a217fddf146102d7575f5ffd5b806301ffc9a71461016557806307c548de14610199578063248a9ca3146101bc5780632f2ff15d146101db57806336568abe146101fc57806347e633801461021b575b5f5ffd5b348015610170575f5ffd5b5061018461017f366004611562565b6104a0565b60405190151581526020015b60405180910390f35b3480156101a4575f5ffd5b506101ae60015481565b604051908152602001610190565b3480156101c7575f5ffd5b506101ae6101d6366004611589565b6104b0565b3480156101e6575f5ffd5b506101fa6101f53660046115bb565b6104d0565b005b348015610207575f5ffd5b506101fa6102163660046115bb565b6104f2565b348015610226575f5ffd5b506101ae5f5160206119bb5f395f51905f5281565b348015610246575f5ffd5b506101fa6102553660046115e5565b61052a565b6101fa610268366004611643565b6105c6565b348015610278575f5ffd5b506101ae6105e5565b34801561028c575f5ffd5b506004546102a0906001600160a01b031681565b6040516001600160a01b039091168152602001610190565b3480156102c3575f5ffd5b506101846102d23660046115bb565b610600565b3480156102e2575f5ffd5b506101ae5f81565b3480156102f5575f5ffd5b506101ae670de0b6b3a764000081565b348015610310575f5ffd5b506101fa61031f3660046115e5565b610636565b34801561032f575f5ffd5b50610354604051806040016040528060058152602001640352e302e360dc1b81525081565b60405161019091906116e8565b34801561036c575f5ffd5b506101ae61037b36600461171d565b6106c0565b34801561038b575f5ffd5b506002546102a0906001600160a01b031681565b3480156103aa575f5ffd5b506101fa6103b93660046115bb565b61094a565b3480156103c9575f5ffd5b506101fa6103d8366004611589565b610966565b3480156103e8575f5ffd5b506003546102a0906001600160a01b031681565b348015610407575f5ffd5b506101fa610416366004611589565b610a81565b348015610426575f5ffd5b506101ae7f189ab7a9244df0848122154315af71fe140f3db0fe014031783b0946b8c9d2e381565b348015610459575f5ffd5b506101fa610468366004611784565b610c8a565b348015610478575f5ffd5b506101fa6104873660046115e5565b610eec565b348015610497575f5ffd5b506101ae5f5481565b5f6104aa82610fba565b92915050565b5f9081525f5160206119db5f395f51905f52602052604090206001015490565b6104d9826104b0565b6104e281610fee565b6104ec8383610ffb565b50505050565b6001600160a01b038116331461051b5760405163334bd91960e11b815260040160405180910390fd5b610525828261109c565b505050565b5f61053481610fee565b6001600160a01b0382166105635760405162461bcd60e51b815260040161055a906117d5565b60405180910390fd5b600480546001600160a01b038481166001600160a01b031983168117909355604080519190921680825260208201939093527f2d8da0a9c1287dd943451170d684272b15c8376921e761fae23563b062c32c8791015b60405180910390a1505050565b6105ce611115565b6105d7826111bb565b6105e182826111e5565b5050565b5f6105ee6112a1565b505f51602061199b5f395f51905f5290565b5f9182525f5160206119db5f395f51905f52602090815260408084206001600160a01b0393909316845291905290205460ff1690565b5f61064081610fee565b6001600160a01b0382166106665760405162461bcd60e51b815260040161055a90611816565b600380546001600160a01b038481166001600160a01b031983168117909355604080519190921680825260208201939093527f7f0de29187af70d0a98056dd080553d3dec269c81e80033f3ca34a97b3985d3a91016105b9565b60048054604080516318160ddd60e01b815290515f9384936001600160a01b0316926318160ddd92818301926020928290030181865afa158015610706573d5f5f3e3d5ffd5b505050506040513d601f19601f8201168201806040525081019061072a9190611859565b9050805f0361073c57505f1992915050565b6003546040805163efa7fa5d60e01b815290515f926001600160a01b03169163efa7fa5d9160048083019260209291908290030181865afa158015610783573d5f5f3e3d5ffd5b505050506040513d601f19601f820116820180604052508101906107a79190611859565b90505f81116107c85760405162461bcd60e51b815260040161055a90611870565b5f670de0b6b3a76400006107dc83856118ca565b6107e691906118e1565b9050805f036107fa57505f19949350505050565b5f8054600154909181900361081557505f9695505050505050565b5f8161082186856118ca565b61082b91906118e1565b9050805f0361084157505f979650505050505050565b876020015160ff166012146108a65760405162461bcd60e51b815260206004820152602560248201527f5265706f727465723a205072696365206d757374206861766520313820646563604482015264696d616c7360d81b606482015260840161055a565b87516109025760405162461bcd60e51b815260206004820152602560248201527f5265706f727465723a204f7261636c652070726963652063616e6e6f74206265604482015264207a65726f60d81b606482015260840161055a565b87515f90670de0b6b3a76400009061091a90846118ca565b61092491906118e1565b905084610933826127106118ca565b61093d91906118e1565b9998505050505050505050565b610953826104b0565b61095c81610fee565b6104ec838361109c565b5f61097081610fee565b6003546040805163efa7fa5d60e01b815290515f926001600160a01b03169163efa7fa5d9160048083019260209291908290030181865afa1580156109b7573d5f5f3e3d5ffd5b505050506040513d601f19601f820116820180604052508101906109db9190611859565b90505f8111610a425760405162461bcd60e51b815260206004820152602d60248201527f5265706f727465723a2043616e6e6f742072657365742077697468207a65726f60448201526c103cb4b2b632103330b1ba37b960991b606482015260840161055a565b5f839055600181905560408051848152602081018390527f7addda21c3e2bd46aad0222450b5d30163ebcb316dbb05f08d8e29bc4a9f073991016105b9565b5f5160206119bb5f395f51905f52610a9881610fee565b5f80546001546003546040805163efa7fa5d60e01b81529051939492936001600160a01b039092169163efa7fa5d916004808201926020929091908290030181865afa158015610aea573d5f5f3e3d5ffd5b505050506040513d601f19601f82011682018060405250810190610b0e9190611859565b90505f8111610b2f5760405162461bcd60e51b815260040161055a90611870565b5f5f835f03610b97578415610b925760405162461bcd60e51b8152602060048201526024808201527f5265706f727465723a20496e636f6e73697374656e7420696e697469616c20736044820152637461746560e01b606482015260840161055a565b610bbd565b838303610ba5575083610bbd565b83610bb084876118ca565b610bba91906118e1565b90505b5f8712610bd557610bce8782611900565b9150610c3f565b5f610bdf88611913565b905080821015610c315760405162461bcd60e51b815260206004820152601c60248201527f5265706f727465723a20536e617073686f7420756e646572666c6f7700000000604482015260640161055a565b610c3b818361192d565b9250505b5f829055600183905560408051838152602081018590527f2c8c8fcb8c77a0ca21dcc3ab8fc0ade761557e76b1240cb40ebbef9fcee00f7d910160405180910390a150505050505050565b5f610c936112ea565b805490915060ff600160401b820416159067ffffffffffffffff165f81158015610cba5750825b90505f8267ffffffffffffffff166001148015610cd65750303b155b905081158015610ce4575080155b15610d025760405163f92ee8a960e01b815260040160405180910390fd5b845467ffffffffffffffff191660011785558315610d2c57845460ff60401b1916600160401b1785555b610d34611312565b610d3c611312565b6001600160a01b038916610d925760405162461bcd60e51b815260206004820152601c60248201527f5265706f727465723a205a65726f2061646d696e206164647265737300000000604482015260640161055a565b6001600160a01b038816610db85760405162461bcd60e51b815260040161055a90611940565b6001600160a01b038716610dde5760405162461bcd60e51b815260040161055a90611816565b6001600160a01b038616610e045760405162461bcd60e51b815260040161055a906117d5565b610e0e5f8a610ffb565b50610e265f5160206119bb5f395f51905f5289610ffb565b50610e517f189ab7a9244df0848122154315af71fe140f3db0fe014031783b0946b8c9d2e38a610ffb565b50600280546001600160a01b03808b166001600160a01b031992831617909255600380548a84169083161790556004805492891692909116919091179055670de0b6b3a76400006001558315610ee157845460ff60401b19168555604051600181527fc7f505b2f371ae2175ee4913f4499e1f2633a7b5936321eed1cdaeb6115181d29060200160405180910390a15b505050505050505050565b5f610ef681610fee565b6001600160a01b038216610f1c5760405162461bcd60e51b815260040161055a90611940565b6002546001600160a01b03168015610f4757610f455f5160206119bb5f395f51905f528261109c565b505b600280546001600160a01b0319166001600160a01b038516179055610f795f5160206119bb5f395f51905f5284610ffb565b50604080516001600160a01b038084168252851660208201527f91c66a8424320ed937043026a620d5b83cc9e3e58143287d5c215c4d96b449a791016105b9565b5f6001600160e01b03198216637965db0b60e01b14806104aa57506301ffc9a760e01b6001600160e01b03198316146104aa565b610ff8813361131a565b50565b5f5f5160206119db5f395f51905f526110148484610600565b611093575f848152602082815260408083206001600160a01b03871684529091529020805460ff191660011790556110493390565b6001600160a01b0316836001600160a01b0316857f2f8788117e7eff1d82e926ec794901d17c78024a50270940304540a733656f0d60405160405180910390a460019150506104aa565b5f9150506104aa565b5f5f5160206119db5f395f51905f526110b58484610600565b15611093575f848152602082815260408083206001600160a01b0387168085529252808320805460ff1916905551339287917ff6391f5c32d9c69d2a47ea670b442974b53935d1edc7fd64eb21e047a839171b9190a460019150506104aa565b306001600160a01b037f000000000000000000000000000000000000000000000000000000000000000016148061119b57507f00000000000000000000000000000000000000000000000000000000000000006001600160a01b031661118f5f51602061199b5f395f51905f52546001600160a01b031690565b6001600160a01b031614155b156111b95760405163703e46dd60e11b815260040160405180910390fd5b565b7f189ab7a9244df0848122154315af71fe140f3db0fe014031783b0946b8c9d2e36105e181610fee565b816001600160a01b03166352d1902d6040518163ffffffff1660e01b8152600401602060405180830381865afa92505050801561123f575060408051601f3d908101601f1916820190925261123c91810190611859565b60015b61126757604051634c9c8ce360e01b81526001600160a01b038316600482015260240161055a565b5f51602061199b5f395f51905f52811461129757604051632a87526960e21b81526004810182905260240161055a565b6105258383611353565b306001600160a01b037f000000000000000000000000000000000000000000000000000000000000000016146111b95760405163703e46dd60e11b815260040160405180910390fd5b5f807ff0c57e16840df040f15088dc2f81fe391c3923bec73e23a9662efc9c229c6a006104aa565b6111b96113a8565b6113248282610600565b6105e15760405163e2517d3f60e01b81526001600160a01b03821660048201526024810183905260440161055a565b61135c826113cd565b6040516001600160a01b038316907fbc7cd75a20ee27fd9adebab32041f755214dbc6bffa90cc0225b39da2e5c2d3b905f90a28051156113a0576105258282611430565b6105e16114a2565b6113b06114c1565b6111b957604051631afcd79f60e31b815260040160405180910390fd5b806001600160a01b03163b5f0361140257604051634c9c8ce360e01b81526001600160a01b038216600482015260240161055a565b5f51602061199b5f395f51905f5280546001600160a01b0319166001600160a01b0392909216919091179055565b60605f5f846001600160a01b03168460405161144c9190611984565b5f60405180830381855af49150503d805f8114611484576040519150601f19603f3d011682016040523d82523d5f602084013e611489565b606091505b50915091506114998583836114da565b95945050505050565b34156111b95760405163b398979f60e01b815260040160405180910390fd5b5f6114ca6112ea565b54600160401b900460ff16919050565b6060826114ef576114ea82611539565b611532565b815115801561150657506001600160a01b0384163b155b1561152f57604051639996b31560e01b81526001600160a01b038516600482015260240161055a565b50805b9392505050565b8051156115495780518082602001fd5b60405163d6bda27560e01b815260040160405180910390fd5b5f60208284031215611572575f5ffd5b81356001600160e01b031981168114611532575f5ffd5b5f60208284031215611599575f5ffd5b5035919050565b80356001600160a01b03811681146115b6575f5ffd5b919050565b5f5f604083850312156115cc575f5ffd5b823591506115dc602084016115a0565b90509250929050565b5f602082840312156115f5575f5ffd5b611532826115a0565b634e487b7160e01b5f52604160045260245ffd5b604051601f8201601f1916810167ffffffffffffffff8111828210171561163b5761163b6115fe565b604052919050565b5f5f60408385031215611654575f5ffd5b61165d836115a0565b9150602083013567ffffffffffffffff811115611678575f5ffd5b8301601f81018513611688575f5ffd5b803567ffffffffffffffff8111156116a2576116a26115fe565b6116b5601f8201601f1916602001611612565b8181528660208385010111156116c9575f5ffd5b816020840160208301375f602083830101528093505050509250929050565b602081525f82518060208401528060208501604085015e5f604082850101526040601f19601f83011684010191505092915050565b5f606082840312801561172e575f5ffd5b506040516060810167ffffffffffffffff81118282101715611752576117526115fe565b60405282358152602083013560ff8116811461176c575f5ffd5b60208201526040928301359281019290925250919050565b5f5f5f5f60808587031215611797575f5ffd5b6117a0856115a0565b93506117ae602086016115a0565b92506117bc604086016115a0565b91506117ca606086016115a0565b905092959194509250565b60208082526021908201527f5265706f727465723a205a65726f206355535044546f6b656e206164647265736040820152607360f81b606082015260800190565b60208082526023908201527f5265706f727465723a205a65726f2052617465436f6e7472616374206164647260408201526265737360e81b606082015260800190565b5f60208284031215611869575f5ffd5b5051919050565b60208082526026908201527f5265706f727465723a2043757272656e74207969656c6420666163746f72206960408201526573207a65726f60d01b606082015260800190565b634e487b7160e01b5f52601160045260245ffd5b80820281158282048414176104aa576104aa6118b6565b5f826118fb57634e487b7160e01b5f52601260045260245ffd5b500490565b808201808211156104aa576104aa6118b6565b5f600160ff1b8201611927576119276118b6565b505f0390565b818103818111156104aa576104aa6118b6565b60208082526024908201527f5265706f727465723a205a65726f2053746162696c697a65724e4654206164646040820152637265737360e01b606082015260800190565b5f82518060208501845e5f92019182525091905056fe360894a13ba1a3210667c828492db98dca3e2076cc3735a920a3ca505d382bbc73e573f9566d61418a34d5de3ff49360f9c51fec37f7486551670290f6285dab02dd7bc7dec4dceedda775e58dd541e08a116c6c53815c0bd028192f7b626800a26469706673582212205a5d104614b8bd1babb2c153435180bd8024113bb5382fd9446aeff011e7a2dd64736f6c634300081d0033","linkReferences":{}},"methodIdentifiers":{"DEFAULT_ADMIN_ROLE()":"a217fddf","FACTOR_PRECISION()":"a42c69a9","UPDATER_ROLE()":"47e63380","UPGRADER_ROLE()":"f72c0d8b","UPGRADE_INTERFACE_VERSION()":"ad3cb1cc","cuspdToken()":"6bc05b7e","getRoleAdmin(bytes32)":"248a9ca3","getSystemCollateralizationRatio((uint256,uint8,uint256))":"b3673807","grantRole(bytes32,address)":"2f2ff15d","hasRole(bytes32,address)":"91d14854","initialize(address,address,address,address)":"f8c8765e","proxiableUUID()":"52d1902d","rateContract()":"eee24219","renounceRole(bytes32,address)":"36568abe","resetCollateralSnapshot(uint256)":"e0bb8809","revokeRole(bytes32,address)":"d547741f","stabilizerNFTContract()":"bec070d6","supportsInterface(bytes4)":"01ffc9a7","totalEthEquivalentAtLastSnapshot()":"ffb618d4","updateCUSPDToken(address)":"4d27f08b","updateRateContract(address)":"a6f4ae27","updateSnapshot(int256)":"f6ff3ee8","updateStabilizerNFTContract(address)":"fb310d71","upgradeToAndCall(address,bytes)":"4f1ef286","yieldFactorAtLastSnapshot()":"07c548de"},"storageLayout":{"storage":[{"astId":49935,"contract":"src/OvercollateralizationReporter.sol:OvercollateralizationReporter","label":"totalEthEquivalentAtLastSnapshot","offset":0,"slot":"0","type":"t_uint256"},{"astId":49938,"contract":"src/OvercollateralizationReporter.sol:OvercollateralizationReporter","label":"yieldFactorAtLastSnapshot","offset":0,"slot":"1","type":"t_uint256"},{"astId":49941,"contract":"src/OvercollateralizationReporter.sol:OvercollateralizationReporter","label":"stabilizerNFTContract","offset":0,"slot":"2","type":"t_address"},{"astId":49945,"contract":"src/OvercollateralizationReporter.sol:OvercollateralizationReporter","label":"rateContract","offset":0,"slot":"3","type":"t_contract(IPoolSharesConversionRate)58488"},{"astId":49949,"contract":"src/OvercollateralizationReporter.sol:OvercollateralizationReporter","label":"cuspdToken","offset":0,"slot":"4","type":"t_contract(IcUSPDToken)58899"}],"types":{"t_address":{"encoding":"inplace","label":"address","numberOfBytes":"20"},"t_contract(IPoolSharesConversionRate)58488":{"encoding":"inplace","label":"contract IPoolSharesConversionRate","numberOfBytes":"20"},"t_contract(IcUSPDToken)58899":{"encoding":"inplace","label":"contract IcUSPDToken","numberOfBytes":"20"},"t_uint256":{"encoding":"inplace","label":"uint256","numberOfBytes":"32"}}},"id":77}